{
  "contractName": "ERC1155PresetMinterPauserUpgradeable",
  "abi": [
    {
      "anonymous": false,
      "inputs": [
        {
          "indexed": true,
          "internalType": "address",
          "name": "account",
          "type": "address"
        },
        {
          "indexed": true,
          "internalType": "address",
          "name": "operator",
          "type": "address"
        },
        {
          "indexed": false,
          "internalType": "bool",
          "name": "approved",
          "type": "bool"
        }
      ],
      "name": "ApprovalForAll",
      "type": "event"
    },
    {
      "anonymous": false,
      "inputs": [
        {
          "indexed": false,
          "internalType": "address",
          "name": "account",
          "type": "address"
        }
      ],
      "name": "Paused",
      "type": "event"
    },
    {
      "anonymous": false,
      "inputs": [
        {
          "indexed": true,
          "internalType": "bytes32",
          "name": "role",
          "type": "bytes32"
        },
        {
          "indexed": true,
          "internalType": "bytes32",
          "name": "previousAdminRole",
          "type": "bytes32"
        },
        {
          "indexed": true,
          "internalType": "bytes32",
          "name": "newAdminRole",
          "type": "bytes32"
        }
      ],
      "name": "RoleAdminChanged",
      "type": "event"
    },
    {
      "anonymous": false,
      "inputs": [
        {
          "indexed": true,
          "internalType": "bytes32",
          "name": "role",
          "type": "bytes32"
        },
        {
          "indexed": true,
          "internalType": "address",
          "name": "account",
          "type": "address"
        },
        {
          "indexed": true,
          "internalType": "address",
          "name": "sender",
          "type": "address"
        }
      ],
      "name": "RoleGranted",
      "type": "event"
    },
    {
      "anonymous": false,
      "inputs": [
        {
          "indexed": true,
          "internalType": "bytes32",
          "name": "role",
          "type": "bytes32"
        },
        {
          "indexed": true,
          "internalType": "address",
          "name": "account",
          "type": "address"
        },
        {
          "indexed": true,
          "internalType": "address",
          "name": "sender",
          "type": "address"
        }
      ],
      "name": "RoleRevoked",
      "type": "event"
    },
    {
      "anonymous": false,
      "inputs": [
        {
          "indexed": true,
          "internalType": "address",
          "name": "operator",
          "type": "address"
        },
        {
          "indexed": true,
          "internalType": "address",
          "name": "from",
          "type": "address"
        },
        {
          "indexed": true,
          "internalType": "address",
          "name": "to",
          "type": "address"
        },
        {
          "indexed": false,
          "internalType": "uint256[]",
          "name": "ids",
          "type": "uint256[]"
        },
        {
          "indexed": false,
          "internalType": "uint256[]",
          "name": "values",
          "type": "uint256[]"
        }
      ],
      "name": "TransferBatch",
      "type": "event"
    },
    {
      "anonymous": false,
      "inputs": [
        {
          "indexed": true,
          "internalType": "address",
          "name": "operator",
          "type": "address"
        },
        {
          "indexed": true,
          "internalType": "address",
          "name": "from",
          "type": "address"
        },
        {
          "indexed": true,
          "internalType": "address",
          "name": "to",
          "type": "address"
        },
        {
          "indexed": false,
          "internalType": "uint256",
          "name": "id",
          "type": "uint256"
        },
        {
          "indexed": false,
          "internalType": "uint256",
          "name": "value",
          "type": "uint256"
        }
      ],
      "name": "TransferSingle",
      "type": "event"
    },
    {
      "anonymous": false,
      "inputs": [
        {
          "indexed": false,
          "internalType": "string",
          "name": "value",
          "type": "string"
        },
        {
          "indexed": true,
          "internalType": "uint256",
          "name": "id",
          "type": "uint256"
        }
      ],
      "name": "URI",
      "type": "event"
    },
    {
      "anonymous": false,
      "inputs": [
        {
          "indexed": false,
          "internalType": "address",
          "name": "account",
          "type": "address"
        }
      ],
      "name": "Unpaused",
      "type": "event"
    },
    {
      "inputs": [],
      "name": "DEFAULT_ADMIN_ROLE",
      "outputs": [
        {
          "internalType": "bytes32",
          "name": "",
          "type": "bytes32"
        }
      ],
      "stateMutability": "view",
      "type": "function"
    },
    {
      "inputs": [],
      "name": "MINTER_ROLE",
      "outputs": [
        {
          "internalType": "bytes32",
          "name": "",
          "type": "bytes32"
        }
      ],
      "stateMutability": "view",
      "type": "function"
    },
    {
      "inputs": [],
      "name": "PAUSER_ROLE",
      "outputs": [
        {
          "internalType": "bytes32",
          "name": "",
          "type": "bytes32"
        }
      ],
      "stateMutability": "view",
      "type": "function"
    },
    {
      "inputs": [
        {
          "internalType": "address",
          "name": "account",
          "type": "address"
        },
        {
          "internalType": "uint256",
          "name": "id",
          "type": "uint256"
        }
      ],
      "name": "balanceOf",
      "outputs": [
        {
          "internalType": "uint256",
          "name": "",
          "type": "uint256"
        }
      ],
      "stateMutability": "view",
      "type": "function"
    },
    {
      "inputs": [
        {
          "internalType": "address[]",
          "name": "accounts",
          "type": "address[]"
        },
        {
          "internalType": "uint256[]",
          "name": "ids",
          "type": "uint256[]"
        }
      ],
      "name": "balanceOfBatch",
      "outputs": [
        {
          "internalType": "uint256[]",
          "name": "",
          "type": "uint256[]"
        }
      ],
      "stateMutability": "view",
      "type": "function"
    },
    {
      "inputs": [
        {
          "internalType": "address",
          "name": "account",
          "type": "address"
        },
        {
          "internalType": "uint256",
          "name": "id",
          "type": "uint256"
        },
        {
          "internalType": "uint256",
          "name": "value",
          "type": "uint256"
        }
      ],
      "name": "burn",
      "outputs": [],
      "stateMutability": "nonpayable",
      "type": "function"
    },
    {
      "inputs": [
        {
          "internalType": "address",
          "name": "account",
          "type": "address"
        },
        {
          "internalType": "uint256[]",
          "name": "ids",
          "type": "uint256[]"
        },
        {
          "internalType": "uint256[]",
          "name": "values",
          "type": "uint256[]"
        }
      ],
      "name": "burnBatch",
      "outputs": [],
      "stateMutability": "nonpayable",
      "type": "function"
    },
    {
      "inputs": [
        {
          "internalType": "bytes32",
          "name": "role",
          "type": "bytes32"
        }
      ],
      "name": "getRoleAdmin",
      "outputs": [
        {
          "internalType": "bytes32",
          "name": "",
          "type": "bytes32"
        }
      ],
      "stateMutability": "view",
      "type": "function"
    },
    {
      "inputs": [
        {
          "internalType": "bytes32",
          "name": "role",
          "type": "bytes32"
        },
        {
          "internalType": "uint256",
          "name": "index",
          "type": "uint256"
        }
      ],
      "name": "getRoleMember",
      "outputs": [
        {
          "internalType": "address",
          "name": "",
          "type": "address"
        }
      ],
      "stateMutability": "view",
      "type": "function"
    },
    {
      "inputs": [
        {
          "internalType": "bytes32",
          "name": "role",
          "type": "bytes32"
        }
      ],
      "name": "getRoleMemberCount",
      "outputs": [
        {
          "internalType": "uint256",
          "name": "",
          "type": "uint256"
        }
      ],
      "stateMutability": "view",
      "type": "function"
    },
    {
      "inputs": [
        {
          "internalType": "bytes32",
          "name": "role",
          "type": "bytes32"
        },
        {
          "internalType": "address",
          "name": "account",
          "type": "address"
        }
      ],
      "name": "grantRole",
      "outputs": [],
      "stateMutability": "nonpayable",
      "type": "function"
    },
    {
      "inputs": [
        {
          "internalType": "bytes32",
          "name": "role",
          "type": "bytes32"
        },
        {
          "internalType": "address",
          "name": "account",
          "type": "address"
        }
      ],
      "name": "hasRole",
      "outputs": [
        {
          "internalType": "bool",
          "name": "",
          "type": "bool"
        }
      ],
      "stateMutability": "view",
      "type": "function"
    },
    {
      "inputs": [
        {
          "internalType": "address",
          "name": "account",
          "type": "address"
        },
        {
          "internalType": "address",
          "name": "operator",
          "type": "address"
        }
      ],
      "name": "isApprovedForAll",
      "outputs": [
        {
          "internalType": "bool",
          "name": "",
          "type": "bool"
        }
      ],
      "stateMutability": "view",
      "type": "function"
    },
    {
      "inputs": [],
      "name": "paused",
      "outputs": [
        {
          "internalType": "bool",
          "name": "",
          "type": "bool"
        }
      ],
      "stateMutability": "view",
      "type": "function"
    },
    {
      "inputs": [
        {
          "internalType": "bytes32",
          "name": "role",
          "type": "bytes32"
        },
        {
          "internalType": "address",
          "name": "account",
          "type": "address"
        }
      ],
      "name": "renounceRole",
      "outputs": [],
      "stateMutability": "nonpayable",
      "type": "function"
    },
    {
      "inputs": [
        {
          "internalType": "bytes32",
          "name": "role",
          "type": "bytes32"
        },
        {
          "internalType": "address",
          "name": "account",
          "type": "address"
        }
      ],
      "name": "revokeRole",
      "outputs": [],
      "stateMutability": "nonpayable",
      "type": "function"
    },
    {
      "inputs": [
        {
          "internalType": "address",
          "name": "from",
          "type": "address"
        },
        {
          "internalType": "address",
          "name": "to",
          "type": "address"
        },
        {
          "internalType": "uint256[]",
          "name": "ids",
          "type": "uint256[]"
        },
        {
          "internalType": "uint256[]",
          "name": "amounts",
          "type": "uint256[]"
        },
        {
          "internalType": "bytes",
          "name": "data",
          "type": "bytes"
        }
      ],
      "name": "safeBatchTransferFrom",
      "outputs": [],
      "stateMutability": "nonpayable",
      "type": "function"
    },
    {
      "inputs": [
        {
          "internalType": "address",
          "name": "from",
          "type": "address"
        },
        {
          "internalType": "address",
          "name": "to",
          "type": "address"
        },
        {
          "internalType": "uint256",
          "name": "id",
          "type": "uint256"
        },
        {
          "internalType": "uint256",
          "name": "amount",
          "type": "uint256"
        },
        {
          "internalType": "bytes",
          "name": "data",
          "type": "bytes"
        }
      ],
      "name": "safeTransferFrom",
      "outputs": [],
      "stateMutability": "nonpayable",
      "type": "function"
    },
    {
      "inputs": [
        {
          "internalType": "address",
          "name": "operator",
          "type": "address"
        },
        {
          "internalType": "bool",
          "name": "approved",
          "type": "bool"
        }
      ],
      "name": "setApprovalForAll",
      "outputs": [],
      "stateMutability": "nonpayable",
      "type": "function"
    },
    {
      "inputs": [
        {
          "internalType": "uint256",
          "name": "",
          "type": "uint256"
        }
      ],
      "name": "uri",
      "outputs": [
        {
          "internalType": "string",
          "name": "",
          "type": "string"
        }
      ],
      "stateMutability": "view",
      "type": "function"
    },
    {
      "inputs": [
        {
          "internalType": "string",
          "name": "uri",
          "type": "string"
        }
      ],
      "name": "initialize",
      "outputs": [],
      "stateMutability": "nonpayable",
      "type": "function"
    },
    {
      "inputs": [
        {
          "internalType": "address",
          "name": "to",
          "type": "address"
        },
        {
          "internalType": "uint256",
          "name": "id",
          "type": "uint256"
        },
        {
          "internalType": "uint256",
          "name": "amount",
          "type": "uint256"
        },
        {
          "internalType": "bytes",
          "name": "data",
          "type": "bytes"
        }
      ],
      "name": "mint",
      "outputs": [],
      "stateMutability": "nonpayable",
      "type": "function"
    },
    {
      "inputs": [
        {
          "internalType": "address",
          "name": "to",
          "type": "address"
        },
        {
          "internalType": "uint256[]",
          "name": "ids",
          "type": "uint256[]"
        },
        {
          "internalType": "uint256[]",
          "name": "amounts",
          "type": "uint256[]"
        },
        {
          "internalType": "bytes",
          "name": "data",
          "type": "bytes"
        }
      ],
      "name": "mintBatch",
      "outputs": [],
      "stateMutability": "nonpayable",
      "type": "function"
    },
    {
      "inputs": [],
      "name": "pause",
      "outputs": [],
      "stateMutability": "nonpayable",
      "type": "function"
    },
    {
      "inputs": [],
      "name": "unpause",
      "outputs": [],
      "stateMutability": "nonpayable",
      "type": "function"
    },
    {
      "inputs": [
        {
          "internalType": "bytes4",
          "name": "interfaceId",
          "type": "bytes4"
        }
      ],
      "name": "supportsInterface",
      "outputs": [
        {
          "internalType": "bool",
          "name": "",
          "type": "bool"
        }
      ],
      "stateMutability": "view",
      "type": "function"
    }
  ],
  "bytecode": "0x608060405234801561001057600080fd5b506132d4806100206000396000f3fe608060405234801561001057600080fd5b50600436106101ad5760003560e01c80638456cb59116100ee578063d539139311610097578063e985e9c511610071578063e985e9c5146103dd578063f242432a14610419578063f5298aca1461042c578063f62d18881461043f576101ad565b8063d53913931461037c578063d547741f146103a3578063e63ab1e9146103b6576101ad565b8063a217fddf116100c8578063a217fddf1461034e578063a22cb46514610356578063ca15c87314610369576101ad565b80638456cb59146102e25780639010d07c146102ea57806391d1485414610315576101ad565b80632f2ff15d1161015b5780634e1273f4116101355780634e1273f4146102945780635c975abb146102b45780636b20c454146102bc578063731133e9146102cf576101ad565b80632f2ff15d1461026657806336568abe146102795780633f4ba83a1461028c576101ad565b80631f7fdffa1161018c5780631f7fdffa1461021b578063248a9ca3146102305780632eb2c2d614610253576101ad565b8062fdd58e146101b257806301ffc9a7146101d85780630e89341c146101fb575b600080fd5b6101c56101c0366004612d09565b610452565b6040519081526020015b60405180910390f35b6101eb6101e6366004612edd565b610500565b60405190151581526020016101cf565b61020e610209366004612e82565b610513565b6040516101cf91906130ca565b61022e610229366004612c3a565b6105a7565b005b6101c561023e366004612e82565b60009081526065602052604090206001015490565b61022e610261366004612ac0565b610655565b61022e610274366004612e9a565b6109cc565b61022e610287366004612e9a565b6109f3565b61022e610a15565b6102a76102a2366004612db7565b610abb565b6040516101cf9190613089565b6101eb610c31565b61022e6102ca366004612bc9565b610c3c565b61022e6102dd366004612d64565b610cc1565b61022e610d69565b6102fd6102f8366004612ebc565b610e0d565b6040516001600160a01b0390911681526020016101cf565b6101eb610323366004612e9a565b60009182526065602090815260408084206001600160a01b0393909316845291905290205460ff1690565b6101c5600081565b61022e610364366004612ccf565b610e2c565b6101c5610377366004612e82565b610f24565b6101c57f9f2df0fed2c77648de5860a4cc508cd0818c85b8b8a1ab4ceeef8d981c8956a681565b61022e6103b1366004612e9a565b610f3b565b6101c57f65d7a28e3265b37a6474929f336521b332c1681b933f6cb9f3376673440d862a81565b6101eb6103eb366004612a8e565b6001600160a01b03918216600090815260ca6020908152604080832093909416825291909152205460ff1690565b61022e610427366004612b66565b610f45565b61022e61043a366004612d32565b61118c565b61022e61044d366004612f15565b611211565b60006001600160a01b0383166104d55760405162461bcd60e51b815260206004820152602b60248201527f455243313135353a2062616c616e636520717565727920666f7220746865207a60448201527f65726f206164647265737300000000000000000000000000000000000000000060648201526084015b60405180910390fd5b50600081815260c9602090815260408083206001600160a01b03861684529091529020545b92915050565b600061050b826112ce565b90505b919050565b606060cb805461052290613130565b80601f016020809104026020016040519081016040528092919081815260200182805461054e90613130565b801561059b5780601f106105705761010080835404028352916020019161059b565b820191906000526020600020905b81548152906001019060200180831161057e57829003601f168201915b50505050509050919050565b6105d17f9f2df0fed2c77648de5860a4cc508cd0818c85b8b8a1ab4ceeef8d981c8956a633610323565b6106435760405162461bcd60e51b815260206004820152603860248201527f455243313135355072657365744d696e7465725061757365723a206d7573742060448201527f68617665206d696e74657220726f6c6520746f206d696e74000000000000000060648201526084016104cc565b61064f84848484611340565b50505050565b81518351146106b75760405162461bcd60e51b815260206004820152602860248201527f455243313135353a2069647320616e6420616d6f756e7473206c656e677468206044820152670dad2e6dac2e8c6d60c31b60648201526084016104cc565b6001600160a01b03841661071b5760405162461bcd60e51b815260206004820152602560248201527f455243313135353a207472616e7366657220746f20746865207a65726f206164604482015264647265737360d81b60648201526084016104cc565b6001600160a01b038516331480610737575061073785336103eb565b6107a95760405162461bcd60e51b815260206004820152603260248201527f455243313135353a207472616e736665722063616c6c6572206973206e6f742060448201527f6f776e6572206e6f7220617070726f766564000000000000000000000000000060648201526084016104cc565b336107b8818787878787611539565b60005b845181101561095e5760008582815181106107e657634e487b7160e01b600052603260045260246000fd5b60200260200101519050600085838151811061081257634e487b7160e01b600052603260045260246000fd5b602090810291909101810151600084815260c9835260408082206001600160a01b038e1683529093529190912054909150818110156108b95760405162461bcd60e51b815260206004820152602a60248201527f455243313135353a20696e73756666696369656e742062616c616e636520666f60448201527f72207472616e736665720000000000000000000000000000000000000000000060648201526084016104cc565b6108c38282613119565b60c9600085815260200190815260200160002060008c6001600160a01b03166001600160a01b03168152602001908152602001600020819055508160c9600085815260200190815260200160002060008b6001600160a01b03166001600160a01b0316815260200190815260200160002060008282546109439190613101565b925050819055505050508061095790613198565b90506107bb565b50846001600160a01b0316866001600160a01b0316826001600160a01b03167f4a39dc06d4c0dbc64b70af90fd698a233a518aa5d07e595d983b8c0526c8f7fb87876040516109ae92919061309c565b60405180910390a46109c4818787878787611547565b505050505050565b6109d682826116fc565b60008281526097602052604090206109ee9082611795565b505050565b6109fd82826117aa565b60008281526097602052604090206109ee9082611832565b610a3f7f65d7a28e3265b37a6474929f336521b332c1681b933f6cb9f3376673440d862a33610323565b610ab15760405162461bcd60e51b815260206004820152603b60248201527f455243313135355072657365744d696e7465725061757365723a206d7573742060448201527f686176652070617573657220726f6c6520746f20756e7061757365000000000060648201526084016104cc565b610ab9611847565b565b60608151835114610b345760405162461bcd60e51b815260206004820152602960248201527f455243313135353a206163636f756e747320616e6420696473206c656e67746860448201527f206d69736d61746368000000000000000000000000000000000000000000000060648201526084016104cc565b6000835167ffffffffffffffff811115610b5e57634e487b7160e01b600052604160045260246000fd5b604051908082528060200260200182016040528015610b87578160200160208202803683370190505b50905060005b8451811015610c2957610bee858281518110610bb957634e487b7160e01b600052603260045260246000fd5b6020026020010151858381518110610be157634e487b7160e01b600052603260045260246000fd5b6020026020010151610452565b828281518110610c0e57634e487b7160e01b600052603260045260246000fd5b6020908102919091010152610c2281613198565b9050610b8d565b509392505050565b61012d5460ff165b90565b6001600160a01b038316331480610c585750610c5883336103eb565b610cb65760405162461bcd60e51b815260206004820152602960248201527f455243313135353a2063616c6c6572206973206e6f74206f776e6572206e6f7260448201526808185c1c1c9bdd995960ba1b60648201526084016104cc565b6109ee8383836118e6565b610ceb7f9f2df0fed2c77648de5860a4cc508cd0818c85b8b8a1ab4ceeef8d981c8956a633610323565b610d5d5760405162461bcd60e51b815260206004820152603860248201527f455243313135355072657365744d696e7465725061757365723a206d7573742060448201527f68617665206d696e74657220726f6c6520746f206d696e74000000000000000060648201526084016104cc565b61064f84848484611b59565b610d937f65d7a28e3265b37a6474929f336521b332c1681b933f6cb9f3376673440d862a33610323565b610e055760405162461bcd60e51b815260206004820152603960248201527f455243313135355072657365744d696e7465725061757365723a206d7573742060448201527f686176652070617573657220726f6c6520746f2070617573650000000000000060648201526084016104cc565b610ab9611c5c565b6000828152609760205260408120610e259083611ce7565b9392505050565b336001600160a01b0383161415610eab5760405162461bcd60e51b815260206004820152602960248201527f455243313135353a2073657474696e6720617070726f76616c2073746174757360448201527f20666f722073656c66000000000000000000000000000000000000000000000060648201526084016104cc565b33600081815260ca602090815260408083206001600160a01b0387168085529252909120805460ff1916841515179055906001600160a01b03167f17307eab39ab6107e8899845ad3d59bd9653f200f220920489ca2b5937696c3183604051610f18911515815260200190565b60405180910390a35050565b600081815260976020526040812061050b90611cf3565b6109fd8282611cfd565b6001600160a01b038416610fa95760405162461bcd60e51b815260206004820152602560248201527f455243313135353a207472616e7366657220746f20746865207a65726f206164604482015264647265737360d81b60648201526084016104cc565b6001600160a01b038516331480610fc55750610fc585336103eb565b6110235760405162461bcd60e51b815260206004820152602960248201527f455243313135353a2063616c6c6572206973206e6f74206f776e6572206e6f7260448201526808185c1c1c9bdd995960ba1b60648201526084016104cc565b3361104281878761103388611d8a565b61103c88611d8a565b87611539565b600084815260c9602090815260408083206001600160a01b038a168452909152902054838110156110db5760405162461bcd60e51b815260206004820152602a60248201527f455243313135353a20696e73756666696369656e742062616c616e636520666f60448201527f72207472616e736665720000000000000000000000000000000000000000000060648201526084016104cc565b6110e58482613119565b600086815260c9602090815260408083206001600160a01b038c81168552925280832093909355881681529081208054869290611123908490613101565b909155505060408051868152602081018690526001600160a01b03808916928a821692918616917fc3d58168c5ae7397731d063d5bbf3d657854427343f4c083240f7aacaa2d0f62910160405180910390a4611183828888888888611de3565b50505050505050565b6001600160a01b0383163314806111a857506111a883336103eb565b6112065760405162461bcd60e51b815260206004820152602960248201527f455243313135353a2063616c6c6572206973206e6f74206f776e6572206e6f7260448201526808185c1c1c9bdd995960ba1b60648201526084016104cc565b6109ee838383611eee565b600054610100900460ff168061122a575060005460ff16155b61128d5760405162461bcd60e51b815260206004820152602e60248201527f496e697469616c697a61626c653a20636f6e747261637420697320616c72656160448201526d191e481a5b9a5d1a585b1a5e995960921b60648201526084016104cc565b600054610100900460ff161580156112af576000805461ffff19166101011790555b6112b882612073565b80156112ca576000805461ff00191690555b5050565b60006001600160e01b031982167fd9b67a2600000000000000000000000000000000000000000000000000000000148061133157506001600160e01b031982167f0e89341c00000000000000000000000000000000000000000000000000000000145b8061050b575061050b8261215b565b6001600160a01b0384166113a05760405162461bcd60e51b815260206004820152602160248201527f455243313135353a206d696e7420746f20746865207a65726f206164647265736044820152607360f81b60648201526084016104cc565b81518351146114025760405162461bcd60e51b815260206004820152602860248201527f455243313135353a2069647320616e6420616d6f756e7473206c656e677468206044820152670dad2e6dac2e8c6d60c31b60648201526084016104cc565b3361141281600087878787611539565b60005b84518110156114ca5783818151811061143e57634e487b7160e01b600052603260045260246000fd5b602002602001015160c9600087848151811061146a57634e487b7160e01b600052603260045260246000fd5b602002602001015181526020019081526020016000206000886001600160a01b03166001600160a01b0316815260200190815260200160002060008282546114b29190613101565b909155508190506114c281613198565b915050611415565b50846001600160a01b031660006001600160a01b0316826001600160a01b03167f4a39dc06d4c0dbc64b70af90fd698a233a518aa5d07e595d983b8c0526c8f7fb878760405161151b92919061309c565b60405180910390a461153281600087878787611547565b5050505050565b6109c4868686868686612199565b6001600160a01b0384163b156109c45760405163bc197c8160e01b81526001600160a01b0385169063bc197c819061158b9089908990889088908890600401612fe8565b602060405180830381600087803b1580156115a557600080fd5b505af19250505080156115d5575060408051601f3d908101601f191682019092526115d291810190612ef9565b60015b61168b576115e16131df565b806308c379a0141561161b57506115f66131f6565b80611601575061161d565b8060405162461bcd60e51b81526004016104cc91906130ca565b505b60405162461bcd60e51b815260206004820152603460248201527f455243313135353a207472616e7366657220746f206e6f6e204552433131353560448201527f526563656976657220696d706c656d656e74657200000000000000000000000060648201526084016104cc565b6001600160e01b0319811663bc197c8160e01b146111835760405162461bcd60e51b815260206004820152602860248201527f455243313135353a204552433131353552656365697665722072656a656374656044820152676420746f6b656e7360c01b60648201526084016104cc565b600082815260656020526040902060010154611719905b33610323565b61178b5760405162461bcd60e51b815260206004820152602f60248201527f416363657373436f6e74726f6c3a2073656e646572206d75737420626520616e60448201527f2061646d696e20746f206772616e74000000000000000000000000000000000060648201526084016104cc565b6112ca8282612214565b6000610e25836001600160a01b0384166122b6565b6001600160a01b03811633146118285760405162461bcd60e51b815260206004820152602f60248201527f416363657373436f6e74726f6c3a2063616e206f6e6c792072656e6f756e636560448201527f20726f6c657320666f722073656c66000000000000000000000000000000000060648201526084016104cc565b6112ca8282612305565b6000610e25836001600160a01b038416612388565b61184f610c31565b61189b5760405162461bcd60e51b815260206004820152601460248201527f5061757361626c653a206e6f742070617573656400000000000000000000000060448201526064016104cc565b61012d805460ff191690557f5db9ee0a495bf2e6ff9c91a7834c1ba4fdd244a5e8aa4e537bd38aeae4b073aa335b6040516001600160a01b03909116815260200160405180910390a1565b6001600160a01b0383166119485760405162461bcd60e51b815260206004820152602360248201527f455243313135353a206275726e2066726f6d20746865207a65726f206164647260448201526265737360e81b60648201526084016104cc565b80518251146119aa5760405162461bcd60e51b815260206004820152602860248201527f455243313135353a2069647320616e6420616d6f756e7473206c656e677468206044820152670dad2e6dac2e8c6d60c31b60648201526084016104cc565b60003390506119cd81856000868660405180602001604052806000815250611539565b60005b8351811015611afa5760008482815181106119fb57634e487b7160e01b600052603260045260246000fd5b602002602001015190506000848381518110611a2757634e487b7160e01b600052603260045260246000fd5b602090810291909101810151600084815260c9835260408082206001600160a01b038c168352909352919091205490915081811015611ab45760405162461bcd60e51b8152602060048201526024808201527f455243313135353a206275726e20616d6f756e7420657863656564732062616c604482015263616e636560e01b60648201526084016104cc565b611abe8282613119565b600093845260c9602090815260408086206001600160a01b038c1687529091529093209290925550819050611af281613198565b9150506119d0565b5060006001600160a01b0316846001600160a01b0316826001600160a01b03167f4a39dc06d4c0dbc64b70af90fd698a233a518aa5d07e595d983b8c0526c8f7fb8686604051611b4b92919061309c565b60405180910390a450505050565b6001600160a01b038416611bb95760405162461bcd60e51b815260206004820152602160248201527f455243313135353a206d696e7420746f20746865207a65726f206164647265736044820152607360f81b60648201526084016104cc565b33611bca8160008761103388611d8a565b600084815260c9602090815260408083206001600160a01b038916845290915281208054859290611bfc908490613101565b909155505060408051858152602081018590526001600160a01b0380881692600092918516917fc3d58168c5ae7397731d063d5bbf3d657854427343f4c083240f7aacaa2d0f62910160405180910390a461153281600087878787611de3565b611c64610c31565b15611cb15760405162461bcd60e51b815260206004820152601060248201527f5061757361626c653a207061757365640000000000000000000000000000000060448201526064016104cc565b61012d805460ff191660011790557f62e78cea01bee320cd4e420270b5ea74000d11b0c9f74754ebdbfc544b05a2586118c93390565b6000610e2583836124a5565b600061050b825490565b600082815260656020526040902060010154611d1890611713565b6118285760405162461bcd60e51b815260206004820152603060248201527f416363657373436f6e74726f6c3a2073656e646572206d75737420626520616e60448201527f2061646d696e20746f207265766f6b650000000000000000000000000000000060648201526084016104cc565b60408051600180825281830190925260609160009190602080830190803683370190505090508281600081518110611dd257634e487b7160e01b600052603260045260246000fd5b602090810291909101015292915050565b6001600160a01b0384163b156109c45760405163f23a6e6160e01b81526001600160a01b0385169063f23a6e6190611e279089908990889088908890600401613046565b602060405180830381600087803b158015611e4157600080fd5b505af1925050508015611e71575060408051601f3d908101601f19168201909252611e6e91810190612ef9565b60015b611e7d576115e16131df565b6001600160e01b0319811663f23a6e6160e01b146111835760405162461bcd60e51b815260206004820152602860248201527f455243313135353a204552433131353552656365697665722072656a656374656044820152676420746f6b656e7360c01b60648201526084016104cc565b6001600160a01b038316611f505760405162461bcd60e51b815260206004820152602360248201527f455243313135353a206275726e2066726f6d20746865207a65726f206164647260448201526265737360e81b60648201526084016104cc565b33611f7f81856000611f6187611d8a565b611f6a87611d8a565b60405180602001604052806000815250611539565b600083815260c9602090815260408083206001600160a01b038816845290915290205482811015611ffe5760405162461bcd60e51b8152602060048201526024808201527f455243313135353a206275726e20616d6f756e7420657863656564732062616c604482015263616e636560e01b60648201526084016104cc565b6120088382613119565b600085815260c9602090815260408083206001600160a01b038a811680865291845282852095909555815189815292830188905292938616917fc3d58168c5ae7397731d063d5bbf3d657854427343f4c083240f7aacaa2d0f62910160405180910390a45050505050565b600054610100900460ff168061208c575060005460ff16155b6120ef5760405162461bcd60e51b815260206004820152602e60248201527f496e697469616c697a61626c653a20636f6e747261637420697320616c72656160448201526d191e481a5b9a5d1a585b1a5e995960921b60648201526084016104cc565b600054610100900460ff16158015612111576000805461ffff19166101011790555b612119612554565b612121612554565b612129612554565b612131612554565b61213a82612607565b612142612554565b61214a6126ae565b612152612554565b6112b88261276b565b60006001600160e01b031982167f5a05180f00000000000000000000000000000000000000000000000000000000148061050b575061050b82612869565b6121a1610c31565b156109c45760405162461bcd60e51b815260206004820152602c60248201527f455243313135355061757361626c653a20746f6b656e207472616e736665722060448201527f7768696c6520706175736564000000000000000000000000000000000000000060648201526084016104cc565b60008281526065602090815260408083206001600160a01b038516845290915290205460ff166112ca5760008281526065602090815260408083206001600160a01b03851684529091529020805460ff191660011790556122723390565b6001600160a01b0316816001600160a01b0316837f2f8788117e7eff1d82e926ec794901d17c78024a50270940304540a733656f0d60405160405180910390a45050565b60008181526001830160205260408120546122fd575081546001818101845560008481526020808220909301849055845484825282860190935260409020919091556104fa565b5060006104fa565b60008281526065602090815260408083206001600160a01b038516845290915290205460ff16156112ca5760008281526065602090815260408083206001600160a01b0385168085529252808320805460ff1916905551339285917ff6391f5c32d9c69d2a47ea670b442974b53935d1edc7fd64eb21e047a839171b9190a45050565b6000818152600183016020526040812054801561249b5760006123ac600183613119565b85549091506000906123c090600190613119565b905060008660000182815481106123e757634e487b7160e01b600052603260045260246000fd5b906000526020600020015490508087600001848154811061241857634e487b7160e01b600052603260045260246000fd5b60009182526020909120015561242f836001613101565b6000828152600189016020526040902055865487908061245f57634e487b7160e01b600052603160045260246000fd5b600190038181906000526020600020016000905590558660010160008781526020019081526020016000206000905560019450505050506104fa565b60009150506104fa565b8154600090821061251e5760405162461bcd60e51b815260206004820152602260248201527f456e756d657261626c655365743a20696e646578206f7574206f6620626f756e60448201527f647300000000000000000000000000000000000000000000000000000000000060648201526084016104cc565b82600001828154811061254157634e487b7160e01b600052603260045260246000fd5b9060005260206000200154905092915050565b600054610100900460ff168061256d575060005460ff16155b6125d05760405162461bcd60e51b815260206004820152602e60248201527f496e697469616c697a61626c653a20636f6e747261637420697320616c72656160448201526d191e481a5b9a5d1a585b1a5e995960921b60648201526084016104cc565b600054610100900460ff161580156125f2576000805461ffff19166101011790555b8015612604576000805461ff00191690555b50565b600054610100900460ff1680612620575060005460ff16155b6126835760405162461bcd60e51b815260206004820152602e60248201527f496e697469616c697a61626c653a20636f6e747261637420697320616c72656160448201526d191e481a5b9a5d1a585b1a5e995960921b60648201526084016104cc565b600054610100900460ff161580156126a5576000805461ffff19166101011790555b6112b8826128d0565b600054610100900460ff16806126c7575060005460ff16155b61272a5760405162461bcd60e51b815260206004820152602e60248201527f496e697469616c697a61626c653a20636f6e747261637420697320616c72656160448201526d191e481a5b9a5d1a585b1a5e995960921b60648201526084016104cc565b600054610100900460ff1615801561274c576000805461ffff19166101011790555b61012d805460ff191690558015612604576000805461ff001916905550565b600054610100900460ff1680612784575060005460ff16155b6127e75760405162461bcd60e51b815260206004820152602e60248201527f496e697469616c697a61626c653a20636f6e747261637420697320616c72656160448201526d191e481a5b9a5d1a585b1a5e995960921b60648201526084016104cc565b600054610100900460ff16158015612809576000805461ffff19166101011790555b6128156000335b6128e3565b61283f7f9f2df0fed2c77648de5860a4cc508cd0818c85b8b8a1ab4ceeef8d981c8956a633612810565b6112b87f65d7a28e3265b37a6474929f336521b332c1681b933f6cb9f3376673440d862a33612810565b60006001600160e01b031982167f7965db0b00000000000000000000000000000000000000000000000000000000148061050b57507f01ffc9a7000000000000000000000000000000000000000000000000000000006001600160e01b031983161461050b565b80516112ca9060cb9060208401906128ed565b6109d6828261178b565b8280546128f990613130565b90600052602060002090601f01602090048101928261291b5760008555612961565b82601f1061293457805160ff1916838001178555612961565b82800160010185558215612961579182015b82811115612961578251825591602001919060010190612946565b5061296d929150612971565b5090565b5b8082111561296d5760008155600101612972565b600067ffffffffffffffff8311156129a0576129a06131c9565b6040516129b7601f8501601f19166020018261316b565b8091508381528484840111156129cc57600080fd5b83836020830137600060208583010152509392505050565b80356001600160a01b038116811461050e57600080fd5b600082601f830112612a0b578081fd5b81356020612a18826130dd565b604051612a25828261316b565b8381528281019150858301600585901b87018401881015612a44578586fd5b855b85811015612a6257813584529284019290840190600101612a46565b5090979650505050505050565b600082601f830112612a7f578081fd5b610e2583833560208501612986565b60008060408385031215612aa0578182fd5b612aa9836129e4565b9150612ab7602084016129e4565b90509250929050565b600080600080600060a08688031215612ad7578081fd5b612ae0866129e4565b9450612aee602087016129e4565b9350604086013567ffffffffffffffff80821115612b0a578283fd5b612b1689838a016129fb565b94506060880135915080821115612b2b578283fd5b612b3789838a016129fb565b93506080880135915080821115612b4c578283fd5b50612b5988828901612a6f565b9150509295509295909350565b600080600080600060a08688031215612b7d578081fd5b612b86866129e4565b9450612b94602087016129e4565b93506040860135925060608601359150608086013567ffffffffffffffff811115612bbd578182fd5b612b5988828901612a6f565b600080600060608486031215612bdd578283fd5b612be6846129e4565b9250602084013567ffffffffffffffff80821115612c02578384fd5b612c0e878388016129fb565b93506040860135915080821115612c23578283fd5b50612c30868287016129fb565b9150509250925092565b60008060008060808587031215612c4f578384fd5b612c58856129e4565b9350602085013567ffffffffffffffff80821115612c74578485fd5b612c80888389016129fb565b94506040870135915080821115612c95578384fd5b612ca1888389016129fb565b93506060870135915080821115612cb6578283fd5b50612cc387828801612a6f565b91505092959194509250565b60008060408385031215612ce1578182fd5b612cea836129e4565b915060208301358015158114612cfe578182fd5b809150509250929050565b60008060408385031215612d1b578182fd5b612d24836129e4565b946020939093013593505050565b600080600060608486031215612d46578081fd5b612d4f846129e4565b95602085013595506040909401359392505050565b60008060008060808587031215612d79578182fd5b612d82856129e4565b93506020850135925060408501359150606085013567ffffffffffffffff811115612dab578182fd5b612cc387828801612a6f565b60008060408385031215612dc9578182fd5b823567ffffffffffffffff80821115612de0578384fd5b818501915085601f830112612df3578384fd5b81356020612e00826130dd565b604051612e0d828261316b565b8381528281019150858301600585901b870184018b1015612e2c578889fd5b8896505b84871015612e5557612e41816129e4565b835260019690960195918301918301612e30565b5096505086013592505080821115612e6b578283fd5b50612e78858286016129fb565b9150509250929050565b600060208284031215612e93578081fd5b5035919050565b60008060408385031215612eac578182fd5b82359150612ab7602084016129e4565b60008060408385031215612ece578182fd5b50508035926020909101359150565b600060208284031215612eee578081fd5b8135610e2581613288565b600060208284031215612f0a578081fd5b8151610e2581613288565b600060208284031215612f26578081fd5b813567ffffffffffffffff811115612f3c578182fd5b8201601f81018413612f4c578182fd5b612f5b84823560208401612986565b949350505050565b6000815180845260208085019450808401835b83811015612f9257815187529582019590820190600101612f76565b509495945050505050565b60008151808452815b81811015612fc257602081850181015186830182015201612fa6565b81811115612fd35782602083870101525b50601f01601f19169290920160200192915050565b60006001600160a01b03808816835280871660208401525060a0604083015261301460a0830186612f63565b82810360608401526130268186612f63565b9050828103608084015261303a8185612f9d565b98975050505050505050565b60006001600160a01b03808816835280871660208401525084604083015283606083015260a0608083015261307e60a0830184612f9d565b979650505050505050565b600060208252610e256020830184612f63565b6000604082526130af6040830185612f63565b82810360208401526130c18185612f63565b95945050505050565b600060208252610e256020830184612f9d565b600067ffffffffffffffff8211156130f7576130f76131c9565b5060051b60200190565b60008219821115613114576131146131b3565b500190565b60008282101561312b5761312b6131b3565b500390565b600181811c9082168061314457607f821691505b6020821081141561316557634e487b7160e01b600052602260045260246000fd5b50919050565b601f8201601f1916810167ffffffffffffffff81118282101715613191576131916131c9565b6040525050565b60006000198214156131ac576131ac6131b3565b5060010190565b634e487b7160e01b600052601160045260246000fd5b634e487b7160e01b600052604160045260246000fd5b600060033d1115610c3957600481823e5160e01c90565b600060443d101561320657610c39565b6040516003193d81016004833e81513d67ffffffffffffffff8160248401118184111715613238575050505050610c39565b828501915081518181111561325257505050505050610c39565b843d870101602082850101111561326e57505050505050610c39565b61327d6020828601018761316b565b509094505050505090565b6001600160e01b03198116811461260457600080fdfea2646970667358221220e533c6a9786aaa2c56243750e8b2b2f15db87b3c1dfb3ce2a00484570988b6fd64736f6c63430008030033",
  "immutableReferences": {},
  "source": "// SPDX-License-Identifier: MIT\n\npragma solidity ^0.8.0;\n\nimport \"../ERC1155Upgradeable.sol\";\nimport \"../extensions/ERC1155BurnableUpgradeable.sol\";\nimport \"../extensions/ERC1155PausableUpgradeable.sol\";\nimport \"../../../access/AccessControlEnumerableUpgradeable.sol\";\nimport \"../../../utils/ContextUpgradeable.sol\";\nimport \"../../../proxy/utils/Initializable.sol\";\n\n/**\n * @dev {ERC1155} token, including:\n *\n *  - ability for holders to burn (destroy) their tokens\n *  - a minter role that allows for token minting (creation)\n *  - a pauser role that allows to stop all token transfers\n *\n * This contract uses {AccessControl} to lock permissioned functions using the\n * different roles - head to its documentation for details.\n *\n * The account that deploys the contract will be granted the minter and pauser\n * roles, as well as the default admin role, which will let it grant both minter\n * and pauser roles to other accounts.\n */\ncontract ERC1155PresetMinterPauserUpgradeable is Initializable, ContextUpgradeable, AccessControlEnumerableUpgradeable, ERC1155BurnableUpgradeable, ERC1155PausableUpgradeable {\n    function initialize(string memory uri) public virtual initializer {\n        __ERC1155PresetMinterPauser_init(uri);\n    }\n    bytes32 public constant MINTER_ROLE = keccak256(\"MINTER_ROLE\");\n    bytes32 public constant PAUSER_ROLE = keccak256(\"PAUSER_ROLE\");\n\n    /**\n     * @dev Grants `DEFAULT_ADMIN_ROLE`, `MINTER_ROLE`, and `PAUSER_ROLE` to the account that\n     * deploys the contract.\n     */\n    function __ERC1155PresetMinterPauser_init(string memory uri) internal initializer {\n        __Context_init_unchained();\n        __ERC165_init_unchained();\n        __AccessControl_init_unchained();\n        __AccessControlEnumerable_init_unchained();\n        __ERC1155_init_unchained(uri);\n        __ERC1155Burnable_init_unchained();\n        __Pausable_init_unchained();\n        __ERC1155Pausable_init_unchained();\n        __ERC1155PresetMinterPauser_init_unchained(uri);\n    }\n\n    function __ERC1155PresetMinterPauser_init_unchained(string memory uri) internal initializer {\n        _setupRole(DEFAULT_ADMIN_ROLE, _msgSender());\n\n        _setupRole(MINTER_ROLE, _msgSender());\n        _setupRole(PAUSER_ROLE, _msgSender());\n    }\n\n    /**\n     * @dev Creates `amount` new tokens for `to`, of token type `id`.\n     *\n     * See {ERC1155-_mint}.\n     *\n     * Requirements:\n     *\n     * - the caller must have the `MINTER_ROLE`.\n     */\n    function mint(address to, uint256 id, uint256 amount, bytes memory data) public virtual {\n        require(hasRole(MINTER_ROLE, _msgSender()), \"ERC1155PresetMinterPauser: must have minter role to mint\");\n\n        _mint(to, id, amount, data);\n    }\n\n    /**\n     * @dev xref:ROOT:erc1155.adoc#batch-operations[Batched] variant of {mint}.\n     */\n    function mintBatch(address to, uint256[] memory ids, uint256[] memory amounts, bytes memory data) public virtual {\n        require(hasRole(MINTER_ROLE, _msgSender()), \"ERC1155PresetMinterPauser: must have minter role to mint\");\n\n        _mintBatch(to, ids, amounts, data);\n    }\n\n    /**\n     * @dev Pauses all token transfers.\n     *\n     * See {ERC1155Pausable} and {Pausable-_pause}.\n     *\n     * Requirements:\n     *\n     * - the caller must have the `PAUSER_ROLE`.\n     */\n    function pause() public virtual {\n        require(hasRole(PAUSER_ROLE, _msgSender()), \"ERC1155PresetMinterPauser: must have pauser role to pause\");\n        _pause();\n    }\n\n    /**\n     * @dev Unpauses all token transfers.\n     *\n     * See {ERC1155Pausable} and {Pausable-_unpause}.\n     *\n     * Requirements:\n     *\n     * - the caller must have the `PAUSER_ROLE`.\n     */\n    function unpause() public virtual {\n        require(hasRole(PAUSER_ROLE, _msgSender()), \"ERC1155PresetMinterPauser: must have pauser role to unpause\");\n        _unpause();\n    }\n\n    /**\n     * @dev See {IERC165-supportsInterface}.\n     */\n    function supportsInterface(bytes4 interfaceId) public view virtual override(AccessControlEnumerableUpgradeable, ERC1155Upgradeable) returns (bool) {\n        return super.supportsInterface(interfaceId);\n    }\n\n    function _beforeTokenTransfer(\n        address operator,\n        address from,\n        address to,\n        uint256[] memory ids,\n        uint256[] memory amounts,\n        bytes memory data\n    )\n        internal virtual override(ERC1155Upgradeable, ERC1155PausableUpgradeable)\n    {\n        super._beforeTokenTransfer(operator, from, to, ids, amounts, data);\n    }\n    uint256[50] private __gap;\n}\n",
  "sourcePath": "@openzeppelin/contracts-upgradeable/token/ERC1155/presets/ERC1155PresetMinterPauserUpgradeable.sol",
  "compiler": {
    "name": "solc",
    "version": "0.8.3+commit.8d00100c.Emscripten.clang"
  },
  "schemaVersion": "3.3.4",
  "updatedAt": "2021-05-05T21:14:11.344Z",
  "devdoc": {
    "details": "{ERC1155} token, including:  - ability for holders to burn (destroy) their tokens  - a minter role that allows for token minting (creation)  - a pauser role that allows to stop all token transfers This contract uses {AccessControl} to lock permissioned functions using the different roles - head to its documentation for details. The account that deploys the contract will be granted the minter and pauser roles, as well as the default admin role, which will let it grant both minter and pauser roles to other accounts.",
    "kind": "dev",
    "methods": {
      "balanceOf(address,uint256)": {
        "details": "See {IERC1155-balanceOf}. Requirements: - `account` cannot be the zero address."
      },
      "balanceOfBatch(address[],uint256[])": {
        "details": "See {IERC1155-balanceOfBatch}. Requirements: - `accounts` and `ids` must have the same length."
      },
      "getRoleAdmin(bytes32)": {
        "details": "Returns the admin role that controls `role`. See {grantRole} and {revokeRole}. To change a role's admin, use {_setRoleAdmin}."
      },
      "getRoleMember(bytes32,uint256)": {
        "details": "Returns one of the accounts that have `role`. `index` must be a value between 0 and {getRoleMemberCount}, non-inclusive. Role bearers are not sorted in any particular way, and their ordering may change at any point. WARNING: When using {getRoleMember} and {getRoleMemberCount}, make sure you perform all queries on the same block. See the following https://forum.openzeppelin.com/t/iterating-over-elements-on-enumerableset-in-openzeppelin-contracts/2296[forum post] for more information."
      },
      "getRoleMemberCount(bytes32)": {
        "details": "Returns the number of accounts that have `role`. Can be used together with {getRoleMember} to enumerate all bearers of a role."
      },
      "grantRole(bytes32,address)": {
        "details": "Overload {grantRole} to track enumerable memberships"
      },
      "hasRole(bytes32,address)": {
        "details": "Returns `true` if `account` has been granted `role`."
      },
      "isApprovedForAll(address,address)": {
        "details": "See {IERC1155-isApprovedForAll}."
      },
      "mint(address,uint256,uint256,bytes)": {
        "details": "Creates `amount` new tokens for `to`, of token type `id`. See {ERC1155-_mint}. Requirements: - the caller must have the `MINTER_ROLE`."
      },
      "mintBatch(address,uint256[],uint256[],bytes)": {
        "details": "xref:ROOT:erc1155.adoc#batch-operations[Batched] variant of {mint}."
      },
      "pause()": {
        "details": "Pauses all token transfers. See {ERC1155Pausable} and {Pausable-_pause}. Requirements: - the caller must have the `PAUSER_ROLE`."
      },
      "paused()": {
        "details": "Returns true if the contract is paused, and false otherwise."
      },
      "renounceRole(bytes32,address)": {
        "details": "Overload {renounceRole} to track enumerable memberships"
      },
      "revokeRole(bytes32,address)": {
        "details": "Overload {revokeRole} to track enumerable memberships"
      },
      "safeBatchTransferFrom(address,address,uint256[],uint256[],bytes)": {
        "details": "See {IERC1155-safeBatchTransferFrom}."
      },
      "safeTransferFrom(address,address,uint256,uint256,bytes)": {
        "details": "See {IERC1155-safeTransferFrom}."
      },
      "setApprovalForAll(address,bool)": {
        "details": "See {IERC1155-setApprovalForAll}."
      },
      "supportsInterface(bytes4)": {
        "details": "See {IERC165-supportsInterface}."
      },
      "unpause()": {
        "details": "Unpauses all token transfers. See {ERC1155Pausable} and {Pausable-_unpause}. Requirements: - the caller must have the `PAUSER_ROLE`."
      },
      "uri(uint256)": {
        "details": "See {IERC1155MetadataURI-uri}. This implementation returns the same URI for *all* token types. It relies on the token type ID substitution mechanism https://eips.ethereum.org/EIPS/eip-1155#metadata[defined in the EIP]. Clients calling this function must replace the `\\{id\\}` substring with the actual token type ID."
      }
    },
    "version": 1
  },
  "userdoc": {
    "kind": "user",
    "methods": {},
    "version": 1
  }
}