{
  "contractName": "ERC1155BaseURI",
  "abi": [
    {
      "anonymous": false,
      "inputs": [
        {
          "indexed": false,
          "internalType": "string",
          "name": "value",
          "type": "string"
        },
        {
          "indexed": true,
          "internalType": "uint256",
          "name": "id",
          "type": "uint256"
        }
      ],
      "name": "TokenURI",
      "type": "event"
    },
    {
      "inputs": [],
      "name": "baseURI",
      "outputs": [
        {
          "internalType": "string",
          "name": "",
          "type": "string"
        }
      ],
      "stateMutability": "view",
      "type": "function"
    },
    {
      "inputs": [
        {
          "internalType": "uint256",
          "name": "id",
          "type": "uint256"
        }
      ],
      "name": "uri",
      "outputs": [
        {
          "internalType": "string",
          "name": "",
          "type": "string"
        }
      ],
      "stateMutability": "view",
      "type": "function"
    },
    {
      "inputs": [
        {
          "internalType": "address",
          "name": "from",
          "type": "address"
        },
        {
          "internalType": "uint256",
          "name": "tokenId",
          "type": "uint256"
        },
        {
          "internalType": "string",
          "name": "_uri",
          "type": "string"
        }
      ],
      "name": "setTokenURI",
      "outputs": [],
      "stateMutability": "nonpayable",
      "type": "function"
    }
  ],
  "bytecode": "0x608060405234801561001057600080fd5b5061080b806100206000396000f3fe608060405234801561001057600080fd5b50600436106100415760003560e01c80630e89341c146100465780634e5786bf1461006f5780636c0360eb14610084575b600080fd5b61005961005436600461063c565b61008c565b6040516100669190610683565b60405180910390f35b61008261007d36600461055c565b61009f565b005b610059610157565b6060610097826101e9565b90505b919050565b73ffffffffffffffffffffffffffffffffffffffff83163314610148576040517f08c379a000000000000000000000000000000000000000000000000000000000815260206004820152602860248201527f455243313135353a20736574546f6b656e5552492063616c6c6572206973206e60448201527f6f74206f776e6572000000000000000000000000000000000000000000000000606482015260840160405180910390fd5b610152828261030a565b505050565b60606001805461016690610729565b80601f016020809104026020016040519081016040528092919081815260200182805461019290610729565b80156101df5780601f106101b4576101008083540402835291602001916101df565b820191906000526020600020905b8154815290600101906020018083116101c257829003601f168201915b5050505050905090565b60008181526020819052604081208054606092919061020790610729565b80601f016020809104026020016040519081016040528092919081815260200182805461023390610729565b80156102805780601f1061025557610100808354040283529160200191610280565b820191906000526020600020905b81548152906001019060200180831161026357829003601f168201915b505050505090506000610291610157565b90508051600014156102a55750905061009a565b8151156102d75780826040516020016102bf929190610654565b6040516020818303038152906040529250505061009a565b806102e18561036c565b6040516020016102f2929190610654565b60405160208183030381529060405292505050919050565b6000828152602081815260409091208251610327928401906104c3565b50817fcc97081f81b4b2f5a92ce4ddf4353f31dbe1b60abf5418b03483604c8578778e610353846101e9565b6040516103609190610683565b60405180910390a25050565b6060816103ad575060408051808201909152600181527f3000000000000000000000000000000000000000000000000000000000000000602082015261009a565b8160005b81156103d757806103c181610764565b91506103d09050600a836106ce565b91506103b1565b60008167ffffffffffffffff81111561040057634e487b7160e01b600052604160045260246000fd5b6040519080825280601f01601f19166020018201604052801561042a576020820181803683370190505b5090505b84156104bb5761043f6001836106e2565b915061044c600a8661077f565b6104579060306106b6565b60f81b81838151811061047a57634e487b7160e01b600052603260045260246000fd5b60200101907effffffffffffffffffffffffffffffffffffffffffffffffffffffffffffff1916908160001a9053506104b4600a866106ce565b945061042e565b949350505050565b8280546104cf90610729565b90600052602060002090601f0160209004810192826104f15760008555610537565b82601f1061050a57805160ff1916838001178555610537565b82800160010185558215610537579182015b8281111561053757825182559160200191906001019061051c565b50610543929150610547565b5090565b5b808211156105435760008155600101610548565b600080600060608486031215610570578283fd5b833573ffffffffffffffffffffffffffffffffffffffff81168114610593578384fd5b925060208401359150604084013567ffffffffffffffff808211156105b6578283fd5b818601915086601f8301126105c9578283fd5b8135818111156105db576105db6107bf565b604051601f8201601f19908116603f01168101908382118183101715610603576106036107bf565b8160405282815289602084870101111561061b578586fd5b82602086016020830137856020848301015280955050505050509250925092565b60006020828403121561064d578081fd5b5035919050565b600083516106668184602088016106f9565b83519083019061067a8183602088016106f9565b01949350505050565b60006020825282518060208401526106a28160408501602087016106f9565b601f01601f19169190910160400192915050565b600082198211156106c9576106c9610793565b500190565b6000826106dd576106dd6107a9565b500490565b6000828210156106f4576106f4610793565b500390565b60005b838110156107145781810151838201526020016106fc565b83811115610723576000848401525b50505050565b600181811c9082168061073d57607f821691505b6020821081141561075e57634e487b7160e01b600052602260045260246000fd5b50919050565b600060001982141561077857610778610793565b5060010190565b60008261078e5761078e6107a9565b500690565b634e487b7160e01b600052601160045260246000fd5b634e487b7160e01b600052601260045260246000fd5b634e487b7160e01b600052604160045260246000fdfea2646970667358221220b83f8eb755bfe30501faa009868d4920fec3361df7a805535752971431b2c98c64736f6c63430008030033",
  "immutableReferences": {},
  "source": "// SPDX-License-Identifier: MIT\n\npragma solidity ^0.8.3;\n\nimport \"@openzeppelin/contracts-upgradeable/utils/StringsUpgradeable.sol\";\n\n//import \"@openzeppelin/contracts-upgradeable/token/ERC1155/ERC1155Upgradeable.sol\";\n\ncontract ERC1155BaseURI {\n    using StringsUpgradeable for uint256;\n\n    // Optional mapping for token URIs\n    mapping(uint256 => string) private _tokenURIs;\n\n    // Base URI\n    string private _baseURI;\n\n    event TokenURI(string value, uint256 indexed id);\n\n    /**\n     * @dev Returns the base URI set via {_setBaseURI}. This will be\n     * automatically added as a prefix in {tokenURI} to each token's URI, or\n     * to the token ID if no specific URI is set for that token ID.\n     */\n    function baseURI() public view virtual returns (string memory) {\n        return _baseURI;\n    }\n\n    function uri(uint256 id) public view virtual returns (string memory) {\n        return _tokenURI(id);\n    }\n\n    function _tokenURI(uint256 tokenId)\n        internal\n        view\n        virtual\n        returns (string memory)\n    {\n        string memory _tokenURI = _tokenURIs[tokenId];\n        string memory base = baseURI();\n\n        // If there is no base URI, return the token URI.\n        if (bytes(base).length == 0) {\n            return _tokenURI;\n        }\n        // If both are set, concatenate the baseURI and tokenURI (via abi.encodePacked).\n        if (bytes(_tokenURI).length > 0) {\n            return string(abi.encodePacked(base, _tokenURI));\n        }\n        // If there is a baseURI but no tokenURI, concatenate the tokenID to the baseURI.\n        return string(abi.encodePacked(base, tokenId.toString()));\n    }\n\n    function setTokenURI(\n        address from,\n        uint256 tokenId,\n        string memory _uri\n    ) public {\n        require(from == msg.sender, \"ERC1155: setTokenURI caller is not owner\");\n        _setTokenURI(tokenId, _uri);\n    }\n\n    /**\n     * @dev Sets `_tokenURI` as the tokenURI of `tokenId`.\n     *\n     * Requirements:\n     *\n     * - `tokenId` must exist.\n     */\n    function _setTokenURI(uint256 tokenId, string memory _uri)\n        internal\n        virtual\n    {\n        _tokenURIs[tokenId] = _uri;\n        emit TokenURI(_tokenURI(tokenId), tokenId);\n    }\n\n/*     function setBaseTokenURI(string memory baseTokenURI) public {\n        require(\n            hasRole(DEFAULT_ADMIN_ROLE, _msgSender()),\n            \"setBaseTokenURI: must have ADMIN role to change this\"\n        );\n        _baseTokenURI = baseTokenURI;\n    } */\n\n    /**\n     * @dev Internal function to set the base URI for all token IDs. It is\n     * automatically added as a prefix to the value returned in {tokenURI},\n     * or to the token ID if {tokenURI} is empty.\n     */\n    function _setBaseURI(string memory baseURI_) internal virtual {\n        _baseURI = baseURI_;\n    }\n\n    function _clearTokenURI(uint256 tokenId) internal {\n        if (bytes(_tokenURIs[tokenId]).length != 0) {\n            delete _tokenURIs[tokenId];\n        }\n    }\n\n    uint256[50] private __gap;\n}\n",
  "sourcePath": "/Users/selimerunkut/dev_freelance/GhostMarketContractBSC/contracts/ERC1155BaseURI.sol",
  "compiler": {
    "name": "solc",
    "version": "0.8.3+commit.8d00100c.Emscripten.clang"
  },
  "schemaVersion": "3.4.1",
  "updatedAt": "2021-05-14T20:33:56.343Z",
  "devdoc": {
    "kind": "dev",
    "methods": {
      "baseURI()": {
        "details": "Returns the base URI set via {_setBaseURI}. This will be automatically added as a prefix in {tokenURI} to each token's URI, or to the token ID if no specific URI is set for that token ID."
      }
    },
    "version": 1
  },
  "userdoc": {
    "kind": "user",
    "methods": {},
    "version": 1
  }
}