{
  "contractName": "ERC1155PresetMinterPauserUpgradeableCustom",
  "abi": [
    {
      "anonymous": false,
      "inputs": [
        {
          "indexed": true,
          "internalType": "address",
          "name": "account",
          "type": "address"
        },
        {
          "indexed": true,
          "internalType": "address",
          "name": "operator",
          "type": "address"
        },
        {
          "indexed": false,
          "internalType": "bool",
          "name": "approved",
          "type": "bool"
        }
      ],
      "name": "ApprovalForAll",
      "type": "event"
    },
    {
      "anonymous": false,
      "inputs": [
        {
          "indexed": false,
          "internalType": "address",
          "name": "account",
          "type": "address"
        }
      ],
      "name": "Paused",
      "type": "event"
    },
    {
      "anonymous": false,
      "inputs": [
        {
          "indexed": true,
          "internalType": "bytes32",
          "name": "role",
          "type": "bytes32"
        },
        {
          "indexed": true,
          "internalType": "bytes32",
          "name": "previousAdminRole",
          "type": "bytes32"
        },
        {
          "indexed": true,
          "internalType": "bytes32",
          "name": "newAdminRole",
          "type": "bytes32"
        }
      ],
      "name": "RoleAdminChanged",
      "type": "event"
    },
    {
      "anonymous": false,
      "inputs": [
        {
          "indexed": true,
          "internalType": "bytes32",
          "name": "role",
          "type": "bytes32"
        },
        {
          "indexed": true,
          "internalType": "address",
          "name": "account",
          "type": "address"
        },
        {
          "indexed": true,
          "internalType": "address",
          "name": "sender",
          "type": "address"
        }
      ],
      "name": "RoleGranted",
      "type": "event"
    },
    {
      "anonymous": false,
      "inputs": [
        {
          "indexed": true,
          "internalType": "bytes32",
          "name": "role",
          "type": "bytes32"
        },
        {
          "indexed": true,
          "internalType": "address",
          "name": "account",
          "type": "address"
        },
        {
          "indexed": true,
          "internalType": "address",
          "name": "sender",
          "type": "address"
        }
      ],
      "name": "RoleRevoked",
      "type": "event"
    },
    {
      "anonymous": false,
      "inputs": [
        {
          "indexed": true,
          "internalType": "address",
          "name": "operator",
          "type": "address"
        },
        {
          "indexed": true,
          "internalType": "address",
          "name": "from",
          "type": "address"
        },
        {
          "indexed": true,
          "internalType": "address",
          "name": "to",
          "type": "address"
        },
        {
          "indexed": false,
          "internalType": "uint256[]",
          "name": "ids",
          "type": "uint256[]"
        },
        {
          "indexed": false,
          "internalType": "uint256[]",
          "name": "values",
          "type": "uint256[]"
        }
      ],
      "name": "TransferBatch",
      "type": "event"
    },
    {
      "anonymous": false,
      "inputs": [
        {
          "indexed": true,
          "internalType": "address",
          "name": "operator",
          "type": "address"
        },
        {
          "indexed": true,
          "internalType": "address",
          "name": "from",
          "type": "address"
        },
        {
          "indexed": true,
          "internalType": "address",
          "name": "to",
          "type": "address"
        },
        {
          "indexed": false,
          "internalType": "uint256",
          "name": "id",
          "type": "uint256"
        },
        {
          "indexed": false,
          "internalType": "uint256",
          "name": "value",
          "type": "uint256"
        }
      ],
      "name": "TransferSingle",
      "type": "event"
    },
    {
      "anonymous": false,
      "inputs": [
        {
          "indexed": false,
          "internalType": "string",
          "name": "value",
          "type": "string"
        },
        {
          "indexed": true,
          "internalType": "uint256",
          "name": "id",
          "type": "uint256"
        }
      ],
      "name": "URI",
      "type": "event"
    },
    {
      "anonymous": false,
      "inputs": [
        {
          "indexed": false,
          "internalType": "address",
          "name": "account",
          "type": "address"
        }
      ],
      "name": "Unpaused",
      "type": "event"
    },
    {
      "inputs": [],
      "name": "DEFAULT_ADMIN_ROLE",
      "outputs": [
        {
          "internalType": "bytes32",
          "name": "",
          "type": "bytes32"
        }
      ],
      "stateMutability": "view",
      "type": "function"
    },
    {
      "inputs": [],
      "name": "MINTER_ROLE",
      "outputs": [
        {
          "internalType": "bytes32",
          "name": "",
          "type": "bytes32"
        }
      ],
      "stateMutability": "view",
      "type": "function"
    },
    {
      "inputs": [],
      "name": "PAUSER_ROLE",
      "outputs": [
        {
          "internalType": "bytes32",
          "name": "",
          "type": "bytes32"
        }
      ],
      "stateMutability": "view",
      "type": "function"
    },
    {
      "inputs": [
        {
          "internalType": "address",
          "name": "account",
          "type": "address"
        },
        {
          "internalType": "uint256",
          "name": "id",
          "type": "uint256"
        }
      ],
      "name": "balanceOf",
      "outputs": [
        {
          "internalType": "uint256",
          "name": "",
          "type": "uint256"
        }
      ],
      "stateMutability": "view",
      "type": "function"
    },
    {
      "inputs": [
        {
          "internalType": "address[]",
          "name": "accounts",
          "type": "address[]"
        },
        {
          "internalType": "uint256[]",
          "name": "ids",
          "type": "uint256[]"
        }
      ],
      "name": "balanceOfBatch",
      "outputs": [
        {
          "internalType": "uint256[]",
          "name": "",
          "type": "uint256[]"
        }
      ],
      "stateMutability": "view",
      "type": "function"
    },
    {
      "inputs": [
        {
          "internalType": "address",
          "name": "account",
          "type": "address"
        },
        {
          "internalType": "uint256",
          "name": "id",
          "type": "uint256"
        },
        {
          "internalType": "uint256",
          "name": "value",
          "type": "uint256"
        }
      ],
      "name": "burn",
      "outputs": [],
      "stateMutability": "nonpayable",
      "type": "function"
    },
    {
      "inputs": [
        {
          "internalType": "address",
          "name": "account",
          "type": "address"
        },
        {
          "internalType": "uint256[]",
          "name": "ids",
          "type": "uint256[]"
        },
        {
          "internalType": "uint256[]",
          "name": "values",
          "type": "uint256[]"
        }
      ],
      "name": "burnBatch",
      "outputs": [],
      "stateMutability": "nonpayable",
      "type": "function"
    },
    {
      "inputs": [
        {
          "internalType": "bytes32",
          "name": "role",
          "type": "bytes32"
        }
      ],
      "name": "getRoleAdmin",
      "outputs": [
        {
          "internalType": "bytes32",
          "name": "",
          "type": "bytes32"
        }
      ],
      "stateMutability": "view",
      "type": "function"
    },
    {
      "inputs": [
        {
          "internalType": "bytes32",
          "name": "role",
          "type": "bytes32"
        },
        {
          "internalType": "uint256",
          "name": "index",
          "type": "uint256"
        }
      ],
      "name": "getRoleMember",
      "outputs": [
        {
          "internalType": "address",
          "name": "",
          "type": "address"
        }
      ],
      "stateMutability": "view",
      "type": "function"
    },
    {
      "inputs": [
        {
          "internalType": "bytes32",
          "name": "role",
          "type": "bytes32"
        }
      ],
      "name": "getRoleMemberCount",
      "outputs": [
        {
          "internalType": "uint256",
          "name": "",
          "type": "uint256"
        }
      ],
      "stateMutability": "view",
      "type": "function"
    },
    {
      "inputs": [
        {
          "internalType": "bytes32",
          "name": "role",
          "type": "bytes32"
        },
        {
          "internalType": "address",
          "name": "account",
          "type": "address"
        }
      ],
      "name": "grantRole",
      "outputs": [],
      "stateMutability": "nonpayable",
      "type": "function"
    },
    {
      "inputs": [
        {
          "internalType": "bytes32",
          "name": "role",
          "type": "bytes32"
        },
        {
          "internalType": "address",
          "name": "account",
          "type": "address"
        }
      ],
      "name": "hasRole",
      "outputs": [
        {
          "internalType": "bool",
          "name": "",
          "type": "bool"
        }
      ],
      "stateMutability": "view",
      "type": "function"
    },
    {
      "inputs": [
        {
          "internalType": "address",
          "name": "account",
          "type": "address"
        },
        {
          "internalType": "address",
          "name": "operator",
          "type": "address"
        }
      ],
      "name": "isApprovedForAll",
      "outputs": [
        {
          "internalType": "bool",
          "name": "",
          "type": "bool"
        }
      ],
      "stateMutability": "view",
      "type": "function"
    },
    {
      "inputs": [],
      "name": "paused",
      "outputs": [
        {
          "internalType": "bool",
          "name": "",
          "type": "bool"
        }
      ],
      "stateMutability": "view",
      "type": "function"
    },
    {
      "inputs": [
        {
          "internalType": "bytes32",
          "name": "role",
          "type": "bytes32"
        },
        {
          "internalType": "address",
          "name": "account",
          "type": "address"
        }
      ],
      "name": "renounceRole",
      "outputs": [],
      "stateMutability": "nonpayable",
      "type": "function"
    },
    {
      "inputs": [
        {
          "internalType": "bytes32",
          "name": "role",
          "type": "bytes32"
        },
        {
          "internalType": "address",
          "name": "account",
          "type": "address"
        }
      ],
      "name": "revokeRole",
      "outputs": [],
      "stateMutability": "nonpayable",
      "type": "function"
    },
    {
      "inputs": [
        {
          "internalType": "address",
          "name": "from",
          "type": "address"
        },
        {
          "internalType": "address",
          "name": "to",
          "type": "address"
        },
        {
          "internalType": "uint256[]",
          "name": "ids",
          "type": "uint256[]"
        },
        {
          "internalType": "uint256[]",
          "name": "amounts",
          "type": "uint256[]"
        },
        {
          "internalType": "bytes",
          "name": "data",
          "type": "bytes"
        }
      ],
      "name": "safeBatchTransferFrom",
      "outputs": [],
      "stateMutability": "nonpayable",
      "type": "function"
    },
    {
      "inputs": [
        {
          "internalType": "address",
          "name": "from",
          "type": "address"
        },
        {
          "internalType": "address",
          "name": "to",
          "type": "address"
        },
        {
          "internalType": "uint256",
          "name": "id",
          "type": "uint256"
        },
        {
          "internalType": "uint256",
          "name": "amount",
          "type": "uint256"
        },
        {
          "internalType": "bytes",
          "name": "data",
          "type": "bytes"
        }
      ],
      "name": "safeTransferFrom",
      "outputs": [],
      "stateMutability": "nonpayable",
      "type": "function"
    },
    {
      "inputs": [
        {
          "internalType": "address",
          "name": "operator",
          "type": "address"
        },
        {
          "internalType": "bool",
          "name": "approved",
          "type": "bool"
        }
      ],
      "name": "setApprovalForAll",
      "outputs": [],
      "stateMutability": "nonpayable",
      "type": "function"
    },
    {
      "inputs": [
        {
          "internalType": "uint256",
          "name": "",
          "type": "uint256"
        }
      ],
      "name": "uri",
      "outputs": [
        {
          "internalType": "string",
          "name": "",
          "type": "string"
        }
      ],
      "stateMutability": "view",
      "type": "function"
    },
    {
      "inputs": [
        {
          "internalType": "string",
          "name": "uri_",
          "type": "string"
        }
      ],
      "name": "setURI",
      "outputs": [],
      "stateMutability": "nonpayable",
      "type": "function"
    },
    {
      "inputs": [],
      "name": "pause",
      "outputs": [],
      "stateMutability": "nonpayable",
      "type": "function"
    },
    {
      "inputs": [],
      "name": "unpause",
      "outputs": [],
      "stateMutability": "nonpayable",
      "type": "function"
    },
    {
      "inputs": [
        {
          "internalType": "bytes4",
          "name": "interfaceId",
          "type": "bytes4"
        }
      ],
      "name": "supportsInterface",
      "outputs": [
        {
          "internalType": "bool",
          "name": "",
          "type": "bool"
        }
      ],
      "stateMutability": "view",
      "type": "function"
    }
  ],
  "bytecode": "0x608060405234801561001057600080fd5b50612bdd806100206000396000f3fe608060405234801561001057600080fd5b50600436106101975760003560e01c80638456cb59116100e3578063d53913931161008c578063e985e9c511610066578063e985e9c5146103b8578063f242432a146103f4578063f5298aca1461040757600080fd5b8063d539139314610357578063d547741f1461037e578063e63ab1e91461039157600080fd5b8063a217fddf116100bd578063a217fddf14610329578063a22cb46514610331578063ca15c8731461034457600080fd5b80638456cb59146102bd5780639010d07c146102c557806391d14854146102f057600080fd5b80632f2ff15d116101455780634e1273f41161011f5780634e1273f41461027e5780635c975abb1461029e5780636b20c454146102aa57600080fd5b80632f2ff15d1461025057806336568abe146102635780633f4ba83a1461027657600080fd5b80630e89341c116101765780630e89341c146101fa578063248a9ca31461021a5780632eb2c2d61461023d57600080fd5b8062fdd58e1461019c57806301ffc9a7146101c257806302fe5305146101e5575b600080fd5b6101af6101aa3660046125a4565b61041a565b6040519081526020015b60405180910390f35b6101d56101d0366004612725565b6104c8565b60405190151581526020016101b9565b6101f86101f336600461275d565b6104d3565b005b61020d6102083660046126ca565b61055c565b6040516101b99190612974565b6101af6102283660046126ca565b60009081526065602052604090206001015490565b6101f861024b3660046123f0565b6105f0565b6101f861025e3660046126e2565b610967565b6101f86102713660046126e2565b61098e565b6101f86109b0565b61029161028c3660046125ff565b610a56565b6040516101b99190612933565b61012d5460ff166101d5565b6101f86102b83660046124f9565b610bcc565b6101f8610c51565b6102d86102d3366004612704565b610cf5565b6040516001600160a01b0390911681526020016101b9565b6101d56102fe3660046126e2565b60009182526065602090815260408084206001600160a01b0393909316845291905290205460ff1690565b6101af600081565b6101f861033f36600461256a565b610d14565b6101af6103523660046126ca565b610dff565b6101af7f9f2df0fed2c77648de5860a4cc508cd0818c85b8b8a1ab4ceeef8d981c8956a681565b6101f861038c3660046126e2565b610e16565b6101af7f65d7a28e3265b37a6474929f336521b332c1681b933f6cb9f3376673440d862a81565b6101d56103c63660046123be565b6001600160a01b03918216600090815260ca6020908152604080832093909416825291909152205460ff1690565b6101f8610402366004612496565b610e20565b6101f86104153660046125cd565b611067565b60006001600160a01b03831661049d5760405162461bcd60e51b815260206004820152602b60248201527f455243313135353a2062616c616e636520717565727920666f7220746865207a60448201527f65726f206164647265737300000000000000000000000000000000000000000060648201526084015b60405180910390fd5b50600081815260c9602090815260408083206001600160a01b03861684529091529020545b92915050565b60006104c2826110ec565b6104de6000336102fe565b6105505760405162461bcd60e51b815260206004820152603e60248201527f455243313135355072657365744d696e7465725061757365723a206d7573742060448201527f686176652061646d696e20726f6c6520746f20736574206e65772075726900006064820152608401610494565b6105598161115e565b50565b606060cb805461056b90612a40565b80601f016020809104026020016040519081016040528092919081815260200182805461059790612a40565b80156105e45780601f106105b9576101008083540402835291602001916105e4565b820191906000526020600020905b8154815290600101906020018083116105c757829003601f168201915b50505050509050919050565b81518351146106525760405162461bcd60e51b815260206004820152602860248201527f455243313135353a2069647320616e6420616d6f756e7473206c656e677468206044820152670dad2e6dac2e8c6d60c31b6064820152608401610494565b6001600160a01b0384166106b65760405162461bcd60e51b815260206004820152602560248201527f455243313135353a207472616e7366657220746f20746865207a65726f206164604482015264647265737360d81b6064820152608401610494565b6001600160a01b0385163314806106d257506106d285336103c6565b6107445760405162461bcd60e51b815260206004820152603260248201527f455243313135353a207472616e736665722063616c6c6572206973206e6f742060448201527f6f776e6572206e6f7220617070726f76656400000000000000000000000000006064820152608401610494565b33610753818787878787611175565b60005b84518110156108f957600085828151811061078157634e487b7160e01b600052603260045260246000fd5b6020026020010151905060008583815181106107ad57634e487b7160e01b600052603260045260246000fd5b602090810291909101810151600084815260c9835260408082206001600160a01b038e1683529093529190912054909150818110156108545760405162461bcd60e51b815260206004820152602a60248201527f455243313135353a20696e73756666696369656e742062616c616e636520666f60448201527f72207472616e73666572000000000000000000000000000000000000000000006064820152608401610494565b61085e82826129e2565b60c9600085815260200190815260200160002060008c6001600160a01b03166001600160a01b03168152602001908152602001600020819055508160c9600085815260200190815260200160002060008b6001600160a01b03166001600160a01b0316815260200190815260200160002060008282546108de91906129ab565b92505081905550505050806108f290612aa8565b9050610756565b50846001600160a01b0316866001600160a01b0316826001600160a01b03167f4a39dc06d4c0dbc64b70af90fd698a233a518aa5d07e595d983b8c0526c8f7fb8787604051610949929190612946565b60405180910390a461095f818787878787611183565b505050505050565b6109718282611338565b6000828152609760205260409020610989908261135e565b505050565b6109988282611373565b600082815260976020526040902061098990826113fb565b6109da7f65d7a28e3265b37a6474929f336521b332c1681b933f6cb9f3376673440d862a336102fe565b610a4c5760405162461bcd60e51b815260206004820152603b60248201527f455243313135355072657365744d696e7465725061757365723a206d7573742060448201527f686176652070617573657220726f6c6520746f20756e706175736500000000006064820152608401610494565b610a54611410565b565b60608151835114610acf5760405162461bcd60e51b815260206004820152602960248201527f455243313135353a206163636f756e747320616e6420696473206c656e67746860448201527f206d69736d6174636800000000000000000000000000000000000000000000006064820152608401610494565b6000835167ffffffffffffffff811115610af957634e487b7160e01b600052604160045260246000fd5b604051908082528060200260200182016040528015610b22578160200160208202803683370190505b50905060005b8451811015610bc457610b89858281518110610b5457634e487b7160e01b600052603260045260246000fd5b6020026020010151858381518110610b7c57634e487b7160e01b600052603260045260246000fd5b602002602001015161041a565b828281518110610ba957634e487b7160e01b600052603260045260246000fd5b6020908102919091010152610bbd81612aa8565b9050610b28565b509392505050565b6001600160a01b038316331480610be85750610be883336103c6565b610c465760405162461bcd60e51b815260206004820152602960248201527f455243313135353a2063616c6c6572206973206e6f74206f776e6572206e6f7260448201526808185c1c1c9bdd995960ba1b6064820152608401610494565b6109898383836114ae565b610c7b7f65d7a28e3265b37a6474929f336521b332c1681b933f6cb9f3376673440d862a336102fe565b610ced5760405162461bcd60e51b815260206004820152603960248201527f455243313135355072657365744d696e7465725061757365723a206d7573742060448201527f686176652070617573657220726f6c6520746f207061757365000000000000006064820152608401610494565b610a54611721565b6000828152609760205260408120610d0d90836117ab565b9392505050565b336001600160a01b0383161415610d935760405162461bcd60e51b815260206004820152602960248201527f455243313135353a2073657474696e6720617070726f76616c2073746174757360448201527f20666f722073656c6600000000000000000000000000000000000000000000006064820152608401610494565b33600081815260ca602090815260408083206001600160a01b03871680855290835292819020805460ff191686151590811790915590519081529192917f17307eab39ab6107e8899845ad3d59bd9653f200f220920489ca2b5937696c31910160405180910390a35050565b60008181526097602052604081206104c2906117b7565b61099882826117c1565b6001600160a01b038416610e845760405162461bcd60e51b815260206004820152602560248201527f455243313135353a207472616e7366657220746f20746865207a65726f206164604482015264647265737360d81b6064820152608401610494565b6001600160a01b038516331480610ea05750610ea085336103c6565b610efe5760405162461bcd60e51b815260206004820152602960248201527f455243313135353a2063616c6c6572206973206e6f74206f776e6572206e6f7260448201526808185c1c1c9bdd995960ba1b6064820152608401610494565b33610f1d818787610f0e886117e7565b610f17886117e7565b87611175565b600084815260c9602090815260408083206001600160a01b038a16845290915290205483811015610fb65760405162461bcd60e51b815260206004820152602a60248201527f455243313135353a20696e73756666696369656e742062616c616e636520666f60448201527f72207472616e73666572000000000000000000000000000000000000000000006064820152608401610494565b610fc084826129e2565b600086815260c9602090815260408083206001600160a01b038c81168552925280832093909355881681529081208054869290610ffe9084906129ab565b909155505060408051868152602081018690526001600160a01b03808916928a821692918616917fc3d58168c5ae7397731d063d5bbf3d657854427343f4c083240f7aacaa2d0f62910160405180910390a461105e828888888888611840565b50505050505050565b6001600160a01b038316331480611083575061108383336103c6565b6110e15760405162461bcd60e51b815260206004820152602960248201527f455243313135353a2063616c6c6572206973206e6f74206f776e6572206e6f7260448201526808185c1c1c9bdd995960ba1b6064820152608401610494565b61098983838361194b565b60006001600160e01b031982167fd9b67a2600000000000000000000000000000000000000000000000000000000148061114f57506001600160e01b031982167f0e89341c00000000000000000000000000000000000000000000000000000000145b806104c257506104c282611ad0565b80516111719060cb906020840190612218565b5050565b61095f868686868686611b0e565b6001600160a01b0384163b1561095f5760405163bc197c8160e01b81526001600160a01b0385169063bc197c81906111c79089908990889088908890600401612892565b602060405180830381600087803b1580156111e157600080fd5b505af1925050508015611211575060408051601f3d908101601f1916820190925261120e91810190612741565b60015b6112c75761121d612aef565b806308c379a014156112575750611232612b07565b8061123d5750611259565b8060405162461bcd60e51b81526004016104949190612974565b505b60405162461bcd60e51b815260206004820152603460248201527f455243313135353a207472616e7366657220746f206e6f6e204552433131353560448201527f526563656976657220696d706c656d656e7465720000000000000000000000006064820152608401610494565b6001600160e01b0319811663bc197c8160e01b1461105e5760405162461bcd60e51b815260206004820152602860248201527f455243313135353a204552433131353552656365697665722072656a656374656044820152676420746f6b656e7360c01b6064820152608401610494565b6000828152606560205260409020600101546113548133611b88565b6109898383611c08565b6000610d0d836001600160a01b038416611caa565b6001600160a01b03811633146113f15760405162461bcd60e51b815260206004820152602f60248201527f416363657373436f6e74726f6c3a2063616e206f6e6c792072656e6f756e636560448201527f20726f6c657320666f722073656c6600000000000000000000000000000000006064820152608401610494565b6111718282611cf9565b6000610d0d836001600160a01b038416611d7c565b61012d5460ff166114635760405162461bcd60e51b815260206004820152601460248201527f5061757361626c653a206e6f74207061757365640000000000000000000000006044820152606401610494565b61012d805460ff191690557f5db9ee0a495bf2e6ff9c91a7834c1ba4fdd244a5e8aa4e537bd38aeae4b073aa335b6040516001600160a01b03909116815260200160405180910390a1565b6001600160a01b0383166115105760405162461bcd60e51b815260206004820152602360248201527f455243313135353a206275726e2066726f6d20746865207a65726f206164647260448201526265737360e81b6064820152608401610494565b80518251146115725760405162461bcd60e51b815260206004820152602860248201527f455243313135353a2069647320616e6420616d6f756e7473206c656e677468206044820152670dad2e6dac2e8c6d60c31b6064820152608401610494565b600033905061159581856000868660405180602001604052806000815250611175565b60005b83518110156116c25760008482815181106115c357634e487b7160e01b600052603260045260246000fd5b6020026020010151905060008483815181106115ef57634e487b7160e01b600052603260045260246000fd5b602090810291909101810151600084815260c9835260408082206001600160a01b038c16835290935291909120549091508181101561167c5760405162461bcd60e51b8152602060048201526024808201527f455243313135353a206275726e20616d6f756e7420657863656564732062616c604482015263616e636560e01b6064820152608401610494565b61168682826129e2565b600093845260c9602090815260408086206001600160a01b038c16875290915290932092909255508190506116ba81612aa8565b915050611598565b5060006001600160a01b0316846001600160a01b0316826001600160a01b03167f4a39dc06d4c0dbc64b70af90fd698a233a518aa5d07e595d983b8c0526c8f7fb8686604051611713929190612946565b60405180910390a450505050565b61012d5460ff16156117755760405162461bcd60e51b815260206004820152601060248201527f5061757361626c653a20706175736564000000000000000000000000000000006044820152606401610494565b61012d805460ff191660011790557f62e78cea01bee320cd4e420270b5ea74000d11b0c9f74754ebdbfc544b05a2586114913390565b6000610d0d8383611e93565b60006104c2825490565b6000828152606560205260409020600101546117dd8133611b88565b6109898383611cf9565b6040805160018082528183019092526060916000919060208083019080368337019050509050828160008151811061182f57634e487b7160e01b600052603260045260246000fd5b602090810291909101015292915050565b6001600160a01b0384163b1561095f5760405163f23a6e6160e01b81526001600160a01b0385169063f23a6e619061188490899089908890889088906004016128f0565b602060405180830381600087803b15801561189e57600080fd5b505af19250505080156118ce575060408051601f3d908101601f191682019092526118cb91810190612741565b60015b6118da5761121d612aef565b6001600160e01b0319811663f23a6e6160e01b1461105e5760405162461bcd60e51b815260206004820152602860248201527f455243313135353a204552433131353552656365697665722072656a656374656044820152676420746f6b656e7360c01b6064820152608401610494565b6001600160a01b0383166119ad5760405162461bcd60e51b815260206004820152602360248201527f455243313135353a206275726e2066726f6d20746865207a65726f206164647260448201526265737360e81b6064820152608401610494565b336119dc818560006119be876117e7565b6119c7876117e7565b60405180602001604052806000815250611175565b600083815260c9602090815260408083206001600160a01b038816845290915290205482811015611a5b5760405162461bcd60e51b8152602060048201526024808201527f455243313135353a206275726e20616d6f756e7420657863656564732062616c604482015263616e636560e01b6064820152608401610494565b611a6583826129e2565b600085815260c9602090815260408083206001600160a01b038a811680865291845282852095909555815189815292830188905292938616917fc3d58168c5ae7397731d063d5bbf3d657854427343f4c083240f7aacaa2d0f62910160405180910390a45050505050565b60006001600160e01b031982167f5a05180f0000000000000000000000000000000000000000000000000000000014806104c257506104c282611f42565b61012d5460ff161561095f5760405162461bcd60e51b815260206004820152602c60248201527f455243313135355061757361626c653a20746f6b656e207472616e736665722060448201527f7768696c652070617573656400000000000000000000000000000000000000006064820152608401610494565b60008281526065602090815260408083206001600160a01b038516845290915290205460ff1661117157611bc6816001600160a01b03166014611fa9565b611bd1836020611fa9565b604051602001611be2929190612811565b60408051601f198184030181529082905262461bcd60e51b825261049491600401612974565b60008281526065602090815260408083206001600160a01b038516845290915290205460ff166111715760008281526065602090815260408083206001600160a01b03851684529091529020805460ff19166001179055611c663390565b6001600160a01b0316816001600160a01b0316837f2f8788117e7eff1d82e926ec794901d17c78024a50270940304540a733656f0d60405160405180910390a45050565b6000818152600183016020526040812054611cf1575081546001818101845560008481526020808220909301849055845484825282860190935260409020919091556104c2565b5060006104c2565b60008281526065602090815260408083206001600160a01b038516845290915290205460ff16156111715760008281526065602090815260408083206001600160a01b0385168085529252808320805460ff1916905551339285917ff6391f5c32d9c69d2a47ea670b442974b53935d1edc7fd64eb21e047a839171b9190a45050565b60008181526001830160205260408120548015611e89576000611da06001836129e2565b8554909150600090611db4906001906129e2565b90506000866000018281548110611ddb57634e487b7160e01b600052603260045260246000fd5b9060005260206000200154905080876000018481548110611e0c57634e487b7160e01b600052603260045260246000fd5b600091825260208083209091019290925582815260018901909152604090208490558654879080611e4d57634e487b7160e01b600052603160045260246000fd5b600190038181906000526020600020016000905590558660010160008781526020019081526020016000206000905560019450505050506104c2565b60009150506104c2565b81546000908210611f0c5760405162461bcd60e51b815260206004820152602260248201527f456e756d657261626c655365743a20696e646578206f7574206f6620626f756e60448201527f64730000000000000000000000000000000000000000000000000000000000006064820152608401610494565b826000018281548110611f2f57634e487b7160e01b600052603260045260246000fd5b9060005260206000200154905092915050565b60006001600160e01b031982167f7965db0b0000000000000000000000000000000000000000000000000000000014806104c257507f01ffc9a7000000000000000000000000000000000000000000000000000000006001600160e01b03198316146104c2565b60606000611fb88360026129c3565b611fc39060026129ab565b67ffffffffffffffff811115611fe957634e487b7160e01b600052604160045260246000fd5b6040519080825280601f01601f191660200182016040528015612013576020820181803683370190505b5090507f30000000000000000000000000000000000000000000000000000000000000008160008151811061205857634e487b7160e01b600052603260045260246000fd5b60200101907effffffffffffffffffffffffffffffffffffffffffffffffffffffffffffff1916908160001a9053507f7800000000000000000000000000000000000000000000000000000000000000816001815181106120c957634e487b7160e01b600052603260045260246000fd5b60200101907effffffffffffffffffffffffffffffffffffffffffffffffffffffffffffff1916908160001a90535060006121058460026129c3565b6121109060016129ab565b90505b60018111156121c9577f303132333435363738396162636465660000000000000000000000000000000085600f166010811061215f57634e487b7160e01b600052603260045260246000fd5b1a60f81b82828151811061218357634e487b7160e01b600052603260045260246000fd5b60200101907effffffffffffffffffffffffffffffffffffffffffffffffffffffffffffff1916908160001a90535060049490941c936121c281612a29565b9050612113565b508315610d0d5760405162461bcd60e51b815260206004820181905260248201527f537472696e67733a20686578206c656e67746820696e73756666696369656e746044820152606401610494565b82805461222490612a40565b90600052602060002090601f016020900481019282612246576000855561228c565b82601f1061225f57805160ff191683800117855561228c565b8280016001018555821561228c579182015b8281111561228c578251825591602001919060010190612271565b5061229892915061229c565b5090565b5b80821115612298576000815560010161229d565b600067ffffffffffffffff8311156122cb576122cb612ad9565b6040516122e2601f8501601f191660200182612a7b565b8091508381528484840111156122f757600080fd5b83836020830137600060208583010152509392505050565b80356001600160a01b038116811461232657600080fd5b919050565b600082601f83011261233b578081fd5b8135602061234882612987565b6040516123558282612a7b565b8381528281019150858301600585901b87018401881015612374578586fd5b855b8581101561239257813584529284019290840190600101612376565b5090979650505050505050565b600082601f8301126123af578081fd5b610d0d838335602085016122b1565b600080604083850312156123d0578182fd5b6123d98361230f565b91506123e76020840161230f565b90509250929050565b600080600080600060a08688031215612407578081fd5b6124108661230f565b945061241e6020870161230f565b9350604086013567ffffffffffffffff8082111561243a578283fd5b61244689838a0161232b565b9450606088013591508082111561245b578283fd5b61246789838a0161232b565b9350608088013591508082111561247c578283fd5b506124898882890161239f565b9150509295509295909350565b600080600080600060a086880312156124ad578081fd5b6124b68661230f565b94506124c46020870161230f565b93506040860135925060608601359150608086013567ffffffffffffffff8111156124ed578182fd5b6124898882890161239f565b60008060006060848603121561250d578283fd5b6125168461230f565b9250602084013567ffffffffffffffff80821115612532578384fd5b61253e8783880161232b565b93506040860135915080821115612553578283fd5b506125608682870161232b565b9150509250925092565b6000806040838503121561257c578182fd5b6125858361230f565b915060208301358015158114612599578182fd5b809150509250929050565b600080604083850312156125b6578182fd5b6125bf8361230f565b946020939093013593505050565b6000806000606084860312156125e1578283fd5b6125ea8461230f565b95602085013595506040909401359392505050565b60008060408385031215612611578182fd5b823567ffffffffffffffff80821115612628578384fd5b818501915085601f83011261263b578384fd5b8135602061264882612987565b6040516126558282612a7b565b8381528281019150858301600585901b870184018b1015612674578889fd5b8896505b8487101561269d576126898161230f565b835260019690960195918301918301612678565b50965050860135925050808211156126b3578283fd5b506126c08582860161232b565b9150509250929050565b6000602082840312156126db578081fd5b5035919050565b600080604083850312156126f4578182fd5b823591506123e76020840161230f565b60008060408385031215612716578182fd5b50508035926020909101359150565b600060208284031215612736578081fd5b8135610d0d81612b91565b600060208284031215612752578081fd5b8151610d0d81612b91565b60006020828403121561276e578081fd5b813567ffffffffffffffff811115612784578182fd5b8201601f81018413612794578182fd5b6127a3848235602084016122b1565b949350505050565b6000815180845260208085019450808401835b838110156127da578151875295820195908201906001016127be565b509495945050505050565b600081518084526127fd8160208601602086016129f9565b601f01601f19169290920160200192915050565b7f416363657373436f6e74726f6c3a206163636f756e74200000000000000000008152600083516128498160178501602088016129f9565b7f206973206d697373696e6720726f6c652000000000000000000000000000000060179184019182015283516128868160288401602088016129f9565b01602801949350505050565b60006001600160a01b03808816835280871660208401525060a060408301526128be60a08301866127ab565b82810360608401526128d081866127ab565b905082810360808401526128e481856127e5565b98975050505050505050565b60006001600160a01b03808816835280871660208401525084604083015283606083015260a0608083015261292860a08301846127e5565b979650505050505050565b602081526000610d0d60208301846127ab565b60408152600061295960408301856127ab565b828103602084015261296b81856127ab565b95945050505050565b602081526000610d0d60208301846127e5565b600067ffffffffffffffff8211156129a1576129a1612ad9565b5060051b60200190565b600082198211156129be576129be612ac3565b500190565b60008160001904831182151516156129dd576129dd612ac3565b500290565b6000828210156129f4576129f4612ac3565b500390565b60005b83811015612a145781810151838201526020016129fc565b83811115612a23576000848401525b50505050565b600081612a3857612a38612ac3565b506000190190565b600181811c90821680612a5457607f821691505b60208210811415612a7557634e487b7160e01b600052602260045260246000fd5b50919050565b601f8201601f1916810167ffffffffffffffff81118282101715612aa157612aa1612ad9565b6040525050565b6000600019821415612abc57612abc612ac3565b5060010190565b634e487b7160e01b600052601160045260246000fd5b634e487b7160e01b600052604160045260246000fd5b600060033d1115612b0457600481823e5160e01c5b90565b600060443d1015612b155790565b6040516003193d81016004833e81513d67ffffffffffffffff8160248401118184111715612b4557505050505090565b8285019150815181811115612b5d5750505050505090565b843d8701016020828501011115612b775750505050505090565b612b8660208286010187612a7b565b509095945050505050565b6001600160e01b03198116811461055957600080fdfea26469706673582212202567bfe0e79ea60ecec8bbdd4107f13d294b97023684f8726728a169f5b54ab564736f6c63430008040033",
  "immutableReferences": {},
  "source": "// SPDX-License-Identifier: MIT\n\npragma solidity ^0.8.0;\n\nimport \"@openzeppelin/contracts-upgradeable/token/ERC1155/ERC1155Upgradeable.sol\";\nimport \"@openzeppelin/contracts-upgradeable/token/ERC1155/extensions/ERC1155BurnableUpgradeable.sol\";\nimport \"@openzeppelin/contracts-upgradeable/token/ERC1155/extensions/ERC1155PausableUpgradeable.sol\";\nimport \"@openzeppelin/contracts-upgradeable/access/AccessControlEnumerableUpgradeable.sol\";\nimport \"@openzeppelin/contracts-upgradeable/utils/ContextUpgradeable.sol\";\nimport \"@openzeppelin/contracts-upgradeable/proxy/utils/Initializable.sol\";\n\n/**\n * @dev {ERC1155} token, including:\n *\n *  - ability for holders to burn (destroy) their tokens\n *  - a minter role that allows for token minting (creation)\n *  - a pauser role that allows to stop all token transfers\n *\n * This contract uses {AccessControl} to lock permissioned functions using the\n * different roles - head to its documentation for details.\n *\n * The account that deploys the contract will be granted the minter and pauser\n * roles, as well as the default admin role, which will let it grant both minter\n * and pauser roles to other accounts.\n */\ncontract ERC1155PresetMinterPauserUpgradeableCustom is\n\tInitializable,\n\tContextUpgradeable,\n\tAccessControlEnumerableUpgradeable,\n\tERC1155BurnableUpgradeable,\n\tERC1155PausableUpgradeable\n{\n\n\tbytes32 public constant MINTER_ROLE = keccak256(\"MINTER_ROLE\");\n\tbytes32 public constant PAUSER_ROLE = keccak256(\"PAUSER_ROLE\");\n\n\t/**\n\t * @dev Grants `DEFAULT_ADMIN_ROLE`, `MINTER_ROLE`, and `PAUSER_ROLE` to the account that\n\t * deploys the contract.\n\t */\n\tfunction __ERC1155PresetMinterPauser_init(string memory uri) internal initializer {\n\t\t__Context_init_unchained();\n\t\t__ERC165_init_unchained();\n\t\t__AccessControl_init_unchained();\n\t\t__AccessControlEnumerable_init_unchained();\n\t\t__ERC1155_init_unchained(uri);\n\t\t__ERC1155Burnable_init_unchained();\n\t\t__Pausable_init_unchained();\n\t\t__ERC1155Pausable_init_unchained();\n\t\t__ERC1155PresetMinterPauser_init_unchained();\n\t}\n\n\tfunction __ERC1155PresetMinterPauser_init_unchained() internal initializer {\n\t\t_setupRole(DEFAULT_ADMIN_ROLE, _msgSender());\n\n\t\t_setupRole(MINTER_ROLE, _msgSender());\n\t\t_setupRole(PAUSER_ROLE, _msgSender());\n\t}\n\n\tfunction setURI(string memory uri_) external {\n\t\trequire(hasRole(DEFAULT_ADMIN_ROLE, _msgSender()), \"ERC1155PresetMinterPauser: must have admin role to set new uri\");\n\t\t_setURI(uri_);\n\t}\n\n\t/**\n\t * @dev Creates `amount` new tokens for `to`, of token type `id`.\n\t *\n\t * See {ERC1155-_mint}.\n\t *\n\t * Requirements:\n\t *\n\t * - the caller must have the `MINTER_ROLE`.\n\t */\n\tfunction mint(\n\t\taddress to,\n\t\tuint256 id,\n\t\tuint256 amount,\n\t\tbytes memory data\n\t) internal virtual {\n\t\t_mint(to, id, amount, data);\n\t}\n\n\t/**\n\t * @dev xref:ROOT:erc1155.adoc#batch-operations[Batched] variant of {mint}.\n\t */\n\tfunction mintBatch(\n\t\taddress to,\n\t\tuint256[] memory ids,\n\t\tuint256[] memory amounts,\n\t\tbytes memory data\n\t) internal virtual {\n\t\trequire(hasRole(MINTER_ROLE, _msgSender()), \"ERC1155PresetMinterPauser: must have minter role to mint\");\n\n\t\t_mintBatch(to, ids, amounts, data);\n\t}\n\n\t/**\n\t * @dev Pauses all token transfers.\n\t *\n\t * See {ERC1155Pausable} and {Pausable-_pause}.\n\t *\n\t * Requirements:\n\t *\n\t * - the caller must have the `PAUSER_ROLE`.\n\t */\n\tfunction pause() public virtual {\n\t\trequire(hasRole(PAUSER_ROLE, _msgSender()), \"ERC1155PresetMinterPauser: must have pauser role to pause\");\n\t\t_pause();\n\t}\n\n\t/**\n\t * @dev Unpauses all token transfers.\n\t *\n\t * See {ERC1155Pausable} and {Pausable-_unpause}.\n\t *\n\t * Requirements:\n\t *\n\t * - the caller must have the `PAUSER_ROLE`.\n\t */\n\tfunction unpause() public virtual {\n\t\trequire(hasRole(PAUSER_ROLE, _msgSender()), \"ERC1155PresetMinterPauser: must have pauser role to unpause\");\n\t\t_unpause();\n\t}\n\n\t/**\n\t * @dev See {IERC165-supportsInterface}.\n\t */\n\tfunction supportsInterface(bytes4 interfaceId) public view virtual override(AccessControlEnumerableUpgradeable, ERC1155Upgradeable) returns (bool) {\n\t\treturn super.supportsInterface(interfaceId);\n\t}\n\n\tfunction _beforeTokenTransfer(\n\t\taddress operator,\n\t\taddress from,\n\t\taddress to,\n\t\tuint256[] memory ids,\n\t\tuint256[] memory amounts,\n\t\tbytes memory data\n\t) internal virtual override(ERC1155Upgradeable, ERC1155PausableUpgradeable) {\n\t\tsuper._beforeTokenTransfer(operator, from, to, ids, amounts, data);\n\t}\n\n\tuint256[50] private __gap;\n}\n",
  "sourcePath": "/Users/vincent/Dev/GhostMarketContractBSC/contracts/ERC1155PresetMinterPauserUpgradeableCustom.sol",
  "compiler": {
    "name": "solc",
    "version": "0.8.4+commit.c7e474f2.Emscripten.clang"
  },
  "schemaVersion": "3.4.1",
  "updatedAt": "2021-05-19T17:17:00.460Z",
  "devdoc": {
    "details": "{ERC1155} token, including:  - ability for holders to burn (destroy) their tokens  - a minter role that allows for token minting (creation)  - a pauser role that allows to stop all token transfers This contract uses {AccessControl} to lock permissioned functions using the different roles - head to its documentation for details. The account that deploys the contract will be granted the minter and pauser roles, as well as the default admin role, which will let it grant both minter and pauser roles to other accounts.",
    "kind": "dev",
    "methods": {
      "balanceOf(address,uint256)": {
        "details": "See {IERC1155-balanceOf}. Requirements: - `account` cannot be the zero address."
      },
      "balanceOfBatch(address[],uint256[])": {
        "details": "See {IERC1155-balanceOfBatch}. Requirements: - `accounts` and `ids` must have the same length."
      },
      "getRoleAdmin(bytes32)": {
        "details": "Returns the admin role that controls `role`. See {grantRole} and {revokeRole}. To change a role's admin, use {_setRoleAdmin}."
      },
      "getRoleMember(bytes32,uint256)": {
        "details": "Returns one of the accounts that have `role`. `index` must be a value between 0 and {getRoleMemberCount}, non-inclusive. Role bearers are not sorted in any particular way, and their ordering may change at any point. WARNING: When using {getRoleMember} and {getRoleMemberCount}, make sure you perform all queries on the same block. See the following https://forum.openzeppelin.com/t/iterating-over-elements-on-enumerableset-in-openzeppelin-contracts/2296[forum post] for more information."
      },
      "getRoleMemberCount(bytes32)": {
        "details": "Returns the number of accounts that have `role`. Can be used together with {getRoleMember} to enumerate all bearers of a role."
      },
      "grantRole(bytes32,address)": {
        "details": "Overload {grantRole} to track enumerable memberships"
      },
      "hasRole(bytes32,address)": {
        "details": "Returns `true` if `account` has been granted `role`."
      },
      "isApprovedForAll(address,address)": {
        "details": "See {IERC1155-isApprovedForAll}."
      },
      "pause()": {
        "details": "Pauses all token transfers. See {ERC1155Pausable} and {Pausable-_pause}. Requirements: - the caller must have the `PAUSER_ROLE`."
      },
      "paused()": {
        "details": "Returns true if the contract is paused, and false otherwise."
      },
      "renounceRole(bytes32,address)": {
        "details": "Overload {renounceRole} to track enumerable memberships"
      },
      "revokeRole(bytes32,address)": {
        "details": "Overload {revokeRole} to track enumerable memberships"
      },
      "safeBatchTransferFrom(address,address,uint256[],uint256[],bytes)": {
        "details": "See {IERC1155-safeBatchTransferFrom}."
      },
      "safeTransferFrom(address,address,uint256,uint256,bytes)": {
        "details": "See {IERC1155-safeTransferFrom}."
      },
      "setApprovalForAll(address,bool)": {
        "details": "See {IERC1155-setApprovalForAll}."
      },
      "supportsInterface(bytes4)": {
        "details": "See {IERC165-supportsInterface}."
      },
      "unpause()": {
        "details": "Unpauses all token transfers. See {ERC1155Pausable} and {Pausable-_unpause}. Requirements: - the caller must have the `PAUSER_ROLE`."
      },
      "uri(uint256)": {
        "details": "See {IERC1155MetadataURI-uri}. This implementation returns the same URI for *all* token types. It relies on the token type ID substitution mechanism https://eips.ethereum.org/EIPS/eip-1155#metadata[defined in the EIP]. Clients calling this function must replace the `\\{id\\}` substring with the actual token type ID."
      }
    },
    "version": 1
  },
  "userdoc": {
    "kind": "user",
    "methods": {},
    "version": 1
  }
}