{
  "contractName": "ERC1155PresetMinterPauserUpgradeable",
  "abi": [
    {
      "anonymous": false,
      "inputs": [
        {
          "indexed": true,
          "internalType": "address",
          "name": "account",
          "type": "address"
        },
        {
          "indexed": true,
          "internalType": "address",
          "name": "operator",
          "type": "address"
        },
        {
          "indexed": false,
          "internalType": "bool",
          "name": "approved",
          "type": "bool"
        }
      ],
      "name": "ApprovalForAll",
      "type": "event"
    },
    {
      "anonymous": false,
      "inputs": [
        {
          "indexed": false,
          "internalType": "address",
          "name": "account",
          "type": "address"
        }
      ],
      "name": "Paused",
      "type": "event"
    },
    {
      "anonymous": false,
      "inputs": [
        {
          "indexed": true,
          "internalType": "bytes32",
          "name": "role",
          "type": "bytes32"
        },
        {
          "indexed": true,
          "internalType": "bytes32",
          "name": "previousAdminRole",
          "type": "bytes32"
        },
        {
          "indexed": true,
          "internalType": "bytes32",
          "name": "newAdminRole",
          "type": "bytes32"
        }
      ],
      "name": "RoleAdminChanged",
      "type": "event"
    },
    {
      "anonymous": false,
      "inputs": [
        {
          "indexed": true,
          "internalType": "bytes32",
          "name": "role",
          "type": "bytes32"
        },
        {
          "indexed": true,
          "internalType": "address",
          "name": "account",
          "type": "address"
        },
        {
          "indexed": true,
          "internalType": "address",
          "name": "sender",
          "type": "address"
        }
      ],
      "name": "RoleGranted",
      "type": "event"
    },
    {
      "anonymous": false,
      "inputs": [
        {
          "indexed": true,
          "internalType": "bytes32",
          "name": "role",
          "type": "bytes32"
        },
        {
          "indexed": true,
          "internalType": "address",
          "name": "account",
          "type": "address"
        },
        {
          "indexed": true,
          "internalType": "address",
          "name": "sender",
          "type": "address"
        }
      ],
      "name": "RoleRevoked",
      "type": "event"
    },
    {
      "anonymous": false,
      "inputs": [
        {
          "indexed": true,
          "internalType": "address",
          "name": "operator",
          "type": "address"
        },
        {
          "indexed": true,
          "internalType": "address",
          "name": "from",
          "type": "address"
        },
        {
          "indexed": true,
          "internalType": "address",
          "name": "to",
          "type": "address"
        },
        {
          "indexed": false,
          "internalType": "uint256[]",
          "name": "ids",
          "type": "uint256[]"
        },
        {
          "indexed": false,
          "internalType": "uint256[]",
          "name": "values",
          "type": "uint256[]"
        }
      ],
      "name": "TransferBatch",
      "type": "event"
    },
    {
      "anonymous": false,
      "inputs": [
        {
          "indexed": true,
          "internalType": "address",
          "name": "operator",
          "type": "address"
        },
        {
          "indexed": true,
          "internalType": "address",
          "name": "from",
          "type": "address"
        },
        {
          "indexed": true,
          "internalType": "address",
          "name": "to",
          "type": "address"
        },
        {
          "indexed": false,
          "internalType": "uint256",
          "name": "id",
          "type": "uint256"
        },
        {
          "indexed": false,
          "internalType": "uint256",
          "name": "value",
          "type": "uint256"
        }
      ],
      "name": "TransferSingle",
      "type": "event"
    },
    {
      "anonymous": false,
      "inputs": [
        {
          "indexed": false,
          "internalType": "string",
          "name": "value",
          "type": "string"
        },
        {
          "indexed": true,
          "internalType": "uint256",
          "name": "id",
          "type": "uint256"
        }
      ],
      "name": "URI",
      "type": "event"
    },
    {
      "anonymous": false,
      "inputs": [
        {
          "indexed": false,
          "internalType": "address",
          "name": "account",
          "type": "address"
        }
      ],
      "name": "Unpaused",
      "type": "event"
    },
    {
      "inputs": [],
      "name": "DEFAULT_ADMIN_ROLE",
      "outputs": [
        {
          "internalType": "bytes32",
          "name": "",
          "type": "bytes32"
        }
      ],
      "stateMutability": "view",
      "type": "function"
    },
    {
      "inputs": [],
      "name": "MINTER_ROLE",
      "outputs": [
        {
          "internalType": "bytes32",
          "name": "",
          "type": "bytes32"
        }
      ],
      "stateMutability": "view",
      "type": "function"
    },
    {
      "inputs": [],
      "name": "PAUSER_ROLE",
      "outputs": [
        {
          "internalType": "bytes32",
          "name": "",
          "type": "bytes32"
        }
      ],
      "stateMutability": "view",
      "type": "function"
    },
    {
      "inputs": [
        {
          "internalType": "address",
          "name": "account",
          "type": "address"
        },
        {
          "internalType": "uint256",
          "name": "id",
          "type": "uint256"
        }
      ],
      "name": "balanceOf",
      "outputs": [
        {
          "internalType": "uint256",
          "name": "",
          "type": "uint256"
        }
      ],
      "stateMutability": "view",
      "type": "function"
    },
    {
      "inputs": [
        {
          "internalType": "address[]",
          "name": "accounts",
          "type": "address[]"
        },
        {
          "internalType": "uint256[]",
          "name": "ids",
          "type": "uint256[]"
        }
      ],
      "name": "balanceOfBatch",
      "outputs": [
        {
          "internalType": "uint256[]",
          "name": "",
          "type": "uint256[]"
        }
      ],
      "stateMutability": "view",
      "type": "function"
    },
    {
      "inputs": [
        {
          "internalType": "address",
          "name": "account",
          "type": "address"
        },
        {
          "internalType": "uint256",
          "name": "id",
          "type": "uint256"
        },
        {
          "internalType": "uint256",
          "name": "value",
          "type": "uint256"
        }
      ],
      "name": "burn",
      "outputs": [],
      "stateMutability": "nonpayable",
      "type": "function"
    },
    {
      "inputs": [
        {
          "internalType": "address",
          "name": "account",
          "type": "address"
        },
        {
          "internalType": "uint256[]",
          "name": "ids",
          "type": "uint256[]"
        },
        {
          "internalType": "uint256[]",
          "name": "values",
          "type": "uint256[]"
        }
      ],
      "name": "burnBatch",
      "outputs": [],
      "stateMutability": "nonpayable",
      "type": "function"
    },
    {
      "inputs": [
        {
          "internalType": "bytes32",
          "name": "role",
          "type": "bytes32"
        }
      ],
      "name": "getRoleAdmin",
      "outputs": [
        {
          "internalType": "bytes32",
          "name": "",
          "type": "bytes32"
        }
      ],
      "stateMutability": "view",
      "type": "function"
    },
    {
      "inputs": [
        {
          "internalType": "bytes32",
          "name": "role",
          "type": "bytes32"
        },
        {
          "internalType": "uint256",
          "name": "index",
          "type": "uint256"
        }
      ],
      "name": "getRoleMember",
      "outputs": [
        {
          "internalType": "address",
          "name": "",
          "type": "address"
        }
      ],
      "stateMutability": "view",
      "type": "function"
    },
    {
      "inputs": [
        {
          "internalType": "bytes32",
          "name": "role",
          "type": "bytes32"
        }
      ],
      "name": "getRoleMemberCount",
      "outputs": [
        {
          "internalType": "uint256",
          "name": "",
          "type": "uint256"
        }
      ],
      "stateMutability": "view",
      "type": "function"
    },
    {
      "inputs": [
        {
          "internalType": "bytes32",
          "name": "role",
          "type": "bytes32"
        },
        {
          "internalType": "address",
          "name": "account",
          "type": "address"
        }
      ],
      "name": "grantRole",
      "outputs": [],
      "stateMutability": "nonpayable",
      "type": "function"
    },
    {
      "inputs": [
        {
          "internalType": "bytes32",
          "name": "role",
          "type": "bytes32"
        },
        {
          "internalType": "address",
          "name": "account",
          "type": "address"
        }
      ],
      "name": "hasRole",
      "outputs": [
        {
          "internalType": "bool",
          "name": "",
          "type": "bool"
        }
      ],
      "stateMutability": "view",
      "type": "function"
    },
    {
      "inputs": [
        {
          "internalType": "address",
          "name": "account",
          "type": "address"
        },
        {
          "internalType": "address",
          "name": "operator",
          "type": "address"
        }
      ],
      "name": "isApprovedForAll",
      "outputs": [
        {
          "internalType": "bool",
          "name": "",
          "type": "bool"
        }
      ],
      "stateMutability": "view",
      "type": "function"
    },
    {
      "inputs": [],
      "name": "paused",
      "outputs": [
        {
          "internalType": "bool",
          "name": "",
          "type": "bool"
        }
      ],
      "stateMutability": "view",
      "type": "function"
    },
    {
      "inputs": [
        {
          "internalType": "bytes32",
          "name": "role",
          "type": "bytes32"
        },
        {
          "internalType": "address",
          "name": "account",
          "type": "address"
        }
      ],
      "name": "renounceRole",
      "outputs": [],
      "stateMutability": "nonpayable",
      "type": "function"
    },
    {
      "inputs": [
        {
          "internalType": "bytes32",
          "name": "role",
          "type": "bytes32"
        },
        {
          "internalType": "address",
          "name": "account",
          "type": "address"
        }
      ],
      "name": "revokeRole",
      "outputs": [],
      "stateMutability": "nonpayable",
      "type": "function"
    },
    {
      "inputs": [
        {
          "internalType": "address",
          "name": "from",
          "type": "address"
        },
        {
          "internalType": "address",
          "name": "to",
          "type": "address"
        },
        {
          "internalType": "uint256[]",
          "name": "ids",
          "type": "uint256[]"
        },
        {
          "internalType": "uint256[]",
          "name": "amounts",
          "type": "uint256[]"
        },
        {
          "internalType": "bytes",
          "name": "data",
          "type": "bytes"
        }
      ],
      "name": "safeBatchTransferFrom",
      "outputs": [],
      "stateMutability": "nonpayable",
      "type": "function"
    },
    {
      "inputs": [
        {
          "internalType": "address",
          "name": "from",
          "type": "address"
        },
        {
          "internalType": "address",
          "name": "to",
          "type": "address"
        },
        {
          "internalType": "uint256",
          "name": "id",
          "type": "uint256"
        },
        {
          "internalType": "uint256",
          "name": "amount",
          "type": "uint256"
        },
        {
          "internalType": "bytes",
          "name": "data",
          "type": "bytes"
        }
      ],
      "name": "safeTransferFrom",
      "outputs": [],
      "stateMutability": "nonpayable",
      "type": "function"
    },
    {
      "inputs": [
        {
          "internalType": "address",
          "name": "operator",
          "type": "address"
        },
        {
          "internalType": "bool",
          "name": "approved",
          "type": "bool"
        }
      ],
      "name": "setApprovalForAll",
      "outputs": [],
      "stateMutability": "nonpayable",
      "type": "function"
    },
    {
      "inputs": [
        {
          "internalType": "uint256",
          "name": "",
          "type": "uint256"
        }
      ],
      "name": "uri",
      "outputs": [
        {
          "internalType": "string",
          "name": "",
          "type": "string"
        }
      ],
      "stateMutability": "view",
      "type": "function"
    },
    {
      "inputs": [
        {
          "internalType": "string",
          "name": "uri",
          "type": "string"
        }
      ],
      "name": "initialize",
      "outputs": [],
      "stateMutability": "nonpayable",
      "type": "function"
    },
    {
      "inputs": [
        {
          "internalType": "string",
          "name": "uri_",
          "type": "string"
        }
      ],
      "name": "setURI",
      "outputs": [],
      "stateMutability": "nonpayable",
      "type": "function"
    },
    {
      "inputs": [
        {
          "internalType": "address",
          "name": "to",
          "type": "address"
        },
        {
          "internalType": "uint256",
          "name": "id",
          "type": "uint256"
        },
        {
          "internalType": "uint256",
          "name": "amount",
          "type": "uint256"
        },
        {
          "internalType": "bytes",
          "name": "data",
          "type": "bytes"
        }
      ],
      "name": "mint",
      "outputs": [],
      "stateMutability": "nonpayable",
      "type": "function"
    },
    {
      "inputs": [
        {
          "internalType": "address",
          "name": "to",
          "type": "address"
        },
        {
          "internalType": "uint256[]",
          "name": "ids",
          "type": "uint256[]"
        },
        {
          "internalType": "uint256[]",
          "name": "amounts",
          "type": "uint256[]"
        },
        {
          "internalType": "bytes",
          "name": "data",
          "type": "bytes"
        }
      ],
      "name": "mintBatch",
      "outputs": [],
      "stateMutability": "nonpayable",
      "type": "function"
    },
    {
      "inputs": [],
      "name": "pause",
      "outputs": [],
      "stateMutability": "nonpayable",
      "type": "function"
    },
    {
      "inputs": [],
      "name": "unpause",
      "outputs": [],
      "stateMutability": "nonpayable",
      "type": "function"
    },
    {
      "inputs": [
        {
          "internalType": "bytes4",
          "name": "interfaceId",
          "type": "bytes4"
        }
      ],
      "name": "supportsInterface",
      "outputs": [
        {
          "internalType": "bool",
          "name": "",
          "type": "bool"
        }
      ],
      "stateMutability": "view",
      "type": "function"
    }
  ],
  "bytecode": "0x608060405234801561001057600080fd5b506132de806100206000396000f3fe608060405234801561001057600080fd5b50600436106101b85760003560e01c8063731133e9116100f9578063d539139311610097578063e985e9c511610071578063e985e9c5146103fb578063f242432a14610437578063f5298aca1461044a578063f62d18881461045d576101b8565b8063d53913931461039a578063d547741f146103c1578063e63ab1e9146103d4576101b8565b806391d14854116100d357806391d1485414610333578063a217fddf1461036c578063a22cb46514610374578063ca15c87314610387576101b8565b8063731133e9146102ed5780638456cb59146103005780639010d07c14610308576101b8565b80632eb2c2d6116101665780633f4ba83a116101405780633f4ba83a146102aa5780634e1273f4146102b25780635c975abb146102d25780636b20c454146102da576101b8565b80632eb2c2d6146102715780632f2ff15d1461028457806336568abe14610297576101b8565b80630e89341c116101975780630e89341c1461021b5780631f7fdffa1461023b578063248a9ca31461024e576101b8565b8062fdd58e146101bd57806301ffc9a7146101e357806302fe530514610206575b600080fd5b6101d06101cb366004612d13565b610470565b6040519081526020015b60405180910390f35b6101f66101f1366004612ee7565b61051e565b60405190151581526020016101da565b610219610214366004612f1f565b610531565b005b61022e610229366004612e8c565b6105ba565b6040516101da91906130d4565b610219610249366004612c44565b61064e565b6101d061025c366004612e8c565b60009081526065602052604090206001015490565b61021961027f366004612aca565b6106fc565b610219610292366004612ea4565b610a73565b6102196102a5366004612ea4565b610a9a565b610219610abc565b6102c56102c0366004612dc1565b610b62565b6040516101da9190613093565b6101f6610cd8565b6102196102e8366004612bd3565b610ce3565b6102196102fb366004612d6e565b610d68565b610219610d74565b61031b610316366004612ec6565b610e18565b6040516001600160a01b0390911681526020016101da565b6101f6610341366004612ea4565b60009182526065602090815260408084206001600160a01b0393909316845291905290205460ff1690565b6101d0600081565b610219610382366004612cd9565b610e37565b6101d0610395366004612e8c565b610f2f565b6101d07f9f2df0fed2c77648de5860a4cc508cd0818c85b8b8a1ab4ceeef8d981c8956a681565b6102196103cf366004612ea4565b610f46565b6101d07f65d7a28e3265b37a6474929f336521b332c1681b933f6cb9f3376673440d862a81565b6101f6610409366004612a98565b6001600160a01b03918216600090815260ca6020908152604080832093909416825291909152205460ff1690565b610219610445366004612b70565b610f50565b610219610458366004612d3c565b611197565b61021961046b366004612f1f565b61121c565b60006001600160a01b0383166104f35760405162461bcd60e51b815260206004820152602b60248201527f455243313135353a2062616c616e636520717565727920666f7220746865207a60448201527f65726f206164647265737300000000000000000000000000000000000000000060648201526084015b60405180910390fd5b50600081815260c9602090815260408083206001600160a01b03861684529091529020545b92915050565b6000610529826112d9565b90505b919050565b61053c600033610341565b6105ae5760405162461bcd60e51b815260206004820152603e60248201527f455243313135355072657365744d696e7465725061757365723a206d7573742060448201527f686176652061646d696e20726f6c6520746f20736574206e657720757269000060648201526084016104ea565b6105b78161134b565b50565b606060cb80546105c99061313a565b80601f01602080910402602001604051908101604052809291908181526020018280546105f59061313a565b80156106425780601f1061061757610100808354040283529160200191610642565b820191906000526020600020905b81548152906001019060200180831161062557829003601f168201915b50505050509050919050565b6106787f9f2df0fed2c77648de5860a4cc508cd0818c85b8b8a1ab4ceeef8d981c8956a633610341565b6106ea5760405162461bcd60e51b815260206004820152603860248201527f455243313135355072657365744d696e7465725061757365723a206d7573742060448201527f68617665206d696e74657220726f6c6520746f206d696e74000000000000000060648201526084016104ea565b6106f68484848461135e565b50505050565b815183511461075e5760405162461bcd60e51b815260206004820152602860248201527f455243313135353a2069647320616e6420616d6f756e7473206c656e677468206044820152670dad2e6dac2e8c6d60c31b60648201526084016104ea565b6001600160a01b0384166107c25760405162461bcd60e51b815260206004820152602560248201527f455243313135353a207472616e7366657220746f20746865207a65726f206164604482015264647265737360d81b60648201526084016104ea565b6001600160a01b0385163314806107de57506107de8533610409565b6108505760405162461bcd60e51b815260206004820152603260248201527f455243313135353a207472616e736665722063616c6c6572206973206e6f742060448201527f6f776e6572206e6f7220617070726f766564000000000000000000000000000060648201526084016104ea565b3361085f818787878787611557565b60005b8451811015610a0557600085828151811061088d57634e487b7160e01b600052603260045260246000fd5b6020026020010151905060008583815181106108b957634e487b7160e01b600052603260045260246000fd5b602090810291909101810151600084815260c9835260408082206001600160a01b038e1683529093529190912054909150818110156109605760405162461bcd60e51b815260206004820152602a60248201527f455243313135353a20696e73756666696369656e742062616c616e636520666f60448201527f72207472616e736665720000000000000000000000000000000000000000000060648201526084016104ea565b61096a8282613123565b60c9600085815260200190815260200160002060008c6001600160a01b03166001600160a01b03168152602001908152602001600020819055508160c9600085815260200190815260200160002060008b6001600160a01b03166001600160a01b0316815260200190815260200160002060008282546109ea919061310b565b92505081905550505050806109fe906131a2565b9050610862565b50846001600160a01b0316866001600160a01b0316826001600160a01b03167f4a39dc06d4c0dbc64b70af90fd698a233a518aa5d07e595d983b8c0526c8f7fb8787604051610a559291906130a6565b60405180910390a4610a6b818787878787611565565b505050505050565b610a7d828261171a565b6000828152609760205260409020610a9590826117b3565b505050565b610aa482826117c8565b6000828152609760205260409020610a959082611850565b610ae67f65d7a28e3265b37a6474929f336521b332c1681b933f6cb9f3376673440d862a33610341565b610b585760405162461bcd60e51b815260206004820152603b60248201527f455243313135355072657365744d696e7465725061757365723a206d7573742060448201527f686176652070617573657220726f6c6520746f20756e7061757365000000000060648201526084016104ea565b610b60611865565b565b60608151835114610bdb5760405162461bcd60e51b815260206004820152602960248201527f455243313135353a206163636f756e747320616e6420696473206c656e67746860448201527f206d69736d61746368000000000000000000000000000000000000000000000060648201526084016104ea565b6000835167ffffffffffffffff811115610c0557634e487b7160e01b600052604160045260246000fd5b604051908082528060200260200182016040528015610c2e578160200160208202803683370190505b50905060005b8451811015610cd057610c95858281518110610c6057634e487b7160e01b600052603260045260246000fd5b6020026020010151858381518110610c8857634e487b7160e01b600052603260045260246000fd5b6020026020010151610470565b828281518110610cb557634e487b7160e01b600052603260045260246000fd5b6020908102919091010152610cc9816131a2565b9050610c34565b509392505050565b61012d5460ff165b90565b6001600160a01b038316331480610cff5750610cff8333610409565b610d5d5760405162461bcd60e51b815260206004820152602960248201527f455243313135353a2063616c6c6572206973206e6f74206f776e6572206e6f7260448201526808185c1c1c9bdd995960ba1b60648201526084016104ea565b610a95838383611904565b6106f684848484611b77565b610d9e7f65d7a28e3265b37a6474929f336521b332c1681b933f6cb9f3376673440d862a33610341565b610e105760405162461bcd60e51b815260206004820152603960248201527f455243313135355072657365744d696e7465725061757365723a206d7573742060448201527f686176652070617573657220726f6c6520746f2070617573650000000000000060648201526084016104ea565b610b60611c7a565b6000828152609760205260408120610e309083611d05565b9392505050565b336001600160a01b0383161415610eb65760405162461bcd60e51b815260206004820152602960248201527f455243313135353a2073657474696e6720617070726f76616c2073746174757360448201527f20666f722073656c66000000000000000000000000000000000000000000000060648201526084016104ea565b33600081815260ca602090815260408083206001600160a01b0387168085529252909120805460ff1916841515179055906001600160a01b03167f17307eab39ab6107e8899845ad3d59bd9653f200f220920489ca2b5937696c3183604051610f23911515815260200190565b60405180910390a35050565b600081815260976020526040812061052990611d11565b610aa48282611d1b565b6001600160a01b038416610fb45760405162461bcd60e51b815260206004820152602560248201527f455243313135353a207472616e7366657220746f20746865207a65726f206164604482015264647265737360d81b60648201526084016104ea565b6001600160a01b038516331480610fd05750610fd08533610409565b61102e5760405162461bcd60e51b815260206004820152602960248201527f455243313135353a2063616c6c6572206973206e6f74206f776e6572206e6f7260448201526808185c1c1c9bdd995960ba1b60648201526084016104ea565b3361104d81878761103e88611da8565b61104788611da8565b87611557565b600084815260c9602090815260408083206001600160a01b038a168452909152902054838110156110e65760405162461bcd60e51b815260206004820152602a60248201527f455243313135353a20696e73756666696369656e742062616c616e636520666f60448201527f72207472616e736665720000000000000000000000000000000000000000000060648201526084016104ea565b6110f08482613123565b600086815260c9602090815260408083206001600160a01b038c8116855292528083209390935588168152908120805486929061112e90849061310b565b909155505060408051868152602081018690526001600160a01b03808916928a821692918616917fc3d58168c5ae7397731d063d5bbf3d657854427343f4c083240f7aacaa2d0f62910160405180910390a461118e828888888888611e01565b50505050505050565b6001600160a01b0383163314806111b357506111b38333610409565b6112115760405162461bcd60e51b815260206004820152602960248201527f455243313135353a2063616c6c6572206973206e6f74206f776e6572206e6f7260448201526808185c1c1c9bdd995960ba1b60648201526084016104ea565b610a95838383611f0c565b600054610100900460ff1680611235575060005460ff16155b6112985760405162461bcd60e51b815260206004820152602e60248201527f496e697469616c697a61626c653a20636f6e747261637420697320616c72656160448201526d191e481a5b9a5d1a585b1a5e995960921b60648201526084016104ea565b600054610100900460ff161580156112ba576000805461ffff19166101011790555b6112c382612091565b80156112d5576000805461ff00191690555b5050565b60006001600160e01b031982167fd9b67a2600000000000000000000000000000000000000000000000000000000148061133c57506001600160e01b031982167f0e89341c00000000000000000000000000000000000000000000000000000000145b80610529575061052982612179565b80516112d59060cb9060208401906128f7565b6001600160a01b0384166113be5760405162461bcd60e51b815260206004820152602160248201527f455243313135353a206d696e7420746f20746865207a65726f206164647265736044820152607360f81b60648201526084016104ea565b81518351146114205760405162461bcd60e51b815260206004820152602860248201527f455243313135353a2069647320616e6420616d6f756e7473206c656e677468206044820152670dad2e6dac2e8c6d60c31b60648201526084016104ea565b3361143081600087878787611557565b60005b84518110156114e85783818151811061145c57634e487b7160e01b600052603260045260246000fd5b602002602001015160c9600087848151811061148857634e487b7160e01b600052603260045260246000fd5b602002602001015181526020019081526020016000206000886001600160a01b03166001600160a01b0316815260200190815260200160002060008282546114d0919061310b565b909155508190506114e0816131a2565b915050611433565b50846001600160a01b031660006001600160a01b0316826001600160a01b03167f4a39dc06d4c0dbc64b70af90fd698a233a518aa5d07e595d983b8c0526c8f7fb87876040516115399291906130a6565b60405180910390a461155081600087878787611565565b5050505050565b610a6b8686868686866121b7565b6001600160a01b0384163b15610a6b5760405163bc197c8160e01b81526001600160a01b0385169063bc197c81906115a99089908990889088908890600401612ff2565b602060405180830381600087803b1580156115c357600080fd5b505af19250505080156115f3575060408051601f3d908101601f191682019092526115f091810190612f03565b60015b6116a9576115ff6131e9565b806308c379a014156116395750611614613200565b8061161f575061163b565b8060405162461bcd60e51b81526004016104ea91906130d4565b505b60405162461bcd60e51b815260206004820152603460248201527f455243313135353a207472616e7366657220746f206e6f6e204552433131353560448201527f526563656976657220696d706c656d656e74657200000000000000000000000060648201526084016104ea565b6001600160e01b0319811663bc197c8160e01b1461118e5760405162461bcd60e51b815260206004820152602860248201527f455243313135353a204552433131353552656365697665722072656a656374656044820152676420746f6b656e7360c01b60648201526084016104ea565b600082815260656020526040902060010154611737905b33610341565b6117a95760405162461bcd60e51b815260206004820152602f60248201527f416363657373436f6e74726f6c3a2073656e646572206d75737420626520616e60448201527f2061646d696e20746f206772616e74000000000000000000000000000000000060648201526084016104ea565b6112d58282612232565b6000610e30836001600160a01b0384166122d4565b6001600160a01b03811633146118465760405162461bcd60e51b815260206004820152602f60248201527f416363657373436f6e74726f6c3a2063616e206f6e6c792072656e6f756e636560448201527f20726f6c657320666f722073656c66000000000000000000000000000000000060648201526084016104ea565b6112d58282612323565b6000610e30836001600160a01b0384166123a6565b61186d610cd8565b6118b95760405162461bcd60e51b815260206004820152601460248201527f5061757361626c653a206e6f742070617573656400000000000000000000000060448201526064016104ea565b61012d805460ff191690557f5db9ee0a495bf2e6ff9c91a7834c1ba4fdd244a5e8aa4e537bd38aeae4b073aa335b6040516001600160a01b03909116815260200160405180910390a1565b6001600160a01b0383166119665760405162461bcd60e51b815260206004820152602360248201527f455243313135353a206275726e2066726f6d20746865207a65726f206164647260448201526265737360e81b60648201526084016104ea565b80518251146119c85760405162461bcd60e51b815260206004820152602860248201527f455243313135353a2069647320616e6420616d6f756e7473206c656e677468206044820152670dad2e6dac2e8c6d60c31b60648201526084016104ea565b60003390506119eb81856000868660405180602001604052806000815250611557565b60005b8351811015611b18576000848281518110611a1957634e487b7160e01b600052603260045260246000fd5b602002602001015190506000848381518110611a4557634e487b7160e01b600052603260045260246000fd5b602090810291909101810151600084815260c9835260408082206001600160a01b038c168352909352919091205490915081811015611ad25760405162461bcd60e51b8152602060048201526024808201527f455243313135353a206275726e20616d6f756e7420657863656564732062616c604482015263616e636560e01b60648201526084016104ea565b611adc8282613123565b600093845260c9602090815260408086206001600160a01b038c1687529091529093209290925550819050611b10816131a2565b9150506119ee565b5060006001600160a01b0316846001600160a01b0316826001600160a01b03167f4a39dc06d4c0dbc64b70af90fd698a233a518aa5d07e595d983b8c0526c8f7fb8686604051611b699291906130a6565b60405180910390a450505050565b6001600160a01b038416611bd75760405162461bcd60e51b815260206004820152602160248201527f455243313135353a206d696e7420746f20746865207a65726f206164647265736044820152607360f81b60648201526084016104ea565b33611be88160008761103e88611da8565b600084815260c9602090815260408083206001600160a01b038916845290915281208054859290611c1a90849061310b565b909155505060408051858152602081018590526001600160a01b0380881692600092918516917fc3d58168c5ae7397731d063d5bbf3d657854427343f4c083240f7aacaa2d0f62910160405180910390a461155081600087878787611e01565b611c82610cd8565b15611ccf5760405162461bcd60e51b815260206004820152601060248201527f5061757361626c653a207061757365640000000000000000000000000000000060448201526064016104ea565b61012d805460ff191660011790557f62e78cea01bee320cd4e420270b5ea74000d11b0c9f74754ebdbfc544b05a2586118e73390565b6000610e3083836124c3565b6000610529825490565b600082815260656020526040902060010154611d3690611731565b6118465760405162461bcd60e51b815260206004820152603060248201527f416363657373436f6e74726f6c3a2073656e646572206d75737420626520616e60448201527f2061646d696e20746f207265766f6b650000000000000000000000000000000060648201526084016104ea565b60408051600180825281830190925260609160009190602080830190803683370190505090508281600081518110611df057634e487b7160e01b600052603260045260246000fd5b602090810291909101015292915050565b6001600160a01b0384163b15610a6b5760405163f23a6e6160e01b81526001600160a01b0385169063f23a6e6190611e459089908990889088908890600401613050565b602060405180830381600087803b158015611e5f57600080fd5b505af1925050508015611e8f575060408051601f3d908101601f19168201909252611e8c91810190612f03565b60015b611e9b576115ff6131e9565b6001600160e01b0319811663f23a6e6160e01b1461118e5760405162461bcd60e51b815260206004820152602860248201527f455243313135353a204552433131353552656365697665722072656a656374656044820152676420746f6b656e7360c01b60648201526084016104ea565b6001600160a01b038316611f6e5760405162461bcd60e51b815260206004820152602360248201527f455243313135353a206275726e2066726f6d20746865207a65726f206164647260448201526265737360e81b60648201526084016104ea565b33611f9d81856000611f7f87611da8565b611f8887611da8565b60405180602001604052806000815250611557565b600083815260c9602090815260408083206001600160a01b03881684529091529020548281101561201c5760405162461bcd60e51b8152602060048201526024808201527f455243313135353a206275726e20616d6f756e7420657863656564732062616c604482015263616e636560e01b60648201526084016104ea565b6120268382613123565b600085815260c9602090815260408083206001600160a01b038a811680865291845282852095909555815189815292830188905292938616917fc3d58168c5ae7397731d063d5bbf3d657854427343f4c083240f7aacaa2d0f62910160405180910390a45050505050565b600054610100900460ff16806120aa575060005460ff16155b61210d5760405162461bcd60e51b815260206004820152602e60248201527f496e697469616c697a61626c653a20636f6e747261637420697320616c72656160448201526d191e481a5b9a5d1a585b1a5e995960921b60648201526084016104ea565b600054610100900460ff1615801561212f576000805461ffff19166101011790555b612137612572565b61213f612572565b612147612572565b61214f612572565b61215882612624565b612160612572565b6121686126cb565b612170612572565b6112c382612788565b60006001600160e01b031982167f5a05180f000000000000000000000000000000000000000000000000000000001480610529575061052982612886565b6121bf610cd8565b15610a6b5760405162461bcd60e51b815260206004820152602c60248201527f455243313135355061757361626c653a20746f6b656e207472616e736665722060448201527f7768696c6520706175736564000000000000000000000000000000000000000060648201526084016104ea565b60008281526065602090815260408083206001600160a01b038516845290915290205460ff166112d55760008281526065602090815260408083206001600160a01b03851684529091529020805460ff191660011790556122903390565b6001600160a01b0316816001600160a01b0316837f2f8788117e7eff1d82e926ec794901d17c78024a50270940304540a733656f0d60405160405180910390a45050565b600081815260018301602052604081205461231b57508154600181810184556000848152602080822090930184905584548482528286019093526040902091909155610518565b506000610518565b60008281526065602090815260408083206001600160a01b038516845290915290205460ff16156112d55760008281526065602090815260408083206001600160a01b0385168085529252808320805460ff1916905551339285917ff6391f5c32d9c69d2a47ea670b442974b53935d1edc7fd64eb21e047a839171b9190a45050565b600081815260018301602052604081205480156124b95760006123ca600183613123565b85549091506000906123de90600190613123565b9050600086600001828154811061240557634e487b7160e01b600052603260045260246000fd5b906000526020600020015490508087600001848154811061243657634e487b7160e01b600052603260045260246000fd5b60009182526020909120015561244d83600161310b565b6000828152600189016020526040902055865487908061247d57634e487b7160e01b600052603160045260246000fd5b60019003818190600052602060002001600090559055866001016000878152602001908152602001600020600090556001945050505050610518565b6000915050610518565b8154600090821061253c5760405162461bcd60e51b815260206004820152602260248201527f456e756d657261626c655365743a20696e646578206f7574206f6620626f756e60448201527f647300000000000000000000000000000000000000000000000000000000000060648201526084016104ea565b82600001828154811061255f57634e487b7160e01b600052603260045260246000fd5b9060005260206000200154905092915050565b600054610100900460ff168061258b575060005460ff16155b6125ee5760405162461bcd60e51b815260206004820152602e60248201527f496e697469616c697a61626c653a20636f6e747261637420697320616c72656160448201526d191e481a5b9a5d1a585b1a5e995960921b60648201526084016104ea565b600054610100900460ff16158015612610576000805461ffff19166101011790555b80156105b7576000805461ff001916905550565b600054610100900460ff168061263d575060005460ff16155b6126a05760405162461bcd60e51b815260206004820152602e60248201527f496e697469616c697a61626c653a20636f6e747261637420697320616c72656160448201526d191e481a5b9a5d1a585b1a5e995960921b60648201526084016104ea565b600054610100900460ff161580156126c2576000805461ffff19166101011790555b6112c38261134b565b600054610100900460ff16806126e4575060005460ff16155b6127475760405162461bcd60e51b815260206004820152602e60248201527f496e697469616c697a61626c653a20636f6e747261637420697320616c72656160448201526d191e481a5b9a5d1a585b1a5e995960921b60648201526084016104ea565b600054610100900460ff16158015612769576000805461ffff19166101011790555b61012d805460ff1916905580156105b7576000805461ff001916905550565b600054610100900460ff16806127a1575060005460ff16155b6128045760405162461bcd60e51b815260206004820152602e60248201527f496e697469616c697a61626c653a20636f6e747261637420697320616c72656160448201526d191e481a5b9a5d1a585b1a5e995960921b60648201526084016104ea565b600054610100900460ff16158015612826576000805461ffff19166101011790555b6128326000335b6128ed565b61285c7f9f2df0fed2c77648de5860a4cc508cd0818c85b8b8a1ab4ceeef8d981c8956a63361282d565b6112c37f65d7a28e3265b37a6474929f336521b332c1681b933f6cb9f3376673440d862a3361282d565b60006001600160e01b031982167f7965db0b00000000000000000000000000000000000000000000000000000000148061052957507f01ffc9a7000000000000000000000000000000000000000000000000000000006001600160e01b0319831614610529565b610a7d82826117a9565b8280546129039061313a565b90600052602060002090601f016020900481019282612925576000855561296b565b82601f1061293e57805160ff191683800117855561296b565b8280016001018555821561296b579182015b8281111561296b578251825591602001919060010190612950565b5061297792915061297b565b5090565b5b80821115612977576000815560010161297c565b600067ffffffffffffffff8311156129aa576129aa6131d3565b6040516129c1601f8501601f191660200182613175565b8091508381528484840111156129d657600080fd5b83836020830137600060208583010152509392505050565b80356001600160a01b038116811461052c57600080fd5b600082601f830112612a15578081fd5b81356020612a22826130e7565b604051612a2f8282613175565b8381528281019150858301600585901b87018401881015612a4e578586fd5b855b85811015612a6c57813584529284019290840190600101612a50565b5090979650505050505050565b600082601f830112612a89578081fd5b610e3083833560208501612990565b60008060408385031215612aaa578182fd5b612ab3836129ee565b9150612ac1602084016129ee565b90509250929050565b600080600080600060a08688031215612ae1578081fd5b612aea866129ee565b9450612af8602087016129ee565b9350604086013567ffffffffffffffff80821115612b14578283fd5b612b2089838a01612a05565b94506060880135915080821115612b35578283fd5b612b4189838a01612a05565b93506080880135915080821115612b56578283fd5b50612b6388828901612a79565b9150509295509295909350565b600080600080600060a08688031215612b87578081fd5b612b90866129ee565b9450612b9e602087016129ee565b93506040860135925060608601359150608086013567ffffffffffffffff811115612bc7578182fd5b612b6388828901612a79565b600080600060608486031215612be7578283fd5b612bf0846129ee565b9250602084013567ffffffffffffffff80821115612c0c578384fd5b612c1887838801612a05565b93506040860135915080821115612c2d578283fd5b50612c3a86828701612a05565b9150509250925092565b60008060008060808587031215612c59578384fd5b612c62856129ee565b9350602085013567ffffffffffffffff80821115612c7e578485fd5b612c8a88838901612a05565b94506040870135915080821115612c9f578384fd5b612cab88838901612a05565b93506060870135915080821115612cc0578283fd5b50612ccd87828801612a79565b91505092959194509250565b60008060408385031215612ceb578182fd5b612cf4836129ee565b915060208301358015158114612d08578182fd5b809150509250929050565b60008060408385031215612d25578182fd5b612d2e836129ee565b946020939093013593505050565b600080600060608486031215612d50578081fd5b612d59846129ee565b95602085013595506040909401359392505050565b60008060008060808587031215612d83578182fd5b612d8c856129ee565b93506020850135925060408501359150606085013567ffffffffffffffff811115612db5578182fd5b612ccd87828801612a79565b60008060408385031215612dd3578182fd5b823567ffffffffffffffff80821115612dea578384fd5b818501915085601f830112612dfd578384fd5b81356020612e0a826130e7565b604051612e178282613175565b8381528281019150858301600585901b870184018b1015612e36578889fd5b8896505b84871015612e5f57612e4b816129ee565b835260019690960195918301918301612e3a565b5096505086013592505080821115612e75578283fd5b50612e8285828601612a05565b9150509250929050565b600060208284031215612e9d578081fd5b5035919050565b60008060408385031215612eb6578182fd5b82359150612ac1602084016129ee565b60008060408385031215612ed8578182fd5b50508035926020909101359150565b600060208284031215612ef8578081fd5b8135610e3081613292565b600060208284031215612f14578081fd5b8151610e3081613292565b600060208284031215612f30578081fd5b813567ffffffffffffffff811115612f46578182fd5b8201601f81018413612f56578182fd5b612f6584823560208401612990565b949350505050565b6000815180845260208085019450808401835b83811015612f9c57815187529582019590820190600101612f80565b509495945050505050565b60008151808452815b81811015612fcc57602081850181015186830182015201612fb0565b81811115612fdd5782602083870101525b50601f01601f19169290920160200192915050565b60006001600160a01b03808816835280871660208401525060a0604083015261301e60a0830186612f6d565b82810360608401526130308186612f6d565b905082810360808401526130448185612fa7565b98975050505050505050565b60006001600160a01b03808816835280871660208401525084604083015283606083015260a0608083015261308860a0830184612fa7565b979650505050505050565b600060208252610e306020830184612f6d565b6000604082526130b96040830185612f6d565b82810360208401526130cb8185612f6d565b95945050505050565b600060208252610e306020830184612fa7565b600067ffffffffffffffff821115613101576131016131d3565b5060051b60200190565b6000821982111561311e5761311e6131bd565b500190565b600082821015613135576131356131bd565b500390565b600181811c9082168061314e57607f821691505b6020821081141561316f57634e487b7160e01b600052602260045260246000fd5b50919050565b601f8201601f1916810167ffffffffffffffff8111828210171561319b5761319b6131d3565b6040525050565b60006000198214156131b6576131b66131bd565b5060010190565b634e487b7160e01b600052601160045260246000fd5b634e487b7160e01b600052604160045260246000fd5b600060033d1115610ce057600481823e5160e01c90565b600060443d101561321057610ce0565b6040516003193d81016004833e81513d67ffffffffffffffff8160248401118184111715613242575050505050610ce0565b828501915081518181111561325c57505050505050610ce0565b843d870101602082850101111561327857505050505050610ce0565b61328760208286010187613175565b509094505050505090565b6001600160e01b0319811681146105b757600080fdfea264697066735822122067f821f757e3aa2ed894c03596e55aa86161de64cdd285342c821bd9cfd775e264736f6c63430008030033",
  "immutableReferences": {},
  "source": "// SPDX-License-Identifier: MIT\n\npragma solidity ^0.8.0;\n\nimport \"@openzeppelin/contracts-upgradeable/token/ERC1155/ERC1155Upgradeable.sol\";\nimport \"@openzeppelin/contracts-upgradeable/token/ERC1155/extensions/ERC1155BurnableUpgradeable.sol\";\nimport \"@openzeppelin/contracts-upgradeable/token/ERC1155/extensions/ERC1155PausableUpgradeable.sol\";\nimport \"@openzeppelin/contracts-upgradeable/access/AccessControlEnumerableUpgradeable.sol\";\nimport \"@openzeppelin/contracts-upgradeable/utils/ContextUpgradeable.sol\";\nimport \"@openzeppelin/contracts-upgradeable/proxy/utils/Initializable.sol\";\n\n/**\n * @dev {ERC1155} token, including:\n *\n *  - ability for holders to burn (destroy) their tokens\n *  - a minter role that allows for token minting (creation)\n *  - a pauser role that allows to stop all token transfers\n *\n * This contract uses {AccessControl} to lock permissioned functions using the\n * different roles - head to its documentation for details.\n *\n * The account that deploys the contract will be granted the minter and pauser\n * roles, as well as the default admin role, which will let it grant both minter\n * and pauser roles to other accounts.\n */\ncontract ERC1155PresetMinterPauserUpgradeable is\n\tInitializable,\n\tContextUpgradeable,\n\tAccessControlEnumerableUpgradeable,\n\tERC1155BurnableUpgradeable,\n\tERC1155PausableUpgradeable\n{\n\tfunction initialize(string memory uri) public virtual initializer {\n\t\t__ERC1155PresetMinterPauser_init(uri);\n\t}\n\n\tbytes32 public constant MINTER_ROLE = keccak256(\"MINTER_ROLE\");\n\tbytes32 public constant PAUSER_ROLE = keccak256(\"PAUSER_ROLE\");\n\n\t/**\n\t * @dev Grants `DEFAULT_ADMIN_ROLE`, `MINTER_ROLE`, and `PAUSER_ROLE` to the account that\n\t * deploys the contract.\n\t */\n\tfunction __ERC1155PresetMinterPauser_init(string memory uri) internal initializer {\n\t\t__Context_init_unchained();\n\t\t__ERC165_init_unchained();\n\t\t__AccessControl_init_unchained();\n\t\t__AccessControlEnumerable_init_unchained();\n\t\t__ERC1155_init_unchained(uri);\n\t\t__ERC1155Burnable_init_unchained();\n\t\t__Pausable_init_unchained();\n\t\t__ERC1155Pausable_init_unchained();\n\t\t__ERC1155PresetMinterPauser_init_unchained(uri);\n\t}\n\n\tfunction __ERC1155PresetMinterPauser_init_unchained(string memory uri) internal initializer {\n\t\t_setupRole(DEFAULT_ADMIN_ROLE, _msgSender());\n\n\t\t_setupRole(MINTER_ROLE, _msgSender());\n\t\t_setupRole(PAUSER_ROLE, _msgSender());\n\t}\n\n\tfunction setURI(string memory uri_) external {\n        require(hasRole(DEFAULT_ADMIN_ROLE, _msgSender()), \"ERC1155PresetMinterPauser: must have admin role to set new uri\");\n\t\t_setURI(uri_);\n\t}\n\n\t/**\n\t * @dev Creates `amount` new tokens for `to`, of token type `id`.\n\t *\n\t * See {ERC1155-_mint}.\n\t *\n\t * Requirements:\n\t *\n\t * - the caller must have the `MINTER_ROLE`.\n\t */\n\tfunction mint(\n\t\taddress to,\n\t\tuint256 id,\n\t\tuint256 amount,\n\t\tbytes memory data\n\t) public virtual {\n\t\t_mint(to, id, amount, data);\n\t}\n\n\t/**\n\t * @dev xref:ROOT:erc1155.adoc#batch-operations[Batched] variant of {mint}.\n\t */\n\tfunction mintBatch(\n\t\taddress to,\n\t\tuint256[] memory ids,\n\t\tuint256[] memory amounts,\n\t\tbytes memory data\n\t) public virtual {\n\t\trequire(hasRole(MINTER_ROLE, _msgSender()), \"ERC1155PresetMinterPauser: must have minter role to mint\");\n\n\t\t_mintBatch(to, ids, amounts, data);\n\t}\n\n\t/**\n\t * @dev Pauses all token transfers.\n\t *\n\t * See {ERC1155Pausable} and {Pausable-_pause}.\n\t *\n\t * Requirements:\n\t *\n\t * - the caller must have the `PAUSER_ROLE`.\n\t */\n\tfunction pause() public virtual {\n\t\trequire(hasRole(PAUSER_ROLE, _msgSender()), \"ERC1155PresetMinterPauser: must have pauser role to pause\");\n\t\t_pause();\n\t}\n\n\t/**\n\t * @dev Unpauses all token transfers.\n\t *\n\t * See {ERC1155Pausable} and {Pausable-_unpause}.\n\t *\n\t * Requirements:\n\t *\n\t * - the caller must have the `PAUSER_ROLE`.\n\t */\n\tfunction unpause() public virtual {\n\t\trequire(hasRole(PAUSER_ROLE, _msgSender()), \"ERC1155PresetMinterPauser: must have pauser role to unpause\");\n\t\t_unpause();\n\t}\n\n\t/**\n\t * @dev See {IERC165-supportsInterface}.\n\t */\n\tfunction supportsInterface(bytes4 interfaceId) public view virtual override(AccessControlEnumerableUpgradeable, ERC1155Upgradeable) returns (bool) {\n\t\treturn super.supportsInterface(interfaceId);\n\t}\n\n\tfunction _beforeTokenTransfer(\n\t\taddress operator,\n\t\taddress from,\n\t\taddress to,\n\t\tuint256[] memory ids,\n\t\tuint256[] memory amounts,\n\t\tbytes memory data\n\t) internal virtual override(ERC1155Upgradeable, ERC1155PausableUpgradeable) {\n\t\tsuper._beforeTokenTransfer(operator, from, to, ids, amounts, data);\n\t}\n\n\tuint256[50] private __gap;\n}\n",
  "sourcePath": "/Users/selimerunkut/dev_freelance/GhostMarketContractBSC/contracts/ERC1155PresetMinterPauserUpgradeableCustom.sol",
  "compiler": {
    "name": "solc",
    "version": "0.8.3+commit.8d00100c.Emscripten.clang"
  },
  "schemaVersion": "3.4.1",
  "updatedAt": "2021-05-16T09:56:26.522Z",
  "devdoc": {
    "details": "{ERC1155} token, including:  - ability for holders to burn (destroy) their tokens  - a minter role that allows for token minting (creation)  - a pauser role that allows to stop all token transfers This contract uses {AccessControl} to lock permissioned functions using the different roles - head to its documentation for details. The account that deploys the contract will be granted the minter and pauser roles, as well as the default admin role, which will let it grant both minter and pauser roles to other accounts.",
    "kind": "dev",
    "methods": {
      "balanceOf(address,uint256)": {
        "details": "See {IERC1155-balanceOf}. Requirements: - `account` cannot be the zero address."
      },
      "balanceOfBatch(address[],uint256[])": {
        "details": "See {IERC1155-balanceOfBatch}. Requirements: - `accounts` and `ids` must have the same length."
      },
      "getRoleAdmin(bytes32)": {
        "details": "Returns the admin role that controls `role`. See {grantRole} and {revokeRole}. To change a role's admin, use {_setRoleAdmin}."
      },
      "getRoleMember(bytes32,uint256)": {
        "details": "Returns one of the accounts that have `role`. `index` must be a value between 0 and {getRoleMemberCount}, non-inclusive. Role bearers are not sorted in any particular way, and their ordering may change at any point. WARNING: When using {getRoleMember} and {getRoleMemberCount}, make sure you perform all queries on the same block. See the following https://forum.openzeppelin.com/t/iterating-over-elements-on-enumerableset-in-openzeppelin-contracts/2296[forum post] for more information."
      },
      "getRoleMemberCount(bytes32)": {
        "details": "Returns the number of accounts that have `role`. Can be used together with {getRoleMember} to enumerate all bearers of a role."
      },
      "grantRole(bytes32,address)": {
        "details": "Overload {grantRole} to track enumerable memberships"
      },
      "hasRole(bytes32,address)": {
        "details": "Returns `true` if `account` has been granted `role`."
      },
      "isApprovedForAll(address,address)": {
        "details": "See {IERC1155-isApprovedForAll}."
      },
      "mint(address,uint256,uint256,bytes)": {
        "details": "Creates `amount` new tokens for `to`, of token type `id`. See {ERC1155-_mint}. Requirements: - the caller must have the `MINTER_ROLE`."
      },
      "mintBatch(address,uint256[],uint256[],bytes)": {
        "details": "xref:ROOT:erc1155.adoc#batch-operations[Batched] variant of {mint}."
      },
      "pause()": {
        "details": "Pauses all token transfers. See {ERC1155Pausable} and {Pausable-_pause}. Requirements: - the caller must have the `PAUSER_ROLE`."
      },
      "paused()": {
        "details": "Returns true if the contract is paused, and false otherwise."
      },
      "renounceRole(bytes32,address)": {
        "details": "Overload {renounceRole} to track enumerable memberships"
      },
      "revokeRole(bytes32,address)": {
        "details": "Overload {revokeRole} to track enumerable memberships"
      },
      "safeBatchTransferFrom(address,address,uint256[],uint256[],bytes)": {
        "details": "See {IERC1155-safeBatchTransferFrom}."
      },
      "safeTransferFrom(address,address,uint256,uint256,bytes)": {
        "details": "See {IERC1155-safeTransferFrom}."
      },
      "setApprovalForAll(address,bool)": {
        "details": "See {IERC1155-setApprovalForAll}."
      },
      "supportsInterface(bytes4)": {
        "details": "See {IERC165-supportsInterface}."
      },
      "unpause()": {
        "details": "Unpauses all token transfers. See {ERC1155Pausable} and {Pausable-_unpause}. Requirements: - the caller must have the `PAUSER_ROLE`."
      },
      "uri(uint256)": {
        "details": "See {IERC1155MetadataURI-uri}. This implementation returns the same URI for *all* token types. It relies on the token type ID substitution mechanism https://eips.ethereum.org/EIPS/eip-1155#metadata[defined in the EIP]. Clients calling this function must replace the `\\{id\\}` substring with the actual token type ID."
      }
    },
    "version": 1
  },
  "userdoc": {
    "kind": "user",
    "methods": {},
    "version": 1
  }
}