{
  "contractName": "ERC1155PresetMinterPauserUpgradeableCustom",
  "abi": [
    {
      "anonymous": false,
      "inputs": [
        {
          "indexed": true,
          "internalType": "address",
          "name": "account",
          "type": "address"
        },
        {
          "indexed": true,
          "internalType": "address",
          "name": "operator",
          "type": "address"
        },
        {
          "indexed": false,
          "internalType": "bool",
          "name": "approved",
          "type": "bool"
        }
      ],
      "name": "ApprovalForAll",
      "type": "event"
    },
    {
      "anonymous": false,
      "inputs": [
        {
          "indexed": false,
          "internalType": "address",
          "name": "account",
          "type": "address"
        }
      ],
      "name": "Paused",
      "type": "event"
    },
    {
      "anonymous": false,
      "inputs": [
        {
          "indexed": true,
          "internalType": "bytes32",
          "name": "role",
          "type": "bytes32"
        },
        {
          "indexed": true,
          "internalType": "bytes32",
          "name": "previousAdminRole",
          "type": "bytes32"
        },
        {
          "indexed": true,
          "internalType": "bytes32",
          "name": "newAdminRole",
          "type": "bytes32"
        }
      ],
      "name": "RoleAdminChanged",
      "type": "event"
    },
    {
      "anonymous": false,
      "inputs": [
        {
          "indexed": true,
          "internalType": "bytes32",
          "name": "role",
          "type": "bytes32"
        },
        {
          "indexed": true,
          "internalType": "address",
          "name": "account",
          "type": "address"
        },
        {
          "indexed": true,
          "internalType": "address",
          "name": "sender",
          "type": "address"
        }
      ],
      "name": "RoleGranted",
      "type": "event"
    },
    {
      "anonymous": false,
      "inputs": [
        {
          "indexed": true,
          "internalType": "bytes32",
          "name": "role",
          "type": "bytes32"
        },
        {
          "indexed": true,
          "internalType": "address",
          "name": "account",
          "type": "address"
        },
        {
          "indexed": true,
          "internalType": "address",
          "name": "sender",
          "type": "address"
        }
      ],
      "name": "RoleRevoked",
      "type": "event"
    },
    {
      "anonymous": false,
      "inputs": [
        {
          "indexed": true,
          "internalType": "address",
          "name": "operator",
          "type": "address"
        },
        {
          "indexed": true,
          "internalType": "address",
          "name": "from",
          "type": "address"
        },
        {
          "indexed": true,
          "internalType": "address",
          "name": "to",
          "type": "address"
        },
        {
          "indexed": false,
          "internalType": "uint256[]",
          "name": "ids",
          "type": "uint256[]"
        },
        {
          "indexed": false,
          "internalType": "uint256[]",
          "name": "values",
          "type": "uint256[]"
        }
      ],
      "name": "TransferBatch",
      "type": "event"
    },
    {
      "anonymous": false,
      "inputs": [
        {
          "indexed": true,
          "internalType": "address",
          "name": "operator",
          "type": "address"
        },
        {
          "indexed": true,
          "internalType": "address",
          "name": "from",
          "type": "address"
        },
        {
          "indexed": true,
          "internalType": "address",
          "name": "to",
          "type": "address"
        },
        {
          "indexed": false,
          "internalType": "uint256",
          "name": "id",
          "type": "uint256"
        },
        {
          "indexed": false,
          "internalType": "uint256",
          "name": "value",
          "type": "uint256"
        }
      ],
      "name": "TransferSingle",
      "type": "event"
    },
    {
      "anonymous": false,
      "inputs": [
        {
          "indexed": false,
          "internalType": "string",
          "name": "value",
          "type": "string"
        },
        {
          "indexed": true,
          "internalType": "uint256",
          "name": "id",
          "type": "uint256"
        }
      ],
      "name": "URI",
      "type": "event"
    },
    {
      "anonymous": false,
      "inputs": [
        {
          "indexed": false,
          "internalType": "address",
          "name": "account",
          "type": "address"
        }
      ],
      "name": "Unpaused",
      "type": "event"
    },
    {
      "inputs": [],
      "name": "DEFAULT_ADMIN_ROLE",
      "outputs": [
        {
          "internalType": "bytes32",
          "name": "",
          "type": "bytes32"
        }
      ],
      "stateMutability": "view",
      "type": "function"
    },
    {
      "inputs": [],
      "name": "MINTER_ROLE",
      "outputs": [
        {
          "internalType": "bytes32",
          "name": "",
          "type": "bytes32"
        }
      ],
      "stateMutability": "view",
      "type": "function"
    },
    {
      "inputs": [],
      "name": "PAUSER_ROLE",
      "outputs": [
        {
          "internalType": "bytes32",
          "name": "",
          "type": "bytes32"
        }
      ],
      "stateMutability": "view",
      "type": "function"
    },
    {
      "inputs": [],
      "name": "POLYNETWORK_ROLE",
      "outputs": [
        {
          "internalType": "bytes32",
          "name": "",
          "type": "bytes32"
        }
      ],
      "stateMutability": "view",
      "type": "function"
    },
    {
      "inputs": [
        {
          "internalType": "address",
          "name": "account",
          "type": "address"
        },
        {
          "internalType": "uint256",
          "name": "id",
          "type": "uint256"
        }
      ],
      "name": "balanceOf",
      "outputs": [
        {
          "internalType": "uint256",
          "name": "",
          "type": "uint256"
        }
      ],
      "stateMutability": "view",
      "type": "function"
    },
    {
      "inputs": [
        {
          "internalType": "address[]",
          "name": "accounts",
          "type": "address[]"
        },
        {
          "internalType": "uint256[]",
          "name": "ids",
          "type": "uint256[]"
        }
      ],
      "name": "balanceOfBatch",
      "outputs": [
        {
          "internalType": "uint256[]",
          "name": "",
          "type": "uint256[]"
        }
      ],
      "stateMutability": "view",
      "type": "function"
    },
    {
      "inputs": [
        {
          "internalType": "address",
          "name": "account",
          "type": "address"
        },
        {
          "internalType": "uint256",
          "name": "id",
          "type": "uint256"
        },
        {
          "internalType": "uint256",
          "name": "value",
          "type": "uint256"
        }
      ],
      "name": "burn",
      "outputs": [],
      "stateMutability": "nonpayable",
      "type": "function"
    },
    {
      "inputs": [
        {
          "internalType": "address",
          "name": "account",
          "type": "address"
        },
        {
          "internalType": "uint256[]",
          "name": "ids",
          "type": "uint256[]"
        },
        {
          "internalType": "uint256[]",
          "name": "values",
          "type": "uint256[]"
        }
      ],
      "name": "burnBatch",
      "outputs": [],
      "stateMutability": "nonpayable",
      "type": "function"
    },
    {
      "inputs": [
        {
          "internalType": "bytes32",
          "name": "role",
          "type": "bytes32"
        }
      ],
      "name": "getRoleAdmin",
      "outputs": [
        {
          "internalType": "bytes32",
          "name": "",
          "type": "bytes32"
        }
      ],
      "stateMutability": "view",
      "type": "function"
    },
    {
      "inputs": [
        {
          "internalType": "bytes32",
          "name": "role",
          "type": "bytes32"
        },
        {
          "internalType": "uint256",
          "name": "index",
          "type": "uint256"
        }
      ],
      "name": "getRoleMember",
      "outputs": [
        {
          "internalType": "address",
          "name": "",
          "type": "address"
        }
      ],
      "stateMutability": "view",
      "type": "function"
    },
    {
      "inputs": [
        {
          "internalType": "bytes32",
          "name": "role",
          "type": "bytes32"
        }
      ],
      "name": "getRoleMemberCount",
      "outputs": [
        {
          "internalType": "uint256",
          "name": "",
          "type": "uint256"
        }
      ],
      "stateMutability": "view",
      "type": "function"
    },
    {
      "inputs": [
        {
          "internalType": "bytes32",
          "name": "role",
          "type": "bytes32"
        },
        {
          "internalType": "address",
          "name": "account",
          "type": "address"
        }
      ],
      "name": "grantRole",
      "outputs": [],
      "stateMutability": "nonpayable",
      "type": "function"
    },
    {
      "inputs": [
        {
          "internalType": "bytes32",
          "name": "role",
          "type": "bytes32"
        },
        {
          "internalType": "address",
          "name": "account",
          "type": "address"
        }
      ],
      "name": "hasRole",
      "outputs": [
        {
          "internalType": "bool",
          "name": "",
          "type": "bool"
        }
      ],
      "stateMutability": "view",
      "type": "function"
    },
    {
      "inputs": [
        {
          "internalType": "address",
          "name": "account",
          "type": "address"
        },
        {
          "internalType": "address",
          "name": "operator",
          "type": "address"
        }
      ],
      "name": "isApprovedForAll",
      "outputs": [
        {
          "internalType": "bool",
          "name": "",
          "type": "bool"
        }
      ],
      "stateMutability": "view",
      "type": "function"
    },
    {
      "inputs": [],
      "name": "paused",
      "outputs": [
        {
          "internalType": "bool",
          "name": "",
          "type": "bool"
        }
      ],
      "stateMutability": "view",
      "type": "function"
    },
    {
      "inputs": [
        {
          "internalType": "bytes32",
          "name": "role",
          "type": "bytes32"
        },
        {
          "internalType": "address",
          "name": "account",
          "type": "address"
        }
      ],
      "name": "renounceRole",
      "outputs": [],
      "stateMutability": "nonpayable",
      "type": "function"
    },
    {
      "inputs": [
        {
          "internalType": "bytes32",
          "name": "role",
          "type": "bytes32"
        },
        {
          "internalType": "address",
          "name": "account",
          "type": "address"
        }
      ],
      "name": "revokeRole",
      "outputs": [],
      "stateMutability": "nonpayable",
      "type": "function"
    },
    {
      "inputs": [
        {
          "internalType": "address",
          "name": "from",
          "type": "address"
        },
        {
          "internalType": "address",
          "name": "to",
          "type": "address"
        },
        {
          "internalType": "uint256[]",
          "name": "ids",
          "type": "uint256[]"
        },
        {
          "internalType": "uint256[]",
          "name": "amounts",
          "type": "uint256[]"
        },
        {
          "internalType": "bytes",
          "name": "data",
          "type": "bytes"
        }
      ],
      "name": "safeBatchTransferFrom",
      "outputs": [],
      "stateMutability": "nonpayable",
      "type": "function"
    },
    {
      "inputs": [
        {
          "internalType": "address",
          "name": "from",
          "type": "address"
        },
        {
          "internalType": "address",
          "name": "to",
          "type": "address"
        },
        {
          "internalType": "uint256",
          "name": "id",
          "type": "uint256"
        },
        {
          "internalType": "uint256",
          "name": "amount",
          "type": "uint256"
        },
        {
          "internalType": "bytes",
          "name": "data",
          "type": "bytes"
        }
      ],
      "name": "safeTransferFrom",
      "outputs": [],
      "stateMutability": "nonpayable",
      "type": "function"
    },
    {
      "inputs": [
        {
          "internalType": "address",
          "name": "operator",
          "type": "address"
        },
        {
          "internalType": "bool",
          "name": "approved",
          "type": "bool"
        }
      ],
      "name": "setApprovalForAll",
      "outputs": [],
      "stateMutability": "nonpayable",
      "type": "function"
    },
    {
      "inputs": [
        {
          "internalType": "uint256",
          "name": "",
          "type": "uint256"
        }
      ],
      "name": "uri",
      "outputs": [
        {
          "internalType": "string",
          "name": "",
          "type": "string"
        }
      ],
      "stateMutability": "view",
      "type": "function"
    },
    {
      "inputs": [
        {
          "internalType": "address",
          "name": "to",
          "type": "address"
        },
        {
          "internalType": "uint256",
          "name": "tokenId",
          "type": "uint256"
        },
        {
          "internalType": "string",
          "name": "uri",
          "type": "string"
        },
        {
          "internalType": "uint256",
          "name": "amount",
          "type": "uint256"
        }
      ],
      "name": "mintWithURI",
      "outputs": [],
      "stateMutability": "nonpayable",
      "type": "function"
    },
    {
      "inputs": [
        {
          "internalType": "string",
          "name": "uri_",
          "type": "string"
        }
      ],
      "name": "setURI",
      "outputs": [],
      "stateMutability": "nonpayable",
      "type": "function"
    },
    {
      "inputs": [],
      "name": "pause",
      "outputs": [],
      "stateMutability": "nonpayable",
      "type": "function"
    },
    {
      "inputs": [],
      "name": "unpause",
      "outputs": [],
      "stateMutability": "nonpayable",
      "type": "function"
    },
    {
      "inputs": [
        {
          "internalType": "bytes4",
          "name": "interfaceId",
          "type": "bytes4"
        }
      ],
      "name": "supportsInterface",
      "outputs": [
        {
          "internalType": "bool",
          "name": "",
          "type": "bool"
        }
      ],
      "stateMutability": "view",
      "type": "function"
    }
  ],
  "bytecode": "0x608060405234801561001057600080fd5b50612e51806100206000396000f3fe608060405234801561001057600080fd5b50600436106101ad5760003560e01c80638456cb59116100ee578063ca15c87311610097578063e63ab1e911610071578063e63ab1e9146103e1578063e985e9c514610408578063f242432a14610444578063f5298aca1461045757600080fd5b8063ca15c87314610394578063d5391393146103a7578063d547741f146103ce57600080fd5b80639ceea665116100c85780639ceea66514610352578063a217fddf14610379578063a22cb4651461038157600080fd5b80638456cb59146102e65780639010d07c146102ee57806391d148541461031957600080fd5b80632f2ff15d1161015b5780633f4ba83a116101355780633f4ba83a1461029f5780634e1273f4146102a75780635c975abb146102c75780636b20c454146102d357600080fd5b80632f2ff15d1461026657806336568abe1461027957806336edac961461028c57600080fd5b80630e89341c1161018c5780630e89341c14610210578063248a9ca3146102305780632eb2c2d61461025357600080fd5b8062fdd58e146101b257806301ffc9a7146101d857806302fe5305146101fb575b600080fd5b6101c56101c03660046127d2565b61046a565b6040519081526020015b60405180910390f35b6101eb6101e63660046129b0565b610518565b60405190151581526020016101cf565b61020e6102093660046129e8565b610523565b005b61022361021e366004612955565b6105ac565b6040516101cf9190612bec565b6101c561023e366004612955565b60009081526065602052604090206001015490565b61020e61026136600461261e565b610640565b61020e61027436600461296d565b6109b7565b61020e61028736600461296d565b6109de565b61020e61029a3660046127fb565b610a00565b61020e610ac6565b6102ba6102b536600461288a565b610b6c565b6040516101cf9190612bab565b61012d5460ff166101eb565b61020e6102e1366004612727565b610ce2565b61020e610d67565b6103016102fc36600461298f565b610e0b565b6040516001600160a01b0390911681526020016101cf565b6101eb61032736600461296d565b60009182526065602090815260408084206001600160a01b0393909316845291905290205460ff1690565b6101c57f8a9d57248f1015d5cac20111fe2512477434cf493627e5e959ca751e593d807981565b6101c5600081565b61020e61038f366004612798565b610e2a565b6101c56103a2366004612955565b610f15565b6101c57f9f2df0fed2c77648de5860a4cc508cd0818c85b8b8a1ab4ceeef8d981c8956a681565b61020e6103dc36600461296d565b610f2c565b6101c57f65d7a28e3265b37a6474929f336521b332c1681b933f6cb9f3376673440d862a81565b6101eb6104163660046125ec565b6001600160a01b03918216600090815260ca6020908152604080832093909416825291909152205460ff1690565b61020e6104523660046126c4565b610f36565b61020e610465366004612858565b61117d565b60006001600160a01b0383166104ed5760405162461bcd60e51b815260206004820152602b60248201527f455243313135353a2062616c616e636520717565727920666f7220746865207a60448201527f65726f206164647265737300000000000000000000000000000000000000000060648201526084015b60405180910390fd5b50600081815260c9602090815260408083206001600160a01b03861684529091529020545b92915050565b600061051282611202565b61052e600033610327565b6105a05760405162461bcd60e51b815260206004820152603e60248201527f455243313135355072657365744d696e7465725061757365723a206d7573742060448201527f686176652061646d696e20726f6c6520746f20736574206e657720757269000060648201526084016104e4565b6105a981611274565b50565b606060cb80546105bb90612cb4565b80601f01602080910402602001604051908101604052809291908181526020018280546105e790612cb4565b80156106345780601f1061060957610100808354040283529160200191610634565b820191906000526020600020905b81548152906001019060200180831161061757829003601f168201915b50505050509050919050565b81518351146106a25760405162461bcd60e51b815260206004820152602860248201527f455243313135353a2069647320616e6420616d6f756e7473206c656e677468206044820152670dad2e6dac2e8c6d60c31b60648201526084016104e4565b6001600160a01b0384166107065760405162461bcd60e51b815260206004820152602560248201527f455243313135353a207472616e7366657220746f20746865207a65726f206164604482015264647265737360d81b60648201526084016104e4565b6001600160a01b03851633148061072257506107228533610416565b6107945760405162461bcd60e51b815260206004820152603260248201527f455243313135353a207472616e736665722063616c6c6572206973206e6f742060448201527f6f776e6572206e6f7220617070726f766564000000000000000000000000000060648201526084016104e4565b336107a381878787878761128b565b60005b84518110156109495760008582815181106107d157634e487b7160e01b600052603260045260246000fd5b6020026020010151905060008583815181106107fd57634e487b7160e01b600052603260045260246000fd5b602090810291909101810151600084815260c9835260408082206001600160a01b038e1683529093529190912054909150818110156108a45760405162461bcd60e51b815260206004820152602a60248201527f455243313135353a20696e73756666696369656e742062616c616e636520666f60448201527f72207472616e736665720000000000000000000000000000000000000000000060648201526084016104e4565b6108ae8282612c5a565b60c9600085815260200190815260200160002060008c6001600160a01b03166001600160a01b03168152602001908152602001600020819055508160c9600085815260200190815260200160002060008b6001600160a01b03166001600160a01b03168152602001908152602001600020600082825461092e9190612c23565b925050819055505050508061094290612d1c565b90506107a6565b50846001600160a01b0316866001600160a01b0316826001600160a01b03167f4a39dc06d4c0dbc64b70af90fd698a233a518aa5d07e595d983b8c0526c8f7fb8787604051610999929190612bbe565b60405180910390a46109af818787878787611299565b505050505050565b6109c1828261144e565b60008281526097602052604090206109d99082611474565b505050565b6109e88282611489565b60008281526097602052604090206109d99082611511565b610a2a7f8a9d57248f1015d5cac20111fe2512477434cf493627e5e959ca751e593d807933610327565b610a9c5760405162461bcd60e51b815260206004820152603460248201527f6d696e74576974685552493a206d757374206861766520504f4c594e4554574f60448201527f524b5f524f4c4520726f6c6520746f206d696e7400000000000000000000000060648201526084016104e4565b610ab784848360405180602001604052806000815250611526565b610ac082611274565b50505050565b610af07f65d7a28e3265b37a6474929f336521b332c1681b933f6cb9f3376673440d862a33610327565b610b625760405162461bcd60e51b815260206004820152603b60248201527f455243313135355072657365744d696e7465725061757365723a206d7573742060448201527f686176652070617573657220726f6c6520746f20756e7061757365000000000060648201526084016104e4565b610b6a61164c565b565b60608151835114610be55760405162461bcd60e51b815260206004820152602960248201527f455243313135353a206163636f756e747320616e6420696473206c656e67746860448201527f206d69736d61746368000000000000000000000000000000000000000000000060648201526084016104e4565b6000835167ffffffffffffffff811115610c0f57634e487b7160e01b600052604160045260246000fd5b604051908082528060200260200182016040528015610c38578160200160208202803683370190505b50905060005b8451811015610cda57610c9f858281518110610c6a57634e487b7160e01b600052603260045260246000fd5b6020026020010151858381518110610c9257634e487b7160e01b600052603260045260246000fd5b602002602001015161046a565b828281518110610cbf57634e487b7160e01b600052603260045260246000fd5b6020908102919091010152610cd381612d1c565b9050610c3e565b509392505050565b6001600160a01b038316331480610cfe5750610cfe8333610416565b610d5c5760405162461bcd60e51b815260206004820152602960248201527f455243313135353a2063616c6c6572206973206e6f74206f776e6572206e6f7260448201526808185c1c1c9bdd995960ba1b60648201526084016104e4565b6109d98383836116ea565b610d917f65d7a28e3265b37a6474929f336521b332c1681b933f6cb9f3376673440d862a33610327565b610e035760405162461bcd60e51b815260206004820152603960248201527f455243313135355072657365744d696e7465725061757365723a206d7573742060448201527f686176652070617573657220726f6c6520746f2070617573650000000000000060648201526084016104e4565b610b6a61195d565b6000828152609760205260408120610e2390836119e7565b9392505050565b336001600160a01b0383161415610ea95760405162461bcd60e51b815260206004820152602960248201527f455243313135353a2073657474696e6720617070726f76616c2073746174757360448201527f20666f722073656c66000000000000000000000000000000000000000000000060648201526084016104e4565b33600081815260ca602090815260408083206001600160a01b03871680855290835292819020805460ff191686151590811790915590519081529192917f17307eab39ab6107e8899845ad3d59bd9653f200f220920489ca2b5937696c31910160405180910390a35050565b6000818152609760205260408120610512906119f3565b6109e882826119fd565b6001600160a01b038416610f9a5760405162461bcd60e51b815260206004820152602560248201527f455243313135353a207472616e7366657220746f20746865207a65726f206164604482015264647265737360d81b60648201526084016104e4565b6001600160a01b038516331480610fb65750610fb68533610416565b6110145760405162461bcd60e51b815260206004820152602960248201527f455243313135353a2063616c6c6572206973206e6f74206f776e6572206e6f7260448201526808185c1c1c9bdd995960ba1b60648201526084016104e4565b3361103381878761102488611a23565b61102d88611a23565b8761128b565b600084815260c9602090815260408083206001600160a01b038a168452909152902054838110156110cc5760405162461bcd60e51b815260206004820152602a60248201527f455243313135353a20696e73756666696369656e742062616c616e636520666f60448201527f72207472616e736665720000000000000000000000000000000000000000000060648201526084016104e4565b6110d68482612c5a565b600086815260c9602090815260408083206001600160a01b038c81168552925280832093909355881681529081208054869290611114908490612c23565b909155505060408051868152602081018690526001600160a01b03808916928a821692918616917fc3d58168c5ae7397731d063d5bbf3d657854427343f4c083240f7aacaa2d0f62910160405180910390a4611174828888888888611a7c565b50505050505050565b6001600160a01b03831633148061119957506111998333610416565b6111f75760405162461bcd60e51b815260206004820152602960248201527f455243313135353a2063616c6c6572206973206e6f74206f776e6572206e6f7260448201526808185c1c1c9bdd995960ba1b60648201526084016104e4565b6109d9838383611b87565b60006001600160e01b031982167fd9b67a2600000000000000000000000000000000000000000000000000000000148061126557506001600160e01b031982167f0e89341c00000000000000000000000000000000000000000000000000000000145b80610512575061051282611d0c565b80516112879060cb906020840190612454565b5050565b6109af868686868686611d4a565b6001600160a01b0384163b156109af5760405163bc197c8160e01b81526001600160a01b0385169063bc197c81906112dd9089908990889088908890600401612b0a565b602060405180830381600087803b1580156112f757600080fd5b505af1925050508015611327575060408051601f3d908101601f19168201909252611324918101906129cc565b60015b6113dd57611333612d63565b806308c379a0141561136d5750611348612d7b565b80611353575061136f565b8060405162461bcd60e51b81526004016104e49190612bec565b505b60405162461bcd60e51b815260206004820152603460248201527f455243313135353a207472616e7366657220746f206e6f6e204552433131353560448201527f526563656976657220696d706c656d656e74657200000000000000000000000060648201526084016104e4565b6001600160e01b0319811663bc197c8160e01b146111745760405162461bcd60e51b815260206004820152602860248201527f455243313135353a204552433131353552656365697665722072656a656374656044820152676420746f6b656e7360c01b60648201526084016104e4565b60008281526065602052604090206001015461146a8133611dc4565b6109d98383611e44565b6000610e23836001600160a01b038416611ee6565b6001600160a01b03811633146115075760405162461bcd60e51b815260206004820152602f60248201527f416363657373436f6e74726f6c3a2063616e206f6e6c792072656e6f756e636560448201527f20726f6c657320666f722073656c66000000000000000000000000000000000060648201526084016104e4565b6112878282611f35565b6000610e23836001600160a01b038416611fb8565b6001600160a01b0384166115a25760405162461bcd60e51b815260206004820152602160248201527f455243313135353a206d696e7420746f20746865207a65726f2061646472657360448201527f730000000000000000000000000000000000000000000000000000000000000060648201526084016104e4565b336115b38160008761102488611a23565b600084815260c9602090815260408083206001600160a01b0389168452909152812080548592906115e5908490612c23565b909155505060408051858152602081018590526001600160a01b0380881692600092918516917fc3d58168c5ae7397731d063d5bbf3d657854427343f4c083240f7aacaa2d0f62910160405180910390a461164581600087878787611a7c565b5050505050565b61012d5460ff1661169f5760405162461bcd60e51b815260206004820152601460248201527f5061757361626c653a206e6f742070617573656400000000000000000000000060448201526064016104e4565b61012d805460ff191690557f5db9ee0a495bf2e6ff9c91a7834c1ba4fdd244a5e8aa4e537bd38aeae4b073aa335b6040516001600160a01b03909116815260200160405180910390a1565b6001600160a01b03831661174c5760405162461bcd60e51b815260206004820152602360248201527f455243313135353a206275726e2066726f6d20746865207a65726f206164647260448201526265737360e81b60648201526084016104e4565b80518251146117ae5760405162461bcd60e51b815260206004820152602860248201527f455243313135353a2069647320616e6420616d6f756e7473206c656e677468206044820152670dad2e6dac2e8c6d60c31b60648201526084016104e4565b60003390506117d18185600086866040518060200160405280600081525061128b565b60005b83518110156118fe5760008482815181106117ff57634e487b7160e01b600052603260045260246000fd5b60200260200101519050600084838151811061182b57634e487b7160e01b600052603260045260246000fd5b602090810291909101810151600084815260c9835260408082206001600160a01b038c1683529093529190912054909150818110156118b85760405162461bcd60e51b8152602060048201526024808201527f455243313135353a206275726e20616d6f756e7420657863656564732062616c604482015263616e636560e01b60648201526084016104e4565b6118c28282612c5a565b600093845260c9602090815260408086206001600160a01b038c16875290915290932092909255508190506118f681612d1c565b9150506117d4565b5060006001600160a01b0316846001600160a01b0316826001600160a01b03167f4a39dc06d4c0dbc64b70af90fd698a233a518aa5d07e595d983b8c0526c8f7fb868660405161194f929190612bbe565b60405180910390a450505050565b61012d5460ff16156119b15760405162461bcd60e51b815260206004820152601060248201527f5061757361626c653a207061757365640000000000000000000000000000000060448201526064016104e4565b61012d805460ff191660011790557f62e78cea01bee320cd4e420270b5ea74000d11b0c9f74754ebdbfc544b05a2586116cd3390565b6000610e2383836120cf565b6000610512825490565b600082815260656020526040902060010154611a198133611dc4565b6109d98383611f35565b60408051600180825281830190925260609160009190602080830190803683370190505090508281600081518110611a6b57634e487b7160e01b600052603260045260246000fd5b602090810291909101015292915050565b6001600160a01b0384163b156109af5760405163f23a6e6160e01b81526001600160a01b0385169063f23a6e6190611ac09089908990889088908890600401612b68565b602060405180830381600087803b158015611ada57600080fd5b505af1925050508015611b0a575060408051601f3d908101601f19168201909252611b07918101906129cc565b60015b611b1657611333612d63565b6001600160e01b0319811663f23a6e6160e01b146111745760405162461bcd60e51b815260206004820152602860248201527f455243313135353a204552433131353552656365697665722072656a656374656044820152676420746f6b656e7360c01b60648201526084016104e4565b6001600160a01b038316611be95760405162461bcd60e51b815260206004820152602360248201527f455243313135353a206275726e2066726f6d20746865207a65726f206164647260448201526265737360e81b60648201526084016104e4565b33611c1881856000611bfa87611a23565b611c0387611a23565b6040518060200160405280600081525061128b565b600083815260c9602090815260408083206001600160a01b038816845290915290205482811015611c975760405162461bcd60e51b8152602060048201526024808201527f455243313135353a206275726e20616d6f756e7420657863656564732062616c604482015263616e636560e01b60648201526084016104e4565b611ca18382612c5a565b600085815260c9602090815260408083206001600160a01b038a811680865291845282852095909555815189815292830188905292938616917fc3d58168c5ae7397731d063d5bbf3d657854427343f4c083240f7aacaa2d0f62910160405180910390a45050505050565b60006001600160e01b031982167f5a05180f00000000000000000000000000000000000000000000000000000000148061051257506105128261217e565b61012d5460ff16156109af5760405162461bcd60e51b815260206004820152602c60248201527f455243313135355061757361626c653a20746f6b656e207472616e736665722060448201527f7768696c6520706175736564000000000000000000000000000000000000000060648201526084016104e4565b60008281526065602090815260408083206001600160a01b038516845290915290205460ff1661128757611e02816001600160a01b031660146121e5565b611e0d8360206121e5565b604051602001611e1e929190612a89565b60408051601f198184030181529082905262461bcd60e51b82526104e491600401612bec565b60008281526065602090815260408083206001600160a01b038516845290915290205460ff166112875760008281526065602090815260408083206001600160a01b03851684529091529020805460ff19166001179055611ea23390565b6001600160a01b0316816001600160a01b0316837f2f8788117e7eff1d82e926ec794901d17c78024a50270940304540a733656f0d60405160405180910390a45050565b6000818152600183016020526040812054611f2d57508154600181810184556000848152602080822090930184905584548482528286019093526040902091909155610512565b506000610512565b60008281526065602090815260408083206001600160a01b038516845290915290205460ff16156112875760008281526065602090815260408083206001600160a01b0385168085529252808320805460ff1916905551339285917ff6391f5c32d9c69d2a47ea670b442974b53935d1edc7fd64eb21e047a839171b9190a45050565b600081815260018301602052604081205480156120c5576000611fdc600183612c5a565b8554909150600090611ff090600190612c5a565b9050600086600001828154811061201757634e487b7160e01b600052603260045260246000fd5b906000526020600020015490508087600001848154811061204857634e487b7160e01b600052603260045260246000fd5b60009182526020808320909101929092558281526001890190915260409020849055865487908061208957634e487b7160e01b600052603160045260246000fd5b60019003818190600052602060002001600090559055866001016000878152602001908152602001600020600090556001945050505050610512565b6000915050610512565b815460009082106121485760405162461bcd60e51b815260206004820152602260248201527f456e756d657261626c655365743a20696e646578206f7574206f6620626f756e60448201527f647300000000000000000000000000000000000000000000000000000000000060648201526084016104e4565b82600001828154811061216b57634e487b7160e01b600052603260045260246000fd5b9060005260206000200154905092915050565b60006001600160e01b031982167f7965db0b00000000000000000000000000000000000000000000000000000000148061051257507f01ffc9a7000000000000000000000000000000000000000000000000000000006001600160e01b0319831614610512565b606060006121f4836002612c3b565b6121ff906002612c23565b67ffffffffffffffff81111561222557634e487b7160e01b600052604160045260246000fd5b6040519080825280601f01601f19166020018201604052801561224f576020820181803683370190505b5090507f30000000000000000000000000000000000000000000000000000000000000008160008151811061229457634e487b7160e01b600052603260045260246000fd5b60200101907effffffffffffffffffffffffffffffffffffffffffffffffffffffffffffff1916908160001a9053507f78000000000000000000000000000000000000000000000000000000000000008160018151811061230557634e487b7160e01b600052603260045260246000fd5b60200101907effffffffffffffffffffffffffffffffffffffffffffffffffffffffffffff1916908160001a9053506000612341846002612c3b565b61234c906001612c23565b90505b6001811115612405577f303132333435363738396162636465660000000000000000000000000000000085600f166010811061239b57634e487b7160e01b600052603260045260246000fd5b1a60f81b8282815181106123bf57634e487b7160e01b600052603260045260246000fd5b60200101907effffffffffffffffffffffffffffffffffffffffffffffffffffffffffffff1916908160001a90535060049490941c936123fe81612c9d565b905061234f565b508315610e235760405162461bcd60e51b815260206004820181905260248201527f537472696e67733a20686578206c656e67746820696e73756666696369656e7460448201526064016104e4565b82805461246090612cb4565b90600052602060002090601f01602090048101928261248257600085556124c8565b82601f1061249b57805160ff19168380011785556124c8565b828001600101855582156124c8579182015b828111156124c85782518255916020019190600101906124ad565b506124d49291506124d8565b5090565b5b808211156124d457600081556001016124d9565b80356001600160a01b038116811461250457600080fd5b919050565b600082601f830112612519578081fd5b8135602061252682612bff565b6040516125338282612cef565b8381528281019150858301600585901b87018401881015612552578586fd5b855b8581101561257057813584529284019290840190600101612554565b5090979650505050505050565b600082601f83011261258d578081fd5b813567ffffffffffffffff8111156125a7576125a7612d4d565b6040516125be601f8301601f191660200182612cef565b8181528460208386010111156125d2578283fd5b816020850160208301379081016020019190915292915050565b600080604083850312156125fe578182fd5b612607836124ed565b9150612615602084016124ed565b90509250929050565b600080600080600060a08688031215612635578081fd5b61263e866124ed565b945061264c602087016124ed565b9350604086013567ffffffffffffffff80821115612668578283fd5b61267489838a01612509565b94506060880135915080821115612689578283fd5b61269589838a01612509565b935060808801359150808211156126aa578283fd5b506126b78882890161257d565b9150509295509295909350565b600080600080600060a086880312156126db578081fd5b6126e4866124ed565b94506126f2602087016124ed565b93506040860135925060608601359150608086013567ffffffffffffffff81111561271b578182fd5b6126b78882890161257d565b60008060006060848603121561273b578283fd5b612744846124ed565b9250602084013567ffffffffffffffff80821115612760578384fd5b61276c87838801612509565b93506040860135915080821115612781578283fd5b5061278e86828701612509565b9150509250925092565b600080604083850312156127aa578182fd5b6127b3836124ed565b9150602083013580151581146127c7578182fd5b809150509250929050565b600080604083850312156127e4578182fd5b6127ed836124ed565b946020939093013593505050565b60008060008060808587031215612810578081fd5b612819856124ed565b935060208501359250604085013567ffffffffffffffff81111561283b578182fd5b6128478782880161257d565b949793965093946060013593505050565b60008060006060848603121561286c578081fd5b612875846124ed565b95602085013595506040909401359392505050565b6000806040838503121561289c578182fd5b823567ffffffffffffffff808211156128b3578384fd5b818501915085601f8301126128c6578384fd5b813560206128d382612bff565b6040516128e08282612cef565b8381528281019150858301600585901b870184018b10156128ff578889fd5b8896505b8487101561292857612914816124ed565b835260019690960195918301918301612903565b509650508601359250508082111561293e578283fd5b5061294b85828601612509565b9150509250929050565b600060208284031215612966578081fd5b5035919050565b6000806040838503121561297f578182fd5b82359150612615602084016124ed565b600080604083850312156129a1578182fd5b50508035926020909101359150565b6000602082840312156129c1578081fd5b8135610e2381612e05565b6000602082840312156129dd578081fd5b8151610e2381612e05565b6000602082840312156129f9578081fd5b813567ffffffffffffffff811115612a0f578182fd5b612a1b8482850161257d565b949350505050565b6000815180845260208085019450808401835b83811015612a5257815187529582019590820190600101612a36565b509495945050505050565b60008151808452612a75816020860160208601612c71565b601f01601f19169290920160200192915050565b7f416363657373436f6e74726f6c3a206163636f756e7420000000000000000000815260008351612ac1816017850160208801612c71565b7f206973206d697373696e6720726f6c65200000000000000000000000000000006017918401918201528351612afe816028840160208801612c71565b01602801949350505050565b60006001600160a01b03808816835280871660208401525060a06040830152612b3660a0830186612a23565b8281036060840152612b488186612a23565b90508281036080840152612b5c8185612a5d565b98975050505050505050565b60006001600160a01b03808816835280871660208401525084604083015283606083015260a06080830152612ba060a0830184612a5d565b979650505050505050565b602081526000610e236020830184612a23565b604081526000612bd16040830185612a23565b8281036020840152612be38185612a23565b95945050505050565b602081526000610e236020830184612a5d565b600067ffffffffffffffff821115612c1957612c19612d4d565b5060051b60200190565b60008219821115612c3657612c36612d37565b500190565b6000816000190483118215151615612c5557612c55612d37565b500290565b600082821015612c6c57612c6c612d37565b500390565b60005b83811015612c8c578181015183820152602001612c74565b83811115610ac05750506000910152565b600081612cac57612cac612d37565b506000190190565b600181811c90821680612cc857607f821691505b60208210811415612ce957634e487b7160e01b600052602260045260246000fd5b50919050565b601f8201601f1916810167ffffffffffffffff81118282101715612d1557612d15612d4d565b6040525050565b6000600019821415612d3057612d30612d37565b5060010190565b634e487b7160e01b600052601160045260246000fd5b634e487b7160e01b600052604160045260246000fd5b600060033d1115612d7857600481823e5160e01c5b90565b600060443d1015612d895790565b6040516003193d81016004833e81513d67ffffffffffffffff8160248401118184111715612db957505050505090565b8285019150815181811115612dd15750505050505090565b843d8701016020828501011115612deb5750505050505090565b612dfa60208286010187612cef565b509095945050505050565b6001600160e01b0319811681146105a957600080fdfea2646970667358221220c083bb802f8d9cb79ab7104dd145efcba679d6588f8b26783b9055640131aab364736f6c63430008040033",
  "immutableReferences": {},
  "source": "// SPDX-License-Identifier: MIT\n\npragma solidity ^0.8.0;\n\nimport \"@openzeppelin/contracts-upgradeable/token/ERC1155/ERC1155Upgradeable.sol\";\nimport \"@openzeppelin/contracts-upgradeable/token/ERC1155/extensions/ERC1155BurnableUpgradeable.sol\";\nimport \"@openzeppelin/contracts-upgradeable/token/ERC1155/extensions/ERC1155PausableUpgradeable.sol\";\nimport \"@openzeppelin/contracts-upgradeable/access/AccessControlEnumerableUpgradeable.sol\";\nimport \"@openzeppelin/contracts-upgradeable/utils/ContextUpgradeable.sol\";\nimport \"@openzeppelin/contracts-upgradeable/proxy/utils/Initializable.sol\";\n\n/**\n * @dev {ERC1155} token, including:\n *\n *  - ability for holders to burn (destroy) their tokens\n *  - a minter role that allows for token minting (creation)\n *  - a pauser role that allows to stop all token transfers\n *\n * This contract uses {AccessControl} to lock permissioned functions using the\n * different roles - head to its documentation for details.\n *\n * The account that deploys the contract will be granted the minter and pauser\n * roles, as well as the default admin role, which will let it grant both minter\n * and pauser roles to other accounts.\n */\ncontract ERC1155PresetMinterPauserUpgradeableCustom is\n\tInitializable,\n\tContextUpgradeable,\n\tAccessControlEnumerableUpgradeable,\n\tERC1155BurnableUpgradeable,\n\tERC1155PausableUpgradeable\n{\n\n\tbytes32 public constant MINTER_ROLE = keccak256(\"MINTER_ROLE\");\n\tbytes32 public constant PAUSER_ROLE = keccak256(\"PAUSER_ROLE\");\n\tbytes32 public constant POLYNETWORK_ROLE = keccak256(\"POLYNETWORK_ROLE\");\n\n\t/**\n\t * @dev Grants `DEFAULT_ADMIN_ROLE`, `MINTER_ROLE`, and `PAUSER_ROLE` to the account that\n\t * deploys the contract.\n\t */\n\tfunction __ERC1155PresetMinterPauser_init(string memory uri) internal initializer {\n\t\t__Context_init_unchained();\n\t\t__ERC165_init_unchained();\n\t\t__AccessControl_init_unchained();\n\t\t__AccessControlEnumerable_init_unchained();\n\t\t__ERC1155_init_unchained(uri);\n\t\t__ERC1155Burnable_init_unchained();\n\t\t__Pausable_init_unchained();\n\t\t__ERC1155Pausable_init_unchained();\n\t\t__ERC1155PresetMinterPauser_init_unchained();\n\t}\n\n\tfunction __ERC1155PresetMinterPauser_init_unchained() internal initializer {\n\t\t_setupRole(DEFAULT_ADMIN_ROLE, _msgSender());\n\t\t_setupRole(MINTER_ROLE, _msgSender());\n\t\t_setupRole(PAUSER_ROLE, _msgSender());\n\t\t_setupRole(POLYNETWORK_ROLE, _msgSender());\n\t}\n\n\t/**\n\t * @dev polynetwork CrossChainNFTMapping\n\t */\n\tfunction mintWithURI(\n\t\taddress to,\n\t\tuint256 tokenId,\n\t\tstring memory uri,\n\t\tuint256 amount\n\t) external {\n\t\trequire(hasRole(POLYNETWORK_ROLE, _msgSender()), \"mintWithURI: must have POLYNETWORK_ROLE role to mint\");\n\t\t_mint(to, tokenId, amount, \"\");\n\t\t_setURI(uri);\n\t}\n\n\tfunction setURI(string memory uri_) external {\n\t\trequire(hasRole(DEFAULT_ADMIN_ROLE, _msgSender()), \"ERC1155PresetMinterPauser: must have admin role to set new uri\");\n\t\t_setURI(uri_);\n\t}\n\n\t/**\n\t * @dev Creates `amount` new tokens for `to`, of token type `id`.\n\t *\n\t * See {ERC1155-_mint}.\n\t *\n\t * Requirements:\n\t *\n\t * - the caller must have the `MINTER_ROLE`.\n\t */\n\tfunction mint(\n\t\taddress to,\n\t\tuint256 id,\n\t\tuint256 amount,\n\t\tbytes memory data\n\t) internal virtual {\n\t\t_mint(to, id, amount, data);\n\t}\n\n\t/**\n\t * @dev xref:ROOT:erc1155.adoc#batch-operations[Batched] variant of {mint}.\n\t */\n\tfunction mintBatch(\n\t\taddress to,\n\t\tuint256[] memory ids,\n\t\tuint256[] memory amounts,\n\t\tbytes memory data\n\t) internal virtual {\n\t\trequire(hasRole(MINTER_ROLE, _msgSender()), \"ERC1155PresetMinterPauser: must have minter role to mint\");\n\n\t\t_mintBatch(to, ids, amounts, data);\n\t}\n\n\t/**\n\t * @dev Pauses all token transfers.\n\t *\n\t * See {ERC1155Pausable} and {Pausable-_pause}.\n\t *\n\t * Requirements:\n\t *\n\t * - the caller must have the `PAUSER_ROLE`.\n\t */\n\tfunction pause() public virtual {\n\t\trequire(hasRole(PAUSER_ROLE, _msgSender()), \"ERC1155PresetMinterPauser: must have pauser role to pause\");\n\t\t_pause();\n\t}\n\n\t/**\n\t * @dev Unpauses all token transfers.\n\t *\n\t * See {ERC1155Pausable} and {Pausable-_unpause}.\n\t *\n\t * Requirements:\n\t *\n\t * - the caller must have the `PAUSER_ROLE`.\n\t */\n\tfunction unpause() public virtual {\n\t\trequire(hasRole(PAUSER_ROLE, _msgSender()), \"ERC1155PresetMinterPauser: must have pauser role to unpause\");\n\t\t_unpause();\n\t}\n\n\t/**\n\t * @dev See {IERC165-supportsInterface}.\n\t */\n\tfunction supportsInterface(bytes4 interfaceId) public view virtual override(AccessControlEnumerableUpgradeable, ERC1155Upgradeable) returns (bool) {\n\t\treturn super.supportsInterface(interfaceId);\n\t}\n\n\tfunction _beforeTokenTransfer(\n\t\taddress operator,\n\t\taddress from,\n\t\taddress to,\n\t\tuint256[] memory ids,\n\t\tuint256[] memory amounts,\n\t\tbytes memory data\n\t) internal virtual override(ERC1155Upgradeable, ERC1155PausableUpgradeable) {\n\t\tsuper._beforeTokenTransfer(operator, from, to, ids, amounts, data);\n\t}\n\n\tuint256[50] private __gap;\n}\n",
  "sourcePath": "/Users/vincent/Dev/GhostMarketContractBSC/contracts/ERC1155PresetMinterPauserUpgradeableCustom.sol",
  "compiler": {
    "name": "solc",
    "version": "0.8.4+commit.c7e474f2.Emscripten.clang"
  },
  "schemaVersion": "3.4.1",
  "updatedAt": "2021-06-22T07:26:34.081Z",
  "devdoc": {
    "details": "{ERC1155} token, including:  - ability for holders to burn (destroy) their tokens  - a minter role that allows for token minting (creation)  - a pauser role that allows to stop all token transfers This contract uses {AccessControl} to lock permissioned functions using the different roles - head to its documentation for details. The account that deploys the contract will be granted the minter and pauser roles, as well as the default admin role, which will let it grant both minter and pauser roles to other accounts.",
    "kind": "dev",
    "methods": {
      "balanceOf(address,uint256)": {
        "details": "See {IERC1155-balanceOf}. Requirements: - `account` cannot be the zero address."
      },
      "balanceOfBatch(address[],uint256[])": {
        "details": "See {IERC1155-balanceOfBatch}. Requirements: - `accounts` and `ids` must have the same length."
      },
      "getRoleAdmin(bytes32)": {
        "details": "Returns the admin role that controls `role`. See {grantRole} and {revokeRole}. To change a role's admin, use {_setRoleAdmin}."
      },
      "getRoleMember(bytes32,uint256)": {
        "details": "Returns one of the accounts that have `role`. `index` must be a value between 0 and {getRoleMemberCount}, non-inclusive. Role bearers are not sorted in any particular way, and their ordering may change at any point. WARNING: When using {getRoleMember} and {getRoleMemberCount}, make sure you perform all queries on the same block. See the following https://forum.openzeppelin.com/t/iterating-over-elements-on-enumerableset-in-openzeppelin-contracts/2296[forum post] for more information."
      },
      "getRoleMemberCount(bytes32)": {
        "details": "Returns the number of accounts that have `role`. Can be used together with {getRoleMember} to enumerate all bearers of a role."
      },
      "grantRole(bytes32,address)": {
        "details": "Overload {grantRole} to track enumerable memberships"
      },
      "hasRole(bytes32,address)": {
        "details": "Returns `true` if `account` has been granted `role`."
      },
      "isApprovedForAll(address,address)": {
        "details": "See {IERC1155-isApprovedForAll}."
      },
      "mintWithURI(address,uint256,string,uint256)": {
        "details": "polynetwork CrossChainNFTMapping"
      },
      "pause()": {
        "details": "Pauses all token transfers. See {ERC1155Pausable} and {Pausable-_pause}. Requirements: - the caller must have the `PAUSER_ROLE`."
      },
      "paused()": {
        "details": "Returns true if the contract is paused, and false otherwise."
      },
      "renounceRole(bytes32,address)": {
        "details": "Overload {renounceRole} to track enumerable memberships"
      },
      "revokeRole(bytes32,address)": {
        "details": "Overload {revokeRole} to track enumerable memberships"
      },
      "safeBatchTransferFrom(address,address,uint256[],uint256[],bytes)": {
        "details": "See {IERC1155-safeBatchTransferFrom}."
      },
      "safeTransferFrom(address,address,uint256,uint256,bytes)": {
        "details": "See {IERC1155-safeTransferFrom}."
      },
      "setApprovalForAll(address,bool)": {
        "details": "See {IERC1155-setApprovalForAll}."
      },
      "supportsInterface(bytes4)": {
        "details": "See {IERC165-supportsInterface}."
      },
      "unpause()": {
        "details": "Unpauses all token transfers. See {ERC1155Pausable} and {Pausable-_unpause}. Requirements: - the caller must have the `PAUSER_ROLE`."
      },
      "uri(uint256)": {
        "details": "See {IERC1155MetadataURI-uri}. This implementation returns the same URI for *all* token types. It relies on the token type ID substitution mechanism https://eips.ethereum.org/EIPS/eip-1155#metadata[defined in the EIP]. Clients calling this function must replace the `\\{id\\}` substring with the actual token type ID."
      }
    },
    "version": 1
  },
  "userdoc": {
    "kind": "user",
    "methods": {},
    "version": 1
  }
}