{
  "contractName": "ERC721PresetMinterPauserAutoIdUpgradeable",
  "abi": [
    {
      "anonymous": false,
      "inputs": [
        {
          "indexed": true,
          "internalType": "address",
          "name": "owner",
          "type": "address"
        },
        {
          "indexed": true,
          "internalType": "address",
          "name": "approved",
          "type": "address"
        },
        {
          "indexed": true,
          "internalType": "uint256",
          "name": "tokenId",
          "type": "uint256"
        }
      ],
      "name": "Approval",
      "type": "event"
    },
    {
      "anonymous": false,
      "inputs": [
        {
          "indexed": true,
          "internalType": "address",
          "name": "owner",
          "type": "address"
        },
        {
          "indexed": true,
          "internalType": "address",
          "name": "operator",
          "type": "address"
        },
        {
          "indexed": false,
          "internalType": "bool",
          "name": "approved",
          "type": "bool"
        }
      ],
      "name": "ApprovalForAll",
      "type": "event"
    },
    {
      "anonymous": false,
      "inputs": [
        {
          "indexed": false,
          "internalType": "address",
          "name": "account",
          "type": "address"
        }
      ],
      "name": "Paused",
      "type": "event"
    },
    {
      "anonymous": false,
      "inputs": [
        {
          "indexed": true,
          "internalType": "bytes32",
          "name": "role",
          "type": "bytes32"
        },
        {
          "indexed": true,
          "internalType": "bytes32",
          "name": "previousAdminRole",
          "type": "bytes32"
        },
        {
          "indexed": true,
          "internalType": "bytes32",
          "name": "newAdminRole",
          "type": "bytes32"
        }
      ],
      "name": "RoleAdminChanged",
      "type": "event"
    },
    {
      "anonymous": false,
      "inputs": [
        {
          "indexed": true,
          "internalType": "bytes32",
          "name": "role",
          "type": "bytes32"
        },
        {
          "indexed": true,
          "internalType": "address",
          "name": "account",
          "type": "address"
        },
        {
          "indexed": true,
          "internalType": "address",
          "name": "sender",
          "type": "address"
        }
      ],
      "name": "RoleGranted",
      "type": "event"
    },
    {
      "anonymous": false,
      "inputs": [
        {
          "indexed": true,
          "internalType": "bytes32",
          "name": "role",
          "type": "bytes32"
        },
        {
          "indexed": true,
          "internalType": "address",
          "name": "account",
          "type": "address"
        },
        {
          "indexed": true,
          "internalType": "address",
          "name": "sender",
          "type": "address"
        }
      ],
      "name": "RoleRevoked",
      "type": "event"
    },
    {
      "anonymous": false,
      "inputs": [
        {
          "indexed": true,
          "internalType": "address",
          "name": "from",
          "type": "address"
        },
        {
          "indexed": true,
          "internalType": "address",
          "name": "to",
          "type": "address"
        },
        {
          "indexed": true,
          "internalType": "uint256",
          "name": "tokenId",
          "type": "uint256"
        }
      ],
      "name": "Transfer",
      "type": "event"
    },
    {
      "anonymous": false,
      "inputs": [
        {
          "indexed": false,
          "internalType": "address",
          "name": "account",
          "type": "address"
        }
      ],
      "name": "Unpaused",
      "type": "event"
    },
    {
      "inputs": [],
      "name": "DEFAULT_ADMIN_ROLE",
      "outputs": [
        {
          "internalType": "bytes32",
          "name": "",
          "type": "bytes32"
        }
      ],
      "stateMutability": "view",
      "type": "function"
    },
    {
      "inputs": [],
      "name": "MINTER_ROLE",
      "outputs": [
        {
          "internalType": "bytes32",
          "name": "",
          "type": "bytes32"
        }
      ],
      "stateMutability": "view",
      "type": "function"
    },
    {
      "inputs": [],
      "name": "PAUSER_ROLE",
      "outputs": [
        {
          "internalType": "bytes32",
          "name": "",
          "type": "bytes32"
        }
      ],
      "stateMutability": "view",
      "type": "function"
    },
    {
      "inputs": [
        {
          "internalType": "address",
          "name": "to",
          "type": "address"
        },
        {
          "internalType": "uint256",
          "name": "tokenId",
          "type": "uint256"
        }
      ],
      "name": "approve",
      "outputs": [],
      "stateMutability": "nonpayable",
      "type": "function"
    },
    {
      "inputs": [
        {
          "internalType": "address",
          "name": "owner",
          "type": "address"
        }
      ],
      "name": "balanceOf",
      "outputs": [
        {
          "internalType": "uint256",
          "name": "",
          "type": "uint256"
        }
      ],
      "stateMutability": "view",
      "type": "function"
    },
    {
      "inputs": [
        {
          "internalType": "uint256",
          "name": "tokenId",
          "type": "uint256"
        }
      ],
      "name": "burn",
      "outputs": [],
      "stateMutability": "nonpayable",
      "type": "function"
    },
    {
      "inputs": [
        {
          "internalType": "uint256",
          "name": "tokenId",
          "type": "uint256"
        }
      ],
      "name": "getApproved",
      "outputs": [
        {
          "internalType": "address",
          "name": "",
          "type": "address"
        }
      ],
      "stateMutability": "view",
      "type": "function"
    },
    {
      "inputs": [
        {
          "internalType": "bytes32",
          "name": "role",
          "type": "bytes32"
        }
      ],
      "name": "getRoleAdmin",
      "outputs": [
        {
          "internalType": "bytes32",
          "name": "",
          "type": "bytes32"
        }
      ],
      "stateMutability": "view",
      "type": "function"
    },
    {
      "inputs": [
        {
          "internalType": "bytes32",
          "name": "role",
          "type": "bytes32"
        },
        {
          "internalType": "uint256",
          "name": "index",
          "type": "uint256"
        }
      ],
      "name": "getRoleMember",
      "outputs": [
        {
          "internalType": "address",
          "name": "",
          "type": "address"
        }
      ],
      "stateMutability": "view",
      "type": "function"
    },
    {
      "inputs": [
        {
          "internalType": "bytes32",
          "name": "role",
          "type": "bytes32"
        }
      ],
      "name": "getRoleMemberCount",
      "outputs": [
        {
          "internalType": "uint256",
          "name": "",
          "type": "uint256"
        }
      ],
      "stateMutability": "view",
      "type": "function"
    },
    {
      "inputs": [
        {
          "internalType": "bytes32",
          "name": "role",
          "type": "bytes32"
        },
        {
          "internalType": "address",
          "name": "account",
          "type": "address"
        }
      ],
      "name": "grantRole",
      "outputs": [],
      "stateMutability": "nonpayable",
      "type": "function"
    },
    {
      "inputs": [
        {
          "internalType": "bytes32",
          "name": "role",
          "type": "bytes32"
        },
        {
          "internalType": "address",
          "name": "account",
          "type": "address"
        }
      ],
      "name": "hasRole",
      "outputs": [
        {
          "internalType": "bool",
          "name": "",
          "type": "bool"
        }
      ],
      "stateMutability": "view",
      "type": "function"
    },
    {
      "inputs": [
        {
          "internalType": "address",
          "name": "owner",
          "type": "address"
        },
        {
          "internalType": "address",
          "name": "operator",
          "type": "address"
        }
      ],
      "name": "isApprovedForAll",
      "outputs": [
        {
          "internalType": "bool",
          "name": "",
          "type": "bool"
        }
      ],
      "stateMutability": "view",
      "type": "function"
    },
    {
      "inputs": [],
      "name": "name",
      "outputs": [
        {
          "internalType": "string",
          "name": "",
          "type": "string"
        }
      ],
      "stateMutability": "view",
      "type": "function"
    },
    {
      "inputs": [
        {
          "internalType": "uint256",
          "name": "tokenId",
          "type": "uint256"
        }
      ],
      "name": "ownerOf",
      "outputs": [
        {
          "internalType": "address",
          "name": "",
          "type": "address"
        }
      ],
      "stateMutability": "view",
      "type": "function"
    },
    {
      "inputs": [],
      "name": "paused",
      "outputs": [
        {
          "internalType": "bool",
          "name": "",
          "type": "bool"
        }
      ],
      "stateMutability": "view",
      "type": "function"
    },
    {
      "inputs": [
        {
          "internalType": "bytes32",
          "name": "role",
          "type": "bytes32"
        },
        {
          "internalType": "address",
          "name": "account",
          "type": "address"
        }
      ],
      "name": "renounceRole",
      "outputs": [],
      "stateMutability": "nonpayable",
      "type": "function"
    },
    {
      "inputs": [
        {
          "internalType": "bytes32",
          "name": "role",
          "type": "bytes32"
        },
        {
          "internalType": "address",
          "name": "account",
          "type": "address"
        }
      ],
      "name": "revokeRole",
      "outputs": [],
      "stateMutability": "nonpayable",
      "type": "function"
    },
    {
      "inputs": [
        {
          "internalType": "address",
          "name": "from",
          "type": "address"
        },
        {
          "internalType": "address",
          "name": "to",
          "type": "address"
        },
        {
          "internalType": "uint256",
          "name": "tokenId",
          "type": "uint256"
        }
      ],
      "name": "safeTransferFrom",
      "outputs": [],
      "stateMutability": "nonpayable",
      "type": "function"
    },
    {
      "inputs": [
        {
          "internalType": "address",
          "name": "from",
          "type": "address"
        },
        {
          "internalType": "address",
          "name": "to",
          "type": "address"
        },
        {
          "internalType": "uint256",
          "name": "tokenId",
          "type": "uint256"
        },
        {
          "internalType": "bytes",
          "name": "_data",
          "type": "bytes"
        }
      ],
      "name": "safeTransferFrom",
      "outputs": [],
      "stateMutability": "nonpayable",
      "type": "function"
    },
    {
      "inputs": [
        {
          "internalType": "address",
          "name": "operator",
          "type": "address"
        },
        {
          "internalType": "bool",
          "name": "approved",
          "type": "bool"
        }
      ],
      "name": "setApprovalForAll",
      "outputs": [],
      "stateMutability": "nonpayable",
      "type": "function"
    },
    {
      "inputs": [],
      "name": "symbol",
      "outputs": [
        {
          "internalType": "string",
          "name": "",
          "type": "string"
        }
      ],
      "stateMutability": "view",
      "type": "function"
    },
    {
      "inputs": [
        {
          "internalType": "uint256",
          "name": "index",
          "type": "uint256"
        }
      ],
      "name": "tokenByIndex",
      "outputs": [
        {
          "internalType": "uint256",
          "name": "",
          "type": "uint256"
        }
      ],
      "stateMutability": "view",
      "type": "function"
    },
    {
      "inputs": [
        {
          "internalType": "address",
          "name": "owner",
          "type": "address"
        },
        {
          "internalType": "uint256",
          "name": "index",
          "type": "uint256"
        }
      ],
      "name": "tokenOfOwnerByIndex",
      "outputs": [
        {
          "internalType": "uint256",
          "name": "",
          "type": "uint256"
        }
      ],
      "stateMutability": "view",
      "type": "function"
    },
    {
      "inputs": [],
      "name": "totalSupply",
      "outputs": [
        {
          "internalType": "uint256",
          "name": "",
          "type": "uint256"
        }
      ],
      "stateMutability": "view",
      "type": "function"
    },
    {
      "inputs": [
        {
          "internalType": "address",
          "name": "from",
          "type": "address"
        },
        {
          "internalType": "address",
          "name": "to",
          "type": "address"
        },
        {
          "internalType": "uint256",
          "name": "tokenId",
          "type": "uint256"
        }
      ],
      "name": "transferFrom",
      "outputs": [],
      "stateMutability": "nonpayable",
      "type": "function"
    },
    {
      "inputs": [
        {
          "internalType": "string",
          "name": "name",
          "type": "string"
        },
        {
          "internalType": "string",
          "name": "symbol",
          "type": "string"
        },
        {
          "internalType": "string",
          "name": "baseTokenURI",
          "type": "string"
        }
      ],
      "name": "initialize",
      "outputs": [],
      "stateMutability": "nonpayable",
      "type": "function"
    },
    {
      "inputs": [
        {
          "internalType": "address",
          "name": "to",
          "type": "address"
        }
      ],
      "name": "mint",
      "outputs": [],
      "stateMutability": "nonpayable",
      "type": "function"
    },
    {
      "inputs": [
        {
          "internalType": "uint256",
          "name": "tokenId",
          "type": "uint256"
        }
      ],
      "name": "tokenURI",
      "outputs": [
        {
          "internalType": "string",
          "name": "",
          "type": "string"
        }
      ],
      "stateMutability": "view",
      "type": "function"
    },
    {
      "inputs": [
        {
          "internalType": "address",
          "name": "to",
          "type": "address"
        },
        {
          "internalType": "uint256",
          "name": "tokenId",
          "type": "uint256"
        },
        {
          "internalType": "string",
          "name": "uri",
          "type": "string"
        }
      ],
      "name": "mintWithURI",
      "outputs": [],
      "stateMutability": "nonpayable",
      "type": "function"
    },
    {
      "inputs": [],
      "name": "getCurrentCounter",
      "outputs": [
        {
          "internalType": "uint256",
          "name": "",
          "type": "uint256"
        }
      ],
      "stateMutability": "view",
      "type": "function"
    },
    {
      "inputs": [],
      "name": "getLastTokenID",
      "outputs": [
        {
          "internalType": "uint256",
          "name": "",
          "type": "uint256"
        }
      ],
      "stateMutability": "view",
      "type": "function"
    },
    {
      "inputs": [
        {
          "internalType": "string",
          "name": "baseTokenURI",
          "type": "string"
        }
      ],
      "name": "setBaseTokenURI",
      "outputs": [],
      "stateMutability": "nonpayable",
      "type": "function"
    },
    {
      "inputs": [],
      "name": "pause",
      "outputs": [],
      "stateMutability": "nonpayable",
      "type": "function"
    },
    {
      "inputs": [],
      "name": "unpause",
      "outputs": [],
      "stateMutability": "nonpayable",
      "type": "function"
    },
    {
      "inputs": [
        {
          "internalType": "bytes4",
          "name": "interfaceId",
          "type": "bytes4"
        }
      ],
      "name": "supportsInterface",
      "outputs": [
        {
          "internalType": "bool",
          "name": "",
          "type": "bool"
        }
      ],
      "stateMutability": "view",
      "type": "function"
    }
  ],
  "bytecode": "0x608060405234801561001057600080fd5b506133b3806100206000396000f3fe608060405234801561001057600080fd5b506004361061025c5760003560e01c80636352211e11610145578063a22cb465116100bd578063ca15c8731161008c578063d547741f11610071578063d547741f14610509578063e63ab1e91461051c578063e985e9c5146105435761025c565b8063ca15c873146104cf578063d5391393146104e25761025c565b8063a22cb46514610483578063a6487c5314610496578063b88d4fde146104a9578063c87b56dd146104bc5761025c565b80638456cb591161011457806391d14854116100f957806391d148541461043a57806395d89b4114610473578063a217fddf1461047b5761025c565b80638456cb591461041f5780639010d07c146104275761025c565b80636352211e146103de5780636a627842146103f157806370a082311461040457806373448c46146104175761025c565b80632f745c59116101d857806342842e0e116101a75780634a99950b1161018c5780634a99950b146103ac5780634f6ccce7146103bf5780635c975abb146103d25761025c565b806342842e0e1461038657806342966c68146103995761025c565b80632f745c591461034557806330176e131461035857806336568abe1461036b5780633f4ba83a1461037e5761025c565b80630e0941371161022f57806323b872dd1161021457806323b872dd146102fc578063248a9ca31461030f5780632f2ff15d146103325761025c565b80630e094137146102de57806318160ddd146102f45761025c565b806301ffc9a71461026157806306fdde0314610289578063081812fc1461029e578063095ea7b3146102c9575b600080fd5b61027461026f3660046130bd565b61057f565b60405190151581526020015b60405180910390f35b610291610592565b6040516102809190613239565b6102b16102ac366004613062565b610625565b6040516001600160a01b039091168152602001610280565b6102dc6102d7366004612fe4565b6106d0565b005b6102e6610802565b604051908152602001610280565b60fd546102e6565b6102dc61030a366004612ef6565b610834565b6102e661031d366004613062565b60009081526065602052604090206001015490565b6102dc61034036600461307a565b6108bc565b6102e6610353366004612fe4565b6108de565b6102dc6103663660046130f5565b610989565b6102dc61037936600461307a565b610a1e565b6102dc610a40565b6102dc610394366004612ef6565b610ae8565b6102dc6103a7366004613062565b610b03565b6102dc6103ba36600461300d565b610b8a565b6102e66103cd366004613062565b610c03565b61015f5460ff16610274565b6102b16103ec366004613062565b610cb5565b6102dc6103ff366004612eaa565b610d40565b6102e6610412366004612eaa565b610d62565b6102e6610dfc565b6102dc610e0d565b6102b161043536600461309c565b610eb1565b61027461044836600461307a565b60009182526065602090815260408084206001600160a01b0393909316845291905290205460ff1690565b610291610ed0565b6102e6600081565b6102dc610491366004612faa565b610edf565b6102dc6104a4366004613128565b610fb1565b6102dc6104b7366004612f31565b611072565b6102916104ca366004613062565b6110fa565b6102e66104dd366004613062565b611105565b6102e67f9f2df0fed2c77648de5860a4cc508cd0818c85b8b8a1ab4ceeef8d981c8956a681565b6102dc61051736600461307a565b61111c565b6102e67f65d7a28e3265b37a6474929f336521b332c1681b933f6cb9f3376673440d862a81565b610274610551366004612ec4565b6001600160a01b03918216600090815260ce6020908152604080832093909416825291909152205460ff1690565b600061058a82611126565b90505b919050565b606060c980546105a1906132bb565b80601f01602080910402602001604051908101604052809291908181526020018280546105cd906132bb565b801561061a5780601f106105ef5761010080835404028352916020019161061a565b820191906000526020600020905b8154815290600101906020018083116105fd57829003601f168201915b505050505090505b90565b600081815260cb60205260408120546001600160a01b03166106b45760405162461bcd60e51b815260206004820152602c60248201527f4552433732313a20617070726f76656420717565727920666f72206e6f6e657860448201527f697374656e7420746f6b656e000000000000000000000000000000000000000060648201526084015b60405180910390fd5b50600090815260cd60205260409020546001600160a01b031690565b60006106db82610cb5565b9050806001600160a01b0316836001600160a01b031614156107655760405162461bcd60e51b815260206004820152602160248201527f4552433732313a20617070726f76616c20746f2063757272656e74206f776e6560448201527f720000000000000000000000000000000000000000000000000000000000000060648201526084016106ab565b336001600160a01b038216148061078157506107818133610551565b6107f35760405162461bcd60e51b815260206004820152603860248201527f4552433732313a20617070726f76652063616c6c6572206973206e6f74206f7760448201527f6e6572206e6f7220617070726f76656420666f7220616c6c000000000000000060648201526084016106ab565b6107fd8383611164565b505050565b600061080e6101f55490565b61081e576101f5545b9050610622565b600161082a6101f55490565b6108179190613278565b61083f335b826111df565b6108b15760405162461bcd60e51b815260206004820152603160248201527f4552433732313a207472616e736665722063616c6c6572206973206e6f74206f60448201527f776e6572206e6f7220617070726f76656400000000000000000000000000000060648201526084016106ab565b6107fd8383836112e7565b6108c682826114cc565b60008281526097602052604090206107fd9082611565565b60006108e983610d62565b821061095d5760405162461bcd60e51b815260206004820152602b60248201527f455243373231456e756d657261626c653a206f776e657220696e646578206f7560448201527f74206f6620626f756e647300000000000000000000000000000000000000000060648201526084016106ab565b506001600160a01b038216600090815260fb602090815260408083208484529091529020545b92915050565b610994600033610448565b610a065760405162461bcd60e51b815260206004820152603460248201527f73657442617365546f6b656e5552493a206d75737420686176652041444d494e60448201527f20726f6c6520746f206368616e6765207468697300000000000000000000000060648201526084016106ab565b8051610a1a906101f6906020840190612d2d565b5050565b610a28828261157a565b60008281526097602052604090206107fd9082611602565b610a6a7f65d7a28e3265b37a6474929f336521b332c1681b933f6cb9f3376673440d862a33610448565b610ade576040805162461bcd60e51b81526020600482015260248101919091527f4552433732315072657365744d696e7465725061757365724175746f49643a2060448201527f6d75737420686176652070617573657220726f6c6520746f20756e706175736560648201526084016106ab565b610ae6611617565b565b6107fd83838360405180602001604052806000815250611072565b610b0c33610839565b610b7e5760405162461bcd60e51b815260206004820152603060248201527f4552433732314275726e61626c653a2063616c6c6572206973206e6f74206f7760448201527f6e6572206e6f7220617070726f7665640000000000000000000000000000000060648201526084016106ab565b610b87816116b5565b50565b600082815260cb60205260409020546001600160a01b031615610bef5760405162461bcd60e51b815260206004820152601660248201527f746f6b656e20696420616c72656164792065786973740000000000000000000060448201526064016106ab565b610bf983836116c7565b6107fd82826116d1565b6000610c0e60fd5490565b8210610c825760405162461bcd60e51b815260206004820152602c60248201527f455243373231456e756d657261626c653a20676c6f62616c20696e646578206f60448201527f7574206f6620626f756e6473000000000000000000000000000000000000000060648201526084016106ab565b60fd8281548110610ca357634e487b7160e01b600052603260045260246000fd5b90600052602060002001549050919050565b600081815260cb60205260408120546001600160a01b03168061058a5760405162461bcd60e51b815260206004820152602960248201527f4552433732313a206f776e657220717565727920666f72206e6f6e657869737460448201527f656e7420746f6b656e000000000000000000000000000000000000000000000060648201526084016106ab565b610d5381610d4e6101f55490565b6116db565b610b876101f580546001019055565b60006001600160a01b038216610de05760405162461bcd60e51b815260206004820152602a60248201527f4552433732313a2062616c616e636520717565727920666f7220746865207a6560448201527f726f20616464726573730000000000000000000000000000000000000000000060648201526084016106ab565b506001600160a01b0316600090815260cc602052604090205490565b6000610e086101f55490565b905090565b610e377f65d7a28e3265b37a6474929f336521b332c1681b933f6cb9f3376673440d862a33610448565b610ea95760405162461bcd60e51b815260206004820152603e60248201527f4552433732315072657365744d696e7465725061757365724175746f49643a2060448201527f6d75737420686176652070617573657220726f6c6520746f207061757365000060648201526084016106ab565b610ae6611836565b6000828152609760205260408120610ec990836118c0565b9392505050565b606060ca80546105a1906132bb565b6001600160a01b038216331415610f385760405162461bcd60e51b815260206004820152601960248201527f4552433732313a20617070726f766520746f2063616c6c65720000000000000060448201526064016106ab565b33600081815260ce602090815260408083206001600160a01b0387168085529252909120805460ff1916841515179055906001600160a01b03167f17307eab39ab6107e8899845ad3d59bd9653f200f220920489ca2b5937696c3183604051610fa5911515815260200190565b60405180910390a35050565b600054610100900460ff1680610fca575060005460ff16155b61102d5760405162461bcd60e51b815260206004820152602e60248201527f496e697469616c697a61626c653a20636f6e747261637420697320616c72656160448201526d191e481a5b9a5d1a585b1a5e995960921b60648201526084016106ab565b600054610100900460ff1615801561104f576000805461ffff19166101011790555b61105a8484846118cc565b801561106c576000805461ff00191690555b50505050565b61107c33836111df565b6110ee5760405162461bcd60e51b815260206004820152603160248201527f4552433732313a207472616e736665722063616c6c6572206973206e6f74206f60448201527f776e6572206e6f7220617070726f76656400000000000000000000000000000060648201526084016106ab565b61106c848484846119c5565b606061058a82611a4e565b600081815260976020526040812061058a90611bce565b610a288282611bd8565b60006001600160e01b031982167f780e9d6300000000000000000000000000000000000000000000000000000000148061058a575061058a82611c65565b600081815260cd60205260409020805473ffffffffffffffffffffffffffffffffffffffff19166001600160a01b03841690811790915581906111a682610cb5565b6001600160a01b03167f8c5be1e5ebec7d5bd14f71427d1e84f3dd0314c0f7b2291e5b200ac8c7c3b92560405160405180910390a45050565b600081815260cb60205260408120546001600160a01b03166112695760405162461bcd60e51b815260206004820152602c60248201527f4552433732313a206f70657261746f7220717565727920666f72206e6f6e657860448201527f697374656e7420746f6b656e000000000000000000000000000000000000000060648201526084016106ab565b600061127483610cb5565b9050806001600160a01b0316846001600160a01b031614806112af5750836001600160a01b03166112a484610625565b6001600160a01b0316145b806112df57506001600160a01b03808216600090815260ce602090815260408083209388168352929052205460ff165b949350505050565b826001600160a01b03166112fa82610cb5565b6001600160a01b0316146113765760405162461bcd60e51b815260206004820152602960248201527f4552433732313a207472616e73666572206f6620746f6b656e2074686174206960448201527f73206e6f74206f776e000000000000000000000000000000000000000000000060648201526084016106ab565b6001600160a01b0382166113f15760405162461bcd60e51b8152602060048201526024808201527f4552433732313a207472616e7366657220746f20746865207a65726f2061646460448201527f726573730000000000000000000000000000000000000000000000000000000060648201526084016106ab565b6113fc838383611cd7565b611407600082611164565b6001600160a01b038316600090815260cc60205260408120805460019290611430908490613278565b90915550506001600160a01b038216600090815260cc6020526040812080546001929061145e90849061324c565b9091555050600081815260cb6020526040808220805473ffffffffffffffffffffffffffffffffffffffff19166001600160a01b0386811691821790925591518493918716917fddf252ad1be2c89b69c2b068fc378daa952ba7f163c4a11628f55a4df523b3ef91a4505050565b6000828152606560205260409020600101546114e9905b33610448565b61155b5760405162461bcd60e51b815260206004820152602f60248201527f416363657373436f6e74726f6c3a2073656e646572206d75737420626520616e60448201527f2061646d696e20746f206772616e74000000000000000000000000000000000060648201526084016106ab565b610a1a8282611ce2565b6000610ec9836001600160a01b038416611d84565b6001600160a01b03811633146115f85760405162461bcd60e51b815260206004820152602f60248201527f416363657373436f6e74726f6c3a2063616e206f6e6c792072656e6f756e636560448201527f20726f6c657320666f722073656c66000000000000000000000000000000000060648201526084016106ab565b610a1a8282611dd3565b6000610ec9836001600160a01b038416611e56565b61015f5460ff1661166a5760405162461bcd60e51b815260206004820152601460248201527f5061757361626c653a206e6f742070617573656400000000000000000000000060448201526064016106ab565b61015f805460ff191690557f5db9ee0a495bf2e6ff9c91a7834c1ba4fdd244a5e8aa4e537bd38aeae4b073aa335b6040516001600160a01b03909116815260200160405180910390a1565b6116be81611f73565b610b8781612027565b610a1a8282612069565b610a1a8282612083565b6001600160a01b0382166117315760405162461bcd60e51b815260206004820181905260248201527f4552433732313a206d696e7420746f20746865207a65726f206164647265737360448201526064016106ab565b600081815260cb60205260409020546001600160a01b0316156117965760405162461bcd60e51b815260206004820152601c60248201527f4552433732313a20746f6b656e20616c7265616479206d696e7465640000000060448201526064016106ab565b6117a260008383611cd7565b6001600160a01b038216600090815260cc602052604081208054600192906117cb90849061324c565b9091555050600081815260cb6020526040808220805473ffffffffffffffffffffffffffffffffffffffff19166001600160a01b03861690811790915590518392907fddf252ad1be2c89b69c2b068fc378daa952ba7f163c4a11628f55a4df523b3ef908290a45050565b61015f5460ff161561188a5760405162461bcd60e51b815260206004820152601060248201527f5061757361626c653a207061757365640000000000000000000000000000000060448201526064016106ab565b61015f805460ff191660011790557f62e78cea01bee320cd4e420270b5ea74000d11b0c9f74754ebdbfc544b05a2586116983390565b6000610ec9838361212d565b600054610100900460ff16806118e5575060005460ff16155b6119485760405162461bcd60e51b815260206004820152602e60248201527f496e697469616c697a61626c653a20636f6e747261637420697320616c72656160448201526d191e481a5b9a5d1a585b1a5e995960921b60648201526084016106ab565b600054610100900460ff1615801561196a576000805461ffff19166101011790555b6119726121dc565b61197a6121dc565b6119826121dc565b61198a6121dc565b611994848461228e565b61199c6121dc565b6119a46121dc565b6119ac61236a565b6119b46121dc565b6119bd82612427565b61105a6121dc565b6119d08484846112e7565b6119dc8484848461254f565b61106c5760405162461bcd60e51b815260206004820152603260248201527f4552433732313a207472616e7366657220746f206e6f6e20455243373231526560448201527f63656976657220696d706c656d656e746572000000000000000000000000000060648201526084016106ab565b600081815260cb60205260409020546060906001600160a01b0316611adb5760405162461bcd60e51b815260206004820152603160248201527f45524337323155524953746f726167653a2055524920717565727920666f722060448201527f6e6f6e6578697374656e7420746f6b656e00000000000000000000000000000060648201526084016106ab565b60008281526101c3602052604081208054611af5906132bb565b80601f0160208091040260200160405190810160405280929190818152602001828054611b21906132bb565b8015611b6e5780601f10611b4357610100808354040283529160200191611b6e565b820191906000526020600020905b815481529060010190602001808311611b5157829003601f168201915b505050505090506000611b7f6126b2565b9050805160001415611b935750905061058d565b815115611bc5578082604051602001611bad9291906131ce565b6040516020818303038152906040529250505061058d565b6112df846126c2565b600061058a825490565b600082815260656020526040902060010154611bf3906114e3565b6115f85760405162461bcd60e51b815260206004820152603060248201527f416363657373436f6e74726f6c3a2073656e646572206d75737420626520616e60448201527f2061646d696e20746f207265766f6b650000000000000000000000000000000060648201526084016106ab565b60006001600160e01b031982167f80ac58cd000000000000000000000000000000000000000000000000000000001480611cc857506001600160e01b031982167f5b5e139f00000000000000000000000000000000000000000000000000000000145b8061058a575061058a826127aa565b6107fd8383836127e8565b60008281526065602090815260408083206001600160a01b038516845290915290205460ff16610a1a5760008281526065602090815260408083206001600160a01b03851684529091529020805460ff19166001179055611d403390565b6001600160a01b0316816001600160a01b0316837f2f8788117e7eff1d82e926ec794901d17c78024a50270940304540a733656f0d60405160405180910390a45050565b6000818152600183016020526040812054611dcb57508154600181810184556000848152602080822090930184905584548482528286019093526040902091909155610983565b506000610983565b60008281526065602090815260408083206001600160a01b038516845290915290205460ff1615610a1a5760008281526065602090815260408083206001600160a01b0385168085529252808320805460ff1916905551339285917ff6391f5c32d9c69d2a47ea670b442974b53935d1edc7fd64eb21e047a839171b9190a45050565b60008181526001830160205260408120548015611f69576000611e7a600183613278565b8554909150600090611e8e90600190613278565b90506000866000018281548110611eb557634e487b7160e01b600052603260045260246000fd5b9060005260206000200154905080876000018481548110611ee657634e487b7160e01b600052603260045260246000fd5b600091825260209091200155611efd83600161324c565b60008281526001890160205260409020558654879080611f2d57634e487b7160e01b600052603160045260246000fd5b60019003818190600052602060002001600090559055866001016000878152602001908152602001600020600090556001945050505050610983565b6000915050610983565b6000611f7e82610cb5565b9050611f8c81600084611cd7565b611f97600083611164565b6001600160a01b038116600090815260cc60205260408120805460019290611fc0908490613278565b9091555050600082815260cb6020526040808220805473ffffffffffffffffffffffffffffffffffffffff19169055518391906001600160a01b038416907fddf252ad1be2c89b69c2b068fc378daa952ba7f163c4a11628f55a4df523b3ef908390a45050565b61203081611f73565b60008181526101c360205260409020805461204a906132bb565b159050610b875760008181526101c360205260408120610b8791612db1565b610a1a82826040518060200160405280600081525061286d565b600082815260cb60205260409020546001600160a01b031661210d5760405162461bcd60e51b815260206004820152602e60248201527f45524337323155524953746f726167653a2055524920736574206f66206e6f6e60448201527f6578697374656e7420746f6b656e00000000000000000000000000000000000060648201526084016106ab565b60008281526101c36020908152604090912082516107fd92840190612d2d565b815460009082106121a65760405162461bcd60e51b815260206004820152602260248201527f456e756d657261626c655365743a20696e646578206f7574206f6620626f756e60448201527f647300000000000000000000000000000000000000000000000000000000000060648201526084016106ab565b8260000182815481106121c957634e487b7160e01b600052603260045260246000fd5b9060005260206000200154905092915050565b600054610100900460ff16806121f5575060005460ff16155b6122585760405162461bcd60e51b815260206004820152602e60248201527f496e697469616c697a61626c653a20636f6e747261637420697320616c72656160448201526d191e481a5b9a5d1a585b1a5e995960921b60648201526084016106ab565b600054610100900460ff1615801561227a576000805461ffff19166101011790555b8015610b87576000805461ff001916905550565b600054610100900460ff16806122a7575060005460ff16155b61230a5760405162461bcd60e51b815260206004820152602e60248201527f496e697469616c697a61626c653a20636f6e747261637420697320616c72656160448201526d191e481a5b9a5d1a585b1a5e995960921b60648201526084016106ab565b600054610100900460ff1615801561232c576000805461ffff19166101011790555b825161233f9060c9906020860190612d2d565b5081516123539060ca906020850190612d2d565b5080156107fd576000805461ff0019169055505050565b600054610100900460ff1680612383575060005460ff16155b6123e65760405162461bcd60e51b815260206004820152602e60248201527f496e697469616c697a61626c653a20636f6e747261637420697320616c72656160448201526d191e481a5b9a5d1a585b1a5e995960921b60648201526084016106ab565b600054610100900460ff16158015612408576000805461ffff19166101011790555b61015f805460ff191690558015610b87576000805461ff001916905550565b600054610100900460ff1680612440575060005460ff16155b6124a35760405162461bcd60e51b815260206004820152602e60248201527f496e697469616c697a61626c653a20636f6e747261637420697320616c72656160448201526d191e481a5b9a5d1a585b1a5e995960921b60648201526084016106ab565b600054610100900460ff161580156124c5576000805461ffff19166101011790555b81516124d9906101f6906020850190612d2d565b506124e66000335b6128f6565b6125107f9f2df0fed2c77648de5860a4cc508cd0818c85b8b8a1ab4ceeef8d981c8956a6336124e1565b61253a7f65d7a28e3265b37a6474929f336521b332c1681b933f6cb9f3376673440d862a336124e1565b8015610a1a576000805461ff00191690555050565b60006001600160a01b0384163b156126a757604051630a85bd0160e11b81526001600160a01b0385169063150b7a02906125939033908990889088906004016131fd565b602060405180830381600087803b1580156125ad57600080fd5b505af19250505080156125dd575060408051601f3d908101601f191682019092526125da918101906130d9565b60015b61268d573d80801561260b576040519150601f19603f3d011682016040523d82523d6000602084013e612610565b606091505b5080516126855760405162461bcd60e51b815260206004820152603260248201527f4552433732313a207472616e7366657220746f206e6f6e20455243373231526560448201527f63656976657220696d706c656d656e746572000000000000000000000000000060648201526084016106ab565b805181602001fd5b6001600160e01b031916630a85bd0160e11b1490506112df565b506001949350505050565b60606101f680546105a1906132bb565b600081815260cb60205260409020546060906001600160a01b031661274f5760405162461bcd60e51b815260206004820152602f60248201527f4552433732314d657461646174613a2055524920717565727920666f72206e6f60448201527f6e6578697374656e7420746f6b656e000000000000000000000000000000000060648201526084016106ab565b60006127596126b2565b905060008151116127795760405180602001604052806000815250610ec9565b8061278384612900565b6040516020016127949291906131ce565b6040516020818303038152906040529392505050565b60006001600160e01b031982167f5a05180f00000000000000000000000000000000000000000000000000000000148061058a575061058a82612a4f565b6127f3838383612ab6565b61015f5460ff16156107fd5760405162461bcd60e51b815260206004820152602b60248201527f4552433732315061757361626c653a20746f6b656e207472616e73666572207760448201527f68696c652070617573656400000000000000000000000000000000000000000060648201526084016106ab565b61287783836116db565b612884600084848461254f565b6107fd5760405162461bcd60e51b815260206004820152603260248201527f4552433732313a207472616e7366657220746f206e6f6e20455243373231526560448201527f63656976657220696d706c656d656e746572000000000000000000000000000060648201526084016106ab565b6108c6828261155b565b606081612941575060408051808201909152600181527f3000000000000000000000000000000000000000000000000000000000000000602082015261058d565b8160005b811561296b5780612955816132f6565b91506129649050600a83613264565b9150612945565b60008167ffffffffffffffff81111561299457634e487b7160e01b600052604160045260246000fd5b6040519080825280601f01601f1916602001820160405280156129be576020820181803683370190505b5090505b84156112df576129d3600183613278565b91506129e0600a86613311565b6129eb90603061324c565b60f81b818381518110612a0e57634e487b7160e01b600052603260045260246000fd5b60200101907effffffffffffffffffffffffffffffffffffffffffffffffffffffffffffff1916908160001a905350612a48600a86613264565b94506129c2565b60006001600160e01b031982167f7965db0b00000000000000000000000000000000000000000000000000000000148061058a57507f01ffc9a7000000000000000000000000000000000000000000000000000000006001600160e01b031983161461058a565b6001600160a01b038316612b1157612b0c8160fd8054600083815260fe60205260408120829055600182018355919091527f9346ac6dd7de6b96975fec380d4d994c4c12e6a8897544f22915316cc6cca2800155565b612b34565b816001600160a01b0316836001600160a01b031614612b3457612b348382612b73565b6001600160a01b038216612b5057612b4b81612c10565b6107fd565b826001600160a01b0316826001600160a01b0316146107fd576107fd8282612ce9565b60006001612b8084610d62565b612b8a9190613278565b600083815260fc6020526040902054909150808214612bdd576001600160a01b038416600090815260fb60209081526040808320858452825280832054848452818420819055835260fc90915290208190555b50600091825260fc602090815260408084208490556001600160a01b03909416835260fb81528383209183525290812055565b60fd54600090612c2290600190613278565b600083815260fe602052604081205460fd8054939450909284908110612c5857634e487b7160e01b600052603260045260246000fd5b906000526020600020015490508060fd8381548110612c8757634e487b7160e01b600052603260045260246000fd5b600091825260208083209091019290925582815260fe909152604080822084905585825281205560fd805480612ccd57634e487b7160e01b600052603160045260246000fd5b6001900381819060005260206000200160009055905550505050565b6000612cf483610d62565b6001600160a01b03909316600090815260fb60209081526040808320868452825280832085905593825260fc9052919091209190915550565b828054612d39906132bb565b90600052602060002090601f016020900481019282612d5b5760008555612da1565b82601f10612d7457805160ff1916838001178555612da1565b82800160010185558215612da1579182015b82811115612da1578251825591602001919060010190612d86565b50612dad929150612de9565b5090565b508054612dbd906132bb565b6000825580601f10612dcf5750610b87565b601f016020900490600052602060002090810190610b8791905b5b80821115612dad5760008155600101612dea565b600067ffffffffffffffff80841115612e1957612e19613351565b604051601f8501601f19908116603f01168101908282118183101715612e4157612e41613351565b81604052809350858152868686011115612e5a57600080fd5b858560208301376000602087830101525050509392505050565b80356001600160a01b038116811461058d57600080fd5b600082601f830112612e9b578081fd5b610ec983833560208501612dfe565b600060208284031215612ebb578081fd5b610ec982612e74565b60008060408385031215612ed6578081fd5b612edf83612e74565b9150612eed60208401612e74565b90509250929050565b600080600060608486031215612f0a578081fd5b612f1384612e74565b9250612f2160208501612e74565b9150604084013590509250925092565b60008060008060808587031215612f46578081fd5b612f4f85612e74565b9350612f5d60208601612e74565b925060408501359150606085013567ffffffffffffffff811115612f7f578182fd5b8501601f81018713612f8f578182fd5b612f9e87823560208401612dfe565b91505092959194509250565b60008060408385031215612fbc578182fd5b612fc583612e74565b915060208301358015158114612fd9578182fd5b809150509250929050565b60008060408385031215612ff6578182fd5b612fff83612e74565b946020939093013593505050565b600080600060608486031215613021578283fd5b61302a84612e74565b925060208401359150604084013567ffffffffffffffff81111561304c578182fd5b61305886828701612e8b565b9150509250925092565b600060208284031215613073578081fd5b5035919050565b6000806040838503121561308c578182fd5b82359150612eed60208401612e74565b600080604083850312156130ae578182fd5b50508035926020909101359150565b6000602082840312156130ce578081fd5b8135610ec981613367565b6000602082840312156130ea578081fd5b8151610ec981613367565b600060208284031215613106578081fd5b813567ffffffffffffffff81111561311c578182fd5b6112df84828501612e8b565b60008060006060848603121561313c578081fd5b833567ffffffffffffffff80821115613153578283fd5b61315f87838801612e8b565b94506020860135915080821115613174578283fd5b61318087838801612e8b565b93506040860135915080821115613195578283fd5b5061305886828701612e8b565b600081518084526131ba81602086016020860161328f565b601f01601f19169290920160200192915050565b600083516131e081846020880161328f565b8351908301906131f481836020880161328f565b01949350505050565b60006001600160a01b0380871683528086166020840152508360408301526080606083015261322f60808301846131a2565b9695505050505050565b600060208252610ec960208301846131a2565b6000821982111561325f5761325f613325565b500190565b6000826132735761327361333b565b500490565b60008282101561328a5761328a613325565b500390565b60005b838110156132aa578181015183820152602001613292565b8381111561106c5750506000910152565b600181811c908216806132cf57607f821691505b602082108114156132f057634e487b7160e01b600052602260045260246000fd5b50919050565b600060001982141561330a5761330a613325565b5060010190565b6000826133205761332061333b565b500690565b634e487b7160e01b600052601160045260246000fd5b634e487b7160e01b600052601260045260246000fd5b634e487b7160e01b600052604160045260246000fd5b6001600160e01b031981168114610b8757600080fdfea2646970667358221220278d212bf78688bd204549875856663a234adacf8a92abfd24918561c0f0216e64736f6c63430008030033",
  "immutableReferences": {},
  "source": "// SPDX-License-Identifier: MIT\n\npragma solidity ^0.8.0;\n\nimport \"@openzeppelin/contracts-upgradeable/token/ERC721/ERC721Upgradeable.sol\";\nimport \"@openzeppelin/contracts-upgradeable/token/ERC721/extensions/ERC721URIStorageUpgradeable.sol\";\nimport \"@openzeppelin/contracts-upgradeable/token/ERC721/extensions/ERC721EnumerableUpgradeable.sol\";\nimport \"@openzeppelin/contracts-upgradeable/token/ERC721/extensions/ERC721BurnableUpgradeable.sol\";\nimport \"@openzeppelin/contracts-upgradeable/token/ERC721/extensions/ERC721PausableUpgradeable.sol\";\nimport \"@openzeppelin/contracts-upgradeable/access/AccessControlEnumerableUpgradeable.sol\";\nimport \"@openzeppelin/contracts-upgradeable/utils/ContextUpgradeable.sol\";\nimport \"@openzeppelin/contracts-upgradeable/utils/CountersUpgradeable.sol\";\nimport \"@openzeppelin/contracts-upgradeable/proxy/utils/Initializable.sol\";\n\n/**\n * @dev {ERC721} token, including:\n *\n *  - ability for holders to burn (destroy) their tokens\n *  - a minter role that allows for token minting (creation)\n *  - a pauser role that allows to stop all token transfers\n *  - token ID and URI autogeneration\n *\n * This contract uses {AccessControl} to lock permissioned functions using the\n * different roles - head to its documentation for details.\n *\n * The account that deploys the contract will be granted the minter and pauser\n * roles, as well as the default admin role, which will let it grant both minter\n * and pauser roles to other accounts.\n */\ncontract ERC721PresetMinterPauserAutoIdUpgradeable is\n    Initializable,\n    ContextUpgradeable,\n    AccessControlEnumerableUpgradeable,\n    ERC721EnumerableUpgradeable,\n    ERC721BurnableUpgradeable,\n    ERC721PausableUpgradeable,\n    ERC721URIStorageUpgradeable\n{\n    function initialize(\n        string memory name,\n        string memory symbol,\n        string memory baseTokenURI\n    ) public virtual initializer {\n        __ERC721PresetMinterPauserAutoId_init(name, symbol, baseTokenURI);\n    }\n\n    using CountersUpgradeable for CountersUpgradeable.Counter;\n\n    bytes32 public constant MINTER_ROLE = keccak256(\"MINTER_ROLE\");\n    bytes32 public constant PAUSER_ROLE = keccak256(\"PAUSER_ROLE\");\n\n    CountersUpgradeable.Counter private _tokenIdTracker;\n\n    string private _baseTokenURI;\n\n    /**\n     * @dev Grants `DEFAULT_ADMIN_ROLE`, `MINTER_ROLE` and `PAUSER_ROLE` to the\n     * account that deploys the contract.\n     *\n     * Token URIs will be autogenerated based on `baseURI` and their token IDs.\n     * See {ERC721-tokenURI}.\n     */\n    function __ERC721PresetMinterPauserAutoId_init(\n        string memory name,\n        string memory symbol,\n        string memory baseTokenURI\n    ) internal initializer {\n        __Context_init_unchained();\n        __ERC165_init_unchained();\n        __AccessControl_init_unchained();\n        __AccessControlEnumerable_init_unchained();\n        __ERC721_init_unchained(name, symbol);\n        __ERC721Enumerable_init_unchained();\n        __ERC721Burnable_init_unchained();\n        __Pausable_init_unchained();\n        __ERC721Pausable_init_unchained();\n        __ERC721PresetMinterPauserAutoId_init_unchained(baseTokenURI);\n        __ERC721URIStorage_init_unchained();\n    }\n\n    function __ERC721PresetMinterPauserAutoId_init_unchained(\n        string memory baseTokenURI\n    ) internal initializer {\n        _baseTokenURI = baseTokenURI;\n\n        _setupRole(DEFAULT_ADMIN_ROLE, _msgSender());\n\n        _setupRole(MINTER_ROLE, _msgSender());\n        _setupRole(PAUSER_ROLE, _msgSender());\n    }\n\n    function _baseURI() internal view virtual override returns (string memory) {\n        return _baseTokenURI;\n    }\n\n    /**\n     * @dev Creates a new token for `to`. Its token ID will be automatically\n     * assigned (and available on the emitted {IERC721-Transfer} event), and the token\n     * URI autogenerated based on the base URI passed at construction.\n     *\n     * See {ERC721-_mint}.\n     *\n     * Requirements:\n     *\n     * - the caller must have the `MINTER_ROLE`.\n     */\n    function mint(address to) public virtual {\n        /*  \n        require(\n            hasRole(MINTER_ROLE, _msgSender()),\n            \"ERC721PresetMinterPauserAutoId: must have minter role to mint\"\n        ); \n        */\n\n        // We cannot just use balanceOf to create the new tokenId because tokens\n        // can be burned (destroyed), so we need a separate counter.\n        _mint(to, _tokenIdTracker.current());\n        _tokenIdTracker.increment();\n    }\n\n    function _burn(uint256 tokenId)\n        internal\n        override(ERC721URIStorageUpgradeable, ERC721Upgradeable)\n    {\n        ERC721Upgradeable._burn(tokenId);\n        ERC721URIStorageUpgradeable._burn(tokenId);\n    }\n\n    /**\n     * @dev See {IERC721Metadata-tokenURI}.\n     */\n    function tokenURI(uint256 tokenId)\n        public\n        view\n        virtual\n        override(ERC721URIStorageUpgradeable, ERC721Upgradeable)\n        returns (string memory)\n    {\n        return ERC721URIStorageUpgradeable.tokenURI(tokenId);\n    }\n\n    /**\n     * @dev polynetwork CrossChainNFTMapping\n     */\n    function mintWithURI(\n        address to,\n        uint256 tokenId,\n        string memory uri\n    ) external {\n        require(!_exists(tokenId), \"token id already exist\");\n        _safeMint(to, tokenId);\n        _setTokenURI(tokenId, uri);\n    }\n\n    function _safeMint(address to, uint256 tokenId) internal virtual override {\n        super._safeMint(to, tokenId);\n    }\n\n    /**\n     * @dev update tokenURI\n     */\n    function _setTokenURI(uint256 tokenId, string memory tokenURI)\n        internal\n        virtual\n        override\n    {\n        ERC721URIStorageUpgradeable._setTokenURI(tokenId, tokenURI);\n    }\n\n    function getCurrentCounter() public view returns (uint256) {\n        return _tokenIdTracker.current();\n    }\n\n    function getLastTokenID() public view returns (uint256) {\n        if (_tokenIdTracker.current() == 0) {\n            return _tokenIdTracker.current();\n        } else return _tokenIdTracker.current() - 1;\n    }\n\n    function setBaseTokenURI(string memory baseTokenURI) public {\n        require(\n            hasRole(DEFAULT_ADMIN_ROLE, _msgSender()),\n            \"setBaseTokenURI: must have ADMIN role to change this\"\n        );\n        _baseTokenURI = baseTokenURI;\n    }\n\n    /**\n     * @dev Pauses all token transfers.\n     *\n     * See {ERC721Pausable} and {Pausable-_pause}.\n     *\n     * Requirements:\n     *\n     * - the caller must have the `PAUSER_ROLE`.\n     */\n    function pause() public virtual {\n        require(\n            hasRole(PAUSER_ROLE, _msgSender()),\n            \"ERC721PresetMinterPauserAutoId: must have pauser role to pause\"\n        );\n        _pause();\n    }\n\n    /**\n     * @dev Unpauses all token transfers.\n     *\n     * See {ERC721Pausable} and {Pausable-_unpause}.\n     *\n     * Requirements:\n     *\n     * - the caller must have the `PAUSER_ROLE`.\n     */\n    function unpause() public virtual {\n        require(\n            hasRole(PAUSER_ROLE, _msgSender()),\n            \"ERC721PresetMinterPauserAutoId: must have pauser role to unpause\"\n        );\n        _unpause();\n    }\n\n    function _beforeTokenTransfer(\n        address from,\n        address to,\n        uint256 tokenId\n    )\n        internal\n        virtual\n        override(\n            ERC721Upgradeable,\n            ERC721EnumerableUpgradeable,\n            ERC721PausableUpgradeable\n        )\n    {\n        super._beforeTokenTransfer(from, to, tokenId);\n    }\n\n    /**\n     * @dev See {IERC165-supportsInterface}.\n     */\n    function supportsInterface(bytes4 interfaceId)\n        public\n        view\n        virtual\n        override(\n            AccessControlEnumerableUpgradeable,\n            ERC721Upgradeable,\n            ERC721EnumerableUpgradeable\n        )\n        returns (bool)\n    {\n        return super.supportsInterface(interfaceId);\n    }\n\n    uint256[48] private __gap;\n}\n",
  "sourcePath": "/Users/selimerunkut/dev_freelance/GhostMarketContractBSC/contracts/ERC721PresetMinterPauserAutoIdUpgradeable.sol",
  "compiler": {
    "name": "solc",
    "version": "0.8.3+commit.8d00100c.Emscripten.clang"
  },
  "schemaVersion": "3.4.1",
  "updatedAt": "2021-05-13T19:27:34.763Z",
  "devdoc": {
    "details": "{ERC721} token, including:  - ability for holders to burn (destroy) their tokens  - a minter role that allows for token minting (creation)  - a pauser role that allows to stop all token transfers  - token ID and URI autogeneration This contract uses {AccessControl} to lock permissioned functions using the different roles - head to its documentation for details. The account that deploys the contract will be granted the minter and pauser roles, as well as the default admin role, which will let it grant both minter and pauser roles to other accounts.",
    "kind": "dev",
    "methods": {
      "approve(address,uint256)": {
        "details": "See {IERC721-approve}."
      },
      "balanceOf(address)": {
        "details": "See {IERC721-balanceOf}."
      },
      "burn(uint256)": {
        "details": "Burns `tokenId`. See {ERC721-_burn}. Requirements: - The caller must own `tokenId` or be an approved operator."
      },
      "getApproved(uint256)": {
        "details": "See {IERC721-getApproved}."
      },
      "getRoleAdmin(bytes32)": {
        "details": "Returns the admin role that controls `role`. See {grantRole} and {revokeRole}. To change a role's admin, use {_setRoleAdmin}."
      },
      "getRoleMember(bytes32,uint256)": {
        "details": "Returns one of the accounts that have `role`. `index` must be a value between 0 and {getRoleMemberCount}, non-inclusive. Role bearers are not sorted in any particular way, and their ordering may change at any point. WARNING: When using {getRoleMember} and {getRoleMemberCount}, make sure you perform all queries on the same block. See the following https://forum.openzeppelin.com/t/iterating-over-elements-on-enumerableset-in-openzeppelin-contracts/2296[forum post] for more information."
      },
      "getRoleMemberCount(bytes32)": {
        "details": "Returns the number of accounts that have `role`. Can be used together with {getRoleMember} to enumerate all bearers of a role."
      },
      "grantRole(bytes32,address)": {
        "details": "Overload {grantRole} to track enumerable memberships"
      },
      "hasRole(bytes32,address)": {
        "details": "Returns `true` if `account` has been granted `role`."
      },
      "isApprovedForAll(address,address)": {
        "details": "See {IERC721-isApprovedForAll}."
      },
      "mint(address)": {
        "details": "Creates a new token for `to`. Its token ID will be automatically assigned (and available on the emitted {IERC721-Transfer} event), and the token URI autogenerated based on the base URI passed at construction. See {ERC721-_mint}. Requirements: - the caller must have the `MINTER_ROLE`."
      },
      "mintWithURI(address,uint256,string)": {
        "details": "polynetwork CrossChainNFTMapping"
      },
      "name()": {
        "details": "See {IERC721Metadata-name}."
      },
      "ownerOf(uint256)": {
        "details": "See {IERC721-ownerOf}."
      },
      "pause()": {
        "details": "Pauses all token transfers. See {ERC721Pausable} and {Pausable-_pause}. Requirements: - the caller must have the `PAUSER_ROLE`."
      },
      "paused()": {
        "details": "Returns true if the contract is paused, and false otherwise."
      },
      "renounceRole(bytes32,address)": {
        "details": "Overload {renounceRole} to track enumerable memberships"
      },
      "revokeRole(bytes32,address)": {
        "details": "Overload {revokeRole} to track enumerable memberships"
      },
      "safeTransferFrom(address,address,uint256)": {
        "details": "See {IERC721-safeTransferFrom}."
      },
      "safeTransferFrom(address,address,uint256,bytes)": {
        "details": "See {IERC721-safeTransferFrom}."
      },
      "setApprovalForAll(address,bool)": {
        "details": "See {IERC721-setApprovalForAll}."
      },
      "supportsInterface(bytes4)": {
        "details": "See {IERC165-supportsInterface}."
      },
      "symbol()": {
        "details": "See {IERC721Metadata-symbol}."
      },
      "tokenByIndex(uint256)": {
        "details": "See {IERC721Enumerable-tokenByIndex}."
      },
      "tokenOfOwnerByIndex(address,uint256)": {
        "details": "See {IERC721Enumerable-tokenOfOwnerByIndex}."
      },
      "tokenURI(uint256)": {
        "details": "See {IERC721Metadata-tokenURI}."
      },
      "totalSupply()": {
        "details": "See {IERC721Enumerable-totalSupply}."
      },
      "transferFrom(address,address,uint256)": {
        "details": "See {IERC721-transferFrom}."
      },
      "unpause()": {
        "details": "Unpauses all token transfers. See {ERC721Pausable} and {Pausable-_unpause}. Requirements: - the caller must have the `PAUSER_ROLE`."
      }
    },
    "version": 1
  },
  "userdoc": {
    "kind": "user",
    "methods": {},
    "version": 1
  }
}