{
  "contractName": "ERC721PresetMinterPauserAutoIdUpgradeable",
  "abi": [
    {
      "anonymous": false,
      "inputs": [
        {
          "indexed": true,
          "internalType": "address",
          "name": "owner",
          "type": "address"
        },
        {
          "indexed": true,
          "internalType": "address",
          "name": "approved",
          "type": "address"
        },
        {
          "indexed": true,
          "internalType": "uint256",
          "name": "tokenId",
          "type": "uint256"
        }
      ],
      "name": "Approval",
      "type": "event"
    },
    {
      "anonymous": false,
      "inputs": [
        {
          "indexed": true,
          "internalType": "address",
          "name": "owner",
          "type": "address"
        },
        {
          "indexed": true,
          "internalType": "address",
          "name": "operator",
          "type": "address"
        },
        {
          "indexed": false,
          "internalType": "bool",
          "name": "approved",
          "type": "bool"
        }
      ],
      "name": "ApprovalForAll",
      "type": "event"
    },
    {
      "anonymous": false,
      "inputs": [
        {
          "indexed": false,
          "internalType": "address",
          "name": "account",
          "type": "address"
        }
      ],
      "name": "Paused",
      "type": "event"
    },
    {
      "anonymous": false,
      "inputs": [
        {
          "indexed": true,
          "internalType": "bytes32",
          "name": "role",
          "type": "bytes32"
        },
        {
          "indexed": true,
          "internalType": "bytes32",
          "name": "previousAdminRole",
          "type": "bytes32"
        },
        {
          "indexed": true,
          "internalType": "bytes32",
          "name": "newAdminRole",
          "type": "bytes32"
        }
      ],
      "name": "RoleAdminChanged",
      "type": "event"
    },
    {
      "anonymous": false,
      "inputs": [
        {
          "indexed": true,
          "internalType": "bytes32",
          "name": "role",
          "type": "bytes32"
        },
        {
          "indexed": true,
          "internalType": "address",
          "name": "account",
          "type": "address"
        },
        {
          "indexed": true,
          "internalType": "address",
          "name": "sender",
          "type": "address"
        }
      ],
      "name": "RoleGranted",
      "type": "event"
    },
    {
      "anonymous": false,
      "inputs": [
        {
          "indexed": true,
          "internalType": "bytes32",
          "name": "role",
          "type": "bytes32"
        },
        {
          "indexed": true,
          "internalType": "address",
          "name": "account",
          "type": "address"
        },
        {
          "indexed": true,
          "internalType": "address",
          "name": "sender",
          "type": "address"
        }
      ],
      "name": "RoleRevoked",
      "type": "event"
    },
    {
      "anonymous": false,
      "inputs": [
        {
          "indexed": true,
          "internalType": "address",
          "name": "from",
          "type": "address"
        },
        {
          "indexed": true,
          "internalType": "address",
          "name": "to",
          "type": "address"
        },
        {
          "indexed": true,
          "internalType": "uint256",
          "name": "tokenId",
          "type": "uint256"
        }
      ],
      "name": "Transfer",
      "type": "event"
    },
    {
      "anonymous": false,
      "inputs": [
        {
          "indexed": false,
          "internalType": "address",
          "name": "account",
          "type": "address"
        }
      ],
      "name": "Unpaused",
      "type": "event"
    },
    {
      "inputs": [],
      "name": "DEFAULT_ADMIN_ROLE",
      "outputs": [
        {
          "internalType": "bytes32",
          "name": "",
          "type": "bytes32"
        }
      ],
      "stateMutability": "view",
      "type": "function"
    },
    {
      "inputs": [],
      "name": "MINTER_ROLE",
      "outputs": [
        {
          "internalType": "bytes32",
          "name": "",
          "type": "bytes32"
        }
      ],
      "stateMutability": "view",
      "type": "function"
    },
    {
      "inputs": [],
      "name": "PAUSER_ROLE",
      "outputs": [
        {
          "internalType": "bytes32",
          "name": "",
          "type": "bytes32"
        }
      ],
      "stateMutability": "view",
      "type": "function"
    },
    {
      "inputs": [],
      "name": "POLYNETWORK_ROLE",
      "outputs": [
        {
          "internalType": "bytes32",
          "name": "",
          "type": "bytes32"
        }
      ],
      "stateMutability": "view",
      "type": "function"
    },
    {
      "inputs": [
        {
          "internalType": "address",
          "name": "to",
          "type": "address"
        },
        {
          "internalType": "uint256",
          "name": "tokenId",
          "type": "uint256"
        }
      ],
      "name": "approve",
      "outputs": [],
      "stateMutability": "nonpayable",
      "type": "function"
    },
    {
      "inputs": [
        {
          "internalType": "address",
          "name": "owner",
          "type": "address"
        }
      ],
      "name": "balanceOf",
      "outputs": [
        {
          "internalType": "uint256",
          "name": "",
          "type": "uint256"
        }
      ],
      "stateMutability": "view",
      "type": "function"
    },
    {
      "inputs": [
        {
          "internalType": "uint256",
          "name": "tokenId",
          "type": "uint256"
        }
      ],
      "name": "burn",
      "outputs": [],
      "stateMutability": "nonpayable",
      "type": "function"
    },
    {
      "inputs": [
        {
          "internalType": "uint256",
          "name": "tokenId",
          "type": "uint256"
        }
      ],
      "name": "getApproved",
      "outputs": [
        {
          "internalType": "address",
          "name": "",
          "type": "address"
        }
      ],
      "stateMutability": "view",
      "type": "function"
    },
    {
      "inputs": [
        {
          "internalType": "bytes32",
          "name": "role",
          "type": "bytes32"
        }
      ],
      "name": "getRoleAdmin",
      "outputs": [
        {
          "internalType": "bytes32",
          "name": "",
          "type": "bytes32"
        }
      ],
      "stateMutability": "view",
      "type": "function"
    },
    {
      "inputs": [
        {
          "internalType": "bytes32",
          "name": "role",
          "type": "bytes32"
        },
        {
          "internalType": "uint256",
          "name": "index",
          "type": "uint256"
        }
      ],
      "name": "getRoleMember",
      "outputs": [
        {
          "internalType": "address",
          "name": "",
          "type": "address"
        }
      ],
      "stateMutability": "view",
      "type": "function"
    },
    {
      "inputs": [
        {
          "internalType": "bytes32",
          "name": "role",
          "type": "bytes32"
        }
      ],
      "name": "getRoleMemberCount",
      "outputs": [
        {
          "internalType": "uint256",
          "name": "",
          "type": "uint256"
        }
      ],
      "stateMutability": "view",
      "type": "function"
    },
    {
      "inputs": [
        {
          "internalType": "bytes32",
          "name": "role",
          "type": "bytes32"
        },
        {
          "internalType": "address",
          "name": "account",
          "type": "address"
        }
      ],
      "name": "grantRole",
      "outputs": [],
      "stateMutability": "nonpayable",
      "type": "function"
    },
    {
      "inputs": [
        {
          "internalType": "bytes32",
          "name": "role",
          "type": "bytes32"
        },
        {
          "internalType": "address",
          "name": "account",
          "type": "address"
        }
      ],
      "name": "hasRole",
      "outputs": [
        {
          "internalType": "bool",
          "name": "",
          "type": "bool"
        }
      ],
      "stateMutability": "view",
      "type": "function"
    },
    {
      "inputs": [
        {
          "internalType": "address",
          "name": "owner",
          "type": "address"
        },
        {
          "internalType": "address",
          "name": "operator",
          "type": "address"
        }
      ],
      "name": "isApprovedForAll",
      "outputs": [
        {
          "internalType": "bool",
          "name": "",
          "type": "bool"
        }
      ],
      "stateMutability": "view",
      "type": "function"
    },
    {
      "inputs": [],
      "name": "name",
      "outputs": [
        {
          "internalType": "string",
          "name": "",
          "type": "string"
        }
      ],
      "stateMutability": "view",
      "type": "function"
    },
    {
      "inputs": [
        {
          "internalType": "uint256",
          "name": "tokenId",
          "type": "uint256"
        }
      ],
      "name": "ownerOf",
      "outputs": [
        {
          "internalType": "address",
          "name": "",
          "type": "address"
        }
      ],
      "stateMutability": "view",
      "type": "function"
    },
    {
      "inputs": [],
      "name": "paused",
      "outputs": [
        {
          "internalType": "bool",
          "name": "",
          "type": "bool"
        }
      ],
      "stateMutability": "view",
      "type": "function"
    },
    {
      "inputs": [
        {
          "internalType": "bytes32",
          "name": "role",
          "type": "bytes32"
        },
        {
          "internalType": "address",
          "name": "account",
          "type": "address"
        }
      ],
      "name": "renounceRole",
      "outputs": [],
      "stateMutability": "nonpayable",
      "type": "function"
    },
    {
      "inputs": [
        {
          "internalType": "bytes32",
          "name": "role",
          "type": "bytes32"
        },
        {
          "internalType": "address",
          "name": "account",
          "type": "address"
        }
      ],
      "name": "revokeRole",
      "outputs": [],
      "stateMutability": "nonpayable",
      "type": "function"
    },
    {
      "inputs": [
        {
          "internalType": "address",
          "name": "from",
          "type": "address"
        },
        {
          "internalType": "address",
          "name": "to",
          "type": "address"
        },
        {
          "internalType": "uint256",
          "name": "tokenId",
          "type": "uint256"
        }
      ],
      "name": "safeTransferFrom",
      "outputs": [],
      "stateMutability": "nonpayable",
      "type": "function"
    },
    {
      "inputs": [
        {
          "internalType": "address",
          "name": "from",
          "type": "address"
        },
        {
          "internalType": "address",
          "name": "to",
          "type": "address"
        },
        {
          "internalType": "uint256",
          "name": "tokenId",
          "type": "uint256"
        },
        {
          "internalType": "bytes",
          "name": "_data",
          "type": "bytes"
        }
      ],
      "name": "safeTransferFrom",
      "outputs": [],
      "stateMutability": "nonpayable",
      "type": "function"
    },
    {
      "inputs": [
        {
          "internalType": "address",
          "name": "operator",
          "type": "address"
        },
        {
          "internalType": "bool",
          "name": "approved",
          "type": "bool"
        }
      ],
      "name": "setApprovalForAll",
      "outputs": [],
      "stateMutability": "nonpayable",
      "type": "function"
    },
    {
      "inputs": [],
      "name": "symbol",
      "outputs": [
        {
          "internalType": "string",
          "name": "",
          "type": "string"
        }
      ],
      "stateMutability": "view",
      "type": "function"
    },
    {
      "inputs": [
        {
          "internalType": "uint256",
          "name": "index",
          "type": "uint256"
        }
      ],
      "name": "tokenByIndex",
      "outputs": [
        {
          "internalType": "uint256",
          "name": "",
          "type": "uint256"
        }
      ],
      "stateMutability": "view",
      "type": "function"
    },
    {
      "inputs": [
        {
          "internalType": "address",
          "name": "owner",
          "type": "address"
        },
        {
          "internalType": "uint256",
          "name": "index",
          "type": "uint256"
        }
      ],
      "name": "tokenOfOwnerByIndex",
      "outputs": [
        {
          "internalType": "uint256",
          "name": "",
          "type": "uint256"
        }
      ],
      "stateMutability": "view",
      "type": "function"
    },
    {
      "inputs": [],
      "name": "totalSupply",
      "outputs": [
        {
          "internalType": "uint256",
          "name": "",
          "type": "uint256"
        }
      ],
      "stateMutability": "view",
      "type": "function"
    },
    {
      "inputs": [
        {
          "internalType": "address",
          "name": "from",
          "type": "address"
        },
        {
          "internalType": "address",
          "name": "to",
          "type": "address"
        },
        {
          "internalType": "uint256",
          "name": "tokenId",
          "type": "uint256"
        }
      ],
      "name": "transferFrom",
      "outputs": [],
      "stateMutability": "nonpayable",
      "type": "function"
    },
    {
      "inputs": [
        {
          "internalType": "string",
          "name": "name",
          "type": "string"
        },
        {
          "internalType": "string",
          "name": "symbol",
          "type": "string"
        },
        {
          "internalType": "string",
          "name": "baseTokenURI",
          "type": "string"
        }
      ],
      "name": "initialize",
      "outputs": [],
      "stateMutability": "nonpayable",
      "type": "function"
    },
    {
      "inputs": [
        {
          "internalType": "uint256",
          "name": "tokenId",
          "type": "uint256"
        }
      ],
      "name": "tokenURI",
      "outputs": [
        {
          "internalType": "string",
          "name": "",
          "type": "string"
        }
      ],
      "stateMutability": "view",
      "type": "function"
    },
    {
      "inputs": [
        {
          "internalType": "address",
          "name": "to",
          "type": "address"
        },
        {
          "internalType": "uint256",
          "name": "tokenId",
          "type": "uint256"
        },
        {
          "internalType": "string",
          "name": "uri",
          "type": "string"
        }
      ],
      "name": "mintWithURI",
      "outputs": [],
      "stateMutability": "nonpayable",
      "type": "function"
    },
    {
      "inputs": [],
      "name": "getCurrentCounter",
      "outputs": [
        {
          "internalType": "uint256",
          "name": "",
          "type": "uint256"
        }
      ],
      "stateMutability": "view",
      "type": "function"
    },
    {
      "inputs": [],
      "name": "getLastTokenID",
      "outputs": [
        {
          "internalType": "uint256",
          "name": "",
          "type": "uint256"
        }
      ],
      "stateMutability": "view",
      "type": "function"
    },
    {
      "inputs": [
        {
          "internalType": "string",
          "name": "baseTokenURI",
          "type": "string"
        }
      ],
      "name": "setBaseTokenURI",
      "outputs": [],
      "stateMutability": "nonpayable",
      "type": "function"
    },
    {
      "inputs": [],
      "name": "pause",
      "outputs": [],
      "stateMutability": "nonpayable",
      "type": "function"
    },
    {
      "inputs": [],
      "name": "unpause",
      "outputs": [],
      "stateMutability": "nonpayable",
      "type": "function"
    },
    {
      "inputs": [
        {
          "internalType": "bytes4",
          "name": "interfaceId",
          "type": "bytes4"
        }
      ],
      "name": "supportsInterface",
      "outputs": [
        {
          "internalType": "bool",
          "name": "",
          "type": "bool"
        }
      ],
      "stateMutability": "view",
      "type": "function"
    }
  ],
  "bytecode": "0x608060405234801561001057600080fd5b50613462806100206000396000f3fe608060405234801561001057600080fd5b506004361061025c5760003560e01c80636352211e11610145578063a22cb465116100bd578063ca15c8731161008c578063d547741f11610071578063d547741f1461051d578063e63ab1e914610530578063e985e9c5146105575761025c565b8063ca15c873146104e3578063d5391393146104f65761025c565b8063a22cb46514610497578063a6487c53146104aa578063b88d4fde146104bd578063c87b56dd146104d05761025c565b80639010d07c1161011457806395d89b41116100f957806395d89b41146104605780639ceea66514610468578063a217fddf1461048f5761025c565b80639010d07c1461041457806391d14854146104275761025c565b80636352211e146103de57806370a08231146103f157806373448c46146104045780638456cb591461040c5761025c565b80632f745c59116101d857806342842e0e116101a75780634a99950b1161018c5780634a99950b146103ac5780634f6ccce7146103bf5780635c975abb146103d25761025c565b806342842e0e1461038657806342966c68146103995761025c565b80632f745c591461034557806330176e131461035857806336568abe1461036b5780633f4ba83a1461037e5761025c565b80630e0941371161022f57806323b872dd1161021457806323b872dd146102fc578063248a9ca31461030f5780632f2ff15d146103325761025c565b80630e094137146102de57806318160ddd146102f45761025c565b806301ffc9a71461026157806306fdde0314610289578063081812fc1461029e578063095ea7b3146102c9575b600080fd5b61027461026f36600461316c565b610593565b60405190151581526020015b60405180910390f35b6102916105a6565b60405161028091906132e8565b6102b16102ac366004613111565b610639565b6040516001600160a01b039091168152602001610280565b6102dc6102d7366004613093565b6106e4565b005b6102e6610816565b604051908152602001610280565b60fd546102e6565b6102dc61030a366004612fa5565b610848565b6102e661031d366004613111565b60009081526065602052604090206001015490565b6102dc610340366004613129565b6108d0565b6102e6610353366004613093565b6108f2565b6102dc6103663660046131a4565b61099d565b6102dc610379366004613129565b610a32565b6102dc610a54565b6102dc610394366004612fa5565b610afc565b6102dc6103a7366004613111565b610b17565b6102dc6103ba3660046130bc565b610b9e565b6102e66103cd366004613111565b610cb3565b61015f5460ff16610274565b6102b16103ec366004613111565b610d65565b6102e66103ff366004612f59565b610df0565b6102e6610e8a565b6102dc610e9b565b6102b161042236600461314b565b610f3f565b610274610435366004613129565b60009182526065602090815260408084206001600160a01b0393909316845291905290205460ff1690565b610291610f5e565b6102e67f8a9d57248f1015d5cac20111fe2512477434cf493627e5e959ca751e593d807981565b6102e6600081565b6102dc6104a5366004613059565b610f6d565b6102dc6104b83660046131d7565b61103f565b6102dc6104cb366004612fe0565b611100565b6102916104de366004613111565b611188565b6102e66104f1366004613111565b611193565b6102e67f9f2df0fed2c77648de5860a4cc508cd0818c85b8b8a1ab4ceeef8d981c8956a681565b6102dc61052b366004613129565b6111aa565b6102e67f65d7a28e3265b37a6474929f336521b332c1681b933f6cb9f3376673440d862a81565b610274610565366004612f73565b6001600160a01b03918216600090815260ce6020908152604080832093909416825291909152205460ff1690565b600061059e826111b4565b90505b919050565b606060c980546105b59061336a565b80601f01602080910402602001604051908101604052809291908181526020018280546105e19061336a565b801561062e5780601f106106035761010080835404028352916020019161062e565b820191906000526020600020905b81548152906001019060200180831161061157829003601f168201915b505050505090505b90565b600081815260cb60205260408120546001600160a01b03166106c85760405162461bcd60e51b815260206004820152602c60248201527f4552433732313a20617070726f76656420717565727920666f72206e6f6e657860448201527f697374656e7420746f6b656e000000000000000000000000000000000000000060648201526084015b60405180910390fd5b50600090815260cd60205260409020546001600160a01b031690565b60006106ef82610d65565b9050806001600160a01b0316836001600160a01b031614156107795760405162461bcd60e51b815260206004820152602160248201527f4552433732313a20617070726f76616c20746f2063757272656e74206f776e6560448201527f720000000000000000000000000000000000000000000000000000000000000060648201526084016106bf565b336001600160a01b038216148061079557506107958133610565565b6108075760405162461bcd60e51b815260206004820152603860248201527f4552433732313a20617070726f76652063616c6c6572206973206e6f74206f7760448201527f6e6572206e6f7220617070726f76656420666f7220616c6c000000000000000060648201526084016106bf565b61081183836111f2565b505050565b60006108226101f55490565b610832576101f5545b9050610636565b600161083e6101f55490565b61082b9190613327565b610853335b8261126d565b6108c55760405162461bcd60e51b815260206004820152603160248201527f4552433732313a207472616e736665722063616c6c6572206973206e6f74206f60448201527f776e6572206e6f7220617070726f76656400000000000000000000000000000060648201526084016106bf565b610811838383611375565b6108da828261155a565b600082815260976020526040902061081190826115f3565b60006108fd83610df0565b82106109715760405162461bcd60e51b815260206004820152602b60248201527f455243373231456e756d657261626c653a206f776e657220696e646578206f7560448201527f74206f6620626f756e647300000000000000000000000000000000000000000060648201526084016106bf565b506001600160a01b038216600090815260fb602090815260408083208484529091529020545b92915050565b6109a8600033610435565b610a1a5760405162461bcd60e51b815260206004820152603460248201527f73657442617365546f6b656e5552493a206d75737420686176652041444d494e60448201527f20726f6c6520746f206368616e6765207468697300000000000000000000000060648201526084016106bf565b8051610a2e906101f6906020840190612ddc565b5050565b610a3c8282611608565b60008281526097602052604090206108119082611690565b610a7e7f65d7a28e3265b37a6474929f336521b332c1681b933f6cb9f3376673440d862a33610435565b610af2576040805162461bcd60e51b81526020600482015260248101919091527f4552433732315072657365744d696e7465725061757365724175746f49643a2060448201527f6d75737420686176652070617573657220726f6c6520746f20756e706175736560648201526084016106bf565b610afa6116a5565b565b61081183838360405180602001604052806000815250611100565b610b203361084d565b610b925760405162461bcd60e51b815260206004820152603060248201527f4552433732314275726e61626c653a2063616c6c6572206973206e6f74206f7760448201527f6e6572206e6f7220617070726f7665640000000000000000000000000000000060648201526084016106bf565b610b9b81611743565b50565b610bc87f8a9d57248f1015d5cac20111fe2512477434cf493627e5e959ca751e593d807933610435565b610c3a5760405162461bcd60e51b815260206004820152603460248201527f6d696e74576974685552493a206d757374206861766520504f4c594e4554574f60448201527f524b5f524f4c4520726f6c6520746f206d696e7400000000000000000000000060648201526084016106bf565b600082815260cb60205260409020546001600160a01b031615610c9f5760405162461bcd60e51b815260206004820152601660248201527f746f6b656e20696420616c72656164792065786973740000000000000000000060448201526064016106bf565b610ca9838361174c565b6108118282611756565b6000610cbe60fd5490565b8210610d325760405162461bcd60e51b815260206004820152602c60248201527f455243373231456e756d657261626c653a20676c6f62616c20696e646578206f60448201527f7574206f6620626f756e6473000000000000000000000000000000000000000060648201526084016106bf565b60fd8281548110610d5357634e487b7160e01b600052603260045260246000fd5b90600052602060002001549050919050565b600081815260cb60205260408120546001600160a01b03168061059e5760405162461bcd60e51b815260206004820152602960248201527f4552433732313a206f776e657220717565727920666f72206e6f6e657869737460448201527f656e7420746f6b656e000000000000000000000000000000000000000000000060648201526084016106bf565b60006001600160a01b038216610e6e5760405162461bcd60e51b815260206004820152602a60248201527f4552433732313a2062616c616e636520717565727920666f7220746865207a6560448201527f726f20616464726573730000000000000000000000000000000000000000000060648201526084016106bf565b506001600160a01b0316600090815260cc602052604090205490565b6000610e966101f55490565b905090565b610ec57f65d7a28e3265b37a6474929f336521b332c1681b933f6cb9f3376673440d862a33610435565b610f375760405162461bcd60e51b815260206004820152603e60248201527f4552433732315072657365744d696e7465725061757365724175746f49643a2060448201527f6d75737420686176652070617573657220726f6c6520746f207061757365000060648201526084016106bf565b610afa611760565b6000828152609760205260408120610f5790836117ea565b9392505050565b606060ca80546105b59061336a565b6001600160a01b038216331415610fc65760405162461bcd60e51b815260206004820152601960248201527f4552433732313a20617070726f766520746f2063616c6c65720000000000000060448201526064016106bf565b33600081815260ce602090815260408083206001600160a01b0387168085529252909120805460ff1916841515179055906001600160a01b03167f17307eab39ab6107e8899845ad3d59bd9653f200f220920489ca2b5937696c3183604051611033911515815260200190565b60405180910390a35050565b600054610100900460ff1680611058575060005460ff16155b6110bb5760405162461bcd60e51b815260206004820152602e60248201527f496e697469616c697a61626c653a20636f6e747261637420697320616c72656160448201526d191e481a5b9a5d1a585b1a5e995960921b60648201526084016106bf565b600054610100900460ff161580156110dd576000805461ffff19166101011790555b6110e88484846117f6565b80156110fa576000805461ff00191690555b50505050565b61110a338361126d565b61117c5760405162461bcd60e51b815260206004820152603160248201527f4552433732313a207472616e736665722063616c6c6572206973206e6f74206f60448201527f776e6572206e6f7220617070726f76656400000000000000000000000000000060648201526084016106bf565b6110fa848484846118ef565b606061059e82611978565b600081815260976020526040812061059e90611af8565b610a3c8282611b02565b60006001600160e01b031982167f780e9d6300000000000000000000000000000000000000000000000000000000148061059e575061059e82611b8f565b600081815260cd60205260409020805473ffffffffffffffffffffffffffffffffffffffff19166001600160a01b038416908117909155819061123482610d65565b6001600160a01b03167f8c5be1e5ebec7d5bd14f71427d1e84f3dd0314c0f7b2291e5b200ac8c7c3b92560405160405180910390a45050565b600081815260cb60205260408120546001600160a01b03166112f75760405162461bcd60e51b815260206004820152602c60248201527f4552433732313a206f70657261746f7220717565727920666f72206e6f6e657860448201527f697374656e7420746f6b656e000000000000000000000000000000000000000060648201526084016106bf565b600061130283610d65565b9050806001600160a01b0316846001600160a01b0316148061133d5750836001600160a01b031661133284610639565b6001600160a01b0316145b8061136d57506001600160a01b03808216600090815260ce602090815260408083209388168352929052205460ff165b949350505050565b826001600160a01b031661138882610d65565b6001600160a01b0316146114045760405162461bcd60e51b815260206004820152602960248201527f4552433732313a207472616e73666572206f6620746f6b656e2074686174206960448201527f73206e6f74206f776e000000000000000000000000000000000000000000000060648201526084016106bf565b6001600160a01b03821661147f5760405162461bcd60e51b8152602060048201526024808201527f4552433732313a207472616e7366657220746f20746865207a65726f2061646460448201527f726573730000000000000000000000000000000000000000000000000000000060648201526084016106bf565b61148a838383611c01565b6114956000826111f2565b6001600160a01b038316600090815260cc602052604081208054600192906114be908490613327565b90915550506001600160a01b038216600090815260cc602052604081208054600192906114ec9084906132fb565b9091555050600081815260cb6020526040808220805473ffffffffffffffffffffffffffffffffffffffff19166001600160a01b0386811691821790925591518493918716917fddf252ad1be2c89b69c2b068fc378daa952ba7f163c4a11628f55a4df523b3ef91a4505050565b600082815260656020526040902060010154611577905b33610435565b6115e95760405162461bcd60e51b815260206004820152602f60248201527f416363657373436f6e74726f6c3a2073656e646572206d75737420626520616e60448201527f2061646d696e20746f206772616e74000000000000000000000000000000000060648201526084016106bf565b610a2e8282611c0c565b6000610f57836001600160a01b038416611cae565b6001600160a01b03811633146116865760405162461bcd60e51b815260206004820152602f60248201527f416363657373436f6e74726f6c3a2063616e206f6e6c792072656e6f756e636560448201527f20726f6c657320666f722073656c66000000000000000000000000000000000060648201526084016106bf565b610a2e8282611cfd565b6000610f57836001600160a01b038416611d80565b61015f5460ff166116f85760405162461bcd60e51b815260206004820152601460248201527f5061757361626c653a206e6f742070617573656400000000000000000000000060448201526064016106bf565b61015f805460ff191690557f5db9ee0a495bf2e6ff9c91a7834c1ba4fdd244a5e8aa4e537bd38aeae4b073aa335b6040516001600160a01b03909116815260200160405180910390a1565b610b9b81611e9d565b610a2e8282611edf565b610a2e8282611ef9565b61015f5460ff16156117b45760405162461bcd60e51b815260206004820152601060248201527f5061757361626c653a207061757365640000000000000000000000000000000060448201526064016106bf565b61015f805460ff191660011790557f62e78cea01bee320cd4e420270b5ea74000d11b0c9f74754ebdbfc544b05a2586117263390565b6000610f578383611fa3565b600054610100900460ff168061180f575060005460ff16155b6118725760405162461bcd60e51b815260206004820152602e60248201527f496e697469616c697a61626c653a20636f6e747261637420697320616c72656160448201526d191e481a5b9a5d1a585b1a5e995960921b60648201526084016106bf565b600054610100900460ff16158015611894576000805461ffff19166101011790555b61189c612052565b6118a4612052565b6118ac612052565b6118b4612052565b6118be8484612104565b6118c6612052565b6118ce612052565b6118d66121e0565b6118de612052565b6118e78261229d565b6110e8612052565b6118fa848484611375565b611906848484846123ef565b6110fa5760405162461bcd60e51b815260206004820152603260248201527f4552433732313a207472616e7366657220746f206e6f6e20455243373231526560448201527f63656976657220696d706c656d656e746572000000000000000000000000000060648201526084016106bf565b600081815260cb60205260409020546060906001600160a01b0316611a055760405162461bcd60e51b815260206004820152603160248201527f45524337323155524953746f726167653a2055524920717565727920666f722060448201527f6e6f6e6578697374656e7420746f6b656e00000000000000000000000000000060648201526084016106bf565b60008281526101c3602052604081208054611a1f9061336a565b80601f0160208091040260200160405190810160405280929190818152602001828054611a4b9061336a565b8015611a985780601f10611a6d57610100808354040283529160200191611a98565b820191906000526020600020905b815481529060010190602001808311611a7b57829003601f168201915b505050505090506000611aa9612552565b9050805160001415611abd575090506105a1565b815115611aef578082604051602001611ad792919061327d565b604051602081830303815290604052925050506105a1565b61136d84612562565b600061059e825490565b600082815260656020526040902060010154611b1d90611571565b6116865760405162461bcd60e51b815260206004820152603060248201527f416363657373436f6e74726f6c3a2073656e646572206d75737420626520616e60448201527f2061646d696e20746f207265766f6b650000000000000000000000000000000060648201526084016106bf565b60006001600160e01b031982167f80ac58cd000000000000000000000000000000000000000000000000000000001480611bf257506001600160e01b031982167f5b5e139f00000000000000000000000000000000000000000000000000000000145b8061059e575061059e8261264a565b610811838383612688565b60008281526065602090815260408083206001600160a01b038516845290915290205460ff16610a2e5760008281526065602090815260408083206001600160a01b03851684529091529020805460ff19166001179055611c6a3390565b6001600160a01b0316816001600160a01b0316837f2f8788117e7eff1d82e926ec794901d17c78024a50270940304540a733656f0d60405160405180910390a45050565b6000818152600183016020526040812054611cf557508154600181810184556000848152602080822090930184905584548482528286019093526040902091909155610997565b506000610997565b60008281526065602090815260408083206001600160a01b038516845290915290205460ff1615610a2e5760008281526065602090815260408083206001600160a01b0385168085529252808320805460ff1916905551339285917ff6391f5c32d9c69d2a47ea670b442974b53935d1edc7fd64eb21e047a839171b9190a45050565b60008181526001830160205260408120548015611e93576000611da4600183613327565b8554909150600090611db890600190613327565b90506000866000018281548110611ddf57634e487b7160e01b600052603260045260246000fd5b9060005260206000200154905080876000018481548110611e1057634e487b7160e01b600052603260045260246000fd5b600091825260209091200155611e278360016132fb565b60008281526001890160205260409020558654879080611e5757634e487b7160e01b600052603160045260246000fd5b60019003818190600052602060002001600090559055866001016000878152602001908152602001600020600090556001945050505050610997565b6000915050610997565b611ea68161270d565b60008181526101c3602052604090208054611ec09061336a565b159050610b9b5760008181526101c360205260408120610b9b91612e60565b610a2e8282604051806020016040528060008152506127c1565b600082815260cb60205260409020546001600160a01b0316611f835760405162461bcd60e51b815260206004820152602e60248201527f45524337323155524953746f726167653a2055524920736574206f66206e6f6e60448201527f6578697374656e7420746f6b656e00000000000000000000000000000000000060648201526084016106bf565b60008281526101c360209081526040909120825161081192840190612ddc565b8154600090821061201c5760405162461bcd60e51b815260206004820152602260248201527f456e756d657261626c655365743a20696e646578206f7574206f6620626f756e60448201527f647300000000000000000000000000000000000000000000000000000000000060648201526084016106bf565b82600001828154811061203f57634e487b7160e01b600052603260045260246000fd5b9060005260206000200154905092915050565b600054610100900460ff168061206b575060005460ff16155b6120ce5760405162461bcd60e51b815260206004820152602e60248201527f496e697469616c697a61626c653a20636f6e747261637420697320616c72656160448201526d191e481a5b9a5d1a585b1a5e995960921b60648201526084016106bf565b600054610100900460ff161580156120f0576000805461ffff19166101011790555b8015610b9b576000805461ff001916905550565b600054610100900460ff168061211d575060005460ff16155b6121805760405162461bcd60e51b815260206004820152602e60248201527f496e697469616c697a61626c653a20636f6e747261637420697320616c72656160448201526d191e481a5b9a5d1a585b1a5e995960921b60648201526084016106bf565b600054610100900460ff161580156121a2576000805461ffff19166101011790555b82516121b59060c9906020860190612ddc565b5081516121c99060ca906020850190612ddc565b508015610811576000805461ff0019169055505050565b600054610100900460ff16806121f9575060005460ff16155b61225c5760405162461bcd60e51b815260206004820152602e60248201527f496e697469616c697a61626c653a20636f6e747261637420697320616c72656160448201526d191e481a5b9a5d1a585b1a5e995960921b60648201526084016106bf565b600054610100900460ff1615801561227e576000805461ffff19166101011790555b61015f805460ff191690558015610b9b576000805461ff001916905550565b600054610100900460ff16806122b6575060005460ff16155b6123195760405162461bcd60e51b815260206004820152602e60248201527f496e697469616c697a61626c653a20636f6e747261637420697320616c72656160448201526d191e481a5b9a5d1a585b1a5e995960921b60648201526084016106bf565b600054610100900460ff1615801561233b576000805461ffff19166101011790555b815161234f906101f6906020850190612ddc565b5061235c6000335b61284a565b6123867f9f2df0fed2c77648de5860a4cc508cd0818c85b8b8a1ab4ceeef8d981c8956a633612357565b6123b07f65d7a28e3265b37a6474929f336521b332c1681b933f6cb9f3376673440d862a33612357565b6123da7f8a9d57248f1015d5cac20111fe2512477434cf493627e5e959ca751e593d807933612357565b8015610a2e576000805461ff00191690555050565b60006001600160a01b0384163b1561254757604051630a85bd0160e11b81526001600160a01b0385169063150b7a02906124339033908990889088906004016132ac565b602060405180830381600087803b15801561244d57600080fd5b505af192505050801561247d575060408051601f3d908101601f1916820190925261247a91810190613188565b60015b61252d573d8080156124ab576040519150601f19603f3d011682016040523d82523d6000602084013e6124b0565b606091505b5080516125255760405162461bcd60e51b815260206004820152603260248201527f4552433732313a207472616e7366657220746f206e6f6e20455243373231526560448201527f63656976657220696d706c656d656e746572000000000000000000000000000060648201526084016106bf565b805181602001fd5b6001600160e01b031916630a85bd0160e11b14905061136d565b506001949350505050565b60606101f680546105b59061336a565b600081815260cb60205260409020546060906001600160a01b03166125ef5760405162461bcd60e51b815260206004820152602f60248201527f4552433732314d657461646174613a2055524920717565727920666f72206e6f60448201527f6e6578697374656e7420746f6b656e000000000000000000000000000000000060648201526084016106bf565b60006125f9612552565b905060008151116126195760405180602001604052806000815250610f57565b8061262384612854565b60405160200161263492919061327d565b6040516020818303038152906040529392505050565b60006001600160e01b031982167f5a05180f00000000000000000000000000000000000000000000000000000000148061059e575061059e826129a3565b612693838383612a0a565b61015f5460ff16156108115760405162461bcd60e51b815260206004820152602b60248201527f4552433732315061757361626c653a20746f6b656e207472616e73666572207760448201527f68696c652070617573656400000000000000000000000000000000000000000060648201526084016106bf565b600061271882610d65565b905061272681600084611c01565b6127316000836111f2565b6001600160a01b038116600090815260cc6020526040812080546001929061275a908490613327565b9091555050600082815260cb6020526040808220805473ffffffffffffffffffffffffffffffffffffffff19169055518391906001600160a01b038416907fddf252ad1be2c89b69c2b068fc378daa952ba7f163c4a11628f55a4df523b3ef908390a45050565b6127cb8383612ac7565b6127d860008484846123ef565b6108115760405162461bcd60e51b815260206004820152603260248201527f4552433732313a207472616e7366657220746f206e6f6e20455243373231526560448201527f63656976657220696d706c656d656e746572000000000000000000000000000060648201526084016106bf565b6108da82826115e9565b606081612895575060408051808201909152600181527f300000000000000000000000000000000000000000000000000000000000000060208201526105a1565b8160005b81156128bf57806128a9816133a5565b91506128b89050600a83613313565b9150612899565b60008167ffffffffffffffff8111156128e857634e487b7160e01b600052604160045260246000fd5b6040519080825280601f01601f191660200182016040528015612912576020820181803683370190505b5090505b841561136d57612927600183613327565b9150612934600a866133c0565b61293f9060306132fb565b60f81b81838151811061296257634e487b7160e01b600052603260045260246000fd5b60200101907effffffffffffffffffffffffffffffffffffffffffffffffffffffffffffff1916908160001a90535061299c600a86613313565b9450612916565b60006001600160e01b031982167f7965db0b00000000000000000000000000000000000000000000000000000000148061059e57507f01ffc9a7000000000000000000000000000000000000000000000000000000006001600160e01b031983161461059e565b6001600160a01b038316612a6557612a608160fd8054600083815260fe60205260408120829055600182018355919091527f9346ac6dd7de6b96975fec380d4d994c4c12e6a8897544f22915316cc6cca2800155565b612a88565b816001600160a01b0316836001600160a01b031614612a8857612a888382612c22565b6001600160a01b038216612aa457612a9f81612cbf565b610811565b826001600160a01b0316826001600160a01b031614610811576108118282612d98565b6001600160a01b038216612b1d5760405162461bcd60e51b815260206004820181905260248201527f4552433732313a206d696e7420746f20746865207a65726f206164647265737360448201526064016106bf565b600081815260cb60205260409020546001600160a01b031615612b825760405162461bcd60e51b815260206004820152601c60248201527f4552433732313a20746f6b656e20616c7265616479206d696e7465640000000060448201526064016106bf565b612b8e60008383611c01565b6001600160a01b038216600090815260cc60205260408120805460019290612bb79084906132fb565b9091555050600081815260cb6020526040808220805473ffffffffffffffffffffffffffffffffffffffff19166001600160a01b03861690811790915590518392907fddf252ad1be2c89b69c2b068fc378daa952ba7f163c4a11628f55a4df523b3ef908290a45050565b60006001612c2f84610df0565b612c399190613327565b600083815260fc6020526040902054909150808214612c8c576001600160a01b038416600090815260fb60209081526040808320858452825280832054848452818420819055835260fc90915290208190555b50600091825260fc602090815260408084208490556001600160a01b03909416835260fb81528383209183525290812055565b60fd54600090612cd190600190613327565b600083815260fe602052604081205460fd8054939450909284908110612d0757634e487b7160e01b600052603260045260246000fd5b906000526020600020015490508060fd8381548110612d3657634e487b7160e01b600052603260045260246000fd5b600091825260208083209091019290925582815260fe909152604080822084905585825281205560fd805480612d7c57634e487b7160e01b600052603160045260246000fd5b6001900381819060005260206000200160009055905550505050565b6000612da383610df0565b6001600160a01b03909316600090815260fb60209081526040808320868452825280832085905593825260fc9052919091209190915550565b828054612de89061336a565b90600052602060002090601f016020900481019282612e0a5760008555612e50565b82601f10612e2357805160ff1916838001178555612e50565b82800160010185558215612e50579182015b82811115612e50578251825591602001919060010190612e35565b50612e5c929150612e98565b5090565b508054612e6c9061336a565b6000825580601f10612e7e5750610b9b565b601f016020900490600052602060002090810190610b9b91905b5b80821115612e5c5760008155600101612e99565b600067ffffffffffffffff80841115612ec857612ec8613400565b604051601f8501601f19908116603f01168101908282118183101715612ef057612ef0613400565b81604052809350858152868686011115612f0957600080fd5b858560208301376000602087830101525050509392505050565b80356001600160a01b03811681146105a157600080fd5b600082601f830112612f4a578081fd5b610f5783833560208501612ead565b600060208284031215612f6a578081fd5b610f5782612f23565b60008060408385031215612f85578081fd5b612f8e83612f23565b9150612f9c60208401612f23565b90509250929050565b600080600060608486031215612fb9578081fd5b612fc284612f23565b9250612fd060208501612f23565b9150604084013590509250925092565b60008060008060808587031215612ff5578081fd5b612ffe85612f23565b935061300c60208601612f23565b925060408501359150606085013567ffffffffffffffff81111561302e578182fd5b8501601f8101871361303e578182fd5b61304d87823560208401612ead565b91505092959194509250565b6000806040838503121561306b578182fd5b61307483612f23565b915060208301358015158114613088578182fd5b809150509250929050565b600080604083850312156130a5578182fd5b6130ae83612f23565b946020939093013593505050565b6000806000606084860312156130d0578283fd5b6130d984612f23565b925060208401359150604084013567ffffffffffffffff8111156130fb578182fd5b61310786828701612f3a565b9150509250925092565b600060208284031215613122578081fd5b5035919050565b6000806040838503121561313b578182fd5b82359150612f9c60208401612f23565b6000806040838503121561315d578182fd5b50508035926020909101359150565b60006020828403121561317d578081fd5b8135610f5781613416565b600060208284031215613199578081fd5b8151610f5781613416565b6000602082840312156131b5578081fd5b813567ffffffffffffffff8111156131cb578182fd5b61136d84828501612f3a565b6000806000606084860312156131eb578081fd5b833567ffffffffffffffff80821115613202578283fd5b61320e87838801612f3a565b94506020860135915080821115613223578283fd5b61322f87838801612f3a565b93506040860135915080821115613244578283fd5b5061310786828701612f3a565b6000815180845261326981602086016020860161333e565b601f01601f19169290920160200192915050565b6000835161328f81846020880161333e565b8351908301906132a381836020880161333e565b01949350505050565b60006001600160a01b038087168352808616602084015250836040830152608060608301526132de6080830184613251565b9695505050505050565b600060208252610f576020830184613251565b6000821982111561330e5761330e6133d4565b500190565b600082613322576133226133ea565b500490565b600082821015613339576133396133d4565b500390565b60005b83811015613359578181015183820152602001613341565b838111156110fa5750506000910152565b600181811c9082168061337e57607f821691505b6020821081141561339f57634e487b7160e01b600052602260045260246000fd5b50919050565b60006000198214156133b9576133b96133d4565b5060010190565b6000826133cf576133cf6133ea565b500690565b634e487b7160e01b600052601160045260246000fd5b634e487b7160e01b600052601260045260246000fd5b634e487b7160e01b600052604160045260246000fd5b6001600160e01b031981168114610b9b57600080fdfea2646970667358221220b2965393c7b99a06f31f1fea71e3c87e73425dab0d5fb23f2f99fecf53f044dc64736f6c63430008030033",
  "immutableReferences": {},
  "source": "// SPDX-License-Identifier: MIT\n\npragma solidity ^0.8.0;\n\nimport \"@openzeppelin/contracts-upgradeable/token/ERC721/ERC721Upgradeable.sol\";\nimport \"@openzeppelin/contracts-upgradeable/token/ERC721/extensions/ERC721URIStorageUpgradeable.sol\";\nimport \"@openzeppelin/contracts-upgradeable/token/ERC721/extensions/ERC721EnumerableUpgradeable.sol\";\nimport \"@openzeppelin/contracts-upgradeable/token/ERC721/extensions/ERC721BurnableUpgradeable.sol\";\nimport \"@openzeppelin/contracts-upgradeable/token/ERC721/extensions/ERC721PausableUpgradeable.sol\";\nimport \"@openzeppelin/contracts-upgradeable/access/AccessControlEnumerableUpgradeable.sol\";\nimport \"@openzeppelin/contracts-upgradeable/utils/ContextUpgradeable.sol\";\nimport \"@openzeppelin/contracts-upgradeable/utils/CountersUpgradeable.sol\";\nimport \"@openzeppelin/contracts-upgradeable/proxy/utils/Initializable.sol\";\n\n/**\n * @dev {ERC721} token, including:\n *\n *  - ability for holders to burn (destroy) their tokens\n *  - a minter role that allows for token minting (creation)\n *  - a pauser role that allows to stop all token transfers\n *  - token ID and URI autogeneration\n *\n * This contract uses {AccessControl} to lock permissioned functions using the\n * different roles - head to its documentation for details.\n *\n * The account that deploys the contract will be granted the minter and pauser\n * roles, as well as the default admin role, which will let it grant both minter\n * and pauser roles to other accounts.\n */\ncontract ERC721PresetMinterPauserAutoIdUpgradeable is\n\tInitializable,\n\tContextUpgradeable,\n\tAccessControlEnumerableUpgradeable,\n\tERC721EnumerableUpgradeable,\n\tERC721BurnableUpgradeable,\n\tERC721PausableUpgradeable,\n\tERC721URIStorageUpgradeable\n{\n\tfunction initialize(\n\t\tstring memory name,\n\t\tstring memory symbol,\n\t\tstring memory baseTokenURI\n\t) public virtual initializer {\n\t\t__ERC721PresetMinterPauserAutoId_init(name, symbol, baseTokenURI);\n\t}\n\n\tusing CountersUpgradeable for CountersUpgradeable.Counter;\n\n\tbytes32 public constant MINTER_ROLE = keccak256(\"MINTER_ROLE\");\n\tbytes32 public constant PAUSER_ROLE = keccak256(\"PAUSER_ROLE\");\n\tbytes32 public constant POLYNETWORK_ROLE = keccak256(\"POLYNETWORK_ROLE\");\n\n\tCountersUpgradeable.Counter private _tokenIdTracker;\n\n\tstring private _baseTokenURI;\n\n\t/**\n\t * @dev Grants `DEFAULT_ADMIN_ROLE`, `MINTER_ROLE` and `PAUSER_ROLE` to the\n\t * account that deploys the contract.\n\t *\n\t * Token URIs will be autogenerated based on `baseURI` and their token IDs.\n\t * See {ERC721-tokenURI}.\n\t */\n\tfunction __ERC721PresetMinterPauserAutoId_init(\n\t\tstring memory name,\n\t\tstring memory symbol,\n\t\tstring memory baseTokenURI\n\t) internal initializer {\n\t\t__Context_init_unchained();\n\t\t__ERC165_init_unchained();\n\t\t__AccessControl_init_unchained();\n\t\t__AccessControlEnumerable_init_unchained();\n\t\t__ERC721_init_unchained(name, symbol);\n\t\t__ERC721Enumerable_init_unchained();\n\t\t__ERC721Burnable_init_unchained();\n\t\t__Pausable_init_unchained();\n\t\t__ERC721Pausable_init_unchained();\n\t\t__ERC721PresetMinterPauserAutoId_init_unchained(baseTokenURI);\n\t\t__ERC721URIStorage_init_unchained();\n\t}\n\n\tfunction __ERC721PresetMinterPauserAutoId_init_unchained(string memory baseTokenURI) internal initializer {\n\t\t_baseTokenURI = baseTokenURI;\n\n\t\t_setupRole(DEFAULT_ADMIN_ROLE, _msgSender());\n\n\t\t_setupRole(MINTER_ROLE, _msgSender());\n\t\t_setupRole(PAUSER_ROLE, _msgSender());\n\t\t_setupRole(POLYNETWORK_ROLE, _msgSender());\n\t}\n\n\tfunction _baseURI() internal view virtual override returns (string memory) {\n\t\treturn _baseTokenURI;\n\t}\n\n\t/**\n\t * @dev Creates a new token for `to`. Its token ID will be automatically\n\t * assigned (and available on the emitted {IERC721-Transfer} event), and the token\n\t * URI autogenerated based on the base URI passed at construction.\n\t *\n\t * See {ERC721-_mint}.\n\t *\n\t * Requirements:\n\t *\n\t * - the caller must have the `MINTER_ROLE`.\n\t */\n\tfunction mint(address to) internal virtual {\n\t\t// We cannot just use balanceOf to create the new tokenId because tokens\n\t\t// can be burned (destroyed), so we need a separate counter.\n\t\t_mint(to, _tokenIdTracker.current());\n\t\t_tokenIdTracker.increment();\n\t}\n\n\tfunction _burn(uint256 tokenId) internal override(ERC721URIStorageUpgradeable, ERC721Upgradeable) {\n\t\tERC721URIStorageUpgradeable._burn(tokenId);\n\t}\n\n\t/**\n\t * @dev See {IERC721Metadata-tokenURI}.\n\t */\n\tfunction tokenURI(uint256 tokenId) public view virtual override(ERC721URIStorageUpgradeable, ERC721Upgradeable) returns (string memory) {\n\t\treturn ERC721URIStorageUpgradeable.tokenURI(tokenId);\n\t}\n\n\t/**\n\t * @dev polynetwork CrossChainNFTMapping\n\t */\n\tfunction mintWithURI(\n\t\taddress to,\n\t\tuint256 tokenId,\n\t\tstring memory uri\n\t) external {\n\t\trequire(hasRole(POLYNETWORK_ROLE, _msgSender()), \"mintWithURI: must have POLYNETWORK_ROLE role to mint\");\n\t\trequire(!_exists(tokenId), \"token id already exist\");\n\t\t_safeMint(to, tokenId);\n\t\t_setTokenURI(tokenId, uri);\n\t}\n\n\tfunction _safeMint(address to, uint256 tokenId) internal virtual override {\n\t\tsuper._safeMint(to, tokenId);\n\t}\n\n\t/**\n\t * @dev update tokenURI\n\t */\n\tfunction _setTokenURI(uint256 tokenId, string memory tokenURI) internal virtual override {\n\t\tERC721URIStorageUpgradeable._setTokenURI(tokenId, tokenURI);\n\t}\n\n\tfunction getCurrentCounter() public view returns (uint256) {\n\t\treturn _tokenIdTracker.current();\n\t}\n\n\tfunction getLastTokenID() public view returns (uint256) {\n\t\tif (_tokenIdTracker.current() == 0) {\n\t\t\treturn _tokenIdTracker.current();\n\t\t} else return _tokenIdTracker.current() - 1;\n\t}\n\n\tfunction setBaseTokenURI(string memory baseTokenURI) public {\n\t\trequire(hasRole(DEFAULT_ADMIN_ROLE, _msgSender()), \"setBaseTokenURI: must have ADMIN role to change this\");\n\t\t_baseTokenURI = baseTokenURI;\n\t}\n\n\t/**\n\t * @dev Pauses all token transfers.\n\t *\n\t * See {ERC721Pausable} and {Pausable-_pause}.\n\t *\n\t * Requirements:\n\t *\n\t * - the caller must have the `PAUSER_ROLE`.\n\t */\n\tfunction pause() public virtual {\n\t\trequire(hasRole(PAUSER_ROLE, _msgSender()), \"ERC721PresetMinterPauserAutoId: must have pauser role to pause\");\n\t\t_pause();\n\t}\n\n\t/**\n\t * @dev Unpauses all token transfers.\n\t *\n\t * See {ERC721Pausable} and {Pausable-_unpause}.\n\t *\n\t * Requirements:\n\t *\n\t * - the caller must have the `PAUSER_ROLE`.\n\t */\n\tfunction unpause() public virtual {\n\t\trequire(hasRole(PAUSER_ROLE, _msgSender()), \"ERC721PresetMinterPauserAutoId: must have pauser role to unpause\");\n\t\t_unpause();\n\t}\n\n\tfunction _beforeTokenTransfer(\n\t\taddress from,\n\t\taddress to,\n\t\tuint256 tokenId\n\t) internal virtual override(ERC721Upgradeable, ERC721EnumerableUpgradeable, ERC721PausableUpgradeable) {\n\t\tsuper._beforeTokenTransfer(from, to, tokenId);\n\t}\n\n\t/**\n\t * @dev See {IERC165-supportsInterface}.\n\t */\n\tfunction supportsInterface(bytes4 interfaceId)\n\t\tpublic\n\t\tview\n\t\tvirtual\n\t\toverride(AccessControlEnumerableUpgradeable, ERC721Upgradeable, ERC721EnumerableUpgradeable)\n\t\treturns (bool)\n\t{\n\t\treturn super.supportsInterface(interfaceId);\n\t}\n\n\tuint256[48] private __gap;\n}\n",
  "sourcePath": "/Users/selimerunkut/dev_freelance/GhostMarketContractBSC/contracts/ERC721PresetMinterPauserAutoIdUpgradeable.sol",
  "compiler": {
    "name": "solc",
    "version": "0.8.3+commit.8d00100c.Emscripten.clang"
  },
  "schemaVersion": "3.4.1",
  "updatedAt": "2021-05-15T20:39:17.211Z",
  "devdoc": {
    "details": "{ERC721} token, including:  - ability for holders to burn (destroy) their tokens  - a minter role that allows for token minting (creation)  - a pauser role that allows to stop all token transfers  - token ID and URI autogeneration This contract uses {AccessControl} to lock permissioned functions using the different roles - head to its documentation for details. The account that deploys the contract will be granted the minter and pauser roles, as well as the default admin role, which will let it grant both minter and pauser roles to other accounts.",
    "kind": "dev",
    "methods": {
      "approve(address,uint256)": {
        "details": "See {IERC721-approve}."
      },
      "balanceOf(address)": {
        "details": "See {IERC721-balanceOf}."
      },
      "burn(uint256)": {
        "details": "Burns `tokenId`. See {ERC721-_burn}. Requirements: - The caller must own `tokenId` or be an approved operator."
      },
      "getApproved(uint256)": {
        "details": "See {IERC721-getApproved}."
      },
      "getRoleAdmin(bytes32)": {
        "details": "Returns the admin role that controls `role`. See {grantRole} and {revokeRole}. To change a role's admin, use {_setRoleAdmin}."
      },
      "getRoleMember(bytes32,uint256)": {
        "details": "Returns one of the accounts that have `role`. `index` must be a value between 0 and {getRoleMemberCount}, non-inclusive. Role bearers are not sorted in any particular way, and their ordering may change at any point. WARNING: When using {getRoleMember} and {getRoleMemberCount}, make sure you perform all queries on the same block. See the following https://forum.openzeppelin.com/t/iterating-over-elements-on-enumerableset-in-openzeppelin-contracts/2296[forum post] for more information."
      },
      "getRoleMemberCount(bytes32)": {
        "details": "Returns the number of accounts that have `role`. Can be used together with {getRoleMember} to enumerate all bearers of a role."
      },
      "grantRole(bytes32,address)": {
        "details": "Overload {grantRole} to track enumerable memberships"
      },
      "hasRole(bytes32,address)": {
        "details": "Returns `true` if `account` has been granted `role`."
      },
      "isApprovedForAll(address,address)": {
        "details": "See {IERC721-isApprovedForAll}."
      },
      "mintWithURI(address,uint256,string)": {
        "details": "polynetwork CrossChainNFTMapping"
      },
      "name()": {
        "details": "See {IERC721Metadata-name}."
      },
      "ownerOf(uint256)": {
        "details": "See {IERC721-ownerOf}."
      },
      "pause()": {
        "details": "Pauses all token transfers. See {ERC721Pausable} and {Pausable-_pause}. Requirements: - the caller must have the `PAUSER_ROLE`."
      },
      "paused()": {
        "details": "Returns true if the contract is paused, and false otherwise."
      },
      "renounceRole(bytes32,address)": {
        "details": "Overload {renounceRole} to track enumerable memberships"
      },
      "revokeRole(bytes32,address)": {
        "details": "Overload {revokeRole} to track enumerable memberships"
      },
      "safeTransferFrom(address,address,uint256)": {
        "details": "See {IERC721-safeTransferFrom}."
      },
      "safeTransferFrom(address,address,uint256,bytes)": {
        "details": "See {IERC721-safeTransferFrom}."
      },
      "setApprovalForAll(address,bool)": {
        "details": "See {IERC721-setApprovalForAll}."
      },
      "supportsInterface(bytes4)": {
        "details": "See {IERC165-supportsInterface}."
      },
      "symbol()": {
        "details": "See {IERC721Metadata-symbol}."
      },
      "tokenByIndex(uint256)": {
        "details": "See {IERC721Enumerable-tokenByIndex}."
      },
      "tokenOfOwnerByIndex(address,uint256)": {
        "details": "See {IERC721Enumerable-tokenOfOwnerByIndex}."
      },
      "tokenURI(uint256)": {
        "details": "See {IERC721Metadata-tokenURI}."
      },
      "totalSupply()": {
        "details": "See {IERC721Enumerable-totalSupply}."
      },
      "transferFrom(address,address,uint256)": {
        "details": "See {IERC721-transferFrom}."
      },
      "unpause()": {
        "details": "Unpauses all token transfers. See {ERC721Pausable} and {Pausable-_unpause}. Requirements: - the caller must have the `PAUSER_ROLE`."
      }
    },
    "version": 1
  },
  "userdoc": {
    "kind": "user",
    "methods": {},
    "version": 1
  }
}