{
  "contractName": "ERC721PresetMinterPauserAutoIdUpgradeableCustom",
  "abi": [
    {
      "anonymous": false,
      "inputs": [
        {
          "indexed": true,
          "internalType": "address",
          "name": "owner",
          "type": "address"
        },
        {
          "indexed": true,
          "internalType": "address",
          "name": "approved",
          "type": "address"
        },
        {
          "indexed": true,
          "internalType": "uint256",
          "name": "tokenId",
          "type": "uint256"
        }
      ],
      "name": "Approval",
      "type": "event"
    },
    {
      "anonymous": false,
      "inputs": [
        {
          "indexed": true,
          "internalType": "address",
          "name": "owner",
          "type": "address"
        },
        {
          "indexed": true,
          "internalType": "address",
          "name": "operator",
          "type": "address"
        },
        {
          "indexed": false,
          "internalType": "bool",
          "name": "approved",
          "type": "bool"
        }
      ],
      "name": "ApprovalForAll",
      "type": "event"
    },
    {
      "anonymous": false,
      "inputs": [
        {
          "indexed": false,
          "internalType": "address",
          "name": "account",
          "type": "address"
        }
      ],
      "name": "Paused",
      "type": "event"
    },
    {
      "anonymous": false,
      "inputs": [
        {
          "indexed": true,
          "internalType": "bytes32",
          "name": "role",
          "type": "bytes32"
        },
        {
          "indexed": true,
          "internalType": "bytes32",
          "name": "previousAdminRole",
          "type": "bytes32"
        },
        {
          "indexed": true,
          "internalType": "bytes32",
          "name": "newAdminRole",
          "type": "bytes32"
        }
      ],
      "name": "RoleAdminChanged",
      "type": "event"
    },
    {
      "anonymous": false,
      "inputs": [
        {
          "indexed": true,
          "internalType": "bytes32",
          "name": "role",
          "type": "bytes32"
        },
        {
          "indexed": true,
          "internalType": "address",
          "name": "account",
          "type": "address"
        },
        {
          "indexed": true,
          "internalType": "address",
          "name": "sender",
          "type": "address"
        }
      ],
      "name": "RoleGranted",
      "type": "event"
    },
    {
      "anonymous": false,
      "inputs": [
        {
          "indexed": true,
          "internalType": "bytes32",
          "name": "role",
          "type": "bytes32"
        },
        {
          "indexed": true,
          "internalType": "address",
          "name": "account",
          "type": "address"
        },
        {
          "indexed": true,
          "internalType": "address",
          "name": "sender",
          "type": "address"
        }
      ],
      "name": "RoleRevoked",
      "type": "event"
    },
    {
      "anonymous": false,
      "inputs": [
        {
          "indexed": true,
          "internalType": "address",
          "name": "from",
          "type": "address"
        },
        {
          "indexed": true,
          "internalType": "address",
          "name": "to",
          "type": "address"
        },
        {
          "indexed": true,
          "internalType": "uint256",
          "name": "tokenId",
          "type": "uint256"
        }
      ],
      "name": "Transfer",
      "type": "event"
    },
    {
      "anonymous": false,
      "inputs": [
        {
          "indexed": false,
          "internalType": "address",
          "name": "account",
          "type": "address"
        }
      ],
      "name": "Unpaused",
      "type": "event"
    },
    {
      "inputs": [],
      "name": "DEFAULT_ADMIN_ROLE",
      "outputs": [
        {
          "internalType": "bytes32",
          "name": "",
          "type": "bytes32"
        }
      ],
      "stateMutability": "view",
      "type": "function"
    },
    {
      "inputs": [],
      "name": "MINTER_ROLE",
      "outputs": [
        {
          "internalType": "bytes32",
          "name": "",
          "type": "bytes32"
        }
      ],
      "stateMutability": "view",
      "type": "function"
    },
    {
      "inputs": [],
      "name": "PAUSER_ROLE",
      "outputs": [
        {
          "internalType": "bytes32",
          "name": "",
          "type": "bytes32"
        }
      ],
      "stateMutability": "view",
      "type": "function"
    },
    {
      "inputs": [],
      "name": "POLYNETWORK_ROLE",
      "outputs": [
        {
          "internalType": "bytes32",
          "name": "",
          "type": "bytes32"
        }
      ],
      "stateMutability": "view",
      "type": "function"
    },
    {
      "inputs": [
        {
          "internalType": "address",
          "name": "to",
          "type": "address"
        },
        {
          "internalType": "uint256",
          "name": "tokenId",
          "type": "uint256"
        }
      ],
      "name": "approve",
      "outputs": [],
      "stateMutability": "nonpayable",
      "type": "function"
    },
    {
      "inputs": [
        {
          "internalType": "address",
          "name": "owner",
          "type": "address"
        }
      ],
      "name": "balanceOf",
      "outputs": [
        {
          "internalType": "uint256",
          "name": "",
          "type": "uint256"
        }
      ],
      "stateMutability": "view",
      "type": "function"
    },
    {
      "inputs": [
        {
          "internalType": "uint256",
          "name": "tokenId",
          "type": "uint256"
        }
      ],
      "name": "burn",
      "outputs": [],
      "stateMutability": "nonpayable",
      "type": "function"
    },
    {
      "inputs": [
        {
          "internalType": "uint256",
          "name": "tokenId",
          "type": "uint256"
        }
      ],
      "name": "getApproved",
      "outputs": [
        {
          "internalType": "address",
          "name": "",
          "type": "address"
        }
      ],
      "stateMutability": "view",
      "type": "function"
    },
    {
      "inputs": [
        {
          "internalType": "bytes32",
          "name": "role",
          "type": "bytes32"
        }
      ],
      "name": "getRoleAdmin",
      "outputs": [
        {
          "internalType": "bytes32",
          "name": "",
          "type": "bytes32"
        }
      ],
      "stateMutability": "view",
      "type": "function"
    },
    {
      "inputs": [
        {
          "internalType": "bytes32",
          "name": "role",
          "type": "bytes32"
        },
        {
          "internalType": "uint256",
          "name": "index",
          "type": "uint256"
        }
      ],
      "name": "getRoleMember",
      "outputs": [
        {
          "internalType": "address",
          "name": "",
          "type": "address"
        }
      ],
      "stateMutability": "view",
      "type": "function"
    },
    {
      "inputs": [
        {
          "internalType": "bytes32",
          "name": "role",
          "type": "bytes32"
        }
      ],
      "name": "getRoleMemberCount",
      "outputs": [
        {
          "internalType": "uint256",
          "name": "",
          "type": "uint256"
        }
      ],
      "stateMutability": "view",
      "type": "function"
    },
    {
      "inputs": [
        {
          "internalType": "bytes32",
          "name": "role",
          "type": "bytes32"
        },
        {
          "internalType": "address",
          "name": "account",
          "type": "address"
        }
      ],
      "name": "grantRole",
      "outputs": [],
      "stateMutability": "nonpayable",
      "type": "function"
    },
    {
      "inputs": [
        {
          "internalType": "bytes32",
          "name": "role",
          "type": "bytes32"
        },
        {
          "internalType": "address",
          "name": "account",
          "type": "address"
        }
      ],
      "name": "hasRole",
      "outputs": [
        {
          "internalType": "bool",
          "name": "",
          "type": "bool"
        }
      ],
      "stateMutability": "view",
      "type": "function"
    },
    {
      "inputs": [
        {
          "internalType": "address",
          "name": "owner",
          "type": "address"
        },
        {
          "internalType": "address",
          "name": "operator",
          "type": "address"
        }
      ],
      "name": "isApprovedForAll",
      "outputs": [
        {
          "internalType": "bool",
          "name": "",
          "type": "bool"
        }
      ],
      "stateMutability": "view",
      "type": "function"
    },
    {
      "inputs": [],
      "name": "name",
      "outputs": [
        {
          "internalType": "string",
          "name": "",
          "type": "string"
        }
      ],
      "stateMutability": "view",
      "type": "function"
    },
    {
      "inputs": [
        {
          "internalType": "uint256",
          "name": "tokenId",
          "type": "uint256"
        }
      ],
      "name": "ownerOf",
      "outputs": [
        {
          "internalType": "address",
          "name": "",
          "type": "address"
        }
      ],
      "stateMutability": "view",
      "type": "function"
    },
    {
      "inputs": [],
      "name": "paused",
      "outputs": [
        {
          "internalType": "bool",
          "name": "",
          "type": "bool"
        }
      ],
      "stateMutability": "view",
      "type": "function"
    },
    {
      "inputs": [
        {
          "internalType": "bytes32",
          "name": "role",
          "type": "bytes32"
        },
        {
          "internalType": "address",
          "name": "account",
          "type": "address"
        }
      ],
      "name": "renounceRole",
      "outputs": [],
      "stateMutability": "nonpayable",
      "type": "function"
    },
    {
      "inputs": [
        {
          "internalType": "bytes32",
          "name": "role",
          "type": "bytes32"
        },
        {
          "internalType": "address",
          "name": "account",
          "type": "address"
        }
      ],
      "name": "revokeRole",
      "outputs": [],
      "stateMutability": "nonpayable",
      "type": "function"
    },
    {
      "inputs": [
        {
          "internalType": "address",
          "name": "from",
          "type": "address"
        },
        {
          "internalType": "address",
          "name": "to",
          "type": "address"
        },
        {
          "internalType": "uint256",
          "name": "tokenId",
          "type": "uint256"
        }
      ],
      "name": "safeTransferFrom",
      "outputs": [],
      "stateMutability": "nonpayable",
      "type": "function"
    },
    {
      "inputs": [
        {
          "internalType": "address",
          "name": "from",
          "type": "address"
        },
        {
          "internalType": "address",
          "name": "to",
          "type": "address"
        },
        {
          "internalType": "uint256",
          "name": "tokenId",
          "type": "uint256"
        },
        {
          "internalType": "bytes",
          "name": "_data",
          "type": "bytes"
        }
      ],
      "name": "safeTransferFrom",
      "outputs": [],
      "stateMutability": "nonpayable",
      "type": "function"
    },
    {
      "inputs": [
        {
          "internalType": "address",
          "name": "operator",
          "type": "address"
        },
        {
          "internalType": "bool",
          "name": "approved",
          "type": "bool"
        }
      ],
      "name": "setApprovalForAll",
      "outputs": [],
      "stateMutability": "nonpayable",
      "type": "function"
    },
    {
      "inputs": [],
      "name": "symbol",
      "outputs": [
        {
          "internalType": "string",
          "name": "",
          "type": "string"
        }
      ],
      "stateMutability": "view",
      "type": "function"
    },
    {
      "inputs": [
        {
          "internalType": "uint256",
          "name": "index",
          "type": "uint256"
        }
      ],
      "name": "tokenByIndex",
      "outputs": [
        {
          "internalType": "uint256",
          "name": "",
          "type": "uint256"
        }
      ],
      "stateMutability": "view",
      "type": "function"
    },
    {
      "inputs": [
        {
          "internalType": "address",
          "name": "owner",
          "type": "address"
        },
        {
          "internalType": "uint256",
          "name": "index",
          "type": "uint256"
        }
      ],
      "name": "tokenOfOwnerByIndex",
      "outputs": [
        {
          "internalType": "uint256",
          "name": "",
          "type": "uint256"
        }
      ],
      "stateMutability": "view",
      "type": "function"
    },
    {
      "inputs": [],
      "name": "totalSupply",
      "outputs": [
        {
          "internalType": "uint256",
          "name": "",
          "type": "uint256"
        }
      ],
      "stateMutability": "view",
      "type": "function"
    },
    {
      "inputs": [
        {
          "internalType": "address",
          "name": "from",
          "type": "address"
        },
        {
          "internalType": "address",
          "name": "to",
          "type": "address"
        },
        {
          "internalType": "uint256",
          "name": "tokenId",
          "type": "uint256"
        }
      ],
      "name": "transferFrom",
      "outputs": [],
      "stateMutability": "nonpayable",
      "type": "function"
    },
    {
      "inputs": [
        {
          "internalType": "string",
          "name": "name",
          "type": "string"
        },
        {
          "internalType": "string",
          "name": "symbol",
          "type": "string"
        },
        {
          "internalType": "string",
          "name": "baseTokenURI",
          "type": "string"
        }
      ],
      "name": "initialize",
      "outputs": [],
      "stateMutability": "nonpayable",
      "type": "function"
    },
    {
      "inputs": [
        {
          "internalType": "uint256",
          "name": "tokenId",
          "type": "uint256"
        }
      ],
      "name": "tokenURI",
      "outputs": [
        {
          "internalType": "string",
          "name": "",
          "type": "string"
        }
      ],
      "stateMutability": "view",
      "type": "function"
    },
    {
      "inputs": [
        {
          "internalType": "address",
          "name": "to",
          "type": "address"
        },
        {
          "internalType": "uint256",
          "name": "tokenId",
          "type": "uint256"
        },
        {
          "internalType": "string",
          "name": "uri",
          "type": "string"
        }
      ],
      "name": "mintWithURI",
      "outputs": [],
      "stateMutability": "nonpayable",
      "type": "function"
    },
    {
      "inputs": [],
      "name": "getCurrentCounter",
      "outputs": [
        {
          "internalType": "uint256",
          "name": "",
          "type": "uint256"
        }
      ],
      "stateMutability": "view",
      "type": "function"
    },
    {
      "inputs": [],
      "name": "getLastTokenID",
      "outputs": [
        {
          "internalType": "uint256",
          "name": "",
          "type": "uint256"
        }
      ],
      "stateMutability": "view",
      "type": "function"
    },
    {
      "inputs": [
        {
          "internalType": "string",
          "name": "baseTokenURI",
          "type": "string"
        }
      ],
      "name": "setBaseTokenURI",
      "outputs": [],
      "stateMutability": "nonpayable",
      "type": "function"
    },
    {
      "inputs": [],
      "name": "pause",
      "outputs": [],
      "stateMutability": "nonpayable",
      "type": "function"
    },
    {
      "inputs": [],
      "name": "unpause",
      "outputs": [],
      "stateMutability": "nonpayable",
      "type": "function"
    },
    {
      "inputs": [
        {
          "internalType": "bytes4",
          "name": "interfaceId",
          "type": "bytes4"
        }
      ],
      "name": "supportsInterface",
      "outputs": [
        {
          "internalType": "bool",
          "name": "",
          "type": "bool"
        }
      ],
      "stateMutability": "view",
      "type": "function"
    }
  ],
  "bytecode": "0x608060405234801561001057600080fd5b5061368d806100206000396000f3fe608060405234801561001057600080fd5b506004361061025c5760003560e01c80636352211e11610145578063a22cb465116100bd578063ca15c8731161008c578063d547741f11610071578063d547741f1461051d578063e63ab1e914610530578063e985e9c51461055757600080fd5b8063ca15c873146104e3578063d5391393146104f657600080fd5b8063a22cb46514610497578063a6487c53146104aa578063b88d4fde146104bd578063c87b56dd146104d057600080fd5b80639010d07c1161011457806395d89b41116100f957806395d89b41146104605780639ceea66514610468578063a217fddf1461048f57600080fd5b80639010d07c1461041457806391d148541461042757600080fd5b80636352211e146103de57806370a08231146103f157806373448c46146104045780638456cb591461040c57600080fd5b80632f745c59116101d857806342842e0e116101a75780634a99950b1161018c5780634a99950b146103ac5780634f6ccce7146103bf5780635c975abb146103d257600080fd5b806342842e0e1461038657806342966c681461039957600080fd5b80632f745c591461034557806330176e131461035857806336568abe1461036b5780633f4ba83a1461037e57600080fd5b80630e0941371161022f57806323b872dd1161021457806323b872dd146102fc578063248a9ca31461030f5780632f2ff15d1461033257600080fd5b80630e094137146102de57806318160ddd146102f457600080fd5b806301ffc9a71461026157806306fdde0314610289578063081812fc1461029e578063095ea7b3146102c9575b600080fd5b61027461026f3660046132e0565b610593565b60405190151581526020015b60405180910390f35b6102916105a4565b60405161028091906134dd565b6102b16102ac366004613285565b610636565b6040516001600160a01b039091168152602001610280565b6102dc6102d7366004613207565b6106e1565b005b6102e6610813565b604051908152602001610280565b60fd546102e6565b6102dc61030a366004613119565b610846565b6102e661031d366004613285565b60009081526065602052604090206001015490565b6102dc61034036600461329d565b6108ce565b6102e6610353366004613207565b6108f0565b6102dc610366366004613318565b610998565b6102dc61037936600461329d565b610a2d565b6102dc610a4f565b6102dc610394366004613119565b610af7565b6102dc6103a7366004613285565b610b12565b6102dc6103ba366004613230565b610b99565b6102e66103cd366004613285565b610cae565b61015f5460ff16610274565b6102b16103ec366004613285565b610d60565b6102e66103ff3660046130cd565b610deb565b6102e6610e85565b6102dc610e91565b6102b16104223660046132bf565b610f35565b61027461043536600461329d565b60009182526065602090815260408084206001600160a01b0393909316845291905290205460ff1690565b610291610f54565b6102e67f8a9d57248f1015d5cac20111fe2512477434cf493627e5e959ca751e593d807981565b6102e6600081565b6102dc6104a53660046131cd565b610f63565b6102dc6104b836600461334b565b611028565b6102dc6104cb366004613154565b6110e9565b6102916104de366004613285565b611171565b6102e66104f1366004613285565b61117c565b6102e67f9f2df0fed2c77648de5860a4cc508cd0818c85b8b8a1ab4ceeef8d981c8956a681565b6102dc61052b36600461329d565b611193565b6102e67f65d7a28e3265b37a6474929f336521b332c1681b933f6cb9f3376673440d862a81565b6102746105653660046130e7565b6001600160a01b03918216600090815260ce6020908152604080832093909416825291909152205460ff1690565b600061059e8261119d565b92915050565b606060c980546105b390613595565b80601f01602080910402602001604051908101604052809291908181526020018280546105df90613595565b801561062c5780601f106106015761010080835404028352916020019161062c565b820191906000526020600020905b81548152906001019060200180831161060f57829003601f168201915b5050505050905090565b600081815260cb60205260408120546001600160a01b03166106c55760405162461bcd60e51b815260206004820152602c60248201527f4552433732313a20617070726f76656420717565727920666f72206e6f6e657860448201527f697374656e7420746f6b656e000000000000000000000000000000000000000060648201526084015b60405180910390fd5b50600090815260cd60205260409020546001600160a01b031690565b60006106ec82610d60565b9050806001600160a01b0316836001600160a01b031614156107765760405162461bcd60e51b815260206004820152602160248201527f4552433732313a20617070726f76616c20746f2063757272656e74206f776e6560448201527f720000000000000000000000000000000000000000000000000000000000000060648201526084016106bc565b336001600160a01b038216148061079257506107928133610565565b6108045760405162461bcd60e51b815260206004820152603860248201527f4552433732313a20617070726f76652063616c6c6572206973206e6f74206f7760448201527f6e6572206e6f7220617070726f76656420666f7220616c6c000000000000000060648201526084016106bc565b61080e83836111db565b505050565b600061081f6101f55490565b61083057506101f55490565b905090565b600161083c6101f55490565b61082b919061353b565b610851335b82611256565b6108c35760405162461bcd60e51b815260206004820152603160248201527f4552433732313a207472616e736665722063616c6c6572206973206e6f74206f60448201527f776e6572206e6f7220617070726f76656400000000000000000000000000000060648201526084016106bc565b61080e83838361135e565b6108d88282611543565b600082815260976020526040902061080e9082611569565b60006108fb83610deb565b821061096f5760405162461bcd60e51b815260206004820152602b60248201527f455243373231456e756d657261626c653a206f776e657220696e646578206f7560448201527f74206f6620626f756e647300000000000000000000000000000000000000000060648201526084016106bc565b506001600160a01b0391909116600090815260fb60209081526040808320938352929052205490565b6109a3600033610435565b610a155760405162461bcd60e51b815260206004820152603460248201527f73657442617365546f6b656e5552493a206d75737420686176652041444d494e60448201527f20726f6c6520746f206368616e6765207468697300000000000000000000000060648201526084016106bc565b8051610a29906101f6906020840190612f4d565b5050565b610a37828261157e565b600082815260976020526040902061080e9082611606565b610a797f65d7a28e3265b37a6474929f336521b332c1681b933f6cb9f3376673440d862a33610435565b610aed576040805162461bcd60e51b81526020600482015260248101919091527f4552433732315072657365744d696e7465725061757365724175746f49643a2060448201527f6d75737420686176652070617573657220726f6c6520746f20756e706175736560648201526084016106bc565b610af561161b565b565b61080e838383604051806020016040528060008152506110e9565b610b1b3361084b565b610b8d5760405162461bcd60e51b815260206004820152603060248201527f4552433732314275726e61626c653a2063616c6c6572206973206e6f74206f7760448201527f6e6572206e6f7220617070726f7665640000000000000000000000000000000060648201526084016106bc565b610b96816116b9565b50565b610bc37f8a9d57248f1015d5cac20111fe2512477434cf493627e5e959ca751e593d807933610435565b610c355760405162461bcd60e51b815260206004820152603460248201527f6d696e74576974685552493a206d757374206861766520504f4c594e4554574f60448201527f524b5f524f4c4520726f6c6520746f206d696e7400000000000000000000000060648201526084016106bc565b600082815260cb60205260409020546001600160a01b031615610c9a5760405162461bcd60e51b815260206004820152601660248201527f746f6b656e20696420616c72656164792065786973740000000000000000000060448201526064016106bc565b610ca483836116c2565b61080e82826116cc565b6000610cb960fd5490565b8210610d2d5760405162461bcd60e51b815260206004820152602c60248201527f455243373231456e756d657261626c653a20676c6f62616c20696e646578206f60448201527f7574206f6620626f756e6473000000000000000000000000000000000000000060648201526084016106bc565b60fd8281548110610d4e57634e487b7160e01b600052603260045260246000fd5b90600052602060002001549050919050565b600081815260cb60205260408120546001600160a01b03168061059e5760405162461bcd60e51b815260206004820152602960248201527f4552433732313a206f776e657220717565727920666f72206e6f6e657869737460448201527f656e7420746f6b656e000000000000000000000000000000000000000000000060648201526084016106bc565b60006001600160a01b038216610e695760405162461bcd60e51b815260206004820152602a60248201527f4552433732313a2062616c616e636520717565727920666f7220746865207a6560448201527f726f20616464726573730000000000000000000000000000000000000000000060648201526084016106bc565b506001600160a01b0316600090815260cc602052604090205490565b600061082b6101f55490565b610ebb7f65d7a28e3265b37a6474929f336521b332c1681b933f6cb9f3376673440d862a33610435565b610f2d5760405162461bcd60e51b815260206004820152603e60248201527f4552433732315072657365744d696e7465725061757365724175746f49643a2060448201527f6d75737420686176652070617573657220726f6c6520746f207061757365000060648201526084016106bc565b610af56116d6565b6000828152609760205260408120610f4d9083611760565b9392505050565b606060ca80546105b390613595565b6001600160a01b038216331415610fbc5760405162461bcd60e51b815260206004820152601960248201527f4552433732313a20617070726f766520746f2063616c6c65720000000000000060448201526064016106bc565b33600081815260ce602090815260408083206001600160a01b03871680855290835292819020805460ff191686151590811790915590519081529192917f17307eab39ab6107e8899845ad3d59bd9653f200f220920489ca2b5937696c31910160405180910390a35050565b600054610100900460ff1680611041575060005460ff16155b6110a45760405162461bcd60e51b815260206004820152602e60248201527f496e697469616c697a61626c653a20636f6e747261637420697320616c72656160448201526d191e481a5b9a5d1a585b1a5e995960921b60648201526084016106bc565b600054610100900460ff161580156110c6576000805461ffff19166101011790555b6110d184848461176c565b80156110e3576000805461ff00191690555b50505050565b6110f33383611256565b6111655760405162461bcd60e51b815260206004820152603160248201527f4552433732313a207472616e736665722063616c6c6572206973206e6f74206f60448201527f776e6572206e6f7220617070726f76656400000000000000000000000000000060648201526084016106bc565b6110e384848484611865565b606061059e826118ee565b600081815260976020526040812061059e90611a6d565b610a378282611a77565b60006001600160e01b031982167f780e9d6300000000000000000000000000000000000000000000000000000000148061059e575061059e82611a9d565b600081815260cd60205260409020805473ffffffffffffffffffffffffffffffffffffffff19166001600160a01b038416908117909155819061121d82610d60565b6001600160a01b03167f8c5be1e5ebec7d5bd14f71427d1e84f3dd0314c0f7b2291e5b200ac8c7c3b92560405160405180910390a45050565b600081815260cb60205260408120546001600160a01b03166112e05760405162461bcd60e51b815260206004820152602c60248201527f4552433732313a206f70657261746f7220717565727920666f72206e6f6e657860448201527f697374656e7420746f6b656e000000000000000000000000000000000000000060648201526084016106bc565b60006112eb83610d60565b9050806001600160a01b0316846001600160a01b031614806113265750836001600160a01b031661131b84610636565b6001600160a01b0316145b8061135657506001600160a01b03808216600090815260ce602090815260408083209388168352929052205460ff165b949350505050565b826001600160a01b031661137182610d60565b6001600160a01b0316146113ed5760405162461bcd60e51b815260206004820152602960248201527f4552433732313a207472616e73666572206f6620746f6b656e2074686174206960448201527f73206e6f74206f776e000000000000000000000000000000000000000000000060648201526084016106bc565b6001600160a01b0382166114685760405162461bcd60e51b8152602060048201526024808201527f4552433732313a207472616e7366657220746f20746865207a65726f2061646460448201527f726573730000000000000000000000000000000000000000000000000000000060648201526084016106bc565b611473838383611b0f565b61147e6000826111db565b6001600160a01b038316600090815260cc602052604081208054600192906114a790849061353b565b90915550506001600160a01b038216600090815260cc602052604081208054600192906114d59084906134f0565b9091555050600081815260cb6020526040808220805473ffffffffffffffffffffffffffffffffffffffff19166001600160a01b0386811691821790925591518493918716917fddf252ad1be2c89b69c2b068fc378daa952ba7f163c4a11628f55a4df523b3ef91a4505050565b60008281526065602052604090206001015461155f8133611b1a565b61080e8383611b9a565b6000610f4d836001600160a01b038416611c3c565b6001600160a01b03811633146115fc5760405162461bcd60e51b815260206004820152602f60248201527f416363657373436f6e74726f6c3a2063616e206f6e6c792072656e6f756e636560448201527f20726f6c657320666f722073656c66000000000000000000000000000000000060648201526084016106bc565b610a298282611c8b565b6000610f4d836001600160a01b038416611d0e565b61015f5460ff1661166e5760405162461bcd60e51b815260206004820152601460248201527f5061757361626c653a206e6f742070617573656400000000000000000000000060448201526064016106bc565b61015f805460ff191690557f5db9ee0a495bf2e6ff9c91a7834c1ba4fdd244a5e8aa4e537bd38aeae4b073aa335b6040516001600160a01b03909116815260200160405180910390a1565b610b9681611e25565b610a298282611e67565b610a298282611e81565b61015f5460ff161561172a5760405162461bcd60e51b815260206004820152601060248201527f5061757361626c653a207061757365640000000000000000000000000000000060448201526064016106bc565b61015f805460ff191660011790557f62e78cea01bee320cd4e420270b5ea74000d11b0c9f74754ebdbfc544b05a25861169c3390565b6000610f4d8383611f2b565b600054610100900460ff1680611785575060005460ff16155b6117e85760405162461bcd60e51b815260206004820152602e60248201527f496e697469616c697a61626c653a20636f6e747261637420697320616c72656160448201526d191e481a5b9a5d1a585b1a5e995960921b60648201526084016106bc565b600054610100900460ff1615801561180a576000805461ffff19166101011790555b611812611fda565b61181a611fda565b611822611fda565b61182a611fda565b611834848461208c565b61183c611fda565b611844611fda565b61184c612168565b611854611fda565b61185d82612225565b6110d1611fda565b61187084848461135e565b61187c84848484612385565b6110e35760405162461bcd60e51b815260206004820152603260248201527f4552433732313a207472616e7366657220746f206e6f6e20455243373231526560448201527f63656976657220696d706c656d656e746572000000000000000000000000000060648201526084016106bc565b600081815260cb60205260409020546060906001600160a01b031661197b5760405162461bcd60e51b815260206004820152603160248201527f45524337323155524953746f726167653a2055524920717565727920666f722060448201527f6e6f6e6578697374656e7420746f6b656e00000000000000000000000000000060648201526084016106bc565b60008281526101c360205260408120805461199590613595565b80601f01602080910402602001604051908101604052809291908181526020018280546119c190613595565b8015611a0e5780601f106119e357610100808354040283529160200191611a0e565b820191906000526020600020905b8154815290600101906020018083116119f157829003601f168201915b505050505090506000611a1f6124e8565b9050805160001415611a32575092915050565b815115611a64578082604051602001611a4c9291906133f1565b60405160208183030381529060405292505050919050565b611356846124f8565b600061059e825490565b600082815260656020526040902060010154611a938133611b1a565b61080e8383611c8b565b60006001600160e01b031982167f80ac58cd000000000000000000000000000000000000000000000000000000001480611b0057506001600160e01b031982167f5b5e139f00000000000000000000000000000000000000000000000000000000145b8061059e575061059e826125e0565b61080e83838361261e565b60008281526065602090815260408083206001600160a01b038516845290915290205460ff16610a2957611b58816001600160a01b031660146126a3565b611b638360206126a3565b604051602001611b74929190613420565b60408051601f198184030181529082905262461bcd60e51b82526106bc916004016134dd565b60008281526065602090815260408083206001600160a01b038516845290915290205460ff16610a295760008281526065602090815260408083206001600160a01b03851684529091529020805460ff19166001179055611bf83390565b6001600160a01b0316816001600160a01b0316837f2f8788117e7eff1d82e926ec794901d17c78024a50270940304540a733656f0d60405160405180910390a45050565b6000818152600183016020526040812054611c835750815460018181018455600084815260208082209093018490558454848252828601909352604090209190915561059e565b50600061059e565b60008281526065602090815260408083206001600160a01b038516845290915290205460ff1615610a295760008281526065602090815260408083206001600160a01b0385168085529252808320805460ff1916905551339285917ff6391f5c32d9c69d2a47ea670b442974b53935d1edc7fd64eb21e047a839171b9190a45050565b60008181526001830160205260408120548015611e1b576000611d3260018361353b565b8554909150600090611d469060019061353b565b90506000866000018281548110611d6d57634e487b7160e01b600052603260045260246000fd5b9060005260206000200154905080876000018481548110611d9e57634e487b7160e01b600052603260045260246000fd5b600091825260208083209091019290925582815260018901909152604090208490558654879080611ddf57634e487b7160e01b600052603160045260246000fd5b6001900381819060005260206000200160009055905586600101600087815260200190815260200160002060009055600194505050505061059e565b600091505061059e565b611e2e816128ae565b60008181526101c3602052604090208054611e4890613595565b159050610b965760008181526101c360205260408120610b9691612fd1565b610a29828260405180602001604052806000815250612962565b600082815260cb60205260409020546001600160a01b0316611f0b5760405162461bcd60e51b815260206004820152602e60248201527f45524337323155524953746f726167653a2055524920736574206f66206e6f6e60448201527f6578697374656e7420746f6b656e00000000000000000000000000000000000060648201526084016106bc565b60008281526101c360209081526040909120825161080e92840190612f4d565b81546000908210611fa45760405162461bcd60e51b815260206004820152602260248201527f456e756d657261626c655365743a20696e646578206f7574206f6620626f756e60448201527f647300000000000000000000000000000000000000000000000000000000000060648201526084016106bc565b826000018281548110611fc757634e487b7160e01b600052603260045260246000fd5b9060005260206000200154905092915050565b600054610100900460ff1680611ff3575060005460ff16155b6120565760405162461bcd60e51b815260206004820152602e60248201527f496e697469616c697a61626c653a20636f6e747261637420697320616c72656160448201526d191e481a5b9a5d1a585b1a5e995960921b60648201526084016106bc565b600054610100900460ff16158015612078576000805461ffff19166101011790555b8015610b96576000805461ff001916905550565b600054610100900460ff16806120a5575060005460ff16155b6121085760405162461bcd60e51b815260206004820152602e60248201527f496e697469616c697a61626c653a20636f6e747261637420697320616c72656160448201526d191e481a5b9a5d1a585b1a5e995960921b60648201526084016106bc565b600054610100900460ff1615801561212a576000805461ffff19166101011790555b825161213d9060c9906020860190612f4d565b5081516121519060ca906020850190612f4d565b50801561080e576000805461ff0019169055505050565b600054610100900460ff1680612181575060005460ff16155b6121e45760405162461bcd60e51b815260206004820152602e60248201527f496e697469616c697a61626c653a20636f6e747261637420697320616c72656160448201526d191e481a5b9a5d1a585b1a5e995960921b60648201526084016106bc565b600054610100900460ff16158015612206576000805461ffff19166101011790555b61015f805460ff191690558015610b96576000805461ff001916905550565b600054610100900460ff168061223e575060005460ff16155b6122a15760405162461bcd60e51b815260206004820152602e60248201527f496e697469616c697a61626c653a20636f6e747261637420697320616c72656160448201526d191e481a5b9a5d1a585b1a5e995960921b60648201526084016106bc565b600054610100900460ff161580156122c3576000805461ffff19166101011790555b81516122d7906101f6906020850190612f4d565b506122e36000336129eb565b61230d7f9f2df0fed2c77648de5860a4cc508cd0818c85b8b8a1ab4ceeef8d981c8956a6336129eb565b6123377f65d7a28e3265b37a6474929f336521b332c1681b933f6cb9f3376673440d862a336129eb565b6123617f8a9d57248f1015d5cac20111fe2512477434cf493627e5e959ca751e593d8079336129eb565b6123706101f580546001019055565b8015610a29576000805461ff00191690555050565b60006001600160a01b0384163b156124dd57604051630a85bd0160e11b81526001600160a01b0385169063150b7a02906123c99033908990889088906004016134a1565b602060405180830381600087803b1580156123e357600080fd5b505af1925050508015612413575060408051601f3d908101601f19168201909252612410918101906132fc565b60015b6124c3573d808015612441576040519150601f19603f3d011682016040523d82523d6000602084013e612446565b606091505b5080516124bb5760405162461bcd60e51b815260206004820152603260248201527f4552433732313a207472616e7366657220746f206e6f6e20455243373231526560448201527f63656976657220696d706c656d656e746572000000000000000000000000000060648201526084016106bc565b805181602001fd5b6001600160e01b031916630a85bd0160e11b149050611356565b506001949350505050565b60606101f680546105b390613595565b600081815260cb60205260409020546060906001600160a01b03166125855760405162461bcd60e51b815260206004820152602f60248201527f4552433732314d657461646174613a2055524920717565727920666f72206e6f60448201527f6e6578697374656e7420746f6b656e000000000000000000000000000000000060648201526084016106bc565b600061258f6124e8565b905060008151116125af5760405180602001604052806000815250610f4d565b806125b9846129f5565b6040516020016125ca9291906133f1565b6040516020818303038152906040529392505050565b60006001600160e01b031982167f5a05180f00000000000000000000000000000000000000000000000000000000148061059e575061059e82612b0f565b612629838383612b76565b61015f5460ff161561080e5760405162461bcd60e51b815260206004820152602b60248201527f4552433732315061757361626c653a20746f6b656e207472616e73666572207760448201527f68696c652070617573656400000000000000000000000000000000000000000060648201526084016106bc565b606060006126b283600261351c565b6126bd9060026134f0565b67ffffffffffffffff8111156126e357634e487b7160e01b600052604160045260246000fd5b6040519080825280601f01601f19166020018201604052801561270d576020820181803683370190505b509050600360fc1b8160008151811061273657634e487b7160e01b600052603260045260246000fd5b60200101906001600160f81b031916908160001a9053507f78000000000000000000000000000000000000000000000000000000000000008160018151811061278f57634e487b7160e01b600052603260045260246000fd5b60200101906001600160f81b031916908160001a90535060006127b384600261351c565b6127be9060016134f0565b90505b600181111561285f577f303132333435363738396162636465660000000000000000000000000000000085600f166010811061280d57634e487b7160e01b600052603260045260246000fd5b1a60f81b82828151811061283157634e487b7160e01b600052603260045260246000fd5b60200101906001600160f81b031916908160001a90535060049490941c936128588161357e565b90506127c1565b508315610f4d5760405162461bcd60e51b815260206004820181905260248201527f537472696e67733a20686578206c656e67746820696e73756666696369656e7460448201526064016106bc565b60006128b982610d60565b90506128c781600084611b0f565b6128d26000836111db565b6001600160a01b038116600090815260cc602052604081208054600192906128fb90849061353b565b9091555050600082815260cb6020526040808220805473ffffffffffffffffffffffffffffffffffffffff19169055518391906001600160a01b038416907fddf252ad1be2c89b69c2b068fc378daa952ba7f163c4a11628f55a4df523b3ef908390a45050565b61296c8383612c2e565b6129796000848484612385565b61080e5760405162461bcd60e51b815260206004820152603260248201527f4552433732313a207472616e7366657220746f206e6f6e20455243373231526560448201527f63656976657220696d706c656d656e746572000000000000000000000000000060648201526084016106bc565b6108d88282612d89565b606081612a195750506040805180820190915260018152600360fc1b602082015290565b8160005b8115612a435780612a2d816135d0565b9150612a3c9050600a83613508565b9150612a1d565b60008167ffffffffffffffff811115612a6c57634e487b7160e01b600052604160045260246000fd5b6040519080825280601f01601f191660200182016040528015612a96576020820181803683370190505b5090505b841561135657612aab60018361353b565b9150612ab8600a866135eb565b612ac39060306134f0565b60f81b818381518110612ae657634e487b7160e01b600052603260045260246000fd5b60200101906001600160f81b031916908160001a905350612b08600a86613508565b9450612a9a565b60006001600160e01b031982167f7965db0b00000000000000000000000000000000000000000000000000000000148061059e57507f01ffc9a7000000000000000000000000000000000000000000000000000000006001600160e01b031983161461059e565b6001600160a01b038316612bd157612bcc8160fd8054600083815260fe60205260408120829055600182018355919091527f9346ac6dd7de6b96975fec380d4d994c4c12e6a8897544f22915316cc6cca2800155565b612bf4565b816001600160a01b0316836001600160a01b031614612bf457612bf48382612d93565b6001600160a01b038216612c0b5761080e81612e30565b826001600160a01b0316826001600160a01b03161461080e5761080e8282612f09565b6001600160a01b038216612c845760405162461bcd60e51b815260206004820181905260248201527f4552433732313a206d696e7420746f20746865207a65726f206164647265737360448201526064016106bc565b600081815260cb60205260409020546001600160a01b031615612ce95760405162461bcd60e51b815260206004820152601c60248201527f4552433732313a20746f6b656e20616c7265616479206d696e7465640000000060448201526064016106bc565b612cf560008383611b0f565b6001600160a01b038216600090815260cc60205260408120805460019290612d1e9084906134f0565b9091555050600081815260cb6020526040808220805473ffffffffffffffffffffffffffffffffffffffff19166001600160a01b03861690811790915590518392907fddf252ad1be2c89b69c2b068fc378daa952ba7f163c4a11628f55a4df523b3ef908290a45050565b610a298282611b9a565b60006001612da084610deb565b612daa919061353b565b600083815260fc6020526040902054909150808214612dfd576001600160a01b038416600090815260fb60209081526040808320858452825280832054848452818420819055835260fc90915290208190555b50600091825260fc602090815260408084208490556001600160a01b03909416835260fb81528383209183525290812055565b60fd54600090612e429060019061353b565b600083815260fe602052604081205460fd8054939450909284908110612e7857634e487b7160e01b600052603260045260246000fd5b906000526020600020015490508060fd8381548110612ea757634e487b7160e01b600052603260045260246000fd5b600091825260208083209091019290925582815260fe909152604080822084905585825281205560fd805480612eed57634e487b7160e01b600052603160045260246000fd5b6001900381819060005260206000200160009055905550505050565b6000612f1483610deb565b6001600160a01b03909316600090815260fb60209081526040808320868452825280832085905593825260fc9052919091209190915550565b828054612f5990613595565b90600052602060002090601f016020900481019282612f7b5760008555612fc1565b82601f10612f9457805160ff1916838001178555612fc1565b82800160010185558215612fc1579182015b82811115612fc1578251825591602001919060010190612fa6565b50612fcd929150613007565b5090565b508054612fdd90613595565b6000825580601f10612fed575050565b601f016020900490600052602060002090810190610b9691905b5b80821115612fcd5760008155600101613008565b600067ffffffffffffffff808411156130375761303761362b565b604051601f8501601f19908116603f0116810190828211818310171561305f5761305f61362b565b8160405280935085815286868601111561307857600080fd5b858560208301376000602087830101525050509392505050565b80356001600160a01b03811681146130a957600080fd5b919050565b600082601f8301126130be578081fd5b610f4d8383356020850161301c565b6000602082840312156130de578081fd5b610f4d82613092565b600080604083850312156130f9578081fd5b61310283613092565b915061311060208401613092565b90509250929050565b60008060006060848603121561312d578081fd5b61313684613092565b925061314460208501613092565b9150604084013590509250925092565b60008060008060808587031215613169578081fd5b61317285613092565b935061318060208601613092565b925060408501359150606085013567ffffffffffffffff8111156131a2578182fd5b8501601f810187136131b2578182fd5b6131c18782356020840161301c565b91505092959194509250565b600080604083850312156131df578182fd5b6131e883613092565b9150602083013580151581146131fc578182fd5b809150509250929050565b60008060408385031215613219578182fd5b61322283613092565b946020939093013593505050565b600080600060608486031215613244578283fd5b61324d84613092565b925060208401359150604084013567ffffffffffffffff81111561326f578182fd5b61327b868287016130ae565b9150509250925092565b600060208284031215613296578081fd5b5035919050565b600080604083850312156132af578182fd5b8235915061311060208401613092565b600080604083850312156132d1578182fd5b50508035926020909101359150565b6000602082840312156132f1578081fd5b8135610f4d81613641565b60006020828403121561330d578081fd5b8151610f4d81613641565b600060208284031215613329578081fd5b813567ffffffffffffffff81111561333f578182fd5b611356848285016130ae565b60008060006060848603121561335f578081fd5b833567ffffffffffffffff80821115613376578283fd5b613382878388016130ae565b94506020860135915080821115613397578283fd5b6133a3878388016130ae565b935060408601359150808211156133b8578283fd5b5061327b868287016130ae565b600081518084526133dd816020860160208601613552565b601f01601f19169290920160200192915050565b60008351613403818460208801613552565b835190830190613417818360208801613552565b01949350505050565b7f416363657373436f6e74726f6c3a206163636f756e7420000000000000000000815260008351613458816017850160208801613552565b7f206973206d697373696e6720726f6c65200000000000000000000000000000006017918401918201528351613495816028840160208801613552565b01602801949350505050565b60006001600160a01b038087168352808616602084015250836040830152608060608301526134d360808301846133c5565b9695505050505050565b602081526000610f4d60208301846133c5565b60008219821115613503576135036135ff565b500190565b60008261351757613517613615565b500490565b6000816000190483118215151615613536576135366135ff565b500290565b60008282101561354d5761354d6135ff565b500390565b60005b8381101561356d578181015183820152602001613555565b838111156110e35750506000910152565b60008161358d5761358d6135ff565b506000190190565b600181811c908216806135a957607f821691505b602082108114156135ca57634e487b7160e01b600052602260045260246000fd5b50919050565b60006000198214156135e4576135e46135ff565b5060010190565b6000826135fa576135fa613615565b500690565b634e487b7160e01b600052601160045260246000fd5b634e487b7160e01b600052601260045260246000fd5b634e487b7160e01b600052604160045260246000fd5b6001600160e01b031981168114610b9657600080fdfea26469706673582212202e66919f47bdf6c970c72c780951b99d5cd9db47d23edffb1d8ff029ea2d0d6a64736f6c63430008040033",
  "immutableReferences": {},
  "source": "// SPDX-License-Identifier: MIT\n\npragma solidity ^0.8.0;\n\nimport \"@openzeppelin/contracts-upgradeable/token/ERC721/ERC721Upgradeable.sol\";\nimport \"@openzeppelin/contracts-upgradeable/token/ERC721/extensions/ERC721URIStorageUpgradeable.sol\";\nimport \"@openzeppelin/contracts-upgradeable/token/ERC721/extensions/ERC721EnumerableUpgradeable.sol\";\nimport \"@openzeppelin/contracts-upgradeable/token/ERC721/extensions/ERC721BurnableUpgradeable.sol\";\nimport \"@openzeppelin/contracts-upgradeable/token/ERC721/extensions/ERC721PausableUpgradeable.sol\";\nimport \"@openzeppelin/contracts-upgradeable/access/AccessControlEnumerableUpgradeable.sol\";\nimport \"@openzeppelin/contracts-upgradeable/utils/ContextUpgradeable.sol\";\nimport \"@openzeppelin/contracts-upgradeable/utils/CountersUpgradeable.sol\";\nimport \"@openzeppelin/contracts-upgradeable/proxy/utils/Initializable.sol\";\n\n/**\n * @dev {ERC721} token, including:\n *\n *  - ability for holders to burn (destroy) their tokens\n *  - a minter role that allows for token minting (creation)\n *  - a pauser role that allows to stop all token transfers\n *  - token ID and URI autogeneration\n *\n * This contract uses {AccessControl} to lock permissioned functions using the\n * different roles - head to its documentation for details.\n *\n * The account that deploys the contract will be granted the minter and pauser\n * roles, as well as the default admin role, which will let it grant both minter\n * and pauser roles to other accounts.\n */\ncontract ERC721PresetMinterPauserAutoIdUpgradeableCustom is\n\tInitializable,\n\tContextUpgradeable,\n\tAccessControlEnumerableUpgradeable,\n\tERC721EnumerableUpgradeable,\n\tERC721BurnableUpgradeable,\n\tERC721PausableUpgradeable,\n\tERC721URIStorageUpgradeable\n{\n\tfunction initialize(\n\t\tstring memory name,\n\t\tstring memory symbol,\n\t\tstring memory baseTokenURI\n\t) public virtual initializer {\n\t\t__ERC721PresetMinterPauserAutoId_init(name, symbol, baseTokenURI);\n\t}\n\n\tusing CountersUpgradeable for CountersUpgradeable.Counter;\n\n\tbytes32 public constant MINTER_ROLE = keccak256(\"MINTER_ROLE\");\n\tbytes32 public constant PAUSER_ROLE = keccak256(\"PAUSER_ROLE\");\n\tbytes32 public constant POLYNETWORK_ROLE = keccak256(\"POLYNETWORK_ROLE\");\n\n\tCountersUpgradeable.Counter private _tokenIdTracker;\n\n\tstring private _baseTokenURI;\n\n\t/**\n\t * @dev Grants `DEFAULT_ADMIN_ROLE`, `MINTER_ROLE` and `PAUSER_ROLE` to the\n\t * account that deploys the contract.\n\t *\n\t * Token URIs will be autogenerated based on `baseURI` and their token IDs.\n\t * See {ERC721-tokenURI}.\n\t */\n\tfunction __ERC721PresetMinterPauserAutoId_init(\n\t\tstring memory name,\n\t\tstring memory symbol,\n\t\tstring memory baseTokenURI\n\t) internal initializer {\n\t\t__Context_init_unchained();\n\t\t__ERC165_init_unchained();\n\t\t__AccessControl_init_unchained();\n\t\t__AccessControlEnumerable_init_unchained();\n\t\t__ERC721_init_unchained(name, symbol);\n\t\t__ERC721Enumerable_init_unchained();\n\t\t__ERC721Burnable_init_unchained();\n\t\t__Pausable_init_unchained();\n\t\t__ERC721Pausable_init_unchained();\n\t\t__ERC721PresetMinterPauserAutoId_init_unchained(baseTokenURI);\n\t\t__ERC721URIStorage_init_unchained();\n\t}\n\n\tfunction __ERC721PresetMinterPauserAutoId_init_unchained(string memory baseTokenURI) internal initializer {\n\t\t_baseTokenURI = baseTokenURI;\n\t\t_setupRole(DEFAULT_ADMIN_ROLE, _msgSender());\n\t\t_setupRole(MINTER_ROLE, _msgSender());\n\t\t_setupRole(PAUSER_ROLE, _msgSender());\n\t\t_setupRole(POLYNETWORK_ROLE, _msgSender());\n\t\t_tokenIdTracker.increment();\n\t}\n\n\tfunction _baseURI() internal view virtual override returns (string memory) {\n\t\treturn _baseTokenURI;\n\t}\n\n\t/**\n\t * @dev Creates a new token for `to`. Its token ID will be automatically\n\t * assigned (and available on the emitted {IERC721-Transfer} event), and the token\n\t * URI autogenerated based on the base URI passed at construction.\n\t *\n\t * See {ERC721-_mint}.\n\t *\n\t * Requirements:\n\t *\n\t * - the caller must have the `MINTER_ROLE`.\n\t */\n\tfunction mint(address to) internal virtual {\n\t\t// We cannot just use balanceOf to create the new tokenId because tokens\n\t\t// can be burned (destroyed), so we need a separate counter.\n\t\t_mint(to, _tokenIdTracker.current());\n\t\t_tokenIdTracker.increment();\n\t}\n\n\tfunction _burn(uint256 tokenId) internal override(ERC721URIStorageUpgradeable, ERC721Upgradeable) {\n\t\tERC721URIStorageUpgradeable._burn(tokenId);\n\t}\n\n\t/**\n\t * @dev See {IERC721Metadata-tokenURI}.\n\t */\n\tfunction tokenURI(uint256 tokenId) public view virtual override(ERC721URIStorageUpgradeable, ERC721Upgradeable) returns (string memory) {\n\t\treturn ERC721URIStorageUpgradeable.tokenURI(tokenId);\n\t}\n\n\t/**\n\t * @dev polynetwork CrossChainNFTMapping\n\t */\n\tfunction mintWithURI(\n\t\taddress to,\n\t\tuint256 tokenId,\n\t\tstring memory uri\n\t) external {\n\t\trequire(hasRole(POLYNETWORK_ROLE, _msgSender()), \"mintWithURI: must have POLYNETWORK_ROLE role to mint\");\n\t\trequire(!_exists(tokenId), \"token id already exist\");\n\t\t_safeMint(to, tokenId);\n\t\t_setTokenURI(tokenId, uri);\n\t}\n\n\tfunction _safeMint(address to, uint256 tokenId) internal virtual override {\n\t\tsuper._safeMint(to, tokenId);\n\t}\n\n\t/**\n\t * @dev update tokenURI\n\t */\n\tfunction _setTokenURI(uint256 tokenId, string memory tokenUri) internal virtual override {\n\t\tERC721URIStorageUpgradeable._setTokenURI(tokenId, tokenUri);\n\t}\n\n\tfunction getCurrentCounter() public view returns (uint256) {\n\t\treturn _tokenIdTracker.current();\n\t}\n\n\tfunction getLastTokenID() public view returns (uint256) {\n\t\tif (_tokenIdTracker.current() == 0) {\n\t\t\treturn _tokenIdTracker.current();\n\t\t} else return _tokenIdTracker.current() - 1;\n\t}\n\n\tfunction setBaseTokenURI(string memory baseTokenURI) public {\n\t\trequire(hasRole(DEFAULT_ADMIN_ROLE, _msgSender()), \"setBaseTokenURI: must have ADMIN role to change this\");\n\t\t_baseTokenURI = baseTokenURI;\n\t}\n\n\t/**\n\t * @dev Pauses all token transfers.\n\t *\n\t * See {ERC721Pausable} and {Pausable-_pause}.\n\t *\n\t * Requirements:\n\t *\n\t * - the caller must have the `PAUSER_ROLE`.\n\t */\n\tfunction pause() public virtual {\n\t\trequire(hasRole(PAUSER_ROLE, _msgSender()), \"ERC721PresetMinterPauserAutoId: must have pauser role to pause\");\n\t\t_pause();\n\t}\n\n\t/**\n\t * @dev Unpauses all token transfers.\n\t *\n\t * See {ERC721Pausable} and {Pausable-_unpause}.\n\t *\n\t * Requirements:\n\t *\n\t * - the caller must have the `PAUSER_ROLE`.\n\t */\n\tfunction unpause() public virtual {\n\t\trequire(hasRole(PAUSER_ROLE, _msgSender()), \"ERC721PresetMinterPauserAutoId: must have pauser role to unpause\");\n\t\t_unpause();\n\t}\n\n\tfunction _beforeTokenTransfer(\n\t\taddress from,\n\t\taddress to,\n\t\tuint256 tokenId\n\t) internal virtual override(ERC721Upgradeable, ERC721EnumerableUpgradeable, ERC721PausableUpgradeable) {\n\t\tsuper._beforeTokenTransfer(from, to, tokenId);\n\t}\n\n\t/**\n\t * @dev See {IERC165-supportsInterface}.\n\t */\n\tfunction supportsInterface(bytes4 interfaceId)\n\t\tpublic\n\t\tview\n\t\tvirtual\n\t\toverride(AccessControlEnumerableUpgradeable, ERC721Upgradeable, ERC721EnumerableUpgradeable)\n\t\treturns (bool)\n\t{\n\t\treturn super.supportsInterface(interfaceId);\n\t}\n\n\tuint256[50] private __gap;\n}\n",
  "sourcePath": "/Users/vincent/Dev/GhostMarketContractBSC/contracts/ERC721PresetMinterPauserAutoIdUpgradeableCustom.sol",
  "compiler": {
    "name": "solc",
    "version": "0.8.4+commit.c7e474f2.Emscripten.clang"
  },
  "schemaVersion": "3.4.1",
  "updatedAt": "2021-06-22T07:26:34.308Z",
  "devdoc": {
    "details": "{ERC721} token, including:  - ability for holders to burn (destroy) their tokens  - a minter role that allows for token minting (creation)  - a pauser role that allows to stop all token transfers  - token ID and URI autogeneration This contract uses {AccessControl} to lock permissioned functions using the different roles - head to its documentation for details. The account that deploys the contract will be granted the minter and pauser roles, as well as the default admin role, which will let it grant both minter and pauser roles to other accounts.",
    "kind": "dev",
    "methods": {
      "approve(address,uint256)": {
        "details": "See {IERC721-approve}."
      },
      "balanceOf(address)": {
        "details": "See {IERC721-balanceOf}."
      },
      "burn(uint256)": {
        "details": "Burns `tokenId`. See {ERC721-_burn}. Requirements: - The caller must own `tokenId` or be an approved operator."
      },
      "getApproved(uint256)": {
        "details": "See {IERC721-getApproved}."
      },
      "getRoleAdmin(bytes32)": {
        "details": "Returns the admin role that controls `role`. See {grantRole} and {revokeRole}. To change a role's admin, use {_setRoleAdmin}."
      },
      "getRoleMember(bytes32,uint256)": {
        "details": "Returns one of the accounts that have `role`. `index` must be a value between 0 and {getRoleMemberCount}, non-inclusive. Role bearers are not sorted in any particular way, and their ordering may change at any point. WARNING: When using {getRoleMember} and {getRoleMemberCount}, make sure you perform all queries on the same block. See the following https://forum.openzeppelin.com/t/iterating-over-elements-on-enumerableset-in-openzeppelin-contracts/2296[forum post] for more information."
      },
      "getRoleMemberCount(bytes32)": {
        "details": "Returns the number of accounts that have `role`. Can be used together with {getRoleMember} to enumerate all bearers of a role."
      },
      "grantRole(bytes32,address)": {
        "details": "Overload {grantRole} to track enumerable memberships"
      },
      "hasRole(bytes32,address)": {
        "details": "Returns `true` if `account` has been granted `role`."
      },
      "isApprovedForAll(address,address)": {
        "details": "See {IERC721-isApprovedForAll}."
      },
      "mintWithURI(address,uint256,string)": {
        "details": "polynetwork CrossChainNFTMapping"
      },
      "name()": {
        "details": "See {IERC721Metadata-name}."
      },
      "ownerOf(uint256)": {
        "details": "See {IERC721-ownerOf}."
      },
      "pause()": {
        "details": "Pauses all token transfers. See {ERC721Pausable} and {Pausable-_pause}. Requirements: - the caller must have the `PAUSER_ROLE`."
      },
      "paused()": {
        "details": "Returns true if the contract is paused, and false otherwise."
      },
      "renounceRole(bytes32,address)": {
        "details": "Overload {renounceRole} to track enumerable memberships"
      },
      "revokeRole(bytes32,address)": {
        "details": "Overload {revokeRole} to track enumerable memberships"
      },
      "safeTransferFrom(address,address,uint256)": {
        "details": "See {IERC721-safeTransferFrom}."
      },
      "safeTransferFrom(address,address,uint256,bytes)": {
        "details": "See {IERC721-safeTransferFrom}."
      },
      "setApprovalForAll(address,bool)": {
        "details": "See {IERC721-setApprovalForAll}."
      },
      "supportsInterface(bytes4)": {
        "details": "See {IERC165-supportsInterface}."
      },
      "symbol()": {
        "details": "See {IERC721Metadata-symbol}."
      },
      "tokenByIndex(uint256)": {
        "details": "See {IERC721Enumerable-tokenByIndex}."
      },
      "tokenOfOwnerByIndex(address,uint256)": {
        "details": "See {IERC721Enumerable-tokenOfOwnerByIndex}."
      },
      "tokenURI(uint256)": {
        "details": "See {IERC721Metadata-tokenURI}."
      },
      "totalSupply()": {
        "details": "See {IERC721Enumerable-totalSupply}."
      },
      "transferFrom(address,address,uint256)": {
        "details": "See {IERC721-transferFrom}."
      },
      "unpause()": {
        "details": "Unpauses all token transfers. See {ERC721Pausable} and {Pausable-_unpause}. Requirements: - the caller must have the `PAUSER_ROLE`."
      }
    },
    "version": 1
  },
  "userdoc": {
    "kind": "user",
    "methods": {},
    "version": 1
  }
}