{
  "contractName": "ERC721PresetMinterPauserAutoIdUpgradeable",
  "abi": [
    {
      "anonymous": false,
      "inputs": [
        {
          "indexed": true,
          "internalType": "address",
          "name": "owner",
          "type": "address"
        },
        {
          "indexed": true,
          "internalType": "address",
          "name": "approved",
          "type": "address"
        },
        {
          "indexed": true,
          "internalType": "uint256",
          "name": "tokenId",
          "type": "uint256"
        }
      ],
      "name": "Approval",
      "type": "event"
    },
    {
      "anonymous": false,
      "inputs": [
        {
          "indexed": true,
          "internalType": "address",
          "name": "owner",
          "type": "address"
        },
        {
          "indexed": true,
          "internalType": "address",
          "name": "operator",
          "type": "address"
        },
        {
          "indexed": false,
          "internalType": "bool",
          "name": "approved",
          "type": "bool"
        }
      ],
      "name": "ApprovalForAll",
      "type": "event"
    },
    {
      "anonymous": false,
      "inputs": [
        {
          "indexed": false,
          "internalType": "address",
          "name": "account",
          "type": "address"
        }
      ],
      "name": "Paused",
      "type": "event"
    },
    {
      "anonymous": false,
      "inputs": [
        {
          "indexed": true,
          "internalType": "bytes32",
          "name": "role",
          "type": "bytes32"
        },
        {
          "indexed": true,
          "internalType": "bytes32",
          "name": "previousAdminRole",
          "type": "bytes32"
        },
        {
          "indexed": true,
          "internalType": "bytes32",
          "name": "newAdminRole",
          "type": "bytes32"
        }
      ],
      "name": "RoleAdminChanged",
      "type": "event"
    },
    {
      "anonymous": false,
      "inputs": [
        {
          "indexed": true,
          "internalType": "bytes32",
          "name": "role",
          "type": "bytes32"
        },
        {
          "indexed": true,
          "internalType": "address",
          "name": "account",
          "type": "address"
        },
        {
          "indexed": true,
          "internalType": "address",
          "name": "sender",
          "type": "address"
        }
      ],
      "name": "RoleGranted",
      "type": "event"
    },
    {
      "anonymous": false,
      "inputs": [
        {
          "indexed": true,
          "internalType": "bytes32",
          "name": "role",
          "type": "bytes32"
        },
        {
          "indexed": true,
          "internalType": "address",
          "name": "account",
          "type": "address"
        },
        {
          "indexed": true,
          "internalType": "address",
          "name": "sender",
          "type": "address"
        }
      ],
      "name": "RoleRevoked",
      "type": "event"
    },
    {
      "anonymous": false,
      "inputs": [
        {
          "indexed": true,
          "internalType": "address",
          "name": "from",
          "type": "address"
        },
        {
          "indexed": true,
          "internalType": "address",
          "name": "to",
          "type": "address"
        },
        {
          "indexed": true,
          "internalType": "uint256",
          "name": "tokenId",
          "type": "uint256"
        }
      ],
      "name": "Transfer",
      "type": "event"
    },
    {
      "anonymous": false,
      "inputs": [
        {
          "indexed": false,
          "internalType": "address",
          "name": "account",
          "type": "address"
        }
      ],
      "name": "Unpaused",
      "type": "event"
    },
    {
      "inputs": [],
      "name": "DEFAULT_ADMIN_ROLE",
      "outputs": [
        {
          "internalType": "bytes32",
          "name": "",
          "type": "bytes32"
        }
      ],
      "stateMutability": "view",
      "type": "function"
    },
    {
      "inputs": [],
      "name": "MINTER_ROLE",
      "outputs": [
        {
          "internalType": "bytes32",
          "name": "",
          "type": "bytes32"
        }
      ],
      "stateMutability": "view",
      "type": "function"
    },
    {
      "inputs": [],
      "name": "PAUSER_ROLE",
      "outputs": [
        {
          "internalType": "bytes32",
          "name": "",
          "type": "bytes32"
        }
      ],
      "stateMutability": "view",
      "type": "function"
    },
    {
      "inputs": [
        {
          "internalType": "address",
          "name": "to",
          "type": "address"
        },
        {
          "internalType": "uint256",
          "name": "tokenId",
          "type": "uint256"
        }
      ],
      "name": "approve",
      "outputs": [],
      "stateMutability": "nonpayable",
      "type": "function"
    },
    {
      "inputs": [
        {
          "internalType": "address",
          "name": "owner",
          "type": "address"
        }
      ],
      "name": "balanceOf",
      "outputs": [
        {
          "internalType": "uint256",
          "name": "",
          "type": "uint256"
        }
      ],
      "stateMutability": "view",
      "type": "function"
    },
    {
      "inputs": [
        {
          "internalType": "uint256",
          "name": "tokenId",
          "type": "uint256"
        }
      ],
      "name": "burn",
      "outputs": [],
      "stateMutability": "nonpayable",
      "type": "function"
    },
    {
      "inputs": [
        {
          "internalType": "uint256",
          "name": "tokenId",
          "type": "uint256"
        }
      ],
      "name": "getApproved",
      "outputs": [
        {
          "internalType": "address",
          "name": "",
          "type": "address"
        }
      ],
      "stateMutability": "view",
      "type": "function"
    },
    {
      "inputs": [
        {
          "internalType": "bytes32",
          "name": "role",
          "type": "bytes32"
        }
      ],
      "name": "getRoleAdmin",
      "outputs": [
        {
          "internalType": "bytes32",
          "name": "",
          "type": "bytes32"
        }
      ],
      "stateMutability": "view",
      "type": "function"
    },
    {
      "inputs": [
        {
          "internalType": "bytes32",
          "name": "role",
          "type": "bytes32"
        },
        {
          "internalType": "uint256",
          "name": "index",
          "type": "uint256"
        }
      ],
      "name": "getRoleMember",
      "outputs": [
        {
          "internalType": "address",
          "name": "",
          "type": "address"
        }
      ],
      "stateMutability": "view",
      "type": "function"
    },
    {
      "inputs": [
        {
          "internalType": "bytes32",
          "name": "role",
          "type": "bytes32"
        }
      ],
      "name": "getRoleMemberCount",
      "outputs": [
        {
          "internalType": "uint256",
          "name": "",
          "type": "uint256"
        }
      ],
      "stateMutability": "view",
      "type": "function"
    },
    {
      "inputs": [
        {
          "internalType": "bytes32",
          "name": "role",
          "type": "bytes32"
        },
        {
          "internalType": "address",
          "name": "account",
          "type": "address"
        }
      ],
      "name": "grantRole",
      "outputs": [],
      "stateMutability": "nonpayable",
      "type": "function"
    },
    {
      "inputs": [
        {
          "internalType": "bytes32",
          "name": "role",
          "type": "bytes32"
        },
        {
          "internalType": "address",
          "name": "account",
          "type": "address"
        }
      ],
      "name": "hasRole",
      "outputs": [
        {
          "internalType": "bool",
          "name": "",
          "type": "bool"
        }
      ],
      "stateMutability": "view",
      "type": "function"
    },
    {
      "inputs": [
        {
          "internalType": "address",
          "name": "owner",
          "type": "address"
        },
        {
          "internalType": "address",
          "name": "operator",
          "type": "address"
        }
      ],
      "name": "isApprovedForAll",
      "outputs": [
        {
          "internalType": "bool",
          "name": "",
          "type": "bool"
        }
      ],
      "stateMutability": "view",
      "type": "function"
    },
    {
      "inputs": [],
      "name": "name",
      "outputs": [
        {
          "internalType": "string",
          "name": "",
          "type": "string"
        }
      ],
      "stateMutability": "view",
      "type": "function"
    },
    {
      "inputs": [
        {
          "internalType": "uint256",
          "name": "tokenId",
          "type": "uint256"
        }
      ],
      "name": "ownerOf",
      "outputs": [
        {
          "internalType": "address",
          "name": "",
          "type": "address"
        }
      ],
      "stateMutability": "view",
      "type": "function"
    },
    {
      "inputs": [],
      "name": "paused",
      "outputs": [
        {
          "internalType": "bool",
          "name": "",
          "type": "bool"
        }
      ],
      "stateMutability": "view",
      "type": "function"
    },
    {
      "inputs": [
        {
          "internalType": "bytes32",
          "name": "role",
          "type": "bytes32"
        },
        {
          "internalType": "address",
          "name": "account",
          "type": "address"
        }
      ],
      "name": "renounceRole",
      "outputs": [],
      "stateMutability": "nonpayable",
      "type": "function"
    },
    {
      "inputs": [
        {
          "internalType": "bytes32",
          "name": "role",
          "type": "bytes32"
        },
        {
          "internalType": "address",
          "name": "account",
          "type": "address"
        }
      ],
      "name": "revokeRole",
      "outputs": [],
      "stateMutability": "nonpayable",
      "type": "function"
    },
    {
      "inputs": [
        {
          "internalType": "address",
          "name": "from",
          "type": "address"
        },
        {
          "internalType": "address",
          "name": "to",
          "type": "address"
        },
        {
          "internalType": "uint256",
          "name": "tokenId",
          "type": "uint256"
        }
      ],
      "name": "safeTransferFrom",
      "outputs": [],
      "stateMutability": "nonpayable",
      "type": "function"
    },
    {
      "inputs": [
        {
          "internalType": "address",
          "name": "from",
          "type": "address"
        },
        {
          "internalType": "address",
          "name": "to",
          "type": "address"
        },
        {
          "internalType": "uint256",
          "name": "tokenId",
          "type": "uint256"
        },
        {
          "internalType": "bytes",
          "name": "_data",
          "type": "bytes"
        }
      ],
      "name": "safeTransferFrom",
      "outputs": [],
      "stateMutability": "nonpayable",
      "type": "function"
    },
    {
      "inputs": [
        {
          "internalType": "address",
          "name": "operator",
          "type": "address"
        },
        {
          "internalType": "bool",
          "name": "approved",
          "type": "bool"
        }
      ],
      "name": "setApprovalForAll",
      "outputs": [],
      "stateMutability": "nonpayable",
      "type": "function"
    },
    {
      "inputs": [],
      "name": "symbol",
      "outputs": [
        {
          "internalType": "string",
          "name": "",
          "type": "string"
        }
      ],
      "stateMutability": "view",
      "type": "function"
    },
    {
      "inputs": [
        {
          "internalType": "uint256",
          "name": "index",
          "type": "uint256"
        }
      ],
      "name": "tokenByIndex",
      "outputs": [
        {
          "internalType": "uint256",
          "name": "",
          "type": "uint256"
        }
      ],
      "stateMutability": "view",
      "type": "function"
    },
    {
      "inputs": [
        {
          "internalType": "address",
          "name": "owner",
          "type": "address"
        },
        {
          "internalType": "uint256",
          "name": "index",
          "type": "uint256"
        }
      ],
      "name": "tokenOfOwnerByIndex",
      "outputs": [
        {
          "internalType": "uint256",
          "name": "",
          "type": "uint256"
        }
      ],
      "stateMutability": "view",
      "type": "function"
    },
    {
      "inputs": [
        {
          "internalType": "uint256",
          "name": "tokenId",
          "type": "uint256"
        }
      ],
      "name": "tokenURI",
      "outputs": [
        {
          "internalType": "string",
          "name": "",
          "type": "string"
        }
      ],
      "stateMutability": "view",
      "type": "function"
    },
    {
      "inputs": [],
      "name": "totalSupply",
      "outputs": [
        {
          "internalType": "uint256",
          "name": "",
          "type": "uint256"
        }
      ],
      "stateMutability": "view",
      "type": "function"
    },
    {
      "inputs": [
        {
          "internalType": "address",
          "name": "from",
          "type": "address"
        },
        {
          "internalType": "address",
          "name": "to",
          "type": "address"
        },
        {
          "internalType": "uint256",
          "name": "tokenId",
          "type": "uint256"
        }
      ],
      "name": "transferFrom",
      "outputs": [],
      "stateMutability": "nonpayable",
      "type": "function"
    },
    {
      "inputs": [
        {
          "internalType": "string",
          "name": "name",
          "type": "string"
        },
        {
          "internalType": "string",
          "name": "symbol",
          "type": "string"
        },
        {
          "internalType": "string",
          "name": "baseTokenURI",
          "type": "string"
        }
      ],
      "name": "initialize",
      "outputs": [],
      "stateMutability": "nonpayable",
      "type": "function"
    },
    {
      "inputs": [
        {
          "internalType": "address",
          "name": "to",
          "type": "address"
        }
      ],
      "name": "mint",
      "outputs": [],
      "stateMutability": "nonpayable",
      "type": "function"
    },
    {
      "inputs": [],
      "name": "getCurrentCounter",
      "outputs": [
        {
          "internalType": "uint256",
          "name": "",
          "type": "uint256"
        }
      ],
      "stateMutability": "view",
      "type": "function"
    },
    {
      "inputs": [],
      "name": "getLastTokenID",
      "outputs": [
        {
          "internalType": "uint256",
          "name": "",
          "type": "uint256"
        }
      ],
      "stateMutability": "view",
      "type": "function"
    },
    {
      "inputs": [],
      "name": "pause",
      "outputs": [],
      "stateMutability": "nonpayable",
      "type": "function"
    },
    {
      "inputs": [],
      "name": "unpause",
      "outputs": [],
      "stateMutability": "nonpayable",
      "type": "function"
    },
    {
      "inputs": [
        {
          "internalType": "bytes4",
          "name": "interfaceId",
          "type": "bytes4"
        }
      ],
      "name": "supportsInterface",
      "outputs": [
        {
          "internalType": "bool",
          "name": "",
          "type": "bool"
        }
      ],
      "stateMutability": "view",
      "type": "function"
    }
  ],
  "bytecode": "0x608060405234801561001057600080fd5b50612e3c806100206000396000f3fe608060405234801561001057600080fd5b50600436106102265760003560e01c80636a6278421161012a578063a22cb465116100bd578063ca15c8731161008c578063d547741f11610071578063d547741f146104ad578063e63ab1e9146104c0578063e985e9c5146104e757610226565b8063ca15c87314610473578063d53913931461048657610226565b8063a22cb46514610427578063a6487c531461043a578063b88d4fde1461044d578063c87b56dd1461046057610226565b80639010d07c116100f95780639010d07c146103cb57806391d14854146103de57806395d89b4114610417578063a217fddf1461041f57610226565b80636a6278421461039557806370a08231146103a857806373448c46146103bb5780638456cb59146103c357610226565b80632f2ff15d116101bd57806342842e0e1161018c5780634f6ccce7116101715780634f6ccce7146103635780635c975abb146103765780636352211e1461038257610226565b806342842e0e1461033d57806342966c681461035057610226565b80632f2ff15d146102fc5780632f745c591461030f57806336568abe146103225780633f4ba83a1461033557610226565b80630e094137116101f95780630e094137146102a857806318160ddd146102be57806323b872dd146102c6578063248a9ca3146102d957610226565b806301ffc9a71461022b57806306fdde0314610253578063081812fc14610268578063095ea7b314610293575b600080fd5b61023e610239366004612b6f565b610523565b60405190151581526020015b60405180910390f35b61025b610536565b60405161024a9190612cc2565b61027b610276366004612b14565b6105c9565b6040516001600160a01b03909116815260200161024a565b6102a66102a1366004612aeb565b610674565b005b6102b06107a6565b60405190815260200161024a565b60fd546102b0565b6102a66102d43660046129fd565b6107d8565b6102b06102e7366004612b14565b60009081526065602052604090206001015490565b6102a661030a366004612b2c565b610860565b6102b061031d366004612aeb565b610882565b6102a6610330366004612b2c565b61092d565b6102a661094f565b6102a661034b3660046129fd565b6109f7565b6102a661035e366004612b14565b610a12565b6102b0610371366004612b14565b610a99565b61015f5460ff1661023e565b61027b610390366004612b14565b610b4b565b6102a66103a33660046129b1565b610bd6565b6102b06103b63660046129b1565b610bf8565b6102b0610c92565b6102a6610ca3565b61027b6103d9366004612b4e565b610d47565b61023e6103ec366004612b2c565b60009182526065602090815260408084206001600160a01b0393909316845291905290205460ff1690565b61025b610d66565b6102b0600081565b6102a6610435366004612ab1565b610d75565b6102a6610448366004612ba7565b610e47565b6102a661045b366004612a38565b610f08565b61025b61046e366004612b14565b610f90565b6102b0610481366004612b14565b611078565b6102b07f9f2df0fed2c77648de5860a4cc508cd0818c85b8b8a1ab4ceeef8d981c8956a681565b6102a66104bb366004612b2c565b61108f565b6102b07f65d7a28e3265b37a6474929f336521b332c1681b933f6cb9f3376673440d862a81565b61023e6104f53660046129cb565b6001600160a01b03918216600090815260ce6020908152604080832093909416825291909152205460ff1690565b600061052e82611099565b90505b919050565b606060c9805461054590612d44565b80601f016020809104026020016040519081016040528092919081815260200182805461057190612d44565b80156105be5780601f10610593576101008083540402835291602001916105be565b820191906000526020600020905b8154815290600101906020018083116105a157829003601f168201915b505050505090505b90565b600081815260cb60205260408120546001600160a01b03166106585760405162461bcd60e51b815260206004820152602c60248201527f4552433732313a20617070726f76656420717565727920666f72206e6f6e657860448201527f697374656e7420746f6b656e000000000000000000000000000000000000000060648201526084015b60405180910390fd5b50600090815260cd60205260409020546001600160a01b031690565b600061067f82610b4b565b9050806001600160a01b0316836001600160a01b031614156107095760405162461bcd60e51b815260206004820152602160248201527f4552433732313a20617070726f76616c20746f2063757272656e74206f776e6560448201527f7200000000000000000000000000000000000000000000000000000000000000606482015260840161064f565b336001600160a01b0382161480610725575061072581336104f5565b6107975760405162461bcd60e51b815260206004820152603860248201527f4552433732313a20617070726f76652063616c6c6572206973206e6f74206f7760448201527f6e6572206e6f7220617070726f76656420666f7220616c6c0000000000000000606482015260840161064f565b6107a183836110d7565b505050565b60006107b26101c35490565b6107c2576101c3545b90506105c6565b60016107ce6101c35490565b6107bb9190612d01565b6107e3335b82611152565b6108555760405162461bcd60e51b815260206004820152603160248201527f4552433732313a207472616e736665722063616c6c6572206973206e6f74206f60448201527f776e6572206e6f7220617070726f766564000000000000000000000000000000606482015260840161064f565b6107a183838361125a565b61086a828261143f565b60008281526097602052604090206107a190826114dc565b600061088d83610bf8565b82106109015760405162461bcd60e51b815260206004820152602b60248201527f455243373231456e756d657261626c653a206f776e657220696e646578206f7560448201527f74206f6620626f756e6473000000000000000000000000000000000000000000606482015260840161064f565b506001600160a01b038216600090815260fb602090815260408083208484529091529020545b92915050565b61093782826114f1565b60008281526097602052604090206107a19082611579565b6109797f65d7a28e3265b37a6474929f336521b332c1681b933f6cb9f3376673440d862a336103ec565b6109ed576040805162461bcd60e51b81526020600482015260248101919091527f4552433732315072657365744d696e7465725061757365724175746f49643a2060448201527f6d75737420686176652070617573657220726f6c6520746f20756e7061757365606482015260840161064f565b6109f561158e565b565b6107a183838360405180602001604052806000815250610f08565b610a1b336107dd565b610a8d5760405162461bcd60e51b815260206004820152603060248201527f4552433732314275726e61626c653a2063616c6c6572206973206e6f74206f7760448201527f6e6572206e6f7220617070726f76656400000000000000000000000000000000606482015260840161064f565b610a968161162c565b50565b6000610aa460fd5490565b8210610b185760405162461bcd60e51b815260206004820152602c60248201527f455243373231456e756d657261626c653a20676c6f62616c20696e646578206f60448201527f7574206f6620626f756e64730000000000000000000000000000000000000000606482015260840161064f565b60fd8281548110610b3957634e487b7160e01b600052603260045260246000fd5b90600052602060002001549050919050565b600081815260cb60205260408120546001600160a01b03168061052e5760405162461bcd60e51b815260206004820152602960248201527f4552433732313a206f776e657220717565727920666f72206e6f6e657869737460448201527f656e7420746f6b656e0000000000000000000000000000000000000000000000606482015260840161064f565b610be981610be46101c35490565b6116e0565b610a966101c380546001019055565b60006001600160a01b038216610c765760405162461bcd60e51b815260206004820152602a60248201527f4552433732313a2062616c616e636520717565727920666f7220746865207a6560448201527f726f206164647265737300000000000000000000000000000000000000000000606482015260840161064f565b506001600160a01b0316600090815260cc602052604090205490565b6000610c9e6101c35490565b905090565b610ccd7f65d7a28e3265b37a6474929f336521b332c1681b933f6cb9f3376673440d862a336103ec565b610d3f5760405162461bcd60e51b815260206004820152603e60248201527f4552433732315072657365744d696e7465725061757365724175746f49643a2060448201527f6d75737420686176652070617573657220726f6c6520746f2070617573650000606482015260840161064f565b6109f561183b565b6000828152609760205260408120610d5f90836118c5565b9392505050565b606060ca805461054590612d44565b6001600160a01b038216331415610dce5760405162461bcd60e51b815260206004820152601960248201527f4552433732313a20617070726f766520746f2063616c6c657200000000000000604482015260640161064f565b33600081815260ce602090815260408083206001600160a01b0387168085529252909120805460ff1916841515179055906001600160a01b03167f17307eab39ab6107e8899845ad3d59bd9653f200f220920489ca2b5937696c3183604051610e3b911515815260200190565b60405180910390a35050565b600054610100900460ff1680610e60575060005460ff16155b610ec35760405162461bcd60e51b815260206004820152602e60248201527f496e697469616c697a61626c653a20636f6e747261637420697320616c72656160448201526d191e481a5b9a5d1a585b1a5e995960921b606482015260840161064f565b600054610100900460ff16158015610ee5576000805461ffff19166101011790555b610ef08484846118d1565b8015610f02576000805461ff00191690555b50505050565b610f123383611152565b610f845760405162461bcd60e51b815260206004820152603160248201527f4552433732313a207472616e736665722063616c6c6572206973206e6f74206f60448201527f776e6572206e6f7220617070726f766564000000000000000000000000000000606482015260840161064f565b610f02848484846119c4565b600081815260cb60205260409020546060906001600160a01b031661101d5760405162461bcd60e51b815260206004820152602f60248201527f4552433732314d657461646174613a2055524920717565727920666f72206e6f60448201527f6e6578697374656e7420746f6b656e0000000000000000000000000000000000606482015260840161064f565b6000611027611a4d565b905060008151116110475760405180602001604052806000815250610d5f565b8061105184611a5d565b604051602001611062929190612c57565b6040516020818303038152906040529392505050565b600081815260976020526040812061052e90611bac565b6109378282611bb6565b60006001600160e01b031982167f780e9d6300000000000000000000000000000000000000000000000000000000148061052e575061052e82611c43565b600081815260cd60205260409020805473ffffffffffffffffffffffffffffffffffffffff19166001600160a01b038416908117909155819061111982610b4b565b6001600160a01b03167f8c5be1e5ebec7d5bd14f71427d1e84f3dd0314c0f7b2291e5b200ac8c7c3b92560405160405180910390a45050565b600081815260cb60205260408120546001600160a01b03166111dc5760405162461bcd60e51b815260206004820152602c60248201527f4552433732313a206f70657261746f7220717565727920666f72206e6f6e657860448201527f697374656e7420746f6b656e0000000000000000000000000000000000000000606482015260840161064f565b60006111e783610b4b565b9050806001600160a01b0316846001600160a01b031614806112225750836001600160a01b0316611217846105c9565b6001600160a01b0316145b8061125257506001600160a01b03808216600090815260ce602090815260408083209388168352929052205460ff165b949350505050565b826001600160a01b031661126d82610b4b565b6001600160a01b0316146112e95760405162461bcd60e51b815260206004820152602960248201527f4552433732313a207472616e73666572206f6620746f6b656e2074686174206960448201527f73206e6f74206f776e0000000000000000000000000000000000000000000000606482015260840161064f565b6001600160a01b0382166113645760405162461bcd60e51b8152602060048201526024808201527f4552433732313a207472616e7366657220746f20746865207a65726f2061646460448201527f7265737300000000000000000000000000000000000000000000000000000000606482015260840161064f565b61136f838383611cb5565b61137a6000826110d7565b6001600160a01b038316600090815260cc602052604081208054600192906113a3908490612d01565b90915550506001600160a01b038216600090815260cc602052604081208054600192906113d1908490612cd5565b9091555050600081815260cb6020526040808220805473ffffffffffffffffffffffffffffffffffffffff19166001600160a01b0386811691821790925591518493918716917fddf252ad1be2c89b69c2b068fc378daa952ba7f163c4a11628f55a4df523b3ef91a4505050565b60008281526065602052604090206001015461145c905b336103ec565b6114ce5760405162461bcd60e51b815260206004820152602f60248201527f416363657373436f6e74726f6c3a2073656e646572206d75737420626520616e60448201527f2061646d696e20746f206772616e740000000000000000000000000000000000606482015260840161064f565b6114d88282611cc0565b5050565b6000610d5f836001600160a01b038416611d62565b6001600160a01b038116331461156f5760405162461bcd60e51b815260206004820152602f60248201527f416363657373436f6e74726f6c3a2063616e206f6e6c792072656e6f756e636560448201527f20726f6c657320666f722073656c660000000000000000000000000000000000606482015260840161064f565b6114d88282611db1565b6000610d5f836001600160a01b038416611e34565b61015f5460ff166115e15760405162461bcd60e51b815260206004820152601460248201527f5061757361626c653a206e6f7420706175736564000000000000000000000000604482015260640161064f565b61015f805460ff191690557f5db9ee0a495bf2e6ff9c91a7834c1ba4fdd244a5e8aa4e537bd38aeae4b073aa335b6040516001600160a01b03909116815260200160405180910390a1565b600061163782610b4b565b905061164581600084611cb5565b6116506000836110d7565b6001600160a01b038116600090815260cc60205260408120805460019290611679908490612d01565b9091555050600082815260cb6020526040808220805473ffffffffffffffffffffffffffffffffffffffff19169055518391906001600160a01b038416907fddf252ad1be2c89b69c2b068fc378daa952ba7f163c4a11628f55a4df523b3ef908390a45050565b6001600160a01b0382166117365760405162461bcd60e51b815260206004820181905260248201527f4552433732313a206d696e7420746f20746865207a65726f2061646472657373604482015260640161064f565b600081815260cb60205260409020546001600160a01b03161561179b5760405162461bcd60e51b815260206004820152601c60248201527f4552433732313a20746f6b656e20616c7265616479206d696e74656400000000604482015260640161064f565b6117a760008383611cb5565b6001600160a01b038216600090815260cc602052604081208054600192906117d0908490612cd5565b9091555050600081815260cb6020526040808220805473ffffffffffffffffffffffffffffffffffffffff19166001600160a01b03861690811790915590518392907fddf252ad1be2c89b69c2b068fc378daa952ba7f163c4a11628f55a4df523b3ef908290a45050565b61015f5460ff161561188f5760405162461bcd60e51b815260206004820152601060248201527f5061757361626c653a2070617573656400000000000000000000000000000000604482015260640161064f565b61015f805460ff191660011790557f62e78cea01bee320cd4e420270b5ea74000d11b0c9f74754ebdbfc544b05a25861160f3390565b6000610d5f8383611f51565b600054610100900460ff16806118ea575060005460ff16155b61194d5760405162461bcd60e51b815260206004820152602e60248201527f496e697469616c697a61626c653a20636f6e747261637420697320616c72656160448201526d191e481a5b9a5d1a585b1a5e995960921b606482015260840161064f565b600054610100900460ff1615801561196f576000805461ffff19166101011790555b611977612000565b61197f612000565b611987612000565b61198f612000565b61199984846120b2565b6119a1612000565b6119a9612000565b6119b161218e565b6119b9612000565b610ef084848461224b565b6119cf84848461125a565b6119db8484848461235e565b610f025760405162461bcd60e51b815260206004820152603260248201527f4552433732313a207472616e7366657220746f206e6f6e20455243373231526560448201527f63656976657220696d706c656d656e7465720000000000000000000000000000606482015260840161064f565b60606101c4805461054590612d44565b606081611a9e575060408051808201909152600181527f30000000000000000000000000000000000000000000000000000000000000006020820152610531565b8160005b8115611ac85780611ab281612d7f565b9150611ac19050600a83612ced565b9150611aa2565b60008167ffffffffffffffff811115611af157634e487b7160e01b600052604160045260246000fd5b6040519080825280601f01601f191660200182016040528015611b1b576020820181803683370190505b5090505b841561125257611b30600183612d01565b9150611b3d600a86612d9a565b611b48906030612cd5565b60f81b818381518110611b6b57634e487b7160e01b600052603260045260246000fd5b60200101907effffffffffffffffffffffffffffffffffffffffffffffffffffffffffffff1916908160001a905350611ba5600a86612ced565b9450611b1f565b600061052e825490565b600082815260656020526040902060010154611bd190611456565b61156f5760405162461bcd60e51b815260206004820152603060248201527f416363657373436f6e74726f6c3a2073656e646572206d75737420626520616e60448201527f2061646d696e20746f207265766f6b6500000000000000000000000000000000606482015260840161064f565b60006001600160e01b031982167f80ac58cd000000000000000000000000000000000000000000000000000000001480611ca657506001600160e01b031982167f5b5e139f00000000000000000000000000000000000000000000000000000000145b8061052e575061052e826124c1565b6107a18383836124ff565b60008281526065602090815260408083206001600160a01b038516845290915290205460ff166114d85760008281526065602090815260408083206001600160a01b03851684529091529020805460ff19166001179055611d1e3390565b6001600160a01b0316816001600160a01b0316837f2f8788117e7eff1d82e926ec794901d17c78024a50270940304540a733656f0d60405160405180910390a45050565b6000818152600183016020526040812054611da957508154600181810184556000848152602080822090930184905584548482528286019093526040902091909155610927565b506000610927565b60008281526065602090815260408083206001600160a01b038516845290915290205460ff16156114d85760008281526065602090815260408083206001600160a01b0385168085529252808320805460ff1916905551339285917ff6391f5c32d9c69d2a47ea670b442974b53935d1edc7fd64eb21e047a839171b9190a45050565b60008181526001830160205260408120548015611f47576000611e58600183612d01565b8554909150600090611e6c90600190612d01565b90506000866000018281548110611e9357634e487b7160e01b600052603260045260246000fd5b9060005260206000200154905080876000018481548110611ec457634e487b7160e01b600052603260045260246000fd5b600091825260209091200155611edb836001612cd5565b60008281526001890160205260409020558654879080611f0b57634e487b7160e01b600052603160045260246000fd5b60019003818190600052602060002001600090559055866001016000878152602001908152602001600020600090556001945050505050610927565b6000915050610927565b81546000908210611fca5760405162461bcd60e51b815260206004820152602260248201527f456e756d657261626c655365743a20696e646578206f7574206f6620626f756e60448201527f6473000000000000000000000000000000000000000000000000000000000000606482015260840161064f565b826000018281548110611fed57634e487b7160e01b600052603260045260246000fd5b9060005260206000200154905092915050565b600054610100900460ff1680612019575060005460ff16155b61207c5760405162461bcd60e51b815260206004820152602e60248201527f496e697469616c697a61626c653a20636f6e747261637420697320616c72656160448201526d191e481a5b9a5d1a585b1a5e995960921b606482015260840161064f565b600054610100900460ff1615801561209e576000805461ffff19166101011790555b8015610a96576000805461ff001916905550565b600054610100900460ff16806120cb575060005460ff16155b61212e5760405162461bcd60e51b815260206004820152602e60248201527f496e697469616c697a61626c653a20636f6e747261637420697320616c72656160448201526d191e481a5b9a5d1a585b1a5e995960921b606482015260840161064f565b600054610100900460ff16158015612150576000805461ffff19166101011790555b82516121639060c990602086019061286c565b5081516121779060ca90602085019061286c565b5080156107a1576000805461ff0019169055505050565b600054610100900460ff16806121a7575060005460ff16155b61220a5760405162461bcd60e51b815260206004820152602e60248201527f496e697469616c697a61626c653a20636f6e747261637420697320616c72656160448201526d191e481a5b9a5d1a585b1a5e995960921b606482015260840161064f565b600054610100900460ff1615801561222c576000805461ffff19166101011790555b61015f805460ff191690558015610a96576000805461ff001916905550565b600054610100900460ff1680612264575060005460ff16155b6122c75760405162461bcd60e51b815260206004820152602e60248201527f496e697469616c697a61626c653a20636f6e747261637420697320616c72656160448201526d191e481a5b9a5d1a585b1a5e995960921b606482015260840161064f565b600054610100900460ff161580156122e9576000805461ffff19166101011790555b81516122fd906101c490602085019061286c565b5061230a6000335b612584565b6123347f9f2df0fed2c77648de5860a4cc508cd0818c85b8b8a1ab4ceeef8d981c8956a633612305565b610ef07f65d7a28e3265b37a6474929f336521b332c1681b933f6cb9f3376673440d862a33612305565b60006001600160a01b0384163b156124b657604051630a85bd0160e11b81526001600160a01b0385169063150b7a02906123a2903390899088908890600401612c86565b602060405180830381600087803b1580156123bc57600080fd5b505af19250505080156123ec575060408051601f3d908101601f191682019092526123e991810190612b8b565b60015b61249c573d80801561241a576040519150601f19603f3d011682016040523d82523d6000602084013e61241f565b606091505b5080516124945760405162461bcd60e51b815260206004820152603260248201527f4552433732313a207472616e7366657220746f206e6f6e20455243373231526560448201527f63656976657220696d706c656d656e7465720000000000000000000000000000606482015260840161064f565b805181602001fd5b6001600160e01b031916630a85bd0160e11b149050611252565b506001949350505050565b60006001600160e01b031982167f5a05180f00000000000000000000000000000000000000000000000000000000148061052e575061052e8261258e565b61250a8383836125f5565b61015f5460ff16156107a15760405162461bcd60e51b815260206004820152602b60248201527f4552433732315061757361626c653a20746f6b656e207472616e73666572207760448201527f68696c6520706175736564000000000000000000000000000000000000000000606482015260840161064f565b61086a82826114ce565b60006001600160e01b031982167f7965db0b00000000000000000000000000000000000000000000000000000000148061052e57507f01ffc9a7000000000000000000000000000000000000000000000000000000006001600160e01b031983161461052e565b6001600160a01b0383166126505761264b8160fd8054600083815260fe60205260408120829055600182018355919091527f9346ac6dd7de6b96975fec380d4d994c4c12e6a8897544f22915316cc6cca2800155565b612673565b816001600160a01b0316836001600160a01b0316146126735761267383826126b2565b6001600160a01b03821661268f5761268a8161274f565b6107a1565b826001600160a01b0316826001600160a01b0316146107a1576107a18282612828565b600060016126bf84610bf8565b6126c99190612d01565b600083815260fc602052604090205490915080821461271c576001600160a01b038416600090815260fb60209081526040808320858452825280832054848452818420819055835260fc90915290208190555b50600091825260fc602090815260408084208490556001600160a01b03909416835260fb81528383209183525290812055565b60fd5460009061276190600190612d01565b600083815260fe602052604081205460fd805493945090928490811061279757634e487b7160e01b600052603260045260246000fd5b906000526020600020015490508060fd83815481106127c657634e487b7160e01b600052603260045260246000fd5b600091825260208083209091019290925582815260fe909152604080822084905585825281205560fd80548061280c57634e487b7160e01b600052603160045260246000fd5b6001900381819060005260206000200160009055905550505050565b600061283383610bf8565b6001600160a01b03909316600090815260fb60209081526040808320868452825280832085905593825260fc9052919091209190915550565b82805461287890612d44565b90600052602060002090601f01602090048101928261289a57600085556128e0565b82601f106128b357805160ff19168380011785556128e0565b828001600101855582156128e0579182015b828111156128e05782518255916020019190600101906128c5565b506128ec9291506128f0565b5090565b5b808211156128ec57600081556001016128f1565b600067ffffffffffffffff8084111561292057612920612dda565b604051601f8501601f19908116603f0116810190828211818310171561294857612948612dda565b8160405280935085815286868601111561296157600080fd5b858560208301376000602087830101525050509392505050565b80356001600160a01b038116811461053157600080fd5b600082601f8301126129a2578081fd5b610d5f83833560208501612905565b6000602082840312156129c2578081fd5b610d5f8261297b565b600080604083850312156129dd578081fd5b6129e68361297b565b91506129f46020840161297b565b90509250929050565b600080600060608486031215612a11578081fd5b612a1a8461297b565b9250612a286020850161297b565b9150604084013590509250925092565b60008060008060808587031215612a4d578081fd5b612a568561297b565b9350612a646020860161297b565b925060408501359150606085013567ffffffffffffffff811115612a86578182fd5b8501601f81018713612a96578182fd5b612aa587823560208401612905565b91505092959194509250565b60008060408385031215612ac3578182fd5b612acc8361297b565b915060208301358015158114612ae0578182fd5b809150509250929050565b60008060408385031215612afd578182fd5b612b068361297b565b946020939093013593505050565b600060208284031215612b25578081fd5b5035919050565b60008060408385031215612b3e578182fd5b823591506129f46020840161297b565b60008060408385031215612b60578182fd5b50508035926020909101359150565b600060208284031215612b80578081fd5b8135610d5f81612df0565b600060208284031215612b9c578081fd5b8151610d5f81612df0565b600080600060608486031215612bbb578283fd5b833567ffffffffffffffff80821115612bd2578485fd5b612bde87838801612992565b94506020860135915080821115612bf3578384fd5b612bff87838801612992565b93506040860135915080821115612c14578283fd5b50612c2186828701612992565b9150509250925092565b60008151808452612c43816020860160208601612d18565b601f01601f19169290920160200192915050565b60008351612c69818460208801612d18565b835190830190612c7d818360208801612d18565b01949350505050565b60006001600160a01b03808716835280861660208401525083604083015260806060830152612cb86080830184612c2b565b9695505050505050565b600060208252610d5f6020830184612c2b565b60008219821115612ce857612ce8612dae565b500190565b600082612cfc57612cfc612dc4565b500490565b600082821015612d1357612d13612dae565b500390565b60005b83811015612d33578181015183820152602001612d1b565b83811115610f025750506000910152565b600181811c90821680612d5857607f821691505b60208210811415612d7957634e487b7160e01b600052602260045260246000fd5b50919050565b6000600019821415612d9357612d93612dae565b5060010190565b600082612da957612da9612dc4565b500690565b634e487b7160e01b600052601160045260246000fd5b634e487b7160e01b600052601260045260246000fd5b634e487b7160e01b600052604160045260246000fd5b6001600160e01b031981168114610a9657600080fdfea2646970667358221220b8fea16e96d00b8b6248af3439748f690b4be7b20b2583afe3553bf5e92a059e64736f6c63430008030033",
  "immutableReferences": {},
  "source": "// SPDX-License-Identifier: MIT\n\npragma solidity ^0.8.0;\n\nimport \"@openzeppelin/contracts-upgradeable/token/ERC721/ERC721Upgradeable.sol\";\nimport \"@openzeppelin/contracts-upgradeable/token/ERC721/extensions/ERC721EnumerableUpgradeable.sol\";\nimport \"@openzeppelin/contracts-upgradeable/token/ERC721/extensions/ERC721BurnableUpgradeable.sol\";\nimport \"@openzeppelin/contracts-upgradeable/token/ERC721/extensions/ERC721PausableUpgradeable.sol\";\nimport \"@openzeppelin/contracts-upgradeable/access/AccessControlEnumerableUpgradeable.sol\";\nimport \"@openzeppelin/contracts-upgradeable/utils/ContextUpgradeable.sol\";\nimport \"@openzeppelin/contracts-upgradeable/utils/CountersUpgradeable.sol\";\nimport \"@openzeppelin/contracts-upgradeable/proxy/utils/Initializable.sol\";\n\n/**\n * @dev {ERC721} token, including:\n *\n *  - ability for holders to burn (destroy) their tokens\n *  - a minter role that allows for token minting (creation)\n *  - a pauser role that allows to stop all token transfers\n *  - token ID and URI autogeneration\n *\n * This contract uses {AccessControl} to lock permissioned functions using the\n * different roles - head to its documentation for details.\n *\n * The account that deploys the contract will be granted the minter and pauser\n * roles, as well as the default admin role, which will let it grant both minter\n * and pauser roles to other accounts.\n */\ncontract ERC721PresetMinterPauserAutoIdUpgradeable is\n    Initializable,\n    ContextUpgradeable,\n    AccessControlEnumerableUpgradeable,\n    ERC721EnumerableUpgradeable,\n    ERC721BurnableUpgradeable,\n    ERC721PausableUpgradeable\n{\n    function initialize(\n        string memory name,\n        string memory symbol,\n        string memory baseTokenURI\n    ) public virtual initializer {\n        __ERC721PresetMinterPauserAutoId_init(name, symbol, baseTokenURI);\n    }\n\n    using CountersUpgradeable for CountersUpgradeable.Counter;\n\n    bytes32 public constant MINTER_ROLE = keccak256(\"MINTER_ROLE\");\n    bytes32 public constant PAUSER_ROLE = keccak256(\"PAUSER_ROLE\");\n\n    CountersUpgradeable.Counter private _tokenIdTracker;\n\n    string private _baseTokenURI;\n\n    /**\n     * @dev Grants `DEFAULT_ADMIN_ROLE`, `MINTER_ROLE` and `PAUSER_ROLE` to the\n     * account that deploys the contract.\n     *\n     * Token URIs will be autogenerated based on `baseURI` and their token IDs.\n     * See {ERC721-tokenURI}.\n     */\n    function __ERC721PresetMinterPauserAutoId_init(\n        string memory name,\n        string memory symbol,\n        string memory baseTokenURI\n    ) internal initializer {\n        __Context_init_unchained();\n        __ERC165_init_unchained();\n        __AccessControl_init_unchained();\n        __AccessControlEnumerable_init_unchained();\n        __ERC721_init_unchained(name, symbol);\n        __ERC721Enumerable_init_unchained();\n        __ERC721Burnable_init_unchained();\n        __Pausable_init_unchained();\n        __ERC721Pausable_init_unchained();\n        __ERC721PresetMinterPauserAutoId_init_unchained(\n            name,\n            symbol,\n            baseTokenURI\n        );\n    }\n\n    function __ERC721PresetMinterPauserAutoId_init_unchained(\n        string memory name,\n        string memory symbol,\n        string memory baseTokenURI\n    ) internal initializer {\n        _baseTokenURI = baseTokenURI;\n\n        _setupRole(DEFAULT_ADMIN_ROLE, _msgSender());\n\n        _setupRole(MINTER_ROLE, _msgSender());\n        _setupRole(PAUSER_ROLE, _msgSender());\n    }\n\n    function _baseURI() internal view virtual override returns (string memory) {\n        return _baseTokenURI;\n    }\n\n    /**\n     * @dev Creates a new token for `to`. Its token ID will be automatically\n     * assigned (and available on the emitted {IERC721-Transfer} event), and the token\n     * URI autogenerated based on the base URI passed at construction.\n     *\n     * See {ERC721-_mint}.\n     *\n     * Requirements:\n     *\n     * - the caller must have the `MINTER_ROLE`.\n     */\n    function mint(address to) public virtual {\n        /*  \n        require(\n            hasRole(MINTER_ROLE, _msgSender()),\n            \"ERC721PresetMinterPauserAutoId: must have minter role to mint\"\n        ); \n        */\n\n        // We cannot just use balanceOf to create the new tokenId because tokens\n        // can be burned (destroyed), so we need a separate counter.\n        _mint(to, _tokenIdTracker.current());\n        _tokenIdTracker.increment();\n    }\n\n    function getCurrentCounter() public view returns (uint256) {\n        return _tokenIdTracker.current();\n    }\n\n    function getLastTokenID() public view returns (uint256) {\n        if (_tokenIdTracker.current() == 0) {\n            return _tokenIdTracker.current();\n        } else return _tokenIdTracker.current() - 1;\n    }\n\n    /**\n     * @dev Pauses all token transfers.\n     *\n     * See {ERC721Pausable} and {Pausable-_pause}.\n     *\n     * Requirements:\n     *\n     * - the caller must have the `PAUSER_ROLE`.\n     */\n    function pause() public virtual {\n        require(\n            hasRole(PAUSER_ROLE, _msgSender()),\n            \"ERC721PresetMinterPauserAutoId: must have pauser role to pause\"\n        );\n        _pause();\n    }\n\n    /**\n     * @dev Unpauses all token transfers.\n     *\n     * See {ERC721Pausable} and {Pausable-_unpause}.\n     *\n     * Requirements:\n     *\n     * - the caller must have the `PAUSER_ROLE`.\n     */\n    function unpause() public virtual {\n        require(\n            hasRole(PAUSER_ROLE, _msgSender()),\n            \"ERC721PresetMinterPauserAutoId: must have pauser role to unpause\"\n        );\n        _unpause();\n    }\n\n    function _beforeTokenTransfer(\n        address from,\n        address to,\n        uint256 tokenId\n    )\n        internal\n        virtual\n        override(\n            ERC721Upgradeable,\n            ERC721EnumerableUpgradeable,\n            ERC721PausableUpgradeable\n        )\n    {\n        super._beforeTokenTransfer(from, to, tokenId);\n    }\n\n    /**\n     * @dev See {IERC165-supportsInterface}.\n     */\n    function supportsInterface(bytes4 interfaceId)\n        public\n        view\n        virtual\n        override(\n            AccessControlEnumerableUpgradeable,\n            ERC721Upgradeable,\n            ERC721EnumerableUpgradeable\n        )\n        returns (bool)\n    {\n        return super.supportsInterface(interfaceId);\n    }\n\n    uint256[48] private __gap;\n}\n",
  "sourcePath": "/Users/selimerunkut/dev_freelance/GhostMarketContractBSC/contracts/ERC721PresetMinterPauserAutoIdUpgradeable.sol",
  "compiler": {
    "name": "solc",
    "version": "0.8.3+commit.8d00100c.Emscripten.clang"
  },
  "schemaVersion": "3.4.1",
  "updatedAt": "2021-05-13T14:49:38.532Z",
  "devdoc": {
    "details": "{ERC721} token, including:  - ability for holders to burn (destroy) their tokens  - a minter role that allows for token minting (creation)  - a pauser role that allows to stop all token transfers  - token ID and URI autogeneration This contract uses {AccessControl} to lock permissioned functions using the different roles - head to its documentation for details. The account that deploys the contract will be granted the minter and pauser roles, as well as the default admin role, which will let it grant both minter and pauser roles to other accounts.",
    "kind": "dev",
    "methods": {
      "approve(address,uint256)": {
        "details": "See {IERC721-approve}."
      },
      "balanceOf(address)": {
        "details": "See {IERC721-balanceOf}."
      },
      "burn(uint256)": {
        "details": "Burns `tokenId`. See {ERC721-_burn}. Requirements: - The caller must own `tokenId` or be an approved operator."
      },
      "getApproved(uint256)": {
        "details": "See {IERC721-getApproved}."
      },
      "getRoleAdmin(bytes32)": {
        "details": "Returns the admin role that controls `role`. See {grantRole} and {revokeRole}. To change a role's admin, use {_setRoleAdmin}."
      },
      "getRoleMember(bytes32,uint256)": {
        "details": "Returns one of the accounts that have `role`. `index` must be a value between 0 and {getRoleMemberCount}, non-inclusive. Role bearers are not sorted in any particular way, and their ordering may change at any point. WARNING: When using {getRoleMember} and {getRoleMemberCount}, make sure you perform all queries on the same block. See the following https://forum.openzeppelin.com/t/iterating-over-elements-on-enumerableset-in-openzeppelin-contracts/2296[forum post] for more information."
      },
      "getRoleMemberCount(bytes32)": {
        "details": "Returns the number of accounts that have `role`. Can be used together with {getRoleMember} to enumerate all bearers of a role."
      },
      "grantRole(bytes32,address)": {
        "details": "Overload {grantRole} to track enumerable memberships"
      },
      "hasRole(bytes32,address)": {
        "details": "Returns `true` if `account` has been granted `role`."
      },
      "isApprovedForAll(address,address)": {
        "details": "See {IERC721-isApprovedForAll}."
      },
      "mint(address)": {
        "details": "Creates a new token for `to`. Its token ID will be automatically assigned (and available on the emitted {IERC721-Transfer} event), and the token URI autogenerated based on the base URI passed at construction. See {ERC721-_mint}. Requirements: - the caller must have the `MINTER_ROLE`."
      },
      "name()": {
        "details": "See {IERC721Metadata-name}."
      },
      "ownerOf(uint256)": {
        "details": "See {IERC721-ownerOf}."
      },
      "pause()": {
        "details": "Pauses all token transfers. See {ERC721Pausable} and {Pausable-_pause}. Requirements: - the caller must have the `PAUSER_ROLE`."
      },
      "paused()": {
        "details": "Returns true if the contract is paused, and false otherwise."
      },
      "renounceRole(bytes32,address)": {
        "details": "Overload {renounceRole} to track enumerable memberships"
      },
      "revokeRole(bytes32,address)": {
        "details": "Overload {revokeRole} to track enumerable memberships"
      },
      "safeTransferFrom(address,address,uint256)": {
        "details": "See {IERC721-safeTransferFrom}."
      },
      "safeTransferFrom(address,address,uint256,bytes)": {
        "details": "See {IERC721-safeTransferFrom}."
      },
      "setApprovalForAll(address,bool)": {
        "details": "See {IERC721-setApprovalForAll}."
      },
      "supportsInterface(bytes4)": {
        "details": "See {IERC165-supportsInterface}."
      },
      "symbol()": {
        "details": "See {IERC721Metadata-symbol}."
      },
      "tokenByIndex(uint256)": {
        "details": "See {IERC721Enumerable-tokenByIndex}."
      },
      "tokenOfOwnerByIndex(address,uint256)": {
        "details": "See {IERC721Enumerable-tokenOfOwnerByIndex}."
      },
      "tokenURI(uint256)": {
        "details": "See {IERC721Metadata-tokenURI}."
      },
      "totalSupply()": {
        "details": "See {IERC721Enumerable-totalSupply}."
      },
      "transferFrom(address,address,uint256)": {
        "details": "See {IERC721-transferFrom}."
      },
      "unpause()": {
        "details": "Unpauses all token transfers. See {ERC721Pausable} and {Pausable-_unpause}. Requirements: - the caller must have the `PAUSER_ROLE`."
      }
    },
    "version": 1
  },
  "userdoc": {
    "kind": "user",
    "methods": {},
    "version": 1
  }
}