{
  "contractName": "ERC721PresetMinterPauserAutoIdUpgradeable",
  "abi": [
    {
      "anonymous": false,
      "inputs": [
        {
          "indexed": true,
          "internalType": "address",
          "name": "owner",
          "type": "address"
        },
        {
          "indexed": true,
          "internalType": "address",
          "name": "approved",
          "type": "address"
        },
        {
          "indexed": true,
          "internalType": "uint256",
          "name": "tokenId",
          "type": "uint256"
        }
      ],
      "name": "Approval",
      "type": "event"
    },
    {
      "anonymous": false,
      "inputs": [
        {
          "indexed": true,
          "internalType": "address",
          "name": "owner",
          "type": "address"
        },
        {
          "indexed": true,
          "internalType": "address",
          "name": "operator",
          "type": "address"
        },
        {
          "indexed": false,
          "internalType": "bool",
          "name": "approved",
          "type": "bool"
        }
      ],
      "name": "ApprovalForAll",
      "type": "event"
    },
    {
      "anonymous": false,
      "inputs": [
        {
          "indexed": false,
          "internalType": "address",
          "name": "account",
          "type": "address"
        }
      ],
      "name": "Paused",
      "type": "event"
    },
    {
      "anonymous": false,
      "inputs": [
        {
          "indexed": true,
          "internalType": "bytes32",
          "name": "role",
          "type": "bytes32"
        },
        {
          "indexed": true,
          "internalType": "bytes32",
          "name": "previousAdminRole",
          "type": "bytes32"
        },
        {
          "indexed": true,
          "internalType": "bytes32",
          "name": "newAdminRole",
          "type": "bytes32"
        }
      ],
      "name": "RoleAdminChanged",
      "type": "event"
    },
    {
      "anonymous": false,
      "inputs": [
        {
          "indexed": true,
          "internalType": "bytes32",
          "name": "role",
          "type": "bytes32"
        },
        {
          "indexed": true,
          "internalType": "address",
          "name": "account",
          "type": "address"
        },
        {
          "indexed": true,
          "internalType": "address",
          "name": "sender",
          "type": "address"
        }
      ],
      "name": "RoleGranted",
      "type": "event"
    },
    {
      "anonymous": false,
      "inputs": [
        {
          "indexed": true,
          "internalType": "bytes32",
          "name": "role",
          "type": "bytes32"
        },
        {
          "indexed": true,
          "internalType": "address",
          "name": "account",
          "type": "address"
        },
        {
          "indexed": true,
          "internalType": "address",
          "name": "sender",
          "type": "address"
        }
      ],
      "name": "RoleRevoked",
      "type": "event"
    },
    {
      "anonymous": false,
      "inputs": [
        {
          "indexed": true,
          "internalType": "address",
          "name": "from",
          "type": "address"
        },
        {
          "indexed": true,
          "internalType": "address",
          "name": "to",
          "type": "address"
        },
        {
          "indexed": true,
          "internalType": "uint256",
          "name": "tokenId",
          "type": "uint256"
        }
      ],
      "name": "Transfer",
      "type": "event"
    },
    {
      "anonymous": false,
      "inputs": [
        {
          "indexed": false,
          "internalType": "address",
          "name": "account",
          "type": "address"
        }
      ],
      "name": "Unpaused",
      "type": "event"
    },
    {
      "inputs": [],
      "name": "DEFAULT_ADMIN_ROLE",
      "outputs": [
        {
          "internalType": "bytes32",
          "name": "",
          "type": "bytes32"
        }
      ],
      "stateMutability": "view",
      "type": "function"
    },
    {
      "inputs": [],
      "name": "MINTER_ROLE",
      "outputs": [
        {
          "internalType": "bytes32",
          "name": "",
          "type": "bytes32"
        }
      ],
      "stateMutability": "view",
      "type": "function"
    },
    {
      "inputs": [],
      "name": "PAUSER_ROLE",
      "outputs": [
        {
          "internalType": "bytes32",
          "name": "",
          "type": "bytes32"
        }
      ],
      "stateMutability": "view",
      "type": "function"
    },
    {
      "inputs": [
        {
          "internalType": "address",
          "name": "to",
          "type": "address"
        },
        {
          "internalType": "uint256",
          "name": "tokenId",
          "type": "uint256"
        }
      ],
      "name": "approve",
      "outputs": [],
      "stateMutability": "nonpayable",
      "type": "function"
    },
    {
      "inputs": [
        {
          "internalType": "address",
          "name": "owner",
          "type": "address"
        }
      ],
      "name": "balanceOf",
      "outputs": [
        {
          "internalType": "uint256",
          "name": "",
          "type": "uint256"
        }
      ],
      "stateMutability": "view",
      "type": "function"
    },
    {
      "inputs": [
        {
          "internalType": "uint256",
          "name": "tokenId",
          "type": "uint256"
        }
      ],
      "name": "burn",
      "outputs": [],
      "stateMutability": "nonpayable",
      "type": "function"
    },
    {
      "inputs": [
        {
          "internalType": "uint256",
          "name": "tokenId",
          "type": "uint256"
        }
      ],
      "name": "getApproved",
      "outputs": [
        {
          "internalType": "address",
          "name": "",
          "type": "address"
        }
      ],
      "stateMutability": "view",
      "type": "function"
    },
    {
      "inputs": [
        {
          "internalType": "bytes32",
          "name": "role",
          "type": "bytes32"
        }
      ],
      "name": "getRoleAdmin",
      "outputs": [
        {
          "internalType": "bytes32",
          "name": "",
          "type": "bytes32"
        }
      ],
      "stateMutability": "view",
      "type": "function"
    },
    {
      "inputs": [
        {
          "internalType": "bytes32",
          "name": "role",
          "type": "bytes32"
        },
        {
          "internalType": "uint256",
          "name": "index",
          "type": "uint256"
        }
      ],
      "name": "getRoleMember",
      "outputs": [
        {
          "internalType": "address",
          "name": "",
          "type": "address"
        }
      ],
      "stateMutability": "view",
      "type": "function"
    },
    {
      "inputs": [
        {
          "internalType": "bytes32",
          "name": "role",
          "type": "bytes32"
        }
      ],
      "name": "getRoleMemberCount",
      "outputs": [
        {
          "internalType": "uint256",
          "name": "",
          "type": "uint256"
        }
      ],
      "stateMutability": "view",
      "type": "function"
    },
    {
      "inputs": [
        {
          "internalType": "bytes32",
          "name": "role",
          "type": "bytes32"
        },
        {
          "internalType": "address",
          "name": "account",
          "type": "address"
        }
      ],
      "name": "grantRole",
      "outputs": [],
      "stateMutability": "nonpayable",
      "type": "function"
    },
    {
      "inputs": [
        {
          "internalType": "bytes32",
          "name": "role",
          "type": "bytes32"
        },
        {
          "internalType": "address",
          "name": "account",
          "type": "address"
        }
      ],
      "name": "hasRole",
      "outputs": [
        {
          "internalType": "bool",
          "name": "",
          "type": "bool"
        }
      ],
      "stateMutability": "view",
      "type": "function"
    },
    {
      "inputs": [
        {
          "internalType": "address",
          "name": "owner",
          "type": "address"
        },
        {
          "internalType": "address",
          "name": "operator",
          "type": "address"
        }
      ],
      "name": "isApprovedForAll",
      "outputs": [
        {
          "internalType": "bool",
          "name": "",
          "type": "bool"
        }
      ],
      "stateMutability": "view",
      "type": "function"
    },
    {
      "inputs": [],
      "name": "name",
      "outputs": [
        {
          "internalType": "string",
          "name": "",
          "type": "string"
        }
      ],
      "stateMutability": "view",
      "type": "function"
    },
    {
      "inputs": [
        {
          "internalType": "uint256",
          "name": "tokenId",
          "type": "uint256"
        }
      ],
      "name": "ownerOf",
      "outputs": [
        {
          "internalType": "address",
          "name": "",
          "type": "address"
        }
      ],
      "stateMutability": "view",
      "type": "function"
    },
    {
      "inputs": [],
      "name": "paused",
      "outputs": [
        {
          "internalType": "bool",
          "name": "",
          "type": "bool"
        }
      ],
      "stateMutability": "view",
      "type": "function"
    },
    {
      "inputs": [
        {
          "internalType": "bytes32",
          "name": "role",
          "type": "bytes32"
        },
        {
          "internalType": "address",
          "name": "account",
          "type": "address"
        }
      ],
      "name": "renounceRole",
      "outputs": [],
      "stateMutability": "nonpayable",
      "type": "function"
    },
    {
      "inputs": [
        {
          "internalType": "bytes32",
          "name": "role",
          "type": "bytes32"
        },
        {
          "internalType": "address",
          "name": "account",
          "type": "address"
        }
      ],
      "name": "revokeRole",
      "outputs": [],
      "stateMutability": "nonpayable",
      "type": "function"
    },
    {
      "inputs": [
        {
          "internalType": "address",
          "name": "from",
          "type": "address"
        },
        {
          "internalType": "address",
          "name": "to",
          "type": "address"
        },
        {
          "internalType": "uint256",
          "name": "tokenId",
          "type": "uint256"
        }
      ],
      "name": "safeTransferFrom",
      "outputs": [],
      "stateMutability": "nonpayable",
      "type": "function"
    },
    {
      "inputs": [
        {
          "internalType": "address",
          "name": "from",
          "type": "address"
        },
        {
          "internalType": "address",
          "name": "to",
          "type": "address"
        },
        {
          "internalType": "uint256",
          "name": "tokenId",
          "type": "uint256"
        },
        {
          "internalType": "bytes",
          "name": "_data",
          "type": "bytes"
        }
      ],
      "name": "safeTransferFrom",
      "outputs": [],
      "stateMutability": "nonpayable",
      "type": "function"
    },
    {
      "inputs": [
        {
          "internalType": "address",
          "name": "operator",
          "type": "address"
        },
        {
          "internalType": "bool",
          "name": "approved",
          "type": "bool"
        }
      ],
      "name": "setApprovalForAll",
      "outputs": [],
      "stateMutability": "nonpayable",
      "type": "function"
    },
    {
      "inputs": [],
      "name": "symbol",
      "outputs": [
        {
          "internalType": "string",
          "name": "",
          "type": "string"
        }
      ],
      "stateMutability": "view",
      "type": "function"
    },
    {
      "inputs": [
        {
          "internalType": "uint256",
          "name": "index",
          "type": "uint256"
        }
      ],
      "name": "tokenByIndex",
      "outputs": [
        {
          "internalType": "uint256",
          "name": "",
          "type": "uint256"
        }
      ],
      "stateMutability": "view",
      "type": "function"
    },
    {
      "inputs": [
        {
          "internalType": "address",
          "name": "owner",
          "type": "address"
        },
        {
          "internalType": "uint256",
          "name": "index",
          "type": "uint256"
        }
      ],
      "name": "tokenOfOwnerByIndex",
      "outputs": [
        {
          "internalType": "uint256",
          "name": "",
          "type": "uint256"
        }
      ],
      "stateMutability": "view",
      "type": "function"
    },
    {
      "inputs": [
        {
          "internalType": "uint256",
          "name": "tokenId",
          "type": "uint256"
        }
      ],
      "name": "tokenURI",
      "outputs": [
        {
          "internalType": "string",
          "name": "",
          "type": "string"
        }
      ],
      "stateMutability": "view",
      "type": "function"
    },
    {
      "inputs": [],
      "name": "totalSupply",
      "outputs": [
        {
          "internalType": "uint256",
          "name": "",
          "type": "uint256"
        }
      ],
      "stateMutability": "view",
      "type": "function"
    },
    {
      "inputs": [
        {
          "internalType": "address",
          "name": "from",
          "type": "address"
        },
        {
          "internalType": "address",
          "name": "to",
          "type": "address"
        },
        {
          "internalType": "uint256",
          "name": "tokenId",
          "type": "uint256"
        }
      ],
      "name": "transferFrom",
      "outputs": [],
      "stateMutability": "nonpayable",
      "type": "function"
    },
    {
      "inputs": [
        {
          "internalType": "string",
          "name": "name",
          "type": "string"
        },
        {
          "internalType": "string",
          "name": "symbol",
          "type": "string"
        },
        {
          "internalType": "string",
          "name": "baseTokenURI",
          "type": "string"
        }
      ],
      "name": "initialize",
      "outputs": [],
      "stateMutability": "nonpayable",
      "type": "function"
    },
    {
      "inputs": [
        {
          "internalType": "address",
          "name": "to",
          "type": "address"
        }
      ],
      "name": "mint",
      "outputs": [],
      "stateMutability": "nonpayable",
      "type": "function"
    },
    {
      "inputs": [],
      "name": "pause",
      "outputs": [],
      "stateMutability": "nonpayable",
      "type": "function"
    },
    {
      "inputs": [],
      "name": "unpause",
      "outputs": [],
      "stateMutability": "nonpayable",
      "type": "function"
    },
    {
      "inputs": [
        {
          "internalType": "bytes4",
          "name": "interfaceId",
          "type": "bytes4"
        }
      ],
      "name": "supportsInterface",
      "outputs": [
        {
          "internalType": "bool",
          "name": "",
          "type": "bool"
        }
      ],
      "stateMutability": "view",
      "type": "function"
    }
  ],
  "bytecode": "0x608060405234801561001057600080fd5b50612e4a806100206000396000f3fe608060405234801561001057600080fd5b50600436106101f05760003560e01c80636a6278421161010f578063a6487c53116100a2578063d539139311610071578063d53913931461043c578063d547741f14610463578063e63ab1e914610476578063e985e9c51461049d576101f0565b8063a6487c53146103f0578063b88d4fde14610403578063c87b56dd14610416578063ca15c87314610429576101f0565b806391d14854116100de57806391d148541461039457806395d89b41146103cd578063a217fddf146103d5578063a22cb465146103dd576101f0565b80636a6278421461035357806370a08231146103665780638456cb59146103795780639010d07c14610381576101f0565b80632f745c591161018757806342966c681161015657806342966c681461030e5780634f6ccce7146103215780635c975abb146103345780636352211e14610340576101f0565b80632f745c59146102cd57806336568abe146102e05780633f4ba83a146102f357806342842e0e146102fb576101f0565b806318160ddd116101c357806318160ddd1461027257806323b872dd14610284578063248a9ca3146102975780632f2ff15d146102ba576101f0565b806301ffc9a7146101f557806306fdde031461021d578063081812fc14610232578063095ea7b31461025d575b600080fd5b610208610203366004612b7d565b6104d9565b60405190151581526020015b60405180910390f35b6102256104ec565b6040516102149190612cd0565b610245610240366004612b22565b61057e565b6040516001600160a01b039091168152602001610214565b61027061026b366004612af9565b610629565b005b60fd545b604051908152602001610214565b610270610292366004612a0b565b61075b565b6102766102a5366004612b22565b60009081526065602052604090206001015490565b6102706102c8366004612b3a565b6107e3565b6102766102db366004612af9565b610805565b6102706102ee366004612b3a565b6108b0565b6102706108d2565b610270610309366004612a0b565b61097a565b61027061031c366004612b22565b610995565b61027661032f366004612b22565b610a1c565b61015f5460ff16610208565b61024561034e366004612b22565b610ace565b6102706103613660046129bf565b610b59565b6102766103743660046129bf565b610c17565b610270610cb1565b61024561038f366004612b5c565b610d55565b6102086103a2366004612b3a565b60009182526065602090815260408084206001600160a01b0393909316845291905290205460ff1690565b610225610d74565b610276600081565b6102706103eb366004612abf565b610d83565b6102706103fe366004612bb5565b610e55565b610270610411366004612a46565b610f16565b610225610424366004612b22565b610f9e565b610276610437366004612b22565b611086565b6102767f9f2df0fed2c77648de5860a4cc508cd0818c85b8b8a1ab4ceeef8d981c8956a681565b610270610471366004612b3a565b61109d565b6102767f65d7a28e3265b37a6474929f336521b332c1681b933f6cb9f3376673440d862a81565b6102086104ab3660046129d9565b6001600160a01b03918216600090815260ce6020908152604080832093909416825291909152205460ff1690565b60006104e4826110a7565b90505b919050565b606060c980546104fb90612d52565b80601f016020809104026020016040519081016040528092919081815260200182805461052790612d52565b80156105745780601f1061054957610100808354040283529160200191610574565b820191906000526020600020905b81548152906001019060200180831161055757829003601f168201915b5050505050905090565b600081815260cb60205260408120546001600160a01b031661060d5760405162461bcd60e51b815260206004820152602c60248201527f4552433732313a20617070726f76656420717565727920666f72206e6f6e657860448201527f697374656e7420746f6b656e000000000000000000000000000000000000000060648201526084015b60405180910390fd5b50600090815260cd60205260409020546001600160a01b031690565b600061063482610ace565b9050806001600160a01b0316836001600160a01b031614156106be5760405162461bcd60e51b815260206004820152602160248201527f4552433732313a20617070726f76616c20746f2063757272656e74206f776e6560448201527f72000000000000000000000000000000000000000000000000000000000000006064820152608401610604565b336001600160a01b03821614806106da57506106da81336104ab565b61074c5760405162461bcd60e51b815260206004820152603860248201527f4552433732313a20617070726f76652063616c6c6572206973206e6f74206f7760448201527f6e6572206e6f7220617070726f76656420666f7220616c6c00000000000000006064820152608401610604565b61075683836110e5565b505050565b610766335b82611160565b6107d85760405162461bcd60e51b815260206004820152603160248201527f4552433732313a207472616e736665722063616c6c6572206973206e6f74206f60448201527f776e6572206e6f7220617070726f7665640000000000000000000000000000006064820152608401610604565b610756838383611268565b6107ed828261144d565b600082815260976020526040902061075690826114ea565b600061081083610c17565b82106108845760405162461bcd60e51b815260206004820152602b60248201527f455243373231456e756d657261626c653a206f776e657220696e646578206f7560448201527f74206f6620626f756e64730000000000000000000000000000000000000000006064820152608401610604565b506001600160a01b038216600090815260fb602090815260408083208484529091529020545b92915050565b6108ba82826114ff565b60008281526097602052604090206107569082611587565b6108fc7f65d7a28e3265b37a6474929f336521b332c1681b933f6cb9f3376673440d862a336103a2565b610970576040805162461bcd60e51b81526020600482015260248101919091527f4552433732315072657365744d696e7465725061757365724175746f49643a2060448201527f6d75737420686176652070617573657220726f6c6520746f20756e70617573656064820152608401610604565b61097861159c565b565b61075683838360405180602001604052806000815250610f16565b61099e33610760565b610a105760405162461bcd60e51b815260206004820152603060248201527f4552433732314275726e61626c653a2063616c6c6572206973206e6f74206f7760448201527f6e6572206e6f7220617070726f766564000000000000000000000000000000006064820152608401610604565b610a198161163a565b50565b6000610a2760fd5490565b8210610a9b5760405162461bcd60e51b815260206004820152602c60248201527f455243373231456e756d657261626c653a20676c6f62616c20696e646578206f60448201527f7574206f6620626f756e647300000000000000000000000000000000000000006064820152608401610604565b60fd8281548110610abc57634e487b7160e01b600052603260045260246000fd5b90600052602060002001549050919050565b600081815260cb60205260408120546001600160a01b0316806104e45760405162461bcd60e51b815260206004820152602960248201527f4552433732313a206f776e657220717565727920666f72206e6f6e657869737460448201527f656e7420746f6b656e00000000000000000000000000000000000000000000006064820152608401610604565b610b837f9f2df0fed2c77648de5860a4cc508cd0818c85b8b8a1ab4ceeef8d981c8956a6336103a2565b610bf55760405162461bcd60e51b815260206004820152603d60248201527f4552433732315072657365744d696e7465725061757365724175746f49643a2060448201527f6d7573742068617665206d696e74657220726f6c6520746f206d696e740000006064820152608401610604565b610c0881610c036101c35490565b6116ee565b610a196101c380546001019055565b60006001600160a01b038216610c955760405162461bcd60e51b815260206004820152602a60248201527f4552433732313a2062616c616e636520717565727920666f7220746865207a6560448201527f726f2061646472657373000000000000000000000000000000000000000000006064820152608401610604565b506001600160a01b0316600090815260cc602052604090205490565b610cdb7f65d7a28e3265b37a6474929f336521b332c1681b933f6cb9f3376673440d862a336103a2565b610d4d5760405162461bcd60e51b815260206004820152603e60248201527f4552433732315072657365744d696e7465725061757365724175746f49643a2060448201527f6d75737420686176652070617573657220726f6c6520746f20706175736500006064820152608401610604565b610978611849565b6000828152609760205260408120610d6d90836118d3565b9392505050565b606060ca80546104fb90612d52565b6001600160a01b038216331415610ddc5760405162461bcd60e51b815260206004820152601960248201527f4552433732313a20617070726f766520746f2063616c6c6572000000000000006044820152606401610604565b33600081815260ce602090815260408083206001600160a01b0387168085529252909120805460ff1916841515179055906001600160a01b03167f17307eab39ab6107e8899845ad3d59bd9653f200f220920489ca2b5937696c3183604051610e49911515815260200190565b60405180910390a35050565b600054610100900460ff1680610e6e575060005460ff16155b610ed15760405162461bcd60e51b815260206004820152602e60248201527f496e697469616c697a61626c653a20636f6e747261637420697320616c72656160448201526d191e481a5b9a5d1a585b1a5e995960921b6064820152608401610604565b600054610100900460ff16158015610ef3576000805461ffff19166101011790555b610efe8484846118df565b8015610f10576000805461ff00191690555b50505050565b610f203383611160565b610f925760405162461bcd60e51b815260206004820152603160248201527f4552433732313a207472616e736665722063616c6c6572206973206e6f74206f60448201527f776e6572206e6f7220617070726f7665640000000000000000000000000000006064820152608401610604565b610f10848484846119d2565b600081815260cb60205260409020546060906001600160a01b031661102b5760405162461bcd60e51b815260206004820152602f60248201527f4552433732314d657461646174613a2055524920717565727920666f72206e6f60448201527f6e6578697374656e7420746f6b656e00000000000000000000000000000000006064820152608401610604565b6000611035611a5b565b905060008151116110555760405180602001604052806000815250610d6d565b8061105f84611a6b565b604051602001611070929190612c65565b6040516020818303038152906040529392505050565b60008181526097602052604081206104e490611bba565b6108ba8282611bc4565b60006001600160e01b031982167f780e9d630000000000000000000000000000000000000000000000000000000014806104e457506104e482611c51565b600081815260cd60205260409020805473ffffffffffffffffffffffffffffffffffffffff19166001600160a01b038416908117909155819061112782610ace565b6001600160a01b03167f8c5be1e5ebec7d5bd14f71427d1e84f3dd0314c0f7b2291e5b200ac8c7c3b92560405160405180910390a45050565b600081815260cb60205260408120546001600160a01b03166111ea5760405162461bcd60e51b815260206004820152602c60248201527f4552433732313a206f70657261746f7220717565727920666f72206e6f6e657860448201527f697374656e7420746f6b656e00000000000000000000000000000000000000006064820152608401610604565b60006111f583610ace565b9050806001600160a01b0316846001600160a01b031614806112305750836001600160a01b03166112258461057e565b6001600160a01b0316145b8061126057506001600160a01b03808216600090815260ce602090815260408083209388168352929052205460ff165b949350505050565b826001600160a01b031661127b82610ace565b6001600160a01b0316146112f75760405162461bcd60e51b815260206004820152602960248201527f4552433732313a207472616e73666572206f6620746f6b656e2074686174206960448201527f73206e6f74206f776e00000000000000000000000000000000000000000000006064820152608401610604565b6001600160a01b0382166113725760405162461bcd60e51b8152602060048201526024808201527f4552433732313a207472616e7366657220746f20746865207a65726f2061646460448201527f72657373000000000000000000000000000000000000000000000000000000006064820152608401610604565b61137d838383611cc3565b6113886000826110e5565b6001600160a01b038316600090815260cc602052604081208054600192906113b1908490612d0f565b90915550506001600160a01b038216600090815260cc602052604081208054600192906113df908490612ce3565b9091555050600081815260cb6020526040808220805473ffffffffffffffffffffffffffffffffffffffff19166001600160a01b0386811691821790925591518493918716917fddf252ad1be2c89b69c2b068fc378daa952ba7f163c4a11628f55a4df523b3ef91a4505050565b60008281526065602052604090206001015461146a905b336103a2565b6114dc5760405162461bcd60e51b815260206004820152602f60248201527f416363657373436f6e74726f6c3a2073656e646572206d75737420626520616e60448201527f2061646d696e20746f206772616e7400000000000000000000000000000000006064820152608401610604565b6114e68282611cce565b5050565b6000610d6d836001600160a01b038416611d70565b6001600160a01b038116331461157d5760405162461bcd60e51b815260206004820152602f60248201527f416363657373436f6e74726f6c3a2063616e206f6e6c792072656e6f756e636560448201527f20726f6c657320666f722073656c6600000000000000000000000000000000006064820152608401610604565b6114e68282611dbf565b6000610d6d836001600160a01b038416611e42565b61015f5460ff166115ef5760405162461bcd60e51b815260206004820152601460248201527f5061757361626c653a206e6f74207061757365640000000000000000000000006044820152606401610604565b61015f805460ff191690557f5db9ee0a495bf2e6ff9c91a7834c1ba4fdd244a5e8aa4e537bd38aeae4b073aa335b6040516001600160a01b03909116815260200160405180910390a1565b600061164582610ace565b905061165381600084611cc3565b61165e6000836110e5565b6001600160a01b038116600090815260cc60205260408120805460019290611687908490612d0f565b9091555050600082815260cb6020526040808220805473ffffffffffffffffffffffffffffffffffffffff19169055518391906001600160a01b038416907fddf252ad1be2c89b69c2b068fc378daa952ba7f163c4a11628f55a4df523b3ef908390a45050565b6001600160a01b0382166117445760405162461bcd60e51b815260206004820181905260248201527f4552433732313a206d696e7420746f20746865207a65726f20616464726573736044820152606401610604565b600081815260cb60205260409020546001600160a01b0316156117a95760405162461bcd60e51b815260206004820152601c60248201527f4552433732313a20746f6b656e20616c7265616479206d696e746564000000006044820152606401610604565b6117b560008383611cc3565b6001600160a01b038216600090815260cc602052604081208054600192906117de908490612ce3565b9091555050600081815260cb6020526040808220805473ffffffffffffffffffffffffffffffffffffffff19166001600160a01b03861690811790915590518392907fddf252ad1be2c89b69c2b068fc378daa952ba7f163c4a11628f55a4df523b3ef908290a45050565b61015f5460ff161561189d5760405162461bcd60e51b815260206004820152601060248201527f5061757361626c653a20706175736564000000000000000000000000000000006044820152606401610604565b61015f805460ff191660011790557f62e78cea01bee320cd4e420270b5ea74000d11b0c9f74754ebdbfc544b05a25861161d3390565b6000610d6d8383611f5f565b600054610100900460ff16806118f8575060005460ff16155b61195b5760405162461bcd60e51b815260206004820152602e60248201527f496e697469616c697a61626c653a20636f6e747261637420697320616c72656160448201526d191e481a5b9a5d1a585b1a5e995960921b6064820152608401610604565b600054610100900460ff1615801561197d576000805461ffff19166101011790555b61198561200e565b61198d61200e565b61199561200e565b61199d61200e565b6119a784846120c0565b6119af61200e565b6119b761200e565b6119bf61219c565b6119c761200e565b610efe848484612259565b6119dd848484611268565b6119e98484848461236c565b610f105760405162461bcd60e51b815260206004820152603260248201527f4552433732313a207472616e7366657220746f206e6f6e20455243373231526560448201527f63656976657220696d706c656d656e74657200000000000000000000000000006064820152608401610604565b60606101c480546104fb90612d52565b606081611aac575060408051808201909152600181527f300000000000000000000000000000000000000000000000000000000000000060208201526104e7565b8160005b8115611ad65780611ac081612d8d565b9150611acf9050600a83612cfb565b9150611ab0565b60008167ffffffffffffffff811115611aff57634e487b7160e01b600052604160045260246000fd5b6040519080825280601f01601f191660200182016040528015611b29576020820181803683370190505b5090505b841561126057611b3e600183612d0f565b9150611b4b600a86612da8565b611b56906030612ce3565b60f81b818381518110611b7957634e487b7160e01b600052603260045260246000fd5b60200101907effffffffffffffffffffffffffffffffffffffffffffffffffffffffffffff1916908160001a905350611bb3600a86612cfb565b9450611b2d565b60006104e4825490565b600082815260656020526040902060010154611bdf90611464565b61157d5760405162461bcd60e51b815260206004820152603060248201527f416363657373436f6e74726f6c3a2073656e646572206d75737420626520616e60448201527f2061646d696e20746f207265766f6b65000000000000000000000000000000006064820152608401610604565b60006001600160e01b031982167f80ac58cd000000000000000000000000000000000000000000000000000000001480611cb457506001600160e01b031982167f5b5e139f00000000000000000000000000000000000000000000000000000000145b806104e457506104e4826124cf565b61075683838361250d565b60008281526065602090815260408083206001600160a01b038516845290915290205460ff166114e65760008281526065602090815260408083206001600160a01b03851684529091529020805460ff19166001179055611d2c3390565b6001600160a01b0316816001600160a01b0316837f2f8788117e7eff1d82e926ec794901d17c78024a50270940304540a733656f0d60405160405180910390a45050565b6000818152600183016020526040812054611db7575081546001818101845560008481526020808220909301849055845484825282860190935260409020919091556108aa565b5060006108aa565b60008281526065602090815260408083206001600160a01b038516845290915290205460ff16156114e65760008281526065602090815260408083206001600160a01b0385168085529252808320805460ff1916905551339285917ff6391f5c32d9c69d2a47ea670b442974b53935d1edc7fd64eb21e047a839171b9190a45050565b60008181526001830160205260408120548015611f55576000611e66600183612d0f565b8554909150600090611e7a90600190612d0f565b90506000866000018281548110611ea157634e487b7160e01b600052603260045260246000fd5b9060005260206000200154905080876000018481548110611ed257634e487b7160e01b600052603260045260246000fd5b600091825260209091200155611ee9836001612ce3565b60008281526001890160205260409020558654879080611f1957634e487b7160e01b600052603160045260246000fd5b600190038181906000526020600020016000905590558660010160008781526020019081526020016000206000905560019450505050506108aa565b60009150506108aa565b81546000908210611fd85760405162461bcd60e51b815260206004820152602260248201527f456e756d657261626c655365743a20696e646578206f7574206f6620626f756e60448201527f64730000000000000000000000000000000000000000000000000000000000006064820152608401610604565b826000018281548110611ffb57634e487b7160e01b600052603260045260246000fd5b9060005260206000200154905092915050565b600054610100900460ff1680612027575060005460ff16155b61208a5760405162461bcd60e51b815260206004820152602e60248201527f496e697469616c697a61626c653a20636f6e747261637420697320616c72656160448201526d191e481a5b9a5d1a585b1a5e995960921b6064820152608401610604565b600054610100900460ff161580156120ac576000805461ffff19166101011790555b8015610a19576000805461ff001916905550565b600054610100900460ff16806120d9575060005460ff16155b61213c5760405162461bcd60e51b815260206004820152602e60248201527f496e697469616c697a61626c653a20636f6e747261637420697320616c72656160448201526d191e481a5b9a5d1a585b1a5e995960921b6064820152608401610604565b600054610100900460ff1615801561215e576000805461ffff19166101011790555b82516121719060c990602086019061287a565b5081516121859060ca90602085019061287a565b508015610756576000805461ff0019169055505050565b600054610100900460ff16806121b5575060005460ff16155b6122185760405162461bcd60e51b815260206004820152602e60248201527f496e697469616c697a61626c653a20636f6e747261637420697320616c72656160448201526d191e481a5b9a5d1a585b1a5e995960921b6064820152608401610604565b600054610100900460ff1615801561223a576000805461ffff19166101011790555b61015f805460ff191690558015610a19576000805461ff001916905550565b600054610100900460ff1680612272575060005460ff16155b6122d55760405162461bcd60e51b815260206004820152602e60248201527f496e697469616c697a61626c653a20636f6e747261637420697320616c72656160448201526d191e481a5b9a5d1a585b1a5e995960921b6064820152608401610604565b600054610100900460ff161580156122f7576000805461ffff19166101011790555b815161230b906101c490602085019061287a565b506123186000335b612592565b6123427f9f2df0fed2c77648de5860a4cc508cd0818c85b8b8a1ab4ceeef8d981c8956a633612313565b610efe7f65d7a28e3265b37a6474929f336521b332c1681b933f6cb9f3376673440d862a33612313565b60006001600160a01b0384163b156124c457604051630a85bd0160e11b81526001600160a01b0385169063150b7a02906123b0903390899088908890600401612c94565b602060405180830381600087803b1580156123ca57600080fd5b505af19250505080156123fa575060408051601f3d908101601f191682019092526123f791810190612b99565b60015b6124aa573d808015612428576040519150601f19603f3d011682016040523d82523d6000602084013e61242d565b606091505b5080516124a25760405162461bcd60e51b815260206004820152603260248201527f4552433732313a207472616e7366657220746f206e6f6e20455243373231526560448201527f63656976657220696d706c656d656e74657200000000000000000000000000006064820152608401610604565b805181602001fd5b6001600160e01b031916630a85bd0160e11b149050611260565b506001949350505050565b60006001600160e01b031982167f5a05180f0000000000000000000000000000000000000000000000000000000014806104e457506104e48261259c565b612518838383612603565b61015f5460ff16156107565760405162461bcd60e51b815260206004820152602b60248201527f4552433732315061757361626c653a20746f6b656e207472616e73666572207760448201527f68696c65207061757365640000000000000000000000000000000000000000006064820152608401610604565b6107ed82826114dc565b60006001600160e01b031982167f7965db0b0000000000000000000000000000000000000000000000000000000014806104e457507f01ffc9a7000000000000000000000000000000000000000000000000000000006001600160e01b03198316146104e4565b6001600160a01b03831661265e576126598160fd8054600083815260fe60205260408120829055600182018355919091527f9346ac6dd7de6b96975fec380d4d994c4c12e6a8897544f22915316cc6cca2800155565b612681565b816001600160a01b0316836001600160a01b0316146126815761268183826126c0565b6001600160a01b03821661269d576126988161275d565b610756565b826001600160a01b0316826001600160a01b031614610756576107568282612836565b600060016126cd84610c17565b6126d79190612d0f565b600083815260fc602052604090205490915080821461272a576001600160a01b038416600090815260fb60209081526040808320858452825280832054848452818420819055835260fc90915290208190555b50600091825260fc602090815260408084208490556001600160a01b03909416835260fb81528383209183525290812055565b60fd5460009061276f90600190612d0f565b600083815260fe602052604081205460fd80549394509092849081106127a557634e487b7160e01b600052603260045260246000fd5b906000526020600020015490508060fd83815481106127d457634e487b7160e01b600052603260045260246000fd5b600091825260208083209091019290925582815260fe909152604080822084905585825281205560fd80548061281a57634e487b7160e01b600052603160045260246000fd5b6001900381819060005260206000200160009055905550505050565b600061284183610c17565b6001600160a01b03909316600090815260fb60209081526040808320868452825280832085905593825260fc9052919091209190915550565b82805461288690612d52565b90600052602060002090601f0160209004810192826128a857600085556128ee565b82601f106128c157805160ff19168380011785556128ee565b828001600101855582156128ee579182015b828111156128ee5782518255916020019190600101906128d3565b506128fa9291506128fe565b5090565b5b808211156128fa57600081556001016128ff565b600067ffffffffffffffff8084111561292e5761292e612de8565b604051601f8501601f19908116603f0116810190828211818310171561295657612956612de8565b8160405280935085815286868601111561296f57600080fd5b858560208301376000602087830101525050509392505050565b80356001600160a01b03811681146104e757600080fd5b600082601f8301126129b0578081fd5b610d6d83833560208501612913565b6000602082840312156129d0578081fd5b610d6d82612989565b600080604083850312156129eb578081fd5b6129f483612989565b9150612a0260208401612989565b90509250929050565b600080600060608486031215612a1f578081fd5b612a2884612989565b9250612a3660208501612989565b9150604084013590509250925092565b60008060008060808587031215612a5b578081fd5b612a6485612989565b9350612a7260208601612989565b925060408501359150606085013567ffffffffffffffff811115612a94578182fd5b8501601f81018713612aa4578182fd5b612ab387823560208401612913565b91505092959194509250565b60008060408385031215612ad1578182fd5b612ada83612989565b915060208301358015158114612aee578182fd5b809150509250929050565b60008060408385031215612b0b578182fd5b612b1483612989565b946020939093013593505050565b600060208284031215612b33578081fd5b5035919050565b60008060408385031215612b4c578182fd5b82359150612a0260208401612989565b60008060408385031215612b6e578182fd5b50508035926020909101359150565b600060208284031215612b8e578081fd5b8135610d6d81612dfe565b600060208284031215612baa578081fd5b8151610d6d81612dfe565b600080600060608486031215612bc9578283fd5b833567ffffffffffffffff80821115612be0578485fd5b612bec878388016129a0565b94506020860135915080821115612c01578384fd5b612c0d878388016129a0565b93506040860135915080821115612c22578283fd5b50612c2f868287016129a0565b9150509250925092565b60008151808452612c51816020860160208601612d26565b601f01601f19169290920160200192915050565b60008351612c77818460208801612d26565b835190830190612c8b818360208801612d26565b01949350505050565b60006001600160a01b03808716835280861660208401525083604083015260806060830152612cc66080830184612c39565b9695505050505050565b600060208252610d6d6020830184612c39565b60008219821115612cf657612cf6612dbc565b500190565b600082612d0a57612d0a612dd2565b500490565b600082821015612d2157612d21612dbc565b500390565b60005b83811015612d41578181015183820152602001612d29565b83811115610f105750506000910152565b600181811c90821680612d6657607f821691505b60208210811415612d8757634e487b7160e01b600052602260045260246000fd5b50919050565b6000600019821415612da157612da1612dbc565b5060010190565b600082612db757612db7612dd2565b500690565b634e487b7160e01b600052601160045260246000fd5b634e487b7160e01b600052601260045260246000fd5b634e487b7160e01b600052604160045260246000fd5b6001600160e01b031981168114610a1957600080fdfea2646970667358221220a9e6931c55085bd55fd06d0fc5c0b58a32e6d70be7eee73f30e13bdc5de2899f64736f6c63430008030033",
  "immutableReferences": {},
  "source": "// SPDX-License-Identifier: MIT\n\npragma solidity ^0.8.0;\n\nimport \"../ERC721Upgradeable.sol\";\nimport \"../extensions/ERC721EnumerableUpgradeable.sol\";\nimport \"../extensions/ERC721BurnableUpgradeable.sol\";\nimport \"../extensions/ERC721PausableUpgradeable.sol\";\nimport \"../../../access/AccessControlEnumerableUpgradeable.sol\";\nimport \"../../../utils/ContextUpgradeable.sol\";\nimport \"../../../utils/CountersUpgradeable.sol\";\nimport \"../../../proxy/utils/Initializable.sol\";\n\n/**\n * @dev {ERC721} token, including:\n *\n *  - ability for holders to burn (destroy) their tokens\n *  - a minter role that allows for token minting (creation)\n *  - a pauser role that allows to stop all token transfers\n *  - token ID and URI autogeneration\n *\n * This contract uses {AccessControl} to lock permissioned functions using the\n * different roles - head to its documentation for details.\n *\n * The account that deploys the contract will be granted the minter and pauser\n * roles, as well as the default admin role, which will let it grant both minter\n * and pauser roles to other accounts.\n */\ncontract ERC721PresetMinterPauserAutoIdUpgradeable is Initializable, ContextUpgradeable, AccessControlEnumerableUpgradeable, ERC721EnumerableUpgradeable, ERC721BurnableUpgradeable, ERC721PausableUpgradeable {\n    function initialize(string memory name, string memory symbol, string memory baseTokenURI) public virtual initializer {\n        __ERC721PresetMinterPauserAutoId_init(name, symbol, baseTokenURI);\n    }\n    using CountersUpgradeable for CountersUpgradeable.Counter;\n\n    bytes32 public constant MINTER_ROLE = keccak256(\"MINTER_ROLE\");\n    bytes32 public constant PAUSER_ROLE = keccak256(\"PAUSER_ROLE\");\n\n    CountersUpgradeable.Counter private _tokenIdTracker;\n\n    string private _baseTokenURI;\n\n    /**\n     * @dev Grants `DEFAULT_ADMIN_ROLE`, `MINTER_ROLE` and `PAUSER_ROLE` to the\n     * account that deploys the contract.\n     *\n     * Token URIs will be autogenerated based on `baseURI` and their token IDs.\n     * See {ERC721-tokenURI}.\n     */\n    function __ERC721PresetMinterPauserAutoId_init(string memory name, string memory symbol, string memory baseTokenURI) internal initializer {\n        __Context_init_unchained();\n        __ERC165_init_unchained();\n        __AccessControl_init_unchained();\n        __AccessControlEnumerable_init_unchained();\n        __ERC721_init_unchained(name, symbol);\n        __ERC721Enumerable_init_unchained();\n        __ERC721Burnable_init_unchained();\n        __Pausable_init_unchained();\n        __ERC721Pausable_init_unchained();\n        __ERC721PresetMinterPauserAutoId_init_unchained(name, symbol, baseTokenURI);\n    }\n\n    function __ERC721PresetMinterPauserAutoId_init_unchained(string memory name, string memory symbol, string memory baseTokenURI) internal initializer {\n        _baseTokenURI = baseTokenURI;\n\n        _setupRole(DEFAULT_ADMIN_ROLE, _msgSender());\n\n        _setupRole(MINTER_ROLE, _msgSender());\n        _setupRole(PAUSER_ROLE, _msgSender());\n    }\n\n    function _baseURI() internal view virtual override returns (string memory) {\n        return _baseTokenURI;\n    }\n\n    /**\n     * @dev Creates a new token for `to`. Its token ID will be automatically\n     * assigned (and available on the emitted {IERC721-Transfer} event), and the token\n     * URI autogenerated based on the base URI passed at construction.\n     *\n     * See {ERC721-_mint}.\n     *\n     * Requirements:\n     *\n     * - the caller must have the `MINTER_ROLE`.\n     */\n    function mint(address to) public virtual {\n        require(hasRole(MINTER_ROLE, _msgSender()), \"ERC721PresetMinterPauserAutoId: must have minter role to mint\");\n\n        // We cannot just use balanceOf to create the new tokenId because tokens\n        // can be burned (destroyed), so we need a separate counter.\n        _mint(to, _tokenIdTracker.current());\n        _tokenIdTracker.increment();\n    }\n\n    /**\n     * @dev Pauses all token transfers.\n     *\n     * See {ERC721Pausable} and {Pausable-_pause}.\n     *\n     * Requirements:\n     *\n     * - the caller must have the `PAUSER_ROLE`.\n     */\n    function pause() public virtual {\n        require(hasRole(PAUSER_ROLE, _msgSender()), \"ERC721PresetMinterPauserAutoId: must have pauser role to pause\");\n        _pause();\n    }\n\n    /**\n     * @dev Unpauses all token transfers.\n     *\n     * See {ERC721Pausable} and {Pausable-_unpause}.\n     *\n     * Requirements:\n     *\n     * - the caller must have the `PAUSER_ROLE`.\n     */\n    function unpause() public virtual {\n        require(hasRole(PAUSER_ROLE, _msgSender()), \"ERC721PresetMinterPauserAutoId: must have pauser role to unpause\");\n        _unpause();\n    }\n\n    function _beforeTokenTransfer(address from, address to, uint256 tokenId) internal virtual override(ERC721Upgradeable, ERC721EnumerableUpgradeable, ERC721PausableUpgradeable) {\n        super._beforeTokenTransfer(from, to, tokenId);\n    }\n\n    /**\n     * @dev See {IERC165-supportsInterface}.\n     */\n    function supportsInterface(bytes4 interfaceId) public view virtual override(AccessControlEnumerableUpgradeable, ERC721Upgradeable, ERC721EnumerableUpgradeable) returns (bool) {\n        return super.supportsInterface(interfaceId);\n    }\n    uint256[48] private __gap;\n}\n",
  "sourcePath": "@openzeppelin/contracts-upgradeable/token/ERC721/presets/ERC721PresetMinterPauserAutoIdUpgradeable.sol",
  "compiler": {
    "name": "solc",
    "version": "0.8.3+commit.8d00100c.Emscripten.clang"
  },
  "schemaVersion": "3.3.4",
  "updatedAt": "2021-04-19T09:22:43.483Z",
  "devdoc": {
    "details": "{ERC721} token, including:  - ability for holders to burn (destroy) their tokens  - a minter role that allows for token minting (creation)  - a pauser role that allows to stop all token transfers  - token ID and URI autogeneration This contract uses {AccessControl} to lock permissioned functions using the different roles - head to its documentation for details. The account that deploys the contract will be granted the minter and pauser roles, as well as the default admin role, which will let it grant both minter and pauser roles to other accounts.",
    "kind": "dev",
    "methods": {
      "approve(address,uint256)": {
        "details": "See {IERC721-approve}."
      },
      "balanceOf(address)": {
        "details": "See {IERC721-balanceOf}."
      },
      "burn(uint256)": {
        "details": "Burns `tokenId`. See {ERC721-_burn}. Requirements: - The caller must own `tokenId` or be an approved operator."
      },
      "getApproved(uint256)": {
        "details": "See {IERC721-getApproved}."
      },
      "getRoleAdmin(bytes32)": {
        "details": "Returns the admin role that controls `role`. See {grantRole} and {revokeRole}. To change a role's admin, use {_setRoleAdmin}."
      },
      "getRoleMember(bytes32,uint256)": {
        "details": "Returns one of the accounts that have `role`. `index` must be a value between 0 and {getRoleMemberCount}, non-inclusive. Role bearers are not sorted in any particular way, and their ordering may change at any point. WARNING: When using {getRoleMember} and {getRoleMemberCount}, make sure you perform all queries on the same block. See the following https://forum.openzeppelin.com/t/iterating-over-elements-on-enumerableset-in-openzeppelin-contracts/2296[forum post] for more information."
      },
      "getRoleMemberCount(bytes32)": {
        "details": "Returns the number of accounts that have `role`. Can be used together with {getRoleMember} to enumerate all bearers of a role."
      },
      "grantRole(bytes32,address)": {
        "details": "Overload {grantRole} to track enumerable memberships"
      },
      "hasRole(bytes32,address)": {
        "details": "Returns `true` if `account` has been granted `role`."
      },
      "isApprovedForAll(address,address)": {
        "details": "See {IERC721-isApprovedForAll}."
      },
      "mint(address)": {
        "details": "Creates a new token for `to`. Its token ID will be automatically assigned (and available on the emitted {IERC721-Transfer} event), and the token URI autogenerated based on the base URI passed at construction. See {ERC721-_mint}. Requirements: - the caller must have the `MINTER_ROLE`."
      },
      "name()": {
        "details": "See {IERC721Metadata-name}."
      },
      "ownerOf(uint256)": {
        "details": "See {IERC721-ownerOf}."
      },
      "pause()": {
        "details": "Pauses all token transfers. See {ERC721Pausable} and {Pausable-_pause}. Requirements: - the caller must have the `PAUSER_ROLE`."
      },
      "paused()": {
        "details": "Returns true if the contract is paused, and false otherwise."
      },
      "renounceRole(bytes32,address)": {
        "details": "Overload {renounceRole} to track enumerable memberships"
      },
      "revokeRole(bytes32,address)": {
        "details": "Overload {revokeRole} to track enumerable memberships"
      },
      "safeTransferFrom(address,address,uint256)": {
        "details": "See {IERC721-safeTransferFrom}."
      },
      "safeTransferFrom(address,address,uint256,bytes)": {
        "details": "See {IERC721-safeTransferFrom}."
      },
      "setApprovalForAll(address,bool)": {
        "details": "See {IERC721-setApprovalForAll}."
      },
      "supportsInterface(bytes4)": {
        "details": "See {IERC165-supportsInterface}."
      },
      "symbol()": {
        "details": "See {IERC721Metadata-symbol}."
      },
      "tokenByIndex(uint256)": {
        "details": "See {IERC721Enumerable-tokenByIndex}."
      },
      "tokenOfOwnerByIndex(address,uint256)": {
        "details": "See {IERC721Enumerable-tokenOfOwnerByIndex}."
      },
      "tokenURI(uint256)": {
        "details": "See {IERC721Metadata-tokenURI}."
      },
      "totalSupply()": {
        "details": "See {IERC721Enumerable-totalSupply}."
      },
      "transferFrom(address,address,uint256)": {
        "details": "See {IERC721-transferFrom}."
      },
      "unpause()": {
        "details": "Unpauses all token transfers. See {ERC721Pausable} and {Pausable-_unpause}. Requirements: - the caller must have the `PAUSER_ROLE`."
      }
    },
    "version": 1
  },
  "userdoc": {
    "kind": "user",
    "methods": {},
    "version": 1
  }
}