{
  "contractName": "GhostmarketNFT",
  "abi": [
    {
      "anonymous": false,
      "inputs": [
        {
          "indexed": true,
          "internalType": "address",
          "name": "owner",
          "type": "address"
        },
        {
          "indexed": true,
          "internalType": "address",
          "name": "approved",
          "type": "address"
        },
        {
          "indexed": true,
          "internalType": "uint256",
          "name": "tokenId",
          "type": "uint256"
        }
      ],
      "name": "Approval",
      "type": "event"
    },
    {
      "anonymous": false,
      "inputs": [
        {
          "indexed": true,
          "internalType": "address",
          "name": "owner",
          "type": "address"
        },
        {
          "indexed": true,
          "internalType": "address",
          "name": "operator",
          "type": "address"
        },
        {
          "indexed": false,
          "internalType": "bool",
          "name": "approved",
          "type": "bool"
        }
      ],
      "name": "ApprovalForAll",
      "type": "event"
    },
    {
      "anonymous": false,
      "inputs": [
        {
          "indexed": false,
          "internalType": "address",
          "name": "account",
          "type": "address"
        }
      ],
      "name": "Paused",
      "type": "event"
    },
    {
      "anonymous": false,
      "inputs": [
        {
          "indexed": true,
          "internalType": "bytes32",
          "name": "role",
          "type": "bytes32"
        },
        {
          "indexed": true,
          "internalType": "bytes32",
          "name": "previousAdminRole",
          "type": "bytes32"
        },
        {
          "indexed": true,
          "internalType": "bytes32",
          "name": "newAdminRole",
          "type": "bytes32"
        }
      ],
      "name": "RoleAdminChanged",
      "type": "event"
    },
    {
      "anonymous": false,
      "inputs": [
        {
          "indexed": true,
          "internalType": "bytes32",
          "name": "role",
          "type": "bytes32"
        },
        {
          "indexed": true,
          "internalType": "address",
          "name": "account",
          "type": "address"
        },
        {
          "indexed": true,
          "internalType": "address",
          "name": "sender",
          "type": "address"
        }
      ],
      "name": "RoleGranted",
      "type": "event"
    },
    {
      "anonymous": false,
      "inputs": [
        {
          "indexed": true,
          "internalType": "bytes32",
          "name": "role",
          "type": "bytes32"
        },
        {
          "indexed": true,
          "internalType": "address",
          "name": "account",
          "type": "address"
        },
        {
          "indexed": true,
          "internalType": "address",
          "name": "sender",
          "type": "address"
        }
      ],
      "name": "RoleRevoked",
      "type": "event"
    },
    {
      "anonymous": false,
      "inputs": [
        {
          "indexed": false,
          "internalType": "uint256",
          "name": "tokenId",
          "type": "uint256"
        },
        {
          "indexed": false,
          "internalType": "address[]",
          "name": "recipients",
          "type": "address[]"
        },
        {
          "indexed": false,
          "internalType": "uint256[]",
          "name": "bps",
          "type": "uint256[]"
        }
      ],
      "name": "SecondarySaleFees",
      "type": "event"
    },
    {
      "anonymous": false,
      "inputs": [
        {
          "indexed": true,
          "internalType": "address",
          "name": "from",
          "type": "address"
        },
        {
          "indexed": true,
          "internalType": "address",
          "name": "to",
          "type": "address"
        },
        {
          "indexed": true,
          "internalType": "uint256",
          "name": "tokenId",
          "type": "uint256"
        }
      ],
      "name": "Transfer",
      "type": "event"
    },
    {
      "anonymous": false,
      "inputs": [
        {
          "indexed": false,
          "internalType": "address",
          "name": "account",
          "type": "address"
        }
      ],
      "name": "Unpaused",
      "type": "event"
    },
    {
      "inputs": [],
      "name": "DEFAULT_ADMIN_ROLE",
      "outputs": [
        {
          "internalType": "bytes32",
          "name": "",
          "type": "bytes32"
        }
      ],
      "stateMutability": "view",
      "type": "function"
    },
    {
      "inputs": [],
      "name": "MINTER_ROLE",
      "outputs": [
        {
          "internalType": "bytes32",
          "name": "",
          "type": "bytes32"
        }
      ],
      "stateMutability": "view",
      "type": "function"
    },
    {
      "inputs": [],
      "name": "PAUSER_ROLE",
      "outputs": [
        {
          "internalType": "bytes32",
          "name": "",
          "type": "bytes32"
        }
      ],
      "stateMutability": "view",
      "type": "function"
    },
    {
      "inputs": [
        {
          "internalType": "address",
          "name": "to",
          "type": "address"
        },
        {
          "internalType": "uint256",
          "name": "tokenId",
          "type": "uint256"
        }
      ],
      "name": "approve",
      "outputs": [],
      "stateMutability": "nonpayable",
      "type": "function"
    },
    {
      "inputs": [
        {
          "internalType": "address",
          "name": "owner",
          "type": "address"
        }
      ],
      "name": "balanceOf",
      "outputs": [
        {
          "internalType": "uint256",
          "name": "",
          "type": "uint256"
        }
      ],
      "stateMutability": "view",
      "type": "function"
    },
    {
      "inputs": [
        {
          "internalType": "uint256",
          "name": "tokenId",
          "type": "uint256"
        }
      ],
      "name": "burn",
      "outputs": [],
      "stateMutability": "nonpayable",
      "type": "function"
    },
    {
      "inputs": [
        {
          "internalType": "uint256",
          "name": "",
          "type": "uint256"
        },
        {
          "internalType": "uint256",
          "name": "",
          "type": "uint256"
        }
      ],
      "name": "fees",
      "outputs": [
        {
          "internalType": "address payable",
          "name": "recipient",
          "type": "address"
        },
        {
          "internalType": "uint256",
          "name": "value",
          "type": "uint256"
        }
      ],
      "stateMutability": "view",
      "type": "function"
    },
    {
      "inputs": [
        {
          "internalType": "uint256",
          "name": "tokenId",
          "type": "uint256"
        }
      ],
      "name": "getApproved",
      "outputs": [
        {
          "internalType": "address",
          "name": "",
          "type": "address"
        }
      ],
      "stateMutability": "view",
      "type": "function"
    },
    {
      "inputs": [
        {
          "internalType": "bytes32",
          "name": "role",
          "type": "bytes32"
        }
      ],
      "name": "getRoleAdmin",
      "outputs": [
        {
          "internalType": "bytes32",
          "name": "",
          "type": "bytes32"
        }
      ],
      "stateMutability": "view",
      "type": "function"
    },
    {
      "inputs": [
        {
          "internalType": "bytes32",
          "name": "role",
          "type": "bytes32"
        },
        {
          "internalType": "uint256",
          "name": "index",
          "type": "uint256"
        }
      ],
      "name": "getRoleMember",
      "outputs": [
        {
          "internalType": "address",
          "name": "",
          "type": "address"
        }
      ],
      "stateMutability": "view",
      "type": "function"
    },
    {
      "inputs": [
        {
          "internalType": "bytes32",
          "name": "role",
          "type": "bytes32"
        }
      ],
      "name": "getRoleMemberCount",
      "outputs": [
        {
          "internalType": "uint256",
          "name": "",
          "type": "uint256"
        }
      ],
      "stateMutability": "view",
      "type": "function"
    },
    {
      "inputs": [
        {
          "internalType": "bytes32",
          "name": "role",
          "type": "bytes32"
        },
        {
          "internalType": "address",
          "name": "account",
          "type": "address"
        }
      ],
      "name": "grantRole",
      "outputs": [],
      "stateMutability": "nonpayable",
      "type": "function"
    },
    {
      "inputs": [
        {
          "internalType": "bytes32",
          "name": "role",
          "type": "bytes32"
        },
        {
          "internalType": "address",
          "name": "account",
          "type": "address"
        }
      ],
      "name": "hasRole",
      "outputs": [
        {
          "internalType": "bool",
          "name": "",
          "type": "bool"
        }
      ],
      "stateMutability": "view",
      "type": "function"
    },
    {
      "inputs": [
        {
          "internalType": "address",
          "name": "owner",
          "type": "address"
        },
        {
          "internalType": "address",
          "name": "operator",
          "type": "address"
        }
      ],
      "name": "isApprovedForAll",
      "outputs": [
        {
          "internalType": "bool",
          "name": "",
          "type": "bool"
        }
      ],
      "stateMutability": "view",
      "type": "function"
    },
    {
      "inputs": [],
      "name": "name",
      "outputs": [
        {
          "internalType": "string",
          "name": "",
          "type": "string"
        }
      ],
      "stateMutability": "view",
      "type": "function"
    },
    {
      "inputs": [
        {
          "internalType": "uint256",
          "name": "tokenId",
          "type": "uint256"
        }
      ],
      "name": "ownerOf",
      "outputs": [
        {
          "internalType": "address",
          "name": "",
          "type": "address"
        }
      ],
      "stateMutability": "view",
      "type": "function"
    },
    {
      "inputs": [],
      "name": "pause",
      "outputs": [],
      "stateMutability": "nonpayable",
      "type": "function"
    },
    {
      "inputs": [],
      "name": "paused",
      "outputs": [
        {
          "internalType": "bool",
          "name": "",
          "type": "bool"
        }
      ],
      "stateMutability": "view",
      "type": "function"
    },
    {
      "inputs": [
        {
          "internalType": "bytes32",
          "name": "role",
          "type": "bytes32"
        },
        {
          "internalType": "address",
          "name": "account",
          "type": "address"
        }
      ],
      "name": "renounceRole",
      "outputs": [],
      "stateMutability": "nonpayable",
      "type": "function"
    },
    {
      "inputs": [
        {
          "internalType": "bytes32",
          "name": "role",
          "type": "bytes32"
        },
        {
          "internalType": "address",
          "name": "account",
          "type": "address"
        }
      ],
      "name": "revokeRole",
      "outputs": [],
      "stateMutability": "nonpayable",
      "type": "function"
    },
    {
      "inputs": [
        {
          "internalType": "address",
          "name": "from",
          "type": "address"
        },
        {
          "internalType": "address",
          "name": "to",
          "type": "address"
        },
        {
          "internalType": "uint256",
          "name": "tokenId",
          "type": "uint256"
        }
      ],
      "name": "safeTransferFrom",
      "outputs": [],
      "stateMutability": "nonpayable",
      "type": "function"
    },
    {
      "inputs": [
        {
          "internalType": "address",
          "name": "from",
          "type": "address"
        },
        {
          "internalType": "address",
          "name": "to",
          "type": "address"
        },
        {
          "internalType": "uint256",
          "name": "tokenId",
          "type": "uint256"
        },
        {
          "internalType": "bytes",
          "name": "_data",
          "type": "bytes"
        }
      ],
      "name": "safeTransferFrom",
      "outputs": [],
      "stateMutability": "nonpayable",
      "type": "function"
    },
    {
      "inputs": [
        {
          "internalType": "address",
          "name": "operator",
          "type": "address"
        },
        {
          "internalType": "bool",
          "name": "approved",
          "type": "bool"
        }
      ],
      "name": "setApprovalForAll",
      "outputs": [],
      "stateMutability": "nonpayable",
      "type": "function"
    },
    {
      "inputs": [
        {
          "internalType": "bytes4",
          "name": "interfaceId",
          "type": "bytes4"
        }
      ],
      "name": "supportsInterface",
      "outputs": [
        {
          "internalType": "bool",
          "name": "",
          "type": "bool"
        }
      ],
      "stateMutability": "view",
      "type": "function"
    },
    {
      "inputs": [],
      "name": "symbol",
      "outputs": [
        {
          "internalType": "string",
          "name": "",
          "type": "string"
        }
      ],
      "stateMutability": "view",
      "type": "function"
    },
    {
      "inputs": [
        {
          "internalType": "uint256",
          "name": "index",
          "type": "uint256"
        }
      ],
      "name": "tokenByIndex",
      "outputs": [
        {
          "internalType": "uint256",
          "name": "",
          "type": "uint256"
        }
      ],
      "stateMutability": "view",
      "type": "function"
    },
    {
      "inputs": [
        {
          "internalType": "address",
          "name": "owner",
          "type": "address"
        },
        {
          "internalType": "uint256",
          "name": "index",
          "type": "uint256"
        }
      ],
      "name": "tokenOfOwnerByIndex",
      "outputs": [
        {
          "internalType": "uint256",
          "name": "",
          "type": "uint256"
        }
      ],
      "stateMutability": "view",
      "type": "function"
    },
    {
      "inputs": [
        {
          "internalType": "uint256",
          "name": "tokenId",
          "type": "uint256"
        }
      ],
      "name": "tokenURI",
      "outputs": [
        {
          "internalType": "string",
          "name": "",
          "type": "string"
        }
      ],
      "stateMutability": "view",
      "type": "function"
    },
    {
      "inputs": [],
      "name": "totalSupply",
      "outputs": [
        {
          "internalType": "uint256",
          "name": "",
          "type": "uint256"
        }
      ],
      "stateMutability": "view",
      "type": "function"
    },
    {
      "inputs": [
        {
          "internalType": "address",
          "name": "from",
          "type": "address"
        },
        {
          "internalType": "address",
          "name": "to",
          "type": "address"
        },
        {
          "internalType": "uint256",
          "name": "tokenId",
          "type": "uint256"
        }
      ],
      "name": "transferFrom",
      "outputs": [],
      "stateMutability": "nonpayable",
      "type": "function"
    },
    {
      "inputs": [],
      "name": "unpause",
      "outputs": [],
      "stateMutability": "nonpayable",
      "type": "function"
    },
    {
      "inputs": [
        {
          "internalType": "string",
          "name": "name",
          "type": "string"
        },
        {
          "internalType": "string",
          "name": "symbol",
          "type": "string"
        },
        {
          "internalType": "string",
          "name": "uri",
          "type": "string"
        }
      ],
      "name": "initialize",
      "outputs": [],
      "stateMutability": "nonpayable",
      "type": "function"
    },
    {
      "inputs": [
        {
          "internalType": "uint256",
          "name": "id",
          "type": "uint256"
        }
      ],
      "name": "getFeeRecipients",
      "outputs": [
        {
          "internalType": "address payable[]",
          "name": "",
          "type": "address[]"
        }
      ],
      "stateMutability": "view",
      "type": "function"
    },
    {
      "inputs": [
        {
          "internalType": "uint256",
          "name": "id",
          "type": "uint256"
        }
      ],
      "name": "getFeeBps",
      "outputs": [
        {
          "internalType": "uint256[]",
          "name": "",
          "type": "uint256[]"
        }
      ],
      "stateMutability": "view",
      "type": "function"
    },
    {
      "inputs": [
        {
          "internalType": "uint256",
          "name": "_id",
          "type": "uint256"
        },
        {
          "components": [
            {
              "internalType": "address payable",
              "name": "recipient",
              "type": "address"
            },
            {
              "internalType": "uint256",
              "name": "value",
              "type": "uint256"
            }
          ],
          "internalType": "struct GhostmarketNFT.Fee[]",
          "name": "_fees",
          "type": "tuple[]"
        }
      ],
      "name": "saveFees",
      "outputs": [],
      "stateMutability": "nonpayable",
      "type": "function"
    },
    {
      "inputs": [
        {
          "internalType": "uint256",
          "name": "_id",
          "type": "uint256"
        },
        {
          "internalType": "address",
          "name": "_from",
          "type": "address"
        },
        {
          "internalType": "address",
          "name": "_to",
          "type": "address"
        }
      ],
      "name": "updateAccount",
      "outputs": [],
      "stateMutability": "nonpayable",
      "type": "function"
    },
    {
      "inputs": [
        {
          "internalType": "address",
          "name": "to",
          "type": "address"
        }
      ],
      "name": "mint",
      "outputs": [],
      "stateMutability": "nonpayable",
      "type": "function"
    },
    {
      "inputs": [
        {
          "internalType": "address",
          "name": "to",
          "type": "address"
        },
        {
          "internalType": "uint256",
          "name": "tokenId",
          "type": "uint256"
        },
        {
          "components": [
            {
              "internalType": "address payable",
              "name": "recipient",
              "type": "address"
            },
            {
              "internalType": "uint256",
              "name": "value",
              "type": "uint256"
            }
          ],
          "internalType": "struct GhostmarketNFT.Fee[]",
          "name": "_fees",
          "type": "tuple[]"
        }
      ],
      "name": "mint",
      "outputs": [],
      "stateMutability": "nonpayable",
      "type": "function"
    }
  ],
  "bytecode": "0x608060405234801561001057600080fd5b5061367c806100206000396000f3fe608060405234801561001057600080fd5b50600436106102925760003560e01c80636a62784211610160578063b88d4fde116100d8578063d547741f1161008c578063e63ab1e911610071578063e63ab1e9146105b0578063e985e9c5146105d7578063f8b4c8821461061357610292565b8063d547741f1461058a578063e07f23191461059d57610292565b8063c87b56dd116100bd578063c87b56dd1461053d578063ca15c87314610550578063d53913931461056357610292565b8063b88d4fde1461050a578063b9c4d9fb1461051d57610292565b806391d148541161012f578063a217fddf11610114578063a217fddf146104dc578063a22cb465146104e4578063a6487c53146104f757610292565b806391d148541461049b57806395d89b41146104d457610292565b80636a6278421461045a57806370a082311461046d5780638456cb59146104805780639010d07c1461048857610292565b80632f745c591161020e5780634f6ccce7116101c25780635c975abb116101a75780635c975abb146104095780636308f1cd146104155780636352211e1461044757610292565b80634f6ccce7146103e35780635064dc53146103f657610292565b80633f4ba83a116101f35780633f4ba83a146103b557806342842e0e146103bd57806342966c68146103d057610292565b80632f745c591461038f57806336568abe146103a257610292565b80630ebd4c7f1161026557806323b872dd1161024a57806323b872dd14610346578063248a9ca3146103595780632f2ff15d1461037c57610292565b80630ebd4c7f1461031457806318160ddd1461033457610292565b806301ffc9a71461029757806306fdde03146102bf578063081812fc146102d4578063095ea7b3146102ff575b600080fd5b6102aa6102a53660046131ea565b610626565b60405190151581526020015b60405180910390f35b6102c7610639565b6040516102b69190613453565b6102e76102e236600461318d565b6106cb565b6040516001600160a01b0390911681526020016102b6565b61031261030d36600461310b565b610776565b005b61032761032236600461318d565b6108a8565b6040516102b69190613440565b60fd545b6040519081526020016102b6565b61031261035436600461301d565b6109f5565b61033861036736600461318d565b60009081526065602052604090206001015490565b61031261038a3660046131a5565b610a7d565b61033861039d36600461310b565b610a9f565b6103126103b03660046131a5565b610b4a565b610312610b6c565b6103126103cb36600461301d565b610c14565b6103126103de36600461318d565b610c2f565b6103386103f136600461318d565b610cb6565b6103126104043660046132dd565b610d68565b61015f5460ff166102aa565b6104286104233660046131c9565b610f17565b604080516001600160a01b0390931683526020830191909152016102b6565b6102e761045536600461318d565b610f5e565b610312610468366004612fc9565b610fe9565b61033861047b366004612fc9565b6110a7565b610312611141565b6102e76104963660046131c9565b6111e5565b6102aa6104a93660046131a5565b60009182526065602090815260408084206001600160a01b0393909316845291905290205460ff1690565b6102c7611204565b610338600081565b6103126104f23660046130da565b611213565b610312610505366004613222565b6112e5565b61031261051836600461305d565b6113b0565b61053061052b36600461318d565b611438565b6040516102b691906133f3565b6102c761054b36600461318d565b61158a565b61033861055e36600461318d565b611672565b6103387f9f2df0fed2c77648de5860a4cc508cd0818c85b8b8a1ab4ceeef8d981c8956a681565b6103126105983660046131a5565b611689565b6103126105ab36600461329c565b611693565b6103387f65d7a28e3265b37a6474929f336521b332c1681b933f6cb9f3376673440d862a81565b6102aa6105e5366004612fe5565b6001600160a01b03918216600090815260ce6020908152604080832093909416825291909152205460ff1690565b610312610621366004613136565b61178f565b600061063182611898565b90505b919050565b606060c980546106489061356f565b80601f01602080910402602001604051908101604052809291908181526020018280546106749061356f565b80156106c15780601f10610696576101008083540402835291602001916106c1565b820191906000526020600020905b8154815290600101906020018083116106a457829003601f168201915b5050505050905090565b600081815260cb60205260408120546001600160a01b031661075a5760405162461bcd60e51b815260206004820152602c60248201527f4552433732313a20617070726f76656420717565727920666f72206e6f6e657860448201527f697374656e7420746f6b656e000000000000000000000000000000000000000060648201526084015b60405180910390fd5b50600090815260cd60205260409020546001600160a01b031690565b600061078182610f5e565b9050806001600160a01b0316836001600160a01b0316141561080b5760405162461bcd60e51b815260206004820152602160248201527f4552433732313a20617070726f76616c20746f2063757272656e74206f776e6560448201527f72000000000000000000000000000000000000000000000000000000000000006064820152608401610751565b336001600160a01b0382161480610827575061082781336105e5565b6108995760405162461bcd60e51b815260206004820152603860248201527f4552433732313a20617070726f76652063616c6c6572206973206e6f74206f7760448201527f6e6572206e6f7220617070726f76656420666f7220616c6c00000000000000006064820152608401610751565b6108a383836118d6565b505050565b60008181526101f560209081526040808320805482518185028101850190935280835260609493849084015b8282101561091c576000848152602090819020604080518082019091526002850290910180546001600160a01b031682526001908101548284015290835290920191016108d4565b5050505090506000815167ffffffffffffffff81111561094c57634e487b7160e01b600052604160045260246000fd5b604051908082528060200260200182016040528015610975578160200160208202803683370190505b50905060005b82518110156109ed578281815181106109a457634e487b7160e01b600052603260045260246000fd5b6020026020010151602001518282815181106109d057634e487b7160e01b600052603260045260246000fd5b6020908102919091010152806109e5816135aa565b91505061097b565b509392505050565b610a00335b82611951565b610a725760405162461bcd60e51b815260206004820152603160248201527f4552433732313a207472616e736665722063616c6c6572206973206e6f74206f60448201527f776e6572206e6f7220617070726f7665640000000000000000000000000000006064820152608401610751565b6108a3838383611a59565b610a878282611c3e565b60008281526097602052604090206108a39082611cdb565b6000610aaa836110a7565b8210610b1e5760405162461bcd60e51b815260206004820152602b60248201527f455243373231456e756d657261626c653a206f776e657220696e646578206f7560448201527f74206f6620626f756e64730000000000000000000000000000000000000000006064820152608401610751565b506001600160a01b038216600090815260fb602090815260408083208484529091529020545b92915050565b610b548282611cf0565b60008281526097602052604090206108a39082611d78565b610b967f65d7a28e3265b37a6474929f336521b332c1681b933f6cb9f3376673440d862a336104a9565b610c0a576040805162461bcd60e51b81526020600482015260248101919091527f4552433732315072657365744d696e7465725061757365724175746f49643a2060448201527f6d75737420686176652070617573657220726f6c6520746f20756e70617573656064820152608401610751565b610c12611d8d565b565b6108a3838383604051806020016040528060008152506113b0565b610c38336109fa565b610caa5760405162461bcd60e51b815260206004820152603060248201527f4552433732314275726e61626c653a2063616c6c6572206973206e6f74206f7760448201527f6e6572206e6f7220617070726f766564000000000000000000000000000000006064820152608401610751565b610cb381611e2b565b50565b6000610cc160fd5490565b8210610d355760405162461bcd60e51b815260206004820152602c60248201527f455243373231456e756d657261626c653a20676c6f62616c20696e646578206f60448201527f7574206f6620626f756e647300000000000000000000000000000000000000006064820152608401610751565b60fd8281548110610d5657634e487b7160e01b600052603260045260246000fd5b90600052602060002001549050919050565b60005b81518110156108a35760006001600160a01b0316828281518110610d9f57634e487b7160e01b600052603260045260246000fd5b6020026020010151600001516001600160a01b03161415610e025760405162461bcd60e51b815260206004820152601b60248201527f526563697069656e742073686f756c642062652070726573656e7400000000006044820152606401610751565b818181518110610e2257634e487b7160e01b600052603260045260246000fd5b60200260200101516020015160001415610e7e5760405162461bcd60e51b815260206004820152601c60248201527f4665652076616c75652073686f756c6420626520706f736974697665000000006044820152606401610751565b60008381526101f5602052604090208251839083908110610eaf57634e487b7160e01b600052603260045260246000fd5b6020908102919091018101518254600180820185556000948552938390208251600290920201805473ffffffffffffffffffffffffffffffffffffffff19166001600160a01b0390921691909117815591015191015580610f0f816135aa565b915050610d6b565b6101f56020528160005260406000208181548110610f3457600080fd5b6000918252602090912060029091020180546001909101546001600160a01b039091169250905082565b600081815260cb60205260408120546001600160a01b0316806106315760405162461bcd60e51b815260206004820152602960248201527f4552433732313a206f776e657220717565727920666f72206e6f6e657869737460448201527f656e7420746f6b656e00000000000000000000000000000000000000000000006064820152608401610751565b6110137f9f2df0fed2c77648de5860a4cc508cd0818c85b8b8a1ab4ceeef8d981c8956a6336104a9565b6110855760405162461bcd60e51b815260206004820152603d60248201527f4552433732315072657365744d696e7465725061757365724175746f49643a2060448201527f6d7573742068617665206d696e74657220726f6c6520746f206d696e740000006064820152608401610751565b611098816110936101c35490565b611edf565b610cb36101c380546001019055565b60006001600160a01b0382166111255760405162461bcd60e51b815260206004820152602a60248201527f4552433732313a2062616c616e636520717565727920666f7220746865207a6560448201527f726f2061646472657373000000000000000000000000000000000000000000006064820152608401610751565b506001600160a01b0316600090815260cc602052604090205490565b61116b7f65d7a28e3265b37a6474929f336521b332c1681b933f6cb9f3376673440d862a336104a9565b6111dd5760405162461bcd60e51b815260206004820152603e60248201527f4552433732315072657365744d696e7465725061757365724175746f49643a2060448201527f6d75737420686176652070617573657220726f6c6520746f20706175736500006064820152608401610751565b610c1261203a565b60008281526097602052604081206111fd90836120c4565b9392505050565b606060ca80546106489061356f565b6001600160a01b03821633141561126c5760405162461bcd60e51b815260206004820152601960248201527f4552433732313a20617070726f766520746f2063616c6c6572000000000000006044820152606401610751565b33600081815260ce602090815260408083206001600160a01b0387168085529252909120805460ff1916841515179055906001600160a01b03167f17307eab39ab6107e8899845ad3d59bd9653f200f220920489ca2b5937696c31836040516112d9911515815260200190565b60405180910390a35050565b600054610100900460ff16806112fe575060005460ff16155b6113615760405162461bcd60e51b815260206004820152602e60248201527f496e697469616c697a61626c653a20636f6e747261637420697320616c72656160448201526d191e481a5b9a5d1a585b1a5e995960921b6064820152608401610751565b600054610100900460ff16158015611383576000805461ffff19166101011790555b61138d84846120d0565b6113988484846121ac565b80156113aa576000805461ff00191690555b50505050565b6113ba3383611951565b61142c5760405162461bcd60e51b815260206004820152603160248201527f4552433732313a207472616e736665722063616c6c6572206973206e6f74206f60448201527f776e6572206e6f7220617070726f7665640000000000000000000000000000006064820152608401610751565b6113aa848484846122bf565b60008181526101f560209081526040808320805482518185028101850190935280835260609493849084015b828210156114ac576000848152602090819020604080518082019091526002850290910180546001600160a01b03168252600190810154828401529083529092019101611464565b5050505090506000815167ffffffffffffffff8111156114dc57634e487b7160e01b600052604160045260246000fd5b604051908082528060200260200182016040528015611505578160200160208202803683370190505b50905060005b82518110156109ed5782818151811061153457634e487b7160e01b600052603260045260246000fd5b60200260200101516000015182828151811061156057634e487b7160e01b600052603260045260246000fd5b6001600160a01b039092166020928302919091019091015280611582816135aa565b91505061150b565b600081815260cb60205260409020546060906001600160a01b03166116175760405162461bcd60e51b815260206004820152602f60248201527f4552433732314d657461646174613a2055524920717565727920666f72206e6f60448201527f6e6578697374656e7420746f6b656e00000000000000000000000000000000006064820152608401610751565b6000611621612348565b9050600081511161164157604051806020016040528060008152506111fd565b8061164b84612358565b60405160200161165c929190613388565b6040516020818303038152906040529392505050565b6000818152609760205260408120610631906124a7565b610b5482826124b1565b60008381526101f56020526040812054905b818110156117885760008581526101f56020526040902080546001600160a01b0386169190839081106116e857634e487b7160e01b600052603260045260246000fd5b60009182526020909120600290910201546001600160a01b031614156117765760008581526101f56020526040902080548491908390811061173a57634e487b7160e01b600052603260045260246000fd5b60009182526020909120600290910201805473ffffffffffffffffffffffffffffffffffffffff19166001600160a01b03929092169190911790555b80611780816135aa565b9150506116a5565b5050505050565b6117998383611edf565b6000815167ffffffffffffffff8111156117c357634e487b7160e01b600052604160045260246000fd5b6040519080825280602002602001820160405280156117ec578160200160208202803683370190505b5090506000825167ffffffffffffffff81111561181957634e487b7160e01b600052604160045260246000fd5b604051908082528060200260200182016040528015611842578160200160208202803683370190505b50905061184f8484610d68565b825115611788577f99aba1d63749cfd5ad1afda7c4663840924d54eb5f005bbbeadedc6ec13674b284838360405161188993929190613466565b60405180910390a15050505050565b60006001600160e01b031982167f780e9d6300000000000000000000000000000000000000000000000000000000148061063157506106318261253e565b600081815260cd60205260409020805473ffffffffffffffffffffffffffffffffffffffff19166001600160a01b038416908117909155819061191882610f5e565b6001600160a01b03167f8c5be1e5ebec7d5bd14f71427d1e84f3dd0314c0f7b2291e5b200ac8c7c3b92560405160405180910390a45050565b600081815260cb60205260408120546001600160a01b03166119db5760405162461bcd60e51b815260206004820152602c60248201527f4552433732313a206f70657261746f7220717565727920666f72206e6f6e657860448201527f697374656e7420746f6b656e00000000000000000000000000000000000000006064820152608401610751565b60006119e683610f5e565b9050806001600160a01b0316846001600160a01b03161480611a215750836001600160a01b0316611a16846106cb565b6001600160a01b0316145b80611a5157506001600160a01b03808216600090815260ce602090815260408083209388168352929052205460ff165b949350505050565b826001600160a01b0316611a6c82610f5e565b6001600160a01b031614611ae85760405162461bcd60e51b815260206004820152602960248201527f4552433732313a207472616e73666572206f6620746f6b656e2074686174206960448201527f73206e6f74206f776e00000000000000000000000000000000000000000000006064820152608401610751565b6001600160a01b038216611b635760405162461bcd60e51b8152602060048201526024808201527f4552433732313a207472616e7366657220746f20746865207a65726f2061646460448201527f72657373000000000000000000000000000000000000000000000000000000006064820152608401610751565b611b6e8383836125b0565b611b796000826118d6565b6001600160a01b038316600090815260cc60205260408120805460019290611ba290849061352c565b90915550506001600160a01b038216600090815260cc60205260408120805460019290611bd0908490613500565b9091555050600081815260cb6020526040808220805473ffffffffffffffffffffffffffffffffffffffff19166001600160a01b0386811691821790925591518493918716917fddf252ad1be2c89b69c2b068fc378daa952ba7f163c4a11628f55a4df523b3ef91a4505050565b600082815260656020526040902060010154611c5b905b336104a9565b611ccd5760405162461bcd60e51b815260206004820152602f60248201527f416363657373436f6e74726f6c3a2073656e646572206d75737420626520616e60448201527f2061646d696e20746f206772616e7400000000000000000000000000000000006064820152608401610751565b611cd782826125bb565b5050565b60006111fd836001600160a01b03841661265d565b6001600160a01b0381163314611d6e5760405162461bcd60e51b815260206004820152602f60248201527f416363657373436f6e74726f6c3a2063616e206f6e6c792072656e6f756e636560448201527f20726f6c657320666f722073656c6600000000000000000000000000000000006064820152608401610751565b611cd782826126ac565b60006111fd836001600160a01b03841661272f565b61015f5460ff16611de05760405162461bcd60e51b815260206004820152601460248201527f5061757361626c653a206e6f74207061757365640000000000000000000000006044820152606401610751565b61015f805460ff191690557f5db9ee0a495bf2e6ff9c91a7834c1ba4fdd244a5e8aa4e537bd38aeae4b073aa335b6040516001600160a01b03909116815260200160405180910390a1565b6000611e3682610f5e565b9050611e44816000846125b0565b611e4f6000836118d6565b6001600160a01b038116600090815260cc60205260408120805460019290611e7890849061352c565b9091555050600082815260cb6020526040808220805473ffffffffffffffffffffffffffffffffffffffff19169055518391906001600160a01b038416907fddf252ad1be2c89b69c2b068fc378daa952ba7f163c4a11628f55a4df523b3ef908390a45050565b6001600160a01b038216611f355760405162461bcd60e51b815260206004820181905260248201527f4552433732313a206d696e7420746f20746865207a65726f20616464726573736044820152606401610751565b600081815260cb60205260409020546001600160a01b031615611f9a5760405162461bcd60e51b815260206004820152601c60248201527f4552433732313a20746f6b656e20616c7265616479206d696e746564000000006044820152606401610751565b611fa6600083836125b0565b6001600160a01b038216600090815260cc60205260408120805460019290611fcf908490613500565b9091555050600081815260cb6020526040808220805473ffffffffffffffffffffffffffffffffffffffff19166001600160a01b03861690811790915590518392907fddf252ad1be2c89b69c2b068fc378daa952ba7f163c4a11628f55a4df523b3ef908290a45050565b61015f5460ff161561208e5760405162461bcd60e51b815260206004820152601060248201527f5061757361626c653a20706175736564000000000000000000000000000000006044820152606401610751565b61015f805460ff191660011790557f62e78cea01bee320cd4e420270b5ea74000d11b0c9f74754ebdbfc544b05a258611e0e3390565b60006111fd838361284c565b600054610100900460ff16806120e9575060005460ff16155b61214c5760405162461bcd60e51b815260206004820152602e60248201527f496e697469616c697a61626c653a20636f6e747261637420697320616c72656160448201526d191e481a5b9a5d1a585b1a5e995960921b6064820152608401610751565b600054610100900460ff1615801561216e576000805461ffff19166101011790555b82516121819060c9906020860190612e09565b5081516121959060ca906020850190612e09565b5080156108a3576000805461ff0019169055505050565b600054610100900460ff16806121c5575060005460ff16155b6122285760405162461bcd60e51b815260206004820152602e60248201527f496e697469616c697a61626c653a20636f6e747261637420697320616c72656160448201526d191e481a5b9a5d1a585b1a5e995960921b6064820152608401610751565b600054610100900460ff1615801561224a576000805461ffff19166101011790555b815161225e906101c4906020850190612e09565b5061226b6000335b6128fb565b6122957f9f2df0fed2c77648de5860a4cc508cd0818c85b8b8a1ab4ceeef8d981c8956a633612266565b6113987f65d7a28e3265b37a6474929f336521b332c1681b933f6cb9f3376673440d862a33612266565b6122ca848484611a59565b6122d684848484612905565b6113aa5760405162461bcd60e51b815260206004820152603260248201527f4552433732313a207472616e7366657220746f206e6f6e20455243373231526560448201527f63656976657220696d706c656d656e74657200000000000000000000000000006064820152608401610751565b60606101c480546106489061356f565b606081612399575060408051808201909152600181527f30000000000000000000000000000000000000000000000000000000000000006020820152610634565b8160005b81156123c357806123ad816135aa565b91506123bc9050600a83613518565b915061239d565b60008167ffffffffffffffff8111156123ec57634e487b7160e01b600052604160045260246000fd5b6040519080825280601f01601f191660200182016040528015612416576020820181803683370190505b5090505b8415611a515761242b60018361352c565b9150612438600a866135c5565b612443906030613500565b60f81b81838151811061246657634e487b7160e01b600052603260045260246000fd5b60200101907effffffffffffffffffffffffffffffffffffffffffffffffffffffffffffff1916908160001a9053506124a0600a86613518565b945061241a565b6000610631825490565b6000828152606560205260409020600101546124cc90611c55565b611d6e5760405162461bcd60e51b815260206004820152603060248201527f416363657373436f6e74726f6c3a2073656e646572206d75737420626520616e60448201527f2061646d696e20746f207265766f6b65000000000000000000000000000000006064820152608401610751565b60006001600160e01b031982167f80ac58cd0000000000000000000000000000000000000000000000000000000014806125a157506001600160e01b031982167f5b5e139f00000000000000000000000000000000000000000000000000000000145b80610631575061063182612a68565b6108a3838383612aa6565b60008281526065602090815260408083206001600160a01b038516845290915290205460ff16611cd75760008281526065602090815260408083206001600160a01b03851684529091529020805460ff191660011790556126193390565b6001600160a01b0316816001600160a01b0316837f2f8788117e7eff1d82e926ec794901d17c78024a50270940304540a733656f0d60405160405180910390a45050565b60008181526001830160205260408120546126a457508154600181810184556000848152602080822090930184905584548482528286019093526040902091909155610b44565b506000610b44565b60008281526065602090815260408083206001600160a01b038516845290915290205460ff1615611cd75760008281526065602090815260408083206001600160a01b0385168085529252808320805460ff1916905551339285917ff6391f5c32d9c69d2a47ea670b442974b53935d1edc7fd64eb21e047a839171b9190a45050565b6000818152600183016020526040812054801561284257600061275360018361352c565b85549091506000906127679060019061352c565b9050600086600001828154811061278e57634e487b7160e01b600052603260045260246000fd5b90600052602060002001549050808760000184815481106127bf57634e487b7160e01b600052603260045260246000fd5b6000918252602090912001556127d6836001613500565b6000828152600189016020526040902055865487908061280657634e487b7160e01b600052603160045260246000fd5b60019003818190600052602060002001600090559055866001016000878152602001908152602001600020600090556001945050505050610b44565b6000915050610b44565b815460009082106128c55760405162461bcd60e51b815260206004820152602260248201527f456e756d657261626c655365743a20696e646578206f7574206f6620626f756e60448201527f64730000000000000000000000000000000000000000000000000000000000006064820152608401610751565b8260000182815481106128e857634e487b7160e01b600052603260045260246000fd5b9060005260206000200154905092915050565b610a878282611ccd565b60006001600160a01b0384163b15612a5d57604051630a85bd0160e11b81526001600160a01b0385169063150b7a02906129499033908990889088906004016133b7565b602060405180830381600087803b15801561296357600080fd5b505af1925050508015612993575060408051601f3d908101601f1916820190925261299091810190613206565b60015b612a43573d8080156129c1576040519150601f19603f3d011682016040523d82523d6000602084013e6129c6565b606091505b508051612a3b5760405162461bcd60e51b815260206004820152603260248201527f4552433732313a207472616e7366657220746f206e6f6e20455243373231526560448201527f63656976657220696d706c656d656e74657200000000000000000000000000006064820152608401610751565b805181602001fd5b6001600160e01b031916630a85bd0160e11b149050611a51565b506001949350505050565b60006001600160e01b031982167f5a05180f000000000000000000000000000000000000000000000000000000001480610631575061063182612b2b565b612ab1838383612b92565b61015f5460ff16156108a35760405162461bcd60e51b815260206004820152602b60248201527f4552433732315061757361626c653a20746f6b656e207472616e73666572207760448201527f68696c65207061757365640000000000000000000000000000000000000000006064820152608401610751565b60006001600160e01b031982167f7965db0b00000000000000000000000000000000000000000000000000000000148061063157507f01ffc9a7000000000000000000000000000000000000000000000000000000006001600160e01b0319831614610631565b6001600160a01b038316612bed57612be88160fd8054600083815260fe60205260408120829055600182018355919091527f9346ac6dd7de6b96975fec380d4d994c4c12e6a8897544f22915316cc6cca2800155565b612c10565b816001600160a01b0316836001600160a01b031614612c1057612c108382612c4f565b6001600160a01b038216612c2c57612c2781612cec565b6108a3565b826001600160a01b0316826001600160a01b0316146108a3576108a38282612dc5565b60006001612c5c846110a7565b612c66919061352c565b600083815260fc6020526040902054909150808214612cb9576001600160a01b038416600090815260fb60209081526040808320858452825280832054848452818420819055835260fc90915290208190555b50600091825260fc602090815260408084208490556001600160a01b03909416835260fb81528383209183525290812055565b60fd54600090612cfe9060019061352c565b600083815260fe602052604081205460fd8054939450909284908110612d3457634e487b7160e01b600052603260045260246000fd5b906000526020600020015490508060fd8381548110612d6357634e487b7160e01b600052603260045260246000fd5b600091825260208083209091019290925582815260fe909152604080822084905585825281205560fd805480612da957634e487b7160e01b600052603160045260246000fd5b6001900381819060005260206000200160009055905550505050565b6000612dd0836110a7565b6001600160a01b03909316600090815260fb60209081526040808320868452825280832085905593825260fc9052919091209190915550565b828054612e159061356f565b90600052602060002090601f016020900481019282612e375760008555612e7d565b82601f10612e5057805160ff1916838001178555612e7d565b82800160010185558215612e7d579182015b82811115612e7d578251825591602001919060010190612e62565b50612e89929150612e8d565b5090565b5b80821115612e895760008155600101612e8e565b600067ffffffffffffffff831115612ebc57612ebc613605565b612ecf601f8401601f19166020016134cf565b9050828152838383011115612ee357600080fd5b828260208301376000602084830101529392505050565b600082601f830112612f0a578081fd5b8135602067ffffffffffffffff821115612f2657612f26613605565b612f34818360051b016134cf565b80838252828201915082860187848660061b8901011115612f53578586fd5b855b85811015612f9d57604080838b031215612f6d578788fd5b612f76816134cf565b8335612f818161361b565b8152838701358782015285529385019390910190600101612f55565b5090979650505050505050565b600082601f830112612fba578081fd5b6111fd83833560208501612ea2565b600060208284031215612fda578081fd5b81356111fd8161361b565b60008060408385031215612ff7578081fd5b82356130028161361b565b915060208301356130128161361b565b809150509250929050565b600080600060608486031215613031578081fd5b833561303c8161361b565b9250602084013561304c8161361b565b929592945050506040919091013590565b60008060008060808587031215613072578081fd5b843561307d8161361b565b9350602085013561308d8161361b565b925060408501359150606085013567ffffffffffffffff8111156130af578182fd5b8501601f810187136130bf578182fd5b6130ce87823560208401612ea2565b91505092959194509250565b600080604083850312156130ec578182fd5b82356130f78161361b565b915060208301358015158114613012578182fd5b6000806040838503121561311d578182fd5b82356131288161361b565b946020939093013593505050565b60008060006060848603121561314a578283fd5b83356131558161361b565b925060208401359150604084013567ffffffffffffffff811115613177578182fd5b61318386828701612efa565b9150509250925092565b60006020828403121561319e578081fd5b5035919050565b600080604083850312156131b7578182fd5b8235915060208301356130128161361b565b600080604083850312156131db578182fd5b50508035926020909101359150565b6000602082840312156131fb578081fd5b81356111fd81613630565b600060208284031215613217578081fd5b81516111fd81613630565b600080600060608486031215613236578081fd5b833567ffffffffffffffff8082111561324d578283fd5b61325987838801612faa565b9450602086013591508082111561326e578283fd5b61327a87838801612faa565b9350604086013591508082111561328f578283fd5b5061318386828701612faa565b6000806000606084860312156132b0578081fd5b8335925060208401356132c28161361b565b915060408401356132d28161361b565b809150509250925092565b600080604083850312156132ef578182fd5b82359150602083013567ffffffffffffffff81111561330c578182fd5b61331885828601612efa565b9150509250929050565b6000815180845260208085019450808401835b8381101561335157815187529582019590820190600101613335565b509495945050505050565b60008151808452613374816020860160208601613543565b601f01601f19169290920160200192915050565b6000835161339a818460208801613543565b8351908301906133ae818360208801613543565b01949350505050565b60006001600160a01b038087168352808616602084015250836040830152608060608301526133e9608083018461335c565b9695505050505050565b6020808252825182820181905260009190848201906040850190845b818110156134345783516001600160a01b03168352928401929184019160010161340f565b50909695505050505050565b6000602082526111fd6020830184613322565b6000602082526111fd602083018461335c565b60006060820185835260206060818501528186518084526080860191508288019350845b818110156134af5784516001600160a01b03168352938301939183019160010161348a565b505084810360408601526134c38187613322565b98975050505050505050565b604051601f8201601f1916810167ffffffffffffffff811182821017156134f8576134f8613605565b604052919050565b60008219821115613513576135136135d9565b500190565b600082613527576135276135ef565b500490565b60008282101561353e5761353e6135d9565b500390565b60005b8381101561355e578181015183820152602001613546565b838111156113aa5750506000910152565b600181811c9082168061358357607f821691505b602082108114156135a457634e487b7160e01b600052602260045260246000fd5b50919050565b60006000198214156135be576135be6135d9565b5060010190565b6000826135d4576135d46135ef565b500690565b634e487b7160e01b600052601160045260246000fd5b634e487b7160e01b600052601260045260246000fd5b634e487b7160e01b600052604160045260246000fd5b6001600160a01b0381168114610cb357600080fd5b6001600160e01b031981168114610cb357600080fdfea2646970667358221220fd59c10678b0a39141501a8a24239a785bec15f579d104ae1e6256bc9e30a8cd64736f6c63430008030033",
  "immutableReferences": {},
  "source": "pragma solidity ^0.8.3;\n\nimport \"@openzeppelin/contracts-upgradeable/token/ERC721/presets/ERC721PresetMinterPauserAutoIdUpgradeable.sol\";\n\ncontract GhostmarketNFT is\n    Initializable,\n    ERC721PresetMinterPauserAutoIdUpgradeable\n{\n    struct Fee {\n        address payable recipient;\n        uint256 value;\n    }\n\n    // id => fees\n    mapping(uint256 => Fee[]) public fees;\n\n    event SecondarySaleFees(\n        uint256 tokenId,\n        address[] recipients,\n        uint256[] bps\n    );\n\n    //name: \"GhostmarketNFT\" symbol: \"GMNFT\"\n    function initialize(\n        string memory name,\n        string memory symbol,\n        string memory uri\n    ) public override initializer {\n        __ERC721_init_unchained(name, symbol);\n        __ERC721PresetMinterPauserAutoId_init_unchained(name, symbol, uri);\n    }\n\n    function getFeeRecipients(uint256 id)\n        public\n        view\n        returns (address payable[] memory)\n    {\n        Fee[] memory _fees = fees[id];\n        address payable[] memory result = new address payable[](_fees.length);\n        for (uint256 i = 0; i < _fees.length; i++) {\n            result[i] = _fees[i].recipient;\n        }\n        return result;\n    }\n\n    function getFeeBps(uint256 id) public view returns (uint256[] memory) {\n        Fee[] memory _fees = fees[id];\n        uint256[] memory result = new uint256[](_fees.length);\n        for (uint256 i = 0; i < _fees.length; i++) {\n            result[i] = _fees[i].value;\n        }\n        return result;\n    }\n\n    function saveFees(uint256 _id, Fee[] memory _fees) public {\n        for (uint256 i = 0; i < _fees.length; i++) {\n            require(\n                _fees[i].recipient != address(0x0),\n                \"Recipient should be present\"\n            );\n            require(_fees[i].value != 0, \"Fee value should be positive\");\n            fees[_id].push(_fees[i]);\n        }\n    }\n\n    function updateAccount(\n        uint256 _id,\n        address _from,\n        address _to\n    ) public {\n        uint256 length = fees[_id].length;\n        for (uint256 i = 0; i < length; i++) {\n            if (fees[_id][i].recipient == _from) {\n                fees[_id][i].recipient = payable(address(uint160(_to)));\n            }\n        }\n    }\n\n    function mint(\n        address to,\n        uint256 tokenId,\n        Fee[] memory _fees\n    ) public {\n        super._mint(to, tokenId);\n        address[] memory recipients = new address[](_fees.length);\n        uint256[] memory bps = new uint256[](_fees.length);\n        saveFees(tokenId, _fees);\n        if (_fees.length > 0) {\n            emit SecondarySaleFees(tokenId, recipients, bps);\n        }\n    }\n}\n",
  "sourcePath": "/Users/selimerunkut/dev_freelance/GhostMarketContractBSC/contracts/GhostmarketNFT.sol",
  "compiler": {
    "name": "solc",
    "version": "0.8.3+commit.8d00100c.Emscripten.clang"
  },
  "schemaVersion": "3.3.4",
  "updatedAt": "2021-04-19T21:14:59.391Z",
  "devdoc": {
    "kind": "dev",
    "methods": {
      "approve(address,uint256)": {
        "details": "See {IERC721-approve}."
      },
      "balanceOf(address)": {
        "details": "See {IERC721-balanceOf}."
      },
      "burn(uint256)": {
        "details": "Burns `tokenId`. See {ERC721-_burn}. Requirements: - The caller must own `tokenId` or be an approved operator."
      },
      "getApproved(uint256)": {
        "details": "See {IERC721-getApproved}."
      },
      "getRoleAdmin(bytes32)": {
        "details": "Returns the admin role that controls `role`. See {grantRole} and {revokeRole}. To change a role's admin, use {_setRoleAdmin}."
      },
      "getRoleMember(bytes32,uint256)": {
        "details": "Returns one of the accounts that have `role`. `index` must be a value between 0 and {getRoleMemberCount}, non-inclusive. Role bearers are not sorted in any particular way, and their ordering may change at any point. WARNING: When using {getRoleMember} and {getRoleMemberCount}, make sure you perform all queries on the same block. See the following https://forum.openzeppelin.com/t/iterating-over-elements-on-enumerableset-in-openzeppelin-contracts/2296[forum post] for more information."
      },
      "getRoleMemberCount(bytes32)": {
        "details": "Returns the number of accounts that have `role`. Can be used together with {getRoleMember} to enumerate all bearers of a role."
      },
      "grantRole(bytes32,address)": {
        "details": "Overload {grantRole} to track enumerable memberships"
      },
      "hasRole(bytes32,address)": {
        "details": "Returns `true` if `account` has been granted `role`."
      },
      "isApprovedForAll(address,address)": {
        "details": "See {IERC721-isApprovedForAll}."
      },
      "mint(address)": {
        "details": "Creates a new token for `to`. Its token ID will be automatically assigned (and available on the emitted {IERC721-Transfer} event), and the token URI autogenerated based on the base URI passed at construction. See {ERC721-_mint}. Requirements: - the caller must have the `MINTER_ROLE`."
      },
      "name()": {
        "details": "See {IERC721Metadata-name}."
      },
      "ownerOf(uint256)": {
        "details": "See {IERC721-ownerOf}."
      },
      "pause()": {
        "details": "Pauses all token transfers. See {ERC721Pausable} and {Pausable-_pause}. Requirements: - the caller must have the `PAUSER_ROLE`."
      },
      "paused()": {
        "details": "Returns true if the contract is paused, and false otherwise."
      },
      "renounceRole(bytes32,address)": {
        "details": "Overload {renounceRole} to track enumerable memberships"
      },
      "revokeRole(bytes32,address)": {
        "details": "Overload {revokeRole} to track enumerable memberships"
      },
      "safeTransferFrom(address,address,uint256)": {
        "details": "See {IERC721-safeTransferFrom}."
      },
      "safeTransferFrom(address,address,uint256,bytes)": {
        "details": "See {IERC721-safeTransferFrom}."
      },
      "setApprovalForAll(address,bool)": {
        "details": "See {IERC721-setApprovalForAll}."
      },
      "supportsInterface(bytes4)": {
        "details": "See {IERC165-supportsInterface}."
      },
      "symbol()": {
        "details": "See {IERC721Metadata-symbol}."
      },
      "tokenByIndex(uint256)": {
        "details": "See {IERC721Enumerable-tokenByIndex}."
      },
      "tokenOfOwnerByIndex(address,uint256)": {
        "details": "See {IERC721Enumerable-tokenOfOwnerByIndex}."
      },
      "tokenURI(uint256)": {
        "details": "See {IERC721Metadata-tokenURI}."
      },
      "totalSupply()": {
        "details": "See {IERC721Enumerable-totalSupply}."
      },
      "transferFrom(address,address,uint256)": {
        "details": "See {IERC721-transferFrom}."
      },
      "unpause()": {
        "details": "Unpauses all token transfers. See {ERC721Pausable} and {Pausable-_unpause}. Requirements: - the caller must have the `PAUSER_ROLE`."
      }
    },
    "version": 1
  },
  "userdoc": {
    "kind": "user",
    "methods": {},
    "version": 1
  }
}