{
  "contractName": "GhostmarketERC1155",
  "abi": [
    {
      "anonymous": false,
      "inputs": [
        {
          "indexed": true,
          "internalType": "address",
          "name": "account",
          "type": "address"
        },
        {
          "indexed": true,
          "internalType": "address",
          "name": "operator",
          "type": "address"
        },
        {
          "indexed": false,
          "internalType": "bool",
          "name": "approved",
          "type": "bool"
        }
      ],
      "name": "ApprovalForAll",
      "type": "event"
    },
    {
      "anonymous": false,
      "inputs": [
        {
          "indexed": false,
          "internalType": "address",
          "name": "newValue",
          "type": "address"
        }
      ],
      "name": "GhostmarketFeeAddressChanged",
      "type": "event"
    },
    {
      "anonymous": false,
      "inputs": [
        {
          "indexed": false,
          "internalType": "uint256",
          "name": "newValue",
          "type": "uint256"
        }
      ],
      "name": "GhostmarketFeeMultiplierChanged",
      "type": "event"
    },
    {
      "anonymous": false,
      "inputs": [
        {
          "indexed": false,
          "internalType": "address",
          "name": "sender",
          "type": "address"
        },
        {
          "indexed": false,
          "internalType": "uint256",
          "name": "value",
          "type": "uint256"
        }
      ],
      "name": "GhostmarketFeePaid",
      "type": "event"
    },
    {
      "anonymous": false,
      "inputs": [
        {
          "indexed": false,
          "internalType": "uint256",
          "name": "newValue",
          "type": "uint256"
        }
      ],
      "name": "GhostmarketMintFeeChanged",
      "type": "event"
    },
    {
      "anonymous": false,
      "inputs": [
        {
          "indexed": false,
          "internalType": "address",
          "name": "msgSender",
          "type": "address"
        },
        {
          "indexed": false,
          "internalType": "uint256",
          "name": "tokenId",
          "type": "uint256"
        },
        {
          "indexed": false,
          "internalType": "string",
          "name": "lockedContent",
          "type": "string"
        }
      ],
      "name": "LockedContentViewed",
      "type": "event"
    },
    {
      "anonymous": false,
      "inputs": [
        {
          "indexed": false,
          "internalType": "address",
          "name": "account",
          "type": "address"
        }
      ],
      "name": "Paused",
      "type": "event"
    },
    {
      "anonymous": false,
      "inputs": [
        {
          "indexed": true,
          "internalType": "bytes32",
          "name": "role",
          "type": "bytes32"
        },
        {
          "indexed": true,
          "internalType": "bytes32",
          "name": "previousAdminRole",
          "type": "bytes32"
        },
        {
          "indexed": true,
          "internalType": "bytes32",
          "name": "newAdminRole",
          "type": "bytes32"
        }
      ],
      "name": "RoleAdminChanged",
      "type": "event"
    },
    {
      "anonymous": false,
      "inputs": [
        {
          "indexed": true,
          "internalType": "bytes32",
          "name": "role",
          "type": "bytes32"
        },
        {
          "indexed": true,
          "internalType": "address",
          "name": "account",
          "type": "address"
        },
        {
          "indexed": true,
          "internalType": "address",
          "name": "sender",
          "type": "address"
        }
      ],
      "name": "RoleGranted",
      "type": "event"
    },
    {
      "anonymous": false,
      "inputs": [
        {
          "indexed": true,
          "internalType": "bytes32",
          "name": "role",
          "type": "bytes32"
        },
        {
          "indexed": true,
          "internalType": "address",
          "name": "account",
          "type": "address"
        },
        {
          "indexed": true,
          "internalType": "address",
          "name": "sender",
          "type": "address"
        }
      ],
      "name": "RoleRevoked",
      "type": "event"
    },
    {
      "anonymous": false,
      "inputs": [
        {
          "indexed": false,
          "internalType": "uint256",
          "name": "tokenId",
          "type": "uint256"
        },
        {
          "indexed": false,
          "internalType": "address",
          "name": "from",
          "type": "address"
        },
        {
          "indexed": false,
          "internalType": "address",
          "name": "to",
          "type": "address"
        }
      ],
      "name": "RoyalitiesAccountChanged",
      "type": "event"
    },
    {
      "anonymous": false,
      "inputs": [
        {
          "indexed": false,
          "internalType": "uint256",
          "name": "tokenId",
          "type": "uint256"
        },
        {
          "indexed": false,
          "internalType": "uint256",
          "name": "value",
          "type": "uint256"
        }
      ],
      "name": "RoyalitiesFeeValueChanged",
      "type": "event"
    },
    {
      "anonymous": false,
      "inputs": [
        {
          "indexed": false,
          "internalType": "uint256",
          "name": "tokenId",
          "type": "uint256"
        },
        {
          "indexed": false,
          "internalType": "address",
          "name": "recipients",
          "type": "address"
        },
        {
          "indexed": false,
          "internalType": "uint256",
          "name": "bps",
          "type": "uint256"
        }
      ],
      "name": "SecondarySaleFees",
      "type": "event"
    },
    {
      "anonymous": false,
      "inputs": [
        {
          "indexed": true,
          "internalType": "address",
          "name": "operator",
          "type": "address"
        },
        {
          "indexed": true,
          "internalType": "address",
          "name": "from",
          "type": "address"
        },
        {
          "indexed": true,
          "internalType": "address",
          "name": "to",
          "type": "address"
        },
        {
          "indexed": false,
          "internalType": "uint256[]",
          "name": "ids",
          "type": "uint256[]"
        },
        {
          "indexed": false,
          "internalType": "uint256[]",
          "name": "values",
          "type": "uint256[]"
        }
      ],
      "name": "TransferBatch",
      "type": "event"
    },
    {
      "anonymous": false,
      "inputs": [
        {
          "indexed": true,
          "internalType": "address",
          "name": "operator",
          "type": "address"
        },
        {
          "indexed": true,
          "internalType": "address",
          "name": "from",
          "type": "address"
        },
        {
          "indexed": true,
          "internalType": "address",
          "name": "to",
          "type": "address"
        },
        {
          "indexed": false,
          "internalType": "uint256",
          "name": "id",
          "type": "uint256"
        },
        {
          "indexed": false,
          "internalType": "uint256",
          "name": "value",
          "type": "uint256"
        }
      ],
      "name": "TransferSingle",
      "type": "event"
    },
    {
      "anonymous": false,
      "inputs": [
        {
          "indexed": false,
          "internalType": "string",
          "name": "value",
          "type": "string"
        },
        {
          "indexed": true,
          "internalType": "uint256",
          "name": "id",
          "type": "uint256"
        }
      ],
      "name": "URI",
      "type": "event"
    },
    {
      "anonymous": false,
      "inputs": [
        {
          "indexed": false,
          "internalType": "address",
          "name": "account",
          "type": "address"
        }
      ],
      "name": "Unpaused",
      "type": "event"
    },
    {
      "inputs": [],
      "name": "DEFAULT_ADMIN_ROLE",
      "outputs": [
        {
          "internalType": "bytes32",
          "name": "",
          "type": "bytes32"
        }
      ],
      "stateMutability": "view",
      "type": "function"
    },
    {
      "inputs": [],
      "name": "MINTER_ROLE",
      "outputs": [
        {
          "internalType": "bytes32",
          "name": "",
          "type": "bytes32"
        }
      ],
      "stateMutability": "view",
      "type": "function"
    },
    {
      "inputs": [],
      "name": "PAUSER_ROLE",
      "outputs": [
        {
          "internalType": "bytes32",
          "name": "",
          "type": "bytes32"
        }
      ],
      "stateMutability": "view",
      "type": "function"
    },
    {
      "inputs": [
        {
          "internalType": "uint256",
          "name": "",
          "type": "uint256"
        }
      ],
      "name": "_lockedContent",
      "outputs": [
        {
          "internalType": "string",
          "name": "",
          "type": "string"
        }
      ],
      "stateMutability": "view",
      "type": "function"
    },
    {
      "inputs": [
        {
          "internalType": "address",
          "name": "account",
          "type": "address"
        },
        {
          "internalType": "uint256",
          "name": "id",
          "type": "uint256"
        }
      ],
      "name": "balanceOf",
      "outputs": [
        {
          "internalType": "uint256",
          "name": "",
          "type": "uint256"
        }
      ],
      "stateMutability": "view",
      "type": "function"
    },
    {
      "inputs": [
        {
          "internalType": "address[]",
          "name": "accounts",
          "type": "address[]"
        },
        {
          "internalType": "uint256[]",
          "name": "ids",
          "type": "uint256[]"
        }
      ],
      "name": "balanceOfBatch",
      "outputs": [
        {
          "internalType": "uint256[]",
          "name": "",
          "type": "uint256[]"
        }
      ],
      "stateMutability": "view",
      "type": "function"
    },
    {
      "inputs": [
        {
          "internalType": "address",
          "name": "account",
          "type": "address"
        },
        {
          "internalType": "uint256",
          "name": "id",
          "type": "uint256"
        },
        {
          "internalType": "uint256",
          "name": "value",
          "type": "uint256"
        }
      ],
      "name": "burn",
      "outputs": [],
      "stateMutability": "nonpayable",
      "type": "function"
    },
    {
      "inputs": [
        {
          "internalType": "address",
          "name": "account",
          "type": "address"
        },
        {
          "internalType": "uint256[]",
          "name": "ids",
          "type": "uint256[]"
        },
        {
          "internalType": "uint256[]",
          "name": "values",
          "type": "uint256[]"
        }
      ],
      "name": "burnBatch",
      "outputs": [],
      "stateMutability": "nonpayable",
      "type": "function"
    },
    {
      "inputs": [
        {
          "internalType": "uint256",
          "name": "",
          "type": "uint256"
        },
        {
          "internalType": "uint256",
          "name": "",
          "type": "uint256"
        }
      ],
      "name": "fees",
      "outputs": [
        {
          "internalType": "address payable",
          "name": "recipient",
          "type": "address"
        },
        {
          "internalType": "uint256",
          "name": "value",
          "type": "uint256"
        }
      ],
      "stateMutability": "view",
      "type": "function"
    },
    {
      "inputs": [
        {
          "internalType": "bytes32",
          "name": "role",
          "type": "bytes32"
        }
      ],
      "name": "getRoleAdmin",
      "outputs": [
        {
          "internalType": "bytes32",
          "name": "",
          "type": "bytes32"
        }
      ],
      "stateMutability": "view",
      "type": "function"
    },
    {
      "inputs": [
        {
          "internalType": "bytes32",
          "name": "role",
          "type": "bytes32"
        },
        {
          "internalType": "uint256",
          "name": "index",
          "type": "uint256"
        }
      ],
      "name": "getRoleMember",
      "outputs": [
        {
          "internalType": "address",
          "name": "",
          "type": "address"
        }
      ],
      "stateMutability": "view",
      "type": "function"
    },
    {
      "inputs": [
        {
          "internalType": "bytes32",
          "name": "role",
          "type": "bytes32"
        }
      ],
      "name": "getRoleMemberCount",
      "outputs": [
        {
          "internalType": "uint256",
          "name": "",
          "type": "uint256"
        }
      ],
      "stateMutability": "view",
      "type": "function"
    },
    {
      "inputs": [
        {
          "internalType": "bytes32",
          "name": "role",
          "type": "bytes32"
        },
        {
          "internalType": "address",
          "name": "account",
          "type": "address"
        }
      ],
      "name": "grantRole",
      "outputs": [],
      "stateMutability": "nonpayable",
      "type": "function"
    },
    {
      "inputs": [
        {
          "internalType": "bytes32",
          "name": "role",
          "type": "bytes32"
        },
        {
          "internalType": "address",
          "name": "account",
          "type": "address"
        }
      ],
      "name": "hasRole",
      "outputs": [
        {
          "internalType": "bool",
          "name": "",
          "type": "bool"
        }
      ],
      "stateMutability": "view",
      "type": "function"
    },
    {
      "inputs": [
        {
          "internalType": "address",
          "name": "account",
          "type": "address"
        },
        {
          "internalType": "address",
          "name": "operator",
          "type": "address"
        }
      ],
      "name": "isApprovedForAll",
      "outputs": [
        {
          "internalType": "bool",
          "name": "",
          "type": "bool"
        }
      ],
      "stateMutability": "view",
      "type": "function"
    },
    {
      "inputs": [
        {
          "internalType": "address",
          "name": "to",
          "type": "address"
        },
        {
          "internalType": "uint256",
          "name": "id",
          "type": "uint256"
        },
        {
          "internalType": "uint256",
          "name": "amount",
          "type": "uint256"
        },
        {
          "internalType": "bytes",
          "name": "data",
          "type": "bytes"
        }
      ],
      "name": "mint",
      "outputs": [],
      "stateMutability": "nonpayable",
      "type": "function"
    },
    {
      "inputs": [],
      "name": "name",
      "outputs": [
        {
          "internalType": "string",
          "name": "",
          "type": "string"
        }
      ],
      "stateMutability": "view",
      "type": "function"
    },
    {
      "inputs": [],
      "name": "pause",
      "outputs": [],
      "stateMutability": "nonpayable",
      "type": "function"
    },
    {
      "inputs": [],
      "name": "paused",
      "outputs": [
        {
          "internalType": "bool",
          "name": "",
          "type": "bool"
        }
      ],
      "stateMutability": "view",
      "type": "function"
    },
    {
      "inputs": [
        {
          "internalType": "bytes32",
          "name": "role",
          "type": "bytes32"
        },
        {
          "internalType": "address",
          "name": "account",
          "type": "address"
        }
      ],
      "name": "renounceRole",
      "outputs": [],
      "stateMutability": "nonpayable",
      "type": "function"
    },
    {
      "inputs": [
        {
          "internalType": "bytes32",
          "name": "role",
          "type": "bytes32"
        },
        {
          "internalType": "address",
          "name": "account",
          "type": "address"
        }
      ],
      "name": "revokeRole",
      "outputs": [],
      "stateMutability": "nonpayable",
      "type": "function"
    },
    {
      "inputs": [
        {
          "internalType": "address",
          "name": "from",
          "type": "address"
        },
        {
          "internalType": "address",
          "name": "to",
          "type": "address"
        },
        {
          "internalType": "uint256[]",
          "name": "ids",
          "type": "uint256[]"
        },
        {
          "internalType": "uint256[]",
          "name": "amounts",
          "type": "uint256[]"
        },
        {
          "internalType": "bytes",
          "name": "data",
          "type": "bytes"
        }
      ],
      "name": "safeBatchTransferFrom",
      "outputs": [],
      "stateMutability": "nonpayable",
      "type": "function"
    },
    {
      "inputs": [
        {
          "internalType": "address",
          "name": "from",
          "type": "address"
        },
        {
          "internalType": "address",
          "name": "to",
          "type": "address"
        },
        {
          "internalType": "uint256",
          "name": "id",
          "type": "uint256"
        },
        {
          "internalType": "uint256",
          "name": "amount",
          "type": "uint256"
        },
        {
          "internalType": "bytes",
          "name": "data",
          "type": "bytes"
        }
      ],
      "name": "safeTransferFrom",
      "outputs": [],
      "stateMutability": "nonpayable",
      "type": "function"
    },
    {
      "inputs": [
        {
          "internalType": "address",
          "name": "operator",
          "type": "address"
        },
        {
          "internalType": "bool",
          "name": "approved",
          "type": "bool"
        }
      ],
      "name": "setApprovalForAll",
      "outputs": [],
      "stateMutability": "nonpayable",
      "type": "function"
    },
    {
      "inputs": [
        {
          "internalType": "bytes4",
          "name": "interfaceId",
          "type": "bytes4"
        }
      ],
      "name": "supportsInterface",
      "outputs": [
        {
          "internalType": "bool",
          "name": "",
          "type": "bool"
        }
      ],
      "stateMutability": "view",
      "type": "function"
    },
    {
      "inputs": [],
      "name": "symbol",
      "outputs": [
        {
          "internalType": "string",
          "name": "",
          "type": "string"
        }
      ],
      "stateMutability": "view",
      "type": "function"
    },
    {
      "inputs": [],
      "name": "unpause",
      "outputs": [],
      "stateMutability": "nonpayable",
      "type": "function"
    },
    {
      "inputs": [
        {
          "internalType": "uint256",
          "name": "",
          "type": "uint256"
        }
      ],
      "name": "uri",
      "outputs": [
        {
          "internalType": "string",
          "name": "",
          "type": "string"
        }
      ],
      "stateMutability": "view",
      "type": "function"
    },
    {
      "inputs": [
        {
          "internalType": "string",
          "name": "_name",
          "type": "string"
        },
        {
          "internalType": "string",
          "name": "_symbol",
          "type": "string"
        },
        {
          "internalType": "string",
          "name": "uri",
          "type": "string"
        }
      ],
      "name": "initialize",
      "outputs": [],
      "stateMutability": "nonpayable",
      "type": "function"
    },
    {
      "inputs": [
        {
          "internalType": "string",
          "name": "uri",
          "type": "string"
        }
      ],
      "name": "initialize",
      "outputs": [],
      "stateMutability": "nonpayable",
      "type": "function"
    },
    {
      "inputs": [
        {
          "internalType": "address",
          "name": "to",
          "type": "address"
        },
        {
          "internalType": "uint256",
          "name": "amount",
          "type": "uint256"
        },
        {
          "internalType": "bytes",
          "name": "data",
          "type": "bytes"
        },
        {
          "components": [
            {
              "internalType": "address payable",
              "name": "recipient",
              "type": "address"
            },
            {
              "internalType": "uint256",
              "name": "value",
              "type": "uint256"
            }
          ],
          "internalType": "struct GhostmarketERC1155.Fee[]",
          "name": "_fees",
          "type": "tuple[]"
        },
        {
          "internalType": "string",
          "name": "lockedcontent",
          "type": "string"
        }
      ],
      "name": "mintGhost",
      "outputs": [],
      "stateMutability": "payable",
      "type": "function"
    },
    {
      "inputs": [
        {
          "internalType": "address",
          "name": "to",
          "type": "address"
        },
        {
          "internalType": "uint256[]",
          "name": "ids",
          "type": "uint256[]"
        },
        {
          "internalType": "uint256[]",
          "name": "amounts",
          "type": "uint256[]"
        },
        {
          "internalType": "bytes",
          "name": "data",
          "type": "bytes"
        }
      ],
      "name": "mintBatch",
      "outputs": [],
      "stateMutability": "nonpayable",
      "type": "function"
    },
    {
      "inputs": [
        {
          "internalType": "address",
          "name": "to",
          "type": "address"
        },
        {
          "internalType": "uint256[]",
          "name": "mintAmounts",
          "type": "uint256[]"
        },
        {
          "internalType": "bytes",
          "name": "data",
          "type": "bytes"
        },
        {
          "components": [
            {
              "internalType": "address payable",
              "name": "recipient",
              "type": "address"
            },
            {
              "internalType": "uint256",
              "name": "value",
              "type": "uint256"
            }
          ],
          "internalType": "struct GhostmarketERC1155.Fee[]",
          "name": "_fees",
          "type": "tuple[]"
        }
      ],
      "name": "mintBatch",
      "outputs": [],
      "stateMutability": "payable",
      "type": "function"
    },
    {
      "inputs": [
        {
          "internalType": "uint256[]",
          "name": "mintAmountsArray",
          "type": "uint256[]"
        }
      ],
      "name": "calculateTotalMintAmount",
      "outputs": [
        {
          "internalType": "uint256",
          "name": "",
          "type": "uint256"
        }
      ],
      "stateMutability": "pure",
      "type": "function"
    },
    {
      "inputs": [],
      "name": "getCurrentCounter",
      "outputs": [
        {
          "internalType": "uint256",
          "name": "",
          "type": "uint256"
        }
      ],
      "stateMutability": "view",
      "type": "function"
    },
    {
      "inputs": [],
      "name": "getLastTokenID",
      "outputs": [
        {
          "internalType": "uint256",
          "name": "",
          "type": "uint256"
        }
      ],
      "stateMutability": "view",
      "type": "function"
    },
    {
      "inputs": [
        {
          "internalType": "uint256",
          "name": "_tokenId",
          "type": "uint256"
        },
        {
          "internalType": "address",
          "name": "_from",
          "type": "address"
        },
        {
          "internalType": "uint256",
          "name": "_value",
          "type": "uint256"
        }
      ],
      "name": "updateRoyalitiesFeeValue",
      "outputs": [],
      "stateMutability": "nonpayable",
      "type": "function"
    },
    {
      "inputs": [
        {
          "internalType": "uint256",
          "name": "_tokenId",
          "type": "uint256"
        },
        {
          "internalType": "address",
          "name": "_from",
          "type": "address"
        },
        {
          "internalType": "address",
          "name": "_to",
          "type": "address"
        }
      ],
      "name": "updateRoyalitiesAccount",
      "outputs": [],
      "stateMutability": "nonpayable",
      "type": "function"
    },
    {
      "inputs": [
        {
          "internalType": "uint256",
          "name": "_tokenId",
          "type": "uint256"
        }
      ],
      "name": "getRoyalitiesRecipients",
      "outputs": [
        {
          "internalType": "address payable[]",
          "name": "",
          "type": "address[]"
        }
      ],
      "stateMutability": "view",
      "type": "function"
    },
    {
      "inputs": [
        {
          "internalType": "uint256",
          "name": "_tokenId",
          "type": "uint256"
        }
      ],
      "name": "getRoyaltyFeeBps",
      "outputs": [
        {
          "internalType": "uint256[]",
          "name": "",
          "type": "uint256[]"
        }
      ],
      "stateMutability": "view",
      "type": "function"
    },
    {
      "inputs": [
        {
          "internalType": "address payable",
          "name": "gmfa",
          "type": "address"
        }
      ],
      "name": "setGhostmarketFeeAddress",
      "outputs": [],
      "stateMutability": "nonpayable",
      "type": "function"
    },
    {
      "inputs": [
        {
          "internalType": "uint256",
          "name": "gmfm",
          "type": "uint256"
        }
      ],
      "name": "setGhostmarketFeeMultiplier",
      "outputs": [],
      "stateMutability": "nonpayable",
      "type": "function"
    },
    {
      "inputs": [
        {
          "internalType": "uint256",
          "name": "gmmf",
          "type": "uint256"
        }
      ],
      "name": "setGhostmarketMintFee",
      "outputs": [],
      "stateMutability": "nonpayable",
      "type": "function"
    },
    {
      "inputs": [],
      "name": "ghostmarketFeeAddress",
      "outputs": [
        {
          "internalType": "address payable",
          "name": "",
          "type": "address"
        }
      ],
      "stateMutability": "view",
      "type": "function"
    },
    {
      "inputs": [],
      "name": "ghostmarketMintingFee",
      "outputs": [
        {
          "internalType": "uint256",
          "name": "",
          "type": "uint256"
        }
      ],
      "stateMutability": "view",
      "type": "function"
    },
    {
      "inputs": [],
      "name": "ghostmarketFeeMultiplier",
      "outputs": [
        {
          "internalType": "uint256",
          "name": "",
          "type": "uint256"
        }
      ],
      "stateMutability": "view",
      "type": "function"
    },
    {
      "inputs": [
        {
          "internalType": "address",
          "name": "from",
          "type": "address"
        },
        {
          "internalType": "uint256",
          "name": "_tokenId",
          "type": "uint256"
        }
      ],
      "name": "getLockedContent",
      "outputs": [
        {
          "internalType": "string",
          "name": "",
          "type": "string"
        }
      ],
      "stateMutability": "nonpayable",
      "type": "function"
    },
    {
      "inputs": [
        {
          "internalType": "uint256",
          "name": "_tokenId",
          "type": "uint256"
        }
      ],
      "name": "getCurrentLockedContentViewTracker",
      "outputs": [
        {
          "internalType": "uint256",
          "name": "",
          "type": "uint256"
        }
      ],
      "stateMutability": "view",
      "type": "function"
    }
  ],
  "bytecode": "0x608060405234801561001057600080fd5b50615084806100206000396000f3fe6080604052600436106103125760003560e01c806373448c461161019a578063d5391393116100e1578063eb2730391161008a578063f62d188811610064578063f62d18881461094d578063fb3e09af1461096d578063fc24a8a91461098c57610312565b8063eb273039146108ed578063f242432a1461090d578063f5298aca1461092d57610312565b8063e38189c9116100bb578063e38189c91461085a578063e63ab1e914610870578063e985e9c5146108a457610312565b8063d5391393146107e6578063d547741f1461081a578063dac0f3d91461083a57610312565b8063a22cb46511610143578063c20b83361161011d578063c20b833614610778578063c6f4f0f014610798578063ca15c873146107c657610312565b8063a22cb46514610718578063a2bc0aa514610738578063a6487c531461075857610312565b806391d148541161017457806391d14854146106a857806395d89b41146106ee578063a217fddf1461070357610312565b806373448c46146106465780638456cb591461065b5780639010d07c1461067057610312565b80633f4ba83a1161025e5780635e00343f116102075780636b20c454116101e15780636b20c454146105f35780636e858d1414610613578063731133e91461062657610312565b80635e00343f1461057e5780636213801f1461059e5780636308f1cd146105b457610312565b8063522e794411610238578063522e794414610532578063529aae66146105455780635c975abb1461056557610312565b80633f4ba83a146104d0578063416c3fd3146104e55780634e1273f41461050557610312565b8063248a9ca3116102c057806336568abe1161029a57806336568abe1461046357806339efa1a1146104835780633bdd789a146104b057610312565b8063248a9ca3146103f35780632eb2c2d6146104235780632f2ff15d1461044357610312565b80630e094137116102f15780630e0941371461039c5780630e89341c146103b15780631f7fdffa146103d157610312565b8062fdd58e1461031757806301ffc9a71461034a57806306fdde031461037a575b600080fd5b34801561032357600080fd5b506103376103323660046147a2565b6109ac565b6040519081526020015b60405180910390f35b34801561035657600080fd5b5061036a610365366004614a2d565b610a5a565b6040519015158152602001610341565b34801561038657600080fd5b5061038f610a65565b6040516103419190614dfa565b3480156103a857600080fd5b50610337610af4565b3480156103bd57600080fd5b5061038f6103cc3660046149d0565b610b29565b3480156103dd57600080fd5b506103f16103ec36600461464f565b610bbd565b005b3480156103ff57600080fd5b5061033761040e3660046149d0565b60009081526065602052604090206001015490565b34801561042f57600080fd5b506103f161043e3660046144cb565b610c6b565b34801561044f57600080fd5b506103f161045e3660046149e8565b610fe2565b34801561046f57600080fd5b506103f161047e3660046149e8565b611009565b34801561048f57600080fd5b506104a361049e3660046149d0565b61102b565b6040516103419190614d6c565b3480156104bc57600080fd5b506103376104cb366004614995565b611185565b3480156104dc57600080fd5b506103f16111e2565b3480156104f157600080fd5b506103f1610500366004614b12565b611288565b34801561051157600080fd5b506105256105203660046148c8565b611463565b6040516103419190614db9565b6103f16105403660046146e6565b6115d1565b34801561055157600080fd5b5061038f6105603660046149d0565b61178b565b34801561057157600080fd5b5061012d5460ff1661036a565b34801561058a57600080fd5b506103f1610599366004614b53565b6117a5565b3480156105aa57600080fd5b506101f854610337565b3480156105c057600080fd5b506105d46105cf366004614a0c565b611a0f565b604080516001600160a01b039093168352602083019190915201610341565b3480156105ff57600080fd5b506103f161060e3660046145dc565b611a56565b6103f16106213660046147cd565b611adb565b34801561063257600080fd5b506103f1610641366004614873565b611bfc565b34801561065257600080fd5b50610337611ca4565b34801561066757600080fd5b506103f1611cb5565b34801561067c57600080fd5b5061069061068b366004614a0c565b611d59565b6040516001600160a01b039091168152602001610341565b3480156106b457600080fd5b5061036a6106c33660046149e8565b60009182526065602090815260408084206001600160a01b0393909316845291905290205460ff1690565b3480156106fa57600080fd5b5061038f611d78565b34801561070f57600080fd5b50610337600081565b34801561072457600080fd5b506103f1610733366004614771565b611d86565b34801561074457600080fd5b506105256107533660046149d0565b611e7e565b34801561076457600080fd5b506103f1610773366004614a98565b611fc3565b34801561078457600080fd5b506103f16107933660046149d0565b6120b4565b3480156107a457600080fd5b506103376107b33660046149d0565b60009081526101fc602052604090205490565b3480156107d257600080fd5b506103376107e13660046149d0565b61216e565b3480156107f257600080fd5b506103377f9f2df0fed2c77648de5860a4cc508cd0818c85b8b8a1ab4ceeef8d981c8956a681565b34801561082657600080fd5b506103f16108353660046149e8565b612185565b34801561084657600080fd5b506103f16108553660046149d0565b61218f565b34801561086657600080fd5b506101f754610337565b34801561087c57600080fd5b506103377f65d7a28e3265b37a6474929f336521b332c1681b933f6cb9f3376673440d862a81565b3480156108b057600080fd5b5061036a6108bf366004614493565b6001600160a01b03918216600090815260ca6020908152604080832093909416825291909152205460ff1690565b3480156108f957600080fd5b5061038f6109083660046147a2565b612242565b34801561091957600080fd5b506103f1610928366004614575565b61232b565b34801561093957600080fd5b506103f161094836600461483f565b612572565b34801561095957600080fd5b506103f1610968366004614a65565b6125f7565b34801561097957600080fd5b506101f9546001600160a01b0316610690565b34801561099857600080fd5b506103f16109a7366004614477565b6126b4565b60006001600160a01b038316610a2f5760405162461bcd60e51b815260206004820152602b60248201527f455243313135353a2062616c616e636520717565727920666f7220746865207a60448201527f65726f206164647265737300000000000000000000000000000000000000000060648201526084015b60405180910390fd5b50600081815260c9602090815260408083206001600160a01b03861684529091529020545b92915050565b6000610a548261278d565b6101f58054610a7390614ecb565b80601f0160208091040260200160405190810160405280929190818152602001828054610a9f90614ecb565b8015610aec5780601f10610ac157610100808354040283529160200191610aec565b820191906000526020600020905b815481529060010190602001808311610acf57829003601f168201915b505050505081565b6000610b006101fd5490565b610b10576101fd545b9050610b26565b6001610b1c6101fd5490565b610b099190614e88565b90565b606060cb8054610b3890614ecb565b80601f0160208091040260200160405190810160405280929190818152602001828054610b6490614ecb565b8015610bb15780601f10610b8657610100808354040283529160200191610bb1565b820191906000526020600020905b815481529060010190602001808311610b9457829003601f168201915b50505050509050919050565b610be77f9f2df0fed2c77648de5860a4cc508cd0818c85b8b8a1ab4ceeef8d981c8956a6336106c3565b610c595760405162461bcd60e51b815260206004820152603860248201527f455243313135355072657365744d696e7465725061757365723a206d7573742060448201527f68617665206d696e74657220726f6c6520746f206d696e7400000000000000006064820152608401610a26565b610c65848484846127ff565b50505050565b8151835114610ccd5760405162461bcd60e51b815260206004820152602860248201527f455243313135353a2069647320616e6420616d6f756e7473206c656e677468206044820152670dad2e6dac2e8c6d60c31b6064820152608401610a26565b6001600160a01b038416610d315760405162461bcd60e51b815260206004820152602560248201527f455243313135353a207472616e7366657220746f20746865207a65726f206164604482015264647265737360d81b6064820152608401610a26565b6001600160a01b038516331480610d4d5750610d4d85336108bf565b610dbf5760405162461bcd60e51b815260206004820152603260248201527f455243313135353a207472616e736665722063616c6c6572206973206e6f742060448201527f6f776e6572206e6f7220617070726f76656400000000000000000000000000006064820152608401610a26565b33610dce8187878787876129f1565b60005b8451811015610f74576000858281518110610dfc57634e487b7160e01b600052603260045260246000fd5b602002602001015190506000858381518110610e2857634e487b7160e01b600052603260045260246000fd5b602090810291909101810151600084815260c9835260408082206001600160a01b038e168352909352919091205490915081811015610ecf5760405162461bcd60e51b815260206004820152602a60248201527f455243313135353a20696e73756666696369656e742062616c616e636520666f60448201527f72207472616e73666572000000000000000000000000000000000000000000006064820152608401610a26565b610ed98282614e88565b60c9600085815260200190815260200160002060008c6001600160a01b03166001600160a01b03168152602001908152602001600020819055508160c9600085815260200190815260200160002060008b6001600160a01b03166001600160a01b031681526020019081526020016000206000828254610f599190614e31565b9250508190555050505080610f6d90614f33565b9050610dd1565b50846001600160a01b0316866001600160a01b0316826001600160a01b03167f4a39dc06d4c0dbc64b70af90fd698a233a518aa5d07e595d983b8c0526c8f7fb8787604051610fc4929190614dcc565b60405180910390a4610fda8187878787876129ff565b505050505050565b610fec8282612bb4565b60008281526097602052604090206110049082612c4d565b505050565b6110138282612c62565b60008281526097602052604090206110049082612cea565b60008181526101fa60209081526040808320805482518185028101850190935280835260609493849084015b8282101561109f576000848152602090819020604080518082019091526002850290910180546001600160a01b03168252600190810154828401529083529092019101611057565b5050505090506000815167ffffffffffffffff8111156110cf57634e487b7160e01b600052604160045260246000fd5b6040519080825280602002602001820160405280156110f8578160200160208202803683370190505b50905060005b825181101561117d5782818151811061112757634e487b7160e01b600052603260045260246000fd5b60200260200101516000015182828151811061115357634e487b7160e01b600052603260045260246000fd5b6001600160a01b03909216602092830291909101909101528061117581614f33565b9150506110fe565b509392505050565b60008060005b83518110156111db578381815181106111b457634e487b7160e01b600052603260045260246000fd5b6020026020010151826111c79190614e31565b9150806111d381614f33565b91505061118b565b5092915050565b61120c7f65d7a28e3265b37a6474929f336521b332c1681b933f6cb9f3376673440d862a336106c3565b61127e5760405162461bcd60e51b815260206004820152603b60248201527f455243313135355072657365744d696e7465725061757365723a206d7573742060448201527f686176652070617573657220726f6c6520746f20756e706175736500000000006064820152608401610a26565b611286612cff565b565b6112b27f9f2df0fed2c77648de5860a4cc508cd0818c85b8b8a1ab4ceeef8d981c8956a6336106c3565b6113245760405162461bcd60e51b815260206004820152603660248201527f7570646174696e672066656520726563657069656e7473206973206e6f74206160448201527f6c6c6f7765642062792074686973206163636f756e74000000000000000000006064820152608401610a26565b60008381526101fa6020526040812054905b8181101561145c5760008581526101fa6020526040902080546001600160a01b03861691908390811061137957634e487b7160e01b600052603260045260246000fd5b60009182526020909120600290910201546001600160a01b0316141561144a5760008581526101fa602052604090208054849190839081106113cb57634e487b7160e01b600052603260045260246000fd5b600091825260209182902060029190910201805473ffffffffffffffffffffffffffffffffffffffff19166001600160a01b0393841617905560408051888152878416928101929092529185168183015290517f87e1b636c0ca6544cbedd93f25985172e791de15456f40dd4504361c5e278592916060908290030190a15b8061145481614f33565b915050611336565b5050505050565b606081518351146114dc5760405162461bcd60e51b815260206004820152602960248201527f455243313135353a206163636f756e747320616e6420696473206c656e67746860448201527f206d69736d6174636800000000000000000000000000000000000000000000006064820152608401610a26565b6000835167ffffffffffffffff81111561150657634e487b7160e01b600052604160045260246000fd5b60405190808252806020026020018201604052801561152f578160200160208202803683370190505b50905060005b845181101561117d5761159685828151811061156157634e487b7160e01b600052603260045260246000fd5b602002602001015185838151811061158957634e487b7160e01b600052603260045260246000fd5b60200260200101516109ac565b8282815181106115b657634e487b7160e01b600052603260045260246000fd5b60209081029190910101526115ca81614f33565b9050611535565b60026101c35414156116255760405162461bcd60e51b815260206004820152601f60248201527f5265656e7472616e637947756172643a207265656e7472616e742063616c6c006044820152606401610a26565b60026101c355825160009061163990612d9d565b905061164785828686610bbd565b815115611764578351825111156116ec5760405162461bcd60e51b815260206004820152604a60248201527f46656573206172726179206c656e6768742073686f756c64206265206c65737360448201527f207468616e206f7220657175616c20746f206d696e74416d6f756e747320617260648201527f726179206c656e67687400000000000000000000000000000000000000000000608482015260a401610a26565b60005b82518110156117625761175082828151811061171b57634e487b7160e01b600052603260045260246000fd5b602002602001015184838151811061174357634e487b7160e01b600052603260045260246000fd5b6020026020010151612e54565b8061175a81614f33565b9150506116ef565b505b6101f7541561177e5761177e61177985611185565b612fac565b505060016101c355505050565b6101fb6020526000908152604090208054610a7390614ecb565b6117cf7f9f2df0fed2c77648de5860a4cc508cd0818c85b8b8a1ab4ceeef8d981c8956a6336106c3565b6118415760405162461bcd60e51b815260206004820152603160248201527f7570646174696e67206665652076616c7565206973206e6f7420616c6c6f776560448201527f642062792074686973206163636f756e740000000000000000000000000000006064820152608401610a26565b600081116118915760405162461bcd60e51b815260206004820181905260248201527f6e6577204665652076616c75652073686f756c6420626520706f7369746976656044820152606401610a26565b60008381526101fa6020908152604080832080548251818502810185019093528083529192909190849084015b82821015611906576000848152602090819020604080518082019091526002850290910180546001600160a01b031682526001908101548284015290835290920191016118be565b50505050905060005b815181101561145c5760008581526101fa6020526040902080546001600160a01b03861691908390811061195357634e487b7160e01b600052603260045260246000fd5b60009182526020909120600290910201546001600160a01b031614156119fd5760008581526101fa602052604090208054849190839081106119a557634e487b7160e01b600052603260045260246000fd5b9060005260206000209060020201600101819055507f4ed8464787ca62ab8d06f018c64277a4e5619281bca1d06fd79f6318f5854c3e85846040516119f4929190918252602082015260400190565b60405180910390a15b80611a0781614f33565b91505061190f565b6101fa6020528160005260406000208181548110611a2c57600080fd5b6000918252602090912060029091020180546001909101546001600160a01b039091169250905082565b6001600160a01b038316331480611a725750611a7283336108bf565b611ad05760405162461bcd60e51b815260206004820152602960248201527f455243313135353a2063616c6c6572206973206e6f74206f776e6572206e6f7260448201526808185c1c1c9bdd995960ba1b6064820152608401610a26565b6110048383836131e6565b60026101c3541415611b2f5760405162461bcd60e51b815260206004820152601f60248201527f5265656e7472616e637947756172643a207265656e7472616e742063616c6c006044820152606401610a26565b60026101c355611b4a85611b436101fd5490565b8686611bfc565b815115611b8d578151600114611b5f57600080fd5b611b8d611b6c6101fd5490565b8360008151811061174357634e487b7160e01b600052603260045260246000fd5b6101f75415611b9f57611b9f84612fac565b6040805160008152602081018083528151902091611bbf91849101614bf0565b6040516020818303038152906040528051906020012014611bed57611bed611be76101fd5490565b82613459565b61177e6101fd80546001019055565b611c267f9f2df0fed2c77648de5860a4cc508cd0818c85b8b8a1ab4ceeef8d981c8956a6336106c3565b611c985760405162461bcd60e51b815260206004820152603860248201527f455243313135355072657365744d696e7465725061757365723a206d7573742060448201527f68617665206d696e74657220726f6c6520746f206d696e7400000000000000006064820152608401610a26565b610c6584848484613479565b6000611cb06101fd5490565b905090565b611cdf7f65d7a28e3265b37a6474929f336521b332c1681b933f6cb9f3376673440d862a336106c3565b611d515760405162461bcd60e51b815260206004820152603960248201527f455243313135355072657365744d696e7465725061757365723a206d7573742060448201527f686176652070617573657220726f6c6520746f207061757365000000000000006064820152608401610a26565b61128661357c565b6000828152609760205260408120611d719083613606565b9392505050565b6101f68054610a7390614ecb565b336001600160a01b0383161415611e055760405162461bcd60e51b815260206004820152602960248201527f455243313135353a2073657474696e6720617070726f76616c2073746174757360448201527f20666f722073656c6600000000000000000000000000000000000000000000006064820152608401610a26565b33600081815260ca602090815260408083206001600160a01b0387168085529252909120805460ff1916841515179055906001600160a01b03167f17307eab39ab6107e8899845ad3d59bd9653f200f220920489ca2b5937696c3183604051611e72911515815260200190565b60405180910390a35050565b60008181526101fa60209081526040808320805482518185028101850190935280835260609493849084015b82821015611ef2576000848152602090819020604080518082019091526002850290910180546001600160a01b03168252600190810154828401529083529092019101611eaa565b5050505090506000815167ffffffffffffffff811115611f2257634e487b7160e01b600052604160045260246000fd5b604051908082528060200260200182016040528015611f4b578160200160208202803683370190505b50905060005b825181101561117d57828181518110611f7a57634e487b7160e01b600052603260045260246000fd5b602002602001015160200151828281518110611fa657634e487b7160e01b600052603260045260246000fd5b602090810291909101015280611fbb81614f33565b915050611f51565b600054610100900460ff1680611fdc575060005460ff16155b61203f5760405162461bcd60e51b815260206004820152602e60248201527f496e697469616c697a61626c653a20636f6e747261637420697320616c72656160448201526d191e481a5b9a5d1a585b1a5e995960921b6064820152608401610a26565b600054610100900460ff16158015612061576000805461ffff19166101011790555b61206a82613612565b612073826136b9565b8351612087906101f5906020870190614258565b50825161209c906101f6906020860190614258565b508015610c65576000805461ff001916905550505050565b6120bf6000336106c3565b6121315760405162461bcd60e51b815260206004820152603660248201527f43616c6c6572206d75737420686176652061646d696e20726f6c6520746f207360448201527f6574206d696e74696e67206665652070657263656e74000000000000000000006064820152608401610a26565b6101f78190556040518181527f7bc6903b724da310ba4dbf15a52e7ae8597dcbe9763ff4d88e2b197a648b4a31906020015b60405180910390a150565b6000818152609760205260408120610a54906137b7565b61101382826137c1565b61219a6000336106c3565b61220c5760405162461bcd60e51b815260206004820152603660248201527f43616c6c6572206d75737420686176652061646d696e20726f6c6520746f207360448201527f6574206d696e74696e67206665652070657263656e74000000000000000000006064820152608401610a26565b6101f88190556040518181527fe28e57f6cdaccbb98c150b646656c0178b4b67253ae73deaba3b9c76525b987e90602001612163565b60606001600160a01b038316331480612260575061226083336108bf565b6122d25760405162461bcd60e51b815260206004820152603f60248201527f455243313135353a2063616c6c6572206973206e6f74206f776e6572206e6f7260448201527f20617070726f76656420746f20676574206c6f636b656420636f6e74656e74006064820152608401610a26565b6122db8261384e565b60008281526101fb60205260409081902090517f544b1d1249133c50ce89743ed1ca34a815bd50d42b71e6d331a1ac560013a8ec9161231d9133918691614cad565b60405180910390a192915050565b6001600160a01b03841661238f5760405162461bcd60e51b815260206004820152602560248201527f455243313135353a207472616e7366657220746f20746865207a65726f206164604482015264647265737360d81b6064820152608401610a26565b6001600160a01b0385163314806123ab57506123ab85336108bf565b6124095760405162461bcd60e51b815260206004820152602960248201527f455243313135353a2063616c6c6572206973206e6f74206f776e6572206e6f7260448201526808185c1c1c9bdd995960ba1b6064820152608401610a26565b336124288187876124198861387c565b6124228861387c565b876129f1565b600084815260c9602090815260408083206001600160a01b038a168452909152902054838110156124c15760405162461bcd60e51b815260206004820152602a60248201527f455243313135353a20696e73756666696369656e742062616c616e636520666f60448201527f72207472616e73666572000000000000000000000000000000000000000000006064820152608401610a26565b6124cb8482614e88565b600086815260c9602090815260408083206001600160a01b038c81168552925280832093909355881681529081208054869290612509908490614e31565b909155505060408051868152602081018690526001600160a01b03808916928a821692918616917fc3d58168c5ae7397731d063d5bbf3d657854427343f4c083240f7aacaa2d0f62910160405180910390a46125698288888888886138d5565b50505050505050565b6001600160a01b03831633148061258e575061258e83336108bf565b6125ec5760405162461bcd60e51b815260206004820152602960248201527f455243313135353a2063616c6c6572206973206e6f74206f776e6572206e6f7260448201526808185c1c1c9bdd995960ba1b6064820152608401610a26565b6110048383836139e0565b600054610100900460ff1680612610575060005460ff16155b6126735760405162461bcd60e51b815260206004820152602e60248201527f496e697469616c697a61626c653a20636f6e747261637420697320616c72656160448201526d191e481a5b9a5d1a585b1a5e995960921b6064820152608401610a26565b600054610100900460ff16158015612695576000805461ffff19166101011790555b61269e82613b65565b80156126b0576000805461ff00191690555b5050565b6126bf6000336106c3565b6127315760405162461bcd60e51b815260206004820152603660248201527f43616c6c6572206d75737420686176652061646d696e20726f6c6520746f207360448201527f6574206d696e74696e67206665652061646472657373000000000000000000006064820152608401610a26565b6101f9805473ffffffffffffffffffffffffffffffffffffffff19166001600160a01b0383169081179091556040519081527f42e58c2251766d60a378c8984cb15020e19218cae37fa9e7556ce617200f685190602001612163565b60006001600160e01b031982167fd9b67a260000000000000000000000000000000000000000000000000000000014806127f057506001600160e01b031982167f0e89341c00000000000000000000000000000000000000000000000000000000145b80610a545750610a5482613c4d565b6001600160a01b03841661285f5760405162461bcd60e51b815260206004820152602160248201527f455243313135353a206d696e7420746f20746865207a65726f206164647265736044820152607360f81b6064820152608401610a26565b81518351146128c15760405162461bcd60e51b815260206004820152602860248201527f455243313135353a2069647320616e6420616d6f756e7473206c656e677468206044820152670dad2e6dac2e8c6d60c31b6064820152608401610a26565b336128d1816000878787876129f1565b60005b8451811015612989578381815181106128fd57634e487b7160e01b600052603260045260246000fd5b602002602001015160c9600087848151811061292957634e487b7160e01b600052603260045260246000fd5b602002602001015181526020019081526020016000206000886001600160a01b03166001600160a01b0316815260200190815260200160002060008282546129719190614e31565b9091555081905061298181614f33565b9150506128d4565b50846001600160a01b031660006001600160a01b0316826001600160a01b03167f4a39dc06d4c0dbc64b70af90fd698a233a518aa5d07e595d983b8c0526c8f7fb87876040516129da929190614dcc565b60405180910390a461145c816000878787876129ff565b610fda868686868686613c8b565b6001600160a01b0384163b15610fda5760405163bc197c8160e01b81526001600160a01b0385169063bc197c8190612a439089908990889088908890600401614c0c565b602060405180830381600087803b158015612a5d57600080fd5b505af1925050508015612a8d575060408051601f3d908101601f19168201909252612a8a91810190614a49565b60015b612b4357612a99614f7a565b806308c379a01415612ad35750612aae614f91565b80612ab95750612ad5565b8060405162461bcd60e51b8152600401610a269190614dfa565b505b60405162461bcd60e51b815260206004820152603460248201527f455243313135353a207472616e7366657220746f206e6f6e204552433131353560448201527f526563656976657220696d706c656d656e7465720000000000000000000000006064820152608401610a26565b6001600160e01b0319811663bc197c8160e01b146125695760405162461bcd60e51b815260206004820152602860248201527f455243313135353a204552433131353552656365697665722072656a656374656044820152676420746f6b656e7360c01b6064820152608401610a26565b600082815260656020526040902060010154612bd1905b336106c3565b612c435760405162461bcd60e51b815260206004820152602f60248201527f416363657373436f6e74726f6c3a2073656e646572206d75737420626520616e60448201527f2061646d696e20746f206772616e7400000000000000000000000000000000006064820152608401610a26565b6126b08282613d05565b6000611d71836001600160a01b038416613da7565b6001600160a01b0381163314612ce05760405162461bcd60e51b815260206004820152602f60248201527f416363657373436f6e74726f6c3a2063616e206f6e6c792072656e6f756e636560448201527f20726f6c657320666f722073656c6600000000000000000000000000000000006064820152608401610a26565b6126b08282613df6565b6000611d71836001600160a01b038416613e79565b61012d5460ff16612d525760405162461bcd60e51b815260206004820152601460248201527f5061757361626c653a206e6f74207061757365640000000000000000000000006044820152606401610a26565b61012d805460ff191690557f5db9ee0a495bf2e6ff9c91a7834c1ba4fdd244a5e8aa4e537bd38aeae4b073aa335b6040516001600160a01b03909116815260200160405180910390a1565b606060008267ffffffffffffffff811115612dc857634e487b7160e01b600052604160045260246000fd5b604051908082528060200260200182016040528015612df1578160200160208202803683370190505b50905060005b838110156111db57612e07611ca4565b828281518110612e2757634e487b7160e01b600052603260045260246000fd5b602002602001018181525050612e426101fd80546001019055565b80612e4c81614f33565b915050612df7565b80516001600160a01b0316612eab5760405162461bcd60e51b815260206004820152601b60248201527f526563697069656e742073686f756c642062652070726573656e7400000000006044820152606401610a26565b6000816020015111612eff5760405162461bcd60e51b815260206004820152601c60248201527f4665652076616c75652073686f756c6420626520706f736974697665000000006044820152606401610a26565b60008281526101fa6020908152604080832080546001818101835591855293839020855160029095020180546001600160a01b03861673ffffffffffffffffffffffffffffffffffffffff19909116178155928501519201829055517ff9e8661d7e25970eeccfde99d05253707d99e0ceb0b9c73f1549374310ec34a592612fa0928683526001600160a01b03919091166020830152604082015260600190565b60405180910390a15050565b6101f9546001600160a01b031661302b5760405162461bcd60e51b815260206004820152602760248201527f47686f73746d61726b6574206d696e74696e672046656520416464726573732060448201527f6e6f7420736574000000000000000000000000000000000000000000000000006064820152608401610a26565b600081116130a15760405162461bcd60e51b815260206004820152602e60248201527f6e6674206d696e74696e6720616d6f756e742073686f756c642062652067726560448201527f61746572207468656e207a65726f0000000000000000000000000000000000006064820152608401610a26565b60006101f854116130f45760405162461bcd60e51b815260206004820152601f60248201527f47686f73746d61726b6574206d696e74696e6720466565206973207a65726f006044820152606401610a26565b60006130ff82613f96565b6101f9546040519192506000916001600160a01b039091169083908381818185875af1925050503d8060008114613152576040519150601f19603f3d011682016040523d82523d6000602084013e613157565b606091505b50509050806131a85760405162461bcd60e51b815260206004820152601060248201527f5472616e73666572206661696c65642e000000000000000000000000000000006044820152606401610a26565b60408051338152602081018490527ff867832f09d3df16244ef05b595ad6197c4fc2da636495ff70035f1acdf2ba0a910160405180910390a1505050565b6001600160a01b0383166132485760405162461bcd60e51b815260206004820152602360248201527f455243313135353a206275726e2066726f6d20746865207a65726f206164647260448201526265737360e81b6064820152608401610a26565b80518251146132aa5760405162461bcd60e51b815260206004820152602860248201527f455243313135353a2069647320616e6420616d6f756e7473206c656e677468206044820152670dad2e6dac2e8c6d60c31b6064820152608401610a26565b60003390506132cd818560008686604051806020016040528060008152506129f1565b60005b83518110156133fa5760008482815181106132fb57634e487b7160e01b600052603260045260246000fd5b60200260200101519050600084838151811061332757634e487b7160e01b600052603260045260246000fd5b602090810291909101810151600084815260c9835260408082206001600160a01b038c1683529093529190912054909150818110156133b45760405162461bcd60e51b8152602060048201526024808201527f455243313135353a206275726e20616d6f756e7420657863656564732062616c604482015263616e636560e01b6064820152608401610a26565b6133be8282614e88565b600093845260c9602090815260408086206001600160a01b038c16875290915290932092909255508190506133f281614f33565b9150506132d0565b5060006001600160a01b0316846001600160a01b0316826001600160a01b03167f4a39dc06d4c0dbc64b70af90fd698a233a518aa5d07e595d983b8c0526c8f7fb868660405161344b929190614dcc565b60405180910390a450505050565b60008281526101fb60209081526040909120825161100492840190614258565b6001600160a01b0384166134d95760405162461bcd60e51b815260206004820152602160248201527f455243313135353a206d696e7420746f20746865207a65726f206164647265736044820152607360f81b6064820152608401610a26565b336134ea816000876124198861387c565b600084815260c9602090815260408083206001600160a01b03891684529091528120805485929061351c908490614e31565b909155505060408051858152602081018590526001600160a01b0380881692600092918516917fc3d58168c5ae7397731d063d5bbf3d657854427343f4c083240f7aacaa2d0f62910160405180910390a461145c816000878787876138d5565b61012d5460ff16156135d05760405162461bcd60e51b815260206004820152601060248201527f5061757361626c653a20706175736564000000000000000000000000000000006044820152606401610a26565b61012d805460ff191660011790557f62e78cea01bee320cd4e420270b5ea74000d11b0c9f74754ebdbfc544b05a258612d803390565b6000611d718383613fb5565b600054610100900460ff168061362b575060005460ff16155b61368e5760405162461bcd60e51b815260206004820152602e60248201527f496e697469616c697a61626c653a20636f6e747261637420697320616c72656160448201526d191e481a5b9a5d1a585b1a5e995960921b6064820152608401610a26565b600054610100900460ff161580156136b0576000805461ffff19166101011790555b61269e82614064565b600054610100900460ff16806136d2575060005460ff16155b6137355760405162461bcd60e51b815260206004820152602e60248201527f496e697469616c697a61626c653a20636f6e747261637420697320616c72656160448201526d191e481a5b9a5d1a585b1a5e995960921b6064820152608401610a26565b600054610100900460ff16158015613757576000805461ffff19166101011790555b6137636000335b614077565b61378d7f9f2df0fed2c77648de5860a4cc508cd0818c85b8b8a1ab4ceeef8d981c8956a63361375e565b61269e7f65d7a28e3265b37a6474929f336521b332c1681b933f6cb9f3376673440d862a3361375e565b6000610a54825490565b6000828152606560205260409020600101546137dc90612bcb565b612ce05760405162461bcd60e51b815260206004820152603060248201527f416363657373436f6e74726f6c3a2073656e646572206d75737420626520616e60448201527f2061646d696e20746f207265766f6b65000000000000000000000000000000006064820152608401610a26565b60008181526101fc6020526040902054613869906001614e31565b60009182526101fc602052604090912055565b604080516001808252818301909252606091600091906020808301908036833701905050905082816000815181106138c457634e487b7160e01b600052603260045260246000fd5b602090810291909101015292915050565b6001600160a01b0384163b15610fda5760405163f23a6e6160e01b81526001600160a01b0385169063f23a6e61906139199089908990889088908890600401614c6a565b602060405180830381600087803b15801561393357600080fd5b505af1925050508015613963575060408051601f3d908101601f1916820190925261396091810190614a49565b60015b61396f57612a99614f7a565b6001600160e01b0319811663f23a6e6160e01b146125695760405162461bcd60e51b815260206004820152602860248201527f455243313135353a204552433131353552656365697665722072656a656374656044820152676420746f6b656e7360c01b6064820152608401610a26565b6001600160a01b038316613a425760405162461bcd60e51b815260206004820152602360248201527f455243313135353a206275726e2066726f6d20746865207a65726f206164647260448201526265737360e81b6064820152608401610a26565b33613a7181856000613a538761387c565b613a5c8761387c565b604051806020016040528060008152506129f1565b600083815260c9602090815260408083206001600160a01b038816845290915290205482811015613af05760405162461bcd60e51b8152602060048201526024808201527f455243313135353a206275726e20616d6f756e7420657863656564732062616c604482015263616e636560e01b6064820152608401610a26565b613afa8382614e88565b600085815260c9602090815260408083206001600160a01b038a811680865291845282852095909555815189815292830188905292938616917fc3d58168c5ae7397731d063d5bbf3d657854427343f4c083240f7aacaa2d0f62910160405180910390a45050505050565b600054610100900460ff1680613b7e575060005460ff16155b613be15760405162461bcd60e51b815260206004820152602e60248201527f496e697469616c697a61626c653a20636f6e747261637420697320616c72656160448201526d191e481a5b9a5d1a585b1a5e995960921b6064820152608401610a26565b600054610100900460ff16158015613c03576000805461ffff19166101011790555b613c0b614081565b613c13614081565b613c1b614081565b613c23614081565b613c2c82613612565b613c34614081565b613c3c614134565b613c44614081565b61269e826136b9565b60006001600160e01b031982167f5a05180f000000000000000000000000000000000000000000000000000000001480610a545750610a54826141f1565b61012d5460ff1615610fda5760405162461bcd60e51b815260206004820152602c60248201527f455243313135355061757361626c653a20746f6b656e207472616e736665722060448201527f7768696c652070617573656400000000000000000000000000000000000000006064820152608401610a26565b60008281526065602090815260408083206001600160a01b038516845290915290205460ff166126b05760008281526065602090815260408083206001600160a01b03851684529091529020805460ff19166001179055613d633390565b6001600160a01b0316816001600160a01b0316837f2f8788117e7eff1d82e926ec794901d17c78024a50270940304540a733656f0d60405160405180910390a45050565b6000818152600183016020526040812054613dee57508154600181810184556000848152602080822090930184905584548482528286019093526040902091909155610a54565b506000610a54565b60008281526065602090815260408083206001600160a01b038516845290915290205460ff16156126b05760008281526065602090815260408083206001600160a01b0385168085529252808320805460ff1916905551339285917ff6391f5c32d9c69d2a47ea670b442974b53935d1edc7fd64eb21e047a839171b9190a45050565b60008181526001830160205260408120548015613f8c576000613e9d600183614e88565b8554909150600090613eb190600190614e88565b90506000866000018281548110613ed857634e487b7160e01b600052603260045260246000fd5b9060005260206000200154905080876000018481548110613f0957634e487b7160e01b600052603260045260246000fd5b600091825260209091200155613f20836001614e31565b60008281526001890160205260409020558654879080613f5057634e487b7160e01b600052603160045260246000fd5b60019003818190600052602060002001600090559055866001016000878152602001908152602001600020600090556001945050505050610a54565b6000915050610a54565b6000816101f7546101f854613fab9190614e69565b610a549190614e49565b8154600090821061402e5760405162461bcd60e51b815260206004820152602260248201527f456e756d657261626c655365743a20696e646578206f7574206f6620626f756e60448201527f64730000000000000000000000000000000000000000000000000000000000006064820152608401610a26565b82600001828154811061405157634e487b7160e01b600052603260045260246000fd5b9060005260206000200154905092915050565b80516126b09060cb906020840190614258565b610fec8282612c43565b600054610100900460ff168061409a575060005460ff16155b6140fd5760405162461bcd60e51b815260206004820152602e60248201527f496e697469616c697a61626c653a20636f6e747261637420697320616c72656160448201526d191e481a5b9a5d1a585b1a5e995960921b6064820152608401610a26565b600054610100900460ff1615801561411f576000805461ffff19166101011790555b8015614131576000805461ff00191690555b50565b600054610100900460ff168061414d575060005460ff16155b6141b05760405162461bcd60e51b815260206004820152602e60248201527f496e697469616c697a61626c653a20636f6e747261637420697320616c72656160448201526d191e481a5b9a5d1a585b1a5e995960921b6064820152608401610a26565b600054610100900460ff161580156141d2576000805461ffff19166101011790555b61012d805460ff191690558015614131576000805461ff001916905550565b60006001600160e01b031982167f7965db0b000000000000000000000000000000000000000000000000000000001480610a5457507f01ffc9a7000000000000000000000000000000000000000000000000000000006001600160e01b0319831614610a54565b82805461426490614ecb565b90600052602060002090601f01602090048101928261428657600085556142cc565b82601f1061429f57805160ff19168380011785556142cc565b828001600101855582156142cc579182015b828111156142cc5782518255916020019190600101906142b1565b506142d89291506142dc565b5090565b5b808211156142d857600081556001016142dd565b600082601f830112614301578081fd5b8135602061430e82614e0d565b6040805161431c8382614f06565b8481528381019250868401600686901b8801850189101561433b578687fd5b865b868110156143865783828b031215614353578788fd5b835161435f8582614f06565b823561436a81615023565b815282870135878201528552938501939083019060010161433d565b509098975050505050505050565b600082601f8301126143a4578081fd5b813560206143b182614e0d565b6040516143be8282614f06565b8381528281019150858301600585901b870184018810156143dd578586fd5b855b858110156143fb578135845292840192908401906001016143df565b5090979650505050505050565b600082601f830112614418578081fd5b813567ffffffffffffffff81111561443257614432614f64565b604051614449601f8301601f191660200182614f06565b81815284602083860101111561445d578283fd5b816020850160208301379081016020019190915292915050565b600060208284031215614488578081fd5b8135611d7181615023565b600080604083850312156144a5578081fd5b82356144b081615023565b915060208301356144c081615023565b809150509250929050565b600080600080600060a086880312156144e2578081fd5b85356144ed81615023565b945060208601356144fd81615023565b9350604086013567ffffffffffffffff80821115614519578283fd5b61452589838a01614394565b9450606088013591508082111561453a578283fd5b61454689838a01614394565b9350608088013591508082111561455b578283fd5b5061456888828901614408565b9150509295509295909350565b600080600080600060a0868803121561458c578081fd5b853561459781615023565b945060208601356145a781615023565b93506040860135925060608601359150608086013567ffffffffffffffff8111156145d0578182fd5b61456888828901614408565b6000806000606084860312156145f0578081fd5b83356145fb81615023565b9250602084013567ffffffffffffffff80821115614617578283fd5b61462387838801614394565b93506040860135915080821115614638578283fd5b5061464586828701614394565b9150509250925092565b60008060008060808587031215614664578182fd5b843561466f81615023565b9350602085013567ffffffffffffffff8082111561468b578384fd5b61469788838901614394565b945060408701359150808211156146ac578384fd5b6146b888838901614394565b935060608701359150808211156146cd578283fd5b506146da87828801614408565b91505092959194509250565b600080600080608085870312156146fb578182fd5b843561470681615023565b9350602085013567ffffffffffffffff80821115614722578384fd5b61472e88838901614394565b94506040870135915080821115614743578384fd5b61474f88838901614408565b93506060870135915080821115614764578283fd5b506146da878288016142f1565b60008060408385031215614783578182fd5b823561478e81615023565b9150602083013580151581146144c0578182fd5b600080604083850312156147b4578182fd5b82356147bf81615023565b946020939093013593505050565b600080600080600060a086880312156147e4578283fd5b85356147ef81615023565b945060208601359350604086013567ffffffffffffffff80821115614812578485fd5b61481e89838a01614408565b94506060880135915080821115614833578283fd5b61454689838a016142f1565b600080600060608486031215614853578081fd5b833561485e81615023565b95602085013595506040909401359392505050565b60008060008060808587031215614888578182fd5b843561489381615023565b93506020850135925060408501359150606085013567ffffffffffffffff8111156148bc578182fd5b6146da87828801614408565b600080604083850312156148da578182fd5b823567ffffffffffffffff808211156148f1578384fd5b818501915085601f830112614904578384fd5b8135602061491182614e0d565b60405161491e8282614f06565b8381528281019150858301600585901b870184018b101561493d578889fd5b8896505b8487101561496857803561495481615023565b835260019690960195918301918301614941565b509650508601359250508082111561497e578283fd5b5061498b85828601614394565b9150509250929050565b6000602082840312156149a6578081fd5b813567ffffffffffffffff8111156149bc578182fd5b6149c884828501614394565b949350505050565b6000602082840312156149e1578081fd5b5035919050565b600080604083850312156149fa578182fd5b8235915060208301356144c081615023565b60008060408385031215614a1e578182fd5b50508035926020909101359150565b600060208284031215614a3e578081fd5b8135611d7181615038565b600060208284031215614a5a578081fd5b8151611d7181615038565b600060208284031215614a76578081fd5b813567ffffffffffffffff811115614a8c578182fd5b6149c884828501614408565b600080600060608486031215614aac578081fd5b833567ffffffffffffffff80821115614ac3578283fd5b614acf87838801614408565b94506020860135915080821115614ae4578283fd5b614af087838801614408565b93506040860135915080821115614b05578283fd5b5061464586828701614408565b600080600060608486031215614b26578081fd5b833592506020840135614b3881615023565b91506040840135614b4881615023565b809150509250925092565b600080600060608486031215614b67578081fd5b833592506020840135614b7981615023565b929592945050506040919091013590565b6000815180845260208085019450808401835b83811015614bb957815187529582019590820190600101614b9d565b509495945050505050565b60008151808452614bdc816020860160208601614e9f565b601f01601f19169290920160200192915050565b60008251614c02818460208701614e9f565b9190910192915050565b60006001600160a01b03808816835280871660208401525060a06040830152614c3860a0830186614b8a565b8281036060840152614c4a8186614b8a565b90508281036080840152614c5e8185614bc4565b98975050505050505050565b60006001600160a01b03808816835280871660208401525084604083015283606083015260a06080830152614ca260a0830184614bc4565b979650505050505050565b60006001600160a01b0385168252602084818401526060604084015281845483600182811c915080831680614ce357607f831692505b858310811415614d0157634e487b7160e01b87526022600452602487fd5b6060880183905260808801818015614d205760018114614d3157614d5b565b60ff19861682528782019650614d5b565b60008b815260209020895b86811015614d5557815484820152908501908901614d3c565b83019750505b50949b9a5050505050505050505050565b6020808252825182820181905260009190848201906040850190845b81811015614dad5783516001600160a01b031683529284019291840191600101614d88565b50909695505050505050565b600060208252611d716020830184614b8a565b600060408252614ddf6040830185614b8a565b8281036020840152614df18185614b8a565b95945050505050565b600060208252611d716020830184614bc4565b600067ffffffffffffffff821115614e2757614e27614f64565b5060051b60200190565b60008219821115614e4457614e44614f4e565b500190565b600082614e6457634e487b7160e01b81526012600452602481fd5b500490565b6000816000190483118215151615614e8357614e83614f4e565b500290565b600082821015614e9a57614e9a614f4e565b500390565b60005b83811015614eba578181015183820152602001614ea2565b83811115610c655750506000910152565b600181811c90821680614edf57607f821691505b60208210811415614f0057634e487b7160e01b600052602260045260246000fd5b50919050565b601f8201601f1916810167ffffffffffffffff81118282101715614f2c57614f2c614f64565b6040525050565b6000600019821415614f4757614f47614f4e565b5060010190565b634e487b7160e01b600052601160045260246000fd5b634e487b7160e01b600052604160045260246000fd5b600060033d1115610b2657600481823e5160e01c90565b600060443d1015614fa157610b26565b6040516003193d81016004833e81513d67ffffffffffffffff8160248401118184111715614fd3575050505050610b26565b8285019150815181811115614fed57505050505050610b26565b843d870101602082850101111561500957505050505050610b26565b61501860208286010187614f06565b509094505050505090565b6001600160a01b038116811461413157600080fd5b6001600160e01b03198116811461413157600080fdfea26469706673582212201a3103c9b92b23fdff1337530c7fe7028c38ac2c93e37dd5c6405d85b195156964736f6c63430008030033",
  "immutableReferences": {},
  "source": "// SPDX-License-Identifier: MIT\n\npragma solidity ^0.8.3;\n\nimport \"@openzeppelin/contracts-upgradeable/token/ERC1155/presets/ERC1155PresetMinterPauserUpgradeable.sol\";\nimport \"@openzeppelin/contracts-upgradeable/utils/CountersUpgradeable.sol\";\nimport \"@openzeppelin/contracts-upgradeable/security/ReentrancyGuardUpgradeable.sol\";\n\n/**\n * @dev ERC1155 token with minting, burning, pause, secondary sales royalitiy functions.\n *\n */\n\ncontract GhostmarketERC1155 is\n    Initializable,\n    ERC1155PresetMinterPauserUpgradeable,\n    ReentrancyGuardUpgradeable\n{\n    string public name;\n    string public symbol;\n\n    // fee multiplier\n    uint256 private _ghostmarketFeeMultiplier;\n\n    // minting fee\n    uint256 private _ghostmarketMintingFee;\n\n    //address where the transfer fees will be sent\n    address payable private _ghostmarketFeeAddress;\n\n    // struct for secondary sales fees\n    struct Fee {\n        address payable recipient;\n        uint256 value;\n    }\n\n    // tokenId => fees array\n    mapping(uint256 => Fee[]) public fees;\n\n    // tokenId => locked content string\n    mapping(uint256 => string) public _lockedContent;\n    // tokenId => locked content view counter\n    mapping(uint256 => uint256) private _lockedContentViewTracker;\n\n    event SecondarySaleFees(uint256 tokenId, address recipients, uint256 bps);\n    event RoyalitiesAccountChanged(uint256 tokenId, address from, address to);\n    event RoyalitiesFeeValueChanged(uint256 tokenId, uint256 value);\n    event GhostmarketFeeAddressChanged(address newValue);\n    event GhostmarketFeeMultiplierChanged(uint256 newValue);\n    event GhostmarketMintFeeChanged(uint256 newValue);\n    event GhostmarketFeePaid(address sender, uint256 value);\n    event LockedContentViewed(\n        address msgSender,\n        uint256 tokenId,\n        string lockedContent\n    );\n\n    function initialize(\n        string memory _name,\n        string memory _symbol,\n        string memory uri\n    ) public virtual initializer {\n        __ERC1155_init_unchained(uri);\n        __ERC1155PresetMinterPauser_init_unchained(uri);\n        name = _name;\n        symbol = _symbol;\n    }\n\n    using CountersUpgradeable for CountersUpgradeable.Counter;\n\n    // _tokenIdTracker to gnerate automated tocken IDs\n    CountersUpgradeable.Counter private _tokenIdTracker;\n\n    /**\n     * @dev mint ERC1155 tokens with optional royalities, minting fee and locked content\n     */\n    function mintGhost(\n        address to,\n        uint256 amount,\n        bytes memory data,\n        Fee[] memory _fees,\n        string memory lockedcontent\n    ) public payable nonReentrant {\n        super.mint(to, _tokenIdTracker.current(), amount, data);\n        if (_fees.length > 0) {\n            //fees array length should be 1 for single mint,\n            require(_fees.length == 1);\n            saveRoyaltyFee(_tokenIdTracker.current(), _fees[0]);\n        }\n        if (_ghostmarketFeeMultiplier > 0) {\n            _sendMintingFee(amount);\n        }\n        if (\n            keccak256(abi.encodePacked(lockedcontent)) !=\n            keccak256(abi.encodePacked(\"\"))\n        ) {\n            setLockedContent(_tokenIdTracker.current(), lockedcontent);\n        }\n        _tokenIdTracker.increment();\n    }\n\n    /**\n     * @dev mint multiple ERC1155 tokens\n     */\n    function mintBatch(\n        address to,\n        uint256[] memory mintAmounts,\n        bytes memory data,\n        Fee[] memory _fees\n    ) public payable nonReentrant {\n        uint256[] memory tokenBatchIds = _getTokenBatchIds(mintAmounts.length);\n        super.mintBatch(to, tokenBatchIds, mintAmounts, data);\n        if (_fees.length > 0) {\n            require(\n                _fees.length <= mintAmounts.length,\n                \"Fees array lenght should be less than or equal to mintAmounts array lenght\"\n            );\n            for (uint256 i = 0; i < _fees.length; i++) {\n                saveRoyaltyFee(tokenBatchIds[i], _fees[i]);\n            }\n        }\n        if (_ghostmarketFeeMultiplier > 0) {\n            _sendMintingFee(calculateTotalMintAmount(mintAmounts));\n        }\n    }\n\n    /**\n     * @dev calculate the total token amount for batch minting\n     */\n    function calculateTotalMintAmount(uint256[] memory mintAmountsArray)\n        public\n        pure\n        returns (uint256)\n    {\n        uint256 totalMintAmount;\n        for (uint256 i = 0; i < mintAmountsArray.length; i++) {\n            totalMintAmount += mintAmountsArray[i];\n        }\n        return totalMintAmount;\n    }\n\n    /**\n     * @dev current _tokenIdTracker\n     */\n    function getCurrentCounter() public view returns (uint256) {\n        return _tokenIdTracker.current();\n    }\n\n    /**\n     * @dev get last minted token id /  _tokenIdTracker\n     */\n    function getLastTokenID() public view returns (uint256) {\n        if (_tokenIdTracker.current() == 0) {\n            return _tokenIdTracker.current();\n        } else return _tokenIdTracker.current() - 1;\n    }\n\n    /**\n     * @dev get multiple IDs for the batch minting process\n     */\n    function _getTokenBatchIds(uint256 mintAmountsLenght)\n        internal\n        returns (uint256[] memory)\n    {\n        uint256[] memory ids = new uint256[](mintAmountsLenght);\n        //uint256[mintAmounts] memory ids;\n        for (uint256 i = 0; i < mintAmountsLenght; i++) {\n            //_tokenIdTracker.increment();\n            ids[i] = getCurrentCounter();\n            _tokenIdTracker.increment();\n        }\n        return ids;\n    }\n\n    /**\n     * @dev change the \"secondary sales\"/royalities fee value for a specific recipient address\n     */\n    function updateRoyalitiesFeeValue(\n        uint256 _tokenId,\n        address _from,\n        uint256 _value\n    ) external {\n        require(\n            hasRole(MINTER_ROLE, _msgSender()),\n            \"updating fee value is not allowed by this account\"\n        );\n        require(_value > 0, \"new Fee value should be positive\");\n        Fee[] memory _fees = fees[_tokenId];\n        for (uint256 i = 0; i < _fees.length; i++) {\n            if (fees[_tokenId][i].recipient == _from) {\n                fees[_tokenId][i].value = _value;\n                emit RoyalitiesFeeValueChanged(_tokenId, _value);\n            }\n        }\n    }\n\n    /**\n     * @dev change the recepient address of the \"secondary sales\"/royalities fee\n     */\n    function updateRoyalitiesAccount(\n        uint256 _tokenId,\n        address _from,\n        address _to\n    ) external {\n        require(\n            hasRole(MINTER_ROLE, _msgSender()),\n            \"updating fee recepients is not allowed by this account\"\n        );\n        uint256 length = fees[_tokenId].length;\n        for (uint256 i = 0; i < length; i++) {\n            if (fees[_tokenId][i].recipient == _from) {\n                fees[_tokenId][i].recipient = payable(address(uint160(_to)));\n                emit RoyalitiesAccountChanged(_tokenId, _from, _to);\n            }\n        }\n    }\n\n    /**\n     * @dev get the \"secondary sales\"/royalities fee recepients with the tokenId\n     */\n    function getRoyalitiesRecipients(uint256 _tokenId)\n        public\n        view\n        returns (address payable[] memory)\n    {\n        Fee[] memory _fees = fees[_tokenId];\n        address payable[] memory result = new address payable[](_fees.length);\n        for (uint256 i = 0; i < _fees.length; i++) {\n            result[i] = _fees[i].recipient;\n        }\n        return result;\n    }\n\n    /**\n     * @dev get the \"secondary sales\"/royalities fee for the NFT id\n     * fee basis points 10000 = 100%\n     */\n    function getRoyaltyFeeBps(uint256 _tokenId)\n        public\n        view\n        returns (uint256[] memory)\n    {\n        Fee[] memory _fees = fees[_tokenId];\n        uint256[] memory result = new uint256[](_fees.length);\n        for (uint256 i = 0; i < _fees.length; i++) {\n            result[i] = _fees[i].value;\n        }\n        return result;\n    }\n\n    /**\n     * @dev save the \"secondary sales\"/royalities fee for the NFT id\n     * fee basis points 10000 = 100%\n     */\n    function saveRoyaltyFee(uint256 _tokenId, Fee memory _fee) internal {\n        require(_fee.recipient != address(0x0), \"Recipient should be present\");\n        require(_fee.value > 0, \"Fee value should be positive\");\n        fees[_tokenId].push(_fee);\n        emit SecondarySaleFees(_tokenId, _fee.recipient, _fee.value);\n    }\n\n    /**\n     * @dev send minting fee to Ghostmarket\n     */\n    function _sendMintingFee(uint256 nftAmount) internal {\n        require(\n            _ghostmarketFeeAddress != address(0),\n            \"Ghostmarket minting Fee Address not set\"\n        );\n        require(\n            nftAmount > 0,\n            \"nft minting amount should be greater then zero\"\n        );\n        require(_ghostmarketMintingFee > 0, \"Ghostmarket minting Fee is zero\");\n        uint256 feevalue = _calculateGhostmarketMintingFee(nftAmount);\n        (bool success, ) = _ghostmarketFeeAddress.call{value: feevalue}(\"\");\n        require(success, \"Transfer failed.\");\n        emit GhostmarketFeePaid(msg.sender, feevalue);\n    }\n\n    /**\n     * @dev set the wallet address where fees will be collected\n     */\n    function setGhostmarketFeeAddress(address payable gmfa) public {\n        require(\n            hasRole(DEFAULT_ADMIN_ROLE, _msgSender()),\n            \"Caller must have admin role to set minting fee address\"\n        );\n\n        _ghostmarketFeeAddress = gmfa;\n        emit GhostmarketFeeAddressChanged(_ghostmarketFeeAddress);\n    }\n\n    /**\n     * @dev sets the transfer fee multiplier\n     */\n    function setGhostmarketFeeMultiplier(uint256 gmfm) public {\n        require(\n            hasRole(DEFAULT_ADMIN_ROLE, _msgSender()),\n            \"Caller must have admin role to set minting fee percent\"\n        );\n        _ghostmarketFeeMultiplier = gmfm;\n        emit GhostmarketFeeMultiplierChanged(_ghostmarketFeeMultiplier);\n    }\n\n    /**\n     * @dev sets the transfer fee\n     */\n    function setGhostmarketMintFee(uint256 gmmf) public {\n        require(\n            hasRole(DEFAULT_ADMIN_ROLE, _msgSender()),\n            \"Caller must have admin role to set minting fee percent\"\n        );\n        _ghostmarketMintingFee = gmmf;\n        emit GhostmarketMintFeeChanged(_ghostmarketMintingFee);\n    }\n\n    /**\n     * @return the ghostmarketFeeAddress\n     */\n    function ghostmarketFeeAddress() public view returns (address payable) {\n        return _ghostmarketFeeAddress;\n    }\n\n    /**\n     * @return the ghostmarketMintingFee.\n     */\n    function ghostmarketMintingFee() public view returns (uint256) {\n        return _ghostmarketMintingFee;\n    }\n\n    /**\n     * @return the ghostmarketFeeMultiplier.\n     */\n    function ghostmarketFeeMultiplier() public view returns (uint256) {\n        return _ghostmarketFeeMultiplier;\n    }\n\n    /**\n     * @return the calculated fee for minting a NFT.\n     */\n    function _calculateGhostmarketMintingFee(uint256 nftAmount)\n        internal\n        view\n        returns (uint256)\n    {\n        return (_ghostmarketMintingFee * _ghostmarketFeeMultiplier) / nftAmount;\n    }\n\n    /**\n     * @dev save locked content as string for a specific _tokenId.\n     */\n    function setLockedContent(uint256 _tokenId, string memory content)\n        internal\n    {\n        _lockedContent[_tokenId] = content;\n    }\n\n    /**\n     * @dev locked content for a NFT can be retrived only by emitting an event\n     *\n     * example event:\n     * msgSender: 0x1a1122c2483e8f988F9a800F3A6eE316dB77e4e0 (type: address),\n     * tokenId: 0 (type: uint256),\n     * lockedContent: 'top secret' (type: string)\n     */\n    function getLockedContent(address from, uint256 _tokenId)\n        public\n        returns (string memory)\n    {\n        require(\n            from == _msgSender() || isApprovedForAll(from, _msgSender()),\n            \"ERC1155: caller is not owner nor approved to get locked content\"\n        );\n        _incrementCurrentLockedContentViewTracker(_tokenId);\n        emit LockedContentViewed(\n            msg.sender,\n            _tokenId,\n            _lockedContent[_tokenId]\n        );\n    }\n\n    /**\n     * @dev increment locked content view tracker\n     */\n    function _incrementCurrentLockedContentViewTracker(uint256 _tokenId)\n        private\n    {\n        _lockedContentViewTracker[_tokenId] =\n            _lockedContentViewTracker[_tokenId] +\n            1;\n    }\n\n    /**\n     * @dev get the durrent locked content view tracker for specific _tokenId\n     */\n    function getCurrentLockedContentViewTracker(uint256 _tokenId)\n        public\n        view\n        returns (uint256)\n    {\n        return _lockedContentViewTracker[_tokenId];\n    }\n}\n",
  "sourcePath": "/Users/selimerunkut/dev_freelance/GhostMarketContractBSC/contracts/GhostmarketERC1155.sol",
  "compiler": {
    "name": "solc",
    "version": "0.8.3+commit.8d00100c.Emscripten.clang"
  },
  "schemaVersion": "3.4.1",
  "updatedAt": "2021-05-13T14:49:38.554Z",
  "devdoc": {
    "details": "ERC1155 token with minting, burning, pause, secondary sales royalitiy functions.",
    "kind": "dev",
    "methods": {
      "balanceOf(address,uint256)": {
        "details": "See {IERC1155-balanceOf}. Requirements: - `account` cannot be the zero address."
      },
      "balanceOfBatch(address[],uint256[])": {
        "details": "See {IERC1155-balanceOfBatch}. Requirements: - `accounts` and `ids` must have the same length."
      },
      "calculateTotalMintAmount(uint256[])": {
        "details": "calculate the total token amount for batch minting"
      },
      "getCurrentCounter()": {
        "details": "current _tokenIdTracker"
      },
      "getCurrentLockedContentViewTracker(uint256)": {
        "details": "get the durrent locked content view tracker for specific _tokenId"
      },
      "getLastTokenID()": {
        "details": "get last minted token id /  _tokenIdTracker"
      },
      "getLockedContent(address,uint256)": {
        "details": "locked content for a NFT can be retrived only by emitting an event example event: msgSender: 0x1a1122c2483e8f988F9a800F3A6eE316dB77e4e0 (type: address), tokenId: 0 (type: uint256), lockedContent: 'top secret' (type: string)"
      },
      "getRoleAdmin(bytes32)": {
        "details": "Returns the admin role that controls `role`. See {grantRole} and {revokeRole}. To change a role's admin, use {_setRoleAdmin}."
      },
      "getRoleMember(bytes32,uint256)": {
        "details": "Returns one of the accounts that have `role`. `index` must be a value between 0 and {getRoleMemberCount}, non-inclusive. Role bearers are not sorted in any particular way, and their ordering may change at any point. WARNING: When using {getRoleMember} and {getRoleMemberCount}, make sure you perform all queries on the same block. See the following https://forum.openzeppelin.com/t/iterating-over-elements-on-enumerableset-in-openzeppelin-contracts/2296[forum post] for more information."
      },
      "getRoleMemberCount(bytes32)": {
        "details": "Returns the number of accounts that have `role`. Can be used together with {getRoleMember} to enumerate all bearers of a role."
      },
      "getRoyalitiesRecipients(uint256)": {
        "details": "get the \"secondary sales\"/royalities fee recepients with the tokenId"
      },
      "getRoyaltyFeeBps(uint256)": {
        "details": "get the \"secondary sales\"/royalities fee for the NFT id fee basis points 10000 = 100%"
      },
      "ghostmarketFeeAddress()": {
        "returns": {
          "_0": "the ghostmarketFeeAddress"
        }
      },
      "ghostmarketFeeMultiplier()": {
        "returns": {
          "_0": "the ghostmarketFeeMultiplier."
        }
      },
      "ghostmarketMintingFee()": {
        "returns": {
          "_0": "the ghostmarketMintingFee."
        }
      },
      "grantRole(bytes32,address)": {
        "details": "Overload {grantRole} to track enumerable memberships"
      },
      "hasRole(bytes32,address)": {
        "details": "Returns `true` if `account` has been granted `role`."
      },
      "isApprovedForAll(address,address)": {
        "details": "See {IERC1155-isApprovedForAll}."
      },
      "mint(address,uint256,uint256,bytes)": {
        "details": "Creates `amount` new tokens for `to`, of token type `id`. See {ERC1155-_mint}. Requirements: - the caller must have the `MINTER_ROLE`."
      },
      "mintBatch(address,uint256[],bytes,(address,uint256)[])": {
        "details": "mint multiple ERC1155 tokens"
      },
      "mintBatch(address,uint256[],uint256[],bytes)": {
        "details": "xref:ROOT:erc1155.adoc#batch-operations[Batched] variant of {mint}."
      },
      "mintGhost(address,uint256,bytes,(address,uint256)[],string)": {
        "details": "mint ERC1155 tokens with optional royalities, minting fee and locked content"
      },
      "pause()": {
        "details": "Pauses all token transfers. See {ERC1155Pausable} and {Pausable-_pause}. Requirements: - the caller must have the `PAUSER_ROLE`."
      },
      "paused()": {
        "details": "Returns true if the contract is paused, and false otherwise."
      },
      "renounceRole(bytes32,address)": {
        "details": "Overload {renounceRole} to track enumerable memberships"
      },
      "revokeRole(bytes32,address)": {
        "details": "Overload {revokeRole} to track enumerable memberships"
      },
      "safeBatchTransferFrom(address,address,uint256[],uint256[],bytes)": {
        "details": "See {IERC1155-safeBatchTransferFrom}."
      },
      "safeTransferFrom(address,address,uint256,uint256,bytes)": {
        "details": "See {IERC1155-safeTransferFrom}."
      },
      "setApprovalForAll(address,bool)": {
        "details": "See {IERC1155-setApprovalForAll}."
      },
      "setGhostmarketFeeAddress(address)": {
        "details": "set the wallet address where fees will be collected"
      },
      "setGhostmarketFeeMultiplier(uint256)": {
        "details": "sets the transfer fee multiplier"
      },
      "setGhostmarketMintFee(uint256)": {
        "details": "sets the transfer fee"
      },
      "supportsInterface(bytes4)": {
        "details": "See {IERC165-supportsInterface}."
      },
      "unpause()": {
        "details": "Unpauses all token transfers. See {ERC1155Pausable} and {Pausable-_unpause}. Requirements: - the caller must have the `PAUSER_ROLE`."
      },
      "updateRoyalitiesAccount(uint256,address,address)": {
        "details": "change the recepient address of the \"secondary sales\"/royalities fee"
      },
      "updateRoyalitiesFeeValue(uint256,address,uint256)": {
        "details": "change the \"secondary sales\"/royalities fee value for a specific recipient address"
      },
      "uri(uint256)": {
        "details": "See {IERC1155MetadataURI-uri}. This implementation returns the same URI for *all* token types. It relies on the token type ID substitution mechanism https://eips.ethereum.org/EIPS/eip-1155#metadata[defined in the EIP]. Clients calling this function must replace the `\\{id\\}` substring with the actual token type ID."
      }
    },
    "version": 1
  },
  "userdoc": {
    "kind": "user",
    "methods": {},
    "version": 1
  }
}