{
  "contractName": "GhostMarketERC721",
  "abi": [
    {
      "anonymous": false,
      "inputs": [
        {
          "indexed": true,
          "internalType": "address",
          "name": "owner",
          "type": "address"
        },
        {
          "indexed": true,
          "internalType": "address",
          "name": "approved",
          "type": "address"
        },
        {
          "indexed": true,
          "internalType": "uint256",
          "name": "tokenId",
          "type": "uint256"
        }
      ],
      "name": "Approval",
      "type": "event"
    },
    {
      "anonymous": false,
      "inputs": [
        {
          "indexed": true,
          "internalType": "address",
          "name": "owner",
          "type": "address"
        },
        {
          "indexed": true,
          "internalType": "address",
          "name": "operator",
          "type": "address"
        },
        {
          "indexed": false,
          "internalType": "bool",
          "name": "approved",
          "type": "bool"
        }
      ],
      "name": "ApprovalForAll",
      "type": "event"
    },
    {
      "anonymous": false,
      "inputs": [
        {
          "indexed": false,
          "internalType": "uint256",
          "name": "tokenId",
          "type": "uint256"
        },
        {
          "indexed": false,
          "internalType": "string",
          "name": "metadataJson",
          "type": "string"
        }
      ],
      "name": "AttributesSet",
      "type": "event"
    },
    {
      "anonymous": false,
      "inputs": [
        {
          "indexed": false,
          "internalType": "address",
          "name": "msgSender",
          "type": "address"
        },
        {
          "indexed": false,
          "internalType": "uint256",
          "name": "tokenId",
          "type": "uint256"
        },
        {
          "indexed": false,
          "internalType": "string",
          "name": "lockedContent",
          "type": "string"
        }
      ],
      "name": "LockedContentViewed",
      "type": "event"
    },
    {
      "anonymous": false,
      "inputs": [
        {
          "indexed": false,
          "internalType": "uint256",
          "name": "newValue",
          "type": "uint256"
        }
      ],
      "name": "MintFeesChanged",
      "type": "event"
    },
    {
      "anonymous": false,
      "inputs": [
        {
          "indexed": false,
          "internalType": "address",
          "name": "feeWithdrawer",
          "type": "address"
        },
        {
          "indexed": false,
          "internalType": "uint256",
          "name": "withdrawAmount",
          "type": "uint256"
        }
      ],
      "name": "MintFeesWithdrawn",
      "type": "event"
    },
    {
      "anonymous": false,
      "inputs": [
        {
          "indexed": false,
          "internalType": "address",
          "name": "toAddress",
          "type": "address"
        },
        {
          "indexed": false,
          "internalType": "uint256",
          "name": "tokenId",
          "type": "uint256"
        },
        {
          "indexed": false,
          "internalType": "string",
          "name": "tokenURI",
          "type": "string"
        },
        {
          "indexed": false,
          "internalType": "string",
          "name": "externalURI",
          "type": "string"
        },
        {
          "indexed": false,
          "internalType": "uint256",
          "name": "mintFees",
          "type": "uint256"
        }
      ],
      "name": "Minted",
      "type": "event"
    },
    {
      "anonymous": false,
      "inputs": [
        {
          "indexed": true,
          "internalType": "address",
          "name": "previousOwner",
          "type": "address"
        },
        {
          "indexed": true,
          "internalType": "address",
          "name": "newOwner",
          "type": "address"
        }
      ],
      "name": "OwnershipTransferred",
      "type": "event"
    },
    {
      "anonymous": false,
      "inputs": [
        {
          "indexed": false,
          "internalType": "address",
          "name": "account",
          "type": "address"
        }
      ],
      "name": "Paused",
      "type": "event"
    },
    {
      "anonymous": false,
      "inputs": [
        {
          "indexed": true,
          "internalType": "bytes32",
          "name": "role",
          "type": "bytes32"
        },
        {
          "indexed": true,
          "internalType": "bytes32",
          "name": "previousAdminRole",
          "type": "bytes32"
        },
        {
          "indexed": true,
          "internalType": "bytes32",
          "name": "newAdminRole",
          "type": "bytes32"
        }
      ],
      "name": "RoleAdminChanged",
      "type": "event"
    },
    {
      "anonymous": false,
      "inputs": [
        {
          "indexed": true,
          "internalType": "bytes32",
          "name": "role",
          "type": "bytes32"
        },
        {
          "indexed": true,
          "internalType": "address",
          "name": "account",
          "type": "address"
        },
        {
          "indexed": true,
          "internalType": "address",
          "name": "sender",
          "type": "address"
        }
      ],
      "name": "RoleGranted",
      "type": "event"
    },
    {
      "anonymous": false,
      "inputs": [
        {
          "indexed": true,
          "internalType": "bytes32",
          "name": "role",
          "type": "bytes32"
        },
        {
          "indexed": true,
          "internalType": "address",
          "name": "account",
          "type": "address"
        },
        {
          "indexed": true,
          "internalType": "address",
          "name": "sender",
          "type": "address"
        }
      ],
      "name": "RoleRevoked",
      "type": "event"
    },
    {
      "anonymous": false,
      "inputs": [
        {
          "indexed": false,
          "internalType": "uint256",
          "name": "tokenId",
          "type": "uint256"
        },
        {
          "indexed": false,
          "internalType": "address[]",
          "name": "recipients",
          "type": "address[]"
        },
        {
          "indexed": false,
          "internalType": "uint256[]",
          "name": "bps",
          "type": "uint256[]"
        }
      ],
      "name": "RoyaltiesFeesSet",
      "type": "event"
    },
    {
      "anonymous": false,
      "inputs": [
        {
          "indexed": true,
          "internalType": "address",
          "name": "from",
          "type": "address"
        },
        {
          "indexed": true,
          "internalType": "address",
          "name": "to",
          "type": "address"
        },
        {
          "indexed": true,
          "internalType": "uint256",
          "name": "tokenId",
          "type": "uint256"
        }
      ],
      "name": "Transfer",
      "type": "event"
    },
    {
      "anonymous": false,
      "inputs": [
        {
          "indexed": false,
          "internalType": "address",
          "name": "account",
          "type": "address"
        }
      ],
      "name": "Unpaused",
      "type": "event"
    },
    {
      "inputs": [],
      "name": "DEFAULT_ADMIN_ROLE",
      "outputs": [
        {
          "internalType": "bytes32",
          "name": "",
          "type": "bytes32"
        }
      ],
      "stateMutability": "view",
      "type": "function"
    },
    {
      "inputs": [],
      "name": "MINTER_ROLE",
      "outputs": [
        {
          "internalType": "bytes32",
          "name": "",
          "type": "bytes32"
        }
      ],
      "stateMutability": "view",
      "type": "function"
    },
    {
      "inputs": [],
      "name": "PAUSER_ROLE",
      "outputs": [
        {
          "internalType": "bytes32",
          "name": "",
          "type": "bytes32"
        }
      ],
      "stateMutability": "view",
      "type": "function"
    },
    {
      "inputs": [],
      "name": "POLYNETWORK_ROLE",
      "outputs": [
        {
          "internalType": "bytes32",
          "name": "",
          "type": "bytes32"
        }
      ],
      "stateMutability": "view",
      "type": "function"
    },
    {
      "inputs": [
        {
          "internalType": "address",
          "name": "to",
          "type": "address"
        },
        {
          "internalType": "uint256",
          "name": "tokenId",
          "type": "uint256"
        }
      ],
      "name": "approve",
      "outputs": [],
      "stateMutability": "nonpayable",
      "type": "function"
    },
    {
      "inputs": [
        {
          "internalType": "address",
          "name": "owner",
          "type": "address"
        }
      ],
      "name": "balanceOf",
      "outputs": [
        {
          "internalType": "uint256",
          "name": "",
          "type": "uint256"
        }
      ],
      "stateMutability": "view",
      "type": "function"
    },
    {
      "inputs": [
        {
          "internalType": "uint256",
          "name": "tokenId",
          "type": "uint256"
        }
      ],
      "name": "burn",
      "outputs": [],
      "stateMutability": "nonpayable",
      "type": "function"
    },
    {
      "inputs": [
        {
          "internalType": "uint256",
          "name": "tokenId",
          "type": "uint256"
        }
      ],
      "name": "getApproved",
      "outputs": [
        {
          "internalType": "address",
          "name": "",
          "type": "address"
        }
      ],
      "stateMutability": "view",
      "type": "function"
    },
    {
      "inputs": [],
      "name": "getCurrentCounter",
      "outputs": [
        {
          "internalType": "uint256",
          "name": "",
          "type": "uint256"
        }
      ],
      "stateMutability": "view",
      "type": "function"
    },
    {
      "inputs": [],
      "name": "getLastTokenID",
      "outputs": [
        {
          "internalType": "uint256",
          "name": "",
          "type": "uint256"
        }
      ],
      "stateMutability": "view",
      "type": "function"
    },
    {
      "inputs": [
        {
          "internalType": "bytes32",
          "name": "role",
          "type": "bytes32"
        }
      ],
      "name": "getRoleAdmin",
      "outputs": [
        {
          "internalType": "bytes32",
          "name": "",
          "type": "bytes32"
        }
      ],
      "stateMutability": "view",
      "type": "function"
    },
    {
      "inputs": [
        {
          "internalType": "bytes32",
          "name": "role",
          "type": "bytes32"
        },
        {
          "internalType": "uint256",
          "name": "index",
          "type": "uint256"
        }
      ],
      "name": "getRoleMember",
      "outputs": [
        {
          "internalType": "address",
          "name": "",
          "type": "address"
        }
      ],
      "stateMutability": "view",
      "type": "function"
    },
    {
      "inputs": [
        {
          "internalType": "bytes32",
          "name": "role",
          "type": "bytes32"
        }
      ],
      "name": "getRoleMemberCount",
      "outputs": [
        {
          "internalType": "uint256",
          "name": "",
          "type": "uint256"
        }
      ],
      "stateMutability": "view",
      "type": "function"
    },
    {
      "inputs": [
        {
          "internalType": "bytes32",
          "name": "role",
          "type": "bytes32"
        },
        {
          "internalType": "address",
          "name": "account",
          "type": "address"
        }
      ],
      "name": "grantRole",
      "outputs": [],
      "stateMutability": "nonpayable",
      "type": "function"
    },
    {
      "inputs": [
        {
          "internalType": "bytes32",
          "name": "role",
          "type": "bytes32"
        },
        {
          "internalType": "address",
          "name": "account",
          "type": "address"
        }
      ],
      "name": "hasRole",
      "outputs": [
        {
          "internalType": "bool",
          "name": "",
          "type": "bool"
        }
      ],
      "stateMutability": "view",
      "type": "function"
    },
    {
      "inputs": [
        {
          "internalType": "address",
          "name": "owner",
          "type": "address"
        },
        {
          "internalType": "address",
          "name": "operator",
          "type": "address"
        }
      ],
      "name": "isApprovedForAll",
      "outputs": [
        {
          "internalType": "bool",
          "name": "",
          "type": "bool"
        }
      ],
      "stateMutability": "view",
      "type": "function"
    },
    {
      "inputs": [
        {
          "internalType": "address",
          "name": "to",
          "type": "address"
        },
        {
          "internalType": "uint256",
          "name": "tokenId",
          "type": "uint256"
        },
        {
          "internalType": "string",
          "name": "uri",
          "type": "string"
        }
      ],
      "name": "mintWithURI",
      "outputs": [],
      "stateMutability": "nonpayable",
      "type": "function"
    },
    {
      "inputs": [],
      "name": "name",
      "outputs": [
        {
          "internalType": "string",
          "name": "",
          "type": "string"
        }
      ],
      "stateMutability": "view",
      "type": "function"
    },
    {
      "inputs": [],
      "name": "owner",
      "outputs": [
        {
          "internalType": "address",
          "name": "",
          "type": "address"
        }
      ],
      "stateMutability": "view",
      "type": "function"
    },
    {
      "inputs": [
        {
          "internalType": "uint256",
          "name": "tokenId",
          "type": "uint256"
        }
      ],
      "name": "ownerOf",
      "outputs": [
        {
          "internalType": "address",
          "name": "",
          "type": "address"
        }
      ],
      "stateMutability": "view",
      "type": "function"
    },
    {
      "inputs": [],
      "name": "pause",
      "outputs": [],
      "stateMutability": "nonpayable",
      "type": "function"
    },
    {
      "inputs": [],
      "name": "paused",
      "outputs": [
        {
          "internalType": "bool",
          "name": "",
          "type": "bool"
        }
      ],
      "stateMutability": "view",
      "type": "function"
    },
    {
      "inputs": [],
      "name": "renounceOwnership",
      "outputs": [],
      "stateMutability": "nonpayable",
      "type": "function"
    },
    {
      "inputs": [
        {
          "internalType": "bytes32",
          "name": "role",
          "type": "bytes32"
        },
        {
          "internalType": "address",
          "name": "account",
          "type": "address"
        }
      ],
      "name": "renounceRole",
      "outputs": [],
      "stateMutability": "nonpayable",
      "type": "function"
    },
    {
      "inputs": [
        {
          "internalType": "bytes32",
          "name": "role",
          "type": "bytes32"
        },
        {
          "internalType": "address",
          "name": "account",
          "type": "address"
        }
      ],
      "name": "revokeRole",
      "outputs": [],
      "stateMutability": "nonpayable",
      "type": "function"
    },
    {
      "inputs": [
        {
          "internalType": "address",
          "name": "from",
          "type": "address"
        },
        {
          "internalType": "address",
          "name": "to",
          "type": "address"
        },
        {
          "internalType": "uint256",
          "name": "tokenId",
          "type": "uint256"
        }
      ],
      "name": "safeTransferFrom",
      "outputs": [],
      "stateMutability": "nonpayable",
      "type": "function"
    },
    {
      "inputs": [
        {
          "internalType": "address",
          "name": "from",
          "type": "address"
        },
        {
          "internalType": "address",
          "name": "to",
          "type": "address"
        },
        {
          "internalType": "uint256",
          "name": "tokenId",
          "type": "uint256"
        },
        {
          "internalType": "bytes",
          "name": "_data",
          "type": "bytes"
        }
      ],
      "name": "safeTransferFrom",
      "outputs": [],
      "stateMutability": "nonpayable",
      "type": "function"
    },
    {
      "inputs": [
        {
          "internalType": "address",
          "name": "operator",
          "type": "address"
        },
        {
          "internalType": "bool",
          "name": "approved",
          "type": "bool"
        }
      ],
      "name": "setApprovalForAll",
      "outputs": [],
      "stateMutability": "nonpayable",
      "type": "function"
    },
    {
      "inputs": [
        {
          "internalType": "string",
          "name": "baseTokenURI",
          "type": "string"
        }
      ],
      "name": "setBaseTokenURI",
      "outputs": [],
      "stateMutability": "nonpayable",
      "type": "function"
    },
    {
      "inputs": [
        {
          "internalType": "bytes4",
          "name": "interfaceId",
          "type": "bytes4"
        }
      ],
      "name": "supportsInterface",
      "outputs": [
        {
          "internalType": "bool",
          "name": "",
          "type": "bool"
        }
      ],
      "stateMutability": "view",
      "type": "function"
    },
    {
      "inputs": [],
      "name": "symbol",
      "outputs": [
        {
          "internalType": "string",
          "name": "",
          "type": "string"
        }
      ],
      "stateMutability": "view",
      "type": "function"
    },
    {
      "inputs": [
        {
          "internalType": "uint256",
          "name": "index",
          "type": "uint256"
        }
      ],
      "name": "tokenByIndex",
      "outputs": [
        {
          "internalType": "uint256",
          "name": "",
          "type": "uint256"
        }
      ],
      "stateMutability": "view",
      "type": "function"
    },
    {
      "inputs": [
        {
          "internalType": "address",
          "name": "owner",
          "type": "address"
        },
        {
          "internalType": "uint256",
          "name": "index",
          "type": "uint256"
        }
      ],
      "name": "tokenOfOwnerByIndex",
      "outputs": [
        {
          "internalType": "uint256",
          "name": "",
          "type": "uint256"
        }
      ],
      "stateMutability": "view",
      "type": "function"
    },
    {
      "inputs": [
        {
          "internalType": "uint256",
          "name": "tokenId",
          "type": "uint256"
        }
      ],
      "name": "tokenURI",
      "outputs": [
        {
          "internalType": "string",
          "name": "",
          "type": "string"
        }
      ],
      "stateMutability": "view",
      "type": "function"
    },
    {
      "inputs": [],
      "name": "totalSupply",
      "outputs": [
        {
          "internalType": "uint256",
          "name": "",
          "type": "uint256"
        }
      ],
      "stateMutability": "view",
      "type": "function"
    },
    {
      "inputs": [
        {
          "internalType": "address",
          "name": "from",
          "type": "address"
        },
        {
          "internalType": "address",
          "name": "to",
          "type": "address"
        },
        {
          "internalType": "uint256",
          "name": "tokenId",
          "type": "uint256"
        }
      ],
      "name": "transferFrom",
      "outputs": [],
      "stateMutability": "nonpayable",
      "type": "function"
    },
    {
      "inputs": [
        {
          "internalType": "address",
          "name": "newOwner",
          "type": "address"
        }
      ],
      "name": "transferOwnership",
      "outputs": [],
      "stateMutability": "nonpayable",
      "type": "function"
    },
    {
      "inputs": [],
      "name": "unpause",
      "outputs": [],
      "stateMutability": "nonpayable",
      "type": "function"
    },
    {
      "inputs": [
        {
          "internalType": "string",
          "name": "name",
          "type": "string"
        },
        {
          "internalType": "string",
          "name": "symbol",
          "type": "string"
        },
        {
          "internalType": "string",
          "name": "uri",
          "type": "string"
        }
      ],
      "name": "initialize",
      "outputs": [],
      "stateMutability": "nonpayable",
      "type": "function"
    },
    {
      "inputs": [
        {
          "internalType": "address",
          "name": "to",
          "type": "address"
        },
        {
          "components": [
            {
              "internalType": "address payable",
              "name": "recipient",
              "type": "address"
            },
            {
              "internalType": "uint256",
              "name": "value",
              "type": "uint256"
            }
          ],
          "internalType": "struct GhostMarketERC721.Royalty[]",
          "name": "royalties",
          "type": "tuple[]"
        },
        {
          "internalType": "string",
          "name": "externalURI",
          "type": "string"
        },
        {
          "internalType": "string",
          "name": "metadata",
          "type": "string"
        },
        {
          "internalType": "string",
          "name": "lockedcontent",
          "type": "string"
        }
      ],
      "name": "mintGhost",
      "outputs": [],
      "stateMutability": "payable",
      "type": "function"
    },
    {
      "inputs": [
        {
          "internalType": "uint256",
          "name": "withdrawAmount",
          "type": "uint256"
        }
      ],
      "name": "withdraw",
      "outputs": [],
      "stateMutability": "nonpayable",
      "type": "function"
    },
    {
      "inputs": [
        {
          "internalType": "uint256[]",
          "name": "tokensId",
          "type": "uint256[]"
        }
      ],
      "name": "burnBatch",
      "outputs": [],
      "stateMutability": "nonpayable",
      "type": "function"
    },
    {
      "inputs": [
        {
          "internalType": "uint256",
          "name": "gmmf",
          "type": "uint256"
        }
      ],
      "name": "setGhostmarketMintFee",
      "outputs": [],
      "stateMutability": "nonpayable",
      "type": "function"
    },
    {
      "inputs": [],
      "name": "getGhostmarketMintFees",
      "outputs": [
        {
          "internalType": "uint256",
          "name": "",
          "type": "uint256"
        }
      ],
      "stateMutability": "view",
      "type": "function"
    },
    {
      "inputs": [
        {
          "internalType": "uint256",
          "name": "tokenId",
          "type": "uint256"
        }
      ],
      "name": "getLockedContent",
      "outputs": [],
      "stateMutability": "nonpayable",
      "type": "function"
    },
    {
      "inputs": [
        {
          "internalType": "uint256",
          "name": "tokenId",
          "type": "uint256"
        }
      ],
      "name": "getCurrentLockedContentViewTracker",
      "outputs": [
        {
          "internalType": "uint256",
          "name": "",
          "type": "uint256"
        }
      ],
      "stateMutability": "view",
      "type": "function"
    },
    {
      "inputs": [
        {
          "internalType": "uint256",
          "name": "tokenId",
          "type": "uint256"
        }
      ],
      "name": "getMetadataJson",
      "outputs": [
        {
          "internalType": "string",
          "name": "",
          "type": "string"
        }
      ],
      "stateMutability": "view",
      "type": "function"
    },
    {
      "inputs": [
        {
          "internalType": "uint256",
          "name": "tokenId",
          "type": "uint256"
        }
      ],
      "name": "getRoyaltiesRecipients",
      "outputs": [
        {
          "internalType": "address payable[]",
          "name": "",
          "type": "address[]"
        }
      ],
      "stateMutability": "view",
      "type": "function"
    },
    {
      "inputs": [
        {
          "internalType": "uint256",
          "name": "tokenId",
          "type": "uint256"
        }
      ],
      "name": "getRoyaltiesBps",
      "outputs": [
        {
          "internalType": "uint256[]",
          "name": "",
          "type": "uint256[]"
        }
      ],
      "stateMutability": "view",
      "type": "function"
    }
  ],
  "bytecode": "0x608060405234801561001057600080fd5b50614b50806100206000396000f3fe60806040526004361061031e5760003560e01c806373448c46116101a5578063c6f4f0f0116100ec578063e24dbeae11610095578063e985e9c51161006f578063e985e9c514610918578063edcbc0bd14610961578063f2fde38b1461098e578063f7d027de146109ae5761031e565b8063e24dbeae146108ae578063e4623c1b146108c4578063e63ab1e9146108e45761031e565b8063d5391393116100c6578063d53913931461083a578063d547741f1461086e578063dac0f3d91461088e5761031e565b8063c6f4f0f0146107cc578063c87b56dd146107fa578063ca15c8731461081a5761031e565b80639ceea6651161014e578063a6487c5311610128578063a6487c531461075f578063b88d4fde1461077f578063c1793c581461079f5761031e565b80639ceea665146106f6578063a217fddf1461072a578063a22cb4651461073f5761031e565b80639010d07c1161017f5780639010d07c1461067b57806391d148541461069b57806395d89b41146106e15761031e565b806373448c46146106325780638456cb59146106475780638da5cb5b1461065c5761031e565b80632fffbf26116102695780634a99950b116102125780636352211e116101ec5780636352211e146105dd57806370a08231146105fd578063715018a61461061d5761031e565b80634a99950b146105845780634f6ccce7146105a45780635c975abb146105c45761031e565b80633f4ba83a116102435780633f4ba83a1461052f57806342842e0e1461054457806342966c68146105645761031e565b80632fffbf26146104dc57806330176e13146104ef57806336568abe1461050f5761031e565b80631c7e78f3116102cb5780632e1a7d4d116102a55780632e1a7d4d1461047c5780632f2ff15d1461049c5780632f745c59146104bc5761031e565b80631c7e78f31461040c57806323b872dd1461042c578063248a9ca31461044c5761031e565b8063095ea7b3116102fc578063095ea7b3146103b25780630e094137146103d457806318160ddd146103f75761031e565b806301ffc9a71461032357806306fdde0314610358578063081812fc1461037a575b600080fd5b34801561032f57600080fd5b5061034361033e3660046145ac565b6109ce565b60405190151581526020015b60405180910390f35b34801561036457600080fd5b5061036d6109e1565b60405161034f91906148ea565b34801561038657600080fd5b5061039a61039536600461454f565b610a74565b6040516001600160a01b03909116815260200161034f565b3480156103be57600080fd5b506103d26103cd36600461443a565b610b0e565b005b3480156103e057600080fd5b506103e9610c40565b60405190815260200161034f565b34801561040357600080fd5b5060fd546103e9565b34801561041857600080fd5b506103d261042736600461454f565b610c72565b34801561043857600080fd5b506103d2610447366004614204565b610d4e565b34801561045857600080fd5b506103e961046736600461454f565b60009081526065602052604090206001015490565b34801561048857600080fd5b506103d261049736600461454f565b610dd6565b3480156104a857600080fd5b506103d26104b7366004614567565b610fca565b3480156104c857600080fd5b506103e96104d736600461443a565b610fec565b6103d26104ea3660046142c1565b611097565b3480156104fb57600080fd5b506103d261050a3660046145e4565b611283565b34801561051b57600080fd5b506103d261052a366004614567565b611318565b34801561053b57600080fd5b506103d261133a565b34801561055057600080fd5b506103d261055f366004614204565b6113e2565b34801561057057600080fd5b506103d261057f36600461454f565b6113fd565b34801561059057600080fd5b506103d261059f366004614465565b611484565b3480156105b057600080fd5b506103e96105bf36600461454f565b611599565b3480156105d057600080fd5b5061015f5460ff16610343565b3480156105e957600080fd5b5061039a6105f836600461454f565b61164b565b34801561060957600080fd5b506103e96106183660046141b0565b6116d6565b34801561062957600080fd5b506103d2611770565b34801561063e57600080fd5b506103e9611817565b34801561065357600080fd5b506103d2611828565b34801561066857600080fd5b50610259546001600160a01b031661039a565b34801561068757600080fd5b5061039a61069636600461458b565b6118cc565b3480156106a757600080fd5b506103436106b6366004614567565b60009182526065602090815260408084206001600160a01b0393909316845291905290205460ff1690565b3480156106ed57600080fd5b5061036d6118eb565b34801561070257600080fd5b506103e97f8a9d57248f1015d5cac20111fe2512477434cf493627e5e959ca751e593d807981565b34801561073657600080fd5b506103e9600081565b34801561074b57600080fd5b506103d261075a366004614409565b6118fa565b34801561076b57600080fd5b506103d261077a366004614617565b6119cc565b34801561078b57600080fd5b506103d261079a366004614244565b611a9d565b3480156107ab57600080fd5b506107bf6107ba36600461454f565b611b25565b60405161034f91906148d7565b3480156107d857600080fd5b506103e96107e736600461454f565b600090815261028d602052604090205490565b34801561080657600080fd5b5061036d61081536600461454f565b611c72565b34801561082657600080fd5b506103e961083536600461454f565b611c7d565b34801561084657600080fd5b506103e97f9f2df0fed2c77648de5860a4cc508cd0818c85b8b8a1ab4ceeef8d981c8956a681565b34801561087a57600080fd5b506103d2610889366004614567565b611c94565b34801561089a57600080fd5b506103d26108a936600461454f565b611c9e565b3480156108ba57600080fd5b50610290546103e9565b3480156108d057600080fd5b506103d26108df3660046144bc565b611d51565b3480156108f057600080fd5b506103e97f65d7a28e3265b37a6474929f336521b332c1681b933f6cb9f3376673440d862a81565b34801561092457600080fd5b506103436109333660046141cc565b6001600160a01b03918216600090815260ce6020908152604080832093909416825291909152205460ff1690565b34801561096d57600080fd5b5061098161097c36600461454f565b611d9f565b60405161034f919061488a565b34801561099a57600080fd5b506103d26109a93660046141b0565b611ef1565b3480156109ba57600080fd5b5061036d6109c936600461454f565b612026565b60006109d9826120c9565b90505b919050565b606060c980546109f090614a43565b80601f0160208091040260200160405190810160405280929190818152602001828054610a1c90614a43565b8015610a695780601f10610a3e57610100808354040283529160200191610a69565b820191906000526020600020905b815481529060010190602001808311610a4c57829003601f168201915b505050505090505b90565b600081815260cb60205260408120546001600160a01b0316610af25760405162461bcd60e51b815260206004820152602c60248201527f4552433732313a20617070726f76656420717565727920666f72206e6f6e657860448201526b34b9ba32b73a103a37b5b2b760a11b60648201526084015b60405180910390fd5b50600090815260cd60205260409020546001600160a01b031690565b6000610b198261164b565b9050806001600160a01b0316836001600160a01b03161415610ba35760405162461bcd60e51b815260206004820152602160248201527f4552433732313a20617070726f76616c20746f2063757272656e74206f776e6560448201527f72000000000000000000000000000000000000000000000000000000000000006064820152608401610ae9565b336001600160a01b0382161480610bbf5750610bbf8133610933565b610c315760405162461bcd60e51b815260206004820152603860248201527f4552433732313a20617070726f76652063616c6c6572206973206e6f74206f7760448201527f6e6572206e6f7220617070726f76656420666f7220616c6c00000000000000006064820152608401610ae9565b610c3b8383612107565b505050565b6000610c4c6101f55490565b610c5c576101f5545b9050610a71565b6001610c686101f55490565b610c559190614a00565b33610c7c8261164b565b6001600160a01b031614610cf85760405162461bcd60e51b815260206004820152602360248201527f43616c6c6572206d75737420626520746865206f776e6572206f66207468652060448201527f4e465400000000000000000000000000000000000000000000000000000000006064820152608401610ae9565b610d0181612175565b600081815261028c60205260409081902090517f544b1d1249133c50ce89743ed1ca34a815bd50d42b71e6d331a1ac560013a8ec91610d4391339185916147cb565b60405180910390a150565b610d59335b826121a3565b610dcb5760405162461bcd60e51b815260206004820152603160248201527f4552433732313a207472616e736665722063616c6c6572206973206e6f74206f60448201527f776e6572206e6f7220617070726f7665640000000000000000000000000000006064820152608401610ae9565b610c3b83838361229a565b610259546001600160a01b03163314610e315760405162461bcd60e51b815260206004820181905260248201527f4f776e61626c653a2063616c6c6572206973206e6f7420746865206f776e65726044820152606401610ae9565b600081118015610e44575061028f548111155b610edc5760405162461bcd60e51b815260206004820152604760248201527f576974686472617720616d6f756e742073686f756c642062652067726561746560448201527f72207468656e203020616e64206c657373207468656e20636f6e74726163742060648201527f62616c616e636500000000000000000000000000000000000000000000000000608482015260a401610ae9565b8061028f6000828254610eef9190614a00565b9091555050604051600090339083908381818185875af1925050503d8060008114610f36576040519150601f19603f3d011682016040523d82523d6000602084013e610f3b565b606091505b5050905080610f8c5760405162461bcd60e51b815260206004820152601060248201527f5472616e73666572206661696c65642e000000000000000000000000000000006044820152606401610ae9565b60408051338152602081018490527f3c897fa64265e543b9d36df079688f87240185d1bf1a937e4c45a56e1167873691015b60405180910390a15050565b610fd48282612472565b6000828152609760205260409020610c3b908261250b565b6000610ff7836116d6565b821061106b5760405162461bcd60e51b815260206004820152602b60248201527f455243373231456e756d657261626c653a206f776e657220696e646578206f7560448201527f74206f6620626f756e64730000000000000000000000000000000000000000006064820152608401610ae9565b506001600160a01b038216600090815260fb602090815260408083208484529091529020545b92915050565b60026102275414156110eb5760405162461bcd60e51b815260206004820152601f60248201527f5265656e7472616e637947756172643a207265656e7472616e742063616c6c006044820152606401610ae9565b6002610227556110fa85612520565b6000611104610c40565b855190915015611118576111188186612542565b6040805160008152602081018083528151902091611138918691016146f7565b604051602081830303815290604052805190602001201461115d5761115d818461290d565b604080516000815260208101808352815190209161117d918591016146f7565b60405160208183030381529060405280519060200120146111a2576111a2818361295f565b6111aa61297f565b60408051600081526020810180835281519020916111ca918791016146f7565b60405160208183030381529060405280519060200120141561122e5760405162461bcd60e51b815260206004820152601a60248201527f65787465726e616c5552492063616e277420626520656d7074790000000000006044820152606401610ae9565b7f11413aa718d3e57bfd26cc02a5a7063b817108354e2d8058792b5a9600746721868261125a84611c72565b873460405161126d95949392919061477e565b60405180910390a1505060016102275550505050565b61128e6000336106b6565b6113005760405162461bcd60e51b815260206004820152603460248201527f73657442617365546f6b656e5552493a206d75737420686176652041444d494e60448201527f20726f6c6520746f206368616e676520746869730000000000000000000000006064820152608401610ae9565b8051611314906101f6906020840190614068565b5050565b6113228282612a20565b6000828152609760205260409020610c3b9082612aa8565b6113647f65d7a28e3265b37a6474929f336521b332c1681b933f6cb9f3376673440d862a336106b6565b6113d8576040805162461bcd60e51b81526020600482015260248101919091527f4552433732315072657365744d696e7465725061757365724175746f49643a2060448201527f6d75737420686176652070617573657220726f6c6520746f20756e70617573656064820152608401610ae9565b6113e0612abd565b565b610c3b83838360405180602001604052806000815250611a9d565b61140633610d53565b6114785760405162461bcd60e51b815260206004820152603060248201527f4552433732314275726e61626c653a2063616c6c6572206973206e6f74206f7760448201527f6e6572206e6f7220617070726f766564000000000000000000000000000000006064820152608401610ae9565b61148181612b5b565b50565b6114ae7f8a9d57248f1015d5cac20111fe2512477434cf493627e5e959ca751e593d8079336106b6565b6115205760405162461bcd60e51b815260206004820152603460248201527f6d696e74576974685552493a206d757374206861766520504f4c594e4554574f60448201527f524b5f524f4c4520726f6c6520746f206d696e740000000000000000000000006064820152608401610ae9565b600082815260cb60205260409020546001600160a01b0316156115855760405162461bcd60e51b815260206004820152601660248201527f746f6b656e20696420616c7265616479206578697374000000000000000000006044820152606401610ae9565b61158f8383612b64565b610c3b8282612b6e565b60006115a460fd5490565b82106116185760405162461bcd60e51b815260206004820152602c60248201527f455243373231456e756d657261626c653a20676c6f62616c20696e646578206f60448201527f7574206f6620626f756e647300000000000000000000000000000000000000006064820152608401610ae9565b60fd828154811061163957634e487b7160e01b600052603260045260246000fd5b90600052602060002001549050919050565b600081815260cb60205260408120546001600160a01b0316806109d95760405162461bcd60e51b815260206004820152602960248201527f4552433732313a206f776e657220717565727920666f72206e6f6e657869737460448201527f656e7420746f6b656e00000000000000000000000000000000000000000000006064820152608401610ae9565b60006001600160a01b0382166117545760405162461bcd60e51b815260206004820152602a60248201527f4552433732313a2062616c616e636520717565727920666f7220746865207a6560448201527f726f2061646472657373000000000000000000000000000000000000000000006064820152608401610ae9565b506001600160a01b0316600090815260cc602052604090205490565b610259546001600160a01b031633146117cb5760405162461bcd60e51b815260206004820181905260248201527f4f776e61626c653a2063616c6c6572206973206e6f7420746865206f776e65726044820152606401610ae9565b610259546040516000916001600160a01b0316907f8be0079c531659141344cd1fd0a4f28419497f9722a3daafe3b4186f6b6457e0908390a361025980546001600160a01b0319169055565b60006118236101f55490565b905090565b6118527f65d7a28e3265b37a6474929f336521b332c1681b933f6cb9f3376673440d862a336106b6565b6118c45760405162461bcd60e51b815260206004820152603e60248201527f4552433732315072657365744d696e7465725061757365724175746f49643a2060448201527f6d75737420686176652070617573657220726f6c6520746f20706175736500006064820152608401610ae9565b6113e0612b78565b60008281526097602052604081206118e49083612c02565b9392505050565b606060ca80546109f090614a43565b6001600160a01b0382163314156119535760405162461bcd60e51b815260206004820152601960248201527f4552433732313a20617070726f766520746f2063616c6c6572000000000000006044820152606401610ae9565b33600081815260ce602090815260408083206001600160a01b0387168085529252909120805460ff1916841515179055906001600160a01b03167f17307eab39ab6107e8899845ad3d59bd9653f200f220920489ca2b5937696c31836040516119c0911515815260200190565b60405180910390a35050565b600054610100900460ff16806119e5575060005460ff16155b611a485760405162461bcd60e51b815260206004820152602e60248201527f496e697469616c697a61626c653a20636f6e747261637420697320616c72656160448201526d191e481a5b9a5d1a585b1a5e995960921b6064820152608401610ae9565b600054610100900460ff16158015611a6a576000805461ffff19166101011790555b611a748484612c0e565b611a7d82612cea565b611a85612e3c565b8015611a97576000805461ff00191690555b50505050565b611aa733836121a3565b611b195760405162461bcd60e51b815260206004820152603160248201527f4552433732313a207472616e736665722063616c6c6572206973206e6f74206f60448201527f776e6572206e6f7220617070726f7665640000000000000000000000000000006064820152608401610ae9565b611a9784848484612f32565b600081815261028b60209081526040808320805482518185028101850190935280835260609493849084015b82821015611b99576000848152602090819020604080518082019091526002850290910180546001600160a01b03168252600190810154828401529083529092019101611b51565b5050505090506000815167ffffffffffffffff811115611bc957634e487b7160e01b600052604160045260246000fd5b604051908082528060200260200182016040528015611bf2578160200160208202803683370190505b50905060005b8251811015611c6a57828181518110611c2157634e487b7160e01b600052603260045260246000fd5b602002602001015160200151828281518110611c4d57634e487b7160e01b600052603260045260246000fd5b602090810291909101015280611c6281614a7e565b915050611bf8565b509392505050565b60606109d982612fbb565b60008181526097602052604081206109d99061313b565b6113228282613145565b611ca96000336106b6565b611d1b5760405162461bcd60e51b815260206004820152602c60248201527f43616c6c6572206d75737420686176652061646d696e20726f6c6520746f207360448201527f6574206d696e74206665657300000000000000000000000000000000000000006064820152608401610ae9565b6102908190556040518181527f0f3b48a5cb203023dd681facda0506fea024143e07ad14ff26c35d22204c310890602001610d43565b60005b815181101561131457611d8d828281518110611d8057634e487b7160e01b600052603260045260246000fd5b60200260200101516113fd565b80611d9781614a7e565b915050611d54565b600081815261028b60209081526040808320805482518185028101850190935280835260609493849084015b82821015611e13576000848152602090819020604080518082019091526002850290910180546001600160a01b03168252600190810154828401529083529092019101611dcb565b5050505090506000815167ffffffffffffffff811115611e4357634e487b7160e01b600052604160045260246000fd5b604051908082528060200260200182016040528015611e6c578160200160208202803683370190505b50905060005b8251811015611c6a57828181518110611e9b57634e487b7160e01b600052603260045260246000fd5b602002602001015160000151828281518110611ec757634e487b7160e01b600052603260045260246000fd5b6001600160a01b039092166020928302919091019091015280611ee981614a7e565b915050611e72565b610259546001600160a01b03163314611f4c5760405162461bcd60e51b815260206004820181905260248201527f4f776e61626c653a2063616c6c6572206973206e6f7420746865206f776e65726044820152606401610ae9565b6001600160a01b038116611fc85760405162461bcd60e51b815260206004820152602660248201527f4f776e61626c653a206e6577206f776e657220697320746865207a65726f206160448201527f64647265737300000000000000000000000000000000000000000000000000006064820152608401610ae9565b610259546040516001600160a01b038084169216907f8be0079c531659141344cd1fd0a4f28419497f9722a3daafe3b4186f6b6457e090600090a361025980546001600160a01b0319166001600160a01b0392909216919091179055565b600081815261028e6020526040902080546060919061204490614a43565b80601f016020809104026020016040519081016040528092919081815260200182805461207090614a43565b80156120bd5780601f10612092576101008083540402835291602001916120bd565b820191906000526020600020905b8154815290600101906020018083116120a057829003601f168201915b50505050509050919050565b60006001600160e01b031982167f780e9d630000000000000000000000000000000000000000000000000000000014806109d957506109d9826131d2565b600081815260cd6020526040902080546001600160a01b0319166001600160a01b038416908117909155819061213c8261164b565b6001600160a01b03167f8c5be1e5ebec7d5bd14f71427d1e84f3dd0314c0f7b2291e5b200ac8c7c3b92560405160405180910390a45050565b600081815261028d60205260409020546121909060016149d4565b600091825261028d602052604090912055565b600081815260cb60205260408120546001600160a01b031661221c5760405162461bcd60e51b815260206004820152602c60248201527f4552433732313a206f70657261746f7220717565727920666f72206e6f6e657860448201526b34b9ba32b73a103a37b5b2b760a11b6064820152608401610ae9565b60006122278361164b565b9050806001600160a01b0316846001600160a01b031614806122625750836001600160a01b031661225784610a74565b6001600160a01b0316145b8061229257506001600160a01b03808216600090815260ce602090815260408083209388168352929052205460ff165b949350505050565b826001600160a01b03166122ad8261164b565b6001600160a01b0316146123295760405162461bcd60e51b815260206004820152602960248201527f4552433732313a207472616e73666572206f6620746f6b656e2074686174206960448201527f73206e6f74206f776e00000000000000000000000000000000000000000000006064820152608401610ae9565b6001600160a01b0382166123a45760405162461bcd60e51b8152602060048201526024808201527f4552433732313a207472616e7366657220746f20746865207a65726f2061646460448201527f72657373000000000000000000000000000000000000000000000000000000006064820152608401610ae9565b6123af838383613244565b6123ba600082612107565b6001600160a01b038316600090815260cc602052604081208054600192906123e3908490614a00565b90915550506001600160a01b038216600090815260cc602052604081208054600192906124119084906149d4565b9091555050600081815260cb602052604080822080546001600160a01b0319166001600160a01b0386811691821790925591518493918716917fddf252ad1be2c89b69c2b068fc378daa952ba7f163c4a11628f55a4df523b3ef91a4505050565b60008281526065602052604090206001015461248f905b336106b6565b6125015760405162461bcd60e51b815260206004820152602f60248201527f416363657373436f6e74726f6c3a2073656e646572206d75737420626520616e60448201527f2061646d696e20746f206772616e7400000000000000000000000000000000006064820152608401610ae9565b611314828261324f565b60006118e4836001600160a01b0384166132f1565b6125338161252e6101f55490565b613340565b6114816101f580546001019055565b600082815260cb60205260409020546001600160a01b03166125bb5760405162461bcd60e51b815260206004820152602c60248201527f4552433732313a20617070726f76656420717565727920666f72206e6f6e657860448201526b34b9ba32b73a103a37b5b2b760a11b6064820152608401610ae9565b60005b8151811015610c3b5760006001600160a01b03168282815181106125f257634e487b7160e01b600052603260045260246000fd5b6020026020010151600001516001600160a01b031614156126555760405162461bcd60e51b815260206004820152601b60248201527f526563697069656e742073686f756c642062652070726573656e7400000000006044820152606401610ae9565b600082828151811061267757634e487b7160e01b600052603260045260246000fd5b602002602001015160200151116126f65760405162461bcd60e51b815260206004820152602260248201527f526f79616c746965732076616c75652073686f756c6420626520706f7369746960448201527f76650000000000000000000000000000000000000000000000000000000000006064820152608401610ae9565b603282828151811061271857634e487b7160e01b600052603260045260246000fd5b60200260200101516020015111156127985760405162461bcd60e51b815260206004820152602b60248201527f526f79616c746965732076616c75652073686f756c64206e6f74206265206d6f60448201527f7265207468616e203530250000000000000000000000000000000000000000006064820152608401610ae9565b600083815261028b6020526040902082518390839081106127c957634e487b7160e01b600052603260045260246000fd5b6020908102919091018101518254600180820185556000948552838520835160029093020180546001600160a01b0319166001600160a01b039093169290921782559190920151910155825167ffffffffffffffff81111561283b57634e487b7160e01b600052604160045260246000fd5b604051908082528060200260200182016040528015612864578160200160208202803683370190505b5090506000835167ffffffffffffffff81111561289157634e487b7160e01b600052604160045260246000fd5b6040519080825280602002602001820160405280156128ba578160200160208202803683370190505b5090507f0daca41cf9c4835da0ce078144fcf7e2000a66f040f7e82fe43f4e5d234bb6bb8583836040516128f0939291906148fd565b60405180910390a15050808061290590614a7e565b9150506125be565b600082815261028e60209081526040909120825161292d92840190614068565b507f701be7c18389620e1de28c2c2c047271c46744dea76cb7667f428af200ef4dde8282604051610fbe929190614966565b600082815261028c602090815260409091208251610c3b92840190614068565b6102905415612a0057610290543414612a005760405162461bcd60e51b815260206004820152603260248201527f57726f6e6720666565732076616c75652073656e7420746f2047686f73744d6160448201527f726b657420666f72206d696e74206665657300000000000000000000000000006064820152608401610ae9565b34156113e0573461028f6000828254612a1991906149d4565b9091555050565b6001600160a01b0381163314612a9e5760405162461bcd60e51b815260206004820152602f60248201527f416363657373436f6e74726f6c3a2063616e206f6e6c792072656e6f756e636560448201527f20726f6c657320666f722073656c6600000000000000000000000000000000006064820152608401610ae9565b611314828261348e565b60006118e4836001600160a01b038416613511565b61015f5460ff16612b105760405162461bcd60e51b815260206004820152601460248201527f5061757361626c653a206e6f74207061757365640000000000000000000000006044820152606401610ae9565b61015f805460ff191690557f5db9ee0a495bf2e6ff9c91a7834c1ba4fdd244a5e8aa4e537bd38aeae4b073aa335b6040516001600160a01b03909116815260200160405180910390a1565b6114818161362e565b6113148282613670565b611314828261368a565b61015f5460ff1615612bcc5760405162461bcd60e51b815260206004820152601060248201527f5061757361626c653a20706175736564000000000000000000000000000000006044820152606401610ae9565b61015f805460ff191660011790557f62e78cea01bee320cd4e420270b5ea74000d11b0c9f74754ebdbfc544b05a258612b3e3390565b60006118e48383613734565b600054610100900460ff1680612c27575060005460ff16155b612c8a5760405162461bcd60e51b815260206004820152602e60248201527f496e697469616c697a61626c653a20636f6e747261637420697320616c72656160448201526d191e481a5b9a5d1a585b1a5e995960921b6064820152608401610ae9565b600054610100900460ff16158015612cac576000805461ffff19166101011790555b8251612cbf9060c9906020860190614068565b508151612cd39060ca906020850190614068565b508015610c3b576000805461ff0019169055505050565b600054610100900460ff1680612d03575060005460ff16155b612d665760405162461bcd60e51b815260206004820152602e60248201527f496e697469616c697a61626c653a20636f6e747261637420697320616c72656160448201526d191e481a5b9a5d1a585b1a5e995960921b6064820152608401610ae9565b600054610100900460ff16158015612d88576000805461ffff19166101011790555b8151612d9c906101f6906020850190614068565b50612da96000335b6137e3565b612dd37f9f2df0fed2c77648de5860a4cc508cd0818c85b8b8a1ab4ceeef8d981c8956a633612da4565b612dfd7f65d7a28e3265b37a6474929f336521b332c1681b933f6cb9f3376673440d862a33612da4565b612e277f8a9d57248f1015d5cac20111fe2512477434cf493627e5e959ca751e593d807933612da4565b8015611314576000805461ff00191690555050565b600054610100900460ff1680612e55575060005460ff16155b612eb85760405162461bcd60e51b815260206004820152602e60248201527f496e697469616c697a61626c653a20636f6e747261637420697320616c72656160448201526d191e481a5b9a5d1a585b1a5e995960921b6064820152608401610ae9565b600054610100900460ff16158015612eda576000805461ffff19166101011790555b61025980546001600160a01b0319163390811790915560405181906000907f8be0079c531659141344cd1fd0a4f28419497f9722a3daafe3b4186f6b6457e0908290a3508015611481576000805461ff001916905550565b612f3d84848461229a565b612f49848484846137ed565b611a975760405162461bcd60e51b815260206004820152603260248201527f4552433732313a207472616e7366657220746f206e6f6e20455243373231526560448201527f63656976657220696d706c656d656e74657200000000000000000000000000006064820152608401610ae9565b600081815260cb60205260409020546060906001600160a01b03166130485760405162461bcd60e51b815260206004820152603160248201527f45524337323155524953746f726167653a2055524920717565727920666f722060448201527f6e6f6e6578697374656e7420746f6b656e0000000000000000000000000000006064820152608401610ae9565b60008281526101c360205260408120805461306290614a43565b80601f016020809104026020016040519081016040528092919081815260200182805461308e90614a43565b80156130db5780601f106130b0576101008083540402835291602001916130db565b820191906000526020600020905b8154815290600101906020018083116130be57829003601f168201915b5050505050905060006130ec613950565b9050805160001415613100575090506109dc565b81511561313257808260405160200161311a929190614713565b604051602081830303815290604052925050506109dc565b61229284613960565b60006109d9825490565b60008281526065602052604090206001015461316090612489565b612a9e5760405162461bcd60e51b815260206004820152603060248201527f416363657373436f6e74726f6c3a2073656e646572206d75737420626520616e60448201527f2061646d696e20746f207265766f6b65000000000000000000000000000000006064820152608401610ae9565b60006001600160e01b031982167f80ac58cd00000000000000000000000000000000000000000000000000000000148061323557506001600160e01b031982167f5b5e139f00000000000000000000000000000000000000000000000000000000145b806109d957506109d982613a48565b610c3b838383613a86565b60008281526065602090815260408083206001600160a01b038516845290915290205460ff166113145760008281526065602090815260408083206001600160a01b03851684529091529020805460ff191660011790556132ad3390565b6001600160a01b0316816001600160a01b0316837f2f8788117e7eff1d82e926ec794901d17c78024a50270940304540a733656f0d60405160405180910390a45050565b600081815260018301602052604081205461333857508154600181810184556000848152602080822090930184905584548482528286019093526040902091909155611091565b506000611091565b6001600160a01b0382166133965760405162461bcd60e51b815260206004820181905260248201527f4552433732313a206d696e7420746f20746865207a65726f20616464726573736044820152606401610ae9565b600081815260cb60205260409020546001600160a01b0316156133fb5760405162461bcd60e51b815260206004820152601c60248201527f4552433732313a20746f6b656e20616c7265616479206d696e746564000000006044820152606401610ae9565b61340760008383613244565b6001600160a01b038216600090815260cc602052604081208054600192906134309084906149d4565b9091555050600081815260cb602052604080822080546001600160a01b0319166001600160a01b03861690811790915590518392907fddf252ad1be2c89b69c2b068fc378daa952ba7f163c4a11628f55a4df523b3ef908290a45050565b60008281526065602090815260408083206001600160a01b038516845290915290205460ff16156113145760008281526065602090815260408083206001600160a01b0385168085529252808320805460ff1916905551339285917ff6391f5c32d9c69d2a47ea670b442974b53935d1edc7fd64eb21e047a839171b9190a45050565b60008181526001830160205260408120548015613624576000613535600183614a00565b855490915060009061354990600190614a00565b9050600086600001828154811061357057634e487b7160e01b600052603260045260246000fd5b90600052602060002001549050808760000184815481106135a157634e487b7160e01b600052603260045260246000fd5b6000918252602090912001556135b88360016149d4565b600082815260018901602052604090205586548790806135e857634e487b7160e01b600052603160045260246000fd5b60019003818190600052602060002001600090559055866001016000878152602001908152602001600020600090556001945050505050611091565b6000915050611091565b61363781613b0b565b60008181526101c360205260409020805461365190614a43565b1590506114815760008181526101c360205260408120611481916140ec565b611314828260405180602001604052806000815250613bb2565b600082815260cb60205260409020546001600160a01b03166137145760405162461bcd60e51b815260206004820152602e60248201527f45524337323155524953746f726167653a2055524920736574206f66206e6f6e60448201527f6578697374656e7420746f6b656e0000000000000000000000000000000000006064820152608401610ae9565b60008281526101c3602090815260409091208251610c3b92840190614068565b815460009082106137ad5760405162461bcd60e51b815260206004820152602260248201527f456e756d657261626c655365743a20696e646578206f7574206f6620626f756e60448201527f64730000000000000000000000000000000000000000000000000000000000006064820152608401610ae9565b8260000182815481106137d057634e487b7160e01b600052603260045260246000fd5b9060005260206000200154905092915050565b610fd48282612501565b60006001600160a01b0384163b1561394557604051630a85bd0160e11b81526001600160a01b0385169063150b7a0290613831903390899088908890600401614742565b602060405180830381600087803b15801561384b57600080fd5b505af192505050801561387b575060408051601f3d908101601f19168201909252613878918101906145c8565b60015b61392b573d8080156138a9576040519150601f19603f3d011682016040523d82523d6000602084013e6138ae565b606091505b5080516139235760405162461bcd60e51b815260206004820152603260248201527f4552433732313a207472616e7366657220746f206e6f6e20455243373231526560448201527f63656976657220696d706c656d656e74657200000000000000000000000000006064820152608401610ae9565b805181602001fd5b6001600160e01b031916630a85bd0160e11b149050612292565b506001949350505050565b60606101f680546109f090614a43565b600081815260cb60205260409020546060906001600160a01b03166139ed5760405162461bcd60e51b815260206004820152602f60248201527f4552433732314d657461646174613a2055524920717565727920666f72206e6f60448201527f6e6578697374656e7420746f6b656e00000000000000000000000000000000006064820152608401610ae9565b60006139f7613950565b90506000815111613a1757604051806020016040528060008152506118e4565b80613a2184613c3b565b604051602001613a32929190614713565b6040516020818303038152906040529392505050565b60006001600160e01b031982167f5a05180f0000000000000000000000000000000000000000000000000000000014806109d957506109d982613d8a565b613a91838383613df1565b61015f5460ff1615610c3b5760405162461bcd60e51b815260206004820152602b60248201527f4552433732315061757361626c653a20746f6b656e207472616e73666572207760448201527f68696c65207061757365640000000000000000000000000000000000000000006064820152608401610ae9565b6000613b168261164b565b9050613b2481600084613244565b613b2f600083612107565b6001600160a01b038116600090815260cc60205260408120805460019290613b58908490614a00565b9091555050600082815260cb602052604080822080546001600160a01b0319169055518391906001600160a01b038416907fddf252ad1be2c89b69c2b068fc378daa952ba7f163c4a11628f55a4df523b3ef908390a45050565b613bbc8383613340565b613bc960008484846137ed565b610c3b5760405162461bcd60e51b815260206004820152603260248201527f4552433732313a207472616e7366657220746f206e6f6e20455243373231526560448201527f63656976657220696d706c656d656e74657200000000000000000000000000006064820152608401610ae9565b606081613c7c575060408051808201909152600181527f300000000000000000000000000000000000000000000000000000000000000060208201526109dc565b8160005b8115613ca65780613c9081614a7e565b9150613c9f9050600a836149ec565b9150613c80565b60008167ffffffffffffffff811115613ccf57634e487b7160e01b600052604160045260246000fd5b6040519080825280601f01601f191660200182016040528015613cf9576020820181803683370190505b5090505b841561229257613d0e600183614a00565b9150613d1b600a86614a99565b613d269060306149d4565b60f81b818381518110613d4957634e487b7160e01b600052603260045260246000fd5b60200101907effffffffffffffffffffffffffffffffffffffffffffffffffffffffffffff1916908160001a905350613d83600a866149ec565b9450613cfd565b60006001600160e01b031982167f7965db0b0000000000000000000000000000000000000000000000000000000014806109d957507f01ffc9a7000000000000000000000000000000000000000000000000000000006001600160e01b03198316146109d9565b6001600160a01b038316613e4c57613e478160fd8054600083815260fe60205260408120829055600182018355919091527f9346ac6dd7de6b96975fec380d4d994c4c12e6a8897544f22915316cc6cca2800155565b613e6f565b816001600160a01b0316836001600160a01b031614613e6f57613e6f8382613eae565b6001600160a01b038216613e8b57613e8681613f4b565b610c3b565b826001600160a01b0316826001600160a01b031614610c3b57610c3b8282614024565b60006001613ebb846116d6565b613ec59190614a00565b600083815260fc6020526040902054909150808214613f18576001600160a01b038416600090815260fb60209081526040808320858452825280832054848452818420819055835260fc90915290208190555b50600091825260fc602090815260408084208490556001600160a01b03909416835260fb81528383209183525290812055565b60fd54600090613f5d90600190614a00565b600083815260fe602052604081205460fd8054939450909284908110613f9357634e487b7160e01b600052603260045260246000fd5b906000526020600020015490508060fd8381548110613fc257634e487b7160e01b600052603260045260246000fd5b600091825260208083209091019290925582815260fe909152604080822084905585825281205560fd80548061400857634e487b7160e01b600052603160045260246000fd5b6001900381819060005260206000200160009055905550505050565b600061402f836116d6565b6001600160a01b03909316600090815260fb60209081526040808320868452825280832085905593825260fc9052919091209190915550565b82805461407490614a43565b90600052602060002090601f01602090048101928261409657600085556140dc565b82601f106140af57805160ff19168380011785556140dc565b828001600101855582156140dc579182015b828111156140dc5782518255916020019190600101906140c1565b506140e8929150614124565b5090565b5080546140f890614a43565b6000825580601f1061410a5750611481565b601f01602090049060005260206000209081019061148191905b5b808211156140e85760008155600101614125565b600067ffffffffffffffff83111561415357614153614ad9565b614166601f8401601f191660200161497f565b905082815283838301111561417a57600080fd5b828260208301376000602084830101529392505050565b600082601f8301126141a1578081fd5b6118e483833560208501614139565b6000602082840312156141c1578081fd5b81356118e481614aef565b600080604083850312156141de578081fd5b82356141e981614aef565b915060208301356141f981614aef565b809150509250929050565b600080600060608486031215614218578081fd5b833561422381614aef565b9250602084013561423381614aef565b929592945050506040919091013590565b60008060008060808587031215614259578081fd5b843561426481614aef565b9350602085013561427481614aef565b925060408501359150606085013567ffffffffffffffff811115614296578182fd5b8501601f810187136142a6578182fd5b6142b587823560208401614139565b91505092959194509250565b600080600080600060a086880312156142d8578081fd5b85356142e381614aef565b945060208681013567ffffffffffffffff80821115614300578384fd5b818901915089601f830112614313578384fd5b8135614326614321826149b0565b61497f565b8082825285820191508585018d878560061b8801011115614345578788fd5b8795505b83861015614394576040818f031215614360578788fd5b61436a604061497f565b813561437581614aef565b8152818801358882015283526001959095019491860191604001614349565b509850505060408901359250808311156143ac578384fd5b6143b88a848b01614191565b955060608901359250808311156143cd578384fd5b6143d98a848b01614191565b945060808901359250808311156143ee578384fd5b50506143fc88828901614191565b9150509295509295909350565b6000806040838503121561441b578182fd5b823561442681614aef565b9150602083013580151581146141f9578182fd5b6000806040838503121561444c578182fd5b823561445781614aef565b946020939093013593505050565b600080600060608486031215614479578081fd5b833561448481614aef565b925060208401359150604084013567ffffffffffffffff8111156144a6578182fd5b6144b286828701614191565b9150509250925092565b600060208083850312156144ce578182fd5b823567ffffffffffffffff8111156144e4578283fd5b8301601f810185136144f4578283fd5b8035614502614321826149b0565b80828252848201915084840188868560051b8701011115614521578687fd5b8694505b83851015614543578035835260019490940193918501918501614525565b50979650505050505050565b600060208284031215614560578081fd5b5035919050565b60008060408385031215614579578182fd5b8235915060208301356141f981614aef565b6000806040838503121561459d578182fd5b50508035926020909101359150565b6000602082840312156145bd578081fd5b81356118e481614b04565b6000602082840312156145d9578081fd5b81516118e481614b04565b6000602082840312156145f5578081fd5b813567ffffffffffffffff81111561460b578182fd5b61229284828501614191565b60008060006060848603121561462b578081fd5b833567ffffffffffffffff80821115614642578283fd5b61464e87838801614191565b94506020860135915080821115614663578283fd5b61466f87838801614191565b93506040860135915080821115614684578283fd5b506144b286828701614191565b6000815180845260208085019450808401835b838110156146c0578151875295820195908201906001016146a4565b509495945050505050565b600081518084526146e3816020860160208601614a17565b601f01601f19169290920160200192915050565b60008251614709818460208701614a17565b9190910192915050565b60008351614725818460208801614a17565b835190830190614739818360208801614a17565b01949350505050565b60006001600160a01b0380871683528086166020840152508360408301526080606083015261477460808301846146cb565b9695505050505050565b60006001600160a01b038716825285602083015260a060408301526147a660a08301866146cb565b82810360608401526147b881866146cb565b9150508260808301529695505050505050565b60006001600160a01b0385168252602084818401526060604084015281845483600182811c91508083168061480157607f831692505b85831081141561481f57634e487b7160e01b87526022600452602487fd5b606088018390526080880181801561483e576001811461484f57614879565b60ff19861682528782019650614879565b60008b815260209020895b868110156148735781548482015290850190890161485a565b83019750505b50949b9a5050505050505050505050565b6020808252825182820181905260009190848201906040850190845b818110156148cb5783516001600160a01b0316835292840192918401916001016148a6565b50909695505050505050565b6000602082526118e46020830184614691565b6000602082526118e460208301846146cb565b60006060820185835260206060818501528186518084526080860191508288019350845b818110156149465784516001600160a01b031683529383019391830191600101614921565b5050848103604086015261495a8187614691565b98975050505050505050565b60008382526040602083015261229260408301846146cb565b604051601f8201601f1916810167ffffffffffffffff811182821017156149a8576149a8614ad9565b604052919050565b600067ffffffffffffffff8211156149ca576149ca614ad9565b5060051b60200190565b600082198211156149e7576149e7614aad565b500190565b6000826149fb576149fb614ac3565b500490565b600082821015614a1257614a12614aad565b500390565b60005b83811015614a32578181015183820152602001614a1a565b83811115611a975750506000910152565b600181811c90821680614a5757607f821691505b60208210811415614a7857634e487b7160e01b600052602260045260246000fd5b50919050565b6000600019821415614a9257614a92614aad565b5060010190565b600082614aa857614aa8614ac3565b500690565b634e487b7160e01b600052601160045260246000fd5b634e487b7160e01b600052601260045260246000fd5b634e487b7160e01b600052604160045260246000fd5b6001600160a01b038116811461148157600080fd5b6001600160e01b03198116811461148157600080fdfea2646970667358221220479b875accd018fc5356afaf12bef4497ebae7072a9babe57599b1ee4d19cadc64736f6c63430008030033",
  "immutableReferences": {},
  "source": "// SPDX-License-Identifier: MIT\npragma solidity ^0.8.3;\n\nimport \"./ERC721PresetMinterPauserAutoIdUpgradeable.sol\";\nimport \"@openzeppelin/contracts-upgradeable/security/ReentrancyGuardUpgradeable.sol\";\nimport \"@openzeppelin/contracts-upgradeable/access/OwnableUpgradeable.sol\";\n\n/**\n * @dev ERC721 token with minting, burning, pause, royalties & lock content functions.\n */\n\ncontract GhostMarketERC721 is Initializable, ERC721PresetMinterPauserAutoIdUpgradeable, ReentrancyGuardUpgradeable, OwnableUpgradeable {\n\n\t// struct for royalties fees\n\tstruct Royalty {\n\t\taddress payable recipient;\n\t\tuint256 value;\n\t}\n\n\t// tokenId => royalties array\n\tmapping(uint256 => Royalty[]) internal _royalties;\n\n\t// tokenId => locked content array\n\tmapping(uint256 => string) internal _lockedContent;\n\n\t// tokenId => locked content view counter array\n\tmapping(uint256 => uint256) internal _lockedContentViewTracker;\n\n\t// tokenId => attributes array\n\tmapping(uint256 => string) internal _metadataJson;\n\n\t// events\n\tevent RoyaltiesFeesSet(uint256 tokenId, address[] recipients, uint256[] bps);\n\tevent LockedContentViewed(address msgSender, uint256 tokenId, string lockedContent);\n\tevent AttributesSet(uint256 tokenId, string metadataJson);\n    event MintFeesWithdrawn(address feeWithdrawer, uint256 withdrawAmount);\n\tevent MintFeesChanged(uint256 newValue);\n\tevent Minted(address toAddress, uint256 tokenId, string tokenURI, string externalURI, uint256 mintFees);\n\n\t// mint fees balance\n\tuint256 internal _payedMintFeesBalance;\n\n\t// mint fees value\n\tuint256 internal _ghostmarketMintFees;\n\n\tfunction initialize(string memory name, string memory symbol, string memory uri)\n        public\n        override\n        initializer\n    {\n\t\t__ERC721_init_unchained(name, symbol);\n\t\t__ERC721PresetMinterPauserAutoId_init_unchained(uri);\n\t\t__Ownable_init_unchained();\n\t}\n\n    /**\n\t * @dev set a NFT royalties fees & recipients\n\t * fee basis points 10000 = 100%\n\t * emits RoyaltiesFeesSet event if set\n\t */\n\tfunction _saveRoyalties(uint256 tokenId, Royalty[] memory royalties)\n        internal\n    {\n\t\trequire(_exists(tokenId), \"ERC721: approved query for nonexistent token\");\n\t\tfor (uint256 i = 0; i < royalties.length; i++) {\n\t\t\trequire(royalties[i].recipient != address(0x0), \"Recipient should be present\");\n\t\t\trequire(royalties[i].value > 0, \"Royalties value should be positive\");\n\t\t\trequire(royalties[i].value <= 50, \"Royalties value should not be more than 50%\");\n\t\t\t_royalties[tokenId].push(royalties[i]);\n\t\t\taddress[] memory recipients = new address[](royalties.length);\n\t\t\tuint256[] memory bps = new uint256[](royalties.length);\n\t\t\temit RoyaltiesFeesSet(tokenId, recipients, bps);\n\t\t}\n\t}\n\n\t/**\n\t * @dev set a NFT custom attributes to contract storage\n\t * emits AttributesSet event\n\t */\n\tfunction _setMetadataJson(uint256 tokenId, string memory metadataJson)\n        internal\n    {\n\t\t_metadataJson[tokenId] = metadataJson;\n\t\temit AttributesSet(tokenId, metadataJson);\n\t}\n\n    /**\n\t * @dev set a NFT locked content as string\n\t */\n\tfunction _setLockedContent(uint256 tokenId, string memory content)\n        internal\n    {\n\t\t_lockedContent[tokenId] = content;\n\t}\n\n    /**\n\t * @dev check mint fees sent to contract\n\t * emits MintFeesPaid event if set\n\t */\n\tfunction _checkMintFees()\n        internal\n    {\n\t\tif (_ghostmarketMintFees > 0) {\n\t\t\trequire(msg.value == _ghostmarketMintFees, \"Wrong fees value sent to GhostMarket for mint fees\");\n\t\t}\n\t\tif (msg.value > 0) {\n\t\t\t_payedMintFeesBalance += msg.value;\n\t\t}\n\t}\n\n\t/**\n\t * @dev increment a NFT locked content view tracker\n\t */\n\tfunction _incrementCurrentLockedContentViewTracker(uint256 tokenId)\n        internal\n    {\n\t\t_lockedContentViewTracker[tokenId] = _lockedContentViewTracker[tokenId] + 1;\n\t}\n\n\t/**\n\t * @dev mint NFT, set royalties, set metadata json, set lockedcontent\n\t * emits Minted event\n\t */\n\tfunction mintGhost(address to, Royalty[] memory royalties, string memory externalURI, string memory metadata, string memory lockedcontent)\n        external\n        payable\n        nonReentrant\n    {\n\t\tmint(to);\n\t\tuint256 tokenId = getLastTokenID();\n\t\tif (royalties.length > 0) {\n\t\t\t_saveRoyalties(tokenId, royalties);\n\t\t}\n\t\tif (keccak256(abi.encodePacked(metadata)) != keccak256(abi.encodePacked(\"\"))) {\n\t\t\t_setMetadataJson(tokenId, metadata);\n\t\t}\n\t\tif (keccak256(abi.encodePacked(lockedcontent)) != keccak256(abi.encodePacked(\"\"))) {\n\t\t\t_setLockedContent(tokenId, lockedcontent);\n\t\t}\n\t\t_checkMintFees();\n\t\trequire(keccak256(abi.encodePacked(externalURI)) != keccak256(abi.encodePacked(\"\")), \"externalURI can't be empty\");\n\t\temit Minted(to, tokenId, tokenURI(tokenId), externalURI, msg.value);\n\t}\n\n    /**\n     * @dev withdraw contract balance\n     * emits MintFeesWithdrawn event\n     */\n\tfunction withdraw(uint256 withdrawAmount)\n\t\texternal\n\t\tonlyOwner\n\t{\n\t\trequire(withdrawAmount > 0 && withdrawAmount <= _payedMintFeesBalance, \"Withdraw amount should be greater then 0 and less then contract balance\");\n\t\t_payedMintFeesBalance -= withdrawAmount;\n\t\t(bool success, ) = msg.sender.call{value: withdrawAmount}(\"\");\n\t\trequire(success, \"Transfer failed.\");\n\t\temit MintFeesWithdrawn(msg.sender, withdrawAmount);\n\t}\n\n    /**\n\t * @dev bulk burn NFT\n\t */\n\tfunction burnBatch(uint256[] memory tokensId)\n        external\n    {\n\t\tfor (uint256 i = 0; i < tokensId.length; i++) {\n\t\t\tburn(tokensId[i]);\n\t\t}\n\t}\n\n\t/**\n\t * @dev sets Ghostmarket mint fees as uint256\n\t * emits MintFeesChanged event\n\t */\n\tfunction setGhostmarketMintFee(uint256 gmmf)\n        external\n    {\n\t\trequire(hasRole(DEFAULT_ADMIN_ROLE, _msgSender()), \"Caller must have admin role to set mint fees\");\n\t\t_ghostmarketMintFees = gmmf;\n\t\temit MintFeesChanged(_ghostmarketMintFees);\n\t}\n\n\t/**\n\t * @return get Ghostmarket mint fees\n\t */\n\tfunction getGhostmarketMintFees()\n        external\n        view\n        returns (uint256)\n    {\n\t\treturn _ghostmarketMintFees;\n\t}\n\n\t/**\n\t * @dev get locked content for a NFT\n\t * emits LockedContentViewed event\n\t */\n\tfunction getLockedContent(uint256 tokenId)\n        external\n    {\n\t\trequire(ownerOf(tokenId) == msg.sender, \"Caller must be the owner of the NFT\");\n\t\t_incrementCurrentLockedContentViewTracker(tokenId);\n\t\temit LockedContentViewed(msg.sender, tokenId, _lockedContent[tokenId]);\n\t}\n\n\t/**\n\t * @dev get a NFT current locked content view tracker\n\t */\n\tfunction getCurrentLockedContentViewTracker(uint256 tokenId)\n        external\n        view\n        returns (uint256)\n    {\n\t\treturn _lockedContentViewTracker[tokenId];\n\t}\n\n    /**\n\t * @dev get a NFT custom attributes\n\t */\n\tfunction getMetadataJson(uint256 tokenId)\n        external\n        view\n        returns (string memory)\n    {\n\t\treturn _metadataJson[tokenId];\n\t}\n\n\t/**\n\t * @dev get a NFT royalties recipients\n\t */\n\tfunction getRoyaltiesRecipients(uint256 tokenId)\n        external\n        view\n        returns (address payable[] memory)\n    {\n\t\tRoyalty[] memory royalties = _royalties[tokenId];\n\t\taddress payable[] memory result = new address payable[](royalties.length);\n\t\tfor (uint256 i = 0; i < royalties.length; i++) {\n\t\t\tresult[i] = royalties[i].recipient;\n\t\t}\n\t\treturn result;\n\t}\n\n\t/**\n\t * @dev get a NFT royalties fees\n\t * fee basis points 10000 = 100%\n\t */\n\tfunction getRoyaltiesBps(uint256 tokenId)\n        external\n        view\n        returns (uint256[] memory)\n    {\n\t\tRoyalty[] memory royalties = _royalties[tokenId];\n\t\tuint256[] memory result = new uint256[](royalties.length);\n\t\tfor (uint256 i = 0; i < royalties.length; i++) {\n\t\t\tresult[i] = royalties[i].value;\n\t\t}\n\t\treturn result;\n\t}\n}\n",
  "sourcePath": "/Users/selimerunkut/dev_freelance/GhostMarketContractBSC/contracts/GhostmarketERC721.sol",
  "compiler": {
    "name": "solc",
    "version": "0.8.3+commit.8d00100c.Emscripten.clang"
  },
  "schemaVersion": "3.4.1",
  "updatedAt": "2021-05-17T15:17:56.278Z",
  "devdoc": {
    "details": "ERC721 token with minting, burning, pause, royalties & lock content functions.",
    "kind": "dev",
    "methods": {
      "approve(address,uint256)": {
        "details": "See {IERC721-approve}."
      },
      "balanceOf(address)": {
        "details": "See {IERC721-balanceOf}."
      },
      "burn(uint256)": {
        "details": "Burns `tokenId`. See {ERC721-_burn}. Requirements: - The caller must own `tokenId` or be an approved operator."
      },
      "burnBatch(uint256[])": {
        "details": "bulk burn NFT"
      },
      "getApproved(uint256)": {
        "details": "See {IERC721-getApproved}."
      },
      "getCurrentLockedContentViewTracker(uint256)": {
        "details": "get a NFT current locked content view tracker"
      },
      "getGhostmarketMintFees()": {
        "returns": {
          "_0": "get Ghostmarket mint fees"
        }
      },
      "getLockedContent(uint256)": {
        "details": "get locked content for a NFT emits LockedContentViewed event"
      },
      "getMetadataJson(uint256)": {
        "details": "get a NFT custom attributes"
      },
      "getRoleAdmin(bytes32)": {
        "details": "Returns the admin role that controls `role`. See {grantRole} and {revokeRole}. To change a role's admin, use {_setRoleAdmin}."
      },
      "getRoleMember(bytes32,uint256)": {
        "details": "Returns one of the accounts that have `role`. `index` must be a value between 0 and {getRoleMemberCount}, non-inclusive. Role bearers are not sorted in any particular way, and their ordering may change at any point. WARNING: When using {getRoleMember} and {getRoleMemberCount}, make sure you perform all queries on the same block. See the following https://forum.openzeppelin.com/t/iterating-over-elements-on-enumerableset-in-openzeppelin-contracts/2296[forum post] for more information."
      },
      "getRoleMemberCount(bytes32)": {
        "details": "Returns the number of accounts that have `role`. Can be used together with {getRoleMember} to enumerate all bearers of a role."
      },
      "getRoyaltiesBps(uint256)": {
        "details": "get a NFT royalties fees fee basis points 10000 = 100%"
      },
      "getRoyaltiesRecipients(uint256)": {
        "details": "get a NFT royalties recipients"
      },
      "grantRole(bytes32,address)": {
        "details": "Overload {grantRole} to track enumerable memberships"
      },
      "hasRole(bytes32,address)": {
        "details": "Returns `true` if `account` has been granted `role`."
      },
      "isApprovedForAll(address,address)": {
        "details": "See {IERC721-isApprovedForAll}."
      },
      "mintGhost(address,(address,uint256)[],string,string,string)": {
        "details": "mint NFT, set royalties, set metadata json, set lockedcontent emits Minted event"
      },
      "mintWithURI(address,uint256,string)": {
        "details": "polynetwork CrossChainNFTMapping"
      },
      "name()": {
        "details": "See {IERC721Metadata-name}."
      },
      "owner()": {
        "details": "Returns the address of the current owner."
      },
      "ownerOf(uint256)": {
        "details": "See {IERC721-ownerOf}."
      },
      "pause()": {
        "details": "Pauses all token transfers. See {ERC721Pausable} and {Pausable-_pause}. Requirements: - the caller must have the `PAUSER_ROLE`."
      },
      "paused()": {
        "details": "Returns true if the contract is paused, and false otherwise."
      },
      "renounceOwnership()": {
        "details": "Leaves the contract without owner. It will not be possible to call `onlyOwner` functions anymore. Can only be called by the current owner. NOTE: Renouncing ownership will leave the contract without an owner, thereby removing any functionality that is only available to the owner."
      },
      "renounceRole(bytes32,address)": {
        "details": "Overload {renounceRole} to track enumerable memberships"
      },
      "revokeRole(bytes32,address)": {
        "details": "Overload {revokeRole} to track enumerable memberships"
      },
      "safeTransferFrom(address,address,uint256)": {
        "details": "See {IERC721-safeTransferFrom}."
      },
      "safeTransferFrom(address,address,uint256,bytes)": {
        "details": "See {IERC721-safeTransferFrom}."
      },
      "setApprovalForAll(address,bool)": {
        "details": "See {IERC721-setApprovalForAll}."
      },
      "setGhostmarketMintFee(uint256)": {
        "details": "sets Ghostmarket mint fees as uint256 emits MintFeesChanged event"
      },
      "supportsInterface(bytes4)": {
        "details": "See {IERC165-supportsInterface}."
      },
      "symbol()": {
        "details": "See {IERC721Metadata-symbol}."
      },
      "tokenByIndex(uint256)": {
        "details": "See {IERC721Enumerable-tokenByIndex}."
      },
      "tokenOfOwnerByIndex(address,uint256)": {
        "details": "See {IERC721Enumerable-tokenOfOwnerByIndex}."
      },
      "tokenURI(uint256)": {
        "details": "See {IERC721Metadata-tokenURI}."
      },
      "totalSupply()": {
        "details": "See {IERC721Enumerable-totalSupply}."
      },
      "transferFrom(address,address,uint256)": {
        "details": "See {IERC721-transferFrom}."
      },
      "transferOwnership(address)": {
        "details": "Transfers ownership of the contract to a new account (`newOwner`). Can only be called by the current owner."
      },
      "unpause()": {
        "details": "Unpauses all token transfers. See {ERC721Pausable} and {Pausable-_unpause}. Requirements: - the caller must have the `PAUSER_ROLE`."
      },
      "withdraw(uint256)": {
        "details": "withdraw contract balance emits MintFeesWithdrawn event"
      }
    },
    "version": 1
  },
  "userdoc": {
    "kind": "user",
    "methods": {},
    "version": 1
  }
}