{
  "contractName": "GhostMarketERC721",
  "abi": [
    {
      "anonymous": false,
      "inputs": [
        {
          "indexed": true,
          "internalType": "address",
          "name": "owner",
          "type": "address"
        },
        {
          "indexed": true,
          "internalType": "address",
          "name": "approved",
          "type": "address"
        },
        {
          "indexed": true,
          "internalType": "uint256",
          "name": "tokenId",
          "type": "uint256"
        }
      ],
      "name": "Approval",
      "type": "event"
    },
    {
      "anonymous": false,
      "inputs": [
        {
          "indexed": true,
          "internalType": "address",
          "name": "owner",
          "type": "address"
        },
        {
          "indexed": true,
          "internalType": "address",
          "name": "operator",
          "type": "address"
        },
        {
          "indexed": false,
          "internalType": "bool",
          "name": "approved",
          "type": "bool"
        }
      ],
      "name": "ApprovalForAll",
      "type": "event"
    },
    {
      "anonymous": false,
      "inputs": [
        {
          "indexed": false,
          "internalType": "uint256",
          "name": "tokenId",
          "type": "uint256"
        },
        {
          "indexed": false,
          "internalType": "string",
          "name": "metadataJson",
          "type": "string"
        }
      ],
      "name": "AttributesSet",
      "type": "event"
    },
    {
      "anonymous": false,
      "inputs": [
        {
          "indexed": false,
          "internalType": "address",
          "name": "msgSender",
          "type": "address"
        },
        {
          "indexed": false,
          "internalType": "uint256",
          "name": "tokenId",
          "type": "uint256"
        },
        {
          "indexed": false,
          "internalType": "string",
          "name": "lockedContent",
          "type": "string"
        }
      ],
      "name": "LockedContentViewed",
      "type": "event"
    },
    {
      "anonymous": false,
      "inputs": [
        {
          "indexed": false,
          "internalType": "uint256",
          "name": "newValue",
          "type": "uint256"
        }
      ],
      "name": "MintFeesChanged",
      "type": "event"
    },
    {
      "anonymous": false,
      "inputs": [
        {
          "indexed": false,
          "internalType": "address",
          "name": "sender",
          "type": "address"
        },
        {
          "indexed": false,
          "internalType": "uint256",
          "name": "value",
          "type": "uint256"
        }
      ],
      "name": "MintFeesPaid",
      "type": "event"
    },
    {
      "anonymous": false,
      "inputs": [
        {
          "indexed": false,
          "internalType": "address",
          "name": "feeWithdrawer",
          "type": "address"
        },
        {
          "indexed": false,
          "internalType": "uint256",
          "name": "withdrawAmount",
          "type": "uint256"
        }
      ],
      "name": "MintFeesWithdrawn",
      "type": "event"
    },
    {
      "anonymous": false,
      "inputs": [
        {
          "indexed": false,
          "internalType": "address",
          "name": "toAddress",
          "type": "address"
        },
        {
          "indexed": false,
          "internalType": "uint256",
          "name": "tokenId",
          "type": "uint256"
        },
        {
          "indexed": false,
          "internalType": "string",
          "name": "tokenURI",
          "type": "string"
        }
      ],
      "name": "Minted",
      "type": "event"
    },
    {
      "anonymous": false,
      "inputs": [
        {
          "indexed": true,
          "internalType": "address",
          "name": "previousOwner",
          "type": "address"
        },
        {
          "indexed": true,
          "internalType": "address",
          "name": "newOwner",
          "type": "address"
        }
      ],
      "name": "OwnershipTransferred",
      "type": "event"
    },
    {
      "anonymous": false,
      "inputs": [
        {
          "indexed": false,
          "internalType": "address",
          "name": "account",
          "type": "address"
        }
      ],
      "name": "Paused",
      "type": "event"
    },
    {
      "anonymous": false,
      "inputs": [
        {
          "indexed": true,
          "internalType": "bytes32",
          "name": "role",
          "type": "bytes32"
        },
        {
          "indexed": true,
          "internalType": "bytes32",
          "name": "previousAdminRole",
          "type": "bytes32"
        },
        {
          "indexed": true,
          "internalType": "bytes32",
          "name": "newAdminRole",
          "type": "bytes32"
        }
      ],
      "name": "RoleAdminChanged",
      "type": "event"
    },
    {
      "anonymous": false,
      "inputs": [
        {
          "indexed": true,
          "internalType": "bytes32",
          "name": "role",
          "type": "bytes32"
        },
        {
          "indexed": true,
          "internalType": "address",
          "name": "account",
          "type": "address"
        },
        {
          "indexed": true,
          "internalType": "address",
          "name": "sender",
          "type": "address"
        }
      ],
      "name": "RoleGranted",
      "type": "event"
    },
    {
      "anonymous": false,
      "inputs": [
        {
          "indexed": true,
          "internalType": "bytes32",
          "name": "role",
          "type": "bytes32"
        },
        {
          "indexed": true,
          "internalType": "address",
          "name": "account",
          "type": "address"
        },
        {
          "indexed": true,
          "internalType": "address",
          "name": "sender",
          "type": "address"
        }
      ],
      "name": "RoleRevoked",
      "type": "event"
    },
    {
      "anonymous": false,
      "inputs": [
        {
          "indexed": false,
          "internalType": "uint256",
          "name": "tokenId",
          "type": "uint256"
        },
        {
          "indexed": false,
          "internalType": "address[]",
          "name": "recipients",
          "type": "address[]"
        },
        {
          "indexed": false,
          "internalType": "uint256[]",
          "name": "bps",
          "type": "uint256[]"
        }
      ],
      "name": "RoyaltiesFeesSet",
      "type": "event"
    },
    {
      "anonymous": false,
      "inputs": [
        {
          "indexed": true,
          "internalType": "address",
          "name": "from",
          "type": "address"
        },
        {
          "indexed": true,
          "internalType": "address",
          "name": "to",
          "type": "address"
        },
        {
          "indexed": true,
          "internalType": "uint256",
          "name": "tokenId",
          "type": "uint256"
        }
      ],
      "name": "Transfer",
      "type": "event"
    },
    {
      "anonymous": false,
      "inputs": [
        {
          "indexed": false,
          "internalType": "address",
          "name": "account",
          "type": "address"
        }
      ],
      "name": "Unpaused",
      "type": "event"
    },
    {
      "inputs": [],
      "name": "DEFAULT_ADMIN_ROLE",
      "outputs": [
        {
          "internalType": "bytes32",
          "name": "",
          "type": "bytes32"
        }
      ],
      "stateMutability": "view",
      "type": "function"
    },
    {
      "inputs": [],
      "name": "MINTER_ROLE",
      "outputs": [
        {
          "internalType": "bytes32",
          "name": "",
          "type": "bytes32"
        }
      ],
      "stateMutability": "view",
      "type": "function"
    },
    {
      "inputs": [],
      "name": "PAUSER_ROLE",
      "outputs": [
        {
          "internalType": "bytes32",
          "name": "",
          "type": "bytes32"
        }
      ],
      "stateMutability": "view",
      "type": "function"
    },
    {
      "inputs": [],
      "name": "POLYNETWORK_ROLE",
      "outputs": [
        {
          "internalType": "bytes32",
          "name": "",
          "type": "bytes32"
        }
      ],
      "stateMutability": "view",
      "type": "function"
    },
    {
      "inputs": [
        {
          "internalType": "address",
          "name": "to",
          "type": "address"
        },
        {
          "internalType": "uint256",
          "name": "tokenId",
          "type": "uint256"
        }
      ],
      "name": "approve",
      "outputs": [],
      "stateMutability": "nonpayable",
      "type": "function"
    },
    {
      "inputs": [
        {
          "internalType": "address",
          "name": "owner",
          "type": "address"
        }
      ],
      "name": "balanceOf",
      "outputs": [
        {
          "internalType": "uint256",
          "name": "",
          "type": "uint256"
        }
      ],
      "stateMutability": "view",
      "type": "function"
    },
    {
      "inputs": [
        {
          "internalType": "uint256",
          "name": "tokenId",
          "type": "uint256"
        }
      ],
      "name": "burn",
      "outputs": [],
      "stateMutability": "nonpayable",
      "type": "function"
    },
    {
      "inputs": [
        {
          "internalType": "uint256",
          "name": "tokenId",
          "type": "uint256"
        }
      ],
      "name": "getApproved",
      "outputs": [
        {
          "internalType": "address",
          "name": "",
          "type": "address"
        }
      ],
      "stateMutability": "view",
      "type": "function"
    },
    {
      "inputs": [],
      "name": "getCurrentCounter",
      "outputs": [
        {
          "internalType": "uint256",
          "name": "",
          "type": "uint256"
        }
      ],
      "stateMutability": "view",
      "type": "function"
    },
    {
      "inputs": [],
      "name": "getLastTokenID",
      "outputs": [
        {
          "internalType": "uint256",
          "name": "",
          "type": "uint256"
        }
      ],
      "stateMutability": "view",
      "type": "function"
    },
    {
      "inputs": [
        {
          "internalType": "bytes32",
          "name": "role",
          "type": "bytes32"
        }
      ],
      "name": "getRoleAdmin",
      "outputs": [
        {
          "internalType": "bytes32",
          "name": "",
          "type": "bytes32"
        }
      ],
      "stateMutability": "view",
      "type": "function"
    },
    {
      "inputs": [
        {
          "internalType": "bytes32",
          "name": "role",
          "type": "bytes32"
        },
        {
          "internalType": "uint256",
          "name": "index",
          "type": "uint256"
        }
      ],
      "name": "getRoleMember",
      "outputs": [
        {
          "internalType": "address",
          "name": "",
          "type": "address"
        }
      ],
      "stateMutability": "view",
      "type": "function"
    },
    {
      "inputs": [
        {
          "internalType": "bytes32",
          "name": "role",
          "type": "bytes32"
        }
      ],
      "name": "getRoleMemberCount",
      "outputs": [
        {
          "internalType": "uint256",
          "name": "",
          "type": "uint256"
        }
      ],
      "stateMutability": "view",
      "type": "function"
    },
    {
      "inputs": [
        {
          "internalType": "bytes32",
          "name": "role",
          "type": "bytes32"
        },
        {
          "internalType": "address",
          "name": "account",
          "type": "address"
        }
      ],
      "name": "grantRole",
      "outputs": [],
      "stateMutability": "nonpayable",
      "type": "function"
    },
    {
      "inputs": [
        {
          "internalType": "bytes32",
          "name": "role",
          "type": "bytes32"
        },
        {
          "internalType": "address",
          "name": "account",
          "type": "address"
        }
      ],
      "name": "hasRole",
      "outputs": [
        {
          "internalType": "bool",
          "name": "",
          "type": "bool"
        }
      ],
      "stateMutability": "view",
      "type": "function"
    },
    {
      "inputs": [
        {
          "internalType": "address",
          "name": "owner",
          "type": "address"
        },
        {
          "internalType": "address",
          "name": "operator",
          "type": "address"
        }
      ],
      "name": "isApprovedForAll",
      "outputs": [
        {
          "internalType": "bool",
          "name": "",
          "type": "bool"
        }
      ],
      "stateMutability": "view",
      "type": "function"
    },
    {
      "inputs": [
        {
          "internalType": "address",
          "name": "to",
          "type": "address"
        },
        {
          "internalType": "uint256",
          "name": "tokenId",
          "type": "uint256"
        },
        {
          "internalType": "string",
          "name": "uri",
          "type": "string"
        }
      ],
      "name": "mintWithURI",
      "outputs": [],
      "stateMutability": "nonpayable",
      "type": "function"
    },
    {
      "inputs": [],
      "name": "name",
      "outputs": [
        {
          "internalType": "string",
          "name": "",
          "type": "string"
        }
      ],
      "stateMutability": "view",
      "type": "function"
    },
    {
      "inputs": [],
      "name": "owner",
      "outputs": [
        {
          "internalType": "address",
          "name": "",
          "type": "address"
        }
      ],
      "stateMutability": "view",
      "type": "function"
    },
    {
      "inputs": [
        {
          "internalType": "uint256",
          "name": "tokenId",
          "type": "uint256"
        }
      ],
      "name": "ownerOf",
      "outputs": [
        {
          "internalType": "address",
          "name": "",
          "type": "address"
        }
      ],
      "stateMutability": "view",
      "type": "function"
    },
    {
      "inputs": [],
      "name": "pause",
      "outputs": [],
      "stateMutability": "nonpayable",
      "type": "function"
    },
    {
      "inputs": [],
      "name": "paused",
      "outputs": [
        {
          "internalType": "bool",
          "name": "",
          "type": "bool"
        }
      ],
      "stateMutability": "view",
      "type": "function"
    },
    {
      "inputs": [],
      "name": "renounceOwnership",
      "outputs": [],
      "stateMutability": "nonpayable",
      "type": "function"
    },
    {
      "inputs": [
        {
          "internalType": "bytes32",
          "name": "role",
          "type": "bytes32"
        },
        {
          "internalType": "address",
          "name": "account",
          "type": "address"
        }
      ],
      "name": "renounceRole",
      "outputs": [],
      "stateMutability": "nonpayable",
      "type": "function"
    },
    {
      "inputs": [
        {
          "internalType": "bytes32",
          "name": "role",
          "type": "bytes32"
        },
        {
          "internalType": "address",
          "name": "account",
          "type": "address"
        }
      ],
      "name": "revokeRole",
      "outputs": [],
      "stateMutability": "nonpayable",
      "type": "function"
    },
    {
      "inputs": [
        {
          "internalType": "address",
          "name": "from",
          "type": "address"
        },
        {
          "internalType": "address",
          "name": "to",
          "type": "address"
        },
        {
          "internalType": "uint256",
          "name": "tokenId",
          "type": "uint256"
        }
      ],
      "name": "safeTransferFrom",
      "outputs": [],
      "stateMutability": "nonpayable",
      "type": "function"
    },
    {
      "inputs": [
        {
          "internalType": "address",
          "name": "from",
          "type": "address"
        },
        {
          "internalType": "address",
          "name": "to",
          "type": "address"
        },
        {
          "internalType": "uint256",
          "name": "tokenId",
          "type": "uint256"
        },
        {
          "internalType": "bytes",
          "name": "_data",
          "type": "bytes"
        }
      ],
      "name": "safeTransferFrom",
      "outputs": [],
      "stateMutability": "nonpayable",
      "type": "function"
    },
    {
      "inputs": [
        {
          "internalType": "address",
          "name": "operator",
          "type": "address"
        },
        {
          "internalType": "bool",
          "name": "approved",
          "type": "bool"
        }
      ],
      "name": "setApprovalForAll",
      "outputs": [],
      "stateMutability": "nonpayable",
      "type": "function"
    },
    {
      "inputs": [
        {
          "internalType": "string",
          "name": "baseTokenURI",
          "type": "string"
        }
      ],
      "name": "setBaseTokenURI",
      "outputs": [],
      "stateMutability": "nonpayable",
      "type": "function"
    },
    {
      "inputs": [
        {
          "internalType": "bytes4",
          "name": "interfaceId",
          "type": "bytes4"
        }
      ],
      "name": "supportsInterface",
      "outputs": [
        {
          "internalType": "bool",
          "name": "",
          "type": "bool"
        }
      ],
      "stateMutability": "view",
      "type": "function"
    },
    {
      "inputs": [],
      "name": "symbol",
      "outputs": [
        {
          "internalType": "string",
          "name": "",
          "type": "string"
        }
      ],
      "stateMutability": "view",
      "type": "function"
    },
    {
      "inputs": [
        {
          "internalType": "uint256",
          "name": "index",
          "type": "uint256"
        }
      ],
      "name": "tokenByIndex",
      "outputs": [
        {
          "internalType": "uint256",
          "name": "",
          "type": "uint256"
        }
      ],
      "stateMutability": "view",
      "type": "function"
    },
    {
      "inputs": [
        {
          "internalType": "address",
          "name": "owner",
          "type": "address"
        },
        {
          "internalType": "uint256",
          "name": "index",
          "type": "uint256"
        }
      ],
      "name": "tokenOfOwnerByIndex",
      "outputs": [
        {
          "internalType": "uint256",
          "name": "",
          "type": "uint256"
        }
      ],
      "stateMutability": "view",
      "type": "function"
    },
    {
      "inputs": [
        {
          "internalType": "uint256",
          "name": "tokenId",
          "type": "uint256"
        }
      ],
      "name": "tokenURI",
      "outputs": [
        {
          "internalType": "string",
          "name": "",
          "type": "string"
        }
      ],
      "stateMutability": "view",
      "type": "function"
    },
    {
      "inputs": [],
      "name": "totalSupply",
      "outputs": [
        {
          "internalType": "uint256",
          "name": "",
          "type": "uint256"
        }
      ],
      "stateMutability": "view",
      "type": "function"
    },
    {
      "inputs": [
        {
          "internalType": "address",
          "name": "from",
          "type": "address"
        },
        {
          "internalType": "address",
          "name": "to",
          "type": "address"
        },
        {
          "internalType": "uint256",
          "name": "tokenId",
          "type": "uint256"
        }
      ],
      "name": "transferFrom",
      "outputs": [],
      "stateMutability": "nonpayable",
      "type": "function"
    },
    {
      "inputs": [
        {
          "internalType": "address",
          "name": "newOwner",
          "type": "address"
        }
      ],
      "name": "transferOwnership",
      "outputs": [],
      "stateMutability": "nonpayable",
      "type": "function"
    },
    {
      "inputs": [],
      "name": "unpause",
      "outputs": [],
      "stateMutability": "nonpayable",
      "type": "function"
    },
    {
      "inputs": [
        {
          "internalType": "string",
          "name": "name",
          "type": "string"
        },
        {
          "internalType": "string",
          "name": "symbol",
          "type": "string"
        },
        {
          "internalType": "string",
          "name": "uri",
          "type": "string"
        }
      ],
      "name": "initialize",
      "outputs": [],
      "stateMutability": "nonpayable",
      "type": "function"
    },
    {
      "inputs": [
        {
          "internalType": "address",
          "name": "to",
          "type": "address"
        },
        {
          "components": [
            {
              "internalType": "address payable",
              "name": "recipient",
              "type": "address"
            },
            {
              "internalType": "uint256",
              "name": "value",
              "type": "uint256"
            }
          ],
          "internalType": "struct GhostMarketERC721.Royalty[]",
          "name": "royalties",
          "type": "tuple[]"
        },
        {
          "internalType": "string",
          "name": "metadata",
          "type": "string"
        },
        {
          "internalType": "string",
          "name": "lockedcontent",
          "type": "string"
        }
      ],
      "name": "mintGhost",
      "outputs": [],
      "stateMutability": "payable",
      "type": "function"
    },
    {
      "inputs": [
        {
          "internalType": "uint256",
          "name": "withdrawAmount",
          "type": "uint256"
        }
      ],
      "name": "withdraw",
      "outputs": [],
      "stateMutability": "nonpayable",
      "type": "function"
    },
    {
      "inputs": [
        {
          "internalType": "uint256[]",
          "name": "tokensId",
          "type": "uint256[]"
        }
      ],
      "name": "burnBulk",
      "outputs": [],
      "stateMutability": "nonpayable",
      "type": "function"
    },
    {
      "inputs": [
        {
          "internalType": "uint256",
          "name": "gmmf",
          "type": "uint256"
        }
      ],
      "name": "setGhostmarketMintFee",
      "outputs": [],
      "stateMutability": "nonpayable",
      "type": "function"
    },
    {
      "inputs": [],
      "name": "getGhostmarketMintFees",
      "outputs": [
        {
          "internalType": "uint256",
          "name": "",
          "type": "uint256"
        }
      ],
      "stateMutability": "view",
      "type": "function"
    },
    {
      "inputs": [
        {
          "internalType": "uint256",
          "name": "tokenId",
          "type": "uint256"
        }
      ],
      "name": "getLockedContent",
      "outputs": [],
      "stateMutability": "nonpayable",
      "type": "function"
    },
    {
      "inputs": [
        {
          "internalType": "uint256",
          "name": "tokenId",
          "type": "uint256"
        }
      ],
      "name": "getCurrentLockedContentViewTracker",
      "outputs": [
        {
          "internalType": "uint256",
          "name": "",
          "type": "uint256"
        }
      ],
      "stateMutability": "view",
      "type": "function"
    },
    {
      "inputs": [
        {
          "internalType": "uint256",
          "name": "tokenId",
          "type": "uint256"
        }
      ],
      "name": "getMetadataJson",
      "outputs": [
        {
          "internalType": "string",
          "name": "",
          "type": "string"
        }
      ],
      "stateMutability": "view",
      "type": "function"
    },
    {
      "inputs": [
        {
          "internalType": "uint256",
          "name": "tokenId",
          "type": "uint256"
        }
      ],
      "name": "getRoyaltiesRecipients",
      "outputs": [
        {
          "internalType": "address payable[]",
          "name": "",
          "type": "address[]"
        }
      ],
      "stateMutability": "view",
      "type": "function"
    },
    {
      "inputs": [
        {
          "internalType": "uint256",
          "name": "tokenId",
          "type": "uint256"
        }
      ],
      "name": "getRoyaltiesBps",
      "outputs": [
        {
          "internalType": "uint256[]",
          "name": "",
          "type": "uint256[]"
        }
      ],
      "stateMutability": "view",
      "type": "function"
    }
  ],
  "bytecode": "0x608060405234801561001057600080fd5b50614a0b806100206000396000f3fe60806040526004361061031e5760003560e01c806373448c46116101a5578063c6f4f0f0116100ec578063dac0f3d911610095578063e985e9c51161006f578063e985e9c514610918578063edcbc0bd14610961578063f2fde38b1461098e578063f7d027de146109ae5761031e565b8063dac0f3d9146108ae578063e24dbeae146108ce578063e63ab1e9146108e45761031e565b8063ca6b403b116100c6578063ca6b403b1461083a578063d53913931461085a578063d547741f1461088e5761031e565b8063c6f4f0f0146107cc578063c87b56dd146107fa578063ca15c8731461081a5761031e565b80639ceea6651161014e578063a6487c5311610128578063a6487c531461075f578063b88d4fde1461077f578063c1793c581461079f5761031e565b80639ceea665146106f6578063a217fddf1461072a578063a22cb4651461073f5761031e565b80639010d07c1161017f5780639010d07c1461067b57806391d148541461069b57806395d89b41146106e15761031e565b806373448c46146106325780638456cb59146106475780638da5cb5b1461065c5761031e565b806330176e13116102695780634f6ccce7116102125780636352211e116101ec5780636352211e146105dd57806370a08231146105fd578063715018a61461061d5761031e565b80634f6ccce7146105915780635a252ffe146105b15780635c975abb146105c45761031e565b806342842e0e1161024357806342842e0e1461053157806342966c68146105515780634a99950b146105715761031e565b806330176e13146104dc57806336568abe146104fc5780633f4ba83a1461051c5761031e565b80631c7e78f3116102cb5780632e1a7d4d116102a55780632e1a7d4d1461047c5780632f2ff15d1461049c5780632f745c59146104bc5761031e565b80631c7e78f31461040c57806323b872dd1461042c578063248a9ca31461044c5761031e565b8063095ea7b3116102fc578063095ea7b3146103b25780630e094137146103d457806318160ddd146103f75761031e565b806301ffc9a71461032357806306fdde0314610358578063081812fc1461037a575b600080fd5b34801561032f57600080fd5b5061034361033e366004614483565b6109ce565b60405190151581526020015b60405180910390f35b34801561036457600080fd5b5061036d6109e1565b60405161034f91906147a5565b34801561038657600080fd5b5061039a610395366004614426565b610a74565b6040516001600160a01b03909116815260200161034f565b3480156103be57600080fd5b506103d26103cd366004614311565b610b0e565b005b3480156103e057600080fd5b506103e9610c40565b60405190815260200161034f565b34801561040357600080fd5b5060fd546103e9565b34801561041857600080fd5b506103d2610427366004614426565b610c72565b34801561043857600080fd5b506103d261044736600461410d565b610d4e565b34801561045857600080fd5b506103e9610467366004614426565b60009081526065602052604090206001015490565b34801561048857600080fd5b506103d2610497366004614426565b610dd6565b3480156104a857600080fd5b506103d26104b736600461443e565b610fca565b3480156104c857600080fd5b506103e96104d7366004614311565b610fec565b3480156104e857600080fd5b506103d26104f73660046144bb565b611097565b34801561050857600080fd5b506103d261051736600461443e565b61112c565b34801561052857600080fd5b506103d261114e565b34801561053d57600080fd5b506103d261054c36600461410d565b6111f6565b34801561055d57600080fd5b506103d261056c366004614426565b611211565b34801561057d57600080fd5b506103d261058c36600461433c565b611298565b34801561059d57600080fd5b506103e96105ac366004614426565b6113ad565b6103d26105bf3660046141ca565b61145f565b3480156105d057600080fd5b5061015f5460ff16610343565b3480156105e957600080fd5b5061039a6105f8366004614426565b6115c2565b34801561060957600080fd5b506103e96106183660046140b9565b61164d565b34801561062957600080fd5b506103d26116e7565b34801561063e57600080fd5b506103e961178e565b34801561065357600080fd5b506103d261179f565b34801561066857600080fd5b50610259546001600160a01b031661039a565b34801561068757600080fd5b5061039a610696366004614462565b611843565b3480156106a757600080fd5b506103436106b636600461443e565b60009182526065602090815260408084206001600160a01b0393909316845291905290205460ff1690565b3480156106ed57600080fd5b5061036d611862565b34801561070257600080fd5b506103e97f8a9d57248f1015d5cac20111fe2512477434cf493627e5e959ca751e593d807981565b34801561073657600080fd5b506103e9600081565b34801561074b57600080fd5b506103d261075a3660046142e0565b611871565b34801561076b57600080fd5b506103d261077a3660046144ee565b611943565b34801561078b57600080fd5b506103d261079a36600461414d565b611a14565b3480156107ab57600080fd5b506107bf6107ba366004614426565b611a9c565b60405161034f9190614792565b3480156107d857600080fd5b506103e96107e7366004614426565b600090815261028e602052604090205490565b34801561080657600080fd5b5061036d610815366004614426565b611be9565b34801561082657600080fd5b506103e9610835366004614426565b611bf4565b34801561084657600080fd5b506103d2610855366004614393565b611c0b565b34801561086657600080fd5b506103e97f9f2df0fed2c77648de5860a4cc508cd0818c85b8b8a1ab4ceeef8d981c8956a681565b34801561089a57600080fd5b506103d26108a936600461443e565b611c59565b3480156108ba57600080fd5b506103d26108c9366004614426565b611c63565b3480156108da57600080fd5b50610290546103e9565b3480156108f057600080fd5b506103e97f65d7a28e3265b37a6474929f336521b332c1681b933f6cb9f3376673440d862a81565b34801561092457600080fd5b506103436109333660046140d5565b6001600160a01b03918216600090815260ce6020908152604080832093909416825291909152205460ff1690565b34801561096d57600080fd5b5061098161097c366004614426565b611d16565b60405161034f9190614745565b34801561099a57600080fd5b506103d26109a93660046140b9565b611e68565b3480156109ba57600080fd5b5061036d6109c9366004614426565b611f9d565b60006109d982612040565b90505b919050565b606060c980546109f0906148fe565b80601f0160208091040260200160405190810160405280929190818152602001828054610a1c906148fe565b8015610a695780601f10610a3e57610100808354040283529160200191610a69565b820191906000526020600020905b815481529060010190602001808311610a4c57829003601f168201915b505050505090505b90565b600081815260cb60205260408120546001600160a01b0316610af25760405162461bcd60e51b815260206004820152602c60248201527f4552433732313a20617070726f76656420717565727920666f72206e6f6e657860448201526b34b9ba32b73a103a37b5b2b760a11b60648201526084015b60405180910390fd5b50600090815260cd60205260409020546001600160a01b031690565b6000610b19826115c2565b9050806001600160a01b0316836001600160a01b03161415610ba35760405162461bcd60e51b815260206004820152602160248201527f4552433732313a20617070726f76616c20746f2063757272656e74206f776e6560448201527f72000000000000000000000000000000000000000000000000000000000000006064820152608401610ae9565b336001600160a01b0382161480610bbf5750610bbf8133610933565b610c315760405162461bcd60e51b815260206004820152603860248201527f4552433732313a20617070726f76652063616c6c6572206973206e6f74206f7760448201527f6e6572206e6f7220617070726f76656420666f7220616c6c00000000000000006064820152608401610ae9565b610c3b838361207e565b505050565b6000610c4c6101f55490565b610c5c576101f5545b9050610a71565b6001610c686101f55490565b610c5591906148bb565b33610c7c826115c2565b6001600160a01b031614610cf85760405162461bcd60e51b815260206004820152602360248201527f43616c6c6572206d75737420626520746865206f776e6572206f66207468652060448201527f4e465400000000000000000000000000000000000000000000000000000000006064820152608401610ae9565b610d01816120ec565b600081815261028d60205260409081902090517f544b1d1249133c50ce89743ed1ca34a815bd50d42b71e6d331a1ac560013a8ec91610d439133918591614686565b60405180910390a150565b610d59335b8261211a565b610dcb5760405162461bcd60e51b815260206004820152603160248201527f4552433732313a207472616e736665722063616c6c6572206973206e6f74206f60448201527f776e6572206e6f7220617070726f7665640000000000000000000000000000006064820152608401610ae9565b610c3b838383612211565b610259546001600160a01b03163314610e315760405162461bcd60e51b815260206004820181905260248201527f4f776e61626c653a2063616c6c6572206973206e6f7420746865206f776e65726044820152606401610ae9565b600081118015610e44575061028f548111155b610edc5760405162461bcd60e51b815260206004820152604760248201527f576974686472617720616d6f756e742073686f756c642062652067726561746560448201527f72207468656e203020616e64206c657373207468656e20636f6e74726163742060648201527f62616c616e636500000000000000000000000000000000000000000000000000608482015260a401610ae9565b8061028f6000828254610eef91906148bb565b9091555050604051600090339083908381818185875af1925050503d8060008114610f36576040519150601f19603f3d011682016040523d82523d6000602084013e610f3b565b606091505b5050905080610f8c5760405162461bcd60e51b815260206004820152601060248201527f5472616e73666572206661696c65642e000000000000000000000000000000006044820152606401610ae9565b60408051338152602081018490527f3c897fa64265e543b9d36df079688f87240185d1bf1a937e4c45a56e1167873691015b60405180910390a15050565b610fd482826123e9565b6000828152609760205260409020610c3b9082612482565b6000610ff78361164d565b821061106b5760405162461bcd60e51b815260206004820152602b60248201527f455243373231456e756d657261626c653a206f776e657220696e646578206f7560448201527f74206f6620626f756e64730000000000000000000000000000000000000000006064820152608401610ae9565b506001600160a01b038216600090815260fb602090815260408083208484529091529020545b92915050565b6110a26000336106b6565b6111145760405162461bcd60e51b815260206004820152603460248201527f73657442617365546f6b656e5552493a206d75737420686176652041444d494e60448201527f20726f6c6520746f206368616e676520746869730000000000000000000000006064820152608401610ae9565b8051611128906101f6906020840190613f71565b5050565b6111368282612497565b6000828152609760205260409020610c3b908261251f565b6111787f65d7a28e3265b37a6474929f336521b332c1681b933f6cb9f3376673440d862a336106b6565b6111ec576040805162461bcd60e51b81526020600482015260248101919091527f4552433732315072657365744d696e7465725061757365724175746f49643a2060448201527f6d75737420686176652070617573657220726f6c6520746f20756e70617573656064820152608401610ae9565b6111f4612534565b565b610c3b83838360405180602001604052806000815250611a14565b61121a33610d53565b61128c5760405162461bcd60e51b815260206004820152603060248201527f4552433732314275726e61626c653a2063616c6c6572206973206e6f74206f7760448201527f6e6572206e6f7220617070726f766564000000000000000000000000000000006064820152608401610ae9565b611295816125d3565b50565b6112c27f8a9d57248f1015d5cac20111fe2512477434cf493627e5e959ca751e593d8079336106b6565b6113345760405162461bcd60e51b815260206004820152603460248201527f6d696e74576974685552493a206d757374206861766520504f4c594e4554574f60448201527f524b5f524f4c4520726f6c6520746f206d696e740000000000000000000000006064820152608401610ae9565b600082815260cb60205260409020546001600160a01b0316156113995760405162461bcd60e51b815260206004820152601660248201527f746f6b656e20696420616c7265616479206578697374000000000000000000006044820152606401610ae9565b6113a383836125dc565b610c3b82826125e6565b60006113b860fd5490565b821061142c5760405162461bcd60e51b815260206004820152602c60248201527f455243373231456e756d657261626c653a20676c6f62616c20696e646578206f60448201527f7574206f6620626f756e647300000000000000000000000000000000000000006064820152608401610ae9565b60fd828154811061144d57634e487b7160e01b600052603260045260246000fd5b90600052602060002001549050919050565b60026102275414156114b35760405162461bcd60e51b815260206004820152601f60248201527f5265656e7472616e637947756172643a207265656e7472616e742063616c6c006044820152606401610ae9565b6002610227556114c2846125f0565b60006114cc610c40565b8451909150156114e0576114e08185612612565b6040805160008152602081018083528151902091611500918691016145ce565b604051602081830303815290604052805190602001201461152557611525818461293b565b6040805160008152602081018083528151902091611545918591016145ce565b604051602081830303815290604052805190602001201461156a5761156a818361298d565b6115726129ad565b7fe7cd4ce7f2a465edc730269a1305e8a48bad821e8fb7e152ec413829c01a53c4858261159e84611be9565b6040516115ad93929190614655565b60405180910390a15050600161022755505050565b600081815260cb60205260408120546001600160a01b0316806109d95760405162461bcd60e51b815260206004820152602960248201527f4552433732313a206f776e657220717565727920666f72206e6f6e657869737460448201527f656e7420746f6b656e00000000000000000000000000000000000000000000006064820152608401610ae9565b60006001600160a01b0382166116cb5760405162461bcd60e51b815260206004820152602a60248201527f4552433732313a2062616c616e636520717565727920666f7220746865207a6560448201527f726f2061646472657373000000000000000000000000000000000000000000006064820152608401610ae9565b506001600160a01b0316600090815260cc602052604090205490565b610259546001600160a01b031633146117425760405162461bcd60e51b815260206004820181905260248201527f4f776e61626c653a2063616c6c6572206973206e6f7420746865206f776e65726044820152606401610ae9565b610259546040516000916001600160a01b0316907f8be0079c531659141344cd1fd0a4f28419497f9722a3daafe3b4186f6b6457e0908390a361025980546001600160a01b0319169055565b600061179a6101f55490565b905090565b6117c97f65d7a28e3265b37a6474929f336521b332c1681b933f6cb9f3376673440d862a336106b6565b61183b5760405162461bcd60e51b815260206004820152603e60248201527f4552433732315072657365744d696e7465725061757365724175746f49643a2060448201527f6d75737420686176652070617573657220726f6c6520746f20706175736500006064820152608401610ae9565b6111f4612a81565b600082815260976020526040812061185b9083612b0b565b9392505050565b606060ca80546109f0906148fe565b6001600160a01b0382163314156118ca5760405162461bcd60e51b815260206004820152601960248201527f4552433732313a20617070726f766520746f2063616c6c6572000000000000006044820152606401610ae9565b33600081815260ce602090815260408083206001600160a01b0387168085529252909120805460ff1916841515179055906001600160a01b03167f17307eab39ab6107e8899845ad3d59bd9653f200f220920489ca2b5937696c3183604051611937911515815260200190565b60405180910390a35050565b600054610100900460ff168061195c575060005460ff16155b6119bf5760405162461bcd60e51b815260206004820152602e60248201527f496e697469616c697a61626c653a20636f6e747261637420697320616c72656160448201526d191e481a5b9a5d1a585b1a5e995960921b6064820152608401610ae9565b600054610100900460ff161580156119e1576000805461ffff19166101011790555b6119eb8484612b17565b6119f482612bf3565b6119fc612d45565b8015611a0e576000805461ff00191690555b50505050565b611a1e338361211a565b611a905760405162461bcd60e51b815260206004820152603160248201527f4552433732313a207472616e736665722063616c6c6572206973206e6f74206f60448201527f776e6572206e6f7220617070726f7665640000000000000000000000000000006064820152608401610ae9565b611a0e84848484612e3b565b600081815261028c60209081526040808320805482518185028101850190935280835260609493849084015b82821015611b10576000848152602090819020604080518082019091526002850290910180546001600160a01b03168252600190810154828401529083529092019101611ac8565b5050505090506000815167ffffffffffffffff811115611b4057634e487b7160e01b600052604160045260246000fd5b604051908082528060200260200182016040528015611b69578160200160208202803683370190505b50905060005b8251811015611be157828181518110611b9857634e487b7160e01b600052603260045260246000fd5b602002602001015160200151828281518110611bc457634e487b7160e01b600052603260045260246000fd5b602090810291909101015280611bd981614939565b915050611b6f565b509392505050565b60606109d982612ec4565b60008181526097602052604081206109d990613044565b60005b815181101561112857611c47828281518110611c3a57634e487b7160e01b600052603260045260246000fd5b6020026020010151611211565b80611c5181614939565b915050611c0e565b611136828261304e565b611c6e6000336106b6565b611ce05760405162461bcd60e51b815260206004820152602c60248201527f43616c6c6572206d75737420686176652061646d696e20726f6c6520746f207360448201527f6574206d696e74206665657300000000000000000000000000000000000000006064820152608401610ae9565b6102908190556040518181527f0f3b48a5cb203023dd681facda0506fea024143e07ad14ff26c35d22204c310890602001610d43565b600081815261028c60209081526040808320805482518185028101850190935280835260609493849084015b82821015611d8a576000848152602090819020604080518082019091526002850290910180546001600160a01b03168252600190810154828401529083529092019101611d42565b5050505090506000815167ffffffffffffffff811115611dba57634e487b7160e01b600052604160045260246000fd5b604051908082528060200260200182016040528015611de3578160200160208202803683370190505b50905060005b8251811015611be157828181518110611e1257634e487b7160e01b600052603260045260246000fd5b602002602001015160000151828281518110611e3e57634e487b7160e01b600052603260045260246000fd5b6001600160a01b039092166020928302919091019091015280611e6081614939565b915050611de9565b610259546001600160a01b03163314611ec35760405162461bcd60e51b815260206004820181905260248201527f4f776e61626c653a2063616c6c6572206973206e6f7420746865206f776e65726044820152606401610ae9565b6001600160a01b038116611f3f5760405162461bcd60e51b815260206004820152602660248201527f4f776e61626c653a206e6577206f776e657220697320746865207a65726f206160448201527f64647265737300000000000000000000000000000000000000000000000000006064820152608401610ae9565b610259546040516001600160a01b038084169216907f8be0079c531659141344cd1fd0a4f28419497f9722a3daafe3b4186f6b6457e090600090a361025980546001600160a01b0319166001600160a01b0392909216919091179055565b600081815261028b60205260409020805460609190611fbb906148fe565b80601f0160208091040260200160405190810160405280929190818152602001828054611fe7906148fe565b80156120345780601f1061200957610100808354040283529160200191612034565b820191906000526020600020905b81548152906001019060200180831161201757829003601f168201915b50505050509050919050565b60006001600160e01b031982167f780e9d630000000000000000000000000000000000000000000000000000000014806109d957506109d9826130db565b600081815260cd6020526040902080546001600160a01b0319166001600160a01b03841690811790915581906120b3826115c2565b6001600160a01b03167f8c5be1e5ebec7d5bd14f71427d1e84f3dd0314c0f7b2291e5b200ac8c7c3b92560405160405180910390a45050565b600081815261028e602052604090205461210790600161488f565b600091825261028e602052604090912055565b600081815260cb60205260408120546001600160a01b03166121935760405162461bcd60e51b815260206004820152602c60248201527f4552433732313a206f70657261746f7220717565727920666f72206e6f6e657860448201526b34b9ba32b73a103a37b5b2b760a11b6064820152608401610ae9565b600061219e836115c2565b9050806001600160a01b0316846001600160a01b031614806121d95750836001600160a01b03166121ce84610a74565b6001600160a01b0316145b8061220957506001600160a01b03808216600090815260ce602090815260408083209388168352929052205460ff165b949350505050565b826001600160a01b0316612224826115c2565b6001600160a01b0316146122a05760405162461bcd60e51b815260206004820152602960248201527f4552433732313a207472616e73666572206f6620746f6b656e2074686174206960448201527f73206e6f74206f776e00000000000000000000000000000000000000000000006064820152608401610ae9565b6001600160a01b03821661231b5760405162461bcd60e51b8152602060048201526024808201527f4552433732313a207472616e7366657220746f20746865207a65726f2061646460448201527f72657373000000000000000000000000000000000000000000000000000000006064820152608401610ae9565b61232683838361314d565b61233160008261207e565b6001600160a01b038316600090815260cc6020526040812080546001929061235a9084906148bb565b90915550506001600160a01b038216600090815260cc6020526040812080546001929061238890849061488f565b9091555050600081815260cb602052604080822080546001600160a01b0319166001600160a01b0386811691821790925591518493918716917fddf252ad1be2c89b69c2b068fc378daa952ba7f163c4a11628f55a4df523b3ef91a4505050565b600082815260656020526040902060010154612406905b336106b6565b6124785760405162461bcd60e51b815260206004820152602f60248201527f416363657373436f6e74726f6c3a2073656e646572206d75737420626520616e60448201527f2061646d696e20746f206772616e7400000000000000000000000000000000006064820152608401610ae9565b6111288282613158565b600061185b836001600160a01b0384166131fa565b6001600160a01b03811633146125155760405162461bcd60e51b815260206004820152602f60248201527f416363657373436f6e74726f6c3a2063616e206f6e6c792072656e6f756e636560448201527f20726f6c657320666f722073656c6600000000000000000000000000000000006064820152608401610ae9565b6111288282613249565b600061185b836001600160a01b0384166132cc565b61015f5460ff166125875760405162461bcd60e51b815260206004820152601460248201527f5061757361626c653a206e6f74207061757365640000000000000000000000006044820152606401610ae9565b61015f805460ff191690557f5db9ee0a495bf2e6ff9c91a7834c1ba4fdd244a5e8aa4e537bd38aeae4b073aa335b6040516001600160a01b0390911681526020015b60405180910390a1565b611295816133e9565b611128828261342b565b6111288282613445565b612603816125fe6101f55490565b6134ef565b6112956101f580546001019055565b600082815260cb60205260409020546001600160a01b031661268b5760405162461bcd60e51b815260206004820152602c60248201527f4552433732313a20617070726f76656420717565727920666f72206e6f6e657860448201526b34b9ba32b73a103a37b5b2b760a11b6064820152608401610ae9565b60005b8151811015610c3b5760006001600160a01b03168282815181106126c257634e487b7160e01b600052603260045260246000fd5b6020026020010151600001516001600160a01b031614156127255760405162461bcd60e51b815260206004820152601b60248201527f526563697069656e742073686f756c642062652070726573656e7400000000006044820152606401610ae9565b600082828151811061274757634e487b7160e01b600052603260045260246000fd5b602002602001015160200151116127c65760405162461bcd60e51b815260206004820152602260248201527f526f79616c746965732076616c75652073686f756c6420626520706f7369746960448201527f76650000000000000000000000000000000000000000000000000000000000006064820152608401610ae9565b600083815261028c6020526040902082518390839081106127f757634e487b7160e01b600052603260045260246000fd5b6020908102919091018101518254600180820185556000948552838520835160029093020180546001600160a01b0319166001600160a01b039093169290921782559190920151910155825167ffffffffffffffff81111561286957634e487b7160e01b600052604160045260246000fd5b604051908082528060200260200182016040528015612892578160200160208202803683370190505b5090506000835167ffffffffffffffff8111156128bf57634e487b7160e01b600052604160045260246000fd5b6040519080825280602002602001820160405280156128e8578160200160208202803683370190505b5090507f0daca41cf9c4835da0ce078144fcf7e2000a66f040f7e82fe43f4e5d234bb6bb85838360405161291e939291906147b8565b60405180910390a15050808061293390614939565b91505061268e565b600082815261028b60209081526040909120825161295b92840190613f71565b507f701be7c18389620e1de28c2c2c047271c46744dea76cb7667f428af200ef4dde8282604051610fbe929190614821565b600082815261028d602090815260409091208251610c3b92840190613f71565b6102905415612a2e57610290543414612a2e5760405162461bcd60e51b815260206004820152603260248201527f57726f6e6720666565732076616c75652073656e7420746f2047686f73744d6160448201527f726b657420666f72206d696e74206665657300000000000000000000000000006064820152608401610ae9565b34156111f4573461028f6000828254612a47919061488f565b9091555050604080513381523460208201527f86fd2931c72e6506df6648fdf34478f061d20ac75b5a331312bc3a65b86d829a91016125c9565b61015f5460ff1615612ad55760405162461bcd60e51b815260206004820152601060248201527f5061757361626c653a20706175736564000000000000000000000000000000006044820152606401610ae9565b61015f805460ff191660011790557f62e78cea01bee320cd4e420270b5ea74000d11b0c9f74754ebdbfc544b05a2586125b53390565b600061185b838361363d565b600054610100900460ff1680612b30575060005460ff16155b612b935760405162461bcd60e51b815260206004820152602e60248201527f496e697469616c697a61626c653a20636f6e747261637420697320616c72656160448201526d191e481a5b9a5d1a585b1a5e995960921b6064820152608401610ae9565b600054610100900460ff16158015612bb5576000805461ffff19166101011790555b8251612bc89060c9906020860190613f71565b508151612bdc9060ca906020850190613f71565b508015610c3b576000805461ff0019169055505050565b600054610100900460ff1680612c0c575060005460ff16155b612c6f5760405162461bcd60e51b815260206004820152602e60248201527f496e697469616c697a61626c653a20636f6e747261637420697320616c72656160448201526d191e481a5b9a5d1a585b1a5e995960921b6064820152608401610ae9565b600054610100900460ff16158015612c91576000805461ffff19166101011790555b8151612ca5906101f6906020850190613f71565b50612cb26000335b6136ec565b612cdc7f9f2df0fed2c77648de5860a4cc508cd0818c85b8b8a1ab4ceeef8d981c8956a633612cad565b612d067f65d7a28e3265b37a6474929f336521b332c1681b933f6cb9f3376673440d862a33612cad565b612d307f8a9d57248f1015d5cac20111fe2512477434cf493627e5e959ca751e593d807933612cad565b8015611128576000805461ff00191690555050565b600054610100900460ff1680612d5e575060005460ff16155b612dc15760405162461bcd60e51b815260206004820152602e60248201527f496e697469616c697a61626c653a20636f6e747261637420697320616c72656160448201526d191e481a5b9a5d1a585b1a5e995960921b6064820152608401610ae9565b600054610100900460ff16158015612de3576000805461ffff19166101011790555b61025980546001600160a01b0319163390811790915560405181906000907f8be0079c531659141344cd1fd0a4f28419497f9722a3daafe3b4186f6b6457e0908290a3508015611295576000805461ff001916905550565b612e46848484612211565b612e52848484846136f6565b611a0e5760405162461bcd60e51b815260206004820152603260248201527f4552433732313a207472616e7366657220746f206e6f6e20455243373231526560448201527f63656976657220696d706c656d656e74657200000000000000000000000000006064820152608401610ae9565b600081815260cb60205260409020546060906001600160a01b0316612f515760405162461bcd60e51b815260206004820152603160248201527f45524337323155524953746f726167653a2055524920717565727920666f722060448201527f6e6f6e6578697374656e7420746f6b656e0000000000000000000000000000006064820152608401610ae9565b60008281526101c3602052604081208054612f6b906148fe565b80601f0160208091040260200160405190810160405280929190818152602001828054612f97906148fe565b8015612fe45780601f10612fb957610100808354040283529160200191612fe4565b820191906000526020600020905b815481529060010190602001808311612fc757829003601f168201915b505050505090506000612ff5613859565b9050805160001415613009575090506109dc565b81511561303b5780826040516020016130239291906145ea565b604051602081830303815290604052925050506109dc565b61220984613869565b60006109d9825490565b60008281526065602052604090206001015461306990612400565b6125155760405162461bcd60e51b815260206004820152603060248201527f416363657373436f6e74726f6c3a2073656e646572206d75737420626520616e60448201527f2061646d696e20746f207265766f6b65000000000000000000000000000000006064820152608401610ae9565b60006001600160e01b031982167f80ac58cd00000000000000000000000000000000000000000000000000000000148061313e57506001600160e01b031982167f5b5e139f00000000000000000000000000000000000000000000000000000000145b806109d957506109d982613951565b610c3b83838361398f565b60008281526065602090815260408083206001600160a01b038516845290915290205460ff166111285760008281526065602090815260408083206001600160a01b03851684529091529020805460ff191660011790556131b63390565b6001600160a01b0316816001600160a01b0316837f2f8788117e7eff1d82e926ec794901d17c78024a50270940304540a733656f0d60405160405180910390a45050565b600081815260018301602052604081205461324157508154600181810184556000848152602080822090930184905584548482528286019093526040902091909155611091565b506000611091565b60008281526065602090815260408083206001600160a01b038516845290915290205460ff16156111285760008281526065602090815260408083206001600160a01b0385168085529252808320805460ff1916905551339285917ff6391f5c32d9c69d2a47ea670b442974b53935d1edc7fd64eb21e047a839171b9190a45050565b600081815260018301602052604081205480156133df5760006132f06001836148bb565b8554909150600090613304906001906148bb565b9050600086600001828154811061332b57634e487b7160e01b600052603260045260246000fd5b906000526020600020015490508087600001848154811061335c57634e487b7160e01b600052603260045260246000fd5b60009182526020909120015561337383600161488f565b600082815260018901602052604090205586548790806133a357634e487b7160e01b600052603160045260246000fd5b60019003818190600052602060002001600090559055866001016000878152602001908152602001600020600090556001945050505050611091565b6000915050611091565b6133f281613a14565b60008181526101c360205260409020805461340c906148fe565b1590506112955760008181526101c36020526040812061129591613ff5565b611128828260405180602001604052806000815250613abb565b600082815260cb60205260409020546001600160a01b03166134cf5760405162461bcd60e51b815260206004820152602e60248201527f45524337323155524953746f726167653a2055524920736574206f66206e6f6e60448201527f6578697374656e7420746f6b656e0000000000000000000000000000000000006064820152608401610ae9565b60008281526101c3602090815260409091208251610c3b92840190613f71565b6001600160a01b0382166135455760405162461bcd60e51b815260206004820181905260248201527f4552433732313a206d696e7420746f20746865207a65726f20616464726573736044820152606401610ae9565b600081815260cb60205260409020546001600160a01b0316156135aa5760405162461bcd60e51b815260206004820152601c60248201527f4552433732313a20746f6b656e20616c7265616479206d696e746564000000006044820152606401610ae9565b6135b66000838361314d565b6001600160a01b038216600090815260cc602052604081208054600192906135df90849061488f565b9091555050600081815260cb602052604080822080546001600160a01b0319166001600160a01b03861690811790915590518392907fddf252ad1be2c89b69c2b068fc378daa952ba7f163c4a11628f55a4df523b3ef908290a45050565b815460009082106136b65760405162461bcd60e51b815260206004820152602260248201527f456e756d657261626c655365743a20696e646578206f7574206f6620626f756e60448201527f64730000000000000000000000000000000000000000000000000000000000006064820152608401610ae9565b8260000182815481106136d957634e487b7160e01b600052603260045260246000fd5b9060005260206000200154905092915050565b610fd48282612478565b60006001600160a01b0384163b1561384e57604051630a85bd0160e11b81526001600160a01b0385169063150b7a029061373a903390899088908890600401614619565b602060405180830381600087803b15801561375457600080fd5b505af1925050508015613784575060408051601f3d908101601f191682019092526137819181019061449f565b60015b613834573d8080156137b2576040519150601f19603f3d011682016040523d82523d6000602084013e6137b7565b606091505b50805161382c5760405162461bcd60e51b815260206004820152603260248201527f4552433732313a207472616e7366657220746f206e6f6e20455243373231526560448201527f63656976657220696d706c656d656e74657200000000000000000000000000006064820152608401610ae9565b805181602001fd5b6001600160e01b031916630a85bd0160e11b149050612209565b506001949350505050565b60606101f680546109f0906148fe565b600081815260cb60205260409020546060906001600160a01b03166138f65760405162461bcd60e51b815260206004820152602f60248201527f4552433732314d657461646174613a2055524920717565727920666f72206e6f60448201527f6e6578697374656e7420746f6b656e00000000000000000000000000000000006064820152608401610ae9565b6000613900613859565b90506000815111613920576040518060200160405280600081525061185b565b8061392a84613b44565b60405160200161393b9291906145ea565b6040516020818303038152906040529392505050565b60006001600160e01b031982167f5a05180f0000000000000000000000000000000000000000000000000000000014806109d957506109d982613c93565b61399a838383613cfa565b61015f5460ff1615610c3b5760405162461bcd60e51b815260206004820152602b60248201527f4552433732315061757361626c653a20746f6b656e207472616e73666572207760448201527f68696c65207061757365640000000000000000000000000000000000000000006064820152608401610ae9565b6000613a1f826115c2565b9050613a2d8160008461314d565b613a3860008361207e565b6001600160a01b038116600090815260cc60205260408120805460019290613a619084906148bb565b9091555050600082815260cb602052604080822080546001600160a01b0319169055518391906001600160a01b038416907fddf252ad1be2c89b69c2b068fc378daa952ba7f163c4a11628f55a4df523b3ef908390a45050565b613ac583836134ef565b613ad260008484846136f6565b610c3b5760405162461bcd60e51b815260206004820152603260248201527f4552433732313a207472616e7366657220746f206e6f6e20455243373231526560448201527f63656976657220696d706c656d656e74657200000000000000000000000000006064820152608401610ae9565b606081613b85575060408051808201909152600181527f300000000000000000000000000000000000000000000000000000000000000060208201526109dc565b8160005b8115613baf5780613b9981614939565b9150613ba89050600a836148a7565b9150613b89565b60008167ffffffffffffffff811115613bd857634e487b7160e01b600052604160045260246000fd5b6040519080825280601f01601f191660200182016040528015613c02576020820181803683370190505b5090505b841561220957613c176001836148bb565b9150613c24600a86614954565b613c2f90603061488f565b60f81b818381518110613c5257634e487b7160e01b600052603260045260246000fd5b60200101907effffffffffffffffffffffffffffffffffffffffffffffffffffffffffffff1916908160001a905350613c8c600a866148a7565b9450613c06565b60006001600160e01b031982167f7965db0b0000000000000000000000000000000000000000000000000000000014806109d957507f01ffc9a7000000000000000000000000000000000000000000000000000000006001600160e01b03198316146109d9565b6001600160a01b038316613d5557613d508160fd8054600083815260fe60205260408120829055600182018355919091527f9346ac6dd7de6b96975fec380d4d994c4c12e6a8897544f22915316cc6cca2800155565b613d78565b816001600160a01b0316836001600160a01b031614613d7857613d788382613db7565b6001600160a01b038216613d9457613d8f81613e54565b610c3b565b826001600160a01b0316826001600160a01b031614610c3b57610c3b8282613f2d565b60006001613dc48461164d565b613dce91906148bb565b600083815260fc6020526040902054909150808214613e21576001600160a01b038416600090815260fb60209081526040808320858452825280832054848452818420819055835260fc90915290208190555b50600091825260fc602090815260408084208490556001600160a01b03909416835260fb81528383209183525290812055565b60fd54600090613e66906001906148bb565b600083815260fe602052604081205460fd8054939450909284908110613e9c57634e487b7160e01b600052603260045260246000fd5b906000526020600020015490508060fd8381548110613ecb57634e487b7160e01b600052603260045260246000fd5b600091825260208083209091019290925582815260fe909152604080822084905585825281205560fd805480613f1157634e487b7160e01b600052603160045260246000fd5b6001900381819060005260206000200160009055905550505050565b6000613f388361164d565b6001600160a01b03909316600090815260fb60209081526040808320868452825280832085905593825260fc9052919091209190915550565b828054613f7d906148fe565b90600052602060002090601f016020900481019282613f9f5760008555613fe5565b82601f10613fb857805160ff1916838001178555613fe5565b82800160010185558215613fe5579182015b82811115613fe5578251825591602001919060010190613fca565b50613ff192915061402d565b5090565b508054614001906148fe565b6000825580601f106140135750611295565b601f01602090049060005260206000209081019061129591905b5b80821115613ff1576000815560010161402e565b600067ffffffffffffffff83111561405c5761405c614994565b61406f601f8401601f191660200161483a565b905082815283838301111561408357600080fd5b828260208301376000602084830101529392505050565b600082601f8301126140aa578081fd5b61185b83833560208501614042565b6000602082840312156140ca578081fd5b813561185b816149aa565b600080604083850312156140e7578081fd5b82356140f2816149aa565b91506020830135614102816149aa565b809150509250929050565b600080600060608486031215614121578081fd5b833561412c816149aa565b9250602084013561413c816149aa565b929592945050506040919091013590565b60008060008060808587031215614162578081fd5b843561416d816149aa565b9350602085013561417d816149aa565b925060408501359150606085013567ffffffffffffffff81111561419f578182fd5b8501601f810187136141af578182fd5b6141be87823560208401614042565b91505092959194509250565b600080600080608085870312156141df578384fd5b84356141ea816149aa565b935060208581013567ffffffffffffffff80821115614207578586fd5b818801915088601f83011261421a578586fd5b813561422d6142288261486b565b61483a565b8082825285820191508585018c878560061b880101111561424c57898afd5b8995505b8386101561429957604080828f031215614268578a8bfd5b6142718161483a565b823561427c816149aa565b815282890135898201528452600196909601959287019201614250565b509750505060408801359250808311156142b1578485fd5b6142bd89848a0161409a565b945060608801359250808311156142d2578384fd5b50506141be8782880161409a565b600080604083850312156142f2578182fd5b82356142fd816149aa565b915060208301358015158114614102578182fd5b60008060408385031215614323578182fd5b823561432e816149aa565b946020939093013593505050565b600080600060608486031215614350578081fd5b833561435b816149aa565b925060208401359150604084013567ffffffffffffffff81111561437d578182fd5b6143898682870161409a565b9150509250925092565b600060208083850312156143a5578182fd5b823567ffffffffffffffff8111156143bb578283fd5b8301601f810185136143cb578283fd5b80356143d96142288261486b565b80828252848201915084840188868560051b87010111156143f8578687fd5b8694505b8385101561441a5780358352600194909401939185019185016143fc565b50979650505050505050565b600060208284031215614437578081fd5b5035919050565b60008060408385031215614450578182fd5b823591506020830135614102816149aa565b60008060408385031215614474578182fd5b50508035926020909101359150565b600060208284031215614494578081fd5b813561185b816149bf565b6000602082840312156144b0578081fd5b815161185b816149bf565b6000602082840312156144cc578081fd5b813567ffffffffffffffff8111156144e2578182fd5b6122098482850161409a565b600080600060608486031215614502578081fd5b833567ffffffffffffffff80821115614519578283fd5b6145258783880161409a565b9450602086013591508082111561453a578283fd5b6145468783880161409a565b9350604086013591508082111561455b578283fd5b506143898682870161409a565b6000815180845260208085019450808401835b838110156145975781518752958201959082019060010161457b565b509495945050505050565b600081518084526145ba8160208601602086016148d2565b601f01601f19169290920160200192915050565b600082516145e08184602087016148d2565b9190910192915050565b600083516145fc8184602088016148d2565b8351908301906146108183602088016148d2565b01949350505050565b60006001600160a01b0380871683528086166020840152508360408301526080606083015261464b60808301846145a2565b9695505050505050565b60006001600160a01b03851682528360208301526060604083015261467d60608301846145a2565b95945050505050565b60006001600160a01b0385168252602084818401526060604084015281845483600182811c9150808316806146bc57607f831692505b8583108114156146da57634e487b7160e01b87526022600452602487fd5b60608801839052608088018180156146f9576001811461470a57614734565b60ff19861682528782019650614734565b60008b815260209020895b8681101561472e57815484820152908501908901614715565b83019750505b50949b9a5050505050505050505050565b6020808252825182820181905260009190848201906040850190845b818110156147865783516001600160a01b031683529284019291840191600101614761565b50909695505050505050565b60006020825261185b6020830184614568565b60006020825261185b60208301846145a2565b60006060820185835260206060818501528186518084526080860191508288019350845b818110156148015784516001600160a01b0316835293830193918301916001016147dc565b505084810360408601526148158187614568565b98975050505050505050565b60008382526040602083015261220960408301846145a2565b604051601f8201601f1916810167ffffffffffffffff8111828210171561486357614863614994565b604052919050565b600067ffffffffffffffff82111561488557614885614994565b5060051b60200190565b600082198211156148a2576148a2614968565b500190565b6000826148b6576148b661497e565b500490565b6000828210156148cd576148cd614968565b500390565b60005b838110156148ed5781810151838201526020016148d5565b83811115611a0e5750506000910152565b600181811c9082168061491257607f821691505b6020821081141561493357634e487b7160e01b600052602260045260246000fd5b50919050565b600060001982141561494d5761494d614968565b5060010190565b6000826149635761496361497e565b500690565b634e487b7160e01b600052601160045260246000fd5b634e487b7160e01b600052601260045260246000fd5b634e487b7160e01b600052604160045260246000fd5b6001600160a01b038116811461129557600080fd5b6001600160e01b03198116811461129557600080fdfea26469706673582212200f0a732d3cc7e07b0980aac1527c89d3d038c2baeb532991c265707a397ca3f864736f6c63430008030033",
  "immutableReferences": {},
  "source": "// SPDX-License-Identifier: MIT\npragma solidity ^0.8.3;\n\nimport \"./ERC721PresetMinterPauserAutoIdUpgradeable.sol\";\nimport \"@openzeppelin/contracts-upgradeable/security/ReentrancyGuardUpgradeable.sol\";\nimport \"@openzeppelin/contracts-upgradeable/access/OwnableUpgradeable.sol\";\n\n/**\n * @dev ERC721 token with minting, burning, pause, royalties & lock content functions.\n */\n\ncontract GhostMarketERC721 is Initializable, ERC721PresetMinterPauserAutoIdUpgradeable, ReentrancyGuardUpgradeable, OwnableUpgradeable {\n\n\t// struct for royalties fees\n\tstruct Royalty {\n\t\taddress payable recipient;\n\t\tuint256 value;\n\t}\n\n\t// tokenId => attributes array\n\tmapping(uint256 => string) internal _metadataJson;\n\n\t// tokenId => royalties array\n\tmapping(uint256 => Royalty[]) internal _royalties;\n\n\t// tokenId => locked content array\n\tmapping(uint256 => string) internal _lockedContent;\n\n\t// tokenId => locked content view counter array\n\tmapping(uint256 => uint256) internal _lockedContentViewTracker;\n\n\t// events\n\tevent RoyaltiesFeesSet(uint256 tokenId, address[] recipients, uint256[] bps);\n\tevent LockedContentViewed(address msgSender, uint256 tokenId, string lockedContent);\n\tevent AttributesSet(uint256 tokenId, string metadataJson);\n    event MintFeesWithdrawn(address feeWithdrawer, uint256 withdrawAmount);\n\tevent MintFeesChanged(uint256 newValue);\n\tevent MintFeesPaid(address sender, uint256 value);\n\tevent Minted(address toAddress, uint256 tokenId, string tokenURI);\n\n\t// mint fees balance\n\tuint256 internal _payedMintFeesBalance;\n\n\t// mint fees value\n\tuint256 internal _ghostmarketMintFees;\n\n\tfunction initialize(string memory name, string memory symbol, string memory uri)\n        public\n        override\n        initializer\n    {\n\t\t__ERC721_init_unchained(name, symbol);\n\t\t__ERC721PresetMinterPauserAutoId_init_unchained(uri);\n\t\t__Ownable_init_unchained();\n\t}\n\n\t/**\n\t * @dev set a NFT custom attributes to contract storage\n\t * emits AttributesSet event\n\t */\n\tfunction _setMetadataJson(uint256 tokenId, string memory metadataJson)\n        internal\n    {\n\t\t_metadataJson[tokenId] = metadataJson;\n\t\temit AttributesSet(tokenId, metadataJson);\n\t}\n\n    /**\n\t * @dev increment a NFT locked content view tracker\n\t */\n\tfunction _incrementCurrentLockedContentViewTracker(uint256 tokenId)\n        internal\n    {\n\t\t_lockedContentViewTracker[tokenId] = _lockedContentViewTracker[tokenId] + 1;\n\t}\n\n    /**\n\t * @dev set a NFT royalties fees & recipients\n\t * fee basis points 10000 = 100%\n\t * emits RoyaltiesFeesSet event if set\n\t */\n\tfunction _saveRoyalties(uint256 tokenId, Royalty[] memory royalties)\n        internal\n    {\n\t\trequire(_exists(tokenId), \"ERC721: approved query for nonexistent token\");\n\t\tfor (uint256 i = 0; i < royalties.length; i++) {\n\t\t\trequire(royalties[i].recipient != address(0x0), \"Recipient should be present\");\n\t\t\trequire(royalties[i].value > 0, \"Royalties value should be positive\");\n\t\t\t_royalties[tokenId].push(royalties[i]);\n\t\t\taddress[] memory recipients = new address[](royalties.length);\n\t\t\tuint256[] memory bps = new uint256[](royalties.length);\n\t\t\temit RoyaltiesFeesSet(tokenId, recipients, bps);\n\t\t}\n\t}\n\n    /**\n\t * @dev set a NFT locked content as string\n\t */\n\tfunction _setLockedContent(uint256 tokenId, string memory content)\n        internal\n    {\n\t\t_lockedContent[tokenId] = content;\n\t}\n\n    /**\n\t * @dev check mint fees sent to contract\n\t * emits MintFeesPaid event if set\n\t */\n\tfunction _checkMintFees()\n        internal\n    {\n\t\tif (_ghostmarketMintFees > 0) {\n\t\t\trequire(msg.value == _ghostmarketMintFees, \"Wrong fees value sent to GhostMarket for mint fees\");\n\t\t}\n\t\tif (msg.value > 0) {\n\t\t\t_payedMintFeesBalance += msg.value;\n\t\t\temit MintFeesPaid(msg.sender, msg.value);\n\t\t}\n\t}\n\n\t/**\n\t * @dev mint NFT, set royalties, set metadata json, set lockedcontent\n\t * emits Minted event\n\t */\n\tfunction mintGhost(address to, Royalty[] memory royalties, string memory metadata, string memory lockedcontent)\n        external\n        payable\n        nonReentrant\n    {\n\t\tmint(to);\n\t\tuint256 tokenId = getLastTokenID();\n\t\tif (royalties.length > 0) {\n\t\t\t_saveRoyalties(tokenId, royalties);\n\t\t}\n\t\tif (keccak256(abi.encodePacked(metadata)) != keccak256(abi.encodePacked(\"\"))) {\n\t\t\t_setMetadataJson(tokenId, metadata);\n\t\t}\n\t\tif (keccak256(abi.encodePacked(lockedcontent)) != keccak256(abi.encodePacked(\"\"))) {\n\t\t\t_setLockedContent(tokenId, lockedcontent);\n\t\t}\n\t\t_checkMintFees();\n\t\temit Minted(to, tokenId, tokenURI(tokenId));\n\t}\n\n    /**\n     * @dev withdraw contract balance\n     * emits MintFeesWithdrawn event\n     */\n\tfunction withdraw(uint256 withdrawAmount)\n\t\texternal\n\t\tonlyOwner\n\t{\n\t\trequire(withdrawAmount > 0 && withdrawAmount <= _payedMintFeesBalance, \"Withdraw amount should be greater then 0 and less then contract balance\");\n\t\t_payedMintFeesBalance -= withdrawAmount;\n\t\t(bool success, ) = msg.sender.call{value: withdrawAmount}(\"\");\n\t\trequire(success, \"Transfer failed.\");\n\t\temit MintFeesWithdrawn(msg.sender, withdrawAmount);\n\t}\n\n    /**\n\t * @dev bulk burn NFT\n\t */\n\tfunction burnBulk(uint256[] memory tokensId)\n        external\n    {\n\t\tfor (uint256 i = 0; i < tokensId.length; i++) {\n\t\t\tburn(tokensId[i]);\n\t\t}\n\t}\n\n\t/**\n\t * @dev sets Ghostmarket mint fees as uint256\n\t * emits MintFeesChanged event\n\t */\n\tfunction setGhostmarketMintFee(uint256 gmmf)\n        external\n    {\n\t\trequire(hasRole(DEFAULT_ADMIN_ROLE, _msgSender()), \"Caller must have admin role to set mint fees\");\n\t\t_ghostmarketMintFees = gmmf;\n\t\temit MintFeesChanged(_ghostmarketMintFees);\n\t}\n\n\t/**\n\t * @return get Ghostmarket mint fees\n\t */\n\tfunction getGhostmarketMintFees()\n        external\n        view\n        returns (uint256)\n    {\n\t\treturn _ghostmarketMintFees;\n\t}\n\n\t/**\n\t * @dev get locked content for a NFT\n\t * emits LockedContentViewed event\n\t */\n\tfunction getLockedContent(uint256 tokenId)\n        external\n    {\n\t\trequire(ownerOf(tokenId) == msg.sender, \"Caller must be the owner of the NFT\");\n\t\t_incrementCurrentLockedContentViewTracker(tokenId);\n\t\temit LockedContentViewed(msg.sender, tokenId, _lockedContent[tokenId]);\n\t}\n\n\t/**\n\t * @dev get a NFT current locked content view tracker\n\t */\n\tfunction getCurrentLockedContentViewTracker(uint256 tokenId)\n        external\n        view\n        returns (uint256)\n    {\n\t\treturn _lockedContentViewTracker[tokenId];\n\t}\n\n    /**\n\t * @dev get a NFT custom attributes\n\t */\n\tfunction getMetadataJson(uint256 tokenId)\n        external\n        view\n        returns (string memory)\n    {\n\t\treturn _metadataJson[tokenId];\n\t}\n\n\t/**\n\t * @dev get a NFT royalties recipients\n\t */\n\tfunction getRoyaltiesRecipients(uint256 tokenId)\n        external\n        view\n        returns (address payable[] memory)\n    {\n\t\tRoyalty[] memory royalties = _royalties[tokenId];\n\t\taddress payable[] memory result = new address payable[](royalties.length);\n\t\tfor (uint256 i = 0; i < royalties.length; i++) {\n\t\t\tresult[i] = royalties[i].recipient;\n\t\t}\n\t\treturn result;\n\t}\n\n\t/**\n\t * @dev get a NFT royalties fees\n\t * fee basis points 10000 = 100%\n\t */\n\tfunction getRoyaltiesBps(uint256 tokenId)\n        external\n        view\n        returns (uint256[] memory)\n    {\n\t\tRoyalty[] memory royalties = _royalties[tokenId];\n\t\tuint256[] memory result = new uint256[](royalties.length);\n\t\tfor (uint256 i = 0; i < royalties.length; i++) {\n\t\t\tresult[i] = royalties[i].value;\n\t\t}\n\t\treturn result;\n\t}\n}\n",
  "sourcePath": "/Users/selimerunkut/dev_freelance/GhostMarketContractBSC/contracts/GhostmarketERC721.sol",
  "compiler": {
    "name": "solc",
    "version": "0.8.3+commit.8d00100c.Emscripten.clang"
  },
  "schemaVersion": "3.4.1",
  "updatedAt": "2021-05-16T15:29:28.932Z",
  "devdoc": {
    "details": "ERC721 token with minting, burning, pause, royalties & lock content functions.",
    "kind": "dev",
    "methods": {
      "approve(address,uint256)": {
        "details": "See {IERC721-approve}."
      },
      "balanceOf(address)": {
        "details": "See {IERC721-balanceOf}."
      },
      "burn(uint256)": {
        "details": "Burns `tokenId`. See {ERC721-_burn}. Requirements: - The caller must own `tokenId` or be an approved operator."
      },
      "burnBulk(uint256[])": {
        "details": "bulk burn NFT"
      },
      "getApproved(uint256)": {
        "details": "See {IERC721-getApproved}."
      },
      "getCurrentLockedContentViewTracker(uint256)": {
        "details": "get a NFT current locked content view tracker"
      },
      "getGhostmarketMintFees()": {
        "returns": {
          "_0": "get Ghostmarket mint fees"
        }
      },
      "getLockedContent(uint256)": {
        "details": "get locked content for a NFT emits LockedContentViewed event"
      },
      "getMetadataJson(uint256)": {
        "details": "get a NFT custom attributes"
      },
      "getRoleAdmin(bytes32)": {
        "details": "Returns the admin role that controls `role`. See {grantRole} and {revokeRole}. To change a role's admin, use {_setRoleAdmin}."
      },
      "getRoleMember(bytes32,uint256)": {
        "details": "Returns one of the accounts that have `role`. `index` must be a value between 0 and {getRoleMemberCount}, non-inclusive. Role bearers are not sorted in any particular way, and their ordering may change at any point. WARNING: When using {getRoleMember} and {getRoleMemberCount}, make sure you perform all queries on the same block. See the following https://forum.openzeppelin.com/t/iterating-over-elements-on-enumerableset-in-openzeppelin-contracts/2296[forum post] for more information."
      },
      "getRoleMemberCount(bytes32)": {
        "details": "Returns the number of accounts that have `role`. Can be used together with {getRoleMember} to enumerate all bearers of a role."
      },
      "getRoyaltiesBps(uint256)": {
        "details": "get a NFT royalties fees fee basis points 10000 = 100%"
      },
      "getRoyaltiesRecipients(uint256)": {
        "details": "get a NFT royalties recipients"
      },
      "grantRole(bytes32,address)": {
        "details": "Overload {grantRole} to track enumerable memberships"
      },
      "hasRole(bytes32,address)": {
        "details": "Returns `true` if `account` has been granted `role`."
      },
      "isApprovedForAll(address,address)": {
        "details": "See {IERC721-isApprovedForAll}."
      },
      "mintGhost(address,(address,uint256)[],string,string)": {
        "details": "mint NFT, set royalties, set metadata json, set lockedcontent emits Minted event"
      },
      "mintWithURI(address,uint256,string)": {
        "details": "polynetwork CrossChainNFTMapping"
      },
      "name()": {
        "details": "See {IERC721Metadata-name}."
      },
      "owner()": {
        "details": "Returns the address of the current owner."
      },
      "ownerOf(uint256)": {
        "details": "See {IERC721-ownerOf}."
      },
      "pause()": {
        "details": "Pauses all token transfers. See {ERC721Pausable} and {Pausable-_pause}. Requirements: - the caller must have the `PAUSER_ROLE`."
      },
      "paused()": {
        "details": "Returns true if the contract is paused, and false otherwise."
      },
      "renounceOwnership()": {
        "details": "Leaves the contract without owner. It will not be possible to call `onlyOwner` functions anymore. Can only be called by the current owner. NOTE: Renouncing ownership will leave the contract without an owner, thereby removing any functionality that is only available to the owner."
      },
      "renounceRole(bytes32,address)": {
        "details": "Overload {renounceRole} to track enumerable memberships"
      },
      "revokeRole(bytes32,address)": {
        "details": "Overload {revokeRole} to track enumerable memberships"
      },
      "safeTransferFrom(address,address,uint256)": {
        "details": "See {IERC721-safeTransferFrom}."
      },
      "safeTransferFrom(address,address,uint256,bytes)": {
        "details": "See {IERC721-safeTransferFrom}."
      },
      "setApprovalForAll(address,bool)": {
        "details": "See {IERC721-setApprovalForAll}."
      },
      "setGhostmarketMintFee(uint256)": {
        "details": "sets Ghostmarket mint fees as uint256 emits MintFeesChanged event"
      },
      "supportsInterface(bytes4)": {
        "details": "See {IERC165-supportsInterface}."
      },
      "symbol()": {
        "details": "See {IERC721Metadata-symbol}."
      },
      "tokenByIndex(uint256)": {
        "details": "See {IERC721Enumerable-tokenByIndex}."
      },
      "tokenOfOwnerByIndex(address,uint256)": {
        "details": "See {IERC721Enumerable-tokenOfOwnerByIndex}."
      },
      "tokenURI(uint256)": {
        "details": "See {IERC721Metadata-tokenURI}."
      },
      "totalSupply()": {
        "details": "See {IERC721Enumerable-totalSupply}."
      },
      "transferFrom(address,address,uint256)": {
        "details": "See {IERC721-transferFrom}."
      },
      "transferOwnership(address)": {
        "details": "Transfers ownership of the contract to a new account (`newOwner`). Can only be called by the current owner."
      },
      "unpause()": {
        "details": "Unpauses all token transfers. See {ERC721Pausable} and {Pausable-_unpause}. Requirements: - the caller must have the `PAUSER_ROLE`."
      },
      "withdraw(uint256)": {
        "details": "withdraw contract balance emits MintFeesWithdrawn event"
      }
    },
    "version": 1
  },
  "userdoc": {
    "kind": "user",
    "methods": {},
    "version": 1
  }
}