{
  "contractName": "GhostmarketNFT",
  "abi": [
    {
      "anonymous": false,
      "inputs": [
        {
          "indexed": true,
          "internalType": "address",
          "name": "owner",
          "type": "address"
        },
        {
          "indexed": true,
          "internalType": "address",
          "name": "approved",
          "type": "address"
        },
        {
          "indexed": true,
          "internalType": "uint256",
          "name": "tokenId",
          "type": "uint256"
        }
      ],
      "name": "Approval",
      "type": "event"
    },
    {
      "anonymous": false,
      "inputs": [
        {
          "indexed": true,
          "internalType": "address",
          "name": "owner",
          "type": "address"
        },
        {
          "indexed": true,
          "internalType": "address",
          "name": "operator",
          "type": "address"
        },
        {
          "indexed": false,
          "internalType": "bool",
          "name": "approved",
          "type": "bool"
        }
      ],
      "name": "ApprovalForAll",
      "type": "event"
    },
    {
      "anonymous": false,
      "inputs": [
        {
          "indexed": false,
          "internalType": "uint256",
          "name": "tokenId",
          "type": "uint256"
        },
        {
          "components": [
            {
              "internalType": "string",
              "name": "key",
              "type": "string"
            },
            {
              "internalType": "string",
              "name": "value",
              "type": "string"
            }
          ],
          "indexed": false,
          "internalType": "struct GhostmarketNFT.AttributesStruct[]",
          "name": "attributes",
          "type": "tuple[]"
        }
      ],
      "name": "AttributesSet",
      "type": "event"
    },
    {
      "anonymous": false,
      "inputs": [
        {
          "indexed": false,
          "internalType": "address",
          "name": "newValue",
          "type": "address"
        }
      ],
      "name": "GhostmarketFeeAddressChanged",
      "type": "event"
    },
    {
      "anonymous": false,
      "inputs": [
        {
          "indexed": false,
          "internalType": "uint256",
          "name": "newValue",
          "type": "uint256"
        }
      ],
      "name": "GhostmarketFeeMultiplierChanged",
      "type": "event"
    },
    {
      "anonymous": false,
      "inputs": [
        {
          "indexed": false,
          "internalType": "address",
          "name": "sender",
          "type": "address"
        },
        {
          "indexed": false,
          "internalType": "uint256",
          "name": "value",
          "type": "uint256"
        }
      ],
      "name": "GhostmarketFeePaid",
      "type": "event"
    },
    {
      "anonymous": false,
      "inputs": [
        {
          "indexed": false,
          "internalType": "uint256",
          "name": "newValue",
          "type": "uint256"
        }
      ],
      "name": "GhostmarketMintFeeChanged",
      "type": "event"
    },
    {
      "anonymous": false,
      "inputs": [
        {
          "indexed": false,
          "internalType": "address",
          "name": "msgSender",
          "type": "address"
        },
        {
          "indexed": false,
          "internalType": "uint256",
          "name": "tokenId",
          "type": "uint256"
        },
        {
          "indexed": false,
          "internalType": "string",
          "name": "lockedContent",
          "type": "string"
        }
      ],
      "name": "LockedContentViewed",
      "type": "event"
    },
    {
      "anonymous": false,
      "inputs": [
        {
          "indexed": false,
          "internalType": "address",
          "name": "account",
          "type": "address"
        }
      ],
      "name": "Paused",
      "type": "event"
    },
    {
      "anonymous": false,
      "inputs": [
        {
          "indexed": true,
          "internalType": "bytes32",
          "name": "role",
          "type": "bytes32"
        },
        {
          "indexed": true,
          "internalType": "bytes32",
          "name": "previousAdminRole",
          "type": "bytes32"
        },
        {
          "indexed": true,
          "internalType": "bytes32",
          "name": "newAdminRole",
          "type": "bytes32"
        }
      ],
      "name": "RoleAdminChanged",
      "type": "event"
    },
    {
      "anonymous": false,
      "inputs": [
        {
          "indexed": true,
          "internalType": "bytes32",
          "name": "role",
          "type": "bytes32"
        },
        {
          "indexed": true,
          "internalType": "address",
          "name": "account",
          "type": "address"
        },
        {
          "indexed": true,
          "internalType": "address",
          "name": "sender",
          "type": "address"
        }
      ],
      "name": "RoleGranted",
      "type": "event"
    },
    {
      "anonymous": false,
      "inputs": [
        {
          "indexed": true,
          "internalType": "bytes32",
          "name": "role",
          "type": "bytes32"
        },
        {
          "indexed": true,
          "internalType": "address",
          "name": "account",
          "type": "address"
        },
        {
          "indexed": true,
          "internalType": "address",
          "name": "sender",
          "type": "address"
        }
      ],
      "name": "RoleRevoked",
      "type": "event"
    },
    {
      "anonymous": false,
      "inputs": [
        {
          "indexed": false,
          "internalType": "uint256",
          "name": "tokenId",
          "type": "uint256"
        },
        {
          "indexed": false,
          "internalType": "address[]",
          "name": "recipients",
          "type": "address[]"
        },
        {
          "indexed": false,
          "internalType": "uint256[]",
          "name": "bps",
          "type": "uint256[]"
        }
      ],
      "name": "SecondarySaleFees",
      "type": "event"
    },
    {
      "anonymous": false,
      "inputs": [
        {
          "indexed": true,
          "internalType": "address",
          "name": "from",
          "type": "address"
        },
        {
          "indexed": true,
          "internalType": "address",
          "name": "to",
          "type": "address"
        },
        {
          "indexed": true,
          "internalType": "uint256",
          "name": "tokenId",
          "type": "uint256"
        }
      ],
      "name": "Transfer",
      "type": "event"
    },
    {
      "anonymous": false,
      "inputs": [
        {
          "indexed": false,
          "internalType": "address",
          "name": "account",
          "type": "address"
        }
      ],
      "name": "Unpaused",
      "type": "event"
    },
    {
      "inputs": [],
      "name": "DEFAULT_ADMIN_ROLE",
      "outputs": [
        {
          "internalType": "bytes32",
          "name": "",
          "type": "bytes32"
        }
      ],
      "stateMutability": "view",
      "type": "function"
    },
    {
      "inputs": [],
      "name": "MINTER_ROLE",
      "outputs": [
        {
          "internalType": "bytes32",
          "name": "",
          "type": "bytes32"
        }
      ],
      "stateMutability": "view",
      "type": "function"
    },
    {
      "inputs": [],
      "name": "PAUSER_ROLE",
      "outputs": [
        {
          "internalType": "bytes32",
          "name": "",
          "type": "bytes32"
        }
      ],
      "stateMutability": "view",
      "type": "function"
    },
    {
      "inputs": [
        {
          "internalType": "uint256",
          "name": "",
          "type": "uint256"
        }
      ],
      "name": "_lockedContent",
      "outputs": [
        {
          "internalType": "string",
          "name": "",
          "type": "string"
        }
      ],
      "stateMutability": "view",
      "type": "function"
    },
    {
      "inputs": [
        {
          "internalType": "address",
          "name": "to",
          "type": "address"
        },
        {
          "internalType": "uint256",
          "name": "tokenId",
          "type": "uint256"
        }
      ],
      "name": "approve",
      "outputs": [],
      "stateMutability": "nonpayable",
      "type": "function"
    },
    {
      "inputs": [
        {
          "internalType": "uint256",
          "name": "",
          "type": "uint256"
        },
        {
          "internalType": "uint256",
          "name": "",
          "type": "uint256"
        }
      ],
      "name": "attribute",
      "outputs": [
        {
          "internalType": "string",
          "name": "key",
          "type": "string"
        },
        {
          "internalType": "string",
          "name": "value",
          "type": "string"
        }
      ],
      "stateMutability": "view",
      "type": "function"
    },
    {
      "inputs": [
        {
          "internalType": "address",
          "name": "owner",
          "type": "address"
        }
      ],
      "name": "balanceOf",
      "outputs": [
        {
          "internalType": "uint256",
          "name": "",
          "type": "uint256"
        }
      ],
      "stateMutability": "view",
      "type": "function"
    },
    {
      "inputs": [
        {
          "internalType": "uint256",
          "name": "tokenId",
          "type": "uint256"
        }
      ],
      "name": "burn",
      "outputs": [],
      "stateMutability": "nonpayable",
      "type": "function"
    },
    {
      "inputs": [
        {
          "internalType": "uint256",
          "name": "",
          "type": "uint256"
        },
        {
          "internalType": "uint256",
          "name": "",
          "type": "uint256"
        }
      ],
      "name": "fees",
      "outputs": [
        {
          "internalType": "address payable",
          "name": "recipient",
          "type": "address"
        },
        {
          "internalType": "uint256",
          "name": "value",
          "type": "uint256"
        }
      ],
      "stateMutability": "view",
      "type": "function"
    },
    {
      "inputs": [
        {
          "internalType": "uint256",
          "name": "tokenId",
          "type": "uint256"
        }
      ],
      "name": "getApproved",
      "outputs": [
        {
          "internalType": "address",
          "name": "",
          "type": "address"
        }
      ],
      "stateMutability": "view",
      "type": "function"
    },
    {
      "inputs": [],
      "name": "getCurrentCounter",
      "outputs": [
        {
          "internalType": "uint256",
          "name": "",
          "type": "uint256"
        }
      ],
      "stateMutability": "view",
      "type": "function"
    },
    {
      "inputs": [
        {
          "internalType": "bytes32",
          "name": "role",
          "type": "bytes32"
        }
      ],
      "name": "getRoleAdmin",
      "outputs": [
        {
          "internalType": "bytes32",
          "name": "",
          "type": "bytes32"
        }
      ],
      "stateMutability": "view",
      "type": "function"
    },
    {
      "inputs": [
        {
          "internalType": "bytes32",
          "name": "role",
          "type": "bytes32"
        },
        {
          "internalType": "uint256",
          "name": "index",
          "type": "uint256"
        }
      ],
      "name": "getRoleMember",
      "outputs": [
        {
          "internalType": "address",
          "name": "",
          "type": "address"
        }
      ],
      "stateMutability": "view",
      "type": "function"
    },
    {
      "inputs": [
        {
          "internalType": "bytes32",
          "name": "role",
          "type": "bytes32"
        }
      ],
      "name": "getRoleMemberCount",
      "outputs": [
        {
          "internalType": "uint256",
          "name": "",
          "type": "uint256"
        }
      ],
      "stateMutability": "view",
      "type": "function"
    },
    {
      "inputs": [
        {
          "internalType": "bytes32",
          "name": "role",
          "type": "bytes32"
        },
        {
          "internalType": "address",
          "name": "account",
          "type": "address"
        }
      ],
      "name": "grantRole",
      "outputs": [],
      "stateMutability": "nonpayable",
      "type": "function"
    },
    {
      "inputs": [
        {
          "internalType": "bytes32",
          "name": "role",
          "type": "bytes32"
        },
        {
          "internalType": "address",
          "name": "account",
          "type": "address"
        }
      ],
      "name": "hasRole",
      "outputs": [
        {
          "internalType": "bool",
          "name": "",
          "type": "bool"
        }
      ],
      "stateMutability": "view",
      "type": "function"
    },
    {
      "inputs": [
        {
          "internalType": "address",
          "name": "owner",
          "type": "address"
        },
        {
          "internalType": "address",
          "name": "operator",
          "type": "address"
        }
      ],
      "name": "isApprovedForAll",
      "outputs": [
        {
          "internalType": "bool",
          "name": "",
          "type": "bool"
        }
      ],
      "stateMutability": "view",
      "type": "function"
    },
    {
      "inputs": [],
      "name": "name",
      "outputs": [
        {
          "internalType": "string",
          "name": "",
          "type": "string"
        }
      ],
      "stateMutability": "view",
      "type": "function"
    },
    {
      "inputs": [
        {
          "internalType": "uint256",
          "name": "tokenId",
          "type": "uint256"
        }
      ],
      "name": "ownerOf",
      "outputs": [
        {
          "internalType": "address",
          "name": "",
          "type": "address"
        }
      ],
      "stateMutability": "view",
      "type": "function"
    },
    {
      "inputs": [],
      "name": "pause",
      "outputs": [],
      "stateMutability": "nonpayable",
      "type": "function"
    },
    {
      "inputs": [],
      "name": "paused",
      "outputs": [
        {
          "internalType": "bool",
          "name": "",
          "type": "bool"
        }
      ],
      "stateMutability": "view",
      "type": "function"
    },
    {
      "inputs": [
        {
          "internalType": "bytes32",
          "name": "role",
          "type": "bytes32"
        },
        {
          "internalType": "address",
          "name": "account",
          "type": "address"
        }
      ],
      "name": "renounceRole",
      "outputs": [],
      "stateMutability": "nonpayable",
      "type": "function"
    },
    {
      "inputs": [
        {
          "internalType": "bytes32",
          "name": "role",
          "type": "bytes32"
        },
        {
          "internalType": "address",
          "name": "account",
          "type": "address"
        }
      ],
      "name": "revokeRole",
      "outputs": [],
      "stateMutability": "nonpayable",
      "type": "function"
    },
    {
      "inputs": [
        {
          "internalType": "address",
          "name": "from",
          "type": "address"
        },
        {
          "internalType": "address",
          "name": "to",
          "type": "address"
        },
        {
          "internalType": "uint256",
          "name": "tokenId",
          "type": "uint256"
        }
      ],
      "name": "safeTransferFrom",
      "outputs": [],
      "stateMutability": "nonpayable",
      "type": "function"
    },
    {
      "inputs": [
        {
          "internalType": "address",
          "name": "from",
          "type": "address"
        },
        {
          "internalType": "address",
          "name": "to",
          "type": "address"
        },
        {
          "internalType": "uint256",
          "name": "tokenId",
          "type": "uint256"
        },
        {
          "internalType": "bytes",
          "name": "_data",
          "type": "bytes"
        }
      ],
      "name": "safeTransferFrom",
      "outputs": [],
      "stateMutability": "nonpayable",
      "type": "function"
    },
    {
      "inputs": [
        {
          "internalType": "address",
          "name": "operator",
          "type": "address"
        },
        {
          "internalType": "bool",
          "name": "approved",
          "type": "bool"
        }
      ],
      "name": "setApprovalForAll",
      "outputs": [],
      "stateMutability": "nonpayable",
      "type": "function"
    },
    {
      "inputs": [
        {
          "internalType": "bytes4",
          "name": "interfaceId",
          "type": "bytes4"
        }
      ],
      "name": "supportsInterface",
      "outputs": [
        {
          "internalType": "bool",
          "name": "",
          "type": "bool"
        }
      ],
      "stateMutability": "view",
      "type": "function"
    },
    {
      "inputs": [],
      "name": "symbol",
      "outputs": [
        {
          "internalType": "string",
          "name": "",
          "type": "string"
        }
      ],
      "stateMutability": "view",
      "type": "function"
    },
    {
      "inputs": [
        {
          "internalType": "uint256",
          "name": "index",
          "type": "uint256"
        }
      ],
      "name": "tokenByIndex",
      "outputs": [
        {
          "internalType": "uint256",
          "name": "",
          "type": "uint256"
        }
      ],
      "stateMutability": "view",
      "type": "function"
    },
    {
      "inputs": [
        {
          "internalType": "address",
          "name": "owner",
          "type": "address"
        },
        {
          "internalType": "uint256",
          "name": "index",
          "type": "uint256"
        }
      ],
      "name": "tokenOfOwnerByIndex",
      "outputs": [
        {
          "internalType": "uint256",
          "name": "",
          "type": "uint256"
        }
      ],
      "stateMutability": "view",
      "type": "function"
    },
    {
      "inputs": [
        {
          "internalType": "uint256",
          "name": "tokenId",
          "type": "uint256"
        }
      ],
      "name": "tokenURI",
      "outputs": [
        {
          "internalType": "string",
          "name": "",
          "type": "string"
        }
      ],
      "stateMutability": "view",
      "type": "function"
    },
    {
      "inputs": [],
      "name": "totalSupply",
      "outputs": [
        {
          "internalType": "uint256",
          "name": "",
          "type": "uint256"
        }
      ],
      "stateMutability": "view",
      "type": "function"
    },
    {
      "inputs": [
        {
          "internalType": "address",
          "name": "from",
          "type": "address"
        },
        {
          "internalType": "address",
          "name": "to",
          "type": "address"
        },
        {
          "internalType": "uint256",
          "name": "tokenId",
          "type": "uint256"
        }
      ],
      "name": "transferFrom",
      "outputs": [],
      "stateMutability": "nonpayable",
      "type": "function"
    },
    {
      "inputs": [],
      "name": "unpause",
      "outputs": [],
      "stateMutability": "nonpayable",
      "type": "function"
    },
    {
      "inputs": [
        {
          "internalType": "string",
          "name": "name",
          "type": "string"
        },
        {
          "internalType": "string",
          "name": "symbol",
          "type": "string"
        },
        {
          "internalType": "string",
          "name": "uri",
          "type": "string"
        }
      ],
      "name": "initialize",
      "outputs": [],
      "stateMutability": "nonpayable",
      "type": "function"
    },
    {
      "inputs": [
        {
          "internalType": "uint256",
          "name": "_tokenId",
          "type": "uint256"
        }
      ],
      "name": "getAttributes",
      "outputs": [
        {
          "components": [
            {
              "internalType": "string",
              "name": "key",
              "type": "string"
            },
            {
              "internalType": "string",
              "name": "value",
              "type": "string"
            }
          ],
          "internalType": "struct GhostmarketNFT.AttributesStruct[]",
          "name": "",
          "type": "tuple[]"
        }
      ],
      "stateMutability": "view",
      "type": "function"
    },
    {
      "inputs": [
        {
          "internalType": "uint256",
          "name": "_tokenId",
          "type": "uint256"
        }
      ],
      "name": "getFeeRecipients",
      "outputs": [
        {
          "internalType": "address payable[]",
          "name": "",
          "type": "address[]"
        }
      ],
      "stateMutability": "view",
      "type": "function"
    },
    {
      "inputs": [
        {
          "internalType": "uint256",
          "name": "_tokenId",
          "type": "uint256"
        }
      ],
      "name": "getFeeBps",
      "outputs": [
        {
          "internalType": "uint256[]",
          "name": "",
          "type": "uint256[]"
        }
      ],
      "stateMutability": "view",
      "type": "function"
    },
    {
      "inputs": [
        {
          "internalType": "uint256",
          "name": "_tokenId",
          "type": "uint256"
        },
        {
          "internalType": "address",
          "name": "_from",
          "type": "address"
        },
        {
          "internalType": "uint256",
          "name": "_value",
          "type": "uint256"
        }
      ],
      "name": "updateRecipientsFees",
      "outputs": [],
      "stateMutability": "nonpayable",
      "type": "function"
    },
    {
      "inputs": [
        {
          "internalType": "uint256",
          "name": "_tokenId",
          "type": "uint256"
        },
        {
          "internalType": "address",
          "name": "_from",
          "type": "address"
        },
        {
          "internalType": "address",
          "name": "_to",
          "type": "address"
        }
      ],
      "name": "updateFeeAccount",
      "outputs": [],
      "stateMutability": "nonpayable",
      "type": "function"
    },
    {
      "inputs": [
        {
          "internalType": "address",
          "name": "_to",
          "type": "address"
        },
        {
          "components": [
            {
              "internalType": "address payable",
              "name": "recipient",
              "type": "address"
            },
            {
              "internalType": "uint256",
              "name": "value",
              "type": "uint256"
            }
          ],
          "internalType": "struct GhostmarketNFT.Fee[]",
          "name": "_fees",
          "type": "tuple[]"
        },
        {
          "components": [
            {
              "internalType": "string",
              "name": "key",
              "type": "string"
            },
            {
              "internalType": "string",
              "name": "value",
              "type": "string"
            }
          ],
          "internalType": "struct GhostmarketNFT.AttributesStruct[]",
          "name": "_attributes",
          "type": "tuple[]"
        },
        {
          "internalType": "string",
          "name": "lockedcontent",
          "type": "string"
        }
      ],
      "name": "mint",
      "outputs": [],
      "stateMutability": "nonpayable",
      "type": "function"
    },
    {
      "inputs": [
        {
          "internalType": "address",
          "name": "to",
          "type": "address"
        }
      ],
      "name": "mint",
      "outputs": [],
      "stateMutability": "nonpayable",
      "type": "function"
    },
    {
      "inputs": [
        {
          "internalType": "address",
          "name": "_to",
          "type": "address"
        },
        {
          "components": [
            {
              "internalType": "address payable",
              "name": "recipient",
              "type": "address"
            },
            {
              "internalType": "uint256",
              "name": "value",
              "type": "uint256"
            }
          ],
          "internalType": "struct GhostmarketNFT.Fee[]",
          "name": "_fees",
          "type": "tuple[]"
        },
        {
          "components": [
            {
              "internalType": "string",
              "name": "key",
              "type": "string"
            },
            {
              "internalType": "string",
              "name": "value",
              "type": "string"
            }
          ],
          "internalType": "struct GhostmarketNFT.AttributesStruct[]",
          "name": "_attributes",
          "type": "tuple[]"
        },
        {
          "internalType": "string",
          "name": "lockedcontent",
          "type": "string"
        }
      ],
      "name": "mintWithFee",
      "outputs": [],
      "stateMutability": "payable",
      "type": "function"
    },
    {
      "inputs": [
        {
          "internalType": "address payable",
          "name": "gmfa",
          "type": "address"
        }
      ],
      "name": "setGhostmarketFeeAddress",
      "outputs": [],
      "stateMutability": "nonpayable",
      "type": "function"
    },
    {
      "inputs": [
        {
          "internalType": "uint256",
          "name": "gmfm",
          "type": "uint256"
        }
      ],
      "name": "setGhostmarketFeeMultiplier",
      "outputs": [],
      "stateMutability": "nonpayable",
      "type": "function"
    },
    {
      "inputs": [
        {
          "internalType": "uint256",
          "name": "gmmf",
          "type": "uint256"
        }
      ],
      "name": "setGhostmarketMintFee",
      "outputs": [],
      "stateMutability": "nonpayable",
      "type": "function"
    },
    {
      "inputs": [],
      "name": "ghostmarketFeeAddress",
      "outputs": [
        {
          "internalType": "address payable",
          "name": "",
          "type": "address"
        }
      ],
      "stateMutability": "view",
      "type": "function"
    },
    {
      "inputs": [],
      "name": "ghostmarketMintingFee",
      "outputs": [
        {
          "internalType": "uint256",
          "name": "",
          "type": "uint256"
        }
      ],
      "stateMutability": "view",
      "type": "function"
    },
    {
      "inputs": [],
      "name": "ghostmarketFeeMultiplier",
      "outputs": [
        {
          "internalType": "uint256",
          "name": "",
          "type": "uint256"
        }
      ],
      "stateMutability": "view",
      "type": "function"
    },
    {
      "inputs": [
        {
          "internalType": "uint256",
          "name": "_tokenId",
          "type": "uint256"
        }
      ],
      "name": "getLockedContent",
      "outputs": [
        {
          "internalType": "string",
          "name": "",
          "type": "string"
        }
      ],
      "stateMutability": "nonpayable",
      "type": "function"
    },
    {
      "inputs": [
        {
          "internalType": "uint256",
          "name": "_tokenId",
          "type": "uint256"
        }
      ],
      "name": "getCurrentLockedContentViewTracker",
      "outputs": [
        {
          "internalType": "uint256",
          "name": "",
          "type": "uint256"
        }
      ],
      "stateMutability": "view",
      "type": "function"
    }
  ],
  "bytecode": "0x608060405234801561001057600080fd5b50614cdb806100206000396000f3fe6080604052600436106103345760003560e01c80636a627842116101b0578063c6f4f0f0116100ec578063e38189c911610095578063f67684fd1161006f578063f67684fd146109e0578063fb3e09af146109f3578063fc24a8a914610a12578063ffbd264d14610a3257610334565b8063e38189c91461094d578063e63ab1e914610963578063e985e9c51461099757610334565b8063d5391393116100c6578063d5391393146108d9578063d547741f1461090d578063dac0f3d91461092d57610334565b8063c6f4f0f01461086b578063c87b56dd14610899578063ca15c873146108b957610334565b806395d89b4111610159578063a6487c5311610133578063a6487c53146107de578063b88d4fde146107fe578063b9c4d9fb1461081e578063c20b83361461084b57610334565b806395d89b4114610794578063a217fddf146107a9578063a22cb465146107be57610334565b80638456cb591161018a5780638456cb59146107195780639010d07c1461072e57806391d148541461074e57610334565b80636a627842146106c457806370a08231146106e457806373448c461461070457610334565b806336568abe1161027f5780634378a6e3116102285780635c975abb116102025780635c975abb146106365780636213801f1461064f5780636308f1cd146106655780636352211e146106a457610334565b80634378a6e3146105c95780634f6ccce7146105f6578063529aae661461061657610334565b80633f4ba83a116102595780633f4ba83a1461057457806342842e0e1461058957806342966c68146105a957610334565b806336568abe1461050657806336d8ec09146105265780633daab0321461054657610334565b806318160ddd116102e1578063248a9ca3116102bb578063248a9ca3146104965780632f2ff15d146104c65780632f745c59146104e657610334565b806318160ddd146104375780631c7e78f31461045657806323b872dd1461047657610334565b8063095ea7b311610312578063095ea7b3146103c85780630ebd4c7f146103ea5780630ffbe0c11461041757610334565b806301ffc9a71461033957806306fdde031461036e578063081812fc14610390575b600080fd5b34801561034557600080fd5b5061035961035436600461466c565b610a52565b60405190151581526020015b60405180910390f35b34801561037a57600080fd5b50610383610a65565b6040516103659190614a28565b34801561039c57600080fd5b506103b06103ab36600461460f565b610af7565b6040516001600160a01b039091168152602001610365565b3480156103d457600080fd5b506103e86103e33660046145e4565b610b91565b005b3480156103f657600080fd5b5061040a61040536600461460f565b610cc3565b6040516103659190614a15565b34801561042357600080fd5b506103e86104323660046144a2565b610e10565b34801561044357600080fd5b5060fd545b604051908152602001610365565b34801561046257600080fd5b5061038361047136600461460f565b610f8a565b34801561048257600080fd5b506103e86104913660046143e5565b61106a565b3480156104a257600080fd5b506104486104b136600461460f565b60009081526065602052604090206001015490565b3480156104d257600080fd5b506103e86104e1366004614627565b6110f2565b3480156104f257600080fd5b506104486105013660046145e4565b611114565b34801561051257600080fd5b506103e8610521366004614627565b6111bf565b34801561053257600080fd5b506103e8610541366004614728565b6111e1565b34801561055257600080fd5b5061056661056136600461464b565b61136c565b604051610365929190614a3b565b34801561058057600080fd5b506103e86114be565b34801561059557600080fd5b506103e86105a43660046143e5565b611566565b3480156105b557600080fd5b506103e86105c436600461460f565b611581565b3480156105d557600080fd5b506105e96105e436600461460f565b611608565b6040516103659190614a02565b34801561060257600080fd5b5061044861061136600461460f565b61179f565b34801561062257600080fd5b5061038361063136600461460f565b611851565b34801561064257600080fd5b5061015f5460ff16610359565b34801561065b57600080fd5b506101fa54610448565b34801561067157600080fd5b5061068561068036600461464b565b6118ec565b604080516001600160a01b039093168352602083019190915201610365565b3480156106b057600080fd5b506103b06106bf36600461460f565b611933565b3480156106d057600080fd5b506103e86106df366004614391565b6119be565b3480156106f057600080fd5b506104486106ff366004614391565b611a7c565b34801561071057600080fd5b50610448611b16565b34801561072557600080fd5b506103e8611b27565b34801561073a57600080fd5b506103b061074936600461464b565b611bcb565b34801561075a57600080fd5b50610359610769366004614627565b60009182526065602090815260408084206001600160a01b0393909316845291905290205460ff1690565b3480156107a057600080fd5b50610383611bea565b3480156107b557600080fd5b50610448600081565b3480156107ca57600080fd5b506103e86107d93660046145b3565b611bf9565b3480156107ea57600080fd5b506103e86107f93660046146a4565b611ccb565b34801561080a57600080fd5b506103e8610819366004614425565b611da4565b34801561082a57600080fd5b5061083e61083936600461460f565b611e2c565b60405161036591906149b5565b34801561085757600080fd5b506103e861086636600461460f565b611f7e565b34801561087757600080fd5b5061044861088636600461460f565b60009081526101f8602052604090205490565b3480156108a557600080fd5b506103836108b436600461460f565b612038565b3480156108c557600080fd5b506104486108d436600461460f565b612120565b3480156108e557600080fd5b506104487f9f2df0fed2c77648de5860a4cc508cd0818c85b8b8a1ab4ceeef8d981c8956a681565b34801561091957600080fd5b506103e8610928366004614627565b612137565b34801561093957600080fd5b506103e861094836600461460f565b612141565b34801561095957600080fd5b506101f954610448565b34801561096f57600080fd5b506104487f65d7a28e3265b37a6474929f336521b332c1681b933f6cb9f3376673440d862a81565b3480156109a357600080fd5b506103596109b23660046143ad565b6001600160a01b03918216600090815260ce6020908152604080832093909416825291909152205460ff1690565b6103e86109ee3660046144a2565b6121f4565b3480156109ff57600080fd5b506101fb546001600160a01b03166103b0565b348015610a1e57600080fd5b506103e8610a2d366004614391565b6122e3565b348015610a3e57600080fd5b506103e8610a4d366004614769565b6123af565b6000610a5d826125d7565b90505b919050565b606060c98054610a7490614bce565b80601f0160208091040260200160405190810160405280929190818152602001828054610aa090614bce565b8015610aed5780601f10610ac257610100808354040283529160200191610aed565b820191906000526020600020905b815481529060010190602001808311610ad057829003601f168201915b5050505050905090565b600081815260cb60205260408120546001600160a01b0316610b755760405162461bcd60e51b815260206004820152602c60248201527f4552433732313a20617070726f76656420717565727920666f72206e6f6e657860448201526b34b9ba32b73a103a37b5b2b760a11b60648201526084015b60405180910390fd5b50600090815260cd60205260409020546001600160a01b031690565b6000610b9c82611933565b9050806001600160a01b0316836001600160a01b03161415610c265760405162461bcd60e51b815260206004820152602160248201527f4552433732313a20617070726f76616c20746f2063757272656e74206f776e6560448201527f72000000000000000000000000000000000000000000000000000000000000006064820152608401610b6c565b336001600160a01b0382161480610c425750610c4281336109b2565b610cb45760405162461bcd60e51b815260206004820152603860248201527f4552433732313a20617070726f76652063616c6c6572206973206e6f74206f7760448201527f6e6572206e6f7220617070726f76656420666f7220616c6c00000000000000006064820152608401610b6c565b610cbe8383612615565b505050565b60008181526101f660209081526040808320805482518185028101850190935280835260609493849084015b82821015610d37576000848152602090819020604080518082019091526002850290910180546001600160a01b03168252600190810154828401529083529092019101610cef565b5050505090506000815167ffffffffffffffff811115610d6757634e487b7160e01b600052604160045260246000fd5b604051908082528060200260200182016040528015610d90578160200160208202803683370190505b50905060005b8251811015610e0857828181518110610dbf57634e487b7160e01b600052603260045260246000fd5b602002602001015160200151828281518110610deb57634e487b7160e01b600052603260045260246000fd5b602090810291909101015280610e0081614c09565b915050610d96565b509392505050565b610e19846119be565b60006001610e25611b16565b610e2f9190614b8b565b90506000845167ffffffffffffffff811115610e5b57634e487b7160e01b600052604160045260246000fd5b604051908082528060200260200182016040528015610e84578160200160208202803683370190505b5090506000855167ffffffffffffffff811115610eb157634e487b7160e01b600052604160045260246000fd5b604051908082528060200260200182016040528015610eda578160200160208202803683370190505b50865190915015610f2b57610eef8387612683565b7f99aba1d63749cfd5ad1afda7c4663840924d54eb5f005bbbeadedc6ec13674b2838383604051610f2293929190614a69565b60405180910390a15b845115610f3c57610f3c838661289d565b6040805160008152602081018083528151902091610f5c9187910161486f565b6040516020818303038152906040528051906020012014610f8157610f818385612b30565b50505050505050565b606033610f9683611933565b6001600160a01b0316146110125760405162461bcd60e51b815260206004820152602360248201527f43616c6c6572206d75737420626520746865206f776e6572206f66207468652060448201527f4e465400000000000000000000000000000000000000000000000000000000006064820152608401610b6c565b61101b82612b50565b60008281526101f760205260409081902090517f544b1d1249133c50ce89743ed1ca34a815bd50d42b71e6d331a1ac560013a8ec9161105d91339186916148f6565b60405180910390a1919050565b611075335b82612b7e565b6110e75760405162461bcd60e51b815260206004820152603160248201527f4552433732313a207472616e736665722063616c6c6572206973206e6f74206f60448201527f776e6572206e6f7220617070726f7665640000000000000000000000000000006064820152608401610b6c565b610cbe838383612c75565b6110fc8282612e4d565b6000828152609760205260409020610cbe9082612eea565b600061111f83611a7c565b82106111935760405162461bcd60e51b815260206004820152602b60248201527f455243373231456e756d657261626c653a206f776e657220696e646578206f7560448201527f74206f6620626f756e64730000000000000000000000000000000000000000006064820152608401610b6c565b506001600160a01b038216600090815260fb602090815260408083208484529091529020545b92915050565b6111c98282612eff565b6000828152609760205260409020610cbe9082612f87565b61120b7f9f2df0fed2c77648de5860a4cc508cd0818c85b8b8a1ab4ceeef8d981c8956a633610769565b61127d5760405162461bcd60e51b815260206004820152603660248201527f7570646174696e672066656520726563657069656e7473206973206e6f74206160448201527f6c6c6f7765642062792074686973206163636f756e74000000000000000000006064820152608401610b6c565b60008381526101f66020526040812054905b818110156113655760008581526101f66020526040902080546001600160a01b0386169190839081106112d257634e487b7160e01b600052603260045260246000fd5b60009182526020909120600290910201546001600160a01b031614156113535760008581526101f66020526040902080548491908390811061132457634e487b7160e01b600052603260045260246000fd5b6000918252602090912060029091020180546001600160a01b0319166001600160a01b03929092169190911790555b8061135d81614c09565b91505061128f565b5050505050565b6101f5602052816000526040600020818154811061138957600080fd5b9060005260206000209060020201600091509150508060000180546113ad90614bce565b80601f01602080910402602001604051908101604052809291908181526020018280546113d990614bce565b80156114265780601f106113fb57610100808354040283529160200191611426565b820191906000526020600020905b81548152906001019060200180831161140957829003601f168201915b50505050509080600101805461143b90614bce565b80601f016020809104026020016040519081016040528092919081815260200182805461146790614bce565b80156114b45780601f10611489576101008083540402835291602001916114b4565b820191906000526020600020905b81548152906001019060200180831161149757829003601f168201915b5050505050905082565b6114e87f65d7a28e3265b37a6474929f336521b332c1681b933f6cb9f3376673440d862a33610769565b61155c576040805162461bcd60e51b81526020600482015260248101919091527f4552433732315072657365744d696e7465725061757365724175746f49643a2060448201527f6d75737420686176652070617573657220726f6c6520746f20756e70617573656064820152608401610b6c565b611564612f9c565b565b610cbe83838360405180602001604052806000815250611da4565b61158a3361106f565b6115fc5760405162461bcd60e51b815260206004820152603060248201527f4552433732314275726e61626c653a2063616c6c6572206973206e6f74206f7760448201527f6e6572206e6f7220617070726f766564000000000000000000000000000000006064820152608401610b6c565b6116058161303a565b50565b60606101f56000838152602001908152602001600020805480602002602001604051908101604052809291908181526020016000905b82821015611794578382906000526020600020906002020160405180604001604052908160008201805461167190614bce565b80601f016020809104026020016040519081016040528092919081815260200182805461169d90614bce565b80156116ea5780601f106116bf576101008083540402835291602001916116ea565b820191906000526020600020905b8154815290600101906020018083116116cd57829003601f168201915b5050505050815260200160018201805461170390614bce565b80601f016020809104026020016040519081016040528092919081815260200182805461172f90614bce565b801561177c5780601f106117515761010080835404028352916020019161177c565b820191906000526020600020905b81548152906001019060200180831161175f57829003601f168201915b5050505050815250508152602001906001019061163e565b505050509050919050565b60006117aa60fd5490565b821061181e5760405162461bcd60e51b815260206004820152602c60248201527f455243373231456e756d657261626c653a20676c6f62616c20696e646578206f60448201527f7574206f6620626f756e647300000000000000000000000000000000000000006064820152608401610b6c565b60fd828154811061183f57634e487b7160e01b600052603260045260246000fd5b90600052602060002001549050919050565b6101f7602052600090815260409020805461186b90614bce565b80601f016020809104026020016040519081016040528092919081815260200182805461189790614bce565b80156118e45780601f106118b9576101008083540402835291602001916118e4565b820191906000526020600020905b8154815290600101906020018083116118c757829003601f168201915b505050505081565b6101f6602052816000526040600020818154811061190957600080fd5b6000918252602090912060029091020180546001909101546001600160a01b039091169250905082565b600081815260cb60205260408120546001600160a01b031680610a5d5760405162461bcd60e51b815260206004820152602960248201527f4552433732313a206f776e657220717565727920666f72206e6f6e657869737460448201527f656e7420746f6b656e00000000000000000000000000000000000000000000006064820152608401610b6c565b6119e87f9f2df0fed2c77648de5860a4cc508cd0818c85b8b8a1ab4ceeef8d981c8956a633610769565b611a5a5760405162461bcd60e51b815260206004820152603d60248201527f4552433732315072657365744d696e7465725061757365724175746f49643a2060448201527f6d7573742068617665206d696e74657220726f6c6520746f206d696e740000006064820152608401610b6c565b611a6d81611a686101c35490565b6130e1565b6116056101c380546001019055565b60006001600160a01b038216611afa5760405162461bcd60e51b815260206004820152602a60248201527f4552433732313a2062616c616e636520717565727920666f7220746865207a6560448201527f726f2061646472657373000000000000000000000000000000000000000000006064820152608401610b6c565b506001600160a01b0316600090815260cc602052604090205490565b6000611b226101c35490565b905090565b611b517f65d7a28e3265b37a6474929f336521b332c1681b933f6cb9f3376673440d862a33610769565b611bc35760405162461bcd60e51b815260206004820152603e60248201527f4552433732315072657365744d696e7465725061757365724175746f49643a2060448201527f6d75737420686176652070617573657220726f6c6520746f20706175736500006064820152608401610b6c565b61156461322f565b6000828152609760205260408120611be390836132b9565b9392505050565b606060ca8054610a7490614bce565b6001600160a01b038216331415611c525760405162461bcd60e51b815260206004820152601960248201527f4552433732313a20617070726f766520746f2063616c6c6572000000000000006044820152606401610b6c565b33600081815260ce602090815260408083206001600160a01b0387168085529252909120805460ff1916841515179055906001600160a01b03167f17307eab39ab6107e8899845ad3d59bd9653f200f220920489ca2b5937696c3183604051611cbf911515815260200190565b60405180910390a35050565b600054610100900460ff1680611ce4575060005460ff16155b611d475760405162461bcd60e51b815260206004820152602e60248201527f496e697469616c697a61626c653a20636f6e747261637420697320616c72656160448201526d191e481a5b9a5d1a585b1a5e995960921b6064820152608401610b6c565b600054610100900460ff16158015611d69576000805461ffff19166101011790555b611d7384846132c5565b611d7e8484846133a1565b6101fb805460ff60a01b191690558015611d9e576000805461ff00191690555b50505050565b611dae3383612b7e565b611e205760405162461bcd60e51b815260206004820152603160248201527f4552433732313a207472616e736665722063616c6c6572206973206e6f74206f60448201527f776e6572206e6f7220617070726f7665640000000000000000000000000000006064820152608401610b6c565b611d9e848484846134cb565b60008181526101f660209081526040808320805482518185028101850190935280835260609493849084015b82821015611ea0576000848152602090819020604080518082019091526002850290910180546001600160a01b03168252600190810154828401529083529092019101611e58565b5050505090506000815167ffffffffffffffff811115611ed057634e487b7160e01b600052604160045260246000fd5b604051908082528060200260200182016040528015611ef9578160200160208202803683370190505b50905060005b8251811015610e0857828181518110611f2857634e487b7160e01b600052603260045260246000fd5b602002602001015160000151828281518110611f5457634e487b7160e01b600052603260045260246000fd5b6001600160a01b039092166020928302919091019091015280611f7681614c09565b915050611eff565b611f89600033610769565b611ffb5760405162461bcd60e51b815260206004820152603660248201527f43616c6c6572206d75737420686176652061646d696e20726f6c6520746f207360448201527f6574206d696e74696e67206665652070657263656e74000000000000000000006064820152608401610b6c565b6101f98190556040518181527f7bc6903b724da310ba4dbf15a52e7ae8597dcbe9763ff4d88e2b197a648b4a31906020015b60405180910390a150565b600081815260cb60205260409020546060906001600160a01b03166120c55760405162461bcd60e51b815260206004820152602f60248201527f4552433732314d657461646174613a2055524920717565727920666f72206e6f60448201527f6e6578697374656e7420746f6b656e00000000000000000000000000000000006064820152608401610b6c565b60006120cf613554565b905060008151116120ef5760405180602001604052806000815250611be3565b806120f984613564565b60405160200161210a92919061488b565b6040516020818303038152906040529392505050565b6000818152609760205260408120610a5d906136b3565b6111c982826136bd565b61214c600033610769565b6121be5760405162461bcd60e51b815260206004820152603660248201527f43616c6c6572206d75737420686176652061646d696e20726f6c6520746f207360448201527f6574206d696e74696e67206665652070657263656e74000000000000000000006064820152608401610b6c565b6101fa8190556040518181527fe28e57f6cdaccbb98c150b646656c0178b4b67253ae73deaba3b9c76525b987e9060200161202d565b6101f954156122d7576101fb546001600160a01b031661227c5760405162461bcd60e51b815260206004820152602760248201527f47686f73746d61726b6574206d696e74696e672046656520416464726573732060448201527f6e6f7420736574000000000000000000000000000000000000000000000000006064820152608401610b6c565b60006101fa54116122cf5760405162461bcd60e51b815260206004820152601f60248201527f47686f73746d61726b6574206d696e74696e6720466565206973207a65726f006044820152606401610b6c565b6122d761374a565b611d9e84848484610e10565b6122ee600033610769565b6123605760405162461bcd60e51b815260206004820152603660248201527f43616c6c6572206d75737420686176652061646d696e20726f6c6520746f207360448201527f6574206d696e74696e67206665652061646472657373000000000000000000006064820152608401610b6c565b6101fb80546001600160a01b0319166001600160a01b0383169081179091556040519081527f42e58c2251766d60a378c8984cb15020e19218cae37fa9e7556ce617200f68519060200161202d565b6123d97f9f2df0fed2c77648de5860a4cc508cd0818c85b8b8a1ab4ceeef8d981c8956a633610769565b61244b5760405162461bcd60e51b815260206004820152603160248201527f7570646174696e67206665652076616c7565206973206e6f7420616c6c6f776560448201527f642062792074686973206163636f756e740000000000000000000000000000006064820152608401610b6c565b6000811161249b5760405162461bcd60e51b815260206004820181905260248201527f6e6577204665652076616c75652073686f756c6420626520706f7369746976656044820152606401610b6c565b60008381526101f66020908152604080832080548251818502810185019093528083529192909190849084015b82821015612510576000848152602090819020604080518082019091526002850290910180546001600160a01b031682526001908101548284015290835290920191016124c8565b50505050905060005b81518110156113655760008581526101f66020526040902080546001600160a01b03861691908390811061255d57634e487b7160e01b600052603260045260246000fd5b60009182526020909120600290910201546001600160a01b031614156125c55760008581526101f6602052604090208054849190839081106125af57634e487b7160e01b600052603260045260246000fd5b9060005260206000209060020201600101819055505b806125cf81614c09565b915050612519565b60006001600160e01b031982167f780e9d63000000000000000000000000000000000000000000000000000000001480610a5d5750610a5d826138d9565b600081815260cd6020526040902080546001600160a01b0319166001600160a01b038416908117909155819061264a82611933565b6001600160a01b03167f8c5be1e5ebec7d5bd14f71427d1e84f3dd0314c0f7b2291e5b200ac8c7c3b92560405160405180910390a45050565b600082815260cb60205260409020546001600160a01b03166126fc5760405162461bcd60e51b815260206004820152602c60248201527f4552433732313a20617070726f76656420717565727920666f72206e6f6e657860448201526b34b9ba32b73a103a37b5b2b760a11b6064820152608401610b6c565b60005b8151811015610cbe5760006001600160a01b031682828151811061273357634e487b7160e01b600052603260045260246000fd5b6020026020010151600001516001600160a01b031614156127965760405162461bcd60e51b815260206004820152601b60248201527f526563697069656e742073686f756c642062652070726573656e7400000000006044820152606401610b6c565b60008282815181106127b857634e487b7160e01b600052603260045260246000fd5b602002602001015160200151116128115760405162461bcd60e51b815260206004820152601c60248201527f4665652076616c75652073686f756c6420626520706f736974697665000000006044820152606401610b6c565b60008381526101f660205260409020825183908390811061284257634e487b7160e01b600052603260045260246000fd5b602090810291909101810151825460018082018555600094855293839020825160029092020180546001600160a01b0319166001600160a01b039092169190911781559101519101558061289581614c09565b9150506126ff565b60005b8151811015610cbe576040805160008152602081019182905251902082518390839081106128de57634e487b7160e01b600052603260045260246000fd5b6020026020010151600001516040516020016128fa919061486f565b6040516020818303038152906040528051906020012014156129845760405162461bcd60e51b815260206004820152602160248201527f417474726962757465206b65792073686f756c64206e6f7420626520656d707460448201527f79000000000000000000000000000000000000000000000000000000000000006064820152608401610b6c565b6040805160008152602081019182905251902082518390839081106129b957634e487b7160e01b600052603260045260246000fd5b6020026020010151602001516040516020016129d5919061486f565b604051602081830303815290604052805190602001201415612a5f5760405162461bcd60e51b815260206004820152602360248201527f4174747269627574652076616c75652073686f756c64206e6f7420626520656d60448201527f70747900000000000000000000000000000000000000000000000000000000006064820152608401610b6c565b60008381526101f5602052604090208251839083908110612a9057634e487b7160e01b600052603260045260246000fd5b602090810291909101810151825460018101845560009384529282902081518051929460020290910192612ac9928492909101906141b8565b506020828101518051612ae292600185019201906141b8565b5050507fa5800424c9d59fec069be83c374ba1fad8ad7472fcb6fb6648cbf62a557ae4e78383604051612b16929190614ad2565b60405180910390a180612b2881614c09565b9150506128a0565b60008281526101f7602090815260409091208251610cbe928401906141b8565b60008181526101f86020526040902054612b6b906001614b40565b60009182526101f8602052604090912055565b600081815260cb60205260408120546001600160a01b0316612bf75760405162461bcd60e51b815260206004820152602c60248201527f4552433732313a206f70657261746f7220717565727920666f72206e6f6e657860448201526b34b9ba32b73a103a37b5b2b760a11b6064820152608401610b6c565b6000612c0283611933565b9050806001600160a01b0316846001600160a01b03161480612c3d5750836001600160a01b0316612c3284610af7565b6001600160a01b0316145b80612c6d57506001600160a01b03808216600090815260ce602090815260408083209388168352929052205460ff165b949350505050565b826001600160a01b0316612c8882611933565b6001600160a01b031614612d045760405162461bcd60e51b815260206004820152602960248201527f4552433732313a207472616e73666572206f6620746f6b656e2074686174206960448201527f73206e6f74206f776e00000000000000000000000000000000000000000000006064820152608401610b6c565b6001600160a01b038216612d7f5760405162461bcd60e51b8152602060048201526024808201527f4552433732313a207472616e7366657220746f20746865207a65726f2061646460448201527f72657373000000000000000000000000000000000000000000000000000000006064820152608401610b6c565b612d8a83838361394b565b612d95600082612615565b6001600160a01b038316600090815260cc60205260408120805460019290612dbe908490614b8b565b90915550506001600160a01b038216600090815260cc60205260408120805460019290612dec908490614b40565b9091555050600081815260cb602052604080822080546001600160a01b0319166001600160a01b0386811691821790925591518493918716917fddf252ad1be2c89b69c2b068fc378daa952ba7f163c4a11628f55a4df523b3ef91a4505050565b600082815260656020526040902060010154612e6a905b33610769565b612edc5760405162461bcd60e51b815260206004820152602f60248201527f416363657373436f6e74726f6c3a2073656e646572206d75737420626520616e60448201527f2061646d696e20746f206772616e7400000000000000000000000000000000006064820152608401610b6c565b612ee68282613956565b5050565b6000611be3836001600160a01b0384166139f8565b6001600160a01b0381163314612f7d5760405162461bcd60e51b815260206004820152602f60248201527f416363657373436f6e74726f6c3a2063616e206f6e6c792072656e6f756e636560448201527f20726f6c657320666f722073656c6600000000000000000000000000000000006064820152608401610b6c565b612ee68282613a47565b6000611be3836001600160a01b038416613aca565b61015f5460ff16612fef5760405162461bcd60e51b815260206004820152601460248201527f5061757361626c653a206e6f74207061757365640000000000000000000000006044820152606401610b6c565b61015f805460ff191690557f5db9ee0a495bf2e6ff9c91a7834c1ba4fdd244a5e8aa4e537bd38aeae4b073aa335b6040516001600160a01b03909116815260200160405180910390a1565b600061304582611933565b90506130538160008461394b565b61305e600083612615565b6001600160a01b038116600090815260cc60205260408120805460019290613087908490614b8b565b9091555050600082815260cb602052604080822080546001600160a01b0319169055518391906001600160a01b038416907fddf252ad1be2c89b69c2b068fc378daa952ba7f163c4a11628f55a4df523b3ef908390a45050565b6001600160a01b0382166131375760405162461bcd60e51b815260206004820181905260248201527f4552433732313a206d696e7420746f20746865207a65726f20616464726573736044820152606401610b6c565b600081815260cb60205260409020546001600160a01b03161561319c5760405162461bcd60e51b815260206004820152601c60248201527f4552433732313a20746f6b656e20616c7265616479206d696e746564000000006044820152606401610b6c565b6131a86000838361394b565b6001600160a01b038216600090815260cc602052604081208054600192906131d1908490614b40565b9091555050600081815260cb602052604080822080546001600160a01b0319166001600160a01b03861690811790915590518392907fddf252ad1be2c89b69c2b068fc378daa952ba7f163c4a11628f55a4df523b3ef908290a45050565b61015f5460ff16156132835760405162461bcd60e51b815260206004820152601060248201527f5061757361626c653a20706175736564000000000000000000000000000000006044820152606401610b6c565b61015f805460ff191660011790557f62e78cea01bee320cd4e420270b5ea74000d11b0c9f74754ebdbfc544b05a25861301d3390565b6000611be38383613be7565b600054610100900460ff16806132de575060005460ff16155b6133415760405162461bcd60e51b815260206004820152602e60248201527f496e697469616c697a61626c653a20636f6e747261637420697320616c72656160448201526d191e481a5b9a5d1a585b1a5e995960921b6064820152608401610b6c565b600054610100900460ff16158015613363576000805461ffff19166101011790555b82516133769060c99060208601906141b8565b50815161338a9060ca9060208501906141b8565b508015610cbe576000805461ff0019169055505050565b600054610100900460ff16806133ba575060005460ff16155b61341d5760405162461bcd60e51b815260206004820152602e60248201527f496e697469616c697a61626c653a20636f6e747261637420697320616c72656160448201526d191e481a5b9a5d1a585b1a5e995960921b6064820152608401610b6c565b600054610100900460ff1615801561343f576000805461ffff19166101011790555b8151613453906101c49060208501906141b8565b506134606000335b613c96565b61348a7f9f2df0fed2c77648de5860a4cc508cd0818c85b8b8a1ab4ceeef8d981c8956a63361345b565b6134b47f65d7a28e3265b37a6474929f336521b332c1681b933f6cb9f3376673440d862a3361345b565b8015611d9e576000805461ff001916905550505050565b6134d6848484612c75565b6134e284848484613ca0565b611d9e5760405162461bcd60e51b815260206004820152603260248201527f4552433732313a207472616e7366657220746f206e6f6e20455243373231526560448201527f63656976657220696d706c656d656e74657200000000000000000000000000006064820152608401610b6c565b60606101c48054610a7490614bce565b6060816135a5575060408051808201909152600181527f30000000000000000000000000000000000000000000000000000000000000006020820152610a60565b8160005b81156135cf57806135b981614c09565b91506135c89050600a83614b58565b91506135a9565b60008167ffffffffffffffff8111156135f857634e487b7160e01b600052604160045260246000fd5b6040519080825280601f01601f191660200182016040528015613622576020820181803683370190505b5090505b8415612c6d57613637600183614b8b565b9150613644600a86614c24565b61364f906030614b40565b60f81b81838151811061367257634e487b7160e01b600052603260045260246000fd5b60200101907effffffffffffffffffffffffffffffffffffffffffffffffffffffffffffff1916908160001a9053506136ac600a86614b58565b9450613626565b6000610a5d825490565b6000828152606560205260409020600101546136d890612e64565b612f7d5760405162461bcd60e51b815260206004820152603060248201527f416363657373436f6e74726f6c3a2073656e646572206d75737420626520616e60448201527f2061646d696e20746f207265766f6b65000000000000000000000000000000006064820152608401610b6c565b6101fb5474010000000000000000000000000000000000000000900460ff16156137b65760405162461bcd60e51b815260206004820152601360248201527f5265656e7472616e7420646574656374656421000000000000000000000000006044820152606401610b6c565b6101fb805460ff60a01b19167401000000000000000000000000000000000000000017905560006137e5613e03565b6101fb546040519192506000916001600160a01b039091169083908381818185875af1925050503d8060008114613838576040519150601f19603f3d011682016040523d82523d6000602084013e61383d565b606091505b505090508061388e5760405162461bcd60e51b815260206004820152601060248201527f5472616e73666572206661696c65642e000000000000000000000000000000006044820152606401610b6c565b6101fb805460ff60a01b1916905560408051338152602081018490527ff867832f09d3df16244ef05b595ad6197c4fc2da636495ff70035f1acdf2ba0a910160405180910390a15050565b60006001600160e01b031982167f80ac58cd00000000000000000000000000000000000000000000000000000000148061393c57506001600160e01b031982167f5b5e139f00000000000000000000000000000000000000000000000000000000145b80610a5d5750610a5d82613e17565b610cbe838383613e55565b60008281526065602090815260408083206001600160a01b038516845290915290205460ff16612ee65760008281526065602090815260408083206001600160a01b03851684529091529020805460ff191660011790556139b43390565b6001600160a01b0316816001600160a01b0316837f2f8788117e7eff1d82e926ec794901d17c78024a50270940304540a733656f0d60405160405180910390a45050565b6000818152600183016020526040812054613a3f575081546001818101845560008481526020808220909301849055845484825282860190935260409020919091556111b9565b5060006111b9565b60008281526065602090815260408083206001600160a01b038516845290915290205460ff1615612ee65760008281526065602090815260408083206001600160a01b0385168085529252808320805460ff1916905551339285917ff6391f5c32d9c69d2a47ea670b442974b53935d1edc7fd64eb21e047a839171b9190a45050565b60008181526001830160205260408120548015613bdd576000613aee600183614b8b565b8554909150600090613b0290600190614b8b565b90506000866000018281548110613b2957634e487b7160e01b600052603260045260246000fd5b9060005260206000200154905080876000018481548110613b5a57634e487b7160e01b600052603260045260246000fd5b600091825260209091200155613b71836001614b40565b60008281526001890160205260409020558654879080613ba157634e487b7160e01b600052603160045260246000fd5b600190038181906000526020600020016000905590558660010160008781526020019081526020016000206000905560019450505050506111b9565b60009150506111b9565b81546000908210613c605760405162461bcd60e51b815260206004820152602260248201527f456e756d657261626c655365743a20696e646578206f7574206f6620626f756e60448201527f64730000000000000000000000000000000000000000000000000000000000006064820152608401610b6c565b826000018281548110613c8357634e487b7160e01b600052603260045260246000fd5b9060005260206000200154905092915050565b6110fc8282612edc565b60006001600160a01b0384163b15613df857604051630a85bd0160e11b81526001600160a01b0385169063150b7a0290613ce49033908990889088906004016148ba565b602060405180830381600087803b158015613cfe57600080fd5b505af1925050508015613d2e575060408051601f3d908101601f19168201909252613d2b91810190614688565b60015b613dde573d808015613d5c576040519150601f19603f3d011682016040523d82523d6000602084013e613d61565b606091505b508051613dd65760405162461bcd60e51b815260206004820152603260248201527f4552433732313a207472616e7366657220746f206e6f6e20455243373231526560448201527f63656976657220696d706c656d656e74657200000000000000000000000000006064820152608401610b6c565b805181602001fd5b6001600160e01b031916630a85bd0160e11b149050612c6d565b506001949350505050565b60006101f9546101fa54611b229190614b6c565b60006001600160e01b031982167f5a05180f000000000000000000000000000000000000000000000000000000001480610a5d5750610a5d82613eda565b613e60838383613f41565b61015f5460ff1615610cbe5760405162461bcd60e51b815260206004820152602b60248201527f4552433732315061757361626c653a20746f6b656e207472616e73666572207760448201527f68696c65207061757365640000000000000000000000000000000000000000006064820152608401610b6c565b60006001600160e01b031982167f7965db0b000000000000000000000000000000000000000000000000000000001480610a5d57507f01ffc9a7000000000000000000000000000000000000000000000000000000006001600160e01b0319831614610a5d565b6001600160a01b038316613f9c57613f978160fd8054600083815260fe60205260408120829055600182018355919091527f9346ac6dd7de6b96975fec380d4d994c4c12e6a8897544f22915316cc6cca2800155565b613fbf565b816001600160a01b0316836001600160a01b031614613fbf57613fbf8382613ffe565b6001600160a01b038216613fdb57613fd68161409b565b610cbe565b826001600160a01b0316826001600160a01b031614610cbe57610cbe8282614174565b6000600161400b84611a7c565b6140159190614b8b565b600083815260fc6020526040902054909150808214614068576001600160a01b038416600090815260fb60209081526040808320858452825280832054848452818420819055835260fc90915290208190555b50600091825260fc602090815260408084208490556001600160a01b03909416835260fb81528383209183525290812055565b60fd546000906140ad90600190614b8b565b600083815260fe602052604081205460fd80549394509092849081106140e357634e487b7160e01b600052603260045260246000fd5b906000526020600020015490508060fd838154811061411257634e487b7160e01b600052603260045260246000fd5b600091825260208083209091019290925582815260fe909152604080822084905585825281205560fd80548061415857634e487b7160e01b600052603160045260246000fd5b6001900381819060005260206000200160009055905550505050565b600061417f83611a7c565b6001600160a01b03909316600090815260fb60209081526040808320868452825280832085905593825260fc9052919091209190915550565b8280546141c490614bce565b90600052602060002090601f0160209004810192826141e6576000855561422c565b82601f106141ff57805160ff191683800117855561422c565b8280016001018555821561422c579182015b8281111561422c578251825591602001919060010190614211565b5061423892915061423c565b5090565b5b80821115614238576000815560010161423d565b600067ffffffffffffffff83111561426b5761426b614c64565b61427e601f8401601f1916602001614aeb565b905082815283838301111561429257600080fd5b828260208301376000602084830101529392505050565b600082601f8301126142b9578081fd5b813560206142ce6142c983614b1c565b614aeb565b82815281810190858301855b858110156143655781358801604080601f19838d030112156142fa578889fd5b61430381614aeb565b8783013567ffffffffffffffff8082111561431c578b8cfd5b61432a8e8b84880101614372565b835292840135928084111561433d578b8cfd5b505061434d8c8984860101614372565b818901528652505092840192908401906001016142da565b5090979650505050505050565b600082601f830112614382578081fd5b611be383833560208501614251565b6000602082840312156143a2578081fd5b8135611be381614c7a565b600080604083850312156143bf578081fd5b82356143ca81614c7a565b915060208301356143da81614c7a565b809150509250929050565b6000806000606084860312156143f9578081fd5b833561440481614c7a565b9250602084013561441481614c7a565b929592945050506040919091013590565b6000806000806080858703121561443a578081fd5b843561444581614c7a565b9350602085013561445581614c7a565b925060408501359150606085013567ffffffffffffffff811115614477578182fd5b8501601f81018713614487578182fd5b61449687823560208401614251565b91505092959194509250565b600080600080608085870312156144b7578384fd5b84356144c281614c7a565b935060208581013567ffffffffffffffff808211156144df578586fd5b818801915088601f8301126144f2578586fd5b81356145006142c982614b1c565b8082825285820191508585018c878560061b880101111561451f57898afd5b8995505b8386101561456c57604080828f03121561453b578a8bfd5b61454481614aeb565b823561454f81614c7a565b815282890135898201528452600196909601959287019201614523565b50975050506040880135925080831115614584578485fd5b61459089848a016142a9565b945060608801359250808311156145a5578384fd5b505061449687828801614372565b600080604083850312156145c5578182fd5b82356145d081614c7a565b9150602083013580151581146143da578182fd5b600080604083850312156145f6578182fd5b823561460181614c7a565b946020939093013593505050565b600060208284031215614620578081fd5b5035919050565b60008060408385031215614639578182fd5b8235915060208301356143da81614c7a565b6000806040838503121561465d578182fd5b50508035926020909101359150565b60006020828403121561467d578081fd5b8135611be381614c8f565b600060208284031215614699578081fd5b8151611be381614c8f565b6000806000606084860312156146b8578081fd5b833567ffffffffffffffff808211156146cf578283fd5b6146db87838801614372565b945060208601359150808211156146f0578283fd5b6146fc87838801614372565b93506040860135915080821115614711578283fd5b5061471e86828701614372565b9150509250925092565b60008060006060848603121561473c578081fd5b83359250602084013561474e81614c7a565b9150604084013561475e81614c7a565b809150509250925092565b60008060006060848603121561477d578081fd5b83359250602084013561441481614c7a565b600081518084526020808501808196508360051b81019150828601855b858110156147fc5782840389528151604081518187526147ce82880182614843565b915050868201519150858103878701526147e88183614843565b9a87019a95505050908401906001016147ac565b5091979650505050505050565b6000815180845260208085019450808401835b838110156148385781518752958201959082019060010161481c565b509495945050505050565b6000815180845261485b816020860160208601614ba2565b601f01601f19169290920160200192915050565b60008251614881818460208701614ba2565b9190910192915050565b6000835161489d818460208801614ba2565b8351908301906148b1818360208801614ba2565b01949350505050565b60006001600160a01b038087168352808616602084015250836040830152608060608301526148ec6080830184614843565b9695505050505050565b60006001600160a01b0385168252602084818401526060604084015281845483600182811c91508083168061492c57607f831692505b85831081141561494a57634e487b7160e01b87526022600452602487fd5b6060880183905260808801818015614969576001811461497a576149a4565b60ff198616825287820196506149a4565b60008b815260209020895b8681101561499e57815484820152908501908901614985565b83019750505b50949b9a5050505050505050505050565b6020808252825182820181905260009190848201906040850190845b818110156149f65783516001600160a01b0316835292840192918401916001016149d1565b50909695505050505050565b600060208252611be3602083018461478f565b600060208252611be36020830184614809565b600060208252611be36020830184614843565b600060408252614a4e6040830185614843565b8281036020840152614a608185614843565b95945050505050565b60006060820185835260206060818501528186518084526080860191508288019350845b81811015614ab25784516001600160a01b031683529383019391830191600101614a8d565b50508481036040860152614ac68187614809565b98975050505050505050565b600083825260406020830152612c6d604083018461478f565b604051601f8201601f1916810167ffffffffffffffff81118282101715614b1457614b14614c64565b604052919050565b600067ffffffffffffffff821115614b3657614b36614c64565b5060051b60200190565b60008219821115614b5357614b53614c38565b500190565b600082614b6757614b67614c4e565b500490565b6000816000190483118215151615614b8657614b86614c38565b500290565b600082821015614b9d57614b9d614c38565b500390565b60005b83811015614bbd578181015183820152602001614ba5565b83811115611d9e5750506000910152565b600181811c90821680614be257607f821691505b60208210811415614c0357634e487b7160e01b600052602260045260246000fd5b50919050565b6000600019821415614c1d57614c1d614c38565b5060010190565b600082614c3357614c33614c4e565b500690565b634e487b7160e01b600052601160045260246000fd5b634e487b7160e01b600052601260045260246000fd5b634e487b7160e01b600052604160045260246000fd5b6001600160a01b038116811461160557600080fd5b6001600160e01b03198116811461160557600080fdfea264697066735822122043c1ab9defd3168a43244a7046869e9df66cf08a968239c47562e0b76ed97b7864736f6c63430008030033",
  "immutableReferences": {},
  "source": "// SPDX-License-Identifier: MIT\npragma solidity ^0.8.3;\n\nimport \"@openzeppelin/contracts-upgradeable/token/ERC721/presets/ERC721PresetMinterPauserAutoIdUpgradeable.sol\";\nimport \"@openzeppelin/contracts-upgradeable/security/ReentrancyGuardUpgradeable.sol\";\nimport \"@openzeppelin/contracts-upgradeable/utils/CountersUpgradeable.sol\";\n\n/**\n * @dev ERC721 token with minting, burning, pause, secondary sales royalitiy functions.\n *\n */\ncontract GhostmarketNFT is\n    Initializable,\n    ERC721PresetMinterPauserAutoIdUpgradeable\n{\n    // struct for secondary sales fees\n    struct Fee {\n        address payable recipient;\n        uint256 value;\n    }\n\n    //nft attributes struct\n    struct AttributesStruct {\n        string key;\n        string value;\n    }\n\n    // tokenId => attributes array\n    mapping(uint256 => AttributesStruct[]) public attribute;\n\n    // tokenId => fees array\n    mapping(uint256 => Fee[]) public fees;\n\n    // tokenId => locked content string\n    mapping(uint256 => string) public _lockedContent;\n    // tokenId => locked content view counter\n    mapping(uint256 => uint256) private _lockedContentViewTracker;\n\n    event SecondarySaleFees(\n        uint256 tokenId,\n        address[] recipients,\n        uint256[] bps\n    );\n\n    event LockedContentViewed(\n        address msgSender,\n        uint256 tokenId,\n        string lockedContent\n    );\n\n    event AttributesSet(uint256 tokenId, AttributesStruct[] attributes);\n    event GhostmarketFeeAddressChanged(address newValue);\n    event GhostmarketFeeMultiplierChanged(uint256 newValue);\n    event GhostmarketMintFeeChanged(uint256 newValue);\n    event GhostmarketFeePaid(address sender, uint256 value);\n\n    // fee multiplier\n    uint256 private _ghostmarketFeeMultiplier;\n\n    // minting fee\n    uint256 private _ghostmarketMintingFee;\n\n    //address where the transfer fees will be sent\n    address payable private _ghostmarketFeeAddress;\n\n    //Reentrancy lock checker\n    bool locked;\n\n    function initialize(\n        string memory name,\n        string memory symbol,\n        string memory uri\n    ) public override initializer {\n        __ERC721_init_unchained(name, symbol);\n        __ERC721PresetMinterPauserAutoId_init_unchained(name, symbol, uri);\n        locked = false;\n    }\n\n    /**\n     * @dev saves the nft tokens custom attributes to contract storage\n     * emits AttributesSet event\n     */\n    function setAttributes(\n        uint256 _tokenId,\n        AttributesStruct[] memory _attributes\n    ) internal {\n        for (uint256 i = 0; i < _attributes.length; i++) {\n            require(\n                keccak256(abi.encodePacked(_attributes[i].key)) !=\n                    keccak256(abi.encodePacked(\"\")),\n                \"Attribute key should not be empty\"\n            );\n            require(\n                keccak256(abi.encodePacked(_attributes[i].value)) !=\n                    keccak256(abi.encodePacked(\"\")),\n                \"Attribute value should not be empty\"\n            );\n            attribute[_tokenId].push(_attributes[i]);\n            emit AttributesSet(_tokenId, _attributes);\n        }\n    }\n\n    /**\n     * @dev get the nft token attributes with the tokenId\n     */\n    function getAttributes(uint256 _tokenId)\n        public\n        view\n        returns (AttributesStruct[] memory)\n    {\n        return attribute[_tokenId];\n    }\n\n    /**\n     * @dev get the \"secondary sales\"/royalities fee recepients with the tokenId\n     */\n    function getFeeRecipients(uint256 _tokenId)\n        public\n        view\n        returns (address payable[] memory)\n    {\n        Fee[] memory _fees = fees[_tokenId];\n        address payable[] memory result = new address payable[](_fees.length);\n        for (uint256 i = 0; i < _fees.length; i++) {\n            result[i] = _fees[i].recipient;\n        }\n        return result;\n    }\n\n    /**\n     * @dev get the \"secondary sales\"/royalities fee for the NFT id\n     * fee basis points 10000 = 100%\n     */\n    function getFeeBps(uint256 _tokenId)\n        public\n        view\n        returns (uint256[] memory)\n    {\n        Fee[] memory _fees = fees[_tokenId];\n        uint256[] memory result = new uint256[](_fees.length);\n        for (uint256 i = 0; i < _fees.length; i++) {\n            result[i] = _fees[i].value;\n        }\n        return result;\n    }\n\n    /**\n     * @dev save the \"secondary sales\"/royalities fee for the NFT id\n     * fee basis points 10000 = 100%\n     */\n    function saveFees(uint256 _tokenId, Fee[] memory _fees) internal {\n        require(\n            _exists(_tokenId),\n            \"ERC721: approved query for nonexistent token\"\n        );\n        for (uint256 i = 0; i < _fees.length; i++) {\n            require(\n                _fees[i].recipient != address(0x0),\n                \"Recipient should be present\"\n            );\n            require(_fees[i].value > 0, \"Fee value should be positive\");\n            fees[_tokenId].push(_fees[i]);\n        }\n    }\n\n    /**\n     * @dev change the \"secondary sales\"/royalities fee value for a specific recipient address\n     */\n    function updateRecipientsFees(\n        uint256 _tokenId,\n        address _from,\n        uint256 _value\n    ) external {\n        require(\n            hasRole(MINTER_ROLE, _msgSender()),\n            \"updating fee value is not allowed by this account\"\n        );\n        require(_value > 0, \"new Fee value should be positive\");\n        Fee[] memory _fees = fees[_tokenId];\n        for (uint256 i = 0; i < _fees.length; i++) {\n            if (fees[_tokenId][i].recipient == _from) {\n                fees[_tokenId][i].value = _value;\n            }\n        }\n    }\n\n    /**\n     * @dev change the recepient address of the \"secondary sales\"/royalities fee\n     */\n    function updateFeeAccount(\n        uint256 _tokenId,\n        address _from,\n        address _to\n    ) external {\n        require(\n            hasRole(MINTER_ROLE, _msgSender()),\n            \"updating fee recepients is not allowed by this account\"\n        );\n        uint256 length = fees[_tokenId].length;\n        for (uint256 i = 0; i < length; i++) {\n            if (fees[_tokenId][i].recipient == _from) {\n                fees[_tokenId][i].recipient = payable(address(uint160(_to)));\n            }\n        }\n    }\n\n    /**\n     * @dev mint NFT and set fee\n     */\n    function mint(\n        address _to,\n        Fee[] memory _fees,\n        AttributesStruct[] memory _attributes,\n        string memory lockedcontent\n    ) public {\n        mint(_to);\n        uint256 _tokenId = (getCurrentCounter() - 1);\n        address[] memory recipients = new address[](_fees.length);\n        uint256[] memory bps = new uint256[](_fees.length);\n        if (_fees.length > 0) {\n            saveFees(_tokenId, _fees);\n            emit SecondarySaleFees(_tokenId, recipients, bps);\n        }\n        if (_attributes.length > 0) {\n            setAttributes(_tokenId, _attributes);\n        }\n        if (\n            keccak256(abi.encodePacked(lockedcontent)) !=\n            keccak256(abi.encodePacked(\"\"))\n        ) {\n            setLockedContent(_tokenId, lockedcontent);\n        }\n    }\n\n    /**\n     * @dev minting with fee, sending to Ghostmarket address\n     */\n    function mintWithFee(\n        address _to,\n        Fee[] memory _fees,\n        AttributesStruct[] memory _attributes,\n        string memory lockedcontent\n    ) public payable {\n        if (_ghostmarketFeeMultiplier > 0) {\n            require(\n                _ghostmarketFeeAddress != address(0),\n                \"Ghostmarket minting Fee Address not set\"\n            );\n            require(\n                _ghostmarketMintingFee > 0,\n                \"Ghostmarket minting Fee is zero\"\n            );\n            _sendMintingFee();\n        }\n\n        mint(_to, _fees, _attributes, lockedcontent);\n    }\n\n    /**\n     * @dev send minting fee to Ghostmarket\n     */\n    function _sendMintingFee() internal {\n        require(!locked, \"Reentrant detected!\");\n        locked = true;\n        uint256 feevalue = _calculateGhostmarketMintingFee();\n\n        (bool success, ) = _ghostmarketFeeAddress.call{value: feevalue}(\"\");\n        require(success, \"Transfer failed.\");\n        locked = false;\n        emit GhostmarketFeePaid(msg.sender, feevalue);\n    }\n\n    /**\n     * @dev set the wallet address where fees will be collected\n     */\n    function setGhostmarketFeeAddress(address payable gmfa) public {\n        require(\n            hasRole(DEFAULT_ADMIN_ROLE, _msgSender()),\n            \"Caller must have admin role to set minting fee address\"\n        );\n\n        _ghostmarketFeeAddress = gmfa;\n        emit GhostmarketFeeAddressChanged(_ghostmarketFeeAddress);\n    }\n\n    /**\n     * @dev sets the transfer fee multiplier\n     */\n    function setGhostmarketFeeMultiplier(uint256 gmfm) public {\n        require(\n            hasRole(DEFAULT_ADMIN_ROLE, _msgSender()),\n            \"Caller must have admin role to set minting fee percent\"\n        );\n        _ghostmarketFeeMultiplier = gmfm;\n        emit GhostmarketFeeMultiplierChanged(_ghostmarketFeeMultiplier);\n    }\n\n    /**\n     * @dev sets the transfer fee\n     */\n    function setGhostmarketMintFee(uint256 gmmf) public {\n        require(\n            hasRole(DEFAULT_ADMIN_ROLE, _msgSender()),\n            \"Caller must have admin role to set minting fee percent\"\n        );\n        _ghostmarketMintingFee = gmmf;\n        emit GhostmarketMintFeeChanged(_ghostmarketMintingFee);\n    }\n\n    /**\n     * @return the ghostmarketFeeAddress\n     */\n    function ghostmarketFeeAddress() public view returns (address payable) {\n        return _ghostmarketFeeAddress;\n    }\n\n    /**\n     * @return the ghostmarketMintingFee.\n     */\n    function ghostmarketMintingFee() public view returns (uint256) {\n        return _ghostmarketMintingFee;\n    }\n\n    /**\n     * @return the ghostmarketFeeMultiplier.\n     */\n    function ghostmarketFeeMultiplier() public view returns (uint256) {\n        return _ghostmarketFeeMultiplier;\n    }\n\n    /**\n     * @return the calculated fee for minting a NFT.\n     */\n    function _calculateGhostmarketMintingFee() internal view returns (uint256) {\n        return _ghostmarketMintingFee * _ghostmarketFeeMultiplier;\n    }\n\n    /**\n     * @dev save locked content as string for a specific _tokenId.\n     */\n    function setLockedContent(uint256 _tokenId, string memory content)\n        internal\n    {\n        _lockedContent[_tokenId] = content;\n    }\n\n    /**\n     * @dev emits event\n     * example event:\n     * msgSender: 0x1a1122c2483e8f988F9a800F3A6eE316dB77e4e0 (type: address),\n     * tokenId: 0 (type: uint256),\n     * lockedContent: 'top secret' (type: string)\n     */\n    function getLockedContent(uint256 _tokenId) public returns (string memory) {\n        require(\n            ownerOf(_tokenId) == msg.sender,\n            \"Caller must be the owner of the NFT\"\n        );\n        _incrementCurrentLockedContentViewTracker(_tokenId);\n        emit LockedContentViewed(\n            msg.sender,\n            _tokenId,\n            _lockedContent[_tokenId]\n        );\n    }\n\n    /**\n     * @dev increment locked content view tracker\n     */\n    function _incrementCurrentLockedContentViewTracker(uint256 _tokenId)\n        private\n    {\n        _lockedContentViewTracker[_tokenId] =\n            _lockedContentViewTracker[_tokenId] +\n            1;\n    }\n\n    /**\n     * @dev get the durrent locked content view tracker for specific _tokenId\n     */\n    function getCurrentLockedContentViewTracker(uint256 _tokenId)\n        public\n        view\n        returns (uint256)\n    {\n        return _lockedContentViewTracker[_tokenId];\n    }\n}\n",
  "sourcePath": "/Users/selimerunkut/dev_freelance/GhostMarketContractBSC/contracts/GhostmarketNFT.sol",
  "compiler": {
    "name": "solc",
    "version": "0.8.3+commit.8d00100c.Emscripten.clang"
  },
  "schemaVersion": "3.3.4",
  "updatedAt": "2021-05-02T22:17:40.239Z",
  "devdoc": {
    "details": "ERC721 token with minting, burning, pause, secondary sales royalitiy functions.",
    "kind": "dev",
    "methods": {
      "approve(address,uint256)": {
        "details": "See {IERC721-approve}."
      },
      "balanceOf(address)": {
        "details": "See {IERC721-balanceOf}."
      },
      "burn(uint256)": {
        "details": "Burns `tokenId`. See {ERC721-_burn}. Requirements: - The caller must own `tokenId` or be an approved operator."
      },
      "getApproved(uint256)": {
        "details": "See {IERC721-getApproved}."
      },
      "getAttributes(uint256)": {
        "details": "get the nft token attributes with the tokenId"
      },
      "getCurrentLockedContentViewTracker(uint256)": {
        "details": "get the durrent locked content view tracker for specific _tokenId"
      },
      "getFeeBps(uint256)": {
        "details": "get the \"secondary sales\"/royalities fee for the NFT id fee basis points 10000 = 100%"
      },
      "getFeeRecipients(uint256)": {
        "details": "get the \"secondary sales\"/royalities fee recepients with the tokenId"
      },
      "getLockedContent(uint256)": {
        "details": "emits event example event: msgSender: 0x1a1122c2483e8f988F9a800F3A6eE316dB77e4e0 (type: address), tokenId: 0 (type: uint256), lockedContent: 'top secret' (type: string)"
      },
      "getRoleAdmin(bytes32)": {
        "details": "Returns the admin role that controls `role`. See {grantRole} and {revokeRole}. To change a role's admin, use {_setRoleAdmin}."
      },
      "getRoleMember(bytes32,uint256)": {
        "details": "Returns one of the accounts that have `role`. `index` must be a value between 0 and {getRoleMemberCount}, non-inclusive. Role bearers are not sorted in any particular way, and their ordering may change at any point. WARNING: When using {getRoleMember} and {getRoleMemberCount}, make sure you perform all queries on the same block. See the following https://forum.openzeppelin.com/t/iterating-over-elements-on-enumerableset-in-openzeppelin-contracts/2296[forum post] for more information."
      },
      "getRoleMemberCount(bytes32)": {
        "details": "Returns the number of accounts that have `role`. Can be used together with {getRoleMember} to enumerate all bearers of a role."
      },
      "ghostmarketFeeAddress()": {
        "returns": {
          "_0": "the ghostmarketFeeAddress"
        }
      },
      "ghostmarketFeeMultiplier()": {
        "returns": {
          "_0": "the ghostmarketFeeMultiplier."
        }
      },
      "ghostmarketMintingFee()": {
        "returns": {
          "_0": "the ghostmarketMintingFee."
        }
      },
      "grantRole(bytes32,address)": {
        "details": "Overload {grantRole} to track enumerable memberships"
      },
      "hasRole(bytes32,address)": {
        "details": "Returns `true` if `account` has been granted `role`."
      },
      "isApprovedForAll(address,address)": {
        "details": "See {IERC721-isApprovedForAll}."
      },
      "mint(address)": {
        "details": "Creates a new token for `to`. Its token ID will be automatically assigned (and available on the emitted {IERC721-Transfer} event), and the token URI autogenerated based on the base URI passed at construction. See {ERC721-_mint}. Requirements: - the caller must have the `MINTER_ROLE`."
      },
      "mint(address,(address,uint256)[],(string,string)[],string)": {
        "details": "mint NFT and set fee"
      },
      "mintWithFee(address,(address,uint256)[],(string,string)[],string)": {
        "details": "minting with fee, sending to Ghostmarket address"
      },
      "name()": {
        "details": "See {IERC721Metadata-name}."
      },
      "ownerOf(uint256)": {
        "details": "See {IERC721-ownerOf}."
      },
      "pause()": {
        "details": "Pauses all token transfers. See {ERC721Pausable} and {Pausable-_pause}. Requirements: - the caller must have the `PAUSER_ROLE`."
      },
      "paused()": {
        "details": "Returns true if the contract is paused, and false otherwise."
      },
      "renounceRole(bytes32,address)": {
        "details": "Overload {renounceRole} to track enumerable memberships"
      },
      "revokeRole(bytes32,address)": {
        "details": "Overload {revokeRole} to track enumerable memberships"
      },
      "safeTransferFrom(address,address,uint256)": {
        "details": "See {IERC721-safeTransferFrom}."
      },
      "safeTransferFrom(address,address,uint256,bytes)": {
        "details": "See {IERC721-safeTransferFrom}."
      },
      "setApprovalForAll(address,bool)": {
        "details": "See {IERC721-setApprovalForAll}."
      },
      "setGhostmarketFeeAddress(address)": {
        "details": "set the wallet address where fees will be collected"
      },
      "setGhostmarketFeeMultiplier(uint256)": {
        "details": "sets the transfer fee multiplier"
      },
      "setGhostmarketMintFee(uint256)": {
        "details": "sets the transfer fee"
      },
      "supportsInterface(bytes4)": {
        "details": "See {IERC165-supportsInterface}."
      },
      "symbol()": {
        "details": "See {IERC721Metadata-symbol}."
      },
      "tokenByIndex(uint256)": {
        "details": "See {IERC721Enumerable-tokenByIndex}."
      },
      "tokenOfOwnerByIndex(address,uint256)": {
        "details": "See {IERC721Enumerable-tokenOfOwnerByIndex}."
      },
      "tokenURI(uint256)": {
        "details": "See {IERC721Metadata-tokenURI}."
      },
      "totalSupply()": {
        "details": "See {IERC721Enumerable-totalSupply}."
      },
      "transferFrom(address,address,uint256)": {
        "details": "See {IERC721-transferFrom}."
      },
      "unpause()": {
        "details": "Unpauses all token transfers. See {ERC721Pausable} and {Pausable-_unpause}. Requirements: - the caller must have the `PAUSER_ROLE`."
      },
      "updateFeeAccount(uint256,address,address)": {
        "details": "change the recepient address of the \"secondary sales\"/royalities fee"
      },
      "updateRecipientsFees(uint256,address,uint256)": {
        "details": "change the \"secondary sales\"/royalities fee value for a specific recipient address"
      }
    },
    "version": 1
  },
  "userdoc": {
    "kind": "user",
    "methods": {},
    "version": 1
  }
}