{
  "contractName": "GhostMarketERC721",
  "abi": [
    {
      "anonymous": false,
      "inputs": [
        {
          "indexed": true,
          "internalType": "address",
          "name": "owner",
          "type": "address"
        },
        {
          "indexed": true,
          "internalType": "address",
          "name": "approved",
          "type": "address"
        },
        {
          "indexed": true,
          "internalType": "uint256",
          "name": "tokenId",
          "type": "uint256"
        }
      ],
      "name": "Approval",
      "type": "event"
    },
    {
      "anonymous": false,
      "inputs": [
        {
          "indexed": true,
          "internalType": "address",
          "name": "owner",
          "type": "address"
        },
        {
          "indexed": true,
          "internalType": "address",
          "name": "operator",
          "type": "address"
        },
        {
          "indexed": false,
          "internalType": "bool",
          "name": "approved",
          "type": "bool"
        }
      ],
      "name": "ApprovalForAll",
      "type": "event"
    },
    {
      "anonymous": false,
      "inputs": [
        {
          "indexed": false,
          "internalType": "address",
          "name": "msgSender",
          "type": "address"
        },
        {
          "indexed": false,
          "internalType": "uint256",
          "name": "tokenId",
          "type": "uint256"
        },
        {
          "indexed": false,
          "internalType": "string",
          "name": "lockedContent",
          "type": "string"
        }
      ],
      "name": "LockedContentViewed",
      "type": "event"
    },
    {
      "anonymous": false,
      "inputs": [
        {
          "indexed": false,
          "internalType": "address",
          "name": "feeChanger",
          "type": "address"
        },
        {
          "indexed": false,
          "internalType": "uint256",
          "name": "newValue",
          "type": "uint256"
        }
      ],
      "name": "MintFeesUpdated",
      "type": "event"
    },
    {
      "anonymous": false,
      "inputs": [
        {
          "indexed": false,
          "internalType": "address",
          "name": "feeWithdrawer",
          "type": "address"
        },
        {
          "indexed": false,
          "internalType": "uint256",
          "name": "withdrawAmount",
          "type": "uint256"
        }
      ],
      "name": "MintFeesWithdrawn",
      "type": "event"
    },
    {
      "anonymous": false,
      "inputs": [
        {
          "indexed": false,
          "internalType": "address",
          "name": "toAddress",
          "type": "address"
        },
        {
          "indexed": false,
          "internalType": "uint256",
          "name": "tokenId",
          "type": "uint256"
        },
        {
          "indexed": false,
          "internalType": "string",
          "name": "externalURI",
          "type": "string"
        }
      ],
      "name": "Minted",
      "type": "event"
    },
    {
      "anonymous": false,
      "inputs": [
        {
          "indexed": true,
          "internalType": "address",
          "name": "previousOwner",
          "type": "address"
        },
        {
          "indexed": true,
          "internalType": "address",
          "name": "newOwner",
          "type": "address"
        }
      ],
      "name": "OwnershipTransferred",
      "type": "event"
    },
    {
      "anonymous": false,
      "inputs": [
        {
          "indexed": false,
          "internalType": "address",
          "name": "account",
          "type": "address"
        }
      ],
      "name": "Paused",
      "type": "event"
    },
    {
      "anonymous": false,
      "inputs": [
        {
          "indexed": true,
          "internalType": "bytes32",
          "name": "role",
          "type": "bytes32"
        },
        {
          "indexed": true,
          "internalType": "bytes32",
          "name": "previousAdminRole",
          "type": "bytes32"
        },
        {
          "indexed": true,
          "internalType": "bytes32",
          "name": "newAdminRole",
          "type": "bytes32"
        }
      ],
      "name": "RoleAdminChanged",
      "type": "event"
    },
    {
      "anonymous": false,
      "inputs": [
        {
          "indexed": true,
          "internalType": "bytes32",
          "name": "role",
          "type": "bytes32"
        },
        {
          "indexed": true,
          "internalType": "address",
          "name": "account",
          "type": "address"
        },
        {
          "indexed": true,
          "internalType": "address",
          "name": "sender",
          "type": "address"
        }
      ],
      "name": "RoleGranted",
      "type": "event"
    },
    {
      "anonymous": false,
      "inputs": [
        {
          "indexed": true,
          "internalType": "bytes32",
          "name": "role",
          "type": "bytes32"
        },
        {
          "indexed": true,
          "internalType": "address",
          "name": "account",
          "type": "address"
        },
        {
          "indexed": true,
          "internalType": "address",
          "name": "sender",
          "type": "address"
        }
      ],
      "name": "RoleRevoked",
      "type": "event"
    },
    {
      "anonymous": false,
      "inputs": [
        {
          "indexed": true,
          "internalType": "address",
          "name": "from",
          "type": "address"
        },
        {
          "indexed": true,
          "internalType": "address",
          "name": "to",
          "type": "address"
        },
        {
          "indexed": true,
          "internalType": "uint256",
          "name": "tokenId",
          "type": "uint256"
        }
      ],
      "name": "Transfer",
      "type": "event"
    },
    {
      "anonymous": false,
      "inputs": [
        {
          "indexed": false,
          "internalType": "address",
          "name": "account",
          "type": "address"
        }
      ],
      "name": "Unpaused",
      "type": "event"
    },
    {
      "inputs": [],
      "name": "DEFAULT_ADMIN_ROLE",
      "outputs": [
        {
          "internalType": "bytes32",
          "name": "",
          "type": "bytes32"
        }
      ],
      "stateMutability": "view",
      "type": "function",
      "constant": true
    },
    {
      "inputs": [],
      "name": "MINTER_ROLE",
      "outputs": [
        {
          "internalType": "bytes32",
          "name": "",
          "type": "bytes32"
        }
      ],
      "stateMutability": "view",
      "type": "function",
      "constant": true
    },
    {
      "inputs": [],
      "name": "PAUSER_ROLE",
      "outputs": [
        {
          "internalType": "bytes32",
          "name": "",
          "type": "bytes32"
        }
      ],
      "stateMutability": "view",
      "type": "function",
      "constant": true
    },
    {
      "inputs": [],
      "name": "POLYNETWORK_ROLE",
      "outputs": [
        {
          "internalType": "bytes32",
          "name": "",
          "type": "bytes32"
        }
      ],
      "stateMutability": "view",
      "type": "function",
      "constant": true
    },
    {
      "inputs": [
        {
          "internalType": "address",
          "name": "to",
          "type": "address"
        },
        {
          "internalType": "uint256",
          "name": "tokenId",
          "type": "uint256"
        }
      ],
      "name": "approve",
      "outputs": [],
      "stateMutability": "nonpayable",
      "type": "function"
    },
    {
      "inputs": [
        {
          "internalType": "address",
          "name": "owner",
          "type": "address"
        }
      ],
      "name": "balanceOf",
      "outputs": [
        {
          "internalType": "uint256",
          "name": "",
          "type": "uint256"
        }
      ],
      "stateMutability": "view",
      "type": "function",
      "constant": true
    },
    {
      "inputs": [
        {
          "internalType": "uint256",
          "name": "tokenId",
          "type": "uint256"
        }
      ],
      "name": "burn",
      "outputs": [],
      "stateMutability": "nonpayable",
      "type": "function"
    },
    {
      "inputs": [
        {
          "internalType": "uint256",
          "name": "tokenId",
          "type": "uint256"
        }
      ],
      "name": "getApproved",
      "outputs": [
        {
          "internalType": "address",
          "name": "",
          "type": "address"
        }
      ],
      "stateMutability": "view",
      "type": "function",
      "constant": true
    },
    {
      "inputs": [],
      "name": "getCurrentCounter",
      "outputs": [
        {
          "internalType": "uint256",
          "name": "",
          "type": "uint256"
        }
      ],
      "stateMutability": "view",
      "type": "function",
      "constant": true
    },
    {
      "inputs": [],
      "name": "getLastTokenID",
      "outputs": [
        {
          "internalType": "uint256",
          "name": "",
          "type": "uint256"
        }
      ],
      "stateMutability": "view",
      "type": "function",
      "constant": true
    },
    {
      "inputs": [
        {
          "internalType": "bytes32",
          "name": "role",
          "type": "bytes32"
        }
      ],
      "name": "getRoleAdmin",
      "outputs": [
        {
          "internalType": "bytes32",
          "name": "",
          "type": "bytes32"
        }
      ],
      "stateMutability": "view",
      "type": "function",
      "constant": true
    },
    {
      "inputs": [
        {
          "internalType": "bytes32",
          "name": "role",
          "type": "bytes32"
        },
        {
          "internalType": "uint256",
          "name": "index",
          "type": "uint256"
        }
      ],
      "name": "getRoleMember",
      "outputs": [
        {
          "internalType": "address",
          "name": "",
          "type": "address"
        }
      ],
      "stateMutability": "view",
      "type": "function",
      "constant": true
    },
    {
      "inputs": [
        {
          "internalType": "bytes32",
          "name": "role",
          "type": "bytes32"
        }
      ],
      "name": "getRoleMemberCount",
      "outputs": [
        {
          "internalType": "uint256",
          "name": "",
          "type": "uint256"
        }
      ],
      "stateMutability": "view",
      "type": "function",
      "constant": true
    },
    {
      "inputs": [
        {
          "internalType": "bytes32",
          "name": "role",
          "type": "bytes32"
        },
        {
          "internalType": "address",
          "name": "account",
          "type": "address"
        }
      ],
      "name": "grantRole",
      "outputs": [],
      "stateMutability": "nonpayable",
      "type": "function"
    },
    {
      "inputs": [
        {
          "internalType": "bytes32",
          "name": "role",
          "type": "bytes32"
        },
        {
          "internalType": "address",
          "name": "account",
          "type": "address"
        }
      ],
      "name": "hasRole",
      "outputs": [
        {
          "internalType": "bool",
          "name": "",
          "type": "bool"
        }
      ],
      "stateMutability": "view",
      "type": "function",
      "constant": true
    },
    {
      "inputs": [
        {
          "internalType": "address",
          "name": "owner",
          "type": "address"
        },
        {
          "internalType": "address",
          "name": "operator",
          "type": "address"
        }
      ],
      "name": "isApprovedForAll",
      "outputs": [
        {
          "internalType": "bool",
          "name": "",
          "type": "bool"
        }
      ],
      "stateMutability": "view",
      "type": "function",
      "constant": true
    },
    {
      "inputs": [
        {
          "internalType": "address",
          "name": "to",
          "type": "address"
        },
        {
          "internalType": "uint256",
          "name": "tokenId",
          "type": "uint256"
        },
        {
          "internalType": "string",
          "name": "uri",
          "type": "string"
        }
      ],
      "name": "mintWithURI",
      "outputs": [],
      "stateMutability": "nonpayable",
      "type": "function"
    },
    {
      "inputs": [],
      "name": "name",
      "outputs": [
        {
          "internalType": "string",
          "name": "",
          "type": "string"
        }
      ],
      "stateMutability": "view",
      "type": "function",
      "constant": true
    },
    {
      "inputs": [],
      "name": "owner",
      "outputs": [
        {
          "internalType": "address",
          "name": "",
          "type": "address"
        }
      ],
      "stateMutability": "view",
      "type": "function",
      "constant": true
    },
    {
      "inputs": [
        {
          "internalType": "uint256",
          "name": "tokenId",
          "type": "uint256"
        }
      ],
      "name": "ownerOf",
      "outputs": [
        {
          "internalType": "address",
          "name": "",
          "type": "address"
        }
      ],
      "stateMutability": "view",
      "type": "function",
      "constant": true
    },
    {
      "inputs": [],
      "name": "pause",
      "outputs": [],
      "stateMutability": "nonpayable",
      "type": "function"
    },
    {
      "inputs": [],
      "name": "paused",
      "outputs": [
        {
          "internalType": "bool",
          "name": "",
          "type": "bool"
        }
      ],
      "stateMutability": "view",
      "type": "function",
      "constant": true
    },
    {
      "inputs": [],
      "name": "renounceOwnership",
      "outputs": [],
      "stateMutability": "nonpayable",
      "type": "function"
    },
    {
      "inputs": [
        {
          "internalType": "bytes32",
          "name": "role",
          "type": "bytes32"
        },
        {
          "internalType": "address",
          "name": "account",
          "type": "address"
        }
      ],
      "name": "renounceRole",
      "outputs": [],
      "stateMutability": "nonpayable",
      "type": "function"
    },
    {
      "inputs": [
        {
          "internalType": "bytes32",
          "name": "role",
          "type": "bytes32"
        },
        {
          "internalType": "address",
          "name": "account",
          "type": "address"
        }
      ],
      "name": "revokeRole",
      "outputs": [],
      "stateMutability": "nonpayable",
      "type": "function"
    },
    {
      "inputs": [
        {
          "internalType": "address",
          "name": "from",
          "type": "address"
        },
        {
          "internalType": "address",
          "name": "to",
          "type": "address"
        },
        {
          "internalType": "uint256",
          "name": "tokenId",
          "type": "uint256"
        }
      ],
      "name": "safeTransferFrom",
      "outputs": [],
      "stateMutability": "nonpayable",
      "type": "function"
    },
    {
      "inputs": [
        {
          "internalType": "address",
          "name": "from",
          "type": "address"
        },
        {
          "internalType": "address",
          "name": "to",
          "type": "address"
        },
        {
          "internalType": "uint256",
          "name": "tokenId",
          "type": "uint256"
        },
        {
          "internalType": "bytes",
          "name": "_data",
          "type": "bytes"
        }
      ],
      "name": "safeTransferFrom",
      "outputs": [],
      "stateMutability": "nonpayable",
      "type": "function"
    },
    {
      "inputs": [
        {
          "internalType": "address",
          "name": "operator",
          "type": "address"
        },
        {
          "internalType": "bool",
          "name": "approved",
          "type": "bool"
        }
      ],
      "name": "setApprovalForAll",
      "outputs": [],
      "stateMutability": "nonpayable",
      "type": "function"
    },
    {
      "inputs": [
        {
          "internalType": "string",
          "name": "baseTokenURI",
          "type": "string"
        }
      ],
      "name": "setBaseTokenURI",
      "outputs": [],
      "stateMutability": "nonpayable",
      "type": "function"
    },
    {
      "inputs": [],
      "name": "symbol",
      "outputs": [
        {
          "internalType": "string",
          "name": "",
          "type": "string"
        }
      ],
      "stateMutability": "view",
      "type": "function",
      "constant": true
    },
    {
      "inputs": [
        {
          "internalType": "uint256",
          "name": "index",
          "type": "uint256"
        }
      ],
      "name": "tokenByIndex",
      "outputs": [
        {
          "internalType": "uint256",
          "name": "",
          "type": "uint256"
        }
      ],
      "stateMutability": "view",
      "type": "function",
      "constant": true
    },
    {
      "inputs": [
        {
          "internalType": "address",
          "name": "owner",
          "type": "address"
        },
        {
          "internalType": "uint256",
          "name": "index",
          "type": "uint256"
        }
      ],
      "name": "tokenOfOwnerByIndex",
      "outputs": [
        {
          "internalType": "uint256",
          "name": "",
          "type": "uint256"
        }
      ],
      "stateMutability": "view",
      "type": "function",
      "constant": true
    },
    {
      "inputs": [
        {
          "internalType": "uint256",
          "name": "tokenId",
          "type": "uint256"
        }
      ],
      "name": "tokenURI",
      "outputs": [
        {
          "internalType": "string",
          "name": "",
          "type": "string"
        }
      ],
      "stateMutability": "view",
      "type": "function",
      "constant": true
    },
    {
      "inputs": [],
      "name": "totalSupply",
      "outputs": [
        {
          "internalType": "uint256",
          "name": "",
          "type": "uint256"
        }
      ],
      "stateMutability": "view",
      "type": "function",
      "constant": true
    },
    {
      "inputs": [
        {
          "internalType": "address",
          "name": "from",
          "type": "address"
        },
        {
          "internalType": "address",
          "name": "to",
          "type": "address"
        },
        {
          "internalType": "uint256",
          "name": "tokenId",
          "type": "uint256"
        }
      ],
      "name": "transferFrom",
      "outputs": [],
      "stateMutability": "nonpayable",
      "type": "function"
    },
    {
      "inputs": [
        {
          "internalType": "address",
          "name": "newOwner",
          "type": "address"
        }
      ],
      "name": "transferOwnership",
      "outputs": [],
      "stateMutability": "nonpayable",
      "type": "function"
    },
    {
      "inputs": [],
      "name": "unpause",
      "outputs": [],
      "stateMutability": "nonpayable",
      "type": "function"
    },
    {
      "inputs": [
        {
          "internalType": "string",
          "name": "name",
          "type": "string"
        },
        {
          "internalType": "string",
          "name": "symbol",
          "type": "string"
        },
        {
          "internalType": "string",
          "name": "uri",
          "type": "string"
        }
      ],
      "name": "initialize",
      "outputs": [],
      "stateMutability": "nonpayable",
      "type": "function"
    },
    {
      "inputs": [
        {
          "internalType": "bytes4",
          "name": "interfaceId",
          "type": "bytes4"
        }
      ],
      "name": "supportsInterface",
      "outputs": [
        {
          "internalType": "bool",
          "name": "",
          "type": "bool"
        }
      ],
      "stateMutability": "view",
      "type": "function",
      "constant": true
    },
    {
      "inputs": [
        {
          "internalType": "address",
          "name": "to",
          "type": "address"
        },
        {
          "components": [
            {
              "internalType": "address payable",
              "name": "recipient",
              "type": "address"
            },
            {
              "internalType": "uint256",
              "name": "value",
              "type": "uint256"
            }
          ],
          "internalType": "struct GhostMarketERC721.Royalty[]",
          "name": "royalties",
          "type": "tuple[]"
        },
        {
          "internalType": "string",
          "name": "externalURI",
          "type": "string"
        },
        {
          "internalType": "string",
          "name": "metadata",
          "type": "string"
        },
        {
          "internalType": "string",
          "name": "lockedcontent",
          "type": "string"
        }
      ],
      "name": "mintGhost",
      "outputs": [],
      "stateMutability": "payable",
      "type": "function",
      "payable": true
    },
    {
      "inputs": [
        {
          "internalType": "uint256",
          "name": "withdrawAmount",
          "type": "uint256"
        }
      ],
      "name": "withdraw",
      "outputs": [],
      "stateMutability": "nonpayable",
      "type": "function"
    },
    {
      "inputs": [
        {
          "internalType": "uint256[]",
          "name": "tokensId",
          "type": "uint256[]"
        }
      ],
      "name": "burnBatch",
      "outputs": [],
      "stateMutability": "nonpayable",
      "type": "function"
    },
    {
      "inputs": [
        {
          "internalType": "uint256",
          "name": "gmmf",
          "type": "uint256"
        }
      ],
      "name": "setGhostmarketMintFee",
      "outputs": [],
      "stateMutability": "nonpayable",
      "type": "function"
    },
    {
      "inputs": [],
      "name": "getGhostmarketMintFees",
      "outputs": [
        {
          "internalType": "uint256",
          "name": "",
          "type": "uint256"
        }
      ],
      "stateMutability": "view",
      "type": "function",
      "constant": true
    },
    {
      "inputs": [
        {
          "internalType": "uint256",
          "name": "tokenId",
          "type": "uint256"
        }
      ],
      "name": "getLockedContent",
      "outputs": [],
      "stateMutability": "nonpayable",
      "type": "function"
    },
    {
      "inputs": [
        {
          "internalType": "uint256",
          "name": "tokenId",
          "type": "uint256"
        }
      ],
      "name": "getCurrentLockedContentViewTracker",
      "outputs": [
        {
          "internalType": "uint256",
          "name": "",
          "type": "uint256"
        }
      ],
      "stateMutability": "view",
      "type": "function",
      "constant": true
    },
    {
      "inputs": [
        {
          "internalType": "uint256",
          "name": "tokenId",
          "type": "uint256"
        }
      ],
      "name": "getMetadataJson",
      "outputs": [
        {
          "internalType": "string",
          "name": "",
          "type": "string"
        }
      ],
      "stateMutability": "view",
      "type": "function",
      "constant": true
    },
    {
      "inputs": [
        {
          "internalType": "uint256",
          "name": "tokenId",
          "type": "uint256"
        }
      ],
      "name": "getRoyalties",
      "outputs": [
        {
          "components": [
            {
              "internalType": "address payable",
              "name": "recipient",
              "type": "address"
            },
            {
              "internalType": "uint256",
              "name": "value",
              "type": "uint256"
            }
          ],
          "internalType": "struct GhostMarketERC721.Royalty[]",
          "name": "",
          "type": "tuple[]"
        }
      ],
      "stateMutability": "view",
      "type": "function",
      "constant": true
    },
    {
      "inputs": [
        {
          "internalType": "uint256",
          "name": "tokenId",
          "type": "uint256"
        }
      ],
      "name": "getRoyaltiesRecipients",
      "outputs": [
        {
          "internalType": "address payable[]",
          "name": "",
          "type": "address[]"
        }
      ],
      "stateMutability": "view",
      "type": "function",
      "constant": true
    },
    {
      "inputs": [
        {
          "internalType": "uint256",
          "name": "tokenId",
          "type": "uint256"
        }
      ],
      "name": "getRoyaltiesBps",
      "outputs": [
        {
          "internalType": "uint256[]",
          "name": "",
          "type": "uint256[]"
        }
      ],
      "stateMutability": "view",
      "type": "function",
      "constant": true
    }
  ],
  "bytecode": "0x608060405234801561001057600080fd5b50614ffe806100206000396000f3fe6080604052600436106103295760003560e01c80638456cb59116101a5578063c6f4f0f0116100ec578063e24dbeae11610095578063e985e9c51161006f578063e985e9c514610950578063edcbc0bd14610999578063f2fde38b146109c6578063f7d027de146109e657600080fd5b8063e24dbeae146108e6578063e4623c1b146108fc578063e63ab1e91461091c57600080fd5b8063d5391393116100c6578063d539139314610872578063d547741f146108a6578063dac0f3d9146108c657600080fd5b8063c6f4f0f014610804578063c87b56dd14610832578063ca15c8731461085257600080fd5b8063a217fddf1161014e578063b88d4fde11610128578063b88d4fde1461078a578063bb3bafd6146107aa578063c1793c58146107d757600080fd5b8063a217fddf14610735578063a22cb4651461074a578063a6487c531461076a57600080fd5b806391d148541161017f57806391d14854146106a657806395d89b41146106ec5780639ceea6651461070157600080fd5b80638456cb59146106525780638da5cb5b146106675780639010d07c1461068657600080fd5b80632fffbf26116102745780634a99950b1161021d5780636352211e116101f75780636352211e146105e857806370a0823114610608578063715018a61461062857806373448c461461063d57600080fd5b80634a99950b1461058f5780634f6ccce7146105af5780635c975abb146105cf57600080fd5b80633f4ba83a1161024e5780633f4ba83a1461053a57806342842e0e1461054f57806342966c681461056f57600080fd5b80632fffbf26146104e757806330176e13146104fa57806336568abe1461051a57600080fd5b80631c7e78f3116102d65780632e1a7d4d116102b05780632e1a7d4d146104875780632f2ff15d146104a75780632f745c59146104c757600080fd5b80631c7e78f31461041757806323b872dd14610437578063248a9ca31461045757600080fd5b8063095ea7b311610307578063095ea7b3146103bd5780630e094137146103df57806318160ddd1461040257600080fd5b806301ffc9a71461032e57806306fdde0314610363578063081812fc14610385575b600080fd5b34801561033a57600080fd5b5061034e6103493660046149d5565b610a06565b60405190151581526020015b60405180910390f35b34801561036f57600080fd5b50610378610a17565b60405161035a9190614dbb565b34801561039157600080fd5b506103a56103a0366004614978565b610aa9565b6040516001600160a01b03909116815260200161035a565b3480156103c957600080fd5b506103dd6103d8366004614863565b610b43565b005b3480156103eb57600080fd5b506103f4610c75565b60405190815260200161035a565b34801561040e57600080fd5b5060fd546103f4565b34801561042357600080fd5b506103dd610432366004614978565b610ca8565b34801561044357600080fd5b506103dd61045236600461462f565b610d84565b34801561046357600080fd5b506103f4610472366004614978565b60009081526065602052604090206001015490565b34801561049357600080fd5b506103dd6104a2366004614978565b610e0c565b3480156104b357600080fd5b506103dd6104c2366004614990565b610fff565b3480156104d357600080fd5b506103f46104e2366004614863565b611021565b6103dd6104f53660046146ec565b6110c9565b34801561050657600080fd5b506103dd610515366004614a0d565b6112ff565b34801561052657600080fd5b506103dd610535366004614990565b611394565b34801561054657600080fd5b506103dd6113b6565b34801561055b57600080fd5b506103dd61056a36600461462f565b61145e565b34801561057b57600080fd5b506103dd61058a366004614978565b611479565b34801561059b57600080fd5b506103dd6105aa36600461488e565b611500565b3480156105bb57600080fd5b506103f46105ca366004614978565b611615565b3480156105db57600080fd5b5061015f5460ff1661034e565b3480156105f457600080fd5b506103a5610603366004614978565b6116c7565b34801561061457600080fd5b506103f46106233660046145db565b611752565b34801561063457600080fd5b506103dd6117ec565b34801561064957600080fd5b506103f4611893565b34801561065e57600080fd5b506103dd61189f565b34801561067357600080fd5b5061025b546001600160a01b03166103a5565b34801561069257600080fd5b506103a56106a13660046149b4565b611943565b3480156106b257600080fd5b5061034e6106c1366004614990565b60009182526065602090815260408084206001600160a01b0393909316845291905290205460ff1690565b3480156106f857600080fd5b50610378611962565b34801561070d57600080fd5b506103f47f8a9d57248f1015d5cac20111fe2512477434cf493627e5e959ca751e593d807981565b34801561074157600080fd5b506103f4600081565b34801561075657600080fd5b506103dd610765366004614832565b611971565b34801561077657600080fd5b506103dd610785366004614a40565b611a36565b34801561079657600080fd5b506103dd6107a536600461466f565b611ba1565b3480156107b657600080fd5b506107ca6107c5366004614978565b611c29565b60405161035a9190614d2b565b3480156107e357600080fd5b506107f76107f2366004614978565b611cb2565b60405161035a9190614d83565b34801561081057600080fd5b506103f461081f366004614978565b60009081526102c1602052604090205490565b34801561083e57600080fd5b5061037861084d366004614978565b611dff565b34801561085e57600080fd5b506103f461086d366004614978565b611e0a565b34801561087e57600080fd5b506103f47f9f2df0fed2c77648de5860a4cc508cd0818c85b8b8a1ab4ceeef8d981c8956a681565b3480156108b257600080fd5b506103dd6108c1366004614990565b611e21565b3480156108d257600080fd5b506103dd6108e1366004614978565b611e2b565b3480156108f257600080fd5b506102c4546103f4565b34801561090857600080fd5b506103dd6109173660046148e5565b611ee4565b34801561092857600080fd5b506103f47f65d7a28e3265b37a6474929f336521b332c1681b933f6cb9f3376673440d862a81565b34801561095c57600080fd5b5061034e61096b3660046145f7565b6001600160a01b03918216600090815260ce6020908152604080832093909416825291909152205460ff1690565b3480156109a557600080fd5b506109b96109b4366004614978565b611f32565b60405161035a9190614cde565b3480156109d257600080fd5b506103dd6109e13660046145db565b612084565b3480156109f257600080fd5b50610378610a01366004614978565b6121b9565b6000610a118261225c565b92915050565b606060c98054610a2690614ef1565b80601f0160208091040260200160405190810160405280929190818152602001828054610a5290614ef1565b8015610a9f5780601f10610a7457610100808354040283529160200191610a9f565b820191906000526020600020905b815481529060010190602001808311610a8257829003601f168201915b5050505050905090565b600081815260cb60205260408120546001600160a01b0316610b275760405162461bcd60e51b815260206004820152602c60248201527f4552433732313a20617070726f76656420717565727920666f72206e6f6e657860448201526b34b9ba32b73a103a37b5b2b760a11b60648201526084015b60405180910390fd5b50600090815260cd60205260409020546001600160a01b031690565b6000610b4e826116c7565b9050806001600160a01b0316836001600160a01b03161415610bd85760405162461bcd60e51b815260206004820152602160248201527f4552433732313a20617070726f76616c20746f2063757272656e74206f776e6560448201527f72000000000000000000000000000000000000000000000000000000000000006064820152608401610b1e565b336001600160a01b0382161480610bf45750610bf4813361096b565b610c665760405162461bcd60e51b815260206004820152603860248201527f4552433732313a20617070726f76652063616c6c6572206973206e6f74206f7760448201527f6e6572206e6f7220617070726f76656420666f7220616c6c00000000000000006064820152608401610b1e565b610c70838361228e565b505050565b6000610c816101f55490565b610c9257506101f55490565b905090565b6001610c9e6101f55490565b610c8d9190614e97565b33610cb2826116c7565b6001600160a01b031614610d2e5760405162461bcd60e51b815260206004820152602360248201527f43616c6c6572206d75737420626520746865206f776e6572206f66207468652060448201527f4e465400000000000000000000000000000000000000000000000000000000006064820152608401610b1e565b610d37816122fc565b60008181526102c060205260409081902090517f544b1d1249133c50ce89743ed1ca34a815bd50d42b71e6d331a1ac560013a8ec91610d799133918591614c1f565b60405180910390a150565b610d8f335b8261232a565b610e015760405162461bcd60e51b815260206004820152603160248201527f4552433732313a207472616e736665722063616c6c6572206973206e6f74206f60448201527f776e6572206e6f7220617070726f7665640000000000000000000000000000006064820152608401610b1e565b610c70838383612421565b61025b546001600160a01b03163314610e675760405162461bcd60e51b815260206004820181905260248201527f4f776e61626c653a2063616c6c6572206973206e6f7420746865206f776e65726044820152606401610b1e565b600081118015610e7a57506102c3548111155b610f125760405162461bcd60e51b815260206004820152604760248201527f576974686472617720616d6f756e742073686f756c642062652067726561746560448201527f72207468656e203020616e64206c657373207468656e20636f6e74726163742060648201527f62616c616e636500000000000000000000000000000000000000000000000000608482015260a401610b1e565b806102c36000828254610f259190614e97565b9091555050604051600090339083908381818185875af1925050503d8060008114610f6c576040519150601f19603f3d011682016040523d82523d6000602084013e610f71565b606091505b5050905080610fc25760405162461bcd60e51b815260206004820152601060248201527f5472616e73666572206661696c65642e000000000000000000000000000000006044820152606401610b1e565b60408051338152602081018490527f3c897fa64265e543b9d36df079688f87240185d1bf1a937e4c45a56e11678736910160405180910390a15050565b61100982826125f9565b6000828152609760205260409020610c70908261261f565b600061102c83611752565b82106110a05760405162461bcd60e51b815260206004820152602b60248201527f455243373231456e756d657261626c653a206f776e657220696e646578206f7560448201527f74206f6620626f756e64730000000000000000000000000000000000000000006064820152608401610b1e565b506001600160a01b0391909116600090815260fb60209081526040808320938352929052205490565b600261022954141561111d5760405162461bcd60e51b815260206004820152601f60248201527f5265656e7472616e637947756172643a207265656e7472616e742063616c6c006044820152606401610b1e565b6002610229556001600160a01b0385166111795760405162461bcd60e51b815260206004820152601160248201527f746f2063616e277420626520656d7074790000000000000000000000000000006044820152606401610b1e565b604080516000815260208101808352815190209161119991869101614ae6565b6040516020818303038152906040528051906020012014156111fd5760405162461bcd60e51b815260206004820152601a60248201527f65787465726e616c5552492063616e277420626520656d7074790000000000006044820152606401610b1e565b61120685612634565b6000611210610c75565b855190915015611224576112248186612656565b604080516000815260208101808352815190209161124491869101614ae6565b6040516020818303038152906040528051906020012014611269576112698184612939565b604080516000815260208101808352815190209161128991859101614ae6565b60405160208183030381529060405280519060200120146112ae576112ae8183612959565b6112b6612979565b7fe7cd4ce7f2a465edc730269a1305e8a48bad821e8fb7e152ec413829c01a53c48682866040516112e993929190614bee565b60405180910390a1505060016102295550505050565b61130a6000336106c1565b61137c5760405162461bcd60e51b815260206004820152603460248201527f73657442617365546f6b656e5552493a206d75737420686176652041444d494e60448201527f20726f6c6520746f206368616e676520746869730000000000000000000000006064820152608401610b1e565b8051611390906101f6906020840190614495565b5050565b61139e8282612a1a565b6000828152609760205260409020610c709082612aa2565b6113e07f65d7a28e3265b37a6474929f336521b332c1681b933f6cb9f3376673440d862a336106c1565b611454576040805162461bcd60e51b81526020600482015260248101919091527f4552433732315072657365744d696e7465725061757365724175746f49643a2060448201527f6d75737420686176652070617573657220726f6c6520746f20756e70617573656064820152608401610b1e565b61145c612ab7565b565b610c7083838360405180602001604052806000815250611ba1565b61148233610d89565b6114f45760405162461bcd60e51b815260206004820152603060248201527f4552433732314275726e61626c653a2063616c6c6572206973206e6f74206f7760448201527f6e6572206e6f7220617070726f766564000000000000000000000000000000006064820152608401610b1e565b6114fd81612b55565b50565b61152a7f8a9d57248f1015d5cac20111fe2512477434cf493627e5e959ca751e593d8079336106c1565b61159c5760405162461bcd60e51b815260206004820152603460248201527f6d696e74576974685552493a206d757374206861766520504f4c594e4554574f60448201527f524b5f524f4c4520726f6c6520746f206d696e740000000000000000000000006064820152608401610b1e565b600082815260cb60205260409020546001600160a01b0316156116015760405162461bcd60e51b815260206004820152601660248201527f746f6b656e20696420616c7265616479206578697374000000000000000000006044820152606401610b1e565b61160b8383612b5e565b610c708282612b68565b600061162060fd5490565b82106116945760405162461bcd60e51b815260206004820152602c60248201527f455243373231456e756d657261626c653a20676c6f62616c20696e646578206f60448201527f7574206f6620626f756e647300000000000000000000000000000000000000006064820152608401610b1e565b60fd82815481106116b557634e487b7160e01b600052603260045260246000fd5b90600052602060002001549050919050565b600081815260cb60205260408120546001600160a01b031680610a115760405162461bcd60e51b815260206004820152602960248201527f4552433732313a206f776e657220717565727920666f72206e6f6e657869737460448201527f656e7420746f6b656e00000000000000000000000000000000000000000000006064820152608401610b1e565b60006001600160a01b0382166117d05760405162461bcd60e51b815260206004820152602a60248201527f4552433732313a2062616c616e636520717565727920666f7220746865207a6560448201527f726f2061646472657373000000000000000000000000000000000000000000006064820152608401610b1e565b506001600160a01b0316600090815260cc602052604090205490565b61025b546001600160a01b031633146118475760405162461bcd60e51b815260206004820181905260248201527f4f776e61626c653a2063616c6c6572206973206e6f7420746865206f776e65726044820152606401610b1e565b61025b546040516000916001600160a01b0316907f8be0079c531659141344cd1fd0a4f28419497f9722a3daafe3b4186f6b6457e0908390a361025b80546001600160a01b0319169055565b6000610c8d6101f55490565b6118c97f65d7a28e3265b37a6474929f336521b332c1681b933f6cb9f3376673440d862a336106c1565b61193b5760405162461bcd60e51b815260206004820152603e60248201527f4552433732315072657365744d696e7465725061757365724175746f49643a2060448201527f6d75737420686176652070617573657220726f6c6520746f20706175736500006064820152608401610b1e565b61145c612b72565b600082815260976020526040812061195b9083612bfc565b9392505050565b606060ca8054610a2690614ef1565b6001600160a01b0382163314156119ca5760405162461bcd60e51b815260206004820152601960248201527f4552433732313a20617070726f766520746f2063616c6c6572000000000000006044820152606401610b1e565b33600081815260ce602090815260408083206001600160a01b03871680855290835292819020805460ff191686151590811790915590519081529192917f17307eab39ab6107e8899845ad3d59bd9653f200f220920489ca2b5937696c31910160405180910390a35050565b600054610100900460ff1680611a4f575060005460ff16155b611ab25760405162461bcd60e51b815260206004820152602e60248201527f496e697469616c697a61626c653a20636f6e747261637420697320616c72656160448201526d191e481a5b9a5d1a585b1a5e995960921b6064820152608401610b1e565b600054610100900460ff16158015611ad4576000805461ffff19166101011790555b611adc612c08565b611ae4612c08565b611aec612c08565b611af4612c08565b611afc612c08565b611b04612c08565b611b0c612cba565b611b14612c08565b611b1c612c08565b611b268484612d77565b611b2f82612e53565b611b37612fb3565b611b607fee40ffc1ec8332b0837bd418921ada6378fb242be0d51d747626add0fc93894b6130a9565b611b897fe42093a63818e0c931c15fda9036d0d8995a638e7acfabc8355a4789766e8de96130a9565b8015611b9b576000805461ff00191690555b50505050565b611bab338361232a565b611c1d5760405162461bcd60e51b815260206004820152603160248201527f4552433732313a207472616e736665722063616c6c6572206973206e6f74206f60448201527f776e6572206e6f7220617070726f7665640000000000000000000000000000006064820152608401610b1e565b611b9b84848484613129565b60606102bf6000838152602001908152602001600020805480602002602001604051908101604052809291908181526020016000905b82821015611ca7576000848152602090819020604080518082019091526002850290910180546001600160a01b03168252600190810154828401529083529092019101611c5f565b505050509050919050565b60008181526102bf60209081526040808320805482518185028101850190935280835260609493849084015b82821015611d26576000848152602090819020604080518082019091526002850290910180546001600160a01b03168252600190810154828401529083529092019101611cde565b5050505090506000815167ffffffffffffffff811115611d5657634e487b7160e01b600052604160045260246000fd5b604051908082528060200260200182016040528015611d7f578160200160208202803683370190505b50905060005b8251811015611df757828181518110611dae57634e487b7160e01b600052603260045260246000fd5b602002602001015160200151828281518110611dda57634e487b7160e01b600052603260045260246000fd5b602090810291909101015280611def81614f2c565b915050611d85565b509392505050565b6060610a11826131b2565b6000818152609760205260408120610a1190613331565b61139e828261333b565b611e366000336106c1565b611ea85760405162461bcd60e51b815260206004820152602c60248201527f43616c6c6572206d75737420686176652061646d696e20726f6c6520746f207360448201527f6574206d696e74206665657300000000000000000000000000000000000000006064820152608401610b1e565b6102c481905560408051338152602081018390527f7801094d3234fa70b910ee2d953591f831bb371292f4f1d114a9111f2391c8129101610d79565b60005b815181101561139057611f20828281518110611f1357634e487b7160e01b600052603260045260246000fd5b6020026020010151611479565b80611f2a81614f2c565b915050611ee7565b60008181526102bf60209081526040808320805482518185028101850190935280835260609493849084015b82821015611fa6576000848152602090819020604080518082019091526002850290910180546001600160a01b03168252600190810154828401529083529092019101611f5e565b5050505090506000815167ffffffffffffffff811115611fd657634e487b7160e01b600052604160045260246000fd5b604051908082528060200260200182016040528015611fff578160200160208202803683370190505b50905060005b8251811015611df75782818151811061202e57634e487b7160e01b600052603260045260246000fd5b60200260200101516000015182828151811061205a57634e487b7160e01b600052603260045260246000fd5b6001600160a01b03909216602092830291909101909101528061207c81614f2c565b915050612005565b61025b546001600160a01b031633146120df5760405162461bcd60e51b815260206004820181905260248201527f4f776e61626c653a2063616c6c6572206973206e6f7420746865206f776e65726044820152606401610b1e565b6001600160a01b03811661215b5760405162461bcd60e51b815260206004820152602660248201527f4f776e61626c653a206e6577206f776e657220697320746865207a65726f206160448201527f64647265737300000000000000000000000000000000000000000000000000006064820152608401610b1e565b61025b546040516001600160a01b038084169216907f8be0079c531659141344cd1fd0a4f28419497f9722a3daafe3b4186f6b6457e090600090a361025b80546001600160a01b0319166001600160a01b0392909216919091179055565b60008181526102c2602052604090208054606091906121d790614ef1565b80601f016020809104026020016040519081016040528092919081815260200182805461220390614ef1565b80156122505780601f1061222557610100808354040283529160200191612250565b820191906000526020600020905b81548152906001019060200180831161223357829003601f168201915b50505050509050919050565b600061226782613361565b80610a115750506001600160e01b031916600090815261028d602052604090205460ff1690565b600081815260cd6020526040902080546001600160a01b0319166001600160a01b03841690811790915581906122c3826116c7565b6001600160a01b03167f8c5be1e5ebec7d5bd14f71427d1e84f3dd0314c0f7b2291e5b200ac8c7c3b92560405160405180910390a45050565b60008181526102c16020526040902054612317906001614e4c565b60009182526102c1602052604090912055565b600081815260cb60205260408120546001600160a01b03166123a35760405162461bcd60e51b815260206004820152602c60248201527f4552433732313a206f70657261746f7220717565727920666f72206e6f6e657860448201526b34b9ba32b73a103a37b5b2b760a11b6064820152608401610b1e565b60006123ae836116c7565b9050806001600160a01b0316846001600160a01b031614806123e95750836001600160a01b03166123de84610aa9565b6001600160a01b0316145b8061241957506001600160a01b03808216600090815260ce602090815260408083209388168352929052205460ff165b949350505050565b826001600160a01b0316612434826116c7565b6001600160a01b0316146124b05760405162461bcd60e51b815260206004820152602960248201527f4552433732313a207472616e73666572206f6620746f6b656e2074686174206960448201527f73206e6f74206f776e00000000000000000000000000000000000000000000006064820152608401610b1e565b6001600160a01b03821661252b5760405162461bcd60e51b8152602060048201526024808201527f4552433732313a207472616e7366657220746f20746865207a65726f2061646460448201527f72657373000000000000000000000000000000000000000000000000000000006064820152608401610b1e565b61253683838361336c565b61254160008261228e565b6001600160a01b038316600090815260cc6020526040812080546001929061256a908490614e97565b90915550506001600160a01b038216600090815260cc60205260408120805460019290612598908490614e4c565b9091555050600081815260cb602052604080822080546001600160a01b0319166001600160a01b0386811691821790925591518493918716917fddf252ad1be2c89b69c2b068fc378daa952ba7f163c4a11628f55a4df523b3ef91a4505050565b6000828152606560205260409020600101546126158133613377565b610c7083836133f7565b600061195b836001600160a01b038416613499565b612647816126426101f55490565b6134e8565b6114fd6101f580546001019055565b600082815260cb60205260409020546001600160a01b03166126cf5760405162461bcd60e51b815260206004820152602c60248201527f4552433732313a20617070726f76656420717565727920666f72206e6f6e657860448201526b34b9ba32b73a103a37b5b2b760a11b6064820152608401610b1e565b60005b8151811015610c705760006001600160a01b031682828151811061270657634e487b7160e01b600052603260045260246000fd5b6020026020010151600001516001600160a01b031614156127695760405162461bcd60e51b815260206004820152601b60248201527f526563697069656e742073686f756c642062652070726573656e7400000000006044820152606401610b1e565b600082828151811061278b57634e487b7160e01b600052603260045260246000fd5b6020026020010151602001511161280a5760405162461bcd60e51b815260206004820152602260248201527f526f79616c746965732076616c75652073686f756c6420626520706f7369746960448201527f76650000000000000000000000000000000000000000000000000000000000006064820152608401610b1e565b61138882828151811061282d57634e487b7160e01b600052603260045260246000fd5b60200260200101516020015111156128ad5760405162461bcd60e51b815260206004820152602b60248201527f526f79616c746965732076616c75652073686f756c64206e6f74206265206d6f60448201527f7265207468616e203530250000000000000000000000000000000000000000006064820152608401610b1e565b60008381526102bf6020526040902082518390839081106128de57634e487b7160e01b600052603260045260246000fd5b602090810291909101810151825460018082018555600094855293839020825160029092020180546001600160a01b0319166001600160a01b039092169190911781559101519101558061293181614f2c565b9150506126d2565b60008281526102c2602090815260409091208251610c7092840190614495565b60008281526102c0602090815260409091208251610c7092840190614495565b6102c454156129fa576102c45434146129fa5760405162461bcd60e51b815260206004820152603260248201527f57726f6e6720666565732076616c75652073656e7420746f2047686f73744d6160448201527f726b657420666f72206d696e74206665657300000000000000000000000000006064820152608401610b1e565b341561145c57346102c36000828254612a139190614e4c565b9091555050565b6001600160a01b0381163314612a985760405162461bcd60e51b815260206004820152602f60248201527f416363657373436f6e74726f6c3a2063616e206f6e6c792072656e6f756e636560448201527f20726f6c657320666f722073656c6600000000000000000000000000000000006064820152608401610b1e565b6113908282613636565b600061195b836001600160a01b0384166136b9565b61015f5460ff16612b0a5760405162461bcd60e51b815260206004820152601460248201527f5061757361626c653a206e6f74207061757365640000000000000000000000006044820152606401610b1e565b61015f805460ff191690557f5db9ee0a495bf2e6ff9c91a7834c1ba4fdd244a5e8aa4e537bd38aeae4b073aa335b6040516001600160a01b03909116815260200160405180910390a1565b6114fd816137d0565b6113908282613812565b611390828261382c565b61015f5460ff1615612bc65760405162461bcd60e51b815260206004820152601060248201527f5061757361626c653a20706175736564000000000000000000000000000000006044820152606401610b1e565b61015f805460ff191660011790557f62e78cea01bee320cd4e420270b5ea74000d11b0c9f74754ebdbfc544b05a258612b383390565b600061195b83836138d6565b600054610100900460ff1680612c21575060005460ff16155b612c845760405162461bcd60e51b815260206004820152602e60248201527f496e697469616c697a61626c653a20636f6e747261637420697320616c72656160448201526d191e481a5b9a5d1a585b1a5e995960921b6064820152608401610b1e565b600054610100900460ff16158015612ca6576000805461ffff19166101011790555b80156114fd576000805461ff001916905550565b600054610100900460ff1680612cd3575060005460ff16155b612d365760405162461bcd60e51b815260206004820152602e60248201527f496e697469616c697a61626c653a20636f6e747261637420697320616c72656160448201526d191e481a5b9a5d1a585b1a5e995960921b6064820152608401610b1e565b600054610100900460ff16158015612d58576000805461ffff19166101011790555b61015f805460ff1916905580156114fd576000805461ff001916905550565b600054610100900460ff1680612d90575060005460ff16155b612df35760405162461bcd60e51b815260206004820152602e60248201527f496e697469616c697a61626c653a20636f6e747261637420697320616c72656160448201526d191e481a5b9a5d1a585b1a5e995960921b6064820152608401610b1e565b600054610100900460ff16158015612e15576000805461ffff19166101011790555b8251612e289060c9906020860190614495565b508151612e3c9060ca906020850190614495565b508015610c70576000805461ff0019169055505050565b600054610100900460ff1680612e6c575060005460ff16155b612ecf5760405162461bcd60e51b815260206004820152602e60248201527f496e697469616c697a61626c653a20636f6e747261637420697320616c72656160448201526d191e481a5b9a5d1a585b1a5e995960921b6064820152608401610b1e565b600054610100900460ff16158015612ef1576000805461ffff19166101011790555b8151612f05906101f6906020850190614495565b50612f11600033613985565b612f3b7f9f2df0fed2c77648de5860a4cc508cd0818c85b8b8a1ab4ceeef8d981c8956a633613985565b612f657f65d7a28e3265b37a6474929f336521b332c1681b933f6cb9f3376673440d862a33613985565b612f8f7f8a9d57248f1015d5cac20111fe2512477434cf493627e5e959ca751e593d807933613985565b612f9e6101f580546001019055565b8015611390576000805461ff00191690555050565b600054610100900460ff1680612fcc575060005460ff16155b61302f5760405162461bcd60e51b815260206004820152602e60248201527f496e697469616c697a61626c653a20636f6e747261637420697320616c72656160448201526d191e481a5b9a5d1a585b1a5e995960921b6064820152608401610b1e565b600054610100900460ff16158015613051576000805461ffff19166101011790555b61025b80546001600160a01b0319163390811790915560405181906000907f8be0079c531659141344cd1fd0a4f28419497f9722a3daafe3b4186f6b6457e0908290a35080156114fd576000805461ff001916905550565b6001600160e01b031980821614156131035760405162461bcd60e51b815260206004820152601c60248201527f4552433136353a20696e76616c696420696e74657266616365206964000000006044820152606401610b1e565b6001600160e01b031916600090815261028d60205260409020805460ff19166001179055565b613134848484612421565b6131408484848461398f565b611b9b5760405162461bcd60e51b815260206004820152603260248201527f4552433732313a207472616e7366657220746f206e6f6e20455243373231526560448201527f63656976657220696d706c656d656e74657200000000000000000000000000006064820152608401610b1e565b600081815260cb60205260409020546060906001600160a01b031661323f5760405162461bcd60e51b815260206004820152603160248201527f45524337323155524953746f726167653a2055524920717565727920666f722060448201527f6e6f6e6578697374656e7420746f6b656e0000000000000000000000000000006064820152608401610b1e565b60008281526101c360205260408120805461325990614ef1565b80601f016020809104026020016040519081016040528092919081815260200182805461328590614ef1565b80156132d25780601f106132a7576101008083540402835291602001916132d2565b820191906000526020600020905b8154815290600101906020018083116132b557829003601f168201915b5050505050905060006132e3613af2565b90508051600014156132f6575092915050565b815115613328578082604051602001613310929190614b02565b60405160208183030381529060405292505050919050565b61241984613b02565b6000610a11825490565b6000828152606560205260409020600101546133578133613377565b610c708383613636565b6000610a1182613bea565b610c70838383613c28565b60008281526065602090815260408083206001600160a01b038516845290915290205460ff16611390576133b5816001600160a01b03166014613cad565b6133c0836020613cad565b6040516020016133d1929190614b31565b60408051601f198184030181529082905262461bcd60e51b8252610b1e91600401614dbb565b60008281526065602090815260408083206001600160a01b038516845290915290205460ff166113905760008281526065602090815260408083206001600160a01b03851684529091529020805460ff191660011790556134553390565b6001600160a01b0316816001600160a01b0316837f2f8788117e7eff1d82e926ec794901d17c78024a50270940304540a733656f0d60405160405180910390a45050565b60008181526001830160205260408120546134e057508154600181810184556000848152602080822090930184905584548482528286019093526040902091909155610a11565b506000610a11565b6001600160a01b03821661353e5760405162461bcd60e51b815260206004820181905260248201527f4552433732313a206d696e7420746f20746865207a65726f20616464726573736044820152606401610b1e565b600081815260cb60205260409020546001600160a01b0316156135a35760405162461bcd60e51b815260206004820152601c60248201527f4552433732313a20746f6b656e20616c7265616479206d696e746564000000006044820152606401610b1e565b6135af6000838361336c565b6001600160a01b038216600090815260cc602052604081208054600192906135d8908490614e4c565b9091555050600081815260cb602052604080822080546001600160a01b0319166001600160a01b03861690811790915590518392907fddf252ad1be2c89b69c2b068fc378daa952ba7f163c4a11628f55a4df523b3ef908290a45050565b60008281526065602090815260408083206001600160a01b038516845290915290205460ff16156113905760008281526065602090815260408083206001600160a01b0385168085529252808320805460ff1916905551339285917ff6391f5c32d9c69d2a47ea670b442974b53935d1edc7fd64eb21e047a839171b9190a45050565b600081815260018301602052604081205480156137c65760006136dd600183614e97565b85549091506000906136f190600190614e97565b9050600086600001828154811061371857634e487b7160e01b600052603260045260246000fd5b906000526020600020015490508087600001848154811061374957634e487b7160e01b600052603260045260246000fd5b60009182526020808320909101929092558281526001890190915260409020849055865487908061378a57634e487b7160e01b600052603160045260246000fd5b60019003818190600052602060002001600090559055866001016000878152602001908152602001600020600090556001945050505050610a11565b6000915050610a11565b6137d981613eb8565b60008181526101c36020526040902080546137f390614ef1565b1590506114fd5760008181526101c3602052604081206114fd91614519565b611390828260405180602001604052806000815250613f5f565b600082815260cb60205260409020546001600160a01b03166138b65760405162461bcd60e51b815260206004820152602e60248201527f45524337323155524953746f726167653a2055524920736574206f66206e6f6e60448201527f6578697374656e7420746f6b656e0000000000000000000000000000000000006064820152608401610b1e565b60008281526101c3602090815260409091208251610c7092840190614495565b8154600090821061394f5760405162461bcd60e51b815260206004820152602260248201527f456e756d657261626c655365743a20696e646578206f7574206f6620626f756e60448201527f64730000000000000000000000000000000000000000000000000000000000006064820152608401610b1e565b82600001828154811061397257634e487b7160e01b600052603260045260246000fd5b9060005260206000200154905092915050565b6110098282613fe8565b60006001600160a01b0384163b15613ae757604051630a85bd0160e11b81526001600160a01b0385169063150b7a02906139d3903390899088908890600401614bb2565b602060405180830381600087803b1580156139ed57600080fd5b505af1925050508015613a1d575060408051601f3d908101601f19168201909252613a1a918101906149f1565b60015b613acd573d808015613a4b576040519150601f19603f3d011682016040523d82523d6000602084013e613a50565b606091505b508051613ac55760405162461bcd60e51b815260206004820152603260248201527f4552433732313a207472616e7366657220746f206e6f6e20455243373231526560448201527f63656976657220696d706c656d656e74657200000000000000000000000000006064820152608401610b1e565b805181602001fd5b6001600160e01b031916630a85bd0160e11b149050612419565b506001949350505050565b60606101f68054610a2690614ef1565b600081815260cb60205260409020546060906001600160a01b0316613b8f5760405162461bcd60e51b815260206004820152602f60248201527f4552433732314d657461646174613a2055524920717565727920666f72206e6f60448201527f6e6578697374656e7420746f6b656e00000000000000000000000000000000006064820152608401610b1e565b6000613b99613af2565b90506000815111613bb9576040518060200160405280600081525061195b565b80613bc384613ff2565b604051602001613bd4929190614b02565b6040516020818303038152906040529392505050565b60006001600160e01b031982167f780e9d63000000000000000000000000000000000000000000000000000000001480610a115750610a118261410c565b613c3383838361417e565b61015f5460ff1615610c705760405162461bcd60e51b815260206004820152602b60248201527f4552433732315061757361626c653a20746f6b656e207472616e73666572207760448201527f68696c65207061757365640000000000000000000000000000000000000000006064820152608401610b1e565b60606000613cbc836002614e78565b613cc7906002614e4c565b67ffffffffffffffff811115613ced57634e487b7160e01b600052604160045260246000fd5b6040519080825280601f01601f191660200182016040528015613d17576020820181803683370190505b509050600360fc1b81600081518110613d4057634e487b7160e01b600052603260045260246000fd5b60200101906001600160f81b031916908160001a9053507f780000000000000000000000000000000000000000000000000000000000000081600181518110613d9957634e487b7160e01b600052603260045260246000fd5b60200101906001600160f81b031916908160001a9053506000613dbd846002614e78565b613dc8906001614e4c565b90505b6001811115613e69577f303132333435363738396162636465660000000000000000000000000000000085600f1660108110613e1757634e487b7160e01b600052603260045260246000fd5b1a60f81b828281518110613e3b57634e487b7160e01b600052603260045260246000fd5b60200101906001600160f81b031916908160001a90535060049490941c93613e6281614eda565b9050613dcb565b50831561195b5760405162461bcd60e51b815260206004820181905260248201527f537472696e67733a20686578206c656e67746820696e73756666696369656e746044820152606401610b1e565b6000613ec3826116c7565b9050613ed18160008461336c565b613edc60008361228e565b6001600160a01b038116600090815260cc60205260408120805460019290613f05908490614e97565b9091555050600082815260cb602052604080822080546001600160a01b0319169055518391906001600160a01b038416907fddf252ad1be2c89b69c2b068fc378daa952ba7f163c4a11628f55a4df523b3ef908390a45050565b613f6983836134e8565b613f76600084848461398f565b610c705760405162461bcd60e51b815260206004820152603260248201527f4552433732313a207472616e7366657220746f206e6f6e20455243373231526560448201527f63656976657220696d706c656d656e74657200000000000000000000000000006064820152608401610b1e565b61139082826133f7565b6060816140165750506040805180820190915260018152600360fc1b602082015290565b8160005b8115614040578061402a81614f2c565b91506140399050600a83614e64565b915061401a565b60008167ffffffffffffffff81111561406957634e487b7160e01b600052604160045260246000fd5b6040519080825280601f01601f191660200182016040528015614093576020820181803683370190505b5090505b8415612419576140a8600183614e97565b91506140b5600a86614f47565b6140c0906030614e4c565b60f81b8183815181106140e357634e487b7160e01b600052603260045260246000fd5b60200101906001600160f81b031916908160001a905350614105600a86614e64565b9450614097565b60006001600160e01b031982167f80ac58cd00000000000000000000000000000000000000000000000000000000148061416f57506001600160e01b031982167f5b5e139f00000000000000000000000000000000000000000000000000000000145b80610a115750610a1182614236565b6001600160a01b0383166141d9576141d48160fd8054600083815260fe60205260408120829055600182018355919091527f9346ac6dd7de6b96975fec380d4d994c4c12e6a8897544f22915316cc6cca2800155565b6141fc565b816001600160a01b0316836001600160a01b0316146141fc576141fc8382614274565b6001600160a01b03821661421357610c7081614311565b826001600160a01b0316826001600160a01b031614610c7057610c7082826143ea565b60006001600160e01b031982167f5a05180f000000000000000000000000000000000000000000000000000000001480610a115750610a118261442e565b6000600161428184611752565b61428b9190614e97565b600083815260fc60205260409020549091508082146142de576001600160a01b038416600090815260fb60209081526040808320858452825280832054848452818420819055835260fc90915290208190555b50600091825260fc602090815260408084208490556001600160a01b03909416835260fb81528383209183525290812055565b60fd5460009061432390600190614e97565b600083815260fe602052604081205460fd805493945090928490811061435957634e487b7160e01b600052603260045260246000fd5b906000526020600020015490508060fd838154811061438857634e487b7160e01b600052603260045260246000fd5b600091825260208083209091019290925582815260fe909152604080822084905585825281205560fd8054806143ce57634e487b7160e01b600052603160045260246000fd5b6001900381819060005260206000200160009055905550505050565b60006143f583611752565b6001600160a01b03909316600090815260fb60209081526040808320868452825280832085905593825260fc9052919091209190915550565b60006001600160e01b031982167f7965db0b000000000000000000000000000000000000000000000000000000001480610a1157507f01ffc9a7000000000000000000000000000000000000000000000000000000006001600160e01b0319831614610a11565b8280546144a190614ef1565b90600052602060002090601f0160209004810192826144c35760008555614509565b82601f106144dc57805160ff1916838001178555614509565b82800160010185558215614509579182015b828111156145095782518255916020019190600101906144ee565b5061451592915061454f565b5090565b50805461452590614ef1565b6000825580601f10614535575050565b601f0160209004906000526020600020908101906114fd91905b5b808211156145155760008155600101614550565b600067ffffffffffffffff83111561457e5761457e614f87565b614591601f8401601f1916602001614df7565b90508281528383830111156145a557600080fd5b828260208301376000602084830101529392505050565b600082601f8301126145cc578081fd5b61195b83833560208501614564565b6000602082840312156145ec578081fd5b813561195b81614f9d565b60008060408385031215614609578081fd5b823561461481614f9d565b9150602083013561462481614f9d565b809150509250929050565b600080600060608486031215614643578081fd5b833561464e81614f9d565b9250602084013561465e81614f9d565b929592945050506040919091013590565b60008060008060808587031215614684578081fd5b843561468f81614f9d565b9350602085013561469f81614f9d565b925060408501359150606085013567ffffffffffffffff8111156146c1578182fd5b8501601f810187136146d1578182fd5b6146e087823560208401614564565b91505092959194509250565b600080600080600060a08688031215614703578081fd5b853561470e81614f9d565b945060208681013567ffffffffffffffff8082111561472b578384fd5b818901915089601f83011261473e578384fd5b813561475161474c82614e28565b614df7565b8082825285820191508585018d878560061b8801011115614770578788fd5b8795505b838610156147bd576040818f03121561478b578788fd5b614793614dce565b813561479e81614f9d565b8152818801358882015283526001959095019491860191604001614774565b509850505060408901359250808311156147d5578384fd5b6147e18a848b016145bc565b955060608901359250808311156147f6578384fd5b6148028a848b016145bc565b94506080890135925080831115614817578384fd5b5050614825888289016145bc565b9150509295509295909350565b60008060408385031215614844578182fd5b823561484f81614f9d565b915060208301358015158114614624578182fd5b60008060408385031215614875578182fd5b823561488081614f9d565b946020939093013593505050565b6000806000606084860312156148a2578081fd5b83356148ad81614f9d565b925060208401359150604084013567ffffffffffffffff8111156148cf578182fd5b6148db868287016145bc565b9150509250925092565b600060208083850312156148f7578182fd5b823567ffffffffffffffff81111561490d578283fd5b8301601f8101851361491d578283fd5b803561492b61474c82614e28565b80828252848201915084840188868560051b870101111561494a578687fd5b8694505b8385101561496c57803583526001949094019391850191850161494e565b50979650505050505050565b600060208284031215614989578081fd5b5035919050565b600080604083850312156149a2578182fd5b82359150602083013561462481614f9d565b600080604083850312156149c6578182fd5b50508035926020909101359150565b6000602082840312156149e6578081fd5b813561195b81614fb2565b600060208284031215614a02578081fd5b815161195b81614fb2565b600060208284031215614a1e578081fd5b813567ffffffffffffffff811115614a34578182fd5b612419848285016145bc565b600080600060608486031215614a54578081fd5b833567ffffffffffffffff80821115614a6b578283fd5b614a77878388016145bc565b94506020860135915080821115614a8c578283fd5b614a98878388016145bc565b93506040860135915080821115614aad578283fd5b506148db868287016145bc565b60008151808452614ad2816020860160208601614eae565b601f01601f19169290920160200192915050565b60008251614af8818460208701614eae565b9190910192915050565b60008351614b14818460208801614eae565b835190830190614b28818360208801614eae565b01949350505050565b7f416363657373436f6e74726f6c3a206163636f756e7420000000000000000000815260008351614b69816017850160208801614eae565b7f206973206d697373696e6720726f6c65200000000000000000000000000000006017918401918201528351614ba6816028840160208801614eae565b01602801949350505050565b60006001600160a01b03808716835280861660208401525083604083015260806060830152614be46080830184614aba565b9695505050505050565b6001600160a01b0384168152826020820152606060408201526000614c166060830184614aba565b95945050505050565b6001600160a01b03841681526000602084818401526060604084015281845483600182811c915080831680614c5557607f831692505b858310811415614c7357634e487b7160e01b87526022600452602487fd5b6060880183905260808801818015614c925760018114614ca357614ccd565b60ff19861682528782019650614ccd565b60008b815260209020895b86811015614cc757815484820152908501908901614cae565b83019750505b50949b9a5050505050505050505050565b6020808252825182820181905260009190848201906040850190845b81811015614d1f5783516001600160a01b031683529284019291840191600101614cfa565b50909695505050505050565b602080825282518282018190526000919060409081850190868401855b82811015614d7657815180516001600160a01b03168552860151868501529284019290850190600101614d48565b5091979650505050505050565b6020808252825182820181905260009190848201906040850190845b81811015614d1f57835183529284019291840191600101614d9f565b60208152600061195b6020830184614aba565b6040805190810167ffffffffffffffff81118282101715614df157614df1614f87565b60405290565b604051601f8201601f1916810167ffffffffffffffff81118282101715614e2057614e20614f87565b604052919050565b600067ffffffffffffffff821115614e4257614e42614f87565b5060051b60200190565b60008219821115614e5f57614e5f614f5b565b500190565b600082614e7357614e73614f71565b500490565b6000816000190483118215151615614e9257614e92614f5b565b500290565b600082821015614ea957614ea9614f5b565b500390565b60005b83811015614ec9578181015183820152602001614eb1565b83811115611b9b5750506000910152565b600081614ee957614ee9614f5b565b506000190190565b600181811c90821680614f0557607f821691505b60208210811415614f2657634e487b7160e01b600052602260045260246000fd5b50919050565b6000600019821415614f4057614f40614f5b565b5060010190565b600082614f5657614f56614f71565b500690565b634e487b7160e01b600052601160045260246000fd5b634e487b7160e01b600052601260045260246000fd5b634e487b7160e01b600052604160045260246000fd5b6001600160a01b03811681146114fd57600080fd5b6001600160e01b0319811681146114fd57600080fdfea2646970667358221220e13e295d3b40732f25f75f9411c375dd98a060ae504e9afe7fbc5d739e7cb37564736f6c63430008040033",
  "immutableReferences": {},
  "source": "// SPDX-License-Identifier: MIT\npragma solidity ^0.8.4;\n\nimport \"./ERC721PresetMinterPauserAutoIdUpgradeableCustom.sol\";\nimport \"@openzeppelin/contracts-upgradeable/security/ReentrancyGuardUpgradeable.sol\";\nimport \"@openzeppelin/contracts-upgradeable/access/OwnableUpgradeable.sol\";\nimport \"@openzeppelin/contracts-upgradeable/utils/introspection/ERC165StorageUpgradeable.sol\";\n\n/**\n * @dev ERC721 token with minting, burning, pause, royalties & lock content functions.\n */\n\ncontract GhostMarketERC721 is Initializable, ERC721PresetMinterPauserAutoIdUpgradeableCustom, ReentrancyGuardUpgradeable, OwnableUpgradeable, ERC165StorageUpgradeable {\n\n\t// struct for royalties fees\n\tstruct Royalty {\n\t\taddress payable recipient;\n\t\tuint256 value;\n\t}\n\n\t// tokenId => royalties array\n\tmapping(uint256 => Royalty[]) internal _royalties;\n\n\t// tokenId => locked content array\n\tmapping(uint256 => string) internal _lockedContent;\n\n\t// tokenId => locked content view counter array\n\tmapping(uint256 => uint256) internal _lockedContentViewTracker;\n\n\t// tokenId => attributes array\n\tmapping(uint256 => string) internal _metadataJson;\n\n\t// events\n\tevent LockedContentViewed(address msgSender, uint256 tokenId, string lockedContent);\n  \tevent MintFeesWithdrawn(address feeWithdrawer, uint256 withdrawAmount);\n\tevent MintFeesUpdated(address feeChanger, uint256 newValue);\n\tevent Minted(address toAddress, uint256 tokenId, string externalURI);\n\n\t// mint fees balance\n\tuint256 internal _payedMintFeesBalance;\n\n\t// mint fees value\n\tuint256 internal _ghostmarketMintFees;\n\n\t/**\n\t * bytes4(keccak256(_INTERFACE_ID_ERC721_GHOSTMARKET)) == 0xee40ffc1\n\t */\n\tbytes4 constant _INTERFACE_ID_ERC721_GHOSTMARKET = bytes4(keccak256(\"_INTERFACE_ID_ERC721_GHOSTMARKET\"));\n\t\n\t/**\n\t * bytes4(keccak256(_GHOSTMARKET_NFT_ROYALTIES)) == 0xee40ffc1\n\t */\n\tbytes4 constant _GHOSTMARKET_NFT_ROYALTIES = bytes4(keccak256(\"_GHOSTMARKET_NFT_ROYALTIES\"));\n\n\tfunction initialize(string memory name, string memory symbol, string memory uri)\n        public\n        override\n        initializer\n    {\n\t\t__Context_init_unchained();\n\t\t__ERC165_init_unchained();\n\t\t__AccessControl_init_unchained();\n\t\t__AccessControlEnumerable_init_unchained();\n\t\t__ERC721Enumerable_init_unchained();\n\t\t__ERC721Burnable_init_unchained();\n\t\t__Pausable_init_unchained();\n\t\t__ERC721Pausable_init_unchained();\n\t\t__ERC721URIStorage_init_unchained();\n\t\t__ERC721_init_unchained(name, symbol);\n\t\t__ERC721PresetMinterPauserAutoId_init_unchained(uri);\n\t\t__Ownable_init_unchained();\n\t\t_registerInterface(_INTERFACE_ID_ERC721_GHOSTMARKET);\n\t\t_registerInterface(_GHOSTMARKET_NFT_ROYALTIES);\n\t}\n\n\t/**\n\t * @dev See {IERC165-supportsInterface}.\n\t */\n\tfunction supportsInterface(bytes4 interfaceId) public view virtual override(ERC721PresetMinterPauserAutoIdUpgradeableCustom, ERC165StorageUpgradeable) returns (bool) {\n\t\treturn super.supportsInterface(interfaceId);\n\t}\n\n    /**\n\t * @dev set a NFT royalties fees & recipients\n\t * fee basis points 10000 = 100%\n\t */\n\tfunction _saveRoyalties(uint256 tokenId, Royalty[] memory royalties)\n        internal\n    {\n\t\trequire(_exists(tokenId), \"ERC721: approved query for nonexistent token\");\n\t\tfor (uint256 i = 0; i < royalties.length; i++) {\n\t\t\trequire(royalties[i].recipient != address(0x0), \"Recipient should be present\");\n\t\t\trequire(royalties[i].value > 0, \"Royalties value should be positive\");\n\t\t\trequire(royalties[i].value <= 5000, \"Royalties value should not be more than 50%\");\n\t\t\t_royalties[tokenId].push(royalties[i]);\n\t\t}\n\t}\n\n\t/**\n\t * @dev set a NFT custom attributes to contract storage\n\t */\n\tfunction _setMetadataJson(uint256 tokenId, string memory metadataJson)\n        internal\n    {\n\t\t_metadataJson[tokenId] = metadataJson;\n\t}\n\n    /**\n\t * @dev set a NFT locked content as string\n\t */\n\tfunction _setLockedContent(uint256 tokenId, string memory content)\n        internal\n    {\n\t\t_lockedContent[tokenId] = content;\n\t}\n\n    /**\n\t * @dev check mint fees sent to contract\n\t */\n\tfunction _checkMintFees()\n        internal\n    {\n\t\tif (_ghostmarketMintFees > 0) {\n\t\t\trequire(msg.value == _ghostmarketMintFees, \"Wrong fees value sent to GhostMarket for mint fees\");\n\t\t}\n\t\tif (msg.value > 0) {\n\t\t\t_payedMintFeesBalance += msg.value;\n\t\t}\n\t}\n\n\t/**\n\t * @dev increment a NFT locked content view tracker\n\t */\n\tfunction _incrementCurrentLockedContentViewTracker(uint256 tokenId)\n        internal\n    {\n\t\t_lockedContentViewTracker[tokenId] = _lockedContentViewTracker[tokenId] + 1;\n\t}\n\n\t/**\n\t * @dev mint NFT, set royalties, set metadata json, set lockedcontent\n\t * emits Minted event\n\t */\n\tfunction mintGhost(address to, Royalty[] memory royalties, string memory externalURI, string memory metadata, string memory lockedcontent)\n        external\n        payable\n        nonReentrant\n    {\n\t\trequire(to != address(0x0), \"to can't be empty\");\n\t\trequire(keccak256(abi.encodePacked(externalURI)) != keccak256(abi.encodePacked(\"\")), \"externalURI can't be empty\");\n\t\tmint(to);\n\t\tuint256 tokenId = getLastTokenID();\n\t\tif (royalties.length > 0) {\n\t\t\t_saveRoyalties(tokenId, royalties);\n\t\t}\n\t\tif (keccak256(abi.encodePacked(metadata)) != keccak256(abi.encodePacked(\"\"))) {\n\t\t\t_setMetadataJson(tokenId, metadata);\n\t\t}\n\t\tif (keccak256(abi.encodePacked(lockedcontent)) != keccak256(abi.encodePacked(\"\"))) {\n\t\t\t_setLockedContent(tokenId, lockedcontent);\n\t\t}\n\t\t_checkMintFees();\n\t\temit Minted(to, tokenId, externalURI);\n\t}\n\n    /**\n     * @dev withdraw contract balance\n     * emits MintFeesWithdrawn event\n     */\n\tfunction withdraw(uint256 withdrawAmount)\n\t\texternal\n\t\tonlyOwner\n\t{\n\t\trequire(withdrawAmount > 0 && withdrawAmount <= _payedMintFeesBalance, \"Withdraw amount should be greater then 0 and less then contract balance\");\n\t\t_payedMintFeesBalance -= withdrawAmount;\n\t\t(bool success, ) = msg.sender.call{value: withdrawAmount}(\"\");\n\t\trequire(success, \"Transfer failed.\");\n\t\temit MintFeesWithdrawn(msg.sender, withdrawAmount);\n\t}\n\n    /**\n\t * @dev bulk burn NFT\n\t */\n\tfunction burnBatch(uint256[] memory tokensId)\n        external\n    {\n\t\tfor (uint256 i = 0; i < tokensId.length; i++) {\n\t\t\tburn(tokensId[i]);\n\t\t}\n\t}\n\n\t/**\n\t * @dev sets Ghostmarket mint fees as uint256\n\t * emits MintFeesUpdated event\n\t */\n\tfunction setGhostmarketMintFee(uint256 gmmf)\n        external\n    {\n\t\trequire(hasRole(DEFAULT_ADMIN_ROLE, _msgSender()), \"Caller must have admin role to set mint fees\");\n\t\t_ghostmarketMintFees = gmmf;\n\t\temit MintFeesUpdated(msg.sender, _ghostmarketMintFees);\n\t}\n\n\t/**\n\t * @return get Ghostmarket mint fees\n\t */\n\tfunction getGhostmarketMintFees()\n        external\n        view\n        returns (uint256)\n    {\n\t\treturn _ghostmarketMintFees;\n\t}\n\n\t/**\n\t * @dev get locked content for a NFT\n\t * emits LockedContentViewed event\n\t */\n\tfunction getLockedContent(uint256 tokenId)\n        external\n    {\n\t\trequire(ownerOf(tokenId) == msg.sender, \"Caller must be the owner of the NFT\");\n\t\t_incrementCurrentLockedContentViewTracker(tokenId);\n\t\temit LockedContentViewed(msg.sender, tokenId, _lockedContent[tokenId]);\n\t}\n\n\t/**\n\t * @dev get a NFT current locked content view tracker\n\t */\n\tfunction getCurrentLockedContentViewTracker(uint256 tokenId)\n        external\n        view\n        returns (uint256)\n    {\n\t\treturn _lockedContentViewTracker[tokenId];\n\t}\n\n  /**\n\t * @dev get a NFT custom attributes\n\t */\n\tfunction getMetadataJson(uint256 tokenId)\n        external\n        view\n        returns (string memory)\n    {\n\t\treturn _metadataJson[tokenId];\n\t}\n\n\t/**\n\t * @dev get royalties array\n\t */\n\tfunction getRoyalties(uint256 tokenId)\n        external\n        view\n        returns (Royalty[] memory)\n    {\n\t\treturn \t_royalties[tokenId];\n\t}\n\n\n\t/**\n\t * @dev get a NFT royalties recipients\n\t */\n\tfunction getRoyaltiesRecipients(uint256 tokenId)\n        external\n        view\n        returns (address payable[] memory)\n    {\n\t\tRoyalty[] memory royalties = _royalties[tokenId];\n\t\taddress payable[] memory result = new address payable[](royalties.length);\n\t\tfor (uint256 i = 0; i < royalties.length; i++) {\n\t\t\tresult[i] = royalties[i].recipient;\n\t\t}\n\t\treturn result;\n\t}\n\n\t/**\n\t * @dev get a NFT royalties fees\n\t * fee basis points 10000 = 100%\n\t */\n\tfunction getRoyaltiesBps(uint256 tokenId)\n        external\n        view\n        returns (uint256[] memory)\n    {\n\t\tRoyalty[] memory royalties = _royalties[tokenId];\n\t\tuint256[] memory result = new uint256[](royalties.length);\n\t\tfor (uint256 i = 0; i < royalties.length; i++) {\n\t\t\tresult[i] = royalties[i].value;\n\t\t}\n\t\treturn result;\n\t}\n\n\tuint256[50] private __gap;\n}\n",
  "sourcePath": "/Users/vincent/Dev/GhostMarketContractBSC/contracts/GhostmarketERC721.sol",
  "compiler": {
    "name": "solc",
    "version": "0.8.4+commit.c7e474f2.Emscripten.clang"
  },
  "schemaVersion": "3.4.1",
  "updatedAt": "2021-06-22T07:32:11.216Z",
  "networkType": "ethereum",
  "devdoc": {
    "details": "ERC721 token with minting, burning, pause, royalties & lock content functions.",
    "kind": "dev",
    "methods": {
      "approve(address,uint256)": {
        "details": "See {IERC721-approve}."
      },
      "balanceOf(address)": {
        "details": "See {IERC721-balanceOf}."
      },
      "burn(uint256)": {
        "details": "Burns `tokenId`. See {ERC721-_burn}. Requirements: - The caller must own `tokenId` or be an approved operator."
      },
      "burnBatch(uint256[])": {
        "details": "bulk burn NFT"
      },
      "getApproved(uint256)": {
        "details": "See {IERC721-getApproved}."
      },
      "getCurrentLockedContentViewTracker(uint256)": {
        "details": "get a NFT current locked content view tracker"
      },
      "getGhostmarketMintFees()": {
        "returns": {
          "_0": "get Ghostmarket mint fees"
        }
      },
      "getLockedContent(uint256)": {
        "details": "get locked content for a NFT emits LockedContentViewed event"
      },
      "getMetadataJson(uint256)": {
        "details": "get a NFT custom attributes"
      },
      "getRoleAdmin(bytes32)": {
        "details": "Returns the admin role that controls `role`. See {grantRole} and {revokeRole}. To change a role's admin, use {_setRoleAdmin}."
      },
      "getRoleMember(bytes32,uint256)": {
        "details": "Returns one of the accounts that have `role`. `index` must be a value between 0 and {getRoleMemberCount}, non-inclusive. Role bearers are not sorted in any particular way, and their ordering may change at any point. WARNING: When using {getRoleMember} and {getRoleMemberCount}, make sure you perform all queries on the same block. See the following https://forum.openzeppelin.com/t/iterating-over-elements-on-enumerableset-in-openzeppelin-contracts/2296[forum post] for more information."
      },
      "getRoleMemberCount(bytes32)": {
        "details": "Returns the number of accounts that have `role`. Can be used together with {getRoleMember} to enumerate all bearers of a role."
      },
      "getRoyalties(uint256)": {
        "details": "get royalties array"
      },
      "getRoyaltiesBps(uint256)": {
        "details": "get a NFT royalties fees fee basis points 10000 = 100%"
      },
      "getRoyaltiesRecipients(uint256)": {
        "details": "get a NFT royalties recipients"
      },
      "grantRole(bytes32,address)": {
        "details": "Overload {grantRole} to track enumerable memberships"
      },
      "hasRole(bytes32,address)": {
        "details": "Returns `true` if `account` has been granted `role`."
      },
      "isApprovedForAll(address,address)": {
        "details": "See {IERC721-isApprovedForAll}."
      },
      "mintGhost(address,(address,uint256)[],string,string,string)": {
        "details": "mint NFT, set royalties, set metadata json, set lockedcontent emits Minted event"
      },
      "mintWithURI(address,uint256,string)": {
        "details": "polynetwork CrossChainNFTMapping"
      },
      "name()": {
        "details": "See {IERC721Metadata-name}."
      },
      "owner()": {
        "details": "Returns the address of the current owner."
      },
      "ownerOf(uint256)": {
        "details": "See {IERC721-ownerOf}."
      },
      "pause()": {
        "details": "Pauses all token transfers. See {ERC721Pausable} and {Pausable-_pause}. Requirements: - the caller must have the `PAUSER_ROLE`."
      },
      "paused()": {
        "details": "Returns true if the contract is paused, and false otherwise."
      },
      "renounceOwnership()": {
        "details": "Leaves the contract without owner. It will not be possible to call `onlyOwner` functions anymore. Can only be called by the current owner. NOTE: Renouncing ownership will leave the contract without an owner, thereby removing any functionality that is only available to the owner."
      },
      "renounceRole(bytes32,address)": {
        "details": "Overload {renounceRole} to track enumerable memberships"
      },
      "revokeRole(bytes32,address)": {
        "details": "Overload {revokeRole} to track enumerable memberships"
      },
      "safeTransferFrom(address,address,uint256)": {
        "details": "See {IERC721-safeTransferFrom}."
      },
      "safeTransferFrom(address,address,uint256,bytes)": {
        "details": "See {IERC721-safeTransferFrom}."
      },
      "setApprovalForAll(address,bool)": {
        "details": "See {IERC721-setApprovalForAll}."
      },
      "setGhostmarketMintFee(uint256)": {
        "details": "sets Ghostmarket mint fees as uint256 emits MintFeesUpdated event"
      },
      "supportsInterface(bytes4)": {
        "details": "See {IERC165-supportsInterface}."
      },
      "symbol()": {
        "details": "See {IERC721Metadata-symbol}."
      },
      "tokenByIndex(uint256)": {
        "details": "See {IERC721Enumerable-tokenByIndex}."
      },
      "tokenOfOwnerByIndex(address,uint256)": {
        "details": "See {IERC721Enumerable-tokenOfOwnerByIndex}."
      },
      "tokenURI(uint256)": {
        "details": "See {IERC721Metadata-tokenURI}."
      },
      "totalSupply()": {
        "details": "See {IERC721Enumerable-totalSupply}."
      },
      "transferFrom(address,address,uint256)": {
        "details": "See {IERC721-transferFrom}."
      },
      "transferOwnership(address)": {
        "details": "Transfers ownership of the contract to a new account (`newOwner`). Can only be called by the current owner."
      },
      "unpause()": {
        "details": "Unpauses all token transfers. See {ERC721Pausable} and {Pausable-_unpause}. Requirements: - the caller must have the `PAUSER_ROLE`."
      },
      "withdraw(uint256)": {
        "details": "withdraw contract balance emits MintFeesWithdrawn event"
      }
    },
    "version": 1
  },
  "userdoc": {
    "kind": "user",
    "methods": {},
    "version": 1
  }
}