{
  "contractName": "GhostmarketNFT",
  "abi": [
    {
      "anonymous": false,
      "inputs": [
        {
          "indexed": true,
          "internalType": "address",
          "name": "owner",
          "type": "address"
        },
        {
          "indexed": true,
          "internalType": "address",
          "name": "approved",
          "type": "address"
        },
        {
          "indexed": true,
          "internalType": "uint256",
          "name": "tokenId",
          "type": "uint256"
        }
      ],
      "name": "Approval",
      "type": "event"
    },
    {
      "anonymous": false,
      "inputs": [
        {
          "indexed": true,
          "internalType": "address",
          "name": "owner",
          "type": "address"
        },
        {
          "indexed": true,
          "internalType": "address",
          "name": "operator",
          "type": "address"
        },
        {
          "indexed": false,
          "internalType": "bool",
          "name": "approved",
          "type": "bool"
        }
      ],
      "name": "ApprovalForAll",
      "type": "event"
    },
    {
      "anonymous": false,
      "inputs": [
        {
          "indexed": false,
          "internalType": "address",
          "name": "account",
          "type": "address"
        }
      ],
      "name": "Paused",
      "type": "event"
    },
    {
      "anonymous": false,
      "inputs": [
        {
          "indexed": true,
          "internalType": "bytes32",
          "name": "role",
          "type": "bytes32"
        },
        {
          "indexed": true,
          "internalType": "bytes32",
          "name": "previousAdminRole",
          "type": "bytes32"
        },
        {
          "indexed": true,
          "internalType": "bytes32",
          "name": "newAdminRole",
          "type": "bytes32"
        }
      ],
      "name": "RoleAdminChanged",
      "type": "event"
    },
    {
      "anonymous": false,
      "inputs": [
        {
          "indexed": true,
          "internalType": "bytes32",
          "name": "role",
          "type": "bytes32"
        },
        {
          "indexed": true,
          "internalType": "address",
          "name": "account",
          "type": "address"
        },
        {
          "indexed": true,
          "internalType": "address",
          "name": "sender",
          "type": "address"
        }
      ],
      "name": "RoleGranted",
      "type": "event"
    },
    {
      "anonymous": false,
      "inputs": [
        {
          "indexed": true,
          "internalType": "bytes32",
          "name": "role",
          "type": "bytes32"
        },
        {
          "indexed": true,
          "internalType": "address",
          "name": "account",
          "type": "address"
        },
        {
          "indexed": true,
          "internalType": "address",
          "name": "sender",
          "type": "address"
        }
      ],
      "name": "RoleRevoked",
      "type": "event"
    },
    {
      "anonymous": false,
      "inputs": [
        {
          "indexed": false,
          "internalType": "uint256",
          "name": "tokenId",
          "type": "uint256"
        },
        {
          "indexed": false,
          "internalType": "address[]",
          "name": "recipients",
          "type": "address[]"
        },
        {
          "indexed": false,
          "internalType": "uint256[]",
          "name": "bps",
          "type": "uint256[]"
        }
      ],
      "name": "SecondarySaleFees",
      "type": "event"
    },
    {
      "anonymous": false,
      "inputs": [
        {
          "indexed": true,
          "internalType": "address",
          "name": "from",
          "type": "address"
        },
        {
          "indexed": true,
          "internalType": "address",
          "name": "to",
          "type": "address"
        },
        {
          "indexed": true,
          "internalType": "uint256",
          "name": "tokenId",
          "type": "uint256"
        }
      ],
      "name": "Transfer",
      "type": "event"
    },
    {
      "anonymous": false,
      "inputs": [
        {
          "indexed": false,
          "internalType": "address",
          "name": "account",
          "type": "address"
        }
      ],
      "name": "Unpaused",
      "type": "event"
    },
    {
      "inputs": [],
      "name": "DEFAULT_ADMIN_ROLE",
      "outputs": [
        {
          "internalType": "bytes32",
          "name": "",
          "type": "bytes32"
        }
      ],
      "stateMutability": "view",
      "type": "function"
    },
    {
      "inputs": [],
      "name": "MINTER_ROLE",
      "outputs": [
        {
          "internalType": "bytes32",
          "name": "",
          "type": "bytes32"
        }
      ],
      "stateMutability": "view",
      "type": "function"
    },
    {
      "inputs": [],
      "name": "PAUSER_ROLE",
      "outputs": [
        {
          "internalType": "bytes32",
          "name": "",
          "type": "bytes32"
        }
      ],
      "stateMutability": "view",
      "type": "function"
    },
    {
      "inputs": [
        {
          "internalType": "address",
          "name": "to",
          "type": "address"
        },
        {
          "internalType": "uint256",
          "name": "tokenId",
          "type": "uint256"
        }
      ],
      "name": "approve",
      "outputs": [],
      "stateMutability": "nonpayable",
      "type": "function"
    },
    {
      "inputs": [
        {
          "internalType": "address",
          "name": "owner",
          "type": "address"
        }
      ],
      "name": "balanceOf",
      "outputs": [
        {
          "internalType": "uint256",
          "name": "",
          "type": "uint256"
        }
      ],
      "stateMutability": "view",
      "type": "function"
    },
    {
      "inputs": [
        {
          "internalType": "uint256",
          "name": "tokenId",
          "type": "uint256"
        }
      ],
      "name": "burn",
      "outputs": [],
      "stateMutability": "nonpayable",
      "type": "function"
    },
    {
      "inputs": [
        {
          "internalType": "uint256",
          "name": "",
          "type": "uint256"
        },
        {
          "internalType": "uint256",
          "name": "",
          "type": "uint256"
        }
      ],
      "name": "fees",
      "outputs": [
        {
          "internalType": "address payable",
          "name": "recipient",
          "type": "address"
        },
        {
          "internalType": "uint256",
          "name": "value",
          "type": "uint256"
        }
      ],
      "stateMutability": "view",
      "type": "function"
    },
    {
      "inputs": [
        {
          "internalType": "uint256",
          "name": "tokenId",
          "type": "uint256"
        }
      ],
      "name": "getApproved",
      "outputs": [
        {
          "internalType": "address",
          "name": "",
          "type": "address"
        }
      ],
      "stateMutability": "view",
      "type": "function"
    },
    {
      "inputs": [
        {
          "internalType": "bytes32",
          "name": "role",
          "type": "bytes32"
        }
      ],
      "name": "getRoleAdmin",
      "outputs": [
        {
          "internalType": "bytes32",
          "name": "",
          "type": "bytes32"
        }
      ],
      "stateMutability": "view",
      "type": "function"
    },
    {
      "inputs": [
        {
          "internalType": "bytes32",
          "name": "role",
          "type": "bytes32"
        },
        {
          "internalType": "uint256",
          "name": "index",
          "type": "uint256"
        }
      ],
      "name": "getRoleMember",
      "outputs": [
        {
          "internalType": "address",
          "name": "",
          "type": "address"
        }
      ],
      "stateMutability": "view",
      "type": "function"
    },
    {
      "inputs": [
        {
          "internalType": "bytes32",
          "name": "role",
          "type": "bytes32"
        }
      ],
      "name": "getRoleMemberCount",
      "outputs": [
        {
          "internalType": "uint256",
          "name": "",
          "type": "uint256"
        }
      ],
      "stateMutability": "view",
      "type": "function"
    },
    {
      "inputs": [
        {
          "internalType": "bytes32",
          "name": "role",
          "type": "bytes32"
        },
        {
          "internalType": "address",
          "name": "account",
          "type": "address"
        }
      ],
      "name": "grantRole",
      "outputs": [],
      "stateMutability": "nonpayable",
      "type": "function"
    },
    {
      "inputs": [
        {
          "internalType": "bytes32",
          "name": "role",
          "type": "bytes32"
        },
        {
          "internalType": "address",
          "name": "account",
          "type": "address"
        }
      ],
      "name": "hasRole",
      "outputs": [
        {
          "internalType": "bool",
          "name": "",
          "type": "bool"
        }
      ],
      "stateMutability": "view",
      "type": "function"
    },
    {
      "inputs": [
        {
          "internalType": "address",
          "name": "owner",
          "type": "address"
        },
        {
          "internalType": "address",
          "name": "operator",
          "type": "address"
        }
      ],
      "name": "isApprovedForAll",
      "outputs": [
        {
          "internalType": "bool",
          "name": "",
          "type": "bool"
        }
      ],
      "stateMutability": "view",
      "type": "function"
    },
    {
      "inputs": [],
      "name": "name",
      "outputs": [
        {
          "internalType": "string",
          "name": "",
          "type": "string"
        }
      ],
      "stateMutability": "view",
      "type": "function"
    },
    {
      "inputs": [
        {
          "internalType": "uint256",
          "name": "tokenId",
          "type": "uint256"
        }
      ],
      "name": "ownerOf",
      "outputs": [
        {
          "internalType": "address",
          "name": "",
          "type": "address"
        }
      ],
      "stateMutability": "view",
      "type": "function"
    },
    {
      "inputs": [],
      "name": "pause",
      "outputs": [],
      "stateMutability": "nonpayable",
      "type": "function"
    },
    {
      "inputs": [],
      "name": "paused",
      "outputs": [
        {
          "internalType": "bool",
          "name": "",
          "type": "bool"
        }
      ],
      "stateMutability": "view",
      "type": "function"
    },
    {
      "inputs": [
        {
          "internalType": "bytes32",
          "name": "role",
          "type": "bytes32"
        },
        {
          "internalType": "address",
          "name": "account",
          "type": "address"
        }
      ],
      "name": "renounceRole",
      "outputs": [],
      "stateMutability": "nonpayable",
      "type": "function"
    },
    {
      "inputs": [
        {
          "internalType": "bytes32",
          "name": "role",
          "type": "bytes32"
        },
        {
          "internalType": "address",
          "name": "account",
          "type": "address"
        }
      ],
      "name": "revokeRole",
      "outputs": [],
      "stateMutability": "nonpayable",
      "type": "function"
    },
    {
      "inputs": [
        {
          "internalType": "address",
          "name": "from",
          "type": "address"
        },
        {
          "internalType": "address",
          "name": "to",
          "type": "address"
        },
        {
          "internalType": "uint256",
          "name": "tokenId",
          "type": "uint256"
        }
      ],
      "name": "safeTransferFrom",
      "outputs": [],
      "stateMutability": "nonpayable",
      "type": "function"
    },
    {
      "inputs": [
        {
          "internalType": "address",
          "name": "from",
          "type": "address"
        },
        {
          "internalType": "address",
          "name": "to",
          "type": "address"
        },
        {
          "internalType": "uint256",
          "name": "tokenId",
          "type": "uint256"
        },
        {
          "internalType": "bytes",
          "name": "_data",
          "type": "bytes"
        }
      ],
      "name": "safeTransferFrom",
      "outputs": [],
      "stateMutability": "nonpayable",
      "type": "function"
    },
    {
      "inputs": [
        {
          "internalType": "address",
          "name": "operator",
          "type": "address"
        },
        {
          "internalType": "bool",
          "name": "approved",
          "type": "bool"
        }
      ],
      "name": "setApprovalForAll",
      "outputs": [],
      "stateMutability": "nonpayable",
      "type": "function"
    },
    {
      "inputs": [
        {
          "internalType": "bytes4",
          "name": "interfaceId",
          "type": "bytes4"
        }
      ],
      "name": "supportsInterface",
      "outputs": [
        {
          "internalType": "bool",
          "name": "",
          "type": "bool"
        }
      ],
      "stateMutability": "view",
      "type": "function"
    },
    {
      "inputs": [],
      "name": "symbol",
      "outputs": [
        {
          "internalType": "string",
          "name": "",
          "type": "string"
        }
      ],
      "stateMutability": "view",
      "type": "function"
    },
    {
      "inputs": [
        {
          "internalType": "uint256",
          "name": "index",
          "type": "uint256"
        }
      ],
      "name": "tokenByIndex",
      "outputs": [
        {
          "internalType": "uint256",
          "name": "",
          "type": "uint256"
        }
      ],
      "stateMutability": "view",
      "type": "function"
    },
    {
      "inputs": [
        {
          "internalType": "address",
          "name": "owner",
          "type": "address"
        },
        {
          "internalType": "uint256",
          "name": "index",
          "type": "uint256"
        }
      ],
      "name": "tokenOfOwnerByIndex",
      "outputs": [
        {
          "internalType": "uint256",
          "name": "",
          "type": "uint256"
        }
      ],
      "stateMutability": "view",
      "type": "function"
    },
    {
      "inputs": [
        {
          "internalType": "uint256",
          "name": "tokenId",
          "type": "uint256"
        }
      ],
      "name": "tokenURI",
      "outputs": [
        {
          "internalType": "string",
          "name": "",
          "type": "string"
        }
      ],
      "stateMutability": "view",
      "type": "function"
    },
    {
      "inputs": [],
      "name": "totalSupply",
      "outputs": [
        {
          "internalType": "uint256",
          "name": "",
          "type": "uint256"
        }
      ],
      "stateMutability": "view",
      "type": "function"
    },
    {
      "inputs": [
        {
          "internalType": "address",
          "name": "from",
          "type": "address"
        },
        {
          "internalType": "address",
          "name": "to",
          "type": "address"
        },
        {
          "internalType": "uint256",
          "name": "tokenId",
          "type": "uint256"
        }
      ],
      "name": "transferFrom",
      "outputs": [],
      "stateMutability": "nonpayable",
      "type": "function"
    },
    {
      "inputs": [],
      "name": "unpause",
      "outputs": [],
      "stateMutability": "nonpayable",
      "type": "function"
    },
    {
      "inputs": [
        {
          "internalType": "string",
          "name": "name",
          "type": "string"
        },
        {
          "internalType": "string",
          "name": "symbol",
          "type": "string"
        },
        {
          "internalType": "string",
          "name": "uri",
          "type": "string"
        }
      ],
      "name": "initialize",
      "outputs": [],
      "stateMutability": "nonpayable",
      "type": "function"
    },
    {
      "inputs": [
        {
          "internalType": "uint256",
          "name": "id",
          "type": "uint256"
        }
      ],
      "name": "getFeeRecipients",
      "outputs": [
        {
          "internalType": "address payable[]",
          "name": "",
          "type": "address[]"
        }
      ],
      "stateMutability": "view",
      "type": "function"
    },
    {
      "inputs": [
        {
          "internalType": "uint256",
          "name": "id",
          "type": "uint256"
        }
      ],
      "name": "getFeeBps",
      "outputs": [
        {
          "internalType": "uint256[]",
          "name": "",
          "type": "uint256[]"
        }
      ],
      "stateMutability": "view",
      "type": "function"
    },
    {
      "inputs": [
        {
          "internalType": "address",
          "name": "to",
          "type": "address"
        }
      ],
      "name": "mint",
      "outputs": [],
      "stateMutability": "nonpayable",
      "type": "function"
    },
    {
      "inputs": [
        {
          "internalType": "address",
          "name": "to",
          "type": "address"
        },
        {
          "internalType": "uint256",
          "name": "tokenId",
          "type": "uint256"
        },
        {
          "components": [
            {
              "internalType": "address payable",
              "name": "recipient",
              "type": "address"
            },
            {
              "internalType": "uint256",
              "name": "value",
              "type": "uint256"
            }
          ],
          "internalType": "struct GhostmarketNFT.Fee[]",
          "name": "_fees",
          "type": "tuple[]"
        }
      ],
      "name": "mint",
      "outputs": [],
      "stateMutability": "nonpayable",
      "type": "function"
    }
  ],
  "bytecode": "0x608060405234801561001057600080fd5b50613495806100206000396000f3fe608060405234801561001057600080fd5b506004361061025c5760003560e01c80636a62784211610145578063b88d4fde116100bd578063d53913931161008c578063e63ab1e911610071578063e63ab1e914610554578063e985e9c51461057b578063f8b4c882146105b75761025c565b8063d53913931461051a578063d547741f146105415761025c565b8063b88d4fde146104c1578063b9c4d9fb146104d4578063c87b56dd146104f4578063ca15c873146105075761025c565b806391d1485411610114578063a217fddf116100f9578063a217fddf14610493578063a22cb4651461049b578063a6487c53146104ae5761025c565b806391d148541461045257806395d89b411461048b5761025c565b80636a6278421461041157806370a08231146104245780638456cb59146104375780639010d07c1461043f5761025c565b80632f745c59116101d857806342966c68116101a75780635c975abb1161018c5780635c975abb146103c05780636308f1cd146103cc5780636352211e146103fe5761025c565b806342966c681461039a5780634f6ccce7146103ad5761025c565b80632f745c591461035957806336568abe1461036c5780633f4ba83a1461037f57806342842e0e146103875761025c565b80630ebd4c7f1161022f57806323b872dd1161021457806323b872dd14610310578063248a9ca3146103235780632f2ff15d146103465761025c565b80630ebd4c7f146102de57806318160ddd146102fe5761025c565b806301ffc9a71461026157806306fdde0314610289578063081812fc1461029e578063095ea7b3146102c9575b600080fd5b61027461026f36600461307f565b6105ca565b60405190151581526020015b60405180910390f35b6102916105dd565b604051610280919061326c565b6102b16102ac366004613022565b61066f565b6040516001600160a01b039091168152602001610280565b6102dc6102d7366004612f04565b61071a565b005b6102f16102ec366004613022565b61084c565b6040516102809190613259565b60fd545b604051908152602001610280565b6102dc61031e366004612e16565b610999565b610302610331366004613022565b60009081526065602052604090206001015490565b6102dc61035436600461303a565b610a21565b610302610367366004612f04565b610a43565b6102dc61037a36600461303a565b610aee565b6102dc610b10565b6102dc610395366004612e16565b610bb8565b6102dc6103a8366004613022565b610bd3565b6103026103bb366004613022565b610c5a565b61015f5460ff16610274565b6103df6103da36600461305e565b610d0c565b604080516001600160a01b039093168352602083019190915201610280565b6102b161040c366004613022565b610d53565b6102dc61041f366004612dc2565b610dde565b610302610432366004612dc2565b610e9c565b6102dc610f36565b6102b161044d36600461305e565b610fda565b61027461046036600461303a565b60009182526065602090815260408084206001600160a01b0393909316845291905290205460ff1690565b610291610ff9565b610302600081565b6102dc6104a9366004612ed3565b611008565b6102dc6104bc3660046130b7565b6110da565b6102dc6104cf366004612e56565b6111a5565b6104e76104e2366004613022565b61122d565b604051610280919061320c565b610291610502366004613022565b61137f565b610302610515366004613022565b611467565b6103027f9f2df0fed2c77648de5860a4cc508cd0818c85b8b8a1ab4ceeef8d981c8956a681565b6102dc61054f36600461303a565b61147e565b6103027f65d7a28e3265b37a6474929f336521b332c1681b933f6cb9f3376673440d862a81565b610274610589366004612dde565b6001600160a01b03918216600090815260ce6020908152604080832093909416825291909152205460ff1690565b6102dc6105c5366004612f2f565b611488565b60006105d582611592565b90505b919050565b606060c980546105ec90613388565b80601f016020809104026020016040519081016040528092919081815260200182805461061890613388565b80156106655780601f1061063a57610100808354040283529160200191610665565b820191906000526020600020905b81548152906001019060200180831161064857829003601f168201915b5050505050905090565b600081815260cb60205260408120546001600160a01b03166106fe5760405162461bcd60e51b815260206004820152602c60248201527f4552433732313a20617070726f76656420717565727920666f72206e6f6e657860448201527f697374656e7420746f6b656e000000000000000000000000000000000000000060648201526084015b60405180910390fd5b50600090815260cd60205260409020546001600160a01b031690565b600061072582610d53565b9050806001600160a01b0316836001600160a01b031614156107af5760405162461bcd60e51b815260206004820152602160248201527f4552433732313a20617070726f76616c20746f2063757272656e74206f776e6560448201527f720000000000000000000000000000000000000000000000000000000000000060648201526084016106f5565b336001600160a01b03821614806107cb57506107cb8133610589565b61083d5760405162461bcd60e51b815260206004820152603860248201527f4552433732313a20617070726f76652063616c6c6572206973206e6f74206f7760448201527f6e6572206e6f7220617070726f76656420666f7220616c6c000000000000000060648201526084016106f5565b61084783836115d0565b505050565b60008181526101f560209081526040808320805482518185028101850190935280835260609493849084015b828210156108c0576000848152602090819020604080518082019091526002850290910180546001600160a01b03168252600190810154828401529083529092019101610878565b5050505090506000815167ffffffffffffffff8111156108f057634e487b7160e01b600052604160045260246000fd5b604051908082528060200260200182016040528015610919578160200160208202803683370190505b50905060005b82518110156109915782818151811061094857634e487b7160e01b600052603260045260246000fd5b60200260200101516020015182828151811061097457634e487b7160e01b600052603260045260246000fd5b602090810291909101015280610989816133c3565b91505061091f565b509392505050565b6109a4335b8261164b565b610a165760405162461bcd60e51b815260206004820152603160248201527f4552433732313a207472616e736665722063616c6c6572206973206e6f74206f60448201527f776e6572206e6f7220617070726f76656400000000000000000000000000000060648201526084016106f5565b610847838383611753565b610a2b8282611938565b600082815260976020526040902061084790826119d5565b6000610a4e83610e9c565b8210610ac25760405162461bcd60e51b815260206004820152602b60248201527f455243373231456e756d657261626c653a206f776e657220696e646578206f7560448201527f74206f6620626f756e647300000000000000000000000000000000000000000060648201526084016106f5565b506001600160a01b038216600090815260fb602090815260408083208484529091529020545b92915050565b610af882826119ea565b60008281526097602052604090206108479082611a72565b610b3a7f65d7a28e3265b37a6474929f336521b332c1681b933f6cb9f3376673440d862a33610460565b610bae576040805162461bcd60e51b81526020600482015260248101919091527f4552433732315072657365744d696e7465725061757365724175746f49643a2060448201527f6d75737420686176652070617573657220726f6c6520746f20756e706175736560648201526084016106f5565b610bb6611a87565b565b610847838383604051806020016040528060008152506111a5565b610bdc3361099e565b610c4e5760405162461bcd60e51b815260206004820152603060248201527f4552433732314275726e61626c653a2063616c6c6572206973206e6f74206f7760448201527f6e6572206e6f7220617070726f7665640000000000000000000000000000000060648201526084016106f5565b610c5781611b25565b50565b6000610c6560fd5490565b8210610cd95760405162461bcd60e51b815260206004820152602c60248201527f455243373231456e756d657261626c653a20676c6f62616c20696e646578206f60448201527f7574206f6620626f756e6473000000000000000000000000000000000000000060648201526084016106f5565b60fd8281548110610cfa57634e487b7160e01b600052603260045260246000fd5b90600052602060002001549050919050565b6101f56020528160005260406000208181548110610d2957600080fd5b6000918252602090912060029091020180546001909101546001600160a01b039091169250905082565b600081815260cb60205260408120546001600160a01b0316806105d55760405162461bcd60e51b815260206004820152602960248201527f4552433732313a206f776e657220717565727920666f72206e6f6e657869737460448201527f656e7420746f6b656e000000000000000000000000000000000000000000000060648201526084016106f5565b610e087f9f2df0fed2c77648de5860a4cc508cd0818c85b8b8a1ab4ceeef8d981c8956a633610460565b610e7a5760405162461bcd60e51b815260206004820152603d60248201527f4552433732315072657365744d696e7465725061757365724175746f49643a2060448201527f6d7573742068617665206d696e74657220726f6c6520746f206d696e7400000060648201526084016106f5565b610e8d81610e886101c35490565b611bd9565b610c576101c380546001019055565b60006001600160a01b038216610f1a5760405162461bcd60e51b815260206004820152602a60248201527f4552433732313a2062616c616e636520717565727920666f7220746865207a6560448201527f726f20616464726573730000000000000000000000000000000000000000000060648201526084016106f5565b506001600160a01b0316600090815260cc602052604090205490565b610f607f65d7a28e3265b37a6474929f336521b332c1681b933f6cb9f3376673440d862a33610460565b610fd25760405162461bcd60e51b815260206004820152603e60248201527f4552433732315072657365744d696e7465725061757365724175746f49643a2060448201527f6d75737420686176652070617573657220726f6c6520746f207061757365000060648201526084016106f5565b610bb6611d34565b6000828152609760205260408120610ff29083611dbe565b9392505050565b606060ca80546105ec90613388565b6001600160a01b0382163314156110615760405162461bcd60e51b815260206004820152601960248201527f4552433732313a20617070726f766520746f2063616c6c65720000000000000060448201526064016106f5565b33600081815260ce602090815260408083206001600160a01b0387168085529252909120805460ff1916841515179055906001600160a01b03167f17307eab39ab6107e8899845ad3d59bd9653f200f220920489ca2b5937696c31836040516110ce911515815260200190565b60405180910390a35050565b600054610100900460ff16806110f3575060005460ff16155b6111565760405162461bcd60e51b815260206004820152602e60248201527f496e697469616c697a61626c653a20636f6e747261637420697320616c72656160448201526d191e481a5b9a5d1a585b1a5e995960921b60648201526084016106f5565b600054610100900460ff16158015611178576000805461ffff19166101011790555b6111828484611dca565b61118d848484611ea6565b801561119f576000805461ff00191690555b50505050565b6111af338361164b565b6112215760405162461bcd60e51b815260206004820152603160248201527f4552433732313a207472616e736665722063616c6c6572206973206e6f74206f60448201527f776e6572206e6f7220617070726f76656400000000000000000000000000000060648201526084016106f5565b61119f84848484611fb9565b60008181526101f560209081526040808320805482518185028101850190935280835260609493849084015b828210156112a1576000848152602090819020604080518082019091526002850290910180546001600160a01b03168252600190810154828401529083529092019101611259565b5050505090506000815167ffffffffffffffff8111156112d157634e487b7160e01b600052604160045260246000fd5b6040519080825280602002602001820160405280156112fa578160200160208202803683370190505b50905060005b82518110156109915782818151811061132957634e487b7160e01b600052603260045260246000fd5b60200260200101516000015182828151811061135557634e487b7160e01b600052603260045260246000fd5b6001600160a01b039092166020928302919091019091015280611377816133c3565b915050611300565b600081815260cb60205260409020546060906001600160a01b031661140c5760405162461bcd60e51b815260206004820152602f60248201527f4552433732314d657461646174613a2055524920717565727920666f72206e6f60448201527f6e6578697374656e7420746f6b656e000000000000000000000000000000000060648201526084016106f5565b6000611416612042565b905060008151116114365760405180602001604052806000815250610ff2565b8061144084612052565b6040516020016114519291906131a1565b6040516020818303038152906040529392505050565b60008181526097602052604081206105d5906121a1565b610af882826121ab565b6114928383611bd9565b6000815167ffffffffffffffff8111156114bc57634e487b7160e01b600052604160045260246000fd5b6040519080825280602002602001820160405280156114e5578160200160208202803683370190505b5090506000825167ffffffffffffffff81111561151257634e487b7160e01b600052604160045260246000fd5b60405190808252806020026020018201604052801561153b578160200160208202803683370190505b5090506115488484612238565b82511561158b577f99aba1d63749cfd5ad1afda7c4663840924d54eb5f005bbbeadedc6ec13674b28483836040516115829392919061327f565b60405180910390a15b5050505050565b60006001600160e01b031982167f780e9d630000000000000000000000000000000000000000000000000000000014806105d557506105d5826123e7565b600081815260cd60205260409020805473ffffffffffffffffffffffffffffffffffffffff19166001600160a01b038416908117909155819061161282610d53565b6001600160a01b03167f8c5be1e5ebec7d5bd14f71427d1e84f3dd0314c0f7b2291e5b200ac8c7c3b92560405160405180910390a45050565b600081815260cb60205260408120546001600160a01b03166116d55760405162461bcd60e51b815260206004820152602c60248201527f4552433732313a206f70657261746f7220717565727920666f72206e6f6e657860448201527f697374656e7420746f6b656e000000000000000000000000000000000000000060648201526084016106f5565b60006116e083610d53565b9050806001600160a01b0316846001600160a01b0316148061171b5750836001600160a01b03166117108461066f565b6001600160a01b0316145b8061174b57506001600160a01b03808216600090815260ce602090815260408083209388168352929052205460ff165b949350505050565b826001600160a01b031661176682610d53565b6001600160a01b0316146117e25760405162461bcd60e51b815260206004820152602960248201527f4552433732313a207472616e73666572206f6620746f6b656e2074686174206960448201527f73206e6f74206f776e000000000000000000000000000000000000000000000060648201526084016106f5565b6001600160a01b03821661185d5760405162461bcd60e51b8152602060048201526024808201527f4552433732313a207472616e7366657220746f20746865207a65726f2061646460448201527f726573730000000000000000000000000000000000000000000000000000000060648201526084016106f5565b611868838383612459565b6118736000826115d0565b6001600160a01b038316600090815260cc6020526040812080546001929061189c908490613345565b90915550506001600160a01b038216600090815260cc602052604081208054600192906118ca908490613319565b9091555050600081815260cb6020526040808220805473ffffffffffffffffffffffffffffffffffffffff19166001600160a01b0386811691821790925591518493918716917fddf252ad1be2c89b69c2b068fc378daa952ba7f163c4a11628f55a4df523b3ef91a4505050565b600082815260656020526040902060010154611955905b33610460565b6119c75760405162461bcd60e51b815260206004820152602f60248201527f416363657373436f6e74726f6c3a2073656e646572206d75737420626520616e60448201527f2061646d696e20746f206772616e74000000000000000000000000000000000060648201526084016106f5565b6119d18282612464565b5050565b6000610ff2836001600160a01b038416612506565b6001600160a01b0381163314611a685760405162461bcd60e51b815260206004820152602f60248201527f416363657373436f6e74726f6c3a2063616e206f6e6c792072656e6f756e636560448201527f20726f6c657320666f722073656c66000000000000000000000000000000000060648201526084016106f5565b6119d18282612555565b6000610ff2836001600160a01b0384166125d8565b61015f5460ff16611ada5760405162461bcd60e51b815260206004820152601460248201527f5061757361626c653a206e6f742070617573656400000000000000000000000060448201526064016106f5565b61015f805460ff191690557f5db9ee0a495bf2e6ff9c91a7834c1ba4fdd244a5e8aa4e537bd38aeae4b073aa335b6040516001600160a01b03909116815260200160405180910390a1565b6000611b3082610d53565b9050611b3e81600084612459565b611b496000836115d0565b6001600160a01b038116600090815260cc60205260408120805460019290611b72908490613345565b9091555050600082815260cb6020526040808220805473ffffffffffffffffffffffffffffffffffffffff19169055518391906001600160a01b038416907fddf252ad1be2c89b69c2b068fc378daa952ba7f163c4a11628f55a4df523b3ef908390a45050565b6001600160a01b038216611c2f5760405162461bcd60e51b815260206004820181905260248201527f4552433732313a206d696e7420746f20746865207a65726f206164647265737360448201526064016106f5565b600081815260cb60205260409020546001600160a01b031615611c945760405162461bcd60e51b815260206004820152601c60248201527f4552433732313a20746f6b656e20616c7265616479206d696e7465640000000060448201526064016106f5565b611ca060008383612459565b6001600160a01b038216600090815260cc60205260408120805460019290611cc9908490613319565b9091555050600081815260cb6020526040808220805473ffffffffffffffffffffffffffffffffffffffff19166001600160a01b03861690811790915590518392907fddf252ad1be2c89b69c2b068fc378daa952ba7f163c4a11628f55a4df523b3ef908290a45050565b61015f5460ff1615611d885760405162461bcd60e51b815260206004820152601060248201527f5061757361626c653a207061757365640000000000000000000000000000000060448201526064016106f5565b61015f805460ff191660011790557f62e78cea01bee320cd4e420270b5ea74000d11b0c9f74754ebdbfc544b05a258611b083390565b6000610ff283836126f5565b600054610100900460ff1680611de3575060005460ff16155b611e465760405162461bcd60e51b815260206004820152602e60248201527f496e697469616c697a61626c653a20636f6e747261637420697320616c72656160448201526d191e481a5b9a5d1a585b1a5e995960921b60648201526084016106f5565b600054610100900460ff16158015611e68576000805461ffff19166101011790555b8251611e7b9060c9906020860190612cb2565b508151611e8f9060ca906020850190612cb2565b508015610847576000805461ff0019169055505050565b600054610100900460ff1680611ebf575060005460ff16155b611f225760405162461bcd60e51b815260206004820152602e60248201527f496e697469616c697a61626c653a20636f6e747261637420697320616c72656160448201526d191e481a5b9a5d1a585b1a5e995960921b60648201526084016106f5565b600054610100900460ff16158015611f44576000805461ffff19166101011790555b8151611f58906101c4906020850190612cb2565b50611f656000335b6127a4565b611f8f7f9f2df0fed2c77648de5860a4cc508cd0818c85b8b8a1ab4ceeef8d981c8956a633611f60565b61118d7f65d7a28e3265b37a6474929f336521b332c1681b933f6cb9f3376673440d862a33611f60565b611fc4848484611753565b611fd0848484846127ae565b61119f5760405162461bcd60e51b815260206004820152603260248201527f4552433732313a207472616e7366657220746f206e6f6e20455243373231526560448201527f63656976657220696d706c656d656e746572000000000000000000000000000060648201526084016106f5565b60606101c480546105ec90613388565b606081612093575060408051808201909152600181527f300000000000000000000000000000000000000000000000000000000000000060208201526105d8565b8160005b81156120bd57806120a7816133c3565b91506120b69050600a83613331565b9150612097565b60008167ffffffffffffffff8111156120e657634e487b7160e01b600052604160045260246000fd5b6040519080825280601f01601f191660200182016040528015612110576020820181803683370190505b5090505b841561174b57612125600183613345565b9150612132600a866133de565b61213d906030613319565b60f81b81838151811061216057634e487b7160e01b600052603260045260246000fd5b60200101907effffffffffffffffffffffffffffffffffffffffffffffffffffffffffffff1916908160001a90535061219a600a86613331565b9450612114565b60006105d5825490565b6000828152606560205260409020600101546121c69061194f565b611a685760405162461bcd60e51b815260206004820152603060248201527f416363657373436f6e74726f6c3a2073656e646572206d75737420626520616e60448201527f2061646d696e20746f207265766f6b650000000000000000000000000000000060648201526084016106f5565b60005b81518110156108475760006001600160a01b031682828151811061226f57634e487b7160e01b600052603260045260246000fd5b6020026020010151600001516001600160a01b031614156122d25760405162461bcd60e51b815260206004820152601b60248201527f526563697069656e742073686f756c642062652070726573656e74000000000060448201526064016106f5565b8181815181106122f257634e487b7160e01b600052603260045260246000fd5b6020026020010151602001516000141561234e5760405162461bcd60e51b815260206004820152601c60248201527f4665652076616c75652073686f756c6420626520706f7369746976650000000060448201526064016106f5565b60008381526101f560205260409020825183908390811061237f57634e487b7160e01b600052603260045260246000fd5b6020908102919091018101518254600180820185556000948552938390208251600290920201805473ffffffffffffffffffffffffffffffffffffffff19166001600160a01b03909216919091178155910151910155806123df816133c3565b91505061223b565b60006001600160e01b031982167f80ac58cd00000000000000000000000000000000000000000000000000000000148061244a57506001600160e01b031982167f5b5e139f00000000000000000000000000000000000000000000000000000000145b806105d557506105d582612911565b61084783838361294f565b60008281526065602090815260408083206001600160a01b038516845290915290205460ff166119d15760008281526065602090815260408083206001600160a01b03851684529091529020805460ff191660011790556124c23390565b6001600160a01b0316816001600160a01b0316837f2f8788117e7eff1d82e926ec794901d17c78024a50270940304540a733656f0d60405160405180910390a45050565b600081815260018301602052604081205461254d57508154600181810184556000848152602080822090930184905584548482528286019093526040902091909155610ae8565b506000610ae8565b60008281526065602090815260408083206001600160a01b038516845290915290205460ff16156119d15760008281526065602090815260408083206001600160a01b0385168085529252808320805460ff1916905551339285917ff6391f5c32d9c69d2a47ea670b442974b53935d1edc7fd64eb21e047a839171b9190a45050565b600081815260018301602052604081205480156126eb5760006125fc600183613345565b855490915060009061261090600190613345565b9050600086600001828154811061263757634e487b7160e01b600052603260045260246000fd5b906000526020600020015490508087600001848154811061266857634e487b7160e01b600052603260045260246000fd5b60009182526020909120015561267f836001613319565b600082815260018901602052604090205586548790806126af57634e487b7160e01b600052603160045260246000fd5b60019003818190600052602060002001600090559055866001016000878152602001908152602001600020600090556001945050505050610ae8565b6000915050610ae8565b8154600090821061276e5760405162461bcd60e51b815260206004820152602260248201527f456e756d657261626c655365743a20696e646578206f7574206f6620626f756e60448201527f647300000000000000000000000000000000000000000000000000000000000060648201526084016106f5565b82600001828154811061279157634e487b7160e01b600052603260045260246000fd5b9060005260206000200154905092915050565b610a2b82826119c7565b60006001600160a01b0384163b1561290657604051630a85bd0160e11b81526001600160a01b0385169063150b7a02906127f29033908990889088906004016131d0565b602060405180830381600087803b15801561280c57600080fd5b505af192505050801561283c575060408051601f3d908101601f191682019092526128399181019061309b565b60015b6128ec573d80801561286a576040519150601f19603f3d011682016040523d82523d6000602084013e61286f565b606091505b5080516128e45760405162461bcd60e51b815260206004820152603260248201527f4552433732313a207472616e7366657220746f206e6f6e20455243373231526560448201527f63656976657220696d706c656d656e746572000000000000000000000000000060648201526084016106f5565b805181602001fd5b6001600160e01b031916630a85bd0160e11b14905061174b565b506001949350505050565b60006001600160e01b031982167f5a05180f0000000000000000000000000000000000000000000000000000000014806105d557506105d5826129d4565b61295a838383612a3b565b61015f5460ff16156108475760405162461bcd60e51b815260206004820152602b60248201527f4552433732315061757361626c653a20746f6b656e207472616e73666572207760448201527f68696c652070617573656400000000000000000000000000000000000000000060648201526084016106f5565b60006001600160e01b031982167f7965db0b0000000000000000000000000000000000000000000000000000000014806105d557507f01ffc9a7000000000000000000000000000000000000000000000000000000006001600160e01b03198316146105d5565b6001600160a01b038316612a9657612a918160fd8054600083815260fe60205260408120829055600182018355919091527f9346ac6dd7de6b96975fec380d4d994c4c12e6a8897544f22915316cc6cca2800155565b612ab9565b816001600160a01b0316836001600160a01b031614612ab957612ab98382612af8565b6001600160a01b038216612ad557612ad081612b95565b610847565b826001600160a01b0316826001600160a01b031614610847576108478282612c6e565b60006001612b0584610e9c565b612b0f9190613345565b600083815260fc6020526040902054909150808214612b62576001600160a01b038416600090815260fb60209081526040808320858452825280832054848452818420819055835260fc90915290208190555b50600091825260fc602090815260408084208490556001600160a01b03909416835260fb81528383209183525290812055565b60fd54600090612ba790600190613345565b600083815260fe602052604081205460fd8054939450909284908110612bdd57634e487b7160e01b600052603260045260246000fd5b906000526020600020015490508060fd8381548110612c0c57634e487b7160e01b600052603260045260246000fd5b600091825260208083209091019290925582815260fe909152604080822084905585825281205560fd805480612c5257634e487b7160e01b600052603160045260246000fd5b6001900381819060005260206000200160009055905550505050565b6000612c7983610e9c565b6001600160a01b03909316600090815260fb60209081526040808320868452825280832085905593825260fc9052919091209190915550565b828054612cbe90613388565b90600052602060002090601f016020900481019282612ce05760008555612d26565b82601f10612cf957805160ff1916838001178555612d26565b82800160010185558215612d26579182015b82811115612d26578251825591602001919060010190612d0b565b50612d32929150612d36565b5090565b5b80821115612d325760008155600101612d37565b600067ffffffffffffffff831115612d6557612d6561341e565b612d78601f8401601f19166020016132e8565b9050828152838383011115612d8c57600080fd5b828260208301376000602084830101529392505050565b600082601f830112612db3578081fd5b610ff283833560208501612d4b565b600060208284031215612dd3578081fd5b8135610ff281613434565b60008060408385031215612df0578081fd5b8235612dfb81613434565b91506020830135612e0b81613434565b809150509250929050565b600080600060608486031215612e2a578081fd5b8335612e3581613434565b92506020840135612e4581613434565b929592945050506040919091013590565b60008060008060808587031215612e6b578081fd5b8435612e7681613434565b93506020850135612e8681613434565b925060408501359150606085013567ffffffffffffffff811115612ea8578182fd5b8501601f81018713612eb8578182fd5b612ec787823560208401612d4b565b91505092959194509250565b60008060408385031215612ee5578182fd5b8235612ef081613434565b915060208301358015158114612e0b578182fd5b60008060408385031215612f16578182fd5b8235612f2181613434565b946020939093013593505050565b600080600060608486031215612f43578283fd5b8335612f4e81613434565b9250602084810135925060408086013567ffffffffffffffff80821115612f73578485fd5b818801915088601f830112612f86578485fd5b813581811115612f9857612f9861341e565b612fa6858260051b016132e8565b8181528581019250838601600683901b850187018c1015612fc5578788fd5b8794505b828510156130115785818d031215612fdf578788fd5b612fe8866132e8565b8135612ff381613434565b81528188013588820152845260019490940193928601928501612fc9565b508096505050505050509250925092565b600060208284031215613033578081fd5b5035919050565b6000806040838503121561304c578182fd5b823591506020830135612e0b81613434565b60008060408385031215613070578182fd5b50508035926020909101359150565b600060208284031215613090578081fd5b8135610ff281613449565b6000602082840312156130ac578081fd5b8151610ff281613449565b6000806000606084860312156130cb578081fd5b833567ffffffffffffffff808211156130e2578283fd5b6130ee87838801612da3565b94506020860135915080821115613103578283fd5b61310f87838801612da3565b93506040860135915080821115613124578283fd5b5061313186828701612da3565b9150509250925092565b6000815180845260208085019450808401835b8381101561316a5781518752958201959082019060010161314e565b509495945050505050565b6000815180845261318d81602086016020860161335c565b601f01601f19169290920160200192915050565b600083516131b381846020880161335c565b8351908301906131c781836020880161335c565b01949350505050565b60006001600160a01b038087168352808616602084015250836040830152608060608301526132026080830184613175565b9695505050505050565b6020808252825182820181905260009190848201906040850190845b8181101561324d5783516001600160a01b031683529284019291840191600101613228565b50909695505050505050565b600060208252610ff2602083018461313b565b600060208252610ff26020830184613175565b60006060820185835260206060818501528186518084526080860191508288019350845b818110156132c85784516001600160a01b0316835293830193918301916001016132a3565b505084810360408601526132dc818761313b565b98975050505050505050565b604051601f8201601f1916810167ffffffffffffffff811182821017156133115761331161341e565b604052919050565b6000821982111561332c5761332c6133f2565b500190565b60008261334057613340613408565b500490565b600082821015613357576133576133f2565b500390565b60005b8381101561337757818101518382015260200161335f565b8381111561119f5750506000910152565b600181811c9082168061339c57607f821691505b602082108114156133bd57634e487b7160e01b600052602260045260246000fd5b50919050565b60006000198214156133d7576133d76133f2565b5060010190565b6000826133ed576133ed613408565b500690565b634e487b7160e01b600052601160045260246000fd5b634e487b7160e01b600052601260045260246000fd5b634e487b7160e01b600052604160045260246000fd5b6001600160a01b0381168114610c5757600080fd5b6001600160e01b031981168114610c5757600080fdfea2646970667358221220542df9da306e685adb8ce4c48741967c8dd04c434998c3ce9c1c8dbf48751ca164736f6c63430008030033",
  "immutableReferences": {},
  "source": "pragma solidity ^0.8.3;\n\nimport \"@openzeppelin/contracts-upgradeable/token/ERC721/presets/ERC721PresetMinterPauserAutoIdUpgradeable.sol\";\n\ncontract GhostmarketNFT is\n    Initializable,\n    ERC721PresetMinterPauserAutoIdUpgradeable\n{\n    struct Fee {\n        address payable recipient;\n        uint256 value;\n    }\n\n    // id => fees\n    mapping(uint256 => Fee[]) public fees;\n\n    event SecondarySaleFees(\n        uint256 tokenId,\n        address[] recipients,\n        uint256[] bps\n    );\n\n    //name: \"GhostmarketNFT\" symbol: \"GMNFT\"\n    function initialize(\n        string memory name,\n        string memory symbol,\n        string memory uri\n    ) public override initializer {\n        __ERC721_init_unchained(name, symbol);\n        __ERC721PresetMinterPauserAutoId_init_unchained(name, symbol, uri);\n    }\n\n    function getFeeRecipients(uint256 id)\n        public\n        view\n        returns (address payable[] memory)\n    {\n        Fee[] memory _fees = fees[id];\n        address payable[] memory result = new address payable[](_fees.length);\n        for (uint256 i = 0; i < _fees.length; i++) {\n            result[i] = _fees[i].recipient;\n        }\n        return result;\n    }\n\n    function getFeeBps(uint256 id) public view returns (uint256[] memory) {\n        Fee[] memory _fees = fees[id];\n        uint256[] memory result = new uint256[](_fees.length);\n        for (uint256 i = 0; i < _fees.length; i++) {\n            result[i] = _fees[i].value;\n        }\n        return result;\n    }\n\n    function saveFees(uint256 _id, Fee[] memory _fees) internal {\n        for (uint256 i = 0; i < _fees.length; i++) {\n            require(\n                _fees[i].recipient != address(0x0),\n                \"Recipient should be present\"\n            );\n            require(_fees[i].value != 0, \"Fee value should be positive\");\n            fees[_id].push(_fees[i]);\n        }\n    }\n\n    function updateAccount(\n        uint256 _id,\n        address _from,\n        address _to\n    ) internal {\n        uint256 length = fees[_id].length;\n        for (uint256 i = 0; i < length; i++) {\n            if (fees[_id][i].recipient == _from) {\n                fees[_id][i].recipient = payable(address(uint160(_to)));\n            }\n        }\n    }\n\n    function mint(\n        address to,\n        uint256 tokenId,\n        Fee[] memory _fees\n    ) public {\n        super._mint(to, tokenId);\n        address[] memory recipients = new address[](_fees.length);\n        uint256[] memory bps = new uint256[](_fees.length);\n        saveFees(tokenId, _fees);\n        if (_fees.length > 0) {\n            emit SecondarySaleFees(tokenId, recipients, bps);\n        }\n    }\n}\n",
  "sourcePath": "/Users/selimerunkut/dev_freelance/GhostMarketContractBSC/contracts/GhostmarketNFT.sol",
  "compiler": {
    "name": "solc",
    "version": "0.8.3+commit.8d00100c.Emscripten.clang"
  },
  "schemaVersion": "3.3.4",
  "updatedAt": "2021-04-19T20:56:56.424Z",
  "devdoc": {
    "kind": "dev",
    "methods": {
      "approve(address,uint256)": {
        "details": "See {IERC721-approve}."
      },
      "balanceOf(address)": {
        "details": "See {IERC721-balanceOf}."
      },
      "burn(uint256)": {
        "details": "Burns `tokenId`. See {ERC721-_burn}. Requirements: - The caller must own `tokenId` or be an approved operator."
      },
      "getApproved(uint256)": {
        "details": "See {IERC721-getApproved}."
      },
      "getRoleAdmin(bytes32)": {
        "details": "Returns the admin role that controls `role`. See {grantRole} and {revokeRole}. To change a role's admin, use {_setRoleAdmin}."
      },
      "getRoleMember(bytes32,uint256)": {
        "details": "Returns one of the accounts that have `role`. `index` must be a value between 0 and {getRoleMemberCount}, non-inclusive. Role bearers are not sorted in any particular way, and their ordering may change at any point. WARNING: When using {getRoleMember} and {getRoleMemberCount}, make sure you perform all queries on the same block. See the following https://forum.openzeppelin.com/t/iterating-over-elements-on-enumerableset-in-openzeppelin-contracts/2296[forum post] for more information."
      },
      "getRoleMemberCount(bytes32)": {
        "details": "Returns the number of accounts that have `role`. Can be used together with {getRoleMember} to enumerate all bearers of a role."
      },
      "grantRole(bytes32,address)": {
        "details": "Overload {grantRole} to track enumerable memberships"
      },
      "hasRole(bytes32,address)": {
        "details": "Returns `true` if `account` has been granted `role`."
      },
      "isApprovedForAll(address,address)": {
        "details": "See {IERC721-isApprovedForAll}."
      },
      "mint(address)": {
        "details": "Creates a new token for `to`. Its token ID will be automatically assigned (and available on the emitted {IERC721-Transfer} event), and the token URI autogenerated based on the base URI passed at construction. See {ERC721-_mint}. Requirements: - the caller must have the `MINTER_ROLE`."
      },
      "name()": {
        "details": "See {IERC721Metadata-name}."
      },
      "ownerOf(uint256)": {
        "details": "See {IERC721-ownerOf}."
      },
      "pause()": {
        "details": "Pauses all token transfers. See {ERC721Pausable} and {Pausable-_pause}. Requirements: - the caller must have the `PAUSER_ROLE`."
      },
      "paused()": {
        "details": "Returns true if the contract is paused, and false otherwise."
      },
      "renounceRole(bytes32,address)": {
        "details": "Overload {renounceRole} to track enumerable memberships"
      },
      "revokeRole(bytes32,address)": {
        "details": "Overload {revokeRole} to track enumerable memberships"
      },
      "safeTransferFrom(address,address,uint256)": {
        "details": "See {IERC721-safeTransferFrom}."
      },
      "safeTransferFrom(address,address,uint256,bytes)": {
        "details": "See {IERC721-safeTransferFrom}."
      },
      "setApprovalForAll(address,bool)": {
        "details": "See {IERC721-setApprovalForAll}."
      },
      "supportsInterface(bytes4)": {
        "details": "See {IERC165-supportsInterface}."
      },
      "symbol()": {
        "details": "See {IERC721Metadata-symbol}."
      },
      "tokenByIndex(uint256)": {
        "details": "See {IERC721Enumerable-tokenByIndex}."
      },
      "tokenOfOwnerByIndex(address,uint256)": {
        "details": "See {IERC721Enumerable-tokenOfOwnerByIndex}."
      },
      "tokenURI(uint256)": {
        "details": "See {IERC721Metadata-tokenURI}."
      },
      "totalSupply()": {
        "details": "See {IERC721Enumerable-totalSupply}."
      },
      "transferFrom(address,address,uint256)": {
        "details": "See {IERC721-transferFrom}."
      },
      "unpause()": {
        "details": "Unpauses all token transfers. See {ERC721Pausable} and {Pausable-_unpause}. Requirements: - the caller must have the `PAUSER_ROLE`."
      }
    },
    "version": 1
  },
  "userdoc": {
    "kind": "user",
    "methods": {},
    "version": 1
  }
}