{
  "contractName": "GhostmarketNFT",
  "abi": [
    {
      "anonymous": false,
      "inputs": [
        {
          "indexed": true,
          "internalType": "address",
          "name": "owner",
          "type": "address"
        },
        {
          "indexed": true,
          "internalType": "address",
          "name": "approved",
          "type": "address"
        },
        {
          "indexed": true,
          "internalType": "uint256",
          "name": "tokenId",
          "type": "uint256"
        }
      ],
      "name": "Approval",
      "type": "event"
    },
    {
      "anonymous": false,
      "inputs": [
        {
          "indexed": true,
          "internalType": "address",
          "name": "owner",
          "type": "address"
        },
        {
          "indexed": true,
          "internalType": "address",
          "name": "operator",
          "type": "address"
        },
        {
          "indexed": false,
          "internalType": "bool",
          "name": "approved",
          "type": "bool"
        }
      ],
      "name": "ApprovalForAll",
      "type": "event"
    },
    {
      "anonymous": false,
      "inputs": [
        {
          "indexed": false,
          "internalType": "uint256",
          "name": "tokenId",
          "type": "uint256"
        },
        {
          "components": [
            {
              "internalType": "string",
              "name": "key",
              "type": "string"
            },
            {
              "internalType": "string",
              "name": "value",
              "type": "string"
            }
          ],
          "indexed": false,
          "internalType": "struct GhostmarketNFT.AttributesStruct[]",
          "name": "attributes",
          "type": "tuple[]"
        }
      ],
      "name": "AttributesSet",
      "type": "event"
    },
    {
      "anonymous": false,
      "inputs": [
        {
          "indexed": false,
          "internalType": "address",
          "name": "newValue",
          "type": "address"
        }
      ],
      "name": "GhostmarketFeeAddressChanged",
      "type": "event"
    },
    {
      "anonymous": false,
      "inputs": [
        {
          "indexed": false,
          "internalType": "uint256",
          "name": "newValue",
          "type": "uint256"
        }
      ],
      "name": "GhostmarketFeeMultiplierChanged",
      "type": "event"
    },
    {
      "anonymous": false,
      "inputs": [
        {
          "indexed": false,
          "internalType": "address",
          "name": "sender",
          "type": "address"
        },
        {
          "indexed": false,
          "internalType": "uint256",
          "name": "value",
          "type": "uint256"
        }
      ],
      "name": "GhostmarketFeePaid",
      "type": "event"
    },
    {
      "anonymous": false,
      "inputs": [
        {
          "indexed": false,
          "internalType": "uint256",
          "name": "newValue",
          "type": "uint256"
        }
      ],
      "name": "GhostmarketMintFeeChanged",
      "type": "event"
    },
    {
      "anonymous": false,
      "inputs": [
        {
          "indexed": false,
          "internalType": "address",
          "name": "account",
          "type": "address"
        }
      ],
      "name": "Paused",
      "type": "event"
    },
    {
      "anonymous": false,
      "inputs": [
        {
          "indexed": true,
          "internalType": "bytes32",
          "name": "role",
          "type": "bytes32"
        },
        {
          "indexed": true,
          "internalType": "bytes32",
          "name": "previousAdminRole",
          "type": "bytes32"
        },
        {
          "indexed": true,
          "internalType": "bytes32",
          "name": "newAdminRole",
          "type": "bytes32"
        }
      ],
      "name": "RoleAdminChanged",
      "type": "event"
    },
    {
      "anonymous": false,
      "inputs": [
        {
          "indexed": true,
          "internalType": "bytes32",
          "name": "role",
          "type": "bytes32"
        },
        {
          "indexed": true,
          "internalType": "address",
          "name": "account",
          "type": "address"
        },
        {
          "indexed": true,
          "internalType": "address",
          "name": "sender",
          "type": "address"
        }
      ],
      "name": "RoleGranted",
      "type": "event"
    },
    {
      "anonymous": false,
      "inputs": [
        {
          "indexed": true,
          "internalType": "bytes32",
          "name": "role",
          "type": "bytes32"
        },
        {
          "indexed": true,
          "internalType": "address",
          "name": "account",
          "type": "address"
        },
        {
          "indexed": true,
          "internalType": "address",
          "name": "sender",
          "type": "address"
        }
      ],
      "name": "RoleRevoked",
      "type": "event"
    },
    {
      "anonymous": false,
      "inputs": [
        {
          "indexed": false,
          "internalType": "uint256",
          "name": "tokenId",
          "type": "uint256"
        },
        {
          "indexed": false,
          "internalType": "address[]",
          "name": "recipients",
          "type": "address[]"
        },
        {
          "indexed": false,
          "internalType": "uint256[]",
          "name": "bps",
          "type": "uint256[]"
        }
      ],
      "name": "SecondarySaleFees",
      "type": "event"
    },
    {
      "anonymous": false,
      "inputs": [
        {
          "indexed": true,
          "internalType": "address",
          "name": "from",
          "type": "address"
        },
        {
          "indexed": true,
          "internalType": "address",
          "name": "to",
          "type": "address"
        },
        {
          "indexed": true,
          "internalType": "uint256",
          "name": "tokenId",
          "type": "uint256"
        }
      ],
      "name": "Transfer",
      "type": "event"
    },
    {
      "anonymous": false,
      "inputs": [
        {
          "indexed": false,
          "internalType": "address",
          "name": "account",
          "type": "address"
        }
      ],
      "name": "Unpaused",
      "type": "event"
    },
    {
      "inputs": [],
      "name": "DEFAULT_ADMIN_ROLE",
      "outputs": [
        {
          "internalType": "bytes32",
          "name": "",
          "type": "bytes32"
        }
      ],
      "stateMutability": "view",
      "type": "function"
    },
    {
      "inputs": [],
      "name": "MINTER_ROLE",
      "outputs": [
        {
          "internalType": "bytes32",
          "name": "",
          "type": "bytes32"
        }
      ],
      "stateMutability": "view",
      "type": "function"
    },
    {
      "inputs": [],
      "name": "PAUSER_ROLE",
      "outputs": [
        {
          "internalType": "bytes32",
          "name": "",
          "type": "bytes32"
        }
      ],
      "stateMutability": "view",
      "type": "function"
    },
    {
      "inputs": [
        {
          "internalType": "address",
          "name": "to",
          "type": "address"
        },
        {
          "internalType": "uint256",
          "name": "tokenId",
          "type": "uint256"
        }
      ],
      "name": "approve",
      "outputs": [],
      "stateMutability": "nonpayable",
      "type": "function"
    },
    {
      "inputs": [
        {
          "internalType": "uint256",
          "name": "",
          "type": "uint256"
        },
        {
          "internalType": "uint256",
          "name": "",
          "type": "uint256"
        }
      ],
      "name": "attribute",
      "outputs": [
        {
          "internalType": "string",
          "name": "key",
          "type": "string"
        },
        {
          "internalType": "string",
          "name": "value",
          "type": "string"
        }
      ],
      "stateMutability": "view",
      "type": "function"
    },
    {
      "inputs": [
        {
          "internalType": "address",
          "name": "owner",
          "type": "address"
        }
      ],
      "name": "balanceOf",
      "outputs": [
        {
          "internalType": "uint256",
          "name": "",
          "type": "uint256"
        }
      ],
      "stateMutability": "view",
      "type": "function"
    },
    {
      "inputs": [
        {
          "internalType": "uint256",
          "name": "tokenId",
          "type": "uint256"
        }
      ],
      "name": "burn",
      "outputs": [],
      "stateMutability": "nonpayable",
      "type": "function"
    },
    {
      "inputs": [
        {
          "internalType": "uint256",
          "name": "",
          "type": "uint256"
        },
        {
          "internalType": "uint256",
          "name": "",
          "type": "uint256"
        }
      ],
      "name": "fees",
      "outputs": [
        {
          "internalType": "address payable",
          "name": "recipient",
          "type": "address"
        },
        {
          "internalType": "uint256",
          "name": "value",
          "type": "uint256"
        }
      ],
      "stateMutability": "view",
      "type": "function"
    },
    {
      "inputs": [
        {
          "internalType": "uint256",
          "name": "tokenId",
          "type": "uint256"
        }
      ],
      "name": "getApproved",
      "outputs": [
        {
          "internalType": "address",
          "name": "",
          "type": "address"
        }
      ],
      "stateMutability": "view",
      "type": "function"
    },
    {
      "inputs": [],
      "name": "getCurrentCounter",
      "outputs": [
        {
          "internalType": "uint256",
          "name": "",
          "type": "uint256"
        }
      ],
      "stateMutability": "view",
      "type": "function"
    },
    {
      "inputs": [
        {
          "internalType": "bytes32",
          "name": "role",
          "type": "bytes32"
        }
      ],
      "name": "getRoleAdmin",
      "outputs": [
        {
          "internalType": "bytes32",
          "name": "",
          "type": "bytes32"
        }
      ],
      "stateMutability": "view",
      "type": "function"
    },
    {
      "inputs": [
        {
          "internalType": "bytes32",
          "name": "role",
          "type": "bytes32"
        },
        {
          "internalType": "uint256",
          "name": "index",
          "type": "uint256"
        }
      ],
      "name": "getRoleMember",
      "outputs": [
        {
          "internalType": "address",
          "name": "",
          "type": "address"
        }
      ],
      "stateMutability": "view",
      "type": "function"
    },
    {
      "inputs": [
        {
          "internalType": "bytes32",
          "name": "role",
          "type": "bytes32"
        }
      ],
      "name": "getRoleMemberCount",
      "outputs": [
        {
          "internalType": "uint256",
          "name": "",
          "type": "uint256"
        }
      ],
      "stateMutability": "view",
      "type": "function"
    },
    {
      "inputs": [],
      "name": "ghostmarketFeeAddress",
      "outputs": [
        {
          "internalType": "address payable",
          "name": "",
          "type": "address"
        }
      ],
      "stateMutability": "view",
      "type": "function"
    },
    {
      "inputs": [],
      "name": "ghostmarketFeeMultiplier",
      "outputs": [
        {
          "internalType": "uint256",
          "name": "",
          "type": "uint256"
        }
      ],
      "stateMutability": "view",
      "type": "function"
    },
    {
      "inputs": [],
      "name": "ghostmarketMintingFee",
      "outputs": [
        {
          "internalType": "uint256",
          "name": "",
          "type": "uint256"
        }
      ],
      "stateMutability": "view",
      "type": "function"
    },
    {
      "inputs": [
        {
          "internalType": "bytes32",
          "name": "role",
          "type": "bytes32"
        },
        {
          "internalType": "address",
          "name": "account",
          "type": "address"
        }
      ],
      "name": "grantRole",
      "outputs": [],
      "stateMutability": "nonpayable",
      "type": "function"
    },
    {
      "inputs": [
        {
          "internalType": "bytes32",
          "name": "role",
          "type": "bytes32"
        },
        {
          "internalType": "address",
          "name": "account",
          "type": "address"
        }
      ],
      "name": "hasRole",
      "outputs": [
        {
          "internalType": "bool",
          "name": "",
          "type": "bool"
        }
      ],
      "stateMutability": "view",
      "type": "function"
    },
    {
      "inputs": [
        {
          "internalType": "address",
          "name": "owner",
          "type": "address"
        },
        {
          "internalType": "address",
          "name": "operator",
          "type": "address"
        }
      ],
      "name": "isApprovedForAll",
      "outputs": [
        {
          "internalType": "bool",
          "name": "",
          "type": "bool"
        }
      ],
      "stateMutability": "view",
      "type": "function"
    },
    {
      "inputs": [],
      "name": "name",
      "outputs": [
        {
          "internalType": "string",
          "name": "",
          "type": "string"
        }
      ],
      "stateMutability": "view",
      "type": "function"
    },
    {
      "inputs": [
        {
          "internalType": "uint256",
          "name": "tokenId",
          "type": "uint256"
        }
      ],
      "name": "ownerOf",
      "outputs": [
        {
          "internalType": "address",
          "name": "",
          "type": "address"
        }
      ],
      "stateMutability": "view",
      "type": "function"
    },
    {
      "inputs": [],
      "name": "pause",
      "outputs": [],
      "stateMutability": "nonpayable",
      "type": "function"
    },
    {
      "inputs": [],
      "name": "paused",
      "outputs": [
        {
          "internalType": "bool",
          "name": "",
          "type": "bool"
        }
      ],
      "stateMutability": "view",
      "type": "function"
    },
    {
      "inputs": [
        {
          "internalType": "bytes32",
          "name": "role",
          "type": "bytes32"
        },
        {
          "internalType": "address",
          "name": "account",
          "type": "address"
        }
      ],
      "name": "renounceRole",
      "outputs": [],
      "stateMutability": "nonpayable",
      "type": "function"
    },
    {
      "inputs": [
        {
          "internalType": "bytes32",
          "name": "role",
          "type": "bytes32"
        },
        {
          "internalType": "address",
          "name": "account",
          "type": "address"
        }
      ],
      "name": "revokeRole",
      "outputs": [],
      "stateMutability": "nonpayable",
      "type": "function"
    },
    {
      "inputs": [
        {
          "internalType": "address",
          "name": "from",
          "type": "address"
        },
        {
          "internalType": "address",
          "name": "to",
          "type": "address"
        },
        {
          "internalType": "uint256",
          "name": "tokenId",
          "type": "uint256"
        }
      ],
      "name": "safeTransferFrom",
      "outputs": [],
      "stateMutability": "nonpayable",
      "type": "function"
    },
    {
      "inputs": [
        {
          "internalType": "address",
          "name": "from",
          "type": "address"
        },
        {
          "internalType": "address",
          "name": "to",
          "type": "address"
        },
        {
          "internalType": "uint256",
          "name": "tokenId",
          "type": "uint256"
        },
        {
          "internalType": "bytes",
          "name": "_data",
          "type": "bytes"
        }
      ],
      "name": "safeTransferFrom",
      "outputs": [],
      "stateMutability": "nonpayable",
      "type": "function"
    },
    {
      "inputs": [
        {
          "internalType": "address",
          "name": "operator",
          "type": "address"
        },
        {
          "internalType": "bool",
          "name": "approved",
          "type": "bool"
        }
      ],
      "name": "setApprovalForAll",
      "outputs": [],
      "stateMutability": "nonpayable",
      "type": "function"
    },
    {
      "inputs": [
        {
          "internalType": "bytes4",
          "name": "interfaceId",
          "type": "bytes4"
        }
      ],
      "name": "supportsInterface",
      "outputs": [
        {
          "internalType": "bool",
          "name": "",
          "type": "bool"
        }
      ],
      "stateMutability": "view",
      "type": "function"
    },
    {
      "inputs": [],
      "name": "symbol",
      "outputs": [
        {
          "internalType": "string",
          "name": "",
          "type": "string"
        }
      ],
      "stateMutability": "view",
      "type": "function"
    },
    {
      "inputs": [
        {
          "internalType": "uint256",
          "name": "index",
          "type": "uint256"
        }
      ],
      "name": "tokenByIndex",
      "outputs": [
        {
          "internalType": "uint256",
          "name": "",
          "type": "uint256"
        }
      ],
      "stateMutability": "view",
      "type": "function"
    },
    {
      "inputs": [
        {
          "internalType": "address",
          "name": "owner",
          "type": "address"
        },
        {
          "internalType": "uint256",
          "name": "index",
          "type": "uint256"
        }
      ],
      "name": "tokenOfOwnerByIndex",
      "outputs": [
        {
          "internalType": "uint256",
          "name": "",
          "type": "uint256"
        }
      ],
      "stateMutability": "view",
      "type": "function"
    },
    {
      "inputs": [
        {
          "internalType": "uint256",
          "name": "tokenId",
          "type": "uint256"
        }
      ],
      "name": "tokenURI",
      "outputs": [
        {
          "internalType": "string",
          "name": "",
          "type": "string"
        }
      ],
      "stateMutability": "view",
      "type": "function"
    },
    {
      "inputs": [],
      "name": "totalSupply",
      "outputs": [
        {
          "internalType": "uint256",
          "name": "",
          "type": "uint256"
        }
      ],
      "stateMutability": "view",
      "type": "function"
    },
    {
      "inputs": [
        {
          "internalType": "address",
          "name": "from",
          "type": "address"
        },
        {
          "internalType": "address",
          "name": "to",
          "type": "address"
        },
        {
          "internalType": "uint256",
          "name": "tokenId",
          "type": "uint256"
        }
      ],
      "name": "transferFrom",
      "outputs": [],
      "stateMutability": "nonpayable",
      "type": "function"
    },
    {
      "inputs": [],
      "name": "unpause",
      "outputs": [],
      "stateMutability": "nonpayable",
      "type": "function"
    },
    {
      "inputs": [
        {
          "internalType": "string",
          "name": "name",
          "type": "string"
        },
        {
          "internalType": "string",
          "name": "symbol",
          "type": "string"
        },
        {
          "internalType": "string",
          "name": "uri",
          "type": "string"
        }
      ],
      "name": "initialize",
      "outputs": [],
      "stateMutability": "nonpayable",
      "type": "function"
    },
    {
      "inputs": [
        {
          "internalType": "uint256",
          "name": "_tokenId",
          "type": "uint256"
        }
      ],
      "name": "getAttributes",
      "outputs": [
        {
          "components": [
            {
              "internalType": "string",
              "name": "key",
              "type": "string"
            },
            {
              "internalType": "string",
              "name": "value",
              "type": "string"
            }
          ],
          "internalType": "struct GhostmarketNFT.AttributesStruct[]",
          "name": "",
          "type": "tuple[]"
        }
      ],
      "stateMutability": "view",
      "type": "function"
    },
    {
      "inputs": [
        {
          "internalType": "uint256",
          "name": "_tokenId",
          "type": "uint256"
        }
      ],
      "name": "getFeeRecipients",
      "outputs": [
        {
          "internalType": "address payable[]",
          "name": "",
          "type": "address[]"
        }
      ],
      "stateMutability": "view",
      "type": "function"
    },
    {
      "inputs": [
        {
          "internalType": "uint256",
          "name": "_tokenId",
          "type": "uint256"
        }
      ],
      "name": "getFeeBps",
      "outputs": [
        {
          "internalType": "uint256[]",
          "name": "",
          "type": "uint256[]"
        }
      ],
      "stateMutability": "view",
      "type": "function"
    },
    {
      "inputs": [
        {
          "internalType": "uint256",
          "name": "_tokenId",
          "type": "uint256"
        },
        {
          "internalType": "address",
          "name": "_from",
          "type": "address"
        },
        {
          "internalType": "uint256",
          "name": "_value",
          "type": "uint256"
        }
      ],
      "name": "updateRecipientsFees",
      "outputs": [],
      "stateMutability": "nonpayable",
      "type": "function"
    },
    {
      "inputs": [
        {
          "internalType": "uint256",
          "name": "_tokenId",
          "type": "uint256"
        },
        {
          "internalType": "address",
          "name": "_from",
          "type": "address"
        },
        {
          "internalType": "address",
          "name": "_to",
          "type": "address"
        }
      ],
      "name": "updateFeeAccount",
      "outputs": [],
      "stateMutability": "nonpayable",
      "type": "function"
    },
    {
      "inputs": [
        {
          "internalType": "address",
          "name": "to",
          "type": "address"
        }
      ],
      "name": "mint",
      "outputs": [],
      "stateMutability": "nonpayable",
      "type": "function"
    },
    {
      "inputs": [
        {
          "internalType": "address",
          "name": "_to",
          "type": "address"
        },
        {
          "components": [
            {
              "internalType": "address payable",
              "name": "recipient",
              "type": "address"
            },
            {
              "internalType": "uint256",
              "name": "value",
              "type": "uint256"
            }
          ],
          "internalType": "struct GhostmarketNFT.Fee[]",
          "name": "_fees",
          "type": "tuple[]"
        },
        {
          "components": [
            {
              "internalType": "string",
              "name": "key",
              "type": "string"
            },
            {
              "internalType": "string",
              "name": "value",
              "type": "string"
            }
          ],
          "internalType": "struct GhostmarketNFT.AttributesStruct[]",
          "name": "_attributes",
          "type": "tuple[]"
        }
      ],
      "name": "mint",
      "outputs": [],
      "stateMutability": "nonpayable",
      "type": "function"
    },
    {
      "inputs": [
        {
          "internalType": "address",
          "name": "_to",
          "type": "address"
        },
        {
          "components": [
            {
              "internalType": "address payable",
              "name": "recipient",
              "type": "address"
            },
            {
              "internalType": "uint256",
              "name": "value",
              "type": "uint256"
            }
          ],
          "internalType": "struct GhostmarketNFT.Fee[]",
          "name": "_fees",
          "type": "tuple[]"
        },
        {
          "components": [
            {
              "internalType": "string",
              "name": "key",
              "type": "string"
            },
            {
              "internalType": "string",
              "name": "value",
              "type": "string"
            }
          ],
          "internalType": "struct GhostmarketNFT.AttributesStruct[]",
          "name": "_attributes",
          "type": "tuple[]"
        }
      ],
      "name": "mintWithFee",
      "outputs": [],
      "stateMutability": "nonpayable",
      "type": "function"
    },
    {
      "inputs": [
        {
          "internalType": "address payable",
          "name": "_ghostmarketFeeAddress",
          "type": "address"
        }
      ],
      "name": "setGhostmarketFeeAddress",
      "outputs": [],
      "stateMutability": "nonpayable",
      "type": "function"
    },
    {
      "inputs": [
        {
          "internalType": "uint256",
          "name": "_ghostmarketFeeMultiplier",
          "type": "uint256"
        }
      ],
      "name": "setGhostmarketFeeMultiplier",
      "outputs": [],
      "stateMutability": "nonpayable",
      "type": "function"
    },
    {
      "inputs": [
        {
          "internalType": "uint256",
          "name": "_ghostmarketMintingFee",
          "type": "uint256"
        }
      ],
      "name": "setGhostmarketMintFee",
      "outputs": [],
      "stateMutability": "nonpayable",
      "type": "function"
    }
  ],
  "bytecode": "0x608060405234801561001057600080fd5b50614643806100206000396000f3fe608060405234801561001057600080fd5b50600436106103205760003560e01c806370a08231116101a7578063c87b56dd116100ee578063e63ab1e911610097578063fb3e09af11610071578063fb3e09af14610737578063fc24a8a91461074b578063ffbd264d1461075e57610320565b8063e63ab1e9146106c1578063e768ec21146106e8578063e985e9c5146106fb57610320565b8063d547741f116100c8578063d547741f14610691578063dac0f3d9146106a4578063e38189c9146106b757610320565b8063c87b56dd14610644578063ca15c87314610657578063d53913931461066a57610320565b8063a217fddf11610150578063b88d4fde1161012a578063b88d4fde146105fe578063b9c4d9fb14610611578063c20b83361461063157610320565b8063a217fddf146105d0578063a22cb465146105d8578063a6487c53146105eb57610320565b80639010d07c116101815780639010d07c1461057c57806391d148541461058f57806395d89b41146105c857610320565b806370a082311461055957806373448c461461056c5780638456cb591461057457610320565b806336d8ec091161026b5780634f6ccce7116102145780636308f1cd116101ee5780636308f1cd146105015780636352211e146105335780636a6278421461054657610320565b80634f6ccce7146104d85780635c975abb146104eb5780636213801f146104f757610320565b806342842e0e1161024557806342842e0e1461049257806342966c68146104a55780634378a6e3146104b857610320565b806336d8ec09146104565780633daab032146104695780633f4ba83a1461048a57610320565b806323b872dd116102cd5780632f2ff15d116102a75780632f2ff15d1461041d5780632f745c591461043057806336568abe1461044357610320565b806323b872dd146103d4578063248a9ca3146103e75780632c4a5de81461040a57610320565b8063095ea7b3116102fe578063095ea7b31461038d5780630ebd4c7f146103a257806318160ddd146103c257610320565b806301ffc9a71461032557806306fdde031461034d578063081812fc14610362575b600080fd5b61033861033336600461409d565b610771565b60405190151581526020015b60405180910390f35b610355610784565b6040516103449190614390565b610375610370366004614040565b610816565b6040516001600160a01b039091168152602001610344565b6103a061039b366004614015565b6108b0565b005b6103b56103b0366004614040565b6109e2565b604051610344919061437d565b60fd545b604051908152602001610344565b6103a06103e2366004613e2e565b610b2f565b6103c66103f5366004614040565b60009081526065602052604090206001015490565b6103a0610418366004613eeb565b610bb7565b6103a061042b366004614058565b610c52565b6103c661043e366004614015565b610c74565b6103a0610451366004614058565b610d1f565b6103a061046436600461414f565b610d41565b61047c61047736600461407c565b610ecc565b6040516103449291906143a3565b6103a061101e565b6103a06104a0366004613e2e565b6110c6565b6103a06104b3366004614040565b6110e1565b6104cb6104c6366004614040565b611168565b604051610344919061436a565b6103c66104e6366004614040565b6112ff565b61015f5460ff16610338565b6103c66101f85481565b61051461050f36600461407c565b6113b1565b604080516001600160a01b039093168352602083019190915201610344565b610375610541366004614040565b6113f8565b6103a0610554366004613dda565b611483565b6103c6610567366004613dda565b611541565b6103c66115db565b6103a06115ec565b61037561058a36600461407c565b611690565b61033861059d366004614058565b60009182526065602090815260408084206001600160a01b0393909316845291905290205460ff1690565b6103556116af565b6103c6600081565b6103a06105e6366004613fe4565b6116be565b6103a06105f93660046140d5565b611790565b6103a061060c366004613e6e565b611869565b61062461061f366004614040565b6118f1565b604051610344919061431d565b6103a061063f366004614040565b611a43565b610355610652366004614040565b611afd565b6103c6610665366004614040565b611be5565b6103c67f9f2df0fed2c77648de5860a4cc508cd0818c85b8b8a1ab4ceeef8d981c8956a681565b6103a061069f366004614058565b611bfc565b6103a06106b2366004614040565b611c06565b6103c66101f75481565b6103c67f65d7a28e3265b37a6474929f336521b332c1681b933f6cb9f3376673440d862a81565b6103a06106f6366004613eeb565b611cb9565b610338610709366004613df6565b6001600160a01b03918216600090815260ce6020908152604080832093909416825291909152205460ff1690565b6101f954610375906001600160a01b031681565b6103a0610759366004613dda565b611ded565b6103a061076c366004614190565b611eb9565b600061077c826120e1565b90505b919050565b606060c9805461079390614536565b80601f01602080910402602001604051908101604052809291908181526020018280546107bf90614536565b801561080c5780601f106107e15761010080835404028352916020019161080c565b820191906000526020600020905b8154815290600101906020018083116107ef57829003601f168201915b5050505050905090565b600081815260cb60205260408120546001600160a01b03166108945760405162461bcd60e51b815260206004820152602c60248201527f4552433732313a20617070726f76656420717565727920666f72206e6f6e657860448201526b34b9ba32b73a103a37b5b2b760a11b60648201526084015b60405180910390fd5b50600090815260cd60205260409020546001600160a01b031690565b60006108bb826113f8565b9050806001600160a01b0316836001600160a01b031614156109455760405162461bcd60e51b815260206004820152602160248201527f4552433732313a20617070726f76616c20746f2063757272656e74206f776e6560448201527f7200000000000000000000000000000000000000000000000000000000000000606482015260840161088b565b336001600160a01b038216148061096157506109618133610709565b6109d35760405162461bcd60e51b815260206004820152603860248201527f4552433732313a20617070726f76652063616c6c6572206973206e6f74206f7760448201527f6e6572206e6f7220617070726f76656420666f7220616c6c0000000000000000606482015260840161088b565b6109dd838361211f565b505050565b60008181526101f660209081526040808320805482518185028101850190935280835260609493849084015b82821015610a56576000848152602090819020604080518082019091526002850290910180546001600160a01b03168252600190810154828401529083529092019101610a0e565b5050505090506000815167ffffffffffffffff811115610a8657634e487b7160e01b600052604160045260246000fd5b604051908082528060200260200182016040528015610aaf578160200160208202803683370190505b50905060005b8251811015610b2757828181518110610ade57634e487b7160e01b600052603260045260246000fd5b602002602001015160200151828281518110610b0a57634e487b7160e01b600052603260045260246000fd5b602090810291909101015280610b1f81614571565b915050610ab5565b509392505050565b610b3a335b8261218d565b610bac5760405162461bcd60e51b815260206004820152603160248201527f4552433732313a207472616e736665722063616c6c6572206973206e6f74206f60448201527f776e6572206e6f7220617070726f766564000000000000000000000000000000606482015260840161088b565b6109dd838383612284565b6101f9546001600160a01b0316610c365760405162461bcd60e51b815260206004820152602760248201527f47686f73746d61726b6574206d696e74696e672046656520416464726573732060448201527f6e6f742073657400000000000000000000000000000000000000000000000000606482015260840161088b565b6101f75415610c4757610c4761245c565b6109dd838383611cb9565b610c5c8282612578565b60008281526097602052604090206109dd9082612615565b6000610c7f83611541565b8210610cf35760405162461bcd60e51b815260206004820152602b60248201527f455243373231456e756d657261626c653a206f776e657220696e646578206f7560448201527f74206f6620626f756e6473000000000000000000000000000000000000000000606482015260840161088b565b506001600160a01b038216600090815260fb602090815260408083208484529091529020545b92915050565b610d29828261262a565b60008281526097602052604090206109dd90826126b2565b610d6b7f9f2df0fed2c77648de5860a4cc508cd0818c85b8b8a1ab4ceeef8d981c8956a63361059d565b610ddd5760405162461bcd60e51b815260206004820152603660248201527f7570646174696e672066656520726563657069656e7473206973206e6f74206160448201527f6c6c6f7765642062792074686973206163636f756e7400000000000000000000606482015260840161088b565b60008381526101f66020526040812054905b81811015610ec55760008581526101f66020526040902080546001600160a01b038616919083908110610e3257634e487b7160e01b600052603260045260246000fd5b60009182526020909120600290910201546001600160a01b03161415610eb35760008581526101f660205260409020805484919083908110610e8457634e487b7160e01b600052603260045260246000fd5b6000918252602090912060029091020180546001600160a01b0319166001600160a01b03929092169190911790555b80610ebd81614571565b915050610def565b5050505050565b6101f56020528160005260406000208181548110610ee957600080fd5b906000526020600020906002020160009150915050806000018054610f0d90614536565b80601f0160208091040260200160405190810160405280929190818152602001828054610f3990614536565b8015610f865780601f10610f5b57610100808354040283529160200191610f86565b820191906000526020600020905b815481529060010190602001808311610f6957829003601f168201915b505050505090806001018054610f9b90614536565b80601f0160208091040260200160405190810160405280929190818152602001828054610fc790614536565b80156110145780601f10610fe957610100808354040283529160200191611014565b820191906000526020600020905b815481529060010190602001808311610ff757829003601f168201915b5050505050905082565b6110487f65d7a28e3265b37a6474929f336521b332c1681b933f6cb9f3376673440d862a3361059d565b6110bc576040805162461bcd60e51b81526020600482015260248101919091527f4552433732315072657365744d696e7465725061757365724175746f49643a2060448201527f6d75737420686176652070617573657220726f6c6520746f20756e7061757365606482015260840161088b565b6110c46126c7565b565b6109dd83838360405180602001604052806000815250611869565b6110ea33610b34565b61115c5760405162461bcd60e51b815260206004820152603060248201527f4552433732314275726e61626c653a2063616c6c6572206973206e6f74206f7760448201527f6e6572206e6f7220617070726f76656400000000000000000000000000000000606482015260840161088b565b61116581612765565b50565b60606101f56000838152602001908152602001600020805480602002602001604051908101604052809291908181526020016000905b828210156112f457838290600052602060002090600202016040518060400160405290816000820180546111d190614536565b80601f01602080910402602001604051908101604052809291908181526020018280546111fd90614536565b801561124a5780601f1061121f5761010080835404028352916020019161124a565b820191906000526020600020905b81548152906001019060200180831161122d57829003601f168201915b5050505050815260200160018201805461126390614536565b80601f016020809104026020016040519081016040528092919081815260200182805461128f90614536565b80156112dc5780601f106112b1576101008083540402835291602001916112dc565b820191906000526020600020905b8154815290600101906020018083116112bf57829003601f168201915b5050505050815250508152602001906001019061119e565b505050509050919050565b600061130a60fd5490565b821061137e5760405162461bcd60e51b815260206004820152602c60248201527f455243373231456e756d657261626c653a20676c6f62616c20696e646578206f60448201527f7574206f6620626f756e64730000000000000000000000000000000000000000606482015260840161088b565b60fd828154811061139f57634e487b7160e01b600052603260045260246000fd5b90600052602060002001549050919050565b6101f660205281600052604060002081815481106113ce57600080fd5b6000918252602090912060029091020180546001909101546001600160a01b039091169250905082565b600081815260cb60205260408120546001600160a01b03168061077c5760405162461bcd60e51b815260206004820152602960248201527f4552433732313a206f776e657220717565727920666f72206e6f6e657869737460448201527f656e7420746f6b656e0000000000000000000000000000000000000000000000606482015260840161088b565b6114ad7f9f2df0fed2c77648de5860a4cc508cd0818c85b8b8a1ab4ceeef8d981c8956a63361059d565b61151f5760405162461bcd60e51b815260206004820152603d60248201527f4552433732315072657365744d696e7465725061757365724175746f49643a2060448201527f6d7573742068617665206d696e74657220726f6c6520746f206d696e74000000606482015260840161088b565b6115328161152d6101c35490565b61280c565b6111656101c380546001019055565b60006001600160a01b0382166115bf5760405162461bcd60e51b815260206004820152602a60248201527f4552433732313a2062616c616e636520717565727920666f7220746865207a6560448201527f726f206164647265737300000000000000000000000000000000000000000000606482015260840161088b565b506001600160a01b0316600090815260cc602052604090205490565b60006115e76101c35490565b905090565b6116167f65d7a28e3265b37a6474929f336521b332c1681b933f6cb9f3376673440d862a3361059d565b6116885760405162461bcd60e51b815260206004820152603e60248201527f4552433732315072657365744d696e7465725061757365724175746f49643a2060448201527f6d75737420686176652070617573657220726f6c6520746f2070617573650000606482015260840161088b565b6110c461295a565b60008281526097602052604081206116a890836129e4565b9392505050565b606060ca805461079390614536565b6001600160a01b0382163314156117175760405162461bcd60e51b815260206004820152601960248201527f4552433732313a20617070726f766520746f2063616c6c657200000000000000604482015260640161088b565b33600081815260ce602090815260408083206001600160a01b0387168085529252909120805460ff1916841515179055906001600160a01b03167f17307eab39ab6107e8899845ad3d59bd9653f200f220920489ca2b5937696c3183604051611784911515815260200190565b60405180910390a35050565b600054610100900460ff16806117a9575060005460ff16155b61180c5760405162461bcd60e51b815260206004820152602e60248201527f496e697469616c697a61626c653a20636f6e747261637420697320616c72656160448201526d191e481a5b9a5d1a585b1a5e995960921b606482015260840161088b565b600054610100900460ff1615801561182e576000805461ffff19166101011790555b61183884846129f0565b611843848484612acc565b6101f9805460ff60a01b191690558015611863576000805461ff00191690555b50505050565b611873338361218d565b6118e55760405162461bcd60e51b815260206004820152603160248201527f4552433732313a207472616e736665722063616c6c6572206973206e6f74206f60448201527f776e6572206e6f7220617070726f766564000000000000000000000000000000606482015260840161088b565b61186384848484612bf6565b60008181526101f660209081526040808320805482518185028101850190935280835260609493849084015b82821015611965576000848152602090819020604080518082019091526002850290910180546001600160a01b0316825260019081015482840152908352909201910161191d565b5050505090506000815167ffffffffffffffff81111561199557634e487b7160e01b600052604160045260246000fd5b6040519080825280602002602001820160405280156119be578160200160208202803683370190505b50905060005b8251811015610b27578281815181106119ed57634e487b7160e01b600052603260045260246000fd5b602002602001015160000151828281518110611a1957634e487b7160e01b600052603260045260246000fd5b6001600160a01b039092166020928302919091019091015280611a3b81614571565b9150506119c4565b611a4e60003361059d565b611ac05760405162461bcd60e51b815260206004820152603660248201527f43616c6c6572206d75737420686176652061646d696e20726f6c6520746f207360448201527f6574206d696e74696e67206665652070657263656e7400000000000000000000606482015260840161088b565b6101f78190556040518181527f7bc6903b724da310ba4dbf15a52e7ae8597dcbe9763ff4d88e2b197a648b4a31906020015b60405180910390a150565b600081815260cb60205260409020546060906001600160a01b0316611b8a5760405162461bcd60e51b815260206004820152602f60248201527f4552433732314d657461646174613a2055524920717565727920666f72206e6f60448201527f6e6578697374656e7420746f6b656e0000000000000000000000000000000000606482015260840161088b565b6000611b94612c7f565b90506000815111611bb457604051806020016040528060008152506116a8565b80611bbe84612c8f565b604051602001611bcf9291906142b2565b6040516020818303038152906040529392505050565b600081815260976020526040812061077c90612dde565b610d298282612de8565b611c1160003361059d565b611c835760405162461bcd60e51b815260206004820152603660248201527f43616c6c6572206d75737420686176652061646d696e20726f6c6520746f207360448201527f6574206d696e74696e67206665652070657263656e7400000000000000000000606482015260840161088b565b6101f88190556040518181527fe28e57f6cdaccbb98c150b646656c0178b4b67253ae73deaba3b9c76525b987e90602001611af2565b611cc283611483565b60006001611cce6115db565b611cd891906144f3565b90506000835167ffffffffffffffff811115611d0457634e487b7160e01b600052604160045260246000fd5b604051908082528060200260200182016040528015611d2d578160200160208202803683370190505b5090506000845167ffffffffffffffff811115611d5a57634e487b7160e01b600052604160045260246000fd5b604051908082528060200260200182016040528015611d83578160200160208202803683370190505b50855190915015611dd457611d988386612e75565b7f99aba1d63749cfd5ad1afda7c4663840924d54eb5f005bbbeadedc6ec13674b2838383604051611dcb939291906143d1565b60405180910390a15b835115611de557611de5838561308f565b505050505050565b611df860003361059d565b611e6a5760405162461bcd60e51b815260206004820152603660248201527f43616c6c6572206d75737420686176652061646d696e20726f6c6520746f207360448201527f6574206d696e74696e6720666565206164647265737300000000000000000000606482015260840161088b565b6101f980546001600160a01b0319166001600160a01b0383169081179091556040519081527f42e58c2251766d60a378c8984cb15020e19218cae37fa9e7556ce617200f685190602001611af2565b611ee37f9f2df0fed2c77648de5860a4cc508cd0818c85b8b8a1ab4ceeef8d981c8956a63361059d565b611f555760405162461bcd60e51b815260206004820152603160248201527f7570646174696e67206665652076616c7565206973206e6f7420616c6c6f776560448201527f642062792074686973206163636f756e74000000000000000000000000000000606482015260840161088b565b60008111611fa55760405162461bcd60e51b815260206004820181905260248201527f6e6577204665652076616c75652073686f756c6420626520706f736974697665604482015260640161088b565b60008381526101f66020908152604080832080548251818502810185019093528083529192909190849084015b8282101561201a576000848152602090819020604080518082019091526002850290910180546001600160a01b03168252600190810154828401529083529092019101611fd2565b50505050905060005b8151811015610ec55760008581526101f66020526040902080546001600160a01b03861691908390811061206757634e487b7160e01b600052603260045260246000fd5b60009182526020909120600290910201546001600160a01b031614156120cf5760008581526101f6602052604090208054849190839081106120b957634e487b7160e01b600052603260045260246000fd5b9060005260206000209060020201600101819055505b806120d981614571565b915050612023565b60006001600160e01b031982167f780e9d6300000000000000000000000000000000000000000000000000000000148061077c575061077c82613322565b600081815260cd6020526040902080546001600160a01b0319166001600160a01b0384169081179091558190612154826113f8565b6001600160a01b03167f8c5be1e5ebec7d5bd14f71427d1e84f3dd0314c0f7b2291e5b200ac8c7c3b92560405160405180910390a45050565b600081815260cb60205260408120546001600160a01b03166122065760405162461bcd60e51b815260206004820152602c60248201527f4552433732313a206f70657261746f7220717565727920666f72206e6f6e657860448201526b34b9ba32b73a103a37b5b2b760a11b606482015260840161088b565b6000612211836113f8565b9050806001600160a01b0316846001600160a01b0316148061224c5750836001600160a01b031661224184610816565b6001600160a01b0316145b8061227c57506001600160a01b03808216600090815260ce602090815260408083209388168352929052205460ff165b949350505050565b826001600160a01b0316612297826113f8565b6001600160a01b0316146123135760405162461bcd60e51b815260206004820152602960248201527f4552433732313a207472616e73666572206f6620746f6b656e2074686174206960448201527f73206e6f74206f776e0000000000000000000000000000000000000000000000606482015260840161088b565b6001600160a01b03821661238e5760405162461bcd60e51b8152602060048201526024808201527f4552433732313a207472616e7366657220746f20746865207a65726f2061646460448201527f7265737300000000000000000000000000000000000000000000000000000000606482015260840161088b565b612399838383613394565b6123a460008261211f565b6001600160a01b038316600090815260cc602052604081208054600192906123cd9084906144f3565b90915550506001600160a01b038216600090815260cc602052604081208054600192906123fb9084906144a8565b9091555050600081815260cb602052604080822080546001600160a01b0319166001600160a01b0386811691821790925591518493918716917fddf252ad1be2c89b69c2b068fc378daa952ba7f163c4a11628f55a4df523b3ef91a4505050565b6101f95474010000000000000000000000000000000000000000900460ff16156124c85760405162461bcd60e51b815260206004820152601360248201527f5265656e7472616e742064657465637465642100000000000000000000000000604482015260640161088b565b6101f9805460ff60a01b19167401000000000000000000000000000000000000000017905560006124f761339f565b6101f9546040519192506001600160a01b03169082156108fc029083906000818181858888f19350505050158015612533573d6000803e3d6000fd5b506101f9805460ff60a01b1916905560408051338152602081018390527ff867832f09d3df16244ef05b595ad6197c4fc2da636495ff70035f1acdf2ba0a9101611af2565b600082815260656020526040902060010154612595905b3361059d565b6126075760405162461bcd60e51b815260206004820152602f60248201527f416363657373436f6e74726f6c3a2073656e646572206d75737420626520616e60448201527f2061646d696e20746f206772616e740000000000000000000000000000000000606482015260840161088b565b61261182826133b3565b5050565b60006116a8836001600160a01b038416613455565b6001600160a01b03811633146126a85760405162461bcd60e51b815260206004820152602f60248201527f416363657373436f6e74726f6c3a2063616e206f6e6c792072656e6f756e636560448201527f20726f6c657320666f722073656c660000000000000000000000000000000000606482015260840161088b565b61261182826134a4565b60006116a8836001600160a01b038416613527565b61015f5460ff1661271a5760405162461bcd60e51b815260206004820152601460248201527f5061757361626c653a206e6f7420706175736564000000000000000000000000604482015260640161088b565b61015f805460ff191690557f5db9ee0a495bf2e6ff9c91a7834c1ba4fdd244a5e8aa4e537bd38aeae4b073aa335b6040516001600160a01b03909116815260200160405180910390a1565b6000612770826113f8565b905061277e81600084613394565b61278960008361211f565b6001600160a01b038116600090815260cc602052604081208054600192906127b29084906144f3565b9091555050600082815260cb602052604080822080546001600160a01b0319169055518391906001600160a01b038416907fddf252ad1be2c89b69c2b068fc378daa952ba7f163c4a11628f55a4df523b3ef908390a45050565b6001600160a01b0382166128625760405162461bcd60e51b815260206004820181905260248201527f4552433732313a206d696e7420746f20746865207a65726f2061646472657373604482015260640161088b565b600081815260cb60205260409020546001600160a01b0316156128c75760405162461bcd60e51b815260206004820152601c60248201527f4552433732313a20746f6b656e20616c7265616479206d696e74656400000000604482015260640161088b565b6128d360008383613394565b6001600160a01b038216600090815260cc602052604081208054600192906128fc9084906144a8565b9091555050600081815260cb602052604080822080546001600160a01b0319166001600160a01b03861690811790915590518392907fddf252ad1be2c89b69c2b068fc378daa952ba7f163c4a11628f55a4df523b3ef908290a45050565b61015f5460ff16156129ae5760405162461bcd60e51b815260206004820152601060248201527f5061757361626c653a2070617573656400000000000000000000000000000000604482015260640161088b565b61015f805460ff191660011790557f62e78cea01bee320cd4e420270b5ea74000d11b0c9f74754ebdbfc544b05a2586127483390565b60006116a88383613644565b600054610100900460ff1680612a09575060005460ff16155b612a6c5760405162461bcd60e51b815260206004820152602e60248201527f496e697469616c697a61626c653a20636f6e747261637420697320616c72656160448201526d191e481a5b9a5d1a585b1a5e995960921b606482015260840161088b565b600054610100900460ff16158015612a8e576000805461ffff19166101011790555b8251612aa19060c9906020860190613c01565b508151612ab59060ca906020850190613c01565b5080156109dd576000805461ff0019169055505050565b600054610100900460ff1680612ae5575060005460ff16155b612b485760405162461bcd60e51b815260206004820152602e60248201527f496e697469616c697a61626c653a20636f6e747261637420697320616c72656160448201526d191e481a5b9a5d1a585b1a5e995960921b606482015260840161088b565b600054610100900460ff16158015612b6a576000805461ffff19166101011790555b8151612b7e906101c4906020850190613c01565b50612b8b6000335b6136f3565b612bb57f9f2df0fed2c77648de5860a4cc508cd0818c85b8b8a1ab4ceeef8d981c8956a633612b86565b612bdf7f65d7a28e3265b37a6474929f336521b332c1681b933f6cb9f3376673440d862a33612b86565b8015611863576000805461ff001916905550505050565b612c01848484612284565b612c0d848484846136fd565b6118635760405162461bcd60e51b815260206004820152603260248201527f4552433732313a207472616e7366657220746f206e6f6e20455243373231526560448201527f63656976657220696d706c656d656e7465720000000000000000000000000000606482015260840161088b565b60606101c4805461079390614536565b606081612cd0575060408051808201909152600181527f3000000000000000000000000000000000000000000000000000000000000000602082015261077f565b8160005b8115612cfa5780612ce481614571565b9150612cf39050600a836144c0565b9150612cd4565b60008167ffffffffffffffff811115612d2357634e487b7160e01b600052604160045260246000fd5b6040519080825280601f01601f191660200182016040528015612d4d576020820181803683370190505b5090505b841561227c57612d626001836144f3565b9150612d6f600a8661458c565b612d7a9060306144a8565b60f81b818381518110612d9d57634e487b7160e01b600052603260045260246000fd5b60200101907effffffffffffffffffffffffffffffffffffffffffffffffffffffffffffff1916908160001a905350612dd7600a866144c0565b9450612d51565b600061077c825490565b600082815260656020526040902060010154612e039061258f565b6126a85760405162461bcd60e51b815260206004820152603060248201527f416363657373436f6e74726f6c3a2073656e646572206d75737420626520616e60448201527f2061646d696e20746f207265766f6b6500000000000000000000000000000000606482015260840161088b565b600082815260cb60205260409020546001600160a01b0316612eee5760405162461bcd60e51b815260206004820152602c60248201527f4552433732313a20617070726f76656420717565727920666f72206e6f6e657860448201526b34b9ba32b73a103a37b5b2b760a11b606482015260840161088b565b60005b81518110156109dd5760006001600160a01b0316828281518110612f2557634e487b7160e01b600052603260045260246000fd5b6020026020010151600001516001600160a01b03161415612f885760405162461bcd60e51b815260206004820152601b60248201527f526563697069656e742073686f756c642062652070726573656e740000000000604482015260640161088b565b6000828281518110612faa57634e487b7160e01b600052603260045260246000fd5b602002602001015160200151116130035760405162461bcd60e51b815260206004820152601c60248201527f4665652076616c75652073686f756c6420626520706f73697469766500000000604482015260640161088b565b60008381526101f660205260409020825183908390811061303457634e487b7160e01b600052603260045260246000fd5b602090810291909101810151825460018082018555600094855293839020825160029092020180546001600160a01b0319166001600160a01b039092169190911781559101519101558061308781614571565b915050612ef1565b60005b81518110156109dd576040805160008152602081019182905251902082518390839081106130d057634e487b7160e01b600052603260045260246000fd5b6020026020010151600001516040516020016130ec9190614296565b6040516020818303038152906040528051906020012014156131765760405162461bcd60e51b815260206004820152602160248201527f417474726962757465206b65792073686f756c64206e6f7420626520656d707460448201527f7900000000000000000000000000000000000000000000000000000000000000606482015260840161088b565b6040805160008152602081019182905251902082518390839081106131ab57634e487b7160e01b600052603260045260246000fd5b6020026020010151602001516040516020016131c79190614296565b6040516020818303038152906040528051906020012014156132515760405162461bcd60e51b815260206004820152602360248201527f4174747269627574652076616c75652073686f756c64206e6f7420626520656d60448201527f7074790000000000000000000000000000000000000000000000000000000000606482015260840161088b565b60008381526101f560205260409020825183908390811061328257634e487b7160e01b600052603260045260246000fd5b6020908102919091018101518254600181018455600093845292829020815180519294600202909101926132bb92849290910190613c01565b5060208281015180516132d49260018501920190613c01565b5050507fa5800424c9d59fec069be83c374ba1fad8ad7472fcb6fb6648cbf62a557ae4e7838360405161330892919061443a565b60405180910390a18061331a81614571565b915050613092565b60006001600160e01b031982167f80ac58cd00000000000000000000000000000000000000000000000000000000148061338557506001600160e01b031982167f5b5e139f00000000000000000000000000000000000000000000000000000000145b8061077c575061077c82613860565b6109dd83838361389e565b60006101f7546101f8546115e791906144d4565b60008281526065602090815260408083206001600160a01b038516845290915290205460ff166126115760008281526065602090815260408083206001600160a01b03851684529091529020805460ff191660011790556134113390565b6001600160a01b0316816001600160a01b0316837f2f8788117e7eff1d82e926ec794901d17c78024a50270940304540a733656f0d60405160405180910390a45050565b600081815260018301602052604081205461349c57508154600181810184556000848152602080822090930184905584548482528286019093526040902091909155610d19565b506000610d19565b60008281526065602090815260408083206001600160a01b038516845290915290205460ff16156126115760008281526065602090815260408083206001600160a01b0385168085529252808320805460ff1916905551339285917ff6391f5c32d9c69d2a47ea670b442974b53935d1edc7fd64eb21e047a839171b9190a45050565b6000818152600183016020526040812054801561363a57600061354b6001836144f3565b855490915060009061355f906001906144f3565b9050600086600001828154811061358657634e487b7160e01b600052603260045260246000fd5b90600052602060002001549050808760000184815481106135b757634e487b7160e01b600052603260045260246000fd5b6000918252602090912001556135ce8360016144a8565b600082815260018901602052604090205586548790806135fe57634e487b7160e01b600052603160045260246000fd5b60019003818190600052602060002001600090559055866001016000878152602001908152602001600020600090556001945050505050610d19565b6000915050610d19565b815460009082106136bd5760405162461bcd60e51b815260206004820152602260248201527f456e756d657261626c655365743a20696e646578206f7574206f6620626f756e60448201527f6473000000000000000000000000000000000000000000000000000000000000606482015260840161088b565b8260000182815481106136e057634e487b7160e01b600052603260045260246000fd5b9060005260206000200154905092915050565b610c5c8282612607565b60006001600160a01b0384163b1561385557604051630a85bd0160e11b81526001600160a01b0385169063150b7a02906137419033908990889088906004016142e1565b602060405180830381600087803b15801561375b57600080fd5b505af192505050801561378b575060408051601f3d908101601f19168201909252613788918101906140b9565b60015b61383b573d8080156137b9576040519150601f19603f3d011682016040523d82523d6000602084013e6137be565b606091505b5080516138335760405162461bcd60e51b815260206004820152603260248201527f4552433732313a207472616e7366657220746f206e6f6e20455243373231526560448201527f63656976657220696d706c656d656e7465720000000000000000000000000000606482015260840161088b565b805181602001fd5b6001600160e01b031916630a85bd0160e11b14905061227c565b506001949350505050565b60006001600160e01b031982167f5a05180f00000000000000000000000000000000000000000000000000000000148061077c575061077c82613923565b6138a983838361398a565b61015f5460ff16156109dd5760405162461bcd60e51b815260206004820152602b60248201527f4552433732315061757361626c653a20746f6b656e207472616e73666572207760448201527f68696c6520706175736564000000000000000000000000000000000000000000606482015260840161088b565b60006001600160e01b031982167f7965db0b00000000000000000000000000000000000000000000000000000000148061077c57507f01ffc9a7000000000000000000000000000000000000000000000000000000006001600160e01b031983161461077c565b6001600160a01b0383166139e5576139e08160fd8054600083815260fe60205260408120829055600182018355919091527f9346ac6dd7de6b96975fec380d4d994c4c12e6a8897544f22915316cc6cca2800155565b613a08565b816001600160a01b0316836001600160a01b031614613a0857613a088382613a47565b6001600160a01b038216613a2457613a1f81613ae4565b6109dd565b826001600160a01b0316826001600160a01b0316146109dd576109dd8282613bbd565b60006001613a5484611541565b613a5e91906144f3565b600083815260fc6020526040902054909150808214613ab1576001600160a01b038416600090815260fb60209081526040808320858452825280832054848452818420819055835260fc90915290208190555b50600091825260fc602090815260408084208490556001600160a01b03909416835260fb81528383209183525290812055565b60fd54600090613af6906001906144f3565b600083815260fe602052604081205460fd8054939450909284908110613b2c57634e487b7160e01b600052603260045260246000fd5b906000526020600020015490508060fd8381548110613b5b57634e487b7160e01b600052603260045260246000fd5b600091825260208083209091019290925582815260fe909152604080822084905585825281205560fd805480613ba157634e487b7160e01b600052603160045260246000fd5b6001900381819060005260206000200160009055905550505050565b6000613bc883611541565b6001600160a01b03909316600090815260fb60209081526040808320868452825280832085905593825260fc9052919091209190915550565b828054613c0d90614536565b90600052602060002090601f016020900481019282613c2f5760008555613c75565b82601f10613c4857805160ff1916838001178555613c75565b82800160010185558215613c75579182015b82811115613c75578251825591602001919060010190613c5a565b50613c81929150613c85565b5090565b5b80821115613c815760008155600101613c86565b600067ffffffffffffffff831115613cb457613cb46145cc565b613cc7601f8401601f1916602001614453565b9050828152838383011115613cdb57600080fd5b828260208301376000602084830101529392505050565b600082601f830112613d02578081fd5b81356020613d17613d1283614484565b614453565b82815281810190858301855b85811015613dae5781358801604080601f19838d03011215613d43578889fd5b613d4c81614453565b8783013567ffffffffffffffff80821115613d65578b8cfd5b613d738e8b84880101613dbb565b8352928401359280841115613d86578b8cfd5b5050613d968c8984860101613dbb565b81890152865250509284019290840190600101613d23565b5090979650505050505050565b600082601f830112613dcb578081fd5b6116a883833560208501613c9a565b600060208284031215613deb578081fd5b81356116a8816145e2565b60008060408385031215613e08578081fd5b8235613e13816145e2565b91506020830135613e23816145e2565b809150509250929050565b600080600060608486031215613e42578081fd5b8335613e4d816145e2565b92506020840135613e5d816145e2565b929592945050506040919091013590565b60008060008060808587031215613e83578081fd5b8435613e8e816145e2565b93506020850135613e9e816145e2565b925060408501359150606085013567ffffffffffffffff811115613ec0578182fd5b8501601f81018713613ed0578182fd5b613edf87823560208401613c9a565b91505092959194509250565b600080600060608486031215613eff578283fd5b8335613f0a816145e2565b925060208481013567ffffffffffffffff80821115613f27578485fd5b818701915087601f830112613f3a578485fd5b8135613f48613d1282614484565b8082825285820191508585018b878560061b8801011115613f67578889fd5b8895505b83861015613fb457604080828e031215613f8357898afd5b613f8c81614453565b8235613f97816145e2565b815282890135898201528452600196909601959287019201613f6b565b50965050506040870135925080831115613fcc578384fd5b5050613fda86828701613cf2565b9150509250925092565b60008060408385031215613ff6578182fd5b8235614001816145e2565b915060208301358015158114613e23578182fd5b60008060408385031215614027578182fd5b8235614032816145e2565b946020939093013593505050565b600060208284031215614051578081fd5b5035919050565b6000806040838503121561406a578182fd5b823591506020830135613e23816145e2565b6000806040838503121561408e578182fd5b50508035926020909101359150565b6000602082840312156140ae578081fd5b81356116a8816145f7565b6000602082840312156140ca578081fd5b81516116a8816145f7565b6000806000606084860312156140e9578081fd5b833567ffffffffffffffff80821115614100578283fd5b61410c87838801613dbb565b94506020860135915080821115614121578283fd5b61412d87838801613dbb565b93506040860135915080821115614142578283fd5b50613fda86828701613dbb565b600080600060608486031215614163578081fd5b833592506020840135614175816145e2565b91506040840135614185816145e2565b809150509250925092565b6000806000606084860312156141a4578081fd5b833592506020840135613e5d816145e2565b600081518084526020808501808196508360051b81019150828601855b858110156142235782840389528151604081518187526141f58288018261426a565b9150508682015191508581038787015261420f818361426a565b9a87019a95505050908401906001016141d3565b5091979650505050505050565b6000815180845260208085019450808401835b8381101561425f57815187529582019590820190600101614243565b509495945050505050565b6000815180845261428281602086016020860161450a565b601f01601f19169290920160200192915050565b600082516142a881846020870161450a565b9190910192915050565b600083516142c481846020880161450a565b8351908301906142d881836020880161450a565b01949350505050565b60006001600160a01b03808716835280861660208401525083604083015260806060830152614313608083018461426a565b9695505050505050565b6020808252825182820181905260009190848201906040850190845b8181101561435e5783516001600160a01b031683529284019291840191600101614339565b50909695505050505050565b6000602082526116a860208301846141b6565b6000602082526116a86020830184614230565b6000602082526116a8602083018461426a565b6000604082526143b6604083018561426a565b82810360208401526143c8818561426a565b95945050505050565b60006060820185835260206060818501528186518084526080860191508288019350845b8181101561441a5784516001600160a01b0316835293830193918301916001016143f5565b5050848103604086015261442e8187614230565b98975050505050505050565b60008382526040602083015261227c60408301846141b6565b604051601f8201601f1916810167ffffffffffffffff8111828210171561447c5761447c6145cc565b604052919050565b600067ffffffffffffffff82111561449e5761449e6145cc565b5060051b60200190565b600082198211156144bb576144bb6145a0565b500190565b6000826144cf576144cf6145b6565b500490565b60008160001904831182151516156144ee576144ee6145a0565b500290565b600082821015614505576145056145a0565b500390565b60005b8381101561452557818101518382015260200161450d565b838111156118635750506000910152565b600181811c9082168061454a57607f821691505b6020821081141561456b57634e487b7160e01b600052602260045260246000fd5b50919050565b6000600019821415614585576145856145a0565b5060010190565b60008261459b5761459b6145b6565b500690565b634e487b7160e01b600052601160045260246000fd5b634e487b7160e01b600052601260045260246000fd5b634e487b7160e01b600052604160045260246000fd5b6001600160a01b038116811461116557600080fd5b6001600160e01b03198116811461116557600080fdfea2646970667358221220be70b30e8aeb504ed9b0749e54b45e9dd950c16c8a37ab6c5c9cc7ae418bd16f64736f6c63430008030033",
  "immutableReferences": {},
  "source": "// SPDX-License-Identifier: MIT\npragma solidity ^0.8.3;\n\nimport \"@openzeppelin/contracts-upgradeable/token/ERC721/presets/ERC721PresetMinterPauserAutoIdUpgradeable.sol\";\n\n/**\n * @dev ERC721 token with minting, burning, pause, secondary sales royalitiy functions.\n *\n */\ncontract GhostmarketNFT is\n    Initializable,\n    ERC721PresetMinterPauserAutoIdUpgradeable\n{\n    // struct for secondary sales fees\n    struct Fee {\n        address payable recipient;\n        uint256 value;\n    }\n\n    //nft attributes struct\n    struct AttributesStruct {\n        string key;\n        string value;\n    }\n\n    // tokenId => attributes array\n    mapping(uint256 => AttributesStruct[]) public attribute;\n\n    // tokenId => fees array\n    mapping(uint256 => Fee[]) public fees;\n\n    event SecondarySaleFees(\n        uint256 tokenId,\n        address[] recipients,\n        uint256[] bps\n    );\n\n    event AttributesSet(uint256 tokenId, AttributesStruct[] attributes);\n    event GhostmarketFeeAddressChanged(address newValue);\n    event GhostmarketFeeMultiplierChanged(uint256 newValue);\n    event GhostmarketMintFeeChanged(uint256 newValue);\n    event GhostmarketFeePaid(address sender, uint256 value);\n\n    // fee multiplier\n    uint256 public ghostmarketFeeMultiplier;\n\n    // minting fee\n    uint256 public ghostmarketMintingFee;\n\n    //address where the transfer fees will be sent\n    address payable public ghostmarketFeeAddress;\n\n    //Reentrancy\n    bool locked;\n\n    function initialize(\n        string memory name,\n        string memory symbol,\n        string memory uri\n    ) public override initializer {\n        __ERC721_init_unchained(name, symbol);\n        __ERC721PresetMinterPauserAutoId_init_unchained(name, symbol, uri);\n        locked = false;\n    }\n\n    /**\n     * @dev saves the nft tokens custom attributes to contract storage\n     * emits AttributesSet event\n     */\n    function setAttributes(\n        uint256 _tokenId,\n        AttributesStruct[] memory _attributes\n    ) internal {\n        for (uint256 i = 0; i < _attributes.length; i++) {\n            require(\n                keccak256(abi.encodePacked(_attributes[i].key)) !=\n                    keccak256(abi.encodePacked(\"\")),\n                \"Attribute key should not be empty\"\n            );\n            require(\n                keccak256(abi.encodePacked(_attributes[i].value)) !=\n                    keccak256(abi.encodePacked(\"\")),\n                \"Attribute value should not be empty\"\n            );\n            attribute[_tokenId].push(_attributes[i]);\n            emit AttributesSet(_tokenId, _attributes);\n        }\n    }\n\n    /**\n     * @dev get the nft token attributes with the tokenId\n     */\n    function getAttributes(uint256 _tokenId)\n        public\n        view\n        returns (AttributesStruct[] memory)\n    {\n        return attribute[_tokenId];\n    }\n\n    /**\n     * @dev get the \"secondary sales\"/royalities fee recepients with the tokenId\n     */\n    function getFeeRecipients(uint256 _tokenId)\n        public\n        view\n        returns (address payable[] memory)\n    {\n        Fee[] memory _fees = fees[_tokenId];\n        address payable[] memory result = new address payable[](_fees.length);\n        for (uint256 i = 0; i < _fees.length; i++) {\n            result[i] = _fees[i].recipient;\n        }\n        return result;\n    }\n\n    /**\n     * @dev get the \"secondary sales\"/royalities fee basis points 10000 = 100% with the tokenId\n     */\n    function getFeeBps(uint256 _tokenId)\n        public\n        view\n        returns (uint256[] memory)\n    {\n        Fee[] memory _fees = fees[_tokenId];\n        uint256[] memory result = new uint256[](_fees.length);\n        for (uint256 i = 0; i < _fees.length; i++) {\n            result[i] = _fees[i].value;\n        }\n        return result;\n    }\n\n    /**\n     * @dev save the \"secondary sales\"/royalities fee for the nft\n     * fee basis points 10000 = 100%\n     */\n    function saveFees(uint256 _tokenId, Fee[] memory _fees) internal {\n        require(\n            _exists(_tokenId),\n            \"ERC721: approved query for nonexistent token\"\n        );\n        for (uint256 i = 0; i < _fees.length; i++) {\n            require(\n                _fees[i].recipient != address(0x0),\n                \"Recipient should be present\"\n            );\n            require(_fees[i].value > 0, \"Fee value should be positive\");\n            fees[_tokenId].push(_fees[i]);\n        }\n    }\n\n    /**\n     * @dev change the \"secondary sales\"/royalities fee value for a specific recipient address\n     */\n    function updateRecipientsFees(\n        uint256 _tokenId,\n        address _from,\n        uint256 _value\n    ) external {\n        require(\n            hasRole(MINTER_ROLE, _msgSender()),\n            \"updating fee value is not allowed by this account\"\n        );\n        require(_value > 0, \"new Fee value should be positive\");\n        Fee[] memory _fees = fees[_tokenId];\n        for (uint256 i = 0; i < _fees.length; i++) {\n            if (fees[_tokenId][i].recipient == _from) {\n                fees[_tokenId][i].value = _value;\n            }\n        }\n    }\n\n    /**\n     * @dev change the recepient address of the \"secondary sales\"/royalities fee\n     */\n    function updateFeeAccount(\n        uint256 _tokenId,\n        address _from,\n        address _to\n    ) external {\n        require(\n            hasRole(MINTER_ROLE, _msgSender()),\n            \"updating fee recepients is not allowed by this account\"\n        );\n        uint256 length = fees[_tokenId].length;\n        for (uint256 i = 0; i < length; i++) {\n            if (fees[_tokenId][i].recipient == _from) {\n                fees[_tokenId][i].recipient = payable(address(uint160(_to)));\n            }\n        }\n    }\n\n    /**\n     * @dev mint NFT and set fee\n     */\n    function mint(\n        address _to,\n        Fee[] memory _fees,\n        AttributesStruct[] memory _attributes\n    ) public {\n        mint(_to);\n        uint256 _tokenId = (getCurrentCounter() - 1);\n        address[] memory recipients = new address[](_fees.length);\n        uint256[] memory bps = new uint256[](_fees.length);\n        if (_fees.length > 0) {\n            saveFees(_tokenId, _fees);\n            emit SecondarySaleFees(_tokenId, recipients, bps);\n        }\n        if (_attributes.length > 0) {\n            setAttributes(_tokenId, _attributes);\n        }\n    }\n\n    function sendMintingFee() internal {\n        require(!locked, \"Reentrant detected!\");\n\n        locked = true;\n        uint256 feevalue = _calculateGhostmarketMintingFee();\n        //(bool success, bytes memory transactionBytes) = ghostmarketFeeAddress.call{value: feevalue}(\"\");\n        \n        //require(success, \"Transfer failed.\");\n        ghostmarketFeeAddress.transfer(feevalue);\n        locked = false;\n\n        emit GhostmarketFeePaid(msg.sender, feevalue);\n    }\n\n    function mintWithFee(\n        address _to,\n        Fee[] memory _fees,\n        AttributesStruct[] memory _attributes\n    ) external {\n        require(\n            ghostmarketFeeAddress != address(0),\n            \"Ghostmarket minting Fee Address not set\"\n        );\n        if (ghostmarketFeeMultiplier > 0) {\n            sendMintingFee();\n        }\n\n        mint(_to, _fees, _attributes);\n    }\n\n    /**\n     * @dev set the wallet address where fees will be collected\n     */\n    function setGhostmarketFeeAddress(address payable _ghostmarketFeeAddress)\n        public\n    {\n        require(\n            hasRole(DEFAULT_ADMIN_ROLE, _msgSender()),\n            \"Caller must have admin role to set minting fee address\"\n        );\n\n        ghostmarketFeeAddress = _ghostmarketFeeAddress;\n        emit GhostmarketFeeAddressChanged(ghostmarketFeeAddress);\n    }\n\n    /**\n     * @dev sets the transfer fee multiplier\n     */\n    function setGhostmarketFeeMultiplier(uint256 _ghostmarketFeeMultiplier)\n        public\n    {\n        require(\n            hasRole(DEFAULT_ADMIN_ROLE, _msgSender()),\n            \"Caller must have admin role to set minting fee percent\"\n        );\n        ghostmarketFeeMultiplier = _ghostmarketFeeMultiplier;\n        emit GhostmarketFeeMultiplierChanged(ghostmarketFeeMultiplier);\n    }\n\n    /**\n     * @dev sets the transfer fee multiplier\n     */\n    function setGhostmarketMintFee(uint256 _ghostmarketMintingFee) public {\n        require(\n            hasRole(DEFAULT_ADMIN_ROLE, _msgSender()),\n            \"Caller must have admin role to set minting fee percent\"\n        );\n        ghostmarketMintingFee = _ghostmarketMintingFee;\n        emit GhostmarketMintFeeChanged(ghostmarketMintingFee);\n    }\n\n    function _calculateGhostmarketMintingFee() internal view returns (uint256) {\n        return ghostmarketMintingFee * ghostmarketFeeMultiplier;\n    }\n}\n",
  "sourcePath": "/Users/selimerunkut/dev_freelance/GhostMarketContractBSC/contracts/GhostmarketNFT.sol",
  "compiler": {
    "name": "solc",
    "version": "0.8.3+commit.8d00100c.Emscripten.clang"
  },
  "schemaVersion": "3.3.4",
  "updatedAt": "2021-04-29T22:22:11.669Z",
  "devdoc": {
    "details": "ERC721 token with minting, burning, pause, secondary sales royalitiy functions.",
    "kind": "dev",
    "methods": {
      "approve(address,uint256)": {
        "details": "See {IERC721-approve}."
      },
      "balanceOf(address)": {
        "details": "See {IERC721-balanceOf}."
      },
      "burn(uint256)": {
        "details": "Burns `tokenId`. See {ERC721-_burn}. Requirements: - The caller must own `tokenId` or be an approved operator."
      },
      "getApproved(uint256)": {
        "details": "See {IERC721-getApproved}."
      },
      "getAttributes(uint256)": {
        "details": "get the nft token attributes with the tokenId"
      },
      "getFeeBps(uint256)": {
        "details": "get the \"secondary sales\"/royalities fee basis points 10000 = 100% with the tokenId"
      },
      "getFeeRecipients(uint256)": {
        "details": "get the \"secondary sales\"/royalities fee recepients with the tokenId"
      },
      "getRoleAdmin(bytes32)": {
        "details": "Returns the admin role that controls `role`. See {grantRole} and {revokeRole}. To change a role's admin, use {_setRoleAdmin}."
      },
      "getRoleMember(bytes32,uint256)": {
        "details": "Returns one of the accounts that have `role`. `index` must be a value between 0 and {getRoleMemberCount}, non-inclusive. Role bearers are not sorted in any particular way, and their ordering may change at any point. WARNING: When using {getRoleMember} and {getRoleMemberCount}, make sure you perform all queries on the same block. See the following https://forum.openzeppelin.com/t/iterating-over-elements-on-enumerableset-in-openzeppelin-contracts/2296[forum post] for more information."
      },
      "getRoleMemberCount(bytes32)": {
        "details": "Returns the number of accounts that have `role`. Can be used together with {getRoleMember} to enumerate all bearers of a role."
      },
      "grantRole(bytes32,address)": {
        "details": "Overload {grantRole} to track enumerable memberships"
      },
      "hasRole(bytes32,address)": {
        "details": "Returns `true` if `account` has been granted `role`."
      },
      "isApprovedForAll(address,address)": {
        "details": "See {IERC721-isApprovedForAll}."
      },
      "mint(address)": {
        "details": "Creates a new token for `to`. Its token ID will be automatically assigned (and available on the emitted {IERC721-Transfer} event), and the token URI autogenerated based on the base URI passed at construction. See {ERC721-_mint}. Requirements: - the caller must have the `MINTER_ROLE`."
      },
      "mint(address,(address,uint256)[],(string,string)[])": {
        "details": "mint NFT and set fee"
      },
      "name()": {
        "details": "See {IERC721Metadata-name}."
      },
      "ownerOf(uint256)": {
        "details": "See {IERC721-ownerOf}."
      },
      "pause()": {
        "details": "Pauses all token transfers. See {ERC721Pausable} and {Pausable-_pause}. Requirements: - the caller must have the `PAUSER_ROLE`."
      },
      "paused()": {
        "details": "Returns true if the contract is paused, and false otherwise."
      },
      "renounceRole(bytes32,address)": {
        "details": "Overload {renounceRole} to track enumerable memberships"
      },
      "revokeRole(bytes32,address)": {
        "details": "Overload {revokeRole} to track enumerable memberships"
      },
      "safeTransferFrom(address,address,uint256)": {
        "details": "See {IERC721-safeTransferFrom}."
      },
      "safeTransferFrom(address,address,uint256,bytes)": {
        "details": "See {IERC721-safeTransferFrom}."
      },
      "setApprovalForAll(address,bool)": {
        "details": "See {IERC721-setApprovalForAll}."
      },
      "setGhostmarketFeeAddress(address)": {
        "details": "set the wallet address where fees will be collected"
      },
      "setGhostmarketFeeMultiplier(uint256)": {
        "details": "sets the transfer fee multiplier"
      },
      "setGhostmarketMintFee(uint256)": {
        "details": "sets the transfer fee multiplier"
      },
      "supportsInterface(bytes4)": {
        "details": "See {IERC165-supportsInterface}."
      },
      "symbol()": {
        "details": "See {IERC721Metadata-symbol}."
      },
      "tokenByIndex(uint256)": {
        "details": "See {IERC721Enumerable-tokenByIndex}."
      },
      "tokenOfOwnerByIndex(address,uint256)": {
        "details": "See {IERC721Enumerable-tokenOfOwnerByIndex}."
      },
      "tokenURI(uint256)": {
        "details": "See {IERC721Metadata-tokenURI}."
      },
      "totalSupply()": {
        "details": "See {IERC721Enumerable-totalSupply}."
      },
      "transferFrom(address,address,uint256)": {
        "details": "See {IERC721-transferFrom}."
      },
      "unpause()": {
        "details": "Unpauses all token transfers. See {ERC721Pausable} and {Pausable-_unpause}. Requirements: - the caller must have the `PAUSER_ROLE`."
      },
      "updateFeeAccount(uint256,address,address)": {
        "details": "change the recepient address of the \"secondary sales\"/royalities fee"
      },
      "updateRecipientsFees(uint256,address,uint256)": {
        "details": "change the \"secondary sales\"/royalities fee value for a specific recipient address"
      }
    },
    "version": 1
  },
  "userdoc": {
    "kind": "user",
    "methods": {},
    "version": 1
  }
}