{
  "contractName": "GhostMarketERC1155",
  "abi": [
    {
      "anonymous": false,
      "inputs": [
        {
          "indexed": true,
          "internalType": "address",
          "name": "account",
          "type": "address"
        },
        {
          "indexed": true,
          "internalType": "address",
          "name": "operator",
          "type": "address"
        },
        {
          "indexed": false,
          "internalType": "bool",
          "name": "approved",
          "type": "bool"
        }
      ],
      "name": "ApprovalForAll",
      "type": "event"
    },
    {
      "anonymous": false,
      "inputs": [
        {
          "indexed": false,
          "internalType": "uint256",
          "name": "tokenId",
          "type": "uint256"
        },
        {
          "indexed": false,
          "internalType": "string",
          "name": "metadataJson",
          "type": "string"
        }
      ],
      "name": "AttributesSet",
      "type": "event"
    },
    {
      "anonymous": false,
      "inputs": [
        {
          "indexed": false,
          "internalType": "address",
          "name": "msgSender",
          "type": "address"
        },
        {
          "indexed": false,
          "internalType": "uint256",
          "name": "tokenId",
          "type": "uint256"
        },
        {
          "indexed": false,
          "internalType": "string",
          "name": "lockedContent",
          "type": "string"
        }
      ],
      "name": "LockedContentViewed",
      "type": "event"
    },
    {
      "anonymous": false,
      "inputs": [
        {
          "indexed": false,
          "internalType": "uint256",
          "name": "newValue",
          "type": "uint256"
        }
      ],
      "name": "MintFeesChanged",
      "type": "event"
    },
    {
      "anonymous": false,
      "inputs": [
        {
          "indexed": false,
          "internalType": "address",
          "name": "feeWithdrawer",
          "type": "address"
        },
        {
          "indexed": false,
          "internalType": "uint256",
          "name": "withdrawAmount",
          "type": "uint256"
        }
      ],
      "name": "MintFeesWithdrawn",
      "type": "event"
    },
    {
      "anonymous": false,
      "inputs": [
        {
          "indexed": false,
          "internalType": "address",
          "name": "toAddress",
          "type": "address"
        },
        {
          "indexed": false,
          "internalType": "uint256",
          "name": "tokenId",
          "type": "uint256"
        },
        {
          "indexed": false,
          "internalType": "string",
          "name": "tokenURI",
          "type": "string"
        },
        {
          "indexed": false,
          "internalType": "string",
          "name": "externalURI",
          "type": "string"
        },
        {
          "indexed": false,
          "internalType": "uint256",
          "name": "amount",
          "type": "uint256"
        },
        {
          "indexed": false,
          "internalType": "uint256",
          "name": "mintFees",
          "type": "uint256"
        }
      ],
      "name": "Minted",
      "type": "event"
    },
    {
      "anonymous": false,
      "inputs": [
        {
          "indexed": true,
          "internalType": "address",
          "name": "previousOwner",
          "type": "address"
        },
        {
          "indexed": true,
          "internalType": "address",
          "name": "newOwner",
          "type": "address"
        }
      ],
      "name": "OwnershipTransferred",
      "type": "event"
    },
    {
      "anonymous": false,
      "inputs": [
        {
          "indexed": false,
          "internalType": "address",
          "name": "account",
          "type": "address"
        }
      ],
      "name": "Paused",
      "type": "event"
    },
    {
      "anonymous": false,
      "inputs": [
        {
          "indexed": true,
          "internalType": "bytes32",
          "name": "role",
          "type": "bytes32"
        },
        {
          "indexed": true,
          "internalType": "bytes32",
          "name": "previousAdminRole",
          "type": "bytes32"
        },
        {
          "indexed": true,
          "internalType": "bytes32",
          "name": "newAdminRole",
          "type": "bytes32"
        }
      ],
      "name": "RoleAdminChanged",
      "type": "event"
    },
    {
      "anonymous": false,
      "inputs": [
        {
          "indexed": true,
          "internalType": "bytes32",
          "name": "role",
          "type": "bytes32"
        },
        {
          "indexed": true,
          "internalType": "address",
          "name": "account",
          "type": "address"
        },
        {
          "indexed": true,
          "internalType": "address",
          "name": "sender",
          "type": "address"
        }
      ],
      "name": "RoleGranted",
      "type": "event"
    },
    {
      "anonymous": false,
      "inputs": [
        {
          "indexed": true,
          "internalType": "bytes32",
          "name": "role",
          "type": "bytes32"
        },
        {
          "indexed": true,
          "internalType": "address",
          "name": "account",
          "type": "address"
        },
        {
          "indexed": true,
          "internalType": "address",
          "name": "sender",
          "type": "address"
        }
      ],
      "name": "RoleRevoked",
      "type": "event"
    },
    {
      "anonymous": false,
      "inputs": [
        {
          "indexed": false,
          "internalType": "uint256",
          "name": "tokenId",
          "type": "uint256"
        },
        {
          "indexed": false,
          "internalType": "address[]",
          "name": "recipients",
          "type": "address[]"
        },
        {
          "indexed": false,
          "internalType": "uint256[]",
          "name": "bps",
          "type": "uint256[]"
        }
      ],
      "name": "RoyaltiesFeesSet",
      "type": "event"
    },
    {
      "anonymous": false,
      "inputs": [
        {
          "indexed": true,
          "internalType": "address",
          "name": "operator",
          "type": "address"
        },
        {
          "indexed": true,
          "internalType": "address",
          "name": "from",
          "type": "address"
        },
        {
          "indexed": true,
          "internalType": "address",
          "name": "to",
          "type": "address"
        },
        {
          "indexed": false,
          "internalType": "uint256[]",
          "name": "ids",
          "type": "uint256[]"
        },
        {
          "indexed": false,
          "internalType": "uint256[]",
          "name": "values",
          "type": "uint256[]"
        }
      ],
      "name": "TransferBatch",
      "type": "event"
    },
    {
      "anonymous": false,
      "inputs": [
        {
          "indexed": true,
          "internalType": "address",
          "name": "operator",
          "type": "address"
        },
        {
          "indexed": true,
          "internalType": "address",
          "name": "from",
          "type": "address"
        },
        {
          "indexed": true,
          "internalType": "address",
          "name": "to",
          "type": "address"
        },
        {
          "indexed": false,
          "internalType": "uint256",
          "name": "id",
          "type": "uint256"
        },
        {
          "indexed": false,
          "internalType": "uint256",
          "name": "value",
          "type": "uint256"
        }
      ],
      "name": "TransferSingle",
      "type": "event"
    },
    {
      "anonymous": false,
      "inputs": [
        {
          "indexed": false,
          "internalType": "string",
          "name": "value",
          "type": "string"
        },
        {
          "indexed": true,
          "internalType": "uint256",
          "name": "id",
          "type": "uint256"
        }
      ],
      "name": "URI",
      "type": "event"
    },
    {
      "anonymous": false,
      "inputs": [
        {
          "indexed": false,
          "internalType": "address",
          "name": "account",
          "type": "address"
        }
      ],
      "name": "Unpaused",
      "type": "event"
    },
    {
      "inputs": [],
      "name": "DEFAULT_ADMIN_ROLE",
      "outputs": [
        {
          "internalType": "bytes32",
          "name": "",
          "type": "bytes32"
        }
      ],
      "stateMutability": "view",
      "type": "function"
    },
    {
      "inputs": [],
      "name": "MINTER_ROLE",
      "outputs": [
        {
          "internalType": "bytes32",
          "name": "",
          "type": "bytes32"
        }
      ],
      "stateMutability": "view",
      "type": "function"
    },
    {
      "inputs": [],
      "name": "PAUSER_ROLE",
      "outputs": [
        {
          "internalType": "bytes32",
          "name": "",
          "type": "bytes32"
        }
      ],
      "stateMutability": "view",
      "type": "function"
    },
    {
      "inputs": [
        {
          "internalType": "address",
          "name": "account",
          "type": "address"
        },
        {
          "internalType": "uint256",
          "name": "id",
          "type": "uint256"
        }
      ],
      "name": "balanceOf",
      "outputs": [
        {
          "internalType": "uint256",
          "name": "",
          "type": "uint256"
        }
      ],
      "stateMutability": "view",
      "type": "function"
    },
    {
      "inputs": [
        {
          "internalType": "address[]",
          "name": "accounts",
          "type": "address[]"
        },
        {
          "internalType": "uint256[]",
          "name": "ids",
          "type": "uint256[]"
        }
      ],
      "name": "balanceOfBatch",
      "outputs": [
        {
          "internalType": "uint256[]",
          "name": "",
          "type": "uint256[]"
        }
      ],
      "stateMutability": "view",
      "type": "function"
    },
    {
      "inputs": [
        {
          "internalType": "address",
          "name": "account",
          "type": "address"
        },
        {
          "internalType": "uint256",
          "name": "id",
          "type": "uint256"
        },
        {
          "internalType": "uint256",
          "name": "value",
          "type": "uint256"
        }
      ],
      "name": "burn",
      "outputs": [],
      "stateMutability": "nonpayable",
      "type": "function"
    },
    {
      "inputs": [
        {
          "internalType": "address",
          "name": "account",
          "type": "address"
        },
        {
          "internalType": "uint256[]",
          "name": "ids",
          "type": "uint256[]"
        },
        {
          "internalType": "uint256[]",
          "name": "values",
          "type": "uint256[]"
        }
      ],
      "name": "burnBatch",
      "outputs": [],
      "stateMutability": "nonpayable",
      "type": "function"
    },
    {
      "inputs": [
        {
          "internalType": "bytes32",
          "name": "role",
          "type": "bytes32"
        }
      ],
      "name": "getRoleAdmin",
      "outputs": [
        {
          "internalType": "bytes32",
          "name": "",
          "type": "bytes32"
        }
      ],
      "stateMutability": "view",
      "type": "function"
    },
    {
      "inputs": [
        {
          "internalType": "bytes32",
          "name": "role",
          "type": "bytes32"
        },
        {
          "internalType": "uint256",
          "name": "index",
          "type": "uint256"
        }
      ],
      "name": "getRoleMember",
      "outputs": [
        {
          "internalType": "address",
          "name": "",
          "type": "address"
        }
      ],
      "stateMutability": "view",
      "type": "function"
    },
    {
      "inputs": [
        {
          "internalType": "bytes32",
          "name": "role",
          "type": "bytes32"
        }
      ],
      "name": "getRoleMemberCount",
      "outputs": [
        {
          "internalType": "uint256",
          "name": "",
          "type": "uint256"
        }
      ],
      "stateMutability": "view",
      "type": "function"
    },
    {
      "inputs": [
        {
          "internalType": "bytes32",
          "name": "role",
          "type": "bytes32"
        },
        {
          "internalType": "address",
          "name": "account",
          "type": "address"
        }
      ],
      "name": "grantRole",
      "outputs": [],
      "stateMutability": "nonpayable",
      "type": "function"
    },
    {
      "inputs": [
        {
          "internalType": "bytes32",
          "name": "role",
          "type": "bytes32"
        },
        {
          "internalType": "address",
          "name": "account",
          "type": "address"
        }
      ],
      "name": "hasRole",
      "outputs": [
        {
          "internalType": "bool",
          "name": "",
          "type": "bool"
        }
      ],
      "stateMutability": "view",
      "type": "function"
    },
    {
      "inputs": [
        {
          "internalType": "address",
          "name": "account",
          "type": "address"
        },
        {
          "internalType": "address",
          "name": "operator",
          "type": "address"
        }
      ],
      "name": "isApprovedForAll",
      "outputs": [
        {
          "internalType": "bool",
          "name": "",
          "type": "bool"
        }
      ],
      "stateMutability": "view",
      "type": "function"
    },
    {
      "inputs": [],
      "name": "name",
      "outputs": [
        {
          "internalType": "string",
          "name": "",
          "type": "string"
        }
      ],
      "stateMutability": "view",
      "type": "function"
    },
    {
      "inputs": [],
      "name": "owner",
      "outputs": [
        {
          "internalType": "address",
          "name": "",
          "type": "address"
        }
      ],
      "stateMutability": "view",
      "type": "function"
    },
    {
      "inputs": [],
      "name": "pause",
      "outputs": [],
      "stateMutability": "nonpayable",
      "type": "function"
    },
    {
      "inputs": [],
      "name": "paused",
      "outputs": [
        {
          "internalType": "bool",
          "name": "",
          "type": "bool"
        }
      ],
      "stateMutability": "view",
      "type": "function"
    },
    {
      "inputs": [],
      "name": "renounceOwnership",
      "outputs": [],
      "stateMutability": "nonpayable",
      "type": "function"
    },
    {
      "inputs": [
        {
          "internalType": "bytes32",
          "name": "role",
          "type": "bytes32"
        },
        {
          "internalType": "address",
          "name": "account",
          "type": "address"
        }
      ],
      "name": "renounceRole",
      "outputs": [],
      "stateMutability": "nonpayable",
      "type": "function"
    },
    {
      "inputs": [
        {
          "internalType": "bytes32",
          "name": "role",
          "type": "bytes32"
        },
        {
          "internalType": "address",
          "name": "account",
          "type": "address"
        }
      ],
      "name": "revokeRole",
      "outputs": [],
      "stateMutability": "nonpayable",
      "type": "function"
    },
    {
      "inputs": [
        {
          "internalType": "address",
          "name": "from",
          "type": "address"
        },
        {
          "internalType": "address",
          "name": "to",
          "type": "address"
        },
        {
          "internalType": "uint256[]",
          "name": "ids",
          "type": "uint256[]"
        },
        {
          "internalType": "uint256[]",
          "name": "amounts",
          "type": "uint256[]"
        },
        {
          "internalType": "bytes",
          "name": "data",
          "type": "bytes"
        }
      ],
      "name": "safeBatchTransferFrom",
      "outputs": [],
      "stateMutability": "nonpayable",
      "type": "function"
    },
    {
      "inputs": [
        {
          "internalType": "address",
          "name": "from",
          "type": "address"
        },
        {
          "internalType": "address",
          "name": "to",
          "type": "address"
        },
        {
          "internalType": "uint256",
          "name": "id",
          "type": "uint256"
        },
        {
          "internalType": "uint256",
          "name": "amount",
          "type": "uint256"
        },
        {
          "internalType": "bytes",
          "name": "data",
          "type": "bytes"
        }
      ],
      "name": "safeTransferFrom",
      "outputs": [],
      "stateMutability": "nonpayable",
      "type": "function"
    },
    {
      "inputs": [
        {
          "internalType": "address",
          "name": "operator",
          "type": "address"
        },
        {
          "internalType": "bool",
          "name": "approved",
          "type": "bool"
        }
      ],
      "name": "setApprovalForAll",
      "outputs": [],
      "stateMutability": "nonpayable",
      "type": "function"
    },
    {
      "inputs": [
        {
          "internalType": "string",
          "name": "uri_",
          "type": "string"
        }
      ],
      "name": "setURI",
      "outputs": [],
      "stateMutability": "nonpayable",
      "type": "function"
    },
    {
      "inputs": [
        {
          "internalType": "bytes4",
          "name": "interfaceId",
          "type": "bytes4"
        }
      ],
      "name": "supportsInterface",
      "outputs": [
        {
          "internalType": "bool",
          "name": "",
          "type": "bool"
        }
      ],
      "stateMutability": "view",
      "type": "function"
    },
    {
      "inputs": [],
      "name": "symbol",
      "outputs": [
        {
          "internalType": "string",
          "name": "",
          "type": "string"
        }
      ],
      "stateMutability": "view",
      "type": "function"
    },
    {
      "inputs": [
        {
          "internalType": "address",
          "name": "newOwner",
          "type": "address"
        }
      ],
      "name": "transferOwnership",
      "outputs": [],
      "stateMutability": "nonpayable",
      "type": "function"
    },
    {
      "inputs": [],
      "name": "unpause",
      "outputs": [],
      "stateMutability": "nonpayable",
      "type": "function"
    },
    {
      "inputs": [
        {
          "internalType": "uint256",
          "name": "",
          "type": "uint256"
        }
      ],
      "name": "uri",
      "outputs": [
        {
          "internalType": "string",
          "name": "",
          "type": "string"
        }
      ],
      "stateMutability": "view",
      "type": "function"
    },
    {
      "inputs": [
        {
          "internalType": "string",
          "name": "_name",
          "type": "string"
        },
        {
          "internalType": "string",
          "name": "_symbol",
          "type": "string"
        },
        {
          "internalType": "string",
          "name": "uri",
          "type": "string"
        }
      ],
      "name": "initialize",
      "outputs": [],
      "stateMutability": "nonpayable",
      "type": "function"
    },
    {
      "inputs": [
        {
          "internalType": "address",
          "name": "to",
          "type": "address"
        },
        {
          "internalType": "uint256",
          "name": "amount",
          "type": "uint256"
        },
        {
          "internalType": "bytes",
          "name": "data",
          "type": "bytes"
        },
        {
          "components": [
            {
              "internalType": "address payable",
              "name": "recipient",
              "type": "address"
            },
            {
              "internalType": "uint256",
              "name": "value",
              "type": "uint256"
            }
          ],
          "internalType": "struct GhostMarketERC1155.Royalty[]",
          "name": "royalties",
          "type": "tuple[]"
        },
        {
          "internalType": "string",
          "name": "externalURI",
          "type": "string"
        },
        {
          "internalType": "string",
          "name": "metadata",
          "type": "string"
        },
        {
          "internalType": "string",
          "name": "lockedcontent",
          "type": "string"
        }
      ],
      "name": "mintGhost",
      "outputs": [],
      "stateMutability": "payable",
      "type": "function"
    },
    {
      "inputs": [
        {
          "internalType": "uint256",
          "name": "withdrawAmount",
          "type": "uint256"
        }
      ],
      "name": "withdraw",
      "outputs": [],
      "stateMutability": "nonpayable",
      "type": "function"
    },
    {
      "inputs": [
        {
          "internalType": "uint256",
          "name": "gmmf",
          "type": "uint256"
        }
      ],
      "name": "setGhostmarketMintFee",
      "outputs": [],
      "stateMutability": "nonpayable",
      "type": "function"
    },
    {
      "inputs": [],
      "name": "getGhostmarketMintFees",
      "outputs": [
        {
          "internalType": "uint256",
          "name": "",
          "type": "uint256"
        }
      ],
      "stateMutability": "view",
      "type": "function"
    },
    {
      "inputs": [
        {
          "internalType": "uint256",
          "name": "tokenId",
          "type": "uint256"
        }
      ],
      "name": "getLockedContent",
      "outputs": [],
      "stateMutability": "nonpayable",
      "type": "function"
    },
    {
      "inputs": [
        {
          "internalType": "uint256",
          "name": "tokenId",
          "type": "uint256"
        }
      ],
      "name": "getCurrentLockedContentViewTracker",
      "outputs": [
        {
          "internalType": "uint256",
          "name": "",
          "type": "uint256"
        }
      ],
      "stateMutability": "view",
      "type": "function"
    },
    {
      "inputs": [
        {
          "internalType": "uint256",
          "name": "tokenId",
          "type": "uint256"
        }
      ],
      "name": "getMetadataJson",
      "outputs": [
        {
          "internalType": "string",
          "name": "",
          "type": "string"
        }
      ],
      "stateMutability": "view",
      "type": "function"
    },
    {
      "inputs": [
        {
          "internalType": "uint256",
          "name": "tokenId",
          "type": "uint256"
        }
      ],
      "name": "getRoyaltiesRecipients",
      "outputs": [
        {
          "internalType": "address payable[]",
          "name": "",
          "type": "address[]"
        }
      ],
      "stateMutability": "view",
      "type": "function"
    },
    {
      "inputs": [
        {
          "internalType": "uint256",
          "name": "tokenId",
          "type": "uint256"
        }
      ],
      "name": "getRoyaltiesBps",
      "outputs": [
        {
          "internalType": "uint256[]",
          "name": "",
          "type": "uint256[]"
        }
      ],
      "stateMutability": "view",
      "type": "function"
    }
  ],
  "bytecode": "0x608060405234801561001057600080fd5b506145c2806100206000396000f3fe60806040526004361061029f5760003560e01c80639010d07c1161016e578063d547741f116100cb578063edcbc0bd1161007f578063f2fde38b11610064578063f2fde38b146107b4578063f5298aca146107d4578063f7d027de146107f45761029f565b8063edcbc0bd14610767578063f242432a146107945761029f565b8063e24dbeae116100b0578063e24dbeae146106d4578063e63ab1e9146106ea578063e985e9c51461071e5761029f565b8063d547741f14610694578063dac0f3d9146106b45761029f565b8063a6487c5311610122578063c6f4f0f011610107578063c6f4f0f014610612578063ca15c87314610640578063d5391393146106605761029f565b8063a6487c53146105d2578063c1793c58146105f25761029f565b806395d89b411161015357806395d89b4114610588578063a217fddf1461059d578063a22cb465146105b25761029f565b80639010d07c1461052257806391d14854146105425761029f565b80632f2ff15d1161021c5780636b20c454116101d057806383fa237b116101b557806383fa237b146104c75780638456cb59146104da5780638da5cb5b146104ef5761029f565b80636b20c45414610492578063715018a6146104b25761029f565b80633f4ba83a116102015780633f4ba83a1461043b5780634e1273f4146104505780635c975abb1461047d5761029f565b80632f2ff15d146103fb57806336568abe1461041b5761029f565b80630e89341c11610273578063248a9ca311610258578063248a9ca31461038b5780632e1a7d4d146103bb5780632eb2c2d6146103db5761029f565b80630e89341c1461034b5780631c7e78f31461036b5761029f565b8062fdd58e146102a457806301ffc9a7146102d757806302fe53051461030757806306fdde0314610329575b600080fd5b3480156102b057600080fd5b506102c46102bf366004613ce5565b610814565b6040519081526020015b60405180910390f35b3480156102e357600080fd5b506102f76102f2366004613f54565b6108c2565b60405190151581526020016102ce565b34801561031357600080fd5b50610327610322366004613f8c565b6108d5565b005b34801561033557600080fd5b5061033e61095e565b6040516102ce9190614301565b34801561035757600080fd5b5061033e610366366004613ef7565b6109ed565b34801561037757600080fd5b50610327610386366004613ef7565b610a81565b34801561039757600080fd5b506102c46103a6366004613ef7565b60009081526065602052604090206001015490565b3480156103c757600080fd5b506103276103d6366004613ef7565b610b52565b3480156103e757600080fd5b506103276103f6366004613b30565b610d46565b34801561040757600080fd5b50610327610416366004613f0f565b6110bd565b34801561042757600080fd5b50610327610436366004613f0f565b6110e4565b34801561044757600080fd5b50610327611106565b34801561045c57600080fd5b5061047061046b366004613e2a565b6111ac565b6040516102ce91906142c0565b34801561048957600080fd5b506102f7611322565b34801561049e57600080fd5b506103276104ad366004613c41565b61132d565b3480156104be57600080fd5b506103276113b2565b6103276104d5366004613d10565b611466565b3480156104e657600080fd5b5061032761168b565b3480156104fb57600080fd5b506101f5546001600160a01b03165b6040516001600160a01b0390911681526020016102ce565b34801561052e57600080fd5b5061050a61053d366004613f33565b61172f565b34801561054e57600080fd5b506102f761055d366004613f0f565b60009182526065602090815260408084206001600160a01b0393909316845291905290205460ff1690565b34801561059457600080fd5b5061033e61174e565b3480156105a957600080fd5b506102c4600081565b3480156105be57600080fd5b506103276105cd366004613cb4565b61175c565b3480156105de57600080fd5b506103276105ed366004613fc7565b611854565b3480156105fe57600080fd5b5061047061060d366004613ef7565b61194e565b34801561061e57600080fd5b506102c461062d366004613ef7565b600090815261022b602052604090205490565b34801561064c57600080fd5b506102c461065b366004613ef7565b611a93565b34801561066c57600080fd5b506102c47f9f2df0fed2c77648de5860a4cc508cd0818c85b8b8a1ab4ceeef8d981c8956a681565b3480156106a057600080fd5b506103276106af366004613f0f565b611aaa565b3480156106c057600080fd5b506103276106cf366004613ef7565b611ab4565b3480156106e057600080fd5b5061022e546102c4565b3480156106f657600080fd5b506102c47f65d7a28e3265b37a6474929f336521b332c1681b933f6cb9f3376673440d862a81565b34801561072a57600080fd5b506102f7610739366004613af8565b6001600160a01b03918216600090815260ca6020908152604080832093909416825291909152205460ff1690565b34801561077357600080fd5b50610787610782366004613ef7565b611b67565b6040516102ce9190614273565b3480156107a057600080fd5b506103276107af366004613bda565b611cb9565b3480156107c057600080fd5b506103276107cf366004613adc565b611f00565b3480156107e057600080fd5b506103276107ef366004613df6565b612042565b34801561080057600080fd5b5061033e61080f366004613ef7565b6120c7565b60006001600160a01b0383166108975760405162461bcd60e51b815260206004820152602b60248201527f455243313135353a2062616c616e636520717565727920666f7220746865207a60448201527f65726f206164647265737300000000000000000000000000000000000000000060648201526084015b60405180910390fd5b50600081815260c9602090815260408083206001600160a01b03861684529091529020545b92915050565b60006108cd826120e5565b90505b919050565b6108e060003361055d565b6109525760405162461bcd60e51b815260206004820152603e60248201527f455243313135355072657365744d696e7465725061757365723a206d7573742060448201527f686176652061646d696e20726f6c6520746f20736574206e6577207572690000606482015260840161088e565b61095b81612157565b50565b610227805461096c90614409565b80601f016020809104026020016040519081016040528092919081815260200182805461099890614409565b80156109e55780601f106109ba576101008083540402835291602001916109e5565b820191906000526020600020905b8154815290600101906020018083116109c857829003601f168201915b505050505081565b606060cb80546109fc90614409565b80601f0160208091040260200160405190810160405280929190818152602001828054610a2890614409565b8015610a755780601f10610a4a57610100808354040283529160200191610a75565b820191906000526020600020905b815481529060010190602001808311610a5857829003601f168201915b50505050509050919050565b610a8a8161216e565b610afc5760405162461bcd60e51b815260206004820152602360248201527f43616c6c6572206d75737420626520746865206f776e6572206f66207468652060448201527f4e46540000000000000000000000000000000000000000000000000000000000606482015260840161088e565b610b0581612182565b600081815261022a60205260409081902090517f544b1d1249133c50ce89743ed1ca34a815bd50d42b71e6d331a1ac560013a8ec91610b4791339185916141b4565b60405180910390a150565b6101f5546001600160a01b03163314610bad5760405162461bcd60e51b815260206004820181905260248201527f4f776e61626c653a2063616c6c6572206973206e6f7420746865206f776e6572604482015260640161088e565b600081118015610bc0575061022d548111155b610c585760405162461bcd60e51b815260206004820152604760248201527f576974686472617720616d6f756e742073686f756c642062652067726561746560448201527f72207468656e203020616e64206c657373207468656e20636f6e74726163742060648201527f62616c616e636500000000000000000000000000000000000000000000000000608482015260a40161088e565b8061022d6000828254610c6b91906143c6565b9091555050604051600090339083908381818185875af1925050503d8060008114610cb2576040519150601f19603f3d011682016040523d82523d6000602084013e610cb7565b606091505b5050905080610d085760405162461bcd60e51b815260206004820152601060248201527f5472616e73666572206661696c65642e00000000000000000000000000000000604482015260640161088e565b60408051338152602081018490527f3c897fa64265e543b9d36df079688f87240185d1bf1a937e4c45a56e1167873691015b60405180910390a15050565b8151835114610da85760405162461bcd60e51b815260206004820152602860248201527f455243313135353a2069647320616e6420616d6f756e7473206c656e677468206044820152670dad2e6dac2e8c6d60c31b606482015260840161088e565b6001600160a01b038416610e0c5760405162461bcd60e51b815260206004820152602560248201527f455243313135353a207472616e7366657220746f20746865207a65726f206164604482015264647265737360d81b606482015260840161088e565b6001600160a01b038516331480610e285750610e288533610739565b610e9a5760405162461bcd60e51b815260206004820152603260248201527f455243313135353a207472616e736665722063616c6c6572206973206e6f742060448201527f6f776e6572206e6f7220617070726f7665640000000000000000000000000000606482015260840161088e565b33610ea98187878787876121b0565b60005b845181101561104f576000858281518110610ed757634e487b7160e01b600052603260045260246000fd5b602002602001015190506000858381518110610f0357634e487b7160e01b600052603260045260246000fd5b602090810291909101810151600084815260c9835260408082206001600160a01b038e168352909352919091205490915081811015610faa5760405162461bcd60e51b815260206004820152602a60248201527f455243313135353a20696e73756666696369656e742062616c616e636520666f60448201527f72207472616e7366657200000000000000000000000000000000000000000000606482015260840161088e565b610fb482826143c6565b60c9600085815260200190815260200160002060008c6001600160a01b03166001600160a01b03168152602001908152602001600020819055508160c9600085815260200190815260200160002060008b6001600160a01b03166001600160a01b03168152602001908152602001600020600082825461103491906143ae565b925050819055505050508061104890614471565b9050610eac565b50846001600160a01b0316866001600160a01b0316826001600160a01b03167f4a39dc06d4c0dbc64b70af90fd698a233a518aa5d07e595d983b8c0526c8f7fb878760405161109f9291906142d3565b60405180910390a46110b58187878787876121be565b505050505050565b6110c78282612373565b60008281526097602052604090206110df908261240c565b505050565b6110ee8282612421565b60008281526097602052604090206110df90826124a9565b6111307f65d7a28e3265b37a6474929f336521b332c1681b933f6cb9f3376673440d862a3361055d565b6111a25760405162461bcd60e51b815260206004820152603b60248201527f455243313135355072657365744d696e7465725061757365723a206d7573742060448201527f686176652070617573657220726f6c6520746f20756e70617573650000000000606482015260840161088e565b6111aa6124be565b565b606081518351146112255760405162461bcd60e51b815260206004820152602960248201527f455243313135353a206163636f756e747320616e6420696473206c656e67746860448201527f206d69736d617463680000000000000000000000000000000000000000000000606482015260840161088e565b6000835167ffffffffffffffff81111561124f57634e487b7160e01b600052604160045260246000fd5b604051908082528060200260200182016040528015611278578160200160208202803683370190505b50905060005b845181101561131a576112df8582815181106112aa57634e487b7160e01b600052603260045260246000fd5b60200260200101518583815181106112d257634e487b7160e01b600052603260045260246000fd5b6020026020010151610814565b8282815181106112ff57634e487b7160e01b600052603260045260246000fd5b602090810291909101015261131381614471565b905061127e565b509392505050565b61012d5460ff165b90565b6001600160a01b03831633148061134957506113498333610739565b6113a75760405162461bcd60e51b815260206004820152602960248201527f455243313135353a2063616c6c6572206973206e6f74206f776e6572206e6f7260448201526808185c1c1c9bdd995960ba1b606482015260840161088e565b6110df83838361255d565b6101f5546001600160a01b0316331461140d5760405162461bcd60e51b815260206004820181905260248201527f4f776e61626c653a2063616c6c6572206973206e6f7420746865206f776e6572604482015260640161088e565b6101f5546040516000916001600160a01b0316907f8be0079c531659141344cd1fd0a4f28419497f9722a3daafe3b4186f6b6457e0908390a36101f5805473ffffffffffffffffffffffffffffffffffffffff19169055565b60026101c35414156114ba5760405162461bcd60e51b815260206004820152601f60248201527f5265656e7472616e637947756172643a207265656e7472616e742063616c6c00604482015260640161088e565b60026101c3556114d5876114ce61022f5490565b88886127d0565b8351156114ef576114ef6114e961022f5490565b856127dc565b604080516000815260208101808352815190209161150f918591016140a7565b604051602081830303815290604052805190602001201461153d5761153d61153761022f5490565b83612b3b565b604080516000815260208101808352815190209161155d918491016140a7565b604051602081830303815290604052805190602001201461158b5761158b61158561022f5490565b82612b8d565b611593612bad565b60408051600081526020810180835281519020916115b3918691016140a7565b6040516020818303038152906040528051906020012014156116175760405162461bcd60e51b815260206004820152601a60248201527f65787465726e616c5552492063616e277420626520656d707479000000000000604482015260640161088e565b7f23fdfad9614f0798bbc446f42ebe064745248d7dcf4d59f54887c4174eb19ed08761164361022f5490565b61165061036661022f5490565b868a3460405161166596959493929190614164565b60405180910390a161167c61022f80546001019055565b505060016101c3555050505050565b6116b57f65d7a28e3265b37a6474929f336521b332c1681b933f6cb9f3376673440d862a3361055d565b6117275760405162461bcd60e51b815260206004820152603960248201527f455243313135355072657365744d696e7465725061757365723a206d7573742060448201527f686176652070617573657220726f6c6520746f20706175736500000000000000606482015260840161088e565b6111aa612c4e565b60008281526097602052604081206117479083612cd9565b9392505050565b610228805461096c90614409565b336001600160a01b03831614156117db5760405162461bcd60e51b815260206004820152602960248201527f455243313135353a2073657474696e6720617070726f76616c2073746174757360448201527f20666f722073656c660000000000000000000000000000000000000000000000606482015260840161088e565b33600081815260ca602090815260408083206001600160a01b0387168085529252909120805460ff1916841515179055906001600160a01b03167f17307eab39ab6107e8899845ad3d59bd9653f200f220920489ca2b5937696c3183604051611848911515815260200190565b60405180910390a35050565b600054610100900460ff168061186d575060005460ff16155b6118d05760405162461bcd60e51b815260206004820152602e60248201527f496e697469616c697a61626c653a20636f6e747261637420697320616c72656160448201526d191e481a5b9a5d1a585b1a5e995960921b606482015260840161088e565b600054610100900460ff161580156118f2576000805461ffff19166101011790555b6118fb82612ce5565b61190482612da1565b61190c612e9f565b8351611920906102279060208701906138b2565b508251611935906102289060208601906138b2565b508015611948576000805461ff00191690555b50505050565b600081815261022960209081526040808320805482518185028101850190935280835260609493849084015b828210156119c2576000848152602090819020604080518082019091526002850290910180546001600160a01b0316825260019081015482840152908352909201910161197a565b5050505090506000815167ffffffffffffffff8111156119f257634e487b7160e01b600052604160045260246000fd5b604051908082528060200260200182016040528015611a1b578160200160208202803683370190505b50905060005b825181101561131a57828181518110611a4a57634e487b7160e01b600052603260045260246000fd5b602002602001015160200151828281518110611a7657634e487b7160e01b600052603260045260246000fd5b602090810291909101015280611a8b81614471565b915050611a21565b60008181526097602052604081206108cd90612fa2565b6110ee8282612fac565b611abf60003361055d565b611b315760405162461bcd60e51b815260206004820152602c60248201527f43616c6c6572206d75737420686176652061646d696e20726f6c6520746f207360448201527f6574206d696e7420666565730000000000000000000000000000000000000000606482015260840161088e565b61022e8190556040518181527f0f3b48a5cb203023dd681facda0506fea024143e07ad14ff26c35d22204c310890602001610b47565b600081815261022960209081526040808320805482518185028101850190935280835260609493849084015b82821015611bdb576000848152602090819020604080518082019091526002850290910180546001600160a01b03168252600190810154828401529083529092019101611b93565b5050505090506000815167ffffffffffffffff811115611c0b57634e487b7160e01b600052604160045260246000fd5b604051908082528060200260200182016040528015611c34578160200160208202803683370190505b50905060005b825181101561131a57828181518110611c6357634e487b7160e01b600052603260045260246000fd5b602002602001015160000151828281518110611c8f57634e487b7160e01b600052603260045260246000fd5b6001600160a01b039092166020928302919091019091015280611cb181614471565b915050611c3a565b6001600160a01b038416611d1d5760405162461bcd60e51b815260206004820152602560248201527f455243313135353a207472616e7366657220746f20746865207a65726f206164604482015264647265737360d81b606482015260840161088e565b6001600160a01b038516331480611d395750611d398533610739565b611d975760405162461bcd60e51b815260206004820152602960248201527f455243313135353a2063616c6c6572206973206e6f74206f776e6572206e6f7260448201526808185c1c1c9bdd995960ba1b606482015260840161088e565b33611db6818787611da788613039565b611db088613039565b876121b0565b600084815260c9602090815260408083206001600160a01b038a16845290915290205483811015611e4f5760405162461bcd60e51b815260206004820152602a60248201527f455243313135353a20696e73756666696369656e742062616c616e636520666f60448201527f72207472616e7366657200000000000000000000000000000000000000000000606482015260840161088e565b611e5984826143c6565b600086815260c9602090815260408083206001600160a01b038c81168552925280832093909355881681529081208054869290611e979084906143ae565b909155505060408051868152602081018690526001600160a01b03808916928a821692918616917fc3d58168c5ae7397731d063d5bbf3d657854427343f4c083240f7aacaa2d0f62910160405180910390a4611ef7828888888888613092565b50505050505050565b6101f5546001600160a01b03163314611f5b5760405162461bcd60e51b815260206004820181905260248201527f4f776e61626c653a2063616c6c6572206973206e6f7420746865206f776e6572604482015260640161088e565b6001600160a01b038116611fd75760405162461bcd60e51b815260206004820152602660248201527f4f776e61626c653a206e6577206f776e657220697320746865207a65726f206160448201527f6464726573730000000000000000000000000000000000000000000000000000606482015260840161088e565b6101f5546040516001600160a01b038084169216907f8be0079c531659141344cd1fd0a4f28419497f9722a3daafe3b4186f6b6457e090600090a36101f5805473ffffffffffffffffffffffffffffffffffffffff19166001600160a01b0392909216919091179055565b6001600160a01b03831633148061205e575061205e8333610739565b6120bc5760405162461bcd60e51b815260206004820152602960248201527f455243313135353a2063616c6c6572206973206e6f74206f776e6572206e6f7260448201526808185c1c1c9bdd995960ba1b606482015260840161088e565b6110df83838361319d565b600081815261022c602052604090208054606091906109fc90614409565b60006001600160e01b031982167fd9b67a2600000000000000000000000000000000000000000000000000000000148061214857506001600160e01b031982167f0e89341c00000000000000000000000000000000000000000000000000000000145b806108cd57506108cd82613322565b805161216a9060cb9060208401906138b2565b5050565b600061217a3383610814565b151592915050565b600081815261022b602052604090205461219d9060016143ae565b600091825261022b602052604090912055565b6110b5868686868686613360565b6001600160a01b0384163b156110b55760405163bc197c8160e01b81526001600160a01b0385169063bc197c819061220290899089908890889088906004016140c3565b602060405180830381600087803b15801561221c57600080fd5b505af192505050801561224c575060408051601f3d908101601f1916820190925261224991810190613f70565b60015b612302576122586144b8565b806308c379a01415612292575061226d6144cf565b806122785750612294565b8060405162461bcd60e51b815260040161088e9190614301565b505b60405162461bcd60e51b815260206004820152603460248201527f455243313135353a207472616e7366657220746f206e6f6e204552433131353560448201527f526563656976657220696d706c656d656e746572000000000000000000000000606482015260840161088e565b6001600160e01b0319811663bc197c8160e01b14611ef75760405162461bcd60e51b815260206004820152602860248201527f455243313135353a204552433131353552656365697665722072656a656374656044820152676420746f6b656e7360c01b606482015260840161088e565b600082815260656020526040902060010154612390905b3361055d565b6124025760405162461bcd60e51b815260206004820152602f60248201527f416363657373436f6e74726f6c3a2073656e646572206d75737420626520616e60448201527f2061646d696e20746f206772616e740000000000000000000000000000000000606482015260840161088e565b61216a82826133db565b6000611747836001600160a01b03841661347d565b6001600160a01b038116331461249f5760405162461bcd60e51b815260206004820152602f60248201527f416363657373436f6e74726f6c3a2063616e206f6e6c792072656e6f756e636560448201527f20726f6c657320666f722073656c660000000000000000000000000000000000606482015260840161088e565b61216a82826134cc565b6000611747836001600160a01b03841661354f565b6124c6611322565b6125125760405162461bcd60e51b815260206004820152601460248201527f5061757361626c653a206e6f7420706175736564000000000000000000000000604482015260640161088e565b61012d805460ff191690557f5db9ee0a495bf2e6ff9c91a7834c1ba4fdd244a5e8aa4e537bd38aeae4b073aa335b6040516001600160a01b03909116815260200160405180910390a1565b6001600160a01b0383166125bf5760405162461bcd60e51b815260206004820152602360248201527f455243313135353a206275726e2066726f6d20746865207a65726f206164647260448201526265737360e81b606482015260840161088e565b80518251146126215760405162461bcd60e51b815260206004820152602860248201527f455243313135353a2069647320616e6420616d6f756e7473206c656e677468206044820152670dad2e6dac2e8c6d60c31b606482015260840161088e565b6000339050612644818560008686604051806020016040528060008152506121b0565b60005b835181101561277157600084828151811061267257634e487b7160e01b600052603260045260246000fd5b60200260200101519050600084838151811061269e57634e487b7160e01b600052603260045260246000fd5b602090810291909101810151600084815260c9835260408082206001600160a01b038c16835290935291909120549091508181101561272b5760405162461bcd60e51b8152602060048201526024808201527f455243313135353a206275726e20616d6f756e7420657863656564732062616c604482015263616e636560e01b606482015260840161088e565b61273582826143c6565b600093845260c9602090815260408086206001600160a01b038c168752909152909320929092555081905061276981614471565b915050612647565b5060006001600160a01b0316846001600160a01b0316826001600160a01b03167f4a39dc06d4c0dbc64b70af90fd698a233a518aa5d07e595d983b8c0526c8f7fb86866040516127c29291906142d3565b60405180910390a450505050565b6119488484848461366c565b60005b81518110156110df5760006001600160a01b031682828151811061281357634e487b7160e01b600052603260045260246000fd5b6020026020010151600001516001600160a01b031614156128765760405162461bcd60e51b815260206004820152601b60248201527f526563697069656e742073686f756c642062652070726573656e740000000000604482015260640161088e565b600082828151811061289857634e487b7160e01b600052603260045260246000fd5b602002602001015160200151116129175760405162461bcd60e51b815260206004820152602260248201527f526f79616c746965732076616c75652073686f756c6420626520706f7369746960448201527f7665000000000000000000000000000000000000000000000000000000000000606482015260840161088e565b603282828151811061293957634e487b7160e01b600052603260045260246000fd5b60200260200101516020015111156129b95760405162461bcd60e51b815260206004820152602b60248201527f526f79616c746965732076616c75652073686f756c64206e6f74206265206d6f60448201527f7265207468616e20353025000000000000000000000000000000000000000000606482015260840161088e565b60008381526102296020526040902082518390839081106129ea57634e487b7160e01b600052603260045260246000fd5b60209081029190910181015182546001808201855560009485528385208351600290930201805473ffffffffffffffffffffffffffffffffffffffff19166001600160a01b039093169290921782559190920151910155825167ffffffffffffffff811115612a6957634e487b7160e01b600052604160045260246000fd5b604051908082528060200260200182016040528015612a92578160200160208202803683370190505b5090506000835167ffffffffffffffff811115612abf57634e487b7160e01b600052604160045260246000fd5b604051908082528060200260200182016040528015612ae8578160200160208202803683370190505b5090507f0daca41cf9c4835da0ce078144fcf7e2000a66f040f7e82fe43f4e5d234bb6bb858383604051612b1e93929190614314565b60405180910390a150508080612b3390614471565b9150506127df565b600082815261022c602090815260409091208251612b5b928401906138b2565b507f701be7c18389620e1de28c2c2c047271c46744dea76cb7667f428af200ef4dde8282604051610d3a929190614371565b600082815261022a6020908152604090912082516110df928401906138b2565b61022e5415612c2e5761022e543414612c2e5760405162461bcd60e51b815260206004820152603260248201527f57726f6e6720666565732076616c75652073656e7420746f2047686f73744d6160448201527f726b657420666f72206d696e7420666565730000000000000000000000000000606482015260840161088e565b34156111aa573461022d6000828254612c4791906143ae565b9091555050565b612c56611322565b15612ca35760405162461bcd60e51b815260206004820152601060248201527f5061757361626c653a2070617573656400000000000000000000000000000000604482015260640161088e565b61012d805460ff191660011790557f62e78cea01bee320cd4e420270b5ea74000d11b0c9f74754ebdbfc544b05a2586125403390565b60006117478383613792565b600054610100900460ff1680612cfe575060005460ff16155b612d615760405162461bcd60e51b815260206004820152602e60248201527f496e697469616c697a61626c653a20636f6e747261637420697320616c72656160448201526d191e481a5b9a5d1a585b1a5e995960921b606482015260840161088e565b600054610100900460ff16158015612d83576000805461ffff19166101011790555b612d8c82612157565b801561216a576000805461ff00191690555050565b600054610100900460ff1680612dba575060005460ff16155b612e1d5760405162461bcd60e51b815260206004820152602e60248201527f496e697469616c697a61626c653a20636f6e747261637420697320616c72656160448201526d191e481a5b9a5d1a585b1a5e995960921b606482015260840161088e565b600054610100900460ff16158015612e3f576000805461ffff19166101011790555b612e4b6000335b613841565b612e757f9f2df0fed2c77648de5860a4cc508cd0818c85b8b8a1ab4ceeef8d981c8956a633612e46565b612d8c7f65d7a28e3265b37a6474929f336521b332c1681b933f6cb9f3376673440d862a33612e46565b600054610100900460ff1680612eb8575060005460ff16155b612f1b5760405162461bcd60e51b815260206004820152602e60248201527f496e697469616c697a61626c653a20636f6e747261637420697320616c72656160448201526d191e481a5b9a5d1a585b1a5e995960921b606482015260840161088e565b600054610100900460ff16158015612f3d576000805461ffff19166101011790555b6101f5805473ffffffffffffffffffffffffffffffffffffffff19163390811790915560405181906000907f8be0079c531659141344cd1fd0a4f28419497f9722a3daafe3b4186f6b6457e0908290a350801561095b576000805461ff001916905550565b60006108cd825490565b600082815260656020526040902060010154612fc79061238a565b61249f5760405162461bcd60e51b815260206004820152603060248201527f416363657373436f6e74726f6c3a2073656e646572206d75737420626520616e60448201527f2061646d696e20746f207265766f6b6500000000000000000000000000000000606482015260840161088e565b6040805160018082528183019092526060916000919060208083019080368337019050509050828160008151811061308157634e487b7160e01b600052603260045260246000fd5b602090810291909101015292915050565b6001600160a01b0384163b156110b55760405163f23a6e6160e01b81526001600160a01b0385169063f23a6e61906130d69089908990889088908890600401614121565b602060405180830381600087803b1580156130f057600080fd5b505af1925050508015613120575060408051601f3d908101601f1916820190925261311d91810190613f70565b60015b61312c576122586144b8565b6001600160e01b0319811663f23a6e6160e01b14611ef75760405162461bcd60e51b815260206004820152602860248201527f455243313135353a204552433131353552656365697665722072656a656374656044820152676420746f6b656e7360c01b606482015260840161088e565b6001600160a01b0383166131ff5760405162461bcd60e51b815260206004820152602360248201527f455243313135353a206275726e2066726f6d20746865207a65726f206164647260448201526265737360e81b606482015260840161088e565b3361322e8185600061321087613039565b61321987613039565b604051806020016040528060008152506121b0565b600083815260c9602090815260408083206001600160a01b0388168452909152902054828110156132ad5760405162461bcd60e51b8152602060048201526024808201527f455243313135353a206275726e20616d6f756e7420657863656564732062616c604482015263616e636560e01b606482015260840161088e565b6132b783826143c6565b600085815260c9602090815260408083206001600160a01b038a811680865291845282852095909555815189815292830188905292938616917fc3d58168c5ae7397731d063d5bbf3d657854427343f4c083240f7aacaa2d0f62910160405180910390a45050505050565b60006001600160e01b031982167f5a05180f0000000000000000000000000000000000000000000000000000000014806108cd57506108cd8261384b565b613368611322565b156110b55760405162461bcd60e51b815260206004820152602c60248201527f455243313135355061757361626c653a20746f6b656e207472616e736665722060448201527f7768696c65207061757365640000000000000000000000000000000000000000606482015260840161088e565b60008281526065602090815260408083206001600160a01b038516845290915290205460ff1661216a5760008281526065602090815260408083206001600160a01b03851684529091529020805460ff191660011790556134393390565b6001600160a01b0316816001600160a01b0316837f2f8788117e7eff1d82e926ec794901d17c78024a50270940304540a733656f0d60405160405180910390a45050565b60008181526001830160205260408120546134c4575081546001818101845560008481526020808220909301849055845484825282860190935260409020919091556108bc565b5060006108bc565b60008281526065602090815260408083206001600160a01b038516845290915290205460ff161561216a5760008281526065602090815260408083206001600160a01b0385168085529252808320805460ff1916905551339285917ff6391f5c32d9c69d2a47ea670b442974b53935d1edc7fd64eb21e047a839171b9190a45050565b600081815260018301602052604081205480156136625760006135736001836143c6565b8554909150600090613587906001906143c6565b905060008660000182815481106135ae57634e487b7160e01b600052603260045260246000fd5b90600052602060002001549050808760000184815481106135df57634e487b7160e01b600052603260045260246000fd5b6000918252602090912001556135f68360016143ae565b6000828152600189016020526040902055865487908061362657634e487b7160e01b600052603160045260246000fd5b600190038181906000526020600020016000905590558660010160008781526020019081526020016000206000905560019450505050506108bc565b60009150506108bc565b6001600160a01b0384166136e85760405162461bcd60e51b815260206004820152602160248201527f455243313135353a206d696e7420746f20746865207a65726f2061646472657360448201527f7300000000000000000000000000000000000000000000000000000000000000606482015260840161088e565b336136f981600087611da788613039565b600084815260c9602090815260408083206001600160a01b03891684529091528120805485929061372b9084906143ae565b909155505060408051858152602081018590526001600160a01b0380881692600092918516917fc3d58168c5ae7397731d063d5bbf3d657854427343f4c083240f7aacaa2d0f62910160405180910390a461378b81600087878787613092565b5050505050565b8154600090821061380b5760405162461bcd60e51b815260206004820152602260248201527f456e756d657261626c655365743a20696e646578206f7574206f6620626f756e60448201527f6473000000000000000000000000000000000000000000000000000000000000606482015260840161088e565b82600001828154811061382e57634e487b7160e01b600052603260045260246000fd5b9060005260206000200154905092915050565b6110c78282612402565b60006001600160e01b031982167f7965db0b0000000000000000000000000000000000000000000000000000000014806108cd57507f01ffc9a7000000000000000000000000000000000000000000000000000000006001600160e01b03198316146108cd565b8280546138be90614409565b90600052602060002090601f0160209004810192826138e05760008555613926565b82601f106138f957805160ff1916838001178555613926565b82800160010185558215613926579182015b8281111561392657825182559160200191906001019061390b565b50613932929150613936565b5090565b5b808211156139325760008155600101613937565b80356108d081614561565b600082601f830112613966578081fd5b813560206139738261438a565b604080516139818382614444565b8481528381019250868401600686901b880185018910156139a0578687fd5b865b868110156139eb5783828b0312156139b8578788fd5b83516139c48582614444565b82356139cf81614561565b81528287013587820152855293850193908301906001016139a2565b509098975050505050505050565b600082601f830112613a09578081fd5b81356020613a168261438a565b604051613a238282614444565b8381528281019150858301600585901b87018401881015613a42578586fd5b855b85811015613a6057813584529284019290840190600101613a44565b5090979650505050505050565b600082601f830112613a7d578081fd5b813567ffffffffffffffff811115613a9757613a976144a2565b604051613aae601f8301601f191660200182614444565b818152846020838601011115613ac2578283fd5b816020850160208301379081016020019190915292915050565b600060208284031215613aed578081fd5b813561174781614561565b60008060408385031215613b0a578081fd5b8235613b1581614561565b91506020830135613b2581614561565b809150509250929050565b600080600080600060a08688031215613b47578081fd5b8535613b5281614561565b94506020860135613b6281614561565b9350604086013567ffffffffffffffff80821115613b7e578283fd5b613b8a89838a016139f9565b94506060880135915080821115613b9f578283fd5b613bab89838a016139f9565b93506080880135915080821115613bc0578283fd5b50613bcd88828901613a6d565b9150509295509295909350565b600080600080600060a08688031215613bf1578081fd5b8535613bfc81614561565b94506020860135613c0c81614561565b93506040860135925060608601359150608086013567ffffffffffffffff811115613c35578182fd5b613bcd88828901613a6d565b600080600060608486031215613c55578081fd5b8335613c6081614561565b9250602084013567ffffffffffffffff80821115613c7c578283fd5b613c88878388016139f9565b93506040860135915080821115613c9d578283fd5b50613caa868287016139f9565b9150509250925092565b60008060408385031215613cc6578182fd5b8235613cd181614561565b915060208301358015158114613b25578182fd5b60008060408385031215613cf7578182fd5b8235613d0281614561565b946020939093013593505050565b600080600080600080600060e0888a031215613d2a578485fd5b613d338861394b565b965060208801359550604088013567ffffffffffffffff80821115613d56578687fd5b613d628b838c01613a6d565b965060608a0135915080821115613d77578384fd5b613d838b838c01613956565b955060808a0135915080821115613d98578384fd5b613da48b838c01613a6d565b945060a08a0135915080821115613db9578384fd5b613dc58b838c01613a6d565b935060c08a0135915080821115613dda578283fd5b50613de78a828b01613a6d565b91505092959891949750929550565b600080600060608486031215613e0a578081fd5b8335613e1581614561565b95602085013595506040909401359392505050565b60008060408385031215613e3c578182fd5b823567ffffffffffffffff80821115613e53578384fd5b818501915085601f830112613e66578384fd5b81356020613e738261438a565b604051613e808282614444565b8381528281019150858301600585901b870184018b1015613e9f578889fd5b8896505b84871015613eca578035613eb681614561565b835260019690960195918301918301613ea3565b5096505086013592505080821115613ee0578283fd5b50613eed858286016139f9565b9150509250929050565b600060208284031215613f08578081fd5b5035919050565b60008060408385031215613f21578182fd5b823591506020830135613b2581614561565b60008060408385031215613f45578182fd5b50508035926020909101359150565b600060208284031215613f65578081fd5b813561174781614576565b600060208284031215613f81578081fd5b815161174781614576565b600060208284031215613f9d578081fd5b813567ffffffffffffffff811115613fb3578182fd5b613fbf84828501613a6d565b949350505050565b600080600060608486031215613fdb578081fd5b833567ffffffffffffffff80821115613ff2578283fd5b613ffe87838801613a6d565b94506020860135915080821115614013578283fd5b61401f87838801613a6d565b93506040860135915080821115614034578283fd5b50613caa86828701613a6d565b6000815180845260208085019450808401835b8381101561407057815187529582019590820190600101614054565b509495945050505050565b600081518084526140938160208601602086016143dd565b601f01601f19169290920160200192915050565b600082516140b98184602087016143dd565b9190910192915050565b60006001600160a01b03808816835280871660208401525060a060408301526140ef60a0830186614041565b82810360608401526141018186614041565b90508281036080840152614115818561407b565b98975050505050505050565b60006001600160a01b03808816835280871660208401525084604083015283606083015260a0608083015261415960a083018461407b565b979650505050505050565b60006001600160a01b038816825286602083015260c0604083015261418c60c083018761407b565b828103606084015261419e818761407b565b6080840195909552505060a00152949350505050565b60006001600160a01b0385168252602084818401526060604084015281845483600182811c9150808316806141ea57607f831692505b85831081141561420857634e487b7160e01b87526022600452602487fd5b6060880183905260808801818015614227576001811461423857614262565b60ff19861682528782019650614262565b60008b815260209020895b8681101561425c57815484820152908501908901614243565b83019750505b50949b9a5050505050505050505050565b6020808252825182820181905260009190848201906040850190845b818110156142b45783516001600160a01b03168352928401929184019160010161428f565b50909695505050505050565b6000602082526117476020830184614041565b6000604082526142e66040830185614041565b82810360208401526142f88185614041565b95945050505050565b600060208252611747602083018461407b565b60006060820185835260206060818501528186518084526080860191508288019350845b8181101561435d5784516001600160a01b031683529383019391830191600101614338565b505084810360408601526141158187614041565b600083825260406020830152613fbf604083018461407b565b600067ffffffffffffffff8211156143a4576143a46144a2565b5060051b60200190565b600082198211156143c1576143c161448c565b500190565b6000828210156143d8576143d861448c565b500390565b60005b838110156143f85781810151838201526020016143e0565b838111156119485750506000910152565b600181811c9082168061441d57607f821691505b6020821081141561443e57634e487b7160e01b600052602260045260246000fd5b50919050565b601f8201601f1916810167ffffffffffffffff8111828210171561446a5761446a6144a2565b6040525050565b60006000198214156144855761448561448c565b5060010190565b634e487b7160e01b600052601160045260246000fd5b634e487b7160e01b600052604160045260246000fd5b600060033d111561132a57600481823e5160e01c90565b600060443d10156144df5761132a565b6040516003193d81016004833e81513d67ffffffffffffffff816024840111818411171561451157505050505061132a565b828501915081518181111561452b5750505050505061132a565b843d87010160208285010111156145475750505050505061132a565b61455660208286010187614444565b509094505050505090565b6001600160a01b038116811461095b57600080fd5b6001600160e01b03198116811461095b57600080fdfea2646970667358221220aa2c317ef1f504fa37c85051bcae13c22ff50da0f2e251eb8dcd97fc08b9c78a64736f6c63430008030033",
  "immutableReferences": {},
  "source": "// SPDX-License-Identifier: MIT\npragma solidity ^0.8.3;\n\nimport \"./ERC1155PresetMinterPauserUpgradeableCustom.sol\";\nimport \"@openzeppelin/contracts-upgradeable/utils/CountersUpgradeable.sol\";\nimport \"@openzeppelin/contracts-upgradeable/security/ReentrancyGuardUpgradeable.sol\";\nimport \"@openzeppelin/contracts-upgradeable/access/OwnableUpgradeable.sol\";\n\n/**\n * @dev ERC1155 token with minting, burning, pause, royalties & lock content functions.\n */\n\ncontract GhostMarketERC1155 is Initializable, ERC1155PresetMinterPauserUpgradeableCustom, ReentrancyGuardUpgradeable, OwnableUpgradeable {\n\tstring public name;\n\tstring public symbol;\n\n\t// struct for royalties fees\n\tstruct Royalty {\n\t\taddress payable recipient;\n\t\tuint256 value;\n\t}\n\n\t// tokenId => royalties array\n\tmapping(uint256 => Royalty[]) internal _royalties;\n\n\t// tokenId => locked content array\n\tmapping(uint256 => string) internal _lockedContent;\n\n\t// tokenId => locked content view counter array\n\tmapping(uint256 => uint256) internal _lockedContentViewTracker;\n    \n    // tokenId => attributes array\n\tmapping(uint256 => string) internal _metadataJson;\n\n\t// events\n\tevent RoyaltiesFeesSet(uint256 tokenId, address[] recipients, uint256[] bps);\n\tevent LockedContentViewed(address msgSender, uint256 tokenId, string lockedContent);\n\tevent AttributesSet(uint256 tokenId, string metadataJson);\n\tevent MintFeesWithdrawn(address feeWithdrawer, uint256 withdrawAmount);\n\tevent MintFeesChanged(uint256 newValue);\n\tevent Minted(address toAddress, uint256 tokenId, string tokenURI, string externalURI, uint256 amount, uint256 mintFees);\n\n    // mint fees balance\n\tuint256 internal _payedMintFeesBalance;\n\n\t// mint fees value\n\tuint256 internal _ghostmarketMintFees;\n\n\tfunction initialize(string memory _name, string memory _symbol, string memory uri)\n        public\n        virtual\n        initializer\n    {\n\t\t__ERC1155_init_unchained(uri);\n\t\t__ERC1155PresetMinterPauser_init_unchained(uri);\n\t\t__Ownable_init_unchained();\n\t\tname = _name;\n\t\tsymbol = _symbol;\n\t}\n\n\tusing CountersUpgradeable for CountersUpgradeable.Counter;\n\n\t// _tokenIdTracker to generate automated token IDs\n\tCountersUpgradeable.Counter private _tokenIdTracker;\n\n    /**\n     * @dev check if msg.sender is owner of NFT id\n     */\n    function _ownerOf(uint256 tokenId)\n        internal\n        view\n        returns (bool)\n    {\n        return balanceOf(msg.sender, tokenId) != 0;\n    }\n\n\n    /**\n\t * @dev set a NFT royalties fees & recipients\n\t * fee basis points 10000 = 100%\n\t * emits RoyaltiesFeesSet event if set\n\t */\n\tfunction _saveRoyalties(uint256 tokenId, Royalty[] memory royalties)\n        internal\n    {\n\t\tfor (uint256 i = 0; i < royalties.length; i++) {\n\t\t\trequire(royalties[i].recipient != address(0x0), \"Recipient should be present\");\n\t\t\trequire(royalties[i].value > 0, \"Royalties value should be positive\");\n            require(royalties[i].value <= 50, \"Royalties value should not be more than 50%\");\n\t\t\t_royalties[tokenId].push(royalties[i]);\n\t\t\taddress[] memory recipients = new address[](royalties.length);\n\t\t\tuint256[] memory bps = new uint256[](royalties.length);\n\t\t\temit RoyaltiesFeesSet(tokenId, recipients, bps);\n\t\t}\n\t}\n\n    /**\n\t * @dev set a NFT custom attributes to contract storage\n\t * emits AttributesSet event\n\t */\n\tfunction _setMetadataJson(uint256 tokenId, string memory metadataJson)\n        internal\n    {\n\t\t_metadataJson[tokenId] = metadataJson;\n\t\temit AttributesSet(tokenId, metadataJson);\n\t}\n\n\t/**\n\t * @dev set a NFT locked content as string\n\t */\n\tfunction _setLockedContent(uint256 tokenId, string memory content)\n        internal\n    {\n\t\t_lockedContent[tokenId] = content;\n\t}\n\n\t/**\n\t * @dev check mint fees sent to contract\n\t * emits MintFeesPaid event if set\n\t */\n\tfunction _checkMintFees()\n        internal\n    {\n\t\tif (_ghostmarketMintFees > 0) {\n\t\t\trequire(msg.value == _ghostmarketMintFees, \"Wrong fees value sent to GhostMarket for mint fees\");\n\t\t}\n\t\tif (msg.value > 0) {\n\t\t\t_payedMintFeesBalance += msg.value;\n\t\t}\n\t}\n\n\t/**\n\t * @dev increment a NFT locked content view tracker\n\t */\n\tfunction _incrementCurrentLockedContentViewTracker(uint256 tokenId)\n        internal\n    {\n\t\t_lockedContentViewTracker[tokenId] = _lockedContentViewTracker[tokenId] + 1;\n\t}\n\n\t/**\n\t * @dev mint NFT, set royalties, set metadata json, set lockedcontent\n\t * emits Minted event\n\t */\n\tfunction mintGhost(address to, uint256 amount, bytes memory data, Royalty[] memory royalties, string memory externalURI, string memory metadata, string memory lockedcontent)\n        external\n        payable\n        nonReentrant\n    {\n\t\tmint(to, _tokenIdTracker.current(), amount, data);\n\t\tif (royalties.length > 0) {\n\t\t\t_saveRoyalties(_tokenIdTracker.current(), royalties);\n\t\t}\n\t\tif (keccak256(abi.encodePacked(metadata)) != keccak256(abi.encodePacked(\"\"))) {\n\t\t\t_setMetadataJson(_tokenIdTracker.current(), metadata);\n\t\t}\n\t\tif (keccak256(abi.encodePacked(lockedcontent)) != keccak256(abi.encodePacked(\"\"))) {\n\t\t\t_setLockedContent(_tokenIdTracker.current(), lockedcontent);\n\t\t}\n\t\t_checkMintFees();\n        require(keccak256(abi.encodePacked(externalURI)) != keccak256(abi.encodePacked(\"\")), \"externalURI can't be empty\");\n\t\temit Minted(to, _tokenIdTracker.current(), uri(_tokenIdTracker.current()), externalURI, amount, msg.value);\n\t\t_tokenIdTracker.increment();\n\t}\n\n\t/**\n\t * @dev withdraw contract balance\n\t * emits MintFeesWithdrawn event\n\t */\n\tfunction withdraw(uint256 withdrawAmount)\n        external\n        onlyOwner\n    {\n\t\trequire(withdrawAmount > 0 && withdrawAmount <= _payedMintFeesBalance, \"Withdraw amount should be greater then 0 and less then contract balance\");\n\t\t_payedMintFeesBalance -= withdrawAmount;\n\t\t(bool success, ) = msg.sender.call{value: withdrawAmount}(\"\");\n\t\trequire(success, \"Transfer failed.\");\n\t\temit MintFeesWithdrawn(msg.sender, withdrawAmount);\n\t}\n\n    /**\n\t * @dev sets Ghostmarket mint fees as uint256\n\t * emits MintFeesChanged event\n\t */\n\tfunction setGhostmarketMintFee(uint256 gmmf)\n        external\n    {\n\t\trequire(hasRole(DEFAULT_ADMIN_ROLE, _msgSender()), \"Caller must have admin role to set mint fees\");\n\t\t_ghostmarketMintFees = gmmf;\n\t\temit MintFeesChanged(_ghostmarketMintFees);\n\t}\n\n\t/**\n\t * @return get Ghostmarket mint fees\n\t */\n\tfunction getGhostmarketMintFees()\n        external\n        view\n        returns (uint256)\n    {\n\t\treturn _ghostmarketMintFees;\n\t}\n\n\t/**\n\t * @dev get locked content for a NFT\n\t * emits LockedContentViewed event\n\t */\n\tfunction getLockedContent(uint256 tokenId)\n        external\n    {\n        require(_ownerOf(tokenId), \"Caller must be the owner of the NFT\");\n\t\t_incrementCurrentLockedContentViewTracker(tokenId);\n\t\temit LockedContentViewed(msg.sender, tokenId, _lockedContent[tokenId]);\n\t}\n\n\t/**\n\t * @dev get a NFT current locked content view tracker\n\t */\n\tfunction getCurrentLockedContentViewTracker(uint256 tokenId)\n        external\n        view\n        returns (uint256)\n    {\n\t\treturn _lockedContentViewTracker[tokenId];\n\t}\n\n\t/**\n\t * @dev get a NFT custom attributes\n\t */\n\tfunction getMetadataJson(uint256 tokenId)\n        external\n        view\n        returns (string memory)\n    {\n\t\treturn _metadataJson[tokenId];\n\t}\n\n\t/**\n\t * @dev get a NFT royalties recipients\n\t */\n\tfunction getRoyaltiesRecipients(uint256 tokenId)\n        external\n        view\n        returns (address payable[] memory)\n    {\n\t\tRoyalty[] memory royalties = _royalties[tokenId];\n\t\taddress payable[] memory result = new address payable[](royalties.length);\n\t\tfor (uint256 i = 0; i < royalties.length; i++) {\n\t\t\tresult[i] = royalties[i].recipient;\n\t\t}\n\t\treturn result;\n\t}\n\n\t/**\n\t * @dev get a NFT royalties fees\n\t * fee basis points 10000 = 100%\n\t */\n\tfunction getRoyaltiesBps(uint256 tokenId)\n        external\n        view\n        returns (uint256[] memory)\n    {\n\t\tRoyalty[] memory royalties = _royalties[tokenId];\n\t\tuint256[] memory result = new uint256[](royalties.length);\n\t\tfor (uint256 i = 0; i < royalties.length; i++) {\n\t\t\tresult[i] = royalties[i].value;\n\t\t}\n\t\treturn result;\n\t}\n}\n",
  "sourcePath": "/Users/selimerunkut/dev_freelance/GhostMarketContractBSC/contracts/GhostmarketERC1155.sol",
  "compiler": {
    "name": "solc",
    "version": "0.8.3+commit.8d00100c.Emscripten.clang"
  },
  "schemaVersion": "3.4.1",
  "updatedAt": "2021-05-17T14:47:00.787Z",
  "devdoc": {
    "details": "ERC1155 token with minting, burning, pause, royalties & lock content functions.",
    "kind": "dev",
    "methods": {
      "balanceOf(address,uint256)": {
        "details": "See {IERC1155-balanceOf}. Requirements: - `account` cannot be the zero address."
      },
      "balanceOfBatch(address[],uint256[])": {
        "details": "See {IERC1155-balanceOfBatch}. Requirements: - `accounts` and `ids` must have the same length."
      },
      "getCurrentLockedContentViewTracker(uint256)": {
        "details": "get a NFT current locked content view tracker"
      },
      "getGhostmarketMintFees()": {
        "returns": {
          "_0": "get Ghostmarket mint fees"
        }
      },
      "getLockedContent(uint256)": {
        "details": "get locked content for a NFT emits LockedContentViewed event"
      },
      "getMetadataJson(uint256)": {
        "details": "get a NFT custom attributes"
      },
      "getRoleAdmin(bytes32)": {
        "details": "Returns the admin role that controls `role`. See {grantRole} and {revokeRole}. To change a role's admin, use {_setRoleAdmin}."
      },
      "getRoleMember(bytes32,uint256)": {
        "details": "Returns one of the accounts that have `role`. `index` must be a value between 0 and {getRoleMemberCount}, non-inclusive. Role bearers are not sorted in any particular way, and their ordering may change at any point. WARNING: When using {getRoleMember} and {getRoleMemberCount}, make sure you perform all queries on the same block. See the following https://forum.openzeppelin.com/t/iterating-over-elements-on-enumerableset-in-openzeppelin-contracts/2296[forum post] for more information."
      },
      "getRoleMemberCount(bytes32)": {
        "details": "Returns the number of accounts that have `role`. Can be used together with {getRoleMember} to enumerate all bearers of a role."
      },
      "getRoyaltiesBps(uint256)": {
        "details": "get a NFT royalties fees fee basis points 10000 = 100%"
      },
      "getRoyaltiesRecipients(uint256)": {
        "details": "get a NFT royalties recipients"
      },
      "grantRole(bytes32,address)": {
        "details": "Overload {grantRole} to track enumerable memberships"
      },
      "hasRole(bytes32,address)": {
        "details": "Returns `true` if `account` has been granted `role`."
      },
      "isApprovedForAll(address,address)": {
        "details": "See {IERC1155-isApprovedForAll}."
      },
      "mintGhost(address,uint256,bytes,(address,uint256)[],string,string,string)": {
        "details": "mint NFT, set royalties, set metadata json, set lockedcontent emits Minted event"
      },
      "owner()": {
        "details": "Returns the address of the current owner."
      },
      "pause()": {
        "details": "Pauses all token transfers. See {ERC1155Pausable} and {Pausable-_pause}. Requirements: - the caller must have the `PAUSER_ROLE`."
      },
      "paused()": {
        "details": "Returns true if the contract is paused, and false otherwise."
      },
      "renounceOwnership()": {
        "details": "Leaves the contract without owner. It will not be possible to call `onlyOwner` functions anymore. Can only be called by the current owner. NOTE: Renouncing ownership will leave the contract without an owner, thereby removing any functionality that is only available to the owner."
      },
      "renounceRole(bytes32,address)": {
        "details": "Overload {renounceRole} to track enumerable memberships"
      },
      "revokeRole(bytes32,address)": {
        "details": "Overload {revokeRole} to track enumerable memberships"
      },
      "safeBatchTransferFrom(address,address,uint256[],uint256[],bytes)": {
        "details": "See {IERC1155-safeBatchTransferFrom}."
      },
      "safeTransferFrom(address,address,uint256,uint256,bytes)": {
        "details": "See {IERC1155-safeTransferFrom}."
      },
      "setApprovalForAll(address,bool)": {
        "details": "See {IERC1155-setApprovalForAll}."
      },
      "setGhostmarketMintFee(uint256)": {
        "details": "sets Ghostmarket mint fees as uint256 emits MintFeesChanged event"
      },
      "supportsInterface(bytes4)": {
        "details": "See {IERC165-supportsInterface}."
      },
      "transferOwnership(address)": {
        "details": "Transfers ownership of the contract to a new account (`newOwner`). Can only be called by the current owner."
      },
      "unpause()": {
        "details": "Unpauses all token transfers. See {ERC1155Pausable} and {Pausable-_unpause}. Requirements: - the caller must have the `PAUSER_ROLE`."
      },
      "uri(uint256)": {
        "details": "See {IERC1155MetadataURI-uri}. This implementation returns the same URI for *all* token types. It relies on the token type ID substitution mechanism https://eips.ethereum.org/EIPS/eip-1155#metadata[defined in the EIP]. Clients calling this function must replace the `\\{id\\}` substring with the actual token type ID."
      },
      "withdraw(uint256)": {
        "details": "withdraw contract balance emits MintFeesWithdrawn event"
      }
    },
    "version": 1
  },
  "userdoc": {
    "kind": "user",
    "methods": {},
    "version": 1
  }
}