{
  "contractName": "GhostmarketERC721",
  "abi": [
    {
      "anonymous": false,
      "inputs": [
        {
          "indexed": true,
          "internalType": "address",
          "name": "owner",
          "type": "address"
        },
        {
          "indexed": true,
          "internalType": "address",
          "name": "approved",
          "type": "address"
        },
        {
          "indexed": true,
          "internalType": "uint256",
          "name": "tokenId",
          "type": "uint256"
        }
      ],
      "name": "Approval",
      "type": "event"
    },
    {
      "anonymous": false,
      "inputs": [
        {
          "indexed": true,
          "internalType": "address",
          "name": "owner",
          "type": "address"
        },
        {
          "indexed": true,
          "internalType": "address",
          "name": "operator",
          "type": "address"
        },
        {
          "indexed": false,
          "internalType": "bool",
          "name": "approved",
          "type": "bool"
        }
      ],
      "name": "ApprovalForAll",
      "type": "event"
    },
    {
      "anonymous": false,
      "inputs": [
        {
          "indexed": false,
          "internalType": "uint256",
          "name": "tokenId",
          "type": "uint256"
        },
        {
          "indexed": false,
          "internalType": "string",
          "name": "metadataJson",
          "type": "string"
        }
      ],
      "name": "AttributesSet",
      "type": "event"
    },
    {
      "anonymous": false,
      "inputs": [
        {
          "indexed": false,
          "internalType": "address",
          "name": "newValue",
          "type": "address"
        }
      ],
      "name": "GhostmarketFeeAddressChanged",
      "type": "event"
    },
    {
      "anonymous": false,
      "inputs": [
        {
          "indexed": false,
          "internalType": "uint256",
          "name": "newValue",
          "type": "uint256"
        }
      ],
      "name": "GhostmarketFeeMultiplierChanged",
      "type": "event"
    },
    {
      "anonymous": false,
      "inputs": [
        {
          "indexed": false,
          "internalType": "address",
          "name": "sender",
          "type": "address"
        },
        {
          "indexed": false,
          "internalType": "uint256",
          "name": "value",
          "type": "uint256"
        }
      ],
      "name": "GhostmarketFeePaid",
      "type": "event"
    },
    {
      "anonymous": false,
      "inputs": [
        {
          "indexed": false,
          "internalType": "uint256",
          "name": "newValue",
          "type": "uint256"
        }
      ],
      "name": "GhostmarketMintFeeChanged",
      "type": "event"
    },
    {
      "anonymous": false,
      "inputs": [
        {
          "indexed": false,
          "internalType": "address",
          "name": "msgSender",
          "type": "address"
        },
        {
          "indexed": false,
          "internalType": "uint256",
          "name": "tokenId",
          "type": "uint256"
        },
        {
          "indexed": false,
          "internalType": "string",
          "name": "lockedContent",
          "type": "string"
        }
      ],
      "name": "LockedContentViewed",
      "type": "event"
    },
    {
      "anonymous": false,
      "inputs": [
        {
          "indexed": false,
          "internalType": "address",
          "name": "toAddress",
          "type": "address"
        },
        {
          "indexed": false,
          "internalType": "uint256",
          "name": "tokenId",
          "type": "uint256"
        },
        {
          "indexed": false,
          "internalType": "string",
          "name": "tokenURI",
          "type": "string"
        }
      ],
      "name": "Minted",
      "type": "event"
    },
    {
      "anonymous": false,
      "inputs": [
        {
          "indexed": false,
          "internalType": "address",
          "name": "account",
          "type": "address"
        }
      ],
      "name": "Paused",
      "type": "event"
    },
    {
      "anonymous": false,
      "inputs": [
        {
          "indexed": true,
          "internalType": "bytes32",
          "name": "role",
          "type": "bytes32"
        },
        {
          "indexed": true,
          "internalType": "bytes32",
          "name": "previousAdminRole",
          "type": "bytes32"
        },
        {
          "indexed": true,
          "internalType": "bytes32",
          "name": "newAdminRole",
          "type": "bytes32"
        }
      ],
      "name": "RoleAdminChanged",
      "type": "event"
    },
    {
      "anonymous": false,
      "inputs": [
        {
          "indexed": true,
          "internalType": "bytes32",
          "name": "role",
          "type": "bytes32"
        },
        {
          "indexed": true,
          "internalType": "address",
          "name": "account",
          "type": "address"
        },
        {
          "indexed": true,
          "internalType": "address",
          "name": "sender",
          "type": "address"
        }
      ],
      "name": "RoleGranted",
      "type": "event"
    },
    {
      "anonymous": false,
      "inputs": [
        {
          "indexed": true,
          "internalType": "bytes32",
          "name": "role",
          "type": "bytes32"
        },
        {
          "indexed": true,
          "internalType": "address",
          "name": "account",
          "type": "address"
        },
        {
          "indexed": true,
          "internalType": "address",
          "name": "sender",
          "type": "address"
        }
      ],
      "name": "RoleRevoked",
      "type": "event"
    },
    {
      "anonymous": false,
      "inputs": [
        {
          "indexed": false,
          "internalType": "uint256",
          "name": "tokenId",
          "type": "uint256"
        },
        {
          "indexed": false,
          "internalType": "address[]",
          "name": "recipients",
          "type": "address[]"
        },
        {
          "indexed": false,
          "internalType": "uint256[]",
          "name": "bps",
          "type": "uint256[]"
        }
      ],
      "name": "SecondarySaleFees",
      "type": "event"
    },
    {
      "anonymous": false,
      "inputs": [
        {
          "indexed": true,
          "internalType": "address",
          "name": "from",
          "type": "address"
        },
        {
          "indexed": true,
          "internalType": "address",
          "name": "to",
          "type": "address"
        },
        {
          "indexed": true,
          "internalType": "uint256",
          "name": "tokenId",
          "type": "uint256"
        }
      ],
      "name": "Transfer",
      "type": "event"
    },
    {
      "anonymous": false,
      "inputs": [
        {
          "indexed": false,
          "internalType": "address",
          "name": "account",
          "type": "address"
        }
      ],
      "name": "Unpaused",
      "type": "event"
    },
    {
      "inputs": [],
      "name": "DEFAULT_ADMIN_ROLE",
      "outputs": [
        {
          "internalType": "bytes32",
          "name": "",
          "type": "bytes32"
        }
      ],
      "stateMutability": "view",
      "type": "function"
    },
    {
      "inputs": [],
      "name": "MINTER_ROLE",
      "outputs": [
        {
          "internalType": "bytes32",
          "name": "",
          "type": "bytes32"
        }
      ],
      "stateMutability": "view",
      "type": "function"
    },
    {
      "inputs": [],
      "name": "PAUSER_ROLE",
      "outputs": [
        {
          "internalType": "bytes32",
          "name": "",
          "type": "bytes32"
        }
      ],
      "stateMutability": "view",
      "type": "function"
    },
    {
      "inputs": [
        {
          "internalType": "uint256",
          "name": "",
          "type": "uint256"
        }
      ],
      "name": "_lockedContent",
      "outputs": [
        {
          "internalType": "string",
          "name": "",
          "type": "string"
        }
      ],
      "stateMutability": "view",
      "type": "function"
    },
    {
      "inputs": [
        {
          "internalType": "address",
          "name": "to",
          "type": "address"
        },
        {
          "internalType": "uint256",
          "name": "tokenId",
          "type": "uint256"
        }
      ],
      "name": "approve",
      "outputs": [],
      "stateMutability": "nonpayable",
      "type": "function"
    },
    {
      "inputs": [
        {
          "internalType": "address",
          "name": "owner",
          "type": "address"
        }
      ],
      "name": "balanceOf",
      "outputs": [
        {
          "internalType": "uint256",
          "name": "",
          "type": "uint256"
        }
      ],
      "stateMutability": "view",
      "type": "function"
    },
    {
      "inputs": [
        {
          "internalType": "uint256",
          "name": "tokenId",
          "type": "uint256"
        }
      ],
      "name": "burn",
      "outputs": [],
      "stateMutability": "nonpayable",
      "type": "function"
    },
    {
      "inputs": [
        {
          "internalType": "uint256",
          "name": "",
          "type": "uint256"
        },
        {
          "internalType": "uint256",
          "name": "",
          "type": "uint256"
        }
      ],
      "name": "fees",
      "outputs": [
        {
          "internalType": "address payable",
          "name": "recipient",
          "type": "address"
        },
        {
          "internalType": "uint256",
          "name": "value",
          "type": "uint256"
        }
      ],
      "stateMutability": "view",
      "type": "function"
    },
    {
      "inputs": [
        {
          "internalType": "uint256",
          "name": "tokenId",
          "type": "uint256"
        }
      ],
      "name": "getApproved",
      "outputs": [
        {
          "internalType": "address",
          "name": "",
          "type": "address"
        }
      ],
      "stateMutability": "view",
      "type": "function"
    },
    {
      "inputs": [],
      "name": "getCurrentCounter",
      "outputs": [
        {
          "internalType": "uint256",
          "name": "",
          "type": "uint256"
        }
      ],
      "stateMutability": "view",
      "type": "function"
    },
    {
      "inputs": [],
      "name": "getLastTokenID",
      "outputs": [
        {
          "internalType": "uint256",
          "name": "",
          "type": "uint256"
        }
      ],
      "stateMutability": "view",
      "type": "function"
    },
    {
      "inputs": [
        {
          "internalType": "bytes32",
          "name": "role",
          "type": "bytes32"
        }
      ],
      "name": "getRoleAdmin",
      "outputs": [
        {
          "internalType": "bytes32",
          "name": "",
          "type": "bytes32"
        }
      ],
      "stateMutability": "view",
      "type": "function"
    },
    {
      "inputs": [
        {
          "internalType": "bytes32",
          "name": "role",
          "type": "bytes32"
        },
        {
          "internalType": "uint256",
          "name": "index",
          "type": "uint256"
        }
      ],
      "name": "getRoleMember",
      "outputs": [
        {
          "internalType": "address",
          "name": "",
          "type": "address"
        }
      ],
      "stateMutability": "view",
      "type": "function"
    },
    {
      "inputs": [
        {
          "internalType": "bytes32",
          "name": "role",
          "type": "bytes32"
        }
      ],
      "name": "getRoleMemberCount",
      "outputs": [
        {
          "internalType": "uint256",
          "name": "",
          "type": "uint256"
        }
      ],
      "stateMutability": "view",
      "type": "function"
    },
    {
      "inputs": [
        {
          "internalType": "bytes32",
          "name": "role",
          "type": "bytes32"
        },
        {
          "internalType": "address",
          "name": "account",
          "type": "address"
        }
      ],
      "name": "grantRole",
      "outputs": [],
      "stateMutability": "nonpayable",
      "type": "function"
    },
    {
      "inputs": [
        {
          "internalType": "bytes32",
          "name": "role",
          "type": "bytes32"
        },
        {
          "internalType": "address",
          "name": "account",
          "type": "address"
        }
      ],
      "name": "hasRole",
      "outputs": [
        {
          "internalType": "bool",
          "name": "",
          "type": "bool"
        }
      ],
      "stateMutability": "view",
      "type": "function"
    },
    {
      "inputs": [
        {
          "internalType": "address",
          "name": "owner",
          "type": "address"
        },
        {
          "internalType": "address",
          "name": "operator",
          "type": "address"
        }
      ],
      "name": "isApprovedForAll",
      "outputs": [
        {
          "internalType": "bool",
          "name": "",
          "type": "bool"
        }
      ],
      "stateMutability": "view",
      "type": "function"
    },
    {
      "inputs": [
        {
          "internalType": "address",
          "name": "to",
          "type": "address"
        }
      ],
      "name": "mint",
      "outputs": [],
      "stateMutability": "nonpayable",
      "type": "function"
    },
    {
      "inputs": [
        {
          "internalType": "address",
          "name": "to",
          "type": "address"
        },
        {
          "internalType": "uint256",
          "name": "tokenId",
          "type": "uint256"
        },
        {
          "internalType": "string",
          "name": "uri",
          "type": "string"
        }
      ],
      "name": "mintWithURI",
      "outputs": [],
      "stateMutability": "nonpayable",
      "type": "function"
    },
    {
      "inputs": [],
      "name": "name",
      "outputs": [
        {
          "internalType": "string",
          "name": "",
          "type": "string"
        }
      ],
      "stateMutability": "view",
      "type": "function"
    },
    {
      "inputs": [
        {
          "internalType": "uint256",
          "name": "tokenId",
          "type": "uint256"
        }
      ],
      "name": "ownerOf",
      "outputs": [
        {
          "internalType": "address",
          "name": "",
          "type": "address"
        }
      ],
      "stateMutability": "view",
      "type": "function"
    },
    {
      "inputs": [],
      "name": "pause",
      "outputs": [],
      "stateMutability": "nonpayable",
      "type": "function"
    },
    {
      "inputs": [],
      "name": "paused",
      "outputs": [
        {
          "internalType": "bool",
          "name": "",
          "type": "bool"
        }
      ],
      "stateMutability": "view",
      "type": "function"
    },
    {
      "inputs": [
        {
          "internalType": "bytes32",
          "name": "role",
          "type": "bytes32"
        },
        {
          "internalType": "address",
          "name": "account",
          "type": "address"
        }
      ],
      "name": "renounceRole",
      "outputs": [],
      "stateMutability": "nonpayable",
      "type": "function"
    },
    {
      "inputs": [
        {
          "internalType": "bytes32",
          "name": "role",
          "type": "bytes32"
        },
        {
          "internalType": "address",
          "name": "account",
          "type": "address"
        }
      ],
      "name": "revokeRole",
      "outputs": [],
      "stateMutability": "nonpayable",
      "type": "function"
    },
    {
      "inputs": [
        {
          "internalType": "address",
          "name": "from",
          "type": "address"
        },
        {
          "internalType": "address",
          "name": "to",
          "type": "address"
        },
        {
          "internalType": "uint256",
          "name": "tokenId",
          "type": "uint256"
        }
      ],
      "name": "safeTransferFrom",
      "outputs": [],
      "stateMutability": "nonpayable",
      "type": "function"
    },
    {
      "inputs": [
        {
          "internalType": "address",
          "name": "from",
          "type": "address"
        },
        {
          "internalType": "address",
          "name": "to",
          "type": "address"
        },
        {
          "internalType": "uint256",
          "name": "tokenId",
          "type": "uint256"
        },
        {
          "internalType": "bytes",
          "name": "_data",
          "type": "bytes"
        }
      ],
      "name": "safeTransferFrom",
      "outputs": [],
      "stateMutability": "nonpayable",
      "type": "function"
    },
    {
      "inputs": [
        {
          "internalType": "address",
          "name": "operator",
          "type": "address"
        },
        {
          "internalType": "bool",
          "name": "approved",
          "type": "bool"
        }
      ],
      "name": "setApprovalForAll",
      "outputs": [],
      "stateMutability": "nonpayable",
      "type": "function"
    },
    {
      "inputs": [
        {
          "internalType": "string",
          "name": "baseTokenURI",
          "type": "string"
        }
      ],
      "name": "setBaseTokenURI",
      "outputs": [],
      "stateMutability": "nonpayable",
      "type": "function"
    },
    {
      "inputs": [
        {
          "internalType": "bytes4",
          "name": "interfaceId",
          "type": "bytes4"
        }
      ],
      "name": "supportsInterface",
      "outputs": [
        {
          "internalType": "bool",
          "name": "",
          "type": "bool"
        }
      ],
      "stateMutability": "view",
      "type": "function"
    },
    {
      "inputs": [],
      "name": "symbol",
      "outputs": [
        {
          "internalType": "string",
          "name": "",
          "type": "string"
        }
      ],
      "stateMutability": "view",
      "type": "function"
    },
    {
      "inputs": [
        {
          "internalType": "uint256",
          "name": "index",
          "type": "uint256"
        }
      ],
      "name": "tokenByIndex",
      "outputs": [
        {
          "internalType": "uint256",
          "name": "",
          "type": "uint256"
        }
      ],
      "stateMutability": "view",
      "type": "function"
    },
    {
      "inputs": [
        {
          "internalType": "address",
          "name": "owner",
          "type": "address"
        },
        {
          "internalType": "uint256",
          "name": "index",
          "type": "uint256"
        }
      ],
      "name": "tokenOfOwnerByIndex",
      "outputs": [
        {
          "internalType": "uint256",
          "name": "",
          "type": "uint256"
        }
      ],
      "stateMutability": "view",
      "type": "function"
    },
    {
      "inputs": [
        {
          "internalType": "uint256",
          "name": "tokenId",
          "type": "uint256"
        }
      ],
      "name": "tokenURI",
      "outputs": [
        {
          "internalType": "string",
          "name": "",
          "type": "string"
        }
      ],
      "stateMutability": "view",
      "type": "function"
    },
    {
      "inputs": [],
      "name": "totalSupply",
      "outputs": [
        {
          "internalType": "uint256",
          "name": "",
          "type": "uint256"
        }
      ],
      "stateMutability": "view",
      "type": "function"
    },
    {
      "inputs": [
        {
          "internalType": "address",
          "name": "from",
          "type": "address"
        },
        {
          "internalType": "address",
          "name": "to",
          "type": "address"
        },
        {
          "internalType": "uint256",
          "name": "tokenId",
          "type": "uint256"
        }
      ],
      "name": "transferFrom",
      "outputs": [],
      "stateMutability": "nonpayable",
      "type": "function"
    },
    {
      "inputs": [],
      "name": "unpause",
      "outputs": [],
      "stateMutability": "nonpayable",
      "type": "function"
    },
    {
      "inputs": [
        {
          "internalType": "string",
          "name": "name",
          "type": "string"
        },
        {
          "internalType": "string",
          "name": "symbol",
          "type": "string"
        },
        {
          "internalType": "string",
          "name": "uri",
          "type": "string"
        }
      ],
      "name": "initialize",
      "outputs": [],
      "stateMutability": "nonpayable",
      "type": "function"
    },
    {
      "inputs": [
        {
          "internalType": "uint256",
          "name": "tokenId",
          "type": "uint256"
        }
      ],
      "name": "getMetadataJson",
      "outputs": [
        {
          "internalType": "string",
          "name": "",
          "type": "string"
        }
      ],
      "stateMutability": "view",
      "type": "function"
    },
    {
      "inputs": [
        {
          "internalType": "uint256",
          "name": "_tokenId",
          "type": "uint256"
        }
      ],
      "name": "getFeeRecipients",
      "outputs": [
        {
          "internalType": "address payable[]",
          "name": "",
          "type": "address[]"
        }
      ],
      "stateMutability": "view",
      "type": "function"
    },
    {
      "inputs": [
        {
          "internalType": "uint256",
          "name": "_tokenId",
          "type": "uint256"
        }
      ],
      "name": "getFeeBps",
      "outputs": [
        {
          "internalType": "uint256[]",
          "name": "",
          "type": "uint256[]"
        }
      ],
      "stateMutability": "view",
      "type": "function"
    },
    {
      "inputs": [
        {
          "internalType": "address",
          "name": "_to",
          "type": "address"
        },
        {
          "components": [
            {
              "internalType": "address payable",
              "name": "recipient",
              "type": "address"
            },
            {
              "internalType": "uint256",
              "name": "value",
              "type": "uint256"
            }
          ],
          "internalType": "struct GhostmarketERC721.Fee[]",
          "name": "_fees",
          "type": "tuple[]"
        },
        {
          "internalType": "string",
          "name": "metadata",
          "type": "string"
        },
        {
          "internalType": "string",
          "name": "lockedcontent",
          "type": "string"
        }
      ],
      "name": "mintGhost",
      "outputs": [],
      "stateMutability": "payable",
      "type": "function"
    },
    {
      "inputs": [
        {
          "internalType": "address payable",
          "name": "gmfa",
          "type": "address"
        }
      ],
      "name": "setGhostmarketFeeAddress",
      "outputs": [],
      "stateMutability": "nonpayable",
      "type": "function"
    },
    {
      "inputs": [
        {
          "internalType": "uint256",
          "name": "gmmf",
          "type": "uint256"
        }
      ],
      "name": "setGhostmarketMintFee",
      "outputs": [],
      "stateMutability": "nonpayable",
      "type": "function"
    },
    {
      "inputs": [],
      "name": "ghostmarketFeeAddress",
      "outputs": [
        {
          "internalType": "address payable",
          "name": "",
          "type": "address"
        }
      ],
      "stateMutability": "view",
      "type": "function"
    },
    {
      "inputs": [],
      "name": "ghostmarketMintingFee",
      "outputs": [
        {
          "internalType": "uint256",
          "name": "",
          "type": "uint256"
        }
      ],
      "stateMutability": "view",
      "type": "function"
    },
    {
      "inputs": [
        {
          "internalType": "uint256",
          "name": "_tokenId",
          "type": "uint256"
        }
      ],
      "name": "getLockedContent",
      "outputs": [],
      "stateMutability": "nonpayable",
      "type": "function"
    },
    {
      "inputs": [
        {
          "internalType": "uint256",
          "name": "_tokenId",
          "type": "uint256"
        }
      ],
      "name": "getCurrentLockedContentViewTracker",
      "outputs": [
        {
          "internalType": "uint256",
          "name": "",
          "type": "uint256"
        }
      ],
      "stateMutability": "view",
      "type": "function"
    }
  ],
  "bytecode": "0x608060405234801561001057600080fd5b50614664806100206000396000f3fe6080604052600436106103135760003560e01c80636352211e1161019a578063b9c4d9fb116100e1578063dac0f3d91161008a578063f7d027de11610064578063f7d027de1461095a578063fb3e09af1461097a578063fc24a8a91461099957610313565b8063dac0f3d9146108bd578063e63ab1e9146108dd578063e985e9c51461091157610313565b8063ca15c873116100bb578063ca15c87314610849578063d539139314610869578063d547741f1461089d57610313565b8063b9c4d9fb146107ce578063c6f4f0f0146107fb578063c87b56dd1461082957610313565b806391d1485411610143578063a22cb4651161011d578063a22cb4651461076e578063a6487c531461078e578063b88d4fde146107ae57610313565b806391d14854146106fe57806395d89b4114610744578063a217fddf1461075957610313565b806373448c461161017457806373448c46146106b45780638456cb59146106c95780639010d07c146106de57610313565b80636352211e146106545780636a6278421461067457806370a082311461069457610313565b806330176e131161025e5780634f6ccce7116102075780635c975abb116101e15780635c975abb146105e65780636213801f146105ff5780636308f1cd1461061557610313565b80634f6ccce714610593578063529aae66146105b35780635a252ffe146105d357610313565b806342842e0e1161023857806342842e0e1461053357806342966c68146105535780634a99950b1461057357610313565b806330176e13146104de57806336568abe146104fe5780633f4ba83a1461051e57610313565b806318160ddd116102c0578063248a9ca31161029a578063248a9ca31461046e5780632f2ff15d1461049e5780632f745c59146104be57610313565b806318160ddd146104195780631c7e78f31461042e57806323b872dd1461044e57610313565b8063095ea7b3116102f1578063095ea7b3146103a75780630e094137146103c95780630ebd4c7f146103ec57610313565b806301ffc9a71461031857806306fdde031461034d578063081812fc1461036f575b600080fd5b34801561032457600080fd5b50610338610333366004614100565b6109b9565b60405190151581526020015b60405180910390f35b34801561035957600080fd5b506103626109cc565b6040516103449190614422565b34801561037b57600080fd5b5061038f61038a3660046140a3565b610a5f565b6040516001600160a01b039091168152602001610344565b3480156103b357600080fd5b506103c76103c2366004614021565b610af9565b005b3480156103d557600080fd5b506103de610c2b565b604051908152602001610344565b3480156103f857600080fd5b5061040c6104073660046140a3565b610c5d565b604051610344919061440f565b34801561042557600080fd5b5060fd546103de565b34801561043a57600080fd5b506103c76104493660046140a3565b610daa565b34801561045a57600080fd5b506103c7610469366004613e10565b610e86565b34801561047a57600080fd5b506103de6104893660046140a3565b60009081526065602052604090206001015490565b3480156104aa57600080fd5b506103c76104b93660046140bb565b610f0e565b3480156104ca57600080fd5b506103de6104d9366004614021565b610f30565b3480156104ea57600080fd5b506103c76104f9366004614138565b610fdb565b34801561050a57600080fd5b506103c76105193660046140bb565b611070565b34801561052a57600080fd5b506103c7611092565b34801561053f57600080fd5b506103c761054e366004613e10565b61113a565b34801561055f57600080fd5b506103c761056e3660046140a3565b611155565b34801561057f57600080fd5b506103c761058e36600461404c565b6111dc565b34801561059f57600080fd5b506103de6105ae3660046140a3565b611255565b3480156105bf57600080fd5b506103626105ce3660046140a3565b611307565b6103c76105e1366004613ecd565b6113a2565b3480156105f257600080fd5b5061015f5460ff16610338565b34801561060b57600080fd5b5061025d546103de565b34801561062157600080fd5b506106356106303660046140df565b6115f8565b604080516001600160a01b039093168352602083019190915201610344565b34801561066057600080fd5b5061038f61066f3660046140a3565b61163f565b34801561068057600080fd5b506103c761068f366004613dbc565b6116ca565b3480156106a057600080fd5b506103de6106af366004613dbc565b6116ec565b3480156106c057600080fd5b506103de611786565b3480156106d557600080fd5b506103c7611797565b3480156106ea57600080fd5b5061038f6106f93660046140df565b61183b565b34801561070a57600080fd5b506103386107193660046140bb565b60009182526065602090815260408084206001600160a01b0393909316845291905290205460ff1690565b34801561075057600080fd5b5061036261185a565b34801561076557600080fd5b506103de600081565b34801561077a57600080fd5b506103c7610789366004613ff0565b611869565b34801561079a57600080fd5b506103c76107a936600461416b565b61193b565b3480156107ba57600080fd5b506103c76107c9366004613e50565b611a04565b3480156107da57600080fd5b506107ee6107e93660046140a3565b611a8c565b60405161034491906143c2565b34801561080757600080fd5b506103de6108163660046140a3565b600090815261025c602052604090205490565b34801561083557600080fd5b506103626108443660046140a3565b611bde565b34801561085557600080fd5b506103de6108643660046140a3565b611be9565b34801561087557600080fd5b506103de7f9f2df0fed2c77648de5860a4cc508cd0818c85b8b8a1ab4ceeef8d981c8956a681565b3480156108a957600080fd5b506103c76108b83660046140bb565b611c00565b3480156108c957600080fd5b506103c76108d83660046140a3565b611c0a565b3480156108e957600080fd5b506103de7f65d7a28e3265b37a6474929f336521b332c1681b933f6cb9f3376673440d862a81565b34801561091d57600080fd5b5061033861092c366004613dd8565b6001600160a01b03918216600090815260ce6020908152604080832093909416825291909152205460ff1690565b34801561096657600080fd5b506103626109753660046140a3565b611cbd565b34801561098657600080fd5b5061025e546001600160a01b031661038f565b3480156109a557600080fd5b506103c76109b4366004613dbc565b611d60565b60006109c482611e39565b90505b919050565b606060c980546109db90614557565b80601f0160208091040260200160405190810160405280929190818152602001828054610a0790614557565b8015610a545780601f10610a2957610100808354040283529160200191610a54565b820191906000526020600020905b815481529060010190602001808311610a3757829003601f168201915b505050505090505b90565b600081815260cb60205260408120546001600160a01b0316610add5760405162461bcd60e51b815260206004820152602c60248201527f4552433732313a20617070726f76656420717565727920666f72206e6f6e657860448201526b34b9ba32b73a103a37b5b2b760a11b60648201526084015b60405180910390fd5b50600090815260cd60205260409020546001600160a01b031690565b6000610b048261163f565b9050806001600160a01b0316836001600160a01b03161415610b8e5760405162461bcd60e51b815260206004820152602160248201527f4552433732313a20617070726f76616c20746f2063757272656e74206f776e6560448201527f72000000000000000000000000000000000000000000000000000000000000006064820152608401610ad4565b336001600160a01b0382161480610baa5750610baa813361092c565b610c1c5760405162461bcd60e51b815260206004820152603860248201527f4552433732313a20617070726f76652063616c6c6572206973206e6f74206f7760448201527f6e6572206e6f7220617070726f76656420666f7220616c6c00000000000000006064820152608401610ad4565b610c268383611e77565b505050565b6000610c376101f55490565b610c47576101f5545b9050610a5c565b6001610c536101f55490565b610c409190614514565b600081815261025a60209081526040808320805482518185028101850190935280835260609493849084015b82821015610cd1576000848152602090819020604080518082019091526002850290910180546001600160a01b03168252600190810154828401529083529092019101610c89565b5050505090506000815167ffffffffffffffff811115610d0157634e487b7160e01b600052604160045260246000fd5b604051908082528060200260200182016040528015610d2a578160200160208202803683370190505b50905060005b8251811015610da257828181518110610d5957634e487b7160e01b600052603260045260246000fd5b602002602001015160200151828281518110610d8557634e487b7160e01b600052603260045260246000fd5b602090810291909101015280610d9a81614592565b915050610d30565b509392505050565b33610db48261163f565b6001600160a01b031614610e305760405162461bcd60e51b815260206004820152602360248201527f43616c6c6572206d75737420626520746865206f776e6572206f66207468652060448201527f4e465400000000000000000000000000000000000000000000000000000000006064820152608401610ad4565b610e3981611ef2565b600081815261025b60205260409081902090517f544b1d1249133c50ce89743ed1ca34a815bd50d42b71e6d331a1ac560013a8ec91610e7b9133918591614303565b60405180910390a150565b610e91335b82611f20565b610f035760405162461bcd60e51b815260206004820152603160248201527f4552433732313a207472616e736665722063616c6c6572206973206e6f74206f60448201527f776e6572206e6f7220617070726f7665640000000000000000000000000000006064820152608401610ad4565b610c26838383612017565b610f1882826121fc565b6000828152609760205260409020610c269082612295565b6000610f3b836116ec565b8210610faf5760405162461bcd60e51b815260206004820152602b60248201527f455243373231456e756d657261626c653a206f776e657220696e646578206f7560448201527f74206f6620626f756e64730000000000000000000000000000000000000000006064820152608401610ad4565b506001600160a01b038216600090815260fb602090815260408083208484529091529020545b92915050565b610fe6600033610719565b6110585760405162461bcd60e51b815260206004820152603460248201527f73657442617365546f6b656e5552493a206d75737420686176652041444d494e60448201527f20726f6c6520746f206368616e676520746869730000000000000000000000006064820152608401610ad4565b805161106c906101f6906020840190613c74565b5050565b61107a82826122aa565b6000828152609760205260409020610c269082612332565b6110bc7f65d7a28e3265b37a6474929f336521b332c1681b933f6cb9f3376673440d862a33610719565b611130576040805162461bcd60e51b81526020600482015260248101919091527f4552433732315072657365744d696e7465725061757365724175746f49643a2060448201527f6d75737420686176652070617573657220726f6c6520746f20756e70617573656064820152608401610ad4565b611138612347565b565b610c2683838360405180602001604052806000815250611a04565b61115e33610e8b565b6111d05760405162461bcd60e51b815260206004820152603060248201527f4552433732314275726e61626c653a2063616c6c6572206973206e6f74206f7760448201527f6e6572206e6f7220617070726f766564000000000000000000000000000000006064820152608401610ad4565b6111d9816123e5565b50565b600082815260cb60205260409020546001600160a01b0316156112415760405162461bcd60e51b815260206004820152601660248201527f746f6b656e20696420616c7265616479206578697374000000000000000000006044820152606401610ad4565b61124b83836123f7565b610c268282612401565b600061126060fd5490565b82106112d45760405162461bcd60e51b815260206004820152602c60248201527f455243373231456e756d657261626c653a20676c6f62616c20696e646578206f60448201527f7574206f6620626f756e647300000000000000000000000000000000000000006064820152608401610ad4565b60fd82815481106112f557634e487b7160e01b600052603260045260246000fd5b90600052602060002001549050919050565b61025b602052600090815260409020805461132190614557565b80601f016020809104026020016040519081016040528092919081815260200182805461134d90614557565b801561139a5780601f1061136f5761010080835404028352916020019161139a565b820191906000526020600020905b81548152906001019060200180831161137d57829003601f168201915b505050505081565b60026102275414156113f65760405162461bcd60e51b815260206004820152601f60248201527f5265656e7472616e637947756172643a207265656e7472616e742063616c6c006044820152606401610ad4565b600261022755611405846116ca565b600061140f610c2b565b90506000845167ffffffffffffffff81111561143b57634e487b7160e01b600052604160045260246000fd5b604051908082528060200260200182016040528015611464578160200160208202803683370190505b5090506000855167ffffffffffffffff81111561149157634e487b7160e01b600052604160045260246000fd5b6040519080825280602002602001820160405280156114ba578160200160208202803683370190505b5086519091501561150b576114cf838761240b565b7f99aba1d63749cfd5ad1afda7c4663840924d54eb5f005bbbeadedc6ec13674b283838360405161150293929190614435565b60405180910390a15b604080516000815260208101808352815190209161152b9188910161424b565b6040516020818303038152906040528051906020012014611550576115508386612632565b60408051600081526020810180835281519020916115709187910161424b565b6040516020818303038152906040528051906020012014611595576115958385612690565b61025d54156115a6576115a66126b0565b7fe7cd4ce7f2a465edc730269a1305e8a48bad821e8fb7e152ec413829c01a53c487846115d286611bde565b6040516115e1939291906142d2565b60405180910390a150506001610227555050505050565b61025a602052816000526040600020818154811061161557600080fd5b6000918252602090912060029091020180546001909101546001600160a01b039091169250905082565b600081815260cb60205260408120546001600160a01b0316806109c45760405162461bcd60e51b815260206004820152602960248201527f4552433732313a206f776e657220717565727920666f72206e6f6e657869737460448201527f656e7420746f6b656e00000000000000000000000000000000000000000000006064820152608401610ad4565b6116dd816116d86101f55490565b61288a565b6111d96101f580546001019055565b60006001600160a01b03821661176a5760405162461bcd60e51b815260206004820152602a60248201527f4552433732313a2062616c616e636520717565727920666f7220746865207a6560448201527f726f2061646472657373000000000000000000000000000000000000000000006064820152608401610ad4565b506001600160a01b0316600090815260cc602052604090205490565b60006117926101f55490565b905090565b6117c17f65d7a28e3265b37a6474929f336521b332c1681b933f6cb9f3376673440d862a33610719565b6118335760405162461bcd60e51b815260206004820152603e60248201527f4552433732315072657365744d696e7465725061757365724175746f49643a2060448201527f6d75737420686176652070617573657220726f6c6520746f20706175736500006064820152608401610ad4565b6111386129e5565b60008281526097602052604081206118539083612a6f565b9392505050565b606060ca80546109db90614557565b6001600160a01b0382163314156118c25760405162461bcd60e51b815260206004820152601960248201527f4552433732313a20617070726f766520746f2063616c6c6572000000000000006044820152606401610ad4565b33600081815260ce602090815260408083206001600160a01b0387168085529252909120805460ff1916841515179055906001600160a01b03167f17307eab39ab6107e8899845ad3d59bd9653f200f220920489ca2b5937696c318360405161192f911515815260200190565b60405180910390a35050565b600054610100900460ff1680611954575060005460ff16155b6119b75760405162461bcd60e51b815260206004820152602e60248201527f496e697469616c697a61626c653a20636f6e747261637420697320616c72656160448201526d191e481a5b9a5d1a585b1a5e995960921b6064820152608401610ad4565b600054610100900460ff161580156119d9576000805461ffff19166101011790555b6119e38484612a7b565b6119ec82612b57565b80156119fe576000805461ff00191690555b50505050565b611a0e3383611f20565b611a805760405162461bcd60e51b815260206004820152603160248201527f4552433732313a207472616e736665722063616c6c6572206973206e6f74206f60448201527f776e6572206e6f7220617070726f7665640000000000000000000000000000006064820152608401610ad4565b6119fe84848484612c7f565b600081815261025a60209081526040808320805482518185028101850190935280835260609493849084015b82821015611b00576000848152602090819020604080518082019091526002850290910180546001600160a01b03168252600190810154828401529083529092019101611ab8565b5050505090506000815167ffffffffffffffff811115611b3057634e487b7160e01b600052604160045260246000fd5b604051908082528060200260200182016040528015611b59578160200160208202803683370190505b50905060005b8251811015610da257828181518110611b8857634e487b7160e01b600052603260045260246000fd5b602002602001015160000151828281518110611bb457634e487b7160e01b600052603260045260246000fd5b6001600160a01b039092166020928302919091019091015280611bd681614592565b915050611b5f565b60606109c482612d08565b60008181526097602052604081206109c490612e88565b61107a8282612e92565b611c15600033610719565b611c875760405162461bcd60e51b815260206004820152603660248201527f43616c6c6572206d75737420686176652061646d696e20726f6c6520746f207360448201527f6574206d696e74696e67206665652070657263656e74000000000000000000006064820152608401610ad4565b61025d8190556040518181527fe28e57f6cdaccbb98c150b646656c0178b4b67253ae73deaba3b9c76525b987e90602001610e7b565b600081815261025960205260409020805460609190611cdb90614557565b80601f0160208091040260200160405190810160405280929190818152602001828054611d0790614557565b8015611d545780601f10611d2957610100808354040283529160200191611d54565b820191906000526020600020905b815481529060010190602001808311611d3757829003601f168201915b50505050509050919050565b611d6b600033610719565b611ddd5760405162461bcd60e51b815260206004820152603660248201527f43616c6c6572206d75737420686176652061646d696e20726f6c6520746f207360448201527f6574206d696e74696e67206665652061646472657373000000000000000000006064820152608401610ad4565b61025e805473ffffffffffffffffffffffffffffffffffffffff19166001600160a01b0383169081179091556040519081527f42e58c2251766d60a378c8984cb15020e19218cae37fa9e7556ce617200f685190602001610e7b565b60006001600160e01b031982167f780e9d630000000000000000000000000000000000000000000000000000000014806109c457506109c482612f1f565b600081815260cd60205260409020805473ffffffffffffffffffffffffffffffffffffffff19166001600160a01b0384169081179091558190611eb98261163f565b6001600160a01b03167f8c5be1e5ebec7d5bd14f71427d1e84f3dd0314c0f7b2291e5b200ac8c7c3b92560405160405180910390a45050565b600081815261025c6020526040902054611f0d9060016144e8565b600091825261025c602052604090912055565b600081815260cb60205260408120546001600160a01b0316611f995760405162461bcd60e51b815260206004820152602c60248201527f4552433732313a206f70657261746f7220717565727920666f72206e6f6e657860448201526b34b9ba32b73a103a37b5b2b760a11b6064820152608401610ad4565b6000611fa48361163f565b9050806001600160a01b0316846001600160a01b03161480611fdf5750836001600160a01b0316611fd484610a5f565b6001600160a01b0316145b8061200f57506001600160a01b03808216600090815260ce602090815260408083209388168352929052205460ff165b949350505050565b826001600160a01b031661202a8261163f565b6001600160a01b0316146120a65760405162461bcd60e51b815260206004820152602960248201527f4552433732313a207472616e73666572206f6620746f6b656e2074686174206960448201527f73206e6f74206f776e00000000000000000000000000000000000000000000006064820152608401610ad4565b6001600160a01b0382166121215760405162461bcd60e51b8152602060048201526024808201527f4552433732313a207472616e7366657220746f20746865207a65726f2061646460448201527f72657373000000000000000000000000000000000000000000000000000000006064820152608401610ad4565b61212c838383612f91565b612137600082611e77565b6001600160a01b038316600090815260cc60205260408120805460019290612160908490614514565b90915550506001600160a01b038216600090815260cc6020526040812080546001929061218e9084906144e8565b9091555050600081815260cb6020526040808220805473ffffffffffffffffffffffffffffffffffffffff19166001600160a01b0386811691821790925591518493918716917fddf252ad1be2c89b69c2b068fc378daa952ba7f163c4a11628f55a4df523b3ef91a4505050565b600082815260656020526040902060010154612219905b33610719565b61228b5760405162461bcd60e51b815260206004820152602f60248201527f416363657373436f6e74726f6c3a2073656e646572206d75737420626520616e60448201527f2061646d696e20746f206772616e7400000000000000000000000000000000006064820152608401610ad4565b61106c8282612f9c565b6000611853836001600160a01b03841661303e565b6001600160a01b03811633146123285760405162461bcd60e51b815260206004820152602f60248201527f416363657373436f6e74726f6c3a2063616e206f6e6c792072656e6f756e636560448201527f20726f6c657320666f722073656c6600000000000000000000000000000000006064820152608401610ad4565b61106c828261308d565b6000611853836001600160a01b038416613110565b61015f5460ff1661239a5760405162461bcd60e51b815260206004820152601460248201527f5061757361626c653a206e6f74207061757365640000000000000000000000006044820152606401610ad4565b61015f805460ff191690557f5db9ee0a495bf2e6ff9c91a7834c1ba4fdd244a5e8aa4e537bd38aeae4b073aa335b6040516001600160a01b03909116815260200160405180910390a1565b6123ee8161322d565b6111d9816132e1565b61106c8282613323565b61106c828261333d565b600082815260cb60205260409020546001600160a01b03166124845760405162461bcd60e51b815260206004820152602c60248201527f4552433732313a20617070726f76656420717565727920666f72206e6f6e657860448201526b34b9ba32b73a103a37b5b2b760a11b6064820152608401610ad4565b60005b8151811015610c265760006001600160a01b03168282815181106124bb57634e487b7160e01b600052603260045260246000fd5b6020026020010151600001516001600160a01b0316141561251e5760405162461bcd60e51b815260206004820152601b60248201527f526563697069656e742073686f756c642062652070726573656e7400000000006044820152606401610ad4565b600082828151811061254057634e487b7160e01b600052603260045260246000fd5b602002602001015160200151116125995760405162461bcd60e51b815260206004820152601c60248201527f4665652076616c75652073686f756c6420626520706f736974697665000000006044820152606401610ad4565b600083815261025a6020526040902082518390839081106125ca57634e487b7160e01b600052603260045260246000fd5b6020908102919091018101518254600180820185556000948552938390208251600290920201805473ffffffffffffffffffffffffffffffffffffffff19166001600160a01b039092169190911781559101519101558061262a81614592565b915050612487565b600082815261025960209081526040909120825161265292840190613c74565b507f701be7c18389620e1de28c2c2c047271c46744dea76cb7667f428af200ef4dde828260405161268492919061449e565b60405180910390a15050565b600082815261025b602090815260409091208251610c2692840190613c74565b61025e546001600160a01b031661272f5760405162461bcd60e51b815260206004820152602760248201527f47686f73746d61726b6574206d696e74696e672046656520416464726573732060448201527f6e6f7420736574000000000000000000000000000000000000000000000000006064820152608401610ad4565b600061025d54116127a85760405162461bcd60e51b815260206004820152603060248201527f47686f73746d61726b6574206d696e74696e67206665652073686f756c64206260448201527f652067726561746572207468656e2030000000000000000000000000000000006064820152608401610ad4565b61025e5461025d546040516000926001600160a01b031691908381818185875af1925050503d80600081146127f9576040519150601f19603f3d011682016040523d82523d6000602084013e6127fe565b606091505b505090508061284f5760405162461bcd60e51b815260206004820152601060248201527f5472616e73666572206661696c65642e000000000000000000000000000000006044820152606401610ad4565b61025d546040805133815260208101929092527ff867832f09d3df16244ef05b595ad6197c4fc2da636495ff70035f1acdf2ba0a9101610e7b565b6001600160a01b0382166128e05760405162461bcd60e51b815260206004820181905260248201527f4552433732313a206d696e7420746f20746865207a65726f20616464726573736044820152606401610ad4565b600081815260cb60205260409020546001600160a01b0316156129455760405162461bcd60e51b815260206004820152601c60248201527f4552433732313a20746f6b656e20616c7265616479206d696e746564000000006044820152606401610ad4565b61295160008383612f91565b6001600160a01b038216600090815260cc6020526040812080546001929061297a9084906144e8565b9091555050600081815260cb6020526040808220805473ffffffffffffffffffffffffffffffffffffffff19166001600160a01b03861690811790915590518392907fddf252ad1be2c89b69c2b068fc378daa952ba7f163c4a11628f55a4df523b3ef908290a45050565b61015f5460ff1615612a395760405162461bcd60e51b815260206004820152601060248201527f5061757361626c653a20706175736564000000000000000000000000000000006044820152606401610ad4565b61015f805460ff191660011790557f62e78cea01bee320cd4e420270b5ea74000d11b0c9f74754ebdbfc544b05a2586123c83390565b600061185383836133e7565b600054610100900460ff1680612a94575060005460ff16155b612af75760405162461bcd60e51b815260206004820152602e60248201527f496e697469616c697a61626c653a20636f6e747261637420697320616c72656160448201526d191e481a5b9a5d1a585b1a5e995960921b6064820152608401610ad4565b600054610100900460ff16158015612b19576000805461ffff19166101011790555b8251612b2c9060c9906020860190613c74565b508151612b409060ca906020850190613c74565b508015610c26576000805461ff0019169055505050565b600054610100900460ff1680612b70575060005460ff16155b612bd35760405162461bcd60e51b815260206004820152602e60248201527f496e697469616c697a61626c653a20636f6e747261637420697320616c72656160448201526d191e481a5b9a5d1a585b1a5e995960921b6064820152608401610ad4565b600054610100900460ff16158015612bf5576000805461ffff19166101011790555b8151612c09906101f6906020850190613c74565b50612c166000335b613496565b612c407f9f2df0fed2c77648de5860a4cc508cd0818c85b8b8a1ab4ceeef8d981c8956a633612c11565b612c6a7f65d7a28e3265b37a6474929f336521b332c1681b933f6cb9f3376673440d862a33612c11565b801561106c576000805461ff00191690555050565b612c8a848484612017565b612c96848484846134a0565b6119fe5760405162461bcd60e51b815260206004820152603260248201527f4552433732313a207472616e7366657220746f206e6f6e20455243373231526560448201527f63656976657220696d706c656d656e74657200000000000000000000000000006064820152608401610ad4565b600081815260cb60205260409020546060906001600160a01b0316612d955760405162461bcd60e51b815260206004820152603160248201527f45524337323155524953746f726167653a2055524920717565727920666f722060448201527f6e6f6e6578697374656e7420746f6b656e0000000000000000000000000000006064820152608401610ad4565b60008281526101c3602052604081208054612daf90614557565b80601f0160208091040260200160405190810160405280929190818152602001828054612ddb90614557565b8015612e285780601f10612dfd57610100808354040283529160200191612e28565b820191906000526020600020905b815481529060010190602001808311612e0b57829003601f168201915b505050505090506000612e39613603565b9050805160001415612e4d575090506109c7565b815115612e7f578082604051602001612e67929190614267565b604051602081830303815290604052925050506109c7565b61200f84613613565b60006109c4825490565b600082815260656020526040902060010154612ead90612213565b6123285760405162461bcd60e51b815260206004820152603060248201527f416363657373436f6e74726f6c3a2073656e646572206d75737420626520616e60448201527f2061646d696e20746f207265766f6b65000000000000000000000000000000006064820152608401610ad4565b60006001600160e01b031982167f80ac58cd000000000000000000000000000000000000000000000000000000001480612f8257506001600160e01b031982167f5b5e139f00000000000000000000000000000000000000000000000000000000145b806109c457506109c4826136fb565b610c26838383613739565b60008281526065602090815260408083206001600160a01b038516845290915290205460ff1661106c5760008281526065602090815260408083206001600160a01b03851684529091529020805460ff19166001179055612ffa3390565b6001600160a01b0316816001600160a01b0316837f2f8788117e7eff1d82e926ec794901d17c78024a50270940304540a733656f0d60405160405180910390a45050565b600081815260018301602052604081205461308557508154600181810184556000848152602080822090930184905584548482528286019093526040902091909155610fd5565b506000610fd5565b60008281526065602090815260408083206001600160a01b038516845290915290205460ff161561106c5760008281526065602090815260408083206001600160a01b0385168085529252808320805460ff1916905551339285917ff6391f5c32d9c69d2a47ea670b442974b53935d1edc7fd64eb21e047a839171b9190a45050565b60008181526001830160205260408120548015613223576000613134600183614514565b855490915060009061314890600190614514565b9050600086600001828154811061316f57634e487b7160e01b600052603260045260246000fd5b90600052602060002001549050808760000184815481106131a057634e487b7160e01b600052603260045260246000fd5b6000918252602090912001556131b78360016144e8565b600082815260018901602052604090205586548790806131e757634e487b7160e01b600052603160045260246000fd5b60019003818190600052602060002001600090559055866001016000878152602001908152602001600020600090556001945050505050610fd5565b6000915050610fd5565b60006132388261163f565b905061324681600084612f91565b613251600083611e77565b6001600160a01b038116600090815260cc6020526040812080546001929061327a908490614514565b9091555050600082815260cb6020526040808220805473ffffffffffffffffffffffffffffffffffffffff19169055518391906001600160a01b038416907fddf252ad1be2c89b69c2b068fc378daa952ba7f163c4a11628f55a4df523b3ef908390a45050565b6132ea8161322d565b60008181526101c360205260409020805461330490614557565b1590506111d95760008181526101c3602052604081206111d991613cf8565b61106c8282604051806020016040528060008152506137be565b600082815260cb60205260409020546001600160a01b03166133c75760405162461bcd60e51b815260206004820152602e60248201527f45524337323155524953746f726167653a2055524920736574206f66206e6f6e60448201527f6578697374656e7420746f6b656e0000000000000000000000000000000000006064820152608401610ad4565b60008281526101c3602090815260409091208251610c2692840190613c74565b815460009082106134605760405162461bcd60e51b815260206004820152602260248201527f456e756d657261626c655365743a20696e646578206f7574206f6620626f756e60448201527f64730000000000000000000000000000000000000000000000000000000000006064820152608401610ad4565b82600001828154811061348357634e487b7160e01b600052603260045260246000fd5b9060005260206000200154905092915050565b610f18828261228b565b60006001600160a01b0384163b156135f857604051630a85bd0160e11b81526001600160a01b0385169063150b7a02906134e4903390899088908890600401614296565b602060405180830381600087803b1580156134fe57600080fd5b505af192505050801561352e575060408051601f3d908101601f1916820190925261352b9181019061411c565b60015b6135de573d80801561355c576040519150601f19603f3d011682016040523d82523d6000602084013e613561565b606091505b5080516135d65760405162461bcd60e51b815260206004820152603260248201527f4552433732313a207472616e7366657220746f206e6f6e20455243373231526560448201527f63656976657220696d706c656d656e74657200000000000000000000000000006064820152608401610ad4565b805181602001fd5b6001600160e01b031916630a85bd0160e11b14905061200f565b506001949350505050565b60606101f680546109db90614557565b600081815260cb60205260409020546060906001600160a01b03166136a05760405162461bcd60e51b815260206004820152602f60248201527f4552433732314d657461646174613a2055524920717565727920666f72206e6f60448201527f6e6578697374656e7420746f6b656e00000000000000000000000000000000006064820152608401610ad4565b60006136aa613603565b905060008151116136ca5760405180602001604052806000815250611853565b806136d484613847565b6040516020016136e5929190614267565b6040516020818303038152906040529392505050565b60006001600160e01b031982167f5a05180f0000000000000000000000000000000000000000000000000000000014806109c457506109c482613996565b6137448383836139fd565b61015f5460ff1615610c265760405162461bcd60e51b815260206004820152602b60248201527f4552433732315061757361626c653a20746f6b656e207472616e73666572207760448201527f68696c65207061757365640000000000000000000000000000000000000000006064820152608401610ad4565b6137c8838361288a565b6137d560008484846134a0565b610c265760405162461bcd60e51b815260206004820152603260248201527f4552433732313a207472616e7366657220746f206e6f6e20455243373231526560448201527f63656976657220696d706c656d656e74657200000000000000000000000000006064820152608401610ad4565b606081613888575060408051808201909152600181527f300000000000000000000000000000000000000000000000000000000000000060208201526109c7565b8160005b81156138b2578061389c81614592565b91506138ab9050600a83614500565b915061388c565b60008167ffffffffffffffff8111156138db57634e487b7160e01b600052604160045260246000fd5b6040519080825280601f01601f191660200182016040528015613905576020820181803683370190505b5090505b841561200f5761391a600183614514565b9150613927600a866145ad565b6139329060306144e8565b60f81b81838151811061395557634e487b7160e01b600052603260045260246000fd5b60200101907effffffffffffffffffffffffffffffffffffffffffffffffffffffffffffff1916908160001a90535061398f600a86614500565b9450613909565b60006001600160e01b031982167f7965db0b0000000000000000000000000000000000000000000000000000000014806109c457507f01ffc9a7000000000000000000000000000000000000000000000000000000006001600160e01b03198316146109c4565b6001600160a01b038316613a5857613a538160fd8054600083815260fe60205260408120829055600182018355919091527f9346ac6dd7de6b96975fec380d4d994c4c12e6a8897544f22915316cc6cca2800155565b613a7b565b816001600160a01b0316836001600160a01b031614613a7b57613a7b8382613aba565b6001600160a01b038216613a9757613a9281613b57565b610c26565b826001600160a01b0316826001600160a01b031614610c2657610c268282613c30565b60006001613ac7846116ec565b613ad19190614514565b600083815260fc6020526040902054909150808214613b24576001600160a01b038416600090815260fb60209081526040808320858452825280832054848452818420819055835260fc90915290208190555b50600091825260fc602090815260408084208490556001600160a01b03909416835260fb81528383209183525290812055565b60fd54600090613b6990600190614514565b600083815260fe602052604081205460fd8054939450909284908110613b9f57634e487b7160e01b600052603260045260246000fd5b906000526020600020015490508060fd8381548110613bce57634e487b7160e01b600052603260045260246000fd5b600091825260208083209091019290925582815260fe909152604080822084905585825281205560fd805480613c1457634e487b7160e01b600052603160045260246000fd5b6001900381819060005260206000200160009055905550505050565b6000613c3b836116ec565b6001600160a01b03909316600090815260fb60209081526040808320868452825280832085905593825260fc9052919091209190915550565b828054613c8090614557565b90600052602060002090601f016020900481019282613ca25760008555613ce8565b82601f10613cbb57805160ff1916838001178555613ce8565b82800160010185558215613ce8579182015b82811115613ce8578251825591602001919060010190613ccd565b50613cf4929150613d30565b5090565b508054613d0490614557565b6000825580601f10613d1657506111d9565b601f0160209004906000526020600020908101906111d991905b5b80821115613cf45760008155600101613d31565b600067ffffffffffffffff831115613d5f57613d5f6145ed565b613d72601f8401601f19166020016144b7565b9050828152838383011115613d8657600080fd5b828260208301376000602084830101529392505050565b600082601f830112613dad578081fd5b61185383833560208501613d45565b600060208284031215613dcd578081fd5b813561185381614603565b60008060408385031215613dea578081fd5b8235613df581614603565b91506020830135613e0581614603565b809150509250929050565b600080600060608486031215613e24578081fd5b8335613e2f81614603565b92506020840135613e3f81614603565b929592945050506040919091013590565b60008060008060808587031215613e65578081fd5b8435613e7081614603565b93506020850135613e8081614603565b925060408501359150606085013567ffffffffffffffff811115613ea2578182fd5b8501601f81018713613eb2578182fd5b613ec187823560208401613d45565b91505092959194509250565b60008060008060808587031215613ee2578384fd5b8435613eed81614603565b935060208581013567ffffffffffffffff80821115613f0a578586fd5b818801915088601f830112613f1d578586fd5b813581811115613f2f57613f2f6145ed565b613f3d848260051b016144b7565b8082825285820191508585018c878560061b8801011115613f5c57898afd5b8995505b83861015613fa957604080828f031215613f78578a8bfd5b613f81816144b7565b8235613f8c81614603565b815282890135898201528452600196909601959287019201613f60565b50975050506040880135925080831115613fc1578485fd5b613fcd89848a01613d9d565b94506060880135925080831115613fe2578384fd5b5050613ec187828801613d9d565b60008060408385031215614002578182fd5b823561400d81614603565b915060208301358015158114613e05578182fd5b60008060408385031215614033578182fd5b823561403e81614603565b946020939093013593505050565b600080600060608486031215614060578081fd5b833561406b81614603565b925060208401359150604084013567ffffffffffffffff81111561408d578182fd5b61409986828701613d9d565b9150509250925092565b6000602082840312156140b4578081fd5b5035919050565b600080604083850312156140cd578182fd5b823591506020830135613e0581614603565b600080604083850312156140f1578182fd5b50508035926020909101359150565b600060208284031215614111578081fd5b813561185381614618565b60006020828403121561412d578081fd5b815161185381614618565b600060208284031215614149578081fd5b813567ffffffffffffffff81111561415f578182fd5b61200f84828501613d9d565b60008060006060848603121561417f578081fd5b833567ffffffffffffffff80821115614196578283fd5b6141a287838801613d9d565b945060208601359150808211156141b7578283fd5b6141c387838801613d9d565b935060408601359150808211156141d8578283fd5b5061409986828701613d9d565b6000815180845260208085019450808401835b83811015614214578151875295820195908201906001016141f8565b509495945050505050565b6000815180845261423781602086016020860161452b565b601f01601f19169290920160200192915050565b6000825161425d81846020870161452b565b9190910192915050565b6000835161427981846020880161452b565b83519083019061428d81836020880161452b565b01949350505050565b60006001600160a01b038087168352808616602084015250836040830152608060608301526142c8608083018461421f565b9695505050505050565b60006001600160a01b0385168252836020830152606060408301526142fa606083018461421f565b95945050505050565b60006001600160a01b0385168252602084818401526060604084015281845483600182811c91508083168061433957607f831692505b85831081141561435757634e487b7160e01b87526022600452602487fd5b60608801839052608088018180156143765760018114614387576143b1565b60ff198616825287820196506143b1565b60008b815260209020895b868110156143ab57815484820152908501908901614392565b83019750505b50949b9a5050505050505050505050565b6020808252825182820181905260009190848201906040850190845b818110156144035783516001600160a01b0316835292840192918401916001016143de565b50909695505050505050565b60006020825261185360208301846141e5565b600060208252611853602083018461421f565b60006060820185835260206060818501528186518084526080860191508288019350845b8181101561447e5784516001600160a01b031683529383019391830191600101614459565b5050848103604086015261449281876141e5565b98975050505050505050565b60008382526040602083015261200f604083018461421f565b604051601f8201601f1916810167ffffffffffffffff811182821017156144e0576144e06145ed565b604052919050565b600082198211156144fb576144fb6145c1565b500190565b60008261450f5761450f6145d7565b500490565b600082821015614526576145266145c1565b500390565b60005b8381101561454657818101518382015260200161452e565b838111156119fe5750506000910152565b600181811c9082168061456b57607f821691505b6020821081141561458c57634e487b7160e01b600052602260045260246000fd5b50919050565b60006000198214156145a6576145a66145c1565b5060010190565b6000826145bc576145bc6145d7565b500690565b634e487b7160e01b600052601160045260246000fd5b634e487b7160e01b600052601260045260246000fd5b634e487b7160e01b600052604160045260246000fd5b6001600160a01b03811681146111d957600080fd5b6001600160e01b0319811681146111d957600080fdfea2646970667358221220bd759a0ecfde6e7923e70f5f00ccbc03b19153f1a2553d93c61b51d547f35ca964736f6c63430008030033",
  "immutableReferences": {},
  "source": "// SPDX-License-Identifier: MIT\npragma solidity ^0.8.3;\n\nimport \"./ERC721PresetMinterPauserAutoIdUpgradeable.sol\";\nimport \"@openzeppelin/contracts-upgradeable/security/ReentrancyGuardUpgradeable.sol\";\n\n/**\n * @dev ERC721 token with minting, burning, pause, secondary sales royalitiy functions.\n *\n */\ncontract GhostmarketERC721 is\n    Initializable,\n    ERC721PresetMinterPauserAutoIdUpgradeable,\n    ReentrancyGuardUpgradeable\n{\n    // struct for secondary sales fees\n    struct Fee {\n        address payable recipient;\n        uint256 value;\n    }\n\n    // tokenId => attributes array\n    mapping(uint256 => string) private _metadataJson;\n\n    // tokenId => fees array\n    mapping(uint256 => Fee[]) public fees;\n\n    // tokenId => locked content string\n    mapping(uint256 => string) public _lockedContent;\n    // tokenId => locked content view counter\n    mapping(uint256 => uint256) private _lockedContentViewTracker;\n\n    event SecondarySaleFees(\n        uint256 tokenId,\n        address[] recipients,\n        uint256[] bps\n    );\n\n    event LockedContentViewed(\n        address msgSender,\n        uint256 tokenId,\n        string lockedContent\n    );\n\n    event AttributesSet(uint256 tokenId, string metadataJson);\n    event GhostmarketFeeAddressChanged(address newValue);\n    event GhostmarketFeeMultiplierChanged(uint256 newValue);\n    event GhostmarketMintFeeChanged(uint256 newValue);\n    event GhostmarketFeePaid(address sender, uint256 value);\n    event Minted(address toAddress, uint256 tokenId, string tokenURI);\n\n    // minting fee\n    uint256 private _ghostmarketMintingFee;\n\n    //address where the transfer fees will be sent\n    address payable private _ghostmarketFeeAddress;\n\n    function initialize(\n        string memory name,\n        string memory symbol,\n        string memory uri\n    ) public override initializer {\n        __ERC721_init_unchained(name, symbol);\n        __ERC721PresetMinterPauserAutoId_init_unchained(uri);\n    }\n\n    /**\n     * @dev saves the nft tokens custom attributes to contract storage\n     * emits AttributesSet event\n     */\n    function _setMetadataJson(uint256 tokenId, string memory metadataJson)\n        internal\n    {\n        _metadataJson[tokenId] = metadataJson;\n        emit AttributesSet(tokenId, metadataJson);\n    }\n\n    /**\n     * @dev get the nft token attributes with the tokenId\n     */\n    function getMetadataJson(uint256 tokenId)\n        public\n        view\n        returns (string memory)\n    {\n        return _metadataJson[tokenId];\n    }\n\n    /**\n     * @dev get the \"secondary sales\"/royalities fee recepients with the tokenId\n     */\n    function getFeeRecipients(uint256 _tokenId)\n        public\n        view\n        returns (address payable[] memory)\n    {\n        Fee[] memory _fees = fees[_tokenId];\n        address payable[] memory result = new address payable[](_fees.length);\n        for (uint256 i = 0; i < _fees.length; i++) {\n            result[i] = _fees[i].recipient;\n        }\n        return result;\n    }\n\n    /**\n     * @dev get the \"secondary sales\"/royalities fee for the NFT id\n     * fee basis points 10000 = 100%\n     */\n    function getFeeBps(uint256 _tokenId)\n        public\n        view\n        returns (uint256[] memory)\n    {\n        Fee[] memory _fees = fees[_tokenId];\n        uint256[] memory result = new uint256[](_fees.length);\n        for (uint256 i = 0; i < _fees.length; i++) {\n            result[i] = _fees[i].value;\n        }\n        return result;\n    }\n\n    /**\n     * @dev save the \"secondary sales\"/royalities fee for the NFT id\n     * fee basis points 10000 = 100%\n     */\n    function saveFees(uint256 _tokenId, Fee[] memory _fees) internal {\n        require(\n            _exists(_tokenId),\n            \"ERC721: approved query for nonexistent token\"\n        );\n        for (uint256 i = 0; i < _fees.length; i++) {\n            require(\n                _fees[i].recipient != address(0x0),\n                \"Recipient should be present\"\n            );\n            require(_fees[i].value > 0, \"Fee value should be positive\");\n            fees[_tokenId].push(_fees[i]);\n        }\n    }\n\n    /**\n     * @dev mint NFT and set fee, save metadata json, set lockedcontent\n     */\n    function mintGhost(\n        address _to,\n        Fee[] memory _fees,\n        string memory metadata,\n        string memory lockedcontent\n    ) public payable nonReentrant {\n        mint(_to);\n        uint256 _tokenId = getLastTokenID();\n        address[] memory recipients = new address[](_fees.length);\n        uint256[] memory bps = new uint256[](_fees.length);\n        if (_fees.length > 0) {\n            saveFees(_tokenId, _fees);\n            emit SecondarySaleFees(_tokenId, recipients, bps);\n        }\n        if (\n            keccak256(abi.encodePacked(metadata)) !=\n            keccak256(abi.encodePacked(\"\"))\n        ) {\n            _setMetadataJson(_tokenId, metadata);\n        }\n        if (\n            keccak256(abi.encodePacked(lockedcontent)) !=\n            keccak256(abi.encodePacked(\"\"))\n        ) {\n            setLockedContent(_tokenId, lockedcontent);\n        }\n        if (_ghostmarketMintingFee > 0) {\n            _sendMintingFee();\n        }\n        emit Minted(_to, _tokenId, tokenURI(_tokenId));\n    }\n\n    /**\n     * @dev send minting fee to Ghostmarket\n     */\n    function _sendMintingFee() internal {\n        require(\n            _ghostmarketFeeAddress != address(0),\n            \"Ghostmarket minting Fee Address not set\"\n        );\n        require(\n            _ghostmarketMintingFee > 0,\n            \"Ghostmarket minting fee should be greater then 0\"\n        );\n        /* _ghostmarketFeeAddress.transfer(_ghostmarketMintingFee); */\n        (bool success, ) = _ghostmarketFeeAddress.call{value: _ghostmarketMintingFee}(\"\");\n        require(success, \"Transfer failed.\");\n        emit GhostmarketFeePaid(msg.sender, _ghostmarketMintingFee);\n    }\n\n    /**\n     * @dev set the wallet address where fees will be collected\n     */\n    function setGhostmarketFeeAddress(address payable gmfa) public {\n        require(\n            hasRole(DEFAULT_ADMIN_ROLE, _msgSender()),\n            \"Caller must have admin role to set minting fee address\"\n        );\n        _ghostmarketFeeAddress = gmfa;\n        emit GhostmarketFeeAddressChanged(_ghostmarketFeeAddress);\n    }\n\n\n\n    /**\n     * @dev sets the transfer fee\n     */\n    function setGhostmarketMintFee(uint256 gmmf) public {\n        require(\n            hasRole(DEFAULT_ADMIN_ROLE, _msgSender()),\n            \"Caller must have admin role to set minting fee percent\"\n        );\n        _ghostmarketMintingFee = gmmf;\n        emit GhostmarketMintFeeChanged(_ghostmarketMintingFee);\n    }\n\n    /**\n     * @return the ghostmarketFeeAddress\n     */\n    function ghostmarketFeeAddress() public view returns (address payable) {\n        return _ghostmarketFeeAddress;\n    }\n\n    /**\n     * @return the ghostmarketMintingFee.\n     */\n    function ghostmarketMintingFee() public view returns (uint256) {\n        return _ghostmarketMintingFee;\n    }\n\n    /**\n     * @dev save locked content as string for a specific _tokenId.\n     */\n    function setLockedContent(uint256 _tokenId, string memory content)\n        internal\n    {\n        _lockedContent[_tokenId] = content;\n    }\n\n    /**\n     * @dev locked content for a NFT can be retrived only by emitting an event\n     *\n     * example event:\n     * msgSender: 0x1a1122c2483e8f988F9a800F3A6eE316dB77e4e0 (type: address),\n     * tokenId: 0 (type: uint256),\n     * lockedContent: 'top secret' (type: string)\n     */\n    function getLockedContent(uint256 _tokenId) public {\n        require(\n            ownerOf(_tokenId) == msg.sender,\n            \"Caller must be the owner of the NFT\"\n        );\n        _incrementCurrentLockedContentViewTracker(_tokenId);\n        emit LockedContentViewed(\n            msg.sender,\n            _tokenId,\n            _lockedContent[_tokenId]\n        );\n    }\n\n    /**\n     * @dev increment locked content view tracker\n     */\n    function _incrementCurrentLockedContentViewTracker(uint256 _tokenId)\n        private\n    {\n        _lockedContentViewTracker[_tokenId] =\n            _lockedContentViewTracker[_tokenId] +\n            1;\n    }\n\n    /**\n     * @dev get the durrent locked content view tracker for specific _tokenId\n     */\n    function getCurrentLockedContentViewTracker(uint256 _tokenId)\n        public\n        view\n        returns (uint256)\n    {\n        return _lockedContentViewTracker[_tokenId];\n    }\n}\n",
  "sourcePath": "/Users/selimerunkut/dev_freelance/GhostMarketContractBSC/contracts/GhostmarketERC721.sol",
  "compiler": {
    "name": "solc",
    "version": "0.8.3+commit.8d00100c.Emscripten.clang"
  },
  "schemaVersion": "3.4.1",
  "updatedAt": "2021-05-14T11:44:39.302Z",
  "devdoc": {
    "details": "ERC721 token with minting, burning, pause, secondary sales royalitiy functions.",
    "kind": "dev",
    "methods": {
      "approve(address,uint256)": {
        "details": "See {IERC721-approve}."
      },
      "balanceOf(address)": {
        "details": "See {IERC721-balanceOf}."
      },
      "burn(uint256)": {
        "details": "Burns `tokenId`. See {ERC721-_burn}. Requirements: - The caller must own `tokenId` or be an approved operator."
      },
      "getApproved(uint256)": {
        "details": "See {IERC721-getApproved}."
      },
      "getCurrentLockedContentViewTracker(uint256)": {
        "details": "get the durrent locked content view tracker for specific _tokenId"
      },
      "getFeeBps(uint256)": {
        "details": "get the \"secondary sales\"/royalities fee for the NFT id fee basis points 10000 = 100%"
      },
      "getFeeRecipients(uint256)": {
        "details": "get the \"secondary sales\"/royalities fee recepients with the tokenId"
      },
      "getLockedContent(uint256)": {
        "details": "locked content for a NFT can be retrived only by emitting an event example event: msgSender: 0x1a1122c2483e8f988F9a800F3A6eE316dB77e4e0 (type: address), tokenId: 0 (type: uint256), lockedContent: 'top secret' (type: string)"
      },
      "getMetadataJson(uint256)": {
        "details": "get the nft token attributes with the tokenId"
      },
      "getRoleAdmin(bytes32)": {
        "details": "Returns the admin role that controls `role`. See {grantRole} and {revokeRole}. To change a role's admin, use {_setRoleAdmin}."
      },
      "getRoleMember(bytes32,uint256)": {
        "details": "Returns one of the accounts that have `role`. `index` must be a value between 0 and {getRoleMemberCount}, non-inclusive. Role bearers are not sorted in any particular way, and their ordering may change at any point. WARNING: When using {getRoleMember} and {getRoleMemberCount}, make sure you perform all queries on the same block. See the following https://forum.openzeppelin.com/t/iterating-over-elements-on-enumerableset-in-openzeppelin-contracts/2296[forum post] for more information."
      },
      "getRoleMemberCount(bytes32)": {
        "details": "Returns the number of accounts that have `role`. Can be used together with {getRoleMember} to enumerate all bearers of a role."
      },
      "ghostmarketFeeAddress()": {
        "returns": {
          "_0": "the ghostmarketFeeAddress"
        }
      },
      "ghostmarketMintingFee()": {
        "returns": {
          "_0": "the ghostmarketMintingFee."
        }
      },
      "grantRole(bytes32,address)": {
        "details": "Overload {grantRole} to track enumerable memberships"
      },
      "hasRole(bytes32,address)": {
        "details": "Returns `true` if `account` has been granted `role`."
      },
      "isApprovedForAll(address,address)": {
        "details": "See {IERC721-isApprovedForAll}."
      },
      "mint(address)": {
        "details": "Creates a new token for `to`. Its token ID will be automatically assigned (and available on the emitted {IERC721-Transfer} event), and the token URI autogenerated based on the base URI passed at construction. See {ERC721-_mint}. Requirements: - the caller must have the `MINTER_ROLE`."
      },
      "mintGhost(address,(address,uint256)[],string,string)": {
        "details": "mint NFT and set fee, save metadata json, set lockedcontent"
      },
      "mintWithURI(address,uint256,string)": {
        "details": "polynetwork CrossChainNFTMapping"
      },
      "name()": {
        "details": "See {IERC721Metadata-name}."
      },
      "ownerOf(uint256)": {
        "details": "See {IERC721-ownerOf}."
      },
      "pause()": {
        "details": "Pauses all token transfers. See {ERC721Pausable} and {Pausable-_pause}. Requirements: - the caller must have the `PAUSER_ROLE`."
      },
      "paused()": {
        "details": "Returns true if the contract is paused, and false otherwise."
      },
      "renounceRole(bytes32,address)": {
        "details": "Overload {renounceRole} to track enumerable memberships"
      },
      "revokeRole(bytes32,address)": {
        "details": "Overload {revokeRole} to track enumerable memberships"
      },
      "safeTransferFrom(address,address,uint256)": {
        "details": "See {IERC721-safeTransferFrom}."
      },
      "safeTransferFrom(address,address,uint256,bytes)": {
        "details": "See {IERC721-safeTransferFrom}."
      },
      "setApprovalForAll(address,bool)": {
        "details": "See {IERC721-setApprovalForAll}."
      },
      "setGhostmarketFeeAddress(address)": {
        "details": "set the wallet address where fees will be collected"
      },
      "setGhostmarketMintFee(uint256)": {
        "details": "sets the transfer fee"
      },
      "supportsInterface(bytes4)": {
        "details": "See {IERC165-supportsInterface}."
      },
      "symbol()": {
        "details": "See {IERC721Metadata-symbol}."
      },
      "tokenByIndex(uint256)": {
        "details": "See {IERC721Enumerable-tokenByIndex}."
      },
      "tokenOfOwnerByIndex(address,uint256)": {
        "details": "See {IERC721Enumerable-tokenOfOwnerByIndex}."
      },
      "tokenURI(uint256)": {
        "details": "See {IERC721Metadata-tokenURI}."
      },
      "totalSupply()": {
        "details": "See {IERC721Enumerable-totalSupply}."
      },
      "transferFrom(address,address,uint256)": {
        "details": "See {IERC721-transferFrom}."
      },
      "unpause()": {
        "details": "Unpauses all token transfers. See {ERC721Pausable} and {Pausable-_unpause}. Requirements: - the caller must have the `PAUSER_ROLE`."
      }
    },
    "version": 1
  },
  "userdoc": {
    "kind": "user",
    "methods": {},
    "version": 1
  }
}