{
  "contractName": "GhostmarketNFT",
  "abi": [
    {
      "anonymous": false,
      "inputs": [
        {
          "indexed": true,
          "internalType": "address",
          "name": "owner",
          "type": "address"
        },
        {
          "indexed": true,
          "internalType": "address",
          "name": "approved",
          "type": "address"
        },
        {
          "indexed": true,
          "internalType": "uint256",
          "name": "tokenId",
          "type": "uint256"
        }
      ],
      "name": "Approval",
      "type": "event"
    },
    {
      "anonymous": false,
      "inputs": [
        {
          "indexed": true,
          "internalType": "address",
          "name": "owner",
          "type": "address"
        },
        {
          "indexed": true,
          "internalType": "address",
          "name": "operator",
          "type": "address"
        },
        {
          "indexed": false,
          "internalType": "bool",
          "name": "approved",
          "type": "bool"
        }
      ],
      "name": "ApprovalForAll",
      "type": "event"
    },
    {
      "anonymous": false,
      "inputs": [
        {
          "indexed": false,
          "internalType": "uint256",
          "name": "tokenId",
          "type": "uint256"
        },
        {
          "components": [
            {
              "internalType": "string",
              "name": "key",
              "type": "string"
            },
            {
              "internalType": "string",
              "name": "value",
              "type": "string"
            }
          ],
          "indexed": false,
          "internalType": "struct GhostmarketNFT.AttributesStruct[]",
          "name": "attributes",
          "type": "tuple[]"
        }
      ],
      "name": "AttributesSet",
      "type": "event"
    },
    {
      "anonymous": false,
      "inputs": [
        {
          "indexed": false,
          "internalType": "address",
          "name": "newValue",
          "type": "address"
        }
      ],
      "name": "GhostmarketFeeAddressChanged",
      "type": "event"
    },
    {
      "anonymous": false,
      "inputs": [
        {
          "indexed": false,
          "internalType": "uint256",
          "name": "newValue",
          "type": "uint256"
        }
      ],
      "name": "GhostmarketFeeMultiplierChanged",
      "type": "event"
    },
    {
      "anonymous": false,
      "inputs": [
        {
          "indexed": false,
          "internalType": "address",
          "name": "sender",
          "type": "address"
        },
        {
          "indexed": false,
          "internalType": "uint256",
          "name": "value",
          "type": "uint256"
        }
      ],
      "name": "GhostmarketFeePaid",
      "type": "event"
    },
    {
      "anonymous": false,
      "inputs": [
        {
          "indexed": false,
          "internalType": "uint256",
          "name": "newValue",
          "type": "uint256"
        }
      ],
      "name": "GhostmarketMintFeeChanged",
      "type": "event"
    },
    {
      "anonymous": false,
      "inputs": [
        {
          "indexed": false,
          "internalType": "address",
          "name": "account",
          "type": "address"
        }
      ],
      "name": "Paused",
      "type": "event"
    },
    {
      "anonymous": false,
      "inputs": [
        {
          "indexed": true,
          "internalType": "bytes32",
          "name": "role",
          "type": "bytes32"
        },
        {
          "indexed": true,
          "internalType": "bytes32",
          "name": "previousAdminRole",
          "type": "bytes32"
        },
        {
          "indexed": true,
          "internalType": "bytes32",
          "name": "newAdminRole",
          "type": "bytes32"
        }
      ],
      "name": "RoleAdminChanged",
      "type": "event"
    },
    {
      "anonymous": false,
      "inputs": [
        {
          "indexed": true,
          "internalType": "bytes32",
          "name": "role",
          "type": "bytes32"
        },
        {
          "indexed": true,
          "internalType": "address",
          "name": "account",
          "type": "address"
        },
        {
          "indexed": true,
          "internalType": "address",
          "name": "sender",
          "type": "address"
        }
      ],
      "name": "RoleGranted",
      "type": "event"
    },
    {
      "anonymous": false,
      "inputs": [
        {
          "indexed": true,
          "internalType": "bytes32",
          "name": "role",
          "type": "bytes32"
        },
        {
          "indexed": true,
          "internalType": "address",
          "name": "account",
          "type": "address"
        },
        {
          "indexed": true,
          "internalType": "address",
          "name": "sender",
          "type": "address"
        }
      ],
      "name": "RoleRevoked",
      "type": "event"
    },
    {
      "anonymous": false,
      "inputs": [
        {
          "indexed": false,
          "internalType": "uint256",
          "name": "tokenId",
          "type": "uint256"
        },
        {
          "indexed": false,
          "internalType": "address[]",
          "name": "recipients",
          "type": "address[]"
        },
        {
          "indexed": false,
          "internalType": "uint256[]",
          "name": "bps",
          "type": "uint256[]"
        }
      ],
      "name": "SecondarySaleFees",
      "type": "event"
    },
    {
      "anonymous": false,
      "inputs": [
        {
          "indexed": true,
          "internalType": "address",
          "name": "from",
          "type": "address"
        },
        {
          "indexed": true,
          "internalType": "address",
          "name": "to",
          "type": "address"
        },
        {
          "indexed": true,
          "internalType": "uint256",
          "name": "tokenId",
          "type": "uint256"
        }
      ],
      "name": "Transfer",
      "type": "event"
    },
    {
      "anonymous": false,
      "inputs": [
        {
          "indexed": false,
          "internalType": "address",
          "name": "account",
          "type": "address"
        }
      ],
      "name": "Unpaused",
      "type": "event"
    },
    {
      "inputs": [],
      "name": "DEFAULT_ADMIN_ROLE",
      "outputs": [
        {
          "internalType": "bytes32",
          "name": "",
          "type": "bytes32"
        }
      ],
      "stateMutability": "view",
      "type": "function"
    },
    {
      "inputs": [],
      "name": "MINTER_ROLE",
      "outputs": [
        {
          "internalType": "bytes32",
          "name": "",
          "type": "bytes32"
        }
      ],
      "stateMutability": "view",
      "type": "function"
    },
    {
      "inputs": [],
      "name": "PAUSER_ROLE",
      "outputs": [
        {
          "internalType": "bytes32",
          "name": "",
          "type": "bytes32"
        }
      ],
      "stateMutability": "view",
      "type": "function"
    },
    {
      "inputs": [
        {
          "internalType": "address",
          "name": "to",
          "type": "address"
        },
        {
          "internalType": "uint256",
          "name": "tokenId",
          "type": "uint256"
        }
      ],
      "name": "approve",
      "outputs": [],
      "stateMutability": "nonpayable",
      "type": "function"
    },
    {
      "inputs": [
        {
          "internalType": "uint256",
          "name": "",
          "type": "uint256"
        },
        {
          "internalType": "uint256",
          "name": "",
          "type": "uint256"
        }
      ],
      "name": "attribute",
      "outputs": [
        {
          "internalType": "string",
          "name": "key",
          "type": "string"
        },
        {
          "internalType": "string",
          "name": "value",
          "type": "string"
        }
      ],
      "stateMutability": "view",
      "type": "function"
    },
    {
      "inputs": [
        {
          "internalType": "address",
          "name": "owner",
          "type": "address"
        }
      ],
      "name": "balanceOf",
      "outputs": [
        {
          "internalType": "uint256",
          "name": "",
          "type": "uint256"
        }
      ],
      "stateMutability": "view",
      "type": "function"
    },
    {
      "inputs": [
        {
          "internalType": "uint256",
          "name": "tokenId",
          "type": "uint256"
        }
      ],
      "name": "burn",
      "outputs": [],
      "stateMutability": "nonpayable",
      "type": "function"
    },
    {
      "inputs": [
        {
          "internalType": "uint256",
          "name": "",
          "type": "uint256"
        },
        {
          "internalType": "uint256",
          "name": "",
          "type": "uint256"
        }
      ],
      "name": "fees",
      "outputs": [
        {
          "internalType": "address payable",
          "name": "recipient",
          "type": "address"
        },
        {
          "internalType": "uint256",
          "name": "value",
          "type": "uint256"
        }
      ],
      "stateMutability": "view",
      "type": "function"
    },
    {
      "inputs": [
        {
          "internalType": "uint256",
          "name": "tokenId",
          "type": "uint256"
        }
      ],
      "name": "getApproved",
      "outputs": [
        {
          "internalType": "address",
          "name": "",
          "type": "address"
        }
      ],
      "stateMutability": "view",
      "type": "function"
    },
    {
      "inputs": [],
      "name": "getCurrentCounter",
      "outputs": [
        {
          "internalType": "uint256",
          "name": "",
          "type": "uint256"
        }
      ],
      "stateMutability": "view",
      "type": "function"
    },
    {
      "inputs": [
        {
          "internalType": "bytes32",
          "name": "role",
          "type": "bytes32"
        }
      ],
      "name": "getRoleAdmin",
      "outputs": [
        {
          "internalType": "bytes32",
          "name": "",
          "type": "bytes32"
        }
      ],
      "stateMutability": "view",
      "type": "function"
    },
    {
      "inputs": [
        {
          "internalType": "bytes32",
          "name": "role",
          "type": "bytes32"
        },
        {
          "internalType": "uint256",
          "name": "index",
          "type": "uint256"
        }
      ],
      "name": "getRoleMember",
      "outputs": [
        {
          "internalType": "address",
          "name": "",
          "type": "address"
        }
      ],
      "stateMutability": "view",
      "type": "function"
    },
    {
      "inputs": [
        {
          "internalType": "bytes32",
          "name": "role",
          "type": "bytes32"
        }
      ],
      "name": "getRoleMemberCount",
      "outputs": [
        {
          "internalType": "uint256",
          "name": "",
          "type": "uint256"
        }
      ],
      "stateMutability": "view",
      "type": "function"
    },
    {
      "inputs": [
        {
          "internalType": "bytes32",
          "name": "role",
          "type": "bytes32"
        },
        {
          "internalType": "address",
          "name": "account",
          "type": "address"
        }
      ],
      "name": "grantRole",
      "outputs": [],
      "stateMutability": "nonpayable",
      "type": "function"
    },
    {
      "inputs": [
        {
          "internalType": "bytes32",
          "name": "role",
          "type": "bytes32"
        },
        {
          "internalType": "address",
          "name": "account",
          "type": "address"
        }
      ],
      "name": "hasRole",
      "outputs": [
        {
          "internalType": "bool",
          "name": "",
          "type": "bool"
        }
      ],
      "stateMutability": "view",
      "type": "function"
    },
    {
      "inputs": [
        {
          "internalType": "address",
          "name": "owner",
          "type": "address"
        },
        {
          "internalType": "address",
          "name": "operator",
          "type": "address"
        }
      ],
      "name": "isApprovedForAll",
      "outputs": [
        {
          "internalType": "bool",
          "name": "",
          "type": "bool"
        }
      ],
      "stateMutability": "view",
      "type": "function"
    },
    {
      "inputs": [],
      "name": "name",
      "outputs": [
        {
          "internalType": "string",
          "name": "",
          "type": "string"
        }
      ],
      "stateMutability": "view",
      "type": "function"
    },
    {
      "inputs": [
        {
          "internalType": "uint256",
          "name": "tokenId",
          "type": "uint256"
        }
      ],
      "name": "ownerOf",
      "outputs": [
        {
          "internalType": "address",
          "name": "",
          "type": "address"
        }
      ],
      "stateMutability": "view",
      "type": "function"
    },
    {
      "inputs": [],
      "name": "pause",
      "outputs": [],
      "stateMutability": "nonpayable",
      "type": "function"
    },
    {
      "inputs": [],
      "name": "paused",
      "outputs": [
        {
          "internalType": "bool",
          "name": "",
          "type": "bool"
        }
      ],
      "stateMutability": "view",
      "type": "function"
    },
    {
      "inputs": [
        {
          "internalType": "bytes32",
          "name": "role",
          "type": "bytes32"
        },
        {
          "internalType": "address",
          "name": "account",
          "type": "address"
        }
      ],
      "name": "renounceRole",
      "outputs": [],
      "stateMutability": "nonpayable",
      "type": "function"
    },
    {
      "inputs": [
        {
          "internalType": "bytes32",
          "name": "role",
          "type": "bytes32"
        },
        {
          "internalType": "address",
          "name": "account",
          "type": "address"
        }
      ],
      "name": "revokeRole",
      "outputs": [],
      "stateMutability": "nonpayable",
      "type": "function"
    },
    {
      "inputs": [
        {
          "internalType": "address",
          "name": "from",
          "type": "address"
        },
        {
          "internalType": "address",
          "name": "to",
          "type": "address"
        },
        {
          "internalType": "uint256",
          "name": "tokenId",
          "type": "uint256"
        }
      ],
      "name": "safeTransferFrom",
      "outputs": [],
      "stateMutability": "nonpayable",
      "type": "function"
    },
    {
      "inputs": [
        {
          "internalType": "address",
          "name": "from",
          "type": "address"
        },
        {
          "internalType": "address",
          "name": "to",
          "type": "address"
        },
        {
          "internalType": "uint256",
          "name": "tokenId",
          "type": "uint256"
        },
        {
          "internalType": "bytes",
          "name": "_data",
          "type": "bytes"
        }
      ],
      "name": "safeTransferFrom",
      "outputs": [],
      "stateMutability": "nonpayable",
      "type": "function"
    },
    {
      "inputs": [
        {
          "internalType": "address",
          "name": "operator",
          "type": "address"
        },
        {
          "internalType": "bool",
          "name": "approved",
          "type": "bool"
        }
      ],
      "name": "setApprovalForAll",
      "outputs": [],
      "stateMutability": "nonpayable",
      "type": "function"
    },
    {
      "inputs": [
        {
          "internalType": "bytes4",
          "name": "interfaceId",
          "type": "bytes4"
        }
      ],
      "name": "supportsInterface",
      "outputs": [
        {
          "internalType": "bool",
          "name": "",
          "type": "bool"
        }
      ],
      "stateMutability": "view",
      "type": "function"
    },
    {
      "inputs": [],
      "name": "symbol",
      "outputs": [
        {
          "internalType": "string",
          "name": "",
          "type": "string"
        }
      ],
      "stateMutability": "view",
      "type": "function"
    },
    {
      "inputs": [
        {
          "internalType": "uint256",
          "name": "index",
          "type": "uint256"
        }
      ],
      "name": "tokenByIndex",
      "outputs": [
        {
          "internalType": "uint256",
          "name": "",
          "type": "uint256"
        }
      ],
      "stateMutability": "view",
      "type": "function"
    },
    {
      "inputs": [
        {
          "internalType": "address",
          "name": "owner",
          "type": "address"
        },
        {
          "internalType": "uint256",
          "name": "index",
          "type": "uint256"
        }
      ],
      "name": "tokenOfOwnerByIndex",
      "outputs": [
        {
          "internalType": "uint256",
          "name": "",
          "type": "uint256"
        }
      ],
      "stateMutability": "view",
      "type": "function"
    },
    {
      "inputs": [
        {
          "internalType": "uint256",
          "name": "tokenId",
          "type": "uint256"
        }
      ],
      "name": "tokenURI",
      "outputs": [
        {
          "internalType": "string",
          "name": "",
          "type": "string"
        }
      ],
      "stateMutability": "view",
      "type": "function"
    },
    {
      "inputs": [],
      "name": "totalSupply",
      "outputs": [
        {
          "internalType": "uint256",
          "name": "",
          "type": "uint256"
        }
      ],
      "stateMutability": "view",
      "type": "function"
    },
    {
      "inputs": [
        {
          "internalType": "address",
          "name": "from",
          "type": "address"
        },
        {
          "internalType": "address",
          "name": "to",
          "type": "address"
        },
        {
          "internalType": "uint256",
          "name": "tokenId",
          "type": "uint256"
        }
      ],
      "name": "transferFrom",
      "outputs": [],
      "stateMutability": "nonpayable",
      "type": "function"
    },
    {
      "inputs": [],
      "name": "unpause",
      "outputs": [],
      "stateMutability": "nonpayable",
      "type": "function"
    },
    {
      "inputs": [
        {
          "internalType": "string",
          "name": "name",
          "type": "string"
        },
        {
          "internalType": "string",
          "name": "symbol",
          "type": "string"
        },
        {
          "internalType": "string",
          "name": "uri",
          "type": "string"
        }
      ],
      "name": "initialize",
      "outputs": [],
      "stateMutability": "nonpayable",
      "type": "function"
    },
    {
      "inputs": [
        {
          "internalType": "uint256",
          "name": "_tokenId",
          "type": "uint256"
        }
      ],
      "name": "getAttributes",
      "outputs": [
        {
          "components": [
            {
              "internalType": "string",
              "name": "key",
              "type": "string"
            },
            {
              "internalType": "string",
              "name": "value",
              "type": "string"
            }
          ],
          "internalType": "struct GhostmarketNFT.AttributesStruct[]",
          "name": "",
          "type": "tuple[]"
        }
      ],
      "stateMutability": "view",
      "type": "function"
    },
    {
      "inputs": [
        {
          "internalType": "uint256",
          "name": "_tokenId",
          "type": "uint256"
        }
      ],
      "name": "getFeeRecipients",
      "outputs": [
        {
          "internalType": "address payable[]",
          "name": "",
          "type": "address[]"
        }
      ],
      "stateMutability": "view",
      "type": "function"
    },
    {
      "inputs": [
        {
          "internalType": "uint256",
          "name": "_tokenId",
          "type": "uint256"
        }
      ],
      "name": "getFeeBps",
      "outputs": [
        {
          "internalType": "uint256[]",
          "name": "",
          "type": "uint256[]"
        }
      ],
      "stateMutability": "view",
      "type": "function"
    },
    {
      "inputs": [
        {
          "internalType": "uint256",
          "name": "_tokenId",
          "type": "uint256"
        },
        {
          "internalType": "address",
          "name": "_from",
          "type": "address"
        },
        {
          "internalType": "uint256",
          "name": "_value",
          "type": "uint256"
        }
      ],
      "name": "updateRecipientsFees",
      "outputs": [],
      "stateMutability": "nonpayable",
      "type": "function"
    },
    {
      "inputs": [
        {
          "internalType": "uint256",
          "name": "_tokenId",
          "type": "uint256"
        },
        {
          "internalType": "address",
          "name": "_from",
          "type": "address"
        },
        {
          "internalType": "address",
          "name": "_to",
          "type": "address"
        }
      ],
      "name": "updateFeeAccount",
      "outputs": [],
      "stateMutability": "nonpayable",
      "type": "function"
    },
    {
      "inputs": [
        {
          "internalType": "address",
          "name": "to",
          "type": "address"
        }
      ],
      "name": "mint",
      "outputs": [],
      "stateMutability": "nonpayable",
      "type": "function"
    },
    {
      "inputs": [
        {
          "internalType": "address",
          "name": "_to",
          "type": "address"
        },
        {
          "components": [
            {
              "internalType": "address payable",
              "name": "recipient",
              "type": "address"
            },
            {
              "internalType": "uint256",
              "name": "value",
              "type": "uint256"
            }
          ],
          "internalType": "struct GhostmarketNFT.Fee[]",
          "name": "_fees",
          "type": "tuple[]"
        },
        {
          "components": [
            {
              "internalType": "string",
              "name": "key",
              "type": "string"
            },
            {
              "internalType": "string",
              "name": "value",
              "type": "string"
            }
          ],
          "internalType": "struct GhostmarketNFT.AttributesStruct[]",
          "name": "_attributes",
          "type": "tuple[]"
        }
      ],
      "name": "mint",
      "outputs": [],
      "stateMutability": "nonpayable",
      "type": "function"
    },
    {
      "inputs": [
        {
          "internalType": "address",
          "name": "_to",
          "type": "address"
        },
        {
          "components": [
            {
              "internalType": "address payable",
              "name": "recipient",
              "type": "address"
            },
            {
              "internalType": "uint256",
              "name": "value",
              "type": "uint256"
            }
          ],
          "internalType": "struct GhostmarketNFT.Fee[]",
          "name": "_fees",
          "type": "tuple[]"
        },
        {
          "components": [
            {
              "internalType": "string",
              "name": "key",
              "type": "string"
            },
            {
              "internalType": "string",
              "name": "value",
              "type": "string"
            }
          ],
          "internalType": "struct GhostmarketNFT.AttributesStruct[]",
          "name": "_attributes",
          "type": "tuple[]"
        }
      ],
      "name": "mintWithFee",
      "outputs": [],
      "stateMutability": "payable",
      "type": "function"
    },
    {
      "inputs": [
        {
          "internalType": "address payable",
          "name": "gmfa",
          "type": "address"
        }
      ],
      "name": "setGhostmarketFeeAddress",
      "outputs": [],
      "stateMutability": "nonpayable",
      "type": "function"
    },
    {
      "inputs": [
        {
          "internalType": "uint256",
          "name": "gmfm",
          "type": "uint256"
        }
      ],
      "name": "setGhostmarketFeeMultiplier",
      "outputs": [],
      "stateMutability": "nonpayable",
      "type": "function"
    },
    {
      "inputs": [
        {
          "internalType": "uint256",
          "name": "gmmf",
          "type": "uint256"
        }
      ],
      "name": "setGhostmarketMintFee",
      "outputs": [],
      "stateMutability": "nonpayable",
      "type": "function"
    },
    {
      "inputs": [],
      "name": "ghostmarketFeeAddress",
      "outputs": [
        {
          "internalType": "address payable",
          "name": "",
          "type": "address"
        }
      ],
      "stateMutability": "view",
      "type": "function"
    },
    {
      "inputs": [],
      "name": "ghostmarketMintingFee",
      "outputs": [
        {
          "internalType": "uint256",
          "name": "",
          "type": "uint256"
        }
      ],
      "stateMutability": "view",
      "type": "function"
    },
    {
      "inputs": [],
      "name": "ghostmarketFeeMultiplier",
      "outputs": [
        {
          "internalType": "uint256",
          "name": "",
          "type": "uint256"
        }
      ],
      "stateMutability": "view",
      "type": "function"
    }
  ],
  "bytecode": "0x608060405234801561001057600080fd5b5061495b806100206000396000f3fe6080604052600436106103135760003560e01c806370a082311161019a578063c87b56dd116100e1578063e63ab1e91161008a578063fb3e09af11610064578063fb3e09af14610964578063fc24a8a914610983578063ffbd264d146109a357610313565b8063e63ab1e9146108c7578063e768ec21146108fb578063e985e9c51461091b57610313565b8063d547741f116100bb578063d547741f14610871578063dac0f3d914610891578063e38189c9146108b157610313565b8063c87b56dd146107fd578063ca15c8731461081d578063d53913931461083d57610313565b8063a217fddf11610143578063b88d4fde1161011d578063b88d4fde14610790578063b9c4d9fb146107b0578063c20b8336146107dd57610313565b8063a217fddf1461073b578063a22cb46514610750578063a6487c531461077057610313565b80639010d07c116101745780639010d07c146106c057806391d14854146106e057806395d89b411461072657610313565b806370a082311461067657806373448c46146106965780638456cb59146106ab57610313565b806336d8ec091161025e5780634f6ccce7116102075780636308f1cd116101e15780636308f1cd146105f75780636352211e146106365780636a6278421461065657610313565b80634f6ccce7146105a85780635c975abb146105c85780636213801f146105e157610313565b806342842e0e1161023857806342842e0e1461053b57806342966c681461055b5780634378a6e31461057b57610313565b806336d8ec09146104d85780633daab032146104f85780633f4ba83a1461052657610313565b806323b872dd116102c05780632f2ff15d1161029a5780632f2ff15d146104785780632f745c591461049857806336568abe146104b857610313565b806323b872dd14610415578063248a9ca3146104355780632c4a5de81461046557610313565b8063095ea7b3116102f1578063095ea7b3146103a75780630ebd4c7f146103c957806318160ddd146103f657610313565b806301ffc9a71461031857806306fdde031461034d578063081812fc1461036f575b600080fd5b34801561032457600080fd5b506103386103333660046143b5565b6109c3565b60405190151581526020015b60405180910390f35b34801561035957600080fd5b506103626109d6565b60405161034491906146a8565b34801561037b57600080fd5b5061038f61038a366004614358565b610a68565b6040516001600160a01b039091168152602001610344565b3480156103b357600080fd5b506103c76103c236600461432d565b610b02565b005b3480156103d557600080fd5b506103e96103e4366004614358565b610c34565b6040516103449190614695565b34801561040257600080fd5b5060fd545b604051908152602001610344565b34801561042157600080fd5b506103c7610430366004614146565b610d81565b34801561044157600080fd5b50610407610450366004614358565b60009081526065602052604090206001015490565b6103c7610473366004614203565b610e09565b34801561048457600080fd5b506103c7610493366004614370565b610ef7565b3480156104a457600080fd5b506104076104b336600461432d565b610f19565b3480156104c457600080fd5b506103c76104d3366004614370565b610fc4565b3480156104e457600080fd5b506103c76104f3366004614467565b610fe6565b34801561050457600080fd5b50610518610513366004614394565b611171565b6040516103449291906146bb565b34801561053257600080fd5b506103c76112c3565b34801561054757600080fd5b506103c7610556366004614146565b61136b565b34801561056757600080fd5b506103c7610576366004614358565b611386565b34801561058757600080fd5b5061059b610596366004614358565b61140d565b6040516103449190614682565b3480156105b457600080fd5b506104076105c3366004614358565b6115a4565b3480156105d457600080fd5b5061015f5460ff16610338565b3480156105ed57600080fd5b506101f854610407565b34801561060357600080fd5b50610617610612366004614394565b611656565b604080516001600160a01b039093168352602083019190915201610344565b34801561064257600080fd5b5061038f610651366004614358565b61169d565b34801561066257600080fd5b506103c76106713660046140f2565b611728565b34801561068257600080fd5b506104076106913660046140f2565b6117e6565b3480156106a257600080fd5b50610407611880565b3480156106b757600080fd5b506103c7611891565b3480156106cc57600080fd5b5061038f6106db366004614394565b611935565b3480156106ec57600080fd5b506103386106fb366004614370565b60009182526065602090815260408084206001600160a01b0393909316845291905290205460ff1690565b34801561073257600080fd5b50610362611954565b34801561074757600080fd5b50610407600081565b34801561075c57600080fd5b506103c761076b3660046142fc565b611963565b34801561077c57600080fd5b506103c761078b3660046143ed565b611a35565b34801561079c57600080fd5b506103c76107ab366004614186565b611b0e565b3480156107bc57600080fd5b506107d06107cb366004614358565b611b96565b6040516103449190614635565b3480156107e957600080fd5b506103c76107f8366004614358565b611ce8565b34801561080957600080fd5b50610362610818366004614358565b611da2565b34801561082957600080fd5b50610407610838366004614358565b611e8a565b34801561084957600080fd5b506104077f9f2df0fed2c77648de5860a4cc508cd0818c85b8b8a1ab4ceeef8d981c8956a681565b34801561087d57600080fd5b506103c761088c366004614370565b611ea1565b34801561089d57600080fd5b506103c76108ac366004614358565b611eab565b3480156108bd57600080fd5b506101f754610407565b3480156108d357600080fd5b506104077f65d7a28e3265b37a6474929f336521b332c1681b933f6cb9f3376673440d862a81565b34801561090757600080fd5b506103c7610916366004614203565b611f5e565b34801561092757600080fd5b5061033861093636600461410e565b6001600160a01b03918216600090815260ce6020908152604080832093909416825291909152205460ff1690565b34801561097057600080fd5b506101f9546001600160a01b031661038f565b34801561098f57600080fd5b506103c761099e3660046140f2565b612092565b3480156109af57600080fd5b506103c76109be3660046144a8565b61215e565b60006109ce82612386565b90505b919050565b606060c980546109e59061484e565b80601f0160208091040260200160405190810160405280929190818152602001828054610a119061484e565b8015610a5e5780601f10610a3357610100808354040283529160200191610a5e565b820191906000526020600020905b815481529060010190602001808311610a4157829003601f168201915b5050505050905090565b600081815260cb60205260408120546001600160a01b0316610ae65760405162461bcd60e51b815260206004820152602c60248201527f4552433732313a20617070726f76656420717565727920666f72206e6f6e657860448201526b34b9ba32b73a103a37b5b2b760a11b60648201526084015b60405180910390fd5b50600090815260cd60205260409020546001600160a01b031690565b6000610b0d8261169d565b9050806001600160a01b0316836001600160a01b03161415610b975760405162461bcd60e51b815260206004820152602160248201527f4552433732313a20617070726f76616c20746f2063757272656e74206f776e6560448201527f72000000000000000000000000000000000000000000000000000000000000006064820152608401610add565b336001600160a01b0382161480610bb35750610bb38133610936565b610c255760405162461bcd60e51b815260206004820152603860248201527f4552433732313a20617070726f76652063616c6c6572206973206e6f74206f7760448201527f6e6572206e6f7220617070726f76656420666f7220616c6c00000000000000006064820152608401610add565b610c2f83836123c4565b505050565b60008181526101f660209081526040808320805482518185028101850190935280835260609493849084015b82821015610ca8576000848152602090819020604080518082019091526002850290910180546001600160a01b03168252600190810154828401529083529092019101610c60565b5050505090506000815167ffffffffffffffff811115610cd857634e487b7160e01b600052604160045260246000fd5b604051908082528060200260200182016040528015610d01578160200160208202803683370190505b50905060005b8251811015610d7957828181518110610d3057634e487b7160e01b600052603260045260246000fd5b602002602001015160200151828281518110610d5c57634e487b7160e01b600052603260045260246000fd5b602090810291909101015280610d7181614889565b915050610d07565b509392505050565b610d8c335b82612432565b610dfe5760405162461bcd60e51b815260206004820152603160248201527f4552433732313a207472616e736665722063616c6c6572206973206e6f74206f60448201527f776e6572206e6f7220617070726f7665640000000000000000000000000000006064820152608401610add565b610c2f838383612529565b6101f75415610eec576101f9546001600160a01b0316610e915760405162461bcd60e51b815260206004820152602760248201527f47686f73746d61726b6574206d696e74696e672046656520416464726573732060448201527f6e6f7420736574000000000000000000000000000000000000000000000000006064820152608401610add565b60006101f85411610ee45760405162461bcd60e51b815260206004820152601f60248201527f47686f73746d61726b6574206d696e74696e6720466565206973207a65726f006044820152606401610add565b610eec612701565b610c2f838383611f5e565b610f018282612890565b6000828152609760205260409020610c2f908261292d565b6000610f24836117e6565b8210610f985760405162461bcd60e51b815260206004820152602b60248201527f455243373231456e756d657261626c653a206f776e657220696e646578206f7560448201527f74206f6620626f756e64730000000000000000000000000000000000000000006064820152608401610add565b506001600160a01b038216600090815260fb602090815260408083208484529091529020545b92915050565b610fce8282612942565b6000828152609760205260409020610c2f90826129ca565b6110107f9f2df0fed2c77648de5860a4cc508cd0818c85b8b8a1ab4ceeef8d981c8956a6336106fb565b6110825760405162461bcd60e51b815260206004820152603660248201527f7570646174696e672066656520726563657069656e7473206973206e6f74206160448201527f6c6c6f7765642062792074686973206163636f756e74000000000000000000006064820152608401610add565b60008381526101f66020526040812054905b8181101561116a5760008581526101f66020526040902080546001600160a01b0386169190839081106110d757634e487b7160e01b600052603260045260246000fd5b60009182526020909120600290910201546001600160a01b031614156111585760008581526101f66020526040902080548491908390811061112957634e487b7160e01b600052603260045260246000fd5b6000918252602090912060029091020180546001600160a01b0319166001600160a01b03929092169190911790555b8061116281614889565b915050611094565b5050505050565b6101f5602052816000526040600020818154811061118e57600080fd5b9060005260206000209060020201600091509150508060000180546111b29061484e565b80601f01602080910402602001604051908101604052809291908181526020018280546111de9061484e565b801561122b5780601f106112005761010080835404028352916020019161122b565b820191906000526020600020905b81548152906001019060200180831161120e57829003601f168201915b5050505050908060010180546112409061484e565b80601f016020809104026020016040519081016040528092919081815260200182805461126c9061484e565b80156112b95780601f1061128e576101008083540402835291602001916112b9565b820191906000526020600020905b81548152906001019060200180831161129c57829003601f168201915b5050505050905082565b6112ed7f65d7a28e3265b37a6474929f336521b332c1681b933f6cb9f3376673440d862a336106fb565b611361576040805162461bcd60e51b81526020600482015260248101919091527f4552433732315072657365744d696e7465725061757365724175746f49643a2060448201527f6d75737420686176652070617573657220726f6c6520746f20756e70617573656064820152608401610add565b6113696129df565b565b610c2f83838360405180602001604052806000815250611b0e565b61138f33610d86565b6114015760405162461bcd60e51b815260206004820152603060248201527f4552433732314275726e61626c653a2063616c6c6572206973206e6f74206f7760448201527f6e6572206e6f7220617070726f766564000000000000000000000000000000006064820152608401610add565b61140a81612a7d565b50565b60606101f56000838152602001908152602001600020805480602002602001604051908101604052809291908181526020016000905b8282101561159957838290600052602060002090600202016040518060400160405290816000820180546114769061484e565b80601f01602080910402602001604051908101604052809291908181526020018280546114a29061484e565b80156114ef5780601f106114c4576101008083540402835291602001916114ef565b820191906000526020600020905b8154815290600101906020018083116114d257829003601f168201915b505050505081526020016001820180546115089061484e565b80601f01602080910402602001604051908101604052809291908181526020018280546115349061484e565b80156115815780601f1061155657610100808354040283529160200191611581565b820191906000526020600020905b81548152906001019060200180831161156457829003601f168201915b50505050508152505081526020019060010190611443565b505050509050919050565b60006115af60fd5490565b82106116235760405162461bcd60e51b815260206004820152602c60248201527f455243373231456e756d657261626c653a20676c6f62616c20696e646578206f60448201527f7574206f6620626f756e647300000000000000000000000000000000000000006064820152608401610add565b60fd828154811061164457634e487b7160e01b600052603260045260246000fd5b90600052602060002001549050919050565b6101f6602052816000526040600020818154811061167357600080fd5b6000918252602090912060029091020180546001909101546001600160a01b039091169250905082565b600081815260cb60205260408120546001600160a01b0316806109ce5760405162461bcd60e51b815260206004820152602960248201527f4552433732313a206f776e657220717565727920666f72206e6f6e657869737460448201527f656e7420746f6b656e00000000000000000000000000000000000000000000006064820152608401610add565b6117527f9f2df0fed2c77648de5860a4cc508cd0818c85b8b8a1ab4ceeef8d981c8956a6336106fb565b6117c45760405162461bcd60e51b815260206004820152603d60248201527f4552433732315072657365744d696e7465725061757365724175746f49643a2060448201527f6d7573742068617665206d696e74657220726f6c6520746f206d696e740000006064820152608401610add565b6117d7816117d26101c35490565b612b24565b61140a6101c380546001019055565b60006001600160a01b0382166118645760405162461bcd60e51b815260206004820152602a60248201527f4552433732313a2062616c616e636520717565727920666f7220746865207a6560448201527f726f2061646472657373000000000000000000000000000000000000000000006064820152608401610add565b506001600160a01b0316600090815260cc602052604090205490565b600061188c6101c35490565b905090565b6118bb7f65d7a28e3265b37a6474929f336521b332c1681b933f6cb9f3376673440d862a336106fb565b61192d5760405162461bcd60e51b815260206004820152603e60248201527f4552433732315072657365744d696e7465725061757365724175746f49643a2060448201527f6d75737420686176652070617573657220726f6c6520746f20706175736500006064820152608401610add565b611369612c72565b600082815260976020526040812061194d9083612cfc565b9392505050565b606060ca80546109e59061484e565b6001600160a01b0382163314156119bc5760405162461bcd60e51b815260206004820152601960248201527f4552433732313a20617070726f766520746f2063616c6c6572000000000000006044820152606401610add565b33600081815260ce602090815260408083206001600160a01b0387168085529252909120805460ff1916841515179055906001600160a01b03167f17307eab39ab6107e8899845ad3d59bd9653f200f220920489ca2b5937696c3183604051611a29911515815260200190565b60405180910390a35050565b600054610100900460ff1680611a4e575060005460ff16155b611ab15760405162461bcd60e51b815260206004820152602e60248201527f496e697469616c697a61626c653a20636f6e747261637420697320616c72656160448201526d191e481a5b9a5d1a585b1a5e995960921b6064820152608401610add565b600054610100900460ff16158015611ad3576000805461ffff19166101011790555b611add8484612d08565b611ae8848484612de4565b6101f9805460ff60a01b191690558015611b08576000805461ff00191690555b50505050565b611b183383612432565b611b8a5760405162461bcd60e51b815260206004820152603160248201527f4552433732313a207472616e736665722063616c6c6572206973206e6f74206f60448201527f776e6572206e6f7220617070726f7665640000000000000000000000000000006064820152608401610add565b611b0884848484612f0e565b60008181526101f660209081526040808320805482518185028101850190935280835260609493849084015b82821015611c0a576000848152602090819020604080518082019091526002850290910180546001600160a01b03168252600190810154828401529083529092019101611bc2565b5050505090506000815167ffffffffffffffff811115611c3a57634e487b7160e01b600052604160045260246000fd5b604051908082528060200260200182016040528015611c63578160200160208202803683370190505b50905060005b8251811015610d7957828181518110611c9257634e487b7160e01b600052603260045260246000fd5b602002602001015160000151828281518110611cbe57634e487b7160e01b600052603260045260246000fd5b6001600160a01b039092166020928302919091019091015280611ce081614889565b915050611c69565b611cf36000336106fb565b611d655760405162461bcd60e51b815260206004820152603660248201527f43616c6c6572206d75737420686176652061646d696e20726f6c6520746f207360448201527f6574206d696e74696e67206665652070657263656e74000000000000000000006064820152608401610add565b6101f78190556040518181527f7bc6903b724da310ba4dbf15a52e7ae8597dcbe9763ff4d88e2b197a648b4a31906020015b60405180910390a150565b600081815260cb60205260409020546060906001600160a01b0316611e2f5760405162461bcd60e51b815260206004820152602f60248201527f4552433732314d657461646174613a2055524920717565727920666f72206e6f60448201527f6e6578697374656e7420746f6b656e00000000000000000000000000000000006064820152608401610add565b6000611e39612f97565b90506000815111611e59576040518060200160405280600081525061194d565b80611e6384612fa7565b604051602001611e749291906145ca565b6040516020818303038152906040529392505050565b60008181526097602052604081206109ce906130f6565b610fce8282613100565b611eb66000336106fb565b611f285760405162461bcd60e51b815260206004820152603660248201527f43616c6c6572206d75737420686176652061646d696e20726f6c6520746f207360448201527f6574206d696e74696e67206665652070657263656e74000000000000000000006064820152608401610add565b6101f88190556040518181527fe28e57f6cdaccbb98c150b646656c0178b4b67253ae73deaba3b9c76525b987e90602001611d97565b611f6783611728565b60006001611f73611880565b611f7d919061480b565b90506000835167ffffffffffffffff811115611fa957634e487b7160e01b600052604160045260246000fd5b604051908082528060200260200182016040528015611fd2578160200160208202803683370190505b5090506000845167ffffffffffffffff811115611fff57634e487b7160e01b600052604160045260246000fd5b604051908082528060200260200182016040528015612028578160200160208202803683370190505b508551909150156120795761203d838661318d565b7f99aba1d63749cfd5ad1afda7c4663840924d54eb5f005bbbeadedc6ec13674b2838383604051612070939291906146e9565b60405180910390a15b83511561208a5761208a83856133a7565b505050505050565b61209d6000336106fb565b61210f5760405162461bcd60e51b815260206004820152603660248201527f43616c6c6572206d75737420686176652061646d696e20726f6c6520746f207360448201527f6574206d696e74696e67206665652061646472657373000000000000000000006064820152608401610add565b6101f980546001600160a01b0319166001600160a01b0383169081179091556040519081527f42e58c2251766d60a378c8984cb15020e19218cae37fa9e7556ce617200f685190602001611d97565b6121887f9f2df0fed2c77648de5860a4cc508cd0818c85b8b8a1ab4ceeef8d981c8956a6336106fb565b6121fa5760405162461bcd60e51b815260206004820152603160248201527f7570646174696e67206665652076616c7565206973206e6f7420616c6c6f776560448201527f642062792074686973206163636f756e740000000000000000000000000000006064820152608401610add565b6000811161224a5760405162461bcd60e51b815260206004820181905260248201527f6e6577204665652076616c75652073686f756c6420626520706f7369746976656044820152606401610add565b60008381526101f66020908152604080832080548251818502810185019093528083529192909190849084015b828210156122bf576000848152602090819020604080518082019091526002850290910180546001600160a01b03168252600190810154828401529083529092019101612277565b50505050905060005b815181101561116a5760008581526101f66020526040902080546001600160a01b03861691908390811061230c57634e487b7160e01b600052603260045260246000fd5b60009182526020909120600290910201546001600160a01b031614156123745760008581526101f66020526040902080548491908390811061235e57634e487b7160e01b600052603260045260246000fd5b9060005260206000209060020201600101819055505b8061237e81614889565b9150506122c8565b60006001600160e01b031982167f780e9d630000000000000000000000000000000000000000000000000000000014806109ce57506109ce8261363a565b600081815260cd6020526040902080546001600160a01b0319166001600160a01b03841690811790915581906123f98261169d565b6001600160a01b03167f8c5be1e5ebec7d5bd14f71427d1e84f3dd0314c0f7b2291e5b200ac8c7c3b92560405160405180910390a45050565b600081815260cb60205260408120546001600160a01b03166124ab5760405162461bcd60e51b815260206004820152602c60248201527f4552433732313a206f70657261746f7220717565727920666f72206e6f6e657860448201526b34b9ba32b73a103a37b5b2b760a11b6064820152608401610add565b60006124b68361169d565b9050806001600160a01b0316846001600160a01b031614806124f15750836001600160a01b03166124e684610a68565b6001600160a01b0316145b8061252157506001600160a01b03808216600090815260ce602090815260408083209388168352929052205460ff165b949350505050565b826001600160a01b031661253c8261169d565b6001600160a01b0316146125b85760405162461bcd60e51b815260206004820152602960248201527f4552433732313a207472616e73666572206f6620746f6b656e2074686174206960448201527f73206e6f74206f776e00000000000000000000000000000000000000000000006064820152608401610add565b6001600160a01b0382166126335760405162461bcd60e51b8152602060048201526024808201527f4552433732313a207472616e7366657220746f20746865207a65726f2061646460448201527f72657373000000000000000000000000000000000000000000000000000000006064820152608401610add565b61263e8383836136ac565b6126496000826123c4565b6001600160a01b038316600090815260cc6020526040812080546001929061267290849061480b565b90915550506001600160a01b038216600090815260cc602052604081208054600192906126a09084906147c0565b9091555050600081815260cb602052604080822080546001600160a01b0319166001600160a01b0386811691821790925591518493918716917fddf252ad1be2c89b69c2b068fc378daa952ba7f163c4a11628f55a4df523b3ef91a4505050565b6101f95474010000000000000000000000000000000000000000900460ff161561276d5760405162461bcd60e51b815260206004820152601360248201527f5265656e7472616e7420646574656374656421000000000000000000000000006044820152606401610add565b6101f9805460ff60a01b191674010000000000000000000000000000000000000000179055600061279c6136b7565b6101f9546040519192506000916001600160a01b039091169083908381818185875af1925050503d80600081146127ef576040519150601f19603f3d011682016040523d82523d6000602084013e6127f4565b606091505b50509050806128455760405162461bcd60e51b815260206004820152601060248201527f5472616e73666572206661696c65642e000000000000000000000000000000006044820152606401610add565b6101f9805460ff60a01b1916905560408051338152602081018490527ff867832f09d3df16244ef05b595ad6197c4fc2da636495ff70035f1acdf2ba0a910160405180910390a15050565b6000828152606560205260409020600101546128ad905b336106fb565b61291f5760405162461bcd60e51b815260206004820152602f60248201527f416363657373436f6e74726f6c3a2073656e646572206d75737420626520616e60448201527f2061646d696e20746f206772616e7400000000000000000000000000000000006064820152608401610add565b61292982826136cb565b5050565b600061194d836001600160a01b03841661376d565b6001600160a01b03811633146129c05760405162461bcd60e51b815260206004820152602f60248201527f416363657373436f6e74726f6c3a2063616e206f6e6c792072656e6f756e636560448201527f20726f6c657320666f722073656c6600000000000000000000000000000000006064820152608401610add565b61292982826137bc565b600061194d836001600160a01b03841661383f565b61015f5460ff16612a325760405162461bcd60e51b815260206004820152601460248201527f5061757361626c653a206e6f74207061757365640000000000000000000000006044820152606401610add565b61015f805460ff191690557f5db9ee0a495bf2e6ff9c91a7834c1ba4fdd244a5e8aa4e537bd38aeae4b073aa335b6040516001600160a01b03909116815260200160405180910390a1565b6000612a888261169d565b9050612a96816000846136ac565b612aa16000836123c4565b6001600160a01b038116600090815260cc60205260408120805460019290612aca90849061480b565b9091555050600082815260cb602052604080822080546001600160a01b0319169055518391906001600160a01b038416907fddf252ad1be2c89b69c2b068fc378daa952ba7f163c4a11628f55a4df523b3ef908390a45050565b6001600160a01b038216612b7a5760405162461bcd60e51b815260206004820181905260248201527f4552433732313a206d696e7420746f20746865207a65726f20616464726573736044820152606401610add565b600081815260cb60205260409020546001600160a01b031615612bdf5760405162461bcd60e51b815260206004820152601c60248201527f4552433732313a20746f6b656e20616c7265616479206d696e746564000000006044820152606401610add565b612beb600083836136ac565b6001600160a01b038216600090815260cc60205260408120805460019290612c149084906147c0565b9091555050600081815260cb602052604080822080546001600160a01b0319166001600160a01b03861690811790915590518392907fddf252ad1be2c89b69c2b068fc378daa952ba7f163c4a11628f55a4df523b3ef908290a45050565b61015f5460ff1615612cc65760405162461bcd60e51b815260206004820152601060248201527f5061757361626c653a20706175736564000000000000000000000000000000006044820152606401610add565b61015f805460ff191660011790557f62e78cea01bee320cd4e420270b5ea74000d11b0c9f74754ebdbfc544b05a258612a603390565b600061194d838361395c565b600054610100900460ff1680612d21575060005460ff16155b612d845760405162461bcd60e51b815260206004820152602e60248201527f496e697469616c697a61626c653a20636f6e747261637420697320616c72656160448201526d191e481a5b9a5d1a585b1a5e995960921b6064820152608401610add565b600054610100900460ff16158015612da6576000805461ffff19166101011790555b8251612db99060c9906020860190613f19565b508151612dcd9060ca906020850190613f19565b508015610c2f576000805461ff0019169055505050565b600054610100900460ff1680612dfd575060005460ff16155b612e605760405162461bcd60e51b815260206004820152602e60248201527f496e697469616c697a61626c653a20636f6e747261637420697320616c72656160448201526d191e481a5b9a5d1a585b1a5e995960921b6064820152608401610add565b600054610100900460ff16158015612e82576000805461ffff19166101011790555b8151612e96906101c4906020850190613f19565b50612ea36000335b613a0b565b612ecd7f9f2df0fed2c77648de5860a4cc508cd0818c85b8b8a1ab4ceeef8d981c8956a633612e9e565b612ef77f65d7a28e3265b37a6474929f336521b332c1681b933f6cb9f3376673440d862a33612e9e565b8015611b08576000805461ff001916905550505050565b612f19848484612529565b612f2584848484613a15565b611b085760405162461bcd60e51b815260206004820152603260248201527f4552433732313a207472616e7366657220746f206e6f6e20455243373231526560448201527f63656976657220696d706c656d656e74657200000000000000000000000000006064820152608401610add565b60606101c480546109e59061484e565b606081612fe8575060408051808201909152600181527f300000000000000000000000000000000000000000000000000000000000000060208201526109d1565b8160005b81156130125780612ffc81614889565b915061300b9050600a836147d8565b9150612fec565b60008167ffffffffffffffff81111561303b57634e487b7160e01b600052604160045260246000fd5b6040519080825280601f01601f191660200182016040528015613065576020820181803683370190505b5090505b84156125215761307a60018361480b565b9150613087600a866148a4565b6130929060306147c0565b60f81b8183815181106130b557634e487b7160e01b600052603260045260246000fd5b60200101907effffffffffffffffffffffffffffffffffffffffffffffffffffffffffffff1916908160001a9053506130ef600a866147d8565b9450613069565b60006109ce825490565b60008281526065602052604090206001015461311b906128a7565b6129c05760405162461bcd60e51b815260206004820152603060248201527f416363657373436f6e74726f6c3a2073656e646572206d75737420626520616e60448201527f2061646d696e20746f207265766f6b65000000000000000000000000000000006064820152608401610add565b600082815260cb60205260409020546001600160a01b03166132065760405162461bcd60e51b815260206004820152602c60248201527f4552433732313a20617070726f76656420717565727920666f72206e6f6e657860448201526b34b9ba32b73a103a37b5b2b760a11b6064820152608401610add565b60005b8151811015610c2f5760006001600160a01b031682828151811061323d57634e487b7160e01b600052603260045260246000fd5b6020026020010151600001516001600160a01b031614156132a05760405162461bcd60e51b815260206004820152601b60248201527f526563697069656e742073686f756c642062652070726573656e7400000000006044820152606401610add565b60008282815181106132c257634e487b7160e01b600052603260045260246000fd5b6020026020010151602001511161331b5760405162461bcd60e51b815260206004820152601c60248201527f4665652076616c75652073686f756c6420626520706f736974697665000000006044820152606401610add565b60008381526101f660205260409020825183908390811061334c57634e487b7160e01b600052603260045260246000fd5b602090810291909101810151825460018082018555600094855293839020825160029092020180546001600160a01b0319166001600160a01b039092169190911781559101519101558061339f81614889565b915050613209565b60005b8151811015610c2f576040805160008152602081019182905251902082518390839081106133e857634e487b7160e01b600052603260045260246000fd5b60200260200101516000015160405160200161340491906145ae565b60405160208183030381529060405280519060200120141561348e5760405162461bcd60e51b815260206004820152602160248201527f417474726962757465206b65792073686f756c64206e6f7420626520656d707460448201527f79000000000000000000000000000000000000000000000000000000000000006064820152608401610add565b6040805160008152602081019182905251902082518390839081106134c357634e487b7160e01b600052603260045260246000fd5b6020026020010151602001516040516020016134df91906145ae565b6040516020818303038152906040528051906020012014156135695760405162461bcd60e51b815260206004820152602360248201527f4174747269627574652076616c75652073686f756c64206e6f7420626520656d60448201527f70747900000000000000000000000000000000000000000000000000000000006064820152608401610add565b60008381526101f560205260409020825183908390811061359a57634e487b7160e01b600052603260045260246000fd5b6020908102919091018101518254600181018455600093845292829020815180519294600202909101926135d392849290910190613f19565b5060208281015180516135ec9260018501920190613f19565b5050507fa5800424c9d59fec069be83c374ba1fad8ad7472fcb6fb6648cbf62a557ae4e78383604051613620929190614752565b60405180910390a18061363281614889565b9150506133aa565b60006001600160e01b031982167f80ac58cd00000000000000000000000000000000000000000000000000000000148061369d57506001600160e01b031982167f5b5e139f00000000000000000000000000000000000000000000000000000000145b806109ce57506109ce82613b78565b610c2f838383613bb6565b60006101f7546101f85461188c91906147ec565b60008281526065602090815260408083206001600160a01b038516845290915290205460ff166129295760008281526065602090815260408083206001600160a01b03851684529091529020805460ff191660011790556137293390565b6001600160a01b0316816001600160a01b0316837f2f8788117e7eff1d82e926ec794901d17c78024a50270940304540a733656f0d60405160405180910390a45050565b60008181526001830160205260408120546137b457508154600181810184556000848152602080822090930184905584548482528286019093526040902091909155610fbe565b506000610fbe565b60008281526065602090815260408083206001600160a01b038516845290915290205460ff16156129295760008281526065602090815260408083206001600160a01b0385168085529252808320805460ff1916905551339285917ff6391f5c32d9c69d2a47ea670b442974b53935d1edc7fd64eb21e047a839171b9190a45050565b6000818152600183016020526040812054801561395257600061386360018361480b565b85549091506000906138779060019061480b565b9050600086600001828154811061389e57634e487b7160e01b600052603260045260246000fd5b90600052602060002001549050808760000184815481106138cf57634e487b7160e01b600052603260045260246000fd5b6000918252602090912001556138e68360016147c0565b6000828152600189016020526040902055865487908061391657634e487b7160e01b600052603160045260246000fd5b60019003818190600052602060002001600090559055866001016000878152602001908152602001600020600090556001945050505050610fbe565b6000915050610fbe565b815460009082106139d55760405162461bcd60e51b815260206004820152602260248201527f456e756d657261626c655365743a20696e646578206f7574206f6620626f756e60448201527f64730000000000000000000000000000000000000000000000000000000000006064820152608401610add565b8260000182815481106139f857634e487b7160e01b600052603260045260246000fd5b9060005260206000200154905092915050565b610f01828261291f565b60006001600160a01b0384163b15613b6d57604051630a85bd0160e11b81526001600160a01b0385169063150b7a0290613a599033908990889088906004016145f9565b602060405180830381600087803b158015613a7357600080fd5b505af1925050508015613aa3575060408051601f3d908101601f19168201909252613aa0918101906143d1565b60015b613b53573d808015613ad1576040519150601f19603f3d011682016040523d82523d6000602084013e613ad6565b606091505b508051613b4b5760405162461bcd60e51b815260206004820152603260248201527f4552433732313a207472616e7366657220746f206e6f6e20455243373231526560448201527f63656976657220696d706c656d656e74657200000000000000000000000000006064820152608401610add565b805181602001fd5b6001600160e01b031916630a85bd0160e11b149050612521565b506001949350505050565b60006001600160e01b031982167f5a05180f0000000000000000000000000000000000000000000000000000000014806109ce57506109ce82613c3b565b613bc1838383613ca2565b61015f5460ff1615610c2f5760405162461bcd60e51b815260206004820152602b60248201527f4552433732315061757361626c653a20746f6b656e207472616e73666572207760448201527f68696c65207061757365640000000000000000000000000000000000000000006064820152608401610add565b60006001600160e01b031982167f7965db0b0000000000000000000000000000000000000000000000000000000014806109ce57507f01ffc9a7000000000000000000000000000000000000000000000000000000006001600160e01b03198316146109ce565b6001600160a01b038316613cfd57613cf88160fd8054600083815260fe60205260408120829055600182018355919091527f9346ac6dd7de6b96975fec380d4d994c4c12e6a8897544f22915316cc6cca2800155565b613d20565b816001600160a01b0316836001600160a01b031614613d2057613d208382613d5f565b6001600160a01b038216613d3c57613d3781613dfc565b610c2f565b826001600160a01b0316826001600160a01b031614610c2f57610c2f8282613ed5565b60006001613d6c846117e6565b613d76919061480b565b600083815260fc6020526040902054909150808214613dc9576001600160a01b038416600090815260fb60209081526040808320858452825280832054848452818420819055835260fc90915290208190555b50600091825260fc602090815260408084208490556001600160a01b03909416835260fb81528383209183525290812055565b60fd54600090613e0e9060019061480b565b600083815260fe602052604081205460fd8054939450909284908110613e4457634e487b7160e01b600052603260045260246000fd5b906000526020600020015490508060fd8381548110613e7357634e487b7160e01b600052603260045260246000fd5b600091825260208083209091019290925582815260fe909152604080822084905585825281205560fd805480613eb957634e487b7160e01b600052603160045260246000fd5b6001900381819060005260206000200160009055905550505050565b6000613ee0836117e6565b6001600160a01b03909316600090815260fb60209081526040808320868452825280832085905593825260fc9052919091209190915550565b828054613f259061484e565b90600052602060002090601f016020900481019282613f475760008555613f8d565b82601f10613f6057805160ff1916838001178555613f8d565b82800160010185558215613f8d579182015b82811115613f8d578251825591602001919060010190613f72565b50613f99929150613f9d565b5090565b5b80821115613f995760008155600101613f9e565b600067ffffffffffffffff831115613fcc57613fcc6148e4565b613fdf601f8401601f191660200161476b565b9050828152838383011115613ff357600080fd5b828260208301376000602084830101529392505050565b600082601f83011261401a578081fd5b8135602061402f61402a8361479c565b61476b565b82815281810190858301855b858110156140c65781358801604080601f19838d0301121561405b578889fd5b6140648161476b565b8783013567ffffffffffffffff8082111561407d578b8cfd5b61408b8e8b848801016140d3565b835292840135928084111561409e578b8cfd5b50506140ae8c89848601016140d3565b8189015286525050928401929084019060010161403b565b5090979650505050505050565b600082601f8301126140e3578081fd5b61194d83833560208501613fb2565b600060208284031215614103578081fd5b813561194d816148fa565b60008060408385031215614120578081fd5b823561412b816148fa565b9150602083013561413b816148fa565b809150509250929050565b60008060006060848603121561415a578081fd5b8335614165816148fa565b92506020840135614175816148fa565b929592945050506040919091013590565b6000806000806080858703121561419b578081fd5b84356141a6816148fa565b935060208501356141b6816148fa565b925060408501359150606085013567ffffffffffffffff8111156141d8578182fd5b8501601f810187136141e8578182fd5b6141f787823560208401613fb2565b91505092959194509250565b600080600060608486031215614217578283fd5b8335614222816148fa565b925060208481013567ffffffffffffffff8082111561423f578485fd5b818701915087601f830112614252578485fd5b813561426061402a8261479c565b8082825285820191508585018b878560061b880101111561427f578889fd5b8895505b838610156142cc57604080828e03121561429b57898afd5b6142a48161476b565b82356142af816148fa565b815282890135898201528452600196909601959287019201614283565b509650505060408701359250808311156142e4578384fd5b50506142f28682870161400a565b9150509250925092565b6000806040838503121561430e578182fd5b8235614319816148fa565b91506020830135801515811461413b578182fd5b6000806040838503121561433f578182fd5b823561434a816148fa565b946020939093013593505050565b600060208284031215614369578081fd5b5035919050565b60008060408385031215614382578182fd5b82359150602083013561413b816148fa565b600080604083850312156143a6578182fd5b50508035926020909101359150565b6000602082840312156143c6578081fd5b813561194d8161490f565b6000602082840312156143e2578081fd5b815161194d8161490f565b600080600060608486031215614401578081fd5b833567ffffffffffffffff80821115614418578283fd5b614424878388016140d3565b94506020860135915080821115614439578283fd5b614445878388016140d3565b9350604086013591508082111561445a578283fd5b506142f2868287016140d3565b60008060006060848603121561447b578081fd5b83359250602084013561448d816148fa565b9150604084013561449d816148fa565b809150509250925092565b6000806000606084860312156144bc578081fd5b833592506020840135614175816148fa565b600081518084526020808501808196508360051b81019150828601855b8581101561453b57828403895281516040815181875261450d82880182614582565b915050868201519150858103878701526145278183614582565b9a87019a95505050908401906001016144eb565b5091979650505050505050565b6000815180845260208085019450808401835b838110156145775781518752958201959082019060010161455b565b509495945050505050565b6000815180845261459a816020860160208601614822565b601f01601f19169290920160200192915050565b600082516145c0818460208701614822565b9190910192915050565b600083516145dc818460208801614822565b8351908301906145f0818360208801614822565b01949350505050565b60006001600160a01b0380871683528086166020840152508360408301526080606083015261462b6080830184614582565b9695505050505050565b6020808252825182820181905260009190848201906040850190845b818110156146765783516001600160a01b031683529284019291840191600101614651565b50909695505050505050565b60006020825261194d60208301846144ce565b60006020825261194d6020830184614548565b60006020825261194d6020830184614582565b6000604082526146ce6040830185614582565b82810360208401526146e08185614582565b95945050505050565b60006060820185835260206060818501528186518084526080860191508288019350845b818110156147325784516001600160a01b03168352938301939183019160010161470d565b505084810360408601526147468187614548565b98975050505050505050565b60008382526040602083015261252160408301846144ce565b604051601f8201601f1916810167ffffffffffffffff81118282101715614794576147946148e4565b604052919050565b600067ffffffffffffffff8211156147b6576147b66148e4565b5060051b60200190565b600082198211156147d3576147d36148b8565b500190565b6000826147e7576147e76148ce565b500490565b6000816000190483118215151615614806576148066148b8565b500290565b60008282101561481d5761481d6148b8565b500390565b60005b8381101561483d578181015183820152602001614825565b83811115611b085750506000910152565b600181811c9082168061486257607f821691505b6020821081141561488357634e487b7160e01b600052602260045260246000fd5b50919050565b600060001982141561489d5761489d6148b8565b5060010190565b6000826148b3576148b36148ce565b500690565b634e487b7160e01b600052601160045260246000fd5b634e487b7160e01b600052601260045260246000fd5b634e487b7160e01b600052604160045260246000fd5b6001600160a01b038116811461140a57600080fd5b6001600160e01b03198116811461140a57600080fdfea2646970667358221220afe5ee8581297ad1f02fb1e710d09f00149674f82c71c3fbde905f1c82d6dcfb64736f6c63430008030033",
  "immutableReferences": {},
  "source": "// SPDX-License-Identifier: MIT\npragma solidity ^0.8.3;\n\nimport \"@openzeppelin/contracts-upgradeable/token/ERC721/presets/ERC721PresetMinterPauserAutoIdUpgradeable.sol\";\nimport \"@openzeppelin/contracts-upgradeable/security/ReentrancyGuardUpgradeable.sol\";\n\n/**\n * @dev ERC721 token with minting, burning, pause, secondary sales royalitiy functions.\n *\n */\ncontract GhostmarketNFT is\n    Initializable,\n    ERC721PresetMinterPauserAutoIdUpgradeable\n{\n    // struct for secondary sales fees\n    struct Fee {\n        address payable recipient;\n        uint256 value;\n    }\n\n    //nft attributes struct\n    struct AttributesStruct {\n        string key;\n        string value;\n    }\n\n    // tokenId => attributes array\n    mapping(uint256 => AttributesStruct[]) public attribute;\n\n    // tokenId => fees array\n    mapping(uint256 => Fee[]) public fees;\n\n    event SecondarySaleFees(\n        uint256 tokenId,\n        address[] recipients,\n        uint256[] bps\n    );\n\n    event AttributesSet(uint256 tokenId, AttributesStruct[] attributes);\n    event GhostmarketFeeAddressChanged(address newValue);\n    event GhostmarketFeeMultiplierChanged(uint256 newValue);\n    event GhostmarketMintFeeChanged(uint256 newValue);\n    event GhostmarketFeePaid(address sender, uint256 value);\n\n    // fee multiplier\n    uint256 private _ghostmarketFeeMultiplier;\n\n    // minting fee\n    uint256 private _ghostmarketMintingFee;\n\n    //address where the transfer fees will be sent\n    address payable private _ghostmarketFeeAddress;\n\n    //Reentrancy\n    bool locked;\n\n    function initialize(\n        string memory name,\n        string memory symbol,\n        string memory uri\n    ) public override initializer {\n        __ERC721_init_unchained(name, symbol);\n        __ERC721PresetMinterPauserAutoId_init_unchained(name, symbol, uri);\n        locked = false;\n    }\n\n    /**\n     * @dev saves the nft tokens custom attributes to contract storage\n     * emits AttributesSet event\n     */\n    function setAttributes(\n        uint256 _tokenId,\n        AttributesStruct[] memory _attributes\n    ) internal {\n        for (uint256 i = 0; i < _attributes.length; i++) {\n            require(\n                keccak256(abi.encodePacked(_attributes[i].key)) !=\n                    keccak256(abi.encodePacked(\"\")),\n                \"Attribute key should not be empty\"\n            );\n            require(\n                keccak256(abi.encodePacked(_attributes[i].value)) !=\n                    keccak256(abi.encodePacked(\"\")),\n                \"Attribute value should not be empty\"\n            );\n            attribute[_tokenId].push(_attributes[i]);\n            emit AttributesSet(_tokenId, _attributes);\n        }\n    }\n\n    /**\n     * @dev get the nft token attributes with the tokenId\n     */\n    function getAttributes(uint256 _tokenId)\n        public\n        view\n        returns (AttributesStruct[] memory)\n    {\n        return attribute[_tokenId];\n    }\n\n    /**\n     * @dev get the \"secondary sales\"/royalities fee recepients with the tokenId\n     */\n    function getFeeRecipients(uint256 _tokenId)\n        public\n        view\n        returns (address payable[] memory)\n    {\n        Fee[] memory _fees = fees[_tokenId];\n        address payable[] memory result = new address payable[](_fees.length);\n        for (uint256 i = 0; i < _fees.length; i++) {\n            result[i] = _fees[i].recipient;\n        }\n        return result;\n    }\n\n    /**\n     * @dev get the \"secondary sales\"/royalities fee basis points 10000 = 100% with the tokenId\n     */\n    function getFeeBps(uint256 _tokenId)\n        public\n        view\n        returns (uint256[] memory)\n    {\n        Fee[] memory _fees = fees[_tokenId];\n        uint256[] memory result = new uint256[](_fees.length);\n        for (uint256 i = 0; i < _fees.length; i++) {\n            result[i] = _fees[i].value;\n        }\n        return result;\n    }\n\n    /**\n     * @dev save the \"secondary sales\"/royalities fee for the nft\n     * fee basis points 10000 = 100%\n     */\n    function saveFees(uint256 _tokenId, Fee[] memory _fees) internal {\n        require(\n            _exists(_tokenId),\n            \"ERC721: approved query for nonexistent token\"\n        );\n        for (uint256 i = 0; i < _fees.length; i++) {\n            require(\n                _fees[i].recipient != address(0x0),\n                \"Recipient should be present\"\n            );\n            require(_fees[i].value > 0, \"Fee value should be positive\");\n            fees[_tokenId].push(_fees[i]);\n        }\n    }\n\n    /**\n     * @dev change the \"secondary sales\"/royalities fee value for a specific recipient address\n     */\n    function updateRecipientsFees(\n        uint256 _tokenId,\n        address _from,\n        uint256 _value\n    ) external {\n        require(\n            hasRole(MINTER_ROLE, _msgSender()),\n            \"updating fee value is not allowed by this account\"\n        );\n        require(_value > 0, \"new Fee value should be positive\");\n        Fee[] memory _fees = fees[_tokenId];\n        for (uint256 i = 0; i < _fees.length; i++) {\n            if (fees[_tokenId][i].recipient == _from) {\n                fees[_tokenId][i].value = _value;\n            }\n        }\n    }\n\n    /**\n     * @dev change the recepient address of the \"secondary sales\"/royalities fee\n     */\n    function updateFeeAccount(\n        uint256 _tokenId,\n        address _from,\n        address _to\n    ) external {\n        require(\n            hasRole(MINTER_ROLE, _msgSender()),\n            \"updating fee recepients is not allowed by this account\"\n        );\n        uint256 length = fees[_tokenId].length;\n        for (uint256 i = 0; i < length; i++) {\n            if (fees[_tokenId][i].recipient == _from) {\n                fees[_tokenId][i].recipient = payable(address(uint160(_to)));\n            }\n        }\n    }\n\n    /**\n     * @dev mint NFT and set fee\n     */\n    function mint(\n        address _to,\n        Fee[] memory _fees,\n        AttributesStruct[] memory _attributes\n    ) public {\n        mint(_to);\n        uint256 _tokenId = (getCurrentCounter() - 1);\n        address[] memory recipients = new address[](_fees.length);\n        uint256[] memory bps = new uint256[](_fees.length);\n        if (_fees.length > 0) {\n            saveFees(_tokenId, _fees);\n            emit SecondarySaleFees(_tokenId, recipients, bps);\n        }\n        if (_attributes.length > 0) {\n            setAttributes(_tokenId, _attributes);\n        }\n    }\n\n    function mintWithFee(\n        address _to,\n        Fee[] memory _fees,\n        AttributesStruct[] memory _attributes\n    ) public payable {\n        if (_ghostmarketFeeMultiplier > 0) {\n            require(\n                _ghostmarketFeeAddress != address(0),\n                \"Ghostmarket minting Fee Address not set\"\n            );\n            require(\n                _ghostmarketMintingFee > 0,\n                \"Ghostmarket minting Fee is zero\"\n            );\n            _sendMintingFee();\n        }\n\n        mint(_to, _fees, _attributes);\n    }\n\n    function _sendMintingFee() internal {\n        require(!locked, \"Reentrant detected!\");\n        locked = true;\n        uint256 feevalue = _calculateGhostmarketMintingFee();\n\n        (bool success, ) =\n            _ghostmarketFeeAddress.call{value: feevalue}(\"\");\n        require(success, \"Transfer failed.\");\n        locked = false;\n        emit GhostmarketFeePaid(msg.sender, feevalue);\n    }\n\n    /**\n     * @dev set the wallet address where fees will be collected\n     */\n    function setGhostmarketFeeAddress(address payable gmfa)\n        public\n    {\n        require(\n            hasRole(DEFAULT_ADMIN_ROLE, _msgSender()),\n            \"Caller must have admin role to set minting fee address\"\n        );\n\n        _ghostmarketFeeAddress = gmfa;\n        emit GhostmarketFeeAddressChanged(_ghostmarketFeeAddress);\n    }\n\n    /**\n     * @dev sets the transfer fee multiplier\n     */\n    function setGhostmarketFeeMultiplier(uint256 gmfm)\n        public\n    {\n        require(\n            hasRole(DEFAULT_ADMIN_ROLE, _msgSender()),\n            \"Caller must have admin role to set minting fee percent\"\n        );\n        _ghostmarketFeeMultiplier = gmfm;\n        emit GhostmarketFeeMultiplierChanged(_ghostmarketFeeMultiplier);\n    }\n\n    /**\n     * @dev sets the transfer fee multiplier\n     */\n    function setGhostmarketMintFee(uint256 gmmf) public {\n        require(\n            hasRole(DEFAULT_ADMIN_ROLE, _msgSender()),\n            \"Caller must have admin role to set minting fee percent\"\n        );\n        _ghostmarketMintingFee = gmmf;\n        emit GhostmarketMintFeeChanged(_ghostmarketMintingFee);\n    }\n\n    /**\n     * @return the ghostmarketFeeAddress\n     */\n    function ghostmarketFeeAddress() public view returns (address payable) {\n        return _ghostmarketFeeAddress;\n    }\n\n    /**\n     * @return the ghostmarketMintingFee.\n     */\n    function ghostmarketMintingFee() public view returns (uint256) {\n        return _ghostmarketMintingFee;\n    }\n\n    /**\n     * @return the ghostmarketFeeMultiplier.\n     */\n    function ghostmarketFeeMultiplier() public view returns (uint256) {\n        return _ghostmarketFeeMultiplier;\n    }\n\n    function _calculateGhostmarketMintingFee() internal view returns (uint256) {\n        return _ghostmarketMintingFee * _ghostmarketFeeMultiplier;\n    }\n}\n",
  "sourcePath": "/Users/selimerunkut/dev_freelance/GhostMarketContractBSC/contracts/GhostmarketNFT.sol",
  "compiler": {
    "name": "solc",
    "version": "0.8.3+commit.8d00100c.Emscripten.clang"
  },
  "schemaVersion": "3.3.4",
  "updatedAt": "2021-04-30T20:02:49.999Z",
  "devdoc": {
    "details": "ERC721 token with minting, burning, pause, secondary sales royalitiy functions.",
    "kind": "dev",
    "methods": {
      "approve(address,uint256)": {
        "details": "See {IERC721-approve}."
      },
      "balanceOf(address)": {
        "details": "See {IERC721-balanceOf}."
      },
      "burn(uint256)": {
        "details": "Burns `tokenId`. See {ERC721-_burn}. Requirements: - The caller must own `tokenId` or be an approved operator."
      },
      "getApproved(uint256)": {
        "details": "See {IERC721-getApproved}."
      },
      "getAttributes(uint256)": {
        "details": "get the nft token attributes with the tokenId"
      },
      "getFeeBps(uint256)": {
        "details": "get the \"secondary sales\"/royalities fee basis points 10000 = 100% with the tokenId"
      },
      "getFeeRecipients(uint256)": {
        "details": "get the \"secondary sales\"/royalities fee recepients with the tokenId"
      },
      "getRoleAdmin(bytes32)": {
        "details": "Returns the admin role that controls `role`. See {grantRole} and {revokeRole}. To change a role's admin, use {_setRoleAdmin}."
      },
      "getRoleMember(bytes32,uint256)": {
        "details": "Returns one of the accounts that have `role`. `index` must be a value between 0 and {getRoleMemberCount}, non-inclusive. Role bearers are not sorted in any particular way, and their ordering may change at any point. WARNING: When using {getRoleMember} and {getRoleMemberCount}, make sure you perform all queries on the same block. See the following https://forum.openzeppelin.com/t/iterating-over-elements-on-enumerableset-in-openzeppelin-contracts/2296[forum post] for more information."
      },
      "getRoleMemberCount(bytes32)": {
        "details": "Returns the number of accounts that have `role`. Can be used together with {getRoleMember} to enumerate all bearers of a role."
      },
      "ghostmarketFeeAddress()": {
        "returns": {
          "_0": "the ghostmarketFeeAddress"
        }
      },
      "ghostmarketFeeMultiplier()": {
        "returns": {
          "_0": "the ghostmarketFeeMultiplier."
        }
      },
      "ghostmarketMintingFee()": {
        "returns": {
          "_0": "the ghostmarketMintingFee."
        }
      },
      "grantRole(bytes32,address)": {
        "details": "Overload {grantRole} to track enumerable memberships"
      },
      "hasRole(bytes32,address)": {
        "details": "Returns `true` if `account` has been granted `role`."
      },
      "isApprovedForAll(address,address)": {
        "details": "See {IERC721-isApprovedForAll}."
      },
      "mint(address)": {
        "details": "Creates a new token for `to`. Its token ID will be automatically assigned (and available on the emitted {IERC721-Transfer} event), and the token URI autogenerated based on the base URI passed at construction. See {ERC721-_mint}. Requirements: - the caller must have the `MINTER_ROLE`."
      },
      "mint(address,(address,uint256)[],(string,string)[])": {
        "details": "mint NFT and set fee"
      },
      "name()": {
        "details": "See {IERC721Metadata-name}."
      },
      "ownerOf(uint256)": {
        "details": "See {IERC721-ownerOf}."
      },
      "pause()": {
        "details": "Pauses all token transfers. See {ERC721Pausable} and {Pausable-_pause}. Requirements: - the caller must have the `PAUSER_ROLE`."
      },
      "paused()": {
        "details": "Returns true if the contract is paused, and false otherwise."
      },
      "renounceRole(bytes32,address)": {
        "details": "Overload {renounceRole} to track enumerable memberships"
      },
      "revokeRole(bytes32,address)": {
        "details": "Overload {revokeRole} to track enumerable memberships"
      },
      "safeTransferFrom(address,address,uint256)": {
        "details": "See {IERC721-safeTransferFrom}."
      },
      "safeTransferFrom(address,address,uint256,bytes)": {
        "details": "See {IERC721-safeTransferFrom}."
      },
      "setApprovalForAll(address,bool)": {
        "details": "See {IERC721-setApprovalForAll}."
      },
      "setGhostmarketFeeAddress(address)": {
        "details": "set the wallet address where fees will be collected"
      },
      "setGhostmarketFeeMultiplier(uint256)": {
        "details": "sets the transfer fee multiplier"
      },
      "setGhostmarketMintFee(uint256)": {
        "details": "sets the transfer fee multiplier"
      },
      "supportsInterface(bytes4)": {
        "details": "See {IERC165-supportsInterface}."
      },
      "symbol()": {
        "details": "See {IERC721Metadata-symbol}."
      },
      "tokenByIndex(uint256)": {
        "details": "See {IERC721Enumerable-tokenByIndex}."
      },
      "tokenOfOwnerByIndex(address,uint256)": {
        "details": "See {IERC721Enumerable-tokenOfOwnerByIndex}."
      },
      "tokenURI(uint256)": {
        "details": "See {IERC721Metadata-tokenURI}."
      },
      "totalSupply()": {
        "details": "See {IERC721Enumerable-totalSupply}."
      },
      "transferFrom(address,address,uint256)": {
        "details": "See {IERC721-transferFrom}."
      },
      "unpause()": {
        "details": "Unpauses all token transfers. See {ERC721Pausable} and {Pausable-_unpause}. Requirements: - the caller must have the `PAUSER_ROLE`."
      },
      "updateFeeAccount(uint256,address,address)": {
        "details": "change the recepient address of the \"secondary sales\"/royalities fee"
      },
      "updateRecipientsFees(uint256,address,uint256)": {
        "details": "change the \"secondary sales\"/royalities fee value for a specific recipient address"
      }
    },
    "version": 1
  },
  "userdoc": {
    "kind": "user",
    "methods": {},
    "version": 1
  }
}