{
  "contractName": "GhostmarketERC1155",
  "abi": [
    {
      "anonymous": false,
      "inputs": [
        {
          "indexed": true,
          "internalType": "address",
          "name": "account",
          "type": "address"
        },
        {
          "indexed": true,
          "internalType": "address",
          "name": "operator",
          "type": "address"
        },
        {
          "indexed": false,
          "internalType": "bool",
          "name": "approved",
          "type": "bool"
        }
      ],
      "name": "ApprovalForAll",
      "type": "event"
    },
    {
      "anonymous": false,
      "inputs": [
        {
          "indexed": false,
          "internalType": "uint256",
          "name": "tokenId",
          "type": "uint256"
        },
        {
          "indexed": false,
          "internalType": "string",
          "name": "metadataJson",
          "type": "string"
        }
      ],
      "name": "AttributesSet",
      "type": "event"
    },
    {
      "anonymous": false,
      "inputs": [
        {
          "indexed": false,
          "internalType": "address",
          "name": "newValue",
          "type": "address"
        }
      ],
      "name": "GhostmarketFeeAddressChanged",
      "type": "event"
    },
    {
      "anonymous": false,
      "inputs": [
        {
          "indexed": false,
          "internalType": "address",
          "name": "sender",
          "type": "address"
        },
        {
          "indexed": false,
          "internalType": "uint256",
          "name": "value",
          "type": "uint256"
        }
      ],
      "name": "GhostmarketFeePaid",
      "type": "event"
    },
    {
      "anonymous": false,
      "inputs": [
        {
          "indexed": false,
          "internalType": "uint256",
          "name": "newValue",
          "type": "uint256"
        }
      ],
      "name": "GhostmarketMintFeeChanged",
      "type": "event"
    },
    {
      "anonymous": false,
      "inputs": [
        {
          "indexed": false,
          "internalType": "address",
          "name": "msgSender",
          "type": "address"
        },
        {
          "indexed": false,
          "internalType": "uint256",
          "name": "tokenId",
          "type": "uint256"
        },
        {
          "indexed": false,
          "internalType": "string",
          "name": "lockedContent",
          "type": "string"
        }
      ],
      "name": "LockedContentViewed",
      "type": "event"
    },
    {
      "anonymous": false,
      "inputs": [
        {
          "indexed": false,
          "internalType": "address",
          "name": "toAddress",
          "type": "address"
        },
        {
          "indexed": false,
          "internalType": "uint256",
          "name": "tokenId",
          "type": "uint256"
        },
        {
          "indexed": false,
          "internalType": "string",
          "name": "tokenURI",
          "type": "string"
        },
        {
          "indexed": false,
          "internalType": "uint256",
          "name": "amount",
          "type": "uint256"
        }
      ],
      "name": "Minted",
      "type": "event"
    },
    {
      "anonymous": false,
      "inputs": [
        {
          "indexed": false,
          "internalType": "address",
          "name": "account",
          "type": "address"
        }
      ],
      "name": "Paused",
      "type": "event"
    },
    {
      "anonymous": false,
      "inputs": [
        {
          "indexed": true,
          "internalType": "bytes32",
          "name": "role",
          "type": "bytes32"
        },
        {
          "indexed": true,
          "internalType": "bytes32",
          "name": "previousAdminRole",
          "type": "bytes32"
        },
        {
          "indexed": true,
          "internalType": "bytes32",
          "name": "newAdminRole",
          "type": "bytes32"
        }
      ],
      "name": "RoleAdminChanged",
      "type": "event"
    },
    {
      "anonymous": false,
      "inputs": [
        {
          "indexed": true,
          "internalType": "bytes32",
          "name": "role",
          "type": "bytes32"
        },
        {
          "indexed": true,
          "internalType": "address",
          "name": "account",
          "type": "address"
        },
        {
          "indexed": true,
          "internalType": "address",
          "name": "sender",
          "type": "address"
        }
      ],
      "name": "RoleGranted",
      "type": "event"
    },
    {
      "anonymous": false,
      "inputs": [
        {
          "indexed": true,
          "internalType": "bytes32",
          "name": "role",
          "type": "bytes32"
        },
        {
          "indexed": true,
          "internalType": "address",
          "name": "account",
          "type": "address"
        },
        {
          "indexed": true,
          "internalType": "address",
          "name": "sender",
          "type": "address"
        }
      ],
      "name": "RoleRevoked",
      "type": "event"
    },
    {
      "anonymous": false,
      "inputs": [
        {
          "indexed": false,
          "internalType": "uint256",
          "name": "tokenId",
          "type": "uint256"
        },
        {
          "indexed": false,
          "internalType": "address",
          "name": "recipients",
          "type": "address"
        },
        {
          "indexed": false,
          "internalType": "uint256",
          "name": "bps",
          "type": "uint256"
        }
      ],
      "name": "SecondarySaleFees",
      "type": "event"
    },
    {
      "anonymous": false,
      "inputs": [
        {
          "indexed": true,
          "internalType": "address",
          "name": "operator",
          "type": "address"
        },
        {
          "indexed": true,
          "internalType": "address",
          "name": "from",
          "type": "address"
        },
        {
          "indexed": true,
          "internalType": "address",
          "name": "to",
          "type": "address"
        },
        {
          "indexed": false,
          "internalType": "uint256[]",
          "name": "ids",
          "type": "uint256[]"
        },
        {
          "indexed": false,
          "internalType": "uint256[]",
          "name": "values",
          "type": "uint256[]"
        }
      ],
      "name": "TransferBatch",
      "type": "event"
    },
    {
      "anonymous": false,
      "inputs": [
        {
          "indexed": true,
          "internalType": "address",
          "name": "operator",
          "type": "address"
        },
        {
          "indexed": true,
          "internalType": "address",
          "name": "from",
          "type": "address"
        },
        {
          "indexed": true,
          "internalType": "address",
          "name": "to",
          "type": "address"
        },
        {
          "indexed": false,
          "internalType": "uint256",
          "name": "id",
          "type": "uint256"
        },
        {
          "indexed": false,
          "internalType": "uint256",
          "name": "value",
          "type": "uint256"
        }
      ],
      "name": "TransferSingle",
      "type": "event"
    },
    {
      "anonymous": false,
      "inputs": [
        {
          "indexed": false,
          "internalType": "string",
          "name": "value",
          "type": "string"
        },
        {
          "indexed": true,
          "internalType": "uint256",
          "name": "id",
          "type": "uint256"
        }
      ],
      "name": "URI",
      "type": "event"
    },
    {
      "anonymous": false,
      "inputs": [
        {
          "indexed": false,
          "internalType": "address",
          "name": "account",
          "type": "address"
        }
      ],
      "name": "Unpaused",
      "type": "event"
    },
    {
      "inputs": [],
      "name": "DEFAULT_ADMIN_ROLE",
      "outputs": [
        {
          "internalType": "bytes32",
          "name": "",
          "type": "bytes32"
        }
      ],
      "stateMutability": "view",
      "type": "function"
    },
    {
      "inputs": [],
      "name": "MINTER_ROLE",
      "outputs": [
        {
          "internalType": "bytes32",
          "name": "",
          "type": "bytes32"
        }
      ],
      "stateMutability": "view",
      "type": "function"
    },
    {
      "inputs": [],
      "name": "PAUSER_ROLE",
      "outputs": [
        {
          "internalType": "bytes32",
          "name": "",
          "type": "bytes32"
        }
      ],
      "stateMutability": "view",
      "type": "function"
    },
    {
      "inputs": [
        {
          "internalType": "uint256",
          "name": "",
          "type": "uint256"
        }
      ],
      "name": "_lockedContent",
      "outputs": [
        {
          "internalType": "string",
          "name": "",
          "type": "string"
        }
      ],
      "stateMutability": "view",
      "type": "function"
    },
    {
      "inputs": [
        {
          "internalType": "address",
          "name": "account",
          "type": "address"
        },
        {
          "internalType": "uint256",
          "name": "id",
          "type": "uint256"
        }
      ],
      "name": "balanceOf",
      "outputs": [
        {
          "internalType": "uint256",
          "name": "",
          "type": "uint256"
        }
      ],
      "stateMutability": "view",
      "type": "function"
    },
    {
      "inputs": [
        {
          "internalType": "address[]",
          "name": "accounts",
          "type": "address[]"
        },
        {
          "internalType": "uint256[]",
          "name": "ids",
          "type": "uint256[]"
        }
      ],
      "name": "balanceOfBatch",
      "outputs": [
        {
          "internalType": "uint256[]",
          "name": "",
          "type": "uint256[]"
        }
      ],
      "stateMutability": "view",
      "type": "function"
    },
    {
      "inputs": [
        {
          "internalType": "address",
          "name": "account",
          "type": "address"
        },
        {
          "internalType": "uint256",
          "name": "id",
          "type": "uint256"
        },
        {
          "internalType": "uint256",
          "name": "value",
          "type": "uint256"
        }
      ],
      "name": "burn",
      "outputs": [],
      "stateMutability": "nonpayable",
      "type": "function"
    },
    {
      "inputs": [
        {
          "internalType": "address",
          "name": "account",
          "type": "address"
        },
        {
          "internalType": "uint256[]",
          "name": "ids",
          "type": "uint256[]"
        },
        {
          "internalType": "uint256[]",
          "name": "values",
          "type": "uint256[]"
        }
      ],
      "name": "burnBatch",
      "outputs": [],
      "stateMutability": "nonpayable",
      "type": "function"
    },
    {
      "inputs": [
        {
          "internalType": "uint256",
          "name": "",
          "type": "uint256"
        },
        {
          "internalType": "uint256",
          "name": "",
          "type": "uint256"
        }
      ],
      "name": "fees",
      "outputs": [
        {
          "internalType": "address payable",
          "name": "recipient",
          "type": "address"
        },
        {
          "internalType": "uint256",
          "name": "value",
          "type": "uint256"
        }
      ],
      "stateMutability": "view",
      "type": "function"
    },
    {
      "inputs": [
        {
          "internalType": "bytes32",
          "name": "role",
          "type": "bytes32"
        }
      ],
      "name": "getRoleAdmin",
      "outputs": [
        {
          "internalType": "bytes32",
          "name": "",
          "type": "bytes32"
        }
      ],
      "stateMutability": "view",
      "type": "function"
    },
    {
      "inputs": [
        {
          "internalType": "bytes32",
          "name": "role",
          "type": "bytes32"
        },
        {
          "internalType": "uint256",
          "name": "index",
          "type": "uint256"
        }
      ],
      "name": "getRoleMember",
      "outputs": [
        {
          "internalType": "address",
          "name": "",
          "type": "address"
        }
      ],
      "stateMutability": "view",
      "type": "function"
    },
    {
      "inputs": [
        {
          "internalType": "bytes32",
          "name": "role",
          "type": "bytes32"
        }
      ],
      "name": "getRoleMemberCount",
      "outputs": [
        {
          "internalType": "uint256",
          "name": "",
          "type": "uint256"
        }
      ],
      "stateMutability": "view",
      "type": "function"
    },
    {
      "inputs": [
        {
          "internalType": "bytes32",
          "name": "role",
          "type": "bytes32"
        },
        {
          "internalType": "address",
          "name": "account",
          "type": "address"
        }
      ],
      "name": "grantRole",
      "outputs": [],
      "stateMutability": "nonpayable",
      "type": "function"
    },
    {
      "inputs": [
        {
          "internalType": "bytes32",
          "name": "role",
          "type": "bytes32"
        },
        {
          "internalType": "address",
          "name": "account",
          "type": "address"
        }
      ],
      "name": "hasRole",
      "outputs": [
        {
          "internalType": "bool",
          "name": "",
          "type": "bool"
        }
      ],
      "stateMutability": "view",
      "type": "function"
    },
    {
      "inputs": [
        {
          "internalType": "address",
          "name": "account",
          "type": "address"
        },
        {
          "internalType": "address",
          "name": "operator",
          "type": "address"
        }
      ],
      "name": "isApprovedForAll",
      "outputs": [
        {
          "internalType": "bool",
          "name": "",
          "type": "bool"
        }
      ],
      "stateMutability": "view",
      "type": "function"
    },
    {
      "inputs": [
        {
          "internalType": "address",
          "name": "to",
          "type": "address"
        },
        {
          "internalType": "uint256",
          "name": "id",
          "type": "uint256"
        },
        {
          "internalType": "uint256",
          "name": "amount",
          "type": "uint256"
        },
        {
          "internalType": "bytes",
          "name": "data",
          "type": "bytes"
        }
      ],
      "name": "mint",
      "outputs": [],
      "stateMutability": "nonpayable",
      "type": "function"
    },
    {
      "inputs": [
        {
          "internalType": "address",
          "name": "to",
          "type": "address"
        },
        {
          "internalType": "uint256[]",
          "name": "ids",
          "type": "uint256[]"
        },
        {
          "internalType": "uint256[]",
          "name": "amounts",
          "type": "uint256[]"
        },
        {
          "internalType": "bytes",
          "name": "data",
          "type": "bytes"
        }
      ],
      "name": "mintBatch",
      "outputs": [],
      "stateMutability": "nonpayable",
      "type": "function"
    },
    {
      "inputs": [],
      "name": "name",
      "outputs": [
        {
          "internalType": "string",
          "name": "",
          "type": "string"
        }
      ],
      "stateMutability": "view",
      "type": "function"
    },
    {
      "inputs": [],
      "name": "pause",
      "outputs": [],
      "stateMutability": "nonpayable",
      "type": "function"
    },
    {
      "inputs": [],
      "name": "paused",
      "outputs": [
        {
          "internalType": "bool",
          "name": "",
          "type": "bool"
        }
      ],
      "stateMutability": "view",
      "type": "function"
    },
    {
      "inputs": [
        {
          "internalType": "bytes32",
          "name": "role",
          "type": "bytes32"
        },
        {
          "internalType": "address",
          "name": "account",
          "type": "address"
        }
      ],
      "name": "renounceRole",
      "outputs": [],
      "stateMutability": "nonpayable",
      "type": "function"
    },
    {
      "inputs": [
        {
          "internalType": "bytes32",
          "name": "role",
          "type": "bytes32"
        },
        {
          "internalType": "address",
          "name": "account",
          "type": "address"
        }
      ],
      "name": "revokeRole",
      "outputs": [],
      "stateMutability": "nonpayable",
      "type": "function"
    },
    {
      "inputs": [
        {
          "internalType": "address",
          "name": "from",
          "type": "address"
        },
        {
          "internalType": "address",
          "name": "to",
          "type": "address"
        },
        {
          "internalType": "uint256[]",
          "name": "ids",
          "type": "uint256[]"
        },
        {
          "internalType": "uint256[]",
          "name": "amounts",
          "type": "uint256[]"
        },
        {
          "internalType": "bytes",
          "name": "data",
          "type": "bytes"
        }
      ],
      "name": "safeBatchTransferFrom",
      "outputs": [],
      "stateMutability": "nonpayable",
      "type": "function"
    },
    {
      "inputs": [
        {
          "internalType": "address",
          "name": "from",
          "type": "address"
        },
        {
          "internalType": "address",
          "name": "to",
          "type": "address"
        },
        {
          "internalType": "uint256",
          "name": "id",
          "type": "uint256"
        },
        {
          "internalType": "uint256",
          "name": "amount",
          "type": "uint256"
        },
        {
          "internalType": "bytes",
          "name": "data",
          "type": "bytes"
        }
      ],
      "name": "safeTransferFrom",
      "outputs": [],
      "stateMutability": "nonpayable",
      "type": "function"
    },
    {
      "inputs": [
        {
          "internalType": "address",
          "name": "operator",
          "type": "address"
        },
        {
          "internalType": "bool",
          "name": "approved",
          "type": "bool"
        }
      ],
      "name": "setApprovalForAll",
      "outputs": [],
      "stateMutability": "nonpayable",
      "type": "function"
    },
    {
      "inputs": [
        {
          "internalType": "bytes4",
          "name": "interfaceId",
          "type": "bytes4"
        }
      ],
      "name": "supportsInterface",
      "outputs": [
        {
          "internalType": "bool",
          "name": "",
          "type": "bool"
        }
      ],
      "stateMutability": "view",
      "type": "function"
    },
    {
      "inputs": [],
      "name": "symbol",
      "outputs": [
        {
          "internalType": "string",
          "name": "",
          "type": "string"
        }
      ],
      "stateMutability": "view",
      "type": "function"
    },
    {
      "inputs": [],
      "name": "unpause",
      "outputs": [],
      "stateMutability": "nonpayable",
      "type": "function"
    },
    {
      "inputs": [
        {
          "internalType": "uint256",
          "name": "",
          "type": "uint256"
        }
      ],
      "name": "uri",
      "outputs": [
        {
          "internalType": "string",
          "name": "",
          "type": "string"
        }
      ],
      "stateMutability": "view",
      "type": "function"
    },
    {
      "inputs": [
        {
          "internalType": "string",
          "name": "_name",
          "type": "string"
        },
        {
          "internalType": "string",
          "name": "_symbol",
          "type": "string"
        },
        {
          "internalType": "string",
          "name": "uri",
          "type": "string"
        }
      ],
      "name": "initialize",
      "outputs": [],
      "stateMutability": "nonpayable",
      "type": "function"
    },
    {
      "inputs": [
        {
          "internalType": "string",
          "name": "uri",
          "type": "string"
        }
      ],
      "name": "initialize",
      "outputs": [],
      "stateMutability": "nonpayable",
      "type": "function"
    },
    {
      "inputs": [
        {
          "internalType": "address",
          "name": "_to",
          "type": "address"
        },
        {
          "internalType": "uint256",
          "name": "amount",
          "type": "uint256"
        },
        {
          "internalType": "bytes",
          "name": "data",
          "type": "bytes"
        },
        {
          "components": [
            {
              "internalType": "address payable",
              "name": "recipient",
              "type": "address"
            },
            {
              "internalType": "uint256",
              "name": "value",
              "type": "uint256"
            }
          ],
          "internalType": "struct GhostmarketERC1155.Royalities[]",
          "name": "_fees",
          "type": "tuple[]"
        },
        {
          "internalType": "string",
          "name": "metadata",
          "type": "string"
        },
        {
          "internalType": "string",
          "name": "lockedcontent",
          "type": "string"
        }
      ],
      "name": "mintGhost",
      "outputs": [],
      "stateMutability": "payable",
      "type": "function"
    },
    {
      "inputs": [],
      "name": "getCurrentCounter",
      "outputs": [
        {
          "internalType": "uint256",
          "name": "",
          "type": "uint256"
        }
      ],
      "stateMutability": "view",
      "type": "function"
    },
    {
      "inputs": [],
      "name": "getLastTokenID",
      "outputs": [
        {
          "internalType": "uint256",
          "name": "",
          "type": "uint256"
        }
      ],
      "stateMutability": "view",
      "type": "function"
    },
    {
      "inputs": [
        {
          "internalType": "uint256",
          "name": "_tokenId",
          "type": "uint256"
        }
      ],
      "name": "getRoyalitiesRecipients",
      "outputs": [
        {
          "internalType": "address payable[]",
          "name": "",
          "type": "address[]"
        }
      ],
      "stateMutability": "view",
      "type": "function"
    },
    {
      "inputs": [
        {
          "internalType": "uint256",
          "name": "_tokenId",
          "type": "uint256"
        }
      ],
      "name": "getRoyaltyFeeBps",
      "outputs": [
        {
          "internalType": "uint256[]",
          "name": "",
          "type": "uint256[]"
        }
      ],
      "stateMutability": "view",
      "type": "function"
    },
    {
      "inputs": [
        {
          "internalType": "address payable",
          "name": "gmfa",
          "type": "address"
        }
      ],
      "name": "setGhostmarketFeeAddress",
      "outputs": [],
      "stateMutability": "nonpayable",
      "type": "function"
    },
    {
      "inputs": [
        {
          "internalType": "uint256",
          "name": "gmmf",
          "type": "uint256"
        }
      ],
      "name": "setGhostmarketMintFee",
      "outputs": [],
      "stateMutability": "nonpayable",
      "type": "function"
    },
    {
      "inputs": [],
      "name": "ghostmarketFeeAddress",
      "outputs": [
        {
          "internalType": "address payable",
          "name": "",
          "type": "address"
        }
      ],
      "stateMutability": "view",
      "type": "function"
    },
    {
      "inputs": [],
      "name": "ghostmarketMintingFee",
      "outputs": [
        {
          "internalType": "uint256",
          "name": "",
          "type": "uint256"
        }
      ],
      "stateMutability": "view",
      "type": "function"
    },
    {
      "inputs": [
        {
          "internalType": "address",
          "name": "from",
          "type": "address"
        },
        {
          "internalType": "uint256",
          "name": "_tokenId",
          "type": "uint256"
        }
      ],
      "name": "getLockedContent",
      "outputs": [],
      "stateMutability": "nonpayable",
      "type": "function"
    },
    {
      "inputs": [
        {
          "internalType": "uint256",
          "name": "_tokenId",
          "type": "uint256"
        }
      ],
      "name": "getCurrentLockedContentViewTracker",
      "outputs": [
        {
          "internalType": "uint256",
          "name": "",
          "type": "uint256"
        }
      ],
      "stateMutability": "view",
      "type": "function"
    },
    {
      "inputs": [
        {
          "internalType": "uint256",
          "name": "tokenId",
          "type": "uint256"
        }
      ],
      "name": "getMetadataJson",
      "outputs": [
        {
          "internalType": "string",
          "name": "",
          "type": "string"
        }
      ],
      "stateMutability": "view",
      "type": "function"
    }
  ],
  "bytecode": "0x608060405234801561001057600080fd5b5061471d806100206000396000f3fe6080604052600436106102db5760003560e01c80638456cb5911610184578063d547741f116100d6578063f242432a1161008a578063f7d027de11610064578063f7d027de1461088d578063fb3e09af146108ad578063fc24a8a9146108cc576102db565b8063f242432a1461082d578063f5298aca1461084d578063f62d18881461086d576102db565b8063e63ab1e9116100bb578063e63ab1e914610790578063e985e9c5146107c4578063eb2730391461080d576102db565b8063d547741f14610750578063dac0f3d914610770576102db565b8063a22cb46511610138578063c6f4f0f011610112578063c6f4f0f0146106ce578063ca15c873146106fc578063d53913931461071c576102db565b8063a22cb4651461066e578063a2bc0aa51461068e578063a6487c53146106ae576102db565b806391d148541161016957806391d14854146105fe57806395d89b4114610644578063a217fddf14610659576102db565b80638456cb59146105b15780639010d07c146105c6576102db565b806336568abe1161023d5780635c975abb116101f15780636b20c454116101cb5780636b20c4541461055c578063731133e91461057c57806373448c461461059c576102db565b80635c975abb146104ee5780636213801f146105075780636308f1cd1461051d576102db565b80633f4ba83a116102225780633f4ba83a1461048c5780634e1273f4146104a1578063529aae66146104ce576102db565b806336568abe1461043f57806339efa1a11461045f576102db565b80630e89341c11610294578063248a9ca311610279578063248a9ca3146103cf5780632eb2c2d6146103ff5780632f2ff15d1461041f576102db565b80630e89341c1461038f5780631f7fdffa146103af576102db565b806306fdde03116102c557806306fdde03146103435780630a0e1e83146103655780630e0941371461037a576102db565b8062fdd58e146102e057806301ffc9a714610313575b600080fd5b3480156102ec57600080fd5b506103006102fb366004613e84565b6108ec565b6040519081526020015b60405180910390f35b34801561031f57600080fd5b5061033361032e366004614123565b61099a565b604051901515815260200161030a565b34801561034f57600080fd5b506103586109ad565b60405161030a91906144b9565b610378610373366004613eaf565b610a3c565b005b34801561038657600080fd5b50610300610c17565b34801561039b57600080fd5b506103586103aa3660046140c6565b610c4c565b3480156103bb57600080fd5b506103786103ca366004613dbc565b610ce0565b3480156103db57600080fd5b506103006103ea3660046140c6565b60009081526065602052604090206001015490565b34801561040b57600080fd5b5061037861041a366004613c38565b610d8e565b34801561042b57600080fd5b5061037861043a3660046140de565b611105565b34801561044b57600080fd5b5061037861045a3660046140de565b61112c565b34801561046b57600080fd5b5061047f61047a3660046140c6565b61114e565b60405161030a919061442b565b34801561049857600080fd5b506103786112a8565b3480156104ad57600080fd5b506104c16104bc366004613ff9565b61134e565b60405161030a9190614478565b3480156104da57600080fd5b506103586104e93660046140c6565b6114bc565b3480156104fa57600080fd5b5061012d5460ff16610333565b34801561051357600080fd5b506101f854610300565b34801561052957600080fd5b5061053d610538366004614102565b6114d6565b604080516001600160a01b03909316835260208301919091520161030a565b34801561056857600080fd5b50610378610577366004613d49565b61151d565b34801561058857600080fd5b50610378610597366004613fa4565b6115a2565b3480156105a857600080fd5b506103006115ae565b3480156105bd57600080fd5b506103786115bf565b3480156105d257600080fd5b506105e66105e1366004614102565b611663565b6040516001600160a01b03909116815260200161030a565b34801561060a57600080fd5b506103336106193660046140de565b60009182526065602090815260408084206001600160a01b0393909316845291905290205460ff1690565b34801561065057600080fd5b50610358611682565b34801561066557600080fd5b50610300600081565b34801561067a57600080fd5b50610378610689366004613e53565b611690565b34801561069a57600080fd5b506104c16106a93660046140c6565b611788565b3480156106ba57600080fd5b506103786106c9366004614196565b6118cd565b3480156106da57600080fd5b506103006106e93660046140c6565b60009081526101fc602052604090205490565b34801561070857600080fd5b506103006107173660046140c6565b6119be565b34801561072857600080fd5b506103007f9f2df0fed2c77648de5860a4cc508cd0818c85b8b8a1ab4ceeef8d981c8956a681565b34801561075c57600080fd5b5061037861076b3660046140de565b6119d5565b34801561077c57600080fd5b5061037861078b3660046140c6565b6119df565b34801561079c57600080fd5b506103007f65d7a28e3265b37a6474929f336521b332c1681b933f6cb9f3376673440d862a81565b3480156107d057600080fd5b506103336107df366004613c00565b6001600160a01b03918216600090815260ca6020908152604080832093909416825291909152205460ff1690565b34801561081957600080fd5b50610378610828366004613e84565b611a99565b34801561083957600080fd5b50610378610848366004613ce2565b611b7e565b34801561085957600080fd5b50610378610868366004613f70565b611dc5565b34801561087957600080fd5b5061037861088836600461415b565b611e4a565b34801561089957600080fd5b506103586108a83660046140c6565b611f07565b3480156108b957600080fd5b506101f9546001600160a01b03166105e6565b3480156108d857600080fd5b506103786108e7366004613be4565b611f25565b60006001600160a01b03831661096f5760405162461bcd60e51b815260206004820152602b60248201527f455243313135353a2062616c616e636520717565727920666f7220746865207a60448201527f65726f206164647265737300000000000000000000000000000000000000000060648201526084015b60405180910390fd5b50600081815260c9602090815260408083206001600160a01b03861684529091529020545b92915050565b60006109a582611ffe565b90505b919050565b6101f580546109bb90614564565b80601f01602080910402602001604051908101604052809291908181526020018280546109e790614564565b8015610a345780601f10610a0957610100808354040283529160200191610a34565b820191906000526020600020905b815481529060010190602001808311610a1757829003601f168201915b505050505081565b60026101c3541415610a905760405162461bcd60e51b815260206004820152601f60248201527f5265656e7472616e637947756172643a207265656e7472616e742063616c6c006044820152606401610966565b60026101c355610aab86610aa46101fd5490565b87876115a2565b825115610afb578251600114610ac057600080fd5b610afb610acd6101fd5490565b84600081518110610aee57634e487b7160e01b600052603260045260246000fd5b6020026020010151612070565b6101f85415610b0c57610b0c6121bc565b6040805160008152602081018083528151902091610b2c91849101614276565b6040516020818303038152906040528051906020012014610b5a57610b5a610b546101fd5490565b82612370565b6040805160008152602081018083528151902091610b7a91859101614276565b6040516020818303038152906040528051906020012014610ba857610ba8610ba26101fd5490565b83612390565b7ff5c82eda717141c5f0cfeb894e7b7819c158a337b62ec13d412aecad30b0ad9e86610bd46101fd5490565b610be16103aa6101fd5490565b88604051610bf29493929190614333565b60405180910390a1610c096101fd80546001019055565b505060016101c35550505050565b6000610c236101fd5490565b610c33576101fd545b9050610c49565b6001610c3f6101fd5490565b610c2c9190614521565b90565b606060cb8054610c5b90614564565b80601f0160208091040260200160405190810160405280929190818152602001828054610c8790614564565b8015610cd45780601f10610ca957610100808354040283529160200191610cd4565b820191906000526020600020905b815481529060010190602001808311610cb757829003601f168201915b50505050509050919050565b610d0a7f9f2df0fed2c77648de5860a4cc508cd0818c85b8b8a1ab4ceeef8d981c8956a633610619565b610d7c5760405162461bcd60e51b815260206004820152603860248201527f455243313135355072657365744d696e7465725061757365723a206d7573742060448201527f68617665206d696e74657220726f6c6520746f206d696e7400000000000000006064820152608401610966565b610d88848484846123e2565b50505050565b8151835114610df05760405162461bcd60e51b815260206004820152602860248201527f455243313135353a2069647320616e6420616d6f756e7473206c656e677468206044820152670dad2e6dac2e8c6d60c31b6064820152608401610966565b6001600160a01b038416610e545760405162461bcd60e51b815260206004820152602560248201527f455243313135353a207472616e7366657220746f20746865207a65726f206164604482015264647265737360d81b6064820152608401610966565b6001600160a01b038516331480610e705750610e7085336107df565b610ee25760405162461bcd60e51b815260206004820152603260248201527f455243313135353a207472616e736665722063616c6c6572206973206e6f742060448201527f6f776e6572206e6f7220617070726f76656400000000000000000000000000006064820152608401610966565b33610ef18187878787876125db565b60005b8451811015611097576000858281518110610f1f57634e487b7160e01b600052603260045260246000fd5b602002602001015190506000858381518110610f4b57634e487b7160e01b600052603260045260246000fd5b602090810291909101810151600084815260c9835260408082206001600160a01b038e168352909352919091205490915081811015610ff25760405162461bcd60e51b815260206004820152602a60248201527f455243313135353a20696e73756666696369656e742062616c616e636520666f60448201527f72207472616e73666572000000000000000000000000000000000000000000006064820152608401610966565b610ffc8282614521565b60c9600085815260200190815260200160002060008c6001600160a01b03166001600160a01b03168152602001908152602001600020819055508160c9600085815260200190815260200160002060008b6001600160a01b03166001600160a01b03168152602001908152602001600020600082825461107c9190614509565b9250508190555050505080611090906145cc565b9050610ef4565b50846001600160a01b0316866001600160a01b0316826001600160a01b03167f4a39dc06d4c0dbc64b70af90fd698a233a518aa5d07e595d983b8c0526c8f7fb87876040516110e792919061448b565b60405180910390a46110fd8187878787876125e9565b505050505050565b61110f828261279e565b60008281526097602052604090206111279082612837565b505050565b611136828261284c565b600082815260976020526040902061112790826128d4565b60008181526101fa60209081526040808320805482518185028101850190935280835260609493849084015b828210156111c2576000848152602090819020604080518082019091526002850290910180546001600160a01b0316825260019081015482840152908352909201910161117a565b5050505090506000815167ffffffffffffffff8111156111f257634e487b7160e01b600052604160045260246000fd5b60405190808252806020026020018201604052801561121b578160200160208202803683370190505b50905060005b82518110156112a05782818151811061124a57634e487b7160e01b600052603260045260246000fd5b60200260200101516000015182828151811061127657634e487b7160e01b600052603260045260246000fd5b6001600160a01b039092166020928302919091019091015280611298816145cc565b915050611221565b509392505050565b6112d27f65d7a28e3265b37a6474929f336521b332c1681b933f6cb9f3376673440d862a33610619565b6113445760405162461bcd60e51b815260206004820152603b60248201527f455243313135355072657365744d696e7465725061757365723a206d7573742060448201527f686176652070617573657220726f6c6520746f20756e706175736500000000006064820152608401610966565b61134c6128e9565b565b606081518351146113c75760405162461bcd60e51b815260206004820152602960248201527f455243313135353a206163636f756e747320616e6420696473206c656e67746860448201527f206d69736d6174636800000000000000000000000000000000000000000000006064820152608401610966565b6000835167ffffffffffffffff8111156113f157634e487b7160e01b600052604160045260246000fd5b60405190808252806020026020018201604052801561141a578160200160208202803683370190505b50905060005b84518110156112a05761148185828151811061144c57634e487b7160e01b600052603260045260246000fd5b602002602001015185838151811061147457634e487b7160e01b600052603260045260246000fd5b60200260200101516108ec565b8282815181106114a157634e487b7160e01b600052603260045260246000fd5b60209081029190910101526114b5816145cc565b9050611420565b6101fb60205260009081526040902080546109bb90614564565b6101fa60205281600052604060002081815481106114f357600080fd5b6000918252602090912060029091020180546001909101546001600160a01b039091169250905082565b6001600160a01b038316331480611539575061153983336107df565b6115975760405162461bcd60e51b815260206004820152602960248201527f455243313135353a2063616c6c6572206973206e6f74206f776e6572206e6f7260448201526808185c1c1c9bdd995960ba1b6064820152608401610966565b611127838383612987565b610d8884848484612bfa565b60006115ba6101fd5490565b905090565b6115e97f65d7a28e3265b37a6474929f336521b332c1681b933f6cb9f3376673440d862a33610619565b61165b5760405162461bcd60e51b815260206004820152603960248201527f455243313135355072657365744d696e7465725061757365723a206d7573742060448201527f686176652070617573657220726f6c6520746f207061757365000000000000006064820152608401610966565b61134c612cfd565b600082815260976020526040812061167b9083612d87565b9392505050565b6101f680546109bb90614564565b336001600160a01b038316141561170f5760405162461bcd60e51b815260206004820152602960248201527f455243313135353a2073657474696e6720617070726f76616c2073746174757360448201527f20666f722073656c6600000000000000000000000000000000000000000000006064820152608401610966565b33600081815260ca602090815260408083206001600160a01b0387168085529252909120805460ff1916841515179055906001600160a01b03167f17307eab39ab6107e8899845ad3d59bd9653f200f220920489ca2b5937696c318360405161177c911515815260200190565b60405180910390a35050565b60008181526101fa60209081526040808320805482518185028101850190935280835260609493849084015b828210156117fc576000848152602090819020604080518082019091526002850290910180546001600160a01b031682526001908101548284015290835290920191016117b4565b5050505090506000815167ffffffffffffffff81111561182c57634e487b7160e01b600052604160045260246000fd5b604051908082528060200260200182016040528015611855578160200160208202803683370190505b50905060005b82518110156112a05782818151811061188457634e487b7160e01b600052603260045260246000fd5b6020026020010151602001518282815181106118b057634e487b7160e01b600052603260045260246000fd5b6020908102919091010152806118c5816145cc565b91505061185b565b600054610100900460ff16806118e6575060005460ff16155b6119495760405162461bcd60e51b815260206004820152602e60248201527f496e697469616c697a61626c653a20636f6e747261637420697320616c72656160448201526d191e481a5b9a5d1a585b1a5e995960921b6064820152608401610966565b600054610100900460ff1615801561196b576000805461ffff19166101011790555b61197482612d93565b61197d82612e3a565b8351611991906101f59060208701906139ba565b5082516119a6906101f69060208601906139ba565b508015610d88576000805461ff001916905550505050565b60008181526097602052604081206109a590612f38565b6111368282612f42565b6119ea600033610619565b611a5c5760405162461bcd60e51b815260206004820152603660248201527f43616c6c6572206d75737420686176652061646d696e20726f6c6520746f207360448201527f6574206d696e74696e67206665652070657263656e74000000000000000000006064820152608401610966565b6101f88190556040518181527fe28e57f6cdaccbb98c150b646656c0178b4b67253ae73deaba3b9c76525b987e906020015b60405180910390a150565b6001600160a01b038216331480611ab55750611ab582336107df565b611b275760405162461bcd60e51b815260206004820152603f60248201527f455243313135353a2063616c6c6572206973206e6f74206f776e6572206e6f7260448201527f20617070726f76656420746f20676574206c6f636b656420636f6e74656e74006064820152608401610966565b611b3081612fcf565b60008181526101fb60205260409081902090517f544b1d1249133c50ce89743ed1ca34a815bd50d42b71e6d331a1ac560013a8ec91611b72913391859161436c565b60405180910390a15050565b6001600160a01b038416611be25760405162461bcd60e51b815260206004820152602560248201527f455243313135353a207472616e7366657220746f20746865207a65726f206164604482015264647265737360d81b6064820152608401610966565b6001600160a01b038516331480611bfe5750611bfe85336107df565b611c5c5760405162461bcd60e51b815260206004820152602960248201527f455243313135353a2063616c6c6572206973206e6f74206f776e6572206e6f7260448201526808185c1c1c9bdd995960ba1b6064820152608401610966565b33611c7b818787611c6c88612ffd565b611c7588612ffd565b876125db565b600084815260c9602090815260408083206001600160a01b038a16845290915290205483811015611d145760405162461bcd60e51b815260206004820152602a60248201527f455243313135353a20696e73756666696369656e742062616c616e636520666f60448201527f72207472616e73666572000000000000000000000000000000000000000000006064820152608401610966565b611d1e8482614521565b600086815260c9602090815260408083206001600160a01b038c81168552925280832093909355881681529081208054869290611d5c908490614509565b909155505060408051868152602081018690526001600160a01b03808916928a821692918616917fc3d58168c5ae7397731d063d5bbf3d657854427343f4c083240f7aacaa2d0f62910160405180910390a4611dbc828888888888613056565b50505050505050565b6001600160a01b038316331480611de15750611de183336107df565b611e3f5760405162461bcd60e51b815260206004820152602960248201527f455243313135353a2063616c6c6572206973206e6f74206f776e6572206e6f7260448201526808185c1c1c9bdd995960ba1b6064820152608401610966565b611127838383613161565b600054610100900460ff1680611e63575060005460ff16155b611ec65760405162461bcd60e51b815260206004820152602e60248201527f496e697469616c697a61626c653a20636f6e747261637420697320616c72656160448201526d191e481a5b9a5d1a585b1a5e995960921b6064820152608401610966565b600054610100900460ff16158015611ee8576000805461ffff19166101011790555b611ef1826132e6565b8015611f03576000805461ff00191690555b5050565b60008181526101f760205260409020805460609190610c5b90614564565b611f30600033610619565b611fa25760405162461bcd60e51b815260206004820152603660248201527f43616c6c6572206d75737420686176652061646d696e20726f6c6520746f207360448201527f6574206d696e74696e67206665652061646472657373000000000000000000006064820152608401610966565b6101f9805473ffffffffffffffffffffffffffffffffffffffff19166001600160a01b0383169081179091556040519081527f42e58c2251766d60a378c8984cb15020e19218cae37fa9e7556ce617200f685190602001611a8e565b60006001600160e01b031982167fd9b67a2600000000000000000000000000000000000000000000000000000000148061206157506001600160e01b031982167f0e89341c00000000000000000000000000000000000000000000000000000000145b806109a557506109a5826133ce565b80516001600160a01b03166120c75760405162461bcd60e51b815260206004820152601b60248201527f526563697069656e742073686f756c642062652070726573656e7400000000006044820152606401610966565b600081602001511161211b5760405162461bcd60e51b815260206004820152601c60248201527f4665652076616c75652073686f756c6420626520706f736974697665000000006044820152606401610966565b60008281526101fa6020908152604080832080546001818101835591855293839020855160029095020180546001600160a01b03861673ffffffffffffffffffffffffffffffffffffffff19909116178155928501519201829055517ff9e8661d7e25970eeccfde99d05253707d99e0ceb0b9c73f1549374310ec34a592611b72928683526001600160a01b03919091166020830152604082015260600190565b6101f9546001600160a01b031661223b5760405162461bcd60e51b815260206004820152602760248201527f47686f73746d61726b6574206d696e74696e672046656520416464726573732060448201527f6e6f7420736574000000000000000000000000000000000000000000000000006064820152608401610966565b60006101f8541161228e5760405162461bcd60e51b815260206004820152601f60248201527f47686f73746d61726b6574206d696e74696e6720466565206973207a65726f006044820152606401610966565b6101f9546101f8546040516000926001600160a01b031691908381818185875af1925050503d80600081146122df576040519150601f19603f3d011682016040523d82523d6000602084013e6122e4565b606091505b50509050806123355760405162461bcd60e51b815260206004820152601060248201527f5472616e73666572206661696c65642e000000000000000000000000000000006044820152606401610966565b6101f8546040805133815260208101929092527ff867832f09d3df16244ef05b595ad6197c4fc2da636495ff70035f1acdf2ba0a9101611a8e565b60008281526101fb602090815260409091208251611127928401906139ba565b60008281526101f76020908152604090912082516123b0928401906139ba565b507f701be7c18389620e1de28c2c2c047271c46744dea76cb7667f428af200ef4dde8282604051611b729291906144cc565b6001600160a01b0384166124425760405162461bcd60e51b815260206004820152602160248201527f455243313135353a206d696e7420746f20746865207a65726f206164647265736044820152607360f81b6064820152608401610966565b81518351146124a45760405162461bcd60e51b815260206004820152602860248201527f455243313135353a2069647320616e6420616d6f756e7473206c656e677468206044820152670dad2e6dac2e8c6d60c31b6064820152608401610966565b336124b4816000878787876125db565b60005b845181101561256c578381815181106124e057634e487b7160e01b600052603260045260246000fd5b602002602001015160c9600087848151811061250c57634e487b7160e01b600052603260045260246000fd5b602002602001015181526020019081526020016000206000886001600160a01b03166001600160a01b0316815260200190815260200160002060008282546125549190614509565b90915550819050612564816145cc565b9150506124b7565b50846001600160a01b031660006001600160a01b0316826001600160a01b03167f4a39dc06d4c0dbc64b70af90fd698a233a518aa5d07e595d983b8c0526c8f7fb87876040516125bd92919061448b565b60405180910390a46125d4816000878787876125e9565b5050505050565b6110fd86868686868661340c565b6001600160a01b0384163b156110fd5760405163bc197c8160e01b81526001600160a01b0385169063bc197c819061262d9089908990889088908890600401614292565b602060405180830381600087803b15801561264757600080fd5b505af1925050508015612677575060408051601f3d908101601f191682019092526126749181019061413f565b60015b61272d57612683614613565b806308c379a014156126bd575061269861462a565b806126a357506126bf565b8060405162461bcd60e51b815260040161096691906144b9565b505b60405162461bcd60e51b815260206004820152603460248201527f455243313135353a207472616e7366657220746f206e6f6e204552433131353560448201527f526563656976657220696d706c656d656e7465720000000000000000000000006064820152608401610966565b6001600160e01b0319811663bc197c8160e01b14611dbc5760405162461bcd60e51b815260206004820152602860248201527f455243313135353a204552433131353552656365697665722072656a656374656044820152676420746f6b656e7360c01b6064820152608401610966565b6000828152606560205260409020600101546127bb905b33610619565b61282d5760405162461bcd60e51b815260206004820152602f60248201527f416363657373436f6e74726f6c3a2073656e646572206d75737420626520616e60448201527f2061646d696e20746f206772616e7400000000000000000000000000000000006064820152608401610966565b611f038282613486565b600061167b836001600160a01b038416613528565b6001600160a01b03811633146128ca5760405162461bcd60e51b815260206004820152602f60248201527f416363657373436f6e74726f6c3a2063616e206f6e6c792072656e6f756e636560448201527f20726f6c657320666f722073656c6600000000000000000000000000000000006064820152608401610966565b611f038282613577565b600061167b836001600160a01b0384166135fa565b61012d5460ff1661293c5760405162461bcd60e51b815260206004820152601460248201527f5061757361626c653a206e6f74207061757365640000000000000000000000006044820152606401610966565b61012d805460ff191690557f5db9ee0a495bf2e6ff9c91a7834c1ba4fdd244a5e8aa4e537bd38aeae4b073aa335b6040516001600160a01b03909116815260200160405180910390a1565b6001600160a01b0383166129e95760405162461bcd60e51b815260206004820152602360248201527f455243313135353a206275726e2066726f6d20746865207a65726f206164647260448201526265737360e81b6064820152608401610966565b8051825114612a4b5760405162461bcd60e51b815260206004820152602860248201527f455243313135353a2069647320616e6420616d6f756e7473206c656e677468206044820152670dad2e6dac2e8c6d60c31b6064820152608401610966565b6000339050612a6e818560008686604051806020016040528060008152506125db565b60005b8351811015612b9b576000848281518110612a9c57634e487b7160e01b600052603260045260246000fd5b602002602001015190506000848381518110612ac857634e487b7160e01b600052603260045260246000fd5b602090810291909101810151600084815260c9835260408082206001600160a01b038c168352909352919091205490915081811015612b555760405162461bcd60e51b8152602060048201526024808201527f455243313135353a206275726e20616d6f756e7420657863656564732062616c604482015263616e636560e01b6064820152608401610966565b612b5f8282614521565b600093845260c9602090815260408086206001600160a01b038c1687529091529093209290925550819050612b93816145cc565b915050612a71565b5060006001600160a01b0316846001600160a01b0316826001600160a01b03167f4a39dc06d4c0dbc64b70af90fd698a233a518aa5d07e595d983b8c0526c8f7fb8686604051612bec92919061448b565b60405180910390a450505050565b6001600160a01b038416612c5a5760405162461bcd60e51b815260206004820152602160248201527f455243313135353a206d696e7420746f20746865207a65726f206164647265736044820152607360f81b6064820152608401610966565b33612c6b81600087611c6c88612ffd565b600084815260c9602090815260408083206001600160a01b038916845290915281208054859290612c9d908490614509565b909155505060408051858152602081018590526001600160a01b0380881692600092918516917fc3d58168c5ae7397731d063d5bbf3d657854427343f4c083240f7aacaa2d0f62910160405180910390a46125d481600087878787613056565b61012d5460ff1615612d515760405162461bcd60e51b815260206004820152601060248201527f5061757361626c653a20706175736564000000000000000000000000000000006044820152606401610966565b61012d805460ff191660011790557f62e78cea01bee320cd4e420270b5ea74000d11b0c9f74754ebdbfc544b05a25861296a3390565b600061167b8383613717565b600054610100900460ff1680612dac575060005460ff16155b612e0f5760405162461bcd60e51b815260206004820152602e60248201527f496e697469616c697a61626c653a20636f6e747261637420697320616c72656160448201526d191e481a5b9a5d1a585b1a5e995960921b6064820152608401610966565b600054610100900460ff16158015612e31576000805461ffff19166101011790555b611ef1826137c6565b600054610100900460ff1680612e53575060005460ff16155b612eb65760405162461bcd60e51b815260206004820152602e60248201527f496e697469616c697a61626c653a20636f6e747261637420697320616c72656160448201526d191e481a5b9a5d1a585b1a5e995960921b6064820152608401610966565b600054610100900460ff16158015612ed8576000805461ffff19166101011790555b612ee46000335b6137d9565b612f0e7f9f2df0fed2c77648de5860a4cc508cd0818c85b8b8a1ab4ceeef8d981c8956a633612edf565b611ef17f65d7a28e3265b37a6474929f336521b332c1681b933f6cb9f3376673440d862a33612edf565b60006109a5825490565b600082815260656020526040902060010154612f5d906127b5565b6128ca5760405162461bcd60e51b815260206004820152603060248201527f416363657373436f6e74726f6c3a2073656e646572206d75737420626520616e60448201527f2061646d696e20746f207265766f6b65000000000000000000000000000000006064820152608401610966565b60008181526101fc6020526040902054612fea906001614509565b60009182526101fc602052604090912055565b6040805160018082528183019092526060916000919060208083019080368337019050509050828160008151811061304557634e487b7160e01b600052603260045260246000fd5b602090810291909101015292915050565b6001600160a01b0384163b156110fd5760405163f23a6e6160e01b81526001600160a01b0385169063f23a6e619061309a90899089908890889088906004016142f0565b602060405180830381600087803b1580156130b457600080fd5b505af19250505080156130e4575060408051601f3d908101601f191682019092526130e19181019061413f565b60015b6130f057612683614613565b6001600160e01b0319811663f23a6e6160e01b14611dbc5760405162461bcd60e51b815260206004820152602860248201527f455243313135353a204552433131353552656365697665722072656a656374656044820152676420746f6b656e7360c01b6064820152608401610966565b6001600160a01b0383166131c35760405162461bcd60e51b815260206004820152602360248201527f455243313135353a206275726e2066726f6d20746865207a65726f206164647260448201526265737360e81b6064820152608401610966565b336131f2818560006131d487612ffd565b6131dd87612ffd565b604051806020016040528060008152506125db565b600083815260c9602090815260408083206001600160a01b0388168452909152902054828110156132715760405162461bcd60e51b8152602060048201526024808201527f455243313135353a206275726e20616d6f756e7420657863656564732062616c604482015263616e636560e01b6064820152608401610966565b61327b8382614521565b600085815260c9602090815260408083206001600160a01b038a811680865291845282852095909555815189815292830188905292938616917fc3d58168c5ae7397731d063d5bbf3d657854427343f4c083240f7aacaa2d0f62910160405180910390a45050505050565b600054610100900460ff16806132ff575060005460ff16155b6133625760405162461bcd60e51b815260206004820152602e60248201527f496e697469616c697a61626c653a20636f6e747261637420697320616c72656160448201526d191e481a5b9a5d1a585b1a5e995960921b6064820152608401610966565b600054610100900460ff16158015613384576000805461ffff19166101011790555b61338c6137e3565b6133946137e3565b61339c6137e3565b6133a46137e3565b6133ad82612d93565b6133b56137e3565b6133bd613896565b6133c56137e3565b611ef182612e3a565b60006001600160e01b031982167f5a05180f0000000000000000000000000000000000000000000000000000000014806109a557506109a582613953565b61012d5460ff16156110fd5760405162461bcd60e51b815260206004820152602c60248201527f455243313135355061757361626c653a20746f6b656e207472616e736665722060448201527f7768696c652070617573656400000000000000000000000000000000000000006064820152608401610966565b60008281526065602090815260408083206001600160a01b038516845290915290205460ff16611f035760008281526065602090815260408083206001600160a01b03851684529091529020805460ff191660011790556134e43390565b6001600160a01b0316816001600160a01b0316837f2f8788117e7eff1d82e926ec794901d17c78024a50270940304540a733656f0d60405160405180910390a45050565b600081815260018301602052604081205461356f57508154600181810184556000848152602080822090930184905584548482528286019093526040902091909155610994565b506000610994565b60008281526065602090815260408083206001600160a01b038516845290915290205460ff1615611f035760008281526065602090815260408083206001600160a01b0385168085529252808320805460ff1916905551339285917ff6391f5c32d9c69d2a47ea670b442974b53935d1edc7fd64eb21e047a839171b9190a45050565b6000818152600183016020526040812054801561370d57600061361e600183614521565b855490915060009061363290600190614521565b9050600086600001828154811061365957634e487b7160e01b600052603260045260246000fd5b906000526020600020015490508087600001848154811061368a57634e487b7160e01b600052603260045260246000fd5b6000918252602090912001556136a1836001614509565b600082815260018901602052604090205586548790806136d157634e487b7160e01b600052603160045260246000fd5b60019003818190600052602060002001600090559055866001016000878152602001908152602001600020600090556001945050505050610994565b6000915050610994565b815460009082106137905760405162461bcd60e51b815260206004820152602260248201527f456e756d657261626c655365743a20696e646578206f7574206f6620626f756e60448201527f64730000000000000000000000000000000000000000000000000000000000006064820152608401610966565b8260000182815481106137b357634e487b7160e01b600052603260045260246000fd5b9060005260206000200154905092915050565b8051611f039060cb9060208401906139ba565b61110f828261282d565b600054610100900460ff16806137fc575060005460ff16155b61385f5760405162461bcd60e51b815260206004820152602e60248201527f496e697469616c697a61626c653a20636f6e747261637420697320616c72656160448201526d191e481a5b9a5d1a585b1a5e995960921b6064820152608401610966565b600054610100900460ff16158015613881576000805461ffff19166101011790555b8015613893576000805461ff00191690555b50565b600054610100900460ff16806138af575060005460ff16155b6139125760405162461bcd60e51b815260206004820152602e60248201527f496e697469616c697a61626c653a20636f6e747261637420697320616c72656160448201526d191e481a5b9a5d1a585b1a5e995960921b6064820152608401610966565b600054610100900460ff16158015613934576000805461ffff19166101011790555b61012d805460ff191690558015613893576000805461ff001916905550565b60006001600160e01b031982167f7965db0b0000000000000000000000000000000000000000000000000000000014806109a557507f01ffc9a7000000000000000000000000000000000000000000000000000000006001600160e01b03198316146109a5565b8280546139c690614564565b90600052602060002090601f0160209004810192826139e85760008555613a2e565b82601f10613a0157805160ff1916838001178555613a2e565b82800160010185558215613a2e579182015b82811115613a2e578251825591602001919060010190613a13565b50613a3a929150613a3e565b5090565b5b80821115613a3a5760008155600101613a3f565b80356109a8816146bc565b600082601f830112613a6e578081fd5b81356020613a7b826144e5565b60408051613a89838261459f565b8481528381019250868401600686901b88018501891015613aa8578687fd5b865b86811015613af35783828b031215613ac0578788fd5b8351613acc858261459f565b8235613ad7816146bc565b8152828701358782015285529385019390830190600101613aaa565b509098975050505050505050565b600082601f830112613b11578081fd5b81356020613b1e826144e5565b604051613b2b828261459f565b8381528281019150858301600585901b87018401881015613b4a578586fd5b855b85811015613b6857813584529284019290840190600101613b4c565b5090979650505050505050565b600082601f830112613b85578081fd5b813567ffffffffffffffff811115613b9f57613b9f6145fd565b604051613bb6601f8301601f19166020018261459f565b818152846020838601011115613bca578283fd5b816020850160208301379081016020019190915292915050565b600060208284031215613bf5578081fd5b813561167b816146bc565b60008060408385031215613c12578081fd5b8235613c1d816146bc565b91506020830135613c2d816146bc565b809150509250929050565b600080600080600060a08688031215613c4f578081fd5b8535613c5a816146bc565b94506020860135613c6a816146bc565b9350604086013567ffffffffffffffff80821115613c86578283fd5b613c9289838a01613b01565b94506060880135915080821115613ca7578283fd5b613cb389838a01613b01565b93506080880135915080821115613cc8578283fd5b50613cd588828901613b75565b9150509295509295909350565b600080600080600060a08688031215613cf9578081fd5b8535613d04816146bc565b94506020860135613d14816146bc565b93506040860135925060608601359150608086013567ffffffffffffffff811115613d3d578182fd5b613cd588828901613b75565b600080600060608486031215613d5d578081fd5b8335613d68816146bc565b9250602084013567ffffffffffffffff80821115613d84578283fd5b613d9087838801613b01565b93506040860135915080821115613da5578283fd5b50613db286828701613b01565b9150509250925092565b60008060008060808587031215613dd1578182fd5b8435613ddc816146bc565b9350602085013567ffffffffffffffff80821115613df8578384fd5b613e0488838901613b01565b94506040870135915080821115613e19578384fd5b613e2588838901613b01565b93506060870135915080821115613e3a578283fd5b50613e4787828801613b75565b91505092959194509250565b60008060408385031215613e65578182fd5b8235613e70816146bc565b915060208301358015158114613c2d578182fd5b60008060408385031215613e96578182fd5b8235613ea1816146bc565b946020939093013593505050565b60008060008060008060c08789031215613ec7578384fd5b613ed087613a53565b955060208701359450604087013567ffffffffffffffff80821115613ef3578586fd5b613eff8a838b01613b75565b95506060890135915080821115613f14578283fd5b613f208a838b01613a5e565b94506080890135915080821115613f35578283fd5b613f418a838b01613b75565b935060a0890135915080821115613f56578283fd5b50613f6389828a01613b75565b9150509295509295509295565b600080600060608486031215613f84578081fd5b8335613f8f816146bc565b95602085013595506040909401359392505050565b60008060008060808587031215613fb9578182fd5b8435613fc4816146bc565b93506020850135925060408501359150606085013567ffffffffffffffff811115613fed578182fd5b613e4787828801613b75565b6000806040838503121561400b578182fd5b823567ffffffffffffffff80821115614022578384fd5b818501915085601f830112614035578384fd5b81356020614042826144e5565b60405161404f828261459f565b8381528281019150858301600585901b870184018b101561406e578889fd5b8896505b84871015614099578035614085816146bc565b835260019690960195918301918301614072565b50965050860135925050808211156140af578283fd5b506140bc85828601613b01565b9150509250929050565b6000602082840312156140d7578081fd5b5035919050565b600080604083850312156140f0578182fd5b823591506020830135613c2d816146bc565b60008060408385031215614114578182fd5b50508035926020909101359150565b600060208284031215614134578081fd5b813561167b816146d1565b600060208284031215614150578081fd5b815161167b816146d1565b60006020828403121561416c578081fd5b813567ffffffffffffffff811115614182578182fd5b61418e84828501613b75565b949350505050565b6000806000606084860312156141aa578081fd5b833567ffffffffffffffff808211156141c1578283fd5b6141cd87838801613b75565b945060208601359150808211156141e2578283fd5b6141ee87838801613b75565b93506040860135915080821115614203578283fd5b50613db286828701613b75565b6000815180845260208085019450808401835b8381101561423f57815187529582019590820190600101614223565b509495945050505050565b60008151808452614262816020860160208601614538565b601f01601f19169290920160200192915050565b60008251614288818460208701614538565b9190910192915050565b60006001600160a01b03808816835280871660208401525060a060408301526142be60a0830186614210565b82810360608401526142d08186614210565b905082810360808401526142e4818561424a565b98975050505050505050565b60006001600160a01b03808816835280871660208401525084604083015283606083015260a0608083015261432860a083018461424a565b979650505050505050565b60006001600160a01b03861682528460208301526080604083015261435b608083018561424a565b905082606083015295945050505050565b60006001600160a01b0385168252602084818401526060604084015281845483600182811c9150808316806143a257607f831692505b8583108114156143c057634e487b7160e01b87526022600452602487fd5b60608801839052608088018180156143df57600181146143f05761441a565b60ff1986168252878201965061441a565b60008b815260209020895b86811015614414578154848201529085019089016143fb565b83019750505b50949b9a5050505050505050505050565b6020808252825182820181905260009190848201906040850190845b8181101561446c5783516001600160a01b031683529284019291840191600101614447565b50909695505050505050565b60006020825261167b6020830184614210565b60006040825261449e6040830185614210565b82810360208401526144b08185614210565b95945050505050565b60006020825261167b602083018461424a565b60008382526040602083015261418e604083018461424a565b600067ffffffffffffffff8211156144ff576144ff6145fd565b5060051b60200190565b6000821982111561451c5761451c6145e7565b500190565b600082821015614533576145336145e7565b500390565b60005b8381101561455357818101518382015260200161453b565b83811115610d885750506000910152565b600181811c9082168061457857607f821691505b6020821081141561459957634e487b7160e01b600052602260045260246000fd5b50919050565b601f8201601f1916810167ffffffffffffffff811182821017156145c5576145c56145fd565b6040525050565b60006000198214156145e0576145e06145e7565b5060010190565b634e487b7160e01b600052601160045260246000fd5b634e487b7160e01b600052604160045260246000fd5b600060033d1115610c4957600481823e5160e01c90565b600060443d101561463a57610c49565b6040516003193d81016004833e81513d67ffffffffffffffff816024840111818411171561466c575050505050610c49565b828501915081518181111561468657505050505050610c49565b843d87010160208285010111156146a257505050505050610c49565b6146b16020828601018761459f565b509094505050505090565b6001600160a01b038116811461389357600080fd5b6001600160e01b03198116811461389357600080fdfea26469706673582212207f6924bc0920e2e937cadc8740ba709def8584e0187044868a73338f570654d464736f6c63430008030033",
  "immutableReferences": {},
  "source": "// SPDX-License-Identifier: MIT\n\npragma solidity ^0.8.3;\n\nimport \"./ERC1155PresetMinterPauserUpgradeableCustom.sol\";\nimport \"@openzeppelin/contracts-upgradeable/utils/CountersUpgradeable.sol\";\nimport \"@openzeppelin/contracts-upgradeable/security/ReentrancyGuardUpgradeable.sol\";\n\n/**\n * @dev ERC1155 token with minting, burning, pause, secondary sales royalitiy functions.\n *\n */\n\ncontract GhostmarketERC1155 is\n    Initializable,\n    ERC1155PresetMinterPauserUpgradeable,\n    ReentrancyGuardUpgradeable\n{\n    string public name;\n    string public symbol;\n\n    // tokenId => attributes array\n    mapping(uint256 => string) private _metadataJson;\n\n    // minting fee\n    uint256 private _ghostmarketMintingFee;\n\n    //address where the transfer fees will be sent\n    address payable private _ghostmarketFeeAddress;\n\n    // struct for secondary sales fees\n    struct Royalities {\n        address payable recipient;\n        uint256 value;\n    }\n\n    // tokenId => fees array\n    mapping(uint256 => Royalities[]) public fees;\n\n    // tokenId => locked content string\n    mapping(uint256 => string) public _lockedContent;\n    // tokenId => locked content view counter\n    mapping(uint256 => uint256) private _lockedContentViewTracker;\n\n    event SecondarySaleFees(uint256 tokenId, address recipients, uint256 bps);\n    event GhostmarketFeeAddressChanged(address newValue);\n    event GhostmarketMintFeeChanged(uint256 newValue);\n    event GhostmarketFeePaid(address sender, uint256 value);\n    event LockedContentViewed(\n        address msgSender,\n        uint256 tokenId,\n        string lockedContent\n    );\n    event Minted(\n        address toAddress,\n        uint256 tokenId,\n        string tokenURI,\n        uint256 amount\n    );\n    event AttributesSet(uint256 tokenId, string metadataJson);\n\n    function initialize(\n        string memory _name,\n        string memory _symbol,\n        string memory uri\n    ) public virtual initializer {\n        __ERC1155_init_unchained(uri);\n        __ERC1155PresetMinterPauser_init_unchained(uri);\n        name = _name;\n        symbol = _symbol;\n    }\n\n    using CountersUpgradeable for CountersUpgradeable.Counter;\n\n    // _tokenIdTracker to gnerate automated tocken IDs\n    CountersUpgradeable.Counter private _tokenIdTracker;\n\n    /**\n     * @dev mint ERC1155 tokens with optional royalities, minting fee and locked content\n     */\n    function mintGhost(\n        address _to,\n        uint256 amount,\n        bytes memory data,\n        Royalities[] memory _fees,\n        string memory metadata,\n        string memory lockedcontent\n    ) public payable nonReentrant {\n        super.mint(_to, _tokenIdTracker.current(), amount, data);\n        //_setTokenURI(_tokenIdTracker.current(), _tokenIdTracker.current());\n        if (_fees.length > 0) {\n            //fees array length should be 1 for single mint,\n            require(_fees.length == 1);\n            _saveRoyaltyFee(_tokenIdTracker.current(), _fees[0]);\n        }\n        if (_ghostmarketMintingFee > 0) {\n            _sendMintingFee();\n        }\n        if (\n            keccak256(abi.encodePacked(lockedcontent)) !=\n            keccak256(abi.encodePacked(\"\"))\n        ) {\n            setLockedContent(_tokenIdTracker.current(), lockedcontent);\n        }\n        if (\n            keccak256(abi.encodePacked(metadata)) !=\n            keccak256(abi.encodePacked(\"\"))\n        ) {\n            _setMetadataJson(_tokenIdTracker.current(), metadata);\n        }\n        emit Minted(\n            _to,\n            _tokenIdTracker.current(),\n            uri(_tokenIdTracker.current()),\n            amount\n        );\n        _tokenIdTracker.increment();\n    }\n\n    /**\n     * @dev current _tokenIdTracker\n     */\n    function getCurrentCounter() public view returns (uint256) {\n        return _tokenIdTracker.current();\n    }\n\n    /**\n     * @dev get last minted token id /  _tokenIdTracker\n     */\n    function getLastTokenID() public view returns (uint256) {\n        if (_tokenIdTracker.current() == 0) {\n            return _tokenIdTracker.current();\n        } else return _tokenIdTracker.current() - 1;\n    }\n\n    /**\n     * @dev get the \"secondary sales\"/royalities fee recepients with the tokenId\n     */\n    function getRoyalitiesRecipients(uint256 _tokenId)\n        public\n        view\n        returns (address payable[] memory)\n    {\n        Royalities[] memory _fees = fees[_tokenId];\n        address payable[] memory result = new address payable[](_fees.length);\n        for (uint256 i = 0; i < _fees.length; i++) {\n            result[i] = _fees[i].recipient;\n        }\n        return result;\n    }\n\n    /**\n     * @dev get the \"secondary sales\"/royalities fee for the NFT id\n     * fee basis points 10000 = 100%\n     */\n    function getRoyaltyFeeBps(uint256 _tokenId)\n        public\n        view\n        returns (uint256[] memory)\n    {\n        Royalities[] memory _fees = fees[_tokenId];\n        uint256[] memory result = new uint256[](_fees.length);\n        for (uint256 i = 0; i < _fees.length; i++) {\n            result[i] = _fees[i].value;\n        }\n        return result;\n    }\n\n    /**\n     * @dev save the \"secondary sales\"/royalities fee for the NFT id\n     * fee basis points 10000 = 100%\n     */\n    function _saveRoyaltyFee(uint256 _tokenId, Royalities memory _fee)\n        internal\n    {\n        require(_fee.recipient != address(0x0), \"Recipient should be present\");\n        require(_fee.value > 0, \"Fee value should be positive\");\n        fees[_tokenId].push(_fee);\n        emit SecondarySaleFees(_tokenId, _fee.recipient, _fee.value);\n    }\n\n    /**\n     * @dev send minting fee to Ghostmarket\n     */\n    function _sendMintingFee() internal {\n        require(\n            _ghostmarketFeeAddress != address(0),\n            \"Ghostmarket minting Fee Address not set\"\n        );\n        require(_ghostmarketMintingFee > 0, \"Ghostmarket minting Fee is zero\");\n        (bool success, ) =\n            _ghostmarketFeeAddress.call{value: _ghostmarketMintingFee}(\"\");\n        require(success, \"Transfer failed.\");\n        emit GhostmarketFeePaid(msg.sender, _ghostmarketMintingFee);\n    }\n\n    /**\n     * @dev set the wallet address where fees will be collected\n     */\n    function setGhostmarketFeeAddress(address payable gmfa) public {\n        require(\n            hasRole(DEFAULT_ADMIN_ROLE, _msgSender()),\n            \"Caller must have admin role to set minting fee address\"\n        );\n\n        _ghostmarketFeeAddress = gmfa;\n        emit GhostmarketFeeAddressChanged(_ghostmarketFeeAddress);\n    }\n\n    /**\n     * @dev sets the transfer fee\n     */\n    function setGhostmarketMintFee(uint256 gmmf) public {\n        require(\n            hasRole(DEFAULT_ADMIN_ROLE, _msgSender()),\n            \"Caller must have admin role to set minting fee percent\"\n        );\n        _ghostmarketMintingFee = gmmf;\n        emit GhostmarketMintFeeChanged(_ghostmarketMintingFee);\n    }\n\n    /**\n     * @return the ghostmarketFeeAddress\n     */\n    function ghostmarketFeeAddress() public view returns (address payable) {\n        return _ghostmarketFeeAddress;\n    }\n\n    /**\n     * @return the ghostmarketMintingFee.\n     */\n    function ghostmarketMintingFee() public view returns (uint256) {\n        return _ghostmarketMintingFee;\n    }\n\n    /**\n     * @dev save locked content as string for a specific _tokenId.\n     */\n    function setLockedContent(uint256 _tokenId, string memory content)\n        internal\n    {\n        _lockedContent[_tokenId] = content;\n    }\n\n    /**\n     * @dev locked content for a NFT can be retrived only by emitting an event\n     *\n     * example event:\n     * msgSender: 0x1a1122c2483e8f988F9a800F3A6eE316dB77e4e0 (type: address),\n     * tokenId: 0 (type: uint256),\n     * lockedContent: 'top secret' (type: string)\n     */\n    function getLockedContent(address from, uint256 _tokenId) public {\n        require(\n            from == _msgSender() || isApprovedForAll(from, _msgSender()),\n            \"ERC1155: caller is not owner nor approved to get locked content\"\n        );\n        _incrementCurrentLockedContentViewTracker(_tokenId);\n        emit LockedContentViewed(\n            msg.sender,\n            _tokenId,\n            _lockedContent[_tokenId]\n        );\n    }\n\n    /**\n     * @dev increment locked content view tracker\n     */\n    function _incrementCurrentLockedContentViewTracker(uint256 _tokenId)\n        private\n    {\n        _lockedContentViewTracker[_tokenId] =\n            _lockedContentViewTracker[_tokenId] +\n            1;\n    }\n\n    /**\n     * @dev get the durrent locked content view tracker for specific _tokenId\n     */\n    function getCurrentLockedContentViewTracker(uint256 _tokenId)\n        public\n        view\n        returns (uint256)\n    {\n        return _lockedContentViewTracker[_tokenId];\n    }\n\n    /**\n     * @dev saves the nft tokens custom attributes to contract storage\n     * emits AttributesSet event\n     */\n    function _setMetadataJson(uint256 tokenId, string memory metadataJson)\n        internal\n    {\n        _metadataJson[tokenId] = metadataJson;\n        emit AttributesSet(tokenId, metadataJson);\n    }\n\n    /**\n     * @dev get the nft token attributes with the tokenId\n     */\n    function getMetadataJson(uint256 tokenId)\n        public\n        view\n        returns (string memory)\n    {\n        return _metadataJson[tokenId];\n    }\n}\n",
  "sourcePath": "/Users/selimerunkut/dev_freelance/GhostMarketContractBSC/contracts/GhostmarketERC1155.sol",
  "compiler": {
    "name": "solc",
    "version": "0.8.3+commit.8d00100c.Emscripten.clang"
  },
  "schemaVersion": "3.4.1",
  "updatedAt": "2021-05-14T21:55:32.295Z",
  "devdoc": {
    "details": "ERC1155 token with minting, burning, pause, secondary sales royalitiy functions.",
    "kind": "dev",
    "methods": {
      "balanceOf(address,uint256)": {
        "details": "See {IERC1155-balanceOf}. Requirements: - `account` cannot be the zero address."
      },
      "balanceOfBatch(address[],uint256[])": {
        "details": "See {IERC1155-balanceOfBatch}. Requirements: - `accounts` and `ids` must have the same length."
      },
      "getCurrentCounter()": {
        "details": "current _tokenIdTracker"
      },
      "getCurrentLockedContentViewTracker(uint256)": {
        "details": "get the durrent locked content view tracker for specific _tokenId"
      },
      "getLastTokenID()": {
        "details": "get last minted token id /  _tokenIdTracker"
      },
      "getLockedContent(address,uint256)": {
        "details": "locked content for a NFT can be retrived only by emitting an event example event: msgSender: 0x1a1122c2483e8f988F9a800F3A6eE316dB77e4e0 (type: address), tokenId: 0 (type: uint256), lockedContent: 'top secret' (type: string)"
      },
      "getMetadataJson(uint256)": {
        "details": "get the nft token attributes with the tokenId"
      },
      "getRoleAdmin(bytes32)": {
        "details": "Returns the admin role that controls `role`. See {grantRole} and {revokeRole}. To change a role's admin, use {_setRoleAdmin}."
      },
      "getRoleMember(bytes32,uint256)": {
        "details": "Returns one of the accounts that have `role`. `index` must be a value between 0 and {getRoleMemberCount}, non-inclusive. Role bearers are not sorted in any particular way, and their ordering may change at any point. WARNING: When using {getRoleMember} and {getRoleMemberCount}, make sure you perform all queries on the same block. See the following https://forum.openzeppelin.com/t/iterating-over-elements-on-enumerableset-in-openzeppelin-contracts/2296[forum post] for more information."
      },
      "getRoleMemberCount(bytes32)": {
        "details": "Returns the number of accounts that have `role`. Can be used together with {getRoleMember} to enumerate all bearers of a role."
      },
      "getRoyalitiesRecipients(uint256)": {
        "details": "get the \"secondary sales\"/royalities fee recepients with the tokenId"
      },
      "getRoyaltyFeeBps(uint256)": {
        "details": "get the \"secondary sales\"/royalities fee for the NFT id fee basis points 10000 = 100%"
      },
      "ghostmarketFeeAddress()": {
        "returns": {
          "_0": "the ghostmarketFeeAddress"
        }
      },
      "ghostmarketMintingFee()": {
        "returns": {
          "_0": "the ghostmarketMintingFee."
        }
      },
      "grantRole(bytes32,address)": {
        "details": "Overload {grantRole} to track enumerable memberships"
      },
      "hasRole(bytes32,address)": {
        "details": "Returns `true` if `account` has been granted `role`."
      },
      "isApprovedForAll(address,address)": {
        "details": "See {IERC1155-isApprovedForAll}."
      },
      "mint(address,uint256,uint256,bytes)": {
        "details": "Creates `amount` new tokens for `to`, of token type `id`. See {ERC1155-_mint}. Requirements: - the caller must have the `MINTER_ROLE`."
      },
      "mintBatch(address,uint256[],uint256[],bytes)": {
        "details": "xref:ROOT:erc1155.adoc#batch-operations[Batched] variant of {mint}."
      },
      "mintGhost(address,uint256,bytes,(address,uint256)[],string,string)": {
        "details": "mint ERC1155 tokens with optional royalities, minting fee and locked content"
      },
      "pause()": {
        "details": "Pauses all token transfers. See {ERC1155Pausable} and {Pausable-_pause}. Requirements: - the caller must have the `PAUSER_ROLE`."
      },
      "paused()": {
        "details": "Returns true if the contract is paused, and false otherwise."
      },
      "renounceRole(bytes32,address)": {
        "details": "Overload {renounceRole} to track enumerable memberships"
      },
      "revokeRole(bytes32,address)": {
        "details": "Overload {revokeRole} to track enumerable memberships"
      },
      "safeBatchTransferFrom(address,address,uint256[],uint256[],bytes)": {
        "details": "See {IERC1155-safeBatchTransferFrom}."
      },
      "safeTransferFrom(address,address,uint256,uint256,bytes)": {
        "details": "See {IERC1155-safeTransferFrom}."
      },
      "setApprovalForAll(address,bool)": {
        "details": "See {IERC1155-setApprovalForAll}."
      },
      "setGhostmarketFeeAddress(address)": {
        "details": "set the wallet address where fees will be collected"
      },
      "setGhostmarketMintFee(uint256)": {
        "details": "sets the transfer fee"
      },
      "supportsInterface(bytes4)": {
        "details": "See {IERC165-supportsInterface}."
      },
      "unpause()": {
        "details": "Unpauses all token transfers. See {ERC1155Pausable} and {Pausable-_unpause}. Requirements: - the caller must have the `PAUSER_ROLE`."
      },
      "uri(uint256)": {
        "details": "See {IERC1155MetadataURI-uri}. This implementation returns the same URI for *all* token types. It relies on the token type ID substitution mechanism https://eips.ethereum.org/EIPS/eip-1155#metadata[defined in the EIP]. Clients calling this function must replace the `\\{id\\}` substring with the actual token type ID."
      }
    },
    "version": 1
  },
  "userdoc": {
    "kind": "user",
    "methods": {},
    "version": 1
  }
}