{
  "contractName": "GhostmarketNFT",
  "abi": [
    {
      "anonymous": false,
      "inputs": [
        {
          "indexed": true,
          "internalType": "address",
          "name": "owner",
          "type": "address"
        },
        {
          "indexed": true,
          "internalType": "address",
          "name": "approved",
          "type": "address"
        },
        {
          "indexed": true,
          "internalType": "uint256",
          "name": "tokenId",
          "type": "uint256"
        }
      ],
      "name": "Approval",
      "type": "event"
    },
    {
      "anonymous": false,
      "inputs": [
        {
          "indexed": true,
          "internalType": "address",
          "name": "owner",
          "type": "address"
        },
        {
          "indexed": true,
          "internalType": "address",
          "name": "operator",
          "type": "address"
        },
        {
          "indexed": false,
          "internalType": "bool",
          "name": "approved",
          "type": "bool"
        }
      ],
      "name": "ApprovalForAll",
      "type": "event"
    },
    {
      "anonymous": false,
      "inputs": [
        {
          "indexed": false,
          "internalType": "uint256",
          "name": "tokenId",
          "type": "uint256"
        },
        {
          "components": [
            {
              "internalType": "string",
              "name": "key",
              "type": "string"
            },
            {
              "internalType": "string",
              "name": "value",
              "type": "string"
            }
          ],
          "indexed": false,
          "internalType": "struct GhostmarketNFT.AttributesStruct[]",
          "name": "attributes",
          "type": "tuple[]"
        }
      ],
      "name": "AttributesSet",
      "type": "event"
    },
    {
      "anonymous": false,
      "inputs": [
        {
          "indexed": false,
          "internalType": "address",
          "name": "newValue",
          "type": "address"
        }
      ],
      "name": "GhostmarketFeeAddressChanged",
      "type": "event"
    },
    {
      "anonymous": false,
      "inputs": [
        {
          "indexed": false,
          "internalType": "uint256",
          "name": "newValue",
          "type": "uint256"
        }
      ],
      "name": "GhostmarketFeeMultiplierChanged",
      "type": "event"
    },
    {
      "anonymous": false,
      "inputs": [
        {
          "indexed": false,
          "internalType": "address",
          "name": "sender",
          "type": "address"
        },
        {
          "indexed": false,
          "internalType": "uint256",
          "name": "value",
          "type": "uint256"
        }
      ],
      "name": "GhostmarketFeePaid",
      "type": "event"
    },
    {
      "anonymous": false,
      "inputs": [
        {
          "indexed": false,
          "internalType": "uint256",
          "name": "newValue",
          "type": "uint256"
        }
      ],
      "name": "GhostmarketMintFeeChanged",
      "type": "event"
    },
    {
      "anonymous": false,
      "inputs": [
        {
          "indexed": false,
          "internalType": "address",
          "name": "account",
          "type": "address"
        }
      ],
      "name": "Paused",
      "type": "event"
    },
    {
      "anonymous": false,
      "inputs": [
        {
          "indexed": true,
          "internalType": "bytes32",
          "name": "role",
          "type": "bytes32"
        },
        {
          "indexed": true,
          "internalType": "bytes32",
          "name": "previousAdminRole",
          "type": "bytes32"
        },
        {
          "indexed": true,
          "internalType": "bytes32",
          "name": "newAdminRole",
          "type": "bytes32"
        }
      ],
      "name": "RoleAdminChanged",
      "type": "event"
    },
    {
      "anonymous": false,
      "inputs": [
        {
          "indexed": true,
          "internalType": "bytes32",
          "name": "role",
          "type": "bytes32"
        },
        {
          "indexed": true,
          "internalType": "address",
          "name": "account",
          "type": "address"
        },
        {
          "indexed": true,
          "internalType": "address",
          "name": "sender",
          "type": "address"
        }
      ],
      "name": "RoleGranted",
      "type": "event"
    },
    {
      "anonymous": false,
      "inputs": [
        {
          "indexed": true,
          "internalType": "bytes32",
          "name": "role",
          "type": "bytes32"
        },
        {
          "indexed": true,
          "internalType": "address",
          "name": "account",
          "type": "address"
        },
        {
          "indexed": true,
          "internalType": "address",
          "name": "sender",
          "type": "address"
        }
      ],
      "name": "RoleRevoked",
      "type": "event"
    },
    {
      "anonymous": false,
      "inputs": [
        {
          "indexed": false,
          "internalType": "uint256",
          "name": "tokenId",
          "type": "uint256"
        },
        {
          "indexed": false,
          "internalType": "address[]",
          "name": "recipients",
          "type": "address[]"
        },
        {
          "indexed": false,
          "internalType": "uint256[]",
          "name": "bps",
          "type": "uint256[]"
        }
      ],
      "name": "SecondarySaleFees",
      "type": "event"
    },
    {
      "anonymous": false,
      "inputs": [
        {
          "indexed": true,
          "internalType": "address",
          "name": "from",
          "type": "address"
        },
        {
          "indexed": true,
          "internalType": "address",
          "name": "to",
          "type": "address"
        },
        {
          "indexed": true,
          "internalType": "uint256",
          "name": "tokenId",
          "type": "uint256"
        }
      ],
      "name": "Transfer",
      "type": "event"
    },
    {
      "anonymous": false,
      "inputs": [
        {
          "indexed": false,
          "internalType": "address",
          "name": "account",
          "type": "address"
        }
      ],
      "name": "Unpaused",
      "type": "event"
    },
    {
      "inputs": [],
      "name": "DEFAULT_ADMIN_ROLE",
      "outputs": [
        {
          "internalType": "bytes32",
          "name": "",
          "type": "bytes32"
        }
      ],
      "stateMutability": "view",
      "type": "function"
    },
    {
      "inputs": [],
      "name": "MINTER_ROLE",
      "outputs": [
        {
          "internalType": "bytes32",
          "name": "",
          "type": "bytes32"
        }
      ],
      "stateMutability": "view",
      "type": "function"
    },
    {
      "inputs": [],
      "name": "PAUSER_ROLE",
      "outputs": [
        {
          "internalType": "bytes32",
          "name": "",
          "type": "bytes32"
        }
      ],
      "stateMutability": "view",
      "type": "function"
    },
    {
      "inputs": [
        {
          "internalType": "uint256",
          "name": "",
          "type": "uint256"
        }
      ],
      "name": "_lockedContent",
      "outputs": [
        {
          "internalType": "string",
          "name": "",
          "type": "string"
        }
      ],
      "stateMutability": "view",
      "type": "function"
    },
    {
      "inputs": [
        {
          "internalType": "address",
          "name": "to",
          "type": "address"
        },
        {
          "internalType": "uint256",
          "name": "tokenId",
          "type": "uint256"
        }
      ],
      "name": "approve",
      "outputs": [],
      "stateMutability": "nonpayable",
      "type": "function"
    },
    {
      "inputs": [
        {
          "internalType": "uint256",
          "name": "",
          "type": "uint256"
        },
        {
          "internalType": "uint256",
          "name": "",
          "type": "uint256"
        }
      ],
      "name": "attribute",
      "outputs": [
        {
          "internalType": "string",
          "name": "key",
          "type": "string"
        },
        {
          "internalType": "string",
          "name": "value",
          "type": "string"
        }
      ],
      "stateMutability": "view",
      "type": "function"
    },
    {
      "inputs": [
        {
          "internalType": "address",
          "name": "owner",
          "type": "address"
        }
      ],
      "name": "balanceOf",
      "outputs": [
        {
          "internalType": "uint256",
          "name": "",
          "type": "uint256"
        }
      ],
      "stateMutability": "view",
      "type": "function"
    },
    {
      "inputs": [
        {
          "internalType": "uint256",
          "name": "tokenId",
          "type": "uint256"
        }
      ],
      "name": "burn",
      "outputs": [],
      "stateMutability": "nonpayable",
      "type": "function"
    },
    {
      "inputs": [
        {
          "internalType": "uint256",
          "name": "",
          "type": "uint256"
        },
        {
          "internalType": "uint256",
          "name": "",
          "type": "uint256"
        }
      ],
      "name": "fees",
      "outputs": [
        {
          "internalType": "address payable",
          "name": "recipient",
          "type": "address"
        },
        {
          "internalType": "uint256",
          "name": "value",
          "type": "uint256"
        }
      ],
      "stateMutability": "view",
      "type": "function"
    },
    {
      "inputs": [
        {
          "internalType": "uint256",
          "name": "tokenId",
          "type": "uint256"
        }
      ],
      "name": "getApproved",
      "outputs": [
        {
          "internalType": "address",
          "name": "",
          "type": "address"
        }
      ],
      "stateMutability": "view",
      "type": "function"
    },
    {
      "inputs": [],
      "name": "getCurrentCounter",
      "outputs": [
        {
          "internalType": "uint256",
          "name": "",
          "type": "uint256"
        }
      ],
      "stateMutability": "view",
      "type": "function"
    },
    {
      "inputs": [
        {
          "internalType": "bytes32",
          "name": "role",
          "type": "bytes32"
        }
      ],
      "name": "getRoleAdmin",
      "outputs": [
        {
          "internalType": "bytes32",
          "name": "",
          "type": "bytes32"
        }
      ],
      "stateMutability": "view",
      "type": "function"
    },
    {
      "inputs": [
        {
          "internalType": "bytes32",
          "name": "role",
          "type": "bytes32"
        },
        {
          "internalType": "uint256",
          "name": "index",
          "type": "uint256"
        }
      ],
      "name": "getRoleMember",
      "outputs": [
        {
          "internalType": "address",
          "name": "",
          "type": "address"
        }
      ],
      "stateMutability": "view",
      "type": "function"
    },
    {
      "inputs": [
        {
          "internalType": "bytes32",
          "name": "role",
          "type": "bytes32"
        }
      ],
      "name": "getRoleMemberCount",
      "outputs": [
        {
          "internalType": "uint256",
          "name": "",
          "type": "uint256"
        }
      ],
      "stateMutability": "view",
      "type": "function"
    },
    {
      "inputs": [
        {
          "internalType": "bytes32",
          "name": "role",
          "type": "bytes32"
        },
        {
          "internalType": "address",
          "name": "account",
          "type": "address"
        }
      ],
      "name": "grantRole",
      "outputs": [],
      "stateMutability": "nonpayable",
      "type": "function"
    },
    {
      "inputs": [
        {
          "internalType": "bytes32",
          "name": "role",
          "type": "bytes32"
        },
        {
          "internalType": "address",
          "name": "account",
          "type": "address"
        }
      ],
      "name": "hasRole",
      "outputs": [
        {
          "internalType": "bool",
          "name": "",
          "type": "bool"
        }
      ],
      "stateMutability": "view",
      "type": "function"
    },
    {
      "inputs": [
        {
          "internalType": "address",
          "name": "owner",
          "type": "address"
        },
        {
          "internalType": "address",
          "name": "operator",
          "type": "address"
        }
      ],
      "name": "isApprovedForAll",
      "outputs": [
        {
          "internalType": "bool",
          "name": "",
          "type": "bool"
        }
      ],
      "stateMutability": "view",
      "type": "function"
    },
    {
      "inputs": [],
      "name": "name",
      "outputs": [
        {
          "internalType": "string",
          "name": "",
          "type": "string"
        }
      ],
      "stateMutability": "view",
      "type": "function"
    },
    {
      "inputs": [
        {
          "internalType": "uint256",
          "name": "tokenId",
          "type": "uint256"
        }
      ],
      "name": "ownerOf",
      "outputs": [
        {
          "internalType": "address",
          "name": "",
          "type": "address"
        }
      ],
      "stateMutability": "view",
      "type": "function"
    },
    {
      "inputs": [],
      "name": "pause",
      "outputs": [],
      "stateMutability": "nonpayable",
      "type": "function"
    },
    {
      "inputs": [],
      "name": "paused",
      "outputs": [
        {
          "internalType": "bool",
          "name": "",
          "type": "bool"
        }
      ],
      "stateMutability": "view",
      "type": "function"
    },
    {
      "inputs": [
        {
          "internalType": "bytes32",
          "name": "role",
          "type": "bytes32"
        },
        {
          "internalType": "address",
          "name": "account",
          "type": "address"
        }
      ],
      "name": "renounceRole",
      "outputs": [],
      "stateMutability": "nonpayable",
      "type": "function"
    },
    {
      "inputs": [
        {
          "internalType": "bytes32",
          "name": "role",
          "type": "bytes32"
        },
        {
          "internalType": "address",
          "name": "account",
          "type": "address"
        }
      ],
      "name": "revokeRole",
      "outputs": [],
      "stateMutability": "nonpayable",
      "type": "function"
    },
    {
      "inputs": [
        {
          "internalType": "address",
          "name": "from",
          "type": "address"
        },
        {
          "internalType": "address",
          "name": "to",
          "type": "address"
        },
        {
          "internalType": "uint256",
          "name": "tokenId",
          "type": "uint256"
        }
      ],
      "name": "safeTransferFrom",
      "outputs": [],
      "stateMutability": "nonpayable",
      "type": "function"
    },
    {
      "inputs": [
        {
          "internalType": "address",
          "name": "from",
          "type": "address"
        },
        {
          "internalType": "address",
          "name": "to",
          "type": "address"
        },
        {
          "internalType": "uint256",
          "name": "tokenId",
          "type": "uint256"
        },
        {
          "internalType": "bytes",
          "name": "_data",
          "type": "bytes"
        }
      ],
      "name": "safeTransferFrom",
      "outputs": [],
      "stateMutability": "nonpayable",
      "type": "function"
    },
    {
      "inputs": [
        {
          "internalType": "address",
          "name": "operator",
          "type": "address"
        },
        {
          "internalType": "bool",
          "name": "approved",
          "type": "bool"
        }
      ],
      "name": "setApprovalForAll",
      "outputs": [],
      "stateMutability": "nonpayable",
      "type": "function"
    },
    {
      "inputs": [
        {
          "internalType": "bytes4",
          "name": "interfaceId",
          "type": "bytes4"
        }
      ],
      "name": "supportsInterface",
      "outputs": [
        {
          "internalType": "bool",
          "name": "",
          "type": "bool"
        }
      ],
      "stateMutability": "view",
      "type": "function"
    },
    {
      "inputs": [],
      "name": "symbol",
      "outputs": [
        {
          "internalType": "string",
          "name": "",
          "type": "string"
        }
      ],
      "stateMutability": "view",
      "type": "function"
    },
    {
      "inputs": [
        {
          "internalType": "uint256",
          "name": "index",
          "type": "uint256"
        }
      ],
      "name": "tokenByIndex",
      "outputs": [
        {
          "internalType": "uint256",
          "name": "",
          "type": "uint256"
        }
      ],
      "stateMutability": "view",
      "type": "function"
    },
    {
      "inputs": [
        {
          "internalType": "address",
          "name": "owner",
          "type": "address"
        },
        {
          "internalType": "uint256",
          "name": "index",
          "type": "uint256"
        }
      ],
      "name": "tokenOfOwnerByIndex",
      "outputs": [
        {
          "internalType": "uint256",
          "name": "",
          "type": "uint256"
        }
      ],
      "stateMutability": "view",
      "type": "function"
    },
    {
      "inputs": [
        {
          "internalType": "uint256",
          "name": "tokenId",
          "type": "uint256"
        }
      ],
      "name": "tokenURI",
      "outputs": [
        {
          "internalType": "string",
          "name": "",
          "type": "string"
        }
      ],
      "stateMutability": "view",
      "type": "function"
    },
    {
      "inputs": [],
      "name": "totalSupply",
      "outputs": [
        {
          "internalType": "uint256",
          "name": "",
          "type": "uint256"
        }
      ],
      "stateMutability": "view",
      "type": "function"
    },
    {
      "inputs": [
        {
          "internalType": "address",
          "name": "from",
          "type": "address"
        },
        {
          "internalType": "address",
          "name": "to",
          "type": "address"
        },
        {
          "internalType": "uint256",
          "name": "tokenId",
          "type": "uint256"
        }
      ],
      "name": "transferFrom",
      "outputs": [],
      "stateMutability": "nonpayable",
      "type": "function"
    },
    {
      "inputs": [],
      "name": "unpause",
      "outputs": [],
      "stateMutability": "nonpayable",
      "type": "function"
    },
    {
      "inputs": [
        {
          "internalType": "string",
          "name": "name",
          "type": "string"
        },
        {
          "internalType": "string",
          "name": "symbol",
          "type": "string"
        },
        {
          "internalType": "string",
          "name": "uri",
          "type": "string"
        }
      ],
      "name": "initialize",
      "outputs": [],
      "stateMutability": "nonpayable",
      "type": "function"
    },
    {
      "inputs": [
        {
          "internalType": "uint256",
          "name": "_tokenId",
          "type": "uint256"
        }
      ],
      "name": "getAttributes",
      "outputs": [
        {
          "components": [
            {
              "internalType": "string",
              "name": "key",
              "type": "string"
            },
            {
              "internalType": "string",
              "name": "value",
              "type": "string"
            }
          ],
          "internalType": "struct GhostmarketNFT.AttributesStruct[]",
          "name": "",
          "type": "tuple[]"
        }
      ],
      "stateMutability": "view",
      "type": "function"
    },
    {
      "inputs": [
        {
          "internalType": "uint256",
          "name": "_tokenId",
          "type": "uint256"
        }
      ],
      "name": "getFeeRecipients",
      "outputs": [
        {
          "internalType": "address payable[]",
          "name": "",
          "type": "address[]"
        }
      ],
      "stateMutability": "view",
      "type": "function"
    },
    {
      "inputs": [
        {
          "internalType": "uint256",
          "name": "_tokenId",
          "type": "uint256"
        }
      ],
      "name": "getFeeBps",
      "outputs": [
        {
          "internalType": "uint256[]",
          "name": "",
          "type": "uint256[]"
        }
      ],
      "stateMutability": "view",
      "type": "function"
    },
    {
      "inputs": [
        {
          "internalType": "uint256",
          "name": "_tokenId",
          "type": "uint256"
        },
        {
          "internalType": "address",
          "name": "_from",
          "type": "address"
        },
        {
          "internalType": "uint256",
          "name": "_value",
          "type": "uint256"
        }
      ],
      "name": "updateRecipientsFees",
      "outputs": [],
      "stateMutability": "nonpayable",
      "type": "function"
    },
    {
      "inputs": [
        {
          "internalType": "uint256",
          "name": "_tokenId",
          "type": "uint256"
        },
        {
          "internalType": "address",
          "name": "_from",
          "type": "address"
        },
        {
          "internalType": "address",
          "name": "_to",
          "type": "address"
        }
      ],
      "name": "updateFeeAccount",
      "outputs": [],
      "stateMutability": "nonpayable",
      "type": "function"
    },
    {
      "inputs": [
        {
          "internalType": "address",
          "name": "_to",
          "type": "address"
        },
        {
          "components": [
            {
              "internalType": "address payable",
              "name": "recipient",
              "type": "address"
            },
            {
              "internalType": "uint256",
              "name": "value",
              "type": "uint256"
            }
          ],
          "internalType": "struct GhostmarketNFT.Fee[]",
          "name": "_fees",
          "type": "tuple[]"
        },
        {
          "components": [
            {
              "internalType": "string",
              "name": "key",
              "type": "string"
            },
            {
              "internalType": "string",
              "name": "value",
              "type": "string"
            }
          ],
          "internalType": "struct GhostmarketNFT.AttributesStruct[]",
          "name": "_attributes",
          "type": "tuple[]"
        },
        {
          "internalType": "string",
          "name": "lockedcontent",
          "type": "string"
        }
      ],
      "name": "mint",
      "outputs": [],
      "stateMutability": "nonpayable",
      "type": "function"
    },
    {
      "inputs": [
        {
          "internalType": "address",
          "name": "to",
          "type": "address"
        }
      ],
      "name": "mint",
      "outputs": [],
      "stateMutability": "nonpayable",
      "type": "function"
    },
    {
      "inputs": [
        {
          "internalType": "address",
          "name": "_to",
          "type": "address"
        },
        {
          "components": [
            {
              "internalType": "address payable",
              "name": "recipient",
              "type": "address"
            },
            {
              "internalType": "uint256",
              "name": "value",
              "type": "uint256"
            }
          ],
          "internalType": "struct GhostmarketNFT.Fee[]",
          "name": "_fees",
          "type": "tuple[]"
        },
        {
          "components": [
            {
              "internalType": "string",
              "name": "key",
              "type": "string"
            },
            {
              "internalType": "string",
              "name": "value",
              "type": "string"
            }
          ],
          "internalType": "struct GhostmarketNFT.AttributesStruct[]",
          "name": "_attributes",
          "type": "tuple[]"
        },
        {
          "internalType": "string",
          "name": "lockedcontent",
          "type": "string"
        }
      ],
      "name": "mintWithFee",
      "outputs": [],
      "stateMutability": "payable",
      "type": "function"
    },
    {
      "inputs": [
        {
          "internalType": "address payable",
          "name": "gmfa",
          "type": "address"
        }
      ],
      "name": "setGhostmarketFeeAddress",
      "outputs": [],
      "stateMutability": "nonpayable",
      "type": "function"
    },
    {
      "inputs": [
        {
          "internalType": "uint256",
          "name": "gmfm",
          "type": "uint256"
        }
      ],
      "name": "setGhostmarketFeeMultiplier",
      "outputs": [],
      "stateMutability": "nonpayable",
      "type": "function"
    },
    {
      "inputs": [
        {
          "internalType": "uint256",
          "name": "gmmf",
          "type": "uint256"
        }
      ],
      "name": "setGhostmarketMintFee",
      "outputs": [],
      "stateMutability": "nonpayable",
      "type": "function"
    },
    {
      "inputs": [],
      "name": "ghostmarketFeeAddress",
      "outputs": [
        {
          "internalType": "address payable",
          "name": "",
          "type": "address"
        }
      ],
      "stateMutability": "view",
      "type": "function"
    },
    {
      "inputs": [],
      "name": "ghostmarketMintingFee",
      "outputs": [
        {
          "internalType": "uint256",
          "name": "",
          "type": "uint256"
        }
      ],
      "stateMutability": "view",
      "type": "function"
    },
    {
      "inputs": [],
      "name": "ghostmarketFeeMultiplier",
      "outputs": [
        {
          "internalType": "uint256",
          "name": "",
          "type": "uint256"
        }
      ],
      "stateMutability": "view",
      "type": "function"
    },
    {
      "inputs": [
        {
          "internalType": "uint256",
          "name": "_tokenId",
          "type": "uint256"
        }
      ],
      "name": "getLockedContent",
      "outputs": [
        {
          "internalType": "string",
          "name": "",
          "type": "string"
        }
      ],
      "stateMutability": "view",
      "type": "function"
    }
  ],
  "bytecode": "0x608060405234801561001057600080fd5b50614bec806100206000396000f3fe6080604052600436106103295760003560e01c80636a627842116101a5578063c20b8336116100ec578063e38189c911610095578063f67684fd1161006f578063f67684fd146109a7578063fb3e09af146109ba578063fc24a8a9146109d9578063ffbd264d146109f957610329565b8063e38189c914610914578063e63ab1e91461092a578063e985e9c51461095e57610329565b8063d5391393116100c6578063d5391393146108a0578063d547741f146108d4578063dac0f3d9146108f457610329565b8063c20b833614610840578063c87b56dd14610860578063ca15c8731461088057610329565b806395d89b411161014e578063a6487c5311610128578063a6487c53146107d3578063b88d4fde146107f3578063b9c4d9fb1461081357610329565b806395d89b4114610789578063a217fddf1461079e578063a22cb465146107b357610329565b80638456cb591161017f5780638456cb591461070e5780639010d07c1461072357806391d148541461074357610329565b80636a627842146106b957806370a08231146106d957806373448c46146106f957610329565b806336568abe116102745780634378a6e31161021d5780635c975abb116101f75780635c975abb1461062b5780636213801f146106445780636308f1cd1461065a5780636352211e1461069957610329565b80634378a6e3146105be5780634f6ccce7146105eb578063529aae661461060b57610329565b80633f4ba83a1161024e5780633f4ba83a1461056957806342842e0e1461057e57806342966c681461059e57610329565b806336568abe146104fb57806336d8ec091461051b5780633daab0321461053b57610329565b806318160ddd116102d6578063248a9ca3116102b0578063248a9ca31461048b5780632f2ff15d146104bb5780632f745c59146104db57610329565b806318160ddd1461042c5780631c7e78f31461044b57806323b872dd1461046b57610329565b8063095ea7b311610307578063095ea7b3146103bd5780630ebd4c7f146103df5780630ffbe0c11461040c57610329565b806301ffc9a71461032e57806306fdde0314610363578063081812fc14610385575b600080fd5b34801561033a57600080fd5b5061034e61034936600461464c565b610a19565b60405190151581526020015b60405180910390f35b34801561036f57600080fd5b50610378610a2c565b60405161035a9190614939565b34801561039157600080fd5b506103a56103a03660046145ef565b610abe565b6040516001600160a01b03909116815260200161035a565b3480156103c957600080fd5b506103dd6103d83660046145c4565b610b58565b005b3480156103eb57600080fd5b506103ff6103fa3660046145ef565b610c8a565b60405161035a9190614926565b34801561041857600080fd5b506103dd610427366004614482565b610dd7565b34801561043857600080fd5b5060fd545b60405190815260200161035a565b34801561045757600080fd5b506103786104663660046145ef565b610f51565b34801561047757600080fd5b506103dd6104863660046143c5565b611078565b34801561049757600080fd5b5061043d6104a63660046145ef565b60009081526065602052604090206001015490565b3480156104c757600080fd5b506103dd6104d6366004614607565b611100565b3480156104e757600080fd5b5061043d6104f63660046145c4565b611122565b34801561050757600080fd5b506103dd610516366004614607565b6111cd565b34801561052757600080fd5b506103dd610536366004614708565b6111ef565b34801561054757600080fd5b5061055b61055636600461462b565b61137a565b60405161035a92919061494c565b34801561057557600080fd5b506103dd6114cc565b34801561058a57600080fd5b506103dd6105993660046143c5565b611574565b3480156105aa57600080fd5b506103dd6105b93660046145ef565b61158f565b3480156105ca57600080fd5b506105de6105d93660046145ef565b611616565b60405161035a9190614913565b3480156105f757600080fd5b5061043d6106063660046145ef565b6117ad565b34801561061757600080fd5b506103786106263660046145ef565b61185f565b34801561063757600080fd5b5061015f5460ff1661034e565b34801561065057600080fd5b506101f95461043d565b34801561066657600080fd5b5061067a61067536600461462b565b6118fa565b604080516001600160a01b03909316835260208301919091520161035a565b3480156106a557600080fd5b506103a56106b43660046145ef565b611941565b3480156106c557600080fd5b506103dd6106d4366004614371565b6119cc565b3480156106e557600080fd5b5061043d6106f4366004614371565b611a8a565b34801561070557600080fd5b5061043d611b24565b34801561071a57600080fd5b506103dd611b35565b34801561072f57600080fd5b506103a561073e36600461462b565b611bd9565b34801561074f57600080fd5b5061034e61075e366004614607565b60009182526065602090815260408084206001600160a01b0393909316845291905290205460ff1690565b34801561079557600080fd5b50610378611bf8565b3480156107aa57600080fd5b5061043d600081565b3480156107bf57600080fd5b506103dd6107ce366004614593565b611c07565b3480156107df57600080fd5b506103dd6107ee366004614684565b611cd9565b3480156107ff57600080fd5b506103dd61080e366004614405565b611db2565b34801561081f57600080fd5b5061083361082e3660046145ef565b611e3a565b60405161035a91906148c6565b34801561084c57600080fd5b506103dd61085b3660046145ef565b611f8c565b34801561086c57600080fd5b5061037861087b3660046145ef565b612046565b34801561088c57600080fd5b5061043d61089b3660046145ef565b61212e565b3480156108ac57600080fd5b5061043d7f9f2df0fed2c77648de5860a4cc508cd0818c85b8b8a1ab4ceeef8d981c8956a681565b3480156108e057600080fd5b506103dd6108ef366004614607565b612145565b34801561090057600080fd5b506103dd61090f3660046145ef565b61214f565b34801561092057600080fd5b506101f85461043d565b34801561093657600080fd5b5061043d7f65d7a28e3265b37a6474929f336521b332c1681b933f6cb9f3376673440d862a81565b34801561096a57600080fd5b5061034e61097936600461438d565b6001600160a01b03918216600090815260ce6020908152604080832093909416825291909152205460ff1690565b6103dd6109b5366004614482565b612202565b3480156109c657600080fd5b506101fa546001600160a01b03166103a5565b3480156109e557600080fd5b506103dd6109f4366004614371565b6122f1565b348015610a0557600080fd5b506103dd610a14366004614749565b6123bd565b6000610a24826125e5565b90505b919050565b606060c98054610a3b90614adf565b80601f0160208091040260200160405190810160405280929190818152602001828054610a6790614adf565b8015610ab45780601f10610a8957610100808354040283529160200191610ab4565b820191906000526020600020905b815481529060010190602001808311610a9757829003601f168201915b5050505050905090565b600081815260cb60205260408120546001600160a01b0316610b3c5760405162461bcd60e51b815260206004820152602c60248201527f4552433732313a20617070726f76656420717565727920666f72206e6f6e657860448201526b34b9ba32b73a103a37b5b2b760a11b60648201526084015b60405180910390fd5b50600090815260cd60205260409020546001600160a01b031690565b6000610b6382611941565b9050806001600160a01b0316836001600160a01b03161415610bed5760405162461bcd60e51b815260206004820152602160248201527f4552433732313a20617070726f76616c20746f2063757272656e74206f776e6560448201527f72000000000000000000000000000000000000000000000000000000000000006064820152608401610b33565b336001600160a01b0382161480610c095750610c098133610979565b610c7b5760405162461bcd60e51b815260206004820152603860248201527f4552433732313a20617070726f76652063616c6c6572206973206e6f74206f7760448201527f6e6572206e6f7220617070726f76656420666f7220616c6c00000000000000006064820152608401610b33565b610c858383612623565b505050565b60008181526101f660209081526040808320805482518185028101850190935280835260609493849084015b82821015610cfe576000848152602090819020604080518082019091526002850290910180546001600160a01b03168252600190810154828401529083529092019101610cb6565b5050505090506000815167ffffffffffffffff811115610d2e57634e487b7160e01b600052604160045260246000fd5b604051908082528060200260200182016040528015610d57578160200160208202803683370190505b50905060005b8251811015610dcf57828181518110610d8657634e487b7160e01b600052603260045260246000fd5b602002602001015160200151828281518110610db257634e487b7160e01b600052603260045260246000fd5b602090810291909101015280610dc781614b1a565b915050610d5d565b509392505050565b610de0846119cc565b60006001610dec611b24565b610df69190614a9c565b90506000845167ffffffffffffffff811115610e2257634e487b7160e01b600052604160045260246000fd5b604051908082528060200260200182016040528015610e4b578160200160208202803683370190505b5090506000855167ffffffffffffffff811115610e7857634e487b7160e01b600052604160045260246000fd5b604051908082528060200260200182016040528015610ea1578160200160208202803683370190505b50865190915015610ef257610eb68387612691565b7f99aba1d63749cfd5ad1afda7c4663840924d54eb5f005bbbeadedc6ec13674b2838383604051610ee99392919061497a565b60405180910390a15b845115610f0357610f0383866128ab565b6040805160008152602081018083528151902091610f239187910161483f565b6040516020818303038152906040528051906020012014610f4857610f488385612b3e565b50505050505050565b606033610f5d83611941565b6001600160a01b031614610fd95760405162461bcd60e51b815260206004820152602360248201527f43616c6c6572206d75737420626520746865206f776e6572206f66207468652060448201527f4e465400000000000000000000000000000000000000000000000000000000006064820152608401610b33565b60008281526101f7602052604090208054610ff390614adf565b80601f016020809104026020016040519081016040528092919081815260200182805461101f90614adf565b801561106c5780601f106110415761010080835404028352916020019161106c565b820191906000526020600020905b81548152906001019060200180831161104f57829003601f168201915b50505050509050919050565b611083335b82612b5e565b6110f55760405162461bcd60e51b815260206004820152603160248201527f4552433732313a207472616e736665722063616c6c6572206973206e6f74206f60448201527f776e6572206e6f7220617070726f7665640000000000000000000000000000006064820152608401610b33565b610c85838383612c55565b61110a8282612e2d565b6000828152609760205260409020610c859082612eca565b600061112d83611a8a565b82106111a15760405162461bcd60e51b815260206004820152602b60248201527f455243373231456e756d657261626c653a206f776e657220696e646578206f7560448201527f74206f6620626f756e64730000000000000000000000000000000000000000006064820152608401610b33565b506001600160a01b038216600090815260fb602090815260408083208484529091529020545b92915050565b6111d78282612edf565b6000828152609760205260409020610c859082612f67565b6112197f9f2df0fed2c77648de5860a4cc508cd0818c85b8b8a1ab4ceeef8d981c8956a63361075e565b61128b5760405162461bcd60e51b815260206004820152603660248201527f7570646174696e672066656520726563657069656e7473206973206e6f74206160448201527f6c6c6f7765642062792074686973206163636f756e74000000000000000000006064820152608401610b33565b60008381526101f66020526040812054905b818110156113735760008581526101f66020526040902080546001600160a01b0386169190839081106112e057634e487b7160e01b600052603260045260246000fd5b60009182526020909120600290910201546001600160a01b031614156113615760008581526101f66020526040902080548491908390811061133257634e487b7160e01b600052603260045260246000fd5b6000918252602090912060029091020180546001600160a01b0319166001600160a01b03929092169190911790555b8061136b81614b1a565b91505061129d565b5050505050565b6101f5602052816000526040600020818154811061139757600080fd5b9060005260206000209060020201600091509150508060000180546113bb90614adf565b80601f01602080910402602001604051908101604052809291908181526020018280546113e790614adf565b80156114345780601f1061140957610100808354040283529160200191611434565b820191906000526020600020905b81548152906001019060200180831161141757829003601f168201915b50505050509080600101805461144990614adf565b80601f016020809104026020016040519081016040528092919081815260200182805461147590614adf565b80156114c25780601f10611497576101008083540402835291602001916114c2565b820191906000526020600020905b8154815290600101906020018083116114a557829003601f168201915b5050505050905082565b6114f67f65d7a28e3265b37a6474929f336521b332c1681b933f6cb9f3376673440d862a3361075e565b61156a576040805162461bcd60e51b81526020600482015260248101919091527f4552433732315072657365744d696e7465725061757365724175746f49643a2060448201527f6d75737420686176652070617573657220726f6c6520746f20756e70617573656064820152608401610b33565b611572612f7c565b565b610c8583838360405180602001604052806000815250611db2565b6115983361107d565b61160a5760405162461bcd60e51b815260206004820152603060248201527f4552433732314275726e61626c653a2063616c6c6572206973206e6f74206f7760448201527f6e6572206e6f7220617070726f766564000000000000000000000000000000006064820152608401610b33565b6116138161301a565b50565b60606101f56000838152602001908152602001600020805480602002602001604051908101604052809291908181526020016000905b828210156117a2578382906000526020600020906002020160405180604001604052908160008201805461167f90614adf565b80601f01602080910402602001604051908101604052809291908181526020018280546116ab90614adf565b80156116f85780601f106116cd576101008083540402835291602001916116f8565b820191906000526020600020905b8154815290600101906020018083116116db57829003601f168201915b5050505050815260200160018201805461171190614adf565b80601f016020809104026020016040519081016040528092919081815260200182805461173d90614adf565b801561178a5780601f1061175f5761010080835404028352916020019161178a565b820191906000526020600020905b81548152906001019060200180831161176d57829003601f168201915b5050505050815250508152602001906001019061164c565b505050509050919050565b60006117b860fd5490565b821061182c5760405162461bcd60e51b815260206004820152602c60248201527f455243373231456e756d657261626c653a20676c6f62616c20696e646578206f60448201527f7574206f6620626f756e647300000000000000000000000000000000000000006064820152608401610b33565b60fd828154811061184d57634e487b7160e01b600052603260045260246000fd5b90600052602060002001549050919050565b6101f7602052600090815260409020805461187990614adf565b80601f01602080910402602001604051908101604052809291908181526020018280546118a590614adf565b80156118f25780601f106118c7576101008083540402835291602001916118f2565b820191906000526020600020905b8154815290600101906020018083116118d557829003601f168201915b505050505081565b6101f6602052816000526040600020818154811061191757600080fd5b6000918252602090912060029091020180546001909101546001600160a01b039091169250905082565b600081815260cb60205260408120546001600160a01b031680610a245760405162461bcd60e51b815260206004820152602960248201527f4552433732313a206f776e657220717565727920666f72206e6f6e657869737460448201527f656e7420746f6b656e00000000000000000000000000000000000000000000006064820152608401610b33565b6119f67f9f2df0fed2c77648de5860a4cc508cd0818c85b8b8a1ab4ceeef8d981c8956a63361075e565b611a685760405162461bcd60e51b815260206004820152603d60248201527f4552433732315072657365744d696e7465725061757365724175746f49643a2060448201527f6d7573742068617665206d696e74657220726f6c6520746f206d696e740000006064820152608401610b33565b611a7b81611a766101c35490565b6130c1565b6116136101c380546001019055565b60006001600160a01b038216611b085760405162461bcd60e51b815260206004820152602a60248201527f4552433732313a2062616c616e636520717565727920666f7220746865207a6560448201527f726f2061646472657373000000000000000000000000000000000000000000006064820152608401610b33565b506001600160a01b0316600090815260cc602052604090205490565b6000611b306101c35490565b905090565b611b5f7f65d7a28e3265b37a6474929f336521b332c1681b933f6cb9f3376673440d862a3361075e565b611bd15760405162461bcd60e51b815260206004820152603e60248201527f4552433732315072657365744d696e7465725061757365724175746f49643a2060448201527f6d75737420686176652070617573657220726f6c6520746f20706175736500006064820152608401610b33565b61157261320f565b6000828152609760205260408120611bf19083613299565b9392505050565b606060ca8054610a3b90614adf565b6001600160a01b038216331415611c605760405162461bcd60e51b815260206004820152601960248201527f4552433732313a20617070726f766520746f2063616c6c6572000000000000006044820152606401610b33565b33600081815260ce602090815260408083206001600160a01b0387168085529252909120805460ff1916841515179055906001600160a01b03167f17307eab39ab6107e8899845ad3d59bd9653f200f220920489ca2b5937696c3183604051611ccd911515815260200190565b60405180910390a35050565b600054610100900460ff1680611cf2575060005460ff16155b611d555760405162461bcd60e51b815260206004820152602e60248201527f496e697469616c697a61626c653a20636f6e747261637420697320616c72656160448201526d191e481a5b9a5d1a585b1a5e995960921b6064820152608401610b33565b600054610100900460ff16158015611d77576000805461ffff19166101011790555b611d8184846132a5565b611d8c848484613381565b6101fa805460ff60a01b191690558015611dac576000805461ff00191690555b50505050565b611dbc3383612b5e565b611e2e5760405162461bcd60e51b815260206004820152603160248201527f4552433732313a207472616e736665722063616c6c6572206973206e6f74206f60448201527f776e6572206e6f7220617070726f7665640000000000000000000000000000006064820152608401610b33565b611dac848484846134ab565b60008181526101f660209081526040808320805482518185028101850190935280835260609493849084015b82821015611eae576000848152602090819020604080518082019091526002850290910180546001600160a01b03168252600190810154828401529083529092019101611e66565b5050505090506000815167ffffffffffffffff811115611ede57634e487b7160e01b600052604160045260246000fd5b604051908082528060200260200182016040528015611f07578160200160208202803683370190505b50905060005b8251811015610dcf57828181518110611f3657634e487b7160e01b600052603260045260246000fd5b602002602001015160000151828281518110611f6257634e487b7160e01b600052603260045260246000fd5b6001600160a01b039092166020928302919091019091015280611f8481614b1a565b915050611f0d565b611f9760003361075e565b6120095760405162461bcd60e51b815260206004820152603660248201527f43616c6c6572206d75737420686176652061646d696e20726f6c6520746f207360448201527f6574206d696e74696e67206665652070657263656e74000000000000000000006064820152608401610b33565b6101f88190556040518181527f7bc6903b724da310ba4dbf15a52e7ae8597dcbe9763ff4d88e2b197a648b4a31906020015b60405180910390a150565b600081815260cb60205260409020546060906001600160a01b03166120d35760405162461bcd60e51b815260206004820152602f60248201527f4552433732314d657461646174613a2055524920717565727920666f72206e6f60448201527f6e6578697374656e7420746f6b656e00000000000000000000000000000000006064820152608401610b33565b60006120dd613534565b905060008151116120fd5760405180602001604052806000815250611bf1565b8061210784613544565b60405160200161211892919061485b565b6040516020818303038152906040529392505050565b6000818152609760205260408120610a2490613693565b6111d7828261369d565b61215a60003361075e565b6121cc5760405162461bcd60e51b815260206004820152603660248201527f43616c6c6572206d75737420686176652061646d696e20726f6c6520746f207360448201527f6574206d696e74696e67206665652070657263656e74000000000000000000006064820152608401610b33565b6101f98190556040518181527fe28e57f6cdaccbb98c150b646656c0178b4b67253ae73deaba3b9c76525b987e9060200161203b565b6101f854156122e5576101fa546001600160a01b031661228a5760405162461bcd60e51b815260206004820152602760248201527f47686f73746d61726b6574206d696e74696e672046656520416464726573732060448201527f6e6f7420736574000000000000000000000000000000000000000000000000006064820152608401610b33565b60006101f954116122dd5760405162461bcd60e51b815260206004820152601f60248201527f47686f73746d61726b6574206d696e74696e6720466565206973207a65726f006044820152606401610b33565b6122e561372a565b611dac84848484610dd7565b6122fc60003361075e565b61236e5760405162461bcd60e51b815260206004820152603660248201527f43616c6c6572206d75737420686176652061646d696e20726f6c6520746f207360448201527f6574206d696e74696e67206665652061646472657373000000000000000000006064820152608401610b33565b6101fa80546001600160a01b0319166001600160a01b0383169081179091556040519081527f42e58c2251766d60a378c8984cb15020e19218cae37fa9e7556ce617200f68519060200161203b565b6123e77f9f2df0fed2c77648de5860a4cc508cd0818c85b8b8a1ab4ceeef8d981c8956a63361075e565b6124595760405162461bcd60e51b815260206004820152603160248201527f7570646174696e67206665652076616c7565206973206e6f7420616c6c6f776560448201527f642062792074686973206163636f756e740000000000000000000000000000006064820152608401610b33565b600081116124a95760405162461bcd60e51b815260206004820181905260248201527f6e6577204665652076616c75652073686f756c6420626520706f7369746976656044820152606401610b33565b60008381526101f66020908152604080832080548251818502810185019093528083529192909190849084015b8282101561251e576000848152602090819020604080518082019091526002850290910180546001600160a01b031682526001908101548284015290835290920191016124d6565b50505050905060005b81518110156113735760008581526101f66020526040902080546001600160a01b03861691908390811061256b57634e487b7160e01b600052603260045260246000fd5b60009182526020909120600290910201546001600160a01b031614156125d35760008581526101f6602052604090208054849190839081106125bd57634e487b7160e01b600052603260045260246000fd5b9060005260206000209060020201600101819055505b806125dd81614b1a565b915050612527565b60006001600160e01b031982167f780e9d63000000000000000000000000000000000000000000000000000000001480610a245750610a24826138b9565b600081815260cd6020526040902080546001600160a01b0319166001600160a01b038416908117909155819061265882611941565b6001600160a01b03167f8c5be1e5ebec7d5bd14f71427d1e84f3dd0314c0f7b2291e5b200ac8c7c3b92560405160405180910390a45050565b600082815260cb60205260409020546001600160a01b031661270a5760405162461bcd60e51b815260206004820152602c60248201527f4552433732313a20617070726f76656420717565727920666f72206e6f6e657860448201526b34b9ba32b73a103a37b5b2b760a11b6064820152608401610b33565b60005b8151811015610c855760006001600160a01b031682828151811061274157634e487b7160e01b600052603260045260246000fd5b6020026020010151600001516001600160a01b031614156127a45760405162461bcd60e51b815260206004820152601b60248201527f526563697069656e742073686f756c642062652070726573656e7400000000006044820152606401610b33565b60008282815181106127c657634e487b7160e01b600052603260045260246000fd5b6020026020010151602001511161281f5760405162461bcd60e51b815260206004820152601c60248201527f4665652076616c75652073686f756c6420626520706f736974697665000000006044820152606401610b33565b60008381526101f660205260409020825183908390811061285057634e487b7160e01b600052603260045260246000fd5b602090810291909101810151825460018082018555600094855293839020825160029092020180546001600160a01b0319166001600160a01b03909216919091178155910151910155806128a381614b1a565b91505061270d565b60005b8151811015610c85576040805160008152602081019182905251902082518390839081106128ec57634e487b7160e01b600052603260045260246000fd5b602002602001015160000151604051602001612908919061483f565b6040516020818303038152906040528051906020012014156129925760405162461bcd60e51b815260206004820152602160248201527f417474726962757465206b65792073686f756c64206e6f7420626520656d707460448201527f79000000000000000000000000000000000000000000000000000000000000006064820152608401610b33565b6040805160008152602081019182905251902082518390839081106129c757634e487b7160e01b600052603260045260246000fd5b6020026020010151602001516040516020016129e3919061483f565b604051602081830303815290604052805190602001201415612a6d5760405162461bcd60e51b815260206004820152602360248201527f4174747269627574652076616c75652073686f756c64206e6f7420626520656d60448201527f70747900000000000000000000000000000000000000000000000000000000006064820152608401610b33565b60008381526101f5602052604090208251839083908110612a9e57634e487b7160e01b600052603260045260246000fd5b602090810291909101810151825460018101845560009384529282902081518051929460020290910192612ad792849290910190614198565b506020828101518051612af09260018501920190614198565b5050507fa5800424c9d59fec069be83c374ba1fad8ad7472fcb6fb6648cbf62a557ae4e78383604051612b249291906149e3565b60405180910390a180612b3681614b1a565b9150506128ae565b60008281526101f7602090815260409091208251610c8592840190614198565b600081815260cb60205260408120546001600160a01b0316612bd75760405162461bcd60e51b815260206004820152602c60248201527f4552433732313a206f70657261746f7220717565727920666f72206e6f6e657860448201526b34b9ba32b73a103a37b5b2b760a11b6064820152608401610b33565b6000612be283611941565b9050806001600160a01b0316846001600160a01b03161480612c1d5750836001600160a01b0316612c1284610abe565b6001600160a01b0316145b80612c4d57506001600160a01b03808216600090815260ce602090815260408083209388168352929052205460ff165b949350505050565b826001600160a01b0316612c6882611941565b6001600160a01b031614612ce45760405162461bcd60e51b815260206004820152602960248201527f4552433732313a207472616e73666572206f6620746f6b656e2074686174206960448201527f73206e6f74206f776e00000000000000000000000000000000000000000000006064820152608401610b33565b6001600160a01b038216612d5f5760405162461bcd60e51b8152602060048201526024808201527f4552433732313a207472616e7366657220746f20746865207a65726f2061646460448201527f72657373000000000000000000000000000000000000000000000000000000006064820152608401610b33565b612d6a83838361392b565b612d75600082612623565b6001600160a01b038316600090815260cc60205260408120805460019290612d9e908490614a9c565b90915550506001600160a01b038216600090815260cc60205260408120805460019290612dcc908490614a51565b9091555050600081815260cb602052604080822080546001600160a01b0319166001600160a01b0386811691821790925591518493918716917fddf252ad1be2c89b69c2b068fc378daa952ba7f163c4a11628f55a4df523b3ef91a4505050565b600082815260656020526040902060010154612e4a905b3361075e565b612ebc5760405162461bcd60e51b815260206004820152602f60248201527f416363657373436f6e74726f6c3a2073656e646572206d75737420626520616e60448201527f2061646d696e20746f206772616e7400000000000000000000000000000000006064820152608401610b33565b612ec68282613936565b5050565b6000611bf1836001600160a01b0384166139d8565b6001600160a01b0381163314612f5d5760405162461bcd60e51b815260206004820152602f60248201527f416363657373436f6e74726f6c3a2063616e206f6e6c792072656e6f756e636560448201527f20726f6c657320666f722073656c6600000000000000000000000000000000006064820152608401610b33565b612ec68282613a27565b6000611bf1836001600160a01b038416613aaa565b61015f5460ff16612fcf5760405162461bcd60e51b815260206004820152601460248201527f5061757361626c653a206e6f74207061757365640000000000000000000000006044820152606401610b33565b61015f805460ff191690557f5db9ee0a495bf2e6ff9c91a7834c1ba4fdd244a5e8aa4e537bd38aeae4b073aa335b6040516001600160a01b03909116815260200160405180910390a1565b600061302582611941565b90506130338160008461392b565b61303e600083612623565b6001600160a01b038116600090815260cc60205260408120805460019290613067908490614a9c565b9091555050600082815260cb602052604080822080546001600160a01b0319169055518391906001600160a01b038416907fddf252ad1be2c89b69c2b068fc378daa952ba7f163c4a11628f55a4df523b3ef908390a45050565b6001600160a01b0382166131175760405162461bcd60e51b815260206004820181905260248201527f4552433732313a206d696e7420746f20746865207a65726f20616464726573736044820152606401610b33565b600081815260cb60205260409020546001600160a01b03161561317c5760405162461bcd60e51b815260206004820152601c60248201527f4552433732313a20746f6b656e20616c7265616479206d696e746564000000006044820152606401610b33565b6131886000838361392b565b6001600160a01b038216600090815260cc602052604081208054600192906131b1908490614a51565b9091555050600081815260cb602052604080822080546001600160a01b0319166001600160a01b03861690811790915590518392907fddf252ad1be2c89b69c2b068fc378daa952ba7f163c4a11628f55a4df523b3ef908290a45050565b61015f5460ff16156132635760405162461bcd60e51b815260206004820152601060248201527f5061757361626c653a20706175736564000000000000000000000000000000006044820152606401610b33565b61015f805460ff191660011790557f62e78cea01bee320cd4e420270b5ea74000d11b0c9f74754ebdbfc544b05a258612ffd3390565b6000611bf18383613bc7565b600054610100900460ff16806132be575060005460ff16155b6133215760405162461bcd60e51b815260206004820152602e60248201527f496e697469616c697a61626c653a20636f6e747261637420697320616c72656160448201526d191e481a5b9a5d1a585b1a5e995960921b6064820152608401610b33565b600054610100900460ff16158015613343576000805461ffff19166101011790555b82516133569060c9906020860190614198565b50815161336a9060ca906020850190614198565b508015610c85576000805461ff0019169055505050565b600054610100900460ff168061339a575060005460ff16155b6133fd5760405162461bcd60e51b815260206004820152602e60248201527f496e697469616c697a61626c653a20636f6e747261637420697320616c72656160448201526d191e481a5b9a5d1a585b1a5e995960921b6064820152608401610b33565b600054610100900460ff1615801561341f576000805461ffff19166101011790555b8151613433906101c4906020850190614198565b506134406000335b613c76565b61346a7f9f2df0fed2c77648de5860a4cc508cd0818c85b8b8a1ab4ceeef8d981c8956a63361343b565b6134947f65d7a28e3265b37a6474929f336521b332c1681b933f6cb9f3376673440d862a3361343b565b8015611dac576000805461ff001916905550505050565b6134b6848484612c55565b6134c284848484613c80565b611dac5760405162461bcd60e51b815260206004820152603260248201527f4552433732313a207472616e7366657220746f206e6f6e20455243373231526560448201527f63656976657220696d706c656d656e74657200000000000000000000000000006064820152608401610b33565b60606101c48054610a3b90614adf565b606081613585575060408051808201909152600181527f30000000000000000000000000000000000000000000000000000000000000006020820152610a27565b8160005b81156135af578061359981614b1a565b91506135a89050600a83614a69565b9150613589565b60008167ffffffffffffffff8111156135d857634e487b7160e01b600052604160045260246000fd5b6040519080825280601f01601f191660200182016040528015613602576020820181803683370190505b5090505b8415612c4d57613617600183614a9c565b9150613624600a86614b35565b61362f906030614a51565b60f81b81838151811061365257634e487b7160e01b600052603260045260246000fd5b60200101907effffffffffffffffffffffffffffffffffffffffffffffffffffffffffffff1916908160001a90535061368c600a86614a69565b9450613606565b6000610a24825490565b6000828152606560205260409020600101546136b890612e44565b612f5d5760405162461bcd60e51b815260206004820152603060248201527f416363657373436f6e74726f6c3a2073656e646572206d75737420626520616e60448201527f2061646d696e20746f207265766f6b65000000000000000000000000000000006064820152608401610b33565b6101fa5474010000000000000000000000000000000000000000900460ff16156137965760405162461bcd60e51b815260206004820152601360248201527f5265656e7472616e7420646574656374656421000000000000000000000000006044820152606401610b33565b6101fa805460ff60a01b19167401000000000000000000000000000000000000000017905560006137c5613de3565b6101fa546040519192506000916001600160a01b039091169083908381818185875af1925050503d8060008114613818576040519150601f19603f3d011682016040523d82523d6000602084013e61381d565b606091505b505090508061386e5760405162461bcd60e51b815260206004820152601060248201527f5472616e73666572206661696c65642e000000000000000000000000000000006044820152606401610b33565b6101fa805460ff60a01b1916905560408051338152602081018490527ff867832f09d3df16244ef05b595ad6197c4fc2da636495ff70035f1acdf2ba0a910160405180910390a15050565b60006001600160e01b031982167f80ac58cd00000000000000000000000000000000000000000000000000000000148061391c57506001600160e01b031982167f5b5e139f00000000000000000000000000000000000000000000000000000000145b80610a245750610a2482613df7565b610c85838383613e35565b60008281526065602090815260408083206001600160a01b038516845290915290205460ff16612ec65760008281526065602090815260408083206001600160a01b03851684529091529020805460ff191660011790556139943390565b6001600160a01b0316816001600160a01b0316837f2f8788117e7eff1d82e926ec794901d17c78024a50270940304540a733656f0d60405160405180910390a45050565b6000818152600183016020526040812054613a1f575081546001818101845560008481526020808220909301849055845484825282860190935260409020919091556111c7565b5060006111c7565b60008281526065602090815260408083206001600160a01b038516845290915290205460ff1615612ec65760008281526065602090815260408083206001600160a01b0385168085529252808320805460ff1916905551339285917ff6391f5c32d9c69d2a47ea670b442974b53935d1edc7fd64eb21e047a839171b9190a45050565b60008181526001830160205260408120548015613bbd576000613ace600183614a9c565b8554909150600090613ae290600190614a9c565b90506000866000018281548110613b0957634e487b7160e01b600052603260045260246000fd5b9060005260206000200154905080876000018481548110613b3a57634e487b7160e01b600052603260045260246000fd5b600091825260209091200155613b51836001614a51565b60008281526001890160205260409020558654879080613b8157634e487b7160e01b600052603160045260246000fd5b600190038181906000526020600020016000905590558660010160008781526020019081526020016000206000905560019450505050506111c7565b60009150506111c7565b81546000908210613c405760405162461bcd60e51b815260206004820152602260248201527f456e756d657261626c655365743a20696e646578206f7574206f6620626f756e60448201527f64730000000000000000000000000000000000000000000000000000000000006064820152608401610b33565b826000018281548110613c6357634e487b7160e01b600052603260045260246000fd5b9060005260206000200154905092915050565b61110a8282612ebc565b60006001600160a01b0384163b15613dd857604051630a85bd0160e11b81526001600160a01b0385169063150b7a0290613cc490339089908890889060040161488a565b602060405180830381600087803b158015613cde57600080fd5b505af1925050508015613d0e575060408051601f3d908101601f19168201909252613d0b91810190614668565b60015b613dbe573d808015613d3c576040519150601f19603f3d011682016040523d82523d6000602084013e613d41565b606091505b508051613db65760405162461bcd60e51b815260206004820152603260248201527f4552433732313a207472616e7366657220746f206e6f6e20455243373231526560448201527f63656976657220696d706c656d656e74657200000000000000000000000000006064820152608401610b33565b805181602001fd5b6001600160e01b031916630a85bd0160e11b149050612c4d565b506001949350505050565b60006101f8546101f954611b309190614a7d565b60006001600160e01b031982167f5a05180f000000000000000000000000000000000000000000000000000000001480610a245750610a2482613eba565b613e40838383613f21565b61015f5460ff1615610c855760405162461bcd60e51b815260206004820152602b60248201527f4552433732315061757361626c653a20746f6b656e207472616e73666572207760448201527f68696c65207061757365640000000000000000000000000000000000000000006064820152608401610b33565b60006001600160e01b031982167f7965db0b000000000000000000000000000000000000000000000000000000001480610a2457507f01ffc9a7000000000000000000000000000000000000000000000000000000006001600160e01b0319831614610a24565b6001600160a01b038316613f7c57613f778160fd8054600083815260fe60205260408120829055600182018355919091527f9346ac6dd7de6b96975fec380d4d994c4c12e6a8897544f22915316cc6cca2800155565b613f9f565b816001600160a01b0316836001600160a01b031614613f9f57613f9f8382613fde565b6001600160a01b038216613fbb57613fb68161407b565b610c85565b826001600160a01b0316826001600160a01b031614610c8557610c858282614154565b60006001613feb84611a8a565b613ff59190614a9c565b600083815260fc6020526040902054909150808214614048576001600160a01b038416600090815260fb60209081526040808320858452825280832054848452818420819055835260fc90915290208190555b50600091825260fc602090815260408084208490556001600160a01b03909416835260fb81528383209183525290812055565b60fd5460009061408d90600190614a9c565b600083815260fe602052604081205460fd80549394509092849081106140c357634e487b7160e01b600052603260045260246000fd5b906000526020600020015490508060fd83815481106140f257634e487b7160e01b600052603260045260246000fd5b600091825260208083209091019290925582815260fe909152604080822084905585825281205560fd80548061413857634e487b7160e01b600052603160045260246000fd5b6001900381819060005260206000200160009055905550505050565b600061415f83611a8a565b6001600160a01b03909316600090815260fb60209081526040808320868452825280832085905593825260fc9052919091209190915550565b8280546141a490614adf565b90600052602060002090601f0160209004810192826141c6576000855561420c565b82601f106141df57805160ff191683800117855561420c565b8280016001018555821561420c579182015b8281111561420c5782518255916020019190600101906141f1565b5061421892915061421c565b5090565b5b80821115614218576000815560010161421d565b600067ffffffffffffffff83111561424b5761424b614b75565b61425e601f8401601f19166020016149fc565b905082815283838301111561427257600080fd5b828260208301376000602084830101529392505050565b600082601f830112614299578081fd5b813560206142ae6142a983614a2d565b6149fc565b82815281810190858301855b858110156143455781358801604080601f19838d030112156142da578889fd5b6142e3816149fc565b8783013567ffffffffffffffff808211156142fc578b8cfd5b61430a8e8b84880101614352565b835292840135928084111561431d578b8cfd5b505061432d8c8984860101614352565b818901528652505092840192908401906001016142ba565b5090979650505050505050565b600082601f830112614362578081fd5b611bf183833560208501614231565b600060208284031215614382578081fd5b8135611bf181614b8b565b6000806040838503121561439f578081fd5b82356143aa81614b8b565b915060208301356143ba81614b8b565b809150509250929050565b6000806000606084860312156143d9578081fd5b83356143e481614b8b565b925060208401356143f481614b8b565b929592945050506040919091013590565b6000806000806080858703121561441a578081fd5b843561442581614b8b565b9350602085013561443581614b8b565b925060408501359150606085013567ffffffffffffffff811115614457578182fd5b8501601f81018713614467578182fd5b61447687823560208401614231565b91505092959194509250565b60008060008060808587031215614497578384fd5b84356144a281614b8b565b935060208581013567ffffffffffffffff808211156144bf578586fd5b818801915088601f8301126144d2578586fd5b81356144e06142a982614a2d565b8082825285820191508585018c878560061b88010111156144ff57898afd5b8995505b8386101561454c57604080828f03121561451b578a8bfd5b614524816149fc565b823561452f81614b8b565b815282890135898201528452600196909601959287019201614503565b50975050506040880135925080831115614564578485fd5b61457089848a01614289565b94506060880135925080831115614585578384fd5b505061447687828801614352565b600080604083850312156145a5578182fd5b82356145b081614b8b565b9150602083013580151581146143ba578182fd5b600080604083850312156145d6578182fd5b82356145e181614b8b565b946020939093013593505050565b600060208284031215614600578081fd5b5035919050565b60008060408385031215614619578182fd5b8235915060208301356143ba81614b8b565b6000806040838503121561463d578182fd5b50508035926020909101359150565b60006020828403121561465d578081fd5b8135611bf181614ba0565b600060208284031215614679578081fd5b8151611bf181614ba0565b600080600060608486031215614698578081fd5b833567ffffffffffffffff808211156146af578283fd5b6146bb87838801614352565b945060208601359150808211156146d0578283fd5b6146dc87838801614352565b935060408601359150808211156146f1578283fd5b506146fe86828701614352565b9150509250925092565b60008060006060848603121561471c578081fd5b83359250602084013561472e81614b8b565b9150604084013561473e81614b8b565b809150509250925092565b60008060006060848603121561475d578081fd5b8335925060208401356143f481614b8b565b6000815180845260208085019450848260051b8601828601855b858110156143455783830389528151604081518186526147ab82870182614813565b915050868201519150848103878601526147c58183614813565b9a87019a9450505090840190600101614789565b6000815180845260208085019450808401835b83811015614808578151875295820195908201906001016147ec565b509495945050505050565b6000815180845261482b816020860160208601614ab3565b601f01601f19169290920160200192915050565b60008251614851818460208701614ab3565b9190910192915050565b6000835161486d818460208801614ab3565b835190830190614881818360208801614ab3565b01949350505050565b60006001600160a01b038087168352808616602084015250836040830152608060608301526148bc6080830184614813565b9695505050505050565b6020808252825182820181905260009190848201906040850190845b818110156149075783516001600160a01b0316835292840192918401916001016148e2565b50909695505050505050565b600060208252611bf1602083018461476f565b600060208252611bf160208301846147d9565b600060208252611bf16020830184614813565b60006040825261495f6040830185614813565b82810360208401526149718185614813565b95945050505050565b60006060820185835260206060818501528186518084526080860191508288019350845b818110156149c35784516001600160a01b03168352938301939183019160010161499e565b505084810360408601526149d781876147d9565b98975050505050505050565b600083825260406020830152612c4d604083018461476f565b604051601f8201601f1916810167ffffffffffffffff81118282101715614a2557614a25614b75565b604052919050565b600067ffffffffffffffff821115614a4757614a47614b75565b5060051b60200190565b60008219821115614a6457614a64614b49565b500190565b600082614a7857614a78614b5f565b500490565b6000816000190483118215151615614a9757614a97614b49565b500290565b600082821015614aae57614aae614b49565b500390565b60005b83811015614ace578181015183820152602001614ab6565b83811115611dac5750506000910152565b600181811c90821680614af357607f821691505b60208210811415614b1457634e487b7160e01b600052602260045260246000fd5b50919050565b6000600019821415614b2e57614b2e614b49565b5060010190565b600082614b4457614b44614b5f565b500690565b634e487b7160e01b600052601160045260246000fd5b634e487b7160e01b600052601260045260246000fd5b634e487b7160e01b600052604160045260246000fd5b6001600160a01b038116811461161357600080fd5b6001600160e01b03198116811461161357600080fdfea2646970667358221220add1f5731fcd7b5722fc7720abdb55df3bd52fbc7a95a40f2358c45446ae24ff64736f6c63430008030033",
  "immutableReferences": {},
  "source": "// SPDX-License-Identifier: MIT\npragma solidity ^0.8.3;\n\nimport \"@openzeppelin/contracts-upgradeable/token/ERC721/presets/ERC721PresetMinterPauserAutoIdUpgradeable.sol\";\nimport \"@openzeppelin/contracts-upgradeable/security/ReentrancyGuardUpgradeable.sol\";\n\n/**\n * @dev ERC721 token with minting, burning, pause, secondary sales royalitiy functions.\n *\n */\ncontract GhostmarketNFT is\n    Initializable,\n    ERC721PresetMinterPauserAutoIdUpgradeable\n{\n    // struct for secondary sales fees\n    struct Fee {\n        address payable recipient;\n        uint256 value;\n    }\n\n    //nft attributes struct\n    struct AttributesStruct {\n        string key;\n        string value;\n    }\n\n    // tokenId => attributes array\n    mapping(uint256 => AttributesStruct[]) public attribute;\n\n    // tokenId => fees array\n    mapping(uint256 => Fee[]) public fees;\n\n    // tokenId => locked content string\n    mapping(uint256 => string) public _lockedContent;\n\n    event SecondarySaleFees(\n        uint256 tokenId,\n        address[] recipients,\n        uint256[] bps\n    );\n\n    event AttributesSet(uint256 tokenId, AttributesStruct[] attributes);\n    event GhostmarketFeeAddressChanged(address newValue);\n    event GhostmarketFeeMultiplierChanged(uint256 newValue);\n    event GhostmarketMintFeeChanged(uint256 newValue);\n    event GhostmarketFeePaid(address sender, uint256 value);\n\n    // fee multiplier\n    uint256 private _ghostmarketFeeMultiplier;\n\n    // minting fee\n    uint256 private _ghostmarketMintingFee;\n\n    //address where the transfer fees will be sent\n    address payable private _ghostmarketFeeAddress;\n\n    //Reentrancy\n    bool locked;\n\n    function initialize(\n        string memory name,\n        string memory symbol,\n        string memory uri\n    ) public override initializer {\n        __ERC721_init_unchained(name, symbol);\n        __ERC721PresetMinterPauserAutoId_init_unchained(name, symbol, uri);\n        locked = false;\n    }\n\n    /**\n     * @dev saves the nft tokens custom attributes to contract storage\n     * emits AttributesSet event\n     */\n    function setAttributes(\n        uint256 _tokenId,\n        AttributesStruct[] memory _attributes\n    ) internal {\n        for (uint256 i = 0; i < _attributes.length; i++) {\n            require(\n                keccak256(abi.encodePacked(_attributes[i].key)) !=\n                    keccak256(abi.encodePacked(\"\")),\n                \"Attribute key should not be empty\"\n            );\n            require(\n                keccak256(abi.encodePacked(_attributes[i].value)) !=\n                    keccak256(abi.encodePacked(\"\")),\n                \"Attribute value should not be empty\"\n            );\n            attribute[_tokenId].push(_attributes[i]);\n            emit AttributesSet(_tokenId, _attributes);\n        }\n    }\n\n    /**\n     * @dev get the nft token attributes with the tokenId\n     */\n    function getAttributes(uint256 _tokenId)\n        public\n        view\n        returns (AttributesStruct[] memory)\n    {\n        return attribute[_tokenId];\n    }\n\n    /**\n     * @dev get the \"secondary sales\"/royalities fee recepients with the tokenId\n     */\n    function getFeeRecipients(uint256 _tokenId)\n        public\n        view\n        returns (address payable[] memory)\n    {\n        Fee[] memory _fees = fees[_tokenId];\n        address payable[] memory result = new address payable[](_fees.length);\n        for (uint256 i = 0; i < _fees.length; i++) {\n            result[i] = _fees[i].recipient;\n        }\n        return result;\n    }\n\n    /**\n     * @dev get the \"secondary sales\"/royalities fee for the NFT id\n     * fee basis points 10000 = 100%\n     */\n    function getFeeBps(uint256 _tokenId)\n        public\n        view\n        returns (uint256[] memory)\n    {\n        Fee[] memory _fees = fees[_tokenId];\n        uint256[] memory result = new uint256[](_fees.length);\n        for (uint256 i = 0; i < _fees.length; i++) {\n            result[i] = _fees[i].value;\n        }\n        return result;\n    }\n\n    /**\n     * @dev save the \"secondary sales\"/royalities fee for the NFT id\n     * fee basis points 10000 = 100%\n     */\n    function saveFees(uint256 _tokenId, Fee[] memory _fees) internal {\n        require(\n            _exists(_tokenId),\n            \"ERC721: approved query for nonexistent token\"\n        );\n        for (uint256 i = 0; i < _fees.length; i++) {\n            require(\n                _fees[i].recipient != address(0x0),\n                \"Recipient should be present\"\n            );\n            require(_fees[i].value > 0, \"Fee value should be positive\");\n            fees[_tokenId].push(_fees[i]);\n        }\n    }\n\n    /**\n     * @dev change the \"secondary sales\"/royalities fee value for a specific recipient address\n     */\n    function updateRecipientsFees(\n        uint256 _tokenId,\n        address _from,\n        uint256 _value\n    ) external {\n        require(\n            hasRole(MINTER_ROLE, _msgSender()),\n            \"updating fee value is not allowed by this account\"\n        );\n        require(_value > 0, \"new Fee value should be positive\");\n        Fee[] memory _fees = fees[_tokenId];\n        for (uint256 i = 0; i < _fees.length; i++) {\n            if (fees[_tokenId][i].recipient == _from) {\n                fees[_tokenId][i].value = _value;\n            }\n        }\n    }\n\n    /**\n     * @dev change the recepient address of the \"secondary sales\"/royalities fee\n     */\n    function updateFeeAccount(\n        uint256 _tokenId,\n        address _from,\n        address _to\n    ) external {\n        require(\n            hasRole(MINTER_ROLE, _msgSender()),\n            \"updating fee recepients is not allowed by this account\"\n        );\n        uint256 length = fees[_tokenId].length;\n        for (uint256 i = 0; i < length; i++) {\n            if (fees[_tokenId][i].recipient == _from) {\n                fees[_tokenId][i].recipient = payable(address(uint160(_to)));\n            }\n        }\n    }\n\n    /**\n     * @dev mint NFT and set fee\n     */\n    function mint(\n        address _to,\n        Fee[] memory _fees,\n        AttributesStruct[] memory _attributes,\n        string memory lockedcontent\n    ) public {\n        mint(_to);\n        uint256 _tokenId = (getCurrentCounter() - 1);\n        address[] memory recipients = new address[](_fees.length);\n        uint256[] memory bps = new uint256[](_fees.length);\n        if (_fees.length > 0) {\n            saveFees(_tokenId, _fees);\n            emit SecondarySaleFees(_tokenId, recipients, bps);\n        }\n        if (_attributes.length > 0) {\n            setAttributes(_tokenId, _attributes);\n        }\n        if (\n            keccak256(abi.encodePacked(lockedcontent)) !=\n            keccak256(abi.encodePacked(\"\"))\n        ) {\n            setLockedContent(_tokenId, lockedcontent);\n        }\n    }\n\n    /**\n     * @dev minting with fee, sending to Ghostmarket address\n     */\n    function mintWithFee(\n        address _to,\n        Fee[] memory _fees,\n        AttributesStruct[] memory _attributes,\n        string memory lockedcontent\n    ) public payable {\n        if (_ghostmarketFeeMultiplier > 0) {\n            require(\n                _ghostmarketFeeAddress != address(0),\n                \"Ghostmarket minting Fee Address not set\"\n            );\n            require(\n                _ghostmarketMintingFee > 0,\n                \"Ghostmarket minting Fee is zero\"\n            );\n            _sendMintingFee();\n        }\n\n        mint(_to, _fees, _attributes, lockedcontent);\n    }\n\n    /**\n     * @dev send minting fee to Ghostmarket\n     */\n    function _sendMintingFee() internal {\n        require(!locked, \"Reentrant detected!\");\n        locked = true;\n        uint256 feevalue = _calculateGhostmarketMintingFee();\n\n        (bool success, ) = _ghostmarketFeeAddress.call{value: feevalue}(\"\");\n        require(success, \"Transfer failed.\");\n        locked = false;\n        emit GhostmarketFeePaid(msg.sender, feevalue);\n    }\n\n    /**\n     * @dev set the wallet address where fees will be collected\n     */\n    function setGhostmarketFeeAddress(address payable gmfa) public {\n        require(\n            hasRole(DEFAULT_ADMIN_ROLE, _msgSender()),\n            \"Caller must have admin role to set minting fee address\"\n        );\n\n        _ghostmarketFeeAddress = gmfa;\n        emit GhostmarketFeeAddressChanged(_ghostmarketFeeAddress);\n    }\n\n    /**\n     * @dev sets the transfer fee multiplier\n     */\n    function setGhostmarketFeeMultiplier(uint256 gmfm) public {\n        require(\n            hasRole(DEFAULT_ADMIN_ROLE, _msgSender()),\n            \"Caller must have admin role to set minting fee percent\"\n        );\n        _ghostmarketFeeMultiplier = gmfm;\n        emit GhostmarketFeeMultiplierChanged(_ghostmarketFeeMultiplier);\n    }\n\n    /**\n     * @dev sets the transfer fee\n     */\n    function setGhostmarketMintFee(uint256 gmmf) public {\n        require(\n            hasRole(DEFAULT_ADMIN_ROLE, _msgSender()),\n            \"Caller must have admin role to set minting fee percent\"\n        );\n        _ghostmarketMintingFee = gmmf;\n        emit GhostmarketMintFeeChanged(_ghostmarketMintingFee);\n    }\n\n    /**\n     * @return the ghostmarketFeeAddress\n     */\n    function ghostmarketFeeAddress() public view returns (address payable) {\n        return _ghostmarketFeeAddress;\n    }\n\n    /**\n     * @return the ghostmarketMintingFee.\n     */\n    function ghostmarketMintingFee() public view returns (uint256) {\n        return _ghostmarketMintingFee;\n    }\n\n    /**\n     * @return the ghostmarketFeeMultiplier.\n     */\n    function ghostmarketFeeMultiplier() public view returns (uint256) {\n        return _ghostmarketFeeMultiplier;\n    }\n\n    /**\n     * @return the the calculated fee for minting.\n     */\n    function _calculateGhostmarketMintingFee() internal view returns (uint256) {\n        return _ghostmarketMintingFee * _ghostmarketFeeMultiplier;\n    }\n\n    function setLockedContent(uint256 _tokenId, string memory content)\n        internal\n    {\n        _lockedContent[_tokenId] = content;\n    }\n\n    function getLockedContent(uint256 _tokenId)\n        public\n        view\n        returns (string memory)\n    {\n        require(\n            ownerOf(_tokenId) == msg.sender,\n            \"Caller must be the owner of the NFT\"\n        );\n        return _lockedContent[_tokenId];\n    }\n}\n",
  "sourcePath": "/Users/selimerunkut/dev_freelance/GhostMarketContractBSC/contracts/GhostmarketNFT.sol",
  "compiler": {
    "name": "solc",
    "version": "0.8.3+commit.8d00100c.Emscripten.clang"
  },
  "schemaVersion": "3.3.4",
  "updatedAt": "2021-05-01T23:08:29.551Z",
  "devdoc": {
    "details": "ERC721 token with minting, burning, pause, secondary sales royalitiy functions.",
    "kind": "dev",
    "methods": {
      "approve(address,uint256)": {
        "details": "See {IERC721-approve}."
      },
      "balanceOf(address)": {
        "details": "See {IERC721-balanceOf}."
      },
      "burn(uint256)": {
        "details": "Burns `tokenId`. See {ERC721-_burn}. Requirements: - The caller must own `tokenId` or be an approved operator."
      },
      "getApproved(uint256)": {
        "details": "See {IERC721-getApproved}."
      },
      "getAttributes(uint256)": {
        "details": "get the nft token attributes with the tokenId"
      },
      "getFeeBps(uint256)": {
        "details": "get the \"secondary sales\"/royalities fee for the NFT id fee basis points 10000 = 100%"
      },
      "getFeeRecipients(uint256)": {
        "details": "get the \"secondary sales\"/royalities fee recepients with the tokenId"
      },
      "getRoleAdmin(bytes32)": {
        "details": "Returns the admin role that controls `role`. See {grantRole} and {revokeRole}. To change a role's admin, use {_setRoleAdmin}."
      },
      "getRoleMember(bytes32,uint256)": {
        "details": "Returns one of the accounts that have `role`. `index` must be a value between 0 and {getRoleMemberCount}, non-inclusive. Role bearers are not sorted in any particular way, and their ordering may change at any point. WARNING: When using {getRoleMember} and {getRoleMemberCount}, make sure you perform all queries on the same block. See the following https://forum.openzeppelin.com/t/iterating-over-elements-on-enumerableset-in-openzeppelin-contracts/2296[forum post] for more information."
      },
      "getRoleMemberCount(bytes32)": {
        "details": "Returns the number of accounts that have `role`. Can be used together with {getRoleMember} to enumerate all bearers of a role."
      },
      "ghostmarketFeeAddress()": {
        "returns": {
          "_0": "the ghostmarketFeeAddress"
        }
      },
      "ghostmarketFeeMultiplier()": {
        "returns": {
          "_0": "the ghostmarketFeeMultiplier."
        }
      },
      "ghostmarketMintingFee()": {
        "returns": {
          "_0": "the ghostmarketMintingFee."
        }
      },
      "grantRole(bytes32,address)": {
        "details": "Overload {grantRole} to track enumerable memberships"
      },
      "hasRole(bytes32,address)": {
        "details": "Returns `true` if `account` has been granted `role`."
      },
      "isApprovedForAll(address,address)": {
        "details": "See {IERC721-isApprovedForAll}."
      },
      "mint(address)": {
        "details": "Creates a new token for `to`. Its token ID will be automatically assigned (and available on the emitted {IERC721-Transfer} event), and the token URI autogenerated based on the base URI passed at construction. See {ERC721-_mint}. Requirements: - the caller must have the `MINTER_ROLE`."
      },
      "mint(address,(address,uint256)[],(string,string)[],string)": {
        "details": "mint NFT and set fee"
      },
      "mintWithFee(address,(address,uint256)[],(string,string)[],string)": {
        "details": "minting with fee, sending to Ghostmarket address"
      },
      "name()": {
        "details": "See {IERC721Metadata-name}."
      },
      "ownerOf(uint256)": {
        "details": "See {IERC721-ownerOf}."
      },
      "pause()": {
        "details": "Pauses all token transfers. See {ERC721Pausable} and {Pausable-_pause}. Requirements: - the caller must have the `PAUSER_ROLE`."
      },
      "paused()": {
        "details": "Returns true if the contract is paused, and false otherwise."
      },
      "renounceRole(bytes32,address)": {
        "details": "Overload {renounceRole} to track enumerable memberships"
      },
      "revokeRole(bytes32,address)": {
        "details": "Overload {revokeRole} to track enumerable memberships"
      },
      "safeTransferFrom(address,address,uint256)": {
        "details": "See {IERC721-safeTransferFrom}."
      },
      "safeTransferFrom(address,address,uint256,bytes)": {
        "details": "See {IERC721-safeTransferFrom}."
      },
      "setApprovalForAll(address,bool)": {
        "details": "See {IERC721-setApprovalForAll}."
      },
      "setGhostmarketFeeAddress(address)": {
        "details": "set the wallet address where fees will be collected"
      },
      "setGhostmarketFeeMultiplier(uint256)": {
        "details": "sets the transfer fee multiplier"
      },
      "setGhostmarketMintFee(uint256)": {
        "details": "sets the transfer fee"
      },
      "supportsInterface(bytes4)": {
        "details": "See {IERC165-supportsInterface}."
      },
      "symbol()": {
        "details": "See {IERC721Metadata-symbol}."
      },
      "tokenByIndex(uint256)": {
        "details": "See {IERC721Enumerable-tokenByIndex}."
      },
      "tokenOfOwnerByIndex(address,uint256)": {
        "details": "See {IERC721Enumerable-tokenOfOwnerByIndex}."
      },
      "tokenURI(uint256)": {
        "details": "See {IERC721Metadata-tokenURI}."
      },
      "totalSupply()": {
        "details": "See {IERC721Enumerable-totalSupply}."
      },
      "transferFrom(address,address,uint256)": {
        "details": "See {IERC721-transferFrom}."
      },
      "unpause()": {
        "details": "Unpauses all token transfers. See {ERC721Pausable} and {Pausable-_unpause}. Requirements: - the caller must have the `PAUSER_ROLE`."
      },
      "updateFeeAccount(uint256,address,address)": {
        "details": "change the recepient address of the \"secondary sales\"/royalities fee"
      },
      "updateRecipientsFees(uint256,address,uint256)": {
        "details": "change the \"secondary sales\"/royalities fee value for a specific recipient address"
      }
    },
    "version": 1
  },
  "userdoc": {
    "kind": "user",
    "methods": {},
    "version": 1
  }
}