{
  "contractName": "GhostMarketERC1155",
  "abi": [
    {
      "anonymous": false,
      "inputs": [
        {
          "indexed": true,
          "internalType": "address",
          "name": "account",
          "type": "address"
        },
        {
          "indexed": true,
          "internalType": "address",
          "name": "operator",
          "type": "address"
        },
        {
          "indexed": false,
          "internalType": "bool",
          "name": "approved",
          "type": "bool"
        }
      ],
      "name": "ApprovalForAll",
      "type": "event"
    },
    {
      "anonymous": false,
      "inputs": [
        {
          "indexed": false,
          "internalType": "uint256",
          "name": "tokenId",
          "type": "uint256"
        },
        {
          "indexed": false,
          "internalType": "string",
          "name": "metadataJson",
          "type": "string"
        }
      ],
      "name": "AttributesSet",
      "type": "event"
    },
    {
      "anonymous": false,
      "inputs": [
        {
          "indexed": false,
          "internalType": "address",
          "name": "msgSender",
          "type": "address"
        },
        {
          "indexed": false,
          "internalType": "uint256",
          "name": "tokenId",
          "type": "uint256"
        },
        {
          "indexed": false,
          "internalType": "string",
          "name": "lockedContent",
          "type": "string"
        }
      ],
      "name": "LockedContentViewed",
      "type": "event"
    },
    {
      "anonymous": false,
      "inputs": [
        {
          "indexed": false,
          "internalType": "uint256",
          "name": "newValue",
          "type": "uint256"
        }
      ],
      "name": "MintFeesChanged",
      "type": "event"
    },
    {
      "anonymous": false,
      "inputs": [
        {
          "indexed": false,
          "internalType": "address",
          "name": "feeWithdrawer",
          "type": "address"
        },
        {
          "indexed": false,
          "internalType": "uint256",
          "name": "withdrawAmount",
          "type": "uint256"
        }
      ],
      "name": "MintFeesWithdrawn",
      "type": "event"
    },
    {
      "anonymous": false,
      "inputs": [
        {
          "indexed": false,
          "internalType": "address",
          "name": "toAddress",
          "type": "address"
        },
        {
          "indexed": false,
          "internalType": "uint256",
          "name": "tokenId",
          "type": "uint256"
        },
        {
          "indexed": false,
          "internalType": "string",
          "name": "tokenURI",
          "type": "string"
        },
        {
          "indexed": false,
          "internalType": "string",
          "name": "externalURI",
          "type": "string"
        },
        {
          "indexed": false,
          "internalType": "uint256",
          "name": "amount",
          "type": "uint256"
        },
        {
          "indexed": false,
          "internalType": "uint256",
          "name": "mintFees",
          "type": "uint256"
        }
      ],
      "name": "Minted",
      "type": "event"
    },
    {
      "anonymous": false,
      "inputs": [
        {
          "indexed": true,
          "internalType": "address",
          "name": "previousOwner",
          "type": "address"
        },
        {
          "indexed": true,
          "internalType": "address",
          "name": "newOwner",
          "type": "address"
        }
      ],
      "name": "OwnershipTransferred",
      "type": "event"
    },
    {
      "anonymous": false,
      "inputs": [
        {
          "indexed": false,
          "internalType": "address",
          "name": "account",
          "type": "address"
        }
      ],
      "name": "Paused",
      "type": "event"
    },
    {
      "anonymous": false,
      "inputs": [
        {
          "indexed": true,
          "internalType": "bytes32",
          "name": "role",
          "type": "bytes32"
        },
        {
          "indexed": true,
          "internalType": "bytes32",
          "name": "previousAdminRole",
          "type": "bytes32"
        },
        {
          "indexed": true,
          "internalType": "bytes32",
          "name": "newAdminRole",
          "type": "bytes32"
        }
      ],
      "name": "RoleAdminChanged",
      "type": "event"
    },
    {
      "anonymous": false,
      "inputs": [
        {
          "indexed": true,
          "internalType": "bytes32",
          "name": "role",
          "type": "bytes32"
        },
        {
          "indexed": true,
          "internalType": "address",
          "name": "account",
          "type": "address"
        },
        {
          "indexed": true,
          "internalType": "address",
          "name": "sender",
          "type": "address"
        }
      ],
      "name": "RoleGranted",
      "type": "event"
    },
    {
      "anonymous": false,
      "inputs": [
        {
          "indexed": true,
          "internalType": "bytes32",
          "name": "role",
          "type": "bytes32"
        },
        {
          "indexed": true,
          "internalType": "address",
          "name": "account",
          "type": "address"
        },
        {
          "indexed": true,
          "internalType": "address",
          "name": "sender",
          "type": "address"
        }
      ],
      "name": "RoleRevoked",
      "type": "event"
    },
    {
      "anonymous": false,
      "inputs": [
        {
          "indexed": false,
          "internalType": "uint256",
          "name": "tokenId",
          "type": "uint256"
        },
        {
          "indexed": false,
          "internalType": "address[]",
          "name": "recipients",
          "type": "address[]"
        },
        {
          "indexed": false,
          "internalType": "uint256[]",
          "name": "bps",
          "type": "uint256[]"
        }
      ],
      "name": "RoyaltiesFeesSet",
      "type": "event"
    },
    {
      "anonymous": false,
      "inputs": [
        {
          "indexed": true,
          "internalType": "address",
          "name": "operator",
          "type": "address"
        },
        {
          "indexed": true,
          "internalType": "address",
          "name": "from",
          "type": "address"
        },
        {
          "indexed": true,
          "internalType": "address",
          "name": "to",
          "type": "address"
        },
        {
          "indexed": false,
          "internalType": "uint256[]",
          "name": "ids",
          "type": "uint256[]"
        },
        {
          "indexed": false,
          "internalType": "uint256[]",
          "name": "values",
          "type": "uint256[]"
        }
      ],
      "name": "TransferBatch",
      "type": "event"
    },
    {
      "anonymous": false,
      "inputs": [
        {
          "indexed": true,
          "internalType": "address",
          "name": "operator",
          "type": "address"
        },
        {
          "indexed": true,
          "internalType": "address",
          "name": "from",
          "type": "address"
        },
        {
          "indexed": true,
          "internalType": "address",
          "name": "to",
          "type": "address"
        },
        {
          "indexed": false,
          "internalType": "uint256",
          "name": "id",
          "type": "uint256"
        },
        {
          "indexed": false,
          "internalType": "uint256",
          "name": "value",
          "type": "uint256"
        }
      ],
      "name": "TransferSingle",
      "type": "event"
    },
    {
      "anonymous": false,
      "inputs": [
        {
          "indexed": false,
          "internalType": "string",
          "name": "value",
          "type": "string"
        },
        {
          "indexed": true,
          "internalType": "uint256",
          "name": "id",
          "type": "uint256"
        }
      ],
      "name": "URI",
      "type": "event"
    },
    {
      "anonymous": false,
      "inputs": [
        {
          "indexed": false,
          "internalType": "address",
          "name": "account",
          "type": "address"
        }
      ],
      "name": "Unpaused",
      "type": "event"
    },
    {
      "inputs": [],
      "name": "DEFAULT_ADMIN_ROLE",
      "outputs": [
        {
          "internalType": "bytes32",
          "name": "",
          "type": "bytes32"
        }
      ],
      "stateMutability": "view",
      "type": "function",
      "constant": true
    },
    {
      "inputs": [],
      "name": "MINTER_ROLE",
      "outputs": [
        {
          "internalType": "bytes32",
          "name": "",
          "type": "bytes32"
        }
      ],
      "stateMutability": "view",
      "type": "function",
      "constant": true
    },
    {
      "inputs": [],
      "name": "PAUSER_ROLE",
      "outputs": [
        {
          "internalType": "bytes32",
          "name": "",
          "type": "bytes32"
        }
      ],
      "stateMutability": "view",
      "type": "function",
      "constant": true
    },
    {
      "inputs": [
        {
          "internalType": "address",
          "name": "account",
          "type": "address"
        },
        {
          "internalType": "uint256",
          "name": "id",
          "type": "uint256"
        }
      ],
      "name": "balanceOf",
      "outputs": [
        {
          "internalType": "uint256",
          "name": "",
          "type": "uint256"
        }
      ],
      "stateMutability": "view",
      "type": "function",
      "constant": true
    },
    {
      "inputs": [
        {
          "internalType": "address[]",
          "name": "accounts",
          "type": "address[]"
        },
        {
          "internalType": "uint256[]",
          "name": "ids",
          "type": "uint256[]"
        }
      ],
      "name": "balanceOfBatch",
      "outputs": [
        {
          "internalType": "uint256[]",
          "name": "",
          "type": "uint256[]"
        }
      ],
      "stateMutability": "view",
      "type": "function",
      "constant": true
    },
    {
      "inputs": [
        {
          "internalType": "address",
          "name": "account",
          "type": "address"
        },
        {
          "internalType": "uint256",
          "name": "id",
          "type": "uint256"
        },
        {
          "internalType": "uint256",
          "name": "value",
          "type": "uint256"
        }
      ],
      "name": "burn",
      "outputs": [],
      "stateMutability": "nonpayable",
      "type": "function"
    },
    {
      "inputs": [
        {
          "internalType": "address",
          "name": "account",
          "type": "address"
        },
        {
          "internalType": "uint256[]",
          "name": "ids",
          "type": "uint256[]"
        },
        {
          "internalType": "uint256[]",
          "name": "values",
          "type": "uint256[]"
        }
      ],
      "name": "burnBatch",
      "outputs": [],
      "stateMutability": "nonpayable",
      "type": "function"
    },
    {
      "inputs": [
        {
          "internalType": "bytes32",
          "name": "role",
          "type": "bytes32"
        }
      ],
      "name": "getRoleAdmin",
      "outputs": [
        {
          "internalType": "bytes32",
          "name": "",
          "type": "bytes32"
        }
      ],
      "stateMutability": "view",
      "type": "function",
      "constant": true
    },
    {
      "inputs": [
        {
          "internalType": "bytes32",
          "name": "role",
          "type": "bytes32"
        },
        {
          "internalType": "uint256",
          "name": "index",
          "type": "uint256"
        }
      ],
      "name": "getRoleMember",
      "outputs": [
        {
          "internalType": "address",
          "name": "",
          "type": "address"
        }
      ],
      "stateMutability": "view",
      "type": "function",
      "constant": true
    },
    {
      "inputs": [
        {
          "internalType": "bytes32",
          "name": "role",
          "type": "bytes32"
        }
      ],
      "name": "getRoleMemberCount",
      "outputs": [
        {
          "internalType": "uint256",
          "name": "",
          "type": "uint256"
        }
      ],
      "stateMutability": "view",
      "type": "function",
      "constant": true
    },
    {
      "inputs": [
        {
          "internalType": "bytes32",
          "name": "role",
          "type": "bytes32"
        },
        {
          "internalType": "address",
          "name": "account",
          "type": "address"
        }
      ],
      "name": "grantRole",
      "outputs": [],
      "stateMutability": "nonpayable",
      "type": "function"
    },
    {
      "inputs": [
        {
          "internalType": "bytes32",
          "name": "role",
          "type": "bytes32"
        },
        {
          "internalType": "address",
          "name": "account",
          "type": "address"
        }
      ],
      "name": "hasRole",
      "outputs": [
        {
          "internalType": "bool",
          "name": "",
          "type": "bool"
        }
      ],
      "stateMutability": "view",
      "type": "function",
      "constant": true
    },
    {
      "inputs": [
        {
          "internalType": "address",
          "name": "account",
          "type": "address"
        },
        {
          "internalType": "address",
          "name": "operator",
          "type": "address"
        }
      ],
      "name": "isApprovedForAll",
      "outputs": [
        {
          "internalType": "bool",
          "name": "",
          "type": "bool"
        }
      ],
      "stateMutability": "view",
      "type": "function",
      "constant": true
    },
    {
      "inputs": [],
      "name": "name",
      "outputs": [
        {
          "internalType": "string",
          "name": "",
          "type": "string"
        }
      ],
      "stateMutability": "view",
      "type": "function",
      "constant": true
    },
    {
      "inputs": [],
      "name": "owner",
      "outputs": [
        {
          "internalType": "address",
          "name": "",
          "type": "address"
        }
      ],
      "stateMutability": "view",
      "type": "function",
      "constant": true
    },
    {
      "inputs": [],
      "name": "pause",
      "outputs": [],
      "stateMutability": "nonpayable",
      "type": "function"
    },
    {
      "inputs": [],
      "name": "paused",
      "outputs": [
        {
          "internalType": "bool",
          "name": "",
          "type": "bool"
        }
      ],
      "stateMutability": "view",
      "type": "function",
      "constant": true
    },
    {
      "inputs": [],
      "name": "renounceOwnership",
      "outputs": [],
      "stateMutability": "nonpayable",
      "type": "function"
    },
    {
      "inputs": [
        {
          "internalType": "bytes32",
          "name": "role",
          "type": "bytes32"
        },
        {
          "internalType": "address",
          "name": "account",
          "type": "address"
        }
      ],
      "name": "renounceRole",
      "outputs": [],
      "stateMutability": "nonpayable",
      "type": "function"
    },
    {
      "inputs": [
        {
          "internalType": "bytes32",
          "name": "role",
          "type": "bytes32"
        },
        {
          "internalType": "address",
          "name": "account",
          "type": "address"
        }
      ],
      "name": "revokeRole",
      "outputs": [],
      "stateMutability": "nonpayable",
      "type": "function"
    },
    {
      "inputs": [
        {
          "internalType": "address",
          "name": "from",
          "type": "address"
        },
        {
          "internalType": "address",
          "name": "to",
          "type": "address"
        },
        {
          "internalType": "uint256[]",
          "name": "ids",
          "type": "uint256[]"
        },
        {
          "internalType": "uint256[]",
          "name": "amounts",
          "type": "uint256[]"
        },
        {
          "internalType": "bytes",
          "name": "data",
          "type": "bytes"
        }
      ],
      "name": "safeBatchTransferFrom",
      "outputs": [],
      "stateMutability": "nonpayable",
      "type": "function"
    },
    {
      "inputs": [
        {
          "internalType": "address",
          "name": "from",
          "type": "address"
        },
        {
          "internalType": "address",
          "name": "to",
          "type": "address"
        },
        {
          "internalType": "uint256",
          "name": "id",
          "type": "uint256"
        },
        {
          "internalType": "uint256",
          "name": "amount",
          "type": "uint256"
        },
        {
          "internalType": "bytes",
          "name": "data",
          "type": "bytes"
        }
      ],
      "name": "safeTransferFrom",
      "outputs": [],
      "stateMutability": "nonpayable",
      "type": "function"
    },
    {
      "inputs": [
        {
          "internalType": "address",
          "name": "operator",
          "type": "address"
        },
        {
          "internalType": "bool",
          "name": "approved",
          "type": "bool"
        }
      ],
      "name": "setApprovalForAll",
      "outputs": [],
      "stateMutability": "nonpayable",
      "type": "function"
    },
    {
      "inputs": [
        {
          "internalType": "string",
          "name": "uri_",
          "type": "string"
        }
      ],
      "name": "setURI",
      "outputs": [],
      "stateMutability": "nonpayable",
      "type": "function"
    },
    {
      "inputs": [
        {
          "internalType": "bytes4",
          "name": "interfaceId",
          "type": "bytes4"
        }
      ],
      "name": "supportsInterface",
      "outputs": [
        {
          "internalType": "bool",
          "name": "",
          "type": "bool"
        }
      ],
      "stateMutability": "view",
      "type": "function",
      "constant": true
    },
    {
      "inputs": [],
      "name": "symbol",
      "outputs": [
        {
          "internalType": "string",
          "name": "",
          "type": "string"
        }
      ],
      "stateMutability": "view",
      "type": "function",
      "constant": true
    },
    {
      "inputs": [
        {
          "internalType": "address",
          "name": "newOwner",
          "type": "address"
        }
      ],
      "name": "transferOwnership",
      "outputs": [],
      "stateMutability": "nonpayable",
      "type": "function"
    },
    {
      "inputs": [],
      "name": "unpause",
      "outputs": [],
      "stateMutability": "nonpayable",
      "type": "function"
    },
    {
      "inputs": [
        {
          "internalType": "uint256",
          "name": "",
          "type": "uint256"
        }
      ],
      "name": "uri",
      "outputs": [
        {
          "internalType": "string",
          "name": "",
          "type": "string"
        }
      ],
      "stateMutability": "view",
      "type": "function",
      "constant": true
    },
    {
      "inputs": [
        {
          "internalType": "string",
          "name": "_name",
          "type": "string"
        },
        {
          "internalType": "string",
          "name": "_symbol",
          "type": "string"
        },
        {
          "internalType": "string",
          "name": "uri",
          "type": "string"
        }
      ],
      "name": "initialize",
      "outputs": [],
      "stateMutability": "nonpayable",
      "type": "function"
    },
    {
      "inputs": [
        {
          "internalType": "address",
          "name": "to",
          "type": "address"
        },
        {
          "internalType": "uint256",
          "name": "amount",
          "type": "uint256"
        },
        {
          "internalType": "bytes",
          "name": "data",
          "type": "bytes"
        },
        {
          "components": [
            {
              "internalType": "address payable",
              "name": "recipient",
              "type": "address"
            },
            {
              "internalType": "uint256",
              "name": "value",
              "type": "uint256"
            }
          ],
          "internalType": "struct GhostMarketERC1155.Royalty[]",
          "name": "royalties",
          "type": "tuple[]"
        },
        {
          "internalType": "string",
          "name": "externalURI",
          "type": "string"
        },
        {
          "internalType": "string",
          "name": "metadata",
          "type": "string"
        },
        {
          "internalType": "string",
          "name": "lockedcontent",
          "type": "string"
        }
      ],
      "name": "mintGhost",
      "outputs": [],
      "stateMutability": "payable",
      "type": "function",
      "payable": true
    },
    {
      "inputs": [
        {
          "internalType": "uint256",
          "name": "withdrawAmount",
          "type": "uint256"
        }
      ],
      "name": "withdraw",
      "outputs": [],
      "stateMutability": "nonpayable",
      "type": "function"
    },
    {
      "inputs": [
        {
          "internalType": "uint256",
          "name": "gmmf",
          "type": "uint256"
        }
      ],
      "name": "setGhostmarketMintFee",
      "outputs": [],
      "stateMutability": "nonpayable",
      "type": "function"
    },
    {
      "inputs": [],
      "name": "getGhostmarketMintFees",
      "outputs": [
        {
          "internalType": "uint256",
          "name": "",
          "type": "uint256"
        }
      ],
      "stateMutability": "view",
      "type": "function",
      "constant": true
    },
    {
      "inputs": [
        {
          "internalType": "uint256",
          "name": "tokenId",
          "type": "uint256"
        }
      ],
      "name": "getLockedContent",
      "outputs": [],
      "stateMutability": "nonpayable",
      "type": "function"
    },
    {
      "inputs": [
        {
          "internalType": "uint256",
          "name": "tokenId",
          "type": "uint256"
        }
      ],
      "name": "getCurrentLockedContentViewTracker",
      "outputs": [
        {
          "internalType": "uint256",
          "name": "",
          "type": "uint256"
        }
      ],
      "stateMutability": "view",
      "type": "function",
      "constant": true
    },
    {
      "inputs": [
        {
          "internalType": "uint256",
          "name": "tokenId",
          "type": "uint256"
        }
      ],
      "name": "getMetadataJson",
      "outputs": [
        {
          "internalType": "string",
          "name": "",
          "type": "string"
        }
      ],
      "stateMutability": "view",
      "type": "function",
      "constant": true
    },
    {
      "inputs": [
        {
          "internalType": "uint256",
          "name": "tokenId",
          "type": "uint256"
        }
      ],
      "name": "getRoyaltiesRecipients",
      "outputs": [
        {
          "internalType": "address payable[]",
          "name": "",
          "type": "address[]"
        }
      ],
      "stateMutability": "view",
      "type": "function",
      "constant": true
    },
    {
      "inputs": [
        {
          "internalType": "uint256",
          "name": "tokenId",
          "type": "uint256"
        }
      ],
      "name": "getRoyaltiesBps",
      "outputs": [
        {
          "internalType": "uint256[]",
          "name": "",
          "type": "uint256[]"
        }
      ],
      "stateMutability": "view",
      "type": "function",
      "constant": true
    },
    {
      "inputs": [],
      "name": "getCurrentCounter",
      "outputs": [
        {
          "internalType": "uint256",
          "name": "",
          "type": "uint256"
        }
      ],
      "stateMutability": "view",
      "type": "function",
      "constant": true
    }
  ],
  "bytecode": "0x608060405234801561001057600080fd5b50614a7d806100206000396000f3fe6080604052600436106102ba5760003560e01c80639010d07c1161016e578063d547741f116100cb578063edcbc0bd1161007f578063f2fde38b11610064578063f2fde38b146107e8578063f5298aca14610808578063f7d027de1461082857600080fd5b8063edcbc0bd1461079b578063f242432a146107c857600080fd5b8063e24dbeae116100b0578063e24dbeae14610708578063e63ab1e91461071e578063e985e9c51461075257600080fd5b8063d547741f146106c8578063dac0f3d9146106e857600080fd5b8063a6487c5311610122578063c6f4f0f011610107578063c6f4f0f014610646578063ca15c87314610674578063d53913931461069457600080fd5b8063a6487c5314610606578063c1793c581461062657600080fd5b806395d89b411161015357806395d89b41146105bc578063a217fddf146105d1578063a22cb465146105e657600080fd5b80639010d07c1461055657806391d148541461057657600080fd5b806336568abe1161021c578063715018a6116101d057806383fa237b116101b557806383fa237b146104fb5780638456cb591461050e5780638da5cb5b1461052357600080fd5b8063715018a6146104d157806373448c46146104e657600080fd5b80634e1273f4116102015780634e1273f41461046b5780635c975abb146104985780636b20c454146104b157600080fd5b806336568abe146104365780633f4ba83a1461045657600080fd5b80631c7e78f3116102735780632e1a7d4d116102585780632e1a7d4d146103d65780632eb2c2d6146103f65780632f2ff15d1461041657600080fd5b80631c7e78f314610386578063248a9ca3146103a657600080fd5b806302fe5305116102a457806302fe53051461032257806306fdde03146103445780630e89341c1461036657600080fd5b8062fdd58e146102bf57806301ffc9a7146102f2575b600080fd5b3480156102cb57600080fd5b506102df6102da3660046140ca565b610848565b6040519081526020015b60405180910390f35b3480156102fe57600080fd5b5061031261030d366004614339565b6108f6565b60405190151581526020016102e9565b34801561032e57600080fd5b5061034261033d366004614371565b610901565b005b34801561035057600080fd5b5061035961098a565b6040516102e99190614767565b34801561037257600080fd5b506103596103813660046142dc565b610a19565b34801561039257600080fd5b506103426103a13660046142dc565b610aad565b3480156103b257600080fd5b506102df6103c13660046142dc565b60009081526065602052604090206001015490565b3480156103e257600080fd5b506103426103f13660046142dc565b610b7e565b34801561040257600080fd5b50610342610411366004613f15565b610d72565b34801561042257600080fd5b506103426104313660046142f4565b6110e9565b34801561044257600080fd5b506103426104513660046142f4565b611110565b34801561046257600080fd5b50610342611132565b34801561047757600080fd5b5061048b61048636600461420f565b6111d8565b6040516102e99190614726565b3480156104a457600080fd5b5061012d5460ff16610312565b3480156104bd57600080fd5b506103426104cc366004614026565b61134e565b3480156104dd57600080fd5b506103426113d3565b3480156104f257600080fd5b506102df611487565b6103426105093660046140f5565b611498565b34801561051a57600080fd5b506103426116bd565b34801561052f57600080fd5b506101f5546001600160a01b03165b6040516001600160a01b0390911681526020016102e9565b34801561056257600080fd5b5061053e610571366004614318565b611761565b34801561058257600080fd5b506103126105913660046142f4565b60009182526065602090815260408084206001600160a01b0393909316845291905290205460ff1690565b3480156105c857600080fd5b50610359611780565b3480156105dd57600080fd5b506102df600081565b3480156105f257600080fd5b50610342610601366004614099565b61178e565b34801561061257600080fd5b506103426106213660046143ac565b611879565b34801561063257600080fd5b5061048b6106413660046142dc565b6119aa565b34801561065257600080fd5b506102df6106613660046142dc565b600090815261022b602052604090205490565b34801561068057600080fd5b506102df61068f3660046142dc565b611aef565b3480156106a057600080fd5b506102df7f9f2df0fed2c77648de5860a4cc508cd0818c85b8b8a1ab4ceeef8d981c8956a681565b3480156106d457600080fd5b506103426106e33660046142f4565b611b06565b3480156106f457600080fd5b506103426107033660046142dc565b611b10565b34801561071457600080fd5b5061022e546102df565b34801561072a57600080fd5b506102df7f65d7a28e3265b37a6474929f336521b332c1681b933f6cb9f3376673440d862a81565b34801561075e57600080fd5b5061031261076d366004613edd565b6001600160a01b03918216600090815260ca6020908152604080832093909416825291909152205460ff1690565b3480156107a757600080fd5b506107bb6107b63660046142dc565b611bc3565b6040516102e991906146d9565b3480156107d457600080fd5b506103426107e3366004613fbf565b611d15565b3480156107f457600080fd5b50610342610803366004613ec1565b611f5c565b34801561081457600080fd5b506103426108233660046141db565b61209e565b34801561083457600080fd5b506103596108433660046142dc565b612123565b60006001600160a01b0383166108cb5760405162461bcd60e51b815260206004820152602b60248201527f455243313135353a2062616c616e636520717565727920666f7220746865207a60448201527f65726f206164647265737300000000000000000000000000000000000000000060648201526084015b60405180910390fd5b50600081815260c9602090815260408083206001600160a01b03861684529091529020545b92915050565b60006108f082612141565b61090c600033610591565b61097e5760405162461bcd60e51b815260206004820152603e60248201527f455243313135355072657365744d696e7465725061757365723a206d7573742060448201527f686176652061646d696e20726f6c6520746f20736574206e657720757269000060648201526084016108c2565b610987816121b3565b50565b6102278054610998906148a5565b80601f01602080910402602001604051908101604052809291908181526020018280546109c4906148a5565b8015610a115780601f106109e657610100808354040283529160200191610a11565b820191906000526020600020905b8154815290600101906020018083116109f457829003601f168201915b505050505081565b606060cb8054610a28906148a5565b80601f0160208091040260200160405190810160405280929190818152602001828054610a54906148a5565b8015610aa15780601f10610a7657610100808354040283529160200191610aa1565b820191906000526020600020905b815481529060010190602001808311610a8457829003601f168201915b50505050509050919050565b610ab6816121ca565b610b285760405162461bcd60e51b815260206004820152602360248201527f43616c6c6572206d75737420626520746865206f776e6572206f66207468652060448201527f4e4654000000000000000000000000000000000000000000000000000000000060648201526084016108c2565b610b31816121de565b600081815261022a60205260409081902090517f544b1d1249133c50ce89743ed1ca34a815bd50d42b71e6d331a1ac560013a8ec91610b73913391859161461a565b60405180910390a150565b6101f5546001600160a01b03163314610bd95760405162461bcd60e51b815260206004820181905260248201527f4f776e61626c653a2063616c6c6572206973206e6f7420746865206f776e657260448201526064016108c2565b600081118015610bec575061022d548111155b610c845760405162461bcd60e51b815260206004820152604760248201527f576974686472617720616d6f756e742073686f756c642062652067726561746560448201527f72207468656e203020616e64206c657373207468656e20636f6e74726163742060648201527f62616c616e636500000000000000000000000000000000000000000000000000608482015260a4016108c2565b8061022d6000828254610c97919061484b565b9091555050604051600090339083908381818185875af1925050503d8060008114610cde576040519150601f19603f3d011682016040523d82523d6000602084013e610ce3565b606091505b5050905080610d345760405162461bcd60e51b815260206004820152601060248201527f5472616e73666572206661696c65642e0000000000000000000000000000000060448201526064016108c2565b60408051338152602081018490527f3c897fa64265e543b9d36df079688f87240185d1bf1a937e4c45a56e1167873691015b60405180910390a15050565b8151835114610dd45760405162461bcd60e51b815260206004820152602860248201527f455243313135353a2069647320616e6420616d6f756e7473206c656e677468206044820152670dad2e6dac2e8c6d60c31b60648201526084016108c2565b6001600160a01b038416610e385760405162461bcd60e51b815260206004820152602560248201527f455243313135353a207472616e7366657220746f20746865207a65726f206164604482015264647265737360d81b60648201526084016108c2565b6001600160a01b038516331480610e545750610e54853361076d565b610ec65760405162461bcd60e51b815260206004820152603260248201527f455243313135353a207472616e736665722063616c6c6572206973206e6f742060448201527f6f776e6572206e6f7220617070726f766564000000000000000000000000000060648201526084016108c2565b33610ed581878787878761220c565b60005b845181101561107b576000858281518110610f0357634e487b7160e01b600052603260045260246000fd5b602002602001015190506000858381518110610f2f57634e487b7160e01b600052603260045260246000fd5b602090810291909101810151600084815260c9835260408082206001600160a01b038e168352909352919091205490915081811015610fd65760405162461bcd60e51b815260206004820152602a60248201527f455243313135353a20696e73756666696369656e742062616c616e636520666f60448201527f72207472616e736665720000000000000000000000000000000000000000000060648201526084016108c2565b610fe0828261484b565b60c9600085815260200190815260200160002060008c6001600160a01b03166001600160a01b03168152602001908152602001600020819055508160c9600085815260200190815260200160002060008b6001600160a01b03166001600160a01b0316815260200190815260200160002060008282546110609190614814565b925050819055505050508061107490614933565b9050610ed8565b50846001600160a01b0316866001600160a01b0316826001600160a01b03167f4a39dc06d4c0dbc64b70af90fd698a233a518aa5d07e595d983b8c0526c8f7fb87876040516110cb929190614739565b60405180910390a46110e181878787878761221a565b505050505050565b6110f382826123cf565b600082815260976020526040902061110b90826123f5565b505050565b61111a828261240a565b600082815260976020526040902061110b9082612492565b61115c7f65d7a28e3265b37a6474929f336521b332c1681b933f6cb9f3376673440d862a33610591565b6111ce5760405162461bcd60e51b815260206004820152603b60248201527f455243313135355072657365744d696e7465725061757365723a206d7573742060448201527f686176652070617573657220726f6c6520746f20756e7061757365000000000060648201526084016108c2565b6111d66124a7565b565b606081518351146112515760405162461bcd60e51b815260206004820152602960248201527f455243313135353a206163636f756e747320616e6420696473206c656e67746860448201527f206d69736d61746368000000000000000000000000000000000000000000000060648201526084016108c2565b6000835167ffffffffffffffff81111561127b57634e487b7160e01b600052604160045260246000fd5b6040519080825280602002602001820160405280156112a4578160200160208202803683370190505b50905060005b84518110156113465761130b8582815181106112d657634e487b7160e01b600052603260045260246000fd5b60200260200101518583815181106112fe57634e487b7160e01b600052603260045260246000fd5b6020026020010151610848565b82828151811061132b57634e487b7160e01b600052603260045260246000fd5b602090810291909101015261133f81614933565b90506112aa565b509392505050565b6001600160a01b03831633148061136a575061136a833361076d565b6113c85760405162461bcd60e51b815260206004820152602960248201527f455243313135353a2063616c6c6572206973206e6f74206f776e6572206e6f7260448201526808185c1c1c9bdd995960ba1b60648201526084016108c2565b61110b838383612545565b6101f5546001600160a01b0316331461142e5760405162461bcd60e51b815260206004820181905260248201527f4f776e61626c653a2063616c6c6572206973206e6f7420746865206f776e657260448201526064016108c2565b6101f5546040516000916001600160a01b0316907f8be0079c531659141344cd1fd0a4f28419497f9722a3daafe3b4186f6b6457e0908390a36101f5805473ffffffffffffffffffffffffffffffffffffffff19169055565b600061149361022f5490565b905090565b60026101c35414156114ec5760405162461bcd60e51b815260206004820152601f60248201527f5265656e7472616e637947756172643a207265656e7472616e742063616c6c0060448201526064016108c2565b60026101c3556115078761150061022f5490565b88886127b8565b8351156115215761152161151b61022f5490565b856127c4565b60408051600081526020810180835281519020916115419185910161448c565b604051602081830303815290604052805190602001201461156f5761156f61156961022f5490565b83612b24565b604080516000815260208101808352815190209161158f9184910161448c565b60405160208183030381529060405280519060200120146115bd576115bd6115b761022f5490565b82612b76565b6115c5612b96565b60408051600081526020810180835281519020916115e59186910161448c565b6040516020818303038152906040528051906020012014156116495760405162461bcd60e51b815260206004820152601a60248201527f65787465726e616c5552492063616e277420626520656d70747900000000000060448201526064016108c2565b7f23fdfad9614f0798bbc446f42ebe064745248d7dcf4d59f54887c4174eb19ed08761167561022f5490565b61168261038161022f5490565b868a34604051611697969594939291906145ca565b60405180910390a16116ae61022f80546001019055565b505060016101c3555050505050565b6116e77f65d7a28e3265b37a6474929f336521b332c1681b933f6cb9f3376673440d862a33610591565b6117595760405162461bcd60e51b815260206004820152603960248201527f455243313135355072657365744d696e7465725061757365723a206d7573742060448201527f686176652070617573657220726f6c6520746f2070617573650000000000000060648201526084016108c2565b6111d6612c37565b60008281526097602052604081206117799083612cc1565b9392505050565b6102288054610998906148a5565b336001600160a01b038316141561180d5760405162461bcd60e51b815260206004820152602960248201527f455243313135353a2073657474696e6720617070726f76616c2073746174757360448201527f20666f722073656c66000000000000000000000000000000000000000000000060648201526084016108c2565b33600081815260ca602090815260408083206001600160a01b03871680855290835292819020805460ff191686151590811790915590519081529192917f17307eab39ab6107e8899845ad3d59bd9653f200f220920489ca2b5937696c31910160405180910390a35050565b600054610100900460ff1680611892575060005460ff16155b6118f55760405162461bcd60e51b815260206004820152602e60248201527f496e697469616c697a61626c653a20636f6e747261637420697320616c72656160448201526d191e481a5b9a5d1a585b1a5e995960921b60648201526084016108c2565b600054610100900460ff16158015611917576000805461ffff19166101011790555b61191f612ccd565b611927612ccd565b61192f612ccd565b611937612ccd565b61194082612d7f565b611948612ccd565b611950612e3b565b611958612ccd565b611960612ef8565b611968612ff5565b835161197c90610227906020870190613c93565b50825161199190610228906020860190613c93565b5080156119a4576000805461ff00191690555b50505050565b600081815261022960209081526040808320805482518185028101850190935280835260609493849084015b82821015611a1e576000848152602090819020604080518082019091526002850290910180546001600160a01b031682526001908101548284015290835290920191016119d6565b5050505090506000815167ffffffffffffffff811115611a4e57634e487b7160e01b600052604160045260246000fd5b604051908082528060200260200182016040528015611a77578160200160208202803683370190505b50905060005b825181101561134657828181518110611aa657634e487b7160e01b600052603260045260246000fd5b602002602001015160200151828281518110611ad257634e487b7160e01b600052603260045260246000fd5b602090810291909101015280611ae781614933565b915050611a7d565b60008181526097602052604081206108f0906130f8565b61111a8282613102565b611b1b600033610591565b611b8d5760405162461bcd60e51b815260206004820152602c60248201527f43616c6c6572206d75737420686176652061646d696e20726f6c6520746f207360448201527f6574206d696e742066656573000000000000000000000000000000000000000060648201526084016108c2565b61022e8190556040518181527f0f3b48a5cb203023dd681facda0506fea024143e07ad14ff26c35d22204c310890602001610b73565b600081815261022960209081526040808320805482518185028101850190935280835260609493849084015b82821015611c37576000848152602090819020604080518082019091526002850290910180546001600160a01b03168252600190810154828401529083529092019101611bef565b5050505090506000815167ffffffffffffffff811115611c6757634e487b7160e01b600052604160045260246000fd5b604051908082528060200260200182016040528015611c90578160200160208202803683370190505b50905060005b825181101561134657828181518110611cbf57634e487b7160e01b600052603260045260246000fd5b602002602001015160000151828281518110611ceb57634e487b7160e01b600052603260045260246000fd5b6001600160a01b039092166020928302919091019091015280611d0d81614933565b915050611c96565b6001600160a01b038416611d795760405162461bcd60e51b815260206004820152602560248201527f455243313135353a207472616e7366657220746f20746865207a65726f206164604482015264647265737360d81b60648201526084016108c2565b6001600160a01b038516331480611d955750611d95853361076d565b611df35760405162461bcd60e51b815260206004820152602960248201527f455243313135353a2063616c6c6572206973206e6f74206f776e6572206e6f7260448201526808185c1c1c9bdd995960ba1b60648201526084016108c2565b33611e12818787611e0388613128565b611e0c88613128565b8761220c565b600084815260c9602090815260408083206001600160a01b038a16845290915290205483811015611eab5760405162461bcd60e51b815260206004820152602a60248201527f455243313135353a20696e73756666696369656e742062616c616e636520666f60448201527f72207472616e736665720000000000000000000000000000000000000000000060648201526084016108c2565b611eb5848261484b565b600086815260c9602090815260408083206001600160a01b038c81168552925280832093909355881681529081208054869290611ef3908490614814565b909155505060408051868152602081018690526001600160a01b03808916928a821692918616917fc3d58168c5ae7397731d063d5bbf3d657854427343f4c083240f7aacaa2d0f62910160405180910390a4611f53828888888888613181565b50505050505050565b6101f5546001600160a01b03163314611fb75760405162461bcd60e51b815260206004820181905260248201527f4f776e61626c653a2063616c6c6572206973206e6f7420746865206f776e657260448201526064016108c2565b6001600160a01b0381166120335760405162461bcd60e51b815260206004820152602660248201527f4f776e61626c653a206e6577206f776e657220697320746865207a65726f206160448201527f646472657373000000000000000000000000000000000000000000000000000060648201526084016108c2565b6101f5546040516001600160a01b038084169216907f8be0079c531659141344cd1fd0a4f28419497f9722a3daafe3b4186f6b6457e090600090a36101f5805473ffffffffffffffffffffffffffffffffffffffff19166001600160a01b0392909216919091179055565b6001600160a01b0383163314806120ba57506120ba833361076d565b6121185760405162461bcd60e51b815260206004820152602960248201527f455243313135353a2063616c6c6572206973206e6f74206f776e6572206e6f7260448201526808185c1c1c9bdd995960ba1b60648201526084016108c2565b61110b83838361328c565b600081815261022c60205260409020805460609190610a28906148a5565b60006001600160e01b031982167fd9b67a260000000000000000000000000000000000000000000000000000000014806121a457506001600160e01b031982167f0e89341c00000000000000000000000000000000000000000000000000000000145b806108f057506108f082613411565b80516121c69060cb906020840190613c93565b5050565b60006121d63383610848565b151592915050565b600081815261022b60205260409020546121f9906001614814565b600091825261022b602052604090912055565b6110e186868686868661344f565b6001600160a01b0384163b156110e15760405163bc197c8160e01b81526001600160a01b0385169063bc197c819061225e9089908990889088908890600401614529565b602060405180830381600087803b15801561227857600080fd5b505af19250505080156122a8575060408051601f3d908101601f191682019092526122a591810190614355565b60015b61235e576122b461497a565b806308c379a014156122ee57506122c9614992565b806122d457506122f0565b8060405162461bcd60e51b81526004016108c29190614767565b505b60405162461bcd60e51b815260206004820152603460248201527f455243313135353a207472616e7366657220746f206e6f6e204552433131353560448201527f526563656976657220696d706c656d656e74657200000000000000000000000060648201526084016108c2565b6001600160e01b0319811663bc197c8160e01b14611f535760405162461bcd60e51b815260206004820152602860248201527f455243313135353a204552433131353552656365697665722072656a656374656044820152676420746f6b656e7360c01b60648201526084016108c2565b6000828152606560205260409020600101546123eb81336134c9565b61110b8383613549565b6000611779836001600160a01b0384166135eb565b6001600160a01b03811633146124885760405162461bcd60e51b815260206004820152602f60248201527f416363657373436f6e74726f6c3a2063616e206f6e6c792072656e6f756e636560448201527f20726f6c657320666f722073656c66000000000000000000000000000000000060648201526084016108c2565b6121c6828261363a565b6000611779836001600160a01b0384166136bd565b61012d5460ff166124fa5760405162461bcd60e51b815260206004820152601460248201527f5061757361626c653a206e6f742070617573656400000000000000000000000060448201526064016108c2565b61012d805460ff191690557f5db9ee0a495bf2e6ff9c91a7834c1ba4fdd244a5e8aa4e537bd38aeae4b073aa335b6040516001600160a01b03909116815260200160405180910390a1565b6001600160a01b0383166125a75760405162461bcd60e51b815260206004820152602360248201527f455243313135353a206275726e2066726f6d20746865207a65726f206164647260448201526265737360e81b60648201526084016108c2565b80518251146126095760405162461bcd60e51b815260206004820152602860248201527f455243313135353a2069647320616e6420616d6f756e7473206c656e677468206044820152670dad2e6dac2e8c6d60c31b60648201526084016108c2565b600033905061262c8185600086866040518060200160405280600081525061220c565b60005b835181101561275957600084828151811061265a57634e487b7160e01b600052603260045260246000fd5b60200260200101519050600084838151811061268657634e487b7160e01b600052603260045260246000fd5b602090810291909101810151600084815260c9835260408082206001600160a01b038c1683529093529190912054909150818110156127135760405162461bcd60e51b8152602060048201526024808201527f455243313135353a206275726e20616d6f756e7420657863656564732062616c604482015263616e636560e01b60648201526084016108c2565b61271d828261484b565b600093845260c9602090815260408086206001600160a01b038c168752909152909320929092555081905061275181614933565b91505061262f565b5060006001600160a01b0316846001600160a01b0316826001600160a01b03167f4a39dc06d4c0dbc64b70af90fd698a233a518aa5d07e595d983b8c0526c8f7fb86866040516127aa929190614739565b60405180910390a450505050565b6119a4848484846137d4565b60005b815181101561110b5760006001600160a01b03168282815181106127fb57634e487b7160e01b600052603260045260246000fd5b6020026020010151600001516001600160a01b0316141561285e5760405162461bcd60e51b815260206004820152601b60248201527f526563697069656e742073686f756c642062652070726573656e74000000000060448201526064016108c2565b600082828151811061288057634e487b7160e01b600052603260045260246000fd5b602002602001015160200151116128ff5760405162461bcd60e51b815260206004820152602260248201527f526f79616c746965732076616c75652073686f756c6420626520706f7369746960448201527f766500000000000000000000000000000000000000000000000000000000000060648201526084016108c2565b61138882828151811061292257634e487b7160e01b600052603260045260246000fd5b60200260200101516020015111156129a25760405162461bcd60e51b815260206004820152602b60248201527f526f79616c746965732076616c75652073686f756c64206e6f74206265206d6f60448201527f7265207468616e2035302500000000000000000000000000000000000000000060648201526084016108c2565b60008381526102296020526040902082518390839081106129d357634e487b7160e01b600052603260045260246000fd5b60209081029190910181015182546001808201855560009485528385208351600290930201805473ffffffffffffffffffffffffffffffffffffffff19166001600160a01b039093169290921782559190920151910155825167ffffffffffffffff811115612a5257634e487b7160e01b600052604160045260246000fd5b604051908082528060200260200182016040528015612a7b578160200160208202803683370190505b5090506000835167ffffffffffffffff811115612aa857634e487b7160e01b600052604160045260246000fd5b604051908082528060200260200182016040528015612ad1578160200160208202803683370190505b5090507f0daca41cf9c4835da0ce078144fcf7e2000a66f040f7e82fe43f4e5d234bb6bb858383604051612b079392919061477a565b60405180910390a150508080612b1c90614933565b9150506127c7565b600082815261022c602090815260409091208251612b4492840190613c93565b507f701be7c18389620e1de28c2c2c047271c46744dea76cb7667f428af200ef4dde8282604051610d669291906147d7565b600082815261022a60209081526040909120825161110b92840190613c93565b61022e5415612c175761022e543414612c175760405162461bcd60e51b815260206004820152603260248201527f57726f6e6720666565732076616c75652073656e7420746f2047686f73744d6160448201527f726b657420666f72206d696e742066656573000000000000000000000000000060648201526084016108c2565b34156111d6573461022d6000828254612c309190614814565b9091555050565b61012d5460ff1615612c8b5760405162461bcd60e51b815260206004820152601060248201527f5061757361626c653a207061757365640000000000000000000000000000000060448201526064016108c2565b61012d805460ff191660011790557f62e78cea01bee320cd4e420270b5ea74000d11b0c9f74754ebdbfc544b05a2586125283390565b600061177983836138fa565b600054610100900460ff1680612ce6575060005460ff16155b612d495760405162461bcd60e51b815260206004820152602e60248201527f496e697469616c697a61626c653a20636f6e747261637420697320616c72656160448201526d191e481a5b9a5d1a585b1a5e995960921b60648201526084016108c2565b600054610100900460ff16158015612d6b576000805461ffff19166101011790555b8015610987576000805461ff001916905550565b600054610100900460ff1680612d98575060005460ff16155b612dfb5760405162461bcd60e51b815260206004820152602e60248201527f496e697469616c697a61626c653a20636f6e747261637420697320616c72656160448201526d191e481a5b9a5d1a585b1a5e995960921b60648201526084016108c2565b600054610100900460ff16158015612e1d576000805461ffff19166101011790555b612e26826121b3565b80156121c6576000805461ff00191690555050565b600054610100900460ff1680612e54575060005460ff16155b612eb75760405162461bcd60e51b815260206004820152602e60248201527f496e697469616c697a61626c653a20636f6e747261637420697320616c72656160448201526d191e481a5b9a5d1a585b1a5e995960921b60648201526084016108c2565b600054610100900460ff16158015612ed9576000805461ffff19166101011790555b61012d805460ff191690558015610987576000805461ff001916905550565b600054610100900460ff1680612f11575060005460ff16155b612f745760405162461bcd60e51b815260206004820152602e60248201527f496e697469616c697a61626c653a20636f6e747261637420697320616c72656160448201526d191e481a5b9a5d1a585b1a5e995960921b60648201526084016108c2565b600054610100900460ff16158015612f96576000805461ffff19166101011790555b612fa16000336139a9565b612fcb7f9f2df0fed2c77648de5860a4cc508cd0818c85b8b8a1ab4ceeef8d981c8956a6336139a9565b612d6b7f65d7a28e3265b37a6474929f336521b332c1681b933f6cb9f3376673440d862a336139a9565b600054610100900460ff168061300e575060005460ff16155b6130715760405162461bcd60e51b815260206004820152602e60248201527f496e697469616c697a61626c653a20636f6e747261637420697320616c72656160448201526d191e481a5b9a5d1a585b1a5e995960921b60648201526084016108c2565b600054610100900460ff16158015613093576000805461ffff19166101011790555b6101f5805473ffffffffffffffffffffffffffffffffffffffff19163390811790915560405181906000907f8be0079c531659141344cd1fd0a4f28419497f9722a3daafe3b4186f6b6457e0908290a3508015610987576000805461ff001916905550565b60006108f0825490565b60008281526065602052604090206001015461311e81336134c9565b61110b838361363a565b6040805160018082528183019092526060916000919060208083019080368337019050509050828160008151811061317057634e487b7160e01b600052603260045260246000fd5b602090810291909101015292915050565b6001600160a01b0384163b156110e15760405163f23a6e6160e01b81526001600160a01b0385169063f23a6e61906131c59089908990889088908890600401614587565b602060405180830381600087803b1580156131df57600080fd5b505af192505050801561320f575060408051601f3d908101601f1916820190925261320c91810190614355565b60015b61321b576122b461497a565b6001600160e01b0319811663f23a6e6160e01b14611f535760405162461bcd60e51b815260206004820152602860248201527f455243313135353a204552433131353552656365697665722072656a656374656044820152676420746f6b656e7360c01b60648201526084016108c2565b6001600160a01b0383166132ee5760405162461bcd60e51b815260206004820152602360248201527f455243313135353a206275726e2066726f6d20746865207a65726f206164647260448201526265737360e81b60648201526084016108c2565b3361331d818560006132ff87613128565b61330887613128565b6040518060200160405280600081525061220c565b600083815260c9602090815260408083206001600160a01b03881684529091529020548281101561339c5760405162461bcd60e51b8152602060048201526024808201527f455243313135353a206275726e20616d6f756e7420657863656564732062616c604482015263616e636560e01b60648201526084016108c2565b6133a6838261484b565b600085815260c9602090815260408083206001600160a01b038a811680865291845282852095909555815189815292830188905292938616917fc3d58168c5ae7397731d063d5bbf3d657854427343f4c083240f7aacaa2d0f62910160405180910390a45050505050565b60006001600160e01b031982167f5a05180f0000000000000000000000000000000000000000000000000000000014806108f057506108f0826139b3565b61012d5460ff16156110e15760405162461bcd60e51b815260206004820152602c60248201527f455243313135355061757361626c653a20746f6b656e207472616e736665722060448201527f7768696c6520706175736564000000000000000000000000000000000000000060648201526084016108c2565b60008281526065602090815260408083206001600160a01b038516845290915290205460ff166121c657613507816001600160a01b03166014613a1a565b613512836020613a1a565b6040516020016135239291906144a8565b60408051601f198184030181529082905262461bcd60e51b82526108c291600401614767565b60008281526065602090815260408083206001600160a01b038516845290915290205460ff166121c65760008281526065602090815260408083206001600160a01b03851684529091529020805460ff191660011790556135a73390565b6001600160a01b0316816001600160a01b0316837f2f8788117e7eff1d82e926ec794901d17c78024a50270940304540a733656f0d60405160405180910390a45050565b6000818152600183016020526040812054613632575081546001818101845560008481526020808220909301849055845484825282860190935260409020919091556108f0565b5060006108f0565b60008281526065602090815260408083206001600160a01b038516845290915290205460ff16156121c65760008281526065602090815260408083206001600160a01b0385168085529252808320805460ff1916905551339285917ff6391f5c32d9c69d2a47ea670b442974b53935d1edc7fd64eb21e047a839171b9190a45050565b600081815260018301602052604081205480156137ca5760006136e160018361484b565b85549091506000906136f59060019061484b565b9050600086600001828154811061371c57634e487b7160e01b600052603260045260246000fd5b906000526020600020015490508087600001848154811061374d57634e487b7160e01b600052603260045260246000fd5b60009182526020808320909101929092558281526001890190915260409020849055865487908061378e57634e487b7160e01b600052603160045260246000fd5b600190038181906000526020600020016000905590558660010160008781526020019081526020016000206000905560019450505050506108f0565b60009150506108f0565b6001600160a01b0384166138505760405162461bcd60e51b815260206004820152602160248201527f455243313135353a206d696e7420746f20746865207a65726f2061646472657360448201527f730000000000000000000000000000000000000000000000000000000000000060648201526084016108c2565b3361386181600087611e0388613128565b600084815260c9602090815260408083206001600160a01b038916845290915281208054859290613893908490614814565b909155505060408051858152602081018590526001600160a01b0380881692600092918516917fc3d58168c5ae7397731d063d5bbf3d657854427343f4c083240f7aacaa2d0f62910160405180910390a46138f381600087878787613181565b5050505050565b815460009082106139735760405162461bcd60e51b815260206004820152602260248201527f456e756d657261626c655365743a20696e646578206f7574206f6620626f756e60448201527f647300000000000000000000000000000000000000000000000000000000000060648201526084016108c2565b82600001828154811061399657634e487b7160e01b600052603260045260246000fd5b9060005260206000200154905092915050565b6110f38282613c89565b60006001600160e01b031982167f7965db0b0000000000000000000000000000000000000000000000000000000014806108f057507f01ffc9a7000000000000000000000000000000000000000000000000000000006001600160e01b03198316146108f0565b60606000613a2983600261482c565b613a34906002614814565b67ffffffffffffffff811115613a5a57634e487b7160e01b600052604160045260246000fd5b6040519080825280601f01601f191660200182016040528015613a84576020820181803683370190505b5090507f300000000000000000000000000000000000000000000000000000000000000081600081518110613ac957634e487b7160e01b600052603260045260246000fd5b60200101907effffffffffffffffffffffffffffffffffffffffffffffffffffffffffffff1916908160001a9053507f780000000000000000000000000000000000000000000000000000000000000081600181518110613b3a57634e487b7160e01b600052603260045260246000fd5b60200101907effffffffffffffffffffffffffffffffffffffffffffffffffffffffffffff1916908160001a9053506000613b7684600261482c565b613b81906001614814565b90505b6001811115613c3a577f303132333435363738396162636465660000000000000000000000000000000085600f1660108110613bd057634e487b7160e01b600052603260045260246000fd5b1a60f81b828281518110613bf457634e487b7160e01b600052603260045260246000fd5b60200101907effffffffffffffffffffffffffffffffffffffffffffffffffffffffffffff1916908160001a90535060049490941c93613c338161488e565b9050613b84565b5083156117795760405162461bcd60e51b815260206004820181905260248201527f537472696e67733a20686578206c656e67746820696e73756666696369656e7460448201526064016108c2565b6121c68282613549565b828054613c9f906148a5565b90600052602060002090601f016020900481019282613cc15760008555613d07565b82601f10613cda57805160ff1916838001178555613d07565b82800160010185558215613d07579182015b82811115613d07578251825591602001919060010190613cec565b50613d13929150613d17565b5090565b5b80821115613d135760008155600101613d18565b8035613d3781614a1c565b919050565b600082601f830112613d4c578081fd5b81356020613d59826147f0565b60408051613d678382614906565b8481528381019250868401600686901b88018501891015613d86578687fd5b865b86811015613dd05783828b031215613d9e578788fd5b8351613da9816148e0565b8235613db481614a1c565b8152828701358782015285529385019390830190600101613d88565b509098975050505050505050565b600082601f830112613dee578081fd5b81356020613dfb826147f0565b604051613e088282614906565b8381528281019150858301600585901b87018401881015613e27578586fd5b855b85811015613e4557813584529284019290840190600101613e29565b5090979650505050505050565b600082601f830112613e62578081fd5b813567ffffffffffffffff811115613e7c57613e7c614964565b604051613e93601f8301601f191660200182614906565b818152846020838601011115613ea7578283fd5b816020850160208301379081016020019190915292915050565b600060208284031215613ed2578081fd5b813561177981614a1c565b60008060408385031215613eef578081fd5b8235613efa81614a1c565b91506020830135613f0a81614a1c565b809150509250929050565b600080600080600060a08688031215613f2c578081fd5b8535613f3781614a1c565b94506020860135613f4781614a1c565b9350604086013567ffffffffffffffff80821115613f63578283fd5b613f6f89838a01613dde565b94506060880135915080821115613f84578283fd5b613f9089838a01613dde565b93506080880135915080821115613fa5578283fd5b50613fb288828901613e52565b9150509295509295909350565b600080600080600060a08688031215613fd6578081fd5b8535613fe181614a1c565b94506020860135613ff181614a1c565b93506040860135925060608601359150608086013567ffffffffffffffff81111561401a578182fd5b613fb288828901613e52565b60008060006060848603121561403a578081fd5b833561404581614a1c565b9250602084013567ffffffffffffffff80821115614061578283fd5b61406d87838801613dde565b93506040860135915080821115614082578283fd5b5061408f86828701613dde565b9150509250925092565b600080604083850312156140ab578182fd5b82356140b681614a1c565b915060208301358015158114613f0a578182fd5b600080604083850312156140dc578182fd5b82356140e781614a1c565b946020939093013593505050565b600080600080600080600060e0888a03121561410f578485fd5b61411888613d2c565b965060208801359550604088013567ffffffffffffffff8082111561413b578687fd5b6141478b838c01613e52565b965060608a013591508082111561415c578384fd5b6141688b838c01613d3c565b955060808a013591508082111561417d578384fd5b6141898b838c01613e52565b945060a08a013591508082111561419e578384fd5b6141aa8b838c01613e52565b935060c08a01359150808211156141bf578283fd5b506141cc8a828b01613e52565b91505092959891949750929550565b6000806000606084860312156141ef578081fd5b83356141fa81614a1c565b95602085013595506040909401359392505050565b60008060408385031215614221578182fd5b823567ffffffffffffffff80821115614238578384fd5b818501915085601f83011261424b578384fd5b81356020614258826147f0565b6040516142658282614906565b8381528281019150858301600585901b870184018b1015614284578889fd5b8896505b848710156142af57803561429b81614a1c565b835260019690960195918301918301614288565b50965050860135925050808211156142c5578283fd5b506142d285828601613dde565b9150509250929050565b6000602082840312156142ed578081fd5b5035919050565b60008060408385031215614306578182fd5b823591506020830135613f0a81614a1c565b6000806040838503121561432a578182fd5b50508035926020909101359150565b60006020828403121561434a578081fd5b813561177981614a31565b600060208284031215614366578081fd5b815161177981614a31565b600060208284031215614382578081fd5b813567ffffffffffffffff811115614398578182fd5b6143a484828501613e52565b949350505050565b6000806000606084860312156143c0578081fd5b833567ffffffffffffffff808211156143d7578283fd5b6143e387838801613e52565b945060208601359150808211156143f8578283fd5b61440487838801613e52565b93506040860135915080821115614419578283fd5b5061408f86828701613e52565b6000815180845260208085019450808401835b8381101561445557815187529582019590820190600101614439565b509495945050505050565b60008151808452614478816020860160208601614862565b601f01601f19169290920160200192915050565b6000825161449e818460208701614862565b9190910192915050565b7f416363657373436f6e74726f6c3a206163636f756e74200000000000000000008152600083516144e0816017850160208801614862565b7f206973206d697373696e6720726f6c6520000000000000000000000000000000601791840191820152835161451d816028840160208801614862565b01602801949350505050565b60006001600160a01b03808816835280871660208401525060a0604083015261455560a0830186614426565b82810360608401526145678186614426565b9050828103608084015261457b8185614460565b98975050505050505050565b60006001600160a01b03808816835280871660208401525084604083015283606083015260a060808301526145bf60a0830184614460565b979650505050505050565b6001600160a01b038716815285602082015260c0604082015260006145f260c0830187614460565b82810360608401526146048187614460565b6080840195909552505060a00152949350505050565b6001600160a01b03841681526000602084818401526060604084015281845483600182811c91508083168061465057607f831692505b85831081141561466e57634e487b7160e01b87526022600452602487fd5b606088018390526080880181801561468d576001811461469e576146c8565b60ff198616825287820196506146c8565b60008b815260209020895b868110156146c2578154848201529085019089016146a9565b83019750505b50949b9a5050505050505050505050565b6020808252825182820181905260009190848201906040850190845b8181101561471a5783516001600160a01b0316835292840192918401916001016146f5565b50909695505050505050565b6020815260006117796020830184614426565b60408152600061474c6040830185614426565b828103602084015261475e8185614426565b95945050505050565b6020815260006117796020830184614460565b60006060820185835260206060818501528186518084526080860191508288019350845b818110156147c35784516001600160a01b03168352938301939183019160010161479e565b5050848103604086015261457b8187614426565b8281526040602082015260006143a46040830184614460565b600067ffffffffffffffff82111561480a5761480a614964565b5060051b60200190565b600082198211156148275761482761494e565b500190565b60008160001904831182151516156148465761484661494e565b500290565b60008282101561485d5761485d61494e565b500390565b60005b8381101561487d578181015183820152602001614865565b838111156119a45750506000910152565b60008161489d5761489d61494e565b506000190190565b600181811c908216806148b957607f821691505b602082108114156148da57634e487b7160e01b600052602260045260246000fd5b50919050565b6040810181811067ffffffffffffffff8211171561490057614900614964565b60405250565b601f8201601f1916810167ffffffffffffffff8111828210171561492c5761492c614964565b6040525050565b60006000198214156149475761494761494e565b5060010190565b634e487b7160e01b600052601160045260246000fd5b634e487b7160e01b600052604160045260246000fd5b600060033d111561498f57600481823e5160e01c5b90565b600060443d10156149a05790565b6040516003193d81016004833e81513d67ffffffffffffffff81602484011181841117156149d057505050505090565b82850191508151818111156149e85750505050505090565b843d8701016020828501011115614a025750505050505090565b614a1160208286010187614906565b509095945050505050565b6001600160a01b038116811461098757600080fd5b6001600160e01b03198116811461098757600080fdfea264697066735822122052b47e2d65e9f40162d0037d7ebbc906b6c9f89d7919b58e1556f0c2c366b47664736f6c63430008040033",
  "immutableReferences": {},
  "source": "// SPDX-License-Identifier: MIT\npragma solidity ^0.8.4;\n\nimport \"./ERC1155PresetMinterPauserUpgradeableCustom.sol\";\nimport \"@openzeppelin/contracts-upgradeable/utils/CountersUpgradeable.sol\";\nimport \"@openzeppelin/contracts-upgradeable/security/ReentrancyGuardUpgradeable.sol\";\nimport \"@openzeppelin/contracts-upgradeable/access/OwnableUpgradeable.sol\";\nimport \"@openzeppelin/contracts-upgradeable/proxy/utils/Initializable.sol\";\n\n/**\n * @dev ERC1155 token with minting, burning, pause, royalties & lock content functions.\n */\n\ncontract GhostMarketERC1155 is Initializable, ERC1155PresetMinterPauserUpgradeableCustom, ReentrancyGuardUpgradeable, OwnableUpgradeable {\n\tstring public name;\n\tstring public symbol;\n\n\t// struct for royalties fees\n\tstruct Royalty {\n\t\taddress payable recipient;\n\t\tuint256 value;\n\t}\n\n\t// tokenId => royalties array\n\tmapping(uint256 => Royalty[]) internal _royalties;\n\n\t// tokenId => locked content array\n\tmapping(uint256 => string) internal _lockedContent;\n\n\t// tokenId => locked content view counter array\n\tmapping(uint256 => uint256) internal _lockedContentViewTracker;\n    \n    // tokenId => attributes array\n\tmapping(uint256 => string) internal _metadataJson;\n\n\t// events\n\tevent RoyaltiesFeesSet(uint256 tokenId, address[] recipients, uint256[] bps);\n\tevent LockedContentViewed(address msgSender, uint256 tokenId, string lockedContent);\n\tevent AttributesSet(uint256 tokenId, string metadataJson);\n\tevent MintFeesWithdrawn(address feeWithdrawer, uint256 withdrawAmount);\n\tevent MintFeesChanged(uint256 newValue);\n\tevent Minted(address toAddress, uint256 tokenId, string tokenURI, string externalURI, uint256 amount, uint256 mintFees);\n\n    // mint fees balance\n\tuint256 internal _payedMintFeesBalance;\n\n\t// mint fees value\n\tuint256 internal _ghostmarketMintFees;\n\n\tfunction initialize(string memory _name, string memory _symbol, string memory uri)\n        public\n        virtual\n        initializer\n    {\n\t\t__Context_init_unchained();\n\t\t__ERC165_init_unchained();\n\t\t__AccessControl_init_unchained();\n\t\t__AccessControlEnumerable_init_unchained();\n\t\t__ERC1155_init_unchained(uri);\n\t\t__ERC1155Burnable_init_unchained();\n\t\t__Pausable_init_unchained();\n\t\t__ERC1155Pausable_init_unchained();\n\t\t__ERC1155PresetMinterPauser_init_unchained();\n\t\t__Ownable_init_unchained();\n\t\tname = _name;\n\t\tsymbol = _symbol;\n\t}\n\n\tusing CountersUpgradeable for CountersUpgradeable.Counter;\n\n\t// _tokenIdTracker to generate automated token IDs\n\tCountersUpgradeable.Counter private _tokenIdTracker;\n\n    /**\n     * @dev check if msg.sender is owner of NFT id\n     */\n    function _ownerOf(uint256 tokenId)\n        internal\n        view\n        returns (bool)\n    {\n        return balanceOf(msg.sender, tokenId) != 0;\n    }\n\n\n    /**\n\t * @dev set a NFT royalties fees & recipients\n\t * fee basis points 10000 = 100%\n\t * emits RoyaltiesFeesSet event if set\n\t */\n\tfunction _saveRoyalties(uint256 tokenId, Royalty[] memory royalties)\n        internal\n    {\n\t\tfor (uint256 i = 0; i < royalties.length; i++) {\n\t\t\trequire(royalties[i].recipient != address(0x0), \"Recipient should be present\");\n\t\t\trequire(royalties[i].value > 0, \"Royalties value should be positive\");\n            require(royalties[i].value <= 5000, \"Royalties value should not be more than 50%\");\n\t\t\t_royalties[tokenId].push(royalties[i]);\n\t\t\taddress[] memory recipients = new address[](royalties.length);\n\t\t\tuint256[] memory bps = new uint256[](royalties.length);\n\t\t\temit RoyaltiesFeesSet(tokenId, recipients, bps);\n\t\t}\n\t}\n\n    /**\n\t * @dev set a NFT custom attributes to contract storage\n\t * emits AttributesSet event\n\t */\n\tfunction _setMetadataJson(uint256 tokenId, string memory metadataJson)\n        internal\n    {\n\t\t_metadataJson[tokenId] = metadataJson;\n\t\temit AttributesSet(tokenId, metadataJson);\n\t}\n\n\t/**\n\t * @dev set a NFT locked content as string\n\t */\n\tfunction _setLockedContent(uint256 tokenId, string memory content)\n        internal\n    {\n\t\t_lockedContent[tokenId] = content;\n\t}\n\n\t/**\n\t * @dev check mint fees sent to contract\n\t * emits MintFeesPaid event if set\n\t */\n\tfunction _checkMintFees()\n        internal\n    {\n\t\tif (_ghostmarketMintFees > 0) {\n\t\t\trequire(msg.value == _ghostmarketMintFees, \"Wrong fees value sent to GhostMarket for mint fees\");\n\t\t}\n\t\tif (msg.value > 0) {\n\t\t\t_payedMintFeesBalance += msg.value;\n\t\t}\n\t}\n\n\t/**\n\t * @dev increment a NFT locked content view tracker\n\t */\n\tfunction _incrementCurrentLockedContentViewTracker(uint256 tokenId)\n        internal\n    {\n\t\t_lockedContentViewTracker[tokenId] = _lockedContentViewTracker[tokenId] + 1;\n\t}\n\n\t/**\n\t * @dev mint NFT, set royalties, set metadata json, set lockedcontent\n\t * emits Minted event\n\t */\n\tfunction mintGhost(address to, uint256 amount, bytes memory data, Royalty[] memory royalties, string memory externalURI, string memory metadata, string memory lockedcontent)\n        external\n        payable\n        nonReentrant\n    {\n\t\tmint(to, _tokenIdTracker.current(), amount, data);\n\t\tif (royalties.length > 0) {\n\t\t\t_saveRoyalties(_tokenIdTracker.current(), royalties);\n\t\t}\n\t\tif (keccak256(abi.encodePacked(metadata)) != keccak256(abi.encodePacked(\"\"))) {\n\t\t\t_setMetadataJson(_tokenIdTracker.current(), metadata);\n\t\t}\n\t\tif (keccak256(abi.encodePacked(lockedcontent)) != keccak256(abi.encodePacked(\"\"))) {\n\t\t\t_setLockedContent(_tokenIdTracker.current(), lockedcontent);\n\t\t}\n\t\t_checkMintFees();\n        require(keccak256(abi.encodePacked(externalURI)) != keccak256(abi.encodePacked(\"\")), \"externalURI can't be empty\");\n\t\temit Minted(to, _tokenIdTracker.current(), uri(_tokenIdTracker.current()), externalURI, amount, msg.value);\n\t\t_tokenIdTracker.increment();\n\t}\n\n\t/**\n\t * @dev withdraw contract balance\n\t * emits MintFeesWithdrawn event\n\t */\n\tfunction withdraw(uint256 withdrawAmount)\n        external\n        onlyOwner\n    {\n\t\trequire(withdrawAmount > 0 && withdrawAmount <= _payedMintFeesBalance, \"Withdraw amount should be greater then 0 and less then contract balance\");\n\t\t_payedMintFeesBalance -= withdrawAmount;\n\t\t(bool success, ) = msg.sender.call{value: withdrawAmount}(\"\");\n\t\trequire(success, \"Transfer failed.\");\n\t\temit MintFeesWithdrawn(msg.sender, withdrawAmount);\n\t}\n\n    /**\n\t * @dev sets Ghostmarket mint fees as uint256\n\t * emits MintFeesChanged event\n\t */\n\tfunction setGhostmarketMintFee(uint256 gmmf)\n        external\n    {\n\t\trequire(hasRole(DEFAULT_ADMIN_ROLE, _msgSender()), \"Caller must have admin role to set mint fees\");\n\t\t_ghostmarketMintFees = gmmf;\n\t\temit MintFeesChanged(_ghostmarketMintFees);\n\t}\n\n\t/**\n\t * @return get Ghostmarket mint fees\n\t */\n\tfunction getGhostmarketMintFees()\n        external\n        view\n        returns (uint256)\n    {\n\t\treturn _ghostmarketMintFees;\n\t}\n\n\t/**\n\t * @dev get locked content for a NFT\n\t * emits LockedContentViewed event\n\t */\n\tfunction getLockedContent(uint256 tokenId)\n        external\n    {\n        require(_ownerOf(tokenId), \"Caller must be the owner of the NFT\");\n\t\t_incrementCurrentLockedContentViewTracker(tokenId);\n\t\temit LockedContentViewed(msg.sender, tokenId, _lockedContent[tokenId]);\n\t}\n\n\t/**\n\t * @dev get a NFT current locked content view tracker\n\t */\n\tfunction getCurrentLockedContentViewTracker(uint256 tokenId)\n        external\n        view\n        returns (uint256)\n    {\n\t\treturn _lockedContentViewTracker[tokenId];\n\t}\n\n\t/**\n\t * @dev get a NFT custom attributes\n\t */\n\tfunction getMetadataJson(uint256 tokenId)\n        external\n        view\n        returns (string memory)\n    {\n\t\treturn _metadataJson[tokenId];\n\t}\n\n\t/**\n\t * @dev get a NFT royalties recipients\n\t */\n\tfunction getRoyaltiesRecipients(uint256 tokenId)\n        external\n        view\n        returns (address payable[] memory)\n    {\n\t\tRoyalty[] memory royalties = _royalties[tokenId];\n\t\taddress payable[] memory result = new address payable[](royalties.length);\n\t\tfor (uint256 i = 0; i < royalties.length; i++) {\n\t\t\tresult[i] = royalties[i].recipient;\n\t\t}\n\t\treturn result;\n\t}\n\n\t/**\n\t * @dev get a NFT royalties fees\n\t * fee basis points 10000 = 100%\n\t */\n\tfunction getRoyaltiesBps(uint256 tokenId)\n        external\n        view\n        returns (uint256[] memory)\n    {\n\t\tRoyalty[] memory royalties = _royalties[tokenId];\n\t\tuint256[] memory result = new uint256[](royalties.length);\n\t\tfor (uint256 i = 0; i < royalties.length; i++) {\n\t\t\tresult[i] = royalties[i].value;\n\t\t}\n\t\treturn result;\n\t}\n\n  /**\n\t * @dev current _tokenIdTracker\n\t */\n\tfunction getCurrentCounter()\n        external\n        view\n        returns (uint256)\n    {\n\t\treturn _tokenIdTracker.current();\n\t}\n\n\tuint256[50] private __gap;\n}\n",
  "sourcePath": "/Users/vincent/Dev/GhostMarketContractBSC/contracts/GhostMarketERC1155.sol",
  "compiler": {
    "name": "solc",
    "version": "0.8.4+commit.c7e474f2.Emscripten.clang"
  },
  "schemaVersion": "3.4.1",
  "updatedAt": "2021-05-19T17:19:15.640Z",
  "networkType": "ethereum",
  "devdoc": {
    "details": "ERC1155 token with minting, burning, pause, royalties & lock content functions.",
    "kind": "dev",
    "methods": {
      "balanceOf(address,uint256)": {
        "details": "See {IERC1155-balanceOf}. Requirements: - `account` cannot be the zero address."
      },
      "balanceOfBatch(address[],uint256[])": {
        "details": "See {IERC1155-balanceOfBatch}. Requirements: - `accounts` and `ids` must have the same length."
      },
      "getCurrentCounter()": {
        "details": "current _tokenIdTracker"
      },
      "getCurrentLockedContentViewTracker(uint256)": {
        "details": "get a NFT current locked content view tracker"
      },
      "getGhostmarketMintFees()": {
        "returns": {
          "_0": "get Ghostmarket mint fees"
        }
      },
      "getLockedContent(uint256)": {
        "details": "get locked content for a NFT emits LockedContentViewed event"
      },
      "getMetadataJson(uint256)": {
        "details": "get a NFT custom attributes"
      },
      "getRoleAdmin(bytes32)": {
        "details": "Returns the admin role that controls `role`. See {grantRole} and {revokeRole}. To change a role's admin, use {_setRoleAdmin}."
      },
      "getRoleMember(bytes32,uint256)": {
        "details": "Returns one of the accounts that have `role`. `index` must be a value between 0 and {getRoleMemberCount}, non-inclusive. Role bearers are not sorted in any particular way, and their ordering may change at any point. WARNING: When using {getRoleMember} and {getRoleMemberCount}, make sure you perform all queries on the same block. See the following https://forum.openzeppelin.com/t/iterating-over-elements-on-enumerableset-in-openzeppelin-contracts/2296[forum post] for more information."
      },
      "getRoleMemberCount(bytes32)": {
        "details": "Returns the number of accounts that have `role`. Can be used together with {getRoleMember} to enumerate all bearers of a role."
      },
      "getRoyaltiesBps(uint256)": {
        "details": "get a NFT royalties fees fee basis points 10000 = 100%"
      },
      "getRoyaltiesRecipients(uint256)": {
        "details": "get a NFT royalties recipients"
      },
      "grantRole(bytes32,address)": {
        "details": "Overload {grantRole} to track enumerable memberships"
      },
      "hasRole(bytes32,address)": {
        "details": "Returns `true` if `account` has been granted `role`."
      },
      "isApprovedForAll(address,address)": {
        "details": "See {IERC1155-isApprovedForAll}."
      },
      "mintGhost(address,uint256,bytes,(address,uint256)[],string,string,string)": {
        "details": "mint NFT, set royalties, set metadata json, set lockedcontent emits Minted event"
      },
      "owner()": {
        "details": "Returns the address of the current owner."
      },
      "pause()": {
        "details": "Pauses all token transfers. See {ERC1155Pausable} and {Pausable-_pause}. Requirements: - the caller must have the `PAUSER_ROLE`."
      },
      "paused()": {
        "details": "Returns true if the contract is paused, and false otherwise."
      },
      "renounceOwnership()": {
        "details": "Leaves the contract without owner. It will not be possible to call `onlyOwner` functions anymore. Can only be called by the current owner. NOTE: Renouncing ownership will leave the contract without an owner, thereby removing any functionality that is only available to the owner."
      },
      "renounceRole(bytes32,address)": {
        "details": "Overload {renounceRole} to track enumerable memberships"
      },
      "revokeRole(bytes32,address)": {
        "details": "Overload {revokeRole} to track enumerable memberships"
      },
      "safeBatchTransferFrom(address,address,uint256[],uint256[],bytes)": {
        "details": "See {IERC1155-safeBatchTransferFrom}."
      },
      "safeTransferFrom(address,address,uint256,uint256,bytes)": {
        "details": "See {IERC1155-safeTransferFrom}."
      },
      "setApprovalForAll(address,bool)": {
        "details": "See {IERC1155-setApprovalForAll}."
      },
      "setGhostmarketMintFee(uint256)": {
        "details": "sets Ghostmarket mint fees as uint256 emits MintFeesChanged event"
      },
      "supportsInterface(bytes4)": {
        "details": "See {IERC165-supportsInterface}."
      },
      "transferOwnership(address)": {
        "details": "Transfers ownership of the contract to a new account (`newOwner`). Can only be called by the current owner."
      },
      "unpause()": {
        "details": "Unpauses all token transfers. See {ERC1155Pausable} and {Pausable-_unpause}. Requirements: - the caller must have the `PAUSER_ROLE`."
      },
      "uri(uint256)": {
        "details": "See {IERC1155MetadataURI-uri}. This implementation returns the same URI for *all* token types. It relies on the token type ID substitution mechanism https://eips.ethereum.org/EIPS/eip-1155#metadata[defined in the EIP]. Clients calling this function must replace the `\\{id\\}` substring with the actual token type ID."
      },
      "withdraw(uint256)": {
        "details": "withdraw contract balance emits MintFeesWithdrawn event"
      }
    },
    "version": 1
  },
  "userdoc": {
    "kind": "user",
    "methods": {},
    "version": 1
  }
}