{
  "contractName": "GhostmarketERC1155",
  "abi": [
    {
      "anonymous": false,
      "inputs": [
        {
          "indexed": true,
          "internalType": "address",
          "name": "account",
          "type": "address"
        },
        {
          "indexed": true,
          "internalType": "address",
          "name": "operator",
          "type": "address"
        },
        {
          "indexed": false,
          "internalType": "bool",
          "name": "approved",
          "type": "bool"
        }
      ],
      "name": "ApprovalForAll",
      "type": "event"
    },
    {
      "anonymous": false,
      "inputs": [
        {
          "indexed": false,
          "internalType": "address",
          "name": "newValue",
          "type": "address"
        }
      ],
      "name": "GhostmarketFeeAddressChanged",
      "type": "event"
    },
    {
      "anonymous": false,
      "inputs": [
        {
          "indexed": false,
          "internalType": "address",
          "name": "sender",
          "type": "address"
        },
        {
          "indexed": false,
          "internalType": "uint256",
          "name": "value",
          "type": "uint256"
        }
      ],
      "name": "GhostmarketFeePaid",
      "type": "event"
    },
    {
      "anonymous": false,
      "inputs": [
        {
          "indexed": false,
          "internalType": "uint256",
          "name": "newValue",
          "type": "uint256"
        }
      ],
      "name": "GhostmarketMintFeeChanged",
      "type": "event"
    },
    {
      "anonymous": false,
      "inputs": [
        {
          "indexed": false,
          "internalType": "address",
          "name": "msgSender",
          "type": "address"
        },
        {
          "indexed": false,
          "internalType": "uint256",
          "name": "tokenId",
          "type": "uint256"
        },
        {
          "indexed": false,
          "internalType": "string",
          "name": "lockedContent",
          "type": "string"
        }
      ],
      "name": "LockedContentViewed",
      "type": "event"
    },
    {
      "anonymous": false,
      "inputs": [
        {
          "indexed": false,
          "internalType": "address",
          "name": "toAddress",
          "type": "address"
        },
        {
          "indexed": false,
          "internalType": "uint256",
          "name": "tokenId",
          "type": "uint256"
        },
        {
          "indexed": false,
          "internalType": "string",
          "name": "tokenURI",
          "type": "string"
        },
        {
          "indexed": false,
          "internalType": "uint256",
          "name": "amount",
          "type": "uint256"
        }
      ],
      "name": "Minted",
      "type": "event"
    },
    {
      "anonymous": false,
      "inputs": [
        {
          "indexed": false,
          "internalType": "address",
          "name": "account",
          "type": "address"
        }
      ],
      "name": "Paused",
      "type": "event"
    },
    {
      "anonymous": false,
      "inputs": [
        {
          "indexed": true,
          "internalType": "bytes32",
          "name": "role",
          "type": "bytes32"
        },
        {
          "indexed": true,
          "internalType": "bytes32",
          "name": "previousAdminRole",
          "type": "bytes32"
        },
        {
          "indexed": true,
          "internalType": "bytes32",
          "name": "newAdminRole",
          "type": "bytes32"
        }
      ],
      "name": "RoleAdminChanged",
      "type": "event"
    },
    {
      "anonymous": false,
      "inputs": [
        {
          "indexed": true,
          "internalType": "bytes32",
          "name": "role",
          "type": "bytes32"
        },
        {
          "indexed": true,
          "internalType": "address",
          "name": "account",
          "type": "address"
        },
        {
          "indexed": true,
          "internalType": "address",
          "name": "sender",
          "type": "address"
        }
      ],
      "name": "RoleGranted",
      "type": "event"
    },
    {
      "anonymous": false,
      "inputs": [
        {
          "indexed": true,
          "internalType": "bytes32",
          "name": "role",
          "type": "bytes32"
        },
        {
          "indexed": true,
          "internalType": "address",
          "name": "account",
          "type": "address"
        },
        {
          "indexed": true,
          "internalType": "address",
          "name": "sender",
          "type": "address"
        }
      ],
      "name": "RoleRevoked",
      "type": "event"
    },
    {
      "anonymous": false,
      "inputs": [
        {
          "indexed": false,
          "internalType": "uint256",
          "name": "tokenId",
          "type": "uint256"
        },
        {
          "indexed": false,
          "internalType": "address",
          "name": "from",
          "type": "address"
        },
        {
          "indexed": false,
          "internalType": "address",
          "name": "to",
          "type": "address"
        }
      ],
      "name": "RoyalitiesAccountChanged",
      "type": "event"
    },
    {
      "anonymous": false,
      "inputs": [
        {
          "indexed": false,
          "internalType": "uint256",
          "name": "tokenId",
          "type": "uint256"
        },
        {
          "indexed": false,
          "internalType": "uint256",
          "name": "value",
          "type": "uint256"
        }
      ],
      "name": "RoyalitiesFeeValueChanged",
      "type": "event"
    },
    {
      "anonymous": false,
      "inputs": [
        {
          "indexed": false,
          "internalType": "uint256",
          "name": "tokenId",
          "type": "uint256"
        },
        {
          "indexed": false,
          "internalType": "address",
          "name": "recipients",
          "type": "address"
        },
        {
          "indexed": false,
          "internalType": "uint256",
          "name": "bps",
          "type": "uint256"
        }
      ],
      "name": "SecondarySaleFees",
      "type": "event"
    },
    {
      "anonymous": false,
      "inputs": [
        {
          "indexed": false,
          "internalType": "string",
          "name": "value",
          "type": "string"
        },
        {
          "indexed": true,
          "internalType": "uint256",
          "name": "id",
          "type": "uint256"
        }
      ],
      "name": "TokenURI",
      "type": "event"
    },
    {
      "anonymous": false,
      "inputs": [
        {
          "indexed": true,
          "internalType": "address",
          "name": "operator",
          "type": "address"
        },
        {
          "indexed": true,
          "internalType": "address",
          "name": "from",
          "type": "address"
        },
        {
          "indexed": true,
          "internalType": "address",
          "name": "to",
          "type": "address"
        },
        {
          "indexed": false,
          "internalType": "uint256[]",
          "name": "ids",
          "type": "uint256[]"
        },
        {
          "indexed": false,
          "internalType": "uint256[]",
          "name": "values",
          "type": "uint256[]"
        }
      ],
      "name": "TransferBatch",
      "type": "event"
    },
    {
      "anonymous": false,
      "inputs": [
        {
          "indexed": true,
          "internalType": "address",
          "name": "operator",
          "type": "address"
        },
        {
          "indexed": true,
          "internalType": "address",
          "name": "from",
          "type": "address"
        },
        {
          "indexed": true,
          "internalType": "address",
          "name": "to",
          "type": "address"
        },
        {
          "indexed": false,
          "internalType": "uint256",
          "name": "id",
          "type": "uint256"
        },
        {
          "indexed": false,
          "internalType": "uint256",
          "name": "value",
          "type": "uint256"
        }
      ],
      "name": "TransferSingle",
      "type": "event"
    },
    {
      "anonymous": false,
      "inputs": [
        {
          "indexed": false,
          "internalType": "string",
          "name": "value",
          "type": "string"
        },
        {
          "indexed": true,
          "internalType": "uint256",
          "name": "id",
          "type": "uint256"
        }
      ],
      "name": "URI",
      "type": "event"
    },
    {
      "anonymous": false,
      "inputs": [
        {
          "indexed": false,
          "internalType": "address",
          "name": "account",
          "type": "address"
        }
      ],
      "name": "Unpaused",
      "type": "event"
    },
    {
      "inputs": [],
      "name": "DEFAULT_ADMIN_ROLE",
      "outputs": [
        {
          "internalType": "bytes32",
          "name": "",
          "type": "bytes32"
        }
      ],
      "stateMutability": "view",
      "type": "function"
    },
    {
      "inputs": [],
      "name": "MINTER_ROLE",
      "outputs": [
        {
          "internalType": "bytes32",
          "name": "",
          "type": "bytes32"
        }
      ],
      "stateMutability": "view",
      "type": "function"
    },
    {
      "inputs": [],
      "name": "PAUSER_ROLE",
      "outputs": [
        {
          "internalType": "bytes32",
          "name": "",
          "type": "bytes32"
        }
      ],
      "stateMutability": "view",
      "type": "function"
    },
    {
      "inputs": [
        {
          "internalType": "uint256",
          "name": "",
          "type": "uint256"
        }
      ],
      "name": "_lockedContent",
      "outputs": [
        {
          "internalType": "string",
          "name": "",
          "type": "string"
        }
      ],
      "stateMutability": "view",
      "type": "function"
    },
    {
      "inputs": [
        {
          "internalType": "address",
          "name": "account",
          "type": "address"
        },
        {
          "internalType": "uint256",
          "name": "id",
          "type": "uint256"
        }
      ],
      "name": "balanceOf",
      "outputs": [
        {
          "internalType": "uint256",
          "name": "",
          "type": "uint256"
        }
      ],
      "stateMutability": "view",
      "type": "function"
    },
    {
      "inputs": [
        {
          "internalType": "address[]",
          "name": "accounts",
          "type": "address[]"
        },
        {
          "internalType": "uint256[]",
          "name": "ids",
          "type": "uint256[]"
        }
      ],
      "name": "balanceOfBatch",
      "outputs": [
        {
          "internalType": "uint256[]",
          "name": "",
          "type": "uint256[]"
        }
      ],
      "stateMutability": "view",
      "type": "function"
    },
    {
      "inputs": [],
      "name": "baseURI",
      "outputs": [
        {
          "internalType": "string",
          "name": "",
          "type": "string"
        }
      ],
      "stateMutability": "view",
      "type": "function"
    },
    {
      "inputs": [
        {
          "internalType": "address",
          "name": "account",
          "type": "address"
        },
        {
          "internalType": "uint256",
          "name": "id",
          "type": "uint256"
        },
        {
          "internalType": "uint256",
          "name": "value",
          "type": "uint256"
        }
      ],
      "name": "burn",
      "outputs": [],
      "stateMutability": "nonpayable",
      "type": "function"
    },
    {
      "inputs": [
        {
          "internalType": "address",
          "name": "account",
          "type": "address"
        },
        {
          "internalType": "uint256[]",
          "name": "ids",
          "type": "uint256[]"
        },
        {
          "internalType": "uint256[]",
          "name": "values",
          "type": "uint256[]"
        }
      ],
      "name": "burnBatch",
      "outputs": [],
      "stateMutability": "nonpayable",
      "type": "function"
    },
    {
      "inputs": [
        {
          "internalType": "uint256",
          "name": "",
          "type": "uint256"
        },
        {
          "internalType": "uint256",
          "name": "",
          "type": "uint256"
        }
      ],
      "name": "fees",
      "outputs": [
        {
          "internalType": "address payable",
          "name": "recipient",
          "type": "address"
        },
        {
          "internalType": "uint256",
          "name": "value",
          "type": "uint256"
        }
      ],
      "stateMutability": "view",
      "type": "function"
    },
    {
      "inputs": [
        {
          "internalType": "bytes32",
          "name": "role",
          "type": "bytes32"
        }
      ],
      "name": "getRoleAdmin",
      "outputs": [
        {
          "internalType": "bytes32",
          "name": "",
          "type": "bytes32"
        }
      ],
      "stateMutability": "view",
      "type": "function"
    },
    {
      "inputs": [
        {
          "internalType": "bytes32",
          "name": "role",
          "type": "bytes32"
        },
        {
          "internalType": "uint256",
          "name": "index",
          "type": "uint256"
        }
      ],
      "name": "getRoleMember",
      "outputs": [
        {
          "internalType": "address",
          "name": "",
          "type": "address"
        }
      ],
      "stateMutability": "view",
      "type": "function"
    },
    {
      "inputs": [
        {
          "internalType": "bytes32",
          "name": "role",
          "type": "bytes32"
        }
      ],
      "name": "getRoleMemberCount",
      "outputs": [
        {
          "internalType": "uint256",
          "name": "",
          "type": "uint256"
        }
      ],
      "stateMutability": "view",
      "type": "function"
    },
    {
      "inputs": [
        {
          "internalType": "bytes32",
          "name": "role",
          "type": "bytes32"
        },
        {
          "internalType": "address",
          "name": "account",
          "type": "address"
        }
      ],
      "name": "grantRole",
      "outputs": [],
      "stateMutability": "nonpayable",
      "type": "function"
    },
    {
      "inputs": [
        {
          "internalType": "bytes32",
          "name": "role",
          "type": "bytes32"
        },
        {
          "internalType": "address",
          "name": "account",
          "type": "address"
        }
      ],
      "name": "hasRole",
      "outputs": [
        {
          "internalType": "bool",
          "name": "",
          "type": "bool"
        }
      ],
      "stateMutability": "view",
      "type": "function"
    },
    {
      "inputs": [
        {
          "internalType": "address",
          "name": "account",
          "type": "address"
        },
        {
          "internalType": "address",
          "name": "operator",
          "type": "address"
        }
      ],
      "name": "isApprovedForAll",
      "outputs": [
        {
          "internalType": "bool",
          "name": "",
          "type": "bool"
        }
      ],
      "stateMutability": "view",
      "type": "function"
    },
    {
      "inputs": [
        {
          "internalType": "address",
          "name": "to",
          "type": "address"
        },
        {
          "internalType": "uint256",
          "name": "id",
          "type": "uint256"
        },
        {
          "internalType": "uint256",
          "name": "amount",
          "type": "uint256"
        },
        {
          "internalType": "bytes",
          "name": "data",
          "type": "bytes"
        }
      ],
      "name": "mint",
      "outputs": [],
      "stateMutability": "nonpayable",
      "type": "function"
    },
    {
      "inputs": [
        {
          "internalType": "address",
          "name": "to",
          "type": "address"
        },
        {
          "internalType": "uint256[]",
          "name": "ids",
          "type": "uint256[]"
        },
        {
          "internalType": "uint256[]",
          "name": "amounts",
          "type": "uint256[]"
        },
        {
          "internalType": "bytes",
          "name": "data",
          "type": "bytes"
        }
      ],
      "name": "mintBatch",
      "outputs": [],
      "stateMutability": "nonpayable",
      "type": "function"
    },
    {
      "inputs": [],
      "name": "name",
      "outputs": [
        {
          "internalType": "string",
          "name": "",
          "type": "string"
        }
      ],
      "stateMutability": "view",
      "type": "function"
    },
    {
      "inputs": [],
      "name": "pause",
      "outputs": [],
      "stateMutability": "nonpayable",
      "type": "function"
    },
    {
      "inputs": [],
      "name": "paused",
      "outputs": [
        {
          "internalType": "bool",
          "name": "",
          "type": "bool"
        }
      ],
      "stateMutability": "view",
      "type": "function"
    },
    {
      "inputs": [
        {
          "internalType": "bytes32",
          "name": "role",
          "type": "bytes32"
        },
        {
          "internalType": "address",
          "name": "account",
          "type": "address"
        }
      ],
      "name": "renounceRole",
      "outputs": [],
      "stateMutability": "nonpayable",
      "type": "function"
    },
    {
      "inputs": [
        {
          "internalType": "bytes32",
          "name": "role",
          "type": "bytes32"
        },
        {
          "internalType": "address",
          "name": "account",
          "type": "address"
        }
      ],
      "name": "revokeRole",
      "outputs": [],
      "stateMutability": "nonpayable",
      "type": "function"
    },
    {
      "inputs": [
        {
          "internalType": "address",
          "name": "from",
          "type": "address"
        },
        {
          "internalType": "address",
          "name": "to",
          "type": "address"
        },
        {
          "internalType": "uint256[]",
          "name": "ids",
          "type": "uint256[]"
        },
        {
          "internalType": "uint256[]",
          "name": "amounts",
          "type": "uint256[]"
        },
        {
          "internalType": "bytes",
          "name": "data",
          "type": "bytes"
        }
      ],
      "name": "safeBatchTransferFrom",
      "outputs": [],
      "stateMutability": "nonpayable",
      "type": "function"
    },
    {
      "inputs": [
        {
          "internalType": "address",
          "name": "from",
          "type": "address"
        },
        {
          "internalType": "address",
          "name": "to",
          "type": "address"
        },
        {
          "internalType": "uint256",
          "name": "id",
          "type": "uint256"
        },
        {
          "internalType": "uint256",
          "name": "amount",
          "type": "uint256"
        },
        {
          "internalType": "bytes",
          "name": "data",
          "type": "bytes"
        }
      ],
      "name": "safeTransferFrom",
      "outputs": [],
      "stateMutability": "nonpayable",
      "type": "function"
    },
    {
      "inputs": [
        {
          "internalType": "address",
          "name": "operator",
          "type": "address"
        },
        {
          "internalType": "bool",
          "name": "approved",
          "type": "bool"
        }
      ],
      "name": "setApprovalForAll",
      "outputs": [],
      "stateMutability": "nonpayable",
      "type": "function"
    },
    {
      "inputs": [
        {
          "internalType": "address",
          "name": "from",
          "type": "address"
        },
        {
          "internalType": "uint256",
          "name": "tokenId",
          "type": "uint256"
        },
        {
          "internalType": "string",
          "name": "_uri",
          "type": "string"
        }
      ],
      "name": "setTokenURI",
      "outputs": [],
      "stateMutability": "nonpayable",
      "type": "function"
    },
    {
      "inputs": [
        {
          "internalType": "bytes4",
          "name": "interfaceId",
          "type": "bytes4"
        }
      ],
      "name": "supportsInterface",
      "outputs": [
        {
          "internalType": "bool",
          "name": "",
          "type": "bool"
        }
      ],
      "stateMutability": "view",
      "type": "function"
    },
    {
      "inputs": [],
      "name": "symbol",
      "outputs": [
        {
          "internalType": "string",
          "name": "",
          "type": "string"
        }
      ],
      "stateMutability": "view",
      "type": "function"
    },
    {
      "inputs": [],
      "name": "unpause",
      "outputs": [],
      "stateMutability": "nonpayable",
      "type": "function"
    },
    {
      "inputs": [
        {
          "internalType": "string",
          "name": "_name",
          "type": "string"
        },
        {
          "internalType": "string",
          "name": "_symbol",
          "type": "string"
        },
        {
          "internalType": "string",
          "name": "uri",
          "type": "string"
        }
      ],
      "name": "initialize",
      "outputs": [],
      "stateMutability": "nonpayable",
      "type": "function"
    },
    {
      "inputs": [
        {
          "internalType": "string",
          "name": "uri",
          "type": "string"
        }
      ],
      "name": "initialize",
      "outputs": [],
      "stateMutability": "nonpayable",
      "type": "function"
    },
    {
      "inputs": [
        {
          "internalType": "uint256",
          "name": "id",
          "type": "uint256"
        }
      ],
      "name": "uri",
      "outputs": [
        {
          "internalType": "string",
          "name": "",
          "type": "string"
        }
      ],
      "stateMutability": "view",
      "type": "function"
    },
    {
      "inputs": [
        {
          "internalType": "address",
          "name": "_to",
          "type": "address"
        },
        {
          "internalType": "uint256",
          "name": "amount",
          "type": "uint256"
        },
        {
          "internalType": "bytes",
          "name": "data",
          "type": "bytes"
        },
        {
          "components": [
            {
              "internalType": "address payable",
              "name": "recipient",
              "type": "address"
            },
            {
              "internalType": "uint256",
              "name": "value",
              "type": "uint256"
            }
          ],
          "internalType": "struct GhostmarketERC1155.Fee[]",
          "name": "_fees",
          "type": "tuple[]"
        },
        {
          "internalType": "string",
          "name": "lockedcontent",
          "type": "string"
        }
      ],
      "name": "mintGhost",
      "outputs": [],
      "stateMutability": "payable",
      "type": "function"
    },
    {
      "inputs": [],
      "name": "getCurrentCounter",
      "outputs": [
        {
          "internalType": "uint256",
          "name": "",
          "type": "uint256"
        }
      ],
      "stateMutability": "view",
      "type": "function"
    },
    {
      "inputs": [],
      "name": "getLastTokenID",
      "outputs": [
        {
          "internalType": "uint256",
          "name": "",
          "type": "uint256"
        }
      ],
      "stateMutability": "view",
      "type": "function"
    },
    {
      "inputs": [
        {
          "internalType": "uint256",
          "name": "_tokenId",
          "type": "uint256"
        }
      ],
      "name": "getRoyalitiesRecipients",
      "outputs": [
        {
          "internalType": "address payable[]",
          "name": "",
          "type": "address[]"
        }
      ],
      "stateMutability": "view",
      "type": "function"
    },
    {
      "inputs": [
        {
          "internalType": "uint256",
          "name": "_tokenId",
          "type": "uint256"
        }
      ],
      "name": "getRoyaltyFeeBps",
      "outputs": [
        {
          "internalType": "uint256[]",
          "name": "",
          "type": "uint256[]"
        }
      ],
      "stateMutability": "view",
      "type": "function"
    },
    {
      "inputs": [
        {
          "internalType": "address payable",
          "name": "gmfa",
          "type": "address"
        }
      ],
      "name": "setGhostmarketFeeAddress",
      "outputs": [],
      "stateMutability": "nonpayable",
      "type": "function"
    },
    {
      "inputs": [
        {
          "internalType": "uint256",
          "name": "gmmf",
          "type": "uint256"
        }
      ],
      "name": "setGhostmarketMintFee",
      "outputs": [],
      "stateMutability": "nonpayable",
      "type": "function"
    },
    {
      "inputs": [],
      "name": "ghostmarketFeeAddress",
      "outputs": [
        {
          "internalType": "address payable",
          "name": "",
          "type": "address"
        }
      ],
      "stateMutability": "view",
      "type": "function"
    },
    {
      "inputs": [],
      "name": "ghostmarketMintingFee",
      "outputs": [
        {
          "internalType": "uint256",
          "name": "",
          "type": "uint256"
        }
      ],
      "stateMutability": "view",
      "type": "function"
    },
    {
      "inputs": [
        {
          "internalType": "address",
          "name": "from",
          "type": "address"
        },
        {
          "internalType": "uint256",
          "name": "_tokenId",
          "type": "uint256"
        }
      ],
      "name": "getLockedContent",
      "outputs": [],
      "stateMutability": "nonpayable",
      "type": "function"
    },
    {
      "inputs": [
        {
          "internalType": "uint256",
          "name": "_tokenId",
          "type": "uint256"
        }
      ],
      "name": "getCurrentLockedContentViewTracker",
      "outputs": [
        {
          "internalType": "uint256",
          "name": "",
          "type": "uint256"
        }
      ],
      "stateMutability": "view",
      "type": "function"
    }
  ],
  "bytecode": "0x608060405234801561001057600080fd5b50614adf806100206000396000f3fe6080604052600436106102e65760003560e01c806373448c4611610184578063d5391393116100d6578063eb2730391161008a578063f62d188811610064578063f62d1888146108ad578063fb3e09af146108cd578063fc24a8a9146108ec576102e6565b8063eb2730391461084d578063f242432a1461086d578063f5298aca1461088d576102e6565b8063dac0f3d9116100bb578063dac0f3d9146107b0578063e63ab1e9146107d0578063e985e9c514610804576102e6565b8063d53913931461075c578063d547741f14610790576102e6565b8063a217fddf11610138578063a6487c5311610112578063a6487c53146106ee578063c6f4f0f01461070e578063ca15c8731461073c576102e6565b8063a217fddf14610699578063a22cb465146106ae578063a2bc0aa5146106ce576102e6565b80639010d07c116101695780639010d07c1461060657806391d148541461063e57806395d89b4114610684576102e6565b806373448c46146105dc5780638456cb59146105f1576102e6565b80633f4ba83a1161023d5780636213801f116101f15780636c0360eb116101cb5780636c0360eb146105945780636e858d14146105a9578063731133e9146105bc576102e6565b80636213801f1461051f5780636308f1cd146105355780636b20c45414610574576102e6565b80634e5786bf116102225780634e5786bf146104c6578063529aae66146104e65780635c975abb14610506576102e6565b80633f4ba83a146104845780634e1273f414610499576102e6565b80631f7fdffa1161029f5780632f2ff15d116102795780632f2ff15d1461041757806336568abe1461043757806339efa1a114610457576102e6565b80631f7fdffa146103a5578063248a9ca3146103c75780632eb2c2d6146103f7576102e6565b806306fdde03116102d057806306fdde031461034e5780630e094137146103705780630e89341c14610385576102e6565b8062fdd58e146102eb57806301ffc9a71461031e575b600080fd5b3480156102f757600080fd5b5061030b610306366004614144565b61090c565b6040519081526020015b60405180910390f35b34801561032a57600080fd5b5061033e610339366004614499565b6109ba565b6040519015158152602001610315565b34801561035a57600080fd5b506103636109cd565b6040516103159190614856565b34801561037c57600080fd5b5061030b610a5c565b34801561039157600080fd5b506103636103a036600461443c565b610a91565b3480156103b157600080fd5b506103c56103c036600461407c565b610a9c565b005b3480156103d357600080fd5b5061030b6103e236600461443c565b60009081526065602052604090206001015490565b34801561040357600080fd5b506103c5610412366004613ef8565b610b4a565b34801561042357600080fd5b506103c5610432366004614454565b610ec1565b34801561044357600080fd5b506103c5610452366004614454565b610ee8565b34801561046357600080fd5b5061047761047236600461443c565b610f0a565b60405161031591906147c8565b34801561049057600080fd5b506103c5611064565b3480156104a557600080fd5b506104b96104b436600461436f565b61110a565b6040516103159190614815565b3480156104d257600080fd5b506103c56104e1366004614299565b611278565b3480156104f257600080fd5b5061036361050136600461443c565b611300565b34801561051257600080fd5b5061012d5460ff1661033e565b34801561052b57600080fd5b5061022b5461030b565b34801561054157600080fd5b50610555610550366004614478565b61131a565b604080516001600160a01b039093168352602083019190915201610315565b34801561058057600080fd5b506103c561058f366004614009565b611361565b3480156105a057600080fd5b506103636113e6565b6103c56105b736600461416f565b611479565b3480156105c857600080fd5b506103c56105d736600461431a565b611606565b3480156105e857600080fd5b5061030b6116ae565b3480156105fd57600080fd5b506103c56116bf565b34801561061257600080fd5b50610626610621366004614478565b611763565b6040516001600160a01b039091168152602001610315565b34801561064a57600080fd5b5061033e610659366004614454565b60009182526065602090815260408084206001600160a01b0393909316845291905290205460ff1690565b34801561069057600080fd5b50610363611782565b3480156106a557600080fd5b5061030b600081565b3480156106ba57600080fd5b506103c56106c9366004614113565b611790565b3480156106da57600080fd5b506104b96106e936600461443c565b611888565b3480156106fa57600080fd5b506103c5610709366004614504565b6119cd565b34801561071a57600080fd5b5061030b61072936600461443c565b600090815261022f602052604090205490565b34801561074857600080fd5b5061030b61075736600461443c565b611abe565b34801561076857600080fd5b5061030b7f9f2df0fed2c77648de5860a4cc508cd0818c85b8b8a1ab4ceeef8d981c8956a681565b34801561079c57600080fd5b506103c56107ab366004614454565b611ad5565b3480156107bc57600080fd5b506103c56107cb36600461443c565b611adf565b3480156107dc57600080fd5b5061030b7f65d7a28e3265b37a6474929f336521b332c1681b933f6cb9f3376673440d862a81565b34801561081057600080fd5b5061033e61081f366004613ec0565b6001600160a01b03918216600090815260ca6020908152604080832093909416825291909152205460ff1690565b34801561085957600080fd5b506103c5610868366004614144565b611b99565b34801561087957600080fd5b506103c5610888366004613fa2565b611c7e565b34801561089957600080fd5b506103c56108a83660046142e6565b611ec5565b3480156108b957600080fd5b506103c56108c83660046144d1565b611f4a565b3480156108d957600080fd5b5061022c546001600160a01b0316610626565b3480156108f857600080fd5b506103c5610907366004613ea4565b612007565b60006001600160a01b03831661098f5760405162461bcd60e51b815260206004820152602b60248201527f455243313135353a2062616c616e636520717565727920666f7220746865207a60448201527f65726f206164647265737300000000000000000000000000000000000000000060648201526084015b60405180910390fd5b50600081815260c9602090815260408083206001600160a01b03861684529091529020545b92915050565b60006109c5826120e0565b90505b919050565b61022980546109db906148fc565b80601f0160208091040260200160405190810160405280929190818152602001828054610a07906148fc565b8015610a545780601f10610a2957610100808354040283529160200191610a54565b820191906000526020600020905b815481529060010190602001808311610a3757829003601f168201915b505050505081565b6000610a686102305490565b610a7857610230545b9050610a8e565b6001610a846102305490565b610a7191906148b9565b90565b60606109c582612152565b610ac67f9f2df0fed2c77648de5860a4cc508cd0818c85b8b8a1ab4ceeef8d981c8956a633610659565b610b385760405162461bcd60e51b815260206004820152603860248201527f455243313135355072657365744d696e7465725061757365723a206d7573742060448201527f68617665206d696e74657220726f6c6520746f206d696e7400000000000000006064820152608401610986565b610b4484848484612274565b50505050565b8151835114610bac5760405162461bcd60e51b815260206004820152602860248201527f455243313135353a2069647320616e6420616d6f756e7473206c656e677468206044820152670dad2e6dac2e8c6d60c31b6064820152608401610986565b6001600160a01b038416610c105760405162461bcd60e51b815260206004820152602560248201527f455243313135353a207472616e7366657220746f20746865207a65726f206164604482015264647265737360d81b6064820152608401610986565b6001600160a01b038516331480610c2c5750610c2c853361081f565b610c9e5760405162461bcd60e51b815260206004820152603260248201527f455243313135353a207472616e736665722063616c6c6572206973206e6f742060448201527f6f776e6572206e6f7220617070726f76656400000000000000000000000000006064820152608401610986565b33610cad81878787878761246d565b60005b8451811015610e53576000858281518110610cdb57634e487b7160e01b600052603260045260246000fd5b602002602001015190506000858381518110610d0757634e487b7160e01b600052603260045260246000fd5b602090810291909101810151600084815260c9835260408082206001600160a01b038e168352909352919091205490915081811015610dae5760405162461bcd60e51b815260206004820152602a60248201527f455243313135353a20696e73756666696369656e742062616c616e636520666f60448201527f72207472616e73666572000000000000000000000000000000000000000000006064820152608401610986565b610db882826148b9565b60c9600085815260200190815260200160002060008c6001600160a01b03166001600160a01b03168152602001908152602001600020819055508160c9600085815260200190815260200160002060008b6001600160a01b03166001600160a01b031681526020019081526020016000206000828254610e38919061488d565b9250508190555050505080610e4c90614964565b9050610cb0565b50846001600160a01b0316866001600160a01b0316826001600160a01b03167f4a39dc06d4c0dbc64b70af90fd698a233a518aa5d07e595d983b8c0526c8f7fb8787604051610ea3929190614828565b60405180910390a4610eb981878787878761247b565b505050505050565b610ecb8282612630565b6000828152609760205260409020610ee390826126c9565b505050565b610ef282826126de565b6000828152609760205260409020610ee39082612766565b600081815261022d60209081526040808320805482518185028101850190935280835260609493849084015b82821015610f7e576000848152602090819020604080518082019091526002850290910180546001600160a01b03168252600190810154828401529083529092019101610f36565b5050505090506000815167ffffffffffffffff811115610fae57634e487b7160e01b600052604160045260246000fd5b604051908082528060200260200182016040528015610fd7578160200160208202803683370190505b50905060005b825181101561105c5782818151811061100657634e487b7160e01b600052603260045260246000fd5b60200260200101516000015182828151811061103257634e487b7160e01b600052603260045260246000fd5b6001600160a01b03909216602092830291909101909101528061105481614964565b915050610fdd565b509392505050565b61108e7f65d7a28e3265b37a6474929f336521b332c1681b933f6cb9f3376673440d862a33610659565b6111005760405162461bcd60e51b815260206004820152603b60248201527f455243313135355072657365744d696e7465725061757365723a206d7573742060448201527f686176652070617573657220726f6c6520746f20756e706175736500000000006064820152608401610986565b61110861277b565b565b606081518351146111835760405162461bcd60e51b815260206004820152602960248201527f455243313135353a206163636f756e747320616e6420696473206c656e67746860448201527f206d69736d6174636800000000000000000000000000000000000000000000006064820152608401610986565b6000835167ffffffffffffffff8111156111ad57634e487b7160e01b600052604160045260246000fd5b6040519080825280602002602001820160405280156111d6578160200160208202803683370190505b50905060005b845181101561105c5761123d85828151811061120857634e487b7160e01b600052603260045260246000fd5b602002602001015185838151811061123057634e487b7160e01b600052603260045260246000fd5b602002602001015161090c565b82828151811061125d57634e487b7160e01b600052603260045260246000fd5b602090810291909101015261127181614964565b90506111dc565b6001600160a01b03831633146112f65760405162461bcd60e51b815260206004820152602860248201527f455243313135353a20736574546f6b656e5552492063616c6c6572206973206e60448201527f6f74206f776e65720000000000000000000000000000000000000000000000006064820152608401610986565b610ee38282612819565b61022e60205260009081526040902080546109db906148fc565b61022d602052816000526040600020818154811061133757600080fd5b6000918252602090912060029091020180546001909101546001600160a01b039091169250905082565b6001600160a01b03831633148061137d575061137d833361081f565b6113db5760405162461bcd60e51b815260206004820152602960248201527f455243313135353a2063616c6c6572206973206e6f74206f776e6572206e6f7260448201526808185c1c1c9bdd995960ba1b6064820152608401610986565b610ee383838361287e565b60606101f680546113f6906148fc565b80601f0160208091040260200160405190810160405280929190818152602001828054611422906148fc565b801561146f5780601f106114445761010080835404028352916020019161146f565b820191906000526020600020905b81548152906001019060200180831161145257829003601f168201915b5050505050905090565b60026101c35414156114cd5760405162461bcd60e51b815260206004820152601f60248201527f5265656e7472616e637947756172643a207265656e7472616e742063616c6c006044820152606401610986565b60026101c3556114e8856114e16102305490565b8686611606565b8151156115385781516001146114fd57600080fd5b61153861150a6102305490565b8360008151811061152b57634e487b7160e01b600052603260045260246000fd5b6020026020010151612af1565b61022b541561154a5761154a84612c3d565b604080516000815260208101808352815190209161156a918491016145e4565b6040516020818303038152906040528051906020012014611598576115986115926102305490565b82612df1565b7ff5c82eda717141c5f0cfeb894e7b7819c158a337b62ec13d412aecad30b0ad9e856115c46102305490565b6115d16103a06102305490565b876040516115e294939291906146d0565b60405180910390a16115f961023080546001019055565b505060016101c355505050565b6116307f9f2df0fed2c77648de5860a4cc508cd0818c85b8b8a1ab4ceeef8d981c8956a633610659565b6116a25760405162461bcd60e51b815260206004820152603860248201527f455243313135355072657365744d696e7465725061757365723a206d7573742060448201527f68617665206d696e74657220726f6c6520746f206d696e7400000000000000006064820152608401610986565b610b4484848484612e11565b60006116ba6102305490565b905090565b6116e97f65d7a28e3265b37a6474929f336521b332c1681b933f6cb9f3376673440d862a33610659565b61175b5760405162461bcd60e51b815260206004820152603960248201527f455243313135355072657365744d696e7465725061757365723a206d7573742060448201527f686176652070617573657220726f6c6520746f207061757365000000000000006064820152608401610986565b611108612f14565b600082815260976020526040812061177b9083612f9e565b9392505050565b61022a80546109db906148fc565b336001600160a01b038316141561180f5760405162461bcd60e51b815260206004820152602960248201527f455243313135353a2073657474696e6720617070726f76616c2073746174757360448201527f20666f722073656c6600000000000000000000000000000000000000000000006064820152608401610986565b33600081815260ca602090815260408083206001600160a01b0387168085529252909120805460ff1916841515179055906001600160a01b03167f17307eab39ab6107e8899845ad3d59bd9653f200f220920489ca2b5937696c318360405161187c911515815260200190565b60405180910390a35050565b600081815261022d60209081526040808320805482518185028101850190935280835260609493849084015b828210156118fc576000848152602090819020604080518082019091526002850290910180546001600160a01b031682526001908101548284015290835290920191016118b4565b5050505090506000815167ffffffffffffffff81111561192c57634e487b7160e01b600052604160045260246000fd5b604051908082528060200260200182016040528015611955578160200160208202803683370190505b50905060005b825181101561105c5782818151811061198457634e487b7160e01b600052603260045260246000fd5b6020026020010151602001518282815181106119b057634e487b7160e01b600052603260045260246000fd5b6020908102919091010152806119c581614964565b91505061195b565b600054610100900460ff16806119e6575060005460ff16155b611a495760405162461bcd60e51b815260206004820152602e60248201527f496e697469616c697a61626c653a20636f6e747261637420697320616c72656160448201526d191e481a5b9a5d1a585b1a5e995960921b6064820152608401610986565b600054610100900460ff16158015611a6b576000805461ffff19166101011790555b611a7482612faa565b611a7d82613051565b8351611a9190610229906020870190613d28565b508251611aa69061022a906020860190613d28565b508015610b44576000805461ff001916905550505050565b60008181526097602052604081206109c59061314f565b610ef28282613159565b611aea600033610659565b611b5c5760405162461bcd60e51b815260206004820152603660248201527f43616c6c6572206d75737420686176652061646d696e20726f6c6520746f207360448201527f6574206d696e74696e67206665652070657263656e74000000000000000000006064820152608401610986565b61022b8190556040518181527fe28e57f6cdaccbb98c150b646656c0178b4b67253ae73deaba3b9c76525b987e906020015b60405180910390a150565b6001600160a01b038216331480611bb55750611bb5823361081f565b611c275760405162461bcd60e51b815260206004820152603f60248201527f455243313135353a2063616c6c6572206973206e6f74206f776e6572206e6f7260448201527f20617070726f76656420746f20676574206c6f636b656420636f6e74656e74006064820152608401610986565b611c30816131e6565b600081815261022e60205260409081902090517f544b1d1249133c50ce89743ed1ca34a815bd50d42b71e6d331a1ac560013a8ec91611c729133918591614709565b60405180910390a15050565b6001600160a01b038416611ce25760405162461bcd60e51b815260206004820152602560248201527f455243313135353a207472616e7366657220746f20746865207a65726f206164604482015264647265737360d81b6064820152608401610986565b6001600160a01b038516331480611cfe5750611cfe853361081f565b611d5c5760405162461bcd60e51b815260206004820152602960248201527f455243313135353a2063616c6c6572206973206e6f74206f776e6572206e6f7260448201526808185c1c1c9bdd995960ba1b6064820152608401610986565b33611d7b818787611d6c88613214565b611d7588613214565b8761246d565b600084815260c9602090815260408083206001600160a01b038a16845290915290205483811015611e145760405162461bcd60e51b815260206004820152602a60248201527f455243313135353a20696e73756666696369656e742062616c616e636520666f60448201527f72207472616e73666572000000000000000000000000000000000000000000006064820152608401610986565b611e1e84826148b9565b600086815260c9602090815260408083206001600160a01b038c81168552925280832093909355881681529081208054869290611e5c90849061488d565b909155505060408051868152602081018690526001600160a01b03808916928a821692918616917fc3d58168c5ae7397731d063d5bbf3d657854427343f4c083240f7aacaa2d0f62910160405180910390a4611ebc82888888888861326d565b50505050505050565b6001600160a01b038316331480611ee15750611ee1833361081f565b611f3f5760405162461bcd60e51b815260206004820152602960248201527f455243313135353a2063616c6c6572206973206e6f74206f776e6572206e6f7260448201526808185c1c1c9bdd995960ba1b6064820152608401610986565b610ee3838383613378565b600054610100900460ff1680611f63575060005460ff16155b611fc65760405162461bcd60e51b815260206004820152602e60248201527f496e697469616c697a61626c653a20636f6e747261637420697320616c72656160448201526d191e481a5b9a5d1a585b1a5e995960921b6064820152608401610986565b600054610100900460ff16158015611fe8576000805461ffff19166101011790555b611ff1826134fd565b8015612003576000805461ff00191690555b5050565b612012600033610659565b6120845760405162461bcd60e51b815260206004820152603660248201527f43616c6c6572206d75737420686176652061646d696e20726f6c6520746f207360448201527f6574206d696e74696e67206665652061646472657373000000000000000000006064820152608401610986565b61022c805473ffffffffffffffffffffffffffffffffffffffff19166001600160a01b0383169081179091556040519081527f42e58c2251766d60a378c8984cb15020e19218cae37fa9e7556ce617200f685190602001611b8e565b60006001600160e01b031982167fd9b67a2600000000000000000000000000000000000000000000000000000000148061214357506001600160e01b031982167f0e89341c00000000000000000000000000000000000000000000000000000000145b806109c557506109c5826135e5565b60008181526101f56020526040812080546060929190612171906148fc565b80601f016020809104026020016040519081016040528092919081815260200182805461219d906148fc565b80156121ea5780601f106121bf576101008083540402835291602001916121ea565b820191906000526020600020905b8154815290600101906020018083116121cd57829003601f168201915b5050505050905060006121fb6113e6565b905080516000141561220f575090506109c8565b815115612241578082604051602001612229929190614600565b604051602081830303815290604052925050506109c8565b8061224b85613623565b60405160200161225c929190614600565b60405160208183030381529060405292505050919050565b6001600160a01b0384166122d45760405162461bcd60e51b815260206004820152602160248201527f455243313135353a206d696e7420746f20746865207a65726f206164647265736044820152607360f81b6064820152608401610986565b81518351146123365760405162461bcd60e51b815260206004820152602860248201527f455243313135353a2069647320616e6420616d6f756e7473206c656e677468206044820152670dad2e6dac2e8c6d60c31b6064820152608401610986565b336123468160008787878761246d565b60005b84518110156123fe5783818151811061237257634e487b7160e01b600052603260045260246000fd5b602002602001015160c9600087848151811061239e57634e487b7160e01b600052603260045260246000fd5b602002602001015181526020019081526020016000206000886001600160a01b03166001600160a01b0316815260200190815260200160002060008282546123e6919061488d565b909155508190506123f681614964565b915050612349565b50846001600160a01b031660006001600160a01b0316826001600160a01b03167f4a39dc06d4c0dbc64b70af90fd698a233a518aa5d07e595d983b8c0526c8f7fb878760405161244f929190614828565b60405180910390a46124668160008787878761247b565b5050505050565b610eb986868686868661377a565b6001600160a01b0384163b15610eb95760405163bc197c8160e01b81526001600160a01b0385169063bc197c81906124bf908990899088908890889060040161462f565b602060405180830381600087803b1580156124d957600080fd5b505af1925050508015612509575060408051601f3d908101601f19168201909252612506918101906144b5565b60015b6125bf576125156149d5565b806308c379a0141561254f575061252a6149ec565b806125355750612551565b8060405162461bcd60e51b81526004016109869190614856565b505b60405162461bcd60e51b815260206004820152603460248201527f455243313135353a207472616e7366657220746f206e6f6e204552433131353560448201527f526563656976657220696d706c656d656e7465720000000000000000000000006064820152608401610986565b6001600160e01b0319811663bc197c8160e01b14611ebc5760405162461bcd60e51b815260206004820152602860248201527f455243313135353a204552433131353552656365697665722072656a656374656044820152676420746f6b656e7360c01b6064820152608401610986565b60008281526065602052604090206001015461264d905b33610659565b6126bf5760405162461bcd60e51b815260206004820152602f60248201527f416363657373436f6e74726f6c3a2073656e646572206d75737420626520616e60448201527f2061646d696e20746f206772616e7400000000000000000000000000000000006064820152608401610986565b61200382826137f4565b600061177b836001600160a01b038416613896565b6001600160a01b038116331461275c5760405162461bcd60e51b815260206004820152602f60248201527f416363657373436f6e74726f6c3a2063616e206f6e6c792072656e6f756e636560448201527f20726f6c657320666f722073656c6600000000000000000000000000000000006064820152608401610986565b61200382826138e5565b600061177b836001600160a01b038416613968565b61012d5460ff166127ce5760405162461bcd60e51b815260206004820152601460248201527f5061757361626c653a206e6f74207061757365640000000000000000000000006044820152606401610986565b61012d805460ff191690557f5db9ee0a495bf2e6ff9c91a7834c1ba4fdd244a5e8aa4e537bd38aeae4b073aa335b6040516001600160a01b03909116815260200160405180910390a1565b60008281526101f560209081526040909120825161283992840190613d28565b50817fcc97081f81b4b2f5a92ce4ddf4353f31dbe1b60abf5418b03483604c8578778e61286584612152565b6040516128729190614856565b60405180910390a25050565b6001600160a01b0383166128e05760405162461bcd60e51b815260206004820152602360248201527f455243313135353a206275726e2066726f6d20746865207a65726f206164647260448201526265737360e81b6064820152608401610986565b80518251146129425760405162461bcd60e51b815260206004820152602860248201527f455243313135353a2069647320616e6420616d6f756e7473206c656e677468206044820152670dad2e6dac2e8c6d60c31b6064820152608401610986565b60003390506129658185600086866040518060200160405280600081525061246d565b60005b8351811015612a9257600084828151811061299357634e487b7160e01b600052603260045260246000fd5b6020026020010151905060008483815181106129bf57634e487b7160e01b600052603260045260246000fd5b602090810291909101810151600084815260c9835260408082206001600160a01b038c168352909352919091205490915081811015612a4c5760405162461bcd60e51b8152602060048201526024808201527f455243313135353a206275726e20616d6f756e7420657863656564732062616c604482015263616e636560e01b6064820152608401610986565b612a5682826148b9565b600093845260c9602090815260408086206001600160a01b038c1687529091529093209290925550819050612a8a81614964565b915050612968565b5060006001600160a01b0316846001600160a01b0316826001600160a01b03167f4a39dc06d4c0dbc64b70af90fd698a233a518aa5d07e595d983b8c0526c8f7fb8686604051612ae3929190614828565b60405180910390a450505050565b80516001600160a01b0316612b485760405162461bcd60e51b815260206004820152601b60248201527f526563697069656e742073686f756c642062652070726573656e7400000000006044820152606401610986565b6000816020015111612b9c5760405162461bcd60e51b815260206004820152601c60248201527f4665652076616c75652073686f756c6420626520706f736974697665000000006044820152606401610986565b600082815261022d6020908152604080832080546001818101835591855293839020855160029095020180546001600160a01b03861673ffffffffffffffffffffffffffffffffffffffff19909116178155928501519201829055517ff9e8661d7e25970eeccfde99d05253707d99e0ceb0b9c73f1549374310ec34a592611c72928683526001600160a01b03919091166020830152604082015260600190565b61022c546001600160a01b0316612cbc5760405162461bcd60e51b815260206004820152602760248201527f47686f73746d61726b6574206d696e74696e672046656520416464726573732060448201527f6e6f7420736574000000000000000000000000000000000000000000000000006064820152608401610986565b600061022b5411612d0f5760405162461bcd60e51b815260206004820152601f60248201527f47686f73746d61726b6574206d696e74696e6720466565206973207a65726f006044820152606401610986565b61022c5461022b546040516000926001600160a01b031691908381818185875af1925050503d8060008114612d60576040519150601f19603f3d011682016040523d82523d6000602084013e612d65565b606091505b5050905080612db65760405162461bcd60e51b815260206004820152601060248201527f5472616e73666572206661696c65642e000000000000000000000000000000006044820152606401610986565b61022b546040805133815260208101929092527ff867832f09d3df16244ef05b595ad6197c4fc2da636495ff70035f1acdf2ba0a9101611c72565b600082815261022e602090815260409091208251610ee392840190613d28565b6001600160a01b038416612e715760405162461bcd60e51b815260206004820152602160248201527f455243313135353a206d696e7420746f20746865207a65726f206164647265736044820152607360f81b6064820152608401610986565b33612e8281600087611d6c88613214565b600084815260c9602090815260408083206001600160a01b038916845290915281208054859290612eb490849061488d565b909155505060408051858152602081018590526001600160a01b0380881692600092918516917fc3d58168c5ae7397731d063d5bbf3d657854427343f4c083240f7aacaa2d0f62910160405180910390a46124668160008787878761326d565b61012d5460ff1615612f685760405162461bcd60e51b815260206004820152601060248201527f5061757361626c653a20706175736564000000000000000000000000000000006044820152606401610986565b61012d805460ff191660011790557f62e78cea01bee320cd4e420270b5ea74000d11b0c9f74754ebdbfc544b05a2586127fc3390565b600061177b8383613a85565b600054610100900460ff1680612fc3575060005460ff16155b6130265760405162461bcd60e51b815260206004820152602e60248201527f496e697469616c697a61626c653a20636f6e747261637420697320616c72656160448201526d191e481a5b9a5d1a585b1a5e995960921b6064820152608401610986565b600054610100900460ff16158015613048576000805461ffff19166101011790555b611ff182613b34565b600054610100900460ff168061306a575060005460ff16155b6130cd5760405162461bcd60e51b815260206004820152602e60248201527f496e697469616c697a61626c653a20636f6e747261637420697320616c72656160448201526d191e481a5b9a5d1a585b1a5e995960921b6064820152608401610986565b600054610100900460ff161580156130ef576000805461ffff19166101011790555b6130fb6000335b613b47565b6131257f9f2df0fed2c77648de5860a4cc508cd0818c85b8b8a1ab4ceeef8d981c8956a6336130f6565b611ff17f65d7a28e3265b37a6474929f336521b332c1681b933f6cb9f3376673440d862a336130f6565b60006109c5825490565b60008281526065602052604090206001015461317490612647565b61275c5760405162461bcd60e51b815260206004820152603060248201527f416363657373436f6e74726f6c3a2073656e646572206d75737420626520616e60448201527f2061646d696e20746f207265766f6b65000000000000000000000000000000006064820152608401610986565b600081815261022f602052604090205461320190600161488d565b600091825261022f602052604090912055565b6040805160018082528183019092526060916000919060208083019080368337019050509050828160008151811061325c57634e487b7160e01b600052603260045260246000fd5b602090810291909101015292915050565b6001600160a01b0384163b15610eb95760405163f23a6e6160e01b81526001600160a01b0385169063f23a6e61906132b1908990899088908890889060040161468d565b602060405180830381600087803b1580156132cb57600080fd5b505af19250505080156132fb575060408051601f3d908101601f191682019092526132f8918101906144b5565b60015b613307576125156149d5565b6001600160e01b0319811663f23a6e6160e01b14611ebc5760405162461bcd60e51b815260206004820152602860248201527f455243313135353a204552433131353552656365697665722072656a656374656044820152676420746f6b656e7360c01b6064820152608401610986565b6001600160a01b0383166133da5760405162461bcd60e51b815260206004820152602360248201527f455243313135353a206275726e2066726f6d20746865207a65726f206164647260448201526265737360e81b6064820152608401610986565b33613409818560006133eb87613214565b6133f487613214565b6040518060200160405280600081525061246d565b600083815260c9602090815260408083206001600160a01b0388168452909152902054828110156134885760405162461bcd60e51b8152602060048201526024808201527f455243313135353a206275726e20616d6f756e7420657863656564732062616c604482015263616e636560e01b6064820152608401610986565b61349283826148b9565b600085815260c9602090815260408083206001600160a01b038a811680865291845282852095909555815189815292830188905292938616917fc3d58168c5ae7397731d063d5bbf3d657854427343f4c083240f7aacaa2d0f62910160405180910390a45050505050565b600054610100900460ff1680613516575060005460ff16155b6135795760405162461bcd60e51b815260206004820152602e60248201527f496e697469616c697a61626c653a20636f6e747261637420697320616c72656160448201526d191e481a5b9a5d1a585b1a5e995960921b6064820152608401610986565b600054610100900460ff1615801561359b576000805461ffff19166101011790555b6135a3613b51565b6135ab613b51565b6135b3613b51565b6135bb613b51565b6135c482612faa565b6135cc613b51565b6135d4613c04565b6135dc613b51565b611ff182613051565b60006001600160e01b031982167f5a05180f0000000000000000000000000000000000000000000000000000000014806109c557506109c582613cc1565b606081613664575060408051808201909152600181527f300000000000000000000000000000000000000000000000000000000000000060208201526109c8565b8160005b811561368e578061367881614964565b91506136879050600a836148a5565b9150613668565b60008167ffffffffffffffff8111156136b757634e487b7160e01b600052604160045260246000fd5b6040519080825280601f01601f1916602001820160405280156136e1576020820181803683370190505b5090505b8415613772576136f66001836148b9565b9150613703600a8661497f565b61370e90603061488d565b60f81b81838151811061373157634e487b7160e01b600052603260045260246000fd5b60200101907effffffffffffffffffffffffffffffffffffffffffffffffffffffffffffff1916908160001a90535061376b600a866148a5565b94506136e5565b949350505050565b61012d5460ff1615610eb95760405162461bcd60e51b815260206004820152602c60248201527f455243313135355061757361626c653a20746f6b656e207472616e736665722060448201527f7768696c652070617573656400000000000000000000000000000000000000006064820152608401610986565b60008281526065602090815260408083206001600160a01b038516845290915290205460ff166120035760008281526065602090815260408083206001600160a01b03851684529091529020805460ff191660011790556138523390565b6001600160a01b0316816001600160a01b0316837f2f8788117e7eff1d82e926ec794901d17c78024a50270940304540a733656f0d60405160405180910390a45050565b60008181526001830160205260408120546138dd575081546001818101845560008481526020808220909301849055845484825282860190935260409020919091556109b4565b5060006109b4565b60008281526065602090815260408083206001600160a01b038516845290915290205460ff16156120035760008281526065602090815260408083206001600160a01b0385168085529252808320805460ff1916905551339285917ff6391f5c32d9c69d2a47ea670b442974b53935d1edc7fd64eb21e047a839171b9190a45050565b60008181526001830160205260408120548015613a7b57600061398c6001836148b9565b85549091506000906139a0906001906148b9565b905060008660000182815481106139c757634e487b7160e01b600052603260045260246000fd5b90600052602060002001549050808760000184815481106139f857634e487b7160e01b600052603260045260246000fd5b600091825260209091200155613a0f83600161488d565b60008281526001890160205260409020558654879080613a3f57634e487b7160e01b600052603160045260246000fd5b600190038181906000526020600020016000905590558660010160008781526020019081526020016000206000905560019450505050506109b4565b60009150506109b4565b81546000908210613afe5760405162461bcd60e51b815260206004820152602260248201527f456e756d657261626c655365743a20696e646578206f7574206f6620626f756e60448201527f64730000000000000000000000000000000000000000000000000000000000006064820152608401610986565b826000018281548110613b2157634e487b7160e01b600052603260045260246000fd5b9060005260206000200154905092915050565b80516120039060cb906020840190613d28565b610ecb82826126bf565b600054610100900460ff1680613b6a575060005460ff16155b613bcd5760405162461bcd60e51b815260206004820152602e60248201527f496e697469616c697a61626c653a20636f6e747261637420697320616c72656160448201526d191e481a5b9a5d1a585b1a5e995960921b6064820152608401610986565b600054610100900460ff16158015613bef576000805461ffff19166101011790555b8015613c01576000805461ff00191690555b50565b600054610100900460ff1680613c1d575060005460ff16155b613c805760405162461bcd60e51b815260206004820152602e60248201527f496e697469616c697a61626c653a20636f6e747261637420697320616c72656160448201526d191e481a5b9a5d1a585b1a5e995960921b6064820152608401610986565b600054610100900460ff16158015613ca2576000805461ffff19166101011790555b61012d805460ff191690558015613c01576000805461ff001916905550565b60006001600160e01b031982167f7965db0b0000000000000000000000000000000000000000000000000000000014806109c557507f01ffc9a7000000000000000000000000000000000000000000000000000000006001600160e01b03198316146109c5565b828054613d34906148fc565b90600052602060002090601f016020900481019282613d565760008555613d9c565b82601f10613d6f57805160ff1916838001178555613d9c565b82800160010185558215613d9c579182015b82811115613d9c578251825591602001919060010190613d81565b50613da8929150613dac565b5090565b5b80821115613da85760008155600101613dad565b600082601f830112613dd1578081fd5b81356020613dde82614869565b604051613deb8282614937565b8381528281019150858301600585901b87018401881015613e0a578586fd5b855b85811015613e2857813584529284019290840190600101613e0c565b5090979650505050505050565b600082601f830112613e45578081fd5b813567ffffffffffffffff811115613e5f57613e5f6149bf565b604051613e76601f8301601f191660200182614937565b818152846020838601011115613e8a578283fd5b816020850160208301379081016020019190915292915050565b600060208284031215613eb5578081fd5b813561177b81614a7e565b60008060408385031215613ed2578081fd5b8235613edd81614a7e565b91506020830135613eed81614a7e565b809150509250929050565b600080600080600060a08688031215613f0f578081fd5b8535613f1a81614a7e565b94506020860135613f2a81614a7e565b9350604086013567ffffffffffffffff80821115613f46578283fd5b613f5289838a01613dc1565b94506060880135915080821115613f67578283fd5b613f7389838a01613dc1565b93506080880135915080821115613f88578283fd5b50613f9588828901613e35565b9150509295509295909350565b600080600080600060a08688031215613fb9578081fd5b8535613fc481614a7e565b94506020860135613fd481614a7e565b93506040860135925060608601359150608086013567ffffffffffffffff811115613ffd578182fd5b613f9588828901613e35565b60008060006060848603121561401d578081fd5b833561402881614a7e565b9250602084013567ffffffffffffffff80821115614044578283fd5b61405087838801613dc1565b93506040860135915080821115614065578283fd5b5061407286828701613dc1565b9150509250925092565b60008060008060808587031215614091578182fd5b843561409c81614a7e565b9350602085013567ffffffffffffffff808211156140b8578384fd5b6140c488838901613dc1565b945060408701359150808211156140d9578384fd5b6140e588838901613dc1565b935060608701359150808211156140fa578283fd5b5061410787828801613e35565b91505092959194509250565b60008060408385031215614125578182fd5b823561413081614a7e565b915060208301358015158114613eed578182fd5b60008060408385031215614156578182fd5b823561416181614a7e565b946020939093013593505050565b600080600080600060a08688031215614186578283fd5b853561419181614a7e565b94506020868101359450604087013567ffffffffffffffff808211156141b5578586fd5b6141c18a838b01613e35565b955060608901359150808211156141d6578384fd5b818901915089601f8301126141e9578384fd5b81356141f481614869565b6040516142018282614937565b8281528581019150848601600684901b860187018e1015614220578788fd5b8795505b83861015614273576040818f03121561423b578788fd5b604051614249604082614937565b813561425481614a7e565b8152818801358882015283526001959095019491860191604001614224565b5096505050608089013592508083111561428b578384fd5b5050613f9588828901613e35565b6000806000606084860312156142ad578081fd5b83356142b881614a7e565b925060208401359150604084013567ffffffffffffffff8111156142da578182fd5b61407286828701613e35565b6000806000606084860312156142fa578081fd5b833561430581614a7e565b95602085013595506040909401359392505050565b6000806000806080858703121561432f578182fd5b843561433a81614a7e565b93506020850135925060408501359150606085013567ffffffffffffffff811115614363578182fd5b61410787828801613e35565b60008060408385031215614381578182fd5b823567ffffffffffffffff80821115614398578384fd5b818501915085601f8301126143ab578384fd5b813560206143b882614869565b6040516143c58282614937565b8381528281019150858301600585901b870184018b10156143e4578889fd5b8896505b8487101561440f5780356143fb81614a7e565b8352600196909601959183019183016143e8565b5096505086013592505080821115614425578283fd5b5061443285828601613dc1565b9150509250929050565b60006020828403121561444d578081fd5b5035919050565b60008060408385031215614466578182fd5b823591506020830135613eed81614a7e565b6000806040838503121561448a578182fd5b50508035926020909101359150565b6000602082840312156144aa578081fd5b813561177b81614a93565b6000602082840312156144c6578081fd5b815161177b81614a93565b6000602082840312156144e2578081fd5b813567ffffffffffffffff8111156144f8578182fd5b61377284828501613e35565b600080600060608486031215614518578081fd5b833567ffffffffffffffff8082111561452f578283fd5b61453b87838801613e35565b94506020860135915080821115614550578283fd5b61455c87838801613e35565b93506040860135915080821115614571578283fd5b5061407286828701613e35565b6000815180845260208085019450808401835b838110156145ad57815187529582019590820190600101614591565b509495945050505050565b600081518084526145d08160208601602086016148d0565b601f01601f19169290920160200192915050565b600082516145f68184602087016148d0565b9190910192915050565b600083516146128184602088016148d0565b8351908301906146268183602088016148d0565b01949350505050565b60006001600160a01b03808816835280871660208401525060a0604083015261465b60a083018661457e565b828103606084015261466d818661457e565b9050828103608084015261468181856145b8565b98975050505050505050565b60006001600160a01b03808816835280871660208401525084604083015283606083015260a060808301526146c560a08301846145b8565b979650505050505050565b60006001600160a01b0386168252846020830152608060408301526146f860808301856145b8565b905082606083015295945050505050565b60006001600160a01b0385168252602084818401526060604084015281845483600182811c91508083168061473f57607f831692505b85831081141561475d57634e487b7160e01b87526022600452602487fd5b606088018390526080880181801561477c576001811461478d576147b7565b60ff198616825287820196506147b7565b60008b815260209020895b868110156147b157815484820152908501908901614798565b83019750505b50949b9a5050505050505050505050565b6020808252825182820181905260009190848201906040850190845b818110156148095783516001600160a01b0316835292840192918401916001016147e4565b50909695505050505050565b60006020825261177b602083018461457e565b60006040825261483b604083018561457e565b828103602084015261484d818561457e565b95945050505050565b60006020825261177b60208301846145b8565b600067ffffffffffffffff821115614883576148836149bf565b5060051b60200190565b600082198211156148a0576148a0614993565b500190565b6000826148b4576148b46149a9565b500490565b6000828210156148cb576148cb614993565b500390565b60005b838110156148eb5781810151838201526020016148d3565b83811115610b445750506000910152565b600181811c9082168061491057607f821691505b6020821081141561493157634e487b7160e01b600052602260045260246000fd5b50919050565b601f8201601f1916810167ffffffffffffffff8111828210171561495d5761495d6149bf565b6040525050565b600060001982141561497857614978614993565b5060010190565b60008261498e5761498e6149a9565b500690565b634e487b7160e01b600052601160045260246000fd5b634e487b7160e01b600052601260045260246000fd5b634e487b7160e01b600052604160045260246000fd5b600060033d1115610a8e57600481823e5160e01c90565b600060443d10156149fc57610a8e565b6040516003193d81016004833e81513d67ffffffffffffffff8160248401118184111715614a2e575050505050610a8e565b8285019150815181811115614a4857505050505050610a8e565b843d8701016020828501011115614a6457505050505050610a8e565b614a7360208286010187614937565b509094505050505090565b6001600160a01b0381168114613c0157600080fd5b6001600160e01b031981168114613c0157600080fdfea26469706673582212206b04d0075858a837219abae38e3b1a530a758bdc68f052ec417b86c0f903f08364736f6c63430008030033",
  "immutableReferences": {},
  "source": "// SPDX-License-Identifier: MIT\n\npragma solidity ^0.8.3;\n\nimport \"@openzeppelin/contracts-upgradeable/token/ERC1155/presets/ERC1155PresetMinterPauserUpgradeable.sol\";\nimport \"@openzeppelin/contracts-upgradeable/utils/CountersUpgradeable.sol\";\nimport \"@openzeppelin/contracts-upgradeable/security/ReentrancyGuardUpgradeable.sol\";\nimport \"./ERC1155BaseURI.sol\";\n\n/**\n * @dev ERC1155 token with minting, burning, pause, secondary sales royalitiy functions.\n *\n */\n\ncontract GhostmarketERC1155 is\n    Initializable,\n    ERC1155PresetMinterPauserUpgradeable,\n    ReentrancyGuardUpgradeable,\n    ERC1155BaseURI\n{\n    string public name;\n    string public symbol;\n\n    // minting fee\n    uint256 private _ghostmarketMintingFee;\n\n    //address where the transfer fees will be sent\n    address payable private _ghostmarketFeeAddress;\n\n    // struct for secondary sales fees\n    struct Fee {\n        address payable recipient;\n        uint256 value;\n    }\n\n    // tokenId => fees array\n    mapping(uint256 => Fee[]) public fees;\n\n    // tokenId => locked content string\n    mapping(uint256 => string) public _lockedContent;\n    // tokenId => locked content view counter\n    mapping(uint256 => uint256) private _lockedContentViewTracker;\n\n    event SecondarySaleFees(uint256 tokenId, address recipients, uint256 bps);\n    event RoyalitiesAccountChanged(uint256 tokenId, address from, address to);\n    event RoyalitiesFeeValueChanged(uint256 tokenId, uint256 value);\n    event GhostmarketFeeAddressChanged(address newValue);\n    event GhostmarketMintFeeChanged(uint256 newValue);\n    event GhostmarketFeePaid(address sender, uint256 value);\n    event LockedContentViewed(\n        address msgSender,\n        uint256 tokenId,\n        string lockedContent\n    );\n    event Minted(\n        address toAddress,\n        uint256 tokenId,\n        string tokenURI,\n        uint256 amount\n    );\n\n    function initialize(\n        string memory _name,\n        string memory _symbol,\n        string memory uri\n    ) public virtual initializer {\n        __ERC1155_init_unchained(uri);\n        __ERC1155PresetMinterPauser_init_unchained(uri);\n        name = _name;\n        symbol = _symbol;\n    }\n\n    using CountersUpgradeable for CountersUpgradeable.Counter;\n\n    // _tokenIdTracker to gnerate automated tocken IDs\n    CountersUpgradeable.Counter private _tokenIdTracker;\n\n    function uri(uint256 id) public view virtual override(ERC1155BaseURI, ERC1155Upgradeable) returns (string memory) {\n        return _tokenURI(id);\n    }\n\n    /**\n     * @dev mint ERC1155 tokens with optional royalities, minting fee and locked content\n     */\n    function mintGhost(\n        address _to,\n        uint256 amount,\n        bytes memory data,\n        Fee[] memory _fees,\n        string memory lockedcontent\n    ) public payable nonReentrant {\n        super.mint(_to, _tokenIdTracker.current(), amount, data);\n        //_setTokenURI(_tokenIdTracker.current(), _tokenIdTracker.current());\n        if (_fees.length > 0) {\n            //fees array length should be 1 for single mint,\n            require(_fees.length == 1);\n            _saveRoyaltyFee(_tokenIdTracker.current(), _fees[0]);\n        }\n        if (_ghostmarketMintingFee > 0) {\n            _sendMintingFee(amount);\n        }\n        if (\n            keccak256(abi.encodePacked(lockedcontent)) !=\n            keccak256(abi.encodePacked(\"\"))\n        ) {\n            setLockedContent(_tokenIdTracker.current(), lockedcontent);\n        }\n        emit Minted(_to, _tokenIdTracker.current(), uri(_tokenIdTracker.current()), amount);\n        _tokenIdTracker.increment();\n    }\n\n    /**\n     * @dev current _tokenIdTracker\n     */\n    function getCurrentCounter() public view returns (uint256) {\n        return _tokenIdTracker.current();\n    }\n\n    /**\n     * @dev get last minted token id /  _tokenIdTracker\n     */\n    function getLastTokenID() public view returns (uint256) {\n        if (_tokenIdTracker.current() == 0) {\n            return _tokenIdTracker.current();\n        } else return _tokenIdTracker.current() - 1;\n    }\n\n    /**\n     * @dev get the \"secondary sales\"/royalities fee recepients with the tokenId\n     */\n    function getRoyalitiesRecipients(uint256 _tokenId)\n        public\n        view\n        returns (address payable[] memory)\n    {\n        Fee[] memory _fees = fees[_tokenId];\n        address payable[] memory result = new address payable[](_fees.length);\n        for (uint256 i = 0; i < _fees.length; i++) {\n            result[i] = _fees[i].recipient;\n        }\n        return result;\n    }\n\n    /**\n     * @dev get the \"secondary sales\"/royalities fee for the NFT id\n     * fee basis points 10000 = 100%\n     */\n    function getRoyaltyFeeBps(uint256 _tokenId)\n        public\n        view\n        returns (uint256[] memory)\n    {\n        Fee[] memory _fees = fees[_tokenId];\n        uint256[] memory result = new uint256[](_fees.length);\n        for (uint256 i = 0; i < _fees.length; i++) {\n            result[i] = _fees[i].value;\n        }\n        return result;\n    }\n\n    /**\n     * @dev save the \"secondary sales\"/royalities fee for the NFT id\n     * fee basis points 10000 = 100%\n     */\n    function _saveRoyaltyFee(uint256 _tokenId, Fee memory _fee) internal {\n        require(_fee.recipient != address(0x0), \"Recipient should be present\");\n        require(_fee.value > 0, \"Fee value should be positive\");\n        fees[_tokenId].push(_fee);\n        emit SecondarySaleFees(_tokenId, _fee.recipient, _fee.value);\n    }\n\n    /**\n     * @dev send minting fee to Ghostmarket\n     */\n    function _sendMintingFee(uint256 nftAmount) internal {\n        require(\n            _ghostmarketFeeAddress != address(0),\n            \"Ghostmarket minting Fee Address not set\"\n        );\n        require(_ghostmarketMintingFee > 0, \"Ghostmarket minting Fee is zero\");\n        (bool success, ) = _ghostmarketFeeAddress.call{value: _ghostmarketMintingFee}(\"\");\n        require(success, \"Transfer failed.\");\n        emit GhostmarketFeePaid(msg.sender, _ghostmarketMintingFee);\n    }\n\n    /**\n     * @dev set the wallet address where fees will be collected\n     */\n    function setGhostmarketFeeAddress(address payable gmfa) public {\n        require(\n            hasRole(DEFAULT_ADMIN_ROLE, _msgSender()),\n            \"Caller must have admin role to set minting fee address\"\n        );\n\n        _ghostmarketFeeAddress = gmfa;\n        emit GhostmarketFeeAddressChanged(_ghostmarketFeeAddress);\n    }\n\n    /**\n     * @dev sets the transfer fee\n     */\n    function setGhostmarketMintFee(uint256 gmmf) public {\n        require(\n            hasRole(DEFAULT_ADMIN_ROLE, _msgSender()),\n            \"Caller must have admin role to set minting fee percent\"\n        );\n        _ghostmarketMintingFee = gmmf;\n        emit GhostmarketMintFeeChanged(_ghostmarketMintingFee);\n    }\n\n    /**\n     * @return the ghostmarketFeeAddress\n     */\n    function ghostmarketFeeAddress() public view returns (address payable) {\n        return _ghostmarketFeeAddress;\n    }\n\n    /**\n     * @return the ghostmarketMintingFee.\n     */\n    function ghostmarketMintingFee() public view returns (uint256) {\n        return _ghostmarketMintingFee;\n    }\n\n    /**\n     * @dev save locked content as string for a specific _tokenId.\n     */\n    function setLockedContent(uint256 _tokenId, string memory content)\n        internal\n    {\n        _lockedContent[_tokenId] = content;\n    }\n\n    /**\n     * @dev locked content for a NFT can be retrived only by emitting an event\n     *\n     * example event:\n     * msgSender: 0x1a1122c2483e8f988F9a800F3A6eE316dB77e4e0 (type: address),\n     * tokenId: 0 (type: uint256),\n     * lockedContent: 'top secret' (type: string)\n     */\n    function getLockedContent(address from, uint256 _tokenId)\n        public\n    {\n        require(\n            from == _msgSender() || isApprovedForAll(from, _msgSender()),\n            \"ERC1155: caller is not owner nor approved to get locked content\"\n        );\n        _incrementCurrentLockedContentViewTracker(_tokenId);\n        emit LockedContentViewed(\n            msg.sender,\n            _tokenId,\n            _lockedContent[_tokenId]\n        );\n    }\n\n    /**\n     * @dev increment locked content view tracker\n     */\n    function _incrementCurrentLockedContentViewTracker(uint256 _tokenId)\n        private\n    {\n        _lockedContentViewTracker[_tokenId] =\n            _lockedContentViewTracker[_tokenId] +\n            1;\n    }\n\n    /**\n     * @dev get the durrent locked content view tracker for specific _tokenId\n     */\n    function getCurrentLockedContentViewTracker(uint256 _tokenId)\n        public\n        view\n        returns (uint256)\n    {\n        return _lockedContentViewTracker[_tokenId];\n    }\n}\n",
  "sourcePath": "/Users/selimerunkut/dev_freelance/GhostMarketContractBSC/contracts/GhostmarketERC1155.sol",
  "compiler": {
    "name": "solc",
    "version": "0.8.3+commit.8d00100c.Emscripten.clang"
  },
  "schemaVersion": "3.4.1",
  "updatedAt": "2021-05-14T20:33:56.370Z",
  "devdoc": {
    "details": "ERC1155 token with minting, burning, pause, secondary sales royalitiy functions.",
    "kind": "dev",
    "methods": {
      "balanceOf(address,uint256)": {
        "details": "See {IERC1155-balanceOf}. Requirements: - `account` cannot be the zero address."
      },
      "balanceOfBatch(address[],uint256[])": {
        "details": "See {IERC1155-balanceOfBatch}. Requirements: - `accounts` and `ids` must have the same length."
      },
      "baseURI()": {
        "details": "Returns the base URI set via {_setBaseURI}. This will be automatically added as a prefix in {tokenURI} to each token's URI, or to the token ID if no specific URI is set for that token ID."
      },
      "getCurrentCounter()": {
        "details": "current _tokenIdTracker"
      },
      "getCurrentLockedContentViewTracker(uint256)": {
        "details": "get the durrent locked content view tracker for specific _tokenId"
      },
      "getLastTokenID()": {
        "details": "get last minted token id /  _tokenIdTracker"
      },
      "getLockedContent(address,uint256)": {
        "details": "locked content for a NFT can be retrived only by emitting an event example event: msgSender: 0x1a1122c2483e8f988F9a800F3A6eE316dB77e4e0 (type: address), tokenId: 0 (type: uint256), lockedContent: 'top secret' (type: string)"
      },
      "getRoleAdmin(bytes32)": {
        "details": "Returns the admin role that controls `role`. See {grantRole} and {revokeRole}. To change a role's admin, use {_setRoleAdmin}."
      },
      "getRoleMember(bytes32,uint256)": {
        "details": "Returns one of the accounts that have `role`. `index` must be a value between 0 and {getRoleMemberCount}, non-inclusive. Role bearers are not sorted in any particular way, and their ordering may change at any point. WARNING: When using {getRoleMember} and {getRoleMemberCount}, make sure you perform all queries on the same block. See the following https://forum.openzeppelin.com/t/iterating-over-elements-on-enumerableset-in-openzeppelin-contracts/2296[forum post] for more information."
      },
      "getRoleMemberCount(bytes32)": {
        "details": "Returns the number of accounts that have `role`. Can be used together with {getRoleMember} to enumerate all bearers of a role."
      },
      "getRoyalitiesRecipients(uint256)": {
        "details": "get the \"secondary sales\"/royalities fee recepients with the tokenId"
      },
      "getRoyaltyFeeBps(uint256)": {
        "details": "get the \"secondary sales\"/royalities fee for the NFT id fee basis points 10000 = 100%"
      },
      "ghostmarketFeeAddress()": {
        "returns": {
          "_0": "the ghostmarketFeeAddress"
        }
      },
      "ghostmarketMintingFee()": {
        "returns": {
          "_0": "the ghostmarketMintingFee."
        }
      },
      "grantRole(bytes32,address)": {
        "details": "Overload {grantRole} to track enumerable memberships"
      },
      "hasRole(bytes32,address)": {
        "details": "Returns `true` if `account` has been granted `role`."
      },
      "isApprovedForAll(address,address)": {
        "details": "See {IERC1155-isApprovedForAll}."
      },
      "mint(address,uint256,uint256,bytes)": {
        "details": "Creates `amount` new tokens for `to`, of token type `id`. See {ERC1155-_mint}. Requirements: - the caller must have the `MINTER_ROLE`."
      },
      "mintBatch(address,uint256[],uint256[],bytes)": {
        "details": "xref:ROOT:erc1155.adoc#batch-operations[Batched] variant of {mint}."
      },
      "mintGhost(address,uint256,bytes,(address,uint256)[],string)": {
        "details": "mint ERC1155 tokens with optional royalities, minting fee and locked content"
      },
      "pause()": {
        "details": "Pauses all token transfers. See {ERC1155Pausable} and {Pausable-_pause}. Requirements: - the caller must have the `PAUSER_ROLE`."
      },
      "paused()": {
        "details": "Returns true if the contract is paused, and false otherwise."
      },
      "renounceRole(bytes32,address)": {
        "details": "Overload {renounceRole} to track enumerable memberships"
      },
      "revokeRole(bytes32,address)": {
        "details": "Overload {revokeRole} to track enumerable memberships"
      },
      "safeBatchTransferFrom(address,address,uint256[],uint256[],bytes)": {
        "details": "See {IERC1155-safeBatchTransferFrom}."
      },
      "safeTransferFrom(address,address,uint256,uint256,bytes)": {
        "details": "See {IERC1155-safeTransferFrom}."
      },
      "setApprovalForAll(address,bool)": {
        "details": "See {IERC1155-setApprovalForAll}."
      },
      "setGhostmarketFeeAddress(address)": {
        "details": "set the wallet address where fees will be collected"
      },
      "setGhostmarketMintFee(uint256)": {
        "details": "sets the transfer fee"
      },
      "supportsInterface(bytes4)": {
        "details": "See {IERC165-supportsInterface}."
      },
      "unpause()": {
        "details": "Unpauses all token transfers. See {ERC1155Pausable} and {Pausable-_unpause}. Requirements: - the caller must have the `PAUSER_ROLE`."
      }
    },
    "version": 1
  },
  "userdoc": {
    "kind": "user",
    "methods": {},
    "version": 1
  }
}