{
  "contractName": "GhostmarketERC1155",
  "abi": [
    {
      "anonymous": false,
      "inputs": [
        {
          "indexed": true,
          "internalType": "address",
          "name": "account",
          "type": "address"
        },
        {
          "indexed": true,
          "internalType": "address",
          "name": "operator",
          "type": "address"
        },
        {
          "indexed": false,
          "internalType": "bool",
          "name": "approved",
          "type": "bool"
        }
      ],
      "name": "ApprovalForAll",
      "type": "event"
    },
    {
      "anonymous": false,
      "inputs": [
        {
          "indexed": false,
          "internalType": "uint256",
          "name": "tokenId",
          "type": "uint256"
        },
        {
          "components": [
            {
              "internalType": "string",
              "name": "key",
              "type": "string"
            },
            {
              "internalType": "string",
              "name": "value",
              "type": "string"
            }
          ],
          "indexed": false,
          "internalType": "struct GhostmarketERC1155.AttributesStruct[]",
          "name": "attributes",
          "type": "tuple[]"
        }
      ],
      "name": "AttributesSet",
      "type": "event"
    },
    {
      "anonymous": false,
      "inputs": [
        {
          "indexed": false,
          "internalType": "address",
          "name": "account",
          "type": "address"
        }
      ],
      "name": "Paused",
      "type": "event"
    },
    {
      "anonymous": false,
      "inputs": [
        {
          "indexed": true,
          "internalType": "bytes32",
          "name": "role",
          "type": "bytes32"
        },
        {
          "indexed": true,
          "internalType": "bytes32",
          "name": "previousAdminRole",
          "type": "bytes32"
        },
        {
          "indexed": true,
          "internalType": "bytes32",
          "name": "newAdminRole",
          "type": "bytes32"
        }
      ],
      "name": "RoleAdminChanged",
      "type": "event"
    },
    {
      "anonymous": false,
      "inputs": [
        {
          "indexed": true,
          "internalType": "bytes32",
          "name": "role",
          "type": "bytes32"
        },
        {
          "indexed": true,
          "internalType": "address",
          "name": "account",
          "type": "address"
        },
        {
          "indexed": true,
          "internalType": "address",
          "name": "sender",
          "type": "address"
        }
      ],
      "name": "RoleGranted",
      "type": "event"
    },
    {
      "anonymous": false,
      "inputs": [
        {
          "indexed": true,
          "internalType": "bytes32",
          "name": "role",
          "type": "bytes32"
        },
        {
          "indexed": true,
          "internalType": "address",
          "name": "account",
          "type": "address"
        },
        {
          "indexed": true,
          "internalType": "address",
          "name": "sender",
          "type": "address"
        }
      ],
      "name": "RoleRevoked",
      "type": "event"
    },
    {
      "anonymous": false,
      "inputs": [
        {
          "indexed": true,
          "internalType": "address",
          "name": "operator",
          "type": "address"
        },
        {
          "indexed": true,
          "internalType": "address",
          "name": "from",
          "type": "address"
        },
        {
          "indexed": true,
          "internalType": "address",
          "name": "to",
          "type": "address"
        },
        {
          "indexed": false,
          "internalType": "uint256[]",
          "name": "ids",
          "type": "uint256[]"
        },
        {
          "indexed": false,
          "internalType": "uint256[]",
          "name": "values",
          "type": "uint256[]"
        }
      ],
      "name": "TransferBatch",
      "type": "event"
    },
    {
      "anonymous": false,
      "inputs": [
        {
          "indexed": true,
          "internalType": "address",
          "name": "operator",
          "type": "address"
        },
        {
          "indexed": true,
          "internalType": "address",
          "name": "from",
          "type": "address"
        },
        {
          "indexed": true,
          "internalType": "address",
          "name": "to",
          "type": "address"
        },
        {
          "indexed": false,
          "internalType": "uint256",
          "name": "id",
          "type": "uint256"
        },
        {
          "indexed": false,
          "internalType": "uint256",
          "name": "value",
          "type": "uint256"
        }
      ],
      "name": "TransferSingle",
      "type": "event"
    },
    {
      "anonymous": false,
      "inputs": [
        {
          "indexed": false,
          "internalType": "string",
          "name": "value",
          "type": "string"
        },
        {
          "indexed": true,
          "internalType": "uint256",
          "name": "id",
          "type": "uint256"
        }
      ],
      "name": "URI",
      "type": "event"
    },
    {
      "anonymous": false,
      "inputs": [
        {
          "indexed": false,
          "internalType": "address",
          "name": "account",
          "type": "address"
        }
      ],
      "name": "Unpaused",
      "type": "event"
    },
    {
      "inputs": [],
      "name": "DEFAULT_ADMIN_ROLE",
      "outputs": [
        {
          "internalType": "bytes32",
          "name": "",
          "type": "bytes32"
        }
      ],
      "stateMutability": "view",
      "type": "function"
    },
    {
      "inputs": [],
      "name": "MINTER_ROLE",
      "outputs": [
        {
          "internalType": "bytes32",
          "name": "",
          "type": "bytes32"
        }
      ],
      "stateMutability": "view",
      "type": "function"
    },
    {
      "inputs": [],
      "name": "PAUSER_ROLE",
      "outputs": [
        {
          "internalType": "bytes32",
          "name": "",
          "type": "bytes32"
        }
      ],
      "stateMutability": "view",
      "type": "function"
    },
    {
      "inputs": [
        {
          "internalType": "uint256",
          "name": "",
          "type": "uint256"
        },
        {
          "internalType": "uint256",
          "name": "",
          "type": "uint256"
        }
      ],
      "name": "attribute",
      "outputs": [
        {
          "internalType": "string",
          "name": "key",
          "type": "string"
        },
        {
          "internalType": "string",
          "name": "value",
          "type": "string"
        }
      ],
      "stateMutability": "view",
      "type": "function"
    },
    {
      "inputs": [
        {
          "internalType": "address",
          "name": "account",
          "type": "address"
        },
        {
          "internalType": "uint256",
          "name": "id",
          "type": "uint256"
        }
      ],
      "name": "balanceOf",
      "outputs": [
        {
          "internalType": "uint256",
          "name": "",
          "type": "uint256"
        }
      ],
      "stateMutability": "view",
      "type": "function"
    },
    {
      "inputs": [
        {
          "internalType": "address[]",
          "name": "accounts",
          "type": "address[]"
        },
        {
          "internalType": "uint256[]",
          "name": "ids",
          "type": "uint256[]"
        }
      ],
      "name": "balanceOfBatch",
      "outputs": [
        {
          "internalType": "uint256[]",
          "name": "",
          "type": "uint256[]"
        }
      ],
      "stateMutability": "view",
      "type": "function"
    },
    {
      "inputs": [
        {
          "internalType": "address",
          "name": "account",
          "type": "address"
        },
        {
          "internalType": "uint256",
          "name": "id",
          "type": "uint256"
        },
        {
          "internalType": "uint256",
          "name": "value",
          "type": "uint256"
        }
      ],
      "name": "burn",
      "outputs": [],
      "stateMutability": "nonpayable",
      "type": "function"
    },
    {
      "inputs": [
        {
          "internalType": "address",
          "name": "account",
          "type": "address"
        },
        {
          "internalType": "uint256[]",
          "name": "ids",
          "type": "uint256[]"
        },
        {
          "internalType": "uint256[]",
          "name": "values",
          "type": "uint256[]"
        }
      ],
      "name": "burnBatch",
      "outputs": [],
      "stateMutability": "nonpayable",
      "type": "function"
    },
    {
      "inputs": [
        {
          "internalType": "bytes32",
          "name": "role",
          "type": "bytes32"
        }
      ],
      "name": "getRoleAdmin",
      "outputs": [
        {
          "internalType": "bytes32",
          "name": "",
          "type": "bytes32"
        }
      ],
      "stateMutability": "view",
      "type": "function"
    },
    {
      "inputs": [
        {
          "internalType": "bytes32",
          "name": "role",
          "type": "bytes32"
        },
        {
          "internalType": "uint256",
          "name": "index",
          "type": "uint256"
        }
      ],
      "name": "getRoleMember",
      "outputs": [
        {
          "internalType": "address",
          "name": "",
          "type": "address"
        }
      ],
      "stateMutability": "view",
      "type": "function"
    },
    {
      "inputs": [
        {
          "internalType": "bytes32",
          "name": "role",
          "type": "bytes32"
        }
      ],
      "name": "getRoleMemberCount",
      "outputs": [
        {
          "internalType": "uint256",
          "name": "",
          "type": "uint256"
        }
      ],
      "stateMutability": "view",
      "type": "function"
    },
    {
      "inputs": [
        {
          "internalType": "bytes32",
          "name": "role",
          "type": "bytes32"
        },
        {
          "internalType": "address",
          "name": "account",
          "type": "address"
        }
      ],
      "name": "grantRole",
      "outputs": [],
      "stateMutability": "nonpayable",
      "type": "function"
    },
    {
      "inputs": [
        {
          "internalType": "bytes32",
          "name": "role",
          "type": "bytes32"
        },
        {
          "internalType": "address",
          "name": "account",
          "type": "address"
        }
      ],
      "name": "hasRole",
      "outputs": [
        {
          "internalType": "bool",
          "name": "",
          "type": "bool"
        }
      ],
      "stateMutability": "view",
      "type": "function"
    },
    {
      "inputs": [
        {
          "internalType": "address",
          "name": "account",
          "type": "address"
        },
        {
          "internalType": "address",
          "name": "operator",
          "type": "address"
        }
      ],
      "name": "isApprovedForAll",
      "outputs": [
        {
          "internalType": "bool",
          "name": "",
          "type": "bool"
        }
      ],
      "stateMutability": "view",
      "type": "function"
    },
    {
      "inputs": [],
      "name": "name",
      "outputs": [
        {
          "internalType": "string",
          "name": "",
          "type": "string"
        }
      ],
      "stateMutability": "view",
      "type": "function"
    },
    {
      "inputs": [],
      "name": "pause",
      "outputs": [],
      "stateMutability": "nonpayable",
      "type": "function"
    },
    {
      "inputs": [],
      "name": "paused",
      "outputs": [
        {
          "internalType": "bool",
          "name": "",
          "type": "bool"
        }
      ],
      "stateMutability": "view",
      "type": "function"
    },
    {
      "inputs": [
        {
          "internalType": "bytes32",
          "name": "role",
          "type": "bytes32"
        },
        {
          "internalType": "address",
          "name": "account",
          "type": "address"
        }
      ],
      "name": "renounceRole",
      "outputs": [],
      "stateMutability": "nonpayable",
      "type": "function"
    },
    {
      "inputs": [
        {
          "internalType": "bytes32",
          "name": "role",
          "type": "bytes32"
        },
        {
          "internalType": "address",
          "name": "account",
          "type": "address"
        }
      ],
      "name": "revokeRole",
      "outputs": [],
      "stateMutability": "nonpayable",
      "type": "function"
    },
    {
      "inputs": [
        {
          "internalType": "address",
          "name": "from",
          "type": "address"
        },
        {
          "internalType": "address",
          "name": "to",
          "type": "address"
        },
        {
          "internalType": "uint256[]",
          "name": "ids",
          "type": "uint256[]"
        },
        {
          "internalType": "uint256[]",
          "name": "amounts",
          "type": "uint256[]"
        },
        {
          "internalType": "bytes",
          "name": "data",
          "type": "bytes"
        }
      ],
      "name": "safeBatchTransferFrom",
      "outputs": [],
      "stateMutability": "nonpayable",
      "type": "function"
    },
    {
      "inputs": [
        {
          "internalType": "address",
          "name": "from",
          "type": "address"
        },
        {
          "internalType": "address",
          "name": "to",
          "type": "address"
        },
        {
          "internalType": "uint256",
          "name": "id",
          "type": "uint256"
        },
        {
          "internalType": "uint256",
          "name": "amount",
          "type": "uint256"
        },
        {
          "internalType": "bytes",
          "name": "data",
          "type": "bytes"
        }
      ],
      "name": "safeTransferFrom",
      "outputs": [],
      "stateMutability": "nonpayable",
      "type": "function"
    },
    {
      "inputs": [
        {
          "internalType": "address",
          "name": "operator",
          "type": "address"
        },
        {
          "internalType": "bool",
          "name": "approved",
          "type": "bool"
        }
      ],
      "name": "setApprovalForAll",
      "outputs": [],
      "stateMutability": "nonpayable",
      "type": "function"
    },
    {
      "inputs": [
        {
          "internalType": "bytes4",
          "name": "interfaceId",
          "type": "bytes4"
        }
      ],
      "name": "supportsInterface",
      "outputs": [
        {
          "internalType": "bool",
          "name": "",
          "type": "bool"
        }
      ],
      "stateMutability": "view",
      "type": "function"
    },
    {
      "inputs": [],
      "name": "symbol",
      "outputs": [
        {
          "internalType": "string",
          "name": "",
          "type": "string"
        }
      ],
      "stateMutability": "view",
      "type": "function"
    },
    {
      "inputs": [],
      "name": "unpause",
      "outputs": [],
      "stateMutability": "nonpayable",
      "type": "function"
    },
    {
      "inputs": [
        {
          "internalType": "uint256",
          "name": "",
          "type": "uint256"
        }
      ],
      "name": "uri",
      "outputs": [
        {
          "internalType": "string",
          "name": "",
          "type": "string"
        }
      ],
      "stateMutability": "view",
      "type": "function"
    },
    {
      "inputs": [
        {
          "internalType": "string",
          "name": "_name",
          "type": "string"
        },
        {
          "internalType": "string",
          "name": "_symbol",
          "type": "string"
        },
        {
          "internalType": "string",
          "name": "uri",
          "type": "string"
        }
      ],
      "name": "initialize",
      "outputs": [],
      "stateMutability": "nonpayable",
      "type": "function"
    },
    {
      "inputs": [
        {
          "internalType": "string",
          "name": "uri",
          "type": "string"
        }
      ],
      "name": "initialize",
      "outputs": [],
      "stateMutability": "nonpayable",
      "type": "function"
    },
    {
      "inputs": [
        {
          "internalType": "address",
          "name": "to",
          "type": "address"
        },
        {
          "internalType": "uint256",
          "name": "id",
          "type": "uint256"
        },
        {
          "internalType": "uint256",
          "name": "amount",
          "type": "uint256"
        },
        {
          "internalType": "bytes",
          "name": "data",
          "type": "bytes"
        }
      ],
      "name": "mint",
      "outputs": [],
      "stateMutability": "nonpayable",
      "type": "function"
    },
    {
      "inputs": [
        {
          "internalType": "address",
          "name": "to",
          "type": "address"
        },
        {
          "internalType": "uint256",
          "name": "amount",
          "type": "uint256"
        },
        {
          "internalType": "bytes",
          "name": "data",
          "type": "bytes"
        }
      ],
      "name": "mint",
      "outputs": [],
      "stateMutability": "nonpayable",
      "type": "function"
    },
    {
      "inputs": [
        {
          "internalType": "address",
          "name": "to",
          "type": "address"
        },
        {
          "internalType": "uint256[]",
          "name": "ids",
          "type": "uint256[]"
        },
        {
          "internalType": "uint256[]",
          "name": "amounts",
          "type": "uint256[]"
        },
        {
          "internalType": "bytes",
          "name": "data",
          "type": "bytes"
        }
      ],
      "name": "mintBatch",
      "outputs": [],
      "stateMutability": "nonpayable",
      "type": "function"
    },
    {
      "inputs": [
        {
          "internalType": "address",
          "name": "to",
          "type": "address"
        },
        {
          "internalType": "uint256[]",
          "name": "mintAmounts",
          "type": "uint256[]"
        },
        {
          "internalType": "bytes",
          "name": "data",
          "type": "bytes"
        }
      ],
      "name": "mintBatch",
      "outputs": [],
      "stateMutability": "nonpayable",
      "type": "function"
    },
    {
      "inputs": [],
      "name": "getCurrentCounter",
      "outputs": [
        {
          "internalType": "uint256",
          "name": "",
          "type": "uint256"
        }
      ],
      "stateMutability": "view",
      "type": "function"
    },
    {
      "inputs": [
        {
          "internalType": "uint256",
          "name": "_tokenId",
          "type": "uint256"
        }
      ],
      "name": "getAttributes",
      "outputs": [
        {
          "components": [
            {
              "internalType": "string",
              "name": "key",
              "type": "string"
            },
            {
              "internalType": "string",
              "name": "value",
              "type": "string"
            }
          ],
          "internalType": "struct GhostmarketERC1155.AttributesStruct[]",
          "name": "",
          "type": "tuple[]"
        }
      ],
      "stateMutability": "view",
      "type": "function"
    }
  ],
  "bytecode": "0x608060405234801561001057600080fd5b50613aee806100206000396000f3fe608060405234801561001057600080fd5b50600436106102255760003560e01c806373448c461161012a578063a6487c53116100bd578063e63ab1e91161008c578063f242432a11610071578063f242432a14610523578063f5298aca14610536578063f62d18881461054957610225565b8063e63ab1e9146104c0578063e985e9c5146104e757610225565b8063a6487c5314610460578063ca15c87314610473578063d539139314610486578063d547741f146104ad57610225565b806394d008ef116100f957806394d008ef1461042a57806395d89b411461043d578063a217fddf14610445578063a22cb4651461044d57610225565b806373448c46146103b65780638456cb59146103be5780639010d07c146103c657806391d14854146103f157610225565b80632f2ff15d116101bd5780634378a6e31161018c5780635c975abb116101715780635c975abb146103885780636b20c45414610390578063731133e9146103a357610225565b80634378a6e3146103485780634e1273f41461036857610225565b80632f2ff15d146102f957806336568abe1461030c5780633daab0321461031f5780633f4ba83a1461034057610225565b80631f7fdffa116101f95780631f7fdffa1461029b57806322862482146102b0578063248a9ca3146102c35780632eb2c2d6146102e657610225565b8062fdd58e1461022a57806301ffc9a71461025057806306fdde03146102735780630e89341c14610288575b600080fd5b61023d6102383660046133ea565b61055c565b6040519081526020015b60405180910390f35b61026361025e366004613609565b61060a565b6040519015158152602001610247565b61027b61061d565b60405161024791906138bf565b61027b6102963660046135ae565b6106ac565b6102ae6102a93660046132b4565b610740565b005b6102ae6102be366004613349565b6107ee565b61023d6102d13660046135ae565b60009081526065602052604090206001015490565b6102ae6102f436600461313a565b610808565b6102ae6103073660046135c6565b610b7f565b6102ae61031a3660046135c6565b610ba1565b61033261032d3660046135e8565b610bc3565b6040516102479291906138d2565b6102ae610d15565b61035b6103563660046135ae565b610dbb565b60405161024791906137fa565b61037b6103763660046134e3565b610f52565b604051610247919061387e565b6102636110c8565b6102ae61039e366004613243565b6110d3565b6102ae6103b1366004613490565b611158565b61023d611200565b6102ae611211565b6103d96103d43660046135e8565b6112b5565b6040516001600160a01b039091168152602001610247565b6102636103ff3660046135c6565b60009182526065602090815260408084206001600160a01b0393909316845291905290205460ff1690565b6102ae610438366004613413565b6112d4565b61027b6112f8565b61023d600081565b6102ae61045b3660046133b0565b611306565b6102ae61046e36600461367c565b6113fe565b61023d6104813660046135ae565b6114ef565b61023d7f9f2df0fed2c77648de5860a4cc508cd0818c85b8b8a1ab4ceeef8d981c8956a681565b6102ae6104bb3660046135c6565b611506565b61023d7f65d7a28e3265b37a6474929f336521b332c1681b933f6cb9f3376673440d862a81565b6102636104f5366004613108565b6001600160a01b03918216600090815260ca6020908152604080832093909416825291909152205460ff1690565b6102ae6105313660046131e0565b611510565b6102ae61054436600461345e565b611757565b6102ae610557366004613641565b6117dc565b60006001600160a01b0383166105df5760405162461bcd60e51b815260206004820152602b60248201527f455243313135353a2062616c616e636520717565727920666f7220746865207a60448201527f65726f206164647265737300000000000000000000000000000000000000000060648201526084015b60405180910390fd5b50600081815260c9602090815260408083206001600160a01b03861684529091529020545b92915050565b600061061582611899565b90505b919050565b6101c3805461062b9061394a565b80601f01602080910402602001604051908101604052809291908181526020018280546106579061394a565b80156106a45780601f10610679576101008083540402835291602001916106a4565b820191906000526020600020905b81548152906001019060200180831161068757829003601f168201915b505050505081565b606060cb80546106bb9061394a565b80601f01602080910402602001604051908101604052809291908181526020018280546106e79061394a565b80156107345780601f1061070957610100808354040283529160200191610734565b820191906000526020600020905b81548152906001019060200180831161071757829003601f168201915b50505050509050919050565b61076a7f9f2df0fed2c77648de5860a4cc508cd0818c85b8b8a1ab4ceeef8d981c8956a6336103ff565b6107dc5760405162461bcd60e51b815260206004820152603860248201527f455243313135355072657365744d696e7465725061757365723a206d7573742060448201527f68617665206d696e74657220726f6c6520746f206d696e74000000000000000060648201526084016105d6565b6107e88484848461190b565b50505050565b610803836107fc8451611b04565b8484610740565b505050565b815183511461086a5760405162461bcd60e51b815260206004820152602860248201527f455243313135353a2069647320616e6420616d6f756e7473206c656e677468206044820152670dad2e6dac2e8c6d60c31b60648201526084016105d6565b6001600160a01b0384166108ce5760405162461bcd60e51b815260206004820152602560248201527f455243313135353a207472616e7366657220746f20746865207a65726f206164604482015264647265737360d81b60648201526084016105d6565b6001600160a01b0385163314806108ea57506108ea85336104f5565b61095c5760405162461bcd60e51b815260206004820152603260248201527f455243313135353a207472616e736665722063616c6c6572206973206e6f742060448201527f6f776e6572206e6f7220617070726f766564000000000000000000000000000060648201526084016105d6565b3361096b818787878787611bc1565b60005b8451811015610b1157600085828151811061099957634e487b7160e01b600052603260045260246000fd5b6020026020010151905060008583815181106109c557634e487b7160e01b600052603260045260246000fd5b602090810291909101810151600084815260c9835260408082206001600160a01b038e168352909352919091205490915081811015610a6c5760405162461bcd60e51b815260206004820152602a60248201527f455243313135353a20696e73756666696369656e742062616c616e636520666f60448201527f72207472616e736665720000000000000000000000000000000000000000000060648201526084016105d6565b610a768282613933565b60c9600085815260200190815260200160002060008c6001600160a01b03166001600160a01b03168152602001908152602001600020819055508160c9600085815260200190815260200160002060008b6001600160a01b03166001600160a01b031681526020019081526020016000206000828254610af6919061391b565b9250508190555050505080610b0a906139b2565b905061096e565b50846001600160a01b0316866001600160a01b0316826001600160a01b03167f4a39dc06d4c0dbc64b70af90fd698a233a518aa5d07e595d983b8c0526c8f7fb8787604051610b61929190613891565b60405180910390a4610b77818787878787611bcf565b505050505050565b610b898282611d84565b60008281526097602052604090206108039082611e1d565b610bab8282611e32565b60008281526097602052604090206108039082611eba565b6101c56020528160005260406000208181548110610be057600080fd5b906000526020600020906002020160009150915050806000018054610c049061394a565b80601f0160208091040260200160405190810160405280929190818152602001828054610c309061394a565b8015610c7d5780601f10610c5257610100808354040283529160200191610c7d565b820191906000526020600020905b815481529060010190602001808311610c6057829003601f168201915b505050505090806001018054610c929061394a565b80601f0160208091040260200160405190810160405280929190818152602001828054610cbe9061394a565b8015610d0b5780601f10610ce057610100808354040283529160200191610d0b565b820191906000526020600020905b815481529060010190602001808311610cee57829003601f168201915b5050505050905082565b610d3f7f65d7a28e3265b37a6474929f336521b332c1681b933f6cb9f3376673440d862a336103ff565b610db15760405162461bcd60e51b815260206004820152603b60248201527f455243313135355072657365744d696e7465725061757365723a206d7573742060448201527f686176652070617573657220726f6c6520746f20756e7061757365000000000060648201526084016105d6565b610db9611ecf565b565b60606101c56000838152602001908152602001600020805480602002602001604051908101604052809291908181526020016000905b82821015610f475783829060005260206000209060020201604051806040016040529081600082018054610e249061394a565b80601f0160208091040260200160405190810160405280929190818152602001828054610e509061394a565b8015610e9d5780601f10610e7257610100808354040283529160200191610e9d565b820191906000526020600020905b815481529060010190602001808311610e8057829003601f168201915b50505050508152602001600182018054610eb69061394a565b80601f0160208091040260200160405190810160405280929190818152602001828054610ee29061394a565b8015610f2f5780601f10610f0457610100808354040283529160200191610f2f565b820191906000526020600020905b815481529060010190602001808311610f1257829003601f168201915b50505050508152505081526020019060010190610df1565b505050509050919050565b60608151835114610fcb5760405162461bcd60e51b815260206004820152602960248201527f455243313135353a206163636f756e747320616e6420696473206c656e67746860448201527f206d69736d61746368000000000000000000000000000000000000000000000060648201526084016105d6565b6000835167ffffffffffffffff811115610ff557634e487b7160e01b600052604160045260246000fd5b60405190808252806020026020018201604052801561101e578160200160208202803683370190505b50905060005b84518110156110c05761108585828151811061105057634e487b7160e01b600052603260045260246000fd5b602002602001015185838151811061107857634e487b7160e01b600052603260045260246000fd5b602002602001015161055c565b8282815181106110a557634e487b7160e01b600052603260045260246000fd5b60209081029190910101526110b9816139b2565b9050611024565b509392505050565b61012d5460ff165b90565b6001600160a01b0383163314806110ef57506110ef83336104f5565b61114d5760405162461bcd60e51b815260206004820152602960248201527f455243313135353a2063616c6c6572206973206e6f74206f776e6572206e6f7260448201526808185c1c1c9bdd995960ba1b60648201526084016105d6565b610803838383611f6e565b6111827f9f2df0fed2c77648de5860a4cc508cd0818c85b8b8a1ab4ceeef8d981c8956a6336103ff565b6111f45760405162461bcd60e51b815260206004820152603860248201527f455243313135355072657365744d696e7465725061757365723a206d7573742060448201527f68617665206d696e74657220726f6c6520746f206d696e74000000000000000060648201526084016105d6565b6107e8848484846121e1565b600061120c6101c65490565b905090565b61123b7f65d7a28e3265b37a6474929f336521b332c1681b933f6cb9f3376673440d862a336103ff565b6112ad5760405162461bcd60e51b815260206004820152603960248201527f455243313135355072657365744d696e7465725061757365723a206d7573742060448201527f686176652070617573657220726f6c6520746f2070617573650000000000000060648201526084016105d6565b610db96122e4565b60008281526097602052604081206112cd908361236f565b9392505050565b6112e9836112e26101c65490565b8484611158565b6108036101c680546001019055565b6101c4805461062b9061394a565b336001600160a01b03831614156113855760405162461bcd60e51b815260206004820152602960248201527f455243313135353a2073657474696e6720617070726f76616c2073746174757360448201527f20666f722073656c66000000000000000000000000000000000000000000000060648201526084016105d6565b33600081815260ca602090815260408083206001600160a01b0387168085529252909120805460ff1916841515179055906001600160a01b03167f17307eab39ab6107e8899845ad3d59bd9653f200f220920489ca2b5937696c31836040516113f2911515815260200190565b60405180910390a35050565b600054610100900460ff1680611417575060005460ff16155b61147a5760405162461bcd60e51b815260206004820152602e60248201527f496e697469616c697a61626c653a20636f6e747261637420697320616c72656160448201526d191e481a5b9a5d1a585b1a5e995960921b60648201526084016105d6565b600054610100900460ff1615801561149c576000805461ffff19166101011790555b6114a58261237b565b6114ae82612422565b83516114c2906101c3906020870190612f75565b5082516114d7906101c4906020860190612f75565b5080156107e8576000805461ff001916905550505050565b600081815260976020526040812061061590612520565b610bab828261252a565b6001600160a01b0384166115745760405162461bcd60e51b815260206004820152602560248201527f455243313135353a207472616e7366657220746f20746865207a65726f206164604482015264647265737360d81b60648201526084016105d6565b6001600160a01b038516331480611590575061159085336104f5565b6115ee5760405162461bcd60e51b815260206004820152602960248201527f455243313135353a2063616c6c6572206973206e6f74206f776e6572206e6f7260448201526808185c1c1c9bdd995960ba1b60648201526084016105d6565b3361160d8187876115fe886125b7565b611607886125b7565b87611bc1565b600084815260c9602090815260408083206001600160a01b038a168452909152902054838110156116a65760405162461bcd60e51b815260206004820152602a60248201527f455243313135353a20696e73756666696369656e742062616c616e636520666f60448201527f72207472616e736665720000000000000000000000000000000000000000000060648201526084016105d6565b6116b08482613933565b600086815260c9602090815260408083206001600160a01b038c811685529252808320939093558816815290812080548692906116ee90849061391b565b909155505060408051868152602081018690526001600160a01b03808916928a821692918616917fc3d58168c5ae7397731d063d5bbf3d657854427343f4c083240f7aacaa2d0f62910160405180910390a461174e828888888888612610565b50505050505050565b6001600160a01b038316331480611773575061177383336104f5565b6117d15760405162461bcd60e51b815260206004820152602960248201527f455243313135353a2063616c6c6572206973206e6f74206f776e6572206e6f7260448201526808185c1c1c9bdd995960ba1b60648201526084016105d6565b61080383838361271b565b600054610100900460ff16806117f5575060005460ff16155b6118585760405162461bcd60e51b815260206004820152602e60248201527f496e697469616c697a61626c653a20636f6e747261637420697320616c72656160448201526d191e481a5b9a5d1a585b1a5e995960921b60648201526084016105d6565b600054610100900460ff1615801561187a576000805461ffff19166101011790555b611883826128a0565b8015611895576000805461ff00191690555b5050565b60006001600160e01b031982167fd9b67a260000000000000000000000000000000000000000000000000000000014806118fc57506001600160e01b031982167f0e89341c00000000000000000000000000000000000000000000000000000000145b80610615575061061582612988565b6001600160a01b03841661196b5760405162461bcd60e51b815260206004820152602160248201527f455243313135353a206d696e7420746f20746865207a65726f206164647265736044820152607360f81b60648201526084016105d6565b81518351146119cd5760405162461bcd60e51b815260206004820152602860248201527f455243313135353a2069647320616e6420616d6f756e7473206c656e677468206044820152670dad2e6dac2e8c6d60c31b60648201526084016105d6565b336119dd81600087878787611bc1565b60005b8451811015611a9557838181518110611a0957634e487b7160e01b600052603260045260246000fd5b602002602001015160c96000878481518110611a3557634e487b7160e01b600052603260045260246000fd5b602002602001015181526020019081526020016000206000886001600160a01b03166001600160a01b031681526020019081526020016000206000828254611a7d919061391b565b90915550819050611a8d816139b2565b9150506119e0565b50846001600160a01b031660006001600160a01b0316826001600160a01b03167f4a39dc06d4c0dbc64b70af90fd698a233a518aa5d07e595d983b8c0526c8f7fb8787604051611ae6929190613891565b60405180910390a4611afd81600087878787611bcf565b5050505050565b606060008267ffffffffffffffff811115611b2f57634e487b7160e01b600052604160045260246000fd5b604051908082528060200260200182016040528015611b58578160200160208202803683370190505b50905060005b83811015611bba57611b756101c680546001019055565b611b7d611200565b828281518110611b9d57634e487b7160e01b600052603260045260246000fd5b602090810291909101015280611bb2816139b2565b915050611b5e565b5092915050565b610b778686868686866129c6565b6001600160a01b0384163b15610b775760405163bc197c8160e01b81526001600160a01b0385169063bc197c8190611c139089908990889088908890600401613759565b602060405180830381600087803b158015611c2d57600080fd5b505af1925050508015611c5d575060408051601f3d908101601f19168201909252611c5a91810190613625565b60015b611d1357611c696139f9565b806308c379a01415611ca35750611c7e613a10565b80611c895750611ca5565b8060405162461bcd60e51b81526004016105d691906138bf565b505b60405162461bcd60e51b815260206004820152603460248201527f455243313135353a207472616e7366657220746f206e6f6e204552433131353560448201527f526563656976657220696d706c656d656e74657200000000000000000000000060648201526084016105d6565b6001600160e01b0319811663bc197c8160e01b1461174e5760405162461bcd60e51b815260206004820152602860248201527f455243313135353a204552433131353552656365697665722072656a656374656044820152676420746f6b656e7360c01b60648201526084016105d6565b600082815260656020526040902060010154611da1905b336103ff565b611e135760405162461bcd60e51b815260206004820152602f60248201527f416363657373436f6e74726f6c3a2073656e646572206d75737420626520616e60448201527f2061646d696e20746f206772616e74000000000000000000000000000000000060648201526084016105d6565b6118958282612a41565b60006112cd836001600160a01b038416612ae3565b6001600160a01b0381163314611eb05760405162461bcd60e51b815260206004820152602f60248201527f416363657373436f6e74726f6c3a2063616e206f6e6c792072656e6f756e636560448201527f20726f6c657320666f722073656c66000000000000000000000000000000000060648201526084016105d6565b6118958282612b32565b60006112cd836001600160a01b038416612bb5565b611ed76110c8565b611f235760405162461bcd60e51b815260206004820152601460248201527f5061757361626c653a206e6f742070617573656400000000000000000000000060448201526064016105d6565b61012d805460ff191690557f5db9ee0a495bf2e6ff9c91a7834c1ba4fdd244a5e8aa4e537bd38aeae4b073aa335b6040516001600160a01b03909116815260200160405180910390a1565b6001600160a01b038316611fd05760405162461bcd60e51b815260206004820152602360248201527f455243313135353a206275726e2066726f6d20746865207a65726f206164647260448201526265737360e81b60648201526084016105d6565b80518251146120325760405162461bcd60e51b815260206004820152602860248201527f455243313135353a2069647320616e6420616d6f756e7473206c656e677468206044820152670dad2e6dac2e8c6d60c31b60648201526084016105d6565b600033905061205581856000868660405180602001604052806000815250611bc1565b60005b835181101561218257600084828151811061208357634e487b7160e01b600052603260045260246000fd5b6020026020010151905060008483815181106120af57634e487b7160e01b600052603260045260246000fd5b602090810291909101810151600084815260c9835260408082206001600160a01b038c16835290935291909120549091508181101561213c5760405162461bcd60e51b8152602060048201526024808201527f455243313135353a206275726e20616d6f756e7420657863656564732062616c604482015263616e636560e01b60648201526084016105d6565b6121468282613933565b600093845260c9602090815260408086206001600160a01b038c168752909152909320929092555081905061217a816139b2565b915050612058565b5060006001600160a01b0316846001600160a01b0316826001600160a01b03167f4a39dc06d4c0dbc64b70af90fd698a233a518aa5d07e595d983b8c0526c8f7fb86866040516121d3929190613891565b60405180910390a450505050565b6001600160a01b0384166122415760405162461bcd60e51b815260206004820152602160248201527f455243313135353a206d696e7420746f20746865207a65726f206164647265736044820152607360f81b60648201526084016105d6565b33612252816000876115fe886125b7565b600084815260c9602090815260408083206001600160a01b03891684529091528120805485929061228490849061391b565b909155505060408051858152602081018590526001600160a01b0380881692600092918516917fc3d58168c5ae7397731d063d5bbf3d657854427343f4c083240f7aacaa2d0f62910160405180910390a4611afd81600087878787612610565b6122ec6110c8565b156123395760405162461bcd60e51b815260206004820152601060248201527f5061757361626c653a207061757365640000000000000000000000000000000060448201526064016105d6565b61012d805460ff191660011790557f62e78cea01bee320cd4e420270b5ea74000d11b0c9f74754ebdbfc544b05a258611f513390565b60006112cd8383612cd2565b600054610100900460ff1680612394575060005460ff16155b6123f75760405162461bcd60e51b815260206004820152602e60248201527f496e697469616c697a61626c653a20636f6e747261637420697320616c72656160448201526d191e481a5b9a5d1a585b1a5e995960921b60648201526084016105d6565b600054610100900460ff16158015612419576000805461ffff19166101011790555b61188382612d81565b600054610100900460ff168061243b575060005460ff16155b61249e5760405162461bcd60e51b815260206004820152602e60248201527f496e697469616c697a61626c653a20636f6e747261637420697320616c72656160448201526d191e481a5b9a5d1a585b1a5e995960921b60648201526084016105d6565b600054610100900460ff161580156124c0576000805461ffff19166101011790555b6124cc6000335b612d94565b6124f67f9f2df0fed2c77648de5860a4cc508cd0818c85b8b8a1ab4ceeef8d981c8956a6336124c7565b6118837f65d7a28e3265b37a6474929f336521b332c1681b933f6cb9f3376673440d862a336124c7565b6000610615825490565b60008281526065602052604090206001015461254590611d9b565b611eb05760405162461bcd60e51b815260206004820152603060248201527f416363657373436f6e74726f6c3a2073656e646572206d75737420626520616e60448201527f2061646d696e20746f207265766f6b650000000000000000000000000000000060648201526084016105d6565b604080516001808252818301909252606091600091906020808301908036833701905050905082816000815181106125ff57634e487b7160e01b600052603260045260246000fd5b602090810291909101015292915050565b6001600160a01b0384163b15610b775760405163f23a6e6160e01b81526001600160a01b0385169063f23a6e619061265490899089908890889088906004016137b7565b602060405180830381600087803b15801561266e57600080fd5b505af192505050801561269e575060408051601f3d908101601f1916820190925261269b91810190613625565b60015b6126aa57611c696139f9565b6001600160e01b0319811663f23a6e6160e01b1461174e5760405162461bcd60e51b815260206004820152602860248201527f455243313135353a204552433131353552656365697665722072656a656374656044820152676420746f6b656e7360c01b60648201526084016105d6565b6001600160a01b03831661277d5760405162461bcd60e51b815260206004820152602360248201527f455243313135353a206275726e2066726f6d20746865207a65726f206164647260448201526265737360e81b60648201526084016105d6565b336127ac8185600061278e876125b7565b612797876125b7565b60405180602001604052806000815250611bc1565b600083815260c9602090815260408083206001600160a01b03881684529091529020548281101561282b5760405162461bcd60e51b8152602060048201526024808201527f455243313135353a206275726e20616d6f756e7420657863656564732062616c604482015263616e636560e01b60648201526084016105d6565b6128358382613933565b600085815260c9602090815260408083206001600160a01b038a811680865291845282852095909555815189815292830188905292938616917fc3d58168c5ae7397731d063d5bbf3d657854427343f4c083240f7aacaa2d0f62910160405180910390a45050505050565b600054610100900460ff16806128b9575060005460ff16155b61291c5760405162461bcd60e51b815260206004820152602e60248201527f496e697469616c697a61626c653a20636f6e747261637420697320616c72656160448201526d191e481a5b9a5d1a585b1a5e995960921b60648201526084016105d6565b600054610100900460ff1615801561293e576000805461ffff19166101011790555b612946612d9e565b61294e612d9e565b612956612d9e565b61295e612d9e565b6129678261237b565b61296f612d9e565b612977612e51565b61297f612d9e565b61188382612422565b60006001600160e01b031982167f5a05180f000000000000000000000000000000000000000000000000000000001480610615575061061582612f0e565b6129ce6110c8565b15610b775760405162461bcd60e51b815260206004820152602c60248201527f455243313135355061757361626c653a20746f6b656e207472616e736665722060448201527f7768696c6520706175736564000000000000000000000000000000000000000060648201526084016105d6565b60008281526065602090815260408083206001600160a01b038516845290915290205460ff166118955760008281526065602090815260408083206001600160a01b03851684529091529020805460ff19166001179055612a9f3390565b6001600160a01b0316816001600160a01b0316837f2f8788117e7eff1d82e926ec794901d17c78024a50270940304540a733656f0d60405160405180910390a45050565b6000818152600183016020526040812054612b2a57508154600181810184556000848152602080822090930184905584548482528286019093526040902091909155610604565b506000610604565b60008281526065602090815260408083206001600160a01b038516845290915290205460ff16156118955760008281526065602090815260408083206001600160a01b0385168085529252808320805460ff1916905551339285917ff6391f5c32d9c69d2a47ea670b442974b53935d1edc7fd64eb21e047a839171b9190a45050565b60008181526001830160205260408120548015612cc8576000612bd9600183613933565b8554909150600090612bed90600190613933565b90506000866000018281548110612c1457634e487b7160e01b600052603260045260246000fd5b9060005260206000200154905080876000018481548110612c4557634e487b7160e01b600052603260045260246000fd5b600091825260209091200155612c5c83600161391b565b60008281526001890160205260409020558654879080612c8c57634e487b7160e01b600052603160045260246000fd5b60019003818190600052602060002001600090559055866001016000878152602001908152602001600020600090556001945050505050610604565b6000915050610604565b81546000908210612d4b5760405162461bcd60e51b815260206004820152602260248201527f456e756d657261626c655365743a20696e646578206f7574206f6620626f756e60448201527f647300000000000000000000000000000000000000000000000000000000000060648201526084016105d6565b826000018281548110612d6e57634e487b7160e01b600052603260045260246000fd5b9060005260206000200154905092915050565b80516118959060cb906020840190612f75565b610b898282611e13565b600054610100900460ff1680612db7575060005460ff16155b612e1a5760405162461bcd60e51b815260206004820152602e60248201527f496e697469616c697a61626c653a20636f6e747261637420697320616c72656160448201526d191e481a5b9a5d1a585b1a5e995960921b60648201526084016105d6565b600054610100900460ff16158015612e3c576000805461ffff19166101011790555b8015612e4e576000805461ff00191690555b50565b600054610100900460ff1680612e6a575060005460ff16155b612ecd5760405162461bcd60e51b815260206004820152602e60248201527f496e697469616c697a61626c653a20636f6e747261637420697320616c72656160448201526d191e481a5b9a5d1a585b1a5e995960921b60648201526084016105d6565b600054610100900460ff16158015612eef576000805461ffff19166101011790555b61012d805460ff191690558015612e4e576000805461ff001916905550565b60006001600160e01b031982167f7965db0b00000000000000000000000000000000000000000000000000000000148061061557507f01ffc9a7000000000000000000000000000000000000000000000000000000006001600160e01b0319831614610615565b828054612f819061394a565b90600052602060002090601f016020900481019282612fa35760008555612fe9565b82601f10612fbc57805160ff1916838001178555612fe9565b82800160010185558215612fe9579182015b82811115612fe9578251825591602001919060010190612fce565b50612ff5929150612ff9565b5090565b5b80821115612ff55760008155600101612ffa565b80356001600160a01b038116811461061857600080fd5b600082601f830112613035578081fd5b81356020613042826138f7565b60405161304f8282613985565b8381528281019150858301600585901b8701840188101561306e578586fd5b855b8581101561308c57813584529284019290840190600101613070565b5090979650505050505050565b600082601f8301126130a9578081fd5b813567ffffffffffffffff8111156130c3576130c36139e3565b6040516130da601f8301601f191660200182613985565b8181528460208386010111156130ee578283fd5b816020850160208301379081016020019190915292915050565b6000806040838503121561311a578182fd5b6131238361300e565b91506131316020840161300e565b90509250929050565b600080600080600060a08688031215613151578081fd5b61315a8661300e565b94506131686020870161300e565b9350604086013567ffffffffffffffff80821115613184578283fd5b61319089838a01613025565b945060608801359150808211156131a5578283fd5b6131b189838a01613025565b935060808801359150808211156131c6578283fd5b506131d388828901613099565b9150509295509295909350565b600080600080600060a086880312156131f7578081fd5b6132008661300e565b945061320e6020870161300e565b93506040860135925060608601359150608086013567ffffffffffffffff811115613237578182fd5b6131d388828901613099565b600080600060608486031215613257578283fd5b6132608461300e565b9250602084013567ffffffffffffffff8082111561327c578384fd5b61328887838801613025565b9350604086013591508082111561329d578283fd5b506132aa86828701613025565b9150509250925092565b600080600080608085870312156132c9578384fd5b6132d28561300e565b9350602085013567ffffffffffffffff808211156132ee578485fd5b6132fa88838901613025565b9450604087013591508082111561330f578384fd5b61331b88838901613025565b93506060870135915080821115613330578283fd5b5061333d87828801613099565b91505092959194509250565b60008060006060848603121561335d578283fd5b6133668461300e565b9250602084013567ffffffffffffffff80821115613382578384fd5b61338e87838801613025565b935060408601359150808211156133a3578283fd5b506132aa86828701613099565b600080604083850312156133c2578182fd5b6133cb8361300e565b9150602083013580151581146133df578182fd5b809150509250929050565b600080604083850312156133fc578182fd5b6134058361300e565b946020939093013593505050565b600080600060608486031215613427578081fd5b6134308461300e565b925060208401359150604084013567ffffffffffffffff811115613452578182fd5b6132aa86828701613099565b600080600060608486031215613472578081fd5b61347b8461300e565b95602085013595506040909401359392505050565b600080600080608085870312156134a5578182fd5b6134ae8561300e565b93506020850135925060408501359150606085013567ffffffffffffffff8111156134d7578182fd5b61333d87828801613099565b600080604083850312156134f5578182fd5b823567ffffffffffffffff8082111561350c578384fd5b818501915085601f83011261351f578384fd5b8135602061352c826138f7565b6040516135398282613985565b8381528281019150858301600585901b870184018b1015613558578889fd5b8896505b848710156135815761356d8161300e565b83526001969096019591830191830161355c565b5096505086013592505080821115613597578283fd5b506135a485828601613025565b9150509250929050565b6000602082840312156135bf578081fd5b5035919050565b600080604083850312156135d8578182fd5b823591506131316020840161300e565b600080604083850312156135fa578182fd5b50508035926020909101359150565b60006020828403121561361a578081fd5b81356112cd81613aa2565b600060208284031215613636578081fd5b81516112cd81613aa2565b600060208284031215613652578081fd5b813567ffffffffffffffff811115613668578182fd5b61367484828501613099565b949350505050565b600080600060608486031215613690578081fd5b833567ffffffffffffffff808211156136a7578283fd5b6136b387838801613099565b945060208601359150808211156136c8578283fd5b61338e87838801613099565b6000815180845260208085019450808401835b83811015613703578151875295820195908201906001016136e7565b509495945050505050565b60008151808452815b8181101561373357602081850181015186830182015201613717565b818111156137445782602083870101525b50601f01601f19169290920160200192915050565b60006001600160a01b03808816835280871660208401525060a0604083015261378560a08301866136d4565b828103606084015261379781866136d4565b905082810360808401526137ab818561370e565b98975050505050505050565b60006001600160a01b03808816835280871660208401525084604083015283606083015260a060808301526137ef60a083018461370e565b979650505050505050565b60006020808301818452808551808352604092508286019150828160051b870101848801865b8381101561387057888303603f19018552815180518785526138448886018261370e565b91890151858303868b015291905061385c818361370e565b968901969450505090860190600101613820565b509098975050505050505050565b6000602082526112cd60208301846136d4565b6000604082526138a460408301856136d4565b82810360208401526138b681856136d4565b95945050505050565b6000602082526112cd602083018461370e565b6000604082526138e5604083018561370e565b82810360208401526138b6818561370e565b600067ffffffffffffffff821115613911576139116139e3565b5060051b60200190565b6000821982111561392e5761392e6139cd565b500190565b600082821015613945576139456139cd565b500390565b600181811c9082168061395e57607f821691505b6020821081141561397f57634e487b7160e01b600052602260045260246000fd5b50919050565b601f8201601f1916810167ffffffffffffffff811182821017156139ab576139ab6139e3565b6040525050565b60006000198214156139c6576139c66139cd565b5060010190565b634e487b7160e01b600052601160045260246000fd5b634e487b7160e01b600052604160045260246000fd5b600060033d11156110d057600481823e5160e01c90565b600060443d1015613a20576110d0565b6040516003193d81016004833e81513d67ffffffffffffffff8160248401118184111715613a525750505050506110d0565b8285019150815181811115613a6c575050505050506110d0565b843d8701016020828501011115613a88575050505050506110d0565b613a9760208286010187613985565b509094505050505090565b6001600160e01b031981168114612e4e57600080fdfea2646970667358221220f21928b4bad8e73e5dfddabcb53608539602ab52c47915c6def4f6aafd8c67d264736f6c63430008030033",
  "immutableReferences": {},
  "source": "// SPDX-License-Identifier: MIT\n\npragma solidity ^0.8.3;\n\nimport \"@openzeppelin/contracts-upgradeable/token/ERC1155/presets/ERC1155PresetMinterPauserUpgradeable.sol\";\nimport \"@openzeppelin/contracts-upgradeable/utils/CountersUpgradeable.sol\";\n\n/**\n * @dev ERC1155 token with minting, burning, pause, secondary sales royalitiy functions.\n *\n */\n\ncontract GhostmarketERC1155 is\n    Initializable,\n    ERC1155PresetMinterPauserUpgradeable\n{\n    string public name;\n    string public symbol;\n\n    //nft attributes struct\n    struct AttributesStruct {\n        string key;\n        string value;\n    }\n\n    // tokenId => attributes array\n    mapping(uint256 => AttributesStruct[]) public attribute;\n\n    event AttributesSet(uint256 tokenId, AttributesStruct[] attributes);\n\n    function initialize(\n        string memory _name,\n        string memory _symbol,\n        string memory uri\n    ) public virtual initializer {\n        __ERC1155_init_unchained(uri);\n        __ERC1155PresetMinterPauser_init_unchained(uri);\n        name = _name;\n        symbol = _symbol;\n    }\n\n    using CountersUpgradeable for CountersUpgradeable.Counter;\n\n    CountersUpgradeable.Counter private _tokenIdTracker;\n\n    function mint(\n        address to,\n        uint256 amount,\n        bytes memory data\n    ) public virtual {\n        super.mint(to, _tokenIdTracker.current(), amount, data);\n        _tokenIdTracker.increment();\n    }\n\n    function mintBatch(\n        address to,\n        uint256[] memory mintAmounts,\n        bytes memory data\n    ) public virtual {\n        super.mintBatch(to, _getTokenBatchIds(mintAmounts.length), mintAmounts, data);\n    }\n\n    function getCurrentCounter() public view returns (uint256) {\n        return _tokenIdTracker.current();\n    }\n\n    function _getTokenBatchIds(uint256 mintAmountsLenght)\n        internal\n        returns (uint256[] memory)\n    {\n        uint256[] memory ids = new uint256[](mintAmountsLenght);\n        //uint256[mintAmounts] memory ids;\n        for (uint256 i = 0; i < mintAmountsLenght; i++) {\n            _tokenIdTracker.increment();\n            ids[i] = getCurrentCounter();\n            //_tokenIdTracker.increment();\n        }\n        return ids;\n    }\n\n    /**\n     * @dev saves the nft tokens custom attributes to contract storage\n     * emits AttributesSet event\n     */\n    function setAttributes(\n        uint256 _tokenId,\n        AttributesStruct[] memory _attributes\n    ) internal {\n        for (uint256 i = 0; i < _attributes.length; i++) {\n            require(\n                keccak256(abi.encodePacked(_attributes[i].key)) !=\n                    keccak256(abi.encodePacked(\"\")),\n                \"Attribute key should not be empty\"\n            );\n            require(\n                keccak256(abi.encodePacked(_attributes[i].value)) !=\n                    keccak256(abi.encodePacked(\"\")),\n                \"Attribute value should not be empty\"\n            );\n            attribute[_tokenId].push(_attributes[i]);\n            emit AttributesSet(_tokenId, _attributes);\n        }\n    }\n\n    /**\n     * @dev get the nft token attributes with the tokenId\n     */\n    function getAttributes(uint256 _tokenId)\n        public\n        view\n        returns (AttributesStruct[] memory)\n    {\n        return attribute[_tokenId];\n    }\n}\n",
  "sourcePath": "/Users/selimerunkut/dev_freelance/GhostMarketContractBSC/contracts/GhostmarketERC1155.sol",
  "compiler": {
    "name": "solc",
    "version": "0.8.3+commit.8d00100c.Emscripten.clang"
  },
  "schemaVersion": "3.3.4",
  "updatedAt": "2021-05-05T21:14:11.253Z",
  "devdoc": {
    "details": "ERC1155 token with minting, burning, pause, secondary sales royalitiy functions.",
    "kind": "dev",
    "methods": {
      "balanceOf(address,uint256)": {
        "details": "See {IERC1155-balanceOf}. Requirements: - `account` cannot be the zero address."
      },
      "balanceOfBatch(address[],uint256[])": {
        "details": "See {IERC1155-balanceOfBatch}. Requirements: - `accounts` and `ids` must have the same length."
      },
      "getAttributes(uint256)": {
        "details": "get the nft token attributes with the tokenId"
      },
      "getRoleAdmin(bytes32)": {
        "details": "Returns the admin role that controls `role`. See {grantRole} and {revokeRole}. To change a role's admin, use {_setRoleAdmin}."
      },
      "getRoleMember(bytes32,uint256)": {
        "details": "Returns one of the accounts that have `role`. `index` must be a value between 0 and {getRoleMemberCount}, non-inclusive. Role bearers are not sorted in any particular way, and their ordering may change at any point. WARNING: When using {getRoleMember} and {getRoleMemberCount}, make sure you perform all queries on the same block. See the following https://forum.openzeppelin.com/t/iterating-over-elements-on-enumerableset-in-openzeppelin-contracts/2296[forum post] for more information."
      },
      "getRoleMemberCount(bytes32)": {
        "details": "Returns the number of accounts that have `role`. Can be used together with {getRoleMember} to enumerate all bearers of a role."
      },
      "grantRole(bytes32,address)": {
        "details": "Overload {grantRole} to track enumerable memberships"
      },
      "hasRole(bytes32,address)": {
        "details": "Returns `true` if `account` has been granted `role`."
      },
      "isApprovedForAll(address,address)": {
        "details": "See {IERC1155-isApprovedForAll}."
      },
      "mint(address,uint256,uint256,bytes)": {
        "details": "Creates `amount` new tokens for `to`, of token type `id`. See {ERC1155-_mint}. Requirements: - the caller must have the `MINTER_ROLE`."
      },
      "mintBatch(address,uint256[],uint256[],bytes)": {
        "details": "xref:ROOT:erc1155.adoc#batch-operations[Batched] variant of {mint}."
      },
      "pause()": {
        "details": "Pauses all token transfers. See {ERC1155Pausable} and {Pausable-_pause}. Requirements: - the caller must have the `PAUSER_ROLE`."
      },
      "paused()": {
        "details": "Returns true if the contract is paused, and false otherwise."
      },
      "renounceRole(bytes32,address)": {
        "details": "Overload {renounceRole} to track enumerable memberships"
      },
      "revokeRole(bytes32,address)": {
        "details": "Overload {revokeRole} to track enumerable memberships"
      },
      "safeBatchTransferFrom(address,address,uint256[],uint256[],bytes)": {
        "details": "See {IERC1155-safeBatchTransferFrom}."
      },
      "safeTransferFrom(address,address,uint256,uint256,bytes)": {
        "details": "See {IERC1155-safeTransferFrom}."
      },
      "setApprovalForAll(address,bool)": {
        "details": "See {IERC1155-setApprovalForAll}."
      },
      "supportsInterface(bytes4)": {
        "details": "See {IERC165-supportsInterface}."
      },
      "unpause()": {
        "details": "Unpauses all token transfers. See {ERC1155Pausable} and {Pausable-_unpause}. Requirements: - the caller must have the `PAUSER_ROLE`."
      },
      "uri(uint256)": {
        "details": "See {IERC1155MetadataURI-uri}. This implementation returns the same URI for *all* token types. It relies on the token type ID substitution mechanism https://eips.ethereum.org/EIPS/eip-1155#metadata[defined in the EIP]. Clients calling this function must replace the `\\{id\\}` substring with the actual token type ID."
      }
    },
    "version": 1
  },
  "userdoc": {
    "kind": "user",
    "methods": {},
    "version": 1
  }
}