{
  "contractName": "GhostmarketNFT",
  "abi": [
    {
      "anonymous": false,
      "inputs": [
        {
          "indexed": true,
          "internalType": "address",
          "name": "owner",
          "type": "address"
        },
        {
          "indexed": true,
          "internalType": "address",
          "name": "approved",
          "type": "address"
        },
        {
          "indexed": true,
          "internalType": "uint256",
          "name": "tokenId",
          "type": "uint256"
        }
      ],
      "name": "Approval",
      "type": "event"
    },
    {
      "anonymous": false,
      "inputs": [
        {
          "indexed": true,
          "internalType": "address",
          "name": "owner",
          "type": "address"
        },
        {
          "indexed": true,
          "internalType": "address",
          "name": "operator",
          "type": "address"
        },
        {
          "indexed": false,
          "internalType": "bool",
          "name": "approved",
          "type": "bool"
        }
      ],
      "name": "ApprovalForAll",
      "type": "event"
    },
    {
      "anonymous": false,
      "inputs": [
        {
          "indexed": false,
          "internalType": "uint256",
          "name": "tokenId",
          "type": "uint256"
        },
        {
          "components": [
            {
              "internalType": "string",
              "name": "key",
              "type": "string"
            },
            {
              "internalType": "string",
              "name": "value",
              "type": "string"
            }
          ],
          "indexed": false,
          "internalType": "struct GhostmarketNFT.AttributesStruct[]",
          "name": "attributes",
          "type": "tuple[]"
        }
      ],
      "name": "AttributesSet",
      "type": "event"
    },
    {
      "anonymous": false,
      "inputs": [
        {
          "indexed": false,
          "internalType": "address",
          "name": "account",
          "type": "address"
        }
      ],
      "name": "Paused",
      "type": "event"
    },
    {
      "anonymous": false,
      "inputs": [
        {
          "indexed": true,
          "internalType": "bytes32",
          "name": "role",
          "type": "bytes32"
        },
        {
          "indexed": true,
          "internalType": "bytes32",
          "name": "previousAdminRole",
          "type": "bytes32"
        },
        {
          "indexed": true,
          "internalType": "bytes32",
          "name": "newAdminRole",
          "type": "bytes32"
        }
      ],
      "name": "RoleAdminChanged",
      "type": "event"
    },
    {
      "anonymous": false,
      "inputs": [
        {
          "indexed": true,
          "internalType": "bytes32",
          "name": "role",
          "type": "bytes32"
        },
        {
          "indexed": true,
          "internalType": "address",
          "name": "account",
          "type": "address"
        },
        {
          "indexed": true,
          "internalType": "address",
          "name": "sender",
          "type": "address"
        }
      ],
      "name": "RoleGranted",
      "type": "event"
    },
    {
      "anonymous": false,
      "inputs": [
        {
          "indexed": true,
          "internalType": "bytes32",
          "name": "role",
          "type": "bytes32"
        },
        {
          "indexed": true,
          "internalType": "address",
          "name": "account",
          "type": "address"
        },
        {
          "indexed": true,
          "internalType": "address",
          "name": "sender",
          "type": "address"
        }
      ],
      "name": "RoleRevoked",
      "type": "event"
    },
    {
      "anonymous": false,
      "inputs": [
        {
          "indexed": false,
          "internalType": "uint256",
          "name": "tokenId",
          "type": "uint256"
        },
        {
          "indexed": false,
          "internalType": "address[]",
          "name": "recipients",
          "type": "address[]"
        },
        {
          "indexed": false,
          "internalType": "uint256[]",
          "name": "bps",
          "type": "uint256[]"
        }
      ],
      "name": "SecondarySaleFees",
      "type": "event"
    },
    {
      "anonymous": false,
      "inputs": [
        {
          "indexed": true,
          "internalType": "address",
          "name": "from",
          "type": "address"
        },
        {
          "indexed": true,
          "internalType": "address",
          "name": "to",
          "type": "address"
        },
        {
          "indexed": true,
          "internalType": "uint256",
          "name": "tokenId",
          "type": "uint256"
        }
      ],
      "name": "Transfer",
      "type": "event"
    },
    {
      "anonymous": false,
      "inputs": [
        {
          "indexed": false,
          "internalType": "address",
          "name": "account",
          "type": "address"
        }
      ],
      "name": "Unpaused",
      "type": "event"
    },
    {
      "inputs": [],
      "name": "DEFAULT_ADMIN_ROLE",
      "outputs": [
        {
          "internalType": "bytes32",
          "name": "",
          "type": "bytes32"
        }
      ],
      "stateMutability": "view",
      "type": "function"
    },
    {
      "inputs": [],
      "name": "MINTER_ROLE",
      "outputs": [
        {
          "internalType": "bytes32",
          "name": "",
          "type": "bytes32"
        }
      ],
      "stateMutability": "view",
      "type": "function"
    },
    {
      "inputs": [],
      "name": "PAUSER_ROLE",
      "outputs": [
        {
          "internalType": "bytes32",
          "name": "",
          "type": "bytes32"
        }
      ],
      "stateMutability": "view",
      "type": "function"
    },
    {
      "inputs": [
        {
          "internalType": "address",
          "name": "to",
          "type": "address"
        },
        {
          "internalType": "uint256",
          "name": "tokenId",
          "type": "uint256"
        }
      ],
      "name": "approve",
      "outputs": [],
      "stateMutability": "nonpayable",
      "type": "function"
    },
    {
      "inputs": [
        {
          "internalType": "uint256",
          "name": "",
          "type": "uint256"
        },
        {
          "internalType": "uint256",
          "name": "",
          "type": "uint256"
        }
      ],
      "name": "attribute",
      "outputs": [
        {
          "internalType": "string",
          "name": "key",
          "type": "string"
        },
        {
          "internalType": "string",
          "name": "value",
          "type": "string"
        }
      ],
      "stateMutability": "view",
      "type": "function"
    },
    {
      "inputs": [
        {
          "internalType": "address",
          "name": "owner",
          "type": "address"
        }
      ],
      "name": "balanceOf",
      "outputs": [
        {
          "internalType": "uint256",
          "name": "",
          "type": "uint256"
        }
      ],
      "stateMutability": "view",
      "type": "function"
    },
    {
      "inputs": [
        {
          "internalType": "uint256",
          "name": "tokenId",
          "type": "uint256"
        }
      ],
      "name": "burn",
      "outputs": [],
      "stateMutability": "nonpayable",
      "type": "function"
    },
    {
      "inputs": [
        {
          "internalType": "uint256",
          "name": "",
          "type": "uint256"
        },
        {
          "internalType": "uint256",
          "name": "",
          "type": "uint256"
        }
      ],
      "name": "fees",
      "outputs": [
        {
          "internalType": "address payable",
          "name": "recipient",
          "type": "address"
        },
        {
          "internalType": "uint256",
          "name": "value",
          "type": "uint256"
        }
      ],
      "stateMutability": "view",
      "type": "function"
    },
    {
      "inputs": [
        {
          "internalType": "uint256",
          "name": "tokenId",
          "type": "uint256"
        }
      ],
      "name": "getApproved",
      "outputs": [
        {
          "internalType": "address",
          "name": "",
          "type": "address"
        }
      ],
      "stateMutability": "view",
      "type": "function"
    },
    {
      "inputs": [
        {
          "internalType": "bytes32",
          "name": "role",
          "type": "bytes32"
        }
      ],
      "name": "getRoleAdmin",
      "outputs": [
        {
          "internalType": "bytes32",
          "name": "",
          "type": "bytes32"
        }
      ],
      "stateMutability": "view",
      "type": "function"
    },
    {
      "inputs": [
        {
          "internalType": "bytes32",
          "name": "role",
          "type": "bytes32"
        },
        {
          "internalType": "uint256",
          "name": "index",
          "type": "uint256"
        }
      ],
      "name": "getRoleMember",
      "outputs": [
        {
          "internalType": "address",
          "name": "",
          "type": "address"
        }
      ],
      "stateMutability": "view",
      "type": "function"
    },
    {
      "inputs": [
        {
          "internalType": "bytes32",
          "name": "role",
          "type": "bytes32"
        }
      ],
      "name": "getRoleMemberCount",
      "outputs": [
        {
          "internalType": "uint256",
          "name": "",
          "type": "uint256"
        }
      ],
      "stateMutability": "view",
      "type": "function"
    },
    {
      "inputs": [
        {
          "internalType": "bytes32",
          "name": "role",
          "type": "bytes32"
        },
        {
          "internalType": "address",
          "name": "account",
          "type": "address"
        }
      ],
      "name": "grantRole",
      "outputs": [],
      "stateMutability": "nonpayable",
      "type": "function"
    },
    {
      "inputs": [
        {
          "internalType": "bytes32",
          "name": "role",
          "type": "bytes32"
        },
        {
          "internalType": "address",
          "name": "account",
          "type": "address"
        }
      ],
      "name": "hasRole",
      "outputs": [
        {
          "internalType": "bool",
          "name": "",
          "type": "bool"
        }
      ],
      "stateMutability": "view",
      "type": "function"
    },
    {
      "inputs": [
        {
          "internalType": "address",
          "name": "owner",
          "type": "address"
        },
        {
          "internalType": "address",
          "name": "operator",
          "type": "address"
        }
      ],
      "name": "isApprovedForAll",
      "outputs": [
        {
          "internalType": "bool",
          "name": "",
          "type": "bool"
        }
      ],
      "stateMutability": "view",
      "type": "function"
    },
    {
      "inputs": [],
      "name": "name",
      "outputs": [
        {
          "internalType": "string",
          "name": "",
          "type": "string"
        }
      ],
      "stateMutability": "view",
      "type": "function"
    },
    {
      "inputs": [
        {
          "internalType": "uint256",
          "name": "tokenId",
          "type": "uint256"
        }
      ],
      "name": "ownerOf",
      "outputs": [
        {
          "internalType": "address",
          "name": "",
          "type": "address"
        }
      ],
      "stateMutability": "view",
      "type": "function"
    },
    {
      "inputs": [],
      "name": "pause",
      "outputs": [],
      "stateMutability": "nonpayable",
      "type": "function"
    },
    {
      "inputs": [],
      "name": "paused",
      "outputs": [
        {
          "internalType": "bool",
          "name": "",
          "type": "bool"
        }
      ],
      "stateMutability": "view",
      "type": "function"
    },
    {
      "inputs": [
        {
          "internalType": "bytes32",
          "name": "role",
          "type": "bytes32"
        },
        {
          "internalType": "address",
          "name": "account",
          "type": "address"
        }
      ],
      "name": "renounceRole",
      "outputs": [],
      "stateMutability": "nonpayable",
      "type": "function"
    },
    {
      "inputs": [
        {
          "internalType": "bytes32",
          "name": "role",
          "type": "bytes32"
        },
        {
          "internalType": "address",
          "name": "account",
          "type": "address"
        }
      ],
      "name": "revokeRole",
      "outputs": [],
      "stateMutability": "nonpayable",
      "type": "function"
    },
    {
      "inputs": [
        {
          "internalType": "address",
          "name": "from",
          "type": "address"
        },
        {
          "internalType": "address",
          "name": "to",
          "type": "address"
        },
        {
          "internalType": "uint256",
          "name": "tokenId",
          "type": "uint256"
        }
      ],
      "name": "safeTransferFrom",
      "outputs": [],
      "stateMutability": "nonpayable",
      "type": "function"
    },
    {
      "inputs": [
        {
          "internalType": "address",
          "name": "from",
          "type": "address"
        },
        {
          "internalType": "address",
          "name": "to",
          "type": "address"
        },
        {
          "internalType": "uint256",
          "name": "tokenId",
          "type": "uint256"
        },
        {
          "internalType": "bytes",
          "name": "_data",
          "type": "bytes"
        }
      ],
      "name": "safeTransferFrom",
      "outputs": [],
      "stateMutability": "nonpayable",
      "type": "function"
    },
    {
      "inputs": [
        {
          "internalType": "address",
          "name": "operator",
          "type": "address"
        },
        {
          "internalType": "bool",
          "name": "approved",
          "type": "bool"
        }
      ],
      "name": "setApprovalForAll",
      "outputs": [],
      "stateMutability": "nonpayable",
      "type": "function"
    },
    {
      "inputs": [
        {
          "internalType": "bytes4",
          "name": "interfaceId",
          "type": "bytes4"
        }
      ],
      "name": "supportsInterface",
      "outputs": [
        {
          "internalType": "bool",
          "name": "",
          "type": "bool"
        }
      ],
      "stateMutability": "view",
      "type": "function"
    },
    {
      "inputs": [],
      "name": "symbol",
      "outputs": [
        {
          "internalType": "string",
          "name": "",
          "type": "string"
        }
      ],
      "stateMutability": "view",
      "type": "function"
    },
    {
      "inputs": [
        {
          "internalType": "uint256",
          "name": "index",
          "type": "uint256"
        }
      ],
      "name": "tokenByIndex",
      "outputs": [
        {
          "internalType": "uint256",
          "name": "",
          "type": "uint256"
        }
      ],
      "stateMutability": "view",
      "type": "function"
    },
    {
      "inputs": [
        {
          "internalType": "address",
          "name": "owner",
          "type": "address"
        },
        {
          "internalType": "uint256",
          "name": "index",
          "type": "uint256"
        }
      ],
      "name": "tokenOfOwnerByIndex",
      "outputs": [
        {
          "internalType": "uint256",
          "name": "",
          "type": "uint256"
        }
      ],
      "stateMutability": "view",
      "type": "function"
    },
    {
      "inputs": [
        {
          "internalType": "uint256",
          "name": "tokenId",
          "type": "uint256"
        }
      ],
      "name": "tokenURI",
      "outputs": [
        {
          "internalType": "string",
          "name": "",
          "type": "string"
        }
      ],
      "stateMutability": "view",
      "type": "function"
    },
    {
      "inputs": [],
      "name": "totalSupply",
      "outputs": [
        {
          "internalType": "uint256",
          "name": "",
          "type": "uint256"
        }
      ],
      "stateMutability": "view",
      "type": "function"
    },
    {
      "inputs": [
        {
          "internalType": "address",
          "name": "from",
          "type": "address"
        },
        {
          "internalType": "address",
          "name": "to",
          "type": "address"
        },
        {
          "internalType": "uint256",
          "name": "tokenId",
          "type": "uint256"
        }
      ],
      "name": "transferFrom",
      "outputs": [],
      "stateMutability": "nonpayable",
      "type": "function"
    },
    {
      "inputs": [],
      "name": "unpause",
      "outputs": [],
      "stateMutability": "nonpayable",
      "type": "function"
    },
    {
      "inputs": [
        {
          "internalType": "string",
          "name": "name",
          "type": "string"
        },
        {
          "internalType": "string",
          "name": "symbol",
          "type": "string"
        },
        {
          "internalType": "string",
          "name": "uri",
          "type": "string"
        }
      ],
      "name": "initialize",
      "outputs": [],
      "stateMutability": "nonpayable",
      "type": "function"
    },
    {
      "inputs": [
        {
          "internalType": "uint256",
          "name": "_tokenId",
          "type": "uint256"
        },
        {
          "components": [
            {
              "internalType": "string",
              "name": "key",
              "type": "string"
            },
            {
              "internalType": "string",
              "name": "value",
              "type": "string"
            }
          ],
          "internalType": "struct GhostmarketNFT.AttributesStruct[]",
          "name": "_attributes",
          "type": "tuple[]"
        }
      ],
      "name": "setAttributes",
      "outputs": [],
      "stateMutability": "nonpayable",
      "type": "function"
    },
    {
      "inputs": [
        {
          "internalType": "uint256",
          "name": "_tokenId",
          "type": "uint256"
        }
      ],
      "name": "getAttributes",
      "outputs": [
        {
          "components": [
            {
              "internalType": "string",
              "name": "key",
              "type": "string"
            },
            {
              "internalType": "string",
              "name": "value",
              "type": "string"
            }
          ],
          "internalType": "struct GhostmarketNFT.AttributesStruct[]",
          "name": "",
          "type": "tuple[]"
        }
      ],
      "stateMutability": "view",
      "type": "function"
    },
    {
      "inputs": [
        {
          "internalType": "uint256",
          "name": "_tokenId",
          "type": "uint256"
        }
      ],
      "name": "getFeeRecipients",
      "outputs": [
        {
          "internalType": "address payable[]",
          "name": "",
          "type": "address[]"
        }
      ],
      "stateMutability": "view",
      "type": "function"
    },
    {
      "inputs": [
        {
          "internalType": "uint256",
          "name": "_tokenId",
          "type": "uint256"
        }
      ],
      "name": "getFeeBps",
      "outputs": [
        {
          "internalType": "uint256[]",
          "name": "",
          "type": "uint256[]"
        }
      ],
      "stateMutability": "view",
      "type": "function"
    },
    {
      "inputs": [
        {
          "internalType": "uint256",
          "name": "_tokenId",
          "type": "uint256"
        },
        {
          "components": [
            {
              "internalType": "address payable",
              "name": "recipient",
              "type": "address"
            },
            {
              "internalType": "uint256",
              "name": "value",
              "type": "uint256"
            }
          ],
          "internalType": "struct GhostmarketNFT.Fee[]",
          "name": "_fees",
          "type": "tuple[]"
        }
      ],
      "name": "saveFees",
      "outputs": [],
      "stateMutability": "nonpayable",
      "type": "function"
    },
    {
      "inputs": [
        {
          "internalType": "uint256",
          "name": "_tokenId",
          "type": "uint256"
        },
        {
          "internalType": "address",
          "name": "_from",
          "type": "address"
        },
        {
          "internalType": "address",
          "name": "_to",
          "type": "address"
        }
      ],
      "name": "updateAccount",
      "outputs": [],
      "stateMutability": "nonpayable",
      "type": "function"
    },
    {
      "inputs": [
        {
          "internalType": "address",
          "name": "to",
          "type": "address"
        }
      ],
      "name": "mint",
      "outputs": [],
      "stateMutability": "nonpayable",
      "type": "function"
    },
    {
      "inputs": [
        {
          "internalType": "address",
          "name": "_to",
          "type": "address"
        },
        {
          "internalType": "uint256",
          "name": "_tokenId",
          "type": "uint256"
        },
        {
          "components": [
            {
              "internalType": "address payable",
              "name": "recipient",
              "type": "address"
            },
            {
              "internalType": "uint256",
              "name": "value",
              "type": "uint256"
            }
          ],
          "internalType": "struct GhostmarketNFT.Fee[]",
          "name": "_fees",
          "type": "tuple[]"
        }
      ],
      "name": "mint",
      "outputs": [],
      "stateMutability": "nonpayable",
      "type": "function"
    }
  ],
  "bytecode": "0x608060405234801561001057600080fd5b50613e72806100206000396000f3fe608060405234801561001057600080fd5b50600436106102d35760003560e01c80636352211e11610186578063a6487c53116100e3578063d539139311610097578063e63ab1e911610071578063e63ab1e914610645578063e985e9c51461066c578063f8b4c882146106a8576102d3565b8063d5391393146105f8578063d547741f1461061f578063e07f231914610632576102d3565b8063b9c4d9fb116100c8578063b9c4d9fb146105b2578063c87b56dd146105d2578063ca15c873146105e5576102d3565b8063a6487c531461058c578063b88d4fde1461059f576102d3565b80639010d07c1161013a57806395d89b411161011f57806395d89b4114610569578063a217fddf14610571578063a22cb46514610579576102d3565b80639010d07c1461051d57806391d1485414610530576102d3565b806370a082311161016b57806370a08231146104ef578063792fcf26146105025780638456cb5914610515576102d3565b80636352211e146104c95780636a627842146104dc576102d3565b806336568abe116102345780634378a6e3116101e85780635064dc53116101cd5780635064dc53146104785780635c975abb1461048b5780636308f1cd14610497576102d3565b80634378a6e3146104455780634f6ccce714610465576102d3565b80633f4ba83a116102195780633f4ba83a1461041757806342842e0e1461041f57806342966c6814610432576102d3565b806336568abe146103e35780633daab032146103f6576102d3565b806318160ddd1161028b578063248a9ca311610270578063248a9ca31461039a5780632f2ff15d146103bd5780632f745c59146103d0576102d3565b806318160ddd1461037557806323b872dd14610387576102d3565b8063081812fc116102bc578063081812fc14610315578063095ea7b3146103405780630ebd4c7f14610355576102d3565b806301ffc9a7146102d857806306fdde0314610300575b600080fd5b6102eb6102e63660046137e6565b6106bb565b60405190151581526020015b60405180910390f35b6103086106ce565b6040516102f79190613bde565b610328610323366004613789565b610760565b6040516001600160a01b0390911681526020016102f7565b61035361034e366004613707565b61080b565b005b610368610363366004613789565b61093d565b6040516102f79190613bcb565b60fd545b6040519081526020016102f7565b610353610395366004613619565b610a8a565b6103796103a8366004613789565b60009081526065602052604090206001015490565b6103536103cb3660046137a1565b610b12565b6103796103de366004613707565b610b34565b6103536103f13660046137a1565b610bdf565b6104096104043660046137c5565b610c01565b6040516102f7929190613bf1565b610353610d53565b61035361042d366004613619565b610dfb565b610353610440366004613789565b610e16565b610458610453366004613789565b610e9d565b6040516102f79190613bb8565b610379610473366004613789565b611034565b6103536104863660046139c9565b6110e6565b61015f5460ff166102eb565b6104aa6104a53660046137c5565b611295565b604080516001600160a01b0390931683526020830191909152016102f7565b6103286104d7366004613789565b6112dc565b6103536104ea3660046135c5565b611367565b6103796104fd3660046135c5565b611425565b6103536105103660046138d9565b6114bf565b610353611752565b61032861052b3660046137c5565b6117f6565b6102eb61053e3660046137a1565b60009182526065602090815260408084206001600160a01b0393909316845291905290205460ff1690565b610308611815565b610379600081565b6103536105873660046136d6565b611824565b61035361059a36600461381e565b6118f6565b6103536105ad366004613659565b6119c1565b6105c56105c0366004613789565b611a49565b6040516102f79190613b6b565b6103086105e0366004613789565b611b9b565b6103796105f3366004613789565b611c83565b6103797f9f2df0fed2c77648de5860a4cc508cd0818c85b8b8a1ab4ceeef8d981c8956a681565b61035361062d3660046137a1565b611c9a565b610353610640366004613898565b611ca4565b6103797f65d7a28e3265b37a6474929f336521b332c1681b933f6cb9f3376673440d862a81565b6102eb61067a3660046135e1565b6001600160a01b03918216600090815260ce6020908152604080832093909416825291909152205460ff1690565b6103536106b6366004613732565b611da0565b60006106c682611ea9565b90505b919050565b606060c980546106dd90613d65565b80601f016020809104026020016040519081016040528092919081815260200182805461070990613d65565b80156107565780601f1061072b57610100808354040283529160200191610756565b820191906000526020600020905b81548152906001019060200180831161073957829003601f168201915b5050505050905090565b600081815260cb60205260408120546001600160a01b03166107ef5760405162461bcd60e51b815260206004820152602c60248201527f4552433732313a20617070726f76656420717565727920666f72206e6f6e657860448201527f697374656e7420746f6b656e000000000000000000000000000000000000000060648201526084015b60405180910390fd5b50600090815260cd60205260409020546001600160a01b031690565b6000610816826112dc565b9050806001600160a01b0316836001600160a01b031614156108a05760405162461bcd60e51b815260206004820152602160248201527f4552433732313a20617070726f76616c20746f2063757272656e74206f776e6560448201527f720000000000000000000000000000000000000000000000000000000000000060648201526084016107e6565b336001600160a01b03821614806108bc57506108bc813361067a565b61092e5760405162461bcd60e51b815260206004820152603860248201527f4552433732313a20617070726f76652063616c6c6572206973206e6f74206f7760448201527f6e6572206e6f7220617070726f76656420666f7220616c6c000000000000000060648201526084016107e6565b6109388383611ee7565b505050565b60008181526101f660209081526040808320805482518185028101850190935280835260609493849084015b828210156109b1576000848152602090819020604080518082019091526002850290910180546001600160a01b03168252600190810154828401529083529092019101610969565b5050505090506000815167ffffffffffffffff8111156109e157634e487b7160e01b600052604160045260246000fd5b604051908082528060200260200182016040528015610a0a578160200160208202803683370190505b50905060005b8251811015610a8257828181518110610a3957634e487b7160e01b600052603260045260246000fd5b602002602001015160200151828281518110610a6557634e487b7160e01b600052603260045260246000fd5b602090810291909101015280610a7a81613da0565b915050610a10565b509392505050565b610a95335b82611f62565b610b075760405162461bcd60e51b815260206004820152603160248201527f4552433732313a207472616e736665722063616c6c6572206973206e6f74206f60448201527f776e6572206e6f7220617070726f76656400000000000000000000000000000060648201526084016107e6565b61093883838361206a565b610b1c828261224f565b600082815260976020526040902061093890826122ec565b6000610b3f83611425565b8210610bb35760405162461bcd60e51b815260206004820152602b60248201527f455243373231456e756d657261626c653a206f776e657220696e646578206f7560448201527f74206f6620626f756e647300000000000000000000000000000000000000000060648201526084016107e6565b506001600160a01b038216600090815260fb602090815260408083208484529091529020545b92915050565b610be98282612301565b60008281526097602052604090206109389082612389565b6101f56020528160005260406000208181548110610c1e57600080fd5b906000526020600020906002020160009150915050806000018054610c4290613d65565b80601f0160208091040260200160405190810160405280929190818152602001828054610c6e90613d65565b8015610cbb5780601f10610c9057610100808354040283529160200191610cbb565b820191906000526020600020905b815481529060010190602001808311610c9e57829003601f168201915b505050505090806001018054610cd090613d65565b80601f0160208091040260200160405190810160405280929190818152602001828054610cfc90613d65565b8015610d495780601f10610d1e57610100808354040283529160200191610d49565b820191906000526020600020905b815481529060010190602001808311610d2c57829003601f168201915b5050505050905082565b610d7d7f65d7a28e3265b37a6474929f336521b332c1681b933f6cb9f3376673440d862a3361053e565b610df1576040805162461bcd60e51b81526020600482015260248101919091527f4552433732315072657365744d696e7465725061757365724175746f49643a2060448201527f6d75737420686176652070617573657220726f6c6520746f20756e706175736560648201526084016107e6565b610df961239e565b565b610938838383604051806020016040528060008152506119c1565b610e1f33610a8f565b610e915760405162461bcd60e51b815260206004820152603060248201527f4552433732314275726e61626c653a2063616c6c6572206973206e6f74206f7760448201527f6e6572206e6f7220617070726f7665640000000000000000000000000000000060648201526084016107e6565b610e9a8161243c565b50565b60606101f56000838152602001908152602001600020805480602002602001604051908101604052809291908181526020016000905b828210156110295783829060005260206000209060020201604051806040016040529081600082018054610f0690613d65565b80601f0160208091040260200160405190810160405280929190818152602001828054610f3290613d65565b8015610f7f5780601f10610f5457610100808354040283529160200191610f7f565b820191906000526020600020905b815481529060010190602001808311610f6257829003601f168201915b50505050508152602001600182018054610f9890613d65565b80601f0160208091040260200160405190810160405280929190818152602001828054610fc490613d65565b80156110115780601f10610fe657610100808354040283529160200191611011565b820191906000526020600020905b815481529060010190602001808311610ff457829003601f168201915b50505050508152505081526020019060010190610ed3565b505050509050919050565b600061103f60fd5490565b82106110b35760405162461bcd60e51b815260206004820152602c60248201527f455243373231456e756d657261626c653a20676c6f62616c20696e646578206f60448201527f7574206f6620626f756e6473000000000000000000000000000000000000000060648201526084016107e6565b60fd82815481106110d457634e487b7160e01b600052603260045260246000fd5b90600052602060002001549050919050565b60005b81518110156109385760006001600160a01b031682828151811061111d57634e487b7160e01b600052603260045260246000fd5b6020026020010151600001516001600160a01b031614156111805760405162461bcd60e51b815260206004820152601b60248201527f526563697069656e742073686f756c642062652070726573656e74000000000060448201526064016107e6565b8181815181106111a057634e487b7160e01b600052603260045260246000fd5b602002602001015160200151600014156111fc5760405162461bcd60e51b815260206004820152601c60248201527f4665652076616c75652073686f756c6420626520706f7369746976650000000060448201526064016107e6565b60008381526101f660205260409020825183908390811061122d57634e487b7160e01b600052603260045260246000fd5b6020908102919091018101518254600180820185556000948552938390208251600290920201805473ffffffffffffffffffffffffffffffffffffffff19166001600160a01b039092169190911781559101519101558061128d81613da0565b9150506110e9565b6101f660205281600052604060002081815481106112b257600080fd5b6000918252602090912060029091020180546001909101546001600160a01b039091169250905082565b600081815260cb60205260408120546001600160a01b0316806106c65760405162461bcd60e51b815260206004820152602960248201527f4552433732313a206f776e657220717565727920666f72206e6f6e657869737460448201527f656e7420746f6b656e000000000000000000000000000000000000000000000060648201526084016107e6565b6113917f9f2df0fed2c77648de5860a4cc508cd0818c85b8b8a1ab4ceeef8d981c8956a63361053e565b6114035760405162461bcd60e51b815260206004820152603d60248201527f4552433732315072657365744d696e7465725061757365724175746f49643a2060448201527f6d7573742068617665206d696e74657220726f6c6520746f206d696e7400000060648201526084016107e6565b611416816114116101c35490565b6124f0565b610e9a6101c380546001019055565b60006001600160a01b0382166114a35760405162461bcd60e51b815260206004820152602a60248201527f4552433732313a2062616c616e636520717565727920666f7220746865207a6560448201527f726f20616464726573730000000000000000000000000000000000000000000060648201526084016107e6565b506001600160a01b0316600090815260cc602052604090205490565b60005b81518110156109385760408051600081526020810191829052519020825183908390811061150057634e487b7160e01b600052603260045260246000fd5b60200260200101516000015160405160200161151c9190613ae4565b6040516020818303038152906040528051906020012014156115a65760405162461bcd60e51b815260206004820152602160248201527f417474726962757465206b65792073686f756c64206e6f7420626520656d707460448201527f790000000000000000000000000000000000000000000000000000000000000060648201526084016107e6565b6040805160008152602081019182905251902082518390839081106115db57634e487b7160e01b600052603260045260246000fd5b6020026020010151602001516040516020016115f79190613ae4565b6040516020818303038152906040528051906020012014156116815760405162461bcd60e51b815260206004820152602360248201527f4174747269627574652076616c75652073686f756c64206e6f7420626520656d60448201527f707479000000000000000000000000000000000000000000000000000000000060648201526084016107e6565b60008381526101f56020526040902082518390839081106116b257634e487b7160e01b600052603260045260246000fd5b6020908102919091018101518254600181018455600093845292829020815180519294600202909101926116eb9284929091019061341a565b506020828101518051611704926001850192019061341a565b5050507fa5800424c9d59fec069be83c374ba1fad8ad7472fcb6fb6648cbf62a557ae4e78383604051611738929190613c88565b60405180910390a18061174a81613da0565b9150506114c2565b61177c7f65d7a28e3265b37a6474929f336521b332c1681b933f6cb9f3376673440d862a3361053e565b6117ee5760405162461bcd60e51b815260206004820152603e60248201527f4552433732315072657365744d696e7465725061757365724175746f49643a2060448201527f6d75737420686176652070617573657220726f6c6520746f207061757365000060648201526084016107e6565b610df961264b565b600082815260976020526040812061180e90836126d5565b9392505050565b606060ca80546106dd90613d65565b6001600160a01b03821633141561187d5760405162461bcd60e51b815260206004820152601960248201527f4552433732313a20617070726f766520746f2063616c6c65720000000000000060448201526064016107e6565b33600081815260ce602090815260408083206001600160a01b0387168085529252909120805460ff1916841515179055906001600160a01b03167f17307eab39ab6107e8899845ad3d59bd9653f200f220920489ca2b5937696c31836040516118ea911515815260200190565b60405180910390a35050565b600054610100900460ff168061190f575060005460ff16155b6119725760405162461bcd60e51b815260206004820152602e60248201527f496e697469616c697a61626c653a20636f6e747261637420697320616c72656160448201526d191e481a5b9a5d1a585b1a5e995960921b60648201526084016107e6565b600054610100900460ff16158015611994576000805461ffff19166101011790555b61199e84846126e1565b6119a98484846127bd565b80156119bb576000805461ff00191690555b50505050565b6119cb3383611f62565b611a3d5760405162461bcd60e51b815260206004820152603160248201527f4552433732313a207472616e736665722063616c6c6572206973206e6f74206f60448201527f776e6572206e6f7220617070726f76656400000000000000000000000000000060648201526084016107e6565b6119bb848484846128d0565b60008181526101f660209081526040808320805482518185028101850190935280835260609493849084015b82821015611abd576000848152602090819020604080518082019091526002850290910180546001600160a01b03168252600190810154828401529083529092019101611a75565b5050505090506000815167ffffffffffffffff811115611aed57634e487b7160e01b600052604160045260246000fd5b604051908082528060200260200182016040528015611b16578160200160208202803683370190505b50905060005b8251811015610a8257828181518110611b4557634e487b7160e01b600052603260045260246000fd5b602002602001015160000151828281518110611b7157634e487b7160e01b600052603260045260246000fd5b6001600160a01b039092166020928302919091019091015280611b9381613da0565b915050611b1c565b600081815260cb60205260409020546060906001600160a01b0316611c285760405162461bcd60e51b815260206004820152602f60248201527f4552433732314d657461646174613a2055524920717565727920666f72206e6f60448201527f6e6578697374656e7420746f6b656e000000000000000000000000000000000060648201526084016107e6565b6000611c32612959565b90506000815111611c52576040518060200160405280600081525061180e565b80611c5c84612969565b604051602001611c6d929190613b00565b6040516020818303038152906040529392505050565b60008181526097602052604081206106c690612ab8565b610be98282612ac2565b60008381526101f66020526040812054905b81811015611d995760008581526101f66020526040902080546001600160a01b038616919083908110611cf957634e487b7160e01b600052603260045260246000fd5b60009182526020909120600290910201546001600160a01b03161415611d875760008581526101f660205260409020805484919083908110611d4b57634e487b7160e01b600052603260045260246000fd5b60009182526020909120600290910201805473ffffffffffffffffffffffffffffffffffffffff19166001600160a01b03929092169190911790555b80611d9181613da0565b915050611cb6565b5050505050565b611daa83836124f0565b6000815167ffffffffffffffff811115611dd457634e487b7160e01b600052604160045260246000fd5b604051908082528060200260200182016040528015611dfd578160200160208202803683370190505b5090506000825167ffffffffffffffff811115611e2a57634e487b7160e01b600052604160045260246000fd5b604051908082528060200260200182016040528015611e53578160200160208202803683370190505b509050611e6084846110e6565b825115611d99577f99aba1d63749cfd5ad1afda7c4663840924d54eb5f005bbbeadedc6ec13674b2848383604051611e9a93929190613c1f565b60405180910390a15050505050565b60006001600160e01b031982167f780e9d630000000000000000000000000000000000000000000000000000000014806106c657506106c682612b4f565b600081815260cd60205260409020805473ffffffffffffffffffffffffffffffffffffffff19166001600160a01b0384169081179091558190611f29826112dc565b6001600160a01b03167f8c5be1e5ebec7d5bd14f71427d1e84f3dd0314c0f7b2291e5b200ac8c7c3b92560405160405180910390a45050565b600081815260cb60205260408120546001600160a01b0316611fec5760405162461bcd60e51b815260206004820152602c60248201527f4552433732313a206f70657261746f7220717565727920666f72206e6f6e657860448201527f697374656e7420746f6b656e000000000000000000000000000000000000000060648201526084016107e6565b6000611ff7836112dc565b9050806001600160a01b0316846001600160a01b031614806120325750836001600160a01b031661202784610760565b6001600160a01b0316145b8061206257506001600160a01b03808216600090815260ce602090815260408083209388168352929052205460ff165b949350505050565b826001600160a01b031661207d826112dc565b6001600160a01b0316146120f95760405162461bcd60e51b815260206004820152602960248201527f4552433732313a207472616e73666572206f6620746f6b656e2074686174206960448201527f73206e6f74206f776e000000000000000000000000000000000000000000000060648201526084016107e6565b6001600160a01b0382166121745760405162461bcd60e51b8152602060048201526024808201527f4552433732313a207472616e7366657220746f20746865207a65726f2061646460448201527f726573730000000000000000000000000000000000000000000000000000000060648201526084016107e6565b61217f838383612bc1565b61218a600082611ee7565b6001600160a01b038316600090815260cc602052604081208054600192906121b3908490613d22565b90915550506001600160a01b038216600090815260cc602052604081208054600192906121e1908490613cf6565b9091555050600081815260cb6020526040808220805473ffffffffffffffffffffffffffffffffffffffff19166001600160a01b0386811691821790925591518493918716917fddf252ad1be2c89b69c2b068fc378daa952ba7f163c4a11628f55a4df523b3ef91a4505050565b60008281526065602052604090206001015461226c905b3361053e565b6122de5760405162461bcd60e51b815260206004820152602f60248201527f416363657373436f6e74726f6c3a2073656e646572206d75737420626520616e60448201527f2061646d696e20746f206772616e74000000000000000000000000000000000060648201526084016107e6565b6122e88282612bcc565b5050565b600061180e836001600160a01b038416612c6e565b6001600160a01b038116331461237f5760405162461bcd60e51b815260206004820152602f60248201527f416363657373436f6e74726f6c3a2063616e206f6e6c792072656e6f756e636560448201527f20726f6c657320666f722073656c66000000000000000000000000000000000060648201526084016107e6565b6122e88282612cbd565b600061180e836001600160a01b038416612d40565b61015f5460ff166123f15760405162461bcd60e51b815260206004820152601460248201527f5061757361626c653a206e6f742070617573656400000000000000000000000060448201526064016107e6565b61015f805460ff191690557f5db9ee0a495bf2e6ff9c91a7834c1ba4fdd244a5e8aa4e537bd38aeae4b073aa335b6040516001600160a01b03909116815260200160405180910390a1565b6000612447826112dc565b905061245581600084612bc1565b612460600083611ee7565b6001600160a01b038116600090815260cc60205260408120805460019290612489908490613d22565b9091555050600082815260cb6020526040808220805473ffffffffffffffffffffffffffffffffffffffff19169055518391906001600160a01b038416907fddf252ad1be2c89b69c2b068fc378daa952ba7f163c4a11628f55a4df523b3ef908390a45050565b6001600160a01b0382166125465760405162461bcd60e51b815260206004820181905260248201527f4552433732313a206d696e7420746f20746865207a65726f206164647265737360448201526064016107e6565b600081815260cb60205260409020546001600160a01b0316156125ab5760405162461bcd60e51b815260206004820152601c60248201527f4552433732313a20746f6b656e20616c7265616479206d696e7465640000000060448201526064016107e6565b6125b760008383612bc1565b6001600160a01b038216600090815260cc602052604081208054600192906125e0908490613cf6565b9091555050600081815260cb6020526040808220805473ffffffffffffffffffffffffffffffffffffffff19166001600160a01b03861690811790915590518392907fddf252ad1be2c89b69c2b068fc378daa952ba7f163c4a11628f55a4df523b3ef908290a45050565b61015f5460ff161561269f5760405162461bcd60e51b815260206004820152601060248201527f5061757361626c653a207061757365640000000000000000000000000000000060448201526064016107e6565b61015f805460ff191660011790557f62e78cea01bee320cd4e420270b5ea74000d11b0c9f74754ebdbfc544b05a25861241f3390565b600061180e8383612e5d565b600054610100900460ff16806126fa575060005460ff16155b61275d5760405162461bcd60e51b815260206004820152602e60248201527f496e697469616c697a61626c653a20636f6e747261637420697320616c72656160448201526d191e481a5b9a5d1a585b1a5e995960921b60648201526084016107e6565b600054610100900460ff1615801561277f576000805461ffff19166101011790555b82516127929060c990602086019061341a565b5081516127a69060ca90602085019061341a565b508015610938576000805461ff0019169055505050565b600054610100900460ff16806127d6575060005460ff16155b6128395760405162461bcd60e51b815260206004820152602e60248201527f496e697469616c697a61626c653a20636f6e747261637420697320616c72656160448201526d191e481a5b9a5d1a585b1a5e995960921b60648201526084016107e6565b600054610100900460ff1615801561285b576000805461ffff19166101011790555b815161286f906101c490602085019061341a565b5061287c6000335b612f0c565b6128a67f9f2df0fed2c77648de5860a4cc508cd0818c85b8b8a1ab4ceeef8d981c8956a633612877565b6119a97f65d7a28e3265b37a6474929f336521b332c1681b933f6cb9f3376673440d862a33612877565b6128db84848461206a565b6128e784848484612f16565b6119bb5760405162461bcd60e51b815260206004820152603260248201527f4552433732313a207472616e7366657220746f206e6f6e20455243373231526560448201527f63656976657220696d706c656d656e746572000000000000000000000000000060648201526084016107e6565b60606101c480546106dd90613d65565b6060816129aa575060408051808201909152600181527f300000000000000000000000000000000000000000000000000000000000000060208201526106c9565b8160005b81156129d457806129be81613da0565b91506129cd9050600a83613d0e565b91506129ae565b60008167ffffffffffffffff8111156129fd57634e487b7160e01b600052604160045260246000fd5b6040519080825280601f01601f191660200182016040528015612a27576020820181803683370190505b5090505b841561206257612a3c600183613d22565b9150612a49600a86613dbb565b612a54906030613cf6565b60f81b818381518110612a7757634e487b7160e01b600052603260045260246000fd5b60200101907effffffffffffffffffffffffffffffffffffffffffffffffffffffffffffff1916908160001a905350612ab1600a86613d0e565b9450612a2b565b60006106c6825490565b600082815260656020526040902060010154612add90612266565b61237f5760405162461bcd60e51b815260206004820152603060248201527f416363657373436f6e74726f6c3a2073656e646572206d75737420626520616e60448201527f2061646d696e20746f207265766f6b650000000000000000000000000000000060648201526084016107e6565b60006001600160e01b031982167f80ac58cd000000000000000000000000000000000000000000000000000000001480612bb257506001600160e01b031982167f5b5e139f00000000000000000000000000000000000000000000000000000000145b806106c657506106c682613079565b6109388383836130b7565b60008281526065602090815260408083206001600160a01b038516845290915290205460ff166122e85760008281526065602090815260408083206001600160a01b03851684529091529020805460ff19166001179055612c2a3390565b6001600160a01b0316816001600160a01b0316837f2f8788117e7eff1d82e926ec794901d17c78024a50270940304540a733656f0d60405160405180910390a45050565b6000818152600183016020526040812054612cb557508154600181810184556000848152602080822090930184905584548482528286019093526040902091909155610bd9565b506000610bd9565b60008281526065602090815260408083206001600160a01b038516845290915290205460ff16156122e85760008281526065602090815260408083206001600160a01b0385168085529252808320805460ff1916905551339285917ff6391f5c32d9c69d2a47ea670b442974b53935d1edc7fd64eb21e047a839171b9190a45050565b60008181526001830160205260408120548015612e53576000612d64600183613d22565b8554909150600090612d7890600190613d22565b90506000866000018281548110612d9f57634e487b7160e01b600052603260045260246000fd5b9060005260206000200154905080876000018481548110612dd057634e487b7160e01b600052603260045260246000fd5b600091825260209091200155612de7836001613cf6565b60008281526001890160205260409020558654879080612e1757634e487b7160e01b600052603160045260246000fd5b60019003818190600052602060002001600090559055866001016000878152602001908152602001600020600090556001945050505050610bd9565b6000915050610bd9565b81546000908210612ed65760405162461bcd60e51b815260206004820152602260248201527f456e756d657261626c655365743a20696e646578206f7574206f6620626f756e60448201527f647300000000000000000000000000000000000000000000000000000000000060648201526084016107e6565b826000018281548110612ef957634e487b7160e01b600052603260045260246000fd5b9060005260206000200154905092915050565b610b1c82826122de565b60006001600160a01b0384163b1561306e57604051630a85bd0160e11b81526001600160a01b0385169063150b7a0290612f5a903390899088908890600401613b2f565b602060405180830381600087803b158015612f7457600080fd5b505af1925050508015612fa4575060408051601f3d908101601f19168201909252612fa191810190613802565b60015b613054573d808015612fd2576040519150601f19603f3d011682016040523d82523d6000602084013e612fd7565b606091505b50805161304c5760405162461bcd60e51b815260206004820152603260248201527f4552433732313a207472616e7366657220746f206e6f6e20455243373231526560448201527f63656976657220696d706c656d656e746572000000000000000000000000000060648201526084016107e6565b805181602001fd5b6001600160e01b031916630a85bd0160e11b149050612062565b506001949350505050565b60006001600160e01b031982167f5a05180f0000000000000000000000000000000000000000000000000000000014806106c657506106c68261313c565b6130c28383836131a3565b61015f5460ff16156109385760405162461bcd60e51b815260206004820152602b60248201527f4552433732315061757361626c653a20746f6b656e207472616e73666572207760448201527f68696c652070617573656400000000000000000000000000000000000000000060648201526084016107e6565b60006001600160e01b031982167f7965db0b0000000000000000000000000000000000000000000000000000000014806106c657507f01ffc9a7000000000000000000000000000000000000000000000000000000006001600160e01b03198316146106c6565b6001600160a01b0383166131fe576131f98160fd8054600083815260fe60205260408120829055600182018355919091527f9346ac6dd7de6b96975fec380d4d994c4c12e6a8897544f22915316cc6cca2800155565b613221565b816001600160a01b0316836001600160a01b031614613221576132218382613260565b6001600160a01b03821661323d57613238816132fd565b610938565b826001600160a01b0316826001600160a01b0316146109385761093882826133d6565b6000600161326d84611425565b6132779190613d22565b600083815260fc60205260409020549091508082146132ca576001600160a01b038416600090815260fb60209081526040808320858452825280832054848452818420819055835260fc90915290208190555b50600091825260fc602090815260408084208490556001600160a01b03909416835260fb81528383209183525290812055565b60fd5460009061330f90600190613d22565b600083815260fe602052604081205460fd805493945090928490811061334557634e487b7160e01b600052603260045260246000fd5b906000526020600020015490508060fd838154811061337457634e487b7160e01b600052603260045260246000fd5b600091825260208083209091019290925582815260fe909152604080822084905585825281205560fd8054806133ba57634e487b7160e01b600052603160045260246000fd5b6001900381819060005260206000200160009055905550505050565b60006133e183611425565b6001600160a01b03909316600090815260fb60209081526040808320868452825280832085905593825260fc9052919091209190915550565b82805461342690613d65565b90600052602060002090601f016020900481019282613448576000855561348e565b82601f1061346157805160ff191683800117855561348e565b8280016001018555821561348e579182015b8281111561348e578251825591602001919060010190613473565b5061349a92915061349e565b5090565b5b8082111561349a576000815560010161349f565b600067ffffffffffffffff8311156134cd576134cd613dfb565b6134e0601f8401601f1916602001613ca1565b90508281528383830111156134f457600080fd5b828260208301376000602084830101529392505050565b600082601f83011261351b578081fd5b8135602061353061352b83613cd2565b613ca1565b80838252828201915082860187848660061b890101111561354f578586fd5b855b8581101561359957604080838b031215613569578788fd5b61357281613ca1565b833561357d81613e11565b8152838701358782015285529385019390910190600101613551565b5090979650505050505050565b600082601f8301126135b6578081fd5b61180e838335602085016134b3565b6000602082840312156135d6578081fd5b813561180e81613e11565b600080604083850312156135f3578081fd5b82356135fe81613e11565b9150602083013561360e81613e11565b809150509250929050565b60008060006060848603121561362d578081fd5b833561363881613e11565b9250602084013561364881613e11565b929592945050506040919091013590565b6000806000806080858703121561366e578081fd5b843561367981613e11565b9350602085013561368981613e11565b925060408501359150606085013567ffffffffffffffff8111156136ab578182fd5b8501601f810187136136bb578182fd5b6136ca878235602084016134b3565b91505092959194509250565b600080604083850312156136e8578182fd5b82356136f381613e11565b91506020830135801515811461360e578182fd5b60008060408385031215613719578182fd5b823561372481613e11565b946020939093013593505050565b600080600060608486031215613746578081fd5b833561375181613e11565b925060208401359150604084013567ffffffffffffffff811115613773578182fd5b61377f8682870161350b565b9150509250925092565b60006020828403121561379a578081fd5b5035919050565b600080604083850312156137b3578182fd5b82359150602083013561360e81613e11565b600080604083850312156137d7578182fd5b50508035926020909101359150565b6000602082840312156137f7578081fd5b813561180e81613e26565b600060208284031215613813578081fd5b815161180e81613e26565b600080600060608486031215613832578081fd5b833567ffffffffffffffff80821115613849578283fd5b613855878388016135a6565b9450602086013591508082111561386a578283fd5b613876878388016135a6565b9350604086013591508082111561388b578283fd5b5061377f868287016135a6565b6000806000606084860312156138ac578081fd5b8335925060208401356138be81613e11565b915060408401356138ce81613e11565b809150509250925092565b600080604083850312156138eb578182fd5b8235915060208084013567ffffffffffffffff8082111561390a578384fd5b818601915086601f83011261391d578384fd5b813561392b61352b82613cd2565b81815284810190848601875b848110156139b857813587016040818e03601f1901121561395657898afd5b6139606040613ca1565b8982013588811115613970578b8cfd5b61397e8f8c838601016135a6565b825250604082013588811115613992578b8cfd5b6139a08f8c838601016135a6565b828c0152508552509287019290870190600101613937565b50979a909950975050505050505050565b600080604083850312156139db578182fd5b82359150602083013567ffffffffffffffff8111156139f8578182fd5b613a048582860161350b565b9150509250929050565b600082825180855260208086019550808260051b840101818601855b8481101561359957601f19868403018952815160408151818652613a5082870182613ab8565b91505085820151915084810386860152613a6a8183613ab8565b9a86019a9450505090830190600101613a2a565b6000815180845260208085019450808401835b83811015613aad57815187529582019590820190600101613a91565b509495945050505050565b60008151808452613ad0816020860160208601613d39565b601f01601f19169290920160200192915050565b60008251613af6818460208701613d39565b9190910192915050565b60008351613b12818460208801613d39565b835190830190613b26818360208801613d39565b01949350505050565b60006001600160a01b03808716835280861660208401525083604083015260806060830152613b616080830184613ab8565b9695505050505050565b6020808252825182820181905260009190848201906040850190845b81811015613bac5783516001600160a01b031683529284019291840191600101613b87565b50909695505050505050565b60006020825261180e6020830184613a0e565b60006020825261180e6020830184613a7e565b60006020825261180e6020830184613ab8565b600060408252613c046040830185613ab8565b8281036020840152613c168185613ab8565b95945050505050565b60006060820185835260206060818501528186518084526080860191508288019350845b81811015613c685784516001600160a01b031683529383019391830191600101613c43565b50508481036040860152613c7c8187613a7e565b98975050505050505050565b6000838252604060208301526120626040830184613a0e565b604051601f8201601f1916810167ffffffffffffffff81118282101715613cca57613cca613dfb565b604052919050565b600067ffffffffffffffff821115613cec57613cec613dfb565b5060051b60200190565b60008219821115613d0957613d09613dcf565b500190565b600082613d1d57613d1d613de5565b500490565b600082821015613d3457613d34613dcf565b500390565b60005b83811015613d54578181015183820152602001613d3c565b838111156119bb5750506000910152565b600181811c90821680613d7957607f821691505b60208210811415613d9a57634e487b7160e01b600052602260045260246000fd5b50919050565b6000600019821415613db457613db4613dcf565b5060010190565b600082613dca57613dca613de5565b500690565b634e487b7160e01b600052601160045260246000fd5b634e487b7160e01b600052601260045260246000fd5b634e487b7160e01b600052604160045260246000fd5b6001600160a01b0381168114610e9a57600080fd5b6001600160e01b031981168114610e9a57600080fdfea2646970667358221220f10229e0bffa508b973d8b394e90a9603bb2a0eab06602b91fd8924772fe6d6664736f6c63430008030033",
  "immutableReferences": {},
  "source": "// SPDX-License-Identifier: MIT\npragma solidity ^0.8.3;\n\nimport \"@openzeppelin/contracts-upgradeable/token/ERC721/presets/ERC721PresetMinterPauserAutoIdUpgradeable.sol\";\nimport \"./LibAttribute.sol\";\n\n/**\n * @dev ERC721 token with minting, burning, pause, secondary sales royalitiy functions.\n *\n */\ncontract GhostmarketNFT is\n    Initializable,\n    ERC721PresetMinterPauserAutoIdUpgradeable\n{\n    // struct for secondary sales fees\n    struct Fee {\n        address payable recipient;\n        uint256 value;\n    }\n\n    //nft attributes struct\n    struct AttributesStruct {\n        string key;\n        string value;\n    }\n\n    // tokenId => attributes array\n    mapping(uint256 => AttributesStruct[]) public attribute;\n\n    // tokenId => fees array\n    mapping(uint256 => Fee[]) public fees;\n\n    event SecondarySaleFees(\n        uint256 tokenId,\n        address[] recipients,\n        uint256[] bps\n    );\n\n    event AttributesSet(uint256 tokenId, AttributesStruct[] attributes);\n\n    function initialize(\n        string memory name,\n        string memory symbol,\n        string memory uri\n    ) public override initializer {\n        __ERC721_init_unchained(name, symbol);\n        __ERC721PresetMinterPauserAutoId_init_unchained(name, symbol, uri);\n    }\n\n    /**\n     * @dev saves the nft tokens custom attributes to contract storage\n     * emits AttributesSet event\n     */\n    function setAttributes(\n        uint256 _tokenId,\n        AttributesStruct[] memory _attributes\n    ) public {\n        for (uint256 i = 0; i < _attributes.length; i++) {\n            require(\n                keccak256(abi.encodePacked(_attributes[i].key)) !=\n                    keccak256(abi.encodePacked(\"\")),\n                \"Attribute key should not be empty\"\n            );\n            require(\n                keccak256(abi.encodePacked(_attributes[i].value)) !=\n                    keccak256(abi.encodePacked(\"\")),\n                \"Attribute value should not be empty\"\n            );\n            attribute[_tokenId].push(_attributes[i]);\n            emit AttributesSet(_tokenId, _attributes);\n        }\n    }\n\n    /**\n     * @dev get the nft token attributes with the tokenId\n     */\n    function getAttributes(uint256 _tokenId)\n        public\n        view\n        returns (AttributesStruct[] memory)\n    {\n        return attribute[_tokenId];\n    }\n\n    /**\n     * @dev get the \"secondary sales\"/royalities fee recepients with the tokenId\n     */\n    function getFeeRecipients(uint256 _tokenId)\n        public\n        view\n        returns (address payable[] memory)\n    {\n        Fee[] memory _fees = fees[_tokenId];\n        address payable[] memory result = new address payable[](_fees.length);\n        for (uint256 i = 0; i < _fees.length; i++) {\n            result[i] = _fees[i].recipient;\n        }\n        return result;\n    }\n\n    /**\n     * @dev get the \"secondary sales\"/royalities fee basis points 10000 = 100% with the tokenId\n     */\n    function getFeeBps(uint256 _tokenId)\n        public\n        view\n        returns (uint256[] memory)\n    {\n        Fee[] memory _fees = fees[_tokenId];\n        uint256[] memory result = new uint256[](_fees.length);\n        for (uint256 i = 0; i < _fees.length; i++) {\n            result[i] = _fees[i].value;\n        }\n        return result;\n    }\n\n    /**\n     * @dev save the \"secondary sales\"/royalities fee for the nft\n     * fee basis points 10000 = 100%\n     */\n    function saveFees(uint256 _tokenId, Fee[] memory _fees) public {\n        for (uint256 i = 0; i < _fees.length; i++) {\n            require(\n                _fees[i].recipient != address(0x0),\n                \"Recipient should be present\"\n            );\n            require(_fees[i].value != 0, \"Fee value should be positive\");\n            fees[_tokenId].push(_fees[i]);\n        }\n    }\n\n    /**\n     * @dev change the recepient address of the \"secondary sales\"/royalities fee\n     */\n    function updateAccount(\n        uint256 _tokenId,\n        address _from,\n        address _to\n    ) public {\n        uint256 length = fees[_tokenId].length;\n        for (uint256 i = 0; i < length; i++) {\n            if (fees[_tokenId][i].recipient == _from) {\n                fees[_tokenId][i].recipient = payable(address(uint160(_to)));\n            }\n        }\n    }\n\n    /**\n     * @dev mint NFT and set fee\n     */\n    function mint(\n        address _to,\n        uint256 _tokenId,\n        Fee[] memory _fees\n    ) public {\n        super._mint(_to, _tokenId);\n        address[] memory recipients = new address[](_fees.length);\n        uint256[] memory bps = new uint256[](_fees.length);\n        saveFees(_tokenId, _fees);\n        if (_fees.length > 0) {\n            emit SecondarySaleFees(_tokenId, recipients, bps);\n        }\n    }\n}\n",
  "sourcePath": "/Users/selimerunkut/dev_freelance/GhostMarketContractBSC/contracts/GhostmarketNFT.sol",
  "compiler": {
    "name": "solc",
    "version": "0.8.3+commit.8d00100c.Emscripten.clang"
  },
  "schemaVersion": "3.3.4",
  "updatedAt": "2021-04-23T12:01:38.628Z",
  "devdoc": {
    "details": "ERC721 token with minting, burning, pause, secondary sales royalitiy functions.",
    "kind": "dev",
    "methods": {
      "approve(address,uint256)": {
        "details": "See {IERC721-approve}."
      },
      "balanceOf(address)": {
        "details": "See {IERC721-balanceOf}."
      },
      "burn(uint256)": {
        "details": "Burns `tokenId`. See {ERC721-_burn}. Requirements: - The caller must own `tokenId` or be an approved operator."
      },
      "getApproved(uint256)": {
        "details": "See {IERC721-getApproved}."
      },
      "getAttributes(uint256)": {
        "details": "get the nft token attributes with the tokenId"
      },
      "getFeeBps(uint256)": {
        "details": "get the \"secondary sales\"/royalities fee basis points 10000 = 100% with the tokenId"
      },
      "getFeeRecipients(uint256)": {
        "details": "get the \"secondary sales\"/royalities fee recepients with the tokenId"
      },
      "getRoleAdmin(bytes32)": {
        "details": "Returns the admin role that controls `role`. See {grantRole} and {revokeRole}. To change a role's admin, use {_setRoleAdmin}."
      },
      "getRoleMember(bytes32,uint256)": {
        "details": "Returns one of the accounts that have `role`. `index` must be a value between 0 and {getRoleMemberCount}, non-inclusive. Role bearers are not sorted in any particular way, and their ordering may change at any point. WARNING: When using {getRoleMember} and {getRoleMemberCount}, make sure you perform all queries on the same block. See the following https://forum.openzeppelin.com/t/iterating-over-elements-on-enumerableset-in-openzeppelin-contracts/2296[forum post] for more information."
      },
      "getRoleMemberCount(bytes32)": {
        "details": "Returns the number of accounts that have `role`. Can be used together with {getRoleMember} to enumerate all bearers of a role."
      },
      "grantRole(bytes32,address)": {
        "details": "Overload {grantRole} to track enumerable memberships"
      },
      "hasRole(bytes32,address)": {
        "details": "Returns `true` if `account` has been granted `role`."
      },
      "isApprovedForAll(address,address)": {
        "details": "See {IERC721-isApprovedForAll}."
      },
      "mint(address)": {
        "details": "Creates a new token for `to`. Its token ID will be automatically assigned (and available on the emitted {IERC721-Transfer} event), and the token URI autogenerated based on the base URI passed at construction. See {ERC721-_mint}. Requirements: - the caller must have the `MINTER_ROLE`."
      },
      "mint(address,uint256,(address,uint256)[])": {
        "details": "mint NFT and set fee"
      },
      "name()": {
        "details": "See {IERC721Metadata-name}."
      },
      "ownerOf(uint256)": {
        "details": "See {IERC721-ownerOf}."
      },
      "pause()": {
        "details": "Pauses all token transfers. See {ERC721Pausable} and {Pausable-_pause}. Requirements: - the caller must have the `PAUSER_ROLE`."
      },
      "paused()": {
        "details": "Returns true if the contract is paused, and false otherwise."
      },
      "renounceRole(bytes32,address)": {
        "details": "Overload {renounceRole} to track enumerable memberships"
      },
      "revokeRole(bytes32,address)": {
        "details": "Overload {revokeRole} to track enumerable memberships"
      },
      "safeTransferFrom(address,address,uint256)": {
        "details": "See {IERC721-safeTransferFrom}."
      },
      "safeTransferFrom(address,address,uint256,bytes)": {
        "details": "See {IERC721-safeTransferFrom}."
      },
      "saveFees(uint256,(address,uint256)[])": {
        "details": "save the \"secondary sales\"/royalities fee for the nft fee basis points 10000 = 100%"
      },
      "setApprovalForAll(address,bool)": {
        "details": "See {IERC721-setApprovalForAll}."
      },
      "setAttributes(uint256,(string,string)[])": {
        "details": "saves the nft tokens custom attributes to contract storage emits AttributesSet event"
      },
      "supportsInterface(bytes4)": {
        "details": "See {IERC165-supportsInterface}."
      },
      "symbol()": {
        "details": "See {IERC721Metadata-symbol}."
      },
      "tokenByIndex(uint256)": {
        "details": "See {IERC721Enumerable-tokenByIndex}."
      },
      "tokenOfOwnerByIndex(address,uint256)": {
        "details": "See {IERC721Enumerable-tokenOfOwnerByIndex}."
      },
      "tokenURI(uint256)": {
        "details": "See {IERC721Metadata-tokenURI}."
      },
      "totalSupply()": {
        "details": "See {IERC721Enumerable-totalSupply}."
      },
      "transferFrom(address,address,uint256)": {
        "details": "See {IERC721-transferFrom}."
      },
      "unpause()": {
        "details": "Unpauses all token transfers. See {ERC721Pausable} and {Pausable-_unpause}. Requirements: - the caller must have the `PAUSER_ROLE`."
      },
      "updateAccount(uint256,address,address)": {
        "details": "change the recepient address of the \"secondary sales\"/royalities fee"
      }
    },
    "version": 1
  },
  "userdoc": {
    "kind": "user",
    "methods": {},
    "version": 1
  }
}