{
  "contractName": "GhostMarketERC721",
  "abi": [
    {
      "anonymous": false,
      "inputs": [
        {
          "indexed": true,
          "internalType": "address",
          "name": "owner",
          "type": "address"
        },
        {
          "indexed": true,
          "internalType": "address",
          "name": "approved",
          "type": "address"
        },
        {
          "indexed": true,
          "internalType": "uint256",
          "name": "tokenId",
          "type": "uint256"
        }
      ],
      "name": "Approval",
      "type": "event"
    },
    {
      "anonymous": false,
      "inputs": [
        {
          "indexed": true,
          "internalType": "address",
          "name": "owner",
          "type": "address"
        },
        {
          "indexed": true,
          "internalType": "address",
          "name": "operator",
          "type": "address"
        },
        {
          "indexed": false,
          "internalType": "bool",
          "name": "approved",
          "type": "bool"
        }
      ],
      "name": "ApprovalForAll",
      "type": "event"
    },
    {
      "anonymous": false,
      "inputs": [
        {
          "indexed": false,
          "internalType": "uint256",
          "name": "tokenId",
          "type": "uint256"
        },
        {
          "indexed": false,
          "internalType": "string",
          "name": "metadataJson",
          "type": "string"
        }
      ],
      "name": "AttributesSet",
      "type": "event"
    },
    {
      "anonymous": false,
      "inputs": [
        {
          "indexed": false,
          "internalType": "address",
          "name": "msgSender",
          "type": "address"
        },
        {
          "indexed": false,
          "internalType": "uint256",
          "name": "tokenId",
          "type": "uint256"
        },
        {
          "indexed": false,
          "internalType": "string",
          "name": "lockedContent",
          "type": "string"
        }
      ],
      "name": "LockedContentViewed",
      "type": "event"
    },
    {
      "anonymous": false,
      "inputs": [
        {
          "indexed": false,
          "internalType": "uint256",
          "name": "newValue",
          "type": "uint256"
        }
      ],
      "name": "MintFeesChanged",
      "type": "event"
    },
    {
      "anonymous": false,
      "inputs": [
        {
          "indexed": false,
          "internalType": "address",
          "name": "feeWithdrawer",
          "type": "address"
        },
        {
          "indexed": false,
          "internalType": "uint256",
          "name": "withdrawAmount",
          "type": "uint256"
        }
      ],
      "name": "MintFeesWithdrawn",
      "type": "event"
    },
    {
      "anonymous": false,
      "inputs": [
        {
          "indexed": false,
          "internalType": "address",
          "name": "toAddress",
          "type": "address"
        },
        {
          "indexed": false,
          "internalType": "uint256",
          "name": "tokenId",
          "type": "uint256"
        },
        {
          "indexed": false,
          "internalType": "string",
          "name": "tokenURI",
          "type": "string"
        },
        {
          "indexed": false,
          "internalType": "string",
          "name": "externalURI",
          "type": "string"
        },
        {
          "indexed": false,
          "internalType": "uint256",
          "name": "mintFees",
          "type": "uint256"
        }
      ],
      "name": "Minted",
      "type": "event"
    },
    {
      "anonymous": false,
      "inputs": [
        {
          "indexed": true,
          "internalType": "address",
          "name": "previousOwner",
          "type": "address"
        },
        {
          "indexed": true,
          "internalType": "address",
          "name": "newOwner",
          "type": "address"
        }
      ],
      "name": "OwnershipTransferred",
      "type": "event"
    },
    {
      "anonymous": false,
      "inputs": [
        {
          "indexed": false,
          "internalType": "address",
          "name": "account",
          "type": "address"
        }
      ],
      "name": "Paused",
      "type": "event"
    },
    {
      "anonymous": false,
      "inputs": [
        {
          "indexed": true,
          "internalType": "bytes32",
          "name": "role",
          "type": "bytes32"
        },
        {
          "indexed": true,
          "internalType": "bytes32",
          "name": "previousAdminRole",
          "type": "bytes32"
        },
        {
          "indexed": true,
          "internalType": "bytes32",
          "name": "newAdminRole",
          "type": "bytes32"
        }
      ],
      "name": "RoleAdminChanged",
      "type": "event"
    },
    {
      "anonymous": false,
      "inputs": [
        {
          "indexed": true,
          "internalType": "bytes32",
          "name": "role",
          "type": "bytes32"
        },
        {
          "indexed": true,
          "internalType": "address",
          "name": "account",
          "type": "address"
        },
        {
          "indexed": true,
          "internalType": "address",
          "name": "sender",
          "type": "address"
        }
      ],
      "name": "RoleGranted",
      "type": "event"
    },
    {
      "anonymous": false,
      "inputs": [
        {
          "indexed": true,
          "internalType": "bytes32",
          "name": "role",
          "type": "bytes32"
        },
        {
          "indexed": true,
          "internalType": "address",
          "name": "account",
          "type": "address"
        },
        {
          "indexed": true,
          "internalType": "address",
          "name": "sender",
          "type": "address"
        }
      ],
      "name": "RoleRevoked",
      "type": "event"
    },
    {
      "anonymous": false,
      "inputs": [
        {
          "indexed": false,
          "internalType": "uint256",
          "name": "tokenId",
          "type": "uint256"
        },
        {
          "indexed": false,
          "internalType": "address[]",
          "name": "recipients",
          "type": "address[]"
        },
        {
          "indexed": false,
          "internalType": "uint256[]",
          "name": "bps",
          "type": "uint256[]"
        }
      ],
      "name": "RoyaltiesFeesSet",
      "type": "event"
    },
    {
      "anonymous": false,
      "inputs": [
        {
          "indexed": true,
          "internalType": "address",
          "name": "from",
          "type": "address"
        },
        {
          "indexed": true,
          "internalType": "address",
          "name": "to",
          "type": "address"
        },
        {
          "indexed": true,
          "internalType": "uint256",
          "name": "tokenId",
          "type": "uint256"
        }
      ],
      "name": "Transfer",
      "type": "event"
    },
    {
      "anonymous": false,
      "inputs": [
        {
          "indexed": false,
          "internalType": "address",
          "name": "account",
          "type": "address"
        }
      ],
      "name": "Unpaused",
      "type": "event"
    },
    {
      "inputs": [],
      "name": "DEFAULT_ADMIN_ROLE",
      "outputs": [
        {
          "internalType": "bytes32",
          "name": "",
          "type": "bytes32"
        }
      ],
      "stateMutability": "view",
      "type": "function",
      "constant": true
    },
    {
      "inputs": [],
      "name": "MINTER_ROLE",
      "outputs": [
        {
          "internalType": "bytes32",
          "name": "",
          "type": "bytes32"
        }
      ],
      "stateMutability": "view",
      "type": "function",
      "constant": true
    },
    {
      "inputs": [],
      "name": "PAUSER_ROLE",
      "outputs": [
        {
          "internalType": "bytes32",
          "name": "",
          "type": "bytes32"
        }
      ],
      "stateMutability": "view",
      "type": "function",
      "constant": true
    },
    {
      "inputs": [],
      "name": "POLYNETWORK_ROLE",
      "outputs": [
        {
          "internalType": "bytes32",
          "name": "",
          "type": "bytes32"
        }
      ],
      "stateMutability": "view",
      "type": "function",
      "constant": true
    },
    {
      "inputs": [
        {
          "internalType": "address",
          "name": "to",
          "type": "address"
        },
        {
          "internalType": "uint256",
          "name": "tokenId",
          "type": "uint256"
        }
      ],
      "name": "approve",
      "outputs": [],
      "stateMutability": "nonpayable",
      "type": "function"
    },
    {
      "inputs": [
        {
          "internalType": "address",
          "name": "owner",
          "type": "address"
        }
      ],
      "name": "balanceOf",
      "outputs": [
        {
          "internalType": "uint256",
          "name": "",
          "type": "uint256"
        }
      ],
      "stateMutability": "view",
      "type": "function",
      "constant": true
    },
    {
      "inputs": [
        {
          "internalType": "uint256",
          "name": "tokenId",
          "type": "uint256"
        }
      ],
      "name": "burn",
      "outputs": [],
      "stateMutability": "nonpayable",
      "type": "function"
    },
    {
      "inputs": [
        {
          "internalType": "uint256",
          "name": "tokenId",
          "type": "uint256"
        }
      ],
      "name": "getApproved",
      "outputs": [
        {
          "internalType": "address",
          "name": "",
          "type": "address"
        }
      ],
      "stateMutability": "view",
      "type": "function",
      "constant": true
    },
    {
      "inputs": [],
      "name": "getCurrentCounter",
      "outputs": [
        {
          "internalType": "uint256",
          "name": "",
          "type": "uint256"
        }
      ],
      "stateMutability": "view",
      "type": "function",
      "constant": true
    },
    {
      "inputs": [],
      "name": "getLastTokenID",
      "outputs": [
        {
          "internalType": "uint256",
          "name": "",
          "type": "uint256"
        }
      ],
      "stateMutability": "view",
      "type": "function",
      "constant": true
    },
    {
      "inputs": [
        {
          "internalType": "bytes32",
          "name": "role",
          "type": "bytes32"
        }
      ],
      "name": "getRoleAdmin",
      "outputs": [
        {
          "internalType": "bytes32",
          "name": "",
          "type": "bytes32"
        }
      ],
      "stateMutability": "view",
      "type": "function",
      "constant": true
    },
    {
      "inputs": [
        {
          "internalType": "bytes32",
          "name": "role",
          "type": "bytes32"
        },
        {
          "internalType": "uint256",
          "name": "index",
          "type": "uint256"
        }
      ],
      "name": "getRoleMember",
      "outputs": [
        {
          "internalType": "address",
          "name": "",
          "type": "address"
        }
      ],
      "stateMutability": "view",
      "type": "function",
      "constant": true
    },
    {
      "inputs": [
        {
          "internalType": "bytes32",
          "name": "role",
          "type": "bytes32"
        }
      ],
      "name": "getRoleMemberCount",
      "outputs": [
        {
          "internalType": "uint256",
          "name": "",
          "type": "uint256"
        }
      ],
      "stateMutability": "view",
      "type": "function",
      "constant": true
    },
    {
      "inputs": [
        {
          "internalType": "bytes32",
          "name": "role",
          "type": "bytes32"
        },
        {
          "internalType": "address",
          "name": "account",
          "type": "address"
        }
      ],
      "name": "grantRole",
      "outputs": [],
      "stateMutability": "nonpayable",
      "type": "function"
    },
    {
      "inputs": [
        {
          "internalType": "bytes32",
          "name": "role",
          "type": "bytes32"
        },
        {
          "internalType": "address",
          "name": "account",
          "type": "address"
        }
      ],
      "name": "hasRole",
      "outputs": [
        {
          "internalType": "bool",
          "name": "",
          "type": "bool"
        }
      ],
      "stateMutability": "view",
      "type": "function",
      "constant": true
    },
    {
      "inputs": [
        {
          "internalType": "address",
          "name": "owner",
          "type": "address"
        },
        {
          "internalType": "address",
          "name": "operator",
          "type": "address"
        }
      ],
      "name": "isApprovedForAll",
      "outputs": [
        {
          "internalType": "bool",
          "name": "",
          "type": "bool"
        }
      ],
      "stateMutability": "view",
      "type": "function",
      "constant": true
    },
    {
      "inputs": [
        {
          "internalType": "address",
          "name": "to",
          "type": "address"
        },
        {
          "internalType": "uint256",
          "name": "tokenId",
          "type": "uint256"
        },
        {
          "internalType": "string",
          "name": "uri",
          "type": "string"
        }
      ],
      "name": "mintWithURI",
      "outputs": [],
      "stateMutability": "nonpayable",
      "type": "function"
    },
    {
      "inputs": [],
      "name": "name",
      "outputs": [
        {
          "internalType": "string",
          "name": "",
          "type": "string"
        }
      ],
      "stateMutability": "view",
      "type": "function",
      "constant": true
    },
    {
      "inputs": [],
      "name": "owner",
      "outputs": [
        {
          "internalType": "address",
          "name": "",
          "type": "address"
        }
      ],
      "stateMutability": "view",
      "type": "function",
      "constant": true
    },
    {
      "inputs": [
        {
          "internalType": "uint256",
          "name": "tokenId",
          "type": "uint256"
        }
      ],
      "name": "ownerOf",
      "outputs": [
        {
          "internalType": "address",
          "name": "",
          "type": "address"
        }
      ],
      "stateMutability": "view",
      "type": "function",
      "constant": true
    },
    {
      "inputs": [],
      "name": "pause",
      "outputs": [],
      "stateMutability": "nonpayable",
      "type": "function"
    },
    {
      "inputs": [],
      "name": "paused",
      "outputs": [
        {
          "internalType": "bool",
          "name": "",
          "type": "bool"
        }
      ],
      "stateMutability": "view",
      "type": "function",
      "constant": true
    },
    {
      "inputs": [],
      "name": "renounceOwnership",
      "outputs": [],
      "stateMutability": "nonpayable",
      "type": "function"
    },
    {
      "inputs": [
        {
          "internalType": "bytes32",
          "name": "role",
          "type": "bytes32"
        },
        {
          "internalType": "address",
          "name": "account",
          "type": "address"
        }
      ],
      "name": "renounceRole",
      "outputs": [],
      "stateMutability": "nonpayable",
      "type": "function"
    },
    {
      "inputs": [
        {
          "internalType": "bytes32",
          "name": "role",
          "type": "bytes32"
        },
        {
          "internalType": "address",
          "name": "account",
          "type": "address"
        }
      ],
      "name": "revokeRole",
      "outputs": [],
      "stateMutability": "nonpayable",
      "type": "function"
    },
    {
      "inputs": [
        {
          "internalType": "address",
          "name": "from",
          "type": "address"
        },
        {
          "internalType": "address",
          "name": "to",
          "type": "address"
        },
        {
          "internalType": "uint256",
          "name": "tokenId",
          "type": "uint256"
        }
      ],
      "name": "safeTransferFrom",
      "outputs": [],
      "stateMutability": "nonpayable",
      "type": "function"
    },
    {
      "inputs": [
        {
          "internalType": "address",
          "name": "from",
          "type": "address"
        },
        {
          "internalType": "address",
          "name": "to",
          "type": "address"
        },
        {
          "internalType": "uint256",
          "name": "tokenId",
          "type": "uint256"
        },
        {
          "internalType": "bytes",
          "name": "_data",
          "type": "bytes"
        }
      ],
      "name": "safeTransferFrom",
      "outputs": [],
      "stateMutability": "nonpayable",
      "type": "function"
    },
    {
      "inputs": [
        {
          "internalType": "address",
          "name": "operator",
          "type": "address"
        },
        {
          "internalType": "bool",
          "name": "approved",
          "type": "bool"
        }
      ],
      "name": "setApprovalForAll",
      "outputs": [],
      "stateMutability": "nonpayable",
      "type": "function"
    },
    {
      "inputs": [
        {
          "internalType": "string",
          "name": "baseTokenURI",
          "type": "string"
        }
      ],
      "name": "setBaseTokenURI",
      "outputs": [],
      "stateMutability": "nonpayable",
      "type": "function"
    },
    {
      "inputs": [
        {
          "internalType": "bytes4",
          "name": "interfaceId",
          "type": "bytes4"
        }
      ],
      "name": "supportsInterface",
      "outputs": [
        {
          "internalType": "bool",
          "name": "",
          "type": "bool"
        }
      ],
      "stateMutability": "view",
      "type": "function",
      "constant": true
    },
    {
      "inputs": [],
      "name": "symbol",
      "outputs": [
        {
          "internalType": "string",
          "name": "",
          "type": "string"
        }
      ],
      "stateMutability": "view",
      "type": "function",
      "constant": true
    },
    {
      "inputs": [
        {
          "internalType": "uint256",
          "name": "index",
          "type": "uint256"
        }
      ],
      "name": "tokenByIndex",
      "outputs": [
        {
          "internalType": "uint256",
          "name": "",
          "type": "uint256"
        }
      ],
      "stateMutability": "view",
      "type": "function",
      "constant": true
    },
    {
      "inputs": [
        {
          "internalType": "address",
          "name": "owner",
          "type": "address"
        },
        {
          "internalType": "uint256",
          "name": "index",
          "type": "uint256"
        }
      ],
      "name": "tokenOfOwnerByIndex",
      "outputs": [
        {
          "internalType": "uint256",
          "name": "",
          "type": "uint256"
        }
      ],
      "stateMutability": "view",
      "type": "function",
      "constant": true
    },
    {
      "inputs": [
        {
          "internalType": "uint256",
          "name": "tokenId",
          "type": "uint256"
        }
      ],
      "name": "tokenURI",
      "outputs": [
        {
          "internalType": "string",
          "name": "",
          "type": "string"
        }
      ],
      "stateMutability": "view",
      "type": "function",
      "constant": true
    },
    {
      "inputs": [],
      "name": "totalSupply",
      "outputs": [
        {
          "internalType": "uint256",
          "name": "",
          "type": "uint256"
        }
      ],
      "stateMutability": "view",
      "type": "function",
      "constant": true
    },
    {
      "inputs": [
        {
          "internalType": "address",
          "name": "from",
          "type": "address"
        },
        {
          "internalType": "address",
          "name": "to",
          "type": "address"
        },
        {
          "internalType": "uint256",
          "name": "tokenId",
          "type": "uint256"
        }
      ],
      "name": "transferFrom",
      "outputs": [],
      "stateMutability": "nonpayable",
      "type": "function"
    },
    {
      "inputs": [
        {
          "internalType": "address",
          "name": "newOwner",
          "type": "address"
        }
      ],
      "name": "transferOwnership",
      "outputs": [],
      "stateMutability": "nonpayable",
      "type": "function"
    },
    {
      "inputs": [],
      "name": "unpause",
      "outputs": [],
      "stateMutability": "nonpayable",
      "type": "function"
    },
    {
      "inputs": [
        {
          "internalType": "string",
          "name": "name",
          "type": "string"
        },
        {
          "internalType": "string",
          "name": "symbol",
          "type": "string"
        },
        {
          "internalType": "string",
          "name": "uri",
          "type": "string"
        }
      ],
      "name": "initialize",
      "outputs": [],
      "stateMutability": "nonpayable",
      "type": "function"
    },
    {
      "inputs": [
        {
          "internalType": "address",
          "name": "to",
          "type": "address"
        },
        {
          "components": [
            {
              "internalType": "address payable",
              "name": "recipient",
              "type": "address"
            },
            {
              "internalType": "uint256",
              "name": "value",
              "type": "uint256"
            }
          ],
          "internalType": "struct GhostMarketERC721.Royalty[]",
          "name": "royalties",
          "type": "tuple[]"
        },
        {
          "internalType": "string",
          "name": "externalURI",
          "type": "string"
        },
        {
          "internalType": "string",
          "name": "metadata",
          "type": "string"
        },
        {
          "internalType": "string",
          "name": "lockedcontent",
          "type": "string"
        }
      ],
      "name": "mintGhost",
      "outputs": [],
      "stateMutability": "payable",
      "type": "function",
      "payable": true
    },
    {
      "inputs": [
        {
          "internalType": "uint256",
          "name": "withdrawAmount",
          "type": "uint256"
        }
      ],
      "name": "withdraw",
      "outputs": [],
      "stateMutability": "nonpayable",
      "type": "function"
    },
    {
      "inputs": [
        {
          "internalType": "uint256[]",
          "name": "tokensId",
          "type": "uint256[]"
        }
      ],
      "name": "burnBatch",
      "outputs": [],
      "stateMutability": "nonpayable",
      "type": "function"
    },
    {
      "inputs": [
        {
          "internalType": "uint256",
          "name": "gmmf",
          "type": "uint256"
        }
      ],
      "name": "setGhostmarketMintFee",
      "outputs": [],
      "stateMutability": "nonpayable",
      "type": "function"
    },
    {
      "inputs": [],
      "name": "getGhostmarketMintFees",
      "outputs": [
        {
          "internalType": "uint256",
          "name": "",
          "type": "uint256"
        }
      ],
      "stateMutability": "view",
      "type": "function",
      "constant": true
    },
    {
      "inputs": [
        {
          "internalType": "uint256",
          "name": "tokenId",
          "type": "uint256"
        }
      ],
      "name": "getLockedContent",
      "outputs": [],
      "stateMutability": "nonpayable",
      "type": "function"
    },
    {
      "inputs": [
        {
          "internalType": "uint256",
          "name": "tokenId",
          "type": "uint256"
        }
      ],
      "name": "getCurrentLockedContentViewTracker",
      "outputs": [
        {
          "internalType": "uint256",
          "name": "",
          "type": "uint256"
        }
      ],
      "stateMutability": "view",
      "type": "function",
      "constant": true
    },
    {
      "inputs": [
        {
          "internalType": "uint256",
          "name": "tokenId",
          "type": "uint256"
        }
      ],
      "name": "getMetadataJson",
      "outputs": [
        {
          "internalType": "string",
          "name": "",
          "type": "string"
        }
      ],
      "stateMutability": "view",
      "type": "function",
      "constant": true
    },
    {
      "inputs": [
        {
          "internalType": "uint256",
          "name": "tokenId",
          "type": "uint256"
        }
      ],
      "name": "getRoyaltiesRecipients",
      "outputs": [
        {
          "internalType": "address payable[]",
          "name": "",
          "type": "address[]"
        }
      ],
      "stateMutability": "view",
      "type": "function",
      "constant": true
    },
    {
      "inputs": [
        {
          "internalType": "uint256",
          "name": "tokenId",
          "type": "uint256"
        }
      ],
      "name": "getRoyaltiesBps",
      "outputs": [
        {
          "internalType": "uint256[]",
          "name": "",
          "type": "uint256[]"
        }
      ],
      "stateMutability": "view",
      "type": "function",
      "constant": true
    }
  ],
  "bytecode": "0x608060405234801561001057600080fd5b50614f46806100206000396000f3fe60806040526004361061031e5760003560e01c806373448c46116101a5578063c6f4f0f0116100ec578063e24dbeae11610095578063e985e9c51161006f578063e985e9c514610918578063edcbc0bd14610961578063f2fde38b1461098e578063f7d027de146109ae57600080fd5b8063e24dbeae146108ae578063e4623c1b146108c4578063e63ab1e9146108e457600080fd5b8063d5391393116100c6578063d53913931461083a578063d547741f1461086e578063dac0f3d91461088e57600080fd5b8063c6f4f0f0146107cc578063c87b56dd146107fa578063ca15c8731461081a57600080fd5b80639ceea6651161014e578063a6487c5311610128578063a6487c531461075f578063b88d4fde1461077f578063c1793c581461079f57600080fd5b80639ceea665146106f6578063a217fddf1461072a578063a22cb4651461073f57600080fd5b80639010d07c1161017f5780639010d07c1461067b57806391d148541461069b57806395d89b41146106e157600080fd5b806373448c46146106325780638456cb59146106475780638da5cb5b1461065c57600080fd5b80632fffbf26116102695780634a99950b116102125780636352211e116101ec5780636352211e146105dd57806370a08231146105fd578063715018a61461061d57600080fd5b80634a99950b146105845780634f6ccce7146105a45780635c975abb146105c457600080fd5b80633f4ba83a116102435780633f4ba83a1461052f57806342842e0e1461054457806342966c681461056457600080fd5b80632fffbf26146104dc57806330176e13146104ef57806336568abe1461050f57600080fd5b80631c7e78f3116102cb5780632e1a7d4d116102a55780632e1a7d4d1461047c5780632f2ff15d1461049c5780632f745c59146104bc57600080fd5b80631c7e78f31461040c57806323b872dd1461042c578063248a9ca31461044c57600080fd5b8063095ea7b3116102fc578063095ea7b3146103b25780630e094137146103d457806318160ddd146103f757600080fd5b806301ffc9a71461032357806306fdde0314610358578063081812fc1461037a575b600080fd5b34801561032f57600080fd5b5061034361033e3660046148c2565b6109ce565b60405190151581526020015b60405180910390f35b34801561036457600080fd5b5061036d6109df565b60405161034f9190614c81565b34801561038657600080fd5b5061039a610395366004614865565b610a71565b6040516001600160a01b03909116815260200161034f565b3480156103be57600080fd5b506103d26103cd366004614750565b610b0b565b005b3480156103e057600080fd5b506103e9610c3d565b60405190815260200161034f565b34801561040357600080fd5b5060fd546103e9565b34801561041857600080fd5b506103d2610427366004614865565b610c70565b34801561043857600080fd5b506103d261044736600461451c565b610d4c565b34801561045857600080fd5b506103e9610467366004614865565b60009081526065602052604090206001015490565b34801561048857600080fd5b506103d2610497366004614865565b610dd4565b3480156104a857600080fd5b506103d26104b736600461487d565b610fc8565b3480156104c857600080fd5b506103e96104d7366004614750565b610fea565b6103d26104ea3660046145d9565b611092565b3480156104fb57600080fd5b506103d261050a3660046148fa565b61127e565b34801561051b57600080fd5b506103d261052a36600461487d565b611313565b34801561053b57600080fd5b506103d2611335565b34801561055057600080fd5b506103d261055f36600461451c565b6113dd565b34801561057057600080fd5b506103d261057f366004614865565b6113f8565b34801561059057600080fd5b506103d261059f36600461477b565b61147f565b3480156105b057600080fd5b506103e96105bf366004614865565b611594565b3480156105d057600080fd5b5061015f5460ff16610343565b3480156105e957600080fd5b5061039a6105f8366004614865565b611646565b34801561060957600080fd5b506103e96106183660046144c8565b6116d1565b34801561062957600080fd5b506103d261176b565b34801561063e57600080fd5b506103e9611812565b34801561065357600080fd5b506103d261181e565b34801561066857600080fd5b5061025b546001600160a01b031661039a565b34801561068757600080fd5b5061039a6106963660046148a1565b6118c2565b3480156106a757600080fd5b506103436106b636600461487d565b60009182526065602090815260408084206001600160a01b0393909316845291905290205460ff1690565b3480156106ed57600080fd5b5061036d6118e1565b34801561070257600080fd5b506103e97f8a9d57248f1015d5cac20111fe2512477434cf493627e5e959ca751e593d807981565b34801561073657600080fd5b506103e9600081565b34801561074b57600080fd5b506103d261075a36600461471f565b6118f0565b34801561076b57600080fd5b506103d261077a36600461492d565b6119b5565b34801561078b57600080fd5b506103d261079a36600461455c565b611ace565b3480156107ab57600080fd5b506107bf6107ba366004614865565b611b56565b60405161034f9190614c6e565b3480156107d857600080fd5b506103e96107e7366004614865565b600090815261028f602052604090205490565b34801561080657600080fd5b5061036d610815366004614865565b611ca3565b34801561082657600080fd5b506103e9610835366004614865565b611cae565b34801561084657600080fd5b506103e97f9f2df0fed2c77648de5860a4cc508cd0818c85b8b8a1ab4ceeef8d981c8956a681565b34801561087a57600080fd5b506103d261088936600461487d565b611cc5565b34801561089a57600080fd5b506103d26108a9366004614865565b611ccf565b3480156108ba57600080fd5b50610292546103e9565b3480156108d057600080fd5b506103d26108df3660046147d2565b611d82565b3480156108f057600080fd5b506103e97f65d7a28e3265b37a6474929f336521b332c1681b933f6cb9f3376673440d862a81565b34801561092457600080fd5b506103436109333660046144e4565b6001600160a01b03918216600090815260ce6020908152604080832093909416825291909152205460ff1690565b34801561096d57600080fd5b5061098161097c366004614865565b611dd0565b60405161034f9190614c21565b34801561099a57600080fd5b506103d26109a93660046144c8565b611f22565b3480156109ba57600080fd5b5061036d6109c9366004614865565b612057565b60006109d9826120fa565b92915050565b606060c980546109ee90614e39565b80601f0160208091040260200160405190810160405280929190818152602001828054610a1a90614e39565b8015610a675780601f10610a3c57610100808354040283529160200191610a67565b820191906000526020600020905b815481529060010190602001808311610a4a57829003601f168201915b5050505050905090565b600081815260cb60205260408120546001600160a01b0316610aef5760405162461bcd60e51b815260206004820152602c60248201527f4552433732313a20617070726f76656420717565727920666f72206e6f6e657860448201526b34b9ba32b73a103a37b5b2b760a11b60648201526084015b60405180910390fd5b50600090815260cd60205260409020546001600160a01b031690565b6000610b1682611646565b9050806001600160a01b0316836001600160a01b03161415610ba05760405162461bcd60e51b815260206004820152602160248201527f4552433732313a20617070726f76616c20746f2063757272656e74206f776e6560448201527f72000000000000000000000000000000000000000000000000000000000000006064820152608401610ae6565b336001600160a01b0382161480610bbc5750610bbc8133610933565b610c2e5760405162461bcd60e51b815260206004820152603860248201527f4552433732313a20617070726f76652063616c6c6572206973206e6f74206f7760448201527f6e6572206e6f7220617070726f76656420666f7220616c6c00000000000000006064820152608401610ae6565b610c388383612138565b505050565b6000610c496101f55490565b610c5a57506101f55490565b905090565b6001610c666101f55490565b610c559190614ddf565b33610c7a82611646565b6001600160a01b031614610cf65760405162461bcd60e51b815260206004820152602360248201527f43616c6c6572206d75737420626520746865206f776e6572206f66207468652060448201527f4e465400000000000000000000000000000000000000000000000000000000006064820152608401610ae6565b610cff816121a6565b600081815261028e60205260409081902090517f544b1d1249133c50ce89743ed1ca34a815bd50d42b71e6d331a1ac560013a8ec91610d419133918591614b62565b60405180910390a150565b610d57335b826121d4565b610dc95760405162461bcd60e51b815260206004820152603160248201527f4552433732313a207472616e736665722063616c6c6572206973206e6f74206f60448201527f776e6572206e6f7220617070726f7665640000000000000000000000000000006064820152608401610ae6565b610c388383836122cb565b61025b546001600160a01b03163314610e2f5760405162461bcd60e51b815260206004820181905260248201527f4f776e61626c653a2063616c6c6572206973206e6f7420746865206f776e65726044820152606401610ae6565b600081118015610e425750610291548111155b610eda5760405162461bcd60e51b815260206004820152604760248201527f576974686472617720616d6f756e742073686f756c642062652067726561746560448201527f72207468656e203020616e64206c657373207468656e20636f6e74726163742060648201527f62616c616e636500000000000000000000000000000000000000000000000000608482015260a401610ae6565b806102916000828254610eed9190614ddf565b9091555050604051600090339083908381818185875af1925050503d8060008114610f34576040519150601f19603f3d011682016040523d82523d6000602084013e610f39565b606091505b5050905080610f8a5760405162461bcd60e51b815260206004820152601060248201527f5472616e73666572206661696c65642e000000000000000000000000000000006044820152606401610ae6565b60408051338152602081018490527f3c897fa64265e543b9d36df079688f87240185d1bf1a937e4c45a56e1167873691015b60405180910390a15050565b610fd282826124a3565b6000828152609760205260409020610c3890826124c9565b6000610ff5836116d1565b82106110695760405162461bcd60e51b815260206004820152602b60248201527f455243373231456e756d657261626c653a206f776e657220696e646578206f7560448201527f74206f6620626f756e64730000000000000000000000000000000000000000006064820152608401610ae6565b506001600160a01b0391909116600090815260fb60209081526040808320938352929052205490565b60026102295414156110e65760405162461bcd60e51b815260206004820152601f60248201527f5265656e7472616e637947756172643a207265656e7472616e742063616c6c006044820152606401610ae6565b6002610229556110f5856124de565b60006110ff610c3d565b855190915015611113576111138186612500565b604080516000815260208101808352815190209161113391869101614a0d565b60405160208183030381529060405280519060200120146111585761115881846128cc565b604080516000815260208101808352815190209161117891859101614a0d565b604051602081830303815290604052805190602001201461119d5761119d818361291e565b6111a561293e565b60408051600081526020810180835281519020916111c591879101614a0d565b6040516020818303038152906040528051906020012014156112295760405162461bcd60e51b815260206004820152601a60248201527f65787465726e616c5552492063616e277420626520656d7074790000000000006044820152606401610ae6565b7f11413aa718d3e57bfd26cc02a5a7063b817108354e2d8058792b5a9600746721868261125584611ca3565b8734604051611268959493929190614b15565b60405180910390a1505060016102295550505050565b6112896000336106b6565b6112fb5760405162461bcd60e51b815260206004820152603460248201527f73657442617365546f6b656e5552493a206d75737420686176652041444d494e60448201527f20726f6c6520746f206368616e676520746869730000000000000000000000006064820152608401610ae6565b805161130f906101f6906020840190614382565b5050565b61131d82826129df565b6000828152609760205260409020610c389082612a67565b61135f7f65d7a28e3265b37a6474929f336521b332c1681b933f6cb9f3376673440d862a336106b6565b6113d3576040805162461bcd60e51b81526020600482015260248101919091527f4552433732315072657365744d696e7465725061757365724175746f49643a2060448201527f6d75737420686176652070617573657220726f6c6520746f20756e70617573656064820152608401610ae6565b6113db612a7c565b565b610c3883838360405180602001604052806000815250611ace565b61140133610d51565b6114735760405162461bcd60e51b815260206004820152603060248201527f4552433732314275726e61626c653a2063616c6c6572206973206e6f74206f7760448201527f6e6572206e6f7220617070726f766564000000000000000000000000000000006064820152608401610ae6565b61147c81612b1a565b50565b6114a97f8a9d57248f1015d5cac20111fe2512477434cf493627e5e959ca751e593d8079336106b6565b61151b5760405162461bcd60e51b815260206004820152603460248201527f6d696e74576974685552493a206d757374206861766520504f4c594e4554574f60448201527f524b5f524f4c4520726f6c6520746f206d696e740000000000000000000000006064820152608401610ae6565b600082815260cb60205260409020546001600160a01b0316156115805760405162461bcd60e51b815260206004820152601660248201527f746f6b656e20696420616c7265616479206578697374000000000000000000006044820152606401610ae6565b61158a8383612b23565b610c388282612b2d565b600061159f60fd5490565b82106116135760405162461bcd60e51b815260206004820152602c60248201527f455243373231456e756d657261626c653a20676c6f62616c20696e646578206f60448201527f7574206f6620626f756e647300000000000000000000000000000000000000006064820152608401610ae6565b60fd828154811061163457634e487b7160e01b600052603260045260246000fd5b90600052602060002001549050919050565b600081815260cb60205260408120546001600160a01b0316806109d95760405162461bcd60e51b815260206004820152602960248201527f4552433732313a206f776e657220717565727920666f72206e6f6e657869737460448201527f656e7420746f6b656e00000000000000000000000000000000000000000000006064820152608401610ae6565b60006001600160a01b03821661174f5760405162461bcd60e51b815260206004820152602a60248201527f4552433732313a2062616c616e636520717565727920666f7220746865207a6560448201527f726f2061646472657373000000000000000000000000000000000000000000006064820152608401610ae6565b506001600160a01b0316600090815260cc602052604090205490565b61025b546001600160a01b031633146117c65760405162461bcd60e51b815260206004820181905260248201527f4f776e61626c653a2063616c6c6572206973206e6f7420746865206f776e65726044820152606401610ae6565b61025b546040516000916001600160a01b0316907f8be0079c531659141344cd1fd0a4f28419497f9722a3daafe3b4186f6b6457e0908390a361025b80546001600160a01b0319169055565b6000610c556101f55490565b6118487f65d7a28e3265b37a6474929f336521b332c1681b933f6cb9f3376673440d862a336106b6565b6118ba5760405162461bcd60e51b815260206004820152603e60248201527f4552433732315072657365744d696e7465725061757365724175746f49643a2060448201527f6d75737420686176652070617573657220726f6c6520746f20706175736500006064820152608401610ae6565b6113db612b37565b60008281526097602052604081206118da9083612bc1565b9392505050565b606060ca80546109ee90614e39565b6001600160a01b0382163314156119495760405162461bcd60e51b815260206004820152601960248201527f4552433732313a20617070726f766520746f2063616c6c6572000000000000006044820152606401610ae6565b33600081815260ce602090815260408083206001600160a01b03871680855290835292819020805460ff191686151590811790915590519081529192917f17307eab39ab6107e8899845ad3d59bd9653f200f220920489ca2b5937696c31910160405180910390a35050565b600054610100900460ff16806119ce575060005460ff16155b611a315760405162461bcd60e51b815260206004820152602e60248201527f496e697469616c697a61626c653a20636f6e747261637420697320616c72656160448201526d191e481a5b9a5d1a585b1a5e995960921b6064820152608401610ae6565b600054610100900460ff16158015611a53576000805461ffff19166101011790555b611a5b612bcd565b611a63612bcd565b611a6b612bcd565b611a73612bcd565b611a7b612bcd565b611a83612bcd565b611a8b612c7f565b611a93612bcd565b611a9b612bcd565b611aa58484612d3c565b611aae82612e18565b611ab6612f69565b8015611ac8576000805461ff00191690555b50505050565b611ad833836121d4565b611b4a5760405162461bcd60e51b815260206004820152603160248201527f4552433732313a207472616e736665722063616c6c6572206973206e6f74206f60448201527f776e6572206e6f7220617070726f7665640000000000000000000000000000006064820152608401610ae6565b611ac88484848461305f565b600081815261028d60209081526040808320805482518185028101850190935280835260609493849084015b82821015611bca576000848152602090819020604080518082019091526002850290910180546001600160a01b03168252600190810154828401529083529092019101611b82565b5050505090506000815167ffffffffffffffff811115611bfa57634e487b7160e01b600052604160045260246000fd5b604051908082528060200260200182016040528015611c23578160200160208202803683370190505b50905060005b8251811015611c9b57828181518110611c5257634e487b7160e01b600052603260045260246000fd5b602002602001015160200151828281518110611c7e57634e487b7160e01b600052603260045260246000fd5b602090810291909101015280611c9381614e74565b915050611c29565b509392505050565b60606109d9826130e8565b60008181526097602052604081206109d990613267565b61131d8282613271565b611cda6000336106b6565b611d4c5760405162461bcd60e51b815260206004820152602c60248201527f43616c6c6572206d75737420686176652061646d696e20726f6c6520746f207360448201527f6574206d696e74206665657300000000000000000000000000000000000000006064820152608401610ae6565b6102928190556040518181527f0f3b48a5cb203023dd681facda0506fea024143e07ad14ff26c35d22204c310890602001610d41565b60005b815181101561130f57611dbe828281518110611db157634e487b7160e01b600052603260045260246000fd5b60200260200101516113f8565b80611dc881614e74565b915050611d85565b600081815261028d60209081526040808320805482518185028101850190935280835260609493849084015b82821015611e44576000848152602090819020604080518082019091526002850290910180546001600160a01b03168252600190810154828401529083529092019101611dfc565b5050505090506000815167ffffffffffffffff811115611e7457634e487b7160e01b600052604160045260246000fd5b604051908082528060200260200182016040528015611e9d578160200160208202803683370190505b50905060005b8251811015611c9b57828181518110611ecc57634e487b7160e01b600052603260045260246000fd5b602002602001015160000151828281518110611ef857634e487b7160e01b600052603260045260246000fd5b6001600160a01b039092166020928302919091019091015280611f1a81614e74565b915050611ea3565b61025b546001600160a01b03163314611f7d5760405162461bcd60e51b815260206004820181905260248201527f4f776e61626c653a2063616c6c6572206973206e6f7420746865206f776e65726044820152606401610ae6565b6001600160a01b038116611ff95760405162461bcd60e51b815260206004820152602660248201527f4f776e61626c653a206e6577206f776e657220697320746865207a65726f206160448201527f64647265737300000000000000000000000000000000000000000000000000006064820152608401610ae6565b61025b546040516001600160a01b038084169216907f8be0079c531659141344cd1fd0a4f28419497f9722a3daafe3b4186f6b6457e090600090a361025b80546001600160a01b0319166001600160a01b0392909216919091179055565b60008181526102906020526040902080546060919061207590614e39565b80601f01602080910402602001604051908101604052809291908181526020018280546120a190614e39565b80156120ee5780601f106120c3576101008083540402835291602001916120ee565b820191906000526020600020905b8154815290600101906020018083116120d157829003601f168201915b50505050509050919050565b60006001600160e01b031982167f780e9d630000000000000000000000000000000000000000000000000000000014806109d957506109d982613297565b600081815260cd6020526040902080546001600160a01b0319166001600160a01b038416908117909155819061216d82611646565b6001600160a01b03167f8c5be1e5ebec7d5bd14f71427d1e84f3dd0314c0f7b2291e5b200ac8c7c3b92560405160405180910390a45050565b600081815261028f60205260409020546121c1906001614d94565b600091825261028f602052604090912055565b600081815260cb60205260408120546001600160a01b031661224d5760405162461bcd60e51b815260206004820152602c60248201527f4552433732313a206f70657261746f7220717565727920666f72206e6f6e657860448201526b34b9ba32b73a103a37b5b2b760a11b6064820152608401610ae6565b600061225883611646565b9050806001600160a01b0316846001600160a01b031614806122935750836001600160a01b031661228884610a71565b6001600160a01b0316145b806122c357506001600160a01b03808216600090815260ce602090815260408083209388168352929052205460ff165b949350505050565b826001600160a01b03166122de82611646565b6001600160a01b03161461235a5760405162461bcd60e51b815260206004820152602960248201527f4552433732313a207472616e73666572206f6620746f6b656e2074686174206960448201527f73206e6f74206f776e00000000000000000000000000000000000000000000006064820152608401610ae6565b6001600160a01b0382166123d55760405162461bcd60e51b8152602060048201526024808201527f4552433732313a207472616e7366657220746f20746865207a65726f2061646460448201527f72657373000000000000000000000000000000000000000000000000000000006064820152608401610ae6565b6123e0838383613309565b6123eb600082612138565b6001600160a01b038316600090815260cc60205260408120805460019290612414908490614ddf565b90915550506001600160a01b038216600090815260cc60205260408120805460019290612442908490614d94565b9091555050600081815260cb602052604080822080546001600160a01b0319166001600160a01b0386811691821790925591518493918716917fddf252ad1be2c89b69c2b068fc378daa952ba7f163c4a11628f55a4df523b3ef91a4505050565b6000828152606560205260409020600101546124bf8133613314565b610c388383613394565b60006118da836001600160a01b038416613436565b6124f1816124ec6101f55490565b613485565b61147c6101f580546001019055565b600082815260cb60205260409020546001600160a01b03166125795760405162461bcd60e51b815260206004820152602c60248201527f4552433732313a20617070726f76656420717565727920666f72206e6f6e657860448201526b34b9ba32b73a103a37b5b2b760a11b6064820152608401610ae6565b60005b8151811015610c385760006001600160a01b03168282815181106125b057634e487b7160e01b600052603260045260246000fd5b6020026020010151600001516001600160a01b031614156126135760405162461bcd60e51b815260206004820152601b60248201527f526563697069656e742073686f756c642062652070726573656e7400000000006044820152606401610ae6565b600082828151811061263557634e487b7160e01b600052603260045260246000fd5b602002602001015160200151116126b45760405162461bcd60e51b815260206004820152602260248201527f526f79616c746965732076616c75652073686f756c6420626520706f7369746960448201527f76650000000000000000000000000000000000000000000000000000000000006064820152608401610ae6565b6113888282815181106126d757634e487b7160e01b600052603260045260246000fd5b60200260200101516020015111156127575760405162461bcd60e51b815260206004820152602b60248201527f526f79616c746965732076616c75652073686f756c64206e6f74206265206d6f60448201527f7265207468616e203530250000000000000000000000000000000000000000006064820152608401610ae6565b600083815261028d60205260409020825183908390811061278857634e487b7160e01b600052603260045260246000fd5b6020908102919091018101518254600180820185556000948552838520835160029093020180546001600160a01b0319166001600160a01b039093169290921782559190920151910155825167ffffffffffffffff8111156127fa57634e487b7160e01b600052604160045260246000fd5b604051908082528060200260200182016040528015612823578160200160208202803683370190505b5090506000835167ffffffffffffffff81111561285057634e487b7160e01b600052604160045260246000fd5b604051908082528060200260200182016040528015612879578160200160208202803683370190505b5090507f0daca41cf9c4835da0ce078144fcf7e2000a66f040f7e82fe43f4e5d234bb6bb8583836040516128af93929190614c94565b60405180910390a1505080806128c490614e74565b91505061257c565b60008281526102906020908152604090912082516128ec92840190614382565b507f701be7c18389620e1de28c2c2c047271c46744dea76cb7667f428af200ef4dde8282604051610fbc929190614cfd565b600082815261028e602090815260409091208251610c3892840190614382565b61029254156129bf576102925434146129bf5760405162461bcd60e51b815260206004820152603260248201527f57726f6e6720666565732076616c75652073656e7420746f2047686f73744d6160448201527f726b657420666f72206d696e74206665657300000000000000000000000000006064820152608401610ae6565b34156113db573461029160008282546129d89190614d94565b9091555050565b6001600160a01b0381163314612a5d5760405162461bcd60e51b815260206004820152602f60248201527f416363657373436f6e74726f6c3a2063616e206f6e6c792072656e6f756e636560448201527f20726f6c657320666f722073656c6600000000000000000000000000000000006064820152608401610ae6565b61130f82826135d3565b60006118da836001600160a01b038416613656565b61015f5460ff16612acf5760405162461bcd60e51b815260206004820152601460248201527f5061757361626c653a206e6f74207061757365640000000000000000000000006044820152606401610ae6565b61015f805460ff191690557f5db9ee0a495bf2e6ff9c91a7834c1ba4fdd244a5e8aa4e537bd38aeae4b073aa335b6040516001600160a01b03909116815260200160405180910390a1565b61147c8161376d565b61130f82826137af565b61130f82826137c9565b61015f5460ff1615612b8b5760405162461bcd60e51b815260206004820152601060248201527f5061757361626c653a20706175736564000000000000000000000000000000006044820152606401610ae6565b61015f805460ff191660011790557f62e78cea01bee320cd4e420270b5ea74000d11b0c9f74754ebdbfc544b05a258612afd3390565b60006118da8383613873565b600054610100900460ff1680612be6575060005460ff16155b612c495760405162461bcd60e51b815260206004820152602e60248201527f496e697469616c697a61626c653a20636f6e747261637420697320616c72656160448201526d191e481a5b9a5d1a585b1a5e995960921b6064820152608401610ae6565b600054610100900460ff16158015612c6b576000805461ffff19166101011790555b801561147c576000805461ff001916905550565b600054610100900460ff1680612c98575060005460ff16155b612cfb5760405162461bcd60e51b815260206004820152602e60248201527f496e697469616c697a61626c653a20636f6e747261637420697320616c72656160448201526d191e481a5b9a5d1a585b1a5e995960921b6064820152608401610ae6565b600054610100900460ff16158015612d1d576000805461ffff19166101011790555b61015f805460ff19169055801561147c576000805461ff001916905550565b600054610100900460ff1680612d55575060005460ff16155b612db85760405162461bcd60e51b815260206004820152602e60248201527f496e697469616c697a61626c653a20636f6e747261637420697320616c72656160448201526d191e481a5b9a5d1a585b1a5e995960921b6064820152608401610ae6565b600054610100900460ff16158015612dda576000805461ffff19166101011790555b8251612ded9060c9906020860190614382565b508151612e019060ca906020850190614382565b508015610c38576000805461ff0019169055505050565b600054610100900460ff1680612e31575060005460ff16155b612e945760405162461bcd60e51b815260206004820152602e60248201527f496e697469616c697a61626c653a20636f6e747261637420697320616c72656160448201526d191e481a5b9a5d1a585b1a5e995960921b6064820152608401610ae6565b600054610100900460ff16158015612eb6576000805461ffff19166101011790555b8151612eca906101f6906020850190614382565b50612ed6600033613922565b612f007f9f2df0fed2c77648de5860a4cc508cd0818c85b8b8a1ab4ceeef8d981c8956a633613922565b612f2a7f65d7a28e3265b37a6474929f336521b332c1681b933f6cb9f3376673440d862a33613922565b612f547f8a9d57248f1015d5cac20111fe2512477434cf493627e5e959ca751e593d807933613922565b801561130f576000805461ff00191690555050565b600054610100900460ff1680612f82575060005460ff16155b612fe55760405162461bcd60e51b815260206004820152602e60248201527f496e697469616c697a61626c653a20636f6e747261637420697320616c72656160448201526d191e481a5b9a5d1a585b1a5e995960921b6064820152608401610ae6565b600054610100900460ff16158015613007576000805461ffff19166101011790555b61025b80546001600160a01b0319163390811790915560405181906000907f8be0079c531659141344cd1fd0a4f28419497f9722a3daafe3b4186f6b6457e0908290a350801561147c576000805461ff001916905550565b61306a8484846122cb565b6130768484848461392c565b611ac85760405162461bcd60e51b815260206004820152603260248201527f4552433732313a207472616e7366657220746f206e6f6e20455243373231526560448201527f63656976657220696d706c656d656e74657200000000000000000000000000006064820152608401610ae6565b600081815260cb60205260409020546060906001600160a01b03166131755760405162461bcd60e51b815260206004820152603160248201527f45524337323155524953746f726167653a2055524920717565727920666f722060448201527f6e6f6e6578697374656e7420746f6b656e0000000000000000000000000000006064820152608401610ae6565b60008281526101c360205260408120805461318f90614e39565b80601f01602080910402602001604051908101604052809291908181526020018280546131bb90614e39565b80156132085780601f106131dd57610100808354040283529160200191613208565b820191906000526020600020905b8154815290600101906020018083116131eb57829003601f168201915b505050505090506000613219613a8f565b905080516000141561322c575092915050565b81511561325e578082604051602001613246929190614a29565b60405160208183030381529060405292505050919050565b6122c384613a9f565b60006109d9825490565b60008281526065602052604090206001015461328d8133613314565b610c3883836135d3565b60006001600160e01b031982167f80ac58cd0000000000000000000000000000000000000000000000000000000014806132fa57506001600160e01b031982167f5b5e139f00000000000000000000000000000000000000000000000000000000145b806109d957506109d982613b87565b610c38838383613bc5565b60008281526065602090815260408083206001600160a01b038516845290915290205460ff1661130f57613352816001600160a01b03166014613c4a565b61335d836020613c4a565b60405160200161336e929190614a58565b60408051601f198184030181529082905262461bcd60e51b8252610ae691600401614c81565b60008281526065602090815260408083206001600160a01b038516845290915290205460ff1661130f5760008281526065602090815260408083206001600160a01b03851684529091529020805460ff191660011790556133f23390565b6001600160a01b0316816001600160a01b0316837f2f8788117e7eff1d82e926ec794901d17c78024a50270940304540a733656f0d60405160405180910390a45050565b600081815260018301602052604081205461347d575081546001818101845560008481526020808220909301849055845484825282860190935260409020919091556109d9565b5060006109d9565b6001600160a01b0382166134db5760405162461bcd60e51b815260206004820181905260248201527f4552433732313a206d696e7420746f20746865207a65726f20616464726573736044820152606401610ae6565b600081815260cb60205260409020546001600160a01b0316156135405760405162461bcd60e51b815260206004820152601c60248201527f4552433732313a20746f6b656e20616c7265616479206d696e746564000000006044820152606401610ae6565b61354c60008383613309565b6001600160a01b038216600090815260cc60205260408120805460019290613575908490614d94565b9091555050600081815260cb602052604080822080546001600160a01b0319166001600160a01b03861690811790915590518392907fddf252ad1be2c89b69c2b068fc378daa952ba7f163c4a11628f55a4df523b3ef908290a45050565b60008281526065602090815260408083206001600160a01b038516845290915290205460ff161561130f5760008281526065602090815260408083206001600160a01b0385168085529252808320805460ff1916905551339285917ff6391f5c32d9c69d2a47ea670b442974b53935d1edc7fd64eb21e047a839171b9190a45050565b6000818152600183016020526040812054801561376357600061367a600183614ddf565b855490915060009061368e90600190614ddf565b905060008660000182815481106136b557634e487b7160e01b600052603260045260246000fd5b90600052602060002001549050808760000184815481106136e657634e487b7160e01b600052603260045260246000fd5b60009182526020808320909101929092558281526001890190915260409020849055865487908061372757634e487b7160e01b600052603160045260246000fd5b600190038181906000526020600020016000905590558660010160008781526020019081526020016000206000905560019450505050506109d9565b60009150506109d9565b61377681613e55565b60008181526101c360205260409020805461379090614e39565b15905061147c5760008181526101c36020526040812061147c91614406565b61130f828260405180602001604052806000815250613efc565b600082815260cb60205260409020546001600160a01b03166138535760405162461bcd60e51b815260206004820152602e60248201527f45524337323155524953746f726167653a2055524920736574206f66206e6f6e60448201527f6578697374656e7420746f6b656e0000000000000000000000000000000000006064820152608401610ae6565b60008281526101c3602090815260409091208251610c3892840190614382565b815460009082106138ec5760405162461bcd60e51b815260206004820152602260248201527f456e756d657261626c655365743a20696e646578206f7574206f6620626f756e60448201527f64730000000000000000000000000000000000000000000000000000000000006064820152608401610ae6565b82600001828154811061390f57634e487b7160e01b600052603260045260246000fd5b9060005260206000200154905092915050565b610fd28282613f85565b60006001600160a01b0384163b15613a8457604051630a85bd0160e11b81526001600160a01b0385169063150b7a0290613970903390899088908890600401614ad9565b602060405180830381600087803b15801561398a57600080fd5b505af19250505080156139ba575060408051601f3d908101601f191682019092526139b7918101906148de565b60015b613a6a573d8080156139e8576040519150601f19603f3d011682016040523d82523d6000602084013e6139ed565b606091505b508051613a625760405162461bcd60e51b815260206004820152603260248201527f4552433732313a207472616e7366657220746f206e6f6e20455243373231526560448201527f63656976657220696d706c656d656e74657200000000000000000000000000006064820152608401610ae6565b805181602001fd5b6001600160e01b031916630a85bd0160e11b1490506122c3565b506001949350505050565b60606101f680546109ee90614e39565b600081815260cb60205260409020546060906001600160a01b0316613b2c5760405162461bcd60e51b815260206004820152602f60248201527f4552433732314d657461646174613a2055524920717565727920666f72206e6f60448201527f6e6578697374656e7420746f6b656e00000000000000000000000000000000006064820152608401610ae6565b6000613b36613a8f565b90506000815111613b5657604051806020016040528060008152506118da565b80613b6084613f8f565b604051602001613b71929190614a29565b6040516020818303038152906040529392505050565b60006001600160e01b031982167f5a05180f0000000000000000000000000000000000000000000000000000000014806109d957506109d9826140a9565b613bd0838383614110565b61015f5460ff1615610c385760405162461bcd60e51b815260206004820152602b60248201527f4552433732315061757361626c653a20746f6b656e207472616e73666572207760448201527f68696c65207061757365640000000000000000000000000000000000000000006064820152608401610ae6565b60606000613c59836002614dc0565b613c64906002614d94565b67ffffffffffffffff811115613c8a57634e487b7160e01b600052604160045260246000fd5b6040519080825280601f01601f191660200182016040528015613cb4576020820181803683370190505b509050600360fc1b81600081518110613cdd57634e487b7160e01b600052603260045260246000fd5b60200101906001600160f81b031916908160001a9053507f780000000000000000000000000000000000000000000000000000000000000081600181518110613d3657634e487b7160e01b600052603260045260246000fd5b60200101906001600160f81b031916908160001a9053506000613d5a846002614dc0565b613d65906001614d94565b90505b6001811115613e06577f303132333435363738396162636465660000000000000000000000000000000085600f1660108110613db457634e487b7160e01b600052603260045260246000fd5b1a60f81b828281518110613dd857634e487b7160e01b600052603260045260246000fd5b60200101906001600160f81b031916908160001a90535060049490941c93613dff81614e22565b9050613d68565b5083156118da5760405162461bcd60e51b815260206004820181905260248201527f537472696e67733a20686578206c656e67746820696e73756666696369656e746044820152606401610ae6565b6000613e6082611646565b9050613e6e81600084613309565b613e79600083612138565b6001600160a01b038116600090815260cc60205260408120805460019290613ea2908490614ddf565b9091555050600082815260cb602052604080822080546001600160a01b0319169055518391906001600160a01b038416907fddf252ad1be2c89b69c2b068fc378daa952ba7f163c4a11628f55a4df523b3ef908390a45050565b613f068383613485565b613f13600084848461392c565b610c385760405162461bcd60e51b815260206004820152603260248201527f4552433732313a207472616e7366657220746f206e6f6e20455243373231526560448201527f63656976657220696d706c656d656e74657200000000000000000000000000006064820152608401610ae6565b61130f8282613394565b606081613fb35750506040805180820190915260018152600360fc1b602082015290565b8160005b8115613fdd5780613fc781614e74565b9150613fd69050600a83614dac565b9150613fb7565b60008167ffffffffffffffff81111561400657634e487b7160e01b600052604160045260246000fd5b6040519080825280601f01601f191660200182016040528015614030576020820181803683370190505b5090505b84156122c357614045600183614ddf565b9150614052600a86614e8f565b61405d906030614d94565b60f81b81838151811061408057634e487b7160e01b600052603260045260246000fd5b60200101906001600160f81b031916908160001a9053506140a2600a86614dac565b9450614034565b60006001600160e01b031982167f7965db0b0000000000000000000000000000000000000000000000000000000014806109d957507f01ffc9a7000000000000000000000000000000000000000000000000000000006001600160e01b03198316146109d9565b6001600160a01b03831661416b576141668160fd8054600083815260fe60205260408120829055600182018355919091527f9346ac6dd7de6b96975fec380d4d994c4c12e6a8897544f22915316cc6cca2800155565b61418e565b816001600160a01b0316836001600160a01b03161461418e5761418e83826141c8565b6001600160a01b0382166141a557610c3881614265565b826001600160a01b0316826001600160a01b031614610c3857610c38828261433e565b600060016141d5846116d1565b6141df9190614ddf565b600083815260fc6020526040902054909150808214614232576001600160a01b038416600090815260fb60209081526040808320858452825280832054848452818420819055835260fc90915290208190555b50600091825260fc602090815260408084208490556001600160a01b03909416835260fb81528383209183525290812055565b60fd5460009061427790600190614ddf565b600083815260fe602052604081205460fd80549394509092849081106142ad57634e487b7160e01b600052603260045260246000fd5b906000526020600020015490508060fd83815481106142dc57634e487b7160e01b600052603260045260246000fd5b600091825260208083209091019290925582815260fe909152604080822084905585825281205560fd80548061432257634e487b7160e01b600052603160045260246000fd5b6001900381819060005260206000200160009055905550505050565b6000614349836116d1565b6001600160a01b03909316600090815260fb60209081526040808320868452825280832085905593825260fc9052919091209190915550565b82805461438e90614e39565b90600052602060002090601f0160209004810192826143b057600085556143f6565b82601f106143c957805160ff19168380011785556143f6565b828001600101855582156143f6579182015b828111156143f65782518255916020019190600101906143db565b5061440292915061443c565b5090565b50805461441290614e39565b6000825580601f10614422575050565b601f01602090049060005260206000209081019061147c91905b5b80821115614402576000815560010161443d565b600067ffffffffffffffff83111561446b5761446b614ecf565b61447e601f8401601f1916602001614d3f565b905082815283838301111561449257600080fd5b828260208301376000602084830101529392505050565b600082601f8301126144b9578081fd5b6118da83833560208501614451565b6000602082840312156144d9578081fd5b81356118da81614ee5565b600080604083850312156144f6578081fd5b823561450181614ee5565b9150602083013561451181614ee5565b809150509250929050565b600080600060608486031215614530578081fd5b833561453b81614ee5565b9250602084013561454b81614ee5565b929592945050506040919091013590565b60008060008060808587031215614571578081fd5b843561457c81614ee5565b9350602085013561458c81614ee5565b925060408501359150606085013567ffffffffffffffff8111156145ae578182fd5b8501601f810187136145be578182fd5b6145cd87823560208401614451565b91505092959194509250565b600080600080600060a086880312156145f0578081fd5b85356145fb81614ee5565b945060208681013567ffffffffffffffff80821115614618578384fd5b818901915089601f83011261462b578384fd5b813561463e61463982614d70565b614d3f565b8082825285820191508585018d878560061b880101111561465d578788fd5b8795505b838610156146aa576040818f031215614678578788fd5b614680614d16565b813561468b81614ee5565b8152818801358882015283526001959095019491860191604001614661565b509850505060408901359250808311156146c2578384fd5b6146ce8a848b016144a9565b955060608901359250808311156146e3578384fd5b6146ef8a848b016144a9565b94506080890135925080831115614704578384fd5b5050614712888289016144a9565b9150509295509295909350565b60008060408385031215614731578182fd5b823561473c81614ee5565b915060208301358015158114614511578182fd5b60008060408385031215614762578182fd5b823561476d81614ee5565b946020939093013593505050565b60008060006060848603121561478f578081fd5b833561479a81614ee5565b925060208401359150604084013567ffffffffffffffff8111156147bc578182fd5b6147c8868287016144a9565b9150509250925092565b600060208083850312156147e4578182fd5b823567ffffffffffffffff8111156147fa578283fd5b8301601f8101851361480a578283fd5b803561481861463982614d70565b80828252848201915084840188868560051b8701011115614837578687fd5b8694505b8385101561485957803583526001949094019391850191850161483b565b50979650505050505050565b600060208284031215614876578081fd5b5035919050565b6000806040838503121561488f578182fd5b82359150602083013561451181614ee5565b600080604083850312156148b3578182fd5b50508035926020909101359150565b6000602082840312156148d3578081fd5b81356118da81614efa565b6000602082840312156148ef578081fd5b81516118da81614efa565b60006020828403121561490b578081fd5b813567ffffffffffffffff811115614921578182fd5b6122c3848285016144a9565b600080600060608486031215614941578081fd5b833567ffffffffffffffff80821115614958578283fd5b614964878388016144a9565b94506020860135915080821115614979578283fd5b614985878388016144a9565b9350604086013591508082111561499a578283fd5b506147c8868287016144a9565b6000815180845260208085019450808401835b838110156149d6578151875295820195908201906001016149ba565b509495945050505050565b600081518084526149f9816020860160208601614df6565b601f01601f19169290920160200192915050565b60008251614a1f818460208701614df6565b9190910192915050565b60008351614a3b818460208801614df6565b835190830190614a4f818360208801614df6565b01949350505050565b7f416363657373436f6e74726f6c3a206163636f756e7420000000000000000000815260008351614a90816017850160208801614df6565b7f206973206d697373696e6720726f6c65200000000000000000000000000000006017918401918201528351614acd816028840160208801614df6565b01602801949350505050565b60006001600160a01b03808716835280861660208401525083604083015260806060830152614b0b60808301846149e1565b9695505050505050565b6001600160a01b038616815284602082015260a060408201526000614b3d60a08301866149e1565b8281036060840152614b4f81866149e1565b9150508260808301529695505050505050565b6001600160a01b03841681526000602084818401526060604084015281845483600182811c915080831680614b9857607f831692505b858310811415614bb657634e487b7160e01b87526022600452602487fd5b6060880183905260808801818015614bd55760018114614be657614c10565b60ff19861682528782019650614c10565b60008b815260209020895b86811015614c0a57815484820152908501908901614bf1565b83019750505b50949b9a5050505050505050505050565b6020808252825182820181905260009190848201906040850190845b81811015614c625783516001600160a01b031683529284019291840191600101614c3d565b50909695505050505050565b6020815260006118da60208301846149a7565b6020815260006118da60208301846149e1565b60006060820185835260206060818501528186518084526080860191508288019350845b81811015614cdd5784516001600160a01b031683529383019391830191600101614cb8565b50508481036040860152614cf181876149a7565b98975050505050505050565b8281526040602082015260006122c360408301846149e1565b6040805190810167ffffffffffffffff81118282101715614d3957614d39614ecf565b60405290565b604051601f8201601f1916810167ffffffffffffffff81118282101715614d6857614d68614ecf565b604052919050565b600067ffffffffffffffff821115614d8a57614d8a614ecf565b5060051b60200190565b60008219821115614da757614da7614ea3565b500190565b600082614dbb57614dbb614eb9565b500490565b6000816000190483118215151615614dda57614dda614ea3565b500290565b600082821015614df157614df1614ea3565b500390565b60005b83811015614e11578181015183820152602001614df9565b83811115611ac85750506000910152565b600081614e3157614e31614ea3565b506000190190565b600181811c90821680614e4d57607f821691505b60208210811415614e6e57634e487b7160e01b600052602260045260246000fd5b50919050565b6000600019821415614e8857614e88614ea3565b5060010190565b600082614e9e57614e9e614eb9565b500690565b634e487b7160e01b600052601160045260246000fd5b634e487b7160e01b600052601260045260246000fd5b634e487b7160e01b600052604160045260246000fd5b6001600160a01b038116811461147c57600080fd5b6001600160e01b03198116811461147c57600080fdfea2646970667358221220fcfac19fd75e6ffb24844b05b2d4814fdd4a791b602ce9c54fccf855cbf5a7c564736f6c63430008040033",
  "immutableReferences": {},
  "source": "// SPDX-License-Identifier: MIT\npragma solidity ^0.8.4;\n\nimport \"./ERC721PresetMinterPauserAutoIdUpgradeableCustom.sol\";\nimport \"@openzeppelin/contracts-upgradeable/security/ReentrancyGuardUpgradeable.sol\";\nimport \"@openzeppelin/contracts-upgradeable/access/OwnableUpgradeable.sol\";\n\n/**\n * @dev ERC721 token with minting, burning, pause, royalties & lock content functions.\n */\n\ncontract GhostMarketERC721 is Initializable, ERC721PresetMinterPauserAutoIdUpgradeableCustom, ReentrancyGuardUpgradeable, OwnableUpgradeable {\n\n\t// struct for royalties fees\n\tstruct Royalty {\n\t\taddress payable recipient;\n\t\tuint256 value;\n\t}\n\n\t// tokenId => royalties array\n\tmapping(uint256 => Royalty[]) internal _royalties;\n\n\t// tokenId => locked content array\n\tmapping(uint256 => string) internal _lockedContent;\n\n\t// tokenId => locked content view counter array\n\tmapping(uint256 => uint256) internal _lockedContentViewTracker;\n\n\t// tokenId => attributes array\n\tmapping(uint256 => string) internal _metadataJson;\n\n\t// events\n\tevent RoyaltiesFeesSet(uint256 tokenId, address[] recipients, uint256[] bps);\n\tevent LockedContentViewed(address msgSender, uint256 tokenId, string lockedContent);\n\tevent AttributesSet(uint256 tokenId, string metadataJson);\n    event MintFeesWithdrawn(address feeWithdrawer, uint256 withdrawAmount);\n\tevent MintFeesChanged(uint256 newValue);\n\tevent Minted(address toAddress, uint256 tokenId, string tokenURI, string externalURI, uint256 mintFees);\n\n\t// mint fees balance\n\tuint256 internal _payedMintFeesBalance;\n\n\t// mint fees value\n\tuint256 internal _ghostmarketMintFees;\n\n\tfunction initialize(string memory name, string memory symbol, string memory uri)\n        public\n        override\n        initializer\n    {\n\t\t__Context_init_unchained();\n\t\t__ERC165_init_unchained();\n\t\t__AccessControl_init_unchained();\n\t\t__AccessControlEnumerable_init_unchained();\n\t\t__ERC721Enumerable_init_unchained();\n\t\t__ERC721Burnable_init_unchained();\n\t\t__Pausable_init_unchained();\n\t\t__ERC721Pausable_init_unchained();\n\t\t__ERC721URIStorage_init_unchained();\n\t\t__ERC721_init_unchained(name, symbol);\n\t\t__ERC721PresetMinterPauserAutoId_init_unchained(uri);\n\t\t__Ownable_init_unchained();\n\t}\n\n    /**\n\t * @dev set a NFT royalties fees & recipients\n\t * fee basis points 10000 = 100%\n\t * emits RoyaltiesFeesSet event if set\n\t */\n\tfunction _saveRoyalties(uint256 tokenId, Royalty[] memory royalties)\n        internal\n    {\n\t\trequire(_exists(tokenId), \"ERC721: approved query for nonexistent token\");\n\t\tfor (uint256 i = 0; i < royalties.length; i++) {\n\t\t\trequire(royalties[i].recipient != address(0x0), \"Recipient should be present\");\n\t\t\trequire(royalties[i].value > 0, \"Royalties value should be positive\");\n\t\t\trequire(royalties[i].value <= 5000, \"Royalties value should not be more than 50%\");\n\t\t\t_royalties[tokenId].push(royalties[i]);\n\t\t\taddress[] memory recipients = new address[](royalties.length);\n\t\t\tuint256[] memory bps = new uint256[](royalties.length);\n\t\t\temit RoyaltiesFeesSet(tokenId, recipients, bps);\n\t\t}\n\t}\n\n\t/**\n\t * @dev set a NFT custom attributes to contract storage\n\t * emits AttributesSet event\n\t */\n\tfunction _setMetadataJson(uint256 tokenId, string memory metadataJson)\n        internal\n    {\n\t\t_metadataJson[tokenId] = metadataJson;\n\t\temit AttributesSet(tokenId, metadataJson);\n\t}\n\n    /**\n\t * @dev set a NFT locked content as string\n\t */\n\tfunction _setLockedContent(uint256 tokenId, string memory content)\n        internal\n    {\n\t\t_lockedContent[tokenId] = content;\n\t}\n\n    /**\n\t * @dev check mint fees sent to contract\n\t * emits MintFeesPaid event if set\n\t */\n\tfunction _checkMintFees()\n        internal\n    {\n\t\tif (_ghostmarketMintFees > 0) {\n\t\t\trequire(msg.value == _ghostmarketMintFees, \"Wrong fees value sent to GhostMarket for mint fees\");\n\t\t}\n\t\tif (msg.value > 0) {\n\t\t\t_payedMintFeesBalance += msg.value;\n\t\t}\n\t}\n\n\t/**\n\t * @dev increment a NFT locked content view tracker\n\t */\n\tfunction _incrementCurrentLockedContentViewTracker(uint256 tokenId)\n        internal\n    {\n\t\t_lockedContentViewTracker[tokenId] = _lockedContentViewTracker[tokenId] + 1;\n\t}\n\n\t/**\n\t * @dev mint NFT, set royalties, set metadata json, set lockedcontent\n\t * emits Minted event\n\t */\n\tfunction mintGhost(address to, Royalty[] memory royalties, string memory externalURI, string memory metadata, string memory lockedcontent)\n        external\n        payable\n        nonReentrant\n    {\n\t\tmint(to);\n\t\tuint256 tokenId = getLastTokenID();\n\t\tif (royalties.length > 0) {\n\t\t\t_saveRoyalties(tokenId, royalties);\n\t\t}\n\t\tif (keccak256(abi.encodePacked(metadata)) != keccak256(abi.encodePacked(\"\"))) {\n\t\t\t_setMetadataJson(tokenId, metadata);\n\t\t}\n\t\tif (keccak256(abi.encodePacked(lockedcontent)) != keccak256(abi.encodePacked(\"\"))) {\n\t\t\t_setLockedContent(tokenId, lockedcontent);\n\t\t}\n\t\t_checkMintFees();\n\t\trequire(keccak256(abi.encodePacked(externalURI)) != keccak256(abi.encodePacked(\"\")), \"externalURI can't be empty\");\n\t\temit Minted(to, tokenId, tokenURI(tokenId), externalURI, msg.value);\n\t}\n\n    /**\n     * @dev withdraw contract balance\n     * emits MintFeesWithdrawn event\n     */\n\tfunction withdraw(uint256 withdrawAmount)\n\t\texternal\n\t\tonlyOwner\n\t{\n\t\trequire(withdrawAmount > 0 && withdrawAmount <= _payedMintFeesBalance, \"Withdraw amount should be greater then 0 and less then contract balance\");\n\t\t_payedMintFeesBalance -= withdrawAmount;\n\t\t(bool success, ) = msg.sender.call{value: withdrawAmount}(\"\");\n\t\trequire(success, \"Transfer failed.\");\n\t\temit MintFeesWithdrawn(msg.sender, withdrawAmount);\n\t}\n\n    /**\n\t * @dev bulk burn NFT\n\t */\n\tfunction burnBatch(uint256[] memory tokensId)\n        external\n    {\n\t\tfor (uint256 i = 0; i < tokensId.length; i++) {\n\t\t\tburn(tokensId[i]);\n\t\t}\n\t}\n\n\t/**\n\t * @dev sets Ghostmarket mint fees as uint256\n\t * emits MintFeesChanged event\n\t */\n\tfunction setGhostmarketMintFee(uint256 gmmf)\n        external\n    {\n\t\trequire(hasRole(DEFAULT_ADMIN_ROLE, _msgSender()), \"Caller must have admin role to set mint fees\");\n\t\t_ghostmarketMintFees = gmmf;\n\t\temit MintFeesChanged(_ghostmarketMintFees);\n\t}\n\n\t/**\n\t * @return get Ghostmarket mint fees\n\t */\n\tfunction getGhostmarketMintFees()\n        external\n        view\n        returns (uint256)\n    {\n\t\treturn _ghostmarketMintFees;\n\t}\n\n\t/**\n\t * @dev get locked content for a NFT\n\t * emits LockedContentViewed event\n\t */\n\tfunction getLockedContent(uint256 tokenId)\n        external\n    {\n\t\trequire(ownerOf(tokenId) == msg.sender, \"Caller must be the owner of the NFT\");\n\t\t_incrementCurrentLockedContentViewTracker(tokenId);\n\t\temit LockedContentViewed(msg.sender, tokenId, _lockedContent[tokenId]);\n\t}\n\n\t/**\n\t * @dev get a NFT current locked content view tracker\n\t */\n\tfunction getCurrentLockedContentViewTracker(uint256 tokenId)\n        external\n        view\n        returns (uint256)\n    {\n\t\treturn _lockedContentViewTracker[tokenId];\n\t}\n\n    /**\n\t * @dev get a NFT custom attributes\n\t */\n\tfunction getMetadataJson(uint256 tokenId)\n        external\n        view\n        returns (string memory)\n    {\n\t\treturn _metadataJson[tokenId];\n\t}\n\n\t/**\n\t * @dev get a NFT royalties recipients\n\t */\n\tfunction getRoyaltiesRecipients(uint256 tokenId)\n        external\n        view\n        returns (address payable[] memory)\n    {\n\t\tRoyalty[] memory royalties = _royalties[tokenId];\n\t\taddress payable[] memory result = new address payable[](royalties.length);\n\t\tfor (uint256 i = 0; i < royalties.length; i++) {\n\t\t\tresult[i] = royalties[i].recipient;\n\t\t}\n\t\treturn result;\n\t}\n\n\t/**\n\t * @dev get a NFT royalties fees\n\t * fee basis points 10000 = 100%\n\t */\n\tfunction getRoyaltiesBps(uint256 tokenId)\n        external\n        view\n        returns (uint256[] memory)\n    {\n\t\tRoyalty[] memory royalties = _royalties[tokenId];\n\t\tuint256[] memory result = new uint256[](royalties.length);\n\t\tfor (uint256 i = 0; i < royalties.length; i++) {\n\t\t\tresult[i] = royalties[i].value;\n\t\t}\n\t\treturn result;\n\t}\n\n\tuint256[50] private __gap;\n}\n",
  "sourcePath": "/Users/vincent/Dev/GhostMarketContractBSC/contracts/GhostmarketERC721.sol",
  "compiler": {
    "name": "solc",
    "version": "0.8.4+commit.c7e474f2.Emscripten.clang"
  },
  "schemaVersion": "3.4.1",
  "updatedAt": "2021-05-19T03:45:07.142Z",
  "networkType": "ethereum",
  "devdoc": {
    "details": "ERC721 token with minting, burning, pause, royalties & lock content functions.",
    "kind": "dev",
    "methods": {
      "approve(address,uint256)": {
        "details": "See {IERC721-approve}."
      },
      "balanceOf(address)": {
        "details": "See {IERC721-balanceOf}."
      },
      "burn(uint256)": {
        "details": "Burns `tokenId`. See {ERC721-_burn}. Requirements: - The caller must own `tokenId` or be an approved operator."
      },
      "burnBatch(uint256[])": {
        "details": "bulk burn NFT"
      },
      "getApproved(uint256)": {
        "details": "See {IERC721-getApproved}."
      },
      "getCurrentLockedContentViewTracker(uint256)": {
        "details": "get a NFT current locked content view tracker"
      },
      "getGhostmarketMintFees()": {
        "returns": {
          "_0": "get Ghostmarket mint fees"
        }
      },
      "getLockedContent(uint256)": {
        "details": "get locked content for a NFT emits LockedContentViewed event"
      },
      "getMetadataJson(uint256)": {
        "details": "get a NFT custom attributes"
      },
      "getRoleAdmin(bytes32)": {
        "details": "Returns the admin role that controls `role`. See {grantRole} and {revokeRole}. To change a role's admin, use {_setRoleAdmin}."
      },
      "getRoleMember(bytes32,uint256)": {
        "details": "Returns one of the accounts that have `role`. `index` must be a value between 0 and {getRoleMemberCount}, non-inclusive. Role bearers are not sorted in any particular way, and their ordering may change at any point. WARNING: When using {getRoleMember} and {getRoleMemberCount}, make sure you perform all queries on the same block. See the following https://forum.openzeppelin.com/t/iterating-over-elements-on-enumerableset-in-openzeppelin-contracts/2296[forum post] for more information."
      },
      "getRoleMemberCount(bytes32)": {
        "details": "Returns the number of accounts that have `role`. Can be used together with {getRoleMember} to enumerate all bearers of a role."
      },
      "getRoyaltiesBps(uint256)": {
        "details": "get a NFT royalties fees fee basis points 10000 = 100%"
      },
      "getRoyaltiesRecipients(uint256)": {
        "details": "get a NFT royalties recipients"
      },
      "grantRole(bytes32,address)": {
        "details": "Overload {grantRole} to track enumerable memberships"
      },
      "hasRole(bytes32,address)": {
        "details": "Returns `true` if `account` has been granted `role`."
      },
      "isApprovedForAll(address,address)": {
        "details": "See {IERC721-isApprovedForAll}."
      },
      "mintGhost(address,(address,uint256)[],string,string,string)": {
        "details": "mint NFT, set royalties, set metadata json, set lockedcontent emits Minted event"
      },
      "mintWithURI(address,uint256,string)": {
        "details": "polynetwork CrossChainNFTMapping"
      },
      "name()": {
        "details": "See {IERC721Metadata-name}."
      },
      "owner()": {
        "details": "Returns the address of the current owner."
      },
      "ownerOf(uint256)": {
        "details": "See {IERC721-ownerOf}."
      },
      "pause()": {
        "details": "Pauses all token transfers. See {ERC721Pausable} and {Pausable-_pause}. Requirements: - the caller must have the `PAUSER_ROLE`."
      },
      "paused()": {
        "details": "Returns true if the contract is paused, and false otherwise."
      },
      "renounceOwnership()": {
        "details": "Leaves the contract without owner. It will not be possible to call `onlyOwner` functions anymore. Can only be called by the current owner. NOTE: Renouncing ownership will leave the contract without an owner, thereby removing any functionality that is only available to the owner."
      },
      "renounceRole(bytes32,address)": {
        "details": "Overload {renounceRole} to track enumerable memberships"
      },
      "revokeRole(bytes32,address)": {
        "details": "Overload {revokeRole} to track enumerable memberships"
      },
      "safeTransferFrom(address,address,uint256)": {
        "details": "See {IERC721-safeTransferFrom}."
      },
      "safeTransferFrom(address,address,uint256,bytes)": {
        "details": "See {IERC721-safeTransferFrom}."
      },
      "setApprovalForAll(address,bool)": {
        "details": "See {IERC721-setApprovalForAll}."
      },
      "setGhostmarketMintFee(uint256)": {
        "details": "sets Ghostmarket mint fees as uint256 emits MintFeesChanged event"
      },
      "supportsInterface(bytes4)": {
        "details": "See {IERC165-supportsInterface}."
      },
      "symbol()": {
        "details": "See {IERC721Metadata-symbol}."
      },
      "tokenByIndex(uint256)": {
        "details": "See {IERC721Enumerable-tokenByIndex}."
      },
      "tokenOfOwnerByIndex(address,uint256)": {
        "details": "See {IERC721Enumerable-tokenOfOwnerByIndex}."
      },
      "tokenURI(uint256)": {
        "details": "See {IERC721Metadata-tokenURI}."
      },
      "totalSupply()": {
        "details": "See {IERC721Enumerable-totalSupply}."
      },
      "transferFrom(address,address,uint256)": {
        "details": "See {IERC721-transferFrom}."
      },
      "transferOwnership(address)": {
        "details": "Transfers ownership of the contract to a new account (`newOwner`). Can only be called by the current owner."
      },
      "unpause()": {
        "details": "Unpauses all token transfers. See {ERC721Pausable} and {Pausable-_unpause}. Requirements: - the caller must have the `PAUSER_ROLE`."
      },
      "withdraw(uint256)": {
        "details": "withdraw contract balance emits MintFeesWithdrawn event"
      }
    },
    "version": 1
  },
  "userdoc": {
    "kind": "user",
    "methods": {},
    "version": 1
  }
}