{
  "contractName": "GhostmarketNFT",
  "abi": [
    {
      "anonymous": false,
      "inputs": [
        {
          "indexed": true,
          "internalType": "address",
          "name": "owner",
          "type": "address"
        },
        {
          "indexed": true,
          "internalType": "address",
          "name": "approved",
          "type": "address"
        },
        {
          "indexed": true,
          "internalType": "uint256",
          "name": "tokenId",
          "type": "uint256"
        }
      ],
      "name": "Approval",
      "type": "event"
    },
    {
      "anonymous": false,
      "inputs": [
        {
          "indexed": true,
          "internalType": "address",
          "name": "owner",
          "type": "address"
        },
        {
          "indexed": true,
          "internalType": "address",
          "name": "operator",
          "type": "address"
        },
        {
          "indexed": false,
          "internalType": "bool",
          "name": "approved",
          "type": "bool"
        }
      ],
      "name": "ApprovalForAll",
      "type": "event"
    },
    {
      "anonymous": false,
      "inputs": [
        {
          "indexed": false,
          "internalType": "uint256",
          "name": "tokenId",
          "type": "uint256"
        },
        {
          "components": [
            {
              "internalType": "string",
              "name": "key",
              "type": "string"
            },
            {
              "internalType": "string",
              "name": "value",
              "type": "string"
            }
          ],
          "indexed": false,
          "internalType": "struct GhostmarketNFT.AttributesStruct[]",
          "name": "attributes",
          "type": "tuple[]"
        }
      ],
      "name": "AttributesSet",
      "type": "event"
    },
    {
      "anonymous": false,
      "inputs": [
        {
          "indexed": false,
          "internalType": "address",
          "name": "account",
          "type": "address"
        }
      ],
      "name": "Paused",
      "type": "event"
    },
    {
      "anonymous": false,
      "inputs": [
        {
          "indexed": true,
          "internalType": "bytes32",
          "name": "role",
          "type": "bytes32"
        },
        {
          "indexed": true,
          "internalType": "bytes32",
          "name": "previousAdminRole",
          "type": "bytes32"
        },
        {
          "indexed": true,
          "internalType": "bytes32",
          "name": "newAdminRole",
          "type": "bytes32"
        }
      ],
      "name": "RoleAdminChanged",
      "type": "event"
    },
    {
      "anonymous": false,
      "inputs": [
        {
          "indexed": true,
          "internalType": "bytes32",
          "name": "role",
          "type": "bytes32"
        },
        {
          "indexed": true,
          "internalType": "address",
          "name": "account",
          "type": "address"
        },
        {
          "indexed": true,
          "internalType": "address",
          "name": "sender",
          "type": "address"
        }
      ],
      "name": "RoleGranted",
      "type": "event"
    },
    {
      "anonymous": false,
      "inputs": [
        {
          "indexed": true,
          "internalType": "bytes32",
          "name": "role",
          "type": "bytes32"
        },
        {
          "indexed": true,
          "internalType": "address",
          "name": "account",
          "type": "address"
        },
        {
          "indexed": true,
          "internalType": "address",
          "name": "sender",
          "type": "address"
        }
      ],
      "name": "RoleRevoked",
      "type": "event"
    },
    {
      "anonymous": false,
      "inputs": [
        {
          "indexed": false,
          "internalType": "uint256",
          "name": "tokenId",
          "type": "uint256"
        },
        {
          "indexed": false,
          "internalType": "address[]",
          "name": "recipients",
          "type": "address[]"
        },
        {
          "indexed": false,
          "internalType": "uint256[]",
          "name": "bps",
          "type": "uint256[]"
        }
      ],
      "name": "SecondarySaleFees",
      "type": "event"
    },
    {
      "anonymous": false,
      "inputs": [
        {
          "indexed": true,
          "internalType": "address",
          "name": "from",
          "type": "address"
        },
        {
          "indexed": true,
          "internalType": "address",
          "name": "to",
          "type": "address"
        },
        {
          "indexed": true,
          "internalType": "uint256",
          "name": "tokenId",
          "type": "uint256"
        }
      ],
      "name": "Transfer",
      "type": "event"
    },
    {
      "anonymous": false,
      "inputs": [
        {
          "indexed": false,
          "internalType": "address",
          "name": "account",
          "type": "address"
        }
      ],
      "name": "Unpaused",
      "type": "event"
    },
    {
      "inputs": [],
      "name": "DEFAULT_ADMIN_ROLE",
      "outputs": [
        {
          "internalType": "bytes32",
          "name": "",
          "type": "bytes32"
        }
      ],
      "stateMutability": "view",
      "type": "function"
    },
    {
      "inputs": [],
      "name": "MINTER_ROLE",
      "outputs": [
        {
          "internalType": "bytes32",
          "name": "",
          "type": "bytes32"
        }
      ],
      "stateMutability": "view",
      "type": "function"
    },
    {
      "inputs": [],
      "name": "PAUSER_ROLE",
      "outputs": [
        {
          "internalType": "bytes32",
          "name": "",
          "type": "bytes32"
        }
      ],
      "stateMutability": "view",
      "type": "function"
    },
    {
      "inputs": [
        {
          "internalType": "address",
          "name": "to",
          "type": "address"
        },
        {
          "internalType": "uint256",
          "name": "tokenId",
          "type": "uint256"
        }
      ],
      "name": "approve",
      "outputs": [],
      "stateMutability": "nonpayable",
      "type": "function"
    },
    {
      "inputs": [
        {
          "internalType": "uint256",
          "name": "",
          "type": "uint256"
        },
        {
          "internalType": "uint256",
          "name": "",
          "type": "uint256"
        }
      ],
      "name": "attribute",
      "outputs": [
        {
          "internalType": "string",
          "name": "key",
          "type": "string"
        },
        {
          "internalType": "string",
          "name": "value",
          "type": "string"
        }
      ],
      "stateMutability": "view",
      "type": "function"
    },
    {
      "inputs": [
        {
          "internalType": "address",
          "name": "owner",
          "type": "address"
        }
      ],
      "name": "balanceOf",
      "outputs": [
        {
          "internalType": "uint256",
          "name": "",
          "type": "uint256"
        }
      ],
      "stateMutability": "view",
      "type": "function"
    },
    {
      "inputs": [
        {
          "internalType": "uint256",
          "name": "tokenId",
          "type": "uint256"
        }
      ],
      "name": "burn",
      "outputs": [],
      "stateMutability": "nonpayable",
      "type": "function"
    },
    {
      "inputs": [
        {
          "internalType": "uint256",
          "name": "",
          "type": "uint256"
        },
        {
          "internalType": "uint256",
          "name": "",
          "type": "uint256"
        }
      ],
      "name": "fees",
      "outputs": [
        {
          "internalType": "address payable",
          "name": "recipient",
          "type": "address"
        },
        {
          "internalType": "uint256",
          "name": "value",
          "type": "uint256"
        }
      ],
      "stateMutability": "view",
      "type": "function"
    },
    {
      "inputs": [
        {
          "internalType": "uint256",
          "name": "tokenId",
          "type": "uint256"
        }
      ],
      "name": "getApproved",
      "outputs": [
        {
          "internalType": "address",
          "name": "",
          "type": "address"
        }
      ],
      "stateMutability": "view",
      "type": "function"
    },
    {
      "inputs": [],
      "name": "getCurrentCounter",
      "outputs": [
        {
          "internalType": "uint256",
          "name": "",
          "type": "uint256"
        }
      ],
      "stateMutability": "view",
      "type": "function"
    },
    {
      "inputs": [
        {
          "internalType": "bytes32",
          "name": "role",
          "type": "bytes32"
        }
      ],
      "name": "getRoleAdmin",
      "outputs": [
        {
          "internalType": "bytes32",
          "name": "",
          "type": "bytes32"
        }
      ],
      "stateMutability": "view",
      "type": "function"
    },
    {
      "inputs": [
        {
          "internalType": "bytes32",
          "name": "role",
          "type": "bytes32"
        },
        {
          "internalType": "uint256",
          "name": "index",
          "type": "uint256"
        }
      ],
      "name": "getRoleMember",
      "outputs": [
        {
          "internalType": "address",
          "name": "",
          "type": "address"
        }
      ],
      "stateMutability": "view",
      "type": "function"
    },
    {
      "inputs": [
        {
          "internalType": "bytes32",
          "name": "role",
          "type": "bytes32"
        }
      ],
      "name": "getRoleMemberCount",
      "outputs": [
        {
          "internalType": "uint256",
          "name": "",
          "type": "uint256"
        }
      ],
      "stateMutability": "view",
      "type": "function"
    },
    {
      "inputs": [
        {
          "internalType": "bytes32",
          "name": "role",
          "type": "bytes32"
        },
        {
          "internalType": "address",
          "name": "account",
          "type": "address"
        }
      ],
      "name": "grantRole",
      "outputs": [],
      "stateMutability": "nonpayable",
      "type": "function"
    },
    {
      "inputs": [
        {
          "internalType": "bytes32",
          "name": "role",
          "type": "bytes32"
        },
        {
          "internalType": "address",
          "name": "account",
          "type": "address"
        }
      ],
      "name": "hasRole",
      "outputs": [
        {
          "internalType": "bool",
          "name": "",
          "type": "bool"
        }
      ],
      "stateMutability": "view",
      "type": "function"
    },
    {
      "inputs": [
        {
          "internalType": "address",
          "name": "owner",
          "type": "address"
        },
        {
          "internalType": "address",
          "name": "operator",
          "type": "address"
        }
      ],
      "name": "isApprovedForAll",
      "outputs": [
        {
          "internalType": "bool",
          "name": "",
          "type": "bool"
        }
      ],
      "stateMutability": "view",
      "type": "function"
    },
    {
      "inputs": [],
      "name": "name",
      "outputs": [
        {
          "internalType": "string",
          "name": "",
          "type": "string"
        }
      ],
      "stateMutability": "view",
      "type": "function"
    },
    {
      "inputs": [
        {
          "internalType": "uint256",
          "name": "tokenId",
          "type": "uint256"
        }
      ],
      "name": "ownerOf",
      "outputs": [
        {
          "internalType": "address",
          "name": "",
          "type": "address"
        }
      ],
      "stateMutability": "view",
      "type": "function"
    },
    {
      "inputs": [],
      "name": "pause",
      "outputs": [],
      "stateMutability": "nonpayable",
      "type": "function"
    },
    {
      "inputs": [],
      "name": "paused",
      "outputs": [
        {
          "internalType": "bool",
          "name": "",
          "type": "bool"
        }
      ],
      "stateMutability": "view",
      "type": "function"
    },
    {
      "inputs": [
        {
          "internalType": "bytes32",
          "name": "role",
          "type": "bytes32"
        },
        {
          "internalType": "address",
          "name": "account",
          "type": "address"
        }
      ],
      "name": "renounceRole",
      "outputs": [],
      "stateMutability": "nonpayable",
      "type": "function"
    },
    {
      "inputs": [
        {
          "internalType": "bytes32",
          "name": "role",
          "type": "bytes32"
        },
        {
          "internalType": "address",
          "name": "account",
          "type": "address"
        }
      ],
      "name": "revokeRole",
      "outputs": [],
      "stateMutability": "nonpayable",
      "type": "function"
    },
    {
      "inputs": [
        {
          "internalType": "address",
          "name": "from",
          "type": "address"
        },
        {
          "internalType": "address",
          "name": "to",
          "type": "address"
        },
        {
          "internalType": "uint256",
          "name": "tokenId",
          "type": "uint256"
        }
      ],
      "name": "safeTransferFrom",
      "outputs": [],
      "stateMutability": "nonpayable",
      "type": "function"
    },
    {
      "inputs": [
        {
          "internalType": "address",
          "name": "from",
          "type": "address"
        },
        {
          "internalType": "address",
          "name": "to",
          "type": "address"
        },
        {
          "internalType": "uint256",
          "name": "tokenId",
          "type": "uint256"
        },
        {
          "internalType": "bytes",
          "name": "_data",
          "type": "bytes"
        }
      ],
      "name": "safeTransferFrom",
      "outputs": [],
      "stateMutability": "nonpayable",
      "type": "function"
    },
    {
      "inputs": [
        {
          "internalType": "address",
          "name": "operator",
          "type": "address"
        },
        {
          "internalType": "bool",
          "name": "approved",
          "type": "bool"
        }
      ],
      "name": "setApprovalForAll",
      "outputs": [],
      "stateMutability": "nonpayable",
      "type": "function"
    },
    {
      "inputs": [
        {
          "internalType": "bytes4",
          "name": "interfaceId",
          "type": "bytes4"
        }
      ],
      "name": "supportsInterface",
      "outputs": [
        {
          "internalType": "bool",
          "name": "",
          "type": "bool"
        }
      ],
      "stateMutability": "view",
      "type": "function"
    },
    {
      "inputs": [],
      "name": "symbol",
      "outputs": [
        {
          "internalType": "string",
          "name": "",
          "type": "string"
        }
      ],
      "stateMutability": "view",
      "type": "function"
    },
    {
      "inputs": [
        {
          "internalType": "uint256",
          "name": "index",
          "type": "uint256"
        }
      ],
      "name": "tokenByIndex",
      "outputs": [
        {
          "internalType": "uint256",
          "name": "",
          "type": "uint256"
        }
      ],
      "stateMutability": "view",
      "type": "function"
    },
    {
      "inputs": [
        {
          "internalType": "address",
          "name": "owner",
          "type": "address"
        },
        {
          "internalType": "uint256",
          "name": "index",
          "type": "uint256"
        }
      ],
      "name": "tokenOfOwnerByIndex",
      "outputs": [
        {
          "internalType": "uint256",
          "name": "",
          "type": "uint256"
        }
      ],
      "stateMutability": "view",
      "type": "function"
    },
    {
      "inputs": [
        {
          "internalType": "uint256",
          "name": "tokenId",
          "type": "uint256"
        }
      ],
      "name": "tokenURI",
      "outputs": [
        {
          "internalType": "string",
          "name": "",
          "type": "string"
        }
      ],
      "stateMutability": "view",
      "type": "function"
    },
    {
      "inputs": [],
      "name": "totalSupply",
      "outputs": [
        {
          "internalType": "uint256",
          "name": "",
          "type": "uint256"
        }
      ],
      "stateMutability": "view",
      "type": "function"
    },
    {
      "inputs": [
        {
          "internalType": "address",
          "name": "from",
          "type": "address"
        },
        {
          "internalType": "address",
          "name": "to",
          "type": "address"
        },
        {
          "internalType": "uint256",
          "name": "tokenId",
          "type": "uint256"
        }
      ],
      "name": "transferFrom",
      "outputs": [],
      "stateMutability": "nonpayable",
      "type": "function"
    },
    {
      "inputs": [],
      "name": "unpause",
      "outputs": [],
      "stateMutability": "nonpayable",
      "type": "function"
    },
    {
      "inputs": [
        {
          "internalType": "string",
          "name": "name",
          "type": "string"
        },
        {
          "internalType": "string",
          "name": "symbol",
          "type": "string"
        },
        {
          "internalType": "string",
          "name": "uri",
          "type": "string"
        }
      ],
      "name": "initialize",
      "outputs": [],
      "stateMutability": "nonpayable",
      "type": "function"
    },
    {
      "inputs": [
        {
          "internalType": "uint256",
          "name": "_tokenId",
          "type": "uint256"
        }
      ],
      "name": "getAttributes",
      "outputs": [
        {
          "components": [
            {
              "internalType": "string",
              "name": "key",
              "type": "string"
            },
            {
              "internalType": "string",
              "name": "value",
              "type": "string"
            }
          ],
          "internalType": "struct GhostmarketNFT.AttributesStruct[]",
          "name": "",
          "type": "tuple[]"
        }
      ],
      "stateMutability": "view",
      "type": "function"
    },
    {
      "inputs": [
        {
          "internalType": "uint256",
          "name": "_tokenId",
          "type": "uint256"
        }
      ],
      "name": "getFeeRecipients",
      "outputs": [
        {
          "internalType": "address payable[]",
          "name": "",
          "type": "address[]"
        }
      ],
      "stateMutability": "view",
      "type": "function"
    },
    {
      "inputs": [
        {
          "internalType": "uint256",
          "name": "_tokenId",
          "type": "uint256"
        }
      ],
      "name": "getFeeBps",
      "outputs": [
        {
          "internalType": "uint256[]",
          "name": "",
          "type": "uint256[]"
        }
      ],
      "stateMutability": "view",
      "type": "function"
    },
    {
      "inputs": [
        {
          "internalType": "uint256",
          "name": "_tokenId",
          "type": "uint256"
        },
        {
          "internalType": "address",
          "name": "_from",
          "type": "address"
        },
        {
          "internalType": "uint256",
          "name": "_value",
          "type": "uint256"
        }
      ],
      "name": "updateRecipientsFees",
      "outputs": [],
      "stateMutability": "nonpayable",
      "type": "function"
    },
    {
      "inputs": [
        {
          "internalType": "uint256",
          "name": "_tokenId",
          "type": "uint256"
        },
        {
          "internalType": "address",
          "name": "_from",
          "type": "address"
        },
        {
          "internalType": "address",
          "name": "_to",
          "type": "address"
        }
      ],
      "name": "updateFeeAccount",
      "outputs": [],
      "stateMutability": "nonpayable",
      "type": "function"
    },
    {
      "inputs": [
        {
          "internalType": "address",
          "name": "to",
          "type": "address"
        }
      ],
      "name": "mint",
      "outputs": [],
      "stateMutability": "nonpayable",
      "type": "function"
    },
    {
      "inputs": [
        {
          "internalType": "address",
          "name": "_to",
          "type": "address"
        },
        {
          "components": [
            {
              "internalType": "address payable",
              "name": "recipient",
              "type": "address"
            },
            {
              "internalType": "uint256",
              "name": "value",
              "type": "uint256"
            }
          ],
          "internalType": "struct GhostmarketNFT.Fee[]",
          "name": "_fees",
          "type": "tuple[]"
        },
        {
          "components": [
            {
              "internalType": "string",
              "name": "key",
              "type": "string"
            },
            {
              "internalType": "string",
              "name": "value",
              "type": "string"
            }
          ],
          "internalType": "struct GhostmarketNFT.AttributesStruct[]",
          "name": "_attributes",
          "type": "tuple[]"
        }
      ],
      "name": "mint",
      "outputs": [],
      "stateMutability": "nonpayable",
      "type": "function"
    }
  ],
  "bytecode": "0x608060405234801561001057600080fd5b50614188806100206000396000f3fe608060405234801561001057600080fd5b50600436106102d35760003560e01c80636352211e11610186578063a6487c53116100e3578063d539139311610097578063e768ec2111610071578063e768ec211461064e578063e985e9c514610661578063ffbd264d1461069d576102d3565b8063d5391393146105ed578063d547741f14610614578063e63ab1e914610627576102d3565b8063b9c4d9fb116100c8578063b9c4d9fb146105a7578063c87b56dd146105c7578063ca15c873146105da576102d3565b8063a6487c5314610581578063b88d4fde14610594576102d3565b80639010d07c1161013a57806395d89b411161011f57806395d89b411461055e578063a217fddf14610566578063a22cb4651461056e576102d3565b80639010d07c1461051257806391d1485414610525576102d3565b806370a082311161016b57806370a08231146104ef57806373448c46146105025780638456cb591461050a576102d3565b80636352211e146104c95780636a627842146104dc576102d3565b806336568abe1161023457806342966c68116101e85780634f6ccce7116101cd5780634f6ccce7146104785780635c975abb1461048b5780636308f1cd14610497576102d3565b806342966c68146104455780634378a6e314610458576102d3565b80633daab032116102195780633daab032146104095780633f4ba83a1461042a57806342842e0e14610432576102d3565b806336568abe146103e357806336d8ec09146103f6576102d3565b806318160ddd1161028b578063248a9ca311610270578063248a9ca31461039a5780632f2ff15d146103bd5780632f745c59146103d0576102d3565b806318160ddd1461037557806323b872dd14610387576102d3565b8063081812fc116102bc578063081812fc14610315578063095ea7b3146103405780630ebd4c7f14610355576102d3565b806301ffc9a7146102d857806306fdde0314610300575b600080fd5b6102eb6102e6366004613c01565b6106b0565b60405190151581526020015b60405180910390f35b6103086106c3565b6040516102f79190613ef4565b610328610323366004613ba4565b610755565b6040516001600160a01b0390911681526020016102f7565b61035361034e366004613b79565b6107ef565b005b610368610363366004613ba4565b610921565b6040516102f79190613ee1565b60fd545b6040519081526020016102f7565b610353610395366004613992565b610a6e565b6103796103a8366004613ba4565b60009081526065602052604090206001015490565b6103536103cb366004613bbc565b610af6565b6103796103de366004613b79565b610b18565b6103536103f1366004613bbc565b610bc3565b610353610404366004613cb3565b610be5565b61041c610417366004613be0565b610d7d565b6040516102f7929190613f07565b610353610ecf565b610353610440366004613992565b610f77565b610353610453366004613ba4565b610f92565b61046b610466366004613ba4565b611019565b6040516102f79190613ece565b610379610486366004613ba4565b6111b0565b61015f5460ff166102eb565b6104aa6104a5366004613be0565b611262565b604080516001600160a01b0390931683526020830191909152016102f7565b6103286104d7366004613ba4565b6112a9565b6103536104ea36600461393e565b611334565b6103796104fd36600461393e565b6113f2565b61037961148c565b61035361149d565b610328610520366004613be0565b611541565b6102eb610533366004613bbc565b60009182526065602090815260408084206001600160a01b0393909316845291905290205460ff1690565b610308611560565b610379600081565b61035361057c366004613b48565b61156f565b61035361058f366004613c39565b611641565b6103536105a23660046139d2565b61170c565b6105ba6105b5366004613ba4565b611794565b6040516102f79190613e81565b6103086105d5366004613ba4565b6118e6565b6103796105e8366004613ba4565b6119ce565b6103797f9f2df0fed2c77648de5860a4cc508cd0818c85b8b8a1ab4ceeef8d981c8956a681565b610353610622366004613bbc565b6119e5565b6103797f65d7a28e3265b37a6474929f336521b332c1681b933f6cb9f3376673440d862a81565b61035361065c366004613a4f565b6119ef565b6102eb61066f36600461395a565b6001600160a01b03918216600090815260ce6020908152604080832093909416825291909152205460ff1690565b6103536106ab366004613cf4565b611b23565b60006106bb82611d4b565b90505b919050565b606060c980546106d29061407b565b80601f01602080910402602001604051908101604052809291908181526020018280546106fe9061407b565b801561074b5780601f106107205761010080835404028352916020019161074b565b820191906000526020600020905b81548152906001019060200180831161072e57829003601f168201915b5050505050905090565b600081815260cb60205260408120546001600160a01b03166107d35760405162461bcd60e51b815260206004820152602c60248201527f4552433732313a20617070726f76656420717565727920666f72206e6f6e657860448201526b34b9ba32b73a103a37b5b2b760a11b60648201526084015b60405180910390fd5b50600090815260cd60205260409020546001600160a01b031690565b60006107fa826112a9565b9050806001600160a01b0316836001600160a01b031614156108845760405162461bcd60e51b815260206004820152602160248201527f4552433732313a20617070726f76616c20746f2063757272656e74206f776e6560448201527f720000000000000000000000000000000000000000000000000000000000000060648201526084016107ca565b336001600160a01b03821614806108a057506108a0813361066f565b6109125760405162461bcd60e51b815260206004820152603860248201527f4552433732313a20617070726f76652063616c6c6572206973206e6f74206f7760448201527f6e6572206e6f7220617070726f76656420666f7220616c6c000000000000000060648201526084016107ca565b61091c8383611d89565b505050565b60008181526101f660209081526040808320805482518185028101850190935280835260609493849084015b82821015610995576000848152602090819020604080518082019091526002850290910180546001600160a01b0316825260019081015482840152908352909201910161094d565b5050505090506000815167ffffffffffffffff8111156109c557634e487b7160e01b600052604160045260246000fd5b6040519080825280602002602001820160405280156109ee578160200160208202803683370190505b50905060005b8251811015610a6657828181518110610a1d57634e487b7160e01b600052603260045260246000fd5b602002602001015160200151828281518110610a4957634e487b7160e01b600052603260045260246000fd5b602090810291909101015280610a5e816140b6565b9150506109f4565b509392505050565b610a79335b82611e04565b610aeb5760405162461bcd60e51b815260206004820152603160248201527f4552433732313a207472616e736665722063616c6c6572206973206e6f74206f60448201527f776e6572206e6f7220617070726f76656400000000000000000000000000000060648201526084016107ca565b61091c838383611efb565b610b0082826120e0565b600082815260976020526040902061091c908261217d565b6000610b23836113f2565b8210610b975760405162461bcd60e51b815260206004820152602b60248201527f455243373231456e756d657261626c653a206f776e657220696e646578206f7560448201527f74206f6620626f756e647300000000000000000000000000000000000000000060648201526084016107ca565b506001600160a01b038216600090815260fb602090815260408083208484529091529020545b92915050565b610bcd8282612192565b600082815260976020526040902061091c908261221a565b610c0f7f9f2df0fed2c77648de5860a4cc508cd0818c85b8b8a1ab4ceeef8d981c8956a633610533565b610c815760405162461bcd60e51b815260206004820152603660248201527f7570646174696e672066656520726563657069656e7473206973206e6f74206160448201527f6c6c6f7765642062792074686973206163636f756e740000000000000000000060648201526084016107ca565b60008381526101f66020526040812054905b81811015610d765760008581526101f66020526040902080546001600160a01b038616919083908110610cd657634e487b7160e01b600052603260045260246000fd5b60009182526020909120600290910201546001600160a01b03161415610d645760008581526101f660205260409020805484919083908110610d2857634e487b7160e01b600052603260045260246000fd5b60009182526020909120600290910201805473ffffffffffffffffffffffffffffffffffffffff19166001600160a01b03929092169190911790555b80610d6e816140b6565b915050610c93565b5050505050565b6101f56020528160005260406000208181548110610d9a57600080fd5b906000526020600020906002020160009150915050806000018054610dbe9061407b565b80601f0160208091040260200160405190810160405280929190818152602001828054610dea9061407b565b8015610e375780601f10610e0c57610100808354040283529160200191610e37565b820191906000526020600020905b815481529060010190602001808311610e1a57829003601f168201915b505050505090806001018054610e4c9061407b565b80601f0160208091040260200160405190810160405280929190818152602001828054610e789061407b565b8015610ec55780601f10610e9a57610100808354040283529160200191610ec5565b820191906000526020600020905b815481529060010190602001808311610ea857829003601f168201915b5050505050905082565b610ef97f65d7a28e3265b37a6474929f336521b332c1681b933f6cb9f3376673440d862a33610533565b610f6d576040805162461bcd60e51b81526020600482015260248101919091527f4552433732315072657365744d696e7465725061757365724175746f49643a2060448201527f6d75737420686176652070617573657220726f6c6520746f20756e706175736560648201526084016107ca565b610f7561222f565b565b61091c8383836040518060200160405280600081525061170c565b610f9b33610a73565b61100d5760405162461bcd60e51b815260206004820152603060248201527f4552433732314275726e61626c653a2063616c6c6572206973206e6f74206f7760448201527f6e6572206e6f7220617070726f7665640000000000000000000000000000000060648201526084016107ca565b611016816122cd565b50565b60606101f56000838152602001908152602001600020805480602002602001604051908101604052809291908181526020016000905b828210156111a557838290600052602060002090600202016040518060400160405290816000820180546110829061407b565b80601f01602080910402602001604051908101604052809291908181526020018280546110ae9061407b565b80156110fb5780601f106110d0576101008083540402835291602001916110fb565b820191906000526020600020905b8154815290600101906020018083116110de57829003601f168201915b505050505081526020016001820180546111149061407b565b80601f01602080910402602001604051908101604052809291908181526020018280546111409061407b565b801561118d5780601f106111625761010080835404028352916020019161118d565b820191906000526020600020905b81548152906001019060200180831161117057829003601f168201915b5050505050815250508152602001906001019061104f565b505050509050919050565b60006111bb60fd5490565b821061122f5760405162461bcd60e51b815260206004820152602c60248201527f455243373231456e756d657261626c653a20676c6f62616c20696e646578206f60448201527f7574206f6620626f756e6473000000000000000000000000000000000000000060648201526084016107ca565b60fd828154811061125057634e487b7160e01b600052603260045260246000fd5b90600052602060002001549050919050565b6101f6602052816000526040600020818154811061127f57600080fd5b6000918252602090912060029091020180546001909101546001600160a01b039091169250905082565b600081815260cb60205260408120546001600160a01b0316806106bb5760405162461bcd60e51b815260206004820152602960248201527f4552433732313a206f776e657220717565727920666f72206e6f6e657869737460448201527f656e7420746f6b656e000000000000000000000000000000000000000000000060648201526084016107ca565b61135e7f9f2df0fed2c77648de5860a4cc508cd0818c85b8b8a1ab4ceeef8d981c8956a633610533565b6113d05760405162461bcd60e51b815260206004820152603d60248201527f4552433732315072657365744d696e7465725061757365724175746f49643a2060448201527f6d7573742068617665206d696e74657220726f6c6520746f206d696e7400000060648201526084016107ca565b6113e3816113de6101c35490565b612381565b6110166101c380546001019055565b60006001600160a01b0382166114705760405162461bcd60e51b815260206004820152602a60248201527f4552433732313a2062616c616e636520717565727920666f7220746865207a6560448201527f726f20616464726573730000000000000000000000000000000000000000000060648201526084016107ca565b506001600160a01b0316600090815260cc602052604090205490565b60006114986101c35490565b905090565b6114c77f65d7a28e3265b37a6474929f336521b332c1681b933f6cb9f3376673440d862a33610533565b6115395760405162461bcd60e51b815260206004820152603e60248201527f4552433732315072657365744d696e7465725061757365724175746f49643a2060448201527f6d75737420686176652070617573657220726f6c6520746f207061757365000060648201526084016107ca565b610f756124dc565b60008281526097602052604081206115599083612566565b9392505050565b606060ca80546106d29061407b565b6001600160a01b0382163314156115c85760405162461bcd60e51b815260206004820152601960248201527f4552433732313a20617070726f766520746f2063616c6c65720000000000000060448201526064016107ca565b33600081815260ce602090815260408083206001600160a01b0387168085529252909120805460ff1916841515179055906001600160a01b03167f17307eab39ab6107e8899845ad3d59bd9653f200f220920489ca2b5937696c3183604051611635911515815260200190565b60405180910390a35050565b600054610100900460ff168061165a575060005460ff16155b6116bd5760405162461bcd60e51b815260206004820152602e60248201527f496e697469616c697a61626c653a20636f6e747261637420697320616c72656160448201526d191e481a5b9a5d1a585b1a5e995960921b60648201526084016107ca565b600054610100900460ff161580156116df576000805461ffff19166101011790555b6116e98484612572565b6116f484848461264e565b8015611706576000805461ff00191690555b50505050565b6117163383611e04565b6117885760405162461bcd60e51b815260206004820152603160248201527f4552433732313a207472616e736665722063616c6c6572206973206e6f74206f60448201527f776e6572206e6f7220617070726f76656400000000000000000000000000000060648201526084016107ca565b61170684848484612761565b60008181526101f660209081526040808320805482518185028101850190935280835260609493849084015b82821015611808576000848152602090819020604080518082019091526002850290910180546001600160a01b031682526001908101548284015290835290920191016117c0565b5050505090506000815167ffffffffffffffff81111561183857634e487b7160e01b600052604160045260246000fd5b604051908082528060200260200182016040528015611861578160200160208202803683370190505b50905060005b8251811015610a665782818151811061189057634e487b7160e01b600052603260045260246000fd5b6020026020010151600001518282815181106118bc57634e487b7160e01b600052603260045260246000fd5b6001600160a01b0390921660209283029190910190910152806118de816140b6565b915050611867565b600081815260cb60205260409020546060906001600160a01b03166119735760405162461bcd60e51b815260206004820152602f60248201527f4552433732314d657461646174613a2055524920717565727920666f72206e6f60448201527f6e6578697374656e7420746f6b656e000000000000000000000000000000000060648201526084016107ca565b600061197d6127ea565b9050600081511161199d5760405180602001604052806000815250611559565b806119a7846127fa565b6040516020016119b8929190613e16565b6040516020818303038152906040529392505050565b60008181526097602052604081206106bb90612949565b610bcd8282612953565b6119f883611334565b60006001611a0461148c565b611a0e9190614038565b90506000835167ffffffffffffffff811115611a3a57634e487b7160e01b600052604160045260246000fd5b604051908082528060200260200182016040528015611a63578160200160208202803683370190505b5090506000845167ffffffffffffffff811115611a9057634e487b7160e01b600052604160045260246000fd5b604051908082528060200260200182016040528015611ab9578160200160208202803683370190505b50855190915015611b0a57611ace83866129e0565b7f99aba1d63749cfd5ad1afda7c4663840924d54eb5f005bbbeadedc6ec13674b2838383604051611b0193929190613f35565b60405180910390a15b835115611b1b57611b1b8385612c07565b505050505050565b611b4d7f9f2df0fed2c77648de5860a4cc508cd0818c85b8b8a1ab4ceeef8d981c8956a633610533565b611bbf5760405162461bcd60e51b815260206004820152603160248201527f7570646174696e67206665652076616c7565206973206e6f7420616c6c6f776560448201527f642062792074686973206163636f756e7400000000000000000000000000000060648201526084016107ca565b60008111611c0f5760405162461bcd60e51b815260206004820181905260248201527f6e6577204665652076616c75652073686f756c6420626520706f73697469766560448201526064016107ca565b60008381526101f66020908152604080832080548251818502810185019093528083529192909190849084015b82821015611c84576000848152602090819020604080518082019091526002850290910180546001600160a01b03168252600190810154828401529083529092019101611c3c565b50505050905060005b8151811015610d765760008581526101f66020526040902080546001600160a01b038616919083908110611cd157634e487b7160e01b600052603260045260246000fd5b60009182526020909120600290910201546001600160a01b03161415611d395760008581526101f660205260409020805484919083908110611d2357634e487b7160e01b600052603260045260246000fd5b9060005260206000209060020201600101819055505b80611d43816140b6565b915050611c8d565b60006001600160e01b031982167f780e9d630000000000000000000000000000000000000000000000000000000014806106bb57506106bb82612e9a565b600081815260cd60205260409020805473ffffffffffffffffffffffffffffffffffffffff19166001600160a01b0384169081179091558190611dcb826112a9565b6001600160a01b03167f8c5be1e5ebec7d5bd14f71427d1e84f3dd0314c0f7b2291e5b200ac8c7c3b92560405160405180910390a45050565b600081815260cb60205260408120546001600160a01b0316611e7d5760405162461bcd60e51b815260206004820152602c60248201527f4552433732313a206f70657261746f7220717565727920666f72206e6f6e657860448201526b34b9ba32b73a103a37b5b2b760a11b60648201526084016107ca565b6000611e88836112a9565b9050806001600160a01b0316846001600160a01b03161480611ec35750836001600160a01b0316611eb884610755565b6001600160a01b0316145b80611ef357506001600160a01b03808216600090815260ce602090815260408083209388168352929052205460ff165b949350505050565b826001600160a01b0316611f0e826112a9565b6001600160a01b031614611f8a5760405162461bcd60e51b815260206004820152602960248201527f4552433732313a207472616e73666572206f6620746f6b656e2074686174206960448201527f73206e6f74206f776e000000000000000000000000000000000000000000000060648201526084016107ca565b6001600160a01b0382166120055760405162461bcd60e51b8152602060048201526024808201527f4552433732313a207472616e7366657220746f20746865207a65726f2061646460448201527f726573730000000000000000000000000000000000000000000000000000000060648201526084016107ca565b612010838383612f0c565b61201b600082611d89565b6001600160a01b038316600090815260cc60205260408120805460019290612044908490614038565b90915550506001600160a01b038216600090815260cc6020526040812080546001929061207290849061400c565b9091555050600081815260cb6020526040808220805473ffffffffffffffffffffffffffffffffffffffff19166001600160a01b0386811691821790925591518493918716917fddf252ad1be2c89b69c2b068fc378daa952ba7f163c4a11628f55a4df523b3ef91a4505050565b6000828152606560205260409020600101546120fd905b33610533565b61216f5760405162461bcd60e51b815260206004820152602f60248201527f416363657373436f6e74726f6c3a2073656e646572206d75737420626520616e60448201527f2061646d696e20746f206772616e74000000000000000000000000000000000060648201526084016107ca565b6121798282612f17565b5050565b6000611559836001600160a01b038416612fb9565b6001600160a01b03811633146122105760405162461bcd60e51b815260206004820152602f60248201527f416363657373436f6e74726f6c3a2063616e206f6e6c792072656e6f756e636560448201527f20726f6c657320666f722073656c66000000000000000000000000000000000060648201526084016107ca565b6121798282613008565b6000611559836001600160a01b03841661308b565b61015f5460ff166122825760405162461bcd60e51b815260206004820152601460248201527f5061757361626c653a206e6f742070617573656400000000000000000000000060448201526064016107ca565b61015f805460ff191690557f5db9ee0a495bf2e6ff9c91a7834c1ba4fdd244a5e8aa4e537bd38aeae4b073aa335b6040516001600160a01b03909116815260200160405180910390a1565b60006122d8826112a9565b90506122e681600084612f0c565b6122f1600083611d89565b6001600160a01b038116600090815260cc6020526040812080546001929061231a908490614038565b9091555050600082815260cb6020526040808220805473ffffffffffffffffffffffffffffffffffffffff19169055518391906001600160a01b038416907fddf252ad1be2c89b69c2b068fc378daa952ba7f163c4a11628f55a4df523b3ef908390a45050565b6001600160a01b0382166123d75760405162461bcd60e51b815260206004820181905260248201527f4552433732313a206d696e7420746f20746865207a65726f206164647265737360448201526064016107ca565b600081815260cb60205260409020546001600160a01b03161561243c5760405162461bcd60e51b815260206004820152601c60248201527f4552433732313a20746f6b656e20616c7265616479206d696e7465640000000060448201526064016107ca565b61244860008383612f0c565b6001600160a01b038216600090815260cc6020526040812080546001929061247190849061400c565b9091555050600081815260cb6020526040808220805473ffffffffffffffffffffffffffffffffffffffff19166001600160a01b03861690811790915590518392907fddf252ad1be2c89b69c2b068fc378daa952ba7f163c4a11628f55a4df523b3ef908290a45050565b61015f5460ff16156125305760405162461bcd60e51b815260206004820152601060248201527f5061757361626c653a207061757365640000000000000000000000000000000060448201526064016107ca565b61015f805460ff191660011790557f62e78cea01bee320cd4e420270b5ea74000d11b0c9f74754ebdbfc544b05a2586122b03390565b600061155983836131a8565b600054610100900460ff168061258b575060005460ff16155b6125ee5760405162461bcd60e51b815260206004820152602e60248201527f496e697469616c697a61626c653a20636f6e747261637420697320616c72656160448201526d191e481a5b9a5d1a585b1a5e995960921b60648201526084016107ca565b600054610100900460ff16158015612610576000805461ffff19166101011790555b82516126239060c9906020860190613765565b5081516126379060ca906020850190613765565b50801561091c576000805461ff0019169055505050565b600054610100900460ff1680612667575060005460ff16155b6126ca5760405162461bcd60e51b815260206004820152602e60248201527f496e697469616c697a61626c653a20636f6e747261637420697320616c72656160448201526d191e481a5b9a5d1a585b1a5e995960921b60648201526084016107ca565b600054610100900460ff161580156126ec576000805461ffff19166101011790555b8151612700906101c4906020850190613765565b5061270d6000335b613257565b6127377f9f2df0fed2c77648de5860a4cc508cd0818c85b8b8a1ab4ceeef8d981c8956a633612708565b6116f47f65d7a28e3265b37a6474929f336521b332c1681b933f6cb9f3376673440d862a33612708565b61276c848484611efb565b61277884848484613261565b6117065760405162461bcd60e51b815260206004820152603260248201527f4552433732313a207472616e7366657220746f206e6f6e20455243373231526560448201527f63656976657220696d706c656d656e746572000000000000000000000000000060648201526084016107ca565b60606101c480546106d29061407b565b60608161283b575060408051808201909152600181527f300000000000000000000000000000000000000000000000000000000000000060208201526106be565b8160005b8115612865578061284f816140b6565b915061285e9050600a83614024565b915061283f565b60008167ffffffffffffffff81111561288e57634e487b7160e01b600052604160045260246000fd5b6040519080825280601f01601f1916602001820160405280156128b8576020820181803683370190505b5090505b8415611ef3576128cd600183614038565b91506128da600a866140d1565b6128e590603061400c565b60f81b81838151811061290857634e487b7160e01b600052603260045260246000fd5b60200101907effffffffffffffffffffffffffffffffffffffffffffffffffffffffffffff1916908160001a905350612942600a86614024565b94506128bc565b60006106bb825490565b60008281526065602052604090206001015461296e906120f7565b6122105760405162461bcd60e51b815260206004820152603060248201527f416363657373436f6e74726f6c3a2073656e646572206d75737420626520616e60448201527f2061646d696e20746f207265766f6b650000000000000000000000000000000060648201526084016107ca565b600082815260cb60205260409020546001600160a01b0316612a595760405162461bcd60e51b815260206004820152602c60248201527f4552433732313a20617070726f76656420717565727920666f72206e6f6e657860448201526b34b9ba32b73a103a37b5b2b760a11b60648201526084016107ca565b60005b815181101561091c5760006001600160a01b0316828281518110612a9057634e487b7160e01b600052603260045260246000fd5b6020026020010151600001516001600160a01b03161415612af35760405162461bcd60e51b815260206004820152601b60248201527f526563697069656e742073686f756c642062652070726573656e74000000000060448201526064016107ca565b6000828281518110612b1557634e487b7160e01b600052603260045260246000fd5b60200260200101516020015111612b6e5760405162461bcd60e51b815260206004820152601c60248201527f4665652076616c75652073686f756c6420626520706f7369746976650000000060448201526064016107ca565b60008381526101f6602052604090208251839083908110612b9f57634e487b7160e01b600052603260045260246000fd5b6020908102919091018101518254600180820185556000948552938390208251600290920201805473ffffffffffffffffffffffffffffffffffffffff19166001600160a01b0390921691909117815591015191015580612bff816140b6565b915050612a5c565b60005b815181101561091c57604080516000815260208101918290525190208251839083908110612c4857634e487b7160e01b600052603260045260246000fd5b602002602001015160000151604051602001612c649190613dfa565b604051602081830303815290604052805190602001201415612cee5760405162461bcd60e51b815260206004820152602160248201527f417474726962757465206b65792073686f756c64206e6f7420626520656d707460448201527f790000000000000000000000000000000000000000000000000000000000000060648201526084016107ca565b604080516000815260208101918290525190208251839083908110612d2357634e487b7160e01b600052603260045260246000fd5b602002602001015160200151604051602001612d3f9190613dfa565b604051602081830303815290604052805190602001201415612dc95760405162461bcd60e51b815260206004820152602360248201527f4174747269627574652076616c75652073686f756c64206e6f7420626520656d60448201527f707479000000000000000000000000000000000000000000000000000000000060648201526084016107ca565b60008381526101f5602052604090208251839083908110612dfa57634e487b7160e01b600052603260045260246000fd5b602090810291909101810151825460018101845560009384529282902081518051929460020290910192612e3392849290910190613765565b506020828101518051612e4c9260018501920190613765565b5050507fa5800424c9d59fec069be83c374ba1fad8ad7472fcb6fb6648cbf62a557ae4e78383604051612e80929190613f9e565b60405180910390a180612e92816140b6565b915050612c0a565b60006001600160e01b031982167f80ac58cd000000000000000000000000000000000000000000000000000000001480612efd57506001600160e01b031982167f5b5e139f00000000000000000000000000000000000000000000000000000000145b806106bb57506106bb826133c4565b61091c838383613402565b60008281526065602090815260408083206001600160a01b038516845290915290205460ff166121795760008281526065602090815260408083206001600160a01b03851684529091529020805460ff19166001179055612f753390565b6001600160a01b0316816001600160a01b0316837f2f8788117e7eff1d82e926ec794901d17c78024a50270940304540a733656f0d60405160405180910390a45050565b600081815260018301602052604081205461300057508154600181810184556000848152602080822090930184905584548482528286019093526040902091909155610bbd565b506000610bbd565b60008281526065602090815260408083206001600160a01b038516845290915290205460ff16156121795760008281526065602090815260408083206001600160a01b0385168085529252808320805460ff1916905551339285917ff6391f5c32d9c69d2a47ea670b442974b53935d1edc7fd64eb21e047a839171b9190a45050565b6000818152600183016020526040812054801561319e5760006130af600183614038565b85549091506000906130c390600190614038565b905060008660000182815481106130ea57634e487b7160e01b600052603260045260246000fd5b906000526020600020015490508087600001848154811061311b57634e487b7160e01b600052603260045260246000fd5b60009182526020909120015561313283600161400c565b6000828152600189016020526040902055865487908061316257634e487b7160e01b600052603160045260246000fd5b60019003818190600052602060002001600090559055866001016000878152602001908152602001600020600090556001945050505050610bbd565b6000915050610bbd565b815460009082106132215760405162461bcd60e51b815260206004820152602260248201527f456e756d657261626c655365743a20696e646578206f7574206f6620626f756e60448201527f647300000000000000000000000000000000000000000000000000000000000060648201526084016107ca565b82600001828154811061324457634e487b7160e01b600052603260045260246000fd5b9060005260206000200154905092915050565b610b00828261216f565b60006001600160a01b0384163b156133b957604051630a85bd0160e11b81526001600160a01b0385169063150b7a02906132a5903390899088908890600401613e45565b602060405180830381600087803b1580156132bf57600080fd5b505af19250505080156132ef575060408051601f3d908101601f191682019092526132ec91810190613c1d565b60015b61339f573d80801561331d576040519150601f19603f3d011682016040523d82523d6000602084013e613322565b606091505b5080516133975760405162461bcd60e51b815260206004820152603260248201527f4552433732313a207472616e7366657220746f206e6f6e20455243373231526560448201527f63656976657220696d706c656d656e746572000000000000000000000000000060648201526084016107ca565b805181602001fd5b6001600160e01b031916630a85bd0160e11b149050611ef3565b506001949350505050565b60006001600160e01b031982167f5a05180f0000000000000000000000000000000000000000000000000000000014806106bb57506106bb82613487565b61340d8383836134ee565b61015f5460ff161561091c5760405162461bcd60e51b815260206004820152602b60248201527f4552433732315061757361626c653a20746f6b656e207472616e73666572207760448201527f68696c652070617573656400000000000000000000000000000000000000000060648201526084016107ca565b60006001600160e01b031982167f7965db0b0000000000000000000000000000000000000000000000000000000014806106bb57507f01ffc9a7000000000000000000000000000000000000000000000000000000006001600160e01b03198316146106bb565b6001600160a01b038316613549576135448160fd8054600083815260fe60205260408120829055600182018355919091527f9346ac6dd7de6b96975fec380d4d994c4c12e6a8897544f22915316cc6cca2800155565b61356c565b816001600160a01b0316836001600160a01b03161461356c5761356c83826135ab565b6001600160a01b0382166135885761358381613648565b61091c565b826001600160a01b0316826001600160a01b03161461091c5761091c8282613721565b600060016135b8846113f2565b6135c29190614038565b600083815260fc6020526040902054909150808214613615576001600160a01b038416600090815260fb60209081526040808320858452825280832054848452818420819055835260fc90915290208190555b50600091825260fc602090815260408084208490556001600160a01b03909416835260fb81528383209183525290812055565b60fd5460009061365a90600190614038565b600083815260fe602052604081205460fd805493945090928490811061369057634e487b7160e01b600052603260045260246000fd5b906000526020600020015490508060fd83815481106136bf57634e487b7160e01b600052603260045260246000fd5b600091825260208083209091019290925582815260fe909152604080822084905585825281205560fd80548061370557634e487b7160e01b600052603160045260246000fd5b6001900381819060005260206000200160009055905550505050565b600061372c836113f2565b6001600160a01b03909316600090815260fb60209081526040808320868452825280832085905593825260fc9052919091209190915550565b8280546137719061407b565b90600052602060002090601f01602090048101928261379357600085556137d9565b82601f106137ac57805160ff19168380011785556137d9565b828001600101855582156137d9579182015b828111156137d95782518255916020019190600101906137be565b506137e59291506137e9565b5090565b5b808211156137e557600081556001016137ea565b600067ffffffffffffffff83111561381857613818614111565b61382b601f8401601f1916602001613fb7565b905082815283838301111561383f57600080fd5b828260208301376000602084830101529392505050565b600082601f830112613866578081fd5b8135602061387b61387683613fe8565b613fb7565b82815281810190858301855b858110156139125781358801604080601f19838d030112156138a7578889fd5b6138b081613fb7565b8783013567ffffffffffffffff808211156138c9578b8cfd5b6138d78e8b8488010161391f565b83529284013592808411156138ea578b8cfd5b50506138fa8c898486010161391f565b81890152865250509284019290840190600101613887565b5090979650505050505050565b600082601f83011261392f578081fd5b611559838335602085016137fe565b60006020828403121561394f578081fd5b813561155981614127565b6000806040838503121561396c578081fd5b823561397781614127565b9150602083013561398781614127565b809150509250929050565b6000806000606084860312156139a6578081fd5b83356139b181614127565b925060208401356139c181614127565b929592945050506040919091013590565b600080600080608085870312156139e7578081fd5b84356139f281614127565b93506020850135613a0281614127565b925060408501359150606085013567ffffffffffffffff811115613a24578182fd5b8501601f81018713613a34578182fd5b613a43878235602084016137fe565b91505092959194509250565b600080600060608486031215613a63578283fd5b8335613a6e81614127565b925060208481013567ffffffffffffffff80821115613a8b578485fd5b818701915087601f830112613a9e578485fd5b8135613aac61387682613fe8565b8082825285820191508585018b878560061b8801011115613acb578889fd5b8895505b83861015613b1857604080828e031215613ae757898afd5b613af081613fb7565b8235613afb81614127565b815282890135898201528452600196909601959287019201613acf565b50965050506040870135925080831115613b30578384fd5b5050613b3e86828701613856565b9150509250925092565b60008060408385031215613b5a578182fd5b8235613b6581614127565b915060208301358015158114613987578182fd5b60008060408385031215613b8b578182fd5b8235613b9681614127565b946020939093013593505050565b600060208284031215613bb5578081fd5b5035919050565b60008060408385031215613bce578182fd5b82359150602083013561398781614127565b60008060408385031215613bf2578182fd5b50508035926020909101359150565b600060208284031215613c12578081fd5b81356115598161413c565b600060208284031215613c2e578081fd5b81516115598161413c565b600080600060608486031215613c4d578081fd5b833567ffffffffffffffff80821115613c64578283fd5b613c708783880161391f565b94506020860135915080821115613c85578283fd5b613c918783880161391f565b93506040860135915080821115613ca6578283fd5b50613b3e8682870161391f565b600080600060608486031215613cc7578081fd5b833592506020840135613cd981614127565b91506040840135613ce981614127565b809150509250925092565b600080600060608486031215613d08578081fd5b8335925060208401356139c181614127565b600081518084526020808501808196508360051b81019150828601855b85811015613d87578284038952815160408151818752613d5982880182613dce565b91505086820151915085810387870152613d738183613dce565b9a87019a9550505090840190600101613d37565b5091979650505050505050565b6000815180845260208085019450808401835b83811015613dc357815187529582019590820190600101613da7565b509495945050505050565b60008151808452613de681602086016020860161404f565b601f01601f19169290920160200192915050565b60008251613e0c81846020870161404f565b9190910192915050565b60008351613e2881846020880161404f565b835190830190613e3c81836020880161404f565b01949350505050565b60006001600160a01b03808716835280861660208401525083604083015260806060830152613e776080830184613dce565b9695505050505050565b6020808252825182820181905260009190848201906040850190845b81811015613ec25783516001600160a01b031683529284019291840191600101613e9d565b50909695505050505050565b6000602082526115596020830184613d1a565b6000602082526115596020830184613d94565b6000602082526115596020830184613dce565b600060408252613f1a6040830185613dce565b8281036020840152613f2c8185613dce565b95945050505050565b60006060820185835260206060818501528186518084526080860191508288019350845b81811015613f7e5784516001600160a01b031683529383019391830191600101613f59565b50508481036040860152613f928187613d94565b98975050505050505050565b600083825260406020830152611ef36040830184613d1a565b604051601f8201601f1916810167ffffffffffffffff81118282101715613fe057613fe0614111565b604052919050565b600067ffffffffffffffff82111561400257614002614111565b5060051b60200190565b6000821982111561401f5761401f6140e5565b500190565b600082614033576140336140fb565b500490565b60008282101561404a5761404a6140e5565b500390565b60005b8381101561406a578181015183820152602001614052565b838111156117065750506000910152565b600181811c9082168061408f57607f821691505b602082108114156140b057634e487b7160e01b600052602260045260246000fd5b50919050565b60006000198214156140ca576140ca6140e5565b5060010190565b6000826140e0576140e06140fb565b500690565b634e487b7160e01b600052601160045260246000fd5b634e487b7160e01b600052601260045260246000fd5b634e487b7160e01b600052604160045260246000fd5b6001600160a01b038116811461101657600080fd5b6001600160e01b03198116811461101657600080fdfea264697066735822122045ada6a67cb16057bcfb0d14ea555211b5019b64344b27a06cf59eedf28c11b964736f6c63430008030033",
  "immutableReferences": {},
  "source": "// SPDX-License-Identifier: MIT\npragma solidity ^0.8.3;\n\nimport \"@openzeppelin/contracts-upgradeable/token/ERC721/presets/ERC721PresetMinterPauserAutoIdUpgradeable.sol\";\n\n/**\n * @dev ERC721 token with minting, burning, pause, secondary sales royalitiy functions.\n *\n */\ncontract GhostmarketNFT is\n    Initializable,\n    ERC721PresetMinterPauserAutoIdUpgradeable\n{\n    // struct for secondary sales fees\n    struct Fee {\n        address payable recipient;\n        uint256 value;\n    }\n\n    //nft attributes struct\n    struct AttributesStruct {\n        string key;\n        string value;\n    }\n\n    // tokenId => attributes array\n    mapping(uint256 => AttributesStruct[]) public attribute;\n\n    // tokenId => fees array\n    mapping(uint256 => Fee[]) public fees;\n\n    event SecondarySaleFees(\n        uint256 tokenId,\n        address[] recipients,\n        uint256[] bps\n    );\n\n    event AttributesSet(uint256 tokenId, AttributesStruct[] attributes);\n\n    function initialize(\n        string memory name,\n        string memory symbol,\n        string memory uri\n    ) public override initializer {\n        __ERC721_init_unchained(name, symbol);\n        __ERC721PresetMinterPauserAutoId_init_unchained(name, symbol, uri);\n    }\n\n    /**\n     * @dev saves the nft tokens custom attributes to contract storage\n     * emits AttributesSet event\n     */\n    function setAttributes(\n        uint256 _tokenId,\n        AttributesStruct[] memory _attributes\n    ) internal {\n        for (uint256 i = 0; i < _attributes.length; i++) {\n            require(\n                keccak256(abi.encodePacked(_attributes[i].key)) !=\n                    keccak256(abi.encodePacked(\"\")),\n                \"Attribute key should not be empty\"\n            );\n            require(\n                keccak256(abi.encodePacked(_attributes[i].value)) !=\n                    keccak256(abi.encodePacked(\"\")),\n                \"Attribute value should not be empty\"\n            );\n            attribute[_tokenId].push(_attributes[i]);\n            emit AttributesSet(_tokenId, _attributes);\n        }\n    }\n\n    /**\n     * @dev get the nft token attributes with the tokenId\n     */\n    function getAttributes(uint256 _tokenId)\n        public\n        view\n        returns (AttributesStruct[] memory)\n    {\n        return attribute[_tokenId];\n    }\n\n    /**\n     * @dev get the \"secondary sales\"/royalities fee recepients with the tokenId\n     */\n    function getFeeRecipients(uint256 _tokenId)\n        public\n        view\n        returns (address payable[] memory)\n    {\n        Fee[] memory _fees = fees[_tokenId];\n        address payable[] memory result = new address payable[](_fees.length);\n        for (uint256 i = 0; i < _fees.length; i++) {\n            result[i] = _fees[i].recipient;\n        }\n        return result;\n    }\n\n    /**\n     * @dev get the \"secondary sales\"/royalities fee basis points 10000 = 100% with the tokenId\n     */\n    function getFeeBps(uint256 _tokenId)\n        public\n        view\n        returns (uint256[] memory)\n    {\n        Fee[] memory _fees = fees[_tokenId];\n        uint256[] memory result = new uint256[](_fees.length);\n        for (uint256 i = 0; i < _fees.length; i++) {\n            result[i] = _fees[i].value;\n        }\n        return result;\n    }\n\n    /**\n     * @dev save the \"secondary sales\"/royalities fee for the nft\n     * fee basis points 10000 = 100%\n     */\n    function saveFees(uint256 _tokenId, Fee[] memory _fees) internal {\n        require(\n            _exists(_tokenId),\n            \"ERC721: approved query for nonexistent token\"\n        );\n        for (uint256 i = 0; i < _fees.length; i++) {\n            require(\n                _fees[i].recipient != address(0x0),\n                \"Recipient should be present\"\n            );\n            require(_fees[i].value > 0, \"Fee value should be positive\");\n            fees[_tokenId].push(_fees[i]);\n        }\n    }\n\n    /**\n     * @dev change the \"secondary sales\"/royalities fee value for a specific recipient address \n     */\n    function updateRecipientsFees(\n        uint256 _tokenId,\n        address _from,\n        uint256 _value\n    ) external {\n        require(\n            hasRole(MINTER_ROLE, _msgSender()),\n            \"updating fee value is not allowed by this account\"\n        );\n        require(_value > 0, \"new Fee value should be positive\");\n        Fee[] memory _fees = fees[_tokenId];\n        for (uint256 i = 0; i < _fees.length; i++) {\n            if (fees[_tokenId][i].recipient == _from) {\n                fees[_tokenId][i].value = _value;\n            }\n        }\n    }\n\n    /**\n     * @dev change the recepient address of the \"secondary sales\"/royalities fee\n     */\n    function updateFeeAccount(\n        uint256 _tokenId,\n        address _from,\n        address _to\n    ) external {\n        require(\n            hasRole(MINTER_ROLE, _msgSender()),\n            \"updating fee recepients is not allowed by this account\"\n        );\n        uint256 length = fees[_tokenId].length;\n        for (uint256 i = 0; i < length; i++) {\n            if (fees[_tokenId][i].recipient == _from) {\n                fees[_tokenId][i].recipient = payable(address(uint160(_to)));\n            }\n        }\n    }\n\n    /**\n     * @dev mint NFT and set fee\n     */\n    function mint(\n        address _to,\n        //uint256 _tokenId,\n        Fee[] memory _fees,\n        AttributesStruct[] memory _attributes\n    ) public {\n        mint(_to);\n        uint256 _tokenId = (getCurrentCounter() - 1);\n        address[] memory recipients = new address[](_fees.length);\n        uint256[] memory bps = new uint256[](_fees.length);\n        if (_fees.length > 0) {\n            saveFees(_tokenId, _fees);\n            emit SecondarySaleFees(_tokenId, recipients, bps);\n        }\n        if (_attributes.length > 0) {\n            setAttributes(_tokenId, _attributes);\n        }\n    }\n}\n",
  "sourcePath": "/Users/selimerunkut/dev_freelance/GhostMarketContractBSC/contracts/GhostmarketNFT.sol",
  "compiler": {
    "name": "solc",
    "version": "0.8.3+commit.8d00100c.Emscripten.clang"
  },
  "schemaVersion": "3.3.4",
  "updatedAt": "2021-04-28T20:10:28.531Z",
  "devdoc": {
    "details": "ERC721 token with minting, burning, pause, secondary sales royalitiy functions.",
    "kind": "dev",
    "methods": {
      "approve(address,uint256)": {
        "details": "See {IERC721-approve}."
      },
      "balanceOf(address)": {
        "details": "See {IERC721-balanceOf}."
      },
      "burn(uint256)": {
        "details": "Burns `tokenId`. See {ERC721-_burn}. Requirements: - The caller must own `tokenId` or be an approved operator."
      },
      "getApproved(uint256)": {
        "details": "See {IERC721-getApproved}."
      },
      "getAttributes(uint256)": {
        "details": "get the nft token attributes with the tokenId"
      },
      "getFeeBps(uint256)": {
        "details": "get the \"secondary sales\"/royalities fee basis points 10000 = 100% with the tokenId"
      },
      "getFeeRecipients(uint256)": {
        "details": "get the \"secondary sales\"/royalities fee recepients with the tokenId"
      },
      "getRoleAdmin(bytes32)": {
        "details": "Returns the admin role that controls `role`. See {grantRole} and {revokeRole}. To change a role's admin, use {_setRoleAdmin}."
      },
      "getRoleMember(bytes32,uint256)": {
        "details": "Returns one of the accounts that have `role`. `index` must be a value between 0 and {getRoleMemberCount}, non-inclusive. Role bearers are not sorted in any particular way, and their ordering may change at any point. WARNING: When using {getRoleMember} and {getRoleMemberCount}, make sure you perform all queries on the same block. See the following https://forum.openzeppelin.com/t/iterating-over-elements-on-enumerableset-in-openzeppelin-contracts/2296[forum post] for more information."
      },
      "getRoleMemberCount(bytes32)": {
        "details": "Returns the number of accounts that have `role`. Can be used together with {getRoleMember} to enumerate all bearers of a role."
      },
      "grantRole(bytes32,address)": {
        "details": "Overload {grantRole} to track enumerable memberships"
      },
      "hasRole(bytes32,address)": {
        "details": "Returns `true` if `account` has been granted `role`."
      },
      "isApprovedForAll(address,address)": {
        "details": "See {IERC721-isApprovedForAll}."
      },
      "mint(address)": {
        "details": "Creates a new token for `to`. Its token ID will be automatically assigned (and available on the emitted {IERC721-Transfer} event), and the token URI autogenerated based on the base URI passed at construction. See {ERC721-_mint}. Requirements: - the caller must have the `MINTER_ROLE`."
      },
      "mint(address,(address,uint256)[],(string,string)[])": {
        "details": "mint NFT and set fee"
      },
      "name()": {
        "details": "See {IERC721Metadata-name}."
      },
      "ownerOf(uint256)": {
        "details": "See {IERC721-ownerOf}."
      },
      "pause()": {
        "details": "Pauses all token transfers. See {ERC721Pausable} and {Pausable-_pause}. Requirements: - the caller must have the `PAUSER_ROLE`."
      },
      "paused()": {
        "details": "Returns true if the contract is paused, and false otherwise."
      },
      "renounceRole(bytes32,address)": {
        "details": "Overload {renounceRole} to track enumerable memberships"
      },
      "revokeRole(bytes32,address)": {
        "details": "Overload {revokeRole} to track enumerable memberships"
      },
      "safeTransferFrom(address,address,uint256)": {
        "details": "See {IERC721-safeTransferFrom}."
      },
      "safeTransferFrom(address,address,uint256,bytes)": {
        "details": "See {IERC721-safeTransferFrom}."
      },
      "setApprovalForAll(address,bool)": {
        "details": "See {IERC721-setApprovalForAll}."
      },
      "supportsInterface(bytes4)": {
        "details": "See {IERC165-supportsInterface}."
      },
      "symbol()": {
        "details": "See {IERC721Metadata-symbol}."
      },
      "tokenByIndex(uint256)": {
        "details": "See {IERC721Enumerable-tokenByIndex}."
      },
      "tokenOfOwnerByIndex(address,uint256)": {
        "details": "See {IERC721Enumerable-tokenOfOwnerByIndex}."
      },
      "tokenURI(uint256)": {
        "details": "See {IERC721Metadata-tokenURI}."
      },
      "totalSupply()": {
        "details": "See {IERC721Enumerable-totalSupply}."
      },
      "transferFrom(address,address,uint256)": {
        "details": "See {IERC721-transferFrom}."
      },
      "unpause()": {
        "details": "Unpauses all token transfers. See {ERC721Pausable} and {Pausable-_unpause}. Requirements: - the caller must have the `PAUSER_ROLE`."
      },
      "updateFeeAccount(uint256,address,address)": {
        "details": "change the recepient address of the \"secondary sales\"/royalities fee"
      },
      "updateRecipientsFees(uint256,address,uint256)": {
        "details": "change the \"secondary sales\"/royalities fee value for a specific recipient address "
      }
    },
    "version": 1
  },
  "userdoc": {
    "kind": "user",
    "methods": {},
    "version": 1
  }
}