{
  "contractName": "GhostmarketERC1155",
  "abi": [
    {
      "anonymous": false,
      "inputs": [
        {
          "indexed": true,
          "internalType": "address",
          "name": "account",
          "type": "address"
        },
        {
          "indexed": true,
          "internalType": "address",
          "name": "operator",
          "type": "address"
        },
        {
          "indexed": false,
          "internalType": "bool",
          "name": "approved",
          "type": "bool"
        }
      ],
      "name": "ApprovalForAll",
      "type": "event"
    },
    {
      "anonymous": false,
      "inputs": [
        {
          "indexed": false,
          "internalType": "uint256",
          "name": "tokenId",
          "type": "uint256"
        },
        {
          "indexed": false,
          "internalType": "string",
          "name": "metadataJson",
          "type": "string"
        }
      ],
      "name": "AttributesSet",
      "type": "event"
    },
    {
      "anonymous": false,
      "inputs": [
        {
          "indexed": false,
          "internalType": "address",
          "name": "msgSender",
          "type": "address"
        },
        {
          "indexed": false,
          "internalType": "uint256",
          "name": "tokenId",
          "type": "uint256"
        },
        {
          "indexed": false,
          "internalType": "string",
          "name": "lockedContent",
          "type": "string"
        }
      ],
      "name": "LockedContentViewed",
      "type": "event"
    },
    {
      "anonymous": false,
      "inputs": [
        {
          "indexed": false,
          "internalType": "uint256",
          "name": "newValue",
          "type": "uint256"
        }
      ],
      "name": "MintFeesChanged",
      "type": "event"
    },
    {
      "anonymous": false,
      "inputs": [
        {
          "indexed": false,
          "internalType": "address",
          "name": "sender",
          "type": "address"
        },
        {
          "indexed": false,
          "internalType": "uint256",
          "name": "value",
          "type": "uint256"
        }
      ],
      "name": "MintFeesPaid",
      "type": "event"
    },
    {
      "anonymous": false,
      "inputs": [
        {
          "indexed": false,
          "internalType": "address",
          "name": "feeWithdrawer",
          "type": "address"
        },
        {
          "indexed": false,
          "internalType": "uint256",
          "name": "withdrawAmount",
          "type": "uint256"
        }
      ],
      "name": "MintFeesWithdrawn",
      "type": "event"
    },
    {
      "anonymous": false,
      "inputs": [
        {
          "indexed": false,
          "internalType": "address",
          "name": "toAddress",
          "type": "address"
        },
        {
          "indexed": false,
          "internalType": "uint256",
          "name": "tokenId",
          "type": "uint256"
        },
        {
          "indexed": false,
          "internalType": "string",
          "name": "tokenURI",
          "type": "string"
        },
        {
          "indexed": false,
          "internalType": "uint256",
          "name": "amount",
          "type": "uint256"
        }
      ],
      "name": "Minted",
      "type": "event"
    },
    {
      "anonymous": false,
      "inputs": [
        {
          "indexed": true,
          "internalType": "address",
          "name": "previousOwner",
          "type": "address"
        },
        {
          "indexed": true,
          "internalType": "address",
          "name": "newOwner",
          "type": "address"
        }
      ],
      "name": "OwnershipTransferred",
      "type": "event"
    },
    {
      "anonymous": false,
      "inputs": [
        {
          "indexed": false,
          "internalType": "address",
          "name": "account",
          "type": "address"
        }
      ],
      "name": "Paused",
      "type": "event"
    },
    {
      "anonymous": false,
      "inputs": [
        {
          "indexed": true,
          "internalType": "bytes32",
          "name": "role",
          "type": "bytes32"
        },
        {
          "indexed": true,
          "internalType": "bytes32",
          "name": "previousAdminRole",
          "type": "bytes32"
        },
        {
          "indexed": true,
          "internalType": "bytes32",
          "name": "newAdminRole",
          "type": "bytes32"
        }
      ],
      "name": "RoleAdminChanged",
      "type": "event"
    },
    {
      "anonymous": false,
      "inputs": [
        {
          "indexed": true,
          "internalType": "bytes32",
          "name": "role",
          "type": "bytes32"
        },
        {
          "indexed": true,
          "internalType": "address",
          "name": "account",
          "type": "address"
        },
        {
          "indexed": true,
          "internalType": "address",
          "name": "sender",
          "type": "address"
        }
      ],
      "name": "RoleGranted",
      "type": "event"
    },
    {
      "anonymous": false,
      "inputs": [
        {
          "indexed": true,
          "internalType": "bytes32",
          "name": "role",
          "type": "bytes32"
        },
        {
          "indexed": true,
          "internalType": "address",
          "name": "account",
          "type": "address"
        },
        {
          "indexed": true,
          "internalType": "address",
          "name": "sender",
          "type": "address"
        }
      ],
      "name": "RoleRevoked",
      "type": "event"
    },
    {
      "anonymous": false,
      "inputs": [
        {
          "indexed": false,
          "internalType": "uint256",
          "name": "tokenId",
          "type": "uint256"
        },
        {
          "indexed": false,
          "internalType": "address[]",
          "name": "recipients",
          "type": "address[]"
        },
        {
          "indexed": false,
          "internalType": "uint256[]",
          "name": "bps",
          "type": "uint256[]"
        }
      ],
      "name": "RoyaltiesFeesSet",
      "type": "event"
    },
    {
      "anonymous": false,
      "inputs": [
        {
          "indexed": true,
          "internalType": "address",
          "name": "operator",
          "type": "address"
        },
        {
          "indexed": true,
          "internalType": "address",
          "name": "from",
          "type": "address"
        },
        {
          "indexed": true,
          "internalType": "address",
          "name": "to",
          "type": "address"
        },
        {
          "indexed": false,
          "internalType": "uint256[]",
          "name": "ids",
          "type": "uint256[]"
        },
        {
          "indexed": false,
          "internalType": "uint256[]",
          "name": "values",
          "type": "uint256[]"
        }
      ],
      "name": "TransferBatch",
      "type": "event"
    },
    {
      "anonymous": false,
      "inputs": [
        {
          "indexed": true,
          "internalType": "address",
          "name": "operator",
          "type": "address"
        },
        {
          "indexed": true,
          "internalType": "address",
          "name": "from",
          "type": "address"
        },
        {
          "indexed": true,
          "internalType": "address",
          "name": "to",
          "type": "address"
        },
        {
          "indexed": false,
          "internalType": "uint256",
          "name": "id",
          "type": "uint256"
        },
        {
          "indexed": false,
          "internalType": "uint256",
          "name": "value",
          "type": "uint256"
        }
      ],
      "name": "TransferSingle",
      "type": "event"
    },
    {
      "anonymous": false,
      "inputs": [
        {
          "indexed": false,
          "internalType": "string",
          "name": "value",
          "type": "string"
        },
        {
          "indexed": true,
          "internalType": "uint256",
          "name": "id",
          "type": "uint256"
        }
      ],
      "name": "URI",
      "type": "event"
    },
    {
      "anonymous": false,
      "inputs": [
        {
          "indexed": false,
          "internalType": "address",
          "name": "account",
          "type": "address"
        }
      ],
      "name": "Unpaused",
      "type": "event"
    },
    {
      "inputs": [],
      "name": "DEFAULT_ADMIN_ROLE",
      "outputs": [
        {
          "internalType": "bytes32",
          "name": "",
          "type": "bytes32"
        }
      ],
      "stateMutability": "view",
      "type": "function"
    },
    {
      "inputs": [],
      "name": "MINTER_ROLE",
      "outputs": [
        {
          "internalType": "bytes32",
          "name": "",
          "type": "bytes32"
        }
      ],
      "stateMutability": "view",
      "type": "function"
    },
    {
      "inputs": [],
      "name": "PAUSER_ROLE",
      "outputs": [
        {
          "internalType": "bytes32",
          "name": "",
          "type": "bytes32"
        }
      ],
      "stateMutability": "view",
      "type": "function"
    },
    {
      "inputs": [
        {
          "internalType": "address",
          "name": "account",
          "type": "address"
        },
        {
          "internalType": "uint256",
          "name": "id",
          "type": "uint256"
        }
      ],
      "name": "balanceOf",
      "outputs": [
        {
          "internalType": "uint256",
          "name": "",
          "type": "uint256"
        }
      ],
      "stateMutability": "view",
      "type": "function"
    },
    {
      "inputs": [
        {
          "internalType": "address[]",
          "name": "accounts",
          "type": "address[]"
        },
        {
          "internalType": "uint256[]",
          "name": "ids",
          "type": "uint256[]"
        }
      ],
      "name": "balanceOfBatch",
      "outputs": [
        {
          "internalType": "uint256[]",
          "name": "",
          "type": "uint256[]"
        }
      ],
      "stateMutability": "view",
      "type": "function"
    },
    {
      "inputs": [
        {
          "internalType": "address",
          "name": "account",
          "type": "address"
        },
        {
          "internalType": "uint256",
          "name": "id",
          "type": "uint256"
        },
        {
          "internalType": "uint256",
          "name": "value",
          "type": "uint256"
        }
      ],
      "name": "burn",
      "outputs": [],
      "stateMutability": "nonpayable",
      "type": "function"
    },
    {
      "inputs": [
        {
          "internalType": "address",
          "name": "account",
          "type": "address"
        },
        {
          "internalType": "uint256[]",
          "name": "ids",
          "type": "uint256[]"
        },
        {
          "internalType": "uint256[]",
          "name": "values",
          "type": "uint256[]"
        }
      ],
      "name": "burnBatch",
      "outputs": [],
      "stateMutability": "nonpayable",
      "type": "function"
    },
    {
      "inputs": [
        {
          "internalType": "bytes32",
          "name": "role",
          "type": "bytes32"
        }
      ],
      "name": "getRoleAdmin",
      "outputs": [
        {
          "internalType": "bytes32",
          "name": "",
          "type": "bytes32"
        }
      ],
      "stateMutability": "view",
      "type": "function"
    },
    {
      "inputs": [
        {
          "internalType": "bytes32",
          "name": "role",
          "type": "bytes32"
        },
        {
          "internalType": "uint256",
          "name": "index",
          "type": "uint256"
        }
      ],
      "name": "getRoleMember",
      "outputs": [
        {
          "internalType": "address",
          "name": "",
          "type": "address"
        }
      ],
      "stateMutability": "view",
      "type": "function"
    },
    {
      "inputs": [
        {
          "internalType": "bytes32",
          "name": "role",
          "type": "bytes32"
        }
      ],
      "name": "getRoleMemberCount",
      "outputs": [
        {
          "internalType": "uint256",
          "name": "",
          "type": "uint256"
        }
      ],
      "stateMutability": "view",
      "type": "function"
    },
    {
      "inputs": [
        {
          "internalType": "bytes32",
          "name": "role",
          "type": "bytes32"
        },
        {
          "internalType": "address",
          "name": "account",
          "type": "address"
        }
      ],
      "name": "grantRole",
      "outputs": [],
      "stateMutability": "nonpayable",
      "type": "function"
    },
    {
      "inputs": [
        {
          "internalType": "bytes32",
          "name": "role",
          "type": "bytes32"
        },
        {
          "internalType": "address",
          "name": "account",
          "type": "address"
        }
      ],
      "name": "hasRole",
      "outputs": [
        {
          "internalType": "bool",
          "name": "",
          "type": "bool"
        }
      ],
      "stateMutability": "view",
      "type": "function"
    },
    {
      "inputs": [
        {
          "internalType": "address",
          "name": "account",
          "type": "address"
        },
        {
          "internalType": "address",
          "name": "operator",
          "type": "address"
        }
      ],
      "name": "isApprovedForAll",
      "outputs": [
        {
          "internalType": "bool",
          "name": "",
          "type": "bool"
        }
      ],
      "stateMutability": "view",
      "type": "function"
    },
    {
      "inputs": [
        {
          "internalType": "address",
          "name": "to",
          "type": "address"
        },
        {
          "internalType": "uint256",
          "name": "id",
          "type": "uint256"
        },
        {
          "internalType": "uint256",
          "name": "amount",
          "type": "uint256"
        },
        {
          "internalType": "bytes",
          "name": "data",
          "type": "bytes"
        }
      ],
      "name": "mint",
      "outputs": [],
      "stateMutability": "nonpayable",
      "type": "function"
    },
    {
      "inputs": [
        {
          "internalType": "address",
          "name": "to",
          "type": "address"
        },
        {
          "internalType": "uint256[]",
          "name": "ids",
          "type": "uint256[]"
        },
        {
          "internalType": "uint256[]",
          "name": "amounts",
          "type": "uint256[]"
        },
        {
          "internalType": "bytes",
          "name": "data",
          "type": "bytes"
        }
      ],
      "name": "mintBatch",
      "outputs": [],
      "stateMutability": "nonpayable",
      "type": "function"
    },
    {
      "inputs": [],
      "name": "name",
      "outputs": [
        {
          "internalType": "string",
          "name": "",
          "type": "string"
        }
      ],
      "stateMutability": "view",
      "type": "function"
    },
    {
      "inputs": [],
      "name": "owner",
      "outputs": [
        {
          "internalType": "address",
          "name": "",
          "type": "address"
        }
      ],
      "stateMutability": "view",
      "type": "function"
    },
    {
      "inputs": [],
      "name": "pause",
      "outputs": [],
      "stateMutability": "nonpayable",
      "type": "function"
    },
    {
      "inputs": [],
      "name": "paused",
      "outputs": [
        {
          "internalType": "bool",
          "name": "",
          "type": "bool"
        }
      ],
      "stateMutability": "view",
      "type": "function"
    },
    {
      "inputs": [],
      "name": "renounceOwnership",
      "outputs": [],
      "stateMutability": "nonpayable",
      "type": "function"
    },
    {
      "inputs": [
        {
          "internalType": "bytes32",
          "name": "role",
          "type": "bytes32"
        },
        {
          "internalType": "address",
          "name": "account",
          "type": "address"
        }
      ],
      "name": "renounceRole",
      "outputs": [],
      "stateMutability": "nonpayable",
      "type": "function"
    },
    {
      "inputs": [
        {
          "internalType": "bytes32",
          "name": "role",
          "type": "bytes32"
        },
        {
          "internalType": "address",
          "name": "account",
          "type": "address"
        }
      ],
      "name": "revokeRole",
      "outputs": [],
      "stateMutability": "nonpayable",
      "type": "function"
    },
    {
      "inputs": [
        {
          "internalType": "address",
          "name": "from",
          "type": "address"
        },
        {
          "internalType": "address",
          "name": "to",
          "type": "address"
        },
        {
          "internalType": "uint256[]",
          "name": "ids",
          "type": "uint256[]"
        },
        {
          "internalType": "uint256[]",
          "name": "amounts",
          "type": "uint256[]"
        },
        {
          "internalType": "bytes",
          "name": "data",
          "type": "bytes"
        }
      ],
      "name": "safeBatchTransferFrom",
      "outputs": [],
      "stateMutability": "nonpayable",
      "type": "function"
    },
    {
      "inputs": [
        {
          "internalType": "address",
          "name": "from",
          "type": "address"
        },
        {
          "internalType": "address",
          "name": "to",
          "type": "address"
        },
        {
          "internalType": "uint256",
          "name": "id",
          "type": "uint256"
        },
        {
          "internalType": "uint256",
          "name": "amount",
          "type": "uint256"
        },
        {
          "internalType": "bytes",
          "name": "data",
          "type": "bytes"
        }
      ],
      "name": "safeTransferFrom",
      "outputs": [],
      "stateMutability": "nonpayable",
      "type": "function"
    },
    {
      "inputs": [
        {
          "internalType": "address",
          "name": "operator",
          "type": "address"
        },
        {
          "internalType": "bool",
          "name": "approved",
          "type": "bool"
        }
      ],
      "name": "setApprovalForAll",
      "outputs": [],
      "stateMutability": "nonpayable",
      "type": "function"
    },
    {
      "inputs": [
        {
          "internalType": "string",
          "name": "uri_",
          "type": "string"
        }
      ],
      "name": "setURI",
      "outputs": [],
      "stateMutability": "nonpayable",
      "type": "function"
    },
    {
      "inputs": [
        {
          "internalType": "bytes4",
          "name": "interfaceId",
          "type": "bytes4"
        }
      ],
      "name": "supportsInterface",
      "outputs": [
        {
          "internalType": "bool",
          "name": "",
          "type": "bool"
        }
      ],
      "stateMutability": "view",
      "type": "function"
    },
    {
      "inputs": [],
      "name": "symbol",
      "outputs": [
        {
          "internalType": "string",
          "name": "",
          "type": "string"
        }
      ],
      "stateMutability": "view",
      "type": "function"
    },
    {
      "inputs": [
        {
          "internalType": "address",
          "name": "newOwner",
          "type": "address"
        }
      ],
      "name": "transferOwnership",
      "outputs": [],
      "stateMutability": "nonpayable",
      "type": "function"
    },
    {
      "inputs": [],
      "name": "unpause",
      "outputs": [],
      "stateMutability": "nonpayable",
      "type": "function"
    },
    {
      "inputs": [
        {
          "internalType": "uint256",
          "name": "",
          "type": "uint256"
        }
      ],
      "name": "uri",
      "outputs": [
        {
          "internalType": "string",
          "name": "",
          "type": "string"
        }
      ],
      "stateMutability": "view",
      "type": "function"
    },
    {
      "inputs": [
        {
          "internalType": "string",
          "name": "_name",
          "type": "string"
        },
        {
          "internalType": "string",
          "name": "_symbol",
          "type": "string"
        },
        {
          "internalType": "string",
          "name": "uri",
          "type": "string"
        }
      ],
      "name": "initialize",
      "outputs": [],
      "stateMutability": "nonpayable",
      "type": "function"
    },
    {
      "inputs": [
        {
          "internalType": "string",
          "name": "uri",
          "type": "string"
        }
      ],
      "name": "initialize",
      "outputs": [],
      "stateMutability": "nonpayable",
      "type": "function"
    },
    {
      "inputs": [
        {
          "internalType": "uint256",
          "name": "tokenId",
          "type": "uint256"
        }
      ],
      "name": "getMetadataJson",
      "outputs": [
        {
          "internalType": "string",
          "name": "",
          "type": "string"
        }
      ],
      "stateMutability": "view",
      "type": "function"
    },
    {
      "inputs": [
        {
          "internalType": "uint256",
          "name": "tokenId",
          "type": "uint256"
        }
      ],
      "name": "getRoyaltiesRecipients",
      "outputs": [
        {
          "internalType": "address payable[]",
          "name": "",
          "type": "address[]"
        }
      ],
      "stateMutability": "view",
      "type": "function"
    },
    {
      "inputs": [
        {
          "internalType": "uint256",
          "name": "tokenId",
          "type": "uint256"
        }
      ],
      "name": "getRoyaltiesBps",
      "outputs": [
        {
          "internalType": "uint256[]",
          "name": "",
          "type": "uint256[]"
        }
      ],
      "stateMutability": "view",
      "type": "function"
    },
    {
      "inputs": [
        {
          "internalType": "address",
          "name": "to",
          "type": "address"
        },
        {
          "internalType": "uint256",
          "name": "amount",
          "type": "uint256"
        },
        {
          "internalType": "bytes",
          "name": "data",
          "type": "bytes"
        },
        {
          "components": [
            {
              "internalType": "address payable",
              "name": "recipient",
              "type": "address"
            },
            {
              "internalType": "uint256",
              "name": "value",
              "type": "uint256"
            }
          ],
          "internalType": "struct GhostmarketERC1155.Royalty[]",
          "name": "royalties",
          "type": "tuple[]"
        },
        {
          "internalType": "string",
          "name": "metadata",
          "type": "string"
        },
        {
          "internalType": "string",
          "name": "lockedcontent",
          "type": "string"
        }
      ],
      "name": "mintGhost",
      "outputs": [],
      "stateMutability": "payable",
      "type": "function"
    },
    {
      "inputs": [
        {
          "internalType": "uint256",
          "name": "withdrawAmount",
          "type": "uint256"
        }
      ],
      "name": "withdraw",
      "outputs": [],
      "stateMutability": "nonpayable",
      "type": "function"
    },
    {
      "inputs": [
        {
          "internalType": "uint256",
          "name": "gmmf",
          "type": "uint256"
        }
      ],
      "name": "setGhostmarketMintFee",
      "outputs": [],
      "stateMutability": "nonpayable",
      "type": "function"
    },
    {
      "inputs": [],
      "name": "getGhostmarketMintFees",
      "outputs": [
        {
          "internalType": "uint256",
          "name": "",
          "type": "uint256"
        }
      ],
      "stateMutability": "view",
      "type": "function"
    },
    {
      "inputs": [
        {
          "internalType": "address",
          "name": "from",
          "type": "address"
        },
        {
          "internalType": "uint256",
          "name": "tokenId",
          "type": "uint256"
        }
      ],
      "name": "getLockedContent",
      "outputs": [],
      "stateMutability": "nonpayable",
      "type": "function"
    },
    {
      "inputs": [
        {
          "internalType": "uint256",
          "name": "tokenId",
          "type": "uint256"
        }
      ],
      "name": "getCurrentLockedContentViewTracker",
      "outputs": [
        {
          "internalType": "uint256",
          "name": "",
          "type": "uint256"
        }
      ],
      "stateMutability": "view",
      "type": "function"
    },
    {
      "inputs": [],
      "name": "getCurrentCounter",
      "outputs": [
        {
          "internalType": "uint256",
          "name": "",
          "type": "uint256"
        }
      ],
      "stateMutability": "view",
      "type": "function"
    },
    {
      "inputs": [],
      "name": "getLastTokenID",
      "outputs": [
        {
          "internalType": "uint256",
          "name": "",
          "type": "uint256"
        }
      ],
      "stateMutability": "view",
      "type": "function"
    }
  ],
  "bytecode": "0x608060405234801561001057600080fd5b50614bf0806100206000396000f3fe6080604052600436106102e65760003560e01c80639010d07c11610184578063dac0f3d9116100d6578063edcbc0bd1161008a578063f5298aca11610064578063f5298aca14610889578063f62d1888146108a9578063f7d027de146108c9576102e6565b8063edcbc0bd1461081c578063f242432a14610849578063f2fde38b14610869576102e6565b8063e63ab1e9116100bb578063e63ab1e91461077f578063e985e9c5146107b3578063eb273039146107fc576102e6565b8063dac0f3d914610749578063e24dbeae14610769576102e6565b8063a6487c5311610138578063ca15c87311610112578063ca15c873146106d5578063d5391393146106f5578063d547741f14610729576102e6565b8063a6487c5314610667578063c1793c5814610687578063c6f4f0f0146106a7576102e6565b806395d89b411161016957806395d89b411461061d578063a217fddf14610632578063a22cb46514610647576102e6565b80639010d07c146105b757806391d14854146105d7576102e6565b80632f2ff15d1161023d5780636b20c454116101f157806373448c46116101cb57806373448c461461055a5780638456cb591461056f5780638da5cb5b14610584576102e6565b80636b20c45414610505578063715018a614610525578063731133e91461053a576102e6565b80633f4ba83a116102225780633f4ba83a146104aa5780634e1273f4146104bf5780635c975abb146104ec576102e6565b80632f2ff15d1461046a57806336568abe1461048a576102e6565b80630e0941371161029f578063248a9ca311610279578063248a9ca3146103fa5780632e1a7d4d1461042a5780632eb2c2d61461044a576102e6565b80630e094137146103a55780630e89341c146103ba5780631f7fdffa146103da576102e6565b806302fe5305116102d057806302fe53051461034e57806306fdde03146103705780630a0e1e8314610392576102e6565b8062fdd58e146102eb57806301ffc9a71461031e575b600080fd5b3480156102f757600080fd5b5061030b6103063660046142fa565b6108e9565b6040519081526020015b60405180910390f35b34801561032a57600080fd5b5061033e610339366004614599565b610997565b6040519015158152602001610315565b34801561035a57600080fd5b5061036e6103693660046145d1565b6109aa565b005b34801561037c57600080fd5b50610385610a33565b604051610315919061492f565b61036e6103a0366004614325565b610ac2565b3480156103b157600080fd5b5061030b610c5e565b3480156103c657600080fd5b506103856103d536600461453c565b610c93565b3480156103e657600080fd5b5061036e6103f5366004614232565b610d27565b34801561040657600080fd5b5061030b61041536600461453c565b60009081526065602052604090206001015490565b34801561043657600080fd5b5061036e61044536600461453c565b610dd5565b34801561045657600080fd5b5061036e6104653660046140ae565b610fc9565b34801561047657600080fd5b5061036e610485366004614554565b611340565b34801561049657600080fd5b5061036e6104a5366004614554565b611367565b3480156104b657600080fd5b5061036e611389565b3480156104cb57600080fd5b506104df6104da36600461446f565b61142f565b60405161031591906148ee565b3480156104f857600080fd5b5061012d5460ff1661033e565b34801561051157600080fd5b5061036e6105203660046141bf565b6115a5565b34801561053157600080fd5b5061036e61162a565b34801561054657600080fd5b5061036e61055536600461441a565b6116de565b34801561056657600080fd5b5061030b6116ea565b34801561057b57600080fd5b5061036e6116fb565b34801561059057600080fd5b506101f5546001600160a01b03165b6040516001600160a01b039091168152602001610315565b3480156105c357600080fd5b5061059f6105d2366004614578565b61179f565b3480156105e357600080fd5b5061033e6105f2366004614554565b60009182526065602090815260408084206001600160a01b0393909316845291905290205460ff1690565b34801561062957600080fd5b506103856117be565b34801561063e57600080fd5b5061030b600081565b34801561065357600080fd5b5061036e6106623660046142c9565b6117cc565b34801561067357600080fd5b5061036e61068236600461460c565b6118c4565b34801561069357600080fd5b506104df6106a236600461453c565b6119bd565b3480156106b357600080fd5b5061030b6106c236600461453c565b600090815261022c602052604090205490565b3480156106e157600080fd5b5061030b6106f036600461453c565b611b02565b34801561070157600080fd5b5061030b7f9f2df0fed2c77648de5860a4cc508cd0818c85b8b8a1ab4ceeef8d981c8956a681565b34801561073557600080fd5b5061036e610744366004614554565b611b19565b34801561075557600080fd5b5061036e61076436600461453c565b611b23565b34801561077557600080fd5b5061022e5461030b565b34801561078b57600080fd5b5061030b7f65d7a28e3265b37a6474929f336521b332c1681b933f6cb9f3376673440d862a81565b3480156107bf57600080fd5b5061033e6107ce366004614076565b6001600160a01b03918216600090815260ca6020908152604080832093909416825291909152205460ff1690565b34801561080857600080fd5b5061036e6108173660046142fa565b611bdc565b34801561082857600080fd5b5061083c61083736600461453c565b611ca5565b60405161031591906148a1565b34801561085557600080fd5b5061036e610864366004614158565b611df7565b34801561087557600080fd5b5061036e61088436600461405a565b61203e565b34801561089557600080fd5b5061036e6108a43660046143e6565b612180565b3480156108b557600080fd5b5061036e6108c43660046145d1565b612205565b3480156108d557600080fd5b506103856108e436600461453c565b6122c2565b60006001600160a01b03831661096c5760405162461bcd60e51b815260206004820152602b60248201527f455243313135353a2062616c616e636520717565727920666f7220746865207a60448201527f65726f206164647265737300000000000000000000000000000000000000000060648201526084015b60405180910390fd5b50600081815260c9602090815260408083206001600160a01b03861684529091529020545b92915050565b60006109a2826122e0565b90505b919050565b6109b56000336105f2565b610a275760405162461bcd60e51b815260206004820152603e60248201527f455243313135355072657365744d696e7465725061757365723a206d7573742060448201527f686176652061646d696e20726f6c6520746f20736574206e65772075726900006064820152608401610963565b610a3081612352565b50565b6102278054610a4190614a37565b80601f0160208091040260200160405190810160405280929190818152602001828054610a6d90614a37565b8015610aba5780601f10610a8f57610100808354040283529160200191610aba565b820191906000526020600020905b815481529060010190602001808311610a9d57829003601f168201915b505050505081565b60026101c3541415610b165760405162461bcd60e51b815260206004820152601f60248201527f5265656e7472616e637947756172643a207265656e7472616e742063616c6c006044820152606401610963565b60026101c355610b3186610b2a61022f5490565b87876116de565b825115610b4b57610b4b610b4561022f5490565b84612365565b6040805160008152602081018083528151902091610b6b918591016146ec565b6040516020818303038152906040528051906020012014610b9957610b99610b9361022f5490565b83612622565b6040805160008152602081018083528151902091610bb9918491016146ec565b6040516020818303038152906040528051906020012014610be757610be7610be161022f5490565b82612674565b610bef612694565b7ff5c82eda717141c5f0cfeb894e7b7819c158a337b62ec13d412aecad30b0ad9e86610c1b61022f5490565b610c286103d561022f5490565b88604051610c3994939291906147a9565b60405180910390a1610c5061022f80546001019055565b505060016101c35550505050565b6000610c6a61022f5490565b610c7a5761022f545b9050610c90565b6001610c8661022f5490565b610c7391906149f4565b90565b606060cb8054610ca290614a37565b80601f0160208091040260200160405190810160405280929190818152602001828054610cce90614a37565b8015610d1b5780601f10610cf057610100808354040283529160200191610d1b565b820191906000526020600020905b815481529060010190602001808311610cfe57829003601f168201915b50505050509050919050565b610d517f9f2df0fed2c77648de5860a4cc508cd0818c85b8b8a1ab4ceeef8d981c8956a6336105f2565b610dc35760405162461bcd60e51b815260206004820152603860248201527f455243313135355072657365744d696e7465725061757365723a206d7573742060448201527f68617665206d696e74657220726f6c6520746f206d696e7400000000000000006064820152608401610963565b610dcf8484848461276e565b50505050565b6101f5546001600160a01b03163314610e305760405162461bcd60e51b815260206004820181905260248201527f4f776e61626c653a2063616c6c6572206973206e6f7420746865206f776e65726044820152606401610963565b600081118015610e43575061022d548111155b610edb5760405162461bcd60e51b815260206004820152604760248201527f576974686472617720616d6f756e742073686f756c642062652067726561746560448201527f72207468656e203020616e64206c657373207468656e20636f6e74726163742060648201527f62616c616e636500000000000000000000000000000000000000000000000000608482015260a401610963565b8061022d6000828254610eee91906149f4565b9091555050604051600090339083908381818185875af1925050503d8060008114610f35576040519150601f19603f3d011682016040523d82523d6000602084013e610f3a565b606091505b5050905080610f8b5760405162461bcd60e51b815260206004820152601060248201527f5472616e73666572206661696c65642e000000000000000000000000000000006044820152606401610963565b60408051338152602081018490527f3c897fa64265e543b9d36df079688f87240185d1bf1a937e4c45a56e1167873691015b60405180910390a15050565b815183511461102b5760405162461bcd60e51b815260206004820152602860248201527f455243313135353a2069647320616e6420616d6f756e7473206c656e677468206044820152670dad2e6dac2e8c6d60c31b6064820152608401610963565b6001600160a01b03841661108f5760405162461bcd60e51b815260206004820152602560248201527f455243313135353a207472616e7366657220746f20746865207a65726f206164604482015264647265737360d81b6064820152608401610963565b6001600160a01b0385163314806110ab57506110ab85336107ce565b61111d5760405162461bcd60e51b815260206004820152603260248201527f455243313135353a207472616e736665722063616c6c6572206973206e6f742060448201527f6f776e6572206e6f7220617070726f76656400000000000000000000000000006064820152608401610963565b3361112c818787878787612967565b60005b84518110156112d257600085828151811061115a57634e487b7160e01b600052603260045260246000fd5b60200260200101519050600085838151811061118657634e487b7160e01b600052603260045260246000fd5b602090810291909101810151600084815260c9835260408082206001600160a01b038e16835290935291909120549091508181101561122d5760405162461bcd60e51b815260206004820152602a60248201527f455243313135353a20696e73756666696369656e742062616c616e636520666f60448201527f72207472616e73666572000000000000000000000000000000000000000000006064820152608401610963565b61123782826149f4565b60c9600085815260200190815260200160002060008c6001600160a01b03166001600160a01b03168152602001908152602001600020819055508160c9600085815260200190815260200160002060008b6001600160a01b03166001600160a01b0316815260200190815260200160002060008282546112b791906149dc565b92505081905550505050806112cb90614a9f565b905061112f565b50846001600160a01b0316866001600160a01b0316826001600160a01b03167f4a39dc06d4c0dbc64b70af90fd698a233a518aa5d07e595d983b8c0526c8f7fb8787604051611322929190614901565b60405180910390a4611338818787878787612975565b505050505050565b61134a8282612b2a565b60008281526097602052604090206113629082612bc3565b505050565b6113718282612bd8565b60008281526097602052604090206113629082612c60565b6113b37f65d7a28e3265b37a6474929f336521b332c1681b933f6cb9f3376673440d862a336105f2565b6114255760405162461bcd60e51b815260206004820152603b60248201527f455243313135355072657365744d696e7465725061757365723a206d7573742060448201527f686176652070617573657220726f6c6520746f20756e706175736500000000006064820152608401610963565b61142d612c75565b565b606081518351146114a85760405162461bcd60e51b815260206004820152602960248201527f455243313135353a206163636f756e747320616e6420696473206c656e67746860448201527f206d69736d6174636800000000000000000000000000000000000000000000006064820152608401610963565b6000835167ffffffffffffffff8111156114d257634e487b7160e01b600052604160045260246000fd5b6040519080825280602002602001820160405280156114fb578160200160208202803683370190505b50905060005b845181101561159d5761156285828151811061152d57634e487b7160e01b600052603260045260246000fd5b602002602001015185838151811061155557634e487b7160e01b600052603260045260246000fd5b60200260200101516108e9565b82828151811061158257634e487b7160e01b600052603260045260246000fd5b602090810291909101015261159681614a9f565b9050611501565b509392505050565b6001600160a01b0383163314806115c157506115c183336107ce565b61161f5760405162461bcd60e51b815260206004820152602960248201527f455243313135353a2063616c6c6572206973206e6f74206f776e6572206e6f7260448201526808185c1c1c9bdd995960ba1b6064820152608401610963565b611362838383612d0e565b6101f5546001600160a01b031633146116855760405162461bcd60e51b815260206004820181905260248201527f4f776e61626c653a2063616c6c6572206973206e6f7420746865206f776e65726044820152606401610963565b6101f5546040516000916001600160a01b0316907f8be0079c531659141344cd1fd0a4f28419497f9722a3daafe3b4186f6b6457e0908390a36101f5805473ffffffffffffffffffffffffffffffffffffffff19169055565b610dcf84848484612f81565b60006116f661022f5490565b905090565b6117257f65d7a28e3265b37a6474929f336521b332c1681b933f6cb9f3376673440d862a336105f2565b6117975760405162461bcd60e51b815260206004820152603960248201527f455243313135355072657365744d696e7465725061757365723a206d7573742060448201527f686176652070617573657220726f6c6520746f207061757365000000000000006064820152608401610963565b61142d613084565b60008281526097602052604081206117b7908361310e565b9392505050565b6102288054610a4190614a37565b336001600160a01b038316141561184b5760405162461bcd60e51b815260206004820152602960248201527f455243313135353a2073657474696e6720617070726f76616c2073746174757360448201527f20666f722073656c6600000000000000000000000000000000000000000000006064820152608401610963565b33600081815260ca602090815260408083206001600160a01b0387168085529252909120805460ff1916841515179055906001600160a01b03167f17307eab39ab6107e8899845ad3d59bd9653f200f220920489ca2b5937696c31836040516118b8911515815260200190565b60405180910390a35050565b600054610100900460ff16806118dd575060005460ff16155b6119405760405162461bcd60e51b815260206004820152602e60248201527f496e697469616c697a61626c653a20636f6e747261637420697320616c72656160448201526d191e481a5b9a5d1a585b1a5e995960921b6064820152608401610963565b600054610100900460ff16158015611962576000805461ffff19166101011790555b61196b8261311a565b611974826131c1565b61197c6132bf565b835161199090610227906020870190613e30565b5082516119a590610228906020860190613e30565b508015610dcf576000805461ff001916905550505050565b600081815261022a60209081526040808320805482518185028101850190935280835260609493849084015b82821015611a31576000848152602090819020604080518082019091526002850290910180546001600160a01b031682526001908101548284015290835290920191016119e9565b5050505090506000815167ffffffffffffffff811115611a6157634e487b7160e01b600052604160045260246000fd5b604051908082528060200260200182016040528015611a8a578160200160208202803683370190505b50905060005b825181101561159d57828181518110611ab957634e487b7160e01b600052603260045260246000fd5b602002602001015160200151828281518110611ae557634e487b7160e01b600052603260045260246000fd5b602090810291909101015280611afa81614a9f565b915050611a90565b60008181526097602052604081206109a2906133c2565b61137182826133cc565b611b2e6000336105f2565b611ba05760405162461bcd60e51b815260206004820152602c60248201527f43616c6c6572206d75737420686176652061646d696e20726f6c6520746f207360448201527f6574206d696e74206665657300000000000000000000000000000000000000006064820152608401610963565b61022e8190556040518181527f0f3b48a5cb203023dd681facda0506fea024143e07ad14ff26c35d22204c31089060200160405180910390a150565b6001600160a01b0382163314611c5a5760405162461bcd60e51b815260206004820152602360248201527f43616c6c6572206d75737420626520746865206f776e6572206f66207468652060448201527f4e465400000000000000000000000000000000000000000000000000000000006064820152608401610963565b611c6381613459565b600081815261022b60205260409081902090517f544b1d1249133c50ce89743ed1ca34a815bd50d42b71e6d331a1ac560013a8ec91610fbd91339185916147e2565b600081815261022a60209081526040808320805482518185028101850190935280835260609493849084015b82821015611d19576000848152602090819020604080518082019091526002850290910180546001600160a01b03168252600190810154828401529083529092019101611cd1565b5050505090506000815167ffffffffffffffff811115611d4957634e487b7160e01b600052604160045260246000fd5b604051908082528060200260200182016040528015611d72578160200160208202803683370190505b50905060005b825181101561159d57828181518110611da157634e487b7160e01b600052603260045260246000fd5b602002602001015160000151828281518110611dcd57634e487b7160e01b600052603260045260246000fd5b6001600160a01b039092166020928302919091019091015280611def81614a9f565b915050611d78565b6001600160a01b038416611e5b5760405162461bcd60e51b815260206004820152602560248201527f455243313135353a207472616e7366657220746f20746865207a65726f206164604482015264647265737360d81b6064820152608401610963565b6001600160a01b038516331480611e775750611e7785336107ce565b611ed55760405162461bcd60e51b815260206004820152602960248201527f455243313135353a2063616c6c6572206973206e6f74206f776e6572206e6f7260448201526808185c1c1c9bdd995960ba1b6064820152608401610963565b33611ef4818787611ee588613487565b611eee88613487565b87612967565b600084815260c9602090815260408083206001600160a01b038a16845290915290205483811015611f8d5760405162461bcd60e51b815260206004820152602a60248201527f455243313135353a20696e73756666696369656e742062616c616e636520666f60448201527f72207472616e73666572000000000000000000000000000000000000000000006064820152608401610963565b611f9784826149f4565b600086815260c9602090815260408083206001600160a01b038c81168552925280832093909355881681529081208054869290611fd59084906149dc565b909155505060408051868152602081018690526001600160a01b03808916928a821692918616917fc3d58168c5ae7397731d063d5bbf3d657854427343f4c083240f7aacaa2d0f62910160405180910390a46120358288888888886134e0565b50505050505050565b6101f5546001600160a01b031633146120995760405162461bcd60e51b815260206004820181905260248201527f4f776e61626c653a2063616c6c6572206973206e6f7420746865206f776e65726044820152606401610963565b6001600160a01b0381166121155760405162461bcd60e51b815260206004820152602660248201527f4f776e61626c653a206e6577206f776e657220697320746865207a65726f206160448201527f64647265737300000000000000000000000000000000000000000000000000006064820152608401610963565b6101f5546040516001600160a01b038084169216907f8be0079c531659141344cd1fd0a4f28419497f9722a3daafe3b4186f6b6457e090600090a36101f5805473ffffffffffffffffffffffffffffffffffffffff19166001600160a01b0392909216919091179055565b6001600160a01b03831633148061219c575061219c83336107ce565b6121fa5760405162461bcd60e51b815260206004820152602960248201527f455243313135353a2063616c6c6572206973206e6f74206f776e6572206e6f7260448201526808185c1c1c9bdd995960ba1b6064820152608401610963565b6113628383836135eb565b600054610100900460ff168061221e575060005460ff16155b6122815760405162461bcd60e51b815260206004820152602e60248201527f496e697469616c697a61626c653a20636f6e747261637420697320616c72656160448201526d191e481a5b9a5d1a585b1a5e995960921b6064820152608401610963565b600054610100900460ff161580156122a3576000805461ffff19166101011790555b6122ac82613770565b80156122be576000805461ff00191690555b5050565b600081815261022960205260409020805460609190610ca290614a37565b60006001600160e01b031982167fd9b67a2600000000000000000000000000000000000000000000000000000000148061234357506001600160e01b031982167f0e89341c00000000000000000000000000000000000000000000000000000000145b806109a257506109a282613858565b80516122be9060cb906020840190613e30565b60005b81518110156113625760006001600160a01b031682828151811061239c57634e487b7160e01b600052603260045260246000fd5b6020026020010151600001516001600160a01b031614156123ff5760405162461bcd60e51b815260206004820152601b60248201527f526563697069656e742073686f756c642062652070726573656e7400000000006044820152606401610963565b600082828151811061242157634e487b7160e01b600052603260045260246000fd5b602002602001015160200151116124a05760405162461bcd60e51b815260206004820152602260248201527f526f79616c746965732076616c75652073686f756c6420626520706f7369746960448201527f76650000000000000000000000000000000000000000000000000000000000006064820152608401610963565b600083815261022a6020526040902082518390839081106124d157634e487b7160e01b600052603260045260246000fd5b60209081029190910181015182546001808201855560009485528385208351600290930201805473ffffffffffffffffffffffffffffffffffffffff19166001600160a01b039093169290921782559190920151910155825167ffffffffffffffff81111561255057634e487b7160e01b600052604160045260246000fd5b604051908082528060200260200182016040528015612579578160200160208202803683370190505b5090506000835167ffffffffffffffff8111156125a657634e487b7160e01b600052604160045260246000fd5b6040519080825280602002602001820160405280156125cf578160200160208202803683370190505b5090507f0daca41cf9c4835da0ce078144fcf7e2000a66f040f7e82fe43f4e5d234bb6bb85838360405161260593929190614942565b60405180910390a15050808061261a90614a9f565b915050612368565b600082815261022960209081526040909120825161264292840190613e30565b507f701be7c18389620e1de28c2c2c047271c46744dea76cb7667f428af200ef4dde8282604051610fbd92919061499f565b600082815261022b60209081526040909120825161136292840190613e30565b61022e54156127155761022e5434146127155760405162461bcd60e51b815260206004820152603160248201527f57726f6e6720666565732076616c75652073656e7420746f2047686f73744d7260448201527f6b657420666f72206d696e7420666565730000000000000000000000000000006064820152608401610963565b341561142d573461022d600082825461272e91906149dc565b9091555050604080513381523460208201527f86fd2931c72e6506df6648fdf34478f061d20ac75b5a331312bc3a65b86d829a91015b60405180910390a1565b6001600160a01b0384166127ce5760405162461bcd60e51b815260206004820152602160248201527f455243313135353a206d696e7420746f20746865207a65726f206164647265736044820152607360f81b6064820152608401610963565b81518351146128305760405162461bcd60e51b815260206004820152602860248201527f455243313135353a2069647320616e6420616d6f756e7473206c656e677468206044820152670dad2e6dac2e8c6d60c31b6064820152608401610963565b3361284081600087878787612967565b60005b84518110156128f85783818151811061286c57634e487b7160e01b600052603260045260246000fd5b602002602001015160c9600087848151811061289857634e487b7160e01b600052603260045260246000fd5b602002602001015181526020019081526020016000206000886001600160a01b03166001600160a01b0316815260200190815260200160002060008282546128e091906149dc565b909155508190506128f081614a9f565b915050612843565b50846001600160a01b031660006001600160a01b0316826001600160a01b03167f4a39dc06d4c0dbc64b70af90fd698a233a518aa5d07e595d983b8c0526c8f7fb8787604051612949929190614901565b60405180910390a461296081600087878787612975565b5050505050565b611338868686868686613896565b6001600160a01b0384163b156113385760405163bc197c8160e01b81526001600160a01b0385169063bc197c81906129b99089908990889088908890600401614708565b602060405180830381600087803b1580156129d357600080fd5b505af1925050508015612a03575060408051601f3d908101601f19168201909252612a00918101906145b5565b60015b612ab957612a0f614ae6565b806308c379a01415612a495750612a24614afd565b80612a2f5750612a4b565b8060405162461bcd60e51b8152600401610963919061492f565b505b60405162461bcd60e51b815260206004820152603460248201527f455243313135353a207472616e7366657220746f206e6f6e204552433131353560448201527f526563656976657220696d706c656d656e7465720000000000000000000000006064820152608401610963565b6001600160e01b0319811663bc197c8160e01b146120355760405162461bcd60e51b815260206004820152602860248201527f455243313135353a204552433131353552656365697665722072656a656374656044820152676420746f6b656e7360c01b6064820152608401610963565b600082815260656020526040902060010154612b47905b336105f2565b612bb95760405162461bcd60e51b815260206004820152602f60248201527f416363657373436f6e74726f6c3a2073656e646572206d75737420626520616e60448201527f2061646d696e20746f206772616e7400000000000000000000000000000000006064820152608401610963565b6122be8282613910565b60006117b7836001600160a01b0384166139b2565b6001600160a01b0381163314612c565760405162461bcd60e51b815260206004820152602f60248201527f416363657373436f6e74726f6c3a2063616e206f6e6c792072656e6f756e636560448201527f20726f6c657320666f722073656c6600000000000000000000000000000000006064820152608401610963565b6122be8282613a01565b60006117b7836001600160a01b038416613a84565b61012d5460ff16612cc85760405162461bcd60e51b815260206004820152601460248201527f5061757361626c653a206e6f74207061757365640000000000000000000000006044820152606401610963565b61012d805460ff191690557f5db9ee0a495bf2e6ff9c91a7834c1ba4fdd244a5e8aa4e537bd38aeae4b073aa335b6040516001600160a01b039091168152602001612764565b6001600160a01b038316612d705760405162461bcd60e51b815260206004820152602360248201527f455243313135353a206275726e2066726f6d20746865207a65726f206164647260448201526265737360e81b6064820152608401610963565b8051825114612dd25760405162461bcd60e51b815260206004820152602860248201527f455243313135353a2069647320616e6420616d6f756e7473206c656e677468206044820152670dad2e6dac2e8c6d60c31b6064820152608401610963565b6000339050612df581856000868660405180602001604052806000815250612967565b60005b8351811015612f22576000848281518110612e2357634e487b7160e01b600052603260045260246000fd5b602002602001015190506000848381518110612e4f57634e487b7160e01b600052603260045260246000fd5b602090810291909101810151600084815260c9835260408082206001600160a01b038c168352909352919091205490915081811015612edc5760405162461bcd60e51b8152602060048201526024808201527f455243313135353a206275726e20616d6f756e7420657863656564732062616c604482015263616e636560e01b6064820152608401610963565b612ee682826149f4565b600093845260c9602090815260408086206001600160a01b038c1687529091529093209290925550819050612f1a81614a9f565b915050612df8565b5060006001600160a01b0316846001600160a01b0316826001600160a01b03167f4a39dc06d4c0dbc64b70af90fd698a233a518aa5d07e595d983b8c0526c8f7fb8686604051612f73929190614901565b60405180910390a450505050565b6001600160a01b038416612fe15760405162461bcd60e51b815260206004820152602160248201527f455243313135353a206d696e7420746f20746865207a65726f206164647265736044820152607360f81b6064820152608401610963565b33612ff281600087611ee588613487565b600084815260c9602090815260408083206001600160a01b0389168452909152812080548592906130249084906149dc565b909155505060408051858152602081018590526001600160a01b0380881692600092918516917fc3d58168c5ae7397731d063d5bbf3d657854427343f4c083240f7aacaa2d0f62910160405180910390a4612960816000878787876134e0565b61012d5460ff16156130d85760405162461bcd60e51b815260206004820152601060248201527f5061757361626c653a20706175736564000000000000000000000000000000006044820152606401610963565b61012d805460ff191660011790557f62e78cea01bee320cd4e420270b5ea74000d11b0c9f74754ebdbfc544b05a258612cf63390565b60006117b78383613ba1565b600054610100900460ff1680613133575060005460ff16155b6131965760405162461bcd60e51b815260206004820152602e60248201527f496e697469616c697a61626c653a20636f6e747261637420697320616c72656160448201526d191e481a5b9a5d1a585b1a5e995960921b6064820152608401610963565b600054610100900460ff161580156131b8576000805461ffff19166101011790555b6122ac82612352565b600054610100900460ff16806131da575060005460ff16155b61323d5760405162461bcd60e51b815260206004820152602e60248201527f496e697469616c697a61626c653a20636f6e747261637420697320616c72656160448201526d191e481a5b9a5d1a585b1a5e995960921b6064820152608401610963565b600054610100900460ff1615801561325f576000805461ffff19166101011790555b61326b6000335b613c50565b6132957f9f2df0fed2c77648de5860a4cc508cd0818c85b8b8a1ab4ceeef8d981c8956a633613266565b6122ac7f65d7a28e3265b37a6474929f336521b332c1681b933f6cb9f3376673440d862a33613266565b600054610100900460ff16806132d8575060005460ff16155b61333b5760405162461bcd60e51b815260206004820152602e60248201527f496e697469616c697a61626c653a20636f6e747261637420697320616c72656160448201526d191e481a5b9a5d1a585b1a5e995960921b6064820152608401610963565b600054610100900460ff1615801561335d576000805461ffff19166101011790555b6101f5805473ffffffffffffffffffffffffffffffffffffffff19163390811790915560405181906000907f8be0079c531659141344cd1fd0a4f28419497f9722a3daafe3b4186f6b6457e0908290a3508015610a30576000805461ff001916905550565b60006109a2825490565b6000828152606560205260409020600101546133e790612b41565b612c565760405162461bcd60e51b815260206004820152603060248201527f416363657373436f6e74726f6c3a2073656e646572206d75737420626520616e60448201527f2061646d696e20746f207265766f6b65000000000000000000000000000000006064820152608401610963565b600081815261022c60205260409020546134749060016149dc565b600091825261022c602052604090912055565b604080516001808252818301909252606091600091906020808301908036833701905050905082816000815181106134cf57634e487b7160e01b600052603260045260246000fd5b602090810291909101015292915050565b6001600160a01b0384163b156113385760405163f23a6e6160e01b81526001600160a01b0385169063f23a6e61906135249089908990889088908890600401614766565b602060405180830381600087803b15801561353e57600080fd5b505af192505050801561356e575060408051601f3d908101601f1916820190925261356b918101906145b5565b60015b61357a57612a0f614ae6565b6001600160e01b0319811663f23a6e6160e01b146120355760405162461bcd60e51b815260206004820152602860248201527f455243313135353a204552433131353552656365697665722072656a656374656044820152676420746f6b656e7360c01b6064820152608401610963565b6001600160a01b03831661364d5760405162461bcd60e51b815260206004820152602360248201527f455243313135353a206275726e2066726f6d20746865207a65726f206164647260448201526265737360e81b6064820152608401610963565b3361367c8185600061365e87613487565b61366787613487565b60405180602001604052806000815250612967565b600083815260c9602090815260408083206001600160a01b0388168452909152902054828110156136fb5760405162461bcd60e51b8152602060048201526024808201527f455243313135353a206275726e20616d6f756e7420657863656564732062616c604482015263616e636560e01b6064820152608401610963565b61370583826149f4565b600085815260c9602090815260408083206001600160a01b038a811680865291845282852095909555815189815292830188905292938616917fc3d58168c5ae7397731d063d5bbf3d657854427343f4c083240f7aacaa2d0f62910160405180910390a45050505050565b600054610100900460ff1680613789575060005460ff16155b6137ec5760405162461bcd60e51b815260206004820152602e60248201527f496e697469616c697a61626c653a20636f6e747261637420697320616c72656160448201526d191e481a5b9a5d1a585b1a5e995960921b6064820152608401610963565b600054610100900460ff1615801561380e576000805461ffff19166101011790555b613816613c5a565b61381e613c5a565b613826613c5a565b61382e613c5a565b6138378261311a565b61383f613c5a565b613847613d0c565b61384f613c5a565b6122ac826131c1565b60006001600160e01b031982167f5a05180f0000000000000000000000000000000000000000000000000000000014806109a257506109a282613dc9565b61012d5460ff16156113385760405162461bcd60e51b815260206004820152602c60248201527f455243313135355061757361626c653a20746f6b656e207472616e736665722060448201527f7768696c652070617573656400000000000000000000000000000000000000006064820152608401610963565b60008281526065602090815260408083206001600160a01b038516845290915290205460ff166122be5760008281526065602090815260408083206001600160a01b03851684529091529020805460ff1916600117905561396e3390565b6001600160a01b0316816001600160a01b0316837f2f8788117e7eff1d82e926ec794901d17c78024a50270940304540a733656f0d60405160405180910390a45050565b60008181526001830160205260408120546139f957508154600181810184556000848152602080822090930184905584548482528286019093526040902091909155610991565b506000610991565b60008281526065602090815260408083206001600160a01b038516845290915290205460ff16156122be5760008281526065602090815260408083206001600160a01b0385168085529252808320805460ff1916905551339285917ff6391f5c32d9c69d2a47ea670b442974b53935d1edc7fd64eb21e047a839171b9190a45050565b60008181526001830160205260408120548015613b97576000613aa86001836149f4565b8554909150600090613abc906001906149f4565b90506000866000018281548110613ae357634e487b7160e01b600052603260045260246000fd5b9060005260206000200154905080876000018481548110613b1457634e487b7160e01b600052603260045260246000fd5b600091825260209091200155613b2b8360016149dc565b60008281526001890160205260409020558654879080613b5b57634e487b7160e01b600052603160045260246000fd5b60019003818190600052602060002001600090559055866001016000878152602001908152602001600020600090556001945050505050610991565b6000915050610991565b81546000908210613c1a5760405162461bcd60e51b815260206004820152602260248201527f456e756d657261626c655365743a20696e646578206f7574206f6620626f756e60448201527f64730000000000000000000000000000000000000000000000000000000000006064820152608401610963565b826000018281548110613c3d57634e487b7160e01b600052603260045260246000fd5b9060005260206000200154905092915050565b61134a8282612bb9565b600054610100900460ff1680613c73575060005460ff16155b613cd65760405162461bcd60e51b815260206004820152602e60248201527f496e697469616c697a61626c653a20636f6e747261637420697320616c72656160448201526d191e481a5b9a5d1a585b1a5e995960921b6064820152608401610963565b600054610100900460ff16158015613cf8576000805461ffff19166101011790555b8015610a30576000805461ff001916905550565b600054610100900460ff1680613d25575060005460ff16155b613d885760405162461bcd60e51b815260206004820152602e60248201527f496e697469616c697a61626c653a20636f6e747261637420697320616c72656160448201526d191e481a5b9a5d1a585b1a5e995960921b6064820152608401610963565b600054610100900460ff16158015613daa576000805461ffff19166101011790555b61012d805460ff191690558015610a30576000805461ff001916905550565b60006001600160e01b031982167f7965db0b0000000000000000000000000000000000000000000000000000000014806109a257507f01ffc9a7000000000000000000000000000000000000000000000000000000006001600160e01b03198316146109a2565b828054613e3c90614a37565b90600052602060002090601f016020900481019282613e5e5760008555613ea4565b82601f10613e7757805160ff1916838001178555613ea4565b82800160010185558215613ea4579182015b82811115613ea4578251825591602001919060010190613e89565b50613eb0929150613eb4565b5090565b5b80821115613eb05760008155600101613eb5565b80356109a581614b8f565b600082601f830112613ee4578081fd5b81356020613ef1826149b8565b60408051613eff8382614a72565b8481528381019250868401600686901b88018501891015613f1e578687fd5b865b86811015613f695783828b031215613f36578788fd5b8351613f428582614a72565b8235613f4d81614b8f565b8152828701358782015285529385019390830190600101613f20565b509098975050505050505050565b600082601f830112613f87578081fd5b81356020613f94826149b8565b604051613fa18282614a72565b8381528281019150858301600585901b87018401881015613fc0578586fd5b855b85811015613fde57813584529284019290840190600101613fc2565b5090979650505050505050565b600082601f830112613ffb578081fd5b813567ffffffffffffffff81111561401557614015614ad0565b60405161402c601f8301601f191660200182614a72565b818152846020838601011115614040578283fd5b816020850160208301379081016020019190915292915050565b60006020828403121561406b578081fd5b81356117b781614b8f565b60008060408385031215614088578081fd5b823561409381614b8f565b915060208301356140a381614b8f565b809150509250929050565b600080600080600060a086880312156140c5578081fd5b85356140d081614b8f565b945060208601356140e081614b8f565b9350604086013567ffffffffffffffff808211156140fc578283fd5b61410889838a01613f77565b9450606088013591508082111561411d578283fd5b61412989838a01613f77565b9350608088013591508082111561413e578283fd5b5061414b88828901613feb565b9150509295509295909350565b600080600080600060a0868803121561416f578081fd5b853561417a81614b8f565b9450602086013561418a81614b8f565b93506040860135925060608601359150608086013567ffffffffffffffff8111156141b3578182fd5b61414b88828901613feb565b6000806000606084860312156141d3578081fd5b83356141de81614b8f565b9250602084013567ffffffffffffffff808211156141fa578283fd5b61420687838801613f77565b9350604086013591508082111561421b578283fd5b5061422886828701613f77565b9150509250925092565b60008060008060808587031215614247578182fd5b843561425281614b8f565b9350602085013567ffffffffffffffff8082111561426e578384fd5b61427a88838901613f77565b9450604087013591508082111561428f578384fd5b61429b88838901613f77565b935060608701359150808211156142b0578283fd5b506142bd87828801613feb565b91505092959194509250565b600080604083850312156142db578182fd5b82356142e681614b8f565b9150602083013580151581146140a3578182fd5b6000806040838503121561430c578182fd5b823561431781614b8f565b946020939093013593505050565b60008060008060008060c0878903121561433d578384fd5b61434687613ec9565b955060208701359450604087013567ffffffffffffffff80821115614369578586fd5b6143758a838b01613feb565b9550606089013591508082111561438a578283fd5b6143968a838b01613ed4565b945060808901359150808211156143ab578283fd5b6143b78a838b01613feb565b935060a08901359150808211156143cc578283fd5b506143d989828a01613feb565b9150509295509295509295565b6000806000606084860312156143fa578081fd5b833561440581614b8f565b95602085013595506040909401359392505050565b6000806000806080858703121561442f578182fd5b843561443a81614b8f565b93506020850135925060408501359150606085013567ffffffffffffffff811115614463578182fd5b6142bd87828801613feb565b60008060408385031215614481578182fd5b823567ffffffffffffffff80821115614498578384fd5b818501915085601f8301126144ab578384fd5b813560206144b8826149b8565b6040516144c58282614a72565b8381528281019150858301600585901b870184018b10156144e4578889fd5b8896505b8487101561450f5780356144fb81614b8f565b8352600196909601959183019183016144e8565b5096505086013592505080821115614525578283fd5b5061453285828601613f77565b9150509250929050565b60006020828403121561454d578081fd5b5035919050565b60008060408385031215614566578182fd5b8235915060208301356140a381614b8f565b6000806040838503121561458a578182fd5b50508035926020909101359150565b6000602082840312156145aa578081fd5b81356117b781614ba4565b6000602082840312156145c6578081fd5b81516117b781614ba4565b6000602082840312156145e2578081fd5b813567ffffffffffffffff8111156145f8578182fd5b61460484828501613feb565b949350505050565b600080600060608486031215614620578081fd5b833567ffffffffffffffff80821115614637578283fd5b61464387838801613feb565b94506020860135915080821115614658578283fd5b61466487838801613feb565b93506040860135915080821115614679578283fd5b5061422886828701613feb565b6000815180845260208085019450808401835b838110156146b557815187529582019590820190600101614699565b509495945050505050565b600081518084526146d8816020860160208601614a0b565b601f01601f19169290920160200192915050565b600082516146fe818460208701614a0b565b9190910192915050565b60006001600160a01b03808816835280871660208401525060a0604083015261473460a0830186614686565b82810360608401526147468186614686565b9050828103608084015261475a81856146c0565b98975050505050505050565b60006001600160a01b03808816835280871660208401525084604083015283606083015260a0608083015261479e60a08301846146c0565b979650505050505050565b60006001600160a01b0386168252846020830152608060408301526147d160808301856146c0565b905082606083015295945050505050565b60006001600160a01b0385168252602084818401526060604084015281845483600182811c91508083168061481857607f831692505b85831081141561483657634e487b7160e01b87526022600452602487fd5b6060880183905260808801818015614855576001811461486657614890565b60ff19861682528782019650614890565b60008b815260209020895b8681101561488a57815484820152908501908901614871565b83019750505b50949b9a5050505050505050505050565b6020808252825182820181905260009190848201906040850190845b818110156148e25783516001600160a01b0316835292840192918401916001016148bd565b50909695505050505050565b6000602082526117b76020830184614686565b6000604082526149146040830185614686565b82810360208401526149268185614686565b95945050505050565b6000602082526117b760208301846146c0565b60006060820185835260206060818501528186518084526080860191508288019350845b8181101561498b5784516001600160a01b031683529383019391830191600101614966565b5050848103604086015261475a8187614686565b60008382526040602083015261460460408301846146c0565b600067ffffffffffffffff8211156149d2576149d2614ad0565b5060051b60200190565b600082198211156149ef576149ef614aba565b500190565b600082821015614a0657614a06614aba565b500390565b60005b83811015614a26578181015183820152602001614a0e565b83811115610dcf5750506000910152565b600181811c90821680614a4b57607f821691505b60208210811415614a6c57634e487b7160e01b600052602260045260246000fd5b50919050565b601f8201601f1916810167ffffffffffffffff81118282101715614a9857614a98614ad0565b6040525050565b6000600019821415614ab357614ab3614aba565b5060010190565b634e487b7160e01b600052601160045260246000fd5b634e487b7160e01b600052604160045260246000fd5b600060033d1115610c9057600481823e5160e01c90565b600060443d1015614b0d57610c90565b6040516003193d81016004833e81513d67ffffffffffffffff8160248401118184111715614b3f575050505050610c90565b8285019150815181811115614b5957505050505050610c90565b843d8701016020828501011115614b7557505050505050610c90565b614b8460208286010187614a72565b509094505050505090565b6001600160a01b0381168114610a3057600080fd5b6001600160e01b031981168114610a3057600080fdfea2646970667358221220f22062172cc969284603764aa0d7cdbf346aa7066d41940bd249d132879f111364736f6c63430008030033",
  "immutableReferences": {},
  "source": "// SPDX-License-Identifier: MIT\n\npragma solidity ^0.8.3;\n\nimport \"./ERC1155PresetMinterPauserUpgradeableCustom.sol\";\nimport \"@openzeppelin/contracts-upgradeable/utils/CountersUpgradeable.sol\";\nimport \"@openzeppelin/contracts-upgradeable/security/ReentrancyGuardUpgradeable.sol\";\nimport \"@openzeppelin/contracts-upgradeable/access/OwnableUpgradeable.sol\";\n\n/**\n * @dev ERC1155 token with minting, burning, pause, royalties & lock content functions.\n *\n */\n\ncontract GhostmarketERC1155 is Initializable, ERC1155PresetMinterPauserUpgradeable, ReentrancyGuardUpgradeable, OwnableUpgradeable {\n\tstring public name;\n\tstring public symbol;\n\n\t// struct for royalties fees\n\tstruct Royalty {\n\t\taddress payable recipient;\n\t\tuint256 value;\n\t}\n\n\t// tokenId => attributes array\n\tmapping(uint256 => string) internal _metadataJson;\n\n\t// tokenId => royalties array\n\tmapping(uint256 => Royalty[]) internal _royalties;\n\n\t// tokenId => locked content array\n\tmapping(uint256 => string) internal _lockedContent;\n\n\t// tokenId => locked content view counter array\n\tmapping(uint256 => uint256) internal _lockedContentViewTracker;\n\n\t// events\n\tevent RoyaltiesFeesSet(uint256 tokenId, address[] recipients, uint256[] bps);\n\tevent LockedContentViewed(address msgSender, uint256 tokenId, string lockedContent);\n\tevent AttributesSet(uint256 tokenId, string metadataJson);\n\tevent MintFeesWithdrawn(address feeWithdrawer, uint256 withdrawAmount);\n\tevent MintFeesChanged(uint256 newValue);\n\tevent MintFeesPaid(address sender, uint256 value);\n\tevent Minted(address toAddress, uint256 tokenId, string tokenURI, uint256 amount);\n\n\tuint256 internal _payedMintFeesBalance;\n\n\t// minting fee\n\tuint256 internal _ghostmarketMintFees;\n\n\tfunction initialize(\n\t\tstring memory _name,\n\t\tstring memory _symbol,\n\t\tstring memory uri\n\t) public virtual initializer {\n\t\t__ERC1155_init_unchained(uri);\n\t\t__ERC1155PresetMinterPauser_init_unchained(uri);\n\t\t__Ownable_init_unchained();\n\t\tname = _name;\n\t\tsymbol = _symbol;\n\t}\n\n\tusing CountersUpgradeable for CountersUpgradeable.Counter;\n\n\t// _tokenIdTracker to gnerate automated tocken IDs\n\tCountersUpgradeable.Counter private _tokenIdTracker;\n\n\t/**\n\t * @dev set a NFT custom attributes to contract storage\n\t * emits AttributesSet event\n\t */\n\tfunction _setMetadataJson(uint256 tokenId, string memory metadataJson) internal {\n\t\t_metadataJson[tokenId] = metadataJson;\n\t\temit AttributesSet(tokenId, metadataJson);\n\t}\n\n\t/**\n\t * @dev get a NFT custom attributes\n\t */\n\tfunction getMetadataJson(uint256 tokenId) external view returns (string memory) {\n\t\treturn _metadataJson[tokenId];\n\t}\n\n\t/**\n\t * @dev get a NFT royalties recipients\n\t */\n\tfunction getRoyaltiesRecipients(uint256 tokenId) external view returns (address payable[] memory) {\n\t\tRoyalty[] memory royalties = _royalties[tokenId];\n\t\taddress payable[] memory result = new address payable[](royalties.length);\n\t\tfor (uint256 i = 0; i < royalties.length; i++) {\n\t\t\tresult[i] = royalties[i].recipient;\n\t\t}\n\t\treturn result;\n\t}\n\n\t/**\n\t * @dev get a NFT royalties fees\n\t * fee basis points 10000 = 100%\n\t */\n\tfunction getRoyaltiesBps(uint256 tokenId) external view returns (uint256[] memory) {\n\t\tRoyalty[] memory royalties = _royalties[tokenId];\n\t\tuint256[] memory result = new uint256[](royalties.length);\n\t\tfor (uint256 i = 0; i < royalties.length; i++) {\n\t\t\tresult[i] = royalties[i].value;\n\t\t}\n\t\treturn result;\n\t}\n\n\t/**\n\t * @dev set a NFT royalties fees & recipients\n\t * fee basis points 10000 = 100%\n\t * emits RoyaltiesFeesSet event if set\n\t */\n\tfunction _saveRoyalties(uint256 tokenId, Royalty[] memory royalties) internal {\n\t\tfor (uint256 i = 0; i < royalties.length; i++) {\n\t\t\trequire(royalties[i].recipient != address(0x0), \"Recipient should be present\");\n\t\t\trequire(royalties[i].value > 0, \"Royalties value should be positive\");\n\t\t\t_royalties[tokenId].push(royalties[i]);\n\t\t\taddress[] memory recipients = new address[](royalties.length);\n\t\t\tuint256[] memory bps = new uint256[](royalties.length);\n\t\t\temit RoyaltiesFeesSet(tokenId, recipients, bps);\n\t\t}\n\t}\n\n\t/**\n\t * @dev mint NFT, set royalties, set metadata json, set lockedcontent\n\t * emits Minted event\n\t */\n\tfunction mintGhost(\n\t\taddress to,\n\t\tuint256 amount,\n\t\tbytes memory data,\n\t\tRoyalty[] memory royalties,\n\t\tstring memory metadata,\n\t\tstring memory lockedcontent\n\t) public payable nonReentrant {\n\t\tsuper.mint(to, _tokenIdTracker.current(), amount, data);\n\t\t//_setTokenURI(_tokenIdTracker.current(), _tokenIdTracker.current());\n\t\tif (royalties.length > 0) {\n\t\t\t_saveRoyalties(_tokenIdTracker.current(), royalties);\n\t\t}\n\t\tif (keccak256(abi.encodePacked(metadata)) != keccak256(abi.encodePacked(\"\"))) {\n\t\t\t_setMetadataJson(_tokenIdTracker.current(), metadata);\n\t\t}\n\t\tif (keccak256(abi.encodePacked(lockedcontent)) != keccak256(abi.encodePacked(\"\"))) {\n\t\t\t_setLockedContent(_tokenIdTracker.current(), lockedcontent);\n\t\t}\n\t\t_checkMintFees();\n\t\temit Minted(to, _tokenIdTracker.current(), uri(_tokenIdTracker.current()), amount);\n\t\t_tokenIdTracker.increment();\n\t}\n\n\t/**\n\t * @dev check mint fees sent to contract\n\t * emits MintFeesPaid event\n\t */\n\tfunction _checkMintFees() internal {\n\t\tif (_ghostmarketMintFees > 0) {\n\t\t\trequire(msg.value == _ghostmarketMintFees, \"Wrong fees value sent to GhostMrket for mint fees\");\n\t\t}\n\t\tif (msg.value > 0) {\n\t\t\t_payedMintFeesBalance += msg.value;\n\t\t\temit MintFeesPaid(msg.sender, msg.value);\n\t\t}\n\t}\n\n\t/**\n\t * @dev withdraw contract balance\n\t * emits MintFeesWithdrawn\n\t */\n\tfunction withdraw(uint256 withdrawAmount) external onlyOwner {\n\t\trequire(withdrawAmount > 0 && withdrawAmount <= _payedMintFeesBalance, \"Withdraw amount should be greater then 0 and less then contract balance\");\n\t\t_payedMintFeesBalance -= withdrawAmount;\n\t\t(bool success, ) = msg.sender.call{ value: withdrawAmount }(\"\");\n\t\trequire(success, \"Transfer failed.\");\n\t\temit MintFeesWithdrawn(msg.sender, withdrawAmount);\n\t}\n\n\t/**\n\t * @dev sets Ghostmarket mint fees as uint256\n\t * emits MintFeesChanged event\n\t */\n\tfunction setGhostmarketMintFee(uint256 gmmf) external {\n\t\trequire(hasRole(DEFAULT_ADMIN_ROLE, _msgSender()), \"Caller must have admin role to set mint fees\");\n\t\t_ghostmarketMintFees = gmmf;\n\t\temit MintFeesChanged(_ghostmarketMintFees);\n\t}\n\n\t/**\n\t * @return get Ghostmarket mint fees\n\t */\n\tfunction getGhostmarketMintFees() external view returns (uint256) {\n\t\treturn _ghostmarketMintFees;\n\t}\n\n\t/**\n\t * @dev set a NFT locked content as string\n\t */\n\tfunction _setLockedContent(uint256 tokenId, string memory content) internal {\n\t\t_lockedContent[tokenId] = content;\n\t}\n\n\t/**\n\t * @dev get locked content for a NFT\n\t * emits LockedContentViewed event\n\t */\n\tfunction getLockedContent(address from, uint256 tokenId) external {\n\t\trequire(from == _msgSender(), \"Caller must be the owner of the NFT\");\n\t\t_incrementCurrentLockedContentViewTracker(tokenId);\n\t\temit LockedContentViewed(msg.sender, tokenId, _lockedContent[tokenId]);\n\t}\n\n\t/**\n\t * @dev increment a NFT locked content view tracker\n\t */\n\tfunction _incrementCurrentLockedContentViewTracker(uint256 tokenId) internal {\n\t\t_lockedContentViewTracker[tokenId] = _lockedContentViewTracker[tokenId] + 1;\n\t}\n\n\t/**\n\t * @dev get a NFT current locked content view tracker\n\t */\n\tfunction getCurrentLockedContentViewTracker(uint256 tokenId) external view returns (uint256) {\n\t\treturn _lockedContentViewTracker[tokenId];\n\t}\n\n\t/**\n\t * @dev current _tokenIdTracker\n\t */\n\tfunction getCurrentCounter() external view returns (uint256) {\n\t\treturn _tokenIdTracker.current();\n\t}\n\n\t/**\n\t * @dev get last minted token id /  _tokenIdTracker\n\t */\n\tfunction getLastTokenID() external view returns (uint256) {\n\t\tif (_tokenIdTracker.current() == 0) {\n\t\t\treturn _tokenIdTracker.current();\n\t\t} else return _tokenIdTracker.current() - 1;\n\t}\n}\n",
  "sourcePath": "/Users/selimerunkut/dev_freelance/GhostMarketContractBSC/contracts/GhostmarketERC1155.sol",
  "compiler": {
    "name": "solc",
    "version": "0.8.3+commit.8d00100c.Emscripten.clang"
  },
  "schemaVersion": "3.4.1",
  "updatedAt": "2021-05-15T23:39:22.376Z",
  "devdoc": {
    "details": "ERC1155 token with minting, burning, pause, royalties & lock content functions.",
    "kind": "dev",
    "methods": {
      "balanceOf(address,uint256)": {
        "details": "See {IERC1155-balanceOf}. Requirements: - `account` cannot be the zero address."
      },
      "balanceOfBatch(address[],uint256[])": {
        "details": "See {IERC1155-balanceOfBatch}. Requirements: - `accounts` and `ids` must have the same length."
      },
      "getCurrentCounter()": {
        "details": "current _tokenIdTracker"
      },
      "getCurrentLockedContentViewTracker(uint256)": {
        "details": "get a NFT current locked content view tracker"
      },
      "getGhostmarketMintFees()": {
        "returns": {
          "_0": "get Ghostmarket mint fees"
        }
      },
      "getLastTokenID()": {
        "details": "get last minted token id /  _tokenIdTracker"
      },
      "getLockedContent(address,uint256)": {
        "details": "get locked content for a NFT emits LockedContentViewed event"
      },
      "getMetadataJson(uint256)": {
        "details": "get a NFT custom attributes"
      },
      "getRoleAdmin(bytes32)": {
        "details": "Returns the admin role that controls `role`. See {grantRole} and {revokeRole}. To change a role's admin, use {_setRoleAdmin}."
      },
      "getRoleMember(bytes32,uint256)": {
        "details": "Returns one of the accounts that have `role`. `index` must be a value between 0 and {getRoleMemberCount}, non-inclusive. Role bearers are not sorted in any particular way, and their ordering may change at any point. WARNING: When using {getRoleMember} and {getRoleMemberCount}, make sure you perform all queries on the same block. See the following https://forum.openzeppelin.com/t/iterating-over-elements-on-enumerableset-in-openzeppelin-contracts/2296[forum post] for more information."
      },
      "getRoleMemberCount(bytes32)": {
        "details": "Returns the number of accounts that have `role`. Can be used together with {getRoleMember} to enumerate all bearers of a role."
      },
      "getRoyaltiesBps(uint256)": {
        "details": "get a NFT royalties fees fee basis points 10000 = 100%"
      },
      "getRoyaltiesRecipients(uint256)": {
        "details": "get a NFT royalties recipients"
      },
      "grantRole(bytes32,address)": {
        "details": "Overload {grantRole} to track enumerable memberships"
      },
      "hasRole(bytes32,address)": {
        "details": "Returns `true` if `account` has been granted `role`."
      },
      "isApprovedForAll(address,address)": {
        "details": "See {IERC1155-isApprovedForAll}."
      },
      "mint(address,uint256,uint256,bytes)": {
        "details": "Creates `amount` new tokens for `to`, of token type `id`. See {ERC1155-_mint}. Requirements: - the caller must have the `MINTER_ROLE`."
      },
      "mintBatch(address,uint256[],uint256[],bytes)": {
        "details": "xref:ROOT:erc1155.adoc#batch-operations[Batched] variant of {mint}."
      },
      "mintGhost(address,uint256,bytes,(address,uint256)[],string,string)": {
        "details": "mint NFT, set royalties, set metadata json, set lockedcontent emits Minted event"
      },
      "owner()": {
        "details": "Returns the address of the current owner."
      },
      "pause()": {
        "details": "Pauses all token transfers. See {ERC1155Pausable} and {Pausable-_pause}. Requirements: - the caller must have the `PAUSER_ROLE`."
      },
      "paused()": {
        "details": "Returns true if the contract is paused, and false otherwise."
      },
      "renounceOwnership()": {
        "details": "Leaves the contract without owner. It will not be possible to call `onlyOwner` functions anymore. Can only be called by the current owner. NOTE: Renouncing ownership will leave the contract without an owner, thereby removing any functionality that is only available to the owner."
      },
      "renounceRole(bytes32,address)": {
        "details": "Overload {renounceRole} to track enumerable memberships"
      },
      "revokeRole(bytes32,address)": {
        "details": "Overload {revokeRole} to track enumerable memberships"
      },
      "safeBatchTransferFrom(address,address,uint256[],uint256[],bytes)": {
        "details": "See {IERC1155-safeBatchTransferFrom}."
      },
      "safeTransferFrom(address,address,uint256,uint256,bytes)": {
        "details": "See {IERC1155-safeTransferFrom}."
      },
      "setApprovalForAll(address,bool)": {
        "details": "See {IERC1155-setApprovalForAll}."
      },
      "setGhostmarketMintFee(uint256)": {
        "details": "sets Ghostmarket mint fees as uint256 emits MintFeesChanged event"
      },
      "supportsInterface(bytes4)": {
        "details": "See {IERC165-supportsInterface}."
      },
      "transferOwnership(address)": {
        "details": "Transfers ownership of the contract to a new account (`newOwner`). Can only be called by the current owner."
      },
      "unpause()": {
        "details": "Unpauses all token transfers. See {ERC1155Pausable} and {Pausable-_unpause}. Requirements: - the caller must have the `PAUSER_ROLE`."
      },
      "uri(uint256)": {
        "details": "See {IERC1155MetadataURI-uri}. This implementation returns the same URI for *all* token types. It relies on the token type ID substitution mechanism https://eips.ethereum.org/EIPS/eip-1155#metadata[defined in the EIP]. Clients calling this function must replace the `\\{id\\}` substring with the actual token type ID."
      },
      "withdraw(uint256)": {
        "details": "withdraw contract balance emits MintFeesWithdrawn"
      }
    },
    "version": 1
  },
  "userdoc": {
    "kind": "user",
    "methods": {},
    "version": 1
  }
}