{
  "contractName": "GhostmarketERC1155",
  "abi": [
    {
      "anonymous": false,
      "inputs": [
        {
          "indexed": true,
          "internalType": "address",
          "name": "account",
          "type": "address"
        },
        {
          "indexed": true,
          "internalType": "address",
          "name": "operator",
          "type": "address"
        },
        {
          "indexed": false,
          "internalType": "bool",
          "name": "approved",
          "type": "bool"
        }
      ],
      "name": "ApprovalForAll",
      "type": "event"
    },
    {
      "anonymous": false,
      "inputs": [
        {
          "indexed": false,
          "internalType": "address",
          "name": "newValue",
          "type": "address"
        }
      ],
      "name": "GhostmarketFeeAddressChanged",
      "type": "event"
    },
    {
      "anonymous": false,
      "inputs": [
        {
          "indexed": false,
          "internalType": "uint256",
          "name": "newValue",
          "type": "uint256"
        }
      ],
      "name": "GhostmarketFeeMultiplierChanged",
      "type": "event"
    },
    {
      "anonymous": false,
      "inputs": [
        {
          "indexed": false,
          "internalType": "address",
          "name": "sender",
          "type": "address"
        },
        {
          "indexed": false,
          "internalType": "uint256",
          "name": "value",
          "type": "uint256"
        }
      ],
      "name": "GhostmarketFeePaid",
      "type": "event"
    },
    {
      "anonymous": false,
      "inputs": [
        {
          "indexed": false,
          "internalType": "uint256",
          "name": "newValue",
          "type": "uint256"
        }
      ],
      "name": "GhostmarketMintFeeChanged",
      "type": "event"
    },
    {
      "anonymous": false,
      "inputs": [
        {
          "indexed": false,
          "internalType": "address",
          "name": "account",
          "type": "address"
        }
      ],
      "name": "Paused",
      "type": "event"
    },
    {
      "anonymous": false,
      "inputs": [
        {
          "indexed": true,
          "internalType": "bytes32",
          "name": "role",
          "type": "bytes32"
        },
        {
          "indexed": true,
          "internalType": "bytes32",
          "name": "previousAdminRole",
          "type": "bytes32"
        },
        {
          "indexed": true,
          "internalType": "bytes32",
          "name": "newAdminRole",
          "type": "bytes32"
        }
      ],
      "name": "RoleAdminChanged",
      "type": "event"
    },
    {
      "anonymous": false,
      "inputs": [
        {
          "indexed": true,
          "internalType": "bytes32",
          "name": "role",
          "type": "bytes32"
        },
        {
          "indexed": true,
          "internalType": "address",
          "name": "account",
          "type": "address"
        },
        {
          "indexed": true,
          "internalType": "address",
          "name": "sender",
          "type": "address"
        }
      ],
      "name": "RoleGranted",
      "type": "event"
    },
    {
      "anonymous": false,
      "inputs": [
        {
          "indexed": true,
          "internalType": "bytes32",
          "name": "role",
          "type": "bytes32"
        },
        {
          "indexed": true,
          "internalType": "address",
          "name": "account",
          "type": "address"
        },
        {
          "indexed": true,
          "internalType": "address",
          "name": "sender",
          "type": "address"
        }
      ],
      "name": "RoleRevoked",
      "type": "event"
    },
    {
      "anonymous": false,
      "inputs": [
        {
          "indexed": false,
          "internalType": "uint256",
          "name": "tokenId",
          "type": "uint256"
        },
        {
          "indexed": false,
          "internalType": "address",
          "name": "from",
          "type": "address"
        },
        {
          "indexed": false,
          "internalType": "address",
          "name": "to",
          "type": "address"
        }
      ],
      "name": "RoyalitiesAccountChanged",
      "type": "event"
    },
    {
      "anonymous": false,
      "inputs": [
        {
          "indexed": false,
          "internalType": "uint256",
          "name": "tokenId",
          "type": "uint256"
        },
        {
          "indexed": false,
          "internalType": "uint256",
          "name": "value",
          "type": "uint256"
        }
      ],
      "name": "RoyalitiesFeeValueChanged",
      "type": "event"
    },
    {
      "anonymous": false,
      "inputs": [
        {
          "indexed": false,
          "internalType": "uint256",
          "name": "tokenId",
          "type": "uint256"
        },
        {
          "indexed": false,
          "internalType": "address",
          "name": "recipients",
          "type": "address"
        },
        {
          "indexed": false,
          "internalType": "uint256",
          "name": "bps",
          "type": "uint256"
        }
      ],
      "name": "SecondarySaleFees",
      "type": "event"
    },
    {
      "anonymous": false,
      "inputs": [
        {
          "indexed": true,
          "internalType": "address",
          "name": "operator",
          "type": "address"
        },
        {
          "indexed": true,
          "internalType": "address",
          "name": "from",
          "type": "address"
        },
        {
          "indexed": true,
          "internalType": "address",
          "name": "to",
          "type": "address"
        },
        {
          "indexed": false,
          "internalType": "uint256[]",
          "name": "ids",
          "type": "uint256[]"
        },
        {
          "indexed": false,
          "internalType": "uint256[]",
          "name": "values",
          "type": "uint256[]"
        }
      ],
      "name": "TransferBatch",
      "type": "event"
    },
    {
      "anonymous": false,
      "inputs": [
        {
          "indexed": true,
          "internalType": "address",
          "name": "operator",
          "type": "address"
        },
        {
          "indexed": true,
          "internalType": "address",
          "name": "from",
          "type": "address"
        },
        {
          "indexed": true,
          "internalType": "address",
          "name": "to",
          "type": "address"
        },
        {
          "indexed": false,
          "internalType": "uint256",
          "name": "id",
          "type": "uint256"
        },
        {
          "indexed": false,
          "internalType": "uint256",
          "name": "value",
          "type": "uint256"
        }
      ],
      "name": "TransferSingle",
      "type": "event"
    },
    {
      "anonymous": false,
      "inputs": [
        {
          "indexed": false,
          "internalType": "string",
          "name": "value",
          "type": "string"
        },
        {
          "indexed": true,
          "internalType": "uint256",
          "name": "id",
          "type": "uint256"
        }
      ],
      "name": "URI",
      "type": "event"
    },
    {
      "anonymous": false,
      "inputs": [
        {
          "indexed": false,
          "internalType": "address",
          "name": "account",
          "type": "address"
        }
      ],
      "name": "Unpaused",
      "type": "event"
    },
    {
      "inputs": [],
      "name": "DEFAULT_ADMIN_ROLE",
      "outputs": [
        {
          "internalType": "bytes32",
          "name": "",
          "type": "bytes32"
        }
      ],
      "stateMutability": "view",
      "type": "function"
    },
    {
      "inputs": [],
      "name": "MINTER_ROLE",
      "outputs": [
        {
          "internalType": "bytes32",
          "name": "",
          "type": "bytes32"
        }
      ],
      "stateMutability": "view",
      "type": "function"
    },
    {
      "inputs": [],
      "name": "PAUSER_ROLE",
      "outputs": [
        {
          "internalType": "bytes32",
          "name": "",
          "type": "bytes32"
        }
      ],
      "stateMutability": "view",
      "type": "function"
    },
    {
      "inputs": [
        {
          "internalType": "address",
          "name": "account",
          "type": "address"
        },
        {
          "internalType": "uint256",
          "name": "id",
          "type": "uint256"
        }
      ],
      "name": "balanceOf",
      "outputs": [
        {
          "internalType": "uint256",
          "name": "",
          "type": "uint256"
        }
      ],
      "stateMutability": "view",
      "type": "function"
    },
    {
      "inputs": [
        {
          "internalType": "address[]",
          "name": "accounts",
          "type": "address[]"
        },
        {
          "internalType": "uint256[]",
          "name": "ids",
          "type": "uint256[]"
        }
      ],
      "name": "balanceOfBatch",
      "outputs": [
        {
          "internalType": "uint256[]",
          "name": "",
          "type": "uint256[]"
        }
      ],
      "stateMutability": "view",
      "type": "function"
    },
    {
      "inputs": [
        {
          "internalType": "address",
          "name": "account",
          "type": "address"
        },
        {
          "internalType": "uint256",
          "name": "id",
          "type": "uint256"
        },
        {
          "internalType": "uint256",
          "name": "value",
          "type": "uint256"
        }
      ],
      "name": "burn",
      "outputs": [],
      "stateMutability": "nonpayable",
      "type": "function"
    },
    {
      "inputs": [
        {
          "internalType": "address",
          "name": "account",
          "type": "address"
        },
        {
          "internalType": "uint256[]",
          "name": "ids",
          "type": "uint256[]"
        },
        {
          "internalType": "uint256[]",
          "name": "values",
          "type": "uint256[]"
        }
      ],
      "name": "burnBatch",
      "outputs": [],
      "stateMutability": "nonpayable",
      "type": "function"
    },
    {
      "inputs": [
        {
          "internalType": "uint256",
          "name": "",
          "type": "uint256"
        },
        {
          "internalType": "uint256",
          "name": "",
          "type": "uint256"
        }
      ],
      "name": "fees",
      "outputs": [
        {
          "internalType": "address payable",
          "name": "recipient",
          "type": "address"
        },
        {
          "internalType": "uint256",
          "name": "value",
          "type": "uint256"
        }
      ],
      "stateMutability": "view",
      "type": "function"
    },
    {
      "inputs": [
        {
          "internalType": "bytes32",
          "name": "role",
          "type": "bytes32"
        }
      ],
      "name": "getRoleAdmin",
      "outputs": [
        {
          "internalType": "bytes32",
          "name": "",
          "type": "bytes32"
        }
      ],
      "stateMutability": "view",
      "type": "function"
    },
    {
      "inputs": [
        {
          "internalType": "bytes32",
          "name": "role",
          "type": "bytes32"
        },
        {
          "internalType": "uint256",
          "name": "index",
          "type": "uint256"
        }
      ],
      "name": "getRoleMember",
      "outputs": [
        {
          "internalType": "address",
          "name": "",
          "type": "address"
        }
      ],
      "stateMutability": "view",
      "type": "function"
    },
    {
      "inputs": [
        {
          "internalType": "bytes32",
          "name": "role",
          "type": "bytes32"
        }
      ],
      "name": "getRoleMemberCount",
      "outputs": [
        {
          "internalType": "uint256",
          "name": "",
          "type": "uint256"
        }
      ],
      "stateMutability": "view",
      "type": "function"
    },
    {
      "inputs": [
        {
          "internalType": "bytes32",
          "name": "role",
          "type": "bytes32"
        },
        {
          "internalType": "address",
          "name": "account",
          "type": "address"
        }
      ],
      "name": "grantRole",
      "outputs": [],
      "stateMutability": "nonpayable",
      "type": "function"
    },
    {
      "inputs": [
        {
          "internalType": "bytes32",
          "name": "role",
          "type": "bytes32"
        },
        {
          "internalType": "address",
          "name": "account",
          "type": "address"
        }
      ],
      "name": "hasRole",
      "outputs": [
        {
          "internalType": "bool",
          "name": "",
          "type": "bool"
        }
      ],
      "stateMutability": "view",
      "type": "function"
    },
    {
      "inputs": [
        {
          "internalType": "address",
          "name": "account",
          "type": "address"
        },
        {
          "internalType": "address",
          "name": "operator",
          "type": "address"
        }
      ],
      "name": "isApprovedForAll",
      "outputs": [
        {
          "internalType": "bool",
          "name": "",
          "type": "bool"
        }
      ],
      "stateMutability": "view",
      "type": "function"
    },
    {
      "inputs": [],
      "name": "name",
      "outputs": [
        {
          "internalType": "string",
          "name": "",
          "type": "string"
        }
      ],
      "stateMutability": "view",
      "type": "function"
    },
    {
      "inputs": [],
      "name": "pause",
      "outputs": [],
      "stateMutability": "nonpayable",
      "type": "function"
    },
    {
      "inputs": [],
      "name": "paused",
      "outputs": [
        {
          "internalType": "bool",
          "name": "",
          "type": "bool"
        }
      ],
      "stateMutability": "view",
      "type": "function"
    },
    {
      "inputs": [
        {
          "internalType": "bytes32",
          "name": "role",
          "type": "bytes32"
        },
        {
          "internalType": "address",
          "name": "account",
          "type": "address"
        }
      ],
      "name": "renounceRole",
      "outputs": [],
      "stateMutability": "nonpayable",
      "type": "function"
    },
    {
      "inputs": [
        {
          "internalType": "bytes32",
          "name": "role",
          "type": "bytes32"
        },
        {
          "internalType": "address",
          "name": "account",
          "type": "address"
        }
      ],
      "name": "revokeRole",
      "outputs": [],
      "stateMutability": "nonpayable",
      "type": "function"
    },
    {
      "inputs": [
        {
          "internalType": "address",
          "name": "from",
          "type": "address"
        },
        {
          "internalType": "address",
          "name": "to",
          "type": "address"
        },
        {
          "internalType": "uint256[]",
          "name": "ids",
          "type": "uint256[]"
        },
        {
          "internalType": "uint256[]",
          "name": "amounts",
          "type": "uint256[]"
        },
        {
          "internalType": "bytes",
          "name": "data",
          "type": "bytes"
        }
      ],
      "name": "safeBatchTransferFrom",
      "outputs": [],
      "stateMutability": "nonpayable",
      "type": "function"
    },
    {
      "inputs": [
        {
          "internalType": "address",
          "name": "from",
          "type": "address"
        },
        {
          "internalType": "address",
          "name": "to",
          "type": "address"
        },
        {
          "internalType": "uint256",
          "name": "id",
          "type": "uint256"
        },
        {
          "internalType": "uint256",
          "name": "amount",
          "type": "uint256"
        },
        {
          "internalType": "bytes",
          "name": "data",
          "type": "bytes"
        }
      ],
      "name": "safeTransferFrom",
      "outputs": [],
      "stateMutability": "nonpayable",
      "type": "function"
    },
    {
      "inputs": [
        {
          "internalType": "address",
          "name": "operator",
          "type": "address"
        },
        {
          "internalType": "bool",
          "name": "approved",
          "type": "bool"
        }
      ],
      "name": "setApprovalForAll",
      "outputs": [],
      "stateMutability": "nonpayable",
      "type": "function"
    },
    {
      "inputs": [
        {
          "internalType": "bytes4",
          "name": "interfaceId",
          "type": "bytes4"
        }
      ],
      "name": "supportsInterface",
      "outputs": [
        {
          "internalType": "bool",
          "name": "",
          "type": "bool"
        }
      ],
      "stateMutability": "view",
      "type": "function"
    },
    {
      "inputs": [],
      "name": "symbol",
      "outputs": [
        {
          "internalType": "string",
          "name": "",
          "type": "string"
        }
      ],
      "stateMutability": "view",
      "type": "function"
    },
    {
      "inputs": [],
      "name": "unpause",
      "outputs": [],
      "stateMutability": "nonpayable",
      "type": "function"
    },
    {
      "inputs": [
        {
          "internalType": "uint256",
          "name": "",
          "type": "uint256"
        }
      ],
      "name": "uri",
      "outputs": [
        {
          "internalType": "string",
          "name": "",
          "type": "string"
        }
      ],
      "stateMutability": "view",
      "type": "function"
    },
    {
      "inputs": [
        {
          "internalType": "string",
          "name": "_name",
          "type": "string"
        },
        {
          "internalType": "string",
          "name": "_symbol",
          "type": "string"
        },
        {
          "internalType": "string",
          "name": "uri",
          "type": "string"
        }
      ],
      "name": "initialize",
      "outputs": [],
      "stateMutability": "nonpayable",
      "type": "function"
    },
    {
      "inputs": [
        {
          "internalType": "string",
          "name": "uri",
          "type": "string"
        }
      ],
      "name": "initialize",
      "outputs": [],
      "stateMutability": "nonpayable",
      "type": "function"
    },
    {
      "inputs": [
        {
          "internalType": "address",
          "name": "to",
          "type": "address"
        },
        {
          "internalType": "uint256",
          "name": "id",
          "type": "uint256"
        },
        {
          "internalType": "uint256",
          "name": "amount",
          "type": "uint256"
        },
        {
          "internalType": "bytes",
          "name": "data",
          "type": "bytes"
        }
      ],
      "name": "mint",
      "outputs": [],
      "stateMutability": "nonpayable",
      "type": "function"
    },
    {
      "inputs": [
        {
          "internalType": "address",
          "name": "to",
          "type": "address"
        },
        {
          "internalType": "uint256",
          "name": "amount",
          "type": "uint256"
        },
        {
          "internalType": "bytes",
          "name": "data",
          "type": "bytes"
        },
        {
          "components": [
            {
              "internalType": "address payable",
              "name": "recipient",
              "type": "address"
            },
            {
              "internalType": "uint256",
              "name": "value",
              "type": "uint256"
            }
          ],
          "internalType": "struct GhostmarketERC1155.Fee[]",
          "name": "_fees",
          "type": "tuple[]"
        }
      ],
      "name": "mint",
      "outputs": [],
      "stateMutability": "payable",
      "type": "function"
    },
    {
      "inputs": [
        {
          "internalType": "address",
          "name": "to",
          "type": "address"
        },
        {
          "internalType": "uint256[]",
          "name": "ids",
          "type": "uint256[]"
        },
        {
          "internalType": "uint256[]",
          "name": "amounts",
          "type": "uint256[]"
        },
        {
          "internalType": "bytes",
          "name": "data",
          "type": "bytes"
        }
      ],
      "name": "mintBatch",
      "outputs": [],
      "stateMutability": "nonpayable",
      "type": "function"
    },
    {
      "inputs": [
        {
          "internalType": "address",
          "name": "to",
          "type": "address"
        },
        {
          "internalType": "uint256[]",
          "name": "mintAmounts",
          "type": "uint256[]"
        },
        {
          "internalType": "bytes",
          "name": "data",
          "type": "bytes"
        },
        {
          "components": [
            {
              "internalType": "address payable",
              "name": "recipient",
              "type": "address"
            },
            {
              "internalType": "uint256",
              "name": "value",
              "type": "uint256"
            }
          ],
          "internalType": "struct GhostmarketERC1155.Fee[]",
          "name": "_fees",
          "type": "tuple[]"
        }
      ],
      "name": "mintBatch",
      "outputs": [],
      "stateMutability": "nonpayable",
      "type": "function"
    },
    {
      "inputs": [],
      "name": "getCurrentCounter",
      "outputs": [
        {
          "internalType": "uint256",
          "name": "",
          "type": "uint256"
        }
      ],
      "stateMutability": "view",
      "type": "function"
    },
    {
      "inputs": [],
      "name": "getLastTokenID",
      "outputs": [
        {
          "internalType": "uint256",
          "name": "",
          "type": "uint256"
        }
      ],
      "stateMutability": "view",
      "type": "function"
    },
    {
      "inputs": [
        {
          "internalType": "uint256",
          "name": "_tokenId",
          "type": "uint256"
        },
        {
          "internalType": "address",
          "name": "_from",
          "type": "address"
        },
        {
          "internalType": "uint256",
          "name": "_value",
          "type": "uint256"
        }
      ],
      "name": "updateRoyalitiesFeeValue",
      "outputs": [],
      "stateMutability": "nonpayable",
      "type": "function"
    },
    {
      "inputs": [
        {
          "internalType": "uint256",
          "name": "_tokenId",
          "type": "uint256"
        },
        {
          "internalType": "address",
          "name": "_from",
          "type": "address"
        },
        {
          "internalType": "address",
          "name": "_to",
          "type": "address"
        }
      ],
      "name": "updateRoyalitiesAccount",
      "outputs": [],
      "stateMutability": "nonpayable",
      "type": "function"
    },
    {
      "inputs": [
        {
          "internalType": "uint256",
          "name": "_tokenId",
          "type": "uint256"
        }
      ],
      "name": "getRoyalitiesRecipients",
      "outputs": [
        {
          "internalType": "address payable[]",
          "name": "",
          "type": "address[]"
        }
      ],
      "stateMutability": "view",
      "type": "function"
    },
    {
      "inputs": [
        {
          "internalType": "uint256",
          "name": "_tokenId",
          "type": "uint256"
        }
      ],
      "name": "getRoyaltyFeeBps",
      "outputs": [
        {
          "internalType": "uint256[]",
          "name": "",
          "type": "uint256[]"
        }
      ],
      "stateMutability": "view",
      "type": "function"
    },
    {
      "inputs": [
        {
          "internalType": "address payable",
          "name": "gmfa",
          "type": "address"
        }
      ],
      "name": "setGhostmarketFeeAddress",
      "outputs": [],
      "stateMutability": "nonpayable",
      "type": "function"
    },
    {
      "inputs": [
        {
          "internalType": "uint256",
          "name": "gmfm",
          "type": "uint256"
        }
      ],
      "name": "setGhostmarketFeeMultiplier",
      "outputs": [],
      "stateMutability": "nonpayable",
      "type": "function"
    },
    {
      "inputs": [
        {
          "internalType": "uint256",
          "name": "gmmf",
          "type": "uint256"
        }
      ],
      "name": "setGhostmarketMintFee",
      "outputs": [],
      "stateMutability": "nonpayable",
      "type": "function"
    },
    {
      "inputs": [],
      "name": "ghostmarketFeeAddress",
      "outputs": [
        {
          "internalType": "address payable",
          "name": "",
          "type": "address"
        }
      ],
      "stateMutability": "view",
      "type": "function"
    },
    {
      "inputs": [],
      "name": "ghostmarketMintingFee",
      "outputs": [
        {
          "internalType": "uint256",
          "name": "",
          "type": "uint256"
        }
      ],
      "stateMutability": "view",
      "type": "function"
    },
    {
      "inputs": [],
      "name": "ghostmarketFeeMultiplier",
      "outputs": [
        {
          "internalType": "uint256",
          "name": "",
          "type": "uint256"
        }
      ],
      "stateMutability": "view",
      "type": "function"
    }
  ],
  "bytecode": "0x608060405234801561001057600080fd5b50614ba9806100206000396000f3fe6080604052600436106102e65760003560e01c80638456cb5911610184578063d547741f116100d6578063e985e9c51161008a578063f62d188811610064578063f62d1888146108a0578063fb3e09af146108c0578063fc24a8a9146108df576102e6565b8063e985e9c514610817578063f242432a14610860578063f5298aca14610880576102e6565b8063dac0f3d9116100bb578063dac0f3d9146107ad578063e38189c9146107cd578063e63ab1e9146107e3576102e6565b8063d547741f1461077a578063d7185d4b1461079a576102e6565b8063a22cb46511610138578063c20b833611610112578063c20b833614610706578063ca15c87314610726578063d539139314610746576102e6565b8063a22cb465146106a6578063a2bc0aa5146106c6578063a6487c53146106e6576102e6565b806391d148541161016957806391d148541461063657806395d89b411461067c578063a217fddf14610691576102e6565b80638456cb59146105e95780639010d07c146105fe576102e6565b80633f4ba83a1161023d5780635e00343f116101f15780636b20c454116101cb5780636b20c45414610594578063731133e9146105b457806373448c46146105d4576102e6565b80635e00343f1461051f5780636213801f1461053f5780636308f1cd14610555576102e6565b80634e1273f4116102225780634e1273f4146104b9578063522e7944146104e65780635c975abb14610506576102e6565b80633f4ba83a14610484578063416c3fd314610499576102e6565b80631f7fdffa1161029f5780632f2ff15d116102795780632f2ff15d1461041757806336568abe1461043757806339efa1a114610457576102e6565b80631f7fdffa146103a5578063248a9ca3146103c75780632eb2c2d6146103f7576102e6565b806306fdde03116102d057806306fdde031461034e5780630e094137146103705780630e89341c14610385576102e6565b8062fdd58e146102eb57806301ffc9a71461031e575b600080fd5b3480156102f757600080fd5b5061030b610306366004614411565b6108ff565b6040519081526020015b60405180910390f35b34801561032a57600080fd5b5061033e610339366004614632565b6109ad565b6040519015158152602001610315565b34801561035a57600080fd5b506103636109b8565b604051610315919061494b565b34801561037c57600080fd5b5061030b610a47565b34801561039157600080fd5b506103636103a03660046145d5565b610a7c565b3480156103b157600080fd5b506103c56103c03660046142be565b610b10565b005b3480156103d357600080fd5b5061030b6103e23660046145d5565b60009081526065602052604090206001015490565b34801561040357600080fd5b506103c561041236600461413a565b610bbe565b34801561042357600080fd5b506103c56104323660046145ed565b610f35565b34801561044357600080fd5b506103c56104523660046145ed565b610f5c565b34801561046357600080fd5b506104776104723660046145d5565b610f7e565b60405161031591906148bd565b34801561049057600080fd5b506103c56110d8565b3480156104a557600080fd5b506103c56104b436600461471f565b61117e565b3480156104c557600080fd5b506104d96104d4366004614508565b611359565b604051610315919061490a565b3480156104f257600080fd5b506103c5610501366004614355565b6114c7565b34801561051257600080fd5b5061012d5460ff1661033e565b34801561052b57600080fd5b506103c561053a366004614760565b6115fc565b34801561054b57600080fd5b506101f85461030b565b34801561056157600080fd5b50610575610570366004614611565b611866565b604080516001600160a01b039093168352602083019190915201610315565b3480156105a057600080fd5b506103c56105af36600461424b565b6118ad565b3480156105c057600080fd5b506103c56105cf3660046144b3565b611932565b3480156105e057600080fd5b5061030b6119da565b3480156105f557600080fd5b506103c56119eb565b34801561060a57600080fd5b5061061e610619366004614611565b611a8f565b6040516001600160a01b039091168152602001610315565b34801561064257600080fd5b5061033e6106513660046145ed565b60009182526065602090815260408084206001600160a01b0393909316845291905290205460ff1690565b34801561068857600080fd5b50610363611aae565b34801561069d57600080fd5b5061030b600081565b3480156106b257600080fd5b506103c56106c13660046143e0565b611abc565b3480156106d257600080fd5b506104d96106e13660046145d5565b611bb4565b3480156106f257600080fd5b506103c56107013660046146a5565b611cf9565b34801561071257600080fd5b506103c56107213660046145d5565b611dea565b34801561073257600080fd5b5061030b6107413660046145d5565b611ea4565b34801561075257600080fd5b5061030b7f9f2df0fed2c77648de5860a4cc508cd0818c85b8b8a1ab4ceeef8d981c8956a681565b34801561078657600080fd5b506103c56107953660046145ed565b611ebb565b6103c56107a836600461443c565b611ec5565b3480156107b957600080fd5b506103c56107c83660046145d5565b612076565b3480156107d957600080fd5b506101f75461030b565b3480156107ef57600080fd5b5061030b7f65d7a28e3265b37a6474929f336521b332c1681b933f6cb9f3376673440d862a81565b34801561082357600080fd5b5061033e610832366004614102565b6001600160a01b03918216600090815260ca6020908152604080832093909416825291909152205460ff1690565b34801561086c57600080fd5b506103c561087b3660046141e4565b612129565b34801561088c57600080fd5b506103c561089b36600461447f565b612370565b3480156108ac57600080fd5b506103c56108bb36600461466a565b6123f5565b3480156108cc57600080fd5b506101f9546001600160a01b031661061e565b3480156108eb57600080fd5b506103c56108fa3660046140e6565b6124b2565b60006001600160a01b0383166109825760405162461bcd60e51b815260206004820152602b60248201527f455243313135353a2062616c616e636520717565727920666f7220746865207a60448201527f65726f206164647265737300000000000000000000000000000000000000000060648201526084015b60405180910390fd5b50600081815260c9602090815260408083206001600160a01b03861684529091529020545b92915050565b60006109a78261258b565b6101f580546109c6906149f0565b80601f01602080910402602001604051908101604052809291908181526020018280546109f2906149f0565b8015610a3f5780601f10610a1457610100808354040283529160200191610a3f565b820191906000526020600020905b815481529060010190602001808311610a2257829003601f168201915b505050505081565b6000610a536101fb5490565b610a63576101fb545b9050610a79565b6001610a6f6101fb5490565b610a5c91906149d9565b90565b606060cb8054610a8b906149f0565b80601f0160208091040260200160405190810160405280929190818152602001828054610ab7906149f0565b8015610b045780601f10610ad957610100808354040283529160200191610b04565b820191906000526020600020905b815481529060010190602001808311610ae757829003601f168201915b50505050509050919050565b610b3a7f9f2df0fed2c77648de5860a4cc508cd0818c85b8b8a1ab4ceeef8d981c8956a633610651565b610bac5760405162461bcd60e51b815260206004820152603860248201527f455243313135355072657365744d696e7465725061757365723a206d7573742060448201527f68617665206d696e74657220726f6c6520746f206d696e7400000000000000006064820152608401610979565b610bb8848484846125fd565b50505050565b8151835114610c205760405162461bcd60e51b815260206004820152602860248201527f455243313135353a2069647320616e6420616d6f756e7473206c656e677468206044820152670dad2e6dac2e8c6d60c31b6064820152608401610979565b6001600160a01b038416610c845760405162461bcd60e51b815260206004820152602560248201527f455243313135353a207472616e7366657220746f20746865207a65726f206164604482015264647265737360d81b6064820152608401610979565b6001600160a01b038516331480610ca05750610ca08533610832565b610d125760405162461bcd60e51b815260206004820152603260248201527f455243313135353a207472616e736665722063616c6c6572206973206e6f742060448201527f6f776e6572206e6f7220617070726f76656400000000000000000000000000006064820152608401610979565b33610d218187878787876127ef565b60005b8451811015610ec7576000858281518110610d4f57634e487b7160e01b600052603260045260246000fd5b602002602001015190506000858381518110610d7b57634e487b7160e01b600052603260045260246000fd5b602090810291909101810151600084815260c9835260408082206001600160a01b038e168352909352919091205490915081811015610e225760405162461bcd60e51b815260206004820152602a60248201527f455243313135353a20696e73756666696369656e742062616c616e636520666f60448201527f72207472616e73666572000000000000000000000000000000000000000000006064820152608401610979565b610e2c82826149d9565b60c9600085815260200190815260200160002060008c6001600160a01b03166001600160a01b03168152602001908152602001600020819055508160c9600085815260200190815260200160002060008b6001600160a01b03166001600160a01b031681526020019081526020016000206000828254610eac9190614982565b9250508190555050505080610ec090614a58565b9050610d24565b50846001600160a01b0316866001600160a01b0316826001600160a01b03167f4a39dc06d4c0dbc64b70af90fd698a233a518aa5d07e595d983b8c0526c8f7fb8787604051610f1792919061491d565b60405180910390a4610f2d8187878787876127fd565b505050505050565b610f3f82826129b2565b6000828152609760205260409020610f579082612a4b565b505050565b610f668282612a60565b6000828152609760205260409020610f579082612ae8565b60008181526101fa60209081526040808320805482518185028101850190935280835260609493849084015b82821015610ff2576000848152602090819020604080518082019091526002850290910180546001600160a01b03168252600190810154828401529083529092019101610faa565b5050505090506000815167ffffffffffffffff81111561102257634e487b7160e01b600052604160045260246000fd5b60405190808252806020026020018201604052801561104b578160200160208202803683370190505b50905060005b82518110156110d05782818151811061107a57634e487b7160e01b600052603260045260246000fd5b6020026020010151600001518282815181106110a657634e487b7160e01b600052603260045260246000fd5b6001600160a01b0390921660209283029190910190910152806110c881614a58565b915050611051565b509392505050565b6111027f65d7a28e3265b37a6474929f336521b332c1681b933f6cb9f3376673440d862a33610651565b6111745760405162461bcd60e51b815260206004820152603b60248201527f455243313135355072657365744d696e7465725061757365723a206d7573742060448201527f686176652070617573657220726f6c6520746f20756e706175736500000000006064820152608401610979565b61117c612afd565b565b6111a87f9f2df0fed2c77648de5860a4cc508cd0818c85b8b8a1ab4ceeef8d981c8956a633610651565b61121a5760405162461bcd60e51b815260206004820152603660248201527f7570646174696e672066656520726563657069656e7473206973206e6f74206160448201527f6c6c6f7765642062792074686973206163636f756e74000000000000000000006064820152608401610979565b60008381526101fa6020526040812054905b818110156113525760008581526101fa6020526040902080546001600160a01b03861691908390811061126f57634e487b7160e01b600052603260045260246000fd5b60009182526020909120600290910201546001600160a01b031614156113405760008581526101fa602052604090208054849190839081106112c157634e487b7160e01b600052603260045260246000fd5b600091825260209182902060029190910201805473ffffffffffffffffffffffffffffffffffffffff19166001600160a01b0393841617905560408051888152878416928101929092529185168183015290517f87e1b636c0ca6544cbedd93f25985172e791de15456f40dd4504361c5e278592916060908290030190a15b8061134a81614a58565b91505061122c565b5050505050565b606081518351146113d25760405162461bcd60e51b815260206004820152602960248201527f455243313135353a206163636f756e747320616e6420696473206c656e67746860448201527f206d69736d6174636800000000000000000000000000000000000000000000006064820152608401610979565b6000835167ffffffffffffffff8111156113fc57634e487b7160e01b600052604160045260246000fd5b604051908082528060200260200182016040528015611425578160200160208202803683370190505b50905060005b84518110156110d05761148c85828151811061145757634e487b7160e01b600052603260045260246000fd5b602002602001015185838151811061147f57634e487b7160e01b600052603260045260246000fd5b60200260200101516108ff565b8282815181106114ac57634e487b7160e01b600052603260045260246000fd5b60209081029190910101526114c081614a58565b905061142b565b60006114d38451612b9b565b90506114e185828686610b10565b815115611352578351825111156115865760405162461bcd60e51b815260206004820152604a60248201527f46656573206172726179206c656e6768742073686f756c64206265206c65737360448201527f207468616e206f7220657175616c20746f206d696e74416d6f756e747320617260648201527f726179206c656e67687400000000000000000000000000000000000000000000608482015260a401610979565b60005b8251811015610f2d576115ea8282815181106115b557634e487b7160e01b600052603260045260246000fd5b60200260200101518483815181106115dd57634e487b7160e01b600052603260045260246000fd5b6020026020010151612c59565b806115f481614a58565b915050611589565b6116267f9f2df0fed2c77648de5860a4cc508cd0818c85b8b8a1ab4ceeef8d981c8956a633610651565b6116985760405162461bcd60e51b815260206004820152603160248201527f7570646174696e67206665652076616c7565206973206e6f7420616c6c6f776560448201527f642062792074686973206163636f756e740000000000000000000000000000006064820152608401610979565b600081116116e85760405162461bcd60e51b815260206004820181905260248201527f6e6577204665652076616c75652073686f756c6420626520706f7369746976656044820152606401610979565b60008381526101fa6020908152604080832080548251818502810185019093528083529192909190849084015b8282101561175d576000848152602090819020604080518082019091526002850290910180546001600160a01b03168252600190810154828401529083529092019101611715565b50505050905060005b81518110156113525760008581526101fa6020526040902080546001600160a01b0386169190839081106117aa57634e487b7160e01b600052603260045260246000fd5b60009182526020909120600290910201546001600160a01b031614156118545760008581526101fa602052604090208054849190839081106117fc57634e487b7160e01b600052603260045260246000fd5b9060005260206000209060020201600101819055507f4ed8464787ca62ab8d06f018c64277a4e5619281bca1d06fd79f6318f5854c3e858460405161184b929190918252602082015260400190565b60405180910390a15b8061185e81614a58565b915050611766565b6101fa602052816000526040600020818154811061188357600080fd5b6000918252602090912060029091020180546001909101546001600160a01b039091169250905082565b6001600160a01b0383163314806118c957506118c98333610832565b6119275760405162461bcd60e51b815260206004820152602960248201527f455243313135353a2063616c6c6572206973206e6f74206f776e6572206e6f7260448201526808185c1c1c9bdd995960ba1b6064820152608401610979565b610f57838383612db1565b61195c7f9f2df0fed2c77648de5860a4cc508cd0818c85b8b8a1ab4ceeef8d981c8956a633610651565b6119ce5760405162461bcd60e51b815260206004820152603860248201527f455243313135355072657365744d696e7465725061757365723a206d7573742060448201527f68617665206d696e74657220726f6c6520746f206d696e7400000000000000006064820152608401610979565b610bb884848484613024565b60006119e66101fb5490565b905090565b611a157f65d7a28e3265b37a6474929f336521b332c1681b933f6cb9f3376673440d862a33610651565b611a875760405162461bcd60e51b815260206004820152603960248201527f455243313135355072657365744d696e7465725061757365723a206d7573742060448201527f686176652070617573657220726f6c6520746f207061757365000000000000006064820152608401610979565b61117c613127565b6000828152609760205260408120611aa790836131b1565b9392505050565b6101f680546109c6906149f0565b336001600160a01b0383161415611b3b5760405162461bcd60e51b815260206004820152602960248201527f455243313135353a2073657474696e6720617070726f76616c2073746174757360448201527f20666f722073656c6600000000000000000000000000000000000000000000006064820152608401610979565b33600081815260ca602090815260408083206001600160a01b0387168085529252909120805460ff1916841515179055906001600160a01b03167f17307eab39ab6107e8899845ad3d59bd9653f200f220920489ca2b5937696c3183604051611ba8911515815260200190565b60405180910390a35050565b60008181526101fa60209081526040808320805482518185028101850190935280835260609493849084015b82821015611c28576000848152602090819020604080518082019091526002850290910180546001600160a01b03168252600190810154828401529083529092019101611be0565b5050505090506000815167ffffffffffffffff811115611c5857634e487b7160e01b600052604160045260246000fd5b604051908082528060200260200182016040528015611c81578160200160208202803683370190505b50905060005b82518110156110d057828181518110611cb057634e487b7160e01b600052603260045260246000fd5b602002602001015160200151828281518110611cdc57634e487b7160e01b600052603260045260246000fd5b602090810291909101015280611cf181614a58565b915050611c87565b600054610100900460ff1680611d12575060005460ff16155b611d755760405162461bcd60e51b815260206004820152602e60248201527f496e697469616c697a61626c653a20636f6e747261637420697320616c72656160448201526d191e481a5b9a5d1a585b1a5e995960921b6064820152608401610979565b600054610100900460ff16158015611d97576000805461ffff19166101011790555b611da0826131bd565b611da982613264565b8351611dbd906101f5906020870190613ec7565b508251611dd2906101f6906020860190613ec7565b508015610bb8576000805461ff001916905550505050565b611df5600033610651565b611e675760405162461bcd60e51b815260206004820152603660248201527f43616c6c6572206d75737420686176652061646d696e20726f6c6520746f207360448201527f6574206d696e74696e67206665652070657263656e74000000000000000000006064820152608401610979565b6101f78190556040518181527f7bc6903b724da310ba4dbf15a52e7ae8597dcbe9763ff4d88e2b197a648b4a31906020015b60405180910390a150565b60008181526097602052604081206109a790613362565b610f66828261336c565b60026101c3541415611f195760405162461bcd60e51b815260206004820152601f60248201527f5265656e7472616e637947756172643a207265656e7472616e742063616c6c006044820152606401610979565b60026101c355611f3484611f2d6101fb5490565b8585611932565b805115611f77578051600114611f4957600080fd5b611f77611f566101fb5490565b826000815181106115dd57634e487b7160e01b600052603260045260246000fd5b611f866101fb80546001019055565b6101f7541561206a576101f9546001600160a01b031661200e5760405162461bcd60e51b815260206004820152602760248201527f47686f73746d61726b6574206d696e74696e672046656520416464726573732060448201527f6e6f7420736574000000000000000000000000000000000000000000000000006064820152608401610979565b60006101f854116120615760405162461bcd60e51b815260206004820152601f60248201527f47686f73746d61726b6574206d696e74696e6720466565206973207a65726f006044820152606401610979565b61206a836133f9565b505060016101c3555050565b612081600033610651565b6120f35760405162461bcd60e51b815260206004820152603660248201527f43616c6c6572206d75737420686176652061646d696e20726f6c6520746f207360448201527f6574206d696e74696e67206665652070657263656e74000000000000000000006064820152608401610979565b6101f88190556040518181527fe28e57f6cdaccbb98c150b646656c0178b4b67253ae73deaba3b9c76525b987e90602001611e99565b6001600160a01b03841661218d5760405162461bcd60e51b815260206004820152602560248201527f455243313135353a207472616e7366657220746f20746865207a65726f206164604482015264647265737360d81b6064820152608401610979565b6001600160a01b0385163314806121a957506121a98533610832565b6122075760405162461bcd60e51b815260206004820152602960248201527f455243313135353a2063616c6c6572206973206e6f74206f776e6572206e6f7260448201526808185c1c1c9bdd995960ba1b6064820152608401610979565b33612226818787612217886134eb565b612220886134eb565b876127ef565b600084815260c9602090815260408083206001600160a01b038a168452909152902054838110156122bf5760405162461bcd60e51b815260206004820152602a60248201527f455243313135353a20696e73756666696369656e742062616c616e636520666f60448201527f72207472616e73666572000000000000000000000000000000000000000000006064820152608401610979565b6122c984826149d9565b600086815260c9602090815260408083206001600160a01b038c81168552925280832093909355881681529081208054869290612307908490614982565b909155505060408051868152602081018690526001600160a01b03808916928a821692918616917fc3d58168c5ae7397731d063d5bbf3d657854427343f4c083240f7aacaa2d0f62910160405180910390a4612367828888888888613544565b50505050505050565b6001600160a01b03831633148061238c575061238c8333610832565b6123ea5760405162461bcd60e51b815260206004820152602960248201527f455243313135353a2063616c6c6572206973206e6f74206f776e6572206e6f7260448201526808185c1c1c9bdd995960ba1b6064820152608401610979565b610f5783838361364f565b600054610100900460ff168061240e575060005460ff16155b6124715760405162461bcd60e51b815260206004820152602e60248201527f496e697469616c697a61626c653a20636f6e747261637420697320616c72656160448201526d191e481a5b9a5d1a585b1a5e995960921b6064820152608401610979565b600054610100900460ff16158015612493576000805461ffff19166101011790555b61249c826137d4565b80156124ae576000805461ff00191690555b5050565b6124bd600033610651565b61252f5760405162461bcd60e51b815260206004820152603660248201527f43616c6c6572206d75737420686176652061646d696e20726f6c6520746f207360448201527f6574206d696e74696e67206665652061646472657373000000000000000000006064820152608401610979565b6101f9805473ffffffffffffffffffffffffffffffffffffffff19166001600160a01b0383169081179091556040519081527f42e58c2251766d60a378c8984cb15020e19218cae37fa9e7556ce617200f685190602001611e99565b60006001600160e01b031982167fd9b67a260000000000000000000000000000000000000000000000000000000014806125ee57506001600160e01b031982167f0e89341c00000000000000000000000000000000000000000000000000000000145b806109a757506109a7826138bc565b6001600160a01b03841661265d5760405162461bcd60e51b815260206004820152602160248201527f455243313135353a206d696e7420746f20746865207a65726f206164647265736044820152607360f81b6064820152608401610979565b81518351146126bf5760405162461bcd60e51b815260206004820152602860248201527f455243313135353a2069647320616e6420616d6f756e7473206c656e677468206044820152670dad2e6dac2e8c6d60c31b6064820152608401610979565b336126cf816000878787876127ef565b60005b8451811015612787578381815181106126fb57634e487b7160e01b600052603260045260246000fd5b602002602001015160c9600087848151811061272757634e487b7160e01b600052603260045260246000fd5b602002602001015181526020019081526020016000206000886001600160a01b03166001600160a01b03168152602001908152602001600020600082825461276f9190614982565b9091555081905061277f81614a58565b9150506126d2565b50846001600160a01b031660006001600160a01b0316826001600160a01b03167f4a39dc06d4c0dbc64b70af90fd698a233a518aa5d07e595d983b8c0526c8f7fb87876040516127d892919061491d565b60405180910390a4611352816000878787876127fd565b610f2d8686868686866138fa565b6001600160a01b0384163b15610f2d5760405163bc197c8160e01b81526001600160a01b0385169063bc197c8190612841908990899088908890889060040161481c565b602060405180830381600087803b15801561285b57600080fd5b505af192505050801561288b575060408051601f3d908101601f191682019092526128889181019061464e565b60015b61294157612897614a9f565b806308c379a014156128d157506128ac614ab6565b806128b757506128d3565b8060405162461bcd60e51b8152600401610979919061494b565b505b60405162461bcd60e51b815260206004820152603460248201527f455243313135353a207472616e7366657220746f206e6f6e204552433131353560448201527f526563656976657220696d706c656d656e7465720000000000000000000000006064820152608401610979565b6001600160e01b0319811663bc197c8160e01b146123675760405162461bcd60e51b815260206004820152602860248201527f455243313135353a204552433131353552656365697665722072656a656374656044820152676420746f6b656e7360c01b6064820152608401610979565b6000828152606560205260409020600101546129cf905b33610651565b612a415760405162461bcd60e51b815260206004820152602f60248201527f416363657373436f6e74726f6c3a2073656e646572206d75737420626520616e60448201527f2061646d696e20746f206772616e7400000000000000000000000000000000006064820152608401610979565b6124ae8282613974565b6000611aa7836001600160a01b038416613a16565b6001600160a01b0381163314612ade5760405162461bcd60e51b815260206004820152602f60248201527f416363657373436f6e74726f6c3a2063616e206f6e6c792072656e6f756e636560448201527f20726f6c657320666f722073656c6600000000000000000000000000000000006064820152608401610979565b6124ae8282613a65565b6000611aa7836001600160a01b038416613ae8565b61012d5460ff16612b505760405162461bcd60e51b815260206004820152601460248201527f5061757361626c653a206e6f74207061757365640000000000000000000000006044820152606401610979565b61012d805460ff191690557f5db9ee0a495bf2e6ff9c91a7834c1ba4fdd244a5e8aa4e537bd38aeae4b073aa335b6040516001600160a01b03909116815260200160405180910390a1565b606060008267ffffffffffffffff811115612bc657634e487b7160e01b600052604160045260246000fd5b604051908082528060200260200182016040528015612bef578160200160208202803683370190505b50905060005b83811015612c5257612c056119da565b828281518110612c2557634e487b7160e01b600052603260045260246000fd5b602002602001018181525050612c406101fb80546001019055565b80612c4a81614a58565b915050612bf5565b5092915050565b80516001600160a01b0316612cb05760405162461bcd60e51b815260206004820152601b60248201527f526563697069656e742073686f756c642062652070726573656e7400000000006044820152606401610979565b6000816020015111612d045760405162461bcd60e51b815260206004820152601c60248201527f4665652076616c75652073686f756c6420626520706f736974697665000000006044820152606401610979565b60008281526101fa6020908152604080832080546001818101835591855293839020855160029095020180546001600160a01b03861673ffffffffffffffffffffffffffffffffffffffff19909116178155928501519201829055517ff9e8661d7e25970eeccfde99d05253707d99e0ceb0b9c73f1549374310ec34a592612da5928683526001600160a01b03919091166020830152604082015260600190565b60405180910390a15050565b6001600160a01b038316612e135760405162461bcd60e51b815260206004820152602360248201527f455243313135353a206275726e2066726f6d20746865207a65726f206164647260448201526265737360e81b6064820152608401610979565b8051825114612e755760405162461bcd60e51b815260206004820152602860248201527f455243313135353a2069647320616e6420616d6f756e7473206c656e677468206044820152670dad2e6dac2e8c6d60c31b6064820152608401610979565b6000339050612e98818560008686604051806020016040528060008152506127ef565b60005b8351811015612fc5576000848281518110612ec657634e487b7160e01b600052603260045260246000fd5b602002602001015190506000848381518110612ef257634e487b7160e01b600052603260045260246000fd5b602090810291909101810151600084815260c9835260408082206001600160a01b038c168352909352919091205490915081811015612f7f5760405162461bcd60e51b8152602060048201526024808201527f455243313135353a206275726e20616d6f756e7420657863656564732062616c604482015263616e636560e01b6064820152608401610979565b612f8982826149d9565b600093845260c9602090815260408086206001600160a01b038c1687529091529093209290925550819050612fbd81614a58565b915050612e9b565b5060006001600160a01b0316846001600160a01b0316826001600160a01b03167f4a39dc06d4c0dbc64b70af90fd698a233a518aa5d07e595d983b8c0526c8f7fb868660405161301692919061491d565b60405180910390a450505050565b6001600160a01b0384166130845760405162461bcd60e51b815260206004820152602160248201527f455243313135353a206d696e7420746f20746865207a65726f206164647265736044820152607360f81b6064820152608401610979565b3361309581600087612217886134eb565b600084815260c9602090815260408083206001600160a01b0389168452909152812080548592906130c7908490614982565b909155505060408051858152602081018590526001600160a01b0380881692600092918516917fc3d58168c5ae7397731d063d5bbf3d657854427343f4c083240f7aacaa2d0f62910160405180910390a461135281600087878787613544565b61012d5460ff161561317b5760405162461bcd60e51b815260206004820152601060248201527f5061757361626c653a20706175736564000000000000000000000000000000006044820152606401610979565b61012d805460ff191660011790557f62e78cea01bee320cd4e420270b5ea74000d11b0c9f74754ebdbfc544b05a258612b7e3390565b6000611aa78383613c05565b600054610100900460ff16806131d6575060005460ff16155b6132395760405162461bcd60e51b815260206004820152602e60248201527f496e697469616c697a61626c653a20636f6e747261637420697320616c72656160448201526d191e481a5b9a5d1a585b1a5e995960921b6064820152608401610979565b600054610100900460ff1615801561325b576000805461ffff19166101011790555b61249c82613cb4565b600054610100900460ff168061327d575060005460ff16155b6132e05760405162461bcd60e51b815260206004820152602e60248201527f496e697469616c697a61626c653a20636f6e747261637420697320616c72656160448201526d191e481a5b9a5d1a585b1a5e995960921b6064820152608401610979565b600054610100900460ff16158015613302576000805461ffff19166101011790555b61330e6000335b613cc7565b6133387f9f2df0fed2c77648de5860a4cc508cd0818c85b8b8a1ab4ceeef8d981c8956a633613309565b61249c7f65d7a28e3265b37a6474929f336521b332c1681b933f6cb9f3376673440d862a33613309565b60006109a7825490565b600082815260656020526040902060010154613387906129c9565b612ade5760405162461bcd60e51b815260206004820152603060248201527f416363657373436f6e74726f6c3a2073656e646572206d75737420626520616e60448201527f2061646d696e20746f207265766f6b65000000000000000000000000000000006064820152608401610979565b600061340482613cd1565b6101f9546040519192506000916001600160a01b039091169083908381818185875af1925050503d8060008114613457576040519150601f19603f3d011682016040523d82523d6000602084013e61345c565b606091505b50509050806134ad5760405162461bcd60e51b815260206004820152601060248201527f5472616e73666572206661696c65642e000000000000000000000000000000006044820152606401610979565b60408051338152602081018490527ff867832f09d3df16244ef05b595ad6197c4fc2da636495ff70035f1acdf2ba0a910160405180910390a1505050565b6040805160018082528183019092526060916000919060208083019080368337019050509050828160008151811061353357634e487b7160e01b600052603260045260246000fd5b602090810291909101015292915050565b6001600160a01b0384163b15610f2d5760405163f23a6e6160e01b81526001600160a01b0385169063f23a6e6190613588908990899088908890889060040161487a565b602060405180830381600087803b1580156135a257600080fd5b505af19250505080156135d2575060408051601f3d908101601f191682019092526135cf9181019061464e565b60015b6135de57612897614a9f565b6001600160e01b0319811663f23a6e6160e01b146123675760405162461bcd60e51b815260206004820152602860248201527f455243313135353a204552433131353552656365697665722072656a656374656044820152676420746f6b656e7360c01b6064820152608401610979565b6001600160a01b0383166136b15760405162461bcd60e51b815260206004820152602360248201527f455243313135353a206275726e2066726f6d20746865207a65726f206164647260448201526265737360e81b6064820152608401610979565b336136e0818560006136c2876134eb565b6136cb876134eb565b604051806020016040528060008152506127ef565b600083815260c9602090815260408083206001600160a01b03881684529091529020548281101561375f5760405162461bcd60e51b8152602060048201526024808201527f455243313135353a206275726e20616d6f756e7420657863656564732062616c604482015263616e636560e01b6064820152608401610979565b61376983826149d9565b600085815260c9602090815260408083206001600160a01b038a811680865291845282852095909555815189815292830188905292938616917fc3d58168c5ae7397731d063d5bbf3d657854427343f4c083240f7aacaa2d0f62910160405180910390a45050505050565b600054610100900460ff16806137ed575060005460ff16155b6138505760405162461bcd60e51b815260206004820152602e60248201527f496e697469616c697a61626c653a20636f6e747261637420697320616c72656160448201526d191e481a5b9a5d1a585b1a5e995960921b6064820152608401610979565b600054610100900460ff16158015613872576000805461ffff19166101011790555b61387a613cf0565b613882613cf0565b61388a613cf0565b613892613cf0565b61389b826131bd565b6138a3613cf0565b6138ab613da3565b6138b3613cf0565b61249c82613264565b60006001600160e01b031982167f5a05180f0000000000000000000000000000000000000000000000000000000014806109a757506109a782613e60565b61012d5460ff1615610f2d5760405162461bcd60e51b815260206004820152602c60248201527f455243313135355061757361626c653a20746f6b656e207472616e736665722060448201527f7768696c652070617573656400000000000000000000000000000000000000006064820152608401610979565b60008281526065602090815260408083206001600160a01b038516845290915290205460ff166124ae5760008281526065602090815260408083206001600160a01b03851684529091529020805460ff191660011790556139d23390565b6001600160a01b0316816001600160a01b0316837f2f8788117e7eff1d82e926ec794901d17c78024a50270940304540a733656f0d60405160405180910390a45050565b6000818152600183016020526040812054613a5d575081546001818101845560008481526020808220909301849055845484825282860190935260409020919091556109a7565b5060006109a7565b60008281526065602090815260408083206001600160a01b038516845290915290205460ff16156124ae5760008281526065602090815260408083206001600160a01b0385168085529252808320805460ff1916905551339285917ff6391f5c32d9c69d2a47ea670b442974b53935d1edc7fd64eb21e047a839171b9190a45050565b60008181526001830160205260408120548015613bfb576000613b0c6001836149d9565b8554909150600090613b20906001906149d9565b90506000866000018281548110613b4757634e487b7160e01b600052603260045260246000fd5b9060005260206000200154905080876000018481548110613b7857634e487b7160e01b600052603260045260246000fd5b600091825260209091200155613b8f836001614982565b60008281526001890160205260409020558654879080613bbf57634e487b7160e01b600052603160045260246000fd5b600190038181906000526020600020016000905590558660010160008781526020019081526020016000206000905560019450505050506109a7565b60009150506109a7565b81546000908210613c7e5760405162461bcd60e51b815260206004820152602260248201527f456e756d657261626c655365743a20696e646578206f7574206f6620626f756e60448201527f64730000000000000000000000000000000000000000000000000000000000006064820152608401610979565b826000018281548110613ca157634e487b7160e01b600052603260045260246000fd5b9060005260206000200154905092915050565b80516124ae9060cb906020840190613ec7565b610f3f8282612a41565b6000816101f7546101f854613ce691906149ba565b6109a7919061499a565b600054610100900460ff1680613d09575060005460ff16155b613d6c5760405162461bcd60e51b815260206004820152602e60248201527f496e697469616c697a61626c653a20636f6e747261637420697320616c72656160448201526d191e481a5b9a5d1a585b1a5e995960921b6064820152608401610979565b600054610100900460ff16158015613d8e576000805461ffff19166101011790555b8015613da0576000805461ff00191690555b50565b600054610100900460ff1680613dbc575060005460ff16155b613e1f5760405162461bcd60e51b815260206004820152602e60248201527f496e697469616c697a61626c653a20636f6e747261637420697320616c72656160448201526d191e481a5b9a5d1a585b1a5e995960921b6064820152608401610979565b600054610100900460ff16158015613e41576000805461ffff19166101011790555b61012d805460ff191690558015613da0576000805461ff001916905550565b60006001600160e01b031982167f7965db0b0000000000000000000000000000000000000000000000000000000014806109a757507f01ffc9a7000000000000000000000000000000000000000000000000000000006001600160e01b03198316146109a7565b828054613ed3906149f0565b90600052602060002090601f016020900481019282613ef55760008555613f3b565b82601f10613f0e57805160ff1916838001178555613f3b565b82800160010185558215613f3b579182015b82811115613f3b578251825591602001919060010190613f20565b50613f47929150613f4b565b5090565b5b80821115613f475760008155600101613f4c565b600082601f830112613f70578081fd5b81356020613f7d8261495e565b60408051613f8b8382614a2b565b8481528381019250868401600686901b88018501891015613faa578687fd5b865b86811015613ff55783828b031215613fc2578788fd5b8351613fce8582614a2b565b8235613fd981614b48565b8152828701358782015285529385019390830190600101613fac565b509098975050505050505050565b600082601f830112614013578081fd5b813560206140208261495e565b60405161402d8282614a2b565b8381528281019150858301600585901b8701840188101561404c578586fd5b855b8581101561406a5781358452928401929084019060010161404e565b5090979650505050505050565b600082601f830112614087578081fd5b813567ffffffffffffffff8111156140a1576140a1614a89565b6040516140b8601f8301601f191660200182614a2b565b8181528460208386010111156140cc578283fd5b816020850160208301379081016020019190915292915050565b6000602082840312156140f7578081fd5b8135611aa781614b48565b60008060408385031215614114578081fd5b823561411f81614b48565b9150602083013561412f81614b48565b809150509250929050565b600080600080600060a08688031215614151578081fd5b853561415c81614b48565b9450602086013561416c81614b48565b9350604086013567ffffffffffffffff80821115614188578283fd5b61419489838a01614003565b945060608801359150808211156141a9578283fd5b6141b589838a01614003565b935060808801359150808211156141ca578283fd5b506141d788828901614077565b9150509295509295909350565b600080600080600060a086880312156141fb578081fd5b853561420681614b48565b9450602086013561421681614b48565b93506040860135925060608601359150608086013567ffffffffffffffff81111561423f578182fd5b6141d788828901614077565b60008060006060848603121561425f578081fd5b833561426a81614b48565b9250602084013567ffffffffffffffff80821115614286578283fd5b61429287838801614003565b935060408601359150808211156142a7578283fd5b506142b486828701614003565b9150509250925092565b600080600080608085870312156142d3578182fd5b84356142de81614b48565b9350602085013567ffffffffffffffff808211156142fa578384fd5b61430688838901614003565b9450604087013591508082111561431b578384fd5b61432788838901614003565b9350606087013591508082111561433c578283fd5b5061434987828801614077565b91505092959194509250565b6000806000806080858703121561436a578182fd5b843561437581614b48565b9350602085013567ffffffffffffffff80821115614391578384fd5b61439d88838901614003565b945060408701359150808211156143b2578384fd5b6143be88838901614077565b935060608701359150808211156143d3578283fd5b5061434987828801613f60565b600080604083850312156143f2578182fd5b82356143fd81614b48565b91506020830135801515811461412f578182fd5b60008060408385031215614423578182fd5b823561442e81614b48565b946020939093013593505050565b60008060008060808587031215614451578182fd5b843561445c81614b48565b935060208501359250604085013567ffffffffffffffff808211156143b2578384fd5b600080600060608486031215614493578081fd5b833561449e81614b48565b95602085013595506040909401359392505050565b600080600080608085870312156144c8578182fd5b84356144d381614b48565b93506020850135925060408501359150606085013567ffffffffffffffff8111156144fc578182fd5b61434987828801614077565b6000806040838503121561451a578182fd5b823567ffffffffffffffff80821115614531578384fd5b818501915085601f830112614544578384fd5b813560206145518261495e565b60405161455e8282614a2b565b8381528281019150858301600585901b870184018b101561457d578889fd5b8896505b848710156145a857803561459481614b48565b835260019690960195918301918301614581565b50965050860135925050808211156145be578283fd5b506145cb85828601614003565b9150509250929050565b6000602082840312156145e6578081fd5b5035919050565b600080604083850312156145ff578182fd5b82359150602083013561412f81614b48565b60008060408385031215614623578182fd5b50508035926020909101359150565b600060208284031215614643578081fd5b8135611aa781614b5d565b60006020828403121561465f578081fd5b8151611aa781614b5d565b60006020828403121561467b578081fd5b813567ffffffffffffffff811115614691578182fd5b61469d84828501614077565b949350505050565b6000806000606084860312156146b9578081fd5b833567ffffffffffffffff808211156146d0578283fd5b6146dc87838801614077565b945060208601359150808211156146f1578283fd5b6146fd87838801614077565b93506040860135915080821115614712578283fd5b506142b486828701614077565b600080600060608486031215614733578081fd5b83359250602084013561474581614b48565b9150604084013561475581614b48565b809150509250925092565b600080600060608486031215614774578081fd5b83359250602084013561478681614b48565b929592945050506040919091013590565b6000815180845260208085019450808401835b838110156147c6578151875295820195908201906001016147aa565b509495945050505050565b60008151808452815b818110156147f6576020818501810151868301820152016147da565b818111156148075782602083870101525b50601f01601f19169290920160200192915050565b60006001600160a01b03808816835280871660208401525060a0604083015261484860a0830186614797565b828103606084015261485a8186614797565b9050828103608084015261486e81856147d1565b98975050505050505050565b60006001600160a01b03808816835280871660208401525084604083015283606083015260a060808301526148b260a08301846147d1565b979650505050505050565b6020808252825182820181905260009190848201906040850190845b818110156148fe5783516001600160a01b0316835292840192918401916001016148d9565b50909695505050505050565b600060208252611aa76020830184614797565b6000604082526149306040830185614797565b82810360208401526149428185614797565b95945050505050565b600060208252611aa760208301846147d1565b600067ffffffffffffffff82111561497857614978614a89565b5060051b60200190565b6000821982111561499557614995614a73565b500190565b6000826149b557634e487b7160e01b81526012600452602481fd5b500490565b60008160001904831182151516156149d4576149d4614a73565b500290565b6000828210156149eb576149eb614a73565b500390565b600181811c90821680614a0457607f821691505b60208210811415614a2557634e487b7160e01b600052602260045260246000fd5b50919050565b601f8201601f1916810167ffffffffffffffff81118282101715614a5157614a51614a89565b6040525050565b6000600019821415614a6c57614a6c614a73565b5060010190565b634e487b7160e01b600052601160045260246000fd5b634e487b7160e01b600052604160045260246000fd5b600060033d1115610a7957600481823e5160e01c90565b600060443d1015614ac657610a79565b6040516003193d81016004833e81513d67ffffffffffffffff8160248401118184111715614af8575050505050610a79565b8285019150815181811115614b1257505050505050610a79565b843d8701016020828501011115614b2e57505050505050610a79565b614b3d60208286010187614a2b565b509094505050505090565b6001600160a01b0381168114613da057600080fd5b6001600160e01b031981168114613da057600080fdfea2646970667358221220d35f9cbc45e7c7ccc6601b492fb292a2fad39cf80e59184b1c0f94d018c0b80364736f6c63430008030033",
  "immutableReferences": {},
  "source": "// SPDX-License-Identifier: MIT\n\npragma solidity ^0.8.3;\n\nimport \"@openzeppelin/contracts-upgradeable/token/ERC1155/presets/ERC1155PresetMinterPauserUpgradeable.sol\";\nimport \"@openzeppelin/contracts-upgradeable/utils/CountersUpgradeable.sol\";\nimport \"@openzeppelin/contracts-upgradeable/security/ReentrancyGuardUpgradeable.sol\";\n\n/**\n * @dev ERC1155 token with minting, burning, pause, secondary sales royalitiy functions.\n *\n */\n\ncontract GhostmarketERC1155 is\n    Initializable,\n    ERC1155PresetMinterPauserUpgradeable,\n    ReentrancyGuardUpgradeable\n{\n    string public name;\n    string public symbol;\n\n    // fee multiplier\n    uint256 private _ghostmarketFeeMultiplier;\n\n    // minting fee\n    uint256 private _ghostmarketMintingFee;\n\n    //address where the transfer fees will be sent\n    address payable private _ghostmarketFeeAddress;\n\n    // struct for secondary sales fees\n    struct Fee {\n        address payable recipient;\n        uint256 value;\n    }\n\n    // tokenId => fees array\n    mapping(uint256 => Fee[]) public fees;\n\n    event SecondarySaleFees(uint256 tokenId, address recipients, uint256 bps);\n    event RoyalitiesAccountChanged(uint256 tokenId, address from, address to);\n    event RoyalitiesFeeValueChanged(uint256 tokenId, uint256 value);\n\n    event GhostmarketFeeAddressChanged(address newValue);\n    event GhostmarketFeeMultiplierChanged(uint256 newValue);\n    event GhostmarketMintFeeChanged(uint256 newValue);\n    event GhostmarketFeePaid(address sender, uint256 value);\n\n    function initialize(\n        string memory _name,\n        string memory _symbol,\n        string memory uri\n    ) public virtual initializer {\n        __ERC1155_init_unchained(uri);\n        __ERC1155PresetMinterPauser_init_unchained(uri);\n        name = _name;\n        symbol = _symbol;\n    }\n\n    using CountersUpgradeable for CountersUpgradeable.Counter;\n\n    CountersUpgradeable.Counter private _tokenIdTracker;\n\n    function mint(\n        address to,\n        uint256 amount,\n        bytes memory data,\n        Fee[] memory _fees\n    ) public payable nonReentrant {\n        super.mint(to, _tokenIdTracker.current(), amount, data);\n        if (_fees.length > 0) {\n            //fees array length should be 1 for single mint,\n            require(_fees.length == 1);\n            saveRoyaltyFee(_tokenIdTracker.current(), _fees[0]);\n        }\n        _tokenIdTracker.increment();\n        if (_ghostmarketFeeMultiplier > 0) {\n            require(\n                _ghostmarketFeeAddress != address(0),\n                \"Ghostmarket minting Fee Address not set\"\n            );\n            require(\n                _ghostmarketMintingFee > 0,\n                \"Ghostmarket minting Fee is zero\"\n            );\n            _sendMintingFee(amount);\n        }\n    }\n\n    function mintBatch(\n        address to,\n        uint256[] memory mintAmounts,\n        bytes memory data,\n        Fee[] memory _fees\n    ) public virtual {\n        uint256[] memory tokenBatchIds = _getTokenBatchIds(mintAmounts.length);\n        super.mintBatch(to, tokenBatchIds, mintAmounts, data);\n        if (_fees.length > 0) {\n            require(\n                _fees.length <= mintAmounts.length,\n                \"Fees array lenght should be less than or equal to mintAmounts array lenght\"\n            );\n            for (uint256 i = 0; i < _fees.length; i++) {\n                saveRoyaltyFee(tokenBatchIds[i], _fees[i]);\n            }\n        }\n    }\n\n    function getCurrentCounter() public view returns (uint256) {\n        return _tokenIdTracker.current();\n    }\n\n    function getLastTokenID() public view returns (uint256) {\n        if (_tokenIdTracker.current() == 0) {\n            return _tokenIdTracker.current();\n        } else return _tokenIdTracker.current() - 1;\n    }\n\n    function _getTokenBatchIds(uint256 mintAmountsLenght)\n        internal\n        returns (uint256[] memory)\n    {\n        uint256[] memory ids = new uint256[](mintAmountsLenght);\n        //uint256[mintAmounts] memory ids;\n        for (uint256 i = 0; i < mintAmountsLenght; i++) {\n            //_tokenIdTracker.increment();\n            ids[i] = getCurrentCounter();\n            _tokenIdTracker.increment();\n        }\n        return ids;\n    }\n\n    /**\n     * @dev change the \"secondary sales\"/royalities fee value for a specific recipient address\n     */\n    function updateRoyalitiesFeeValue(\n        uint256 _tokenId,\n        address _from,\n        uint256 _value\n    ) external {\n        require(\n            hasRole(MINTER_ROLE, _msgSender()),\n            \"updating fee value is not allowed by this account\"\n        );\n        require(_value > 0, \"new Fee value should be positive\");\n        Fee[] memory _fees = fees[_tokenId];\n        for (uint256 i = 0; i < _fees.length; i++) {\n            if (fees[_tokenId][i].recipient == _from) {\n                fees[_tokenId][i].value = _value;\n                emit RoyalitiesFeeValueChanged(_tokenId, _value);\n            }\n        }\n    }\n\n    /**\n     * @dev change the recepient address of the \"secondary sales\"/royalities fee\n     */\n    function updateRoyalitiesAccount(\n        uint256 _tokenId,\n        address _from,\n        address _to\n    ) external {\n        require(\n            hasRole(MINTER_ROLE, _msgSender()),\n            \"updating fee recepients is not allowed by this account\"\n        );\n        uint256 length = fees[_tokenId].length;\n        for (uint256 i = 0; i < length; i++) {\n            if (fees[_tokenId][i].recipient == _from) {\n                fees[_tokenId][i].recipient = payable(address(uint160(_to)));\n                emit RoyalitiesAccountChanged(_tokenId, _from, _to);\n            }\n        }\n    }\n\n    /**\n     * @dev get the \"secondary sales\"/royalities fee recepients with the tokenId\n     */\n    function getRoyalitiesRecipients(uint256 _tokenId)\n        public\n        view\n        returns (address payable[] memory)\n    {\n        Fee[] memory _fees = fees[_tokenId];\n        address payable[] memory result = new address payable[](_fees.length);\n        for (uint256 i = 0; i < _fees.length; i++) {\n            result[i] = _fees[i].recipient;\n        }\n        return result;\n    }\n\n    /**\n     * @dev get the \"secondary sales\"/royalities fee for the NFT id\n     * fee basis points 10000 = 100%\n     */\n    function getRoyaltyFeeBps(uint256 _tokenId)\n        public\n        view\n        returns (uint256[] memory)\n    {\n        Fee[] memory _fees = fees[_tokenId];\n        uint256[] memory result = new uint256[](_fees.length);\n        for (uint256 i = 0; i < _fees.length; i++) {\n            result[i] = _fees[i].value;\n        }\n        return result;\n    }\n\n    /**\n     * @dev save the \"secondary sales\"/royalities fee for the NFT id\n     * fee basis points 10000 = 100%\n     */\n    function saveRoyaltyFee(uint256 _tokenId, Fee memory _fee) internal {\n        require(_fee.recipient != address(0x0), \"Recipient should be present\");\n        require(_fee.value > 0, \"Fee value should be positive\");\n        fees[_tokenId].push(_fee);\n        emit SecondarySaleFees(_tokenId, _fee.recipient, _fee.value);\n    }\n\n    /**\n     * @dev send minting fee to Ghostmarket\n     */\n    function _sendMintingFee(uint256 nftAmount) internal {\n        uint256 feevalue = _calculateGhostmarketMintingFee(nftAmount);\n        (bool success, ) = _ghostmarketFeeAddress.call{value: feevalue}(\"\");\n        require(success, \"Transfer failed.\");\n        emit GhostmarketFeePaid(msg.sender, feevalue);\n    }\n\n    /**\n     * @dev set the wallet address where fees will be collected\n     */\n    function setGhostmarketFeeAddress(address payable gmfa) public {\n        require(\n            hasRole(DEFAULT_ADMIN_ROLE, _msgSender()),\n            \"Caller must have admin role to set minting fee address\"\n        );\n\n        _ghostmarketFeeAddress = gmfa;\n        emit GhostmarketFeeAddressChanged(_ghostmarketFeeAddress);\n    }\n\n    /**\n     * @dev sets the transfer fee multiplier\n     */\n    function setGhostmarketFeeMultiplier(uint256 gmfm) public {\n        require(\n            hasRole(DEFAULT_ADMIN_ROLE, _msgSender()),\n            \"Caller must have admin role to set minting fee percent\"\n        );\n        _ghostmarketFeeMultiplier = gmfm;\n        emit GhostmarketFeeMultiplierChanged(_ghostmarketFeeMultiplier);\n    }\n\n    /**\n     * @dev sets the transfer fee\n     */\n    function setGhostmarketMintFee(uint256 gmmf) public {\n        require(\n            hasRole(DEFAULT_ADMIN_ROLE, _msgSender()),\n            \"Caller must have admin role to set minting fee percent\"\n        );\n        _ghostmarketMintingFee = gmmf;\n        emit GhostmarketMintFeeChanged(_ghostmarketMintingFee);\n    }\n\n    /**\n     * @return the ghostmarketFeeAddress\n     */\n    function ghostmarketFeeAddress() public view returns (address payable) {\n        return _ghostmarketFeeAddress;\n    }\n\n    /**\n     * @return the ghostmarketMintingFee.\n     */\n    function ghostmarketMintingFee() public view returns (uint256) {\n        return _ghostmarketMintingFee;\n    }\n\n    /**\n     * @return the ghostmarketFeeMultiplier.\n     */\n    function ghostmarketFeeMultiplier() public view returns (uint256) {\n        return _ghostmarketFeeMultiplier;\n    }\n\n    /**\n     * @return the calculated fee for minting a NFT.\n     */\n    function _calculateGhostmarketMintingFee(uint256 nftAmount)\n        internal\n        view\n        returns (uint256)\n    {\n        return _ghostmarketMintingFee * _ghostmarketFeeMultiplier / nftAmount;\n    }\n}\n",
  "sourcePath": "/Users/selimerunkut/dev_freelance/GhostMarketContractBSC/contracts/GhostmarketERC1155.sol",
  "compiler": {
    "name": "solc",
    "version": "0.8.3+commit.8d00100c.Emscripten.clang"
  },
  "schemaVersion": "3.3.4",
  "updatedAt": "2021-05-09T20:34:51.685Z",
  "devdoc": {
    "details": "ERC1155 token with minting, burning, pause, secondary sales royalitiy functions.",
    "kind": "dev",
    "methods": {
      "balanceOf(address,uint256)": {
        "details": "See {IERC1155-balanceOf}. Requirements: - `account` cannot be the zero address."
      },
      "balanceOfBatch(address[],uint256[])": {
        "details": "See {IERC1155-balanceOfBatch}. Requirements: - `accounts` and `ids` must have the same length."
      },
      "getRoleAdmin(bytes32)": {
        "details": "Returns the admin role that controls `role`. See {grantRole} and {revokeRole}. To change a role's admin, use {_setRoleAdmin}."
      },
      "getRoleMember(bytes32,uint256)": {
        "details": "Returns one of the accounts that have `role`. `index` must be a value between 0 and {getRoleMemberCount}, non-inclusive. Role bearers are not sorted in any particular way, and their ordering may change at any point. WARNING: When using {getRoleMember} and {getRoleMemberCount}, make sure you perform all queries on the same block. See the following https://forum.openzeppelin.com/t/iterating-over-elements-on-enumerableset-in-openzeppelin-contracts/2296[forum post] for more information."
      },
      "getRoleMemberCount(bytes32)": {
        "details": "Returns the number of accounts that have `role`. Can be used together with {getRoleMember} to enumerate all bearers of a role."
      },
      "getRoyalitiesRecipients(uint256)": {
        "details": "get the \"secondary sales\"/royalities fee recepients with the tokenId"
      },
      "getRoyaltyFeeBps(uint256)": {
        "details": "get the \"secondary sales\"/royalities fee for the NFT id fee basis points 10000 = 100%"
      },
      "ghostmarketFeeAddress()": {
        "returns": {
          "_0": "the ghostmarketFeeAddress"
        }
      },
      "ghostmarketFeeMultiplier()": {
        "returns": {
          "_0": "the ghostmarketFeeMultiplier."
        }
      },
      "ghostmarketMintingFee()": {
        "returns": {
          "_0": "the ghostmarketMintingFee."
        }
      },
      "grantRole(bytes32,address)": {
        "details": "Overload {grantRole} to track enumerable memberships"
      },
      "hasRole(bytes32,address)": {
        "details": "Returns `true` if `account` has been granted `role`."
      },
      "isApprovedForAll(address,address)": {
        "details": "See {IERC1155-isApprovedForAll}."
      },
      "mint(address,uint256,uint256,bytes)": {
        "details": "Creates `amount` new tokens for `to`, of token type `id`. See {ERC1155-_mint}. Requirements: - the caller must have the `MINTER_ROLE`."
      },
      "mintBatch(address,uint256[],uint256[],bytes)": {
        "details": "xref:ROOT:erc1155.adoc#batch-operations[Batched] variant of {mint}."
      },
      "pause()": {
        "details": "Pauses all token transfers. See {ERC1155Pausable} and {Pausable-_pause}. Requirements: - the caller must have the `PAUSER_ROLE`."
      },
      "paused()": {
        "details": "Returns true if the contract is paused, and false otherwise."
      },
      "renounceRole(bytes32,address)": {
        "details": "Overload {renounceRole} to track enumerable memberships"
      },
      "revokeRole(bytes32,address)": {
        "details": "Overload {revokeRole} to track enumerable memberships"
      },
      "safeBatchTransferFrom(address,address,uint256[],uint256[],bytes)": {
        "details": "See {IERC1155-safeBatchTransferFrom}."
      },
      "safeTransferFrom(address,address,uint256,uint256,bytes)": {
        "details": "See {IERC1155-safeTransferFrom}."
      },
      "setApprovalForAll(address,bool)": {
        "details": "See {IERC1155-setApprovalForAll}."
      },
      "setGhostmarketFeeAddress(address)": {
        "details": "set the wallet address where fees will be collected"
      },
      "setGhostmarketFeeMultiplier(uint256)": {
        "details": "sets the transfer fee multiplier"
      },
      "setGhostmarketMintFee(uint256)": {
        "details": "sets the transfer fee"
      },
      "supportsInterface(bytes4)": {
        "details": "See {IERC165-supportsInterface}."
      },
      "unpause()": {
        "details": "Unpauses all token transfers. See {ERC1155Pausable} and {Pausable-_unpause}. Requirements: - the caller must have the `PAUSER_ROLE`."
      },
      "updateRoyalitiesAccount(uint256,address,address)": {
        "details": "change the recepient address of the \"secondary sales\"/royalities fee"
      },
      "updateRoyalitiesFeeValue(uint256,address,uint256)": {
        "details": "change the \"secondary sales\"/royalities fee value for a specific recipient address"
      },
      "uri(uint256)": {
        "details": "See {IERC1155MetadataURI-uri}. This implementation returns the same URI for *all* token types. It relies on the token type ID substitution mechanism https://eips.ethereum.org/EIPS/eip-1155#metadata[defined in the EIP]. Clients calling this function must replace the `\\{id\\}` substring with the actual token type ID."
      }
    },
    "version": 1
  },
  "userdoc": {
    "kind": "user",
    "methods": {},
    "version": 1
  }
}