{
  "contractName": "GhostMarketERC1155",
  "abi": [
    {
      "anonymous": false,
      "inputs": [
        {
          "indexed": true,
          "internalType": "address",
          "name": "account",
          "type": "address"
        },
        {
          "indexed": true,
          "internalType": "address",
          "name": "operator",
          "type": "address"
        },
        {
          "indexed": false,
          "internalType": "bool",
          "name": "approved",
          "type": "bool"
        }
      ],
      "name": "ApprovalForAll",
      "type": "event"
    },
    {
      "anonymous": false,
      "inputs": [
        {
          "indexed": false,
          "internalType": "uint256",
          "name": "tokenId",
          "type": "uint256"
        },
        {
          "indexed": false,
          "internalType": "string",
          "name": "metadataJson",
          "type": "string"
        }
      ],
      "name": "AttributesSet",
      "type": "event"
    },
    {
      "anonymous": false,
      "inputs": [
        {
          "indexed": false,
          "internalType": "address",
          "name": "msgSender",
          "type": "address"
        },
        {
          "indexed": false,
          "internalType": "uint256",
          "name": "tokenId",
          "type": "uint256"
        },
        {
          "indexed": false,
          "internalType": "string",
          "name": "lockedContent",
          "type": "string"
        }
      ],
      "name": "LockedContentViewed",
      "type": "event"
    },
    {
      "anonymous": false,
      "inputs": [
        {
          "indexed": false,
          "internalType": "uint256",
          "name": "newValue",
          "type": "uint256"
        }
      ],
      "name": "MintFeesChanged",
      "type": "event"
    },
    {
      "anonymous": false,
      "inputs": [
        {
          "indexed": false,
          "internalType": "address",
          "name": "sender",
          "type": "address"
        },
        {
          "indexed": false,
          "internalType": "uint256",
          "name": "value",
          "type": "uint256"
        }
      ],
      "name": "MintFeesPaid",
      "type": "event"
    },
    {
      "anonymous": false,
      "inputs": [
        {
          "indexed": false,
          "internalType": "address",
          "name": "feeWithdrawer",
          "type": "address"
        },
        {
          "indexed": false,
          "internalType": "uint256",
          "name": "withdrawAmount",
          "type": "uint256"
        }
      ],
      "name": "MintFeesWithdrawn",
      "type": "event"
    },
    {
      "anonymous": false,
      "inputs": [
        {
          "indexed": false,
          "internalType": "address",
          "name": "toAddress",
          "type": "address"
        },
        {
          "indexed": false,
          "internalType": "uint256",
          "name": "tokenId",
          "type": "uint256"
        },
        {
          "indexed": false,
          "internalType": "string",
          "name": "tokenURI",
          "type": "string"
        },
        {
          "indexed": false,
          "internalType": "uint256",
          "name": "amount",
          "type": "uint256"
        }
      ],
      "name": "Minted",
      "type": "event"
    },
    {
      "anonymous": false,
      "inputs": [
        {
          "indexed": true,
          "internalType": "address",
          "name": "previousOwner",
          "type": "address"
        },
        {
          "indexed": true,
          "internalType": "address",
          "name": "newOwner",
          "type": "address"
        }
      ],
      "name": "OwnershipTransferred",
      "type": "event"
    },
    {
      "anonymous": false,
      "inputs": [
        {
          "indexed": false,
          "internalType": "address",
          "name": "account",
          "type": "address"
        }
      ],
      "name": "Paused",
      "type": "event"
    },
    {
      "anonymous": false,
      "inputs": [
        {
          "indexed": true,
          "internalType": "bytes32",
          "name": "role",
          "type": "bytes32"
        },
        {
          "indexed": true,
          "internalType": "bytes32",
          "name": "previousAdminRole",
          "type": "bytes32"
        },
        {
          "indexed": true,
          "internalType": "bytes32",
          "name": "newAdminRole",
          "type": "bytes32"
        }
      ],
      "name": "RoleAdminChanged",
      "type": "event"
    },
    {
      "anonymous": false,
      "inputs": [
        {
          "indexed": true,
          "internalType": "bytes32",
          "name": "role",
          "type": "bytes32"
        },
        {
          "indexed": true,
          "internalType": "address",
          "name": "account",
          "type": "address"
        },
        {
          "indexed": true,
          "internalType": "address",
          "name": "sender",
          "type": "address"
        }
      ],
      "name": "RoleGranted",
      "type": "event"
    },
    {
      "anonymous": false,
      "inputs": [
        {
          "indexed": true,
          "internalType": "bytes32",
          "name": "role",
          "type": "bytes32"
        },
        {
          "indexed": true,
          "internalType": "address",
          "name": "account",
          "type": "address"
        },
        {
          "indexed": true,
          "internalType": "address",
          "name": "sender",
          "type": "address"
        }
      ],
      "name": "RoleRevoked",
      "type": "event"
    },
    {
      "anonymous": false,
      "inputs": [
        {
          "indexed": false,
          "internalType": "uint256",
          "name": "tokenId",
          "type": "uint256"
        },
        {
          "indexed": false,
          "internalType": "address[]",
          "name": "recipients",
          "type": "address[]"
        },
        {
          "indexed": false,
          "internalType": "uint256[]",
          "name": "bps",
          "type": "uint256[]"
        }
      ],
      "name": "RoyaltiesFeesSet",
      "type": "event"
    },
    {
      "anonymous": false,
      "inputs": [
        {
          "indexed": true,
          "internalType": "address",
          "name": "operator",
          "type": "address"
        },
        {
          "indexed": true,
          "internalType": "address",
          "name": "from",
          "type": "address"
        },
        {
          "indexed": true,
          "internalType": "address",
          "name": "to",
          "type": "address"
        },
        {
          "indexed": false,
          "internalType": "uint256[]",
          "name": "ids",
          "type": "uint256[]"
        },
        {
          "indexed": false,
          "internalType": "uint256[]",
          "name": "values",
          "type": "uint256[]"
        }
      ],
      "name": "TransferBatch",
      "type": "event"
    },
    {
      "anonymous": false,
      "inputs": [
        {
          "indexed": true,
          "internalType": "address",
          "name": "operator",
          "type": "address"
        },
        {
          "indexed": true,
          "internalType": "address",
          "name": "from",
          "type": "address"
        },
        {
          "indexed": true,
          "internalType": "address",
          "name": "to",
          "type": "address"
        },
        {
          "indexed": false,
          "internalType": "uint256",
          "name": "id",
          "type": "uint256"
        },
        {
          "indexed": false,
          "internalType": "uint256",
          "name": "value",
          "type": "uint256"
        }
      ],
      "name": "TransferSingle",
      "type": "event"
    },
    {
      "anonymous": false,
      "inputs": [
        {
          "indexed": false,
          "internalType": "string",
          "name": "value",
          "type": "string"
        },
        {
          "indexed": true,
          "internalType": "uint256",
          "name": "id",
          "type": "uint256"
        }
      ],
      "name": "URI",
      "type": "event"
    },
    {
      "anonymous": false,
      "inputs": [
        {
          "indexed": false,
          "internalType": "address",
          "name": "account",
          "type": "address"
        }
      ],
      "name": "Unpaused",
      "type": "event"
    },
    {
      "inputs": [],
      "name": "DEFAULT_ADMIN_ROLE",
      "outputs": [
        {
          "internalType": "bytes32",
          "name": "",
          "type": "bytes32"
        }
      ],
      "stateMutability": "view",
      "type": "function"
    },
    {
      "inputs": [],
      "name": "MINTER_ROLE",
      "outputs": [
        {
          "internalType": "bytes32",
          "name": "",
          "type": "bytes32"
        }
      ],
      "stateMutability": "view",
      "type": "function"
    },
    {
      "inputs": [],
      "name": "PAUSER_ROLE",
      "outputs": [
        {
          "internalType": "bytes32",
          "name": "",
          "type": "bytes32"
        }
      ],
      "stateMutability": "view",
      "type": "function"
    },
    {
      "inputs": [
        {
          "internalType": "address",
          "name": "account",
          "type": "address"
        },
        {
          "internalType": "uint256",
          "name": "id",
          "type": "uint256"
        }
      ],
      "name": "balanceOf",
      "outputs": [
        {
          "internalType": "uint256",
          "name": "",
          "type": "uint256"
        }
      ],
      "stateMutability": "view",
      "type": "function"
    },
    {
      "inputs": [
        {
          "internalType": "address[]",
          "name": "accounts",
          "type": "address[]"
        },
        {
          "internalType": "uint256[]",
          "name": "ids",
          "type": "uint256[]"
        }
      ],
      "name": "balanceOfBatch",
      "outputs": [
        {
          "internalType": "uint256[]",
          "name": "",
          "type": "uint256[]"
        }
      ],
      "stateMutability": "view",
      "type": "function"
    },
    {
      "inputs": [
        {
          "internalType": "address",
          "name": "account",
          "type": "address"
        },
        {
          "internalType": "uint256[]",
          "name": "ids",
          "type": "uint256[]"
        },
        {
          "internalType": "uint256[]",
          "name": "values",
          "type": "uint256[]"
        }
      ],
      "name": "burnBatch",
      "outputs": [],
      "stateMutability": "nonpayable",
      "type": "function"
    },
    {
      "inputs": [
        {
          "internalType": "bytes32",
          "name": "role",
          "type": "bytes32"
        }
      ],
      "name": "getRoleAdmin",
      "outputs": [
        {
          "internalType": "bytes32",
          "name": "",
          "type": "bytes32"
        }
      ],
      "stateMutability": "view",
      "type": "function"
    },
    {
      "inputs": [
        {
          "internalType": "bytes32",
          "name": "role",
          "type": "bytes32"
        },
        {
          "internalType": "uint256",
          "name": "index",
          "type": "uint256"
        }
      ],
      "name": "getRoleMember",
      "outputs": [
        {
          "internalType": "address",
          "name": "",
          "type": "address"
        }
      ],
      "stateMutability": "view",
      "type": "function"
    },
    {
      "inputs": [
        {
          "internalType": "bytes32",
          "name": "role",
          "type": "bytes32"
        }
      ],
      "name": "getRoleMemberCount",
      "outputs": [
        {
          "internalType": "uint256",
          "name": "",
          "type": "uint256"
        }
      ],
      "stateMutability": "view",
      "type": "function"
    },
    {
      "inputs": [
        {
          "internalType": "bytes32",
          "name": "role",
          "type": "bytes32"
        },
        {
          "internalType": "address",
          "name": "account",
          "type": "address"
        }
      ],
      "name": "grantRole",
      "outputs": [],
      "stateMutability": "nonpayable",
      "type": "function"
    },
    {
      "inputs": [
        {
          "internalType": "bytes32",
          "name": "role",
          "type": "bytes32"
        },
        {
          "internalType": "address",
          "name": "account",
          "type": "address"
        }
      ],
      "name": "hasRole",
      "outputs": [
        {
          "internalType": "bool",
          "name": "",
          "type": "bool"
        }
      ],
      "stateMutability": "view",
      "type": "function"
    },
    {
      "inputs": [
        {
          "internalType": "address",
          "name": "account",
          "type": "address"
        },
        {
          "internalType": "address",
          "name": "operator",
          "type": "address"
        }
      ],
      "name": "isApprovedForAll",
      "outputs": [
        {
          "internalType": "bool",
          "name": "",
          "type": "bool"
        }
      ],
      "stateMutability": "view",
      "type": "function"
    },
    {
      "inputs": [
        {
          "internalType": "address",
          "name": "to",
          "type": "address"
        },
        {
          "internalType": "uint256",
          "name": "id",
          "type": "uint256"
        },
        {
          "internalType": "uint256",
          "name": "amount",
          "type": "uint256"
        },
        {
          "internalType": "bytes",
          "name": "data",
          "type": "bytes"
        }
      ],
      "name": "mint",
      "outputs": [],
      "stateMutability": "nonpayable",
      "type": "function"
    },
    {
      "inputs": [
        {
          "internalType": "address",
          "name": "to",
          "type": "address"
        },
        {
          "internalType": "uint256[]",
          "name": "ids",
          "type": "uint256[]"
        },
        {
          "internalType": "uint256[]",
          "name": "amounts",
          "type": "uint256[]"
        },
        {
          "internalType": "bytes",
          "name": "data",
          "type": "bytes"
        }
      ],
      "name": "mintBatch",
      "outputs": [],
      "stateMutability": "nonpayable",
      "type": "function"
    },
    {
      "inputs": [],
      "name": "name",
      "outputs": [
        {
          "internalType": "string",
          "name": "",
          "type": "string"
        }
      ],
      "stateMutability": "view",
      "type": "function"
    },
    {
      "inputs": [],
      "name": "owner",
      "outputs": [
        {
          "internalType": "address",
          "name": "",
          "type": "address"
        }
      ],
      "stateMutability": "view",
      "type": "function"
    },
    {
      "inputs": [],
      "name": "pause",
      "outputs": [],
      "stateMutability": "nonpayable",
      "type": "function"
    },
    {
      "inputs": [],
      "name": "paused",
      "outputs": [
        {
          "internalType": "bool",
          "name": "",
          "type": "bool"
        }
      ],
      "stateMutability": "view",
      "type": "function"
    },
    {
      "inputs": [],
      "name": "renounceOwnership",
      "outputs": [],
      "stateMutability": "nonpayable",
      "type": "function"
    },
    {
      "inputs": [
        {
          "internalType": "bytes32",
          "name": "role",
          "type": "bytes32"
        },
        {
          "internalType": "address",
          "name": "account",
          "type": "address"
        }
      ],
      "name": "renounceRole",
      "outputs": [],
      "stateMutability": "nonpayable",
      "type": "function"
    },
    {
      "inputs": [
        {
          "internalType": "bytes32",
          "name": "role",
          "type": "bytes32"
        },
        {
          "internalType": "address",
          "name": "account",
          "type": "address"
        }
      ],
      "name": "revokeRole",
      "outputs": [],
      "stateMutability": "nonpayable",
      "type": "function"
    },
    {
      "inputs": [
        {
          "internalType": "address",
          "name": "from",
          "type": "address"
        },
        {
          "internalType": "address",
          "name": "to",
          "type": "address"
        },
        {
          "internalType": "uint256[]",
          "name": "ids",
          "type": "uint256[]"
        },
        {
          "internalType": "uint256[]",
          "name": "amounts",
          "type": "uint256[]"
        },
        {
          "internalType": "bytes",
          "name": "data",
          "type": "bytes"
        }
      ],
      "name": "safeBatchTransferFrom",
      "outputs": [],
      "stateMutability": "nonpayable",
      "type": "function"
    },
    {
      "inputs": [
        {
          "internalType": "address",
          "name": "from",
          "type": "address"
        },
        {
          "internalType": "address",
          "name": "to",
          "type": "address"
        },
        {
          "internalType": "uint256",
          "name": "id",
          "type": "uint256"
        },
        {
          "internalType": "uint256",
          "name": "amount",
          "type": "uint256"
        },
        {
          "internalType": "bytes",
          "name": "data",
          "type": "bytes"
        }
      ],
      "name": "safeTransferFrom",
      "outputs": [],
      "stateMutability": "nonpayable",
      "type": "function"
    },
    {
      "inputs": [
        {
          "internalType": "address",
          "name": "operator",
          "type": "address"
        },
        {
          "internalType": "bool",
          "name": "approved",
          "type": "bool"
        }
      ],
      "name": "setApprovalForAll",
      "outputs": [],
      "stateMutability": "nonpayable",
      "type": "function"
    },
    {
      "inputs": [
        {
          "internalType": "string",
          "name": "uri_",
          "type": "string"
        }
      ],
      "name": "setURI",
      "outputs": [],
      "stateMutability": "nonpayable",
      "type": "function"
    },
    {
      "inputs": [
        {
          "internalType": "bytes4",
          "name": "interfaceId",
          "type": "bytes4"
        }
      ],
      "name": "supportsInterface",
      "outputs": [
        {
          "internalType": "bool",
          "name": "",
          "type": "bool"
        }
      ],
      "stateMutability": "view",
      "type": "function"
    },
    {
      "inputs": [],
      "name": "symbol",
      "outputs": [
        {
          "internalType": "string",
          "name": "",
          "type": "string"
        }
      ],
      "stateMutability": "view",
      "type": "function"
    },
    {
      "inputs": [
        {
          "internalType": "address",
          "name": "newOwner",
          "type": "address"
        }
      ],
      "name": "transferOwnership",
      "outputs": [],
      "stateMutability": "nonpayable",
      "type": "function"
    },
    {
      "inputs": [],
      "name": "unpause",
      "outputs": [],
      "stateMutability": "nonpayable",
      "type": "function"
    },
    {
      "inputs": [
        {
          "internalType": "uint256",
          "name": "",
          "type": "uint256"
        }
      ],
      "name": "uri",
      "outputs": [
        {
          "internalType": "string",
          "name": "",
          "type": "string"
        }
      ],
      "stateMutability": "view",
      "type": "function"
    },
    {
      "inputs": [
        {
          "internalType": "string",
          "name": "_name",
          "type": "string"
        },
        {
          "internalType": "string",
          "name": "_symbol",
          "type": "string"
        },
        {
          "internalType": "string",
          "name": "uri",
          "type": "string"
        }
      ],
      "name": "initialize",
      "outputs": [],
      "stateMutability": "nonpayable",
      "type": "function"
    },
    {
      "inputs": [
        {
          "internalType": "string",
          "name": "uri",
          "type": "string"
        }
      ],
      "name": "initialize",
      "outputs": [],
      "stateMutability": "nonpayable",
      "type": "function"
    },
    {
      "inputs": [
        {
          "internalType": "address",
          "name": "account",
          "type": "address"
        },
        {
          "internalType": "uint256",
          "name": "tokenId",
          "type": "uint256"
        },
        {
          "internalType": "uint256",
          "name": "value",
          "type": "uint256"
        }
      ],
      "name": "burn",
      "outputs": [],
      "stateMutability": "nonpayable",
      "type": "function"
    },
    {
      "inputs": [
        {
          "internalType": "address",
          "name": "to",
          "type": "address"
        },
        {
          "internalType": "uint256",
          "name": "amount",
          "type": "uint256"
        },
        {
          "internalType": "bytes",
          "name": "data",
          "type": "bytes"
        },
        {
          "components": [
            {
              "internalType": "address payable",
              "name": "recipient",
              "type": "address"
            },
            {
              "internalType": "uint256",
              "name": "value",
              "type": "uint256"
            }
          ],
          "internalType": "struct GhostMarketERC1155.Royalty[]",
          "name": "royalties",
          "type": "tuple[]"
        },
        {
          "internalType": "string",
          "name": "metadata",
          "type": "string"
        },
        {
          "internalType": "string",
          "name": "lockedcontent",
          "type": "string"
        }
      ],
      "name": "mintGhost",
      "outputs": [],
      "stateMutability": "payable",
      "type": "function"
    },
    {
      "inputs": [
        {
          "internalType": "uint256",
          "name": "withdrawAmount",
          "type": "uint256"
        }
      ],
      "name": "withdraw",
      "outputs": [],
      "stateMutability": "nonpayable",
      "type": "function"
    },
    {
      "inputs": [
        {
          "internalType": "uint256",
          "name": "gmmf",
          "type": "uint256"
        }
      ],
      "name": "setGhostmarketMintFee",
      "outputs": [],
      "stateMutability": "nonpayable",
      "type": "function"
    },
    {
      "inputs": [],
      "name": "getGhostmarketMintFees",
      "outputs": [
        {
          "internalType": "uint256",
          "name": "",
          "type": "uint256"
        }
      ],
      "stateMutability": "view",
      "type": "function"
    },
    {
      "inputs": [
        {
          "internalType": "uint256",
          "name": "tokenId",
          "type": "uint256"
        }
      ],
      "name": "getLockedContent",
      "outputs": [],
      "stateMutability": "nonpayable",
      "type": "function"
    },
    {
      "inputs": [
        {
          "internalType": "uint256",
          "name": "tokenId",
          "type": "uint256"
        }
      ],
      "name": "getCurrentLockedContentViewTracker",
      "outputs": [
        {
          "internalType": "uint256",
          "name": "",
          "type": "uint256"
        }
      ],
      "stateMutability": "view",
      "type": "function"
    },
    {
      "inputs": [
        {
          "internalType": "uint256",
          "name": "tokenId",
          "type": "uint256"
        }
      ],
      "name": "getMetadataJson",
      "outputs": [
        {
          "internalType": "string",
          "name": "",
          "type": "string"
        }
      ],
      "stateMutability": "view",
      "type": "function"
    },
    {
      "inputs": [
        {
          "internalType": "uint256",
          "name": "tokenId",
          "type": "uint256"
        }
      ],
      "name": "getRoyaltiesRecipients",
      "outputs": [
        {
          "internalType": "address payable[]",
          "name": "",
          "type": "address[]"
        }
      ],
      "stateMutability": "view",
      "type": "function"
    },
    {
      "inputs": [
        {
          "internalType": "uint256",
          "name": "tokenId",
          "type": "uint256"
        }
      ],
      "name": "getRoyaltiesBps",
      "outputs": [
        {
          "internalType": "uint256[]",
          "name": "",
          "type": "uint256[]"
        }
      ],
      "stateMutability": "view",
      "type": "function"
    },
    {
      "inputs": [],
      "name": "getCurrentCounter",
      "outputs": [
        {
          "internalType": "uint256",
          "name": "",
          "type": "uint256"
        }
      ],
      "stateMutability": "view",
      "type": "function"
    },
    {
      "inputs": [],
      "name": "getLastTokenID",
      "outputs": [
        {
          "internalType": "uint256",
          "name": "",
          "type": "uint256"
        }
      ],
      "stateMutability": "view",
      "type": "function"
    }
  ],
  "bytecode": "0x608060405234801561001057600080fd5b50614d37806100206000396000f3fe6080604052600436106102e65760003560e01c80638da5cb5b11610184578063d547741f116100d6578063edcbc0bd1161008a578063f5298aca11610064578063f5298aca14610889578063f62d1888146108a9578063f7d027de146108c9576102e6565b8063edcbc0bd1461081c578063f242432a14610849578063f2fde38b14610869576102e6565b8063e24dbeae116100bb578063e24dbeae14610789578063e63ab1e91461079f578063e985e9c5146107d3576102e6565b8063d547741f14610749578063dac0f3d914610769576102e6565b8063a22cb46511610138578063c6f4f0f011610112578063c6f4f0f0146106c7578063ca15c873146106f5578063d539139314610715576102e6565b8063a22cb46514610667578063a6487c5314610687578063c1793c58146106a7576102e6565b806391d148541161016957806391d14854146105f757806395d89b411461063d578063a217fddf14610652576102e6565b80638da5cb5b146105a45780639010d07c146105d7576102e6565b80632eb2c2d61161023d5780635c975abb116101f1578063731133e9116101cb578063731133e91461055a57806373448c461461057a5780638456cb591461058f576102e6565b80635c975abb1461050c5780636b20c45414610525578063715018a614610545576102e6565b806336568abe1161022257806336568abe146104aa5780633f4ba83a146104ca5780634e1273f4146104df576102e6565b80632eb2c2d61461046a5780632f2ff15d1461048a576102e6565b80630e0941371161029f5780631f7fdffa116102795780631f7fdffa146103fa578063248a9ca31461041a5780632e1a7d4d1461044a576102e6565b80630e094137146103a55780630e89341c146103ba5780631c7e78f3146103da576102e6565b806302fe5305116102d057806302fe53051461034e57806306fdde03146103705780630a0e1e8314610392576102e6565b8062fdd58e146102eb57806301ffc9a71461031e575b600080fd5b3480156102f757600080fd5b5061030b610306366004614441565b6108e9565b6040519081526020015b60405180910390f35b34801561032a57600080fd5b5061033e6103393660046146e0565b610997565b6040519015158152602001610315565b34801561035a57600080fd5b5061036e610369366004614718565b6109aa565b005b34801561037c57600080fd5b50610385610a33565b6040516103159190614a76565b61036e6103a036600461446c565b610ac2565b3480156103b157600080fd5b5061030b610ca9565b3480156103c657600080fd5b506103856103d5366004614683565b610cde565b3480156103e657600080fd5b5061036e6103f5366004614683565b610d72565b34801561040657600080fd5b5061036e610415366004614379565b610e4e565b34801561042657600080fd5b5061030b610435366004614683565b60009081526065602052604090206001015490565b34801561045657600080fd5b5061036e610465366004614683565b610efc565b34801561047657600080fd5b5061036e6104853660046141f5565b6110f0565b34801561049657600080fd5b5061036e6104a536600461469b565b611467565b3480156104b657600080fd5b5061036e6104c536600461469b565b61148e565b3480156104d657600080fd5b5061036e6114b0565b3480156104eb57600080fd5b506104ff6104fa3660046145b6565b611556565b6040516103159190614a35565b34801561051857600080fd5b5061012d5460ff1661033e565b34801561053157600080fd5b5061036e610540366004614306565b6116cc565b34801561055157600080fd5b5061036e611765565b34801561056657600080fd5b5061036e610575366004614561565b611819565b34801561058657600080fd5b5061030b611825565b34801561059b57600080fd5b5061036e611836565b3480156105b057600080fd5b506101f5546001600160a01b03165b6040516001600160a01b039091168152602001610315565b3480156105e357600080fd5b506105bf6105f23660046146bf565b6118da565b34801561060357600080fd5b5061033e61061236600461469b565b60009182526065602090815260408084206001600160a01b0393909316845291905290205460ff1690565b34801561064957600080fd5b506103856118f9565b34801561065e57600080fd5b5061030b600081565b34801561067357600080fd5b5061036e610682366004614410565b611907565b34801561069357600080fd5b5061036e6106a2366004614753565b6119ff565b3480156106b357600080fd5b506104ff6106c2366004614683565b611af8565b3480156106d357600080fd5b5061030b6106e2366004614683565b600090815261022d602052604090205490565b34801561070157600080fd5b5061030b610710366004614683565b611c3d565b34801561072157600080fd5b5061030b7f9f2df0fed2c77648de5860a4cc508cd0818c85b8b8a1ab4ceeef8d981c8956a681565b34801561075557600080fd5b5061036e61076436600461469b565b611c54565b34801561077557600080fd5b5061036e610784366004614683565b611c5e565b34801561079557600080fd5b5061022f5461030b565b3480156107ab57600080fd5b5061030b7f65d7a28e3265b37a6474929f336521b332c1681b933f6cb9f3376673440d862a81565b3480156107df57600080fd5b5061033e6107ee3660046141bd565b6001600160a01b03918216600090815260ca6020908152604080832093909416825291909152205460ff1690565b34801561082857600080fd5b5061083c610837366004614683565b611d11565b60405161031591906149e8565b34801561085557600080fd5b5061036e61086436600461429f565b611e63565b34801561087557600080fd5b5061036e6108843660046141a1565b6120be565b34801561089557600080fd5b5061036e6108a436600461452d565b612200565b3480156108b557600080fd5b5061036e6108c4366004614718565b612235565b3480156108d557600080fd5b506103856108e4366004614683565b6122f2565b60006001600160a01b03831661096c5760405162461bcd60e51b815260206004820152602b60248201527f455243313135353a2062616c616e636520717565727920666f7220746865207a60448201527f65726f206164647265737300000000000000000000000000000000000000000060648201526084015b60405180910390fd5b50600081815260c9602090815260408083206001600160a01b03861684529091529020545b92915050565b60006109a282612310565b90505b919050565b6109b5600033610612565b610a275760405162461bcd60e51b815260206004820152603e60248201527f455243313135355072657365744d696e7465725061757365723a206d7573742060448201527f686176652061646d696e20726f6c6520746f20736574206e65772075726900006064820152608401610963565b610a3081612382565b50565b6102278054610a4190614b7e565b80601f0160208091040260200160405190810160405280929190818152602001828054610a6d90614b7e565b8015610aba5780601f10610a8f57610100808354040283529160200191610aba565b820191906000526020600020905b815481529060010190602001808311610a9d57829003601f168201915b505050505081565b60026101c3541415610b165760405162461bcd60e51b815260206004820152601f60248201527f5265656e7472616e637947756172643a207265656e7472616e742063616c6c006044820152606401610963565b60026101c355610b3186610b2a6102305490565b8787611819565b856102296000610b416102305490565b81526020810191909152604001600020805473ffffffffffffffffffffffffffffffffffffffff19166001600160a01b0392909216919091179055825115610b9657610b96610b906102305490565b84612395565b6040805160008152602081018083528151902091610bb691859101614833565b6040516020818303038152906040528051906020012014610be457610be4610bde6102305490565b836126dd565b6040805160008152602081018083528151902091610c0491849101614833565b6040516020818303038152906040528051906020012014610c3257610c32610c2c6102305490565b8261272f565b610c3a61274f565b7ff5c82eda717141c5f0cfeb894e7b7819c158a337b62ec13d412aecad30b0ad9e86610c666102305490565b610c736103d56102305490565b88604051610c8494939291906148f0565b60405180910390a1610c9b61023080546001019055565b505060016101c35550505050565b6000610cb56102305490565b610cc557610230545b9050610cdb565b6001610cd16102305490565b610cbe9190614b3b565b90565b606060cb8054610ced90614b7e565b80601f0160208091040260200160405190810160405280929190818152602001828054610d1990614b7e565b8015610d665780601f10610d3b57610100808354040283529160200191610d66565b820191906000526020600020905b815481529060010190602001808311610d4957829003601f168201915b50505050509050919050565b33610d7c82612829565b6001600160a01b031614610df85760405162461bcd60e51b815260206004820152602360248201527f43616c6c6572206d75737420626520746865206f776e6572206f66207468652060448201527f4e465400000000000000000000000000000000000000000000000000000000006064820152608401610963565b610e01816128b5565b600081815261022c60205260409081902090517f544b1d1249133c50ce89743ed1ca34a815bd50d42b71e6d331a1ac560013a8ec91610e439133918591614929565b60405180910390a150565b610e787f9f2df0fed2c77648de5860a4cc508cd0818c85b8b8a1ab4ceeef8d981c8956a633610612565b610eea5760405162461bcd60e51b815260206004820152603860248201527f455243313135355072657365744d696e7465725061757365723a206d7573742060448201527f68617665206d696e74657220726f6c6520746f206d696e7400000000000000006064820152608401610963565b610ef6848484846128e3565b50505050565b6101f5546001600160a01b03163314610f575760405162461bcd60e51b815260206004820181905260248201527f4f776e61626c653a2063616c6c6572206973206e6f7420746865206f776e65726044820152606401610963565b600081118015610f6a575061022e548111155b6110025760405162461bcd60e51b815260206004820152604760248201527f576974686472617720616d6f756e742073686f756c642062652067726561746560448201527f72207468656e203020616e64206c657373207468656e20636f6e74726163742060648201527f62616c616e636500000000000000000000000000000000000000000000000000608482015260a401610963565b8061022e60008282546110159190614b3b565b9091555050604051600090339083908381818185875af1925050503d806000811461105c576040519150601f19603f3d011682016040523d82523d6000602084013e611061565b606091505b50509050806110b25760405162461bcd60e51b815260206004820152601060248201527f5472616e73666572206661696c65642e000000000000000000000000000000006044820152606401610963565b60408051338152602081018490527f3c897fa64265e543b9d36df079688f87240185d1bf1a937e4c45a56e1167873691015b60405180910390a15050565b81518351146111525760405162461bcd60e51b815260206004820152602860248201527f455243313135353a2069647320616e6420616d6f756e7473206c656e677468206044820152670dad2e6dac2e8c6d60c31b6064820152608401610963565b6001600160a01b0384166111b65760405162461bcd60e51b815260206004820152602560248201527f455243313135353a207472616e7366657220746f20746865207a65726f206164604482015264647265737360d81b6064820152608401610963565b6001600160a01b0385163314806111d257506111d285336107ee565b6112445760405162461bcd60e51b815260206004820152603260248201527f455243313135353a207472616e736665722063616c6c6572206973206e6f742060448201527f6f776e6572206e6f7220617070726f76656400000000000000000000000000006064820152608401610963565b33611253818787878787612adc565b60005b84518110156113f957600085828151811061128157634e487b7160e01b600052603260045260246000fd5b6020026020010151905060008583815181106112ad57634e487b7160e01b600052603260045260246000fd5b602090810291909101810151600084815260c9835260408082206001600160a01b038e1683529093529190912054909150818110156113545760405162461bcd60e51b815260206004820152602a60248201527f455243313135353a20696e73756666696369656e742062616c616e636520666f60448201527f72207472616e73666572000000000000000000000000000000000000000000006064820152608401610963565b61135e8282614b3b565b60c9600085815260200190815260200160002060008c6001600160a01b03166001600160a01b03168152602001908152602001600020819055508160c9600085815260200190815260200160002060008b6001600160a01b03166001600160a01b0316815260200190815260200160002060008282546113de9190614b23565b92505081905550505050806113f290614be6565b9050611256565b50846001600160a01b0316866001600160a01b0316826001600160a01b03167f4a39dc06d4c0dbc64b70af90fd698a233a518aa5d07e595d983b8c0526c8f7fb8787604051611449929190614a48565b60405180910390a461145f818787878787612aea565b505050505050565b6114718282612c9f565b60008281526097602052604090206114899082612d38565b505050565b6114988282612d4d565b60008281526097602052604090206114899082612dd5565b6114da7f65d7a28e3265b37a6474929f336521b332c1681b933f6cb9f3376673440d862a33610612565b61154c5760405162461bcd60e51b815260206004820152603b60248201527f455243313135355072657365744d696e7465725061757365723a206d7573742060448201527f686176652070617573657220726f6c6520746f20756e706175736500000000006064820152608401610963565b611554612dea565b565b606081518351146115cf5760405162461bcd60e51b815260206004820152602960248201527f455243313135353a206163636f756e747320616e6420696473206c656e67746860448201527f206d69736d6174636800000000000000000000000000000000000000000000006064820152608401610963565b6000835167ffffffffffffffff8111156115f957634e487b7160e01b600052604160045260246000fd5b604051908082528060200260200182016040528015611622578160200160208202803683370190505b50905060005b84518110156116c45761168985828151811061165457634e487b7160e01b600052603260045260246000fd5b602002602001015185838151811061167c57634e487b7160e01b600052603260045260246000fd5b60200260200101516108e9565b8282815181106116a957634e487b7160e01b600052603260045260246000fd5b60209081029190910101526116bd81614be6565b9050611628565b509392505050565b6001600160a01b0383163314806116e857506116e883336107ee565b61175a5760405162461bcd60e51b815260206004820152602960248201527f455243313135353a2063616c6c6572206973206e6f74206f776e6572206e6f7260448201527f20617070726f76656400000000000000000000000000000000000000000000006064820152608401610963565b611489838383612e83565b6101f5546001600160a01b031633146117c05760405162461bcd60e51b815260206004820181905260248201527f4f776e61626c653a2063616c6c6572206973206e6f7420746865206f776e65726044820152606401610963565b6101f5546040516000916001600160a01b0316907f8be0079c531659141344cd1fd0a4f28419497f9722a3daafe3b4186f6b6457e0908390a36101f5805473ffffffffffffffffffffffffffffffffffffffff19169055565b610ef6848484846130f6565b60006118316102305490565b905090565b6118607f65d7a28e3265b37a6474929f336521b332c1681b933f6cb9f3376673440d862a33610612565b6118d25760405162461bcd60e51b815260206004820152603960248201527f455243313135355072657365744d696e7465725061757365723a206d7573742060448201527f686176652070617573657220726f6c6520746f207061757365000000000000006064820152608401610963565b6115546131f9565b60008281526097602052604081206118f29083613283565b9392505050565b6102288054610a4190614b7e565b336001600160a01b03831614156119865760405162461bcd60e51b815260206004820152602960248201527f455243313135353a2073657474696e6720617070726f76616c2073746174757360448201527f20666f722073656c6600000000000000000000000000000000000000000000006064820152608401610963565b33600081815260ca602090815260408083206001600160a01b0387168085529252909120805460ff1916841515179055906001600160a01b03167f17307eab39ab6107e8899845ad3d59bd9653f200f220920489ca2b5937696c31836040516119f3911515815260200190565b60405180910390a35050565b600054610100900460ff1680611a18575060005460ff16155b611a7b5760405162461bcd60e51b815260206004820152602e60248201527f496e697469616c697a61626c653a20636f6e747261637420697320616c72656160448201526d191e481a5b9a5d1a585b1a5e995960921b6064820152608401610963565b600054610100900460ff16158015611a9d576000805461ffff19166101011790555b611aa68261328f565b611aaf82613336565b611ab7613434565b8351611acb90610227906020870190613f77565b508251611ae090610228906020860190613f77565b508015610ef6576000805461ff001916905550505050565b600081815261022b60209081526040808320805482518185028101850190935280835260609493849084015b82821015611b6c576000848152602090819020604080518082019091526002850290910180546001600160a01b03168252600190810154828401529083529092019101611b24565b5050505090506000815167ffffffffffffffff811115611b9c57634e487b7160e01b600052604160045260246000fd5b604051908082528060200260200182016040528015611bc5578160200160208202803683370190505b50905060005b82518110156116c457828181518110611bf457634e487b7160e01b600052603260045260246000fd5b602002602001015160200151828281518110611c2057634e487b7160e01b600052603260045260246000fd5b602090810291909101015280611c3581614be6565b915050611bcb565b60008181526097602052604081206109a290613537565b6114988282613541565b611c69600033610612565b611cdb5760405162461bcd60e51b815260206004820152602c60248201527f43616c6c6572206d75737420686176652061646d696e20726f6c6520746f207360448201527f6574206d696e74206665657300000000000000000000000000000000000000006064820152608401610963565b61022f8190556040518181527f0f3b48a5cb203023dd681facda0506fea024143e07ad14ff26c35d22204c310890602001610e43565b600081815261022b60209081526040808320805482518185028101850190935280835260609493849084015b82821015611d85576000848152602090819020604080518082019091526002850290910180546001600160a01b03168252600190810154828401529083529092019101611d3d565b5050505090506000815167ffffffffffffffff811115611db557634e487b7160e01b600052604160045260246000fd5b604051908082528060200260200182016040528015611dde578160200160208202803683370190505b50905060005b82518110156116c457828181518110611e0d57634e487b7160e01b600052603260045260246000fd5b602002602001015160000151828281518110611e3957634e487b7160e01b600052603260045260246000fd5b6001600160a01b039092166020928302919091019091015280611e5b81614be6565b915050611de4565b6001600160a01b038416611ec75760405162461bcd60e51b815260206004820152602560248201527f455243313135353a207472616e7366657220746f20746865207a65726f206164604482015264647265737360d81b6064820152608401610963565b6001600160a01b038516331480611ee35750611ee385336107ee565b611f555760405162461bcd60e51b815260206004820152602960248201527f455243313135353a2063616c6c6572206973206e6f74206f776e6572206e6f7260448201527f20617070726f76656400000000000000000000000000000000000000000000006064820152608401610963565b33611f74818787611f65886135ce565b611f6e886135ce565b87612adc565b600084815260c9602090815260408083206001600160a01b038a1684529091529020548381101561200d5760405162461bcd60e51b815260206004820152602a60248201527f455243313135353a20696e73756666696369656e742062616c616e636520666f60448201527f72207472616e73666572000000000000000000000000000000000000000000006064820152608401610963565b6120178482614b3b565b600086815260c9602090815260408083206001600160a01b038c81168552925280832093909355881681529081208054869290612055908490614b23565b909155505060408051868152602081018690526001600160a01b03808916928a821692918616917fc3d58168c5ae7397731d063d5bbf3d657854427343f4c083240f7aacaa2d0f62910160405180910390a46120b5828888888888613627565b50505050505050565b6101f5546001600160a01b031633146121195760405162461bcd60e51b815260206004820181905260248201527f4f776e61626c653a2063616c6c6572206973206e6f7420746865206f776e65726044820152606401610963565b6001600160a01b0381166121955760405162461bcd60e51b815260206004820152602660248201527f4f776e61626c653a206e6577206f776e657220697320746865207a65726f206160448201527f64647265737300000000000000000000000000000000000000000000000000006064820152608401610963565b6101f5546040516001600160a01b038084169216907f8be0079c531659141344cd1fd0a4f28419497f9722a3daafe3b4186f6b6457e090600090a36101f5805473ffffffffffffffffffffffffffffffffffffffff19166001600160a01b0392909216919091179055565b600082815261022960205260409020805473ffffffffffffffffffffffffffffffffffffffff19169055611489838383613732565b600054610100900460ff168061224e575060005460ff16155b6122b15760405162461bcd60e51b815260206004820152602e60248201527f496e697469616c697a61626c653a20636f6e747261637420697320616c72656160448201526d191e481a5b9a5d1a585b1a5e995960921b6064820152608401610963565b600054610100900460ff161580156122d3576000805461ffff19166101011790555b6122dc826138b7565b80156122ee576000805461ff00191690555b5050565b600081815261022a60205260409020805460609190610ced90614b7e565b60006001600160e01b031982167fd9b67a2600000000000000000000000000000000000000000000000000000000148061237357506001600160e01b031982167f0e89341c00000000000000000000000000000000000000000000000000000000145b806109a257506109a28261399f565b80516122ee9060cb906020840190613f77565b600082815261022960205260409020546001600160a01b03166124205760405162461bcd60e51b815260206004820152602d60248201527f455243313135353a20617070726f76656420717565727920666f72206e6f6e6560448201527f78697374656e7420746f6b656e000000000000000000000000000000000000006064820152608401610963565b60005b81518110156114895760006001600160a01b031682828151811061245757634e487b7160e01b600052603260045260246000fd5b6020026020010151600001516001600160a01b031614156124ba5760405162461bcd60e51b815260206004820152601b60248201527f526563697069656e742073686f756c642062652070726573656e7400000000006044820152606401610963565b60008282815181106124dc57634e487b7160e01b600052603260045260246000fd5b6020026020010151602001511161255b5760405162461bcd60e51b815260206004820152602260248201527f526f79616c746965732076616c75652073686f756c6420626520706f7369746960448201527f76650000000000000000000000000000000000000000000000000000000000006064820152608401610963565b600083815261022b60205260409020825183908390811061258c57634e487b7160e01b600052603260045260246000fd5b60209081029190910181015182546001808201855560009485528385208351600290930201805473ffffffffffffffffffffffffffffffffffffffff19166001600160a01b039093169290921782559190920151910155825167ffffffffffffffff81111561260b57634e487b7160e01b600052604160045260246000fd5b604051908082528060200260200182016040528015612634578160200160208202803683370190505b5090506000835167ffffffffffffffff81111561266157634e487b7160e01b600052604160045260246000fd5b60405190808252806020026020018201604052801561268a578160200160208202803683370190505b5090507f0daca41cf9c4835da0ce078144fcf7e2000a66f040f7e82fe43f4e5d234bb6bb8583836040516126c093929190614a89565b60405180910390a1505080806126d590614be6565b915050612423565b600082815261022a6020908152604090912082516126fd92840190613f77565b507f701be7c18389620e1de28c2c2c047271c46744dea76cb7667f428af200ef4dde82826040516110e4929190614ae6565b600082815261022c60209081526040909120825161148992840190613f77565b61022f54156127d05761022f5434146127d05760405162461bcd60e51b815260206004820152603260248201527f57726f6e6720666565732076616c75652073656e7420746f2047686f73744d6160448201527f726b657420666f72206d696e74206665657300000000000000000000000000006064820152608401610963565b3415611554573461022e60008282546127e99190614b23565b9091555050604080513381523460208201527f86fd2931c72e6506df6648fdf34478f061d20ac75b5a331312bc3a65b86d829a91015b60405180910390a1565b600081815261022960205260408120546001600160a01b0316806109a25760405162461bcd60e51b815260206004820152602a60248201527f455243313135353a206f776e657220717565727920666f72206e6f6e6578697360448201527f74656e7420746f6b656e000000000000000000000000000000000000000000006064820152608401610963565b600081815261022d60205260409020546128d0906001614b23565b600091825261022d602052604090912055565b6001600160a01b0384166129435760405162461bcd60e51b815260206004820152602160248201527f455243313135353a206d696e7420746f20746865207a65726f206164647265736044820152607360f81b6064820152608401610963565b81518351146129a55760405162461bcd60e51b815260206004820152602860248201527f455243313135353a2069647320616e6420616d6f756e7473206c656e677468206044820152670dad2e6dac2e8c6d60c31b6064820152608401610963565b336129b581600087878787612adc565b60005b8451811015612a6d578381815181106129e157634e487b7160e01b600052603260045260246000fd5b602002602001015160c96000878481518110612a0d57634e487b7160e01b600052603260045260246000fd5b602002602001015181526020019081526020016000206000886001600160a01b03166001600160a01b031681526020019081526020016000206000828254612a559190614b23565b90915550819050612a6581614be6565b9150506129b8565b50846001600160a01b031660006001600160a01b0316826001600160a01b03167f4a39dc06d4c0dbc64b70af90fd698a233a518aa5d07e595d983b8c0526c8f7fb8787604051612abe929190614a48565b60405180910390a4612ad581600087878787612aea565b5050505050565b61145f8686868686866139dd565b6001600160a01b0384163b1561145f5760405163bc197c8160e01b81526001600160a01b0385169063bc197c8190612b2e908990899088908890889060040161484f565b602060405180830381600087803b158015612b4857600080fd5b505af1925050508015612b78575060408051601f3d908101601f19168201909252612b75918101906146fc565b60015b612c2e57612b84614c2d565b806308c379a01415612bbe5750612b99614c44565b80612ba45750612bc0565b8060405162461bcd60e51b81526004016109639190614a76565b505b60405162461bcd60e51b815260206004820152603460248201527f455243313135353a207472616e7366657220746f206e6f6e204552433131353560448201527f526563656976657220696d706c656d656e7465720000000000000000000000006064820152608401610963565b6001600160e01b0319811663bc197c8160e01b146120b55760405162461bcd60e51b815260206004820152602860248201527f455243313135353a204552433131353552656365697665722072656a656374656044820152676420746f6b656e7360c01b6064820152608401610963565b600082815260656020526040902060010154612cbc905b33610612565b612d2e5760405162461bcd60e51b815260206004820152602f60248201527f416363657373436f6e74726f6c3a2073656e646572206d75737420626520616e60448201527f2061646d696e20746f206772616e7400000000000000000000000000000000006064820152608401610963565b6122ee8282613a57565b60006118f2836001600160a01b038416613af9565b6001600160a01b0381163314612dcb5760405162461bcd60e51b815260206004820152602f60248201527f416363657373436f6e74726f6c3a2063616e206f6e6c792072656e6f756e636560448201527f20726f6c657320666f722073656c6600000000000000000000000000000000006064820152608401610963565b6122ee8282613b48565b60006118f2836001600160a01b038416613bcb565b61012d5460ff16612e3d5760405162461bcd60e51b815260206004820152601460248201527f5061757361626c653a206e6f74207061757365640000000000000000000000006044820152606401610963565b61012d805460ff191690557f5db9ee0a495bf2e6ff9c91a7834c1ba4fdd244a5e8aa4e537bd38aeae4b073aa335b6040516001600160a01b03909116815260200161281f565b6001600160a01b038316612ee55760405162461bcd60e51b815260206004820152602360248201527f455243313135353a206275726e2066726f6d20746865207a65726f206164647260448201526265737360e81b6064820152608401610963565b8051825114612f475760405162461bcd60e51b815260206004820152602860248201527f455243313135353a2069647320616e6420616d6f756e7473206c656e677468206044820152670dad2e6dac2e8c6d60c31b6064820152608401610963565b6000339050612f6a81856000868660405180602001604052806000815250612adc565b60005b8351811015613097576000848281518110612f9857634e487b7160e01b600052603260045260246000fd5b602002602001015190506000848381518110612fc457634e487b7160e01b600052603260045260246000fd5b602090810291909101810151600084815260c9835260408082206001600160a01b038c1683529093529190912054909150818110156130515760405162461bcd60e51b8152602060048201526024808201527f455243313135353a206275726e20616d6f756e7420657863656564732062616c604482015263616e636560e01b6064820152608401610963565b61305b8282614b3b565b600093845260c9602090815260408086206001600160a01b038c168752909152909320929092555081905061308f81614be6565b915050612f6d565b5060006001600160a01b0316846001600160a01b0316826001600160a01b03167f4a39dc06d4c0dbc64b70af90fd698a233a518aa5d07e595d983b8c0526c8f7fb86866040516130e8929190614a48565b60405180910390a450505050565b6001600160a01b0384166131565760405162461bcd60e51b815260206004820152602160248201527f455243313135353a206d696e7420746f20746865207a65726f206164647265736044820152607360f81b6064820152608401610963565b3361316781600087611f65886135ce565b600084815260c9602090815260408083206001600160a01b038916845290915281208054859290613199908490614b23565b909155505060408051858152602081018590526001600160a01b0380881692600092918516917fc3d58168c5ae7397731d063d5bbf3d657854427343f4c083240f7aacaa2d0f62910160405180910390a4612ad581600087878787613627565b61012d5460ff161561324d5760405162461bcd60e51b815260206004820152601060248201527f5061757361626c653a20706175736564000000000000000000000000000000006044820152606401610963565b61012d805460ff191660011790557f62e78cea01bee320cd4e420270b5ea74000d11b0c9f74754ebdbfc544b05a258612e6b3390565b60006118f28383613ce8565b600054610100900460ff16806132a8575060005460ff16155b61330b5760405162461bcd60e51b815260206004820152602e60248201527f496e697469616c697a61626c653a20636f6e747261637420697320616c72656160448201526d191e481a5b9a5d1a585b1a5e995960921b6064820152608401610963565b600054610100900460ff1615801561332d576000805461ffff19166101011790555b6122dc82612382565b600054610100900460ff168061334f575060005460ff16155b6133b25760405162461bcd60e51b815260206004820152602e60248201527f496e697469616c697a61626c653a20636f6e747261637420697320616c72656160448201526d191e481a5b9a5d1a585b1a5e995960921b6064820152608401610963565b600054610100900460ff161580156133d4576000805461ffff19166101011790555b6133e06000335b613d97565b61340a7f9f2df0fed2c77648de5860a4cc508cd0818c85b8b8a1ab4ceeef8d981c8956a6336133db565b6122dc7f65d7a28e3265b37a6474929f336521b332c1681b933f6cb9f3376673440d862a336133db565b600054610100900460ff168061344d575060005460ff16155b6134b05760405162461bcd60e51b815260206004820152602e60248201527f496e697469616c697a61626c653a20636f6e747261637420697320616c72656160448201526d191e481a5b9a5d1a585b1a5e995960921b6064820152608401610963565b600054610100900460ff161580156134d2576000805461ffff19166101011790555b6101f5805473ffffffffffffffffffffffffffffffffffffffff19163390811790915560405181906000907f8be0079c531659141344cd1fd0a4f28419497f9722a3daafe3b4186f6b6457e0908290a3508015610a30576000805461ff001916905550565b60006109a2825490565b60008281526065602052604090206001015461355c90612cb6565b612dcb5760405162461bcd60e51b815260206004820152603060248201527f416363657373436f6e74726f6c3a2073656e646572206d75737420626520616e60448201527f2061646d696e20746f207265766f6b65000000000000000000000000000000006064820152608401610963565b6040805160018082528183019092526060916000919060208083019080368337019050509050828160008151811061361657634e487b7160e01b600052603260045260246000fd5b602090810291909101015292915050565b6001600160a01b0384163b1561145f5760405163f23a6e6160e01b81526001600160a01b0385169063f23a6e619061366b90899089908890889088906004016148ad565b602060405180830381600087803b15801561368557600080fd5b505af19250505080156136b5575060408051601f3d908101601f191682019092526136b2918101906146fc565b60015b6136c157612b84614c2d565b6001600160e01b0319811663f23a6e6160e01b146120b55760405162461bcd60e51b815260206004820152602860248201527f455243313135353a204552433131353552656365697665722072656a656374656044820152676420746f6b656e7360c01b6064820152608401610963565b6001600160a01b0383166137945760405162461bcd60e51b815260206004820152602360248201527f455243313135353a206275726e2066726f6d20746865207a65726f206164647260448201526265737360e81b6064820152608401610963565b336137c3818560006137a5876135ce565b6137ae876135ce565b60405180602001604052806000815250612adc565b600083815260c9602090815260408083206001600160a01b0388168452909152902054828110156138425760405162461bcd60e51b8152602060048201526024808201527f455243313135353a206275726e20616d6f756e7420657863656564732062616c604482015263616e636560e01b6064820152608401610963565b61384c8382614b3b565b600085815260c9602090815260408083206001600160a01b038a811680865291845282852095909555815189815292830188905292938616917fc3d58168c5ae7397731d063d5bbf3d657854427343f4c083240f7aacaa2d0f62910160405180910390a45050505050565b600054610100900460ff16806138d0575060005460ff16155b6139335760405162461bcd60e51b815260206004820152602e60248201527f496e697469616c697a61626c653a20636f6e747261637420697320616c72656160448201526d191e481a5b9a5d1a585b1a5e995960921b6064820152608401610963565b600054610100900460ff16158015613955576000805461ffff19166101011790555b61395d613da1565b613965613da1565b61396d613da1565b613975613da1565b61397e8261328f565b613986613da1565b61398e613e53565b613996613da1565b6122dc82613336565b60006001600160e01b031982167f5a05180f0000000000000000000000000000000000000000000000000000000014806109a257506109a282613f10565b61012d5460ff161561145f5760405162461bcd60e51b815260206004820152602c60248201527f455243313135355061757361626c653a20746f6b656e207472616e736665722060448201527f7768696c652070617573656400000000000000000000000000000000000000006064820152608401610963565b60008281526065602090815260408083206001600160a01b038516845290915290205460ff166122ee5760008281526065602090815260408083206001600160a01b03851684529091529020805460ff19166001179055613ab53390565b6001600160a01b0316816001600160a01b0316837f2f8788117e7eff1d82e926ec794901d17c78024a50270940304540a733656f0d60405160405180910390a45050565b6000818152600183016020526040812054613b4057508154600181810184556000848152602080822090930184905584548482528286019093526040902091909155610991565b506000610991565b60008281526065602090815260408083206001600160a01b038516845290915290205460ff16156122ee5760008281526065602090815260408083206001600160a01b0385168085529252808320805460ff1916905551339285917ff6391f5c32d9c69d2a47ea670b442974b53935d1edc7fd64eb21e047a839171b9190a45050565b60008181526001830160205260408120548015613cde576000613bef600183614b3b565b8554909150600090613c0390600190614b3b565b90506000866000018281548110613c2a57634e487b7160e01b600052603260045260246000fd5b9060005260206000200154905080876000018481548110613c5b57634e487b7160e01b600052603260045260246000fd5b600091825260209091200155613c72836001614b23565b60008281526001890160205260409020558654879080613ca257634e487b7160e01b600052603160045260246000fd5b60019003818190600052602060002001600090559055866001016000878152602001908152602001600020600090556001945050505050610991565b6000915050610991565b81546000908210613d615760405162461bcd60e51b815260206004820152602260248201527f456e756d657261626c655365743a20696e646578206f7574206f6620626f756e60448201527f64730000000000000000000000000000000000000000000000000000000000006064820152608401610963565b826000018281548110613d8457634e487b7160e01b600052603260045260246000fd5b9060005260206000200154905092915050565b6114718282612d2e565b600054610100900460ff1680613dba575060005460ff16155b613e1d5760405162461bcd60e51b815260206004820152602e60248201527f496e697469616c697a61626c653a20636f6e747261637420697320616c72656160448201526d191e481a5b9a5d1a585b1a5e995960921b6064820152608401610963565b600054610100900460ff16158015613e3f576000805461ffff19166101011790555b8015610a30576000805461ff001916905550565b600054610100900460ff1680613e6c575060005460ff16155b613ecf5760405162461bcd60e51b815260206004820152602e60248201527f496e697469616c697a61626c653a20636f6e747261637420697320616c72656160448201526d191e481a5b9a5d1a585b1a5e995960921b6064820152608401610963565b600054610100900460ff16158015613ef1576000805461ffff19166101011790555b61012d805460ff191690558015610a30576000805461ff001916905550565b60006001600160e01b031982167f7965db0b0000000000000000000000000000000000000000000000000000000014806109a257507f01ffc9a7000000000000000000000000000000000000000000000000000000006001600160e01b03198316146109a2565b828054613f8390614b7e565b90600052602060002090601f016020900481019282613fa55760008555613feb565b82601f10613fbe57805160ff1916838001178555613feb565b82800160010185558215613feb579182015b82811115613feb578251825591602001919060010190613fd0565b50613ff7929150613ffb565b5090565b5b80821115613ff75760008155600101613ffc565b80356109a581614cd6565b600082601f83011261402b578081fd5b8135602061403882614aff565b604080516140468382614bb9565b8481528381019250868401600686901b88018501891015614065578687fd5b865b868110156140b05783828b03121561407d578788fd5b83516140898582614bb9565b823561409481614cd6565b8152828701358782015285529385019390830190600101614067565b509098975050505050505050565b600082601f8301126140ce578081fd5b813560206140db82614aff565b6040516140e88282614bb9565b8381528281019150858301600585901b87018401881015614107578586fd5b855b8581101561412557813584529284019290840190600101614109565b5090979650505050505050565b600082601f830112614142578081fd5b813567ffffffffffffffff81111561415c5761415c614c17565b604051614173601f8301601f191660200182614bb9565b818152846020838601011115614187578283fd5b816020850160208301379081016020019190915292915050565b6000602082840312156141b2578081fd5b81356118f281614cd6565b600080604083850312156141cf578081fd5b82356141da81614cd6565b915060208301356141ea81614cd6565b809150509250929050565b600080600080600060a0868803121561420c578081fd5b853561421781614cd6565b9450602086013561422781614cd6565b9350604086013567ffffffffffffffff80821115614243578283fd5b61424f89838a016140be565b94506060880135915080821115614264578283fd5b61427089838a016140be565b93506080880135915080821115614285578283fd5b5061429288828901614132565b9150509295509295909350565b600080600080600060a086880312156142b6578081fd5b85356142c181614cd6565b945060208601356142d181614cd6565b93506040860135925060608601359150608086013567ffffffffffffffff8111156142fa578182fd5b61429288828901614132565b60008060006060848603121561431a578081fd5b833561432581614cd6565b9250602084013567ffffffffffffffff80821115614341578283fd5b61434d878388016140be565b93506040860135915080821115614362578283fd5b5061436f868287016140be565b9150509250925092565b6000806000806080858703121561438e578182fd5b843561439981614cd6565b9350602085013567ffffffffffffffff808211156143b5578384fd5b6143c1888389016140be565b945060408701359150808211156143d6578384fd5b6143e2888389016140be565b935060608701359150808211156143f7578283fd5b5061440487828801614132565b91505092959194509250565b60008060408385031215614422578182fd5b823561442d81614cd6565b9150602083013580151581146141ea578182fd5b60008060408385031215614453578182fd5b823561445e81614cd6565b946020939093013593505050565b60008060008060008060c08789031215614484578384fd5b61448d87614010565b955060208701359450604087013567ffffffffffffffff808211156144b0578586fd5b6144bc8a838b01614132565b955060608901359150808211156144d1578283fd5b6144dd8a838b0161401b565b945060808901359150808211156144f2578283fd5b6144fe8a838b01614132565b935060a0890135915080821115614513578283fd5b5061452089828a01614132565b9150509295509295509295565b600080600060608486031215614541578081fd5b833561454c81614cd6565b95602085013595506040909401359392505050565b60008060008060808587031215614576578182fd5b843561458181614cd6565b93506020850135925060408501359150606085013567ffffffffffffffff8111156145aa578182fd5b61440487828801614132565b600080604083850312156145c8578182fd5b823567ffffffffffffffff808211156145df578384fd5b818501915085601f8301126145f2578384fd5b813560206145ff82614aff565b60405161460c8282614bb9565b8381528281019150858301600585901b870184018b101561462b578889fd5b8896505b8487101561465657803561464281614cd6565b83526001969096019591830191830161462f565b509650508601359250508082111561466c578283fd5b50614679858286016140be565b9150509250929050565b600060208284031215614694578081fd5b5035919050565b600080604083850312156146ad578182fd5b8235915060208301356141ea81614cd6565b600080604083850312156146d1578182fd5b50508035926020909101359150565b6000602082840312156146f1578081fd5b81356118f281614ceb565b60006020828403121561470d578081fd5b81516118f281614ceb565b600060208284031215614729578081fd5b813567ffffffffffffffff81111561473f578182fd5b61474b84828501614132565b949350505050565b600080600060608486031215614767578081fd5b833567ffffffffffffffff8082111561477e578283fd5b61478a87838801614132565b9450602086013591508082111561479f578283fd5b6147ab87838801614132565b935060408601359150808211156147c0578283fd5b5061436f86828701614132565b6000815180845260208085019450808401835b838110156147fc578151875295820195908201906001016147e0565b509495945050505050565b6000815180845261481f816020860160208601614b52565b601f01601f19169290920160200192915050565b60008251614845818460208701614b52565b9190910192915050565b60006001600160a01b03808816835280871660208401525060a0604083015261487b60a08301866147cd565b828103606084015261488d81866147cd565b905082810360808401526148a18185614807565b98975050505050505050565b60006001600160a01b03808816835280871660208401525084604083015283606083015260a060808301526148e560a0830184614807565b979650505050505050565b60006001600160a01b0386168252846020830152608060408301526149186080830185614807565b905082606083015295945050505050565b60006001600160a01b0385168252602084818401526060604084015281845483600182811c91508083168061495f57607f831692505b85831081141561497d57634e487b7160e01b87526022600452602487fd5b606088018390526080880181801561499c57600181146149ad576149d7565b60ff198616825287820196506149d7565b60008b815260209020895b868110156149d1578154848201529085019089016149b8565b83019750505b50949b9a5050505050505050505050565b6020808252825182820181905260009190848201906040850190845b81811015614a295783516001600160a01b031683529284019291840191600101614a04565b50909695505050505050565b6000602082526118f260208301846147cd565b600060408252614a5b60408301856147cd565b8281036020840152614a6d81856147cd565b95945050505050565b6000602082526118f26020830184614807565b60006060820185835260206060818501528186518084526080860191508288019350845b81811015614ad25784516001600160a01b031683529383019391830191600101614aad565b505084810360408601526148a181876147cd565b60008382526040602083015261474b6040830184614807565b600067ffffffffffffffff821115614b1957614b19614c17565b5060051b60200190565b60008219821115614b3657614b36614c01565b500190565b600082821015614b4d57614b4d614c01565b500390565b60005b83811015614b6d578181015183820152602001614b55565b83811115610ef65750506000910152565b600181811c90821680614b9257607f821691505b60208210811415614bb357634e487b7160e01b600052602260045260246000fd5b50919050565b601f8201601f1916810167ffffffffffffffff81118282101715614bdf57614bdf614c17565b6040525050565b6000600019821415614bfa57614bfa614c01565b5060010190565b634e487b7160e01b600052601160045260246000fd5b634e487b7160e01b600052604160045260246000fd5b600060033d1115610cdb57600481823e5160e01c90565b600060443d1015614c5457610cdb565b6040516003193d81016004833e81513d67ffffffffffffffff8160248401118184111715614c86575050505050610cdb565b8285019150815181811115614ca057505050505050610cdb565b843d8701016020828501011115614cbc57505050505050610cdb565b614ccb60208286010187614bb9565b509094505050505090565b6001600160a01b0381168114610a3057600080fd5b6001600160e01b031981168114610a3057600080fdfea264697066735822122097304d51733205dd69d89a848e610f8f916c7fd4057f520387d7b124cd3fb01864736f6c63430008030033",
  "immutableReferences": {},
  "source": "// SPDX-License-Identifier: MIT\npragma solidity ^0.8.3;\n\nimport \"./ERC1155PresetMinterPauserUpgradeableCustom.sol\";\nimport \"@openzeppelin/contracts-upgradeable/utils/CountersUpgradeable.sol\";\nimport \"@openzeppelin/contracts-upgradeable/security/ReentrancyGuardUpgradeable.sol\";\nimport \"@openzeppelin/contracts-upgradeable/access/OwnableUpgradeable.sol\";\n\n/**\n * @dev ERC1155 token with minting, burning, pause, royalties & lock content functions.\n */\n\ncontract GhostMarketERC1155 is Initializable, ERC1155PresetMinterPauserUpgradeable, ReentrancyGuardUpgradeable, OwnableUpgradeable {\n\tstring public name;\n\tstring public symbol;\n\n\t// struct for royalties fees\n\tstruct Royalty {\n\t\taddress payable recipient;\n\t\tuint256 value;\n\t}\n\n    mapping (uint256 => address) private _owners;\n\n\n\t// tokenId => attributes array\n\tmapping(uint256 => string) internal _metadataJson;\n\n\t// tokenId => royalties array\n\tmapping(uint256 => Royalty[]) internal _royalties;\n\n\t// tokenId => locked content array\n\tmapping(uint256 => string) internal _lockedContent;\n\n\t// tokenId => locked content view counter array\n\tmapping(uint256 => uint256) internal _lockedContentViewTracker;\n\n\t// events\n\tevent RoyaltiesFeesSet(uint256 tokenId, address[] recipients, uint256[] bps);\n\tevent LockedContentViewed(address msgSender, uint256 tokenId, string lockedContent);\n\tevent AttributesSet(uint256 tokenId, string metadataJson);\n\tevent MintFeesWithdrawn(address feeWithdrawer, uint256 withdrawAmount);\n\tevent MintFeesChanged(uint256 newValue);\n\tevent MintFeesPaid(address sender, uint256 value);\n\tevent Minted(address toAddress, uint256 tokenId, string tokenURI, uint256 amount);\n\n    // mint fees balance\n\tuint256 internal _payedMintFeesBalance;\n\n\t// mint fees value\n\tuint256 internal _ghostmarketMintFees;\n\n\tfunction initialize(string memory _name, string memory _symbol, string memory uri)\n        public\n        virtual\n        initializer\n    {\n\t\t__ERC1155_init_unchained(uri);\n\t\t__ERC1155PresetMinterPauser_init_unchained(uri);\n\t\t__Ownable_init_unchained();\n\t\tname = _name;\n\t\tsymbol = _symbol;\n\t}\n\n\tusing CountersUpgradeable for CountersUpgradeable.Counter;\n\n\t// _tokenIdTracker to gnerate automated token IDs\n\tCountersUpgradeable.Counter private _tokenIdTracker;\n\n    /**\n     * @dev save owner address for NFT\n     */\n    function _ownerOf(uint256 tokenId) internal view returns (address) {\n        address owner = _owners[tokenId];\n        require(owner != address(0), \"ERC1155: owner query for nonexistent token\");\n        return owner;\n    }\n\n    /**\n     * @dev check if msg.sender is owner of NFT id\n     */\n    function _exists(uint256 tokenId) internal view returns (bool) {\n        return _owners[tokenId] != address(0);\n    }\n\n    function burn(address account, uint256 tokenId, uint256 value) public virtual override {\n        delete _owners[tokenId];\n        super._burn(account, tokenId, value);\n    }\n\n\t/**\n\t * @dev set a NFT custom attributes to contract storage\n\t * emits AttributesSet event\n\t */\n\tfunction _setMetadataJson(uint256 tokenId, string memory metadataJson)\n        internal\n    {\n\t\t_metadataJson[tokenId] = metadataJson;\n\t\temit AttributesSet(tokenId, metadataJson);\n\t}\n\n\t/**\n\t * @dev increment a NFT locked content view tracker\n\t */\n\tfunction _incrementCurrentLockedContentViewTracker(uint256 tokenId)\n        internal\n    {\n\t\t_lockedContentViewTracker[tokenId] = _lockedContentViewTracker[tokenId] + 1;\n\t}\n\n    /**\n\t * @dev set a NFT royalties fees & recipients\n\t * fee basis points 10000 = 100%\n\t * emits RoyaltiesFeesSet event if set\n\t */\n\tfunction _saveRoyalties(uint256 tokenId, Royalty[] memory royalties)\n        internal\n    {\n        require(_exists(tokenId), \"ERC1155: approved query for nonexistent token\");\n\t\tfor (uint256 i = 0; i < royalties.length; i++) {\n\t\t\trequire(royalties[i].recipient != address(0x0), \"Recipient should be present\");\n\t\t\trequire(royalties[i].value > 0, \"Royalties value should be positive\");\n\t\t\t_royalties[tokenId].push(royalties[i]);\n\t\t\taddress[] memory recipients = new address[](royalties.length);\n\t\t\tuint256[] memory bps = new uint256[](royalties.length);\n\t\t\temit RoyaltiesFeesSet(tokenId, recipients, bps);\n\t\t}\n\t}\n\n\t/**\n\t * @dev set a NFT locked content as string\n\t */\n\tfunction _setLockedContent(uint256 tokenId, string memory content)\n        internal\n    {\n\t\t_lockedContent[tokenId] = content;\n\t}\n\n\t/**\n\t * @dev check mint fees sent to contract\n\t * emits MintFeesPaid event if set\n\t */\n\tfunction _checkMintFees()\n        internal\n    {\n\t\tif (_ghostmarketMintFees > 0) {\n\t\t\trequire(msg.value == _ghostmarketMintFees, \"Wrong fees value sent to GhostMarket for mint fees\");\n\t\t}\n\t\tif (msg.value > 0) {\n\t\t\t_payedMintFeesBalance += msg.value;\n\t\t\temit MintFeesPaid(msg.sender, msg.value);\n\t\t}\n\t}\n\n\t/**\n\t * @dev mint NFT, set royalties, set metadata json, set lockedcontent\n\t * emits Minted event\n\t */\n\tfunction mintGhost(address to, uint256 amount, bytes memory data, Royalty[] memory royalties, string memory metadata, string memory lockedcontent)\n        external\n        payable\n        nonReentrant\n    {\n\t\tmint(to, _tokenIdTracker.current(), amount, data);\n        _owners[_tokenIdTracker.current()] = to;\n\t\tif (royalties.length > 0) {\n\t\t\t_saveRoyalties(_tokenIdTracker.current(), royalties);\n\t\t}\n\t\tif (keccak256(abi.encodePacked(metadata)) != keccak256(abi.encodePacked(\"\"))) {\n\t\t\t_setMetadataJson(_tokenIdTracker.current(), metadata);\n\t\t}\n\t\tif (keccak256(abi.encodePacked(lockedcontent)) != keccak256(abi.encodePacked(\"\"))) {\n\t\t\t_setLockedContent(_tokenIdTracker.current(), lockedcontent);\n\t\t}\n\t\t_checkMintFees();\n\t\temit Minted(to, _tokenIdTracker.current(), uri(_tokenIdTracker.current()), amount);\n\t\t_tokenIdTracker.increment();\n\t}\n\n\t/**\n\t * @dev withdraw contract balance\n\t * emits MintFeesWithdrawn event\n\t */\n\tfunction withdraw(uint256 withdrawAmount)\n        external\n        onlyOwner\n    {\n\t\trequire(withdrawAmount > 0 && withdrawAmount <= _payedMintFeesBalance, \"Withdraw amount should be greater then 0 and less then contract balance\");\n\t\t_payedMintFeesBalance -= withdrawAmount;\n\t\t(bool success, ) = msg.sender.call{value: withdrawAmount}(\"\");\n\t\trequire(success, \"Transfer failed.\");\n\t\temit MintFeesWithdrawn(msg.sender, withdrawAmount);\n\t}\n\n    /**\n\t * @dev sets Ghostmarket mint fees as uint256\n\t * emits MintFeesChanged event\n\t */\n\tfunction setGhostmarketMintFee(uint256 gmmf)\n        external\n    {\n\t\trequire(hasRole(DEFAULT_ADMIN_ROLE, _msgSender()), \"Caller must have admin role to set mint fees\");\n\t\t_ghostmarketMintFees = gmmf;\n\t\temit MintFeesChanged(_ghostmarketMintFees);\n\t}\n\n\t/**\n\t * @return get Ghostmarket mint fees\n\t */\n\tfunction getGhostmarketMintFees()\n        external\n        view\n        returns (uint256)\n    {\n\t\treturn _ghostmarketMintFees;\n\t}\n\n\t/**\n\t * @dev get locked content for a NFT\n\t * emits LockedContentViewed event\n\t */\n\tfunction getLockedContent(uint256 tokenId)\n        external\n    {\n        require(_ownerOf(tokenId) == msg.sender, \"Caller must be the owner of the NFT\");\n   \n\t\t_incrementCurrentLockedContentViewTracker(tokenId);\n\t\temit LockedContentViewed(msg.sender, tokenId, _lockedContent[tokenId]);\n\t}\n\n\t/**\n\t * @dev get a NFT current locked content view tracker\n\t */\n\tfunction getCurrentLockedContentViewTracker(uint256 tokenId)\n        external\n        view\n        returns (uint256)\n    {\n\t\treturn _lockedContentViewTracker[tokenId];\n\t}\n\n\t/**\n\t * @dev get a NFT custom attributes\n\t */\n\tfunction getMetadataJson(uint256 tokenId)\n        external\n        view\n        returns (string memory)\n    {\n\t\treturn _metadataJson[tokenId];\n\t}\n\n\t/**\n\t * @dev get a NFT royalties recipients\n\t */\n\tfunction getRoyaltiesRecipients(uint256 tokenId)\n        external\n        view\n        returns (address payable[] memory)\n    {\n\t\tRoyalty[] memory royalties = _royalties[tokenId];\n\t\taddress payable[] memory result = new address payable[](royalties.length);\n\t\tfor (uint256 i = 0; i < royalties.length; i++) {\n\t\t\tresult[i] = royalties[i].recipient;\n\t\t}\n\t\treturn result;\n\t}\n\n\t/**\n\t * @dev get a NFT royalties fees\n\t * fee basis points 10000 = 100%\n\t */\n\tfunction getRoyaltiesBps(uint256 tokenId)\n        external\n        view\n        returns (uint256[] memory)\n    {\n\t\tRoyalty[] memory royalties = _royalties[tokenId];\n\t\tuint256[] memory result = new uint256[](royalties.length);\n\t\tfor (uint256 i = 0; i < royalties.length; i++) {\n\t\t\tresult[i] = royalties[i].value;\n\t\t}\n\t\treturn result;\n\t}\n\n\t/**\n\t * @dev current _tokenIdTracker\n\t */\n\tfunction getCurrentCounter() external view returns (uint256) {\n\t\treturn _tokenIdTracker.current();\n\t}\n\n\t/**\n\t * @dev get last minted token id /  _tokenIdTracker\n\t */\n\tfunction getLastTokenID() external view returns (uint256) {\n\t\tif (_tokenIdTracker.current() == 0) {\n\t\t\treturn _tokenIdTracker.current();\n\t\t} else return _tokenIdTracker.current() - 1;\n\t}\n}\n",
  "sourcePath": "/Users/selimerunkut/dev_freelance/GhostMarketContractBSC/contracts/GhostmarketERC1155.sol",
  "compiler": {
    "name": "solc",
    "version": "0.8.3+commit.8d00100c.Emscripten.clang"
  },
  "schemaVersion": "3.4.1",
  "updatedAt": "2021-05-16T15:15:08.649Z",
  "devdoc": {
    "details": "ERC1155 token with minting, burning, pause, royalties & lock content functions.",
    "kind": "dev",
    "methods": {
      "balanceOf(address,uint256)": {
        "details": "See {IERC1155-balanceOf}. Requirements: - `account` cannot be the zero address."
      },
      "balanceOfBatch(address[],uint256[])": {
        "details": "See {IERC1155-balanceOfBatch}. Requirements: - `accounts` and `ids` must have the same length."
      },
      "getCurrentCounter()": {
        "details": "current _tokenIdTracker"
      },
      "getCurrentLockedContentViewTracker(uint256)": {
        "details": "get a NFT current locked content view tracker"
      },
      "getGhostmarketMintFees()": {
        "returns": {
          "_0": "get Ghostmarket mint fees"
        }
      },
      "getLastTokenID()": {
        "details": "get last minted token id /  _tokenIdTracker"
      },
      "getLockedContent(uint256)": {
        "details": "get locked content for a NFT emits LockedContentViewed event"
      },
      "getMetadataJson(uint256)": {
        "details": "get a NFT custom attributes"
      },
      "getRoleAdmin(bytes32)": {
        "details": "Returns the admin role that controls `role`. See {grantRole} and {revokeRole}. To change a role's admin, use {_setRoleAdmin}."
      },
      "getRoleMember(bytes32,uint256)": {
        "details": "Returns one of the accounts that have `role`. `index` must be a value between 0 and {getRoleMemberCount}, non-inclusive. Role bearers are not sorted in any particular way, and their ordering may change at any point. WARNING: When using {getRoleMember} and {getRoleMemberCount}, make sure you perform all queries on the same block. See the following https://forum.openzeppelin.com/t/iterating-over-elements-on-enumerableset-in-openzeppelin-contracts/2296[forum post] for more information."
      },
      "getRoleMemberCount(bytes32)": {
        "details": "Returns the number of accounts that have `role`. Can be used together with {getRoleMember} to enumerate all bearers of a role."
      },
      "getRoyaltiesBps(uint256)": {
        "details": "get a NFT royalties fees fee basis points 10000 = 100%"
      },
      "getRoyaltiesRecipients(uint256)": {
        "details": "get a NFT royalties recipients"
      },
      "grantRole(bytes32,address)": {
        "details": "Overload {grantRole} to track enumerable memberships"
      },
      "hasRole(bytes32,address)": {
        "details": "Returns `true` if `account` has been granted `role`."
      },
      "isApprovedForAll(address,address)": {
        "details": "See {IERC1155-isApprovedForAll}."
      },
      "mint(address,uint256,uint256,bytes)": {
        "details": "Creates `amount` new tokens for `to`, of token type `id`. See {ERC1155-_mint}. Requirements: - the caller must have the `MINTER_ROLE`."
      },
      "mintBatch(address,uint256[],uint256[],bytes)": {
        "details": "xref:ROOT:erc1155.adoc#batch-operations[Batched] variant of {mint}."
      },
      "mintGhost(address,uint256,bytes,(address,uint256)[],string,string)": {
        "details": "mint NFT, set royalties, set metadata json, set lockedcontent emits Minted event"
      },
      "owner()": {
        "details": "Returns the address of the current owner."
      },
      "pause()": {
        "details": "Pauses all token transfers. See {ERC1155Pausable} and {Pausable-_pause}. Requirements: - the caller must have the `PAUSER_ROLE`."
      },
      "paused()": {
        "details": "Returns true if the contract is paused, and false otherwise."
      },
      "renounceOwnership()": {
        "details": "Leaves the contract without owner. It will not be possible to call `onlyOwner` functions anymore. Can only be called by the current owner. NOTE: Renouncing ownership will leave the contract without an owner, thereby removing any functionality that is only available to the owner."
      },
      "renounceRole(bytes32,address)": {
        "details": "Overload {renounceRole} to track enumerable memberships"
      },
      "revokeRole(bytes32,address)": {
        "details": "Overload {revokeRole} to track enumerable memberships"
      },
      "safeBatchTransferFrom(address,address,uint256[],uint256[],bytes)": {
        "details": "See {IERC1155-safeBatchTransferFrom}."
      },
      "safeTransferFrom(address,address,uint256,uint256,bytes)": {
        "details": "See {IERC1155-safeTransferFrom}."
      },
      "setApprovalForAll(address,bool)": {
        "details": "See {IERC1155-setApprovalForAll}."
      },
      "setGhostmarketMintFee(uint256)": {
        "details": "sets Ghostmarket mint fees as uint256 emits MintFeesChanged event"
      },
      "supportsInterface(bytes4)": {
        "details": "See {IERC165-supportsInterface}."
      },
      "transferOwnership(address)": {
        "details": "Transfers ownership of the contract to a new account (`newOwner`). Can only be called by the current owner."
      },
      "unpause()": {
        "details": "Unpauses all token transfers. See {ERC1155Pausable} and {Pausable-_unpause}. Requirements: - the caller must have the `PAUSER_ROLE`."
      },
      "uri(uint256)": {
        "details": "See {IERC1155MetadataURI-uri}. This implementation returns the same URI for *all* token types. It relies on the token type ID substitution mechanism https://eips.ethereum.org/EIPS/eip-1155#metadata[defined in the EIP]. Clients calling this function must replace the `\\{id\\}` substring with the actual token type ID."
      },
      "withdraw(uint256)": {
        "details": "withdraw contract balance emits MintFeesWithdrawn event"
      }
    },
    "version": 1
  },
  "userdoc": {
    "kind": "user",
    "methods": {},
    "version": 1
  }
}