{
  "contractName": "GhostmarketERC721",
  "abi": [
    {
      "anonymous": false,
      "inputs": [
        {
          "indexed": true,
          "internalType": "address",
          "name": "owner",
          "type": "address"
        },
        {
          "indexed": true,
          "internalType": "address",
          "name": "approved",
          "type": "address"
        },
        {
          "indexed": true,
          "internalType": "uint256",
          "name": "tokenId",
          "type": "uint256"
        }
      ],
      "name": "Approval",
      "type": "event"
    },
    {
      "anonymous": false,
      "inputs": [
        {
          "indexed": true,
          "internalType": "address",
          "name": "owner",
          "type": "address"
        },
        {
          "indexed": true,
          "internalType": "address",
          "name": "operator",
          "type": "address"
        },
        {
          "indexed": false,
          "internalType": "bool",
          "name": "approved",
          "type": "bool"
        }
      ],
      "name": "ApprovalForAll",
      "type": "event"
    },
    {
      "anonymous": false,
      "inputs": [
        {
          "indexed": false,
          "internalType": "uint256",
          "name": "tokenId",
          "type": "uint256"
        },
        {
          "indexed": false,
          "internalType": "string",
          "name": "metadataJson",
          "type": "string"
        }
      ],
      "name": "AttributesSet",
      "type": "event"
    },
    {
      "anonymous": false,
      "inputs": [
        {
          "indexed": false,
          "internalType": "address",
          "name": "newValue",
          "type": "address"
        }
      ],
      "name": "GhostmarketFeeAddressChanged",
      "type": "event"
    },
    {
      "anonymous": false,
      "inputs": [
        {
          "indexed": false,
          "internalType": "uint256",
          "name": "newValue",
          "type": "uint256"
        }
      ],
      "name": "GhostmarketFeeMultiplierChanged",
      "type": "event"
    },
    {
      "anonymous": false,
      "inputs": [
        {
          "indexed": false,
          "internalType": "address",
          "name": "sender",
          "type": "address"
        },
        {
          "indexed": false,
          "internalType": "uint256",
          "name": "value",
          "type": "uint256"
        }
      ],
      "name": "GhostmarketFeePaid",
      "type": "event"
    },
    {
      "anonymous": false,
      "inputs": [
        {
          "indexed": false,
          "internalType": "uint256",
          "name": "newValue",
          "type": "uint256"
        }
      ],
      "name": "GhostmarketMintFeeChanged",
      "type": "event"
    },
    {
      "anonymous": false,
      "inputs": [
        {
          "indexed": false,
          "internalType": "address",
          "name": "msgSender",
          "type": "address"
        },
        {
          "indexed": false,
          "internalType": "uint256",
          "name": "tokenId",
          "type": "uint256"
        },
        {
          "indexed": false,
          "internalType": "string",
          "name": "lockedContent",
          "type": "string"
        }
      ],
      "name": "LockedContentViewed",
      "type": "event"
    },
    {
      "anonymous": false,
      "inputs": [
        {
          "indexed": false,
          "internalType": "address",
          "name": "toAddress",
          "type": "address"
        },
        {
          "indexed": false,
          "internalType": "uint256",
          "name": "tokenId",
          "type": "uint256"
        },
        {
          "indexed": false,
          "internalType": "string",
          "name": "tokenURI",
          "type": "string"
        }
      ],
      "name": "Minted",
      "type": "event"
    },
    {
      "anonymous": false,
      "inputs": [
        {
          "indexed": false,
          "internalType": "address",
          "name": "account",
          "type": "address"
        }
      ],
      "name": "Paused",
      "type": "event"
    },
    {
      "anonymous": false,
      "inputs": [
        {
          "indexed": true,
          "internalType": "bytes32",
          "name": "role",
          "type": "bytes32"
        },
        {
          "indexed": true,
          "internalType": "bytes32",
          "name": "previousAdminRole",
          "type": "bytes32"
        },
        {
          "indexed": true,
          "internalType": "bytes32",
          "name": "newAdminRole",
          "type": "bytes32"
        }
      ],
      "name": "RoleAdminChanged",
      "type": "event"
    },
    {
      "anonymous": false,
      "inputs": [
        {
          "indexed": true,
          "internalType": "bytes32",
          "name": "role",
          "type": "bytes32"
        },
        {
          "indexed": true,
          "internalType": "address",
          "name": "account",
          "type": "address"
        },
        {
          "indexed": true,
          "internalType": "address",
          "name": "sender",
          "type": "address"
        }
      ],
      "name": "RoleGranted",
      "type": "event"
    },
    {
      "anonymous": false,
      "inputs": [
        {
          "indexed": true,
          "internalType": "bytes32",
          "name": "role",
          "type": "bytes32"
        },
        {
          "indexed": true,
          "internalType": "address",
          "name": "account",
          "type": "address"
        },
        {
          "indexed": true,
          "internalType": "address",
          "name": "sender",
          "type": "address"
        }
      ],
      "name": "RoleRevoked",
      "type": "event"
    },
    {
      "anonymous": false,
      "inputs": [
        {
          "indexed": false,
          "internalType": "uint256",
          "name": "tokenId",
          "type": "uint256"
        },
        {
          "indexed": false,
          "internalType": "address[]",
          "name": "recipients",
          "type": "address[]"
        },
        {
          "indexed": false,
          "internalType": "uint256[]",
          "name": "bps",
          "type": "uint256[]"
        }
      ],
      "name": "SecondarySaleFees",
      "type": "event"
    },
    {
      "anonymous": false,
      "inputs": [
        {
          "indexed": true,
          "internalType": "address",
          "name": "from",
          "type": "address"
        },
        {
          "indexed": true,
          "internalType": "address",
          "name": "to",
          "type": "address"
        },
        {
          "indexed": true,
          "internalType": "uint256",
          "name": "tokenId",
          "type": "uint256"
        }
      ],
      "name": "Transfer",
      "type": "event"
    },
    {
      "anonymous": false,
      "inputs": [
        {
          "indexed": false,
          "internalType": "address",
          "name": "account",
          "type": "address"
        }
      ],
      "name": "Unpaused",
      "type": "event"
    },
    {
      "inputs": [],
      "name": "DEFAULT_ADMIN_ROLE",
      "outputs": [
        {
          "internalType": "bytes32",
          "name": "",
          "type": "bytes32"
        }
      ],
      "stateMutability": "view",
      "type": "function",
      "constant": true
    },
    {
      "inputs": [],
      "name": "MINTER_ROLE",
      "outputs": [
        {
          "internalType": "bytes32",
          "name": "",
          "type": "bytes32"
        }
      ],
      "stateMutability": "view",
      "type": "function",
      "constant": true
    },
    {
      "inputs": [],
      "name": "PAUSER_ROLE",
      "outputs": [
        {
          "internalType": "bytes32",
          "name": "",
          "type": "bytes32"
        }
      ],
      "stateMutability": "view",
      "type": "function",
      "constant": true
    },
    {
      "inputs": [
        {
          "internalType": "uint256",
          "name": "",
          "type": "uint256"
        }
      ],
      "name": "_lockedContent",
      "outputs": [
        {
          "internalType": "string",
          "name": "",
          "type": "string"
        }
      ],
      "stateMutability": "view",
      "type": "function",
      "constant": true
    },
    {
      "inputs": [
        {
          "internalType": "address",
          "name": "to",
          "type": "address"
        },
        {
          "internalType": "uint256",
          "name": "tokenId",
          "type": "uint256"
        }
      ],
      "name": "approve",
      "outputs": [],
      "stateMutability": "nonpayable",
      "type": "function"
    },
    {
      "inputs": [
        {
          "internalType": "address",
          "name": "owner",
          "type": "address"
        }
      ],
      "name": "balanceOf",
      "outputs": [
        {
          "internalType": "uint256",
          "name": "",
          "type": "uint256"
        }
      ],
      "stateMutability": "view",
      "type": "function",
      "constant": true
    },
    {
      "inputs": [
        {
          "internalType": "uint256",
          "name": "tokenId",
          "type": "uint256"
        }
      ],
      "name": "burn",
      "outputs": [],
      "stateMutability": "nonpayable",
      "type": "function"
    },
    {
      "inputs": [
        {
          "internalType": "uint256",
          "name": "",
          "type": "uint256"
        },
        {
          "internalType": "uint256",
          "name": "",
          "type": "uint256"
        }
      ],
      "name": "fees",
      "outputs": [
        {
          "internalType": "address payable",
          "name": "recipient",
          "type": "address"
        },
        {
          "internalType": "uint256",
          "name": "value",
          "type": "uint256"
        }
      ],
      "stateMutability": "view",
      "type": "function",
      "constant": true
    },
    {
      "inputs": [
        {
          "internalType": "uint256",
          "name": "tokenId",
          "type": "uint256"
        }
      ],
      "name": "getApproved",
      "outputs": [
        {
          "internalType": "address",
          "name": "",
          "type": "address"
        }
      ],
      "stateMutability": "view",
      "type": "function",
      "constant": true
    },
    {
      "inputs": [],
      "name": "getCurrentCounter",
      "outputs": [
        {
          "internalType": "uint256",
          "name": "",
          "type": "uint256"
        }
      ],
      "stateMutability": "view",
      "type": "function",
      "constant": true
    },
    {
      "inputs": [],
      "name": "getLastTokenID",
      "outputs": [
        {
          "internalType": "uint256",
          "name": "",
          "type": "uint256"
        }
      ],
      "stateMutability": "view",
      "type": "function",
      "constant": true
    },
    {
      "inputs": [
        {
          "internalType": "bytes32",
          "name": "role",
          "type": "bytes32"
        }
      ],
      "name": "getRoleAdmin",
      "outputs": [
        {
          "internalType": "bytes32",
          "name": "",
          "type": "bytes32"
        }
      ],
      "stateMutability": "view",
      "type": "function",
      "constant": true
    },
    {
      "inputs": [
        {
          "internalType": "bytes32",
          "name": "role",
          "type": "bytes32"
        },
        {
          "internalType": "uint256",
          "name": "index",
          "type": "uint256"
        }
      ],
      "name": "getRoleMember",
      "outputs": [
        {
          "internalType": "address",
          "name": "",
          "type": "address"
        }
      ],
      "stateMutability": "view",
      "type": "function",
      "constant": true
    },
    {
      "inputs": [
        {
          "internalType": "bytes32",
          "name": "role",
          "type": "bytes32"
        }
      ],
      "name": "getRoleMemberCount",
      "outputs": [
        {
          "internalType": "uint256",
          "name": "",
          "type": "uint256"
        }
      ],
      "stateMutability": "view",
      "type": "function",
      "constant": true
    },
    {
      "inputs": [
        {
          "internalType": "bytes32",
          "name": "role",
          "type": "bytes32"
        },
        {
          "internalType": "address",
          "name": "account",
          "type": "address"
        }
      ],
      "name": "grantRole",
      "outputs": [],
      "stateMutability": "nonpayable",
      "type": "function"
    },
    {
      "inputs": [
        {
          "internalType": "bytes32",
          "name": "role",
          "type": "bytes32"
        },
        {
          "internalType": "address",
          "name": "account",
          "type": "address"
        }
      ],
      "name": "hasRole",
      "outputs": [
        {
          "internalType": "bool",
          "name": "",
          "type": "bool"
        }
      ],
      "stateMutability": "view",
      "type": "function",
      "constant": true
    },
    {
      "inputs": [
        {
          "internalType": "address",
          "name": "owner",
          "type": "address"
        },
        {
          "internalType": "address",
          "name": "operator",
          "type": "address"
        }
      ],
      "name": "isApprovedForAll",
      "outputs": [
        {
          "internalType": "bool",
          "name": "",
          "type": "bool"
        }
      ],
      "stateMutability": "view",
      "type": "function",
      "constant": true
    },
    {
      "inputs": [
        {
          "internalType": "address",
          "name": "to",
          "type": "address"
        }
      ],
      "name": "mint",
      "outputs": [],
      "stateMutability": "nonpayable",
      "type": "function"
    },
    {
      "inputs": [],
      "name": "name",
      "outputs": [
        {
          "internalType": "string",
          "name": "",
          "type": "string"
        }
      ],
      "stateMutability": "view",
      "type": "function",
      "constant": true
    },
    {
      "inputs": [
        {
          "internalType": "uint256",
          "name": "tokenId",
          "type": "uint256"
        }
      ],
      "name": "ownerOf",
      "outputs": [
        {
          "internalType": "address",
          "name": "",
          "type": "address"
        }
      ],
      "stateMutability": "view",
      "type": "function",
      "constant": true
    },
    {
      "inputs": [],
      "name": "pause",
      "outputs": [],
      "stateMutability": "nonpayable",
      "type": "function"
    },
    {
      "inputs": [],
      "name": "paused",
      "outputs": [
        {
          "internalType": "bool",
          "name": "",
          "type": "bool"
        }
      ],
      "stateMutability": "view",
      "type": "function",
      "constant": true
    },
    {
      "inputs": [
        {
          "internalType": "bytes32",
          "name": "role",
          "type": "bytes32"
        },
        {
          "internalType": "address",
          "name": "account",
          "type": "address"
        }
      ],
      "name": "renounceRole",
      "outputs": [],
      "stateMutability": "nonpayable",
      "type": "function"
    },
    {
      "inputs": [
        {
          "internalType": "bytes32",
          "name": "role",
          "type": "bytes32"
        },
        {
          "internalType": "address",
          "name": "account",
          "type": "address"
        }
      ],
      "name": "revokeRole",
      "outputs": [],
      "stateMutability": "nonpayable",
      "type": "function"
    },
    {
      "inputs": [
        {
          "internalType": "address",
          "name": "from",
          "type": "address"
        },
        {
          "internalType": "address",
          "name": "to",
          "type": "address"
        },
        {
          "internalType": "uint256",
          "name": "tokenId",
          "type": "uint256"
        }
      ],
      "name": "safeTransferFrom",
      "outputs": [],
      "stateMutability": "nonpayable",
      "type": "function"
    },
    {
      "inputs": [
        {
          "internalType": "address",
          "name": "from",
          "type": "address"
        },
        {
          "internalType": "address",
          "name": "to",
          "type": "address"
        },
        {
          "internalType": "uint256",
          "name": "tokenId",
          "type": "uint256"
        },
        {
          "internalType": "bytes",
          "name": "_data",
          "type": "bytes"
        }
      ],
      "name": "safeTransferFrom",
      "outputs": [],
      "stateMutability": "nonpayable",
      "type": "function"
    },
    {
      "inputs": [
        {
          "internalType": "address",
          "name": "operator",
          "type": "address"
        },
        {
          "internalType": "bool",
          "name": "approved",
          "type": "bool"
        }
      ],
      "name": "setApprovalForAll",
      "outputs": [],
      "stateMutability": "nonpayable",
      "type": "function"
    },
    {
      "inputs": [
        {
          "internalType": "bytes4",
          "name": "interfaceId",
          "type": "bytes4"
        }
      ],
      "name": "supportsInterface",
      "outputs": [
        {
          "internalType": "bool",
          "name": "",
          "type": "bool"
        }
      ],
      "stateMutability": "view",
      "type": "function",
      "constant": true
    },
    {
      "inputs": [],
      "name": "symbol",
      "outputs": [
        {
          "internalType": "string",
          "name": "",
          "type": "string"
        }
      ],
      "stateMutability": "view",
      "type": "function",
      "constant": true
    },
    {
      "inputs": [
        {
          "internalType": "uint256",
          "name": "index",
          "type": "uint256"
        }
      ],
      "name": "tokenByIndex",
      "outputs": [
        {
          "internalType": "uint256",
          "name": "",
          "type": "uint256"
        }
      ],
      "stateMutability": "view",
      "type": "function",
      "constant": true
    },
    {
      "inputs": [
        {
          "internalType": "address",
          "name": "owner",
          "type": "address"
        },
        {
          "internalType": "uint256",
          "name": "index",
          "type": "uint256"
        }
      ],
      "name": "tokenOfOwnerByIndex",
      "outputs": [
        {
          "internalType": "uint256",
          "name": "",
          "type": "uint256"
        }
      ],
      "stateMutability": "view",
      "type": "function",
      "constant": true
    },
    {
      "inputs": [
        {
          "internalType": "uint256",
          "name": "tokenId",
          "type": "uint256"
        }
      ],
      "name": "tokenURI",
      "outputs": [
        {
          "internalType": "string",
          "name": "",
          "type": "string"
        }
      ],
      "stateMutability": "view",
      "type": "function",
      "constant": true
    },
    {
      "inputs": [],
      "name": "totalSupply",
      "outputs": [
        {
          "internalType": "uint256",
          "name": "",
          "type": "uint256"
        }
      ],
      "stateMutability": "view",
      "type": "function",
      "constant": true
    },
    {
      "inputs": [
        {
          "internalType": "address",
          "name": "from",
          "type": "address"
        },
        {
          "internalType": "address",
          "name": "to",
          "type": "address"
        },
        {
          "internalType": "uint256",
          "name": "tokenId",
          "type": "uint256"
        }
      ],
      "name": "transferFrom",
      "outputs": [],
      "stateMutability": "nonpayable",
      "type": "function"
    },
    {
      "inputs": [],
      "name": "unpause",
      "outputs": [],
      "stateMutability": "nonpayable",
      "type": "function"
    },
    {
      "inputs": [
        {
          "internalType": "string",
          "name": "name",
          "type": "string"
        },
        {
          "internalType": "string",
          "name": "symbol",
          "type": "string"
        },
        {
          "internalType": "string",
          "name": "uri",
          "type": "string"
        }
      ],
      "name": "initialize",
      "outputs": [],
      "stateMutability": "nonpayable",
      "type": "function"
    },
    {
      "inputs": [
        {
          "internalType": "uint256",
          "name": "tokenId",
          "type": "uint256"
        }
      ],
      "name": "getMetadataJson",
      "outputs": [
        {
          "internalType": "string",
          "name": "",
          "type": "string"
        }
      ],
      "stateMutability": "view",
      "type": "function",
      "constant": true
    },
    {
      "inputs": [
        {
          "internalType": "uint256",
          "name": "_tokenId",
          "type": "uint256"
        }
      ],
      "name": "getFeeRecipients",
      "outputs": [
        {
          "internalType": "address payable[]",
          "name": "",
          "type": "address[]"
        }
      ],
      "stateMutability": "view",
      "type": "function",
      "constant": true
    },
    {
      "inputs": [
        {
          "internalType": "uint256",
          "name": "_tokenId",
          "type": "uint256"
        }
      ],
      "name": "getFeeBps",
      "outputs": [
        {
          "internalType": "uint256[]",
          "name": "",
          "type": "uint256[]"
        }
      ],
      "stateMutability": "view",
      "type": "function",
      "constant": true
    },
    {
      "inputs": [
        {
          "internalType": "address",
          "name": "_to",
          "type": "address"
        },
        {
          "components": [
            {
              "internalType": "address payable",
              "name": "recipient",
              "type": "address"
            },
            {
              "internalType": "uint256",
              "name": "value",
              "type": "uint256"
            }
          ],
          "internalType": "struct GhostmarketERC721.Fee[]",
          "name": "_fees",
          "type": "tuple[]"
        },
        {
          "internalType": "string",
          "name": "metadata",
          "type": "string"
        },
        {
          "internalType": "string",
          "name": "lockedcontent",
          "type": "string"
        }
      ],
      "name": "mintGhost",
      "outputs": [],
      "stateMutability": "payable",
      "type": "function",
      "payable": true
    },
    {
      "inputs": [
        {
          "internalType": "address payable",
          "name": "gmfa",
          "type": "address"
        }
      ],
      "name": "setGhostmarketFeeAddress",
      "outputs": [],
      "stateMutability": "nonpayable",
      "type": "function"
    },
    {
      "inputs": [
        {
          "internalType": "uint256",
          "name": "gmmf",
          "type": "uint256"
        }
      ],
      "name": "setGhostmarketMintFee",
      "outputs": [],
      "stateMutability": "nonpayable",
      "type": "function"
    },
    {
      "inputs": [],
      "name": "ghostmarketFeeAddress",
      "outputs": [
        {
          "internalType": "address payable",
          "name": "",
          "type": "address"
        }
      ],
      "stateMutability": "view",
      "type": "function",
      "constant": true
    },
    {
      "inputs": [],
      "name": "ghostmarketMintingFee",
      "outputs": [
        {
          "internalType": "uint256",
          "name": "",
          "type": "uint256"
        }
      ],
      "stateMutability": "view",
      "type": "function",
      "constant": true
    },
    {
      "inputs": [
        {
          "internalType": "uint256",
          "name": "_tokenId",
          "type": "uint256"
        }
      ],
      "name": "getLockedContent",
      "outputs": [
        {
          "internalType": "string",
          "name": "",
          "type": "string"
        }
      ],
      "stateMutability": "nonpayable",
      "type": "function"
    },
    {
      "inputs": [
        {
          "internalType": "uint256",
          "name": "_tokenId",
          "type": "uint256"
        }
      ],
      "name": "getCurrentLockedContentViewTracker",
      "outputs": [
        {
          "internalType": "uint256",
          "name": "",
          "type": "uint256"
        }
      ],
      "stateMutability": "view",
      "type": "function",
      "constant": true
    }
  ],
  "bytecode": "0x608060405234801561001057600080fd5b50614104806100206000396000f3fe6080604052600436106102fd5760003560e01c80636a6278421161018f578063b9c4d9fb116100e1578063dac0f3d91161008a578063f7d027de11610064578063f7d027de14610904578063fb3e09af14610924578063fc24a8a914610943576102fd565b8063dac0f3d914610867578063e63ab1e914610887578063e985e9c5146108bb576102fd565b8063ca15c873116100bb578063ca15c873146107f3578063d539139314610813578063d547741f14610847576102fd565b8063b9c4d9fb14610778578063c6f4f0f0146107a5578063c87b56dd146107d3576102fd565b806391d1485411610143578063a22cb4651161011d578063a22cb46514610718578063a6487c5314610738578063b88d4fde14610758576102fd565b806391d14854146106a857806395d89b41146106ee578063a217fddf14610703576102fd565b806373448c461161017457806373448c461461065e5780638456cb59146106735780639010d07c14610688576102fd565b80636a6278421461061e57806370a082311461063e576102fd565b80632f745c5911610253578063529aae66116101fc5780636213801f116101d65780636213801f146105a95780636308f1cd146105bf5780636352211e146105fe576102fd565b8063529aae661461055d5780635a252ffe1461057d5780635c975abb14610590576102fd565b806342842e0e1161022d57806342842e0e146104fd57806342966c681461051d5780634f6ccce71461053d576102fd565b80632f745c59146104a857806336568abe146104c85780633f4ba83a146104e8576102fd565b80630ebd4c7f116102b557806323b872dd1161028f57806323b872dd14610438578063248a9ca3146104585780632f2ff15d14610488576102fd565b80630ebd4c7f146103d657806318160ddd146104035780631c7e78f314610418576102fd565b8063081812fc116102e6578063081812fc14610359578063095ea7b3146103915780630e094137146103b3576102fd565b806301ffc9a71461030257806306fdde0314610337575b600080fd5b34801561030e57600080fd5b5061032261031d366004613bc9565b610963565b60405190151581526020015b60405180910390f35b34801561034357600080fd5b5061034c610976565b60405161032e9190613ec2565b34801561036557600080fd5b50610379610374366004613b6c565b610a09565b6040516001600160a01b03909116815260200161032e565b34801561039d57600080fd5b506103b16103ac366004613b41565b610aa3565b005b3480156103bf57600080fd5b506103c8610bd5565b60405190815260200161032e565b3480156103e257600080fd5b506103f66103f1366004613b6c565b610c07565b60405161032e9190613eaf565b34801561040f57600080fd5b5060fd546103c8565b34801561042457600080fd5b5061034c610433366004613b6c565b610d54565b34801561044457600080fd5b506103b1610453366004613930565b610e34565b34801561046457600080fd5b506103c8610473366004613b6c565b60009081526065602052604090206001015490565b34801561049457600080fd5b506103b16104a3366004613b84565b610ebc565b3480156104b457600080fd5b506103c86104c3366004613b41565b610ede565b3480156104d457600080fd5b506103b16104e3366004613b84565b610f89565b3480156104f457600080fd5b506103b1610fab565b34801561050957600080fd5b506103b1610518366004613930565b611053565b34801561052957600080fd5b506103b1610538366004613b6c565b61106e565b34801561054957600080fd5b506103c8610558366004613b6c565b6110f5565b34801561056957600080fd5b5061034c610578366004613b6c565b6111a7565b6103b161058b3660046139ed565b611242565b34801561059c57600080fd5b5061015f5460ff16610322565b3480156105b557600080fd5b5061022b546103c8565b3480156105cb57600080fd5b506105df6105da366004613ba8565b611498565b604080516001600160a01b03909316835260208301919091520161032e565b34801561060a57600080fd5b50610379610619366004613b6c565b6114df565b34801561062a57600080fd5b506103b16106393660046138dc565b61156a565b34801561064a57600080fd5b506103c86106593660046138dc565b61158c565b34801561066a57600080fd5b506103c8611626565b34801561067f57600080fd5b506103b1611637565b34801561069457600080fd5b506103796106a3366004613ba8565b6116db565b3480156106b457600080fd5b506103226106c3366004613b84565b60009182526065602090815260408084206001600160a01b0393909316845291905290205460ff1690565b3480156106fa57600080fd5b5061034c6116fa565b34801561070f57600080fd5b506103c8600081565b34801561072457600080fd5b506103b1610733366004613b10565b611709565b34801561074457600080fd5b506103b1610753366004613c01565b6117db565b34801561076457600080fd5b506103b1610773366004613970565b6118a6565b34801561078457600080fd5b50610798610793366004613b6c565b61192e565b60405161032e9190613e62565b3480156107b157600080fd5b506103c86107c0366004613b6c565b600090815261022a602052604090205490565b3480156107df57600080fd5b5061034c6107ee366004613b6c565b611a80565b3480156107ff57600080fd5b506103c861080e366004613b6c565b611b68565b34801561081f57600080fd5b506103c87f9f2df0fed2c77648de5860a4cc508cd0818c85b8b8a1ab4ceeef8d981c8956a681565b34801561085357600080fd5b506103b1610862366004613b84565b611b7f565b34801561087357600080fd5b506103b1610882366004613b6c565b611b89565b34801561089357600080fd5b506103c87f65d7a28e3265b37a6474929f336521b332c1681b933f6cb9f3376673440d862a81565b3480156108c757600080fd5b506103226108d63660046138f8565b6001600160a01b03918216600090815260ce6020908152604080832093909416825291909152205460ff1690565b34801561091057600080fd5b5061034c61091f366004613b6c565b611c43565b34801561093057600080fd5b5061022c546001600160a01b0316610379565b34801561094f57600080fd5b506103b161095e3660046138dc565b611ce6565b600061096e82611dbf565b90505b919050565b606060c9805461098590613ff7565b80601f01602080910402602001604051908101604052809291908181526020018280546109b190613ff7565b80156109fe5780601f106109d3576101008083540402835291602001916109fe565b820191906000526020600020905b8154815290600101906020018083116109e157829003601f168201915b505050505090505b90565b600081815260cb60205260408120546001600160a01b0316610a875760405162461bcd60e51b815260206004820152602c60248201527f4552433732313a20617070726f76656420717565727920666f72206e6f6e657860448201526b34b9ba32b73a103a37b5b2b760a11b60648201526084015b60405180910390fd5b50600090815260cd60205260409020546001600160a01b031690565b6000610aae826114df565b9050806001600160a01b0316836001600160a01b03161415610b385760405162461bcd60e51b815260206004820152602160248201527f4552433732313a20617070726f76616c20746f2063757272656e74206f776e6560448201527f72000000000000000000000000000000000000000000000000000000000000006064820152608401610a7e565b336001600160a01b0382161480610b545750610b5481336108d6565b610bc65760405162461bcd60e51b815260206004820152603860248201527f4552433732313a20617070726f76652063616c6c6572206973206e6f74206f7760448201527f6e6572206e6f7220617070726f76656420666f7220616c6c00000000000000006064820152608401610a7e565b610bd08383611dfd565b505050565b6000610be16101c35490565b610bf1576101c3545b9050610a06565b6001610bfd6101c35490565b610bea9190613fb4565b600081815261022860209081526040808320805482518185028101850190935280835260609493849084015b82821015610c7b576000848152602090819020604080518082019091526002850290910180546001600160a01b03168252600190810154828401529083529092019101610c33565b5050505090506000815167ffffffffffffffff811115610cab57634e487b7160e01b600052604160045260246000fd5b604051908082528060200260200182016040528015610cd4578160200160208202803683370190505b50905060005b8251811015610d4c57828181518110610d0357634e487b7160e01b600052603260045260246000fd5b602002602001015160200151828281518110610d2f57634e487b7160e01b600052603260045260246000fd5b602090810291909101015280610d4481614032565b915050610cda565b509392505050565b606033610d60836114df565b6001600160a01b031614610ddc5760405162461bcd60e51b815260206004820152602360248201527f43616c6c6572206d75737420626520746865206f776e6572206f66207468652060448201527f4e465400000000000000000000000000000000000000000000000000000000006064820152608401610a7e565b610de582611e78565b600082815261022960205260409081902090517f544b1d1249133c50ce89743ed1ca34a815bd50d42b71e6d331a1ac560013a8ec91610e279133918691613da3565b60405180910390a1919050565b610e3f335b82611ea6565b610eb15760405162461bcd60e51b815260206004820152603160248201527f4552433732313a207472616e736665722063616c6c6572206973206e6f74206f60448201527f776e6572206e6f7220617070726f7665640000000000000000000000000000006064820152608401610a7e565b610bd0838383611f9d565b610ec68282612182565b6000828152609760205260409020610bd0908261221f565b6000610ee98361158c565b8210610f5d5760405162461bcd60e51b815260206004820152602b60248201527f455243373231456e756d657261626c653a206f776e657220696e646578206f7560448201527f74206f6620626f756e64730000000000000000000000000000000000000000006064820152608401610a7e565b506001600160a01b038216600090815260fb602090815260408083208484529091529020545b92915050565b610f938282612234565b6000828152609760205260409020610bd090826122bc565b610fd57f65d7a28e3265b37a6474929f336521b332c1681b933f6cb9f3376673440d862a336106c3565b611049576040805162461bcd60e51b81526020600482015260248101919091527f4552433732315072657365744d696e7465725061757365724175746f49643a2060448201527f6d75737420686176652070617573657220726f6c6520746f20756e70617573656064820152608401610a7e565b6110516122d1565b565b610bd0838383604051806020016040528060008152506118a6565b61107733610e39565b6110e95760405162461bcd60e51b815260206004820152603060248201527f4552433732314275726e61626c653a2063616c6c6572206973206e6f74206f7760448201527f6e6572206e6f7220617070726f766564000000000000000000000000000000006064820152608401610a7e565b6110f28161236f565b50565b600061110060fd5490565b82106111745760405162461bcd60e51b815260206004820152602c60248201527f455243373231456e756d657261626c653a20676c6f62616c20696e646578206f60448201527f7574206f6620626f756e647300000000000000000000000000000000000000006064820152608401610a7e565b60fd828154811061119557634e487b7160e01b600052603260045260246000fd5b90600052602060002001549050919050565b61022960205260009081526040902080546111c190613ff7565b80601f01602080910402602001604051908101604052809291908181526020018280546111ed90613ff7565b801561123a5780601f1061120f5761010080835404028352916020019161123a565b820191906000526020600020905b81548152906001019060200180831161121d57829003601f168201915b505050505081565b60026101f55414156112965760405162461bcd60e51b815260206004820152601f60248201527f5265656e7472616e637947756172643a207265656e7472616e742063616c6c006044820152606401610a7e565b60026101f5556112a58461156a565b60006112af610bd5565b90506000845167ffffffffffffffff8111156112db57634e487b7160e01b600052604160045260246000fd5b604051908082528060200260200182016040528015611304578160200160208202803683370190505b5090506000855167ffffffffffffffff81111561133157634e487b7160e01b600052604160045260246000fd5b60405190808252806020026020018201604052801561135a578160200160208202803683370190505b508651909150156113ab5761136f8387612423565b7f99aba1d63749cfd5ad1afda7c4663840924d54eb5f005bbbeadedc6ec13674b28383836040516113a293929190613ed5565b60405180910390a15b60408051600081526020810180835281519020916113cb91889101613ceb565b60405160208183030381529060405280519060200120146113f0576113f0838661264a565b604080516000815260208101808352815190209161141091879101613ceb565b60405160208183030381529060405280519060200120146114355761143583856126a8565b61022b5415611446576114466126c8565b7fe7cd4ce7f2a465edc730269a1305e8a48bad821e8fb7e152ec413829c01a53c4878461147286611a80565b60405161148193929190613d72565b60405180910390a1505060016101f5555050505050565b61022860205281600052604060002081815481106114b557600080fd5b6000918252602090912060029091020180546001909101546001600160a01b039091169250905082565b600081815260cb60205260408120546001600160a01b03168061096e5760405162461bcd60e51b815260206004820152602960248201527f4552433732313a206f776e657220717565727920666f72206e6f6e657869737460448201527f656e7420746f6b656e00000000000000000000000000000000000000000000006064820152608401610a7e565b61157d816115786101c35490565b6128a2565b6110f26101c380546001019055565b60006001600160a01b03821661160a5760405162461bcd60e51b815260206004820152602a60248201527f4552433732313a2062616c616e636520717565727920666f7220746865207a6560448201527f726f2061646472657373000000000000000000000000000000000000000000006064820152608401610a7e565b506001600160a01b0316600090815260cc602052604090205490565b60006116326101c35490565b905090565b6116617f65d7a28e3265b37a6474929f336521b332c1681b933f6cb9f3376673440d862a336106c3565b6116d35760405162461bcd60e51b815260206004820152603e60248201527f4552433732315072657365744d696e7465725061757365724175746f49643a2060448201527f6d75737420686176652070617573657220726f6c6520746f20706175736500006064820152608401610a7e565b6110516129fd565b60008281526097602052604081206116f39083612a87565b9392505050565b606060ca805461098590613ff7565b6001600160a01b0382163314156117625760405162461bcd60e51b815260206004820152601960248201527f4552433732313a20617070726f766520746f2063616c6c6572000000000000006044820152606401610a7e565b33600081815260ce602090815260408083206001600160a01b0387168085529252909120805460ff1916841515179055906001600160a01b03167f17307eab39ab6107e8899845ad3d59bd9653f200f220920489ca2b5937696c31836040516117cf911515815260200190565b60405180910390a35050565b600054610100900460ff16806117f4575060005460ff16155b6118575760405162461bcd60e51b815260206004820152602e60248201527f496e697469616c697a61626c653a20636f6e747261637420697320616c72656160448201526d191e481a5b9a5d1a585b1a5e995960921b6064820152608401610a7e565b600054610100900460ff16158015611879576000805461ffff19166101011790555b6118838484612a93565b61188e848484612b6f565b80156118a0576000805461ff00191690555b50505050565b6118b03383611ea6565b6119225760405162461bcd60e51b815260206004820152603160248201527f4552433732313a207472616e736665722063616c6c6572206973206e6f74206f60448201527f776e6572206e6f7220617070726f7665640000000000000000000000000000006064820152608401610a7e565b6118a084848484612c82565b600081815261022860209081526040808320805482518185028101850190935280835260609493849084015b828210156119a2576000848152602090819020604080518082019091526002850290910180546001600160a01b0316825260019081015482840152908352909201910161195a565b5050505090506000815167ffffffffffffffff8111156119d257634e487b7160e01b600052604160045260246000fd5b6040519080825280602002602001820160405280156119fb578160200160208202803683370190505b50905060005b8251811015610d4c57828181518110611a2a57634e487b7160e01b600052603260045260246000fd5b602002602001015160000151828281518110611a5657634e487b7160e01b600052603260045260246000fd5b6001600160a01b039092166020928302919091019091015280611a7881614032565b915050611a01565b600081815260cb60205260409020546060906001600160a01b0316611b0d5760405162461bcd60e51b815260206004820152602f60248201527f4552433732314d657461646174613a2055524920717565727920666f72206e6f60448201527f6e6578697374656e7420746f6b656e00000000000000000000000000000000006064820152608401610a7e565b6000611b17612d0b565b90506000815111611b3757604051806020016040528060008152506116f3565b80611b4184612d1b565b604051602001611b52929190613d07565b6040516020818303038152906040529392505050565b600081815260976020526040812061096e90612e6a565b610f938282612e74565b611b946000336106c3565b611c065760405162461bcd60e51b815260206004820152603660248201527f43616c6c6572206d75737420686176652061646d696e20726f6c6520746f207360448201527f6574206d696e74696e67206665652070657263656e74000000000000000000006064820152608401610a7e565b61022b8190556040518181527fe28e57f6cdaccbb98c150b646656c0178b4b67253ae73deaba3b9c76525b987e906020015b60405180910390a150565b600081815261022760205260409020805460609190611c6190613ff7565b80601f0160208091040260200160405190810160405280929190818152602001828054611c8d90613ff7565b8015611cda5780601f10611caf57610100808354040283529160200191611cda565b820191906000526020600020905b815481529060010190602001808311611cbd57829003601f168201915b50505050509050919050565b611cf16000336106c3565b611d635760405162461bcd60e51b815260206004820152603660248201527f43616c6c6572206d75737420686176652061646d696e20726f6c6520746f207360448201527f6574206d696e74696e67206665652061646472657373000000000000000000006064820152608401610a7e565b61022c805473ffffffffffffffffffffffffffffffffffffffff19166001600160a01b0383169081179091556040519081527f42e58c2251766d60a378c8984cb15020e19218cae37fa9e7556ce617200f685190602001611c38565b60006001600160e01b031982167f780e9d6300000000000000000000000000000000000000000000000000000000148061096e575061096e82612f01565b600081815260cd60205260409020805473ffffffffffffffffffffffffffffffffffffffff19166001600160a01b0384169081179091558190611e3f826114df565b6001600160a01b03167f8c5be1e5ebec7d5bd14f71427d1e84f3dd0314c0f7b2291e5b200ac8c7c3b92560405160405180910390a45050565b600081815261022a6020526040902054611e93906001613f88565b600091825261022a602052604090912055565b600081815260cb60205260408120546001600160a01b0316611f1f5760405162461bcd60e51b815260206004820152602c60248201527f4552433732313a206f70657261746f7220717565727920666f72206e6f6e657860448201526b34b9ba32b73a103a37b5b2b760a11b6064820152608401610a7e565b6000611f2a836114df565b9050806001600160a01b0316846001600160a01b03161480611f655750836001600160a01b0316611f5a84610a09565b6001600160a01b0316145b80611f9557506001600160a01b03808216600090815260ce602090815260408083209388168352929052205460ff165b949350505050565b826001600160a01b0316611fb0826114df565b6001600160a01b03161461202c5760405162461bcd60e51b815260206004820152602960248201527f4552433732313a207472616e73666572206f6620746f6b656e2074686174206960448201527f73206e6f74206f776e00000000000000000000000000000000000000000000006064820152608401610a7e565b6001600160a01b0382166120a75760405162461bcd60e51b8152602060048201526024808201527f4552433732313a207472616e7366657220746f20746865207a65726f2061646460448201527f72657373000000000000000000000000000000000000000000000000000000006064820152608401610a7e565b6120b2838383612f73565b6120bd600082611dfd565b6001600160a01b038316600090815260cc602052604081208054600192906120e6908490613fb4565b90915550506001600160a01b038216600090815260cc60205260408120805460019290612114908490613f88565b9091555050600081815260cb6020526040808220805473ffffffffffffffffffffffffffffffffffffffff19166001600160a01b0386811691821790925591518493918716917fddf252ad1be2c89b69c2b068fc378daa952ba7f163c4a11628f55a4df523b3ef91a4505050565b60008281526065602052604090206001015461219f905b336106c3565b6122115760405162461bcd60e51b815260206004820152602f60248201527f416363657373436f6e74726f6c3a2073656e646572206d75737420626520616e60448201527f2061646d696e20746f206772616e7400000000000000000000000000000000006064820152608401610a7e565b61221b8282612f7e565b5050565b60006116f3836001600160a01b038416613020565b6001600160a01b03811633146122b25760405162461bcd60e51b815260206004820152602f60248201527f416363657373436f6e74726f6c3a2063616e206f6e6c792072656e6f756e636560448201527f20726f6c657320666f722073656c6600000000000000000000000000000000006064820152608401610a7e565b61221b828261306f565b60006116f3836001600160a01b0384166130f2565b61015f5460ff166123245760405162461bcd60e51b815260206004820152601460248201527f5061757361626c653a206e6f74207061757365640000000000000000000000006044820152606401610a7e565b61015f805460ff191690557f5db9ee0a495bf2e6ff9c91a7834c1ba4fdd244a5e8aa4e537bd38aeae4b073aa335b6040516001600160a01b03909116815260200160405180910390a1565b600061237a826114df565b905061238881600084612f73565b612393600083611dfd565b6001600160a01b038116600090815260cc602052604081208054600192906123bc908490613fb4565b9091555050600082815260cb6020526040808220805473ffffffffffffffffffffffffffffffffffffffff19169055518391906001600160a01b038416907fddf252ad1be2c89b69c2b068fc378daa952ba7f163c4a11628f55a4df523b3ef908390a45050565b600082815260cb60205260409020546001600160a01b031661249c5760405162461bcd60e51b815260206004820152602c60248201527f4552433732313a20617070726f76656420717565727920666f72206e6f6e657860448201526b34b9ba32b73a103a37b5b2b760a11b6064820152608401610a7e565b60005b8151811015610bd05760006001600160a01b03168282815181106124d357634e487b7160e01b600052603260045260246000fd5b6020026020010151600001516001600160a01b031614156125365760405162461bcd60e51b815260206004820152601b60248201527f526563697069656e742073686f756c642062652070726573656e7400000000006044820152606401610a7e565b600082828151811061255857634e487b7160e01b600052603260045260246000fd5b602002602001015160200151116125b15760405162461bcd60e51b815260206004820152601c60248201527f4665652076616c75652073686f756c6420626520706f736974697665000000006044820152606401610a7e565b60008381526102286020526040902082518390839081106125e257634e487b7160e01b600052603260045260246000fd5b6020908102919091018101518254600180820185556000948552938390208251600290920201805473ffffffffffffffffffffffffffffffffffffffff19166001600160a01b039092169190911781559101519101558061264281614032565b91505061249f565b600082815261022760209081526040909120825161266a928401906137cc565b507f701be7c18389620e1de28c2c2c047271c46744dea76cb7667f428af200ef4dde828260405161269c929190613f3e565b60405180910390a15050565b6000828152610229602090815260409091208251610bd0928401906137cc565b61022c546001600160a01b03166127475760405162461bcd60e51b815260206004820152602760248201527f47686f73746d61726b6574206d696e74696e672046656520416464726573732060448201527f6e6f7420736574000000000000000000000000000000000000000000000000006064820152608401610a7e565b600061022b54116127c05760405162461bcd60e51b815260206004820152603060248201527f47686f73746d61726b6574206d696e74696e67206665652073686f756c64206260448201527f652067726561746572207468656e2030000000000000000000000000000000006064820152608401610a7e565b61022c5461022b546040516000926001600160a01b031691908381818185875af1925050503d8060008114612811576040519150601f19603f3d011682016040523d82523d6000602084013e612816565b606091505b50509050806128675760405162461bcd60e51b815260206004820152601060248201527f5472616e73666572206661696c65642e000000000000000000000000000000006044820152606401610a7e565b61022b546040805133815260208101929092527ff867832f09d3df16244ef05b595ad6197c4fc2da636495ff70035f1acdf2ba0a9101611c38565b6001600160a01b0382166128f85760405162461bcd60e51b815260206004820181905260248201527f4552433732313a206d696e7420746f20746865207a65726f20616464726573736044820152606401610a7e565b600081815260cb60205260409020546001600160a01b03161561295d5760405162461bcd60e51b815260206004820152601c60248201527f4552433732313a20746f6b656e20616c7265616479206d696e746564000000006044820152606401610a7e565b61296960008383612f73565b6001600160a01b038216600090815260cc60205260408120805460019290612992908490613f88565b9091555050600081815260cb6020526040808220805473ffffffffffffffffffffffffffffffffffffffff19166001600160a01b03861690811790915590518392907fddf252ad1be2c89b69c2b068fc378daa952ba7f163c4a11628f55a4df523b3ef908290a45050565b61015f5460ff1615612a515760405162461bcd60e51b815260206004820152601060248201527f5061757361626c653a20706175736564000000000000000000000000000000006044820152606401610a7e565b61015f805460ff191660011790557f62e78cea01bee320cd4e420270b5ea74000d11b0c9f74754ebdbfc544b05a2586123523390565b60006116f3838361320f565b600054610100900460ff1680612aac575060005460ff16155b612b0f5760405162461bcd60e51b815260206004820152602e60248201527f496e697469616c697a61626c653a20636f6e747261637420697320616c72656160448201526d191e481a5b9a5d1a585b1a5e995960921b6064820152608401610a7e565b600054610100900460ff16158015612b31576000805461ffff19166101011790555b8251612b449060c99060208601906137cc565b508151612b589060ca9060208501906137cc565b508015610bd0576000805461ff0019169055505050565b600054610100900460ff1680612b88575060005460ff16155b612beb5760405162461bcd60e51b815260206004820152602e60248201527f496e697469616c697a61626c653a20636f6e747261637420697320616c72656160448201526d191e481a5b9a5d1a585b1a5e995960921b6064820152608401610a7e565b600054610100900460ff16158015612c0d576000805461ffff19166101011790555b8151612c21906101c49060208501906137cc565b50612c2e6000335b6132be565b612c587f9f2df0fed2c77648de5860a4cc508cd0818c85b8b8a1ab4ceeef8d981c8956a633612c29565b61188e7f65d7a28e3265b37a6474929f336521b332c1681b933f6cb9f3376673440d862a33612c29565b612c8d848484611f9d565b612c99848484846132c8565b6118a05760405162461bcd60e51b815260206004820152603260248201527f4552433732313a207472616e7366657220746f206e6f6e20455243373231526560448201527f63656976657220696d706c656d656e74657200000000000000000000000000006064820152608401610a7e565b60606101c4805461098590613ff7565b606081612d5c575060408051808201909152600181527f30000000000000000000000000000000000000000000000000000000000000006020820152610971565b8160005b8115612d865780612d7081614032565b9150612d7f9050600a83613fa0565b9150612d60565b60008167ffffffffffffffff811115612daf57634e487b7160e01b600052604160045260246000fd5b6040519080825280601f01601f191660200182016040528015612dd9576020820181803683370190505b5090505b8415611f9557612dee600183613fb4565b9150612dfb600a8661404d565b612e06906030613f88565b60f81b818381518110612e2957634e487b7160e01b600052603260045260246000fd5b60200101907effffffffffffffffffffffffffffffffffffffffffffffffffffffffffffff1916908160001a905350612e63600a86613fa0565b9450612ddd565b600061096e825490565b600082815260656020526040902060010154612e8f90612199565b6122b25760405162461bcd60e51b815260206004820152603060248201527f416363657373436f6e74726f6c3a2073656e646572206d75737420626520616e60448201527f2061646d696e20746f207265766f6b65000000000000000000000000000000006064820152608401610a7e565b60006001600160e01b031982167f80ac58cd000000000000000000000000000000000000000000000000000000001480612f6457506001600160e01b031982167f5b5e139f00000000000000000000000000000000000000000000000000000000145b8061096e575061096e8261342b565b610bd0838383613469565b60008281526065602090815260408083206001600160a01b038516845290915290205460ff1661221b5760008281526065602090815260408083206001600160a01b03851684529091529020805460ff19166001179055612fdc3390565b6001600160a01b0316816001600160a01b0316837f2f8788117e7eff1d82e926ec794901d17c78024a50270940304540a733656f0d60405160405180910390a45050565b600081815260018301602052604081205461306757508154600181810184556000848152602080822090930184905584548482528286019093526040902091909155610f83565b506000610f83565b60008281526065602090815260408083206001600160a01b038516845290915290205460ff161561221b5760008281526065602090815260408083206001600160a01b0385168085529252808320805460ff1916905551339285917ff6391f5c32d9c69d2a47ea670b442974b53935d1edc7fd64eb21e047a839171b9190a45050565b60008181526001830160205260408120548015613205576000613116600183613fb4565b855490915060009061312a90600190613fb4565b9050600086600001828154811061315157634e487b7160e01b600052603260045260246000fd5b906000526020600020015490508087600001848154811061318257634e487b7160e01b600052603260045260246000fd5b600091825260209091200155613199836001613f88565b600082815260018901602052604090205586548790806131c957634e487b7160e01b600052603160045260246000fd5b60019003818190600052602060002001600090559055866001016000878152602001908152602001600020600090556001945050505050610f83565b6000915050610f83565b815460009082106132885760405162461bcd60e51b815260206004820152602260248201527f456e756d657261626c655365743a20696e646578206f7574206f6620626f756e60448201527f64730000000000000000000000000000000000000000000000000000000000006064820152608401610a7e565b8260000182815481106132ab57634e487b7160e01b600052603260045260246000fd5b9060005260206000200154905092915050565b610ec68282612211565b60006001600160a01b0384163b1561342057604051630a85bd0160e11b81526001600160a01b0385169063150b7a029061330c903390899088908890600401613d36565b602060405180830381600087803b15801561332657600080fd5b505af1925050508015613356575060408051601f3d908101601f1916820190925261335391810190613be5565b60015b613406573d808015613384576040519150601f19603f3d011682016040523d82523d6000602084013e613389565b606091505b5080516133fe5760405162461bcd60e51b815260206004820152603260248201527f4552433732313a207472616e7366657220746f206e6f6e20455243373231526560448201527f63656976657220696d706c656d656e74657200000000000000000000000000006064820152608401610a7e565b805181602001fd5b6001600160e01b031916630a85bd0160e11b149050611f95565b506001949350505050565b60006001600160e01b031982167f5a05180f00000000000000000000000000000000000000000000000000000000148061096e575061096e826134ee565b613474838383613555565b61015f5460ff1615610bd05760405162461bcd60e51b815260206004820152602b60248201527f4552433732315061757361626c653a20746f6b656e207472616e73666572207760448201527f68696c65207061757365640000000000000000000000000000000000000000006064820152608401610a7e565b60006001600160e01b031982167f7965db0b00000000000000000000000000000000000000000000000000000000148061096e57507f01ffc9a7000000000000000000000000000000000000000000000000000000006001600160e01b031983161461096e565b6001600160a01b0383166135b0576135ab8160fd8054600083815260fe60205260408120829055600182018355919091527f9346ac6dd7de6b96975fec380d4d994c4c12e6a8897544f22915316cc6cca2800155565b6135d3565b816001600160a01b0316836001600160a01b0316146135d3576135d38382613612565b6001600160a01b0382166135ef576135ea816136af565b610bd0565b826001600160a01b0316826001600160a01b031614610bd057610bd08282613788565b6000600161361f8461158c565b6136299190613fb4565b600083815260fc602052604090205490915080821461367c576001600160a01b038416600090815260fb60209081526040808320858452825280832054848452818420819055835260fc90915290208190555b50600091825260fc602090815260408084208490556001600160a01b03909416835260fb81528383209183525290812055565b60fd546000906136c190600190613fb4565b600083815260fe602052604081205460fd80549394509092849081106136f757634e487b7160e01b600052603260045260246000fd5b906000526020600020015490508060fd838154811061372657634e487b7160e01b600052603260045260246000fd5b600091825260208083209091019290925582815260fe909152604080822084905585825281205560fd80548061376c57634e487b7160e01b600052603160045260246000fd5b6001900381819060005260206000200160009055905550505050565b60006137938361158c565b6001600160a01b03909316600090815260fb60209081526040808320868452825280832085905593825260fc9052919091209190915550565b8280546137d890613ff7565b90600052602060002090601f0160209004810192826137fa5760008555613840565b82601f1061381357805160ff1916838001178555613840565b82800160010185558215613840579182015b82811115613840578251825591602001919060010190613825565b5061384c929150613850565b5090565b5b8082111561384c5760008155600101613851565b600067ffffffffffffffff83111561387f5761387f61408d565b613892601f8401601f1916602001613f57565b90508281528383830111156138a657600080fd5b828260208301376000602084830101529392505050565b600082601f8301126138cd578081fd5b6116f383833560208501613865565b6000602082840312156138ed578081fd5b81356116f3816140a3565b6000806040838503121561390a578081fd5b8235613915816140a3565b91506020830135613925816140a3565b809150509250929050565b600080600060608486031215613944578081fd5b833561394f816140a3565b9250602084013561395f816140a3565b929592945050506040919091013590565b60008060008060808587031215613985578081fd5b8435613990816140a3565b935060208501356139a0816140a3565b925060408501359150606085013567ffffffffffffffff8111156139c2578182fd5b8501601f810187136139d2578182fd5b6139e187823560208401613865565b91505092959194509250565b60008060008060808587031215613a02578384fd5b8435613a0d816140a3565b935060208581013567ffffffffffffffff80821115613a2a578586fd5b818801915088601f830112613a3d578586fd5b813581811115613a4f57613a4f61408d565b613a5d848260051b01613f57565b8082825285820191508585018c878560061b8801011115613a7c57898afd5b8995505b83861015613ac957604080828f031215613a98578a8bfd5b613aa181613f57565b8235613aac816140a3565b815282890135898201528452600196909601959287019201613a80565b50975050506040880135925080831115613ae1578485fd5b613aed89848a016138bd565b94506060880135925080831115613b02578384fd5b50506139e1878288016138bd565b60008060408385031215613b22578182fd5b8235613b2d816140a3565b915060208301358015158114613925578182fd5b60008060408385031215613b53578182fd5b8235613b5e816140a3565b946020939093013593505050565b600060208284031215613b7d578081fd5b5035919050565b60008060408385031215613b96578182fd5b823591506020830135613925816140a3565b60008060408385031215613bba578182fd5b50508035926020909101359150565b600060208284031215613bda578081fd5b81356116f3816140b8565b600060208284031215613bf6578081fd5b81516116f3816140b8565b600080600060608486031215613c15578081fd5b833567ffffffffffffffff80821115613c2c578283fd5b613c38878388016138bd565b94506020860135915080821115613c4d578283fd5b613c59878388016138bd565b93506040860135915080821115613c6e578283fd5b50613c7b868287016138bd565b9150509250925092565b6000815180845260208085019450808401835b83811015613cb457815187529582019590820190600101613c98565b509495945050505050565b60008151808452613cd7816020860160208601613fcb565b601f01601f19169290920160200192915050565b60008251613cfd818460208701613fcb565b9190910192915050565b60008351613d19818460208801613fcb565b835190830190613d2d818360208801613fcb565b01949350505050565b60006001600160a01b03808716835280861660208401525083604083015260806060830152613d686080830184613cbf565b9695505050505050565b60006001600160a01b038516825283602083015260606040830152613d9a6060830184613cbf565b95945050505050565b60006001600160a01b0385168252602084818401526060604084015281845483600182811c915080831680613dd957607f831692505b858310811415613df757634e487b7160e01b87526022600452602487fd5b6060880183905260808801818015613e165760018114613e2757613e51565b60ff19861682528782019650613e51565b60008b815260209020895b86811015613e4b57815484820152908501908901613e32565b83019750505b50949b9a5050505050505050505050565b6020808252825182820181905260009190848201906040850190845b81811015613ea35783516001600160a01b031683529284019291840191600101613e7e565b50909695505050505050565b6000602082526116f36020830184613c85565b6000602082526116f36020830184613cbf565b60006060820185835260206060818501528186518084526080860191508288019350845b81811015613f1e5784516001600160a01b031683529383019391830191600101613ef9565b50508481036040860152613f328187613c85565b98975050505050505050565b600083825260406020830152611f956040830184613cbf565b604051601f8201601f1916810167ffffffffffffffff81118282101715613f8057613f8061408d565b604052919050565b60008219821115613f9b57613f9b614061565b500190565b600082613faf57613faf614077565b500490565b600082821015613fc657613fc6614061565b500390565b60005b83811015613fe6578181015183820152602001613fce565b838111156118a05750506000910152565b600181811c9082168061400b57607f821691505b6020821081141561402c57634e487b7160e01b600052602260045260246000fd5b50919050565b600060001982141561404657614046614061565b5060010190565b60008261405c5761405c614077565b500690565b634e487b7160e01b600052601160045260246000fd5b634e487b7160e01b600052601260045260246000fd5b634e487b7160e01b600052604160045260246000fd5b6001600160a01b03811681146110f257600080fd5b6001600160e01b0319811681146110f257600080fdfea2646970667358221220c44777fbbb424835f669a551b6e63e7ad9a0952e5679b85336164f1be761ff8564736f6c63430008030033",
  "immutableReferences": {},
  "source": "// SPDX-License-Identifier: MIT\npragma solidity ^0.8.3;\n\nimport \"./ERC721PresetMinterPauserAutoIdUpgradeable.sol\";\nimport \"@openzeppelin/contracts-upgradeable/security/ReentrancyGuardUpgradeable.sol\";\nimport \"@openzeppelin/contracts-upgradeable/security/ReentrancyGuardUpgradeable.sol\";\n\n/**\n * @dev ERC721 token with minting, burning, pause, secondary sales royalitiy functions.\n *\n */\ncontract GhostmarketERC721 is\n    Initializable,\n    ERC721PresetMinterPauserAutoIdUpgradeable,\n    ReentrancyGuardUpgradeable\n{\n    // struct for secondary sales fees\n    struct Fee {\n        address payable recipient;\n        uint256 value;\n    }\n\n    // tokenId => attributes array\n    mapping(uint256 => string) private _metadataJson;\n\n    // tokenId => fees array\n    mapping(uint256 => Fee[]) public fees;\n\n    // tokenId => locked content string\n    mapping(uint256 => string) public _lockedContent;\n    // tokenId => locked content view counter\n    mapping(uint256 => uint256) private _lockedContentViewTracker;\n\n    event SecondarySaleFees(\n        uint256 tokenId,\n        address[] recipients,\n        uint256[] bps\n    );\n\n    event LockedContentViewed(\n        address msgSender,\n        uint256 tokenId,\n        string lockedContent\n    );\n\n    event AttributesSet(uint256 tokenId, string metadataJson);\n    event GhostmarketFeeAddressChanged(address newValue);\n    event GhostmarketFeeMultiplierChanged(uint256 newValue);\n    event GhostmarketMintFeeChanged(uint256 newValue);\n    event GhostmarketFeePaid(address sender, uint256 value);\n    event Minted(address toAddress, uint256 tokenId, string tokenURI);\n\n    // minting fee\n    uint256 private _ghostmarketMintingFee;\n\n    //address where the transfer fees will be sent\n    address payable private _ghostmarketFeeAddress;\n\n    function initialize(\n        string memory name,\n        string memory symbol,\n        string memory uri\n    ) public override initializer {\n        __ERC721_init_unchained(name, symbol);\n        __ERC721PresetMinterPauserAutoId_init_unchained(name, symbol, uri);\n    }\n\n    /**\n     * @dev saves the nft tokens custom attributes to contract storage\n     * emits AttributesSet event\n     */\n    function _setMetadataJson(uint256 tokenId, string memory metadataJson)\n        internal\n    {\n        _metadataJson[tokenId] = metadataJson;\n        emit AttributesSet(tokenId, metadataJson);\n    }\n\n    /**\n     * @dev get the nft token attributes with the tokenId\n     */\n    function getMetadataJson(uint256 tokenId)\n        public\n        view\n        returns (string memory)\n    {\n        return _metadataJson[tokenId];\n    }\n\n    /**\n     * @dev get the \"secondary sales\"/royalities fee recepients with the tokenId\n     */\n    function getFeeRecipients(uint256 _tokenId)\n        public\n        view\n        returns (address payable[] memory)\n    {\n        Fee[] memory _fees = fees[_tokenId];\n        address payable[] memory result = new address payable[](_fees.length);\n        for (uint256 i = 0; i < _fees.length; i++) {\n            result[i] = _fees[i].recipient;\n        }\n        return result;\n    }\n\n    /**\n     * @dev get the \"secondary sales\"/royalities fee for the NFT id\n     * fee basis points 10000 = 100%\n     */\n    function getFeeBps(uint256 _tokenId)\n        public\n        view\n        returns (uint256[] memory)\n    {\n        Fee[] memory _fees = fees[_tokenId];\n        uint256[] memory result = new uint256[](_fees.length);\n        for (uint256 i = 0; i < _fees.length; i++) {\n            result[i] = _fees[i].value;\n        }\n        return result;\n    }\n\n    /**\n     * @dev save the \"secondary sales\"/royalities fee for the NFT id\n     * fee basis points 10000 = 100%\n     */\n    function saveFees(uint256 _tokenId, Fee[] memory _fees) internal {\n        require(\n            _exists(_tokenId),\n            \"ERC721: approved query for nonexistent token\"\n        );\n        for (uint256 i = 0; i < _fees.length; i++) {\n            require(\n                _fees[i].recipient != address(0x0),\n                \"Recipient should be present\"\n            );\n            require(_fees[i].value > 0, \"Fee value should be positive\");\n            fees[_tokenId].push(_fees[i]);\n        }\n    }\n\n    /**\n     * @dev mint NFT and set fee, save metadata json, set lockedcontent\n     */\n    function mintGhost(\n        address _to,\n        Fee[] memory _fees,\n        string memory metadata,\n        string memory lockedcontent\n    ) public payable nonReentrant {\n        mint(_to);\n        uint256 _tokenId = getLastTokenID();\n        address[] memory recipients = new address[](_fees.length);\n        uint256[] memory bps = new uint256[](_fees.length);\n        if (_fees.length > 0) {\n            saveFees(_tokenId, _fees);\n            emit SecondarySaleFees(_tokenId, recipients, bps);\n        }\n        if (\n            keccak256(abi.encodePacked(metadata)) !=\n            keccak256(abi.encodePacked(\"\"))\n        ) {\n            _setMetadataJson(_tokenId, metadata);\n        }\n        if (\n            keccak256(abi.encodePacked(lockedcontent)) !=\n            keccak256(abi.encodePacked(\"\"))\n        ) {\n            setLockedContent(_tokenId, lockedcontent);\n        }\n        if (_ghostmarketMintingFee > 0) {\n            _sendMintingFee();\n        }\n        emit Minted(_to, _tokenId, tokenURI(_tokenId));\n    }\n\n    /**\n     * @dev send minting fee to Ghostmarket\n     */\n    function _sendMintingFee() internal {\n        require(\n            _ghostmarketFeeAddress != address(0),\n            \"Ghostmarket minting Fee Address not set\"\n        );\n        require(\n            _ghostmarketMintingFee > 0,\n            \"Ghostmarket minting fee should be greater then 0\"\n        );\n        (bool success, ) = _ghostmarketFeeAddress.call{value: _ghostmarketMintingFee}(\"\");\n        require(success, \"Transfer failed.\");\n        emit GhostmarketFeePaid(msg.sender, _ghostmarketMintingFee);\n    }\n\n    /**\n     * @dev set the wallet address where fees will be collected\n     */\n    function setGhostmarketFeeAddress(address payable gmfa) public {\n        require(\n            hasRole(DEFAULT_ADMIN_ROLE, _msgSender()),\n            \"Caller must have admin role to set minting fee address\"\n        );\n        _ghostmarketFeeAddress = gmfa;\n        emit GhostmarketFeeAddressChanged(_ghostmarketFeeAddress);\n    }\n\n\n\n    /**\n     * @dev sets the transfer fee\n     */\n    function setGhostmarketMintFee(uint256 gmmf) public {\n        require(\n            hasRole(DEFAULT_ADMIN_ROLE, _msgSender()),\n            \"Caller must have admin role to set minting fee percent\"\n        );\n        _ghostmarketMintingFee = gmmf;\n        emit GhostmarketMintFeeChanged(_ghostmarketMintingFee);\n    }\n\n    /**\n     * @return the ghostmarketFeeAddress\n     */\n    function ghostmarketFeeAddress() public view returns (address payable) {\n        return _ghostmarketFeeAddress;\n    }\n\n    /**\n     * @return the ghostmarketMintingFee.\n     */\n    function ghostmarketMintingFee() public view returns (uint256) {\n        return _ghostmarketMintingFee;\n    }\n\n    /**\n     * @dev save locked content as string for a specific _tokenId.\n     */\n    function setLockedContent(uint256 _tokenId, string memory content)\n        internal\n    {\n        _lockedContent[_tokenId] = content;\n    }\n\n    /**\n     * @dev locked content for a NFT can be retrived only by emitting an event\n     *\n     * example event:\n     * msgSender: 0x1a1122c2483e8f988F9a800F3A6eE316dB77e4e0 (type: address),\n     * tokenId: 0 (type: uint256),\n     * lockedContent: 'top secret' (type: string)\n     */\n    function getLockedContent(uint256 _tokenId) public returns (string memory) {\n        require(\n            ownerOf(_tokenId) == msg.sender,\n            \"Caller must be the owner of the NFT\"\n        );\n        _incrementCurrentLockedContentViewTracker(_tokenId);\n        emit LockedContentViewed(\n            msg.sender,\n            _tokenId,\n            _lockedContent[_tokenId]\n        );\n    }\n\n    /**\n     * @dev increment locked content view tracker\n     */\n    function _incrementCurrentLockedContentViewTracker(uint256 _tokenId)\n        private\n    {\n        _lockedContentViewTracker[_tokenId] =\n            _lockedContentViewTracker[_tokenId] +\n            1;\n    }\n\n    /**\n     * @dev get the durrent locked content view tracker for specific _tokenId\n     */\n    function getCurrentLockedContentViewTracker(uint256 _tokenId)\n        public\n        view\n        returns (uint256)\n    {\n        return _lockedContentViewTracker[_tokenId];\n    }\n}\n",
  "sourcePath": "/Users/selimerunkut/dev_freelance/GhostMarketContractBSC/contracts/GhostmarketERC721.sol",
  "compiler": {
    "name": "solc",
    "version": "0.8.3+commit.8d00100c.Emscripten.clang"
  },
  "schemaVersion": "3.4.1",
  "updatedAt": "2021-05-13T14:50:47.280Z",
  "networkType": "ethereum",
  "devdoc": {
    "details": "ERC721 token with minting, burning, pause, secondary sales royalitiy functions.",
    "kind": "dev",
    "methods": {
      "approve(address,uint256)": {
        "details": "See {IERC721-approve}."
      },
      "balanceOf(address)": {
        "details": "See {IERC721-balanceOf}."
      },
      "burn(uint256)": {
        "details": "Burns `tokenId`. See {ERC721-_burn}. Requirements: - The caller must own `tokenId` or be an approved operator."
      },
      "getApproved(uint256)": {
        "details": "See {IERC721-getApproved}."
      },
      "getCurrentLockedContentViewTracker(uint256)": {
        "details": "get the durrent locked content view tracker for specific _tokenId"
      },
      "getFeeBps(uint256)": {
        "details": "get the \"secondary sales\"/royalities fee for the NFT id fee basis points 10000 = 100%"
      },
      "getFeeRecipients(uint256)": {
        "details": "get the \"secondary sales\"/royalities fee recepients with the tokenId"
      },
      "getLockedContent(uint256)": {
        "details": "locked content for a NFT can be retrived only by emitting an event example event: msgSender: 0x1a1122c2483e8f988F9a800F3A6eE316dB77e4e0 (type: address), tokenId: 0 (type: uint256), lockedContent: 'top secret' (type: string)"
      },
      "getMetadataJson(uint256)": {
        "details": "get the nft token attributes with the tokenId"
      },
      "getRoleAdmin(bytes32)": {
        "details": "Returns the admin role that controls `role`. See {grantRole} and {revokeRole}. To change a role's admin, use {_setRoleAdmin}."
      },
      "getRoleMember(bytes32,uint256)": {
        "details": "Returns one of the accounts that have `role`. `index` must be a value between 0 and {getRoleMemberCount}, non-inclusive. Role bearers are not sorted in any particular way, and their ordering may change at any point. WARNING: When using {getRoleMember} and {getRoleMemberCount}, make sure you perform all queries on the same block. See the following https://forum.openzeppelin.com/t/iterating-over-elements-on-enumerableset-in-openzeppelin-contracts/2296[forum post] for more information."
      },
      "getRoleMemberCount(bytes32)": {
        "details": "Returns the number of accounts that have `role`. Can be used together with {getRoleMember} to enumerate all bearers of a role."
      },
      "ghostmarketFeeAddress()": {
        "returns": {
          "_0": "the ghostmarketFeeAddress"
        }
      },
      "ghostmarketMintingFee()": {
        "returns": {
          "_0": "the ghostmarketMintingFee."
        }
      },
      "grantRole(bytes32,address)": {
        "details": "Overload {grantRole} to track enumerable memberships"
      },
      "hasRole(bytes32,address)": {
        "details": "Returns `true` if `account` has been granted `role`."
      },
      "isApprovedForAll(address,address)": {
        "details": "See {IERC721-isApprovedForAll}."
      },
      "mint(address)": {
        "details": "Creates a new token for `to`. Its token ID will be automatically assigned (and available on the emitted {IERC721-Transfer} event), and the token URI autogenerated based on the base URI passed at construction. See {ERC721-_mint}. Requirements: - the caller must have the `MINTER_ROLE`."
      },
      "mintGhost(address,(address,uint256)[],string,string)": {
        "details": "mint NFT and set fee, save metadata json, set lockedcontent"
      },
      "name()": {
        "details": "See {IERC721Metadata-name}."
      },
      "ownerOf(uint256)": {
        "details": "See {IERC721-ownerOf}."
      },
      "pause()": {
        "details": "Pauses all token transfers. See {ERC721Pausable} and {Pausable-_pause}. Requirements: - the caller must have the `PAUSER_ROLE`."
      },
      "paused()": {
        "details": "Returns true if the contract is paused, and false otherwise."
      },
      "renounceRole(bytes32,address)": {
        "details": "Overload {renounceRole} to track enumerable memberships"
      },
      "revokeRole(bytes32,address)": {
        "details": "Overload {revokeRole} to track enumerable memberships"
      },
      "safeTransferFrom(address,address,uint256)": {
        "details": "See {IERC721-safeTransferFrom}."
      },
      "safeTransferFrom(address,address,uint256,bytes)": {
        "details": "See {IERC721-safeTransferFrom}."
      },
      "setApprovalForAll(address,bool)": {
        "details": "See {IERC721-setApprovalForAll}."
      },
      "setGhostmarketFeeAddress(address)": {
        "details": "set the wallet address where fees will be collected"
      },
      "setGhostmarketMintFee(uint256)": {
        "details": "sets the transfer fee"
      },
      "supportsInterface(bytes4)": {
        "details": "See {IERC165-supportsInterface}."
      },
      "symbol()": {
        "details": "See {IERC721Metadata-symbol}."
      },
      "tokenByIndex(uint256)": {
        "details": "See {IERC721Enumerable-tokenByIndex}."
      },
      "tokenOfOwnerByIndex(address,uint256)": {
        "details": "See {IERC721Enumerable-tokenOfOwnerByIndex}."
      },
      "tokenURI(uint256)": {
        "details": "See {IERC721Metadata-tokenURI}."
      },
      "totalSupply()": {
        "details": "See {IERC721Enumerable-totalSupply}."
      },
      "transferFrom(address,address,uint256)": {
        "details": "See {IERC721-transferFrom}."
      },
      "unpause()": {
        "details": "Unpauses all token transfers. See {ERC721Pausable} and {Pausable-_unpause}. Requirements: - the caller must have the `PAUSER_ROLE`."
      }
    },
    "version": 1
  },
  "userdoc": {
    "kind": "user",
    "methods": {},
    "version": 1
  }
}