{
  "contractName": "LibAttribute",
  "abi": [
    {
      "inputs": [],
      "name": "TYPE_HASH",
      "outputs": [
        {
          "internalType": "bytes32",
          "name": "",
          "type": "bytes32"
        }
      ],
      "stateMutability": "view",
      "type": "function"
    }
  ],
  "bytecode": "0x60a6610038600b82828239805160001a607314602b57634e487b7160e01b600052600060045260246000fd5b30600052607381538281f3fe730000000000000000000000000000000000000000301460806040526004361060335760003560e01c806364d4c819146038575b600080fd5b605e7f37e0fca5e009561e237594365626f5e7301055b0c487ad148a29bfe09ab8585581565b60405190815260200160405180910390f3fea26469706673582212201715b6026f2d9568c188f1a47d6a5278ad2310f6e01d77fb4b82d90404d81eb864736f6c63430008030033",
  "immutableReferences": {},
  "source": "pragma solidity 0.8.3;\n\nlibrary LibAttribute {\n    bytes32 public constant TYPE_HASH =\n        keccak256(\"Attribute(uint256 attribute,uint256 value)\");\n\n    struct Part {\n        uint256 attribute;\n        uint256 value;\n    }\n\n    function hash(Part memory part) internal pure returns (bytes32) {\n        return keccak256(abi.encode(TYPE_HASH, part.attribute, part.value));\n    }\n}\n",
  "sourcePath": "/Users/selimerunkut/dev_freelance/GhostMarketContractBSC/contracts/LibAttribute.sol",
  "compiler": {
    "name": "solc",
    "version": "0.8.3+commit.8d00100c.Emscripten.clang"
  },
  "schemaVersion": "3.3.4",
  "updatedAt": "2021-04-23T12:01:38.640Z",
  "devdoc": {
    "kind": "dev",
    "methods": {},
    "version": 1
  },
  "userdoc": {
    "kind": "user",
    "methods": {},
    "version": 1
  }
}