{
  "contractName": "TestableGhostmarketNFT",
  "abi": [
    {
      "anonymous": false,
      "inputs": [
        {
          "indexed": true,
          "internalType": "address",
          "name": "owner",
          "type": "address"
        },
        {
          "indexed": true,
          "internalType": "address",
          "name": "approved",
          "type": "address"
        },
        {
          "indexed": true,
          "internalType": "uint256",
          "name": "tokenId",
          "type": "uint256"
        }
      ],
      "name": "Approval",
      "type": "event"
    },
    {
      "anonymous": false,
      "inputs": [
        {
          "indexed": true,
          "internalType": "address",
          "name": "owner",
          "type": "address"
        },
        {
          "indexed": true,
          "internalType": "address",
          "name": "operator",
          "type": "address"
        },
        {
          "indexed": false,
          "internalType": "bool",
          "name": "approved",
          "type": "bool"
        }
      ],
      "name": "ApprovalForAll",
      "type": "event"
    },
    {
      "anonymous": false,
      "inputs": [
        {
          "indexed": false,
          "internalType": "uint256",
          "name": "tokenId",
          "type": "uint256"
        },
        {
          "components": [
            {
              "internalType": "string",
              "name": "key",
              "type": "string"
            },
            {
              "internalType": "string",
              "name": "value",
              "type": "string"
            }
          ],
          "indexed": false,
          "internalType": "struct GhostmarketNFT.AttributesStruct[]",
          "name": "attributes",
          "type": "tuple[]"
        }
      ],
      "name": "AttributesSet",
      "type": "event"
    },
    {
      "anonymous": false,
      "inputs": [
        {
          "indexed": false,
          "internalType": "address",
          "name": "account",
          "type": "address"
        }
      ],
      "name": "Paused",
      "type": "event"
    },
    {
      "anonymous": false,
      "inputs": [
        {
          "indexed": true,
          "internalType": "bytes32",
          "name": "role",
          "type": "bytes32"
        },
        {
          "indexed": true,
          "internalType": "bytes32",
          "name": "previousAdminRole",
          "type": "bytes32"
        },
        {
          "indexed": true,
          "internalType": "bytes32",
          "name": "newAdminRole",
          "type": "bytes32"
        }
      ],
      "name": "RoleAdminChanged",
      "type": "event"
    },
    {
      "anonymous": false,
      "inputs": [
        {
          "indexed": true,
          "internalType": "bytes32",
          "name": "role",
          "type": "bytes32"
        },
        {
          "indexed": true,
          "internalType": "address",
          "name": "account",
          "type": "address"
        },
        {
          "indexed": true,
          "internalType": "address",
          "name": "sender",
          "type": "address"
        }
      ],
      "name": "RoleGranted",
      "type": "event"
    },
    {
      "anonymous": false,
      "inputs": [
        {
          "indexed": true,
          "internalType": "bytes32",
          "name": "role",
          "type": "bytes32"
        },
        {
          "indexed": true,
          "internalType": "address",
          "name": "account",
          "type": "address"
        },
        {
          "indexed": true,
          "internalType": "address",
          "name": "sender",
          "type": "address"
        }
      ],
      "name": "RoleRevoked",
      "type": "event"
    },
    {
      "anonymous": false,
      "inputs": [
        {
          "indexed": false,
          "internalType": "uint256",
          "name": "tokenId",
          "type": "uint256"
        },
        {
          "indexed": false,
          "internalType": "address[]",
          "name": "recipients",
          "type": "address[]"
        },
        {
          "indexed": false,
          "internalType": "uint256[]",
          "name": "bps",
          "type": "uint256[]"
        }
      ],
      "name": "SecondarySaleFees",
      "type": "event"
    },
    {
      "anonymous": false,
      "inputs": [
        {
          "indexed": true,
          "internalType": "address",
          "name": "from",
          "type": "address"
        },
        {
          "indexed": true,
          "internalType": "address",
          "name": "to",
          "type": "address"
        },
        {
          "indexed": true,
          "internalType": "uint256",
          "name": "tokenId",
          "type": "uint256"
        }
      ],
      "name": "Transfer",
      "type": "event"
    },
    {
      "anonymous": false,
      "inputs": [
        {
          "indexed": false,
          "internalType": "address",
          "name": "account",
          "type": "address"
        }
      ],
      "name": "Unpaused",
      "type": "event"
    },
    {
      "inputs": [],
      "name": "DEFAULT_ADMIN_ROLE",
      "outputs": [
        {
          "internalType": "bytes32",
          "name": "",
          "type": "bytes32"
        }
      ],
      "stateMutability": "view",
      "type": "function"
    },
    {
      "inputs": [],
      "name": "MINTER_ROLE",
      "outputs": [
        {
          "internalType": "bytes32",
          "name": "",
          "type": "bytes32"
        }
      ],
      "stateMutability": "view",
      "type": "function"
    },
    {
      "inputs": [],
      "name": "PAUSER_ROLE",
      "outputs": [
        {
          "internalType": "bytes32",
          "name": "",
          "type": "bytes32"
        }
      ],
      "stateMutability": "view",
      "type": "function"
    },
    {
      "inputs": [
        {
          "internalType": "address",
          "name": "to",
          "type": "address"
        },
        {
          "internalType": "uint256",
          "name": "tokenId",
          "type": "uint256"
        }
      ],
      "name": "approve",
      "outputs": [],
      "stateMutability": "nonpayable",
      "type": "function"
    },
    {
      "inputs": [
        {
          "internalType": "uint256",
          "name": "",
          "type": "uint256"
        },
        {
          "internalType": "uint256",
          "name": "",
          "type": "uint256"
        }
      ],
      "name": "attribute",
      "outputs": [
        {
          "internalType": "string",
          "name": "key",
          "type": "string"
        },
        {
          "internalType": "string",
          "name": "value",
          "type": "string"
        }
      ],
      "stateMutability": "view",
      "type": "function"
    },
    {
      "inputs": [
        {
          "internalType": "address",
          "name": "owner",
          "type": "address"
        }
      ],
      "name": "balanceOf",
      "outputs": [
        {
          "internalType": "uint256",
          "name": "",
          "type": "uint256"
        }
      ],
      "stateMutability": "view",
      "type": "function"
    },
    {
      "inputs": [
        {
          "internalType": "uint256",
          "name": "tokenId",
          "type": "uint256"
        }
      ],
      "name": "burn",
      "outputs": [],
      "stateMutability": "nonpayable",
      "type": "function"
    },
    {
      "inputs": [
        {
          "internalType": "uint256",
          "name": "",
          "type": "uint256"
        },
        {
          "internalType": "uint256",
          "name": "",
          "type": "uint256"
        }
      ],
      "name": "fees",
      "outputs": [
        {
          "internalType": "address payable",
          "name": "recipient",
          "type": "address"
        },
        {
          "internalType": "uint256",
          "name": "value",
          "type": "uint256"
        }
      ],
      "stateMutability": "view",
      "type": "function"
    },
    {
      "inputs": [
        {
          "internalType": "uint256",
          "name": "tokenId",
          "type": "uint256"
        }
      ],
      "name": "getApproved",
      "outputs": [
        {
          "internalType": "address",
          "name": "",
          "type": "address"
        }
      ],
      "stateMutability": "view",
      "type": "function"
    },
    {
      "inputs": [
        {
          "internalType": "uint256",
          "name": "_token_id",
          "type": "uint256"
        }
      ],
      "name": "getAttributes",
      "outputs": [
        {
          "internalType": "string[]",
          "name": "",
          "type": "string[]"
        }
      ],
      "stateMutability": "nonpayable",
      "type": "function"
    },
    {
      "inputs": [
        {
          "internalType": "uint256",
          "name": "id",
          "type": "uint256"
        }
      ],
      "name": "getFeeBps",
      "outputs": [
        {
          "internalType": "uint256[]",
          "name": "",
          "type": "uint256[]"
        }
      ],
      "stateMutability": "view",
      "type": "function"
    },
    {
      "inputs": [
        {
          "internalType": "uint256",
          "name": "id",
          "type": "uint256"
        }
      ],
      "name": "getFeeRecipients",
      "outputs": [
        {
          "internalType": "address payable[]",
          "name": "",
          "type": "address[]"
        }
      ],
      "stateMutability": "view",
      "type": "function"
    },
    {
      "inputs": [
        {
          "internalType": "bytes32",
          "name": "role",
          "type": "bytes32"
        }
      ],
      "name": "getRoleAdmin",
      "outputs": [
        {
          "internalType": "bytes32",
          "name": "",
          "type": "bytes32"
        }
      ],
      "stateMutability": "view",
      "type": "function"
    },
    {
      "inputs": [
        {
          "internalType": "bytes32",
          "name": "role",
          "type": "bytes32"
        },
        {
          "internalType": "uint256",
          "name": "index",
          "type": "uint256"
        }
      ],
      "name": "getRoleMember",
      "outputs": [
        {
          "internalType": "address",
          "name": "",
          "type": "address"
        }
      ],
      "stateMutability": "view",
      "type": "function"
    },
    {
      "inputs": [
        {
          "internalType": "bytes32",
          "name": "role",
          "type": "bytes32"
        }
      ],
      "name": "getRoleMemberCount",
      "outputs": [
        {
          "internalType": "uint256",
          "name": "",
          "type": "uint256"
        }
      ],
      "stateMutability": "view",
      "type": "function"
    },
    {
      "inputs": [
        {
          "internalType": "bytes32",
          "name": "role",
          "type": "bytes32"
        },
        {
          "internalType": "address",
          "name": "account",
          "type": "address"
        }
      ],
      "name": "grantRole",
      "outputs": [],
      "stateMutability": "nonpayable",
      "type": "function"
    },
    {
      "inputs": [
        {
          "internalType": "bytes32",
          "name": "role",
          "type": "bytes32"
        },
        {
          "internalType": "address",
          "name": "account",
          "type": "address"
        }
      ],
      "name": "hasRole",
      "outputs": [
        {
          "internalType": "bool",
          "name": "",
          "type": "bool"
        }
      ],
      "stateMutability": "view",
      "type": "function"
    },
    {
      "inputs": [
        {
          "internalType": "string",
          "name": "name",
          "type": "string"
        },
        {
          "internalType": "string",
          "name": "symbol",
          "type": "string"
        },
        {
          "internalType": "string",
          "name": "uri",
          "type": "string"
        }
      ],
      "name": "initialize",
      "outputs": [],
      "stateMutability": "nonpayable",
      "type": "function"
    },
    {
      "inputs": [
        {
          "internalType": "address",
          "name": "owner",
          "type": "address"
        },
        {
          "internalType": "address",
          "name": "operator",
          "type": "address"
        }
      ],
      "name": "isApprovedForAll",
      "outputs": [
        {
          "internalType": "bool",
          "name": "",
          "type": "bool"
        }
      ],
      "stateMutability": "view",
      "type": "function"
    },
    {
      "inputs": [
        {
          "internalType": "address",
          "name": "to",
          "type": "address"
        }
      ],
      "name": "mint",
      "outputs": [],
      "stateMutability": "nonpayable",
      "type": "function"
    },
    {
      "inputs": [
        {
          "internalType": "address",
          "name": "to",
          "type": "address"
        },
        {
          "internalType": "uint256",
          "name": "tokenId",
          "type": "uint256"
        },
        {
          "components": [
            {
              "internalType": "address payable",
              "name": "recipient",
              "type": "address"
            },
            {
              "internalType": "uint256",
              "name": "value",
              "type": "uint256"
            }
          ],
          "internalType": "struct GhostmarketNFT.Fee[]",
          "name": "_fees",
          "type": "tuple[]"
        }
      ],
      "name": "mint",
      "outputs": [],
      "stateMutability": "nonpayable",
      "type": "function"
    },
    {
      "inputs": [],
      "name": "name",
      "outputs": [
        {
          "internalType": "string",
          "name": "",
          "type": "string"
        }
      ],
      "stateMutability": "view",
      "type": "function"
    },
    {
      "inputs": [
        {
          "internalType": "uint256",
          "name": "tokenId",
          "type": "uint256"
        }
      ],
      "name": "ownerOf",
      "outputs": [
        {
          "internalType": "address",
          "name": "",
          "type": "address"
        }
      ],
      "stateMutability": "view",
      "type": "function"
    },
    {
      "inputs": [],
      "name": "pause",
      "outputs": [],
      "stateMutability": "nonpayable",
      "type": "function"
    },
    {
      "inputs": [],
      "name": "paused",
      "outputs": [
        {
          "internalType": "bool",
          "name": "",
          "type": "bool"
        }
      ],
      "stateMutability": "view",
      "type": "function"
    },
    {
      "inputs": [
        {
          "internalType": "bytes32",
          "name": "role",
          "type": "bytes32"
        },
        {
          "internalType": "address",
          "name": "account",
          "type": "address"
        }
      ],
      "name": "renounceRole",
      "outputs": [],
      "stateMutability": "nonpayable",
      "type": "function"
    },
    {
      "inputs": [
        {
          "internalType": "bytes32",
          "name": "role",
          "type": "bytes32"
        },
        {
          "internalType": "address",
          "name": "account",
          "type": "address"
        }
      ],
      "name": "revokeRole",
      "outputs": [],
      "stateMutability": "nonpayable",
      "type": "function"
    },
    {
      "inputs": [
        {
          "internalType": "address",
          "name": "from",
          "type": "address"
        },
        {
          "internalType": "address",
          "name": "to",
          "type": "address"
        },
        {
          "internalType": "uint256",
          "name": "tokenId",
          "type": "uint256"
        }
      ],
      "name": "safeTransferFrom",
      "outputs": [],
      "stateMutability": "nonpayable",
      "type": "function"
    },
    {
      "inputs": [
        {
          "internalType": "address",
          "name": "from",
          "type": "address"
        },
        {
          "internalType": "address",
          "name": "to",
          "type": "address"
        },
        {
          "internalType": "uint256",
          "name": "tokenId",
          "type": "uint256"
        },
        {
          "internalType": "bytes",
          "name": "_data",
          "type": "bytes"
        }
      ],
      "name": "safeTransferFrom",
      "outputs": [],
      "stateMutability": "nonpayable",
      "type": "function"
    },
    {
      "inputs": [
        {
          "internalType": "uint256",
          "name": "_id",
          "type": "uint256"
        },
        {
          "components": [
            {
              "internalType": "address payable",
              "name": "recipient",
              "type": "address"
            },
            {
              "internalType": "uint256",
              "name": "value",
              "type": "uint256"
            }
          ],
          "internalType": "struct GhostmarketNFT.Fee[]",
          "name": "_fees",
          "type": "tuple[]"
        }
      ],
      "name": "saveFees",
      "outputs": [],
      "stateMutability": "nonpayable",
      "type": "function"
    },
    {
      "inputs": [
        {
          "internalType": "address",
          "name": "operator",
          "type": "address"
        },
        {
          "internalType": "bool",
          "name": "approved",
          "type": "bool"
        }
      ],
      "name": "setApprovalForAll",
      "outputs": [],
      "stateMutability": "nonpayable",
      "type": "function"
    },
    {
      "inputs": [
        {
          "internalType": "uint256",
          "name": "_tokenId",
          "type": "uint256"
        },
        {
          "components": [
            {
              "internalType": "string",
              "name": "key",
              "type": "string"
            },
            {
              "internalType": "string",
              "name": "value",
              "type": "string"
            }
          ],
          "internalType": "struct GhostmarketNFT.AttributesStruct[]",
          "name": "_attributes",
          "type": "tuple[]"
        }
      ],
      "name": "setAttributes",
      "outputs": [],
      "stateMutability": "nonpayable",
      "type": "function"
    },
    {
      "inputs": [
        {
          "internalType": "bytes4",
          "name": "interfaceId",
          "type": "bytes4"
        }
      ],
      "name": "supportsInterface",
      "outputs": [
        {
          "internalType": "bool",
          "name": "",
          "type": "bool"
        }
      ],
      "stateMutability": "view",
      "type": "function"
    },
    {
      "inputs": [],
      "name": "symbol",
      "outputs": [
        {
          "internalType": "string",
          "name": "",
          "type": "string"
        }
      ],
      "stateMutability": "view",
      "type": "function"
    },
    {
      "inputs": [
        {
          "internalType": "uint256",
          "name": "index",
          "type": "uint256"
        }
      ],
      "name": "tokenByIndex",
      "outputs": [
        {
          "internalType": "uint256",
          "name": "",
          "type": "uint256"
        }
      ],
      "stateMutability": "view",
      "type": "function"
    },
    {
      "inputs": [
        {
          "internalType": "address",
          "name": "owner",
          "type": "address"
        },
        {
          "internalType": "uint256",
          "name": "index",
          "type": "uint256"
        }
      ],
      "name": "tokenOfOwnerByIndex",
      "outputs": [
        {
          "internalType": "uint256",
          "name": "",
          "type": "uint256"
        }
      ],
      "stateMutability": "view",
      "type": "function"
    },
    {
      "inputs": [
        {
          "internalType": "uint256",
          "name": "tokenId",
          "type": "uint256"
        }
      ],
      "name": "tokenURI",
      "outputs": [
        {
          "internalType": "string",
          "name": "",
          "type": "string"
        }
      ],
      "stateMutability": "view",
      "type": "function"
    },
    {
      "inputs": [],
      "name": "totalSupply",
      "outputs": [
        {
          "internalType": "uint256",
          "name": "",
          "type": "uint256"
        }
      ],
      "stateMutability": "view",
      "type": "function"
    },
    {
      "inputs": [
        {
          "internalType": "address",
          "name": "from",
          "type": "address"
        },
        {
          "internalType": "address",
          "name": "to",
          "type": "address"
        },
        {
          "internalType": "uint256",
          "name": "tokenId",
          "type": "uint256"
        }
      ],
      "name": "transferFrom",
      "outputs": [],
      "stateMutability": "nonpayable",
      "type": "function"
    },
    {
      "inputs": [],
      "name": "unpause",
      "outputs": [],
      "stateMutability": "nonpayable",
      "type": "function"
    },
    {
      "inputs": [
        {
          "internalType": "uint256",
          "name": "_id",
          "type": "uint256"
        },
        {
          "internalType": "address",
          "name": "_from",
          "type": "address"
        },
        {
          "internalType": "address",
          "name": "_to",
          "type": "address"
        }
      ],
      "name": "updateAccount",
      "outputs": [],
      "stateMutability": "nonpayable",
      "type": "function"
    },
    {
      "inputs": [
        {
          "internalType": "uint256",
          "name": "_id",
          "type": "uint256"
        },
        {
          "components": [
            {
              "internalType": "address payable",
              "name": "recipient",
              "type": "address"
            },
            {
              "internalType": "uint256",
              "name": "value",
              "type": "uint256"
            }
          ],
          "internalType": "struct GhostmarketNFT.Fee[]",
          "name": "_fees",
          "type": "tuple[]"
        }
      ],
      "name": "test_saveFees",
      "outputs": [],
      "stateMutability": "nonpayable",
      "type": "function"
    },
    {
      "inputs": [
        {
          "internalType": "uint256",
          "name": "_id",
          "type": "uint256"
        },
        {
          "internalType": "address",
          "name": "_from",
          "type": "address"
        },
        {
          "internalType": "address",
          "name": "_to",
          "type": "address"
        }
      ],
      "name": "test_updateAccount",
      "outputs": [],
      "stateMutability": "nonpayable",
      "type": "function"
    }
  ],
  "bytecode": "0x608060405234801561001057600080fd5b50613fdb806100206000396000f3fe608060405234801561001057600080fd5b50600436106102e95760003560e01c80636352211e11610191578063a6487c53116100e3578063d539139311610097578063e63ab1e911610071578063e63ab1e914610681578063e985e9c5146106a8578063f8b4c882146106e4576102e9565b8063d539139314610634578063d547741f1461065b578063e07f23191461066e576102e9565b8063b9c4d9fb116100c8578063b9c4d9fb146105ee578063c87b56dd1461060e578063ca15c87314610621576102e9565b8063a6487c53146105c8578063b88d4fde146105db576102e9565b80638456cb591161014557806395d89b411161011f57806395d89b41146105a5578063a217fddf146105ad578063a22cb465146105b5576102e9565b80638456cb59146105515780639010d07c1461055957806391d148541461056c576102e9565b806370a082311161017657806370a0823114610518578063792fcf261461052b5780637c8804211461053e576102e9565b80636352211e146104f25780636a62784214610505576102e9565b80632f745c591161024a57806342966c68116101fe5780635064dc53116101d85780635064dc53146104a15780635c975abb146104b45780636308f1cd146104c0576102e9565b806342966c681461045b5780634378a6e31461046e5780634f6ccce71461048e576102e9565b80633daab0321161022f5780633daab0321461041f5780633f4ba83a1461044057806342842e0e14610448576102e9565b80632f745c59146103f957806336568abe1461040c576102e9565b80630ebd4c7f116102a157806323b872dd1161028657806323b872dd146103b0578063248a9ca3146103c35780632f2ff15d146103e6576102e9565b80630ebd4c7f1461037e57806318160ddd1461039e576102e9565b8063081812fc116102d2578063081812fc1461032b578063095ea7b3146103565780630a3de6d31461036b576102e9565b806301ffc9a7146102ee57806306fdde0314610316575b600080fd5b6103016102fc3660046138fe565b6106f7565b60405190151581526020015b60405180910390f35b61031e61070a565b60405161030d9190613cd4565b61033e6103393660046138a1565b61079c565b6040516001600160a01b03909116815260200161030d565b61036961036436600461381f565b610847565b005b610369610379366004613ae1565b610979565b61039161038c3660046138a1565b610987565b60405161030d9190613cc1565b60fd545b60405190815260200161030d565b6103696103be366004613731565b610ad4565b6103a26103d13660046138a1565b60009081526065602052604090206001015490565b6103696103f43660046138b9565b610b5c565b6103a261040736600461381f565b610b7e565b61036961041a3660046138b9565b610c29565b61043261042d3660046138dd565b610c4b565b60405161030d929190613ce7565b610369610d9d565b610369610456366004613731565b610e45565b6103696104693660046138a1565b610e60565b61048161047c3660046138a1565b610ee7565b60405161030d9190613c60565b6103a261049c3660046138a1565b611145565b6103696104af366004613ae1565b6111f7565b61015f5460ff16610301565b6104d36104ce3660046138dd565b6113a6565b604080516001600160a01b03909316835260208301919091520161030d565b61033e6105003660046138a1565b6113ed565b6103696105133660046136dd565b611478565b6103a26105263660046136dd565b611536565b6103696105393660046139f1565b6115d0565b61036961054c3660046139b0565b611863565b61036961186e565b61033e6105673660046138dd565b611912565b61030161057a3660046138b9565b60009182526065602090815260408084206001600160a01b0393909316845291905290205460ff1690565b61031e611931565b6103a2600081565b6103696105c33660046137ee565b611940565b6103696105d6366004613936565b611a12565b6103696105e9366004613771565b611add565b6106016105fc3660046138a1565b611b65565b60405161030d9190613c13565b61031e61061c3660046138a1565b611cb7565b6103a261062f3660046138a1565b611d9f565b6103a27f9f2df0fed2c77648de5860a4cc508cd0818c85b8b8a1ab4ceeef8d981c8956a681565b6103696106693660046138b9565b611db6565b61036961067c3660046139b0565b611dc0565b6103a27f65d7a28e3265b37a6474929f336521b332c1681b933f6cb9f3376673440d862a81565b6103016106b63660046136f9565b6001600160a01b03918216600090815260ce6020908152604080832093909416825291909152205460ff1690565b6103696106f236600461384a565b611ebc565b600061070282611fc5565b90505b919050565b606060c9805461071990613ece565b80601f016020809104026020016040519081016040528092919081815260200182805461074590613ece565b80156107925780601f1061076757610100808354040283529160200191610792565b820191906000526020600020905b81548152906001019060200180831161077557829003601f168201915b5050505050905090565b600081815260cb60205260408120546001600160a01b031661082b5760405162461bcd60e51b815260206004820152602c60248201527f4552433732313a20617070726f76656420717565727920666f72206e6f6e657860448201527f697374656e7420746f6b656e000000000000000000000000000000000000000060648201526084015b60405180910390fd5b50600090815260cd60205260409020546001600160a01b031690565b6000610852826113ed565b9050806001600160a01b0316836001600160a01b031614156108dc5760405162461bcd60e51b815260206004820152602160248201527f4552433732313a20617070726f76616c20746f2063757272656e74206f776e6560448201527f72000000000000000000000000000000000000000000000000000000000000006064820152608401610822565b336001600160a01b03821614806108f857506108f881336106b6565b61096a5760405162461bcd60e51b815260206004820152603860248201527f4552433732313a20617070726f76652063616c6c6572206973206e6f74206f7760448201527f6e6572206e6f7220617070726f76656420666f7220616c6c00000000000000006064820152608401610822565b6109748383612003565b505050565b61098382826111f7565b5050565b60008181526101f660209081526040808320805482518185028101850190935280835260609493849084015b828210156109fb576000848152602090819020604080518082019091526002850290910180546001600160a01b031682526001908101548284015290835290920191016109b3565b5050505090506000815167ffffffffffffffff811115610a2b57634e487b7160e01b600052604160045260246000fd5b604051908082528060200260200182016040528015610a54578160200160208202803683370190505b50905060005b8251811015610acc57828181518110610a8357634e487b7160e01b600052603260045260246000fd5b602002602001015160200151828281518110610aaf57634e487b7160e01b600052603260045260246000fd5b602090810291909101015280610ac481613f09565b915050610a5a565b509392505050565b610adf335b8261207e565b610b515760405162461bcd60e51b815260206004820152603160248201527f4552433732313a207472616e736665722063616c6c6572206973206e6f74206f60448201527f776e6572206e6f7220617070726f7665640000000000000000000000000000006064820152608401610822565b610974838383612186565b610b66828261236b565b60008281526097602052604090206109749082612404565b6000610b8983611536565b8210610bfd5760405162461bcd60e51b815260206004820152602b60248201527f455243373231456e756d657261626c653a206f776e657220696e646578206f7560448201527f74206f6620626f756e64730000000000000000000000000000000000000000006064820152608401610822565b506001600160a01b038216600090815260fb602090815260408083208484529091529020545b92915050565b610c338282612419565b600082815260976020526040902061097490826124a1565b6101f56020528160005260406000208181548110610c6857600080fd5b906000526020600020906002020160009150915050806000018054610c8c90613ece565b80601f0160208091040260200160405190810160405280929190818152602001828054610cb890613ece565b8015610d055780601f10610cda57610100808354040283529160200191610d05565b820191906000526020600020905b815481529060010190602001808311610ce857829003601f168201915b505050505090806001018054610d1a90613ece565b80601f0160208091040260200160405190810160405280929190818152602001828054610d4690613ece565b8015610d935780601f10610d6857610100808354040283529160200191610d93565b820191906000526020600020905b815481529060010190602001808311610d7657829003601f168201915b5050505050905082565b610dc77f65d7a28e3265b37a6474929f336521b332c1681b933f6cb9f3376673440d862a3361057a565b610e3b576040805162461bcd60e51b81526020600482015260248101919091527f4552433732315072657365744d696e7465725061757365724175746f49643a2060448201527f6d75737420686176652070617573657220726f6c6520746f20756e70617573656064820152608401610822565b610e436124b6565b565b61097483838360405180602001604052806000815250611add565b610e6933610ad9565b610edb5760405162461bcd60e51b815260206004820152603060248201527f4552433732314275726e61626c653a2063616c6c6572206973206e6f74206f7760448201527f6e6572206e6f7220617070726f766564000000000000000000000000000000006064820152608401610822565b610ee481612554565b50565b60008181526101f560209081526040808320805482518185028101850190935280835260609493849084015b828210156110695783829060005260206000209060020201604051806040016040529081600082018054610f4690613ece565b80601f0160208091040260200160405190810160405280929190818152602001828054610f7290613ece565b8015610fbf5780601f10610f9457610100808354040283529160200191610fbf565b820191906000526020600020905b815481529060010190602001808311610fa257829003601f168201915b50505050508152602001600182018054610fd890613ece565b80601f016020809104026020016040519081016040528092919081815260200182805461100490613ece565b80156110515780601f1061102657610100808354040283529160200191611051565b820191906000526020600020905b81548152906001019060200180831161103457829003601f168201915b50505050508152505081526020019060010190610f13565b5050505090506000815167ffffffffffffffff81111561109957634e487b7160e01b600052604160045260246000fd5b6040519080825280602002602001820160405280156110cc57816020015b60608152602001906001900390816110b75790505b50905060005b8251811015610acc578281815181106110fb57634e487b7160e01b600052603260045260246000fd5b60200260200101516020015182828151811061112757634e487b7160e01b600052603260045260246000fd5b6020026020010181905250808061113d90613f09565b9150506110d2565b600061115060fd5490565b82106111c45760405162461bcd60e51b815260206004820152602c60248201527f455243373231456e756d657261626c653a20676c6f62616c20696e646578206f60448201527f7574206f6620626f756e647300000000000000000000000000000000000000006064820152608401610822565b60fd82815481106111e557634e487b7160e01b600052603260045260246000fd5b90600052602060002001549050919050565b60005b81518110156109745760006001600160a01b031682828151811061122e57634e487b7160e01b600052603260045260246000fd5b6020026020010151600001516001600160a01b031614156112915760405162461bcd60e51b815260206004820152601b60248201527f526563697069656e742073686f756c642062652070726573656e7400000000006044820152606401610822565b8181815181106112b157634e487b7160e01b600052603260045260246000fd5b6020026020010151602001516000141561130d5760405162461bcd60e51b815260206004820152601c60248201527f4665652076616c75652073686f756c6420626520706f736974697665000000006044820152606401610822565b60008381526101f660205260409020825183908390811061133e57634e487b7160e01b600052603260045260246000fd5b6020908102919091018101518254600180820185556000948552938390208251600290920201805473ffffffffffffffffffffffffffffffffffffffff19166001600160a01b039092169190911781559101519101558061139e81613f09565b9150506111fa565b6101f660205281600052604060002081815481106113c357600080fd5b6000918252602090912060029091020180546001909101546001600160a01b039091169250905082565b600081815260cb60205260408120546001600160a01b0316806107025760405162461bcd60e51b815260206004820152602960248201527f4552433732313a206f776e657220717565727920666f72206e6f6e657869737460448201527f656e7420746f6b656e00000000000000000000000000000000000000000000006064820152608401610822565b6114a27f9f2df0fed2c77648de5860a4cc508cd0818c85b8b8a1ab4ceeef8d981c8956a63361057a565b6115145760405162461bcd60e51b815260206004820152603d60248201527f4552433732315072657365744d696e7465725061757365724175746f49643a2060448201527f6d7573742068617665206d696e74657220726f6c6520746f206d696e740000006064820152608401610822565b611527816115226101c35490565b612608565b610ee46101c380546001019055565b60006001600160a01b0382166115b45760405162461bcd60e51b815260206004820152602a60248201527f4552433732313a2062616c616e636520717565727920666f7220746865207a6560448201527f726f2061646472657373000000000000000000000000000000000000000000006064820152608401610822565b506001600160a01b0316600090815260cc602052604090205490565b60005b81518110156109745760408051600081526020810191829052519020825183908390811061161157634e487b7160e01b600052603260045260246000fd5b60200260200101516000015160405160200161162d9190613b8c565b6040516020818303038152906040528051906020012014156116b75760405162461bcd60e51b815260206004820152602160248201527f417474726962757465206b65792073686f756c64206e6f7420626520656d707460448201527f79000000000000000000000000000000000000000000000000000000000000006064820152608401610822565b6040805160008152602081019182905251902082518390839081106116ec57634e487b7160e01b600052603260045260246000fd5b6020026020010151602001516040516020016117089190613b8c565b6040516020818303038152906040528051906020012014156117925760405162461bcd60e51b815260206004820152602360248201527f4174747269627574652076616c75652073686f756c64206e6f7420626520656d60448201527f70747900000000000000000000000000000000000000000000000000000000006064820152608401610822565b60008381526101f56020526040902082518390839081106117c357634e487b7160e01b600052603260045260246000fd5b6020908102919091018101518254600181018455600093845292829020815180519294600202909101926117fc92849290910190613532565b5060208281015180516118159260018501920190613532565b5050507fa5800424c9d59fec069be83c374ba1fad8ad7472fcb6fb6648cbf62a557ae4e78383604051611849929190613d7e565b60405180910390a18061185b81613f09565b9150506115d3565b610974838383611dc0565b6118987f65d7a28e3265b37a6474929f336521b332c1681b933f6cb9f3376673440d862a3361057a565b61190a5760405162461bcd60e51b815260206004820152603e60248201527f4552433732315072657365744d696e7465725061757365724175746f49643a2060448201527f6d75737420686176652070617573657220726f6c6520746f20706175736500006064820152608401610822565b610e43612763565b600082815260976020526040812061192a90836127ed565b9392505050565b606060ca805461071990613ece565b6001600160a01b0382163314156119995760405162461bcd60e51b815260206004820152601960248201527f4552433732313a20617070726f766520746f2063616c6c6572000000000000006044820152606401610822565b33600081815260ce602090815260408083206001600160a01b0387168085529252909120805460ff1916841515179055906001600160a01b03167f17307eab39ab6107e8899845ad3d59bd9653f200f220920489ca2b5937696c3183604051611a06911515815260200190565b60405180910390a35050565b600054610100900460ff1680611a2b575060005460ff16155b611a8e5760405162461bcd60e51b815260206004820152602e60248201527f496e697469616c697a61626c653a20636f6e747261637420697320616c72656160448201526d191e481a5b9a5d1a585b1a5e995960921b6064820152608401610822565b600054610100900460ff16158015611ab0576000805461ffff19166101011790555b611aba84846127f9565b611ac58484846128d5565b8015611ad7576000805461ff00191690555b50505050565b611ae7338361207e565b611b595760405162461bcd60e51b815260206004820152603160248201527f4552433732313a207472616e736665722063616c6c6572206973206e6f74206f60448201527f776e6572206e6f7220617070726f7665640000000000000000000000000000006064820152608401610822565b611ad7848484846129e8565b60008181526101f660209081526040808320805482518185028101850190935280835260609493849084015b82821015611bd9576000848152602090819020604080518082019091526002850290910180546001600160a01b03168252600190810154828401529083529092019101611b91565b5050505090506000815167ffffffffffffffff811115611c0957634e487b7160e01b600052604160045260246000fd5b604051908082528060200260200182016040528015611c32578160200160208202803683370190505b50905060005b8251811015610acc57828181518110611c6157634e487b7160e01b600052603260045260246000fd5b602002602001015160000151828281518110611c8d57634e487b7160e01b600052603260045260246000fd5b6001600160a01b039092166020928302919091019091015280611caf81613f09565b915050611c38565b600081815260cb60205260409020546060906001600160a01b0316611d445760405162461bcd60e51b815260206004820152602f60248201527f4552433732314d657461646174613a2055524920717565727920666f72206e6f60448201527f6e6578697374656e7420746f6b656e00000000000000000000000000000000006064820152608401610822565b6000611d4e612a71565b90506000815111611d6e576040518060200160405280600081525061192a565b80611d7884612a81565b604051602001611d89929190613ba8565b6040516020818303038152906040529392505050565b600081815260976020526040812061070290612bd0565b610c338282612bda565b60008381526101f66020526040812054905b81811015611eb55760008581526101f66020526040902080546001600160a01b038616919083908110611e1557634e487b7160e01b600052603260045260246000fd5b60009182526020909120600290910201546001600160a01b03161415611ea35760008581526101f660205260409020805484919083908110611e6757634e487b7160e01b600052603260045260246000fd5b60009182526020909120600290910201805473ffffffffffffffffffffffffffffffffffffffff19166001600160a01b03929092169190911790555b80611ead81613f09565b915050611dd2565b5050505050565b611ec68383612608565b6000815167ffffffffffffffff811115611ef057634e487b7160e01b600052604160045260246000fd5b604051908082528060200260200182016040528015611f19578160200160208202803683370190505b5090506000825167ffffffffffffffff811115611f4657634e487b7160e01b600052604160045260246000fd5b604051908082528060200260200182016040528015611f6f578160200160208202803683370190505b509050611f7c84846111f7565b825115611eb5577f99aba1d63749cfd5ad1afda7c4663840924d54eb5f005bbbeadedc6ec13674b2848383604051611fb693929190613d15565b60405180910390a15050505050565b60006001600160e01b031982167f780e9d63000000000000000000000000000000000000000000000000000000001480610702575061070282612c67565b600081815260cd60205260409020805473ffffffffffffffffffffffffffffffffffffffff19166001600160a01b0384169081179091558190612045826113ed565b6001600160a01b03167f8c5be1e5ebec7d5bd14f71427d1e84f3dd0314c0f7b2291e5b200ac8c7c3b92560405160405180910390a45050565b600081815260cb60205260408120546001600160a01b03166121085760405162461bcd60e51b815260206004820152602c60248201527f4552433732313a206f70657261746f7220717565727920666f72206e6f6e657860448201527f697374656e7420746f6b656e00000000000000000000000000000000000000006064820152608401610822565b6000612113836113ed565b9050806001600160a01b0316846001600160a01b0316148061214e5750836001600160a01b03166121438461079c565b6001600160a01b0316145b8061217e57506001600160a01b03808216600090815260ce602090815260408083209388168352929052205460ff165b949350505050565b826001600160a01b0316612199826113ed565b6001600160a01b0316146122155760405162461bcd60e51b815260206004820152602960248201527f4552433732313a207472616e73666572206f6620746f6b656e2074686174206960448201527f73206e6f74206f776e00000000000000000000000000000000000000000000006064820152608401610822565b6001600160a01b0382166122905760405162461bcd60e51b8152602060048201526024808201527f4552433732313a207472616e7366657220746f20746865207a65726f2061646460448201527f72657373000000000000000000000000000000000000000000000000000000006064820152608401610822565b61229b838383612cd9565b6122a6600082612003565b6001600160a01b038316600090815260cc602052604081208054600192906122cf908490613e8b565b90915550506001600160a01b038216600090815260cc602052604081208054600192906122fd908490613e5f565b9091555050600081815260cb6020526040808220805473ffffffffffffffffffffffffffffffffffffffff19166001600160a01b0386811691821790925591518493918716917fddf252ad1be2c89b69c2b068fc378daa952ba7f163c4a11628f55a4df523b3ef91a4505050565b600082815260656020526040902060010154612388905b3361057a565b6123fa5760405162461bcd60e51b815260206004820152602f60248201527f416363657373436f6e74726f6c3a2073656e646572206d75737420626520616e60448201527f2061646d696e20746f206772616e7400000000000000000000000000000000006064820152608401610822565b6109838282612ce4565b600061192a836001600160a01b038416612d86565b6001600160a01b03811633146124975760405162461bcd60e51b815260206004820152602f60248201527f416363657373436f6e74726f6c3a2063616e206f6e6c792072656e6f756e636560448201527f20726f6c657320666f722073656c6600000000000000000000000000000000006064820152608401610822565b6109838282612dd5565b600061192a836001600160a01b038416612e58565b61015f5460ff166125095760405162461bcd60e51b815260206004820152601460248201527f5061757361626c653a206e6f74207061757365640000000000000000000000006044820152606401610822565b61015f805460ff191690557f5db9ee0a495bf2e6ff9c91a7834c1ba4fdd244a5e8aa4e537bd38aeae4b073aa335b6040516001600160a01b03909116815260200160405180910390a1565b600061255f826113ed565b905061256d81600084612cd9565b612578600083612003565b6001600160a01b038116600090815260cc602052604081208054600192906125a1908490613e8b565b9091555050600082815260cb6020526040808220805473ffffffffffffffffffffffffffffffffffffffff19169055518391906001600160a01b038416907fddf252ad1be2c89b69c2b068fc378daa952ba7f163c4a11628f55a4df523b3ef908390a45050565b6001600160a01b03821661265e5760405162461bcd60e51b815260206004820181905260248201527f4552433732313a206d696e7420746f20746865207a65726f20616464726573736044820152606401610822565b600081815260cb60205260409020546001600160a01b0316156126c35760405162461bcd60e51b815260206004820152601c60248201527f4552433732313a20746f6b656e20616c7265616479206d696e746564000000006044820152606401610822565b6126cf60008383612cd9565b6001600160a01b038216600090815260cc602052604081208054600192906126f8908490613e5f565b9091555050600081815260cb6020526040808220805473ffffffffffffffffffffffffffffffffffffffff19166001600160a01b03861690811790915590518392907fddf252ad1be2c89b69c2b068fc378daa952ba7f163c4a11628f55a4df523b3ef908290a45050565b61015f5460ff16156127b75760405162461bcd60e51b815260206004820152601060248201527f5061757361626c653a20706175736564000000000000000000000000000000006044820152606401610822565b61015f805460ff191660011790557f62e78cea01bee320cd4e420270b5ea74000d11b0c9f74754ebdbfc544b05a2586125373390565b600061192a8383612f75565b600054610100900460ff1680612812575060005460ff16155b6128755760405162461bcd60e51b815260206004820152602e60248201527f496e697469616c697a61626c653a20636f6e747261637420697320616c72656160448201526d191e481a5b9a5d1a585b1a5e995960921b6064820152608401610822565b600054610100900460ff16158015612897576000805461ffff19166101011790555b82516128aa9060c9906020860190613532565b5081516128be9060ca906020850190613532565b508015610974576000805461ff0019169055505050565b600054610100900460ff16806128ee575060005460ff16155b6129515760405162461bcd60e51b815260206004820152602e60248201527f496e697469616c697a61626c653a20636f6e747261637420697320616c72656160448201526d191e481a5b9a5d1a585b1a5e995960921b6064820152608401610822565b600054610100900460ff16158015612973576000805461ffff19166101011790555b8151612987906101c4906020850190613532565b506129946000335b613024565b6129be7f9f2df0fed2c77648de5860a4cc508cd0818c85b8b8a1ab4ceeef8d981c8956a63361298f565b611ac57f65d7a28e3265b37a6474929f336521b332c1681b933f6cb9f3376673440d862a3361298f565b6129f3848484612186565b6129ff8484848461302e565b611ad75760405162461bcd60e51b815260206004820152603260248201527f4552433732313a207472616e7366657220746f206e6f6e20455243373231526560448201527f63656976657220696d706c656d656e74657200000000000000000000000000006064820152608401610822565b60606101c4805461071990613ece565b606081612ac2575060408051808201909152600181527f30000000000000000000000000000000000000000000000000000000000000006020820152610705565b8160005b8115612aec5780612ad681613f09565b9150612ae59050600a83613e77565b9150612ac6565b60008167ffffffffffffffff811115612b1557634e487b7160e01b600052604160045260246000fd5b6040519080825280601f01601f191660200182016040528015612b3f576020820181803683370190505b5090505b841561217e57612b54600183613e8b565b9150612b61600a86613f24565b612b6c906030613e5f565b60f81b818381518110612b8f57634e487b7160e01b600052603260045260246000fd5b60200101907effffffffffffffffffffffffffffffffffffffffffffffffffffffffffffff1916908160001a905350612bc9600a86613e77565b9450612b43565b6000610702825490565b600082815260656020526040902060010154612bf590612382565b6124975760405162461bcd60e51b815260206004820152603060248201527f416363657373436f6e74726f6c3a2073656e646572206d75737420626520616e60448201527f2061646d696e20746f207265766f6b65000000000000000000000000000000006064820152608401610822565b60006001600160e01b031982167f80ac58cd000000000000000000000000000000000000000000000000000000001480612cca57506001600160e01b031982167f5b5e139f00000000000000000000000000000000000000000000000000000000145b80610702575061070282613191565b6109748383836131cf565b60008281526065602090815260408083206001600160a01b038516845290915290205460ff166109835760008281526065602090815260408083206001600160a01b03851684529091529020805460ff19166001179055612d423390565b6001600160a01b0316816001600160a01b0316837f2f8788117e7eff1d82e926ec794901d17c78024a50270940304540a733656f0d60405160405180910390a45050565b6000818152600183016020526040812054612dcd57508154600181810184556000848152602080822090930184905584548482528286019093526040902091909155610c23565b506000610c23565b60008281526065602090815260408083206001600160a01b038516845290915290205460ff16156109835760008281526065602090815260408083206001600160a01b0385168085529252808320805460ff1916905551339285917ff6391f5c32d9c69d2a47ea670b442974b53935d1edc7fd64eb21e047a839171b9190a45050565b60008181526001830160205260408120548015612f6b576000612e7c600183613e8b565b8554909150600090612e9090600190613e8b565b90506000866000018281548110612eb757634e487b7160e01b600052603260045260246000fd5b9060005260206000200154905080876000018481548110612ee857634e487b7160e01b600052603260045260246000fd5b600091825260209091200155612eff836001613e5f565b60008281526001890160205260409020558654879080612f2f57634e487b7160e01b600052603160045260246000fd5b60019003818190600052602060002001600090559055866001016000878152602001908152602001600020600090556001945050505050610c23565b6000915050610c23565b81546000908210612fee5760405162461bcd60e51b815260206004820152602260248201527f456e756d657261626c655365743a20696e646578206f7574206f6620626f756e60448201527f64730000000000000000000000000000000000000000000000000000000000006064820152608401610822565b82600001828154811061301157634e487b7160e01b600052603260045260246000fd5b9060005260206000200154905092915050565b610b6682826123fa565b60006001600160a01b0384163b1561318657604051630a85bd0160e11b81526001600160a01b0385169063150b7a0290613072903390899088908890600401613bd7565b602060405180830381600087803b15801561308c57600080fd5b505af19250505080156130bc575060408051601f3d908101601f191682019092526130b99181019061391a565b60015b61316c573d8080156130ea576040519150601f19603f3d011682016040523d82523d6000602084013e6130ef565b606091505b5080516131645760405162461bcd60e51b815260206004820152603260248201527f4552433732313a207472616e7366657220746f206e6f6e20455243373231526560448201527f63656976657220696d706c656d656e74657200000000000000000000000000006064820152608401610822565b805181602001fd5b6001600160e01b031916630a85bd0160e11b14905061217e565b506001949350505050565b60006001600160e01b031982167f5a05180f000000000000000000000000000000000000000000000000000000001480610702575061070282613254565b6131da8383836132bb565b61015f5460ff16156109745760405162461bcd60e51b815260206004820152602b60248201527f4552433732315061757361626c653a20746f6b656e207472616e73666572207760448201527f68696c65207061757365640000000000000000000000000000000000000000006064820152608401610822565b60006001600160e01b031982167f7965db0b00000000000000000000000000000000000000000000000000000000148061070257507f01ffc9a7000000000000000000000000000000000000000000000000000000006001600160e01b0319831614610702565b6001600160a01b038316613316576133118160fd8054600083815260fe60205260408120829055600182018355919091527f9346ac6dd7de6b96975fec380d4d994c4c12e6a8897544f22915316cc6cca2800155565b613339565b816001600160a01b0316836001600160a01b031614613339576133398382613378565b6001600160a01b0382166133555761335081613415565b610974565b826001600160a01b0316826001600160a01b0316146109745761097482826134ee565b6000600161338584611536565b61338f9190613e8b565b600083815260fc60205260409020549091508082146133e2576001600160a01b038416600090815260fb60209081526040808320858452825280832054848452818420819055835260fc90915290208190555b50600091825260fc602090815260408084208490556001600160a01b03909416835260fb81528383209183525290812055565b60fd5460009061342790600190613e8b565b600083815260fe602052604081205460fd805493945090928490811061345d57634e487b7160e01b600052603260045260246000fd5b906000526020600020015490508060fd838154811061348c57634e487b7160e01b600052603260045260246000fd5b600091825260208083209091019290925582815260fe909152604080822084905585825281205560fd8054806134d257634e487b7160e01b600052603160045260246000fd5b6001900381819060005260206000200160009055905550505050565b60006134f983611536565b6001600160a01b03909316600090815260fb60209081526040808320868452825280832085905593825260fc9052919091209190915550565b82805461353e90613ece565b90600052602060002090601f01602090048101928261356057600085556135a6565b82601f1061357957805160ff19168380011785556135a6565b828001600101855582156135a6579182015b828111156135a657825182559160200191906001019061358b565b506135b29291506135b6565b5090565b5b808211156135b257600081556001016135b7565b600067ffffffffffffffff8311156135e5576135e5613f64565b6135f8601f8401601f1916602001613e0a565b905082815283838301111561360c57600080fd5b828260208301376000602084830101529392505050565b600082601f830112613633578081fd5b8135602061364861364383613e3b565b613e0a565b80838252828201915082860187848660061b8901011115613667578586fd5b855b858110156136b157604080838b031215613681578788fd5b61368a81613e0a565b833561369581613f7a565b8152838701358782015285529385019390910190600101613669565b5090979650505050505050565b600082601f8301126136ce578081fd5b61192a838335602085016135cb565b6000602082840312156136ee578081fd5b813561192a81613f7a565b6000806040838503121561370b578081fd5b823561371681613f7a565b9150602083013561372681613f7a565b809150509250929050565b600080600060608486031215613745578081fd5b833561375081613f7a565b9250602084013561376081613f7a565b929592945050506040919091013590565b60008060008060808587031215613786578081fd5b843561379181613f7a565b935060208501356137a181613f7a565b925060408501359150606085013567ffffffffffffffff8111156137c3578182fd5b8501601f810187136137d3578182fd5b6137e2878235602084016135cb565b91505092959194509250565b60008060408385031215613800578182fd5b823561380b81613f7a565b915060208301358015158114613726578182fd5b60008060408385031215613831578182fd5b823561383c81613f7a565b946020939093013593505050565b60008060006060848603121561385e578081fd5b833561386981613f7a565b925060208401359150604084013567ffffffffffffffff81111561388b578182fd5b61389786828701613623565b9150509250925092565b6000602082840312156138b2578081fd5b5035919050565b600080604083850312156138cb578182fd5b82359150602083013561372681613f7a565b600080604083850312156138ef578182fd5b50508035926020909101359150565b60006020828403121561390f578081fd5b813561192a81613f8f565b60006020828403121561392b578081fd5b815161192a81613f8f565b60008060006060848603121561394a578081fd5b833567ffffffffffffffff80821115613961578283fd5b61396d878388016136be565b94506020860135915080821115613982578283fd5b61398e878388016136be565b935060408601359150808211156139a3578283fd5b50613897868287016136be565b6000806000606084860312156139c4578081fd5b8335925060208401356139d681613f7a565b915060408401356139e681613f7a565b809150509250925092565b60008060408385031215613a03578182fd5b8235915060208084013567ffffffffffffffff80821115613a22578384fd5b818601915086601f830112613a35578384fd5b8135613a4361364382613e3b565b81815284810190848601875b84811015613ad057813587016040818e03601f19011215613a6e57898afd5b613a786040613e0a565b8982013588811115613a88578b8cfd5b613a968f8c838601016136be565b825250604082013588811115613aaa578b8cfd5b613ab88f8c838601016136be565b828c0152508552509287019290870190600101613a4f565b50979a909950975050505050505050565b60008060408385031215613af3578182fd5b82359150602083013567ffffffffffffffff811115613b10578182fd5b613b1c85828601613623565b9150509250929050565b6000815180845260208085019450808401835b83811015613b5557815187529582019590820190600101613b39565b509495945050505050565b60008151808452613b78816020860160208601613ea2565b601f01601f19169290920160200192915050565b60008251613b9e818460208701613ea2565b9190910192915050565b60008351613bba818460208801613ea2565b835190830190613bce818360208801613ea2565b01949350505050565b60006001600160a01b03808716835280861660208401525083604083015260806060830152613c096080830184613b60565b9695505050505050565b6020808252825182820181905260009190848201906040850190845b81811015613c545783516001600160a01b031683529284019291840191600101613c2f565b50909695505050505050565b6000602080830181845280855180835260408601915060408160051b8701019250838701855b82811015613cb457603f19888603018452613ca2858351613b60565b94509285019290850190600101613c86565b5092979650505050505050565b60006020825261192a6020830184613b26565b60006020825261192a6020830184613b60565b600060408252613cfa6040830185613b60565b8281036020840152613d0c8185613b60565b95945050505050565b60006060820185835260206060818501528186518084526080860191508288019350845b81811015613d5e5784516001600160a01b031683529383019391830191600101613d39565b50508481036040860152613d728187613b26565b98975050505050505050565b600060408083018584526020828186015281865180845260608701915060608160051b8801019350828801865b82811015613dfb57888603605f1901845281518051888852613dcf89890182613b60565b9187015188830389890152919050613de78183613b60565b975050509284019290840190600101613dab565b50939998505050505050505050565b604051601f8201601f1916810167ffffffffffffffff81118282101715613e3357613e33613f64565b604052919050565b600067ffffffffffffffff821115613e5557613e55613f64565b5060051b60200190565b60008219821115613e7257613e72613f38565b500190565b600082613e8657613e86613f4e565b500490565b600082821015613e9d57613e9d613f38565b500390565b60005b83811015613ebd578181015183820152602001613ea5565b83811115611ad75750506000910152565b600181811c90821680613ee257607f821691505b60208210811415613f0357634e487b7160e01b600052602260045260246000fd5b50919050565b6000600019821415613f1d57613f1d613f38565b5060010190565b600082613f3357613f33613f4e565b500690565b634e487b7160e01b600052601160045260246000fd5b634e487b7160e01b600052601260045260246000fd5b634e487b7160e01b600052604160045260246000fd5b6001600160a01b0381168114610ee457600080fd5b6001600160e01b031981168114610ee457600080fdfea26469706673582212207ee16ed0a3e8e02f1fc70f7df3c5df05ef3a84bf430935bf3ca02c35053a4e6964736f6c63430008030033",
  "immutableReferences": {},
  "source": "pragma solidity ^0.8.3;\n\nimport \"../contracts/GhostmarketNFT.sol\";\n\ncontract TestableGhostmarketNFT is GhostmarketNFT {\n\n    function test_saveFees(uint256 _id, Fee[] memory _fees) external {\n        saveFees(_id, _fees);\n    }\n\n    function test_updateAccount(\n        uint256 _id,\n        address _from,\n        address _to\n    ) external {\n        updateAccount(_id, _from, _to);\n    }\n}\n",
  "sourcePath": "/Users/selimerunkut/dev_freelance/GhostMarketContractBSC/contracts/TestableGhostmarketNFT.sol",
  "compiler": {
    "name": "solc",
    "version": "0.8.3+commit.8d00100c.Emscripten.clang"
  },
  "schemaVersion": "3.3.4",
  "updatedAt": "2021-04-22T19:07:22.393Z",
  "devdoc": {
    "kind": "dev",
    "methods": {
      "approve(address,uint256)": {
        "details": "See {IERC721-approve}."
      },
      "balanceOf(address)": {
        "details": "See {IERC721-balanceOf}."
      },
      "burn(uint256)": {
        "details": "Burns `tokenId`. See {ERC721-_burn}. Requirements: - The caller must own `tokenId` or be an approved operator."
      },
      "getApproved(uint256)": {
        "details": "See {IERC721-getApproved}."
      },
      "getRoleAdmin(bytes32)": {
        "details": "Returns the admin role that controls `role`. See {grantRole} and {revokeRole}. To change a role's admin, use {_setRoleAdmin}."
      },
      "getRoleMember(bytes32,uint256)": {
        "details": "Returns one of the accounts that have `role`. `index` must be a value between 0 and {getRoleMemberCount}, non-inclusive. Role bearers are not sorted in any particular way, and their ordering may change at any point. WARNING: When using {getRoleMember} and {getRoleMemberCount}, make sure you perform all queries on the same block. See the following https://forum.openzeppelin.com/t/iterating-over-elements-on-enumerableset-in-openzeppelin-contracts/2296[forum post] for more information."
      },
      "getRoleMemberCount(bytes32)": {
        "details": "Returns the number of accounts that have `role`. Can be used together with {getRoleMember} to enumerate all bearers of a role."
      },
      "grantRole(bytes32,address)": {
        "details": "Overload {grantRole} to track enumerable memberships"
      },
      "hasRole(bytes32,address)": {
        "details": "Returns `true` if `account` has been granted `role`."
      },
      "isApprovedForAll(address,address)": {
        "details": "See {IERC721-isApprovedForAll}."
      },
      "mint(address)": {
        "details": "Creates a new token for `to`. Its token ID will be automatically assigned (and available on the emitted {IERC721-Transfer} event), and the token URI autogenerated based on the base URI passed at construction. See {ERC721-_mint}. Requirements: - the caller must have the `MINTER_ROLE`."
      },
      "name()": {
        "details": "See {IERC721Metadata-name}."
      },
      "ownerOf(uint256)": {
        "details": "See {IERC721-ownerOf}."
      },
      "pause()": {
        "details": "Pauses all token transfers. See {ERC721Pausable} and {Pausable-_pause}. Requirements: - the caller must have the `PAUSER_ROLE`."
      },
      "paused()": {
        "details": "Returns true if the contract is paused, and false otherwise."
      },
      "renounceRole(bytes32,address)": {
        "details": "Overload {renounceRole} to track enumerable memberships"
      },
      "revokeRole(bytes32,address)": {
        "details": "Overload {revokeRole} to track enumerable memberships"
      },
      "safeTransferFrom(address,address,uint256)": {
        "details": "See {IERC721-safeTransferFrom}."
      },
      "safeTransferFrom(address,address,uint256,bytes)": {
        "details": "See {IERC721-safeTransferFrom}."
      },
      "setApprovalForAll(address,bool)": {
        "details": "See {IERC721-setApprovalForAll}."
      },
      "supportsInterface(bytes4)": {
        "details": "See {IERC165-supportsInterface}."
      },
      "symbol()": {
        "details": "See {IERC721Metadata-symbol}."
      },
      "tokenByIndex(uint256)": {
        "details": "See {IERC721Enumerable-tokenByIndex}."
      },
      "tokenOfOwnerByIndex(address,uint256)": {
        "details": "See {IERC721Enumerable-tokenOfOwnerByIndex}."
      },
      "tokenURI(uint256)": {
        "details": "See {IERC721Metadata-tokenURI}."
      },
      "totalSupply()": {
        "details": "See {IERC721Enumerable-totalSupply}."
      },
      "transferFrom(address,address,uint256)": {
        "details": "See {IERC721-transferFrom}."
      },
      "unpause()": {
        "details": "Unpauses all token transfers. See {ERC721Pausable} and {Pausable-_unpause}. Requirements: - the caller must have the `PAUSER_ROLE`."
      }
    },
    "version": 1
  },
  "userdoc": {
    "kind": "user",
    "methods": {},
    "version": 1
  }
}