{
  "contractName": "TestableGhostmarketNFT",
  "abi": [
    {
      "anonymous": false,
      "inputs": [
        {
          "indexed": true,
          "internalType": "address",
          "name": "owner",
          "type": "address"
        },
        {
          "indexed": true,
          "internalType": "address",
          "name": "approved",
          "type": "address"
        },
        {
          "indexed": true,
          "internalType": "uint256",
          "name": "tokenId",
          "type": "uint256"
        }
      ],
      "name": "Approval",
      "type": "event"
    },
    {
      "anonymous": false,
      "inputs": [
        {
          "indexed": true,
          "internalType": "address",
          "name": "owner",
          "type": "address"
        },
        {
          "indexed": true,
          "internalType": "address",
          "name": "operator",
          "type": "address"
        },
        {
          "indexed": false,
          "internalType": "bool",
          "name": "approved",
          "type": "bool"
        }
      ],
      "name": "ApprovalForAll",
      "type": "event"
    },
    {
      "anonymous": false,
      "inputs": [
        {
          "indexed": false,
          "internalType": "address",
          "name": "account",
          "type": "address"
        }
      ],
      "name": "Paused",
      "type": "event"
    },
    {
      "anonymous": false,
      "inputs": [
        {
          "indexed": true,
          "internalType": "bytes32",
          "name": "role",
          "type": "bytes32"
        },
        {
          "indexed": true,
          "internalType": "bytes32",
          "name": "previousAdminRole",
          "type": "bytes32"
        },
        {
          "indexed": true,
          "internalType": "bytes32",
          "name": "newAdminRole",
          "type": "bytes32"
        }
      ],
      "name": "RoleAdminChanged",
      "type": "event"
    },
    {
      "anonymous": false,
      "inputs": [
        {
          "indexed": true,
          "internalType": "bytes32",
          "name": "role",
          "type": "bytes32"
        },
        {
          "indexed": true,
          "internalType": "address",
          "name": "account",
          "type": "address"
        },
        {
          "indexed": true,
          "internalType": "address",
          "name": "sender",
          "type": "address"
        }
      ],
      "name": "RoleGranted",
      "type": "event"
    },
    {
      "anonymous": false,
      "inputs": [
        {
          "indexed": true,
          "internalType": "bytes32",
          "name": "role",
          "type": "bytes32"
        },
        {
          "indexed": true,
          "internalType": "address",
          "name": "account",
          "type": "address"
        },
        {
          "indexed": true,
          "internalType": "address",
          "name": "sender",
          "type": "address"
        }
      ],
      "name": "RoleRevoked",
      "type": "event"
    },
    {
      "anonymous": false,
      "inputs": [
        {
          "indexed": false,
          "internalType": "uint256",
          "name": "tokenId",
          "type": "uint256"
        },
        {
          "indexed": false,
          "internalType": "address[]",
          "name": "recipients",
          "type": "address[]"
        },
        {
          "indexed": false,
          "internalType": "uint256[]",
          "name": "bps",
          "type": "uint256[]"
        }
      ],
      "name": "SecondarySaleFees",
      "type": "event"
    },
    {
      "anonymous": false,
      "inputs": [
        {
          "indexed": true,
          "internalType": "address",
          "name": "from",
          "type": "address"
        },
        {
          "indexed": true,
          "internalType": "address",
          "name": "to",
          "type": "address"
        },
        {
          "indexed": true,
          "internalType": "uint256",
          "name": "tokenId",
          "type": "uint256"
        }
      ],
      "name": "Transfer",
      "type": "event"
    },
    {
      "anonymous": false,
      "inputs": [
        {
          "indexed": false,
          "internalType": "address",
          "name": "account",
          "type": "address"
        }
      ],
      "name": "Unpaused",
      "type": "event"
    },
    {
      "inputs": [],
      "name": "DEFAULT_ADMIN_ROLE",
      "outputs": [
        {
          "internalType": "bytes32",
          "name": "",
          "type": "bytes32"
        }
      ],
      "stateMutability": "view",
      "type": "function"
    },
    {
      "inputs": [],
      "name": "MINTER_ROLE",
      "outputs": [
        {
          "internalType": "bytes32",
          "name": "",
          "type": "bytes32"
        }
      ],
      "stateMutability": "view",
      "type": "function"
    },
    {
      "inputs": [],
      "name": "PAUSER_ROLE",
      "outputs": [
        {
          "internalType": "bytes32",
          "name": "",
          "type": "bytes32"
        }
      ],
      "stateMutability": "view",
      "type": "function"
    },
    {
      "inputs": [
        {
          "internalType": "address",
          "name": "to",
          "type": "address"
        },
        {
          "internalType": "uint256",
          "name": "tokenId",
          "type": "uint256"
        }
      ],
      "name": "approve",
      "outputs": [],
      "stateMutability": "nonpayable",
      "type": "function"
    },
    {
      "inputs": [
        {
          "internalType": "address",
          "name": "owner",
          "type": "address"
        }
      ],
      "name": "balanceOf",
      "outputs": [
        {
          "internalType": "uint256",
          "name": "",
          "type": "uint256"
        }
      ],
      "stateMutability": "view",
      "type": "function"
    },
    {
      "inputs": [
        {
          "internalType": "uint256",
          "name": "tokenId",
          "type": "uint256"
        }
      ],
      "name": "burn",
      "outputs": [],
      "stateMutability": "nonpayable",
      "type": "function"
    },
    {
      "inputs": [
        {
          "internalType": "uint256",
          "name": "",
          "type": "uint256"
        },
        {
          "internalType": "uint256",
          "name": "",
          "type": "uint256"
        }
      ],
      "name": "fees",
      "outputs": [
        {
          "internalType": "address payable",
          "name": "recipient",
          "type": "address"
        },
        {
          "internalType": "uint256",
          "name": "value",
          "type": "uint256"
        }
      ],
      "stateMutability": "view",
      "type": "function"
    },
    {
      "inputs": [
        {
          "internalType": "uint256",
          "name": "tokenId",
          "type": "uint256"
        }
      ],
      "name": "getApproved",
      "outputs": [
        {
          "internalType": "address",
          "name": "",
          "type": "address"
        }
      ],
      "stateMutability": "view",
      "type": "function"
    },
    {
      "inputs": [
        {
          "internalType": "uint256",
          "name": "id",
          "type": "uint256"
        }
      ],
      "name": "getFeeBps",
      "outputs": [
        {
          "internalType": "uint256[]",
          "name": "",
          "type": "uint256[]"
        }
      ],
      "stateMutability": "view",
      "type": "function"
    },
    {
      "inputs": [
        {
          "internalType": "uint256",
          "name": "id",
          "type": "uint256"
        }
      ],
      "name": "getFeeRecipients",
      "outputs": [
        {
          "internalType": "address payable[]",
          "name": "",
          "type": "address[]"
        }
      ],
      "stateMutability": "view",
      "type": "function"
    },
    {
      "inputs": [
        {
          "internalType": "bytes32",
          "name": "role",
          "type": "bytes32"
        }
      ],
      "name": "getRoleAdmin",
      "outputs": [
        {
          "internalType": "bytes32",
          "name": "",
          "type": "bytes32"
        }
      ],
      "stateMutability": "view",
      "type": "function"
    },
    {
      "inputs": [
        {
          "internalType": "bytes32",
          "name": "role",
          "type": "bytes32"
        },
        {
          "internalType": "uint256",
          "name": "index",
          "type": "uint256"
        }
      ],
      "name": "getRoleMember",
      "outputs": [
        {
          "internalType": "address",
          "name": "",
          "type": "address"
        }
      ],
      "stateMutability": "view",
      "type": "function"
    },
    {
      "inputs": [
        {
          "internalType": "bytes32",
          "name": "role",
          "type": "bytes32"
        }
      ],
      "name": "getRoleMemberCount",
      "outputs": [
        {
          "internalType": "uint256",
          "name": "",
          "type": "uint256"
        }
      ],
      "stateMutability": "view",
      "type": "function"
    },
    {
      "inputs": [
        {
          "internalType": "bytes32",
          "name": "role",
          "type": "bytes32"
        },
        {
          "internalType": "address",
          "name": "account",
          "type": "address"
        }
      ],
      "name": "grantRole",
      "outputs": [],
      "stateMutability": "nonpayable",
      "type": "function"
    },
    {
      "inputs": [
        {
          "internalType": "bytes32",
          "name": "role",
          "type": "bytes32"
        },
        {
          "internalType": "address",
          "name": "account",
          "type": "address"
        }
      ],
      "name": "hasRole",
      "outputs": [
        {
          "internalType": "bool",
          "name": "",
          "type": "bool"
        }
      ],
      "stateMutability": "view",
      "type": "function"
    },
    {
      "inputs": [
        {
          "internalType": "string",
          "name": "name",
          "type": "string"
        },
        {
          "internalType": "string",
          "name": "symbol",
          "type": "string"
        },
        {
          "internalType": "string",
          "name": "uri",
          "type": "string"
        }
      ],
      "name": "initialize",
      "outputs": [],
      "stateMutability": "nonpayable",
      "type": "function"
    },
    {
      "inputs": [
        {
          "internalType": "address",
          "name": "owner",
          "type": "address"
        },
        {
          "internalType": "address",
          "name": "operator",
          "type": "address"
        }
      ],
      "name": "isApprovedForAll",
      "outputs": [
        {
          "internalType": "bool",
          "name": "",
          "type": "bool"
        }
      ],
      "stateMutability": "view",
      "type": "function"
    },
    {
      "inputs": [
        {
          "internalType": "address",
          "name": "to",
          "type": "address"
        }
      ],
      "name": "mint",
      "outputs": [],
      "stateMutability": "nonpayable",
      "type": "function"
    },
    {
      "inputs": [
        {
          "internalType": "address",
          "name": "to",
          "type": "address"
        },
        {
          "internalType": "uint256",
          "name": "tokenId",
          "type": "uint256"
        },
        {
          "components": [
            {
              "internalType": "address payable",
              "name": "recipient",
              "type": "address"
            },
            {
              "internalType": "uint256",
              "name": "value",
              "type": "uint256"
            }
          ],
          "internalType": "struct GhostmarketNFT.Fee[]",
          "name": "_fees",
          "type": "tuple[]"
        }
      ],
      "name": "mint",
      "outputs": [],
      "stateMutability": "nonpayable",
      "type": "function"
    },
    {
      "inputs": [],
      "name": "name",
      "outputs": [
        {
          "internalType": "string",
          "name": "",
          "type": "string"
        }
      ],
      "stateMutability": "view",
      "type": "function"
    },
    {
      "inputs": [
        {
          "internalType": "uint256",
          "name": "tokenId",
          "type": "uint256"
        }
      ],
      "name": "ownerOf",
      "outputs": [
        {
          "internalType": "address",
          "name": "",
          "type": "address"
        }
      ],
      "stateMutability": "view",
      "type": "function"
    },
    {
      "inputs": [],
      "name": "pause",
      "outputs": [],
      "stateMutability": "nonpayable",
      "type": "function"
    },
    {
      "inputs": [],
      "name": "paused",
      "outputs": [
        {
          "internalType": "bool",
          "name": "",
          "type": "bool"
        }
      ],
      "stateMutability": "view",
      "type": "function"
    },
    {
      "inputs": [
        {
          "internalType": "bytes32",
          "name": "role",
          "type": "bytes32"
        },
        {
          "internalType": "address",
          "name": "account",
          "type": "address"
        }
      ],
      "name": "renounceRole",
      "outputs": [],
      "stateMutability": "nonpayable",
      "type": "function"
    },
    {
      "inputs": [
        {
          "internalType": "bytes32",
          "name": "role",
          "type": "bytes32"
        },
        {
          "internalType": "address",
          "name": "account",
          "type": "address"
        }
      ],
      "name": "revokeRole",
      "outputs": [],
      "stateMutability": "nonpayable",
      "type": "function"
    },
    {
      "inputs": [
        {
          "internalType": "address",
          "name": "from",
          "type": "address"
        },
        {
          "internalType": "address",
          "name": "to",
          "type": "address"
        },
        {
          "internalType": "uint256",
          "name": "tokenId",
          "type": "uint256"
        }
      ],
      "name": "safeTransferFrom",
      "outputs": [],
      "stateMutability": "nonpayable",
      "type": "function"
    },
    {
      "inputs": [
        {
          "internalType": "address",
          "name": "from",
          "type": "address"
        },
        {
          "internalType": "address",
          "name": "to",
          "type": "address"
        },
        {
          "internalType": "uint256",
          "name": "tokenId",
          "type": "uint256"
        },
        {
          "internalType": "bytes",
          "name": "_data",
          "type": "bytes"
        }
      ],
      "name": "safeTransferFrom",
      "outputs": [],
      "stateMutability": "nonpayable",
      "type": "function"
    },
    {
      "inputs": [
        {
          "internalType": "uint256",
          "name": "_id",
          "type": "uint256"
        },
        {
          "components": [
            {
              "internalType": "address payable",
              "name": "recipient",
              "type": "address"
            },
            {
              "internalType": "uint256",
              "name": "value",
              "type": "uint256"
            }
          ],
          "internalType": "struct GhostmarketNFT.Fee[]",
          "name": "_fees",
          "type": "tuple[]"
        }
      ],
      "name": "saveFees",
      "outputs": [],
      "stateMutability": "nonpayable",
      "type": "function"
    },
    {
      "inputs": [
        {
          "internalType": "address",
          "name": "operator",
          "type": "address"
        },
        {
          "internalType": "bool",
          "name": "approved",
          "type": "bool"
        }
      ],
      "name": "setApprovalForAll",
      "outputs": [],
      "stateMutability": "nonpayable",
      "type": "function"
    },
    {
      "inputs": [
        {
          "internalType": "bytes4",
          "name": "interfaceId",
          "type": "bytes4"
        }
      ],
      "name": "supportsInterface",
      "outputs": [
        {
          "internalType": "bool",
          "name": "",
          "type": "bool"
        }
      ],
      "stateMutability": "view",
      "type": "function"
    },
    {
      "inputs": [],
      "name": "symbol",
      "outputs": [
        {
          "internalType": "string",
          "name": "",
          "type": "string"
        }
      ],
      "stateMutability": "view",
      "type": "function"
    },
    {
      "inputs": [
        {
          "internalType": "uint256",
          "name": "index",
          "type": "uint256"
        }
      ],
      "name": "tokenByIndex",
      "outputs": [
        {
          "internalType": "uint256",
          "name": "",
          "type": "uint256"
        }
      ],
      "stateMutability": "view",
      "type": "function"
    },
    {
      "inputs": [
        {
          "internalType": "address",
          "name": "owner",
          "type": "address"
        },
        {
          "internalType": "uint256",
          "name": "index",
          "type": "uint256"
        }
      ],
      "name": "tokenOfOwnerByIndex",
      "outputs": [
        {
          "internalType": "uint256",
          "name": "",
          "type": "uint256"
        }
      ],
      "stateMutability": "view",
      "type": "function"
    },
    {
      "inputs": [
        {
          "internalType": "uint256",
          "name": "tokenId",
          "type": "uint256"
        }
      ],
      "name": "tokenURI",
      "outputs": [
        {
          "internalType": "string",
          "name": "",
          "type": "string"
        }
      ],
      "stateMutability": "view",
      "type": "function"
    },
    {
      "inputs": [],
      "name": "totalSupply",
      "outputs": [
        {
          "internalType": "uint256",
          "name": "",
          "type": "uint256"
        }
      ],
      "stateMutability": "view",
      "type": "function"
    },
    {
      "inputs": [
        {
          "internalType": "address",
          "name": "from",
          "type": "address"
        },
        {
          "internalType": "address",
          "name": "to",
          "type": "address"
        },
        {
          "internalType": "uint256",
          "name": "tokenId",
          "type": "uint256"
        }
      ],
      "name": "transferFrom",
      "outputs": [],
      "stateMutability": "nonpayable",
      "type": "function"
    },
    {
      "inputs": [],
      "name": "unpause",
      "outputs": [],
      "stateMutability": "nonpayable",
      "type": "function"
    },
    {
      "inputs": [
        {
          "internalType": "uint256",
          "name": "_id",
          "type": "uint256"
        },
        {
          "internalType": "address",
          "name": "_from",
          "type": "address"
        },
        {
          "internalType": "address",
          "name": "_to",
          "type": "address"
        }
      ],
      "name": "updateAccount",
      "outputs": [],
      "stateMutability": "nonpayable",
      "type": "function"
    },
    {
      "inputs": [
        {
          "internalType": "uint256",
          "name": "_id",
          "type": "uint256"
        },
        {
          "components": [
            {
              "internalType": "address payable",
              "name": "recipient",
              "type": "address"
            },
            {
              "internalType": "uint256",
              "name": "value",
              "type": "uint256"
            }
          ],
          "internalType": "struct GhostmarketNFT.Fee[]",
          "name": "_fees",
          "type": "tuple[]"
        }
      ],
      "name": "test_saveFees",
      "outputs": [],
      "stateMutability": "nonpayable",
      "type": "function"
    },
    {
      "inputs": [
        {
          "internalType": "uint256",
          "name": "_id",
          "type": "uint256"
        },
        {
          "internalType": "address",
          "name": "_from",
          "type": "address"
        },
        {
          "internalType": "address",
          "name": "_to",
          "type": "address"
        }
      ],
      "name": "test_updateAccount",
      "outputs": [],
      "stateMutability": "nonpayable",
      "type": "function"
    }
  ],
  "bytecode": "0x608060405234801561001057600080fd5b506136ed806100206000396000f3fe608060405234801561001057600080fd5b50600436106102c85760003560e01c80636a6278421161017b578063b88d4fde116100d8578063d547741f1161008c578063e63ab1e911610071578063e63ab1e91461060c578063e985e9c514610633578063f8b4c8821461066f576102c8565b8063d547741f146105e6578063e07f2319146105f9576102c8565b8063c87b56dd116100bd578063c87b56dd14610599578063ca15c873146105ac578063d5391393146105bf576102c8565b8063b88d4fde14610566578063b9c4d9fb14610579576102c8565b806391d148541161012f578063a217fddf11610114578063a217fddf14610538578063a22cb46514610540578063a6487c5314610553576102c8565b806391d14854146104f757806395d89b4114610530576102c8565b80637c880421116101605780637c880421146104c95780638456cb59146104dc5780639010d07c146104e4576102c8565b80636a627842146104a357806370a08231146104b6576102c8565b80632f745c59116102295780634f6ccce7116101dd5780635c975abb116101c25780635c975abb146104525780636308f1cd1461045e5780636352211e14610490576102c8565b80634f6ccce71461042c5780635064dc531461043f576102c8565b80633f4ba83a1161020e5780633f4ba83a146103fe57806342842e0e1461040657806342966c6814610419576102c8565b80632f745c59146103d857806336568abe146103eb576102c8565b80630ebd4c7f1161028057806323b872dd1161026557806323b872dd1461038f578063248a9ca3146103a25780632f2ff15d146103c5576102c8565b80630ebd4c7f1461035d57806318160ddd1461037d576102c8565b8063081812fc116102b1578063081812fc1461030a578063095ea7b3146103355780630a3de6d31461034a576102c8565b806301ffc9a7146102cd57806306fdde03146102f5575b600080fd5b6102e06102db36600461325b565b610682565b60405190151581526020015b60405180910390f35b6102fd610695565b6040516102ec91906134c4565b61031d6103183660046131fe565b610727565b6040516001600160a01b0390911681526020016102ec565b61034861034336600461317c565b6107d2565b005b61034861035836600461334e565b610904565b61037061036b3660046131fe565b610912565b6040516102ec91906134b1565b60fd545b6040519081526020016102ec565b61034861039d36600461308e565b610a5f565b6103816103b03660046131fe565b60009081526065602052604090206001015490565b6103486103d3366004613216565b610ae7565b6103816103e636600461317c565b610b09565b6103486103f9366004613216565b610bb4565b610348610bd6565b61034861041436600461308e565b610c7e565b6103486104273660046131fe565b610c99565b61038161043a3660046131fe565b610d20565b61034861044d36600461334e565b610dd2565b61015f5460ff166102e0565b61047161046c36600461323a565b610f81565b604080516001600160a01b0390931683526020830191909152016102ec565b61031d61049e3660046131fe565b610fc8565b6103486104b136600461303a565b611053565b6103816104c436600461303a565b611111565b6103486104d736600461330d565b6111ab565b6103486111b6565b61031d6104f236600461323a565b61125a565b6102e0610505366004613216565b60009182526065602090815260408084206001600160a01b0393909316845291905290205460ff1690565b6102fd611279565b610381600081565b61034861054e36600461314b565b611288565b610348610561366004613293565b61135a565b6103486105743660046130ce565b611425565b61058c6105873660046131fe565b6114ad565b6040516102ec9190613464565b6102fd6105a73660046131fe565b6115ff565b6103816105ba3660046131fe565b6116e7565b6103817f9f2df0fed2c77648de5860a4cc508cd0818c85b8b8a1ab4ceeef8d981c8956a681565b6103486105f4366004613216565b6116fe565b61034861060736600461330d565b611708565b6103817f65d7a28e3265b37a6474929f336521b332c1681b933f6cb9f3376673440d862a81565b6102e0610641366004613056565b6001600160a01b03918216600090815260ce6020908152604080832093909416825291909152205460ff1690565b61034861067d3660046131a7565b611804565b600061068d8261190d565b90505b919050565b606060c980546106a4906135e0565b80601f01602080910402602001604051908101604052809291908181526020018280546106d0906135e0565b801561071d5780601f106106f25761010080835404028352916020019161071d565b820191906000526020600020905b81548152906001019060200180831161070057829003601f168201915b5050505050905090565b600081815260cb60205260408120546001600160a01b03166107b65760405162461bcd60e51b815260206004820152602c60248201527f4552433732313a20617070726f76656420717565727920666f72206e6f6e657860448201527f697374656e7420746f6b656e000000000000000000000000000000000000000060648201526084015b60405180910390fd5b50600090815260cd60205260409020546001600160a01b031690565b60006107dd82610fc8565b9050806001600160a01b0316836001600160a01b031614156108675760405162461bcd60e51b815260206004820152602160248201527f4552433732313a20617070726f76616c20746f2063757272656e74206f776e6560448201527f720000000000000000000000000000000000000000000000000000000000000060648201526084016107ad565b336001600160a01b038216148061088357506108838133610641565b6108f55760405162461bcd60e51b815260206004820152603860248201527f4552433732313a20617070726f76652063616c6c6572206973206e6f74206f7760448201527f6e6572206e6f7220617070726f76656420666f7220616c6c000000000000000060648201526084016107ad565b6108ff838361194b565b505050565b61090e8282610dd2565b5050565b60008181526101f560209081526040808320805482518185028101850190935280835260609493849084015b82821015610986576000848152602090819020604080518082019091526002850290910180546001600160a01b0316825260019081015482840152908352909201910161093e565b5050505090506000815167ffffffffffffffff8111156109b657634e487b7160e01b600052604160045260246000fd5b6040519080825280602002602001820160405280156109df578160200160208202803683370190505b50905060005b8251811015610a5757828181518110610a0e57634e487b7160e01b600052603260045260246000fd5b602002602001015160200151828281518110610a3a57634e487b7160e01b600052603260045260246000fd5b602090810291909101015280610a4f8161361b565b9150506109e5565b509392505050565b610a6a335b826119c6565b610adc5760405162461bcd60e51b815260206004820152603160248201527f4552433732313a207472616e736665722063616c6c6572206973206e6f74206f60448201527f776e6572206e6f7220617070726f76656400000000000000000000000000000060648201526084016107ad565b6108ff838383611ace565b610af18282611cb3565b60008281526097602052604090206108ff9082611d4c565b6000610b1483611111565b8210610b885760405162461bcd60e51b815260206004820152602b60248201527f455243373231456e756d657261626c653a206f776e657220696e646578206f7560448201527f74206f6620626f756e647300000000000000000000000000000000000000000060648201526084016107ad565b506001600160a01b038216600090815260fb602090815260408083208484529091529020545b92915050565b610bbe8282611d61565b60008281526097602052604090206108ff9082611de9565b610c007f65d7a28e3265b37a6474929f336521b332c1681b933f6cb9f3376673440d862a33610505565b610c74576040805162461bcd60e51b81526020600482015260248101919091527f4552433732315072657365744d696e7465725061757365724175746f49643a2060448201527f6d75737420686176652070617573657220726f6c6520746f20756e706175736560648201526084016107ad565b610c7c611dfe565b565b6108ff83838360405180602001604052806000815250611425565b610ca233610a64565b610d145760405162461bcd60e51b815260206004820152603060248201527f4552433732314275726e61626c653a2063616c6c6572206973206e6f74206f7760448201527f6e6572206e6f7220617070726f7665640000000000000000000000000000000060648201526084016107ad565b610d1d81611e9c565b50565b6000610d2b60fd5490565b8210610d9f5760405162461bcd60e51b815260206004820152602c60248201527f455243373231456e756d657261626c653a20676c6f62616c20696e646578206f60448201527f7574206f6620626f756e6473000000000000000000000000000000000000000060648201526084016107ad565b60fd8281548110610dc057634e487b7160e01b600052603260045260246000fd5b90600052602060002001549050919050565b60005b81518110156108ff5760006001600160a01b0316828281518110610e0957634e487b7160e01b600052603260045260246000fd5b6020026020010151600001516001600160a01b03161415610e6c5760405162461bcd60e51b815260206004820152601b60248201527f526563697069656e742073686f756c642062652070726573656e74000000000060448201526064016107ad565b818181518110610e8c57634e487b7160e01b600052603260045260246000fd5b60200260200101516020015160001415610ee85760405162461bcd60e51b815260206004820152601c60248201527f4665652076616c75652073686f756c6420626520706f7369746976650000000060448201526064016107ad565b60008381526101f5602052604090208251839083908110610f1957634e487b7160e01b600052603260045260246000fd5b6020908102919091018101518254600180820185556000948552938390208251600290920201805473ffffffffffffffffffffffffffffffffffffffff19166001600160a01b0390921691909117815591015191015580610f798161361b565b915050610dd5565b6101f56020528160005260406000208181548110610f9e57600080fd5b6000918252602090912060029091020180546001909101546001600160a01b039091169250905082565b600081815260cb60205260408120546001600160a01b03168061068d5760405162461bcd60e51b815260206004820152602960248201527f4552433732313a206f776e657220717565727920666f72206e6f6e657869737460448201527f656e7420746f6b656e000000000000000000000000000000000000000000000060648201526084016107ad565b61107d7f9f2df0fed2c77648de5860a4cc508cd0818c85b8b8a1ab4ceeef8d981c8956a633610505565b6110ef5760405162461bcd60e51b815260206004820152603d60248201527f4552433732315072657365744d696e7465725061757365724175746f49643a2060448201527f6d7573742068617665206d696e74657220726f6c6520746f206d696e7400000060648201526084016107ad565b611102816110fd6101c35490565b611f50565b610d1d6101c380546001019055565b60006001600160a01b03821661118f5760405162461bcd60e51b815260206004820152602a60248201527f4552433732313a2062616c616e636520717565727920666f7220746865207a6560448201527f726f20616464726573730000000000000000000000000000000000000000000060648201526084016107ad565b506001600160a01b0316600090815260cc602052604090205490565b6108ff838383611708565b6111e07f65d7a28e3265b37a6474929f336521b332c1681b933f6cb9f3376673440d862a33610505565b6112525760405162461bcd60e51b815260206004820152603e60248201527f4552433732315072657365744d696e7465725061757365724175746f49643a2060448201527f6d75737420686176652070617573657220726f6c6520746f207061757365000060648201526084016107ad565b610c7c6120ab565b60008281526097602052604081206112729083612135565b9392505050565b606060ca80546106a4906135e0565b6001600160a01b0382163314156112e15760405162461bcd60e51b815260206004820152601960248201527f4552433732313a20617070726f766520746f2063616c6c65720000000000000060448201526064016107ad565b33600081815260ce602090815260408083206001600160a01b0387168085529252909120805460ff1916841515179055906001600160a01b03167f17307eab39ab6107e8899845ad3d59bd9653f200f220920489ca2b5937696c318360405161134e911515815260200190565b60405180910390a35050565b600054610100900460ff1680611373575060005460ff16155b6113d65760405162461bcd60e51b815260206004820152602e60248201527f496e697469616c697a61626c653a20636f6e747261637420697320616c72656160448201526d191e481a5b9a5d1a585b1a5e995960921b60648201526084016107ad565b600054610100900460ff161580156113f8576000805461ffff19166101011790555b6114028484612141565b61140d84848461221d565b801561141f576000805461ff00191690555b50505050565b61142f33836119c6565b6114a15760405162461bcd60e51b815260206004820152603160248201527f4552433732313a207472616e736665722063616c6c6572206973206e6f74206f60448201527f776e6572206e6f7220617070726f76656400000000000000000000000000000060648201526084016107ad565b61141f84848484612330565b60008181526101f560209081526040808320805482518185028101850190935280835260609493849084015b82821015611521576000848152602090819020604080518082019091526002850290910180546001600160a01b031682526001908101548284015290835290920191016114d9565b5050505090506000815167ffffffffffffffff81111561155157634e487b7160e01b600052604160045260246000fd5b60405190808252806020026020018201604052801561157a578160200160208202803683370190505b50905060005b8251811015610a57578281815181106115a957634e487b7160e01b600052603260045260246000fd5b6020026020010151600001518282815181106115d557634e487b7160e01b600052603260045260246000fd5b6001600160a01b0390921660209283029190910190910152806115f78161361b565b915050611580565b600081815260cb60205260409020546060906001600160a01b031661168c5760405162461bcd60e51b815260206004820152602f60248201527f4552433732314d657461646174613a2055524920717565727920666f72206e6f60448201527f6e6578697374656e7420746f6b656e000000000000000000000000000000000060648201526084016107ad565b60006116966123b9565b905060008151116116b65760405180602001604052806000815250611272565b806116c0846123c9565b6040516020016116d19291906133f9565b6040516020818303038152906040529392505050565b600081815260976020526040812061068d90612518565b610bbe8282612522565b60008381526101f56020526040812054905b818110156117fd5760008581526101f56020526040902080546001600160a01b03861691908390811061175d57634e487b7160e01b600052603260045260246000fd5b60009182526020909120600290910201546001600160a01b031614156117eb5760008581526101f5602052604090208054849190839081106117af57634e487b7160e01b600052603260045260246000fd5b60009182526020909120600290910201805473ffffffffffffffffffffffffffffffffffffffff19166001600160a01b03929092169190911790555b806117f58161361b565b91505061171a565b5050505050565b61180e8383611f50565b6000815167ffffffffffffffff81111561183857634e487b7160e01b600052604160045260246000fd5b604051908082528060200260200182016040528015611861578160200160208202803683370190505b5090506000825167ffffffffffffffff81111561188e57634e487b7160e01b600052604160045260246000fd5b6040519080825280602002602001820160405280156118b7578160200160208202803683370190505b5090506118c48484610dd2565b8251156117fd577f99aba1d63749cfd5ad1afda7c4663840924d54eb5f005bbbeadedc6ec13674b28483836040516118fe939291906134d7565b60405180910390a15050505050565b60006001600160e01b031982167f780e9d6300000000000000000000000000000000000000000000000000000000148061068d575061068d826125af565b600081815260cd60205260409020805473ffffffffffffffffffffffffffffffffffffffff19166001600160a01b038416908117909155819061198d82610fc8565b6001600160a01b03167f8c5be1e5ebec7d5bd14f71427d1e84f3dd0314c0f7b2291e5b200ac8c7c3b92560405160405180910390a45050565b600081815260cb60205260408120546001600160a01b0316611a505760405162461bcd60e51b815260206004820152602c60248201527f4552433732313a206f70657261746f7220717565727920666f72206e6f6e657860448201527f697374656e7420746f6b656e000000000000000000000000000000000000000060648201526084016107ad565b6000611a5b83610fc8565b9050806001600160a01b0316846001600160a01b03161480611a965750836001600160a01b0316611a8b84610727565b6001600160a01b0316145b80611ac657506001600160a01b03808216600090815260ce602090815260408083209388168352929052205460ff165b949350505050565b826001600160a01b0316611ae182610fc8565b6001600160a01b031614611b5d5760405162461bcd60e51b815260206004820152602960248201527f4552433732313a207472616e73666572206f6620746f6b656e2074686174206960448201527f73206e6f74206f776e000000000000000000000000000000000000000000000060648201526084016107ad565b6001600160a01b038216611bd85760405162461bcd60e51b8152602060048201526024808201527f4552433732313a207472616e7366657220746f20746865207a65726f2061646460448201527f726573730000000000000000000000000000000000000000000000000000000060648201526084016107ad565b611be3838383612621565b611bee60008261194b565b6001600160a01b038316600090815260cc60205260408120805460019290611c1790849061359d565b90915550506001600160a01b038216600090815260cc60205260408120805460019290611c45908490613571565b9091555050600081815260cb6020526040808220805473ffffffffffffffffffffffffffffffffffffffff19166001600160a01b0386811691821790925591518493918716917fddf252ad1be2c89b69c2b068fc378daa952ba7f163c4a11628f55a4df523b3ef91a4505050565b600082815260656020526040902060010154611cd0905b33610505565b611d425760405162461bcd60e51b815260206004820152602f60248201527f416363657373436f6e74726f6c3a2073656e646572206d75737420626520616e60448201527f2061646d696e20746f206772616e74000000000000000000000000000000000060648201526084016107ad565b61090e828261262c565b6000611272836001600160a01b0384166126ce565b6001600160a01b0381163314611ddf5760405162461bcd60e51b815260206004820152602f60248201527f416363657373436f6e74726f6c3a2063616e206f6e6c792072656e6f756e636560448201527f20726f6c657320666f722073656c66000000000000000000000000000000000060648201526084016107ad565b61090e828261271d565b6000611272836001600160a01b0384166127a0565b61015f5460ff16611e515760405162461bcd60e51b815260206004820152601460248201527f5061757361626c653a206e6f742070617573656400000000000000000000000060448201526064016107ad565b61015f805460ff191690557f5db9ee0a495bf2e6ff9c91a7834c1ba4fdd244a5e8aa4e537bd38aeae4b073aa335b6040516001600160a01b03909116815260200160405180910390a1565b6000611ea782610fc8565b9050611eb581600084612621565b611ec060008361194b565b6001600160a01b038116600090815260cc60205260408120805460019290611ee990849061359d565b9091555050600082815260cb6020526040808220805473ffffffffffffffffffffffffffffffffffffffff19169055518391906001600160a01b038416907fddf252ad1be2c89b69c2b068fc378daa952ba7f163c4a11628f55a4df523b3ef908390a45050565b6001600160a01b038216611fa65760405162461bcd60e51b815260206004820181905260248201527f4552433732313a206d696e7420746f20746865207a65726f206164647265737360448201526064016107ad565b600081815260cb60205260409020546001600160a01b03161561200b5760405162461bcd60e51b815260206004820152601c60248201527f4552433732313a20746f6b656e20616c7265616479206d696e7465640000000060448201526064016107ad565b61201760008383612621565b6001600160a01b038216600090815260cc60205260408120805460019290612040908490613571565b9091555050600081815260cb6020526040808220805473ffffffffffffffffffffffffffffffffffffffff19166001600160a01b03861690811790915590518392907fddf252ad1be2c89b69c2b068fc378daa952ba7f163c4a11628f55a4df523b3ef908290a45050565b61015f5460ff16156120ff5760405162461bcd60e51b815260206004820152601060248201527f5061757361626c653a207061757365640000000000000000000000000000000060448201526064016107ad565b61015f805460ff191660011790557f62e78cea01bee320cd4e420270b5ea74000d11b0c9f74754ebdbfc544b05a258611e7f3390565b600061127283836128bd565b600054610100900460ff168061215a575060005460ff16155b6121bd5760405162461bcd60e51b815260206004820152602e60248201527f496e697469616c697a61626c653a20636f6e747261637420697320616c72656160448201526d191e481a5b9a5d1a585b1a5e995960921b60648201526084016107ad565b600054610100900460ff161580156121df576000805461ffff19166101011790555b82516121f29060c9906020860190612e7a565b5081516122069060ca906020850190612e7a565b5080156108ff576000805461ff0019169055505050565b600054610100900460ff1680612236575060005460ff16155b6122995760405162461bcd60e51b815260206004820152602e60248201527f496e697469616c697a61626c653a20636f6e747261637420697320616c72656160448201526d191e481a5b9a5d1a585b1a5e995960921b60648201526084016107ad565b600054610100900460ff161580156122bb576000805461ffff19166101011790555b81516122cf906101c4906020850190612e7a565b506122dc6000335b61296c565b6123067f9f2df0fed2c77648de5860a4cc508cd0818c85b8b8a1ab4ceeef8d981c8956a6336122d7565b61140d7f65d7a28e3265b37a6474929f336521b332c1681b933f6cb9f3376673440d862a336122d7565b61233b848484611ace565b61234784848484612976565b61141f5760405162461bcd60e51b815260206004820152603260248201527f4552433732313a207472616e7366657220746f206e6f6e20455243373231526560448201527f63656976657220696d706c656d656e746572000000000000000000000000000060648201526084016107ad565b60606101c480546106a4906135e0565b60608161240a575060408051808201909152600181527f30000000000000000000000000000000000000000000000000000000000000006020820152610690565b8160005b8115612434578061241e8161361b565b915061242d9050600a83613589565b915061240e565b60008167ffffffffffffffff81111561245d57634e487b7160e01b600052604160045260246000fd5b6040519080825280601f01601f191660200182016040528015612487576020820181803683370190505b5090505b8415611ac65761249c60018361359d565b91506124a9600a86613636565b6124b4906030613571565b60f81b8183815181106124d757634e487b7160e01b600052603260045260246000fd5b60200101907effffffffffffffffffffffffffffffffffffffffffffffffffffffffffffff1916908160001a905350612511600a86613589565b945061248b565b600061068d825490565b60008281526065602052604090206001015461253d90611cca565b611ddf5760405162461bcd60e51b815260206004820152603060248201527f416363657373436f6e74726f6c3a2073656e646572206d75737420626520616e60448201527f2061646d696e20746f207265766f6b650000000000000000000000000000000060648201526084016107ad565b60006001600160e01b031982167f80ac58cd00000000000000000000000000000000000000000000000000000000148061261257506001600160e01b031982167f5b5e139f00000000000000000000000000000000000000000000000000000000145b8061068d575061068d82612ad9565b6108ff838383612b17565b60008281526065602090815260408083206001600160a01b038516845290915290205460ff1661090e5760008281526065602090815260408083206001600160a01b03851684529091529020805460ff1916600117905561268a3390565b6001600160a01b0316816001600160a01b0316837f2f8788117e7eff1d82e926ec794901d17c78024a50270940304540a733656f0d60405160405180910390a45050565b600081815260018301602052604081205461271557508154600181810184556000848152602080822090930184905584548482528286019093526040902091909155610bae565b506000610bae565b60008281526065602090815260408083206001600160a01b038516845290915290205460ff161561090e5760008281526065602090815260408083206001600160a01b0385168085529252808320805460ff1916905551339285917ff6391f5c32d9c69d2a47ea670b442974b53935d1edc7fd64eb21e047a839171b9190a45050565b600081815260018301602052604081205480156128b35760006127c460018361359d565b85549091506000906127d89060019061359d565b905060008660000182815481106127ff57634e487b7160e01b600052603260045260246000fd5b906000526020600020015490508087600001848154811061283057634e487b7160e01b600052603260045260246000fd5b600091825260209091200155612847836001613571565b6000828152600189016020526040902055865487908061287757634e487b7160e01b600052603160045260246000fd5b60019003818190600052602060002001600090559055866001016000878152602001908152602001600020600090556001945050505050610bae565b6000915050610bae565b815460009082106129365760405162461bcd60e51b815260206004820152602260248201527f456e756d657261626c655365743a20696e646578206f7574206f6620626f756e60448201527f647300000000000000000000000000000000000000000000000000000000000060648201526084016107ad565b82600001828154811061295957634e487b7160e01b600052603260045260246000fd5b9060005260206000200154905092915050565b610af18282611d42565b60006001600160a01b0384163b15612ace57604051630a85bd0160e11b81526001600160a01b0385169063150b7a02906129ba903390899088908890600401613428565b602060405180830381600087803b1580156129d457600080fd5b505af1925050508015612a04575060408051601f3d908101601f19168201909252612a0191810190613277565b60015b612ab4573d808015612a32576040519150601f19603f3d011682016040523d82523d6000602084013e612a37565b606091505b508051612aac5760405162461bcd60e51b815260206004820152603260248201527f4552433732313a207472616e7366657220746f206e6f6e20455243373231526560448201527f63656976657220696d706c656d656e746572000000000000000000000000000060648201526084016107ad565b805181602001fd5b6001600160e01b031916630a85bd0160e11b149050611ac6565b506001949350505050565b60006001600160e01b031982167f5a05180f00000000000000000000000000000000000000000000000000000000148061068d575061068d82612b9c565b612b22838383612c03565b61015f5460ff16156108ff5760405162461bcd60e51b815260206004820152602b60248201527f4552433732315061757361626c653a20746f6b656e207472616e73666572207760448201527f68696c652070617573656400000000000000000000000000000000000000000060648201526084016107ad565b60006001600160e01b031982167f7965db0b00000000000000000000000000000000000000000000000000000000148061068d57507f01ffc9a7000000000000000000000000000000000000000000000000000000006001600160e01b031983161461068d565b6001600160a01b038316612c5e57612c598160fd8054600083815260fe60205260408120829055600182018355919091527f9346ac6dd7de6b96975fec380d4d994c4c12e6a8897544f22915316cc6cca2800155565b612c81565b816001600160a01b0316836001600160a01b031614612c8157612c818382612cc0565b6001600160a01b038216612c9d57612c9881612d5d565b6108ff565b826001600160a01b0316826001600160a01b0316146108ff576108ff8282612e36565b60006001612ccd84611111565b612cd7919061359d565b600083815260fc6020526040902054909150808214612d2a576001600160a01b038416600090815260fb60209081526040808320858452825280832054848452818420819055835260fc90915290208190555b50600091825260fc602090815260408084208490556001600160a01b03909416835260fb81528383209183525290812055565b60fd54600090612d6f9060019061359d565b600083815260fe602052604081205460fd8054939450909284908110612da557634e487b7160e01b600052603260045260246000fd5b906000526020600020015490508060fd8381548110612dd457634e487b7160e01b600052603260045260246000fd5b600091825260208083209091019290925582815260fe909152604080822084905585825281205560fd805480612e1a57634e487b7160e01b600052603160045260246000fd5b6001900381819060005260206000200160009055905550505050565b6000612e4183611111565b6001600160a01b03909316600090815260fb60209081526040808320868452825280832085905593825260fc9052919091209190915550565b828054612e86906135e0565b90600052602060002090601f016020900481019282612ea85760008555612eee565b82601f10612ec157805160ff1916838001178555612eee565b82800160010185558215612eee579182015b82811115612eee578251825591602001919060010190612ed3565b50612efa929150612efe565b5090565b5b80821115612efa5760008155600101612eff565b600067ffffffffffffffff831115612f2d57612f2d613676565b612f40601f8401601f1916602001613540565b9050828152838383011115612f5457600080fd5b828260208301376000602084830101529392505050565b600082601f830112612f7b578081fd5b8135602067ffffffffffffffff821115612f9757612f97613676565b612fa5818360051b01613540565b80838252828201915082860187848660061b8901011115612fc4578586fd5b855b8581101561300e57604080838b031215612fde578788fd5b612fe781613540565b8335612ff28161368c565b8152838701358782015285529385019390910190600101612fc6565b5090979650505050505050565b600082601f83011261302b578081fd5b61127283833560208501612f13565b60006020828403121561304b578081fd5b81356112728161368c565b60008060408385031215613068578081fd5b82356130738161368c565b915060208301356130838161368c565b809150509250929050565b6000806000606084860312156130a2578081fd5b83356130ad8161368c565b925060208401356130bd8161368c565b929592945050506040919091013590565b600080600080608085870312156130e3578081fd5b84356130ee8161368c565b935060208501356130fe8161368c565b925060408501359150606085013567ffffffffffffffff811115613120578182fd5b8501601f81018713613130578182fd5b61313f87823560208401612f13565b91505092959194509250565b6000806040838503121561315d578182fd5b82356131688161368c565b915060208301358015158114613083578182fd5b6000806040838503121561318e578182fd5b82356131998161368c565b946020939093013593505050565b6000806000606084860312156131bb578283fd5b83356131c68161368c565b925060208401359150604084013567ffffffffffffffff8111156131e8578182fd5b6131f486828701612f6b565b9150509250925092565b60006020828403121561320f578081fd5b5035919050565b60008060408385031215613228578182fd5b8235915060208301356130838161368c565b6000806040838503121561324c578182fd5b50508035926020909101359150565b60006020828403121561326c578081fd5b8135611272816136a1565b600060208284031215613288578081fd5b8151611272816136a1565b6000806000606084860312156132a7578081fd5b833567ffffffffffffffff808211156132be578283fd5b6132ca8783880161301b565b945060208601359150808211156132df578283fd5b6132eb8783880161301b565b93506040860135915080821115613300578283fd5b506131f48682870161301b565b600080600060608486031215613321578081fd5b8335925060208401356133338161368c565b915060408401356133438161368c565b809150509250925092565b60008060408385031215613360578182fd5b82359150602083013567ffffffffffffffff81111561337d578182fd5b61338985828601612f6b565b9150509250929050565b6000815180845260208085019450808401835b838110156133c2578151875295820195908201906001016133a6565b509495945050505050565b600081518084526133e58160208601602086016135b4565b601f01601f19169290920160200192915050565b6000835161340b8184602088016135b4565b83519083019061341f8183602088016135b4565b01949350505050565b60006001600160a01b0380871683528086166020840152508360408301526080606083015261345a60808301846133cd565b9695505050505050565b6020808252825182820181905260009190848201906040850190845b818110156134a55783516001600160a01b031683529284019291840191600101613480565b50909695505050505050565b6000602082526112726020830184613393565b60006020825261127260208301846133cd565b60006060820185835260206060818501528186518084526080860191508288019350845b818110156135205784516001600160a01b0316835293830193918301916001016134fb565b505084810360408601526135348187613393565b98975050505050505050565b604051601f8201601f1916810167ffffffffffffffff8111828210171561356957613569613676565b604052919050565b600082198211156135845761358461364a565b500190565b60008261359857613598613660565b500490565b6000828210156135af576135af61364a565b500390565b60005b838110156135cf5781810151838201526020016135b7565b8381111561141f5750506000910152565b600181811c908216806135f457607f821691505b6020821081141561361557634e487b7160e01b600052602260045260246000fd5b50919050565b600060001982141561362f5761362f61364a565b5060010190565b60008261364557613645613660565b500690565b634e487b7160e01b600052601160045260246000fd5b634e487b7160e01b600052601260045260246000fd5b634e487b7160e01b600052604160045260246000fd5b6001600160a01b0381168114610d1d57600080fd5b6001600160e01b031981168114610d1d57600080fdfea26469706673582212205a9e3a7467753ca80a0d101bd43fecddb2a5e78dc70213973fd2f773dea3cd3664736f6c63430008030033",
  "immutableReferences": {},
  "source": "pragma solidity ^0.8.3;\n\nimport \"../contracts/GhostmarketNFT.sol\";\n\ncontract TestableGhostmarketNFT is GhostmarketNFT {\n\n    function test_saveFees(uint256 _id, Fee[] memory _fees) external {\n        saveFees(_id, _fees);\n    }\n\n    function test_updateAccount(\n        uint256 _id,\n        address _from,\n        address _to\n    ) external {\n        updateAccount(_id, _from, _to);\n    }\n}\n",
  "sourcePath": "/Users/selimerunkut/dev_freelance/GhostMarketContractBSC/contracts/TestableGhostmarketNFT.sol",
  "compiler": {
    "name": "solc",
    "version": "0.8.3+commit.8d00100c.Emscripten.clang"
  },
  "schemaVersion": "3.3.4",
  "updatedAt": "2021-04-19T21:14:59.407Z",
  "devdoc": {
    "kind": "dev",
    "methods": {
      "approve(address,uint256)": {
        "details": "See {IERC721-approve}."
      },
      "balanceOf(address)": {
        "details": "See {IERC721-balanceOf}."
      },
      "burn(uint256)": {
        "details": "Burns `tokenId`. See {ERC721-_burn}. Requirements: - The caller must own `tokenId` or be an approved operator."
      },
      "getApproved(uint256)": {
        "details": "See {IERC721-getApproved}."
      },
      "getRoleAdmin(bytes32)": {
        "details": "Returns the admin role that controls `role`. See {grantRole} and {revokeRole}. To change a role's admin, use {_setRoleAdmin}."
      },
      "getRoleMember(bytes32,uint256)": {
        "details": "Returns one of the accounts that have `role`. `index` must be a value between 0 and {getRoleMemberCount}, non-inclusive. Role bearers are not sorted in any particular way, and their ordering may change at any point. WARNING: When using {getRoleMember} and {getRoleMemberCount}, make sure you perform all queries on the same block. See the following https://forum.openzeppelin.com/t/iterating-over-elements-on-enumerableset-in-openzeppelin-contracts/2296[forum post] for more information."
      },
      "getRoleMemberCount(bytes32)": {
        "details": "Returns the number of accounts that have `role`. Can be used together with {getRoleMember} to enumerate all bearers of a role."
      },
      "grantRole(bytes32,address)": {
        "details": "Overload {grantRole} to track enumerable memberships"
      },
      "hasRole(bytes32,address)": {
        "details": "Returns `true` if `account` has been granted `role`."
      },
      "isApprovedForAll(address,address)": {
        "details": "See {IERC721-isApprovedForAll}."
      },
      "mint(address)": {
        "details": "Creates a new token for `to`. Its token ID will be automatically assigned (and available on the emitted {IERC721-Transfer} event), and the token URI autogenerated based on the base URI passed at construction. See {ERC721-_mint}. Requirements: - the caller must have the `MINTER_ROLE`."
      },
      "name()": {
        "details": "See {IERC721Metadata-name}."
      },
      "ownerOf(uint256)": {
        "details": "See {IERC721-ownerOf}."
      },
      "pause()": {
        "details": "Pauses all token transfers. See {ERC721Pausable} and {Pausable-_pause}. Requirements: - the caller must have the `PAUSER_ROLE`."
      },
      "paused()": {
        "details": "Returns true if the contract is paused, and false otherwise."
      },
      "renounceRole(bytes32,address)": {
        "details": "Overload {renounceRole} to track enumerable memberships"
      },
      "revokeRole(bytes32,address)": {
        "details": "Overload {revokeRole} to track enumerable memberships"
      },
      "safeTransferFrom(address,address,uint256)": {
        "details": "See {IERC721-safeTransferFrom}."
      },
      "safeTransferFrom(address,address,uint256,bytes)": {
        "details": "See {IERC721-safeTransferFrom}."
      },
      "setApprovalForAll(address,bool)": {
        "details": "See {IERC721-setApprovalForAll}."
      },
      "supportsInterface(bytes4)": {
        "details": "See {IERC165-supportsInterface}."
      },
      "symbol()": {
        "details": "See {IERC721Metadata-symbol}."
      },
      "tokenByIndex(uint256)": {
        "details": "See {IERC721Enumerable-tokenByIndex}."
      },
      "tokenOfOwnerByIndex(address,uint256)": {
        "details": "See {IERC721Enumerable-tokenOfOwnerByIndex}."
      },
      "tokenURI(uint256)": {
        "details": "See {IERC721Metadata-tokenURI}."
      },
      "totalSupply()": {
        "details": "See {IERC721Enumerable-totalSupply}."
      },
      "transferFrom(address,address,uint256)": {
        "details": "See {IERC721-transferFrom}."
      },
      "unpause()": {
        "details": "Unpauses all token transfers. See {ERC721Pausable} and {Pausable-_unpause}. Requirements: - the caller must have the `PAUSER_ROLE`."
      }
    },
    "version": 1
  },
  "userdoc": {
    "kind": "user",
    "methods": {},
    "version": 1
  }
}